{
  "contractName": "FathomStablecoin",
  "abi": [
    {
      "anonymous": false,
      "inputs": [
        {
          "indexed": true,
          "internalType": "address",
          "name": "owner",
          "type": "address"
        },
        {
          "indexed": true,
          "internalType": "address",
          "name": "spender",
          "type": "address"
        },
        {
          "indexed": false,
          "internalType": "uint256",
          "name": "value",
          "type": "uint256"
        }
      ],
      "name": "Approval",
      "type": "event"
    },
    {
      "anonymous": false,
      "inputs": [
        {
          "indexed": false,
          "internalType": "uint8",
          "name": "version",
          "type": "uint8"
        }
      ],
      "name": "Initialized",
      "type": "event"
    },
    {
      "anonymous": false,
      "inputs": [
        {
          "indexed": false,
          "internalType": "string",
          "name": "_name",
          "type": "string"
        }
      ],
      "name": "Rename",
      "type": "event"
    },
    {
      "anonymous": false,
      "inputs": [
        {
          "indexed": true,
          "internalType": "bytes32",
          "name": "role",
          "type": "bytes32"
        },
        {
          "indexed": true,
          "internalType": "bytes32",
          "name": "previousAdminRole",
          "type": "bytes32"
        },
        {
          "indexed": true,
          "internalType": "bytes32",
          "name": "newAdminRole",
          "type": "bytes32"
        }
      ],
      "name": "RoleAdminChanged",
      "type": "event"
    },
    {
      "anonymous": false,
      "inputs": [
        {
          "indexed": true,
          "internalType": "bytes32",
          "name": "role",
          "type": "bytes32"
        },
        {
          "indexed": true,
          "internalType": "address",
          "name": "account",
          "type": "address"
        },
        {
          "indexed": true,
          "internalType": "address",
          "name": "sender",
          "type": "address"
        }
      ],
      "name": "RoleGranted",
      "type": "event"
    },
    {
      "anonymous": false,
      "inputs": [
        {
          "indexed": true,
          "internalType": "bytes32",
          "name": "role",
          "type": "bytes32"
        },
        {
          "indexed": true,
          "internalType": "address",
          "name": "account",
          "type": "address"
        },
        {
          "indexed": true,
          "internalType": "address",
          "name": "sender",
          "type": "address"
        }
      ],
      "name": "RoleRevoked",
      "type": "event"
    },
    {
      "anonymous": false,
      "inputs": [
        {
          "indexed": true,
          "internalType": "address",
          "name": "from",
          "type": "address"
        },
        {
          "indexed": true,
          "internalType": "address",
          "name": "to",
          "type": "address"
        },
        {
          "indexed": false,
          "internalType": "uint256",
          "name": "value",
          "type": "uint256"
        }
      ],
      "name": "Transfer",
      "type": "event"
    },
    {
      "inputs": [],
      "name": "DEFAULT_ADMIN_ROLE",
      "outputs": [
        {
          "internalType": "bytes32",
          "name": "",
          "type": "bytes32"
        }
      ],
      "stateMutability": "view",
      "type": "function"
    },
    {
      "inputs": [],
      "name": "MINTER_ROLE",
      "outputs": [
        {
          "internalType": "bytes32",
          "name": "",
          "type": "bytes32"
        }
      ],
      "stateMutability": "view",
      "type": "function"
    },
    {
      "inputs": [],
      "name": "OWNER_ROLE",
      "outputs": [
        {
          "internalType": "bytes32",
          "name": "",
          "type": "bytes32"
        }
      ],
      "stateMutability": "view",
      "type": "function"
    },
    {
      "inputs": [
        {
          "internalType": "address",
          "name": "",
          "type": "address"
        },
        {
          "internalType": "address",
          "name": "",
          "type": "address"
        }
      ],
      "name": "allowance",
      "outputs": [
        {
          "internalType": "uint256",
          "name": "",
          "type": "uint256"
        }
      ],
      "stateMutability": "view",
      "type": "function"
    },
    {
      "inputs": [
        {
          "internalType": "address",
          "name": "",
          "type": "address"
        }
      ],
      "name": "balanceOf",
      "outputs": [
        {
          "internalType": "uint256",
          "name": "",
          "type": "uint256"
        }
      ],
      "stateMutability": "view",
      "type": "function"
    },
    {
      "inputs": [],
      "name": "decimals",
      "outputs": [
        {
          "internalType": "uint8",
          "name": "",
          "type": "uint8"
        }
      ],
      "stateMutability": "view",
      "type": "function"
    },
    {
      "inputs": [
        {
          "internalType": "bytes32",
          "name": "role",
          "type": "bytes32"
        }
      ],
      "name": "getRoleAdmin",
      "outputs": [
        {
          "internalType": "bytes32",
          "name": "",
          "type": "bytes32"
        }
      ],
      "stateMutability": "view",
      "type": "function"
    },
    {
      "inputs": [
        {
          "internalType": "bytes32",
          "name": "role",
          "type": "bytes32"
        },
        {
          "internalType": "address",
          "name": "account",
          "type": "address"
        }
      ],
      "name": "grantRole",
      "outputs": [],
      "stateMutability": "nonpayable",
      "type": "function"
    },
    {
      "inputs": [
        {
          "internalType": "bytes32",
          "name": "role",
          "type": "bytes32"
        },
        {
          "internalType": "address",
          "name": "account",
          "type": "address"
        }
      ],
      "name": "hasRole",
      "outputs": [
        {
          "internalType": "bool",
          "name": "",
          "type": "bool"
        }
      ],
      "stateMutability": "view",
      "type": "function"
    },
    {
      "inputs": [],
      "name": "name",
      "outputs": [
        {
          "internalType": "string",
          "name": "",
          "type": "string"
        }
      ],
      "stateMutability": "view",
      "type": "function"
    },
    {
      "inputs": [
        {
          "internalType": "bytes32",
          "name": "role",
          "type": "bytes32"
        },
        {
          "internalType": "address",
          "name": "account",
          "type": "address"
        }
      ],
      "name": "renounceRole",
      "outputs": [],
      "stateMutability": "nonpayable",
      "type": "function"
    },
    {
      "inputs": [
        {
          "internalType": "bytes32",
          "name": "role",
          "type": "bytes32"
        },
        {
          "internalType": "address",
          "name": "account",
          "type": "address"
        }
      ],
      "name": "revokeRole",
      "outputs": [],
      "stateMutability": "nonpayable",
      "type": "function"
    },
    {
      "inputs": [
        {
          "internalType": "bytes4",
          "name": "interfaceId",
          "type": "bytes4"
        }
      ],
      "name": "supportsInterface",
      "outputs": [
        {
          "internalType": "bool",
          "name": "",
          "type": "bool"
        }
      ],
      "stateMutability": "view",
      "type": "function"
    },
    {
      "inputs": [],
      "name": "symbol",
      "outputs": [
        {
          "internalType": "string",
          "name": "",
          "type": "string"
        }
      ],
      "stateMutability": "view",
      "type": "function"
    },
    {
      "inputs": [],
      "name": "totalSupply",
      "outputs": [
        {
          "internalType": "uint256",
          "name": "",
          "type": "uint256"
        }
      ],
      "stateMutability": "view",
      "type": "function"
    },
    {
      "inputs": [],
      "name": "version",
      "outputs": [
        {
          "internalType": "string",
          "name": "",
          "type": "string"
        }
      ],
      "stateMutability": "view",
      "type": "function"
    },
    {
      "inputs": [
        {
          "internalType": "string",
          "name": "_name",
          "type": "string"
        },
        {
          "internalType": "string",
          "name": "_symbol",
          "type": "string"
        }
      ],
      "name": "initialize",
      "outputs": [],
      "stateMutability": "nonpayable",
      "type": "function"
    },
    {
      "inputs": [
        {
          "internalType": "address",
          "name": "_dst",
          "type": "address"
        },
        {
          "internalType": "uint256",
          "name": "_wad",
          "type": "uint256"
        }
      ],
      "name": "transfer",
      "outputs": [
        {
          "internalType": "bool",
          "name": "",
          "type": "bool"
        }
      ],
      "stateMutability": "nonpayable",
      "type": "function"
    },
    {
      "inputs": [
        {
          "internalType": "address",
          "name": "_usr",
          "type": "address"
        },
        {
          "internalType": "uint256",
          "name": "_wad",
          "type": "uint256"
        }
      ],
      "name": "mint",
      "outputs": [],
      "stateMutability": "nonpayable",
      "type": "function"
    },
    {
      "inputs": [
        {
          "internalType": "address",
          "name": "_usr",
          "type": "address"
        },
        {
          "internalType": "uint256",
          "name": "_wad",
          "type": "uint256"
        }
      ],
      "name": "burn",
      "outputs": [],
      "stateMutability": "nonpayable",
      "type": "function"
    },
    {
      "inputs": [
        {
          "internalType": "address",
          "name": "_usr",
          "type": "address"
        },
        {
          "internalType": "uint256",
          "name": "_wad",
          "type": "uint256"
        }
      ],
      "name": "approve",
      "outputs": [
        {
          "internalType": "bool",
          "name": "",
          "type": "bool"
        }
      ],
      "stateMutability": "nonpayable",
      "type": "function"
    },
    {
      "inputs": [
        {
          "internalType": "address",
          "name": "_usr",
          "type": "address"
        },
        {
          "internalType": "uint256",
          "name": "_wad",
          "type": "uint256"
        }
      ],
      "name": "increaseAllowance",
      "outputs": [
        {
          "internalType": "bool",
          "name": "",
          "type": "bool"
        }
      ],
      "stateMutability": "nonpayable",
      "type": "function"
    },
    {
      "inputs": [
        {
          "internalType": "address",
          "name": "_usr",
          "type": "address"
        },
        {
          "internalType": "uint256",
          "name": "_wad",
          "type": "uint256"
        }
      ],
      "name": "decreaseAllowance",
      "outputs": [
        {
          "internalType": "bool",
          "name": "",
          "type": "bool"
        }
      ],
      "stateMutability": "nonpayable",
      "type": "function"
    },
    {
      "inputs": [
        {
          "internalType": "address",
          "name": "_usr",
          "type": "address"
        },
        {
          "internalType": "uint256",
          "name": "_wad",
          "type": "uint256"
        }
      ],
      "name": "push",
      "outputs": [],
      "stateMutability": "nonpayable",
      "type": "function"
    },
    {
      "inputs": [
        {
          "internalType": "address",
          "name": "_usr",
          "type": "address"
        },
        {
          "internalType": "uint256",
          "name": "_wad",
          "type": "uint256"
        }
      ],
      "name": "pull",
      "outputs": [],
      "stateMutability": "nonpayable",
      "type": "function"
    },
    {
      "inputs": [
        {
          "internalType": "address",
          "name": "_src",
          "type": "address"
        },
        {
          "internalType": "address",
          "name": "_dst",
          "type": "address"
        },
        {
          "internalType": "uint256",
          "name": "_wad",
          "type": "uint256"
        }
      ],
      "name": "move",
      "outputs": [],
      "stateMutability": "nonpayable",
      "type": "function"
    },
    {
      "inputs": [
        {
          "internalType": "string",
          "name": "_name",
          "type": "string"
        }
      ],
      "name": "rename",
      "outputs": [],
      "stateMutability": "nonpayable",
      "type": "function"
    },
    {
      "inputs": [
        {
          "internalType": "address",
          "name": "_src",
          "type": "address"
        },
        {
          "internalType": "address",
          "name": "_dst",
          "type": "address"
        },
        {
          "internalType": "uint256",
          "name": "_wad",
          "type": "uint256"
        }
      ],
      "name": "transferFrom",
      "outputs": [
        {
          "internalType": "bool",
          "name": "",
          "type": "bool"
        }
      ],
      "stateMutability": "nonpayable",
      "type": "function"
    }
  ],
  "bytecode": "0x608060405234801561001057600080fd5b506117d8806100206000396000f3fe608060405234801561001057600080fd5b50600436106101c45760003560e01c806370a08231116100f9578063b753a98c11610097578063d547741f11610071578063d547741f146103dd578063dd62ed3e146103f0578063e58378bb14610362578063f2d5d56b1461041b57600080fd5b8063b753a98c14610390578063bb35783b146103a3578063d5391393146103b657600080fd5b80639dc29fac116100d35780639dc29fac1461034f578063a217fddf14610362578063a457c2d71461036a578063a9059cbb1461037d57600080fd5b806370a082311461031457806391d148541461033457806395d89b411461034757600080fd5b8063313ce5671161016657806340c10f191161014057806340c10f19146102bb5780634cd88b76146102ce57806354fd4d50146102e157806366605ba41461030157600080fd5b8063313ce5671461027b57806336568abe1461029557806339509351146102a857600080fd5b806318160ddd116101a257806318160ddd1461021957806323b872dd14610230578063248a9ca3146102435780632f2ff15d1461026657600080fd5b806301ffc9a7146101c957806306fdde03146101f1578063095ea7b314610206575b600080fd5b6101dc6101d7366004611208565b61042e565b60405190151581526020015b60405180910390f35b6101f9610465565b6040516101e89190611256565b6101dc6102143660046112a5565b6104f3565b61022260995481565b6040519081526020016101e8565b6101dc61023e3660046112cf565b610509565b61022261025136600461130b565b60009081526065602052604090206001015490565b610279610274366004611324565b610715565b005b610283601281565b60405160ff90911681526020016101e8565b6102796102a3366004611324565b61073f565b6101dc6102b63660046112a5565b6107bd565b6102796102c93660046112a5565b6107f4565b6102796102dc3660046113f3565b6108e4565b6101f9604051806040016040528060018152602001603160f81b81525081565b61027961030f366004611457565b610a1b565b610222610322366004611494565b609a6020526000908152604090205481565b6101dc610342366004611324565b610aa7565b6101f9610ad2565b61027961035d3660046112a5565b610adf565b610222600081565b6101dc6103783660046112a5565b610c5a565b6101dc61038b3660046112a5565b610cff565b61027961039e3660046112a5565b610d13565b6102796103b13660046112cf565b610d1e565b6102227f9f2df0fed2c77648de5860a4cc508cd0818c85b8b8a1ab4ceeef8d981c8956a681565b6102796103eb366004611324565b610d2f565b6102226103fe3660046114af565b609b60209081526000928352604080842090915290825290205481565b6102796104293660046112a5565b610d54565b60006001600160e01b03198216637965db0b60e01b148061045f57506301ffc9a760e01b6001600160e01b03198316145b92915050565b60978054610472906114d9565b80601f016020809104026020016040519081016040528092919081815260200182805461049e906114d9565b80156104eb5780601f106104c0576101008083540402835291602001916104eb565b820191906000526020600020905b8154815290600101906020018083116104ce57829003601f168201915b505050505081565b6000610500338484610d5f565b50600192915050565b600080821161055f5760405162461bcd60e51b815260206004820152601c60248201527f466174686f6d537461626c65636f696e2f7a65726f2d616d6f756e740000000060448201526064015b60405180910390fd5b6001600160a01b0383166105bf5760405162461bcd60e51b815260206004820152602160248201527f466174686f6d537461626c65636f696e2f7a65726f2d64657374696e6174696f6044820152603760f91b6064820152608401610556565b6001600160a01b0384166000818152609b60209081526040808320338452825280832054938352609a90915290205483111561060d5760405162461bcd60e51b815260040161055690611513565b6001600160a01b038516331480159061062857506000198114155b15610661578281101561064d5760405162461bcd60e51b815260040161055690611558565b610661853361065c86856115b5565b610d5f565b6001600160a01b0385166000908152609a6020526040812080548592906106899084906115b5565b90915550506001600160a01b0384166000908152609a6020526040812080548592906106b69084906115c8565b92505081905550836001600160a01b0316856001600160a01b03167fddf252ad1be2c89b69c2b068fc378daa952ba7f163c4a11628f55a4df523b3ef8560405161070291815260200190565b60405180910390a3506001949350505050565b60008281526065602052604090206001015461073081610e90565b61073a8383610e9d565b505050565b6001600160a01b03811633146107af5760405162461bcd60e51b815260206004820152602f60248201527f416363657373436f6e74726f6c3a2063616e206f6e6c792072656e6f756e636560448201526e103937b632b9903337b91039b2b63360891b6064820152608401610556565b6107b98282610f23565b5050565b336000818152609b602090815260408083206001600160a01b0387168452909152812054909161050091859061065c9086906115c8565b61081e7f9f2df0fed2c77648de5860a4cc508cd0818c85b8b8a1ab4ceeef8d981c8956a633610aa7565b6108585760405162461bcd60e51b815260206004820152600b60248201526a216d696e746572526f6c6560a81b6044820152606401610556565b6001600160a01b0382166000908152609a6020526040812080548392906108809084906115c8565b92505081905550806099600082825461089991906115c8565b90915550506040518181526001600160a01b038316906000907fddf252ad1be2c89b69c2b068fc378daa952ba7f163c4a11628f55a4df523b3ef906020015b60405180910390a35050565b600054610100900460ff16158080156109045750600054600160ff909116105b8061091e5750303b15801561091e575060005460ff166001145b6109815760405162461bcd60e51b815260206004820152602e60248201527f496e697469616c697a61626c653a20636f6e747261637420697320616c72656160448201526d191e481a5b9a5d1a585b1a5e995960921b6064820152608401610556565b6000805460ff1916600117905580156109a4576000805461ff0019166101001790555b6109ac610f8a565b60976109b88482611629565b5060986109c58382611629565b506109d1600033610ff7565b801561073a576000805461ff0019169055604051600181527f7f26b83ff96e1f2b6a682f133852f6798a09c465da95921460cefb38474024989060200160405180910390a1505050565b610a26600033610aa7565b610a605760405162461bcd60e51b815260206004820152600b60248201526a214f574e45525f524f4c4560a81b6044820152606401610556565b6097610a6c8282611629565b507f311218f39a33711e788d2e775bbd67a4df67a9cd18b3ec4343676af8d764c49a81604051610a9c9190611256565b60405180910390a150565b60009182526065602090815260408084206001600160a01b0393909316845291905290205460ff1690565b60988054610472906114d9565b6001600160a01b0382166000908152609a6020526040902054811115610b175760405162461bcd60e51b815260040161055690611513565b6001600160a01b0382163314801590610b5557506001600160a01b0382166000908152609b6020908152604080832033845290915290205460001914155b15610bd6576001600160a01b0382166000908152609b60209081526040808320338452909152902054811115610b9d5760405162461bcd60e51b815260040161055690611558565b6001600160a01b0382166000908152609b6020908152604080832033845290915281208054839290610bd09084906115b5565b90915550505b6001600160a01b0382166000908152609a602052604081208054839290610bfe9084906115b5565b925050819055508060996000828254610c1791906115b5565b90915550506040518181526000906001600160a01b038416907fddf252ad1be2c89b69c2b068fc378daa952ba7f163c4a11628f55a4df523b3ef906020016108d8565b336000908152609b602090815260408083206001600160a01b038616845290915281205482811015610ce65760405162461bcd60e51b815260206004820152602f60248201527f466174686f6d537461626c65636f696e2f6465637265617365642d616c6c6f7760448201526e616e63652d62656c6f772d7a65726f60881b6064820152608401610556565b610cf5338561065c86856115b5565b5060019392505050565b6000610d0c338484610509565b9392505050565b61073a338383610509565b610d29838383610509565b50505050565b600082815260656020526040902060010154610d4a81610e90565b61073a8383610f23565b61073a823383610509565b6001600160a01b038316610dc85760405162461bcd60e51b815260206004820152602a60248201527f466174686f6d537461626c65636f696e2f617070726f76652d66726f6d2d7a65604482015269726f2d6164647265737360b01b6064820152608401610556565b6001600160a01b038216610e2f5760405162461bcd60e51b815260206004820152602860248201527f466174686f6d537461626c65636f696e2f617070726f76652d746f2d7a65726f6044820152672d6164647265737360c01b6064820152608401610556565b6001600160a01b038381166000818152609b602090815260408083209487168084529482529182902085905590518481527f8c5be1e5ebec7d5bd14f71427d1e84f3dd0314c0f7b2291e5b200ac8c7c3b925910160405180910390a3505050565b610e9a8133611001565b50565b610ea78282610aa7565b6107b95760008281526065602090815260408083206001600160a01b03851684529091529020805460ff19166001179055610edf3390565b6001600160a01b0316816001600160a01b0316837f2f8788117e7eff1d82e926ec794901d17c78024a50270940304540a733656f0d60405160405180910390a45050565b610f2d8282610aa7565b156107b95760008281526065602090815260408083206001600160a01b0385168085529252808320805460ff1916905551339285917ff6391f5c32d9c69d2a47ea670b442974b53935d1edc7fd64eb21e047a839171b9190a45050565b600054610100900460ff16610ff55760405162461bcd60e51b815260206004820152602b60248201527f496e697469616c697a61626c653a20636f6e7472616374206973206e6f74206960448201526a6e697469616c697a696e6760a81b6064820152608401610556565b565b6107b98282610e9d565b61100b8282610aa7565b6107b9576110188161105a565b61102383602061106c565b6040516020016110349291906116e9565b60408051601f198184030181529082905262461bcd60e51b825261055691600401611256565b606061045f6001600160a01b03831660145b6060600061107b83600261175e565b6110869060026115c8565b67ffffffffffffffff81111561109e5761109e611350565b6040519080825280601f01601f1916602001820160405280156110c8576020820181803683370190505b509050600360fc1b816000815181106110e3576110e3611775565b60200101906001600160f81b031916908160001a905350600f60fb1b8160018151811061111257611112611775565b60200101906001600160f81b031916908160001a905350600061113684600261175e565b6111419060016115c8565b90505b60018111156111b9576f181899199a1a9b1b9c1cb0b131b232b360811b85600f166010811061117557611175611775565b1a60f81b82828151811061118b5761118b611775565b60200101906001600160f81b031916908160001a90535060049490941c936111b28161178b565b9050611144565b508315610d0c5760405162461bcd60e51b815260206004820181905260248201527f537472696e67733a20686578206c656e67746820696e73756666696369656e746044820152606401610556565b60006020828403121561121a57600080fd5b81356001600160e01b031981168114610d0c57600080fd5b60005b8381101561124d578181015183820152602001611235565b50506000910152565b6020815260008251806020840152611275816040850160208701611232565b601f01601f19169190910160400192915050565b80356001600160a01b03811681146112a057600080fd5b919050565b600080604083850312156112b857600080fd5b6112c183611289565b946020939093013593505050565b6000806000606084860312156112e457600080fd5b6112ed84611289565b92506112fb60208501611289565b9150604084013590509250925092565b60006020828403121561131d57600080fd5b5035919050565b6000806040838503121561133757600080fd5b8235915061134760208401611289565b90509250929050565b634e487b7160e01b600052604160045260246000fd5b600082601f83011261137757600080fd5b813567ffffffffffffffff8082111561139257611392611350565b604051601f8301601f19908116603f011681019082821181831017156113ba576113ba611350565b816040528381528660208588010111156113d357600080fd5b836020870160208301376000602085830101528094505050505092915050565b6000806040838503121561140657600080fd5b823567ffffffffffffffff8082111561141e57600080fd5b61142a86838701611366565b9350602085013591508082111561144057600080fd5b5061144d85828601611366565b9150509250929050565b60006020828403121561146957600080fd5b813567ffffffffffffffff81111561148057600080fd5b61148c84828501611366565b949350505050565b6000602082840312156114a657600080fd5b610d0c82611289565b600080604083850312156114c257600080fd5b6114cb83611289565b915061134760208401611289565b600181811c908216806114ed57607f821691505b60208210810361150d57634e487b7160e01b600052602260045260246000fd5b50919050565b60208082526025908201527f466174686f6d537461626c65636f696e2f696e73756666696369656e742d62616040820152646c616e636560d81b606082015260800190565b60208082526027908201527f466174686f6d537461626c65636f696e2f696e73756666696369656e742d616c6040820152666c6f77616e636560c81b606082015260800190565b634e487b7160e01b600052601160045260246000fd5b8181038181111561045f5761045f61159f565b8082018082111561045f5761045f61159f565b601f82111561073a57600081815260208120601f850160051c810160208610156116025750805b601f850160051c820191505b818110156116215782815560010161160e565b505050505050565b815167ffffffffffffffff81111561164357611643611350565b6116578161165184546114d9565b846115db565b602080601f83116001811461168c57600084156116745750858301515b600019600386901b1c1916600185901b178555611621565b600085815260208120601f198616915b828110156116bb5788860151825594840194600190910190840161169c565b50858210156116d95787850151600019600388901b60f8161c191681555b5050505050600190811b01905550565b7f416363657373436f6e74726f6c3a206163636f756e7420000000000000000000815260008351611721816017850160208801611232565b7001034b99036b4b9b9b4b733903937b6329607d1b6017918401918201528351611752816028840160208801611232565b01602801949350505050565b808202811582820484141761045f5761045f61159f565b634e487b7160e01b600052603260045260246000fd5b60008161179a5761179a61159f565b50600019019056fea2646970667358221220ef5fe43d3c585c4431aaef1ef8a10cdfb3a4884ef47307b16eef08a1553a8e9e64736f6c63430008110033",
  "immutableReferences": {},
  "source": "// SPDX-License-Identifier: AGPL-3.0-or-later\npragma solidity 0.8.17;\n\nimport \"@openzeppelin/contracts-upgradeable/access/AccessControlUpgradeable.sol\";\nimport \"../interfaces/IStablecoin.sol\";\n\ncontract FathomStablecoin is IStablecoin, AccessControlUpgradeable {\n    bytes32 public constant OWNER_ROLE = DEFAULT_ADMIN_ROLE;\n    bytes32 public constant MINTER_ROLE = keccak256(\"MINTER_ROLE\");\n\n    // solhint-disable-next-line const-name-snakecase\n    string public constant version = \"1\";\n    // solhint-disable-next-line const-name-snakecase\n    uint8 public constant decimals = 18;\n\n    string public name; // Fathom USD Stablecoin\n    string public symbol; // FXD\n    uint256 public totalSupply;\n\n    mapping(address => uint256) public override balanceOf;\n    mapping(address => mapping(address => uint256)) public allowance;\n\n    function initialize(string memory _name, string memory _symbol) external initializer {\n        AccessControlUpgradeable.__AccessControl_init();\n\n        name = _name;\n        symbol = _symbol;\n\n        _setupRole(OWNER_ROLE, msg.sender);\n    }\n\n    /// @notice Transfer `_wad` amount of tokens from `msg.sender` to `_dst`.\n    /// @param _dst The address to transfer tokens to.\n    /// @param _wad The amount of tokens to transfer.\n    /// @return A boolean value indicating whether the operation succeeded.\n    function transfer(address _dst, uint256 _wad) external override returns (bool) {\n        return transferFrom(msg.sender, _dst, _wad);\n    }\n\n    /// @notice Creates `_wad` amount of new tokens and assigns them to `_usr`, increasing the total supply.\n    /// @dev This function can only be called by addresses with the minter role.\n    /// @param _usr The address to assign the new tokens to.\n    /// @param _wad The amount of new tokens to create.\n    function mint(address _usr, uint256 _wad) external override {\n        require(hasRole(MINTER_ROLE, msg.sender), \"!minterRole\");\n\n        balanceOf[_usr] += _wad;\n        totalSupply += _wad;\n        emit Transfer(address(0), _usr, _wad);\n    }\n\n    /// @notice Destroys `_wad` amount tokens from `_usr`, reducing the total supply.\n    /// @dev This function can only be called by `_usr` or an approved address.\n    /// @param _usr The address to burn tokens from.\n    /// @param _wad The amount of tokens to burn.\n    function burn(address _usr, uint256 _wad) external override {\n        require(balanceOf[_usr] >= _wad, \"FathomStablecoin/insufficient-balance\");\n        if (_usr != msg.sender && allowance[_usr][msg.sender] != type(uint).max) {\n            require(allowance[_usr][msg.sender] >= _wad, \"FathomStablecoin/insufficient-allowance\");\n            allowance[_usr][msg.sender] -= _wad;\n        }\n        balanceOf[_usr] -= _wad;\n        totalSupply -= _wad;\n        emit Transfer(_usr, address(0), _wad);\n    }\n\n    /// @notice Set `_wad` as the allowance of `_usr` over the `msg.sender`'s tokens.\n    /// @param _usr The address which will spend the funds.\n    /// @param _wad The amount of tokens to allow.\n    /// @return A boolean value indicating whether the operation succeeded.\n    function approve(address _usr, uint256 _wad) external override returns (bool) {\n        _approve(msg.sender, _usr, _wad);\n        return true;\n    }\n\n    /// @notice Increase the allowance of `_usr` over the `msg.sender`'s tokens by `_wad`.\n    /// @param _usr The address which will spend the funds.\n    /// @param _wad The amount of tokens to increase the allowance by.\n    /// @return A boolean value indicating whether the operation succeeded.\n    function increaseAllowance(address _usr, uint256 _wad) external override returns (bool) {\n        _approve(msg.sender, _usr, allowance[msg.sender][_usr] + _wad);\n        return true;\n    }\n\n    /// @notice Decrease the allowance of `_usr` over the `msg.sender`'s tokens by `_wad`.\n    /// @param _usr The address which will spend the funds.\n    /// @param _wad The amount of tokens to decrease the allowance by.\n    /// @return A boolean value indicating whether the operation succeeded.\n    function decreaseAllowance(address _usr, uint256 _wad) external override returns (bool) {\n        uint256 currentAllowance = allowance[msg.sender][_usr];\n        require(currentAllowance >= _wad, \"FathomStablecoin/decreased-allowance-below-zero\");\n        _approve(msg.sender, _usr, currentAllowance - _wad);\n\n        return true;\n    }\n\n    /// @notice Transfer `_wad` tokens from `msg.sender` to `_usr`.\n    /// @param _usr The address to transfer tokens to.\n    /// @param _wad The amount of tokens to transfer.\n    function push(address _usr, uint256 _wad) external {\n        transferFrom(msg.sender, _usr, _wad);\n    }\n\n    /// @notice Transfer `_wad` tokens from `_usr` to `msg.sender`.\n    /// @param _usr The address to transfer tokens from.\n    /// @param _wad The amount of tokens to transfer.\n    function pull(address _usr, uint256 _wad) external {\n        transferFrom(_usr, msg.sender, _wad);\n    }\n\n    /// @notice Transfer `_wad` tokens from `_src` to `_dst`.\n    /// @param _src The address to transfer tokens from.\n    /// @param _dst The address to transfer tokens to.\n    /// @param _wad The amount of tokens to transfer.\n    function move(address _src, address _dst, uint256 _wad) external {\n        transferFrom(_src, _dst, _wad);\n    }\n\n    /// @notice Change the name of the token to `_name`.\n    /// @dev Only callable by the owner.\n    /// @param _name The new name of the token.\n    function rename(string memory _name) external override {\n        require(hasRole(OWNER_ROLE, msg.sender), \"!OWNER_ROLE\");\n        name = _name;\n        emit Rename(_name);\n    }\n\n    /// @notice Transfer `_wad` amount of tokens from `_src` to `_dst`.\n    /// @param _src The address to transfer tokens from.\n    /// @param _dst The address to transfer tokens to.\n    /// @param _wad The amount of tokens to transfer.\n    /// @return A boolean value indicating whether the operation succeeded.\n    function transferFrom(address _src, address _dst, uint256 _wad) public override returns (bool) {\n        require(_wad > 0, \"FathomStablecoin/zero-amount\");\n        require(_dst != address(0), \"FathomStablecoin/zero-destination\");\n        uint256 currentAllowance = allowance[_src][msg.sender];\n        require(balanceOf[_src] >= _wad, \"FathomStablecoin/insufficient-balance\");\n        if (_src != msg.sender && currentAllowance != type(uint).max) {\n            require(currentAllowance >= _wad, \"FathomStablecoin/insufficient-allowance\");\n            _approve(_src, msg.sender, currentAllowance - _wad);\n        }\n        balanceOf[_src] -= _wad;\n        balanceOf[_dst] += _wad;\n        emit Transfer(_src, _dst, _wad);\n        return true;\n    }\n\n    function _approve(address _owner, address _spender, uint256 _amount) internal {\n        require(_owner != address(0), \"FathomStablecoin/approve-from-zero-address\");\n        require(_spender != address(0), \"FathomStablecoin/approve-to-zero-address\");\n\n        allowance[_owner][_spender] = _amount;\n        emit Approval(_owner, _spender, _amount);\n    }\n}\n",
  "sourcePath": "/Users/sangjun/Documents/GitHub/fathom-stablecoin-smart-contracts/contracts/main/stablecoin-core/FathomStablecoin.sol",
  "compiler": {
    "name": "solc",
    "version": "0.8.17+commit.8df45f5f.Emscripten.clang"
  },
  "schemaVersion": "3.4.14",
  "updatedAt": "2023-12-21T12:26:25.169Z",
  "devdoc": {
    "kind": "dev",
    "methods": {
      "approve(address,uint256)": {
        "params": {
          "_usr": "The address which will spend the funds.",
          "_wad": "The amount of tokens to allow."
        },
        "returns": {
          "_0": "A boolean value indicating whether the operation succeeded."
        }
      },
      "burn(address,uint256)": {
        "details": "This function can only be called by `_usr` or an approved address.",
        "params": {
          "_usr": "The address to burn tokens from.",
          "_wad": "The amount of tokens to burn."
        }
      },
      "decreaseAllowance(address,uint256)": {
        "params": {
          "_usr": "The address which will spend the funds.",
          "_wad": "The amount of tokens to decrease the allowance by."
        },
        "returns": {
          "_0": "A boolean value indicating whether the operation succeeded."
        }
      },
      "getRoleAdmin(bytes32)": {
        "details": "Returns the admin role that controls `role`. See {grantRole} and {revokeRole}. To change a role's admin, use {_setRoleAdmin}."
      },
      "grantRole(bytes32,address)": {
        "details": "Grants `role` to `account`. If `account` had not been already granted `role`, emits a {RoleGranted} event. Requirements: - the caller must have ``role``'s admin role. May emit a {RoleGranted} event."
      },
      "hasRole(bytes32,address)": {
        "details": "Returns `true` if `account` has been granted `role`."
      },
      "increaseAllowance(address,uint256)": {
        "params": {
          "_usr": "The address which will spend the funds.",
          "_wad": "The amount of tokens to increase the allowance by."
        },
        "returns": {
          "_0": "A boolean value indicating whether the operation succeeded."
        }
      },
      "mint(address,uint256)": {
        "details": "This function can only be called by addresses with the minter role.",
        "params": {
          "_usr": "The address to assign the new tokens to.",
          "_wad": "The amount of new tokens to create."
        }
      },
      "move(address,address,uint256)": {
        "params": {
          "_dst": "The address to transfer tokens to.",
          "_src": "The address to transfer tokens from.",
          "_wad": "The amount of tokens to transfer."
        }
      },
      "pull(address,uint256)": {
        "params": {
          "_usr": "The address to transfer tokens from.",
          "_wad": "The amount of tokens to transfer."
        }
      },
      "push(address,uint256)": {
        "params": {
          "_usr": "The address to transfer tokens to.",
          "_wad": "The amount of tokens to transfer."
        }
      },
      "rename(string)": {
        "details": "Only callable by the owner.",
        "params": {
          "_name": "The new name of the token."
        }
      },
      "renounceRole(bytes32,address)": {
        "details": "Revokes `role` from the calling account. Roles are often managed via {grantRole} and {revokeRole}: this function's purpose is to provide a mechanism for accounts to lose their privileges if they are compromised (such as when a trusted device is misplaced). If the calling account had been revoked `role`, emits a {RoleRevoked} event. Requirements: - the caller must be `account`. May emit a {RoleRevoked} event."
      },
      "revokeRole(bytes32,address)": {
        "details": "Revokes `role` from `account`. If `account` had been granted `role`, emits a {RoleRevoked} event. Requirements: - the caller must have ``role``'s admin role. May emit a {RoleRevoked} event."
      },
      "supportsInterface(bytes4)": {
        "details": "See {IERC165-supportsInterface}."
      },
      "transfer(address,uint256)": {
        "params": {
          "_dst": "The address to transfer tokens to.",
          "_wad": "The amount of tokens to transfer."
        },
        "returns": {
          "_0": "A boolean value indicating whether the operation succeeded."
        }
      },
      "transferFrom(address,address,uint256)": {
        "params": {
          "_dst": "The address to transfer tokens to.",
          "_src": "The address to transfer tokens from.",
          "_wad": "The amount of tokens to transfer."
        },
        "returns": {
          "_0": "A boolean value indicating whether the operation succeeded."
        }
      }
    },
    "stateVariables": {
      "allowance": {
        "details": "Returns the remaining number of tokens that `spender` will be allowed to spend on behalf of `owner` through {transferFrom}. This is zero by default. This value changes when {approve} or {transferFrom} are called."
      },
      "balanceOf": {
        "details": "Returns the amount of tokens owned by `account`."
      },
      "totalSupply": {
        "details": "Returns the amount of tokens in existence."
      }
    },
    "version": 1
  },
  "userdoc": {
    "kind": "user",
    "methods": {
      "approve(address,uint256)": {
        "notice": "Set `_wad` as the allowance of `_usr` over the `msg.sender`'s tokens."
      },
      "burn(address,uint256)": {
        "notice": "Destroys `_wad` amount tokens from `_usr`, reducing the total supply."
      },
      "decreaseAllowance(address,uint256)": {
        "notice": "Decrease the allowance of `_usr` over the `msg.sender`'s tokens by `_wad`."
      },
      "increaseAllowance(address,uint256)": {
        "notice": "Increase the allowance of `_usr` over the `msg.sender`'s tokens by `_wad`."
      },
      "mint(address,uint256)": {
        "notice": "Creates `_wad` amount of new tokens and assigns them to `_usr`, increasing the total supply."
      },
      "move(address,address,uint256)": {
        "notice": "Transfer `_wad` tokens from `_src` to `_dst`."
      },
      "pull(address,uint256)": {
        "notice": "Transfer `_wad` tokens from `_usr` to `msg.sender`."
      },
      "push(address,uint256)": {
        "notice": "Transfer `_wad` tokens from `msg.sender` to `_usr`."
      },
      "rename(string)": {
        "notice": "Change the name of the token to `_name`."
      },
      "transfer(address,uint256)": {
        "notice": "Transfer `_wad` amount of tokens from `msg.sender` to `_dst`."
      },
      "transferFrom(address,address,uint256)": {
        "notice": "Transfer `_wad` amount of tokens from `_src` to `_dst`."
      }
    },
    "version": 1
  }
}