{
    "contractName": "AnkrCollateralAdapter",
    "abi": [
        {
            "anonymous": false,
            "inputs": [
                {
                    "indexed": false,
                    "internalType": "uint8",
                    "name": "version",
                    "type": "uint8"
                }
            ],
            "name": "Initialized",
            "type": "event"
        },
        {
            "anonymous": false,
            "inputs": [],
            "name": "LogCage",
            "type": "event"
        },
        {
            "anonymous": false,
            "inputs": [
                {
                    "indexed": false,
                    "internalType": "uint256",
                    "name": "_valCerts",
                    "type": "uint256"
                }
            ],
            "name": "LogCertsInflow",
            "type": "event"
        },
        {
            "anonymous": false,
            "inputs": [
                {
                    "indexed": false,
                    "internalType": "uint256",
                    "name": "_valCerts",
                    "type": "uint256"
                }
            ],
            "name": "LogCertsOutflow",
            "type": "event"
        },
        {
            "anonymous": false,
            "inputs": [
                {
                    "indexed": false,
                    "internalType": "uint256",
                    "name": "_val",
                    "type": "uint256"
                }
            ],
            "name": "LogDeposit",
            "type": "event"
        },
        {
            "anonymous": false,
            "inputs": [
                {
                    "indexed": true,
                    "internalType": "address",
                    "name": "_caller",
                    "type": "address"
                },
                {
                    "indexed": false,
                    "internalType": "address",
                    "name": "_to",
                    "type": "address"
                }
            ],
            "name": "LogEmergencyWithdraw",
            "type": "event"
        },
        {
            "anonymous": false,
            "inputs": [
                {
                    "indexed": true,
                    "internalType": "address",
                    "name": "_src",
                    "type": "address"
                },
                {
                    "indexed": true,
                    "internalType": "address",
                    "name": "_dst",
                    "type": "address"
                },
                {
                    "indexed": false,
                    "internalType": "uint256",
                    "name": "_wad",
                    "type": "uint256"
                }
            ],
            "name": "LogMoveStake",
            "type": "event"
        },
        {
            "anonymous": false,
            "inputs": [
                {
                    "indexed": true,
                    "internalType": "address",
                    "name": "_caller",
                    "type": "address"
                },
                {
                    "indexed": false,
                    "internalType": "address",
                    "name": "_treasuryAccount",
                    "type": "address"
                }
            ],
            "name": "LogSetTreasuryAccount",
            "type": "event"
        },
        {
            "anonymous": false,
            "inputs": [
                {
                    "indexed": true,
                    "internalType": "address",
                    "name": "_caller",
                    "type": "address"
                },
                {
                    "indexed": false,
                    "internalType": "uint256",
                    "name": "_treasuryFeeBps",
                    "type": "uint256"
                }
            ],
            "name": "LogSetTreasuryFeeBps",
            "type": "event"
        },
        {
            "anonymous": false,
            "inputs": [],
            "name": "LogUncage",
            "type": "event"
        },
        {
            "anonymous": false,
            "inputs": [
                {
                    "indexed": false,
                    "internalType": "uint256",
                    "name": "_val",
                    "type": "uint256"
                }
            ],
            "name": "LogWithdraw",
            "type": "event"
        },
        {
            "anonymous": false,
            "inputs": [
                {
                    "indexed": false,
                    "internalType": "address",
                    "name": "account",
                    "type": "address"
                }
            ],
            "name": "Paused",
            "type": "event"
        },
        {
            "anonymous": false,
            "inputs": [
                {
                    "indexed": false,
                    "internalType": "address",
                    "name": "account",
                    "type": "address"
                }
            ],
            "name": "Unpaused",
            "type": "event"
        },
        {
            "inputs": [],
            "name": "XDCPoolAddress",
            "outputs": [
                {
                    "internalType": "contract IAnkrStakingPool",
                    "name": "",
                    "type": "address"
                }
            ],
            "stateMutability": "view",
            "type": "function"
        },
        {
            "inputs": [],
            "name": "aXDCcAddress",
            "outputs": [
                {
                    "internalType": "contract ICertToken",
                    "name": "",
                    "type": "address"
                }
            ],
            "stateMutability": "view",
            "type": "function"
        },
        {
            "inputs": [],
            "name": "bookKeeper",
            "outputs": [
                {
                    "internalType": "contract IBookKeeper",
                    "name": "",
                    "type": "address"
                }
            ],
            "stateMutability": "view",
            "type": "function"
        },
        {
            "inputs": [],
            "name": "collateralPoolId",
            "outputs": [
                {
                    "internalType": "bytes32",
                    "name": "",
                    "type": "bytes32"
                }
            ],
            "stateMutability": "view",
            "type": "function"
        },
        {
            "inputs": [],
            "name": "collateralToken",
            "outputs": [
                {
                    "internalType": "address",
                    "name": "",
                    "type": "address"
                }
            ],
            "stateMutability": "view",
            "type": "function"
        },
        {
            "inputs": [],
            "name": "decimals",
            "outputs": [
                {
                    "internalType": "uint256",
                    "name": "",
                    "type": "uint256"
                }
            ],
            "stateMutability": "view",
            "type": "function"
        },
        {
            "inputs": [],
            "name": "live",
            "outputs": [
                {
                    "internalType": "uint256",
                    "name": "",
                    "type": "uint256"
                }
            ],
            "stateMutability": "view",
            "type": "function"
        },
        {
            "inputs": [],
            "name": "paused",
            "outputs": [
                {
                    "internalType": "bool",
                    "name": "",
                    "type": "bool"
                }
            ],
            "stateMutability": "view",
            "type": "function"
        },
        {
            "inputs": [],
            "name": "positionManager",
            "outputs": [
                {
                    "internalType": "contract IManager",
                    "name": "",
                    "type": "address"
                }
            ],
            "stateMutability": "view",
            "type": "function"
        },
        {
            "inputs": [],
            "name": "proxyWalletFactory",
            "outputs": [
                {
                    "internalType": "contract IProxyRegistry",
                    "name": "",
                    "type": "address"
                }
            ],
            "stateMutability": "view",
            "type": "function"
        },
        {
            "inputs": [
                {
                    "internalType": "address",
                    "name": "",
                    "type": "address"
                }
            ],
            "name": "recordRatioNCerts",
            "outputs": [
                {
                    "internalType": "uint256",
                    "name": "ratio",
                    "type": "uint256"
                },
                {
                    "internalType": "uint256",
                    "name": "CertsAmount",
                    "type": "uint256"
                }
            ],
            "stateMutability": "view",
            "type": "function"
        },
        {
            "inputs": [
                {
                    "internalType": "address",
                    "name": "",
                    "type": "address"
                }
            ],
            "name": "stake",
            "outputs": [
                {
                    "internalType": "uint256",
                    "name": "",
                    "type": "uint256"
                }
            ],
            "stateMutability": "view",
            "type": "function"
        },
        {
            "inputs": [],
            "name": "totalShare",
            "outputs": [
                {
                    "internalType": "uint256",
                    "name": "",
                    "type": "uint256"
                }
            ],
            "stateMutability": "view",
            "type": "function"
        },
        {
            "inputs": [
                {
                    "internalType": "address",
                    "name": "",
                    "type": "address"
                }
            ],
            "name": "whiteListed",
            "outputs": [
                {
                    "internalType": "bool",
                    "name": "",
                    "type": "bool"
                }
            ],
            "stateMutability": "view",
            "type": "function"
        },
        {
            "inputs": [
                {
                    "internalType": "address",
                    "name": "_bookKeeper",
                    "type": "address"
                },
                {
                    "internalType": "bytes32",
                    "name": "_collateralPoolId",
                    "type": "bytes32"
                },
                {
                    "internalType": "address",
                    "name": "_xdcPoolAddress",
                    "type": "address"
                },
                {
                    "internalType": "address",
                    "name": "_aXDCcAddress",
                    "type": "address"
                },
                {
                    "internalType": "address",
                    "name": "_positionManager",
                    "type": "address"
                },
                {
                    "internalType": "address",
                    "name": "_proxyWalletFactory",
                    "type": "address"
                }
            ],
            "name": "initialize",
            "outputs": [],
            "stateMutability": "nonpayable",
            "type": "function"
        },
        {
            "inputs": [],
            "name": "netAssetValuation",
            "outputs": [
                {
                    "internalType": "uint256",
                    "name": "",
                    "type": "uint256"
                }
            ],
            "stateMutability": "view",
            "type": "function"
        },
        {
            "inputs": [],
            "name": "netAssetPerShare",
            "outputs": [
                {
                    "internalType": "uint256",
                    "name": "",
                    "type": "uint256"
                }
            ],
            "stateMutability": "view",
            "type": "function"
        },
        {
            "inputs": [
                {
                    "internalType": "address",
                    "name": "_positionAddress",
                    "type": "address"
                },
                {
                    "internalType": "uint256",
                    "name": "_amount",
                    "type": "uint256"
                },
                {
                    "internalType": "bytes",
                    "name": "_data",
                    "type": "bytes"
                }
            ],
            "name": "deposit",
            "outputs": [],
            "stateMutability": "payable",
            "type": "function"
        },
        {
            "inputs": [
                {
                    "internalType": "address",
                    "name": "_usr",
                    "type": "address"
                },
                {
                    "internalType": "uint256",
                    "name": "_amount",
                    "type": "uint256"
                },
                {
                    "internalType": "bytes",
                    "name": "",
                    "type": "bytes"
                }
            ],
            "name": "withdraw",
            "outputs": [],
            "stateMutability": "nonpayable",
            "type": "function"
        },
        {
            "inputs": [
                {
                    "internalType": "address",
                    "name": "_source",
                    "type": "address"
                },
                {
                    "internalType": "address",
                    "name": "_destination",
                    "type": "address"
                },
                {
                    "internalType": "uint256",
                    "name": "_share",
                    "type": "uint256"
                },
                {
                    "internalType": "bytes",
                    "name": "_data",
                    "type": "bytes"
                }
            ],
            "name": "moveStake",
            "outputs": [],
            "stateMutability": "nonpayable",
            "type": "function"
        },
        {
            "inputs": [
                {
                    "internalType": "address",
                    "name": "_source",
                    "type": "address"
                },
                {
                    "internalType": "address",
                    "name": "_destination",
                    "type": "address"
                },
                {
                    "internalType": "int256",
                    "name": "_collateralValue",
                    "type": "int256"
                },
                {
                    "internalType": "int256",
                    "name": "",
                    "type": "int256"
                },
                {
                    "internalType": "bytes",
                    "name": "_data",
                    "type": "bytes"
                }
            ],
            "name": "onAdjustPosition",
            "outputs": [],
            "stateMutability": "nonpayable",
            "type": "function"
        },
        {
            "inputs": [
                {
                    "internalType": "address",
                    "name": "_source",
                    "type": "address"
                },
                {
                    "internalType": "address",
                    "name": "_destination",
                    "type": "address"
                },
                {
                    "internalType": "uint256",
                    "name": "_share",
                    "type": "uint256"
                },
                {
                    "internalType": "bytes",
                    "name": "_data",
                    "type": "bytes"
                }
            ],
            "name": "onMoveCollateral",
            "outputs": [],
            "stateMutability": "nonpayable",
            "type": "function"
        },
        {
            "inputs": [
                {
                    "internalType": "address",
                    "name": "toBeWhitelisted",
                    "type": "address"
                }
            ],
            "name": "whitelist",
            "outputs": [],
            "stateMutability": "nonpayable",
            "type": "function"
        },
        {
            "inputs": [],
            "name": "cage",
            "outputs": [],
            "stateMutability": "nonpayable",
            "type": "function"
        },
        {
            "inputs": [],
            "name": "uncage",
            "outputs": [],
            "stateMutability": "nonpayable",
            "type": "function"
        },
        {
            "inputs": [],
            "name": "pause",
            "outputs": [],
            "stateMutability": "nonpayable",
            "type": "function"
        },
        {
            "inputs": [],
            "name": "unpause",
            "outputs": [],
            "stateMutability": "nonpayable",
            "type": "function"
        }
    ],
    "bytecode": "0x608060405234801561001057600080fd5b50613379806100206000396000f3fe60806040526004361061019c5760003560e01c80638456cb59116100ec578063d63b23b21161008a578063e71e22e811610064578063e71e22e81461047c578063e95927801461049c578063f77c4036146104b1578063fa0fca84146104d157600080fd5b8063d63b23b214610431578063dca07dc514610446578063e3b3932a1461045c57600080fd5b80639b19251a116100c65780639b19251a146103b1578063a3b15138146103d1578063b2016bd4146103f1578063bbe36ca11461041157600080fd5b80638456cb5914610366578063957aa58c1461037b578063994436161461039157600080fd5b806349bdc2b811610159578063722379d111610133578063722379d1146102c857806372289d07146102e8578063791b98bc146103315780638217b8461461035157600080fd5b806349bdc2b81461027c5780635c975abb1461028f57806369245009146102b357600080fd5b8063026c4207146101a15780631704edb4146101ca5780632647620414610202578063313ce5671461022f57806331f09265146102455780633f4ba83a14610267575b600080fd5b3480156101ad57600080fd5b506101b760a05481565b6040519081526020015b60405180910390f35b3480156101d657600080fd5b50609f546101ea906001600160a01b031681565b6040516001600160a01b0390911681526020016101c1565b34801561020e57600080fd5b506101b761021d366004612dc5565b60a26020526000908152604090205481565b34801561023b57600080fd5b506101b7609b5481565b34801561025157600080fd5b50610265610260366004612e2b565b610501565b005b34801561027357600080fd5b506102656105f0565b61026561028a366004612e2b565b61083b565b34801561029b57600080fd5b5060335460ff165b60405190151581526020016101c1565b3480156102bf57600080fd5b50610265610918565b3480156102d457600080fd5b50609e546101ea906001600160a01b031681565b3480156102f457600080fd5b5061031c610303366004612dc5565b60a1602052600090815260409020805460019091015482565b604080519283526020830191909152016101c1565b34801561033d57600080fd5b50609c546101ea906001600160a01b031681565b34801561035d57600080fd5b5060a0546101b7565b34801561037257600080fd5b50610265610b66565b34801561038757600080fd5b506101b760975481565b34801561039d57600080fd5b506102656103ac366004612e87565b610dae565b3480156103bd57600080fd5b506102656103cc366004612dc5565b610eb2565b3480156103dd57600080fd5b506102656103ec366004612e87565b61115e565b3480156103fd57600080fd5b50609a546101ea906001600160a01b031681565b34801561041d57600080fd5b5061026561042c366004612efa565b61122f565b34801561043d57600080fd5b506102656114b4565b34801561045257600080fd5b506101b760995481565b34801561046857600080fd5b506098546101ea906001600160a01b031681565b34801561048857600080fd5b50609d546101ea906001600160a01b031681565b3480156104a857600080fd5b506101b76116b5565b3480156104bd57600080fd5b506102656104cc366004612f73565b6116e7565b3480156104dd57600080fd5b506102a36104ec366004612dc5565b60a36020526000908152604090205460ff1681565b60026065540361052c5760405162461bcd60e51b815260040161052390612fef565b60405180910390fd5b60026065556105396117ed565b609f5460405163052e207160e31b81523360048201526001600160a01b0390911690632971038890602401602060405180830381865afa158015610581573d6000803e3d6000fd5b505050506040513d601f19601f820116820180604052508101906105a59190613026565b806105bf575033600090815260a3602052604090205460ff165b6105db5760405162461bcd60e51b815260040161052390613048565b6105e58484611835565b505060016065555050565b6098546040805163c8cc243f60e01b815290516000926001600160a01b03169163c8cc243f9160048083019260209291908290030181865afa15801561063a573d6000803e3d6000fd5b505050506040513d601f19601f8201168201806040525081019061065e9190613073565b9050806001600160a01b03166391d14854826001600160a01b031663e58378bb6040518163ffffffff1660e01b8152600401602060405180830381865afa1580156106ad573d6000803e3d6000fd5b505050506040513d601f19601f820116820180604052508101906106d19190613090565b6040516001600160e01b031960e084901b1681526004810191909152336024820152604401602060405180830381865afa158015610713573d6000803e3d6000fd5b505050506040513d601f19601f820116820180604052508101906107379190613026565b806108145750806001600160a01b03166391d14854826001600160a01b031663b536818a6040518163ffffffff1660e01b8152600401602060405180830381865afa15801561078a573d6000803e3d6000fd5b505050506040513d601f19601f820116820180604052508101906107ae9190613090565b6040516001600160e01b031960e084901b1681526004810191909152336024820152604401602060405180830381865afa1580156107f0573d6000803e3d6000fd5b505050506040513d601f19601f820116820180604052508101906108149190613026565b6108305760405162461bcd60e51b8152600401610523906130a9565b610838611a4d565b50565b60026065540361085d5760405162461bcd60e51b815260040161052390612fef565b600260655561086a6117ed565b609f5460405163052e207160e31b81523360048201526001600160a01b0390911690632971038890602401602060405180830381865afa1580156108b2573d6000803e3d6000fd5b505050506040513d601f19601f820116820180604052508101906108d69190613026565b806108f0575033600090815260a3602052604090205460ff165b61090c5760405162461bcd60e51b815260040161052390613048565b6105e584848484611a9f565b60026065540361093a5760405162461bcd60e51b815260040161052390612fef565b60026065556098546040805163c8cc243f60e01b815290516000926001600160a01b03169163c8cc243f9160048083019260209291908290030181865afa158015610989573d6000803e3d6000fd5b505050506040513d601f19601f820116820180604052508101906109ad9190613073565b9050806001600160a01b03166391d14854826001600160a01b031663e58378bb6040518163ffffffff1660e01b8152600401602060405180830381865afa1580156109fc573d6000803e3d6000fd5b505050506040513d601f19601f82011682018060405250810190610a209190613090565b6040516001600160e01b031960e084901b1681526004810191909152336024820152604401602060405180830381865afa158015610a62573d6000803e3d6000fd5b505050506040513d601f19601f82011682018060405250810190610a869190613026565b610ade5760405162461bcd60e51b8152602060048201526024808201527f416e6b72436f6c6c61746572616c416461707465722f6e6f742d617574686f726044820152631a5e995960e21b6064820152608401610523565b609754600114610b305760405162461bcd60e51b815260206004820152601e60248201527f416e6b72436f6c6c61746572616c416461707465722f6e6f742d6c69766500006044820152606401610523565b600060978190556040517fbf689b4aae670d200b1d2b971ace2e0c3bef88a9c5e93f36705c7b86eab630b99190a1506001606555565b6098546040805163c8cc243f60e01b815290516000926001600160a01b03169163c8cc243f9160048083019260209291908290030181865afa158015610bb0573d6000803e3d6000fd5b505050506040513d601f19601f82011682018060405250810190610bd49190613073565b9050806001600160a01b03166391d14854826001600160a01b031663e58378bb6040518163ffffffff1660e01b8152600401602060405180830381865afa158015610c23573d6000803e3d6000fd5b505050506040513d601f19601f82011682018060405250810190610c479190613090565b6040516001600160e01b031960e084901b1681526004810191909152336024820152604401602060405180830381865afa158015610c89573d6000803e3d6000fd5b505050506040513d601f19601f82011682018060405250810190610cad9190613026565b80610d8a5750806001600160a01b03166391d14854826001600160a01b031663b536818a6040518163ffffffff1660e01b8152600401602060405180830381865afa158015610d00573d6000803e3d6000fd5b505050506040513d601f19601f82011682018060405250810190610d249190613090565b6040516001600160e01b031960e084901b1681526004810191909152336024820152604401602060405180830381865afa158015610d66573d6000803e3d6000fd5b505050506040513d601f19601f82011682018060405250810190610d8a9190613026565b610da65760405162461bcd60e51b8152600401610523906130a9565b610838612069565b600260655403610dd05760405162461bcd60e51b815260040161052390612fef565b6002606555610ddd6117ed565b609f5460405163052e207160e31b81523360048201526001600160a01b0390911690632971038890602401602060405180830381865afa158015610e25573d6000803e3d6000fd5b505050506040513d601f19601f82011682018060405250810190610e499190613026565b80610e63575033600090815260a3602052604090205460ff165b610e7f5760405162461bcd60e51b815260040161052390613048565b610e8c8560008484611a9f565b610e9985858585856120a6565b610ea685858585856124d4565b50506001606555505050565b6098546040805163c8cc243f60e01b815290516000926001600160a01b03169163c8cc243f9160048083019260209291908290030181865afa158015610efc573d6000803e3d6000fd5b505050506040513d601f19601f82011682018060405250810190610f209190613073565b9050806001600160a01b03166391d14854826001600160a01b031663e58378bb6040518163ffffffff1660e01b8152600401602060405180830381865afa158015610f6f573d6000803e3d6000fd5b505050506040513d601f19601f82011682018060405250810190610f939190613090565b6040516001600160e01b031960e084901b1681526004810191909152336024820152604401602060405180830381865afa158015610fd5573d6000803e3d6000fd5b505050506040513d601f19601f82011682018060405250810190610ff99190613026565b806110d65750806001600160a01b03166391d14854826001600160a01b031663b536818a6040518163ffffffff1660e01b8152600401602060405180830381865afa15801561104c573d6000803e3d6000fd5b505050506040513d601f19601f820116820180604052508101906110709190613090565b6040516001600160e01b031960e084901b1681526004810191909152336024820152604401602060405180830381865afa1580156110b2573d6000803e3d6000fd5b505050506040513d601f19601f820116820180604052508101906110d69190613026565b6110f25760405162461bcd60e51b8152600401610523906130a9565b6001600160a01b0382166111395760405162461bcd60e51b815260206004820152600e60248201526d696e76616c69644164647265737360901b6044820152606401610523565b506001600160a01b0316600090815260a360205260409020805460ff19166001179055565b6002606554036111805760405162461bcd60e51b815260040161052390612fef565b600260655561118d6117ed565b609f5460405163052e207160e31b81523360048201526001600160a01b0390911690632971038890602401602060405180830381865afa1580156111d5573d6000803e3d6000fd5b505050506040513d601f19601f820116820180604052508101906111f99190613026565b80611213575033600090815260a3602052604090205460ff165b610e995760405162461bcd60e51b815260040161052390613048565b600054610100900460ff161580801561124f5750600054600160ff909116105b806112695750303b158015611269575060005460ff166001145b6112cc5760405162461bcd60e51b815260206004820152602e60248201527f496e697469616c697a61626c653a20636f6e747261637420697320616c72656160448201526d191e481a5b9a5d1a585b1a5e995960921b6064820152608401610523565b6000805460ff1916600117905580156112ef576000805461ff0019166101001790555b6112f7612a1b565b6112ff612a4a565b609d80546001600160a01b038088166001600160a01b031992831617909255609e80548784169083168117909155600160975560988054938b169390921692909217905560998790556040805163313ce56760e01b8152905163313ce567916004818101926020929091908290030181865afa158015611383573d6000803e3d6000fd5b505050506040513d601f19601f820116820180604052508101906113a79190613090565b609b819055601210156114085760405162461bcd60e51b815260206004820152602360248201527f416e6b72436f6c6c61746572616c416461707465722f646563696d616c73203e60448201526204062760eb1b6064820152608401610523565b609b546114169060126130f6565b61142190600a6131ed565b60a455609b5461143290600a6131ed565b60a555609c80546001600160a01b038086166001600160a01b031992831617909255609f80549285169290911691909117905580156114ab576000805461ff0019169055604051600181527f7f26b83ff96e1f2b6a682f133852f6798a09c465da95921460cefb38474024989060200160405180910390a15b50505050505050565b6098546040805163c8cc243f60e01b815290516000926001600160a01b03169163c8cc243f9160048083019260209291908290030181865afa1580156114fe573d6000803e3d6000fd5b505050506040513d601f19601f820116820180604052508101906115229190613073565b9050806001600160a01b03166391d14854826001600160a01b031663e58378bb6040518163ffffffff1660e01b8152600401602060405180830381865afa158015611571573d6000803e3d6000fd5b505050506040513d601f19601f820116820180604052508101906115959190613090565b6040516001600160e01b031960e084901b1681526004810191909152336024820152604401602060405180830381865afa1580156115d7573d6000803e3d6000fd5b505050506040513d601f19601f820116820180604052508101906115fb9190613026565b6116345760405162461bcd60e51b815260206004820152600a602482015269216f776e6572526f6c6560b01b6044820152606401610523565b609754156116845760405162461bcd60e51b815260206004820152601f60248201527f416e6b72436f6c6c61746572616c416461707465722f6e6f742d6361676564006044820152606401610523565b60016097556040517f1868a6ced217213f36be87ba9aee25cde5381b42e85c8f88e73b18772c0bd07390600090a150565b600060a0546000036116ce5750670de0b6b3a764000090565b6116e26116da60a05490565b60a054612a79565b905090565b6002606554036117095760405162461bcd60e51b815260040161052390612fef565b60026065556117166117ed565b609f5460405163052e207160e31b81523360048201526001600160a01b0390911690632971038890602401602060405180830381865afa15801561175e573d6000803e3d6000fd5b505050506040513d601f19601f820116820180604052508101906117829190613026565b8061179c575033600090815260a3602052604090205460ff165b6117b85760405162461bcd60e51b815260040161052390613048565b60008085126117c757846117d0565b6117d0856131f9565b90506117df87878386866124d4565b505060016065555050505050565b60335460ff16156118335760405162461bcd60e51b815260206004820152601060248201526f14185d5cd8589b194e881c185d5cd95960821b6044820152606401610523565b565b8015611a1657600061185961184c8360a454612a9f565b6118546116b5565b612b0c565b90506000811361187b5760405162461bcd60e51b815260040161052390613215565b33600090815260a260205260409020548111156118f35760405162461bcd60e51b815260206004820152603060248201527f416e6b72436f6c6c61746572616c416461707465722f696e737566666963696560448201526f1b9d081cdd185ad95908185b5bdd5b9d60821b6064820152608401610523565b6098546099546001600160a01b039091169063d295927a9033611915856131f9565b6040516001600160e01b031960e086901b16815260048101939093526001600160a01b0390911660248301526044820152606401600060405180830381600087803b15801561196357600080fd5b505af1158015611977573d6000803e3d6000fd5b5050505061198760a05482612b29565b60a05533600090815260a260205260409020546119a49082612b29565b33600090815260a2602090815260408083209390935560a190529081206001018054919055609e546119e0906001600160a01b03168583612b7f565b6040518181527f898d87f8c7e46816e6f2ebd70728373403d18f165fd3d6ad0e509c554c6a27f89060200160405180910390a150505b6040518181527f879a83fc17750905b8aef4ef85e6701b84a50e15d4463dc3c2e7fb0f9dbcf75d9060200160405180910390a15050565b611a55612c8a565b6033805460ff191690557f5db9ee0a495bf2e6ff9c91a7834c1ba4fdd244a5e8aa4e537bd38aeae4b073aa335b6040516001600160a01b03909116815260200160405180910390a1565b609754600114611af15760405162461bcd60e51b815260206004820152601e60248201527f416e6b72436f6c6c61746572616c416461707465722f6e6f742d6c69766500006044820152606401610523565b348314611b545760405162461bcd60e51b815260206004820152602b60248201527f416e6b72436f6c6c61746572616c416461707465722f4465706f736974416d6f60448201526a0eadce89ad2e6dac2e8c6d60ab1b6064820152608401610523565b8215612030576000611b78611b6b8560a454612a9f565b611b736116b5565b612a79565b905060008113611b9a5760405162461bcd60e51b815260040161052390613215565b60985460995460405163694ac93d60e11b815260048101919091526001600160a01b038781166024830152604482018490529091169063d295927a90606401600060405180830381600087803b158015611bf357600080fd5b505af1158015611c07573d6000803e3d6000fd5b50505050611c1760a05482612cd3565b60a0556001600160a01b038516600090815260a26020526040902054611c3d9082612cd3565b6001600160a01b03868116600090815260a2602052604080822093909355609e5492516370a0823160e01b81523060048201529092909116906370a0823190602401602060405180830381865afa158015611c9c573d6000803e3d6000fd5b505050506040513d601f19601f82011682018060405250810190611cc09190613090565b9050609d60009054906101000a90046001600160a01b03166001600160a01b031663ac76d450346040518263ffffffff1660e01b81526004016000604051808303818588803b158015611d1257600080fd5b505af1158015611d26573d6000803e3d6000fd5b5050609e546040516370a0823160e01b8152306004820152600094506001600160a01b0390911692506370a082319150602401602060405180830381865afa158015611d76573d6000803e3d6000fd5b505050506040513d601f19601f82011682018060405250810190611d9a9190613090565b90506000611da883836130f6565b905060006040518060400160405280609e60009054906101000a90046001600160a01b03166001600160a01b03166371ca337d6040518163ffffffff1660e01b8152600401602060405180830381865afa158015611e0a573d6000803e3d6000fd5b505050506040513d601f19601f82011682018060405250810190611e2e9190613090565b815260209081018490526001600160a01b038b16600090815260a19091526040902054909150158015611e7a57506001600160a01b038916600090815260a16020526040902060010154155b15611ead576001600160a01b038916600090815260a160209081526040909120825181559082015160019091015561202a565b6001600160a01b03808a16600090815260a16020908152604080832060018101549054609e5483516371ca337d60e01b8152935192969195949116926371ca337d92600480830193928290030181865afa158015611f0f573d6000803e3d6000fd5b505050506040513d601f19601f82011682018060405250810190611f339190613090565b90506000611f68611f5184611f4c87611b73898c612cd3565b612d28565b611f6384611f4c8a611b738a8d612cd3565b612cd3565b9050818111611f91576001600160a01b038d16600090815260a160205260409020829055611fad565b6001600160a01b038d16600090815260a1602052604090208190555b6001600160a01b038d16600090815260a16020526040902060010154611fd39087612cd3565b6001600160a01b038e16600090815260a1602090815260409182902060010192909255518781527f56f38014475c3185b5e1961e5f2f8faafaaa82f184539df4db2662501ecbd424910160405180910390a1505050505b50505050505b6040518381527ff641ad64267ca71156d13749ad746155df3095d9afeb604fe3b53016ce5fc8ba9060200160405180910390a150505050565b6120716117ed565b6033805460ff191660011790557f62e78cea01bee320cd4e420270b5ea74000d11b0c9f74754ebdbfc544b05a258611a823390565b6098546040805163c8cc243f60e01b815290516000926001600160a01b03169163c8cc243f9160048083019260209291908290030181865afa1580156120f0573d6000803e3d6000fd5b505050506040513d601f19601f820116820180604052508101906121149190613073565b9050806001600160a01b03166391d14854826001600160a01b0316632e718ab76040518163ffffffff1660e01b8152600401602060405180830381865afa158015612163573d6000803e3d6000fd5b505050506040513d601f19601f820116820180604052508101906121879190613090565b6040516001600160e01b031960e084901b1681526004810191909152336024820152604401602060405180830381865afa1580156121c9573d6000803e3d6000fd5b505050506040513d601f19601f820116820180604052508101906121ed9190613026565b61222e5760405162461bcd60e51b815260206004820152601260248201527110b1b7b63630ba32b930b626b0b730b3b2b960711b6044820152606401610523565b6001600160a01b038616600090815260a260205260408120548510612280576001600160a01b03808816600090815260a160205260408082206001908101805490849055938a16835291200155612319565b6001600160a01b038716600090815260a2602052604090205485106122f25760405162461bcd60e51b815260206004820152602260248201527f416e6b72436f6c6c61746572616c416461707465722f746f6f4d756368536861604482015261726560f01b6064820152608401610523565b6001600160a01b038716600090815260a26020526040902054612316908690612a79565b90505b6001600160a01b038716600090815260a16020526040812060010154612340908390612d28565b6001600160a01b038916600090815260a160205260408120600101805492935083929091906123709084906130f6565b90915550506001600160a01b038716600090815260a1602052604081206001810154905490916123d66123ab83611f4c86611b73818a612cd3565b6001600160a01b038d16600090815260a16020526040902054611f6390611f4c88611b738982612cd3565b90506000609e60009054906101000a90046001600160a01b03166001600160a01b03166371ca337d6040518163ffffffff1660e01b8152600401602060405180830381865afa15801561242d573d6000803e3d6000fd5b505050506040513d601f19601f820116820180604052508101906124519190613090565b905080821161247a576001600160a01b038b16600090815260a160205260409020819055612496565b6001600160a01b038b16600090815260a1602052604090208290555b6001600160a01b038b16600090815260a16020526040812060010180548792906124c1908490613259565b9091555050505050505050505050505050565b6098546040805163c8cc243f60e01b815290516000926001600160a01b03169163c8cc243f9160048083019260209291908290030181865afa15801561251e573d6000803e3d6000fd5b505050506040513d601f19601f820116820180604052508101906125429190613073565b9050806001600160a01b03166391d14854826001600160a01b0316632e718ab76040518163ffffffff1660e01b8152600401602060405180830381865afa158015612591573d6000803e3d6000fd5b505050506040513d601f19601f820116820180604052508101906125b59190613090565b6040516001600160e01b031960e084901b1681526004810191909152336024820152604401602060405180830381865afa1580156125f7573d6000803e3d6000fd5b505050506040513d601f19601f8201168201806040525081019061261b9190613026565b61265c5760405162461bcd60e51b815260206004820152601260248201527110b1b7b63630ba32b930b626b0b730b3b2b960711b6044820152606401610523565b6001600160a01b038616600090815260a2602052604090205461267f8186612b29565b6001600160a01b03808916600090815260a2602052604080822093909355908816815220546126ae9086612cd3565b6001600160a01b03878116600090815260a26020526040808220939093556098546099549351630a76216560e21b815260048101949094528a8316602485015290929116906329d88594906044016040805180830381865afa158015612718573d6000803e3d6000fd5b505050506040513d601f19601f8201168201806040525081019061273c919061326c565b50609854609954604051633e2f890b60e21b815260048101919091526001600160a01b038b811660248301529293506127c4929091169063f8be242c906044015b602060405180830381865afa15801561279a573d6000803e3d6000fd5b505050506040513d601f19601f820116820180604052508101906127be9190613090565b82612cd3565b6001600160a01b038916600090815260a2602052604090205410156128635760405162461bcd60e51b815260206004820152604960248201527f416e6b72436f6c6c61746572616c416461707465722f7374616b655b736f757260448201527f63655d203c20636f6c6c61746572616c546f6b656e73202b206c6f636b6564436064820152681bdb1b185d195c985b60ba1b608482015260a401610523565b609854609954604051630a76216560e21b815260048101919091526001600160a01b038981166024830152909116906329d88594906044016040805180830381865afa1580156128b7573d6000803e3d6000fd5b505050506040513d601f19601f820116820180604052508101906128db919061326c565b50609854609954604051633e2f890b60e21b815260048101919091526001600160a01b038a81166024830152929350612920929091169063f8be242c9060440161277d565b6001600160a01b038816600090815260a2602052604090205411156129c45760405162461bcd60e51b815260206004820152604e60248201527f416e6b72436f6c6c61746572616c416461707465722f7374616b655b6465737460448201527f696e6174696f6e5d203e20636f6c6c61746572616c546f6b656e73202b206c6f60648201526d18dad95910dbdb1b185d195c985b60921b608482015260a401610523565b866001600160a01b0316886001600160a01b03167f11f8877fdec37577921d8bf36ca71ea534c8901eada496d759bce84bba46e2de88604051612a0991815260200190565b60405180910390a35050505050505050565b600054610100900460ff16612a425760405162461bcd60e51b815260040161052390613290565b611833612d3d565b600054610100900460ff16612a715760405162461bcd60e51b815260040161052390613290565b611833612d70565b600081612a8e84670de0b6b3a7640000612a9f565b612a9891906132db565b9392505050565b6000811580612ac357508282612ab581836132fd565b9250612ac190836132db565b145b612b065760405162461bcd60e51b815260206004820152601460248201527364732d6d6174682d6d756c2d6f766572666c6f7760601b6044820152606401610523565b92915050565b6000612a98612b2384670de0b6b3a7640000612a9f565b83612d9e565b600082612b3683826130f6565b9150811115612b065760405162461bcd60e51b815260206004820152601560248201527464732d6d6174682d7375622d756e646572666c6f7760581b6044820152606401610523565b604080516001600160a01b038481166024830152604480830185905283518084039091018152606490920183526020820180516001600160e01b031663a9059cbb60e01b1790529151600092839290871691612bdb9190613314565b6000604051808303816000865af19150503d8060008114612c18576040519150601f19603f3d011682016040523d82523d6000602084013e612c1d565b606091505b5091509150818015612c47575080511580612c47575080806020019051810190612c479190613026565b612c835760405162461bcd60e51b815260206004820152600d60248201526c10b9b0b332aa3930b739b332b960991b6044820152606401610523565b5050505050565b60335460ff166118335760405162461bcd60e51b815260206004820152601460248201527314185d5cd8589b194e881b9bdd081c185d5cd95960621b6044820152606401610523565b600082612ce08382613259565b9150811015612b065760405162461bcd60e51b815260206004820152601460248201527364732d6d6174682d6164642d6f766572666c6f7760601b6044820152606401610523565b6000670de0b6b3a7640000612a8e8484612a9f565b600054610100900460ff16612d645760405162461bcd60e51b815260040161052390613290565b6033805460ff19169055565b600054610100900460ff16612d975760405162461bcd60e51b815260040161052390613290565b6001606555565b600081612a8e84611f63856001612b29565b6001600160a01b038116811461083857600080fd5b600060208284031215612dd757600080fd5b8135612a9881612db0565b60008083601f840112612df457600080fd5b50813567ffffffffffffffff811115612e0c57600080fd5b602083019150836020828501011115612e2457600080fd5b9250929050565b60008060008060608587031215612e4157600080fd5b8435612e4c81612db0565b935060208501359250604085013567ffffffffffffffff811115612e6f57600080fd5b612e7b87828801612de2565b95989497509550505050565b600080600080600060808688031215612e9f57600080fd5b8535612eaa81612db0565b94506020860135612eba81612db0565b935060408601359250606086013567ffffffffffffffff811115612edd57600080fd5b612ee988828901612de2565b969995985093965092949392505050565b60008060008060008060c08789031215612f1357600080fd5b8635612f1e81612db0565b9550602087013594506040870135612f3581612db0565b93506060870135612f4581612db0565b92506080870135612f5581612db0565b915060a0870135612f6581612db0565b809150509295509295509295565b60008060008060008060a08789031215612f8c57600080fd5b8635612f9781612db0565b95506020870135612fa781612db0565b94506040870135935060608701359250608087013567ffffffffffffffff811115612fd157600080fd5b612fdd89828a01612de2565b979a9699509497509295939492505050565b6020808252601f908201527f5265656e7472616e637947756172643a207265656e7472616e742063616c6c00604082015260600190565b60006020828403121561303857600080fd5b81518015158114612a9857600080fd5b60208082526011908201527008541c9bde1e53dc95da1a5d19531a5cdd607a1b604082015260600190565b60006020828403121561308557600080fd5b8151612a9881612db0565b6000602082840312156130a257600080fd5b5051919050565b60208082526017908201527f21286f776e6572526f6c65206f7220676f76526f6c6529000000000000000000604082015260600190565b634e487b7160e01b600052601160045260246000fd5b81810381811115612b0657612b066130e0565b600181815b8085111561314457816000190482111561312a5761312a6130e0565b8085161561313757918102915b93841c939080029061310e565b509250929050565b60008261315b57506001612b06565b8161316857506000612b06565b816001811461317e5760028114613188576131a4565b6001915050612b06565b60ff841115613199576131996130e0565b50506001821b612b06565b5060208310610133831016604e8410600b84101617156131c7575081810a612b06565b6131d18383613109565b80600019048211156131e5576131e56130e0565b029392505050565b6000612a98838361314c565b6000600160ff1b820161320e5761320e6130e0565b5060000390565b60208082526024908201527f416e6b72436f6c6c61746572616c416461707465722f73686172652d6f766572604082015263666c6f7760e01b606082015260800190565b80820180821115612b0657612b066130e0565b6000806040838503121561327f57600080fd5b505080516020909101519092909150565b6020808252602b908201527f496e697469616c697a61626c653a20636f6e7472616374206973206e6f74206960408201526a6e697469616c697a696e6760a81b606082015260800190565b6000826132f857634e487b7160e01b600052601260045260246000fd5b500490565b8082028115828204841417612b0657612b066130e0565b6000825160005b81811015613335576020818601810151858301520161331b565b50600092019182525091905056fea2646970667358221220fb87ad305fd9a75f5115e94e12975f7a4e8ac1017c43b34889f3b5888fddd4f664736f6c63430008110033",
    "immutableReferences": {},
    "source": "// SPDX-License-Identifier: AGPL-3.0-or-later\npragma solidity 0.8.17;\n\nimport \"@openzeppelin/contracts-upgradeable/security/PausableUpgradeable.sol\";\nimport \"@openzeppelin/contracts-upgradeable/access/AccessControlUpgradeable.sol\";\nimport \"@openzeppelin/contracts-upgradeable/security/ReentrancyGuardUpgradeable.sol\";\n\nimport \"../../../interfaces/IBookKeeper.sol\";\nimport \"../../../interfaces/IFarmableTokenAdapter.sol\";\nimport \"../../../interfaces/ICagable.sol\";\nimport \"../../../interfaces/IManager.sol\";\nimport \"../../../interfaces/IProxyRegistry.sol\";\nimport \"../../../utils/SafeToken.sol\";\nimport \"../../../apis/ankr/interfaces/IAnkrStakingPool.sol\";\nimport \"../../../apis/ankr/interfaces/ICertToken.sol\";\n\n/// @dev receives XDC from users and deposit in Ankr's staking. Hence, users will still earn reward from changing aXDCc ratio\ncontract AnkrCollateralAdapter is IFarmableTokenAdapter, PausableUpgradeable, ReentrancyGuardUpgradeable, ICagable {\n    using SafeToken for address;\n\n    uint256 internal constant WAD = 10 ** 18;\n    uint256 internal constant RAY = 10 ** 27;\n\n    struct RatioNCerts{\n        uint256 ratio;\n        uint256 CertsAmount;\n    }\n\n    uint256 public live;\n\n    IBookKeeper public bookKeeper;\n    bytes32 public override collateralPoolId;\n\n    address public override collateralToken;\n    uint256 public override decimals;\n\n    IManager public positionManager;\n\n    IAnkrStakingPool public XDCPoolAddress;\n    ICertToken public aXDCcAddress;\n\n    IProxyRegistry public proxyWalletFactory;\n\n    /// @dev Total CollateralTokens that has been staked in WAD\n    uint256 public totalShare;\n\n    /// @dev Mapping of user(positionAddress) => recordRatioNCerts that he has ownership over.\n    mapping(address => RatioNCerts) public recordRatioNCerts;\n    /// @dev Mapping of user(positionAddress) => collteralTokens that he is staking\n    mapping(address => uint256) public stake;\n\n    mapping(address => bool) public whiteListed;\n\n    uint256 internal to18ConversionFactor;\n    uint256 internal toTokenConversionFactor;\n\n    event LogDeposit(uint256 _val);\n    event LogWithdraw(uint256 _val);\n    event LogCertsInflow(uint256 _valCerts);\n    event LogCertsOutflow(uint256 _valCerts);\n    event LogEmergencyWithdraw(address indexed _caller, address _to);\n    event LogMoveStake(address indexed _src, address indexed _dst, uint256 _wad);\n    event LogSetTreasuryAccount(address indexed _caller, address _treasuryAccount);\n    event LogSetTreasuryFeeBps(address indexed _caller, uint256 _treasuryFeeBps);\n\n    modifier onlyOwner() {\n        IAccessControlConfig _accessControlConfig = IAccessControlConfig(bookKeeper.accessControlConfig());\n        require(_accessControlConfig.hasRole(_accessControlConfig.OWNER_ROLE(), msg.sender), \"!ownerRole\");\n        _;\n    }\n\n    modifier onlyProxyWalletOrWhiteListed() {\n        require(IProxyRegistry(proxyWalletFactory).isProxy(msg.sender) || whiteListed[msg.sender], \"!ProxyOrWhiteList\");\n        _;\n    }\n\n    modifier onlyOwnerOrGov() {\n        IAccessControlConfig _accessControlConfig = IAccessControlConfig(bookKeeper.accessControlConfig());\n        require(\n            _accessControlConfig.hasRole(_accessControlConfig.OWNER_ROLE(), msg.sender) ||\n                _accessControlConfig.hasRole(_accessControlConfig.GOV_ROLE(), msg.sender),\n            \"!(ownerRole or govRole)\"\n        );\n        _;\n    }\n\n    modifier onlyCollateralManager() {\n        IAccessControlConfig _accessControlConfig = IAccessControlConfig(bookKeeper.accessControlConfig());\n        require(_accessControlConfig.hasRole(_accessControlConfig.COLLATERAL_MANAGER_ROLE(), msg.sender), \"!collateralManager\");\n        _;\n    }\n\n    function initialize(\n        address _bookKeeper,\n        bytes32 _collateralPoolId,\n        address _xdcPoolAddress,\n        address _aXDCcAddress,\n        address _positionManager,\n        address _proxyWalletFactory\n    ) external initializer {\n        // 1. Initialized all dependencies\n        PausableUpgradeable.__Pausable_init();\n        ReentrancyGuardUpgradeable.__ReentrancyGuard_init();\n\n        XDCPoolAddress = IAnkrStakingPool(_xdcPoolAddress);\n        aXDCcAddress = ICertToken(_aXDCcAddress);\n\n        live = 1;\n\n        bookKeeper = IBookKeeper(_bookKeeper);\n        collateralPoolId = _collateralPoolId;\n\n        decimals = aXDCcAddress.decimals();\n\n        require(decimals <= 18, \"AnkrCollateralAdapter/decimals > 18\");\n\n        to18ConversionFactor = 10**(18 - decimals);\n        toTokenConversionFactor = 10**decimals;\n\n        positionManager = IManager(_positionManager);\n\n        proxyWalletFactory = IProxyRegistry(_proxyWalletFactory);\n\n    }\n\n    function add(uint256 _x, uint256 _y) internal pure returns (uint256 _z) {\n        require((_z = _x + _y) >= _x, \"ds-math-add-overflow\");\n    }\n\n    function sub(uint256 _x, uint256 _y) internal pure returns (uint256 _z) {\n        require((_z = _x - _y) <= _x, \"ds-math-sub-underflow\");\n    }\n\n    function mul(uint256 _x, uint256 _y) internal pure returns (uint256 _z) {\n        require(_y == 0 || (_z = _x * _y) / _y == _x, \"ds-math-mul-overflow\");\n    }\n\n    function div(uint256 _x, uint256 _y) internal pure returns (uint256 _z) {\n        require(_y > 0, \"ds-math-div-by-zero\");\n        _z = _x / _y;\n    }\n\n    function divup(uint256 _x, uint256 _y) internal pure returns (uint256 _z) {\n        _z = add(_x, sub(_y, 1)) / _y;\n    }\n\n    function wmul(uint256 _x, uint256 _y) internal pure returns (uint256 _z) {\n        _z = mul(_x, _y) / WAD;\n    }\n\n    function wdiv(uint256 _x, uint256 _y) internal pure returns (uint256 _z) {\n        _z = mul(_x, WAD) / _y;\n    }\n\n    function wdivup(uint256 _x, uint256 _y) internal pure returns (uint256 _z) {\n        _z = divup(mul(_x, WAD), _y);\n    }\n\n    function rmul(uint256 _x, uint256 _y) internal pure returns (uint256 _z) {\n        _z = mul(_x, _y) / RAY;\n    }\n\n    function rmulup(uint256 _x, uint256 _y) internal pure returns (uint256 _z) {\n        _z = divup(mul(_x, _y), RAY);\n    }\n\n    function rdiv(uint256 _x, uint256 _y) internal pure returns (uint256 _z) {\n        _z = mul(_x, RAY) / _y;\n    }\n\n    /// @dev Ignore collateralTokens that have been directly transferred\n    function netAssetValuation() public view returns (uint256) {\n        return totalShare;\n    }\n\n    /// @dev Return Net Assets per Share in wad\n    function netAssetPerShare() public view returns (uint256) {\n        if (totalShare == 0) return WAD;\n        else return wdiv(netAssetValuation(), totalShare);\n    }\n\n    /// @param _positionAddress The address that holding states of the position\n    /// @param _amount The XDC amount that being used as a collateral and to be staked to AnkrStakingPool\n    /// @param _data The extra data that may needs to execute the deposit\n    function deposit(address _positionAddress, uint256 _amount, bytes calldata _data) external payable override nonReentrant whenNotPaused onlyProxyWalletOrWhiteListed {\n        _deposit(_positionAddress, _amount, _data);\n    }\n\n    /// @dev Stake XDC to AnkrStakingPool, receive aXDCc and record\n    /// deposit collateral tokens to staking contract, and update BookKeeper\n    /// @param _positionAddress The position address to be updated\n    /// @param _amount The amount to be deposited\n    function _deposit(address _positionAddress, uint256 _amount, bytes calldata /* _data */) private {\n    require(live == 1, \"AnkrCollateralAdapter/not-live\");\n    require(_amount == msg.value, \"AnkrCollateralAdapter/DepositAmountMismatch\");\n\n    if (_amount > 0) {\n      uint256 _share = wdiv(mul(_amount, to18ConversionFactor), netAssetPerShare()); // [wad]\n      // Overflow check for int256(wad) cast below\n      // Also enforces a non-zero wad\n      require(int256(_share) > 0, \"AnkrCollateralAdapter/share-overflow\");\n\n      //bookKeeping\n      bookKeeper.addCollateral(collateralPoolId, _positionAddress, int256(_share));\n      totalShare = add(totalShare, _share);\n      stake[_positionAddress] = add(stake[_positionAddress], _share);\n\n      //record aXDCc amount before stakeCerts\n      uint256 aXDCcBefore = aXDCcAddress.balanceOf(address(this));\n      XDCPoolAddress.stakeCerts{value : msg.value}();\n      uint256 aXDCcAfter = aXDCcAddress.balanceOf(address(this));\n\n      uint256 certsIn = (aXDCcAfter - aXDCcBefore);\n      RatioNCerts memory ratioNCerts = RatioNCerts(aXDCcAddress.ratio(), certsIn);\n\n      // if it is first record of staking\n      if (recordRatioNCerts[_positionAddress].ratio == 0 && recordRatioNCerts[_positionAddress].CertsAmount == 0) {\n        recordRatioNCerts[_positionAddress] = ratioNCerts;\n      } else {\n      // if it is not the first record of staking\n      // calculate weighted average of ratio from already existing ratio&CertsAmount and incoming ratio&CertsAmount\n        uint256 certsBefore = recordRatioNCerts[_positionAddress].CertsAmount;\n        uint256 ratioBefore = recordRatioNCerts[_positionAddress].ratio;\n        uint256 aXDCcRatio = aXDCcAddress.ratio();\n        uint256 calculatedNewRatio = \n          add(\n          wmul(\n          ratioBefore,\n            wdiv(certsBefore, \n              add(certsBefore,certsIn) \n            )\n          ),\n          wmul(\n          aXDCcRatio,\n            wdiv(certsIn, \n              add(certsBefore,certsIn) \n            )\n          )\n        );\n        if(calculatedNewRatio <= aXDCcRatio) {\n        recordRatioNCerts[_positionAddress].ratio = aXDCcRatio;\n        } else {\n            recordRatioNCerts[_positionAddress].ratio = calculatedNewRatio;\n        }\n\n        recordRatioNCerts[_positionAddress].CertsAmount = add(recordRatioNCerts[_positionAddress].CertsAmount, certsIn);  \n        emit LogCertsInflow(certsIn); // aXDCc\n      }\n\n    }\n    emit LogDeposit(_amount); // xdc\n    }\n\n    /// @dev Withdraw aXDCc from AnkrCollateralAdapter\n    /// @param _usr The address that holding states of the position\n    /// @param _amount The XDC col amount(translated to aXDCc) to be withdrawn from AnkrCollateralAdapter and return to user\n    function withdraw(address _usr, uint256 _amount, bytes calldata /* _data */) external override nonReentrant whenNotPaused onlyProxyWalletOrWhiteListed{\n            _withdraw(_usr, _amount);\n    }\n\n    /// @dev   /// withdraw collateral tokens from staking contract, and update BookKeeper and update BookKeeper\n    /// @param _usr The position address to be updated\n    /// @param _amount The amount to be deposited\n    function _withdraw(address _usr, uint256 _amount) private {\n\n        if (_amount > 0) {\n            uint256 _share = wdivup(mul(_amount, to18ConversionFactor), netAssetPerShare()); // [wad]\n            // Overflow check for int256(wad) cast below\n            // Also enforces a non-zero wad\n            require(int256(_share) > 0, \"AnkrCollateralAdapter/share-overflow\");\n            require(stake[msg.sender] >= _share, \"AnkrCollateralAdapter/insufficient staked amount\");\n\n            bookKeeper.addCollateral(collateralPoolId, msg.sender, -int256(_share));\n            totalShare = sub(totalShare, _share);\n            stake[msg.sender] = sub(stake[msg.sender], _share);\n\n            uint256 withdrawAmount = recordRatioNCerts[msg.sender].CertsAmount;\n            recordRatioNCerts[msg.sender].CertsAmount = 0;\n            SafeToken.safeTransfer(address(aXDCcAddress), _usr, withdrawAmount);\n            emit LogCertsOutflow(withdrawAmount);\n        }\n            emit LogWithdraw(_amount);\n    }\n\n\n    function moveStake(address _source, address _destination, uint256 _share, bytes calldata _data) external override nonReentrant whenNotPaused onlyProxyWalletOrWhiteListed{\n        _moveStake(_source, _destination, _share, _data);\n    }\n\n    /// @dev Move wad amount of staked balance from source to destination. Can only be moved if underlaying assets make sense.\n    function _moveStake(address _source, address _destination, uint256 _share, bytes calldata /* data */) private onlyCollateralManager {\n        // 1. Update collateral tokens for source and destination\n        uint256 _stakedAmount = stake[_source];\n        stake[_source] = sub(_stakedAmount, _share);\n        stake[_destination] = add(stake[_destination], _share);\n\n        (uint256 _lockedCollateral, ) = bookKeeper.positions(collateralPoolId, _source);\n        require(\n        stake[_source] >= add(bookKeeper.collateralToken(collateralPoolId, _source), _lockedCollateral),\n        \"AnkrCollateralAdapter/stake[source] < collateralTokens + lockedCollateral\"\n        );\n        (_lockedCollateral, ) = bookKeeper.positions(collateralPoolId, _destination);\n        require(\n        stake[_destination] <= add(bookKeeper.collateralToken(collateralPoolId, _destination), _lockedCollateral),\n        \"AnkrCollateralAdapter/stake[destination] > collateralTokens + lockedCollateral\"\n        );\n        emit LogMoveStake(_source, _destination, _share);\n    }\n\n    function onAdjustPosition(\n        address _source,\n        address _destination,\n        int256 _collateralValue,\n        int256 /* debtShare */,\n        bytes calldata _data\n    ) external override nonReentrant whenNotPaused onlyProxyWalletOrWhiteListed{\n        uint256 _unsignedCollateralValue = _collateralValue < 0 ? uint256(-_collateralValue) : uint256(_collateralValue);\n        _moveStake(_source, _destination, _unsignedCollateralValue, _data);\n    }\n\n    function onMoveCollateral(\n        address _source,\n        address _destination,\n        uint256 _share,\n        bytes calldata _data\n    ) external override nonReentrant whenNotPaused onlyProxyWalletOrWhiteListed{\n        _deposit(_source, 0, _data);\n        _moveCerts(_source, _destination, _share, _data);\n        _moveStake(_source, _destination, _share, _data);\n    }\n\n    function _moveCerts(\n        address _source,\n        address _destination,\n        uint256 _share,\n        bytes calldata _data\n  ) internal onlyCollateralManager {\n        uint256 certsToMoveRatio;\n        if(_share >= stake[_source]){\n            uint256 CertsMove = recordRatioNCerts[_source].CertsAmount;\n            recordRatioNCerts[_source].CertsAmount = 0;\n            recordRatioNCerts[_destination].CertsAmount = CertsMove;\n        } else {\n            require(_share < stake[_source], \"AnkrCollateralAdapter/tooMuchShare\");\n            certsToMoveRatio = wdiv(_share, stake[_source]);\n        }\n        uint256 certsMove = wmul(certsToMoveRatio, recordRatioNCerts[_source].CertsAmount);\n\n\n        recordRatioNCerts[_source].CertsAmount -= certsMove;\n\n        uint256 certsBefore = recordRatioNCerts[_destination].CertsAmount;\n        uint256 ratioBefore = recordRatioNCerts[_destination].ratio;\n\n        uint256 calculatedNewRatio = \n            add(\n                wmul(\n                ratioBefore,\n                    wdiv(certsBefore, \n                        add(certsBefore,certsMove) \n                    )\n                ),\n                wmul(\n                recordRatioNCerts[_source].ratio,\n                    wdiv(certsMove, \n                        add(certsBefore,certsMove) \n                    )\n                )\n            );\n        \n        uint256 aXDCcRatio = aXDCcAddress.ratio();\n\n        if(calculatedNewRatio <= aXDCcRatio) {\n        recordRatioNCerts[_destination].ratio = aXDCcRatio;\n        } else {\n            recordRatioNCerts[_destination].ratio = calculatedNewRatio;\n        }\n        recordRatioNCerts[_destination].CertsAmount +=  certsMove;\n  }\n\n  function whitelist(address toBeWhitelisted) external onlyOwnerOrGov {\n    require(toBeWhitelisted != address(0), \"invalidAddress\");\n    whiteListed[toBeWhitelisted] = true;\n  }\n\n    function cage() external override nonReentrant {\n        IAccessControlConfig _accessControlConfig = IAccessControlConfig(bookKeeper.accessControlConfig());\n        require(\n        _accessControlConfig.hasRole(_accessControlConfig.OWNER_ROLE(), msg.sender),\n        \"AnkrCollateralAdapter/not-authorized\"\n        );\n        require(live == 1, \"AnkrCollateralAdapter/not-live\");\n        live = 0;\n        emit LogCage();\n    }\n\n    function uncage() external override onlyOwner {\n        require(live == 0, \"AnkrCollateralAdapter/not-caged\");\n        live = 1;\n        emit LogUncage();\n    }\n\n    function pause() external onlyOwnerOrGov {\n        _pause();\n    }\n\n    function unpause() external onlyOwnerOrGov {\n        _unpause();\n    }\n}\n",
    "sourcePath": "/Users/tarun.sharma/Tarun/Projects/stablecoin/fathom-stablecoin-smartcontract/fathom-stablecoin-smart-contracts/contracts/main/stablecoin-core/adapters/FarmableTokenAdapter/AnkrCollateralAdapter.sol",
    "compiler": {
        "name": "solc",
        "version": "0.8.17+commit.8df45f5f.Emscripten.clang"
    },
    "schemaVersion": "3.4.10",
    "updatedAt": "2023-01-26T12:28:45.919Z",
    "devdoc": {
        "details": "receives XDC from users and deposit in Ankr's staking. Hence, users will still earn reward from changing aXDCc ratio",
        "kind": "dev",
        "methods": {
            "deposit(address,uint256,bytes)": {
                "params": {
                    "_amount": "The XDC amount that being used as a collateral and to be staked to AnkrStakingPool",
                    "_data": "The extra data that may needs to execute the deposit",
                    "_positionAddress": "The address that holding states of the position"
                }
            },
            "netAssetPerShare()": {
                "details": "Return Net Assets per Share in wad"
            },
            "netAssetValuation()": {
                "details": "Ignore collateralTokens that have been directly transferred"
            },
            "paused()": {
                "details": "Returns true if the contract is paused, and false otherwise."
            },
            "withdraw(address,uint256,bytes)": {
                "details": "Withdraw aXDCc from AnkrCollateralAdapter",
                "params": {
                    "_amount": "The XDC col amount(translated to aXDCc) to be withdrawn from AnkrCollateralAdapter and return to user",
                    "_usr": "The address that holding states of the position"
                }
            }
        },
        "stateVariables": {
            "recordRatioNCerts": {
                "details": "Mapping of user(positionAddress) => recordRatioNCerts that he has ownership over."
            },
            "stake": {
                "details": "Mapping of user(positionAddress) => collteralTokens that he is staking"
            },
            "totalShare": {
                "details": "Total CollateralTokens that has been staked in WAD"
            }
        },
        "version": 1
    },
    "userdoc": {
        "kind": "user",
        "methods": {},
        "version": 1
    }
}