{
    "contractName": "AnkrCollateralAdapter",
    "abi": [
        {
            "anonymous": false,
            "inputs": [
                {
                    "indexed": false,
                    "internalType": "uint8",
                    "name": "version",
                    "type": "uint8"
                }
            ],
            "name": "Initialized",
            "type": "event"
        },
        {
            "anonymous": false,
            "inputs": [],
            "name": "LogCage",
            "type": "event"
        },
        {
            "anonymous": false,
            "inputs": [
                {
                    "indexed": false,
                    "internalType": "uint256",
                    "name": "_valCerts",
                    "type": "uint256"
                }
            ],
            "name": "LogCertsInflow",
            "type": "event"
        },
        {
            "anonymous": false,
            "inputs": [
                {
                    "indexed": false,
                    "internalType": "uint256",
                    "name": "_valCerts",
                    "type": "uint256"
                }
            ],
            "name": "LogCertsOutflow",
            "type": "event"
        },
        {
            "anonymous": false,
            "inputs": [
                {
                    "indexed": false,
                    "internalType": "uint256",
                    "name": "_val",
                    "type": "uint256"
                }
            ],
            "name": "LogDeposit",
            "type": "event"
        },
        {
            "anonymous": false,
            "inputs": [
                {
                    "indexed": true,
                    "internalType": "address",
                    "name": "_caller",
                    "type": "address"
                },
                {
                    "indexed": false,
                    "internalType": "address",
                    "name": "_to",
                    "type": "address"
                }
            ],
            "name": "LogEmergencyWithdraw",
            "type": "event"
        },
        {
            "anonymous": false,
            "inputs": [
                {
                    "indexed": true,
                    "internalType": "address",
                    "name": "_src",
                    "type": "address"
                },
                {
                    "indexed": true,
                    "internalType": "address",
                    "name": "_dst",
                    "type": "address"
                },
                {
                    "indexed": false,
                    "internalType": "uint256",
                    "name": "_wad",
                    "type": "uint256"
                }
            ],
            "name": "LogMoveStake",
            "type": "event"
        },
        {
            "anonymous": false,
            "inputs": [
                {
                    "indexed": true,
                    "internalType": "address",
                    "name": "_caller",
                    "type": "address"
                },
                {
                    "indexed": false,
                    "internalType": "address",
                    "name": "_treasuryAccount",
                    "type": "address"
                }
            ],
            "name": "LogSetTreasuryAccount",
            "type": "event"
        },
        {
            "anonymous": false,
            "inputs": [
                {
                    "indexed": true,
                    "internalType": "address",
                    "name": "_caller",
                    "type": "address"
                },
                {
                    "indexed": false,
                    "internalType": "uint256",
                    "name": "_treasuryFeeBps",
                    "type": "uint256"
                }
            ],
            "name": "LogSetTreasuryFeeBps",
            "type": "event"
        },
        {
            "anonymous": false,
            "inputs": [],
            "name": "LogUncage",
            "type": "event"
        },
        {
            "anonymous": false,
            "inputs": [
                {
                    "indexed": false,
                    "internalType": "uint256",
                    "name": "_val",
                    "type": "uint256"
                }
            ],
            "name": "LogWithdraw",
            "type": "event"
        },
        {
            "anonymous": false,
            "inputs": [
                {
                    "indexed": false,
                    "internalType": "address",
                    "name": "account",
                    "type": "address"
                }
            ],
            "name": "Paused",
            "type": "event"
        },
        {
            "anonymous": false,
            "inputs": [
                {
                    "indexed": false,
                    "internalType": "address",
                    "name": "account",
                    "type": "address"
                }
            ],
            "name": "Unpaused",
            "type": "event"
        },
        {
            "inputs": [],
            "name": "XDCPoolAddress",
            "outputs": [
                {
                    "internalType": "contract IAnkrStakingPool",
                    "name": "",
                    "type": "address"
                }
            ],
            "stateMutability": "view",
            "type": "function"
        },
        {
            "inputs": [],
            "name": "aXDCcAddress",
            "outputs": [
                {
                    "internalType": "contract ICertToken",
                    "name": "",
                    "type": "address"
                }
            ],
            "stateMutability": "view",
            "type": "function"
        },
        {
            "inputs": [],
            "name": "bookKeeper",
            "outputs": [
                {
                    "internalType": "contract IBookKeeper",
                    "name": "",
                    "type": "address"
                }
            ],
            "stateMutability": "view",
            "type": "function"
        },
        {
            "inputs": [],
            "name": "collateralPoolId",
            "outputs": [
                {
                    "internalType": "bytes32",
                    "name": "",
                    "type": "bytes32"
                }
            ],
            "stateMutability": "view",
            "type": "function"
        },
        {
            "inputs": [],
            "name": "collateralToken",
            "outputs": [
                {
                    "internalType": "address",
                    "name": "",
                    "type": "address"
                }
            ],
            "stateMutability": "view",
            "type": "function"
        },
        {
            "inputs": [],
            "name": "decimals",
            "outputs": [
                {
                    "internalType": "uint256",
                    "name": "",
                    "type": "uint256"
                }
            ],
            "stateMutability": "view",
            "type": "function"
        },
        {
            "inputs": [],
            "name": "live",
            "outputs": [
                {
                    "internalType": "uint256",
                    "name": "",
                    "type": "uint256"
                }
            ],
            "stateMutability": "view",
            "type": "function"
        },
        {
            "inputs": [],
            "name": "paused",
            "outputs": [
                {
                    "internalType": "bool",
                    "name": "",
                    "type": "bool"
                }
            ],
            "stateMutability": "view",
            "type": "function"
        },
        {
            "inputs": [],
            "name": "positionManager",
            "outputs": [
                {
                    "internalType": "contract IManager",
                    "name": "",
                    "type": "address"
                }
            ],
            "stateMutability": "view",
            "type": "function"
        },
        {
            "inputs": [],
            "name": "proxyWalletFactory",
            "outputs": [
                {
                    "internalType": "contract IProxyRegistry",
                    "name": "",
                    "type": "address"
                }
            ],
            "stateMutability": "view",
            "type": "function"
        },
        {
            "inputs": [
                {
                    "internalType": "address",
                    "name": "",
                    "type": "address"
                }
            ],
            "name": "recordRatioNCerts",
            "outputs": [
                {
                    "internalType": "uint256",
                    "name": "ratio",
                    "type": "uint256"
                },
                {
                    "internalType": "uint256",
                    "name": "CertsAmount",
                    "type": "uint256"
                }
            ],
            "stateMutability": "view",
            "type": "function"
        },
        {
            "inputs": [
                {
                    "internalType": "address",
                    "name": "",
                    "type": "address"
                }
            ],
            "name": "stake",
            "outputs": [
                {
                    "internalType": "uint256",
                    "name": "",
                    "type": "uint256"
                }
            ],
            "stateMutability": "view",
            "type": "function"
        },
        {
            "inputs": [],
            "name": "totalShare",
            "outputs": [
                {
                    "internalType": "uint256",
                    "name": "",
                    "type": "uint256"
                }
            ],
            "stateMutability": "view",
            "type": "function"
        },
        {
            "inputs": [
                {
                    "internalType": "address",
                    "name": "",
                    "type": "address"
                }
            ],
            "name": "whiteListed",
            "outputs": [
                {
                    "internalType": "bool",
                    "name": "",
                    "type": "bool"
                }
            ],
            "stateMutability": "view",
            "type": "function"
        },
        {
            "inputs": [
                {
                    "internalType": "address",
                    "name": "_bookKeeper",
                    "type": "address"
                },
                {
                    "internalType": "bytes32",
                    "name": "_collateralPoolId",
                    "type": "bytes32"
                },
                {
                    "internalType": "address",
                    "name": "_xdcPoolAddress",
                    "type": "address"
                },
                {
                    "internalType": "address",
                    "name": "_aXDCcAddress",
                    "type": "address"
                },
                {
                    "internalType": "address",
                    "name": "_positionManager",
                    "type": "address"
                },
                {
                    "internalType": "address",
                    "name": "_proxyWalletFactory",
                    "type": "address"
                }
            ],
            "name": "initialize",
            "outputs": [],
            "stateMutability": "nonpayable",
            "type": "function"
        },
        {
            "inputs": [],
            "name": "netAssetValuation",
            "outputs": [
                {
                    "internalType": "uint256",
                    "name": "",
                    "type": "uint256"
                }
            ],
            "stateMutability": "view",
            "type": "function"
        },
        {
            "inputs": [],
            "name": "netAssetPerShare",
            "outputs": [
                {
                    "internalType": "uint256",
                    "name": "",
                    "type": "uint256"
                }
            ],
            "stateMutability": "view",
            "type": "function"
        },
        {
            "inputs": [
                {
                    "internalType": "address",
                    "name": "_positionAddress",
                    "type": "address"
                },
                {
                    "internalType": "uint256",
                    "name": "_amount",
                    "type": "uint256"
                },
                {
                    "internalType": "bytes",
                    "name": "_data",
                    "type": "bytes"
                }
            ],
            "name": "deposit",
            "outputs": [],
            "stateMutability": "payable",
            "type": "function"
        },
        {
            "inputs": [
                {
                    "internalType": "address",
                    "name": "_usr",
                    "type": "address"
                },
                {
                    "internalType": "uint256",
                    "name": "_amount",
                    "type": "uint256"
                },
                {
                    "internalType": "bytes",
                    "name": "",
                    "type": "bytes"
                }
            ],
            "name": "withdraw",
            "outputs": [],
            "stateMutability": "nonpayable",
            "type": "function"
        },
        {
            "inputs": [
                {
                    "internalType": "address",
                    "name": "_source",
                    "type": "address"
                },
                {
                    "internalType": "address",
                    "name": "_destination",
                    "type": "address"
                },
                {
                    "internalType": "uint256",
                    "name": "_share",
                    "type": "uint256"
                },
                {
                    "internalType": "bytes",
                    "name": "_data",
                    "type": "bytes"
                }
            ],
            "name": "moveStake",
            "outputs": [],
            "stateMutability": "nonpayable",
            "type": "function"
        },
        {
            "inputs": [
                {
                    "internalType": "address",
                    "name": "_source",
                    "type": "address"
                },
                {
                    "internalType": "address",
                    "name": "_destination",
                    "type": "address"
                },
                {
                    "internalType": "int256",
                    "name": "_collateralValue",
                    "type": "int256"
                },
                {
                    "internalType": "int256",
                    "name": "",
                    "type": "int256"
                },
                {
                    "internalType": "bytes",
                    "name": "_data",
                    "type": "bytes"
                }
            ],
            "name": "onAdjustPosition",
            "outputs": [],
            "stateMutability": "nonpayable",
            "type": "function"
        },
        {
            "inputs": [
                {
                    "internalType": "address",
                    "name": "_source",
                    "type": "address"
                },
                {
                    "internalType": "address",
                    "name": "_destination",
                    "type": "address"
                },
                {
                    "internalType": "uint256",
                    "name": "_share",
                    "type": "uint256"
                },
                {
                    "internalType": "bytes",
                    "name": "_data",
                    "type": "bytes"
                }
            ],
            "name": "onMoveCollateral",
            "outputs": [],
            "stateMutability": "nonpayable",
            "type": "function"
        },
        {
            "inputs": [
                {
                    "internalType": "address",
                    "name": "toBeWhitelisted",
                    "type": "address"
                }
            ],
            "name": "whitelist",
            "outputs": [],
            "stateMutability": "nonpayable",
            "type": "function"
        },
        {
            "inputs": [],
            "name": "cage",
            "outputs": [],
            "stateMutability": "nonpayable",
            "type": "function"
        },
        {
            "inputs": [],
            "name": "uncage",
            "outputs": [],
            "stateMutability": "nonpayable",
            "type": "function"
        },
        {
            "inputs": [],
            "name": "pause",
            "outputs": [],
            "stateMutability": "nonpayable",
            "type": "function"
        },
        {
            "inputs": [],
            "name": "unpause",
            "outputs": [],
            "stateMutability": "nonpayable",
            "type": "function"
        }
    ],
    "bytecode": "0x608060405234801561001057600080fd5b5061337e806100206000396000f3fe60806040526004361061019c5760003560e01c80638456cb59116100ec578063d63b23b21161008a578063e71e22e811610064578063e71e22e81461047c578063e95927801461049c578063f77c4036146104b1578063fa0fca84146104d157600080fd5b8063d63b23b214610431578063dca07dc514610446578063e3b3932a1461045c57600080fd5b80639b19251a116100c65780639b19251a146103b1578063a3b15138146103d1578063b2016bd4146103f1578063bbe36ca11461041157600080fd5b80638456cb5914610366578063957aa58c1461037b578063994436161461039157600080fd5b806349bdc2b811610159578063722379d111610133578063722379d1146102c857806372289d07146102e8578063791b98bc146103315780638217b8461461035157600080fd5b806349bdc2b81461027c5780635c975abb1461028f57806369245009146102b357600080fd5b8063026c4207146101a15780631704edb4146101ca5780632647620414610202578063313ce5671461022f57806331f09265146102455780633f4ba83a14610267575b600080fd5b3480156101ad57600080fd5b506101b760a05481565b6040519081526020015b60405180910390f35b3480156101d657600080fd5b50609f546101ea906001600160a01b031681565b6040516001600160a01b0390911681526020016101c1565b34801561020e57600080fd5b506101b761021d366004612db9565b60a26020526000908152604090205481565b34801561023b57600080fd5b506101b7609b5481565b34801561025157600080fd5b50610265610260366004612e1f565b610501565b005b34801561027357600080fd5b506102656105d6565b61026561028a366004612e1f565b610821565b34801561029b57600080fd5b5060335460ff165b60405190151581526020016101c1565b3480156102bf57600080fd5b506102656108df565b3480156102d457600080fd5b50609e546101ea906001600160a01b031681565b3480156102f457600080fd5b5061031c610303366004612db9565b60a1602052600090815260409020805460019091015482565b604080519283526020830191909152016101c1565b34801561033d57600080fd5b50609c546101ea906001600160a01b031681565b34801561035d57600080fd5b5060a0546101b7565b34801561037257600080fd5b50610265610b13565b34801561038757600080fd5b506101b760975481565b34801561039d57600080fd5b506102656103ac366004612e7b565b610d5b565b3480156103bd57600080fd5b506102656103cc366004612db9565b610e45565b3480156103dd57600080fd5b506102656103ec366004612e7b565b6110f1565b3480156103fd57600080fd5b50609a546101ea906001600160a01b031681565b34801561041d57600080fd5b5061026561042c366004612eee565b6111a3565b34801561043d57600080fd5b50610265611428565b34801561045257600080fd5b506101b760995481565b34801561046857600080fd5b506098546101ea906001600160a01b031681565b34801561048857600080fd5b50609d546101ea906001600160a01b031681565b3480156104a857600080fd5b506101b7611629565b3480156104bd57600080fd5b506102656104cc366004612f67565b61165b565b3480156104dd57600080fd5b506102a36104ec366004612db9565b60a36020526000908152604090205460ff1681565b610509611747565b6105116117a0565b609f5460405163052e207160e31b81523360048201526001600160a01b0390911690632971038890602401602060405180830381865afa158015610559573d6000803e3d6000fd5b505050506040513d601f19601f8201168201806040525081019061057d9190612fe3565b80610597575033600090815260a3602052604090205460ff165b6105bc5760405162461bcd60e51b81526004016105b390613005565b60405180910390fd5b6105c684846117e6565b6105d06001606555565b50505050565b6098546040805163c8cc243f60e01b815290516000926001600160a01b03169163c8cc243f9160048083019260209291908290030181865afa158015610620573d6000803e3d6000fd5b505050506040513d601f19601f820116820180604052508101906106449190613030565b9050806001600160a01b03166391d14854826001600160a01b031663e58378bb6040518163ffffffff1660e01b8152600401602060405180830381865afa158015610693573d6000803e3d6000fd5b505050506040513d601f19601f820116820180604052508101906106b7919061304d565b6040516001600160e01b031960e084901b1681526004810191909152336024820152604401602060405180830381865afa1580156106f9573d6000803e3d6000fd5b505050506040513d601f19601f8201168201806040525081019061071d9190612fe3565b806107fa5750806001600160a01b03166391d14854826001600160a01b031663b536818a6040518163ffffffff1660e01b8152600401602060405180830381865afa158015610770573d6000803e3d6000fd5b505050506040513d601f19601f82011682018060405250810190610794919061304d565b6040516001600160e01b031960e084901b1681526004810191909152336024820152604401602060405180830381865afa1580156107d6573d6000803e3d6000fd5b505050506040513d601f19601f820116820180604052508101906107fa9190612fe3565b6108165760405162461bcd60e51b81526004016105b390613066565b61081e611a05565b50565b610829611747565b6108316117a0565b609f5460405163052e207160e31b81523360048201526001600160a01b0390911690632971038890602401602060405180830381865afa158015610879573d6000803e3d6000fd5b505050506040513d601f19601f8201168201806040525081019061089d9190612fe3565b806108b7575033600090815260a3602052604090205460ff165b6108d35760405162461bcd60e51b81526004016105b390613005565b6105c684848484611a57565b6108e7611747565b6098546040805163c8cc243f60e01b815290516000926001600160a01b03169163c8cc243f9160048083019260209291908290030181865afa158015610931573d6000803e3d6000fd5b505050506040513d601f19601f820116820180604052508101906109559190613030565b9050806001600160a01b03166391d14854826001600160a01b031663e58378bb6040518163ffffffff1660e01b8152600401602060405180830381865afa1580156109a4573d6000803e3d6000fd5b505050506040513d601f19601f820116820180604052508101906109c8919061304d565b6040516001600160e01b031960e084901b1681526004810191909152336024820152604401602060405180830381865afa158015610a0a573d6000803e3d6000fd5b505050506040513d601f19601f82011682018060405250810190610a2e9190612fe3565b610a865760405162461bcd60e51b8152602060048201526024808201527f416e6b72436f6c6c61746572616c416461707465722f6e6f742d617574686f726044820152631a5e995960e21b60648201526084016105b3565b609754600114610ad85760405162461bcd60e51b815260206004820152601e60248201527f416e6b72436f6c6c61746572616c416461707465722f6e6f742d6c697665000060448201526064016105b3565b600060978190556040517fbf689b4aae670d200b1d2b971ace2e0c3bef88a9c5e93f36705c7b86eab630b99190a150610b116001606555565b565b6098546040805163c8cc243f60e01b815290516000926001600160a01b03169163c8cc243f9160048083019260209291908290030181865afa158015610b5d573d6000803e3d6000fd5b505050506040513d601f19601f82011682018060405250810190610b819190613030565b9050806001600160a01b03166391d14854826001600160a01b031663e58378bb6040518163ffffffff1660e01b8152600401602060405180830381865afa158015610bd0573d6000803e3d6000fd5b505050506040513d601f19601f82011682018060405250810190610bf4919061304d565b6040516001600160e01b031960e084901b1681526004810191909152336024820152604401602060405180830381865afa158015610c36573d6000803e3d6000fd5b505050506040513d601f19601f82011682018060405250810190610c5a9190612fe3565b80610d375750806001600160a01b03166391d14854826001600160a01b031663b536818a6040518163ffffffff1660e01b8152600401602060405180830381865afa158015610cad573d6000803e3d6000fd5b505050506040513d601f19601f82011682018060405250810190610cd1919061304d565b6040516001600160e01b031960e084901b1681526004810191909152336024820152604401602060405180830381865afa158015610d13573d6000803e3d6000fd5b505050506040513d601f19601f82011682018060405250810190610d379190612fe3565b610d535760405162461bcd60e51b81526004016105b390613066565b61081e612021565b610d63611747565b610d6b6117a0565b609f5460405163052e207160e31b81523360048201526001600160a01b0390911690632971038890602401602060405180830381865afa158015610db3573d6000803e3d6000fd5b505050506040513d601f19601f82011682018060405250810190610dd79190612fe3565b80610df1575033600090815260a3602052604090205460ff165b610e0d5760405162461bcd60e51b81526004016105b390613005565b610e1a8560008484611a57565b610e27858585858561205e565b610e34858585858561249f565b610e3e6001606555565b5050505050565b6098546040805163c8cc243f60e01b815290516000926001600160a01b03169163c8cc243f9160048083019260209291908290030181865afa158015610e8f573d6000803e3d6000fd5b505050506040513d601f19601f82011682018060405250810190610eb39190613030565b9050806001600160a01b03166391d14854826001600160a01b031663e58378bb6040518163ffffffff1660e01b8152600401602060405180830381865afa158015610f02573d6000803e3d6000fd5b505050506040513d601f19601f82011682018060405250810190610f26919061304d565b6040516001600160e01b031960e084901b1681526004810191909152336024820152604401602060405180830381865afa158015610f68573d6000803e3d6000fd5b505050506040513d601f19601f82011682018060405250810190610f8c9190612fe3565b806110695750806001600160a01b03166391d14854826001600160a01b031663b536818a6040518163ffffffff1660e01b8152600401602060405180830381865afa158015610fdf573d6000803e3d6000fd5b505050506040513d601f19601f82011682018060405250810190611003919061304d565b6040516001600160e01b031960e084901b1681526004810191909152336024820152604401602060405180830381865afa158015611045573d6000803e3d6000fd5b505050506040513d601f19601f820116820180604052508101906110699190612fe3565b6110855760405162461bcd60e51b81526004016105b390613066565b6001600160a01b0382166110cc5760405162461bcd60e51b815260206004820152600e60248201526d696e76616c69644164647265737360901b60448201526064016105b3565b506001600160a01b0316600090815260a360205260409020805460ff19166001179055565b6110f9611747565b6111016117a0565b609f5460405163052e207160e31b81523360048201526001600160a01b0390911690632971038890602401602060405180830381865afa158015611149573d6000803e3d6000fd5b505050506040513d601f19601f8201168201806040525081019061116d9190612fe3565b80611187575033600090815260a3602052604090205460ff165b610e275760405162461bcd60e51b81526004016105b390613005565b600054610100900460ff16158080156111c35750600054600160ff909116105b806111dd5750303b1580156111dd575060005460ff166001145b6112405760405162461bcd60e51b815260206004820152602e60248201527f496e697469616c697a61626c653a20636f6e747261637420697320616c72656160448201526d191e481a5b9a5d1a585b1a5e995960921b60648201526084016105b3565b6000805460ff191660011790558015611263576000805461ff0019166101001790555b61126b612a1d565b611273612a4c565b609d80546001600160a01b038088166001600160a01b031992831617909255609e80548784169083168117909155600160975560988054938b169390921692909217905560998790556040805163313ce56760e01b8152905163313ce567916004818101926020929091908290030181865afa1580156112f7573d6000803e3d6000fd5b505050506040513d601f19601f8201168201806040525081019061131b919061304d565b609b8190556012101561137c5760405162461bcd60e51b815260206004820152602360248201527f416e6b72436f6c6c61746572616c416461707465722f646563696d616c73203e60448201526204062760eb1b60648201526084016105b3565b609b5461138a9060126130b3565b61139590600a6131aa565b60a455609b546113a690600a6131aa565b60a555609c80546001600160a01b038086166001600160a01b031992831617909255609f805492851692909116919091179055801561141f576000805461ff0019169055604051600181527f7f26b83ff96e1f2b6a682f133852f6798a09c465da95921460cefb38474024989060200160405180910390a15b50505050505050565b6098546040805163c8cc243f60e01b815290516000926001600160a01b03169163c8cc243f9160048083019260209291908290030181865afa158015611472573d6000803e3d6000fd5b505050506040513d601f19601f820116820180604052508101906114969190613030565b9050806001600160a01b03166391d14854826001600160a01b031663e58378bb6040518163ffffffff1660e01b8152600401602060405180830381865afa1580156114e5573d6000803e3d6000fd5b505050506040513d601f19601f82011682018060405250810190611509919061304d565b6040516001600160e01b031960e084901b1681526004810191909152336024820152604401602060405180830381865afa15801561154b573d6000803e3d6000fd5b505050506040513d601f19601f8201168201806040525081019061156f9190612fe3565b6115a85760405162461bcd60e51b815260206004820152600a602482015269216f776e6572526f6c6560b01b60448201526064016105b3565b609754156115f85760405162461bcd60e51b815260206004820152601f60248201527f416e6b72436f6c6c61746572616c416461707465722f6e6f742d63616765640060448201526064016105b3565b60016097556040517f1868a6ced217213f36be87ba9aee25cde5381b42e85c8f88e73b18772c0bd07390600090a150565b600060a0546000036116425750670de0b6b3a764000090565b61165661164e60a05490565b60a054612a7b565b905090565b611663611747565b61166b6117a0565b609f5460405163052e207160e31b81523360048201526001600160a01b0390911690632971038890602401602060405180830381865afa1580156116b3573d6000803e3d6000fd5b505050506040513d601f19601f820116820180604052508101906116d79190612fe3565b806116f1575033600090815260a3602052604090205460ff165b61170d5760405162461bcd60e51b81526004016105b390613005565b600080851261171c5784611725565b611725856131b6565b9050611734878783868661249f565b5061173f6001606555565b505050505050565b6002606554036117995760405162461bcd60e51b815260206004820152601f60248201527f5265656e7472616e637947756172643a207265656e7472616e742063616c6c0060448201526064016105b3565b6002606555565b60335460ff1615610b115760405162461bcd60e51b815260206004820152601060248201526f14185d5cd8589b194e881c185d5cd95960821b60448201526064016105b3565b80156119c757600061180a6117fd8360a454612aa1565b611805611629565b612b0e565b90506000811361182c5760405162461bcd60e51b81526004016105b3906131d2565b33600090815260a260205260409020548111156118a45760405162461bcd60e51b815260206004820152603060248201527f416e6b72436f6c6c61746572616c416461707465722f696e737566666963696560448201526f1b9d081cdd185ad95908185b5bdd5b9d60821b60648201526084016105b3565b6098546099546001600160a01b039091169063d295927a90336118c6856131b6565b6040516001600160e01b031960e086901b16815260048101939093526001600160a01b0390911660248301526044820152606401600060405180830381600087803b15801561191457600080fd5b505af1158015611928573d6000803e3d6000fd5b5050505061193860a05482612b2b565b60a05533600090815260a260205260409020546119559082612b2b565b33600090815260a2602090815260408083209390935560a190529081206001018054919055609e54611991906001600160a01b03168583612b81565b6040518181527f898d87f8c7e46816e6f2ebd70728373403d18f165fd3d6ad0e509c554c6a27f89060200160405180910390a150505b6040518181527f879a83fc17750905b8aef4ef85e6701b84a50e15d4463dc3c2e7fb0f9dbcf75d9060200160405180910390a15050565b6001606555565b611a0d612c85565b6033805460ff191690557f5db9ee0a495bf2e6ff9c91a7834c1ba4fdd244a5e8aa4e537bd38aeae4b073aa335b6040516001600160a01b03909116815260200160405180910390a1565b609754600114611aa95760405162461bcd60e51b815260206004820152601e60248201527f416e6b72436f6c6c61746572616c416461707465722f6e6f742d6c697665000060448201526064016105b3565b348314611b0c5760405162461bcd60e51b815260206004820152602b60248201527f416e6b72436f6c6c61746572616c416461707465722f4465706f736974416d6f60448201526a0eadce89ad2e6dac2e8c6d60ab1b60648201526084016105b3565b8215611fe8576000611b30611b238560a454612aa1565b611b2b611629565b612a7b565b905060008113611b525760405162461bcd60e51b81526004016105b3906131d2565b60985460995460405163694ac93d60e11b815260048101919091526001600160a01b038781166024830152604482018490529091169063d295927a90606401600060405180830381600087803b158015611bab57600080fd5b505af1158015611bbf573d6000803e3d6000fd5b50505050611bcf60a05482612cce565b60a0556001600160a01b038516600090815260a26020526040902054611bf59082612cce565b6001600160a01b03868116600090815260a2602052604080822093909355609e5492516370a0823160e01b81523060048201529092909116906370a0823190602401602060405180830381865afa158015611c54573d6000803e3d6000fd5b505050506040513d601f19601f82011682018060405250810190611c78919061304d565b9050609d60009054906101000a90046001600160a01b03166001600160a01b031663ac76d450346040518263ffffffff1660e01b81526004016000604051808303818588803b158015611cca57600080fd5b505af1158015611cde573d6000803e3d6000fd5b5050609e546040516370a0823160e01b8152306004820152600094506001600160a01b0390911692506370a082319150602401602060405180830381865afa158015611d2e573d6000803e3d6000fd5b505050506040513d601f19601f82011682018060405250810190611d52919061304d565b90506000611d6083836130b3565b905060006040518060400160405280609e60009054906101000a90046001600160a01b03166001600160a01b03166371ca337d6040518163ffffffff1660e01b8152600401602060405180830381865afa158015611dc2573d6000803e3d6000fd5b505050506040513d601f19601f82011682018060405250810190611de6919061304d565b815260209081018490526001600160a01b038b16600090815260a19091526040902054909150158015611e3257506001600160a01b038916600090815260a16020526040902060010154155b15611e65576001600160a01b038916600090815260a1602090815260409091208251815590820151600190910155611fe2565b6001600160a01b03808a16600090815260a16020908152604080832060018101549054609e5483516371ca337d60e01b8152935192969195949116926371ca337d92600480830193928290030181865afa158015611ec7573d6000803e3d6000fd5b505050506040513d601f19601f82011682018060405250810190611eeb919061304d565b90506000611f20611f0984611f0487611b2b898c612cce565b612d23565b611f1b84611f048a611b2b8a8d612cce565b612cce565b9050818111611f49576001600160a01b038d16600090815260a160205260409020829055611f65565b6001600160a01b038d16600090815260a1602052604090208190555b6001600160a01b038d16600090815260a16020526040902060010154611f8b9087612cce565b6001600160a01b038e16600090815260a1602090815260409182902060010192909255518781527f56f38014475c3185b5e1961e5f2f8faafaaa82f184539df4db2662501ecbd424910160405180910390a1505050505b50505050505b6040518381527ff641ad64267ca71156d13749ad746155df3095d9afeb604fe3b53016ce5fc8ba9060200160405180910390a150505050565b6120296117a0565b6033805460ff191660011790557f62e78cea01bee320cd4e420270b5ea74000d11b0c9f74754ebdbfc544b05a258611a3a3390565b6098546040805163c8cc243f60e01b815290516000926001600160a01b03169163c8cc243f9160048083019260209291908290030181865afa1580156120a8573d6000803e3d6000fd5b505050506040513d601f19601f820116820180604052508101906120cc9190613030565b9050806001600160a01b03166391d14854826001600160a01b0316632e718ab76040518163ffffffff1660e01b8152600401602060405180830381865afa15801561211b573d6000803e3d6000fd5b505050506040513d601f19601f8201168201806040525081019061213f919061304d565b6040516001600160e01b031960e084901b1681526004810191909152336024820152604401602060405180830381865afa158015612181573d6000803e3d6000fd5b505050506040513d601f19601f820116820180604052508101906121a59190612fe3565b6121e65760405162461bcd60e51b815260206004820152601260248201527110b1b7b63630ba32b930b626b0b730b3b2b960711b60448201526064016105b3565b6001600160a01b038616600090815260a26020526040812054900361221d5760405162461bcd60e51b81526004016105b390613216565b6001600160a01b038616600090815260a26020526040812054851061224b5750670de0b6b3a76400006122e4565b6001600160a01b038716600090815260a2602052604090205485106122bd5760405162461bcd60e51b815260206004820152602260248201527f416e6b72436f6c6c61746572616c416461707465722f746f6f4d756368536861604482015261726560f01b60648201526084016105b3565b6001600160a01b038716600090815260a260205260409020546122e1908690612a7b565b90505b6001600160a01b038716600090815260a1602052604081206001015461230b908390612d23565b6001600160a01b038916600090815260a1602052604081206001018054929350839290919061233b9084906130b3565b90915550506001600160a01b038716600090815260a1602052604081206001810154905490916123a161237683611f0486611b2b818a612cce565b6001600160a01b038d16600090815260a16020526040902054611f1b90611f0488611b2b8982612cce565b90506000609e60009054906101000a90046001600160a01b03166001600160a01b03166371ca337d6040518163ffffffff1660e01b8152600401602060405180830381865afa1580156123f8573d6000803e3d6000fd5b505050506040513d601f19601f8201168201806040525081019061241c919061304d565b9050808211612445576001600160a01b038b16600090815260a160205260409020819055612461565b6001600160a01b038b16600090815260a1602052604090208290555b6001600160a01b038b16600090815260a160205260408120600101805487929061248c90849061325e565b9091555050505050505050505050505050565b6098546040805163c8cc243f60e01b815290516000926001600160a01b03169163c8cc243f9160048083019260209291908290030181865afa1580156124e9573d6000803e3d6000fd5b505050506040513d601f19601f8201168201806040525081019061250d9190613030565b9050806001600160a01b03166391d14854826001600160a01b0316632e718ab76040518163ffffffff1660e01b8152600401602060405180830381865afa15801561255c573d6000803e3d6000fd5b505050506040513d601f19601f82011682018060405250810190612580919061304d565b6040516001600160e01b031960e084901b1681526004810191909152336024820152604401602060405180830381865afa1580156125c2573d6000803e3d6000fd5b505050506040513d601f19601f820116820180604052508101906125e69190612fe3565b6126275760405162461bcd60e51b815260206004820152601260248201527110b1b7b63630ba32b930b626b0b730b3b2b960711b60448201526064016105b3565b6001600160a01b038616600090815260a26020526040812054900361265e5760405162461bcd60e51b81526004016105b390613216565b6001600160a01b038616600090815260a260205260409020546126818186612b2b565b6001600160a01b03808916600090815260a2602052604080822093909355908816815220546126b09086612cce565b6001600160a01b03878116600090815260a26020526040808220939093556098546099549351630a76216560e21b815260048101949094528a8316602485015290929116906329d88594906044016040805180830381865afa15801561271a573d6000803e3d6000fd5b505050506040513d601f19601f8201168201806040525081019061273e9190613271565b50609854609954604051633e2f890b60e21b815260048101919091526001600160a01b038b811660248301529293506127c6929091169063f8be242c906044015b602060405180830381865afa15801561279c573d6000803e3d6000fd5b505050506040513d601f19601f820116820180604052508101906127c0919061304d565b82612cce565b6001600160a01b038916600090815260a2602052604090205410156128655760405162461bcd60e51b815260206004820152604960248201527f416e6b72436f6c6c61746572616c416461707465722f7374616b655b736f757260448201527f63655d203c20636f6c6c61746572616c546f6b656e73202b206c6f636b6564436064820152681bdb1b185d195c985b60ba1b608482015260a4016105b3565b609854609954604051630a76216560e21b815260048101919091526001600160a01b038981166024830152909116906329d88594906044016040805180830381865afa1580156128b9573d6000803e3d6000fd5b505050506040513d601f19601f820116820180604052508101906128dd9190613271565b50609854609954604051633e2f890b60e21b815260048101919091526001600160a01b038a81166024830152929350612922929091169063f8be242c9060440161277f565b6001600160a01b038816600090815260a2602052604090205411156129c65760405162461bcd60e51b815260206004820152604e60248201527f416e6b72436f6c6c61746572616c416461707465722f7374616b655b6465737460448201527f696e6174696f6e5d203e20636f6c6c61746572616c546f6b656e73202b206c6f60648201526d18dad95910dbdb1b185d195c985b60921b608482015260a4016105b3565b866001600160a01b0316886001600160a01b03167f11f8877fdec37577921d8bf36ca71ea534c8901eada496d759bce84bba46e2de88604051612a0b91815260200190565b60405180910390a35050505050505050565b600054610100900460ff16612a445760405162461bcd60e51b81526004016105b390613295565b610b11612d38565b600054610100900460ff16612a735760405162461bcd60e51b81526004016105b390613295565b610b11612d6b565b600081612a9084670de0b6b3a7640000612aa1565b612a9a91906132e0565b9392505050565b6000811580612ac557508282612ab78183613302565b9250612ac390836132e0565b145b612b085760405162461bcd60e51b815260206004820152601460248201527364732d6d6174682d6d756c2d6f766572666c6f7760601b60448201526064016105b3565b92915050565b6000612a9a612b2584670de0b6b3a7640000612aa1565b83612d92565b600082612b3883826130b3565b9150811115612b085760405162461bcd60e51b815260206004820152601560248201527464732d6d6174682d7375622d756e646572666c6f7760581b60448201526064016105b3565b604080516001600160a01b038481166024830152604480830185905283518084039091018152606490920183526020820180516001600160e01b031663a9059cbb60e01b1790529151600092839290871691612bdd9190613319565b6000604051808303816000865af19150503d8060008114612c1a576040519150601f19603f3d011682016040523d82523d6000602084013e612c1f565b606091505b5091509150818015612c49575080511580612c49575080806020019051810190612c499190612fe3565b610e3e5760405162461bcd60e51b815260206004820152600d60248201526c10b9b0b332aa3930b739b332b960991b60448201526064016105b3565b60335460ff16610b115760405162461bcd60e51b815260206004820152601460248201527314185d5cd8589b194e881b9bdd081c185d5cd95960621b60448201526064016105b3565b600082612cdb838261325e565b9150811015612b085760405162461bcd60e51b815260206004820152601460248201527364732d6d6174682d6164642d6f766572666c6f7760601b60448201526064016105b3565b6000670de0b6b3a7640000612a908484612aa1565b600054610100900460ff16612d5f5760405162461bcd60e51b81526004016105b390613295565b6033805460ff19169055565b600054610100900460ff166119fe5760405162461bcd60e51b81526004016105b390613295565b600081612a9084611f1b856001612b2b565b6001600160a01b038116811461081e57600080fd5b600060208284031215612dcb57600080fd5b8135612a9a81612da4565b60008083601f840112612de857600080fd5b50813567ffffffffffffffff811115612e0057600080fd5b602083019150836020828501011115612e1857600080fd5b9250929050565b60008060008060608587031215612e3557600080fd5b8435612e4081612da4565b935060208501359250604085013567ffffffffffffffff811115612e6357600080fd5b612e6f87828801612dd6565b95989497509550505050565b600080600080600060808688031215612e9357600080fd5b8535612e9e81612da4565b94506020860135612eae81612da4565b935060408601359250606086013567ffffffffffffffff811115612ed157600080fd5b612edd88828901612dd6565b969995985093965092949392505050565b60008060008060008060c08789031215612f0757600080fd5b8635612f1281612da4565b9550602087013594506040870135612f2981612da4565b93506060870135612f3981612da4565b92506080870135612f4981612da4565b915060a0870135612f5981612da4565b809150509295509295509295565b60008060008060008060a08789031215612f8057600080fd5b8635612f8b81612da4565b95506020870135612f9b81612da4565b94506040870135935060608701359250608087013567ffffffffffffffff811115612fc557600080fd5b612fd189828a01612dd6565b979a9699509497509295939492505050565b600060208284031215612ff557600080fd5b81518015158114612a9a57600080fd5b60208082526011908201527008541c9bde1e53dc95da1a5d19531a5cdd607a1b604082015260600190565b60006020828403121561304257600080fd5b8151612a9a81612da4565b60006020828403121561305f57600080fd5b5051919050565b60208082526017908201527f21286f776e6572526f6c65206f7220676f76526f6c6529000000000000000000604082015260600190565b634e487b7160e01b600052601160045260246000fd5b81810381811115612b0857612b0861309d565b600181815b808511156131015781600019048211156130e7576130e761309d565b808516156130f457918102915b93841c93908002906130cb565b509250929050565b60008261311857506001612b08565b8161312557506000612b08565b816001811461313b576002811461314557613161565b6001915050612b08565b60ff8411156131565761315661309d565b50506001821b612b08565b5060208310610133831016604e8410600b8410161715613184575081810a612b08565b61318e83836130c6565b80600019048211156131a2576131a261309d565b029392505050565b6000612a9a8383613109565b6000600160ff1b82016131cb576131cb61309d565b5060000390565b60208082526024908201527f416e6b72436f6c6c61746572616c416461707465722f73686172652d6f766572604082015263666c6f7760e01b606082015260800190565b60208082526028908201527f416e6b72436f6c6c61746572616c416461707465722f536f757263654e6f5374604082015267616b6556616c756560c01b606082015260800190565b80820180821115612b0857612b0861309d565b6000806040838503121561328457600080fd5b505080516020909101519092909150565b6020808252602b908201527f496e697469616c697a61626c653a20636f6e7472616374206973206e6f74206960408201526a6e697469616c697a696e6760a81b606082015260800190565b6000826132fd57634e487b7160e01b600052601260045260246000fd5b500490565b8082028115828204841417612b0857612b0861309d565b6000825160005b8181101561333a5760208186018101518583015201613320565b50600092019182525091905056fea26469706673582212201c1df03288a31cdfec31e50e6c55dd2fe44669d5fd2525b0e352b6c1db99545f64736f6c63430008110033",
    "immutableReferences": {},
    "source": "// SPDX-License-Identifier: AGPL-3.0-or-later\npragma solidity 0.8.17;\n\nimport \"@openzeppelin/contracts-upgradeable/security/PausableUpgradeable.sol\";\nimport \"@openzeppelin/contracts-upgradeable/access/AccessControlUpgradeable.sol\";\nimport \"@openzeppelin/contracts-upgradeable/security/ReentrancyGuardUpgradeable.sol\";\n\nimport \"../../../interfaces/IBookKeeper.sol\";\nimport \"../../../interfaces/IFarmableTokenAdapter.sol\";\nimport \"../../../interfaces/ICagable.sol\";\nimport \"../../../interfaces/IManager.sol\";\nimport \"../../../interfaces/IProxyRegistry.sol\";\nimport \"../../../utils/SafeToken.sol\";\nimport \"../../../apis/ankr/interfaces/IAnkrStakingPool.sol\";\nimport \"../../../apis/ankr/interfaces/ICertToken.sol\";\n\n/// @dev receives XDC from users and deposit in Ankr's staking. Hence, users will still earn reward from changing aXDCc ratio\ncontract AnkrCollateralAdapter is IFarmableTokenAdapter, PausableUpgradeable, ReentrancyGuardUpgradeable, ICagable {\n    using SafeToken for address;\n\n    uint256 internal constant WAD = 10 ** 18;\n    uint256 internal constant RAY = 10 ** 27;\n\n    struct RatioNCerts{\n        uint256 ratio;\n        uint256 CertsAmount;\n    }\n\n    uint256 public live;\n\n    IBookKeeper public bookKeeper;\n    bytes32 public override collateralPoolId;\n\n    address public override collateralToken;\n    uint256 public override decimals;\n\n    IManager public positionManager;\n\n    IAnkrStakingPool public XDCPoolAddress;\n    ICertToken public aXDCcAddress;\n\n    IProxyRegistry public proxyWalletFactory;\n\n    /// @dev Total CollateralTokens that has been staked in WAD\n    uint256 public totalShare;\n\n    /// @dev Mapping of user(positionAddress) => recordRatioNCerts that he has ownership over.\n    mapping(address => RatioNCerts) public recordRatioNCerts;\n    /// @dev Mapping of user(positionAddress) => collteralTokens that he is staking\n    mapping(address => uint256) public stake;\n\n    mapping(address => bool) public whiteListed;\n\n    uint256 internal to18ConversionFactor;\n    uint256 internal toTokenConversionFactor;\n\n    event LogDeposit(uint256 _val);\n    event LogWithdraw(uint256 _val);\n    event LogCertsInflow(uint256 _valCerts);\n    event LogCertsOutflow(uint256 _valCerts);\n    event LogEmergencyWithdraw(address indexed _caller, address _to);\n    event LogMoveStake(address indexed _src, address indexed _dst, uint256 _wad);\n    event LogSetTreasuryAccount(address indexed _caller, address _treasuryAccount);\n    event LogSetTreasuryFeeBps(address indexed _caller, uint256 _treasuryFeeBps);\n\n    modifier onlyOwner() {\n        IAccessControlConfig _accessControlConfig = IAccessControlConfig(bookKeeper.accessControlConfig());\n        require(_accessControlConfig.hasRole(_accessControlConfig.OWNER_ROLE(), msg.sender), \"!ownerRole\");\n        _;\n    }\n\n    modifier onlyProxyWalletOrWhiteListed() {\n        require(IProxyRegistry(proxyWalletFactory).isProxy(msg.sender) || whiteListed[msg.sender], \"!ProxyOrWhiteList\");\n        _;\n    }\n\n    modifier onlyOwnerOrGov() {\n        IAccessControlConfig _accessControlConfig = IAccessControlConfig(bookKeeper.accessControlConfig());\n        require(\n            _accessControlConfig.hasRole(_accessControlConfig.OWNER_ROLE(), msg.sender) ||\n                _accessControlConfig.hasRole(_accessControlConfig.GOV_ROLE(), msg.sender),\n            \"!(ownerRole or govRole)\"\n        );\n        _;\n    }\n\n    modifier onlyCollateralManager() {\n        IAccessControlConfig _accessControlConfig = IAccessControlConfig(bookKeeper.accessControlConfig());\n        require(_accessControlConfig.hasRole(_accessControlConfig.COLLATERAL_MANAGER_ROLE(), msg.sender), \"!collateralManager\");\n        _;\n    }\n\n    function initialize(\n        address _bookKeeper,\n        bytes32 _collateralPoolId,\n        address _xdcPoolAddress,\n        address _aXDCcAddress,\n        address _positionManager,\n        address _proxyWalletFactory\n    ) external initializer {\n        // 1. Initialized all dependencies\n        PausableUpgradeable.__Pausable_init();\n        ReentrancyGuardUpgradeable.__ReentrancyGuard_init();\n\n        XDCPoolAddress = IAnkrStakingPool(_xdcPoolAddress);\n        aXDCcAddress = ICertToken(_aXDCcAddress);\n\n        live = 1;\n\n        bookKeeper = IBookKeeper(_bookKeeper);\n        collateralPoolId = _collateralPoolId;\n\n        decimals = aXDCcAddress.decimals();\n\n        require(decimals <= 18, \"AnkrCollateralAdapter/decimals > 18\");\n\n        to18ConversionFactor = 10**(18 - decimals);\n        toTokenConversionFactor = 10**decimals;\n\n        positionManager = IManager(_positionManager);\n\n        proxyWalletFactory = IProxyRegistry(_proxyWalletFactory);\n\n    }\n\n    function add(uint256 _x, uint256 _y) internal pure returns (uint256 _z) {\n        require((_z = _x + _y) >= _x, \"ds-math-add-overflow\");\n    }\n\n    function sub(uint256 _x, uint256 _y) internal pure returns (uint256 _z) {\n        require((_z = _x - _y) <= _x, \"ds-math-sub-underflow\");\n    }\n\n    function mul(uint256 _x, uint256 _y) internal pure returns (uint256 _z) {\n        require(_y == 0 || (_z = _x * _y) / _y == _x, \"ds-math-mul-overflow\");\n    }\n\n    function div(uint256 _x, uint256 _y) internal pure returns (uint256 _z) {\n        require(_y > 0, \"ds-math-div-by-zero\");\n        _z = _x / _y;\n    }\n\n    function divup(uint256 _x, uint256 _y) internal pure returns (uint256 _z) {\n        _z = add(_x, sub(_y, 1)) / _y;\n    }\n\n    function wmul(uint256 _x, uint256 _y) internal pure returns (uint256 _z) {\n        _z = mul(_x, _y) / WAD;\n    }\n\n    function wdiv(uint256 _x, uint256 _y) internal pure returns (uint256 _z) {\n        _z = mul(_x, WAD) / _y;\n    }\n\n    function wdivup(uint256 _x, uint256 _y) internal pure returns (uint256 _z) {\n        _z = divup(mul(_x, WAD), _y);\n    }\n\n    function rmul(uint256 _x, uint256 _y) internal pure returns (uint256 _z) {\n        _z = mul(_x, _y) / RAY;\n    }\n\n    function rmulup(uint256 _x, uint256 _y) internal pure returns (uint256 _z) {\n        _z = divup(mul(_x, _y), RAY);\n    }\n\n    function rdiv(uint256 _x, uint256 _y) internal pure returns (uint256 _z) {\n        _z = mul(_x, RAY) / _y;\n    }\n\n    /// @dev Ignore collateralTokens that have been directly transferred\n    function netAssetValuation() public view returns (uint256) {\n        return totalShare;\n    }\n\n    /// @dev Return Net Assets per Share in wad\n    function netAssetPerShare() public view returns (uint256) {\n        if (totalShare == 0) return WAD;\n        else return wdiv(netAssetValuation(), totalShare);\n    }\n\n    /// @param _positionAddress The address that holding states of the position\n    /// @param _amount The XDC amount that being used as a collateral and to be staked to AnkrStakingPool\n    /// @param _data The extra data that may needs to execute the deposit\n    function deposit(address _positionAddress, uint256 _amount, bytes calldata _data) external payable override nonReentrant whenNotPaused onlyProxyWalletOrWhiteListed {\n        _deposit(_positionAddress, _amount, _data);\n    }\n\n    /// @dev Stake XDC to AnkrStakingPool, receive aXDCc and record\n    /// deposit collateral tokens to staking contract, and update BookKeeper\n    /// @param _positionAddress The position address to be updated\n    /// @param _amount The amount to be deposited\n    function _deposit(address _positionAddress, uint256 _amount, bytes calldata /* _data */) private {\n    require(live == 1, \"AnkrCollateralAdapter/not-live\");\n    require(_amount == msg.value, \"AnkrCollateralAdapter/DepositAmountMismatch\");\n\n    if (_amount > 0) {\n      uint256 _share = wdiv(mul(_amount, to18ConversionFactor), netAssetPerShare()); // [wad]\n      // Overflow check for int256(wad) cast below\n      // Also enforces a non-zero wad\n      require(int256(_share) > 0, \"AnkrCollateralAdapter/share-overflow\");\n\n      //bookKeeping\n      bookKeeper.addCollateral(collateralPoolId, _positionAddress, int256(_share));\n      totalShare = add(totalShare, _share);\n      stake[_positionAddress] = add(stake[_positionAddress], _share);\n\n      //record aXDCc amount before stakeCerts\n      uint256 aXDCcBefore = aXDCcAddress.balanceOf(address(this));\n      XDCPoolAddress.stakeCerts{value : msg.value}();\n      uint256 aXDCcAfter = aXDCcAddress.balanceOf(address(this));\n\n      uint256 certsIn = (aXDCcAfter - aXDCcBefore);\n      RatioNCerts memory ratioNCerts = RatioNCerts(aXDCcAddress.ratio(), certsIn);\n\n      // if it is first record of staking\n      if (recordRatioNCerts[_positionAddress].ratio == 0 && recordRatioNCerts[_positionAddress].CertsAmount == 0) {\n        recordRatioNCerts[_positionAddress] = ratioNCerts;\n      } else {\n      // if it is not the first record of staking\n      // calculate weighted average of ratio from already existing ratio&CertsAmount and incoming ratio&CertsAmount\n        uint256 certsBefore = recordRatioNCerts[_positionAddress].CertsAmount;\n        uint256 ratioBefore = recordRatioNCerts[_positionAddress].ratio;\n        uint256 aXDCcRatio = aXDCcAddress.ratio();\n        uint256 calculatedNewRatio = \n          add(\n          wmul(\n          ratioBefore,\n            wdiv(certsBefore, \n              add(certsBefore,certsIn) \n            )\n          ),\n          wmul(\n          aXDCcRatio,\n            wdiv(certsIn, \n              add(certsBefore,certsIn) \n            )\n          )\n        );\n        if(calculatedNewRatio <= aXDCcRatio) {\n        recordRatioNCerts[_positionAddress].ratio = aXDCcRatio;\n        } else {\n            recordRatioNCerts[_positionAddress].ratio = calculatedNewRatio;\n        }\n\n        recordRatioNCerts[_positionAddress].CertsAmount = add(recordRatioNCerts[_positionAddress].CertsAmount, certsIn);  \n        emit LogCertsInflow(certsIn); // aXDCc\n      }\n\n    }\n    emit LogDeposit(_amount); // xdc\n    }\n\n    /// @dev Withdraw aXDCc from AnkrCollateralAdapter\n    /// @param _usr The address that holding states of the position\n    /// @param _amount The XDC col amount(translated to aXDCc) to be withdrawn from AnkrCollateralAdapter and return to user\n    function withdraw(address _usr, uint256 _amount, bytes calldata /* _data */) external override nonReentrant whenNotPaused onlyProxyWalletOrWhiteListed{\n            _withdraw(_usr, _amount);\n    }\n\n    /// @dev   /// withdraw collateral tokens from staking contract, and update BookKeeper and update BookKeeper\n    /// @param _usr The position address to be updated\n    /// @param _amount The amount to be deposited\n    function _withdraw(address _usr, uint256 _amount) private {\n\n        if (_amount > 0) {\n            uint256 _share = wdivup(mul(_amount, to18ConversionFactor), netAssetPerShare()); // [wad]\n            // Overflow check for int256(wad) cast below\n            // Also enforces a non-zero wad\n            require(int256(_share) > 0, \"AnkrCollateralAdapter/share-overflow\");\n            require(stake[msg.sender] >= _share, \"AnkrCollateralAdapter/insufficient staked amount\");\n\n            bookKeeper.addCollateral(collateralPoolId, msg.sender, -int256(_share));\n            totalShare = sub(totalShare, _share);\n            stake[msg.sender] = sub(stake[msg.sender], _share);\n\n            uint256 withdrawAmount = recordRatioNCerts[msg.sender].CertsAmount;\n            recordRatioNCerts[msg.sender].CertsAmount = 0;\n            SafeToken.safeTransfer(address(aXDCcAddress), _usr, withdrawAmount);\n            emit LogCertsOutflow(withdrawAmount);\n        }\n            emit LogWithdraw(_amount);\n    }\n\n\n    function moveStake(address _source, address _destination, uint256 _share, bytes calldata _data) external override nonReentrant whenNotPaused onlyProxyWalletOrWhiteListed{\n        _moveStake(_source, _destination, _share, _data);\n    }\n\n    /// @dev Move wad amount of staked balance from source to destination. Can only be moved if underlaying assets make sense.\n    function _moveStake(address _source, address _destination, uint256 _share, bytes calldata /* data */) private onlyCollateralManager {\n        // 1. Update collateral tokens for source and destination\n        require(stake[_source] != 0, \"AnkrCollateralAdapter/SourceNoStakeValue\");\n        uint256 _stakedAmount = stake[_source];\n        stake[_source] = sub(_stakedAmount, _share);\n        stake[_destination] = add(stake[_destination], _share);\n\n        (uint256 _lockedCollateral, ) = bookKeeper.positions(collateralPoolId, _source);\n        require(\n        stake[_source] >= add(bookKeeper.collateralToken(collateralPoolId, _source), _lockedCollateral),\n        \"AnkrCollateralAdapter/stake[source] < collateralTokens + lockedCollateral\"\n        );\n        (_lockedCollateral, ) = bookKeeper.positions(collateralPoolId, _destination);\n        require(\n        stake[_destination] <= add(bookKeeper.collateralToken(collateralPoolId, _destination), _lockedCollateral),\n        \"AnkrCollateralAdapter/stake[destination] > collateralTokens + lockedCollateral\"\n        );\n        emit LogMoveStake(_source, _destination, _share);\n    }\n\n    function onAdjustPosition(\n        address _source,\n        address _destination,\n        int256 _collateralValue,\n        int256 /* debtShare */,\n        bytes calldata _data\n    ) external override nonReentrant whenNotPaused onlyProxyWalletOrWhiteListed{\n        uint256 _unsignedCollateralValue = _collateralValue < 0 ? uint256(-_collateralValue) : uint256(_collateralValue);\n        _moveStake(_source, _destination, _unsignedCollateralValue, _data);\n    }\n\n    function onMoveCollateral(\n        address _source,\n        address _destination,\n        uint256 _share,\n        bytes calldata _data\n    ) external override nonReentrant whenNotPaused onlyProxyWalletOrWhiteListed{\n        _deposit(_source, 0, _data);\n        _moveCerts(_source, _destination, _share, _data);\n        _moveStake(_source, _destination, _share, _data);\n    }\n\n    function _moveCerts(\n        address _source,\n        address _destination,\n        uint256 _share,\n        bytes calldata _data\n  ) internal onlyCollateralManager {\n        require(stake[_source] != 0, \"AnkrCollateralAdapter/SourceNoStakeValue\");\n        uint256 certsToMoveRatio;\n        if(_share >= stake[_source]){\n            certsToMoveRatio = WAD;\n        } else {\n            require(_share < stake[_source], \"AnkrCollateralAdapter/tooMuchShare\");\n            certsToMoveRatio = wdiv(_share, stake[_source]);\n        }\n\n        uint256 certsMove = wmul(certsToMoveRatio, recordRatioNCerts[_source].CertsAmount);\n\n        //update CertsAmount in source\n        recordRatioNCerts[_source].CertsAmount -= certsMove;\n\n        uint256 certsBefore = recordRatioNCerts[_destination].CertsAmount;\n        uint256 ratioBefore = recordRatioNCerts[_destination].ratio;\n\n        uint256 calculatedNewRatio = \n            add(\n                wmul(\n                ratioBefore,\n                    wdiv(certsBefore, \n                        add(certsBefore,certsMove) \n                    )\n                ),\n                wmul(\n                recordRatioNCerts[_source].ratio,\n                    wdiv(certsMove, \n                        add(certsBefore,certsMove) \n                    )\n                )\n            );\n        \n        uint256 aXDCcRatio = aXDCcAddress.ratio();\n\n        //update ratio in destination\n        if(calculatedNewRatio <= aXDCcRatio) {\n        recordRatioNCerts[_destination].ratio = aXDCcRatio;\n        } else {\n            recordRatioNCerts[_destination].ratio = calculatedNewRatio;\n        }\n\n        //update CertsAmount in destination\n        recordRatioNCerts[_destination].CertsAmount +=  certsMove;\n  }\n\n  function whitelist(address toBeWhitelisted) external onlyOwnerOrGov {\n    require(toBeWhitelisted != address(0), \"invalidAddress\");\n    whiteListed[toBeWhitelisted] = true;\n  }\n\n    function cage() external override nonReentrant {\n        IAccessControlConfig _accessControlConfig = IAccessControlConfig(bookKeeper.accessControlConfig());\n        require(\n        _accessControlConfig.hasRole(_accessControlConfig.OWNER_ROLE(), msg.sender),\n        \"AnkrCollateralAdapter/not-authorized\"\n        );\n        require(live == 1, \"AnkrCollateralAdapter/not-live\");\n        live = 0;\n        emit LogCage();\n    }\n\n    function uncage() external override onlyOwner {\n        require(live == 0, \"AnkrCollateralAdapter/not-caged\");\n        live = 1;\n        emit LogUncage();\n    }\n\n    function pause() external onlyOwnerOrGov {\n        _pause();\n    }\n\n    function unpause() external onlyOwnerOrGov {\n        _unpause();\n    }\n}\n",
    "sourcePath": "/Users/sangjun.lee/Sangjun/fathom-stablecoin-smart-contracts/contracts/main/stablecoin-core/adapters/FarmableTokenAdapter/AnkrCollateralAdapter.sol",
    "compiler": {
        "name": "solc",
        "version": "0.8.17+commit.8df45f5f.Emscripten.clang"
    },
    "schemaVersion": "3.4.10",
    "updatedAt": "2023-02-03T16:56:00.100Z",
    "devdoc": {
        "details": "receives XDC from users and deposit in Ankr's staking. Hence, users will still earn reward from changing aXDCc ratio",
        "kind": "dev",
        "methods": {
            "deposit(address,uint256,bytes)": {
                "params": {
                    "_amount": "The XDC amount that being used as a collateral and to be staked to AnkrStakingPool",
                    "_data": "The extra data that may needs to execute the deposit",
                    "_positionAddress": "The address that holding states of the position"
                }
            },
            "netAssetPerShare()": {
                "details": "Return Net Assets per Share in wad"
            },
            "netAssetValuation()": {
                "details": "Ignore collateralTokens that have been directly transferred"
            },
            "paused()": {
                "details": "Returns true if the contract is paused, and false otherwise."
            },
            "withdraw(address,uint256,bytes)": {
                "details": "Withdraw aXDCc from AnkrCollateralAdapter",
                "params": {
                    "_amount": "The XDC col amount(translated to aXDCc) to be withdrawn from AnkrCollateralAdapter and return to user",
                    "_usr": "The address that holding states of the position"
                }
            }
        },
        "stateVariables": {
            "recordRatioNCerts": {
                "details": "Mapping of user(positionAddress) => recordRatioNCerts that he has ownership over."
            },
            "stake": {
                "details": "Mapping of user(positionAddress) => collteralTokens that he is staking"
            },
            "totalShare": {
                "details": "Total CollateralTokens that has been staked in WAD"
            }
        },
        "version": 1
    },
    "userdoc": {
        "kind": "user",
        "methods": {},
        "version": 1
    }
}