{
  "_format": "hh-sol-artifact-1",
  "contractName": "CollateralTokenAdapter",
  "sourceName": "contracts/6.12/stablecoin-core/adapters/FarmableTokenAdapter/CollateralTokenAdapter.sol",
  "abi": [
    {
      "inputs": [
        {
          "internalType": "address",
          "name": "_bookKeeper",
          "type": "address"
        },
        {
          "internalType": "bytes32",
          "name": "_collateralPoolId",
          "type": "bytes32"
        },
        {
          "internalType": "address",
          "name": "_collateralToken",
          "type": "address"
        },
        {
          "internalType": "address",
          "name": "_rewardToken",
          "type": "address"
        },
        {
          "internalType": "address",
          "name": "_fairlaunch",
          "type": "address"
        },
        {
          "internalType": "uint256",
          "name": "_pid",
          "type": "uint256"
        },
        {
          "internalType": "address",
          "name": "_shield",
          "type": "address"
        },
        {
          "internalType": "address",
          "name": "_timelock",
          "type": "address"
        },
        {
          "internalType": "uint256",
          "name": "_treasuryFeeBps",
          "type": "uint256"
        },
        {
          "internalType": "address",
          "name": "_treasuryAccount",
          "type": "address"
        },
        {
          "internalType": "address",
          "name": "_positionManager",
          "type": "address"
        }
      ],
      "stateMutability": "nonpayable",
      "type": "constructor"
    },
    {
      "anonymous": false,
      "inputs": [],
      "name": "LogCage",
      "type": "event"
    },
    {
      "anonymous": false,
      "inputs": [
        {
          "indexed": false,
          "internalType": "uint256",
          "name": "_val",
          "type": "uint256"
        }
      ],
      "name": "LogDeposit",
      "type": "event"
    },
    {
      "anonymous": false,
      "inputs": [
        {
          "indexed": true,
          "internalType": "address",
          "name": "_caller",
          "type": "address"
        },
        {
          "indexed": false,
          "internalType": "address",
          "name": "_to",
          "type": "address"
        }
      ],
      "name": "LogEmergencyWithdraw",
      "type": "event"
    },
    {
      "anonymous": false,
      "inputs": [
        {
          "indexed": true,
          "internalType": "address",
          "name": "_src",
          "type": "address"
        },
        {
          "indexed": true,
          "internalType": "address",
          "name": "_dst",
          "type": "address"
        },
        {
          "indexed": false,
          "internalType": "uint256",
          "name": "_wad",
          "type": "uint256"
        }
      ],
      "name": "LogMoveStake",
      "type": "event"
    },
    {
      "anonymous": false,
      "inputs": [
        {
          "indexed": true,
          "internalType": "address",
          "name": "_caller",
          "type": "address"
        },
        {
          "indexed": false,
          "internalType": "address",
          "name": "_treasuryAccount",
          "type": "address"
        }
      ],
      "name": "LogSetTreasuryAccount",
      "type": "event"
    },
    {
      "anonymous": false,
      "inputs": [
        {
          "indexed": true,
          "internalType": "address",
          "name": "_caller",
          "type": "address"
        },
        {
          "indexed": false,
          "internalType": "uint256",
          "name": "_treasuryFeeBps",
          "type": "uint256"
        }
      ],
      "name": "LogSetTreasuryFeeBps",
      "type": "event"
    },
    {
      "anonymous": false,
      "inputs": [],
      "name": "LogUncage",
      "type": "event"
    },
    {
      "anonymous": false,
      "inputs": [
        {
          "indexed": false,
          "internalType": "uint256",
          "name": "_val",
          "type": "uint256"
        }
      ],
      "name": "LogWithdraw",
      "type": "event"
    },
    {
      "inputs": [],
      "name": "accRewardBalance",
      "outputs": [
        {
          "internalType": "uint256",
          "name": "",
          "type": "uint256"
        }
      ],
      "stateMutability": "view",
      "type": "function"
    },
    {
      "inputs": [],
      "name": "accRewardPerShare",
      "outputs": [
        {
          "internalType": "uint256",
          "name": "",
          "type": "uint256"
        }
      ],
      "stateMutability": "view",
      "type": "function"
    },
    {
      "inputs": [],
      "name": "bookKeeper",
      "outputs": [
        {
          "internalType": "contract IBookKeeper",
          "name": "",
          "type": "address"
        }
      ],
      "stateMutability": "view",
      "type": "function"
    },
    {
      "inputs": [],
      "name": "cage",
      "outputs": [],
      "stateMutability": "nonpayable",
      "type": "function"
    },
    {
      "inputs": [],
      "name": "collateralPoolId",
      "outputs": [
        {
          "internalType": "bytes32",
          "name": "",
          "type": "bytes32"
        }
      ],
      "stateMutability": "view",
      "type": "function"
    },
    {
      "inputs": [],
      "name": "collateralToken",
      "outputs": [
        {
          "internalType": "address",
          "name": "",
          "type": "address"
        }
      ],
      "stateMutability": "view",
      "type": "function"
    },
    {
      "inputs": [],
      "name": "decimals",
      "outputs": [
        {
          "internalType": "uint256",
          "name": "",
          "type": "uint256"
        }
      ],
      "stateMutability": "view",
      "type": "function"
    },
    {
      "inputs": [
        {
          "internalType": "address",
          "name": "_positionAddress",
          "type": "address"
        },
        {
          "internalType": "uint256",
          "name": "_amount",
          "type": "uint256"
        },
        {
          "internalType": "bytes",
          "name": "_data",
          "type": "bytes"
        }
      ],
      "name": "deposit",
      "outputs": [],
      "stateMutability": "payable",
      "type": "function"
    },
    {
      "inputs": [
        {
          "internalType": "address",
          "name": "_to",
          "type": "address"
        }
      ],
      "name": "emergencyWithdraw",
      "outputs": [],
      "stateMutability": "nonpayable",
      "type": "function"
    },
    {
      "inputs": [],
      "name": "fairlaunch",
      "outputs": [
        {
          "internalType": "contract IFathomFairLaunch",
          "name": "",
          "type": "address"
        }
      ],
      "stateMutability": "view",
      "type": "function"
    },
    {
      "inputs": [],
      "name": "live",
      "outputs": [
        {
          "internalType": "uint256",
          "name": "",
          "type": "uint256"
        }
      ],
      "stateMutability": "view",
      "type": "function"
    },
    {
      "inputs": [
        {
          "internalType": "address",
          "name": "_source",
          "type": "address"
        },
        {
          "internalType": "address",
          "name": "_destination",
          "type": "address"
        },
        {
          "internalType": "uint256",
          "name": "_share",
          "type": "uint256"
        },
        {
          "internalType": "bytes",
          "name": "_data",
          "type": "bytes"
        }
      ],
      "name": "moveStake",
      "outputs": [],
      "stateMutability": "nonpayable",
      "type": "function"
    },
    {
      "inputs": [],
      "name": "netAssetPerShare",
      "outputs": [
        {
          "internalType": "uint256",
          "name": "",
          "type": "uint256"
        }
      ],
      "stateMutability": "view",
      "type": "function"
    },
    {
      "inputs": [],
      "name": "netAssetValuation",
      "outputs": [
        {
          "internalType": "uint256",
          "name": "",
          "type": "uint256"
        }
      ],
      "stateMutability": "view",
      "type": "function"
    },
    {
      "inputs": [
        {
          "internalType": "address",
          "name": "_positionAddress",
          "type": "address"
        }
      ],
      "name": "netPendingRewards",
      "outputs": [
        {
          "internalType": "uint256",
          "name": "",
          "type": "uint256"
        }
      ],
      "stateMutability": "view",
      "type": "function"
    },
    {
      "inputs": [
        {
          "internalType": "address",
          "name": "_source",
          "type": "address"
        },
        {
          "internalType": "address",
          "name": "_destination",
          "type": "address"
        },
        {
          "internalType": "int256",
          "name": "_collateralValue",
          "type": "int256"
        },
        {
          "internalType": "int256",
          "name": "",
          "type": "int256"
        },
        {
          "internalType": "bytes",
          "name": "_data",
          "type": "bytes"
        }
      ],
      "name": "onAdjustPosition",
      "outputs": [],
      "stateMutability": "nonpayable",
      "type": "function"
    },
    {
      "inputs": [
        {
          "internalType": "address",
          "name": "_source",
          "type": "address"
        },
        {
          "internalType": "address",
          "name": "_destination",
          "type": "address"
        },
        {
          "internalType": "uint256",
          "name": "_share",
          "type": "uint256"
        },
        {
          "internalType": "bytes",
          "name": "_data",
          "type": "bytes"
        }
      ],
      "name": "onMoveCollateral",
      "outputs": [],
      "stateMutability": "nonpayable",
      "type": "function"
    },
    {
      "inputs": [
        {
          "internalType": "address",
          "name": "_positionAddress",
          "type": "address"
        }
      ],
      "name": "pendingRewards",
      "outputs": [
        {
          "internalType": "uint256",
          "name": "",
          "type": "uint256"
        }
      ],
      "stateMutability": "view",
      "type": "function"
    },
    {
      "inputs": [],
      "name": "pid",
      "outputs": [
        {
          "internalType": "uint256",
          "name": "",
          "type": "uint256"
        }
      ],
      "stateMutability": "view",
      "type": "function"
    },
    {
      "inputs": [],
      "name": "positionManager",
      "outputs": [
        {
          "internalType": "contract IManager",
          "name": "",
          "type": "address"
        }
      ],
      "stateMutability": "view",
      "type": "function"
    },
    {
      "inputs": [],
      "name": "refreshApproval",
      "outputs": [],
      "stateMutability": "nonpayable",
      "type": "function"
    },
    {
      "inputs": [
        {
          "internalType": "address",
          "name": "",
          "type": "address"
        }
      ],
      "name": "rewardDebts",
      "outputs": [
        {
          "internalType": "uint256",
          "name": "",
          "type": "uint256"
        }
      ],
      "stateMutability": "view",
      "type": "function"
    },
    {
      "inputs": [],
      "name": "rewardToken",
      "outputs": [
        {
          "internalType": "contract IToken",
          "name": "",
          "type": "address"
        }
      ],
      "stateMutability": "view",
      "type": "function"
    },
    {
      "inputs": [
        {
          "internalType": "address",
          "name": "_treasuryAccount",
          "type": "address"
        }
      ],
      "name": "setTreasuryAccount",
      "outputs": [],
      "stateMutability": "nonpayable",
      "type": "function"
    },
    {
      "inputs": [
        {
          "internalType": "uint256",
          "name": "_treasuryFeeBps",
          "type": "uint256"
        }
      ],
      "name": "setTreasuryFeeBps",
      "outputs": [],
      "stateMutability": "nonpayable",
      "type": "function"
    },
    {
      "inputs": [],
      "name": "shield",
      "outputs": [
        {
          "internalType": "contract IShield",
          "name": "",
          "type": "address"
        }
      ],
      "stateMutability": "view",
      "type": "function"
    },
    {
      "inputs": [
        {
          "internalType": "address",
          "name": "",
          "type": "address"
        }
      ],
      "name": "stake",
      "outputs": [
        {
          "internalType": "uint256",
          "name": "",
          "type": "uint256"
        }
      ],
      "stateMutability": "view",
      "type": "function"
    },
    {
      "inputs": [],
      "name": "timelock",
      "outputs": [
        {
          "internalType": "contract ITimeLock",
          "name": "",
          "type": "address"
        }
      ],
      "stateMutability": "view",
      "type": "function"
    },
    {
      "inputs": [],
      "name": "totalShare",
      "outputs": [
        {
          "internalType": "uint256",
          "name": "",
          "type": "uint256"
        }
      ],
      "stateMutability": "view",
      "type": "function"
    },
    {
      "inputs": [],
      "name": "treasuryAccount",
      "outputs": [
        {
          "internalType": "address",
          "name": "",
          "type": "address"
        }
      ],
      "stateMutability": "view",
      "type": "function"
    },
    {
      "inputs": [],
      "name": "treasuryFeeBps",
      "outputs": [
        {
          "internalType": "uint256",
          "name": "",
          "type": "uint256"
        }
      ],
      "stateMutability": "view",
      "type": "function"
    },
    {
      "inputs": [],
      "name": "uncage",
      "outputs": [],
      "stateMutability": "nonpayable",
      "type": "function"
    },
    {
      "inputs": [
        {
          "internalType": "address",
          "name": "_usr",
          "type": "address"
        },
        {
          "internalType": "uint256",
          "name": "_amount",
          "type": "uint256"
        },
        {
          "internalType": "bytes",
          "name": "",
          "type": "bytes"
        }
      ],
      "name": "withdraw",
      "outputs": [],
      "stateMutability": "nonpayable",
      "type": "function"
    }
  ],
  "bytecode": "0x60806040523480156200001157600080fd5b5060405162002e7838038062002e7883398181016040526101608110156200003857600080fd5b50805160208201516040808401516060850151608086015160a08088015160c089015160e08a01516101008b01516101208c0151610140909c01518951631526fe2760e01b81526004810186905299519b9c9a9b989a97999698949793969295919490926000926001600160a01b038b1692631526fe27926024808201939291829003018186803b158015620000cd57600080fd5b505afa158015620000e2573d6000803e3d6000fd5b505050506040513d60a0811015620000f957600080fd5b505190506001600160a01b03808216908b1614620001495760405162461bcd60e51b815260040180806020018281038252603081526020018062002da16030913960400191505060405180910390fd5b886001600160a01b0316886001600160a01b031663b2a795ca6040518163ffffffff1660e01b815260040160206040518083038186803b1580156200018d57600080fd5b505afa158015620001a2573d6000803e3d6000fd5b505050506040513d6020811015620001b957600080fd5b50516001600160a01b031614620002025760405162461bcd60e51b815260040180806020018281038252602d81526020018062002e27602d913960400191505060405180910390fd5b600080546001600160a01b03199081166001600160a01b038b81169190911790925560018054821689841617815560028054831689851617905560038a90556006556007805482168f841617905560088d9055600980549091168c831617908190556040805163313ce56760e01b81529051919092169163313ce567916004808301926020929190829003018186803b1580156200029f57600080fd5b505afa158015620002b4573d6000803e3d6000fd5b505050506040513d6020811015620002cb57600080fd5b505160ff16600a81905560121015620003165760405162461bcd60e51b815260040180806020018281038252602481526020018062002e546024913960400191505060405180910390fd5b600a80546012818103830a9055900a601355600b80546001600160a01b0319166001600160a01b038b8116919091179091558316620003875760405162461bcd60e51b815260040180806020018281038252602b81526020018062002dd1602b913960400191505060405180910390fd5b611388841115620003ca5760405162461bcd60e51b815260040180806020018281038252602b81526020018062002dfc602b913960400191505060405180910390fd5b6004849055600580546001600160a01b03199081166001600160a01b0386811691909117909255600c80549091168483161790556000546009546200042392908116911660001962000435602090811b6200101317901c565b50505050505050505050505062000596565b604080516001600160a01b038481166024830152604480830185905283518084039091018152606490920183526020820180516001600160e01b031663095ea7b360e01b178152925182516000946060949389169392918291908083835b60208310620004b45780518252601f19909201916020918201910162000493565b6001836020036101000a0380198251168184511680821785525050505050509050019150506000604051808303816000865af19150503d806000811462000518576040519150601f19603f3d011682016040523d82523d6000602084013e6200051d565b606091505b50915091508180156200054e5750805115806200054e57508080602001905160208110156200054b57600080fd5b50515b6200058f576040805162461bcd60e51b815260206004820152600c60248201526b2173616665417070726f766560a01b604482015290519081900360640190fd5b5050505050565b6127fb80620005a66000396000f3fe6080604052600436106101ee5760003560e01c8063939d62371161010d578063d63b23b2116100a0578063e80cfa5e1161006f578063e80cfa5e1461072d578063e959278014610742578063f106845414610757578063f77c40361461076c578063f7c618c11461080c576101ee565b8063d63b23b2146106bb578063d886f8a2146106d0578063dca07dc514610703578063e3b3932a14610718576101ee565b8063a3b15138116100dc578063a3b15138146105e1578063b2016bd41461067c578063bf33a1f514610691578063d33219b4146106a6576101ee565b8063939d623714610507578063944eef421461051c578063957aa58c146105315780639944361614610546576101ee565b8063339b2cff116101855780636ff1c9bc116101545780636ff1c9bc1461049557806370d39cff146104c8578063791b98bc146104dd5780638217b846146104f2576101ee565b8063339b2cff146103b75780633e3be859146103e857806349bdc2b8146103fd5780636924500914610480576101ee565b8063313ce567116101c1578063313ce567146102b357806331d7a262146102c857806331f09265146102fb578063331fb00f1461038d576101ee565b806301f7f89f146101f3578063026c4207146102385780630ea040d01461024d5780632647620414610280575b600080fd5b3480156101ff57600080fd5b506102266004803603602081101561021657600080fd5b50356001600160a01b0316610821565b60408051918252519081900360200190f35b34801561024457600080fd5b506102266108b4565b34801561025957600080fd5b506102266004803603602081101561027057600080fd5b50356001600160a01b03166108ba565b34801561028c57600080fd5b50610226600480360360208110156102a357600080fd5b50356001600160a01b03166108cc565b3480156102bf57600080fd5b506102266108de565b3480156102d457600080fd5b50610226600480360360208110156102eb57600080fd5b50356001600160a01b03166108e4565b34801561030757600080fd5b5061038b6004803603606081101561031e57600080fd5b6001600160a01b0382351691602081013591810190606081016040820135600160201b81111561034d57600080fd5b82018360208201111561035f57600080fd5b803590602001918460018302840111600160201b8311171561038057600080fd5b509092509050610971565b005b34801561039957600080fd5b5061038b600480360360208110156103b057600080fd5b5035610a03565b3480156103c357600080fd5b506103cc610ad9565b604080516001600160a01b039092168252519081900360200190f35b3480156103f457600080fd5b50610226610ae8565b61038b6004803603606081101561041357600080fd5b6001600160a01b0382351691602081013591810190606081016040820135600160201b81111561044257600080fd5b82018360208201111561045457600080fd5b803590602001918460018302840111600160201b8311171561047557600080fd5b509092509050610aee565b34801561048c57600080fd5b5061038b610afa565b3480156104a157600080fd5b5061038b600480360360208110156104b857600080fd5b50356001600160a01b0316610be5565b3480156104d457600080fd5b506103cc610cf5565b3480156104e957600080fd5b506103cc610d04565b3480156104fe57600080fd5b50610226610d13565b34801561051357600080fd5b50610226610d1a565b34801561052857600080fd5b506103cc610d20565b34801561053d57600080fd5b50610226610d2f565b34801561055257600080fd5b5061038b6004803603608081101561056957600080fd5b6001600160a01b03823581169260208101359091169160408201359190810190608081016060820135600160201b8111156105a357600080fd5b8201836020820111156105b557600080fd5b803590602001918460018302840111600160201b831117156105d657600080fd5b509092509050610d35565b3480156105ed57600080fd5b5061038b6004803603608081101561060457600080fd5b6001600160a01b03823581169260208101359091169160408201359190810190608081016060820135600160201b81111561063e57600080fd5b82018360208201111561065057600080fd5b803590602001918460018302840111600160201b8311171561067157600080fd5b509092509050610d42565b34801561068857600080fd5b506103cc610d56565b34801561069d57600080fd5b5061038b610d65565b3480156106b257600080fd5b506103cc610d86565b3480156106c757600080fd5b5061038b610d95565b3480156106dc57600080fd5b5061038b600480360360208110156106f357600080fd5b50356001600160a01b0316610e8e565b34801561070f57600080fd5b50610226610f81565b34801561072457600080fd5b506103cc610f87565b34801561073957600080fd5b50610226610f96565b34801561074e57600080fd5b50610226610f9c565b34801561076357600080fd5b50610226610fd2565b34801561077857600080fd5b5061038b600480360360a081101561078f57600080fd5b6001600160a01b03823581169260208101359091169160408201359160608101359181019060a081016080820135600160201b8111156107ce57600080fd5b8201836020820111156107e057600080fd5b803590602001918460018302840111600160201b8311171561080157600080fd5b509092509050610fd8565b34801561081857600080fd5b506103cc611004565b600080546003546040805163b31d991360e01b81526004810192909252306024830152516108ae9285926001600160a01b039091169163b31d991391604480820192602092909190829003018186803b15801561087d57600080fd5b505afa158015610891573d6000803e3d6000fd5b505050506040513d60208110156108a757600080fd5b5051611165565b92915050565b600e5481565b60106020526000908152604090205481565b60116020526000908152604090205481565b600a5481565b600080546003546040805163b31d991360e01b81526004810192909252306024830152516108ae9285926001600160a01b039091169163b31d991391604480820192602092909190829003018186803b15801561094057600080fd5b505afa158015610954573d6000803e3d6000fd5b505050506040513d602081101561096a57600080fd5b50516111a2565b600654600114156109f35782156109f3576000805460035460408051635ae2fb3960e11b8152306004820152602481019290925260448201879052516001600160a01b039092169263b5c5f6729260648084019382900301818387803b1580156109da57600080fd5b505af11580156109ee573d6000803e3d6000fd5b505050505b6109fd84846112e4565b50505050565b600654600114610a5a576040805162461bcd60e51b815260206004820152601f60248201527f436f6c6c61746572616c546f6b656e416461707465722f6e6f742d6c69766500604482015290519081900360640190fd5b611388811115610a9b5760405162461bcd60e51b815260040180806020018281038252602b81526020018061272c602b913960400191505060405180910390fd5b600481905560408051828152905133917fc4a68586da2556b3c4dd5c980f9707a3a5c41545f6e23a71be744bd18851a99b919081900360200190a250565b6005546001600160a01b031681565b600f5481565b6109fd848484846114d1565b600654600114610b51576040805162461bcd60e51b815260206004820152601f60248201527f436f6c6c61746572616c546f6b656e416461707465722f6e6f742d6c69766500604482015290519081900360640190fd5b6000805460035460408051632989754760e11b81526004810192909252516001600160a01b0390921692635312ea8e9260248084019382900301818387803b158015610b9c57600080fd5b505af1158015610bb0573d6000803e3d6000fd5b5050600060068190556040517fbf689b4aae670d200b1d2b971ace2e0c3bef88a9c5e93f36705c7b86eab630b99350909150a1565b60065460011415610ce95760075460085460408051633e2f890b60e21b81526004810192909252336024830152516000926001600160a01b03169163f8be242c916044808301926020929190829003018186803b158015610c4557600080fd5b505afa158015610c59573d6000803e3d6000fd5b505050506040513d6020811015610c6f57600080fd5b50516000805460035460408051635ae2fb3960e11b8152306004820152602481019290925260448201859052519394506001600160a01b039091169263b5c5f6729260648084019391929182900301818387803b158015610ccf57600080fd5b505af1158015610ce3573d6000803e3d6000fd5b50505050505b610cf281611761565b50565b6001546001600160a01b031681565b600c546001600160a01b031681565b600e545b90565b600d5481565b6000546001600160a01b031681565b60065481565b610d4285600084846114d1565b610d4f8585858585611970565b5050505050565b6009546001600160a01b031681565b600054600954610d84916001600160a01b039182169116600019611013565b565b6002546001600160a01b031681565b60065415610dea576040805162461bcd60e51b815260206004820181905260248201527f436f6c6c61746572616c546f6b656e416461707465722f6e6f742d6361676564604482015290519081900360640190fd5b60008054600354600e5460408051630efe6a8b60e01b815230600482015260248101939093526044830191909152516001600160a01b0390921692630efe6a8b9260648084019382900301818387803b158015610e4657600080fd5b505af1158015610e5a573d6000803e3d6000fd5b5050600160065550506040517f1868a6ced217213f36be87ba9aee25cde5381b42e85c8f88e73b18772c0bd07390600090a1565b600654600114610ee5576040805162461bcd60e51b815260206004820152601f60248201527f436f6c6c61746572616c546f6b656e416461707465722f6e6f742d6c69766500604482015290519081900360640190fd5b6001600160a01b038116610f2a5760405162461bcd60e51b815260040180806020018281038252602b815260200180612701602b913960400191505060405180910390fd5b600580546001600160a01b0383166001600160a01b03199091168117909155604080519182525133917fb4d09ab4c7ddf7a7c96bead0c779f3194bc1c10dd5028fbc751e5abe334cf779919081900360200190a250565b60085481565b6007546001600160a01b031681565b60045481565b6000600e5460001415610fb85750670de0b6b3a7640000610d17565b610fcb610fc3610d13565b600e54611d40565b9050610d17565b60035481565b6000808512610fe75784610fec565b846000035b9050610ffb8787838686611970565b50505050505050565b600b546001600160a01b031681565b604080516001600160a01b038481166024830152604480830185905283518084039091018152606490920183526020820180516001600160e01b031663095ea7b360e01b178152925182516000946060949389169392918291908083835b602083106110905780518252601f199092019160209182019101611071565b6001836020036101000a0380198251168184511680821785525050505050509050019150506000604051808303816000865af19150503d80600081146110f2576040519150601f19603f3d011682016040523d82523d6000602084013e6110f7565b606091505b5091509150818015611125575080511580611125575080806020019051602081101561112257600080fd5b50515b610d4f576040805162461bcd60e51b815260206004820152600c60248201526b2173616665417070726f766560a01b604482015290519081900360640190fd5b60008061117284846111a2565b9050600061118d61118583600454611d64565b612710611dc7565b90506111998282611e1c565b95945050505050565b6000600e54600014156111b7575060006108ae565b600b54604080516370a0823160e01b815230600482015290516000926112459261123d9287926001600160a01b0316916370a08231916024808301926020929190829003018186803b15801561120c57600080fd5b505afa158015611220573d6000803e3d6000fd5b505050506040513d602081101561123657600080fd5b5051611e6c565b600f54611e1c565b90506000611260600d5461125b84600e54611ebb565b611e6c565b6001600160a01b038616600090815260116020526040812054919250906112879083611ed4565b6001600160a01b0387166000908152601060205260409020549091508111156112d8576001600160a01b0386166000908152601060205260409020546112ce908290611e1c565b93505050506108ae565b600093505050506108ae565b6112ed33611eed565b801561146757600061131161130483601254611d64565b61130c610f9c565b612108565b9050600081136113525760405162461bcd60e51b81526004018080602001828103825260258152602001806127576025913960400191505060405180910390fd5b336000908152601160205260409020548111156113a05760405162461bcd60e51b81526004018080602001828103825260318152602001806126a26031913960400191505060405180910390fd5b6007546008546040805163694ac93d60e11b815260048101929092523360248301526000848103604484015290516001600160a01b039093169263d295927a92606480820193929182900301818387803b1580156113fd57600080fd5b505af1158015611411573d6000803e3d6000fd5b50505050611421600e5482611e1c565b600e553360009081526011602052604090205461143e9082611e1c565b33600090815260116020526040902055600954611465906001600160a01b0316848461212c565b505b33600090815260116020526040902054600d54611484919061227f565b3360009081526010602090815260409182902092909255805183815290517f879a83fc17750905b8aef4ef85e6701b84a50e15d4463dc3c2e7fb0f9dbcf75d929181900390910190a15050565b600654600114611528576040805162461bcd60e51b815260206004820152601f60248201527f436f6c6c61746572616c546f6b656e416461707465722f6e6f74206c69766500604482015290519081900360640190fd5b61153184611eed565b821561167257600061155561154885601254611d64565b611550610f9c565b611d40565b9050600081136115965760405162461bcd60e51b81526004018080602001828103825260258152602001806127576025913960400191505060405180910390fd5b6009546115ae906001600160a01b03163330876122a0565b6007546008546040805163694ac93d60e11b815260048101929092526001600160a01b03888116602484015260448301859052905192169163d295927a9160648082019260009290919082900301818387803b15801561160d57600080fd5b505af1158015611621573d6000803e3d6000fd5b50505050611631600e5482611e6c565b600e556001600160a01b0385166000908152601160205260409020546116579082611e6c565b6001600160a01b038616600090815260116020526040902055505b6001600160a01b038416600090815260116020526040902054600d54611698919061227f565b6001600160a01b0385166000908152601060205260409020558215611728576000805460035460408051630efe6a8b60e01b8152306004820152602481019290925260448201879052516001600160a01b0390921692630efe6a8b9260648084019382900301818387803b15801561170f57600080fd5b505af1158015611723573d6000803e3d6000fd5b505050505b6040805184815290517ff641ad64267ca71156d13749ad746155df3095d9afeb604fe3b53016ce5fc8ba9181900360200190a150505050565b60075460085460408051633e2f890b60e21b81526004810192909252336024830152516000926001600160a01b03169163f8be242c916044808301926020929190829003018186803b1580156117b657600080fd5b505afa1580156117ca573d6000803e3d6000fd5b505050506040513d60208110156117e057600080fd5b50519050600160ff1b81106118265760405162461bcd60e51b81526004018080602001828103825260258152602001806127576025913960400191505060405180910390fd5b600061184461183c83611837610f9c565b612407565b601354612407565b6007546008546040805163694ac93d60e11b815260048101929092523360248301526000868103604484015290519394506001600160a01b039092169263d295927a9260648084019391929182900301818387803b1580156118a557600080fd5b505af11580156118b9573d6000803e3d6000fd5b505050506118c9600e5483611e1c565b600e55336000908152601160205260409020546118e69083611e1c565b336000908152601160205260409020819055600d54611905919061227f565b3360009081526010602052604090205560095461192c906001600160a01b0316848361212c565b604080516001600160a01b0385168152905133917f6ba7f365fdc489ae6b61ea2021626b6df9cff6f0280e8e1658e5d7f87794f0c8919081900360200190a2505050565b6001600160a01b0385166000908152601160205260409020546119938185611e1c565b6001600160a01b0380881660009081526011602052604080822093909355908716815220546119c29085611e6c565b6001600160a01b03808716600090815260116020908152604080832094909455918916815260109091529081205490826119fc8388611d64565b81611a0357fe5b6001600160a01b03808b1660009081526010602052604080822094909304808703909455908a1681522054909150611a3b9082611e6c565b6001600160a01b03808916600090815260106020526040808220939093556007546008548451630a76216560e21b815260048101919091528c841660248201528451929491909316926329d885949260448083019392829003018186803b158015611aa557600080fd5b505afa158015611ab9573d6000803e3d6000fd5b505050506040513d6040811015611acf57600080fd5b505160075460085460408051633e2f890b60e21b815260048101929092526001600160a01b038d811660248401529051939450611b619392169163f8be242c91604480820192602092909190829003018186803b158015611b2f57600080fd5b505afa158015611b43573d6000803e3d6000fd5b505050506040513d6020811015611b5957600080fd5b505182611e6c565b6001600160a01b038a166000908152601160205260409020541015611bb75760405162461bcd60e51b815260040180806020018281038252604a81526020018061277c604a913960600191505060405180910390fd5b60075460085460408051630a76216560e21b815260048101929092526001600160a01b038b8116602484015281519316926329d88594926044808201939291829003018186803b158015611c0a57600080fd5b505afa158015611c1e573d6000803e3d6000fd5b505050506040513d6040811015611c3457600080fd5b505160075460085460408051633e2f890b60e21b815260048101929092526001600160a01b038c811660248401529051939450611c949392169163f8be242c91604480820192602092909190829003018186803b158015611b2f57600080fd5b6001600160a01b0389166000908152601160205260409020541115611cea5760405162461bcd60e51b815260040180806020018281038252604f815260200180612653604f913960600191505060405180910390fd5b876001600160a01b0316896001600160a01b03167f11f8877fdec37577921d8bf36ca71ea534c8901eada496d759bce84bba46e2de896040518082815260200191505060405180910390a3505050505050505050565b600081611d5584670de0b6b3a7640000611d64565b81611d5c57fe5b049392505050565b6000811580611d7f57505080820282828281611d7c57fe5b04145b6108ae576040805162461bcd60e51b815260206004820152601460248201527364732d6d6174682d6d756c2d6f766572666c6f7760601b604482015290519081900360640190fd5b6000808211611e13576040805162461bcd60e51b815260206004820152601360248201527264732d6d6174682d6469762d62792d7a65726f60681b604482015290519081900360640190fd5b818381611d5c57fe5b808203828111156108ae576040805162461bcd60e51b815260206004820152601560248201527464732d6d6174682d7375622d756e646572666c6f7760581b604482015290519081900360640190fd5b808201828110156108ae576040805162461bcd60e51b815260206004820152601460248201527364732d6d6174682d6164642d6f766572666c6f7760601b604482015290519081900360640190fd5b600081611d55846b033b2e3c9fd0803ce8000000611d64565b60006b033b2e3c9fd0803ce8000000611d558484611d64565b600c5460408051633383f9ef60e11b81526001600160a01b03848116600483015291516000939290921691636707f3de91602480820192602092909190829003018186803b158015611f3e57600080fd5b505afa158015611f52573d6000803e3d6000fd5b505050506040513d6020811015611f6857600080fd5b505190506001600160a01b038116611f7d5750805b6001600160a01b038116611fc25760405162461bcd60e51b815260040180806020018281038252602e8152602001806126d3602e913960400191505060405180910390fd5b600e5415611fe757611fe3600d5461125b611fdb61241c565b600e54611ebb565b600d555b6001600160a01b0382166000908152601060209081526040808320546011909252822054600d5491929161201b9190611ed4565b9050818111156120885760006120318284611e1c565b9050600061204461118583600454611d64565b600554600b54919250612064916001600160a01b0390811691168361212c565b612085856120728484611e1c565b600b546001600160a01b0316919061212c565b50505b600b54604080516370a0823160e01b815230600482015290516001600160a01b03909216916370a0823191602480820192602092909190829003018186803b1580156120d357600080fd5b505afa1580156120e7573d6000803e3d6000fd5b505050506040513d60208110156120fd57600080fd5b5051600f5550505050565b600061212561211f84670de0b6b3a7640000611d64565b83612640565b9392505050565b604080516001600160a01b038481166024830152604480830185905283518084039091018152606490920183526020820180516001600160e01b031663a9059cbb60e01b178152925182516000946060949389169392918291908083835b602083106121a95780518252601f19909201916020918201910161218a565b6001836020036101000a0380198251168184511680821785525050505050509050019150506000604051808303816000865af19150503d806000811461220b576040519150601f19603f3d011682016040523d82523d6000602084013e612210565b606091505b509150915081801561223e57508051158061223e575080806020019051602081101561223b57600080fd5b50515b610d4f576040805162461bcd60e51b815260206004820152600d60248201526c10b9b0b332aa3930b739b332b960991b604482015290519081900360640190fd5b600061212561228e8484611d64565b6b033b2e3c9fd0803ce8000000612640565b604080516001600160a01b0385811660248301528481166044830152606480830185905283518084039091018152608490920183526020820180516001600160e01b03166323b872dd60e01b17815292518251600094606094938a169392918291908083835b602083106123255780518252601f199092019160209182019101612306565b6001836020036101000a0380198251168184511680821785525050505050509050019150506000604051808303816000865af19150503d8060008114612387576040519150601f19603f3d011682016040523d82523d6000602084013e61238c565b606091505b50915091508180156123ba5750805115806123ba57508080602001905160208110156123b757600080fd5b50515b6123ff576040805162461bcd60e51b815260206004820152601160248201527021736166655472616e7366657246726f6d60781b604482015290519081900360640190fd5b505050505050565b6000670de0b6b3a7640000611d558484611d64565b6000600654600114156125bb57600080546003546040805163b31d991360e01b81526004810192909252306024830152516001600160a01b039092169163b31d991391604480820192602092909190829003018186803b15801561247f57600080fd5b505afa158015612493573d6000803e3d6000fd5b505050506040513d60208110156124a957600080fd5b505160008054600354604080516393f1a40b60e01b815260048101929092523060248301525193945091926001600160a01b03909116916393f1a40b916044808301926080929190829003018186803b15801561250557600080fd5b505afa158015612519573d6000803e3d6000fd5b505050506040513d608081101561252f57600080fd5b5051905080158015906125425750600082115b156125b8576000805460035460408051635ae2fb3960e11b8152306004820152602481019290925260448201849052516001600160a01b039092169263b5c5f6729260648084019382900301818387803b15801561259f57600080fd5b505af11580156125b3573d6000803e3d6000fd5b505050505b50505b600b54604080516370a0823160e01b8152306004820152905161263b926001600160a01b0316916370a08231916024808301926020929190829003018186803b15801561260757600080fd5b505afa15801561261b573d6000803e3d6000fd5b505050506040513d602081101561263157600080fd5b5051600f54611e1c565b905090565b600081611d558461125b856001611e1c56fe436f6c6c61746572616c546f6b656e416461707465722f7374616b655b64657374696e6174696f6e5d203e20636f6c6c61746572616c546f6b656e73202b206c6f636b6564436f6c6c61746572616c436f6c6c61746572616c546f6b656e416461707465722f696e73756666696369656e74207374616b656420616d6f756e74436f6c6c61746572616c546f6b656e416461707465722f686172766573742d746f2d616464726573732d7a65726f436f6c6c61746572616c546f6b656e416461707465722f626164207472656173757279206163636f756e74436f6c6c61746572616c546f6b656e416461707465722f6261642074726561737572792066656520627073436f6c6c61746572616c546f6b656e416461707465722f73686172652d6f766572666c6f77436f6c6c61746572616c546f6b656e416461707465722f7374616b655b736f757263655d203c20636f6c6c61746572616c546f6b656e73202b206c6f636b6564436f6c6c61746572616ca26469706673582212207d2772497578384a9bcdc88e31d44fc1e1a5bb35bff007b61fd667e65d573a9864736f6c634300060c0033436f6c6c61746572616c546f6b656e416461707465722f636f6c6c61746572616c546f6b656e2d6e6f742d6d61746368436f6c6c61746572616c546f6b656e416461707465722f626164207472656173757279206163636f756e74436f6c6c61746572616c546f6b656e416461707465722f6261642074726561737572792066656520627073436f6c6c61746572616c546f6b656e416461707465722f7265776172642d746f6b656e2d6e6f742d6d61746368436f6c6c61746572616c546f6b656e416461707465722f646563696d616c73203e203138",
  "linkReferences": {},
  "deployedLinkReferences": {}
}