{
    "contractName": "CollateralPoolConfig",
    "abi": [
        {
            "anonymous": false,
            "inputs": [
                {
                    "indexed": false,
                    "internalType": "uint8",
                    "name": "version",
                    "type": "uint8"
                }
            ],
            "name": "Initialized",
            "type": "event"
        },
        {
            "anonymous": false,
            "inputs": [
                {
                    "indexed": true,
                    "internalType": "bytes32",
                    "name": "_collateralPoolId",
                    "type": "bytes32"
                },
                {
                    "indexed": false,
                    "internalType": "uint256",
                    "name": "_debtCeiling",
                    "type": "uint256"
                },
                {
                    "indexed": false,
                    "internalType": "uint256",
                    "name": "_liquidationRatio",
                    "type": "uint256"
                },
                {
                    "indexed": false,
                    "internalType": "uint256",
                    "name": "_stabilityFeeRate",
                    "type": "uint256"
                },
                {
                    "indexed": false,
                    "internalType": "address",
                    "name": "_adapter",
                    "type": "address"
                }
            ],
            "name": "LogInitCollateralPoolId",
            "type": "event"
        },
        {
            "anonymous": false,
            "inputs": [
                {
                    "indexed": false,
                    "internalType": "address",
                    "name": "_messageSender",
                    "type": "address"
                },
                {
                    "indexed": false,
                    "internalType": "bytes32",
                    "name": "_collateralPoolId",
                    "type": "bytes32"
                },
                {
                    "indexed": false,
                    "internalType": "uint256",
                    "name": "_positionDebtCeiling",
                    "type": "uint256"
                }
            ],
            "name": "LogPositionDebtCeiling",
            "type": "event"
        },
        {
            "anonymous": false,
            "inputs": [
                {
                    "indexed": true,
                    "internalType": "address",
                    "name": "_caller",
                    "type": "address"
                },
                {
                    "indexed": true,
                    "internalType": "bytes32",
                    "name": "_collateralPoolId",
                    "type": "bytes32"
                },
                {
                    "indexed": false,
                    "internalType": "address",
                    "name": "_adapter",
                    "type": "address"
                }
            ],
            "name": "LogSetAdapter",
            "type": "event"
        },
        {
            "anonymous": false,
            "inputs": [
                {
                    "indexed": true,
                    "internalType": "address",
                    "name": "_caller",
                    "type": "address"
                },
                {
                    "indexed": true,
                    "internalType": "bytes32",
                    "name": "_collateralPoolId",
                    "type": "bytes32"
                },
                {
                    "indexed": false,
                    "internalType": "uint256",
                    "name": "_closeFactorBps",
                    "type": "uint256"
                }
            ],
            "name": "LogSetCloseFactorBps",
            "type": "event"
        },
        {
            "anonymous": false,
            "inputs": [
                {
                    "indexed": true,
                    "internalType": "address",
                    "name": "_caller",
                    "type": "address"
                },
                {
                    "indexed": true,
                    "internalType": "bytes32",
                    "name": "_collateralPoolId",
                    "type": "bytes32"
                },
                {
                    "indexed": false,
                    "internalType": "uint256",
                    "name": "_debtAccumulatedRate",
                    "type": "uint256"
                }
            ],
            "name": "LogSetDebtAccumulatedRate",
            "type": "event"
        },
        {
            "anonymous": false,
            "inputs": [
                {
                    "indexed": true,
                    "internalType": "address",
                    "name": "_caller",
                    "type": "address"
                },
                {
                    "indexed": true,
                    "internalType": "bytes32",
                    "name": "_collateralPoolId",
                    "type": "bytes32"
                },
                {
                    "indexed": false,
                    "internalType": "uint256",
                    "name": "_debtCeiling",
                    "type": "uint256"
                }
            ],
            "name": "LogSetDebtCeiling",
            "type": "event"
        },
        {
            "anonymous": false,
            "inputs": [
                {
                    "indexed": true,
                    "internalType": "address",
                    "name": "_caller",
                    "type": "address"
                },
                {
                    "indexed": true,
                    "internalType": "bytes32",
                    "name": "_collateralPoolId",
                    "type": "bytes32"
                },
                {
                    "indexed": false,
                    "internalType": "uint256",
                    "name": "_debtFloor",
                    "type": "uint256"
                }
            ],
            "name": "LogSetDebtFloor",
            "type": "event"
        },
        {
            "anonymous": false,
            "inputs": [
                {
                    "indexed": true,
                    "internalType": "address",
                    "name": "_caller",
                    "type": "address"
                },
                {
                    "indexed": true,
                    "internalType": "bytes32",
                    "name": "_poolId",
                    "type": "bytes32"
                },
                {
                    "indexed": false,
                    "internalType": "uint256",
                    "name": "_data",
                    "type": "uint256"
                }
            ],
            "name": "LogSetLiquidationRatio",
            "type": "event"
        },
        {
            "anonymous": false,
            "inputs": [
                {
                    "indexed": true,
                    "internalType": "address",
                    "name": "_caller",
                    "type": "address"
                },
                {
                    "indexed": true,
                    "internalType": "bytes32",
                    "name": "_collateralPoolId",
                    "type": "bytes32"
                },
                {
                    "indexed": false,
                    "internalType": "uint256",
                    "name": "_liquidatorIncentiveBps",
                    "type": "uint256"
                }
            ],
            "name": "LogSetLiquidatorIncentiveBps",
            "type": "event"
        },
        {
            "anonymous": false,
            "inputs": [
                {
                    "indexed": true,
                    "internalType": "address",
                    "name": "_caller",
                    "type": "address"
                },
                {
                    "indexed": true,
                    "internalType": "bytes32",
                    "name": "_poolId",
                    "type": "bytes32"
                },
                {
                    "indexed": false,
                    "internalType": "address",
                    "name": "_priceFeed",
                    "type": "address"
                }
            ],
            "name": "LogSetPriceFeed",
            "type": "event"
        },
        {
            "anonymous": false,
            "inputs": [
                {
                    "indexed": true,
                    "internalType": "address",
                    "name": "_caller",
                    "type": "address"
                },
                {
                    "indexed": true,
                    "internalType": "bytes32",
                    "name": "_collateralPoolId",
                    "type": "bytes32"
                },
                {
                    "indexed": false,
                    "internalType": "uint256",
                    "name": "_priceWithSafetyMargin",
                    "type": "uint256"
                }
            ],
            "name": "LogSetPriceWithSafetyMargin",
            "type": "event"
        },
        {
            "anonymous": false,
            "inputs": [
                {
                    "indexed": true,
                    "internalType": "address",
                    "name": "_caller",
                    "type": "address"
                },
                {
                    "indexed": true,
                    "internalType": "bytes32",
                    "name": "_poolId",
                    "type": "bytes32"
                },
                {
                    "indexed": false,
                    "internalType": "uint256",
                    "name": "_data",
                    "type": "uint256"
                }
            ],
            "name": "LogSetStabilityFeeRate",
            "type": "event"
        },
        {
            "anonymous": false,
            "inputs": [
                {
                    "indexed": true,
                    "internalType": "address",
                    "name": "_caller",
                    "type": "address"
                },
                {
                    "indexed": true,
                    "internalType": "bytes32",
                    "name": "_collateralPoolId",
                    "type": "bytes32"
                },
                {
                    "indexed": false,
                    "internalType": "address",
                    "name": "strategy",
                    "type": "address"
                }
            ],
            "name": "LogSetStrategy",
            "type": "event"
        },
        {
            "anonymous": false,
            "inputs": [
                {
                    "indexed": true,
                    "internalType": "address",
                    "name": "_caller",
                    "type": "address"
                },
                {
                    "indexed": true,
                    "internalType": "bytes32",
                    "name": "_collateralPoolId",
                    "type": "bytes32"
                },
                {
                    "indexed": false,
                    "internalType": "uint256",
                    "name": "_totalDebtShare",
                    "type": "uint256"
                }
            ],
            "name": "LogSetTotalDebtShare",
            "type": "event"
        },
        {
            "anonymous": false,
            "inputs": [
                {
                    "indexed": true,
                    "internalType": "address",
                    "name": "_caller",
                    "type": "address"
                },
                {
                    "indexed": true,
                    "internalType": "bytes32",
                    "name": "_collateralPoolId",
                    "type": "bytes32"
                },
                {
                    "indexed": false,
                    "internalType": "uint256",
                    "name": "_treasuryFeeBps",
                    "type": "uint256"
                }
            ],
            "name": "LogSetTreasuryFeesBps",
            "type": "event"
        },
        {
            "inputs": [],
            "name": "accessControlConfig",
            "outputs": [
                {
                    "internalType": "contract IAccessControlConfig",
                    "name": "",
                    "type": "address"
                }
            ],
            "stateMutability": "view",
            "type": "function"
        },
        {
            "inputs": [
                {
                    "internalType": "address",
                    "name": "_accessControlConfig",
                    "type": "address"
                }
            ],
            "name": "initialize",
            "outputs": [],
            "stateMutability": "nonpayable",
            "type": "function"
        },
        {
            "inputs": [
                {
                    "internalType": "bytes32",
                    "name": "_collateralPoolId",
                    "type": "bytes32"
                },
                {
                    "internalType": "uint256",
                    "name": "_debtCeiling",
                    "type": "uint256"
                },
                {
                    "internalType": "uint256",
                    "name": "_debtFloor",
                    "type": "uint256"
                },
                {
                    "internalType": "uint256",
                    "name": "_positionDebtCeiling",
                    "type": "uint256"
                },
                {
                    "internalType": "address",
                    "name": "_priceFeed",
                    "type": "address"
                },
                {
                    "internalType": "uint256",
                    "name": "_liquidationRatio",
                    "type": "uint256"
                },
                {
                    "internalType": "uint256",
                    "name": "_stabilityFeeRate",
                    "type": "uint256"
                },
                {
                    "internalType": "address",
                    "name": "_adapter",
                    "type": "address"
                },
                {
                    "internalType": "uint256",
                    "name": "_closeFactorBps",
                    "type": "uint256"
                },
                {
                    "internalType": "uint256",
                    "name": "_liquidatorIncentiveBps",
                    "type": "uint256"
                },
                {
                    "internalType": "uint256",
                    "name": "_treasuryFeesBps",
                    "type": "uint256"
                },
                {
                    "internalType": "address",
                    "name": "_strategy",
                    "type": "address"
                }
            ],
            "name": "initCollateralPool",
            "outputs": [],
            "stateMutability": "nonpayable",
            "type": "function"
        },
        {
            "inputs": [
                {
                    "internalType": "bytes32",
                    "name": "_collateralPoolId",
                    "type": "bytes32"
                },
                {
                    "internalType": "uint256",
                    "name": "_priceWithSafetyMargin",
                    "type": "uint256"
                }
            ],
            "name": "setPriceWithSafetyMargin",
            "outputs": [],
            "stateMutability": "nonpayable",
            "type": "function"
        },
        {
            "inputs": [
                {
                    "internalType": "bytes32",
                    "name": "_collateralPoolId",
                    "type": "bytes32"
                },
                {
                    "internalType": "uint256",
                    "name": "_debtCeiling",
                    "type": "uint256"
                }
            ],
            "name": "setDebtCeiling",
            "outputs": [],
            "stateMutability": "nonpayable",
            "type": "function"
        },
        {
            "inputs": [
                {
                    "internalType": "bytes32",
                    "name": "_collateralPoolId",
                    "type": "bytes32"
                },
                {
                    "internalType": "uint256",
                    "name": "_debtFloor",
                    "type": "uint256"
                }
            ],
            "name": "setDebtFloor",
            "outputs": [],
            "stateMutability": "nonpayable",
            "type": "function"
        },
        {
            "inputs": [
                {
                    "internalType": "bytes32",
                    "name": "_collateralPoolId",
                    "type": "bytes32"
                },
                {
                    "internalType": "uint256",
                    "name": "_positionDebtCeiling",
                    "type": "uint256"
                }
            ],
            "name": "setPositionDebtCeiling",
            "outputs": [],
            "stateMutability": "nonpayable",
            "type": "function"
        },
        {
            "inputs": [
                {
                    "internalType": "bytes32",
                    "name": "_poolId",
                    "type": "bytes32"
                },
                {
                    "internalType": "address",
                    "name": "_priceFeed",
                    "type": "address"
                }
            ],
            "name": "setPriceFeed",
            "outputs": [],
            "stateMutability": "nonpayable",
            "type": "function"
        },
        {
            "inputs": [
                {
                    "internalType": "bytes32",
                    "name": "_poolId",
                    "type": "bytes32"
                },
                {
                    "internalType": "uint256",
                    "name": "_liquidationRatio",
                    "type": "uint256"
                }
            ],
            "name": "setLiquidationRatio",
            "outputs": [],
            "stateMutability": "nonpayable",
            "type": "function"
        },
        {
            "inputs": [
                {
                    "internalType": "bytes32",
                    "name": "_collateralPool",
                    "type": "bytes32"
                },
                {
                    "internalType": "uint256",
                    "name": "_stabilityFeeRate",
                    "type": "uint256"
                }
            ],
            "name": "setStabilityFeeRate",
            "outputs": [],
            "stateMutability": "nonpayable",
            "type": "function"
        },
        {
            "inputs": [
                {
                    "internalType": "bytes32",
                    "name": "_collateralPoolId",
                    "type": "bytes32"
                },
                {
                    "internalType": "address",
                    "name": "_adapter",
                    "type": "address"
                }
            ],
            "name": "setAdapter",
            "outputs": [],
            "stateMutability": "nonpayable",
            "type": "function"
        },
        {
            "inputs": [
                {
                    "internalType": "bytes32",
                    "name": "_collateralPoolId",
                    "type": "bytes32"
                },
                {
                    "internalType": "uint256",
                    "name": "_closeFactorBps",
                    "type": "uint256"
                }
            ],
            "name": "setCloseFactorBps",
            "outputs": [],
            "stateMutability": "nonpayable",
            "type": "function"
        },
        {
            "inputs": [
                {
                    "internalType": "bytes32",
                    "name": "_collateralPoolId",
                    "type": "bytes32"
                },
                {
                    "internalType": "uint256",
                    "name": "_liquidatorIncentiveBps",
                    "type": "uint256"
                }
            ],
            "name": "setLiquidatorIncentiveBps",
            "outputs": [],
            "stateMutability": "nonpayable",
            "type": "function"
        },
        {
            "inputs": [
                {
                    "internalType": "bytes32",
                    "name": "_collateralPoolId",
                    "type": "bytes32"
                },
                {
                    "internalType": "uint256",
                    "name": "_treasuryFeesBps",
                    "type": "uint256"
                }
            ],
            "name": "setTreasuryFeesBps",
            "outputs": [],
            "stateMutability": "nonpayable",
            "type": "function"
        },
        {
            "inputs": [
                {
                    "internalType": "bytes32",
                    "name": "_collateralPoolId",
                    "type": "bytes32"
                },
                {
                    "internalType": "uint256",
                    "name": "_totalDebtShare",
                    "type": "uint256"
                }
            ],
            "name": "setTotalDebtShare",
            "outputs": [],
            "stateMutability": "nonpayable",
            "type": "function"
        },
        {
            "inputs": [
                {
                    "internalType": "bytes32",
                    "name": "_collateralPoolId",
                    "type": "bytes32"
                },
                {
                    "internalType": "uint256",
                    "name": "_debtAccumulatedRate",
                    "type": "uint256"
                }
            ],
            "name": "setDebtAccumulatedRate",
            "outputs": [],
            "stateMutability": "nonpayable",
            "type": "function"
        },
        {
            "inputs": [
                {
                    "internalType": "bytes32",
                    "name": "_collateralPoolId",
                    "type": "bytes32"
                },
                {
                    "internalType": "address",
                    "name": "_strategy",
                    "type": "address"
                }
            ],
            "name": "setStrategy",
            "outputs": [],
            "stateMutability": "nonpayable",
            "type": "function"
        },
        {
            "inputs": [
                {
                    "internalType": "bytes32",
                    "name": "_collateralPoolId",
                    "type": "bytes32"
                }
            ],
            "name": "updateLastAccumulationTime",
            "outputs": [],
            "stateMutability": "nonpayable",
            "type": "function"
        },
        {
            "inputs": [
                {
                    "internalType": "bytes32",
                    "name": "_collateralPoolId",
                    "type": "bytes32"
                }
            ],
            "name": "collateralPools",
            "outputs": [
                {
                    "components": [
                        {
                            "internalType": "uint256",
                            "name": "totalDebtShare",
                            "type": "uint256"
                        },
                        {
                            "internalType": "uint256",
                            "name": "debtAccumulatedRate",
                            "type": "uint256"
                        },
                        {
                            "internalType": "uint256",
                            "name": "priceWithSafetyMargin",
                            "type": "uint256"
                        },
                        {
                            "internalType": "uint256",
                            "name": "debtCeiling",
                            "type": "uint256"
                        },
                        {
                            "internalType": "uint256",
                            "name": "debtFloor",
                            "type": "uint256"
                        },
                        {
                            "internalType": "address",
                            "name": "priceFeed",
                            "type": "address"
                        },
                        {
                            "internalType": "uint256",
                            "name": "liquidationRatio",
                            "type": "uint256"
                        },
                        {
                            "internalType": "uint256",
                            "name": "stabilityFeeRate",
                            "type": "uint256"
                        },
                        {
                            "internalType": "uint256",
                            "name": "lastAccumulationTime",
                            "type": "uint256"
                        },
                        {
                            "internalType": "address",
                            "name": "adapter",
                            "type": "address"
                        },
                        {
                            "internalType": "uint256",
                            "name": "closeFactorBps",
                            "type": "uint256"
                        },
                        {
                            "internalType": "uint256",
                            "name": "liquidatorIncentiveBps",
                            "type": "uint256"
                        },
                        {
                            "internalType": "uint256",
                            "name": "treasuryFeesBps",
                            "type": "uint256"
                        },
                        {
                            "internalType": "address",
                            "name": "strategy",
                            "type": "address"
                        },
                        {
                            "internalType": "uint256",
                            "name": "positionDebtCeiling",
                            "type": "uint256"
                        }
                    ],
                    "internalType": "struct ICollateralPoolConfig.CollateralPool",
                    "name": "",
                    "type": "tuple"
                }
            ],
            "stateMutability": "view",
            "type": "function"
        },
        {
            "inputs": [
                {
                    "internalType": "bytes32",
                    "name": "_collateralPoolId",
                    "type": "bytes32"
                }
            ],
            "name": "getTotalDebtShare",
            "outputs": [
                {
                    "internalType": "uint256",
                    "name": "",
                    "type": "uint256"
                }
            ],
            "stateMutability": "view",
            "type": "function"
        },
        {
            "inputs": [
                {
                    "internalType": "bytes32",
                    "name": "_collateralPoolId",
                    "type": "bytes32"
                }
            ],
            "name": "getDebtAccumulatedRate",
            "outputs": [
                {
                    "internalType": "uint256",
                    "name": "",
                    "type": "uint256"
                }
            ],
            "stateMutability": "view",
            "type": "function"
        },
        {
            "inputs": [
                {
                    "internalType": "bytes32",
                    "name": "_collateralPoolId",
                    "type": "bytes32"
                }
            ],
            "name": "getPriceWithSafetyMargin",
            "outputs": [
                {
                    "internalType": "uint256",
                    "name": "",
                    "type": "uint256"
                }
            ],
            "stateMutability": "view",
            "type": "function"
        },
        {
            "inputs": [
                {
                    "internalType": "bytes32",
                    "name": "_collateralPoolId",
                    "type": "bytes32"
                }
            ],
            "name": "getDebtCeiling",
            "outputs": [
                {
                    "internalType": "uint256",
                    "name": "",
                    "type": "uint256"
                }
            ],
            "stateMutability": "view",
            "type": "function"
        },
        {
            "inputs": [
                {
                    "internalType": "bytes32",
                    "name": "_collateralPoolId",
                    "type": "bytes32"
                }
            ],
            "name": "getPositionDebtCeiling",
            "outputs": [
                {
                    "internalType": "uint256",
                    "name": "",
                    "type": "uint256"
                }
            ],
            "stateMutability": "view",
            "type": "function"
        },
        {
            "inputs": [
                {
                    "internalType": "bytes32",
                    "name": "_collateralPoolId",
                    "type": "bytes32"
                }
            ],
            "name": "getDebtFloor",
            "outputs": [
                {
                    "internalType": "uint256",
                    "name": "",
                    "type": "uint256"
                }
            ],
            "stateMutability": "view",
            "type": "function"
        },
        {
            "inputs": [
                {
                    "internalType": "bytes32",
                    "name": "_collateralPoolId",
                    "type": "bytes32"
                }
            ],
            "name": "getPriceFeed",
            "outputs": [
                {
                    "internalType": "address",
                    "name": "",
                    "type": "address"
                }
            ],
            "stateMutability": "view",
            "type": "function"
        },
        {
            "inputs": [
                {
                    "internalType": "bytes32",
                    "name": "_collateralPoolId",
                    "type": "bytes32"
                }
            ],
            "name": "getLiquidationRatio",
            "outputs": [
                {
                    "internalType": "uint256",
                    "name": "",
                    "type": "uint256"
                }
            ],
            "stateMutability": "view",
            "type": "function"
        },
        {
            "inputs": [
                {
                    "internalType": "bytes32",
                    "name": "_collateralPoolId",
                    "type": "bytes32"
                }
            ],
            "name": "getStabilityFeeRate",
            "outputs": [
                {
                    "internalType": "uint256",
                    "name": "",
                    "type": "uint256"
                }
            ],
            "stateMutability": "view",
            "type": "function"
        },
        {
            "inputs": [
                {
                    "internalType": "bytes32",
                    "name": "_collateralPoolId",
                    "type": "bytes32"
                }
            ],
            "name": "getLastAccumulationTime",
            "outputs": [
                {
                    "internalType": "uint256",
                    "name": "",
                    "type": "uint256"
                }
            ],
            "stateMutability": "view",
            "type": "function"
        },
        {
            "inputs": [
                {
                    "internalType": "bytes32",
                    "name": "_collateralPoolId",
                    "type": "bytes32"
                }
            ],
            "name": "getAdapter",
            "outputs": [
                {
                    "internalType": "address",
                    "name": "",
                    "type": "address"
                }
            ],
            "stateMutability": "view",
            "type": "function"
        },
        {
            "inputs": [
                {
                    "internalType": "bytes32",
                    "name": "_collateralPoolId",
                    "type": "bytes32"
                }
            ],
            "name": "getCloseFactorBps",
            "outputs": [
                {
                    "internalType": "uint256",
                    "name": "",
                    "type": "uint256"
                }
            ],
            "stateMutability": "view",
            "type": "function"
        },
        {
            "inputs": [
                {
                    "internalType": "bytes32",
                    "name": "_collateralPoolId",
                    "type": "bytes32"
                }
            ],
            "name": "getLiquidatorIncentiveBps",
            "outputs": [
                {
                    "internalType": "uint256",
                    "name": "",
                    "type": "uint256"
                }
            ],
            "stateMutability": "view",
            "type": "function"
        },
        {
            "inputs": [
                {
                    "internalType": "bytes32",
                    "name": "_collateralPoolId",
                    "type": "bytes32"
                }
            ],
            "name": "getTreasuryFeesBps",
            "outputs": [
                {
                    "internalType": "uint256",
                    "name": "",
                    "type": "uint256"
                }
            ],
            "stateMutability": "view",
            "type": "function"
        },
        {
            "inputs": [
                {
                    "internalType": "bytes32",
                    "name": "_collateralPoolId",
                    "type": "bytes32"
                }
            ],
            "name": "getStrategy",
            "outputs": [
                {
                    "internalType": "address",
                    "name": "",
                    "type": "address"
                }
            ],
            "stateMutability": "view",
            "type": "function"
        },
        {
            "inputs": [
                {
                    "internalType": "bytes32",
                    "name": "_collateralPoolId",
                    "type": "bytes32"
                }
            ],
            "name": "getCollateralPoolInfo",
            "outputs": [
                {
                    "components": [
                        {
                            "internalType": "uint256",
                            "name": "debtAccumulatedRate",
                            "type": "uint256"
                        },
                        {
                            "internalType": "uint256",
                            "name": "totalDebtShare",
                            "type": "uint256"
                        },
                        {
                            "internalType": "uint256",
                            "name": "debtCeiling",
                            "type": "uint256"
                        },
                        {
                            "internalType": "uint256",
                            "name": "priceWithSafetyMargin",
                            "type": "uint256"
                        },
                        {
                            "internalType": "uint256",
                            "name": "debtFloor",
                            "type": "uint256"
                        },
                        {
                            "internalType": "uint256",
                            "name": "positionDebtCeiling",
                            "type": "uint256"
                        }
                    ],
                    "internalType": "struct ICollateralPoolConfig.CollateralPoolInfo",
                    "name": "_info",
                    "type": "tuple"
                }
            ],
            "stateMutability": "view",
            "type": "function"
        }
    ],
    "bytecode": "0x608060405234801561001057600080fd5b50612faa806100206000396000f3fe608060405234801561001057600080fd5b50600436106102115760003560e01c806397a991b811610125578063bbd112a5116100ad578063d3fdc5e71161007c578063d3fdc5e7146105c2578063d97a3649146105d5578063e47f3c6f146105f5578063e73bbc7914610608578063e73eb92e1461062b57600080fd5b8063bbd112a514610566578063be7c9f3214610589578063c4d66de81461059c578063c8cc243f146105af57600080fd5b8063a3c68b42116100f4578063a3c68b42146104f7578063a6726c811461050a578063ad41d85d1461051d578063b3b1cfa214610540578063b7cc80d31461055357600080fd5b806397a991b81461048a5780639c1985d51461049d578063a09b0fe0146104c0578063a14cbb12146104e457600080fd5b806340aa66ab116101a85780637722067b116101775780637722067b146103dc5780637a8bd02e146103ef5780638272e1381461040f5780638c0adf621461043b5780638c492d071461046757600080fd5b806340aa66ab1461036057806344d0c937146103835780635897b571146103a657806373a4f962146103b957600080fd5b80632a6af341116101e45780632a6af341146103125780632fa79780146103275780632fe6af441461033a57806337629aa01461034d57600080fd5b80630ec057e5146102165780631204769e1461024c5780631fea158d146102ab57806328c84bbd146102ce575b600080fd5b6102396102243660046129ea565b6000908152600160205260409020600b015490565b6040519081526020015b60405180910390f35b61025f61025a3660046129ea565b61063e565b6040516102439190600060c082019050825182526020830151602083015260408301516040830152606083015160608301526080830151608083015260a083015160a083015292915050565b6102396102b93660046129ea565b60009081526001602052604090206007015490565b6102fa6102dc3660046129ea565b6000908152600160205260409020600d01546001600160a01b031690565b6040516001600160a01b039091168152602001610243565b610325610320366004612a1f565b6106c8565b005b610325610335366004612abc565b610dac565b610325610348366004612abc565b610f4c565b61032561035b366004612ade565b6110c8565b61023961036e3660046129ea565b6000908152600160205260409020600e015490565b6102396103913660046129ea565b60009081526001602052604090206006015490565b6103256103b4366004612abc565b611351565b6102396103c73660046129ea565b6000908152600160205260409020600c015490565b6103256103ea366004612abc565b6114ea565b6102396103fd3660046129ea565b60009081526001602052604090205490565b6102fa61041d3660046129ea565b6000908152600160205260409020600901546001600160a01b031690565b6102fa6104493660046129ea565b6000908152600160205260409020600501546001600160a01b031690565b6102396104753660046129ea565b60009081526001602052604090206002015490565b610325610498366004612abc565b61169f565b6102396104ab3660046129ea565b60009081526001602052604090206004015490565b6102396104ce3660046129ea565b6000908152600160208190526040909120015490565b6103256104f2366004612ade565b61182d565b610325610505366004612abc565b6119e8565b610325610518366004612ade565b611b9a565b61023961052b3660046129ea565b60009081526001602052604090206003015490565b61032561054e366004612abc565b611eb9565b610325610561366004612abc565b61201a565b6102396105743660046129ea565b60009081526001602052604090206008015490565b610325610597366004612abc565b61218c565b6103256105aa366004612b0a565b6122f1565b6002546102fa906001600160a01b031681565b6103256105d0366004612abc565b612412565b6105e86105e33660046129ea565b612576565b6040516102439190612b2c565b610325610603366004612abc565b6126d2565b6102396106163660046129ea565b6000908152600160205260409020600a015490565b6103256106393660046129ea565b6128ac565b6106776040518060c001604052806000815260200160008152602001600081526020016000815260200160008152602001600081525090565b60008281526001602081815260408084208084015486528054868401526003810154918601919091526002810154606086015260048101546080860152949092529052600e9091015460a082015290565b6002546040805163e58378bb60e01b815290516001600160a01b03909216916391d1485491839163e58378bb916004808201926020929091908290030181865afa15801561071a573d6000803e3d6000fd5b505050506040513d601f19601f8201168201806040525081019061073e9190612c00565b6040516001600160e01b031960e084901b1681526004810191909152336024820152604401602060405180830381865afa158015610780573d6000803e3d6000fd5b505050506040513d601f19601f820116820180604052508101906107a49190612c29565b6107c95760405162461bcd60e51b81526004016107c090612c44565b60405180910390fd5b60008c81526001602081905260409091200154156108435760405162461bcd60e51b815260206004820152603160248201527f436f6c6c61746572616c506f6f6c436f6e6669672f636f6c6c61746572616c2d6044820152701c1bdbdb0b585b1c9958591e4b5a5b9a5d607a1b60648201526084016107c0565b898b116108a05760405162461bcd60e51b815260206004820152602560248201527f436f6c6c61746572616c506f6f6c436f6e6669672f696e76616c69642d6365696044820152646c69696e6760d81b60648201526084016107c0565b8a89111580156108af57508989115b6108cb5760405162461bcd60e51b81526004016107c090612c68565b60008c815260016020818152604092839020676765c793fa10079d601b1b92810192909255600382018e905560048083018e9055600e9092018c90558251631f06e1a760e11b815292518f936001600160a01b038d1693633e0dc34e938282019390929091908290030181865afa15801561094a573d6000803e3d6000fd5b505050506040513d601f19601f8201168201806040525081019061096e9190612c00565b1461098b5760405162461bcd60e51b81526004016107c090612cb5565b876001600160a01b0316630184a92a6040518163ffffffff1660e01b8152600401602060405180830381865afa1580156109c9573d6000803e3d6000fd5b505050506040513d601f19601f820116820180604052508101906109ed9190612c29565b610a095760405162461bcd60e51b81526004016107c090612cff565b876001600160a01b031663140d27206040518163ffffffff1660e01b815260040160408051808303816000875af1158015610a48573d6000803e3d6000fd5b505050506040513d601f19601f82011682018060405250810190610a6c9190612d48565b505060008c815260016020526040902060050180546001600160a01b0319166001600160a01b038a16179055676765c793fa10079d601b1b871015610ac35760405162461bcd60e51b81526004016107c090612d6b565b60008c8152600160205260409020600601879055676765c793fa10079d601b1b861015610b025760405162461bcd60e51b81526004016107c090612db9565b6b033b2e3d523e808a07fcdc0b861115610b2e5760405162461bcd60e51b81526004016107c090612e08565b60008c815260016020526040902060078101879055426008909101556001600160a01b038516610baa5760405162461bcd60e51b815260206004820152602160248201527f436f6c6c61746572616c506f6f6c436f6e6669672f7a65726f2d6164617074656044820152603960f91b60648201526084016107c0565b8b856001600160a01b031663dca07dc56040518163ffffffff1660e01b8152600401602060405180830381865afa158015610be9573d6000803e3d6000fd5b505050506040513d601f19601f82011682018060405250810190610c0d9190612c00565b14610c655760405162461bcd60e51b815260206004820152602260248201527f436f6c6c61746572616c506f6f6c436f6e6669672f77726f6e672d616461707460448201526132b960f11b60648201526084016107c0565b60008c815260016020526040902060090180546001600160a01b0319166001600160a01b0387161790558315801590610ca057506127108411155b610cbc5760405162461bcd60e51b81526004016107c090612e59565b6127108310158015610cd05750614a388311155b610cec5760405162461bcd60e51b81526004016107c090612ea6565b612328821115610d0e5760405162461bcd60e51b81526004016107c090612efb565b60008c815260016020908152604091829020600a8101879055600b8101869055600c8101859055600d0180546001600160a01b0319166001600160a01b038581169190911790915582518e81529182018a905291810188905290861660608201528c907fec3fdce1e4d9d4d24cb287bc5e2821e9d5a279b2c904251fe845a7f95aaa73919060800160405180910390a2505050505050505050505050565b6002546040805163e58378bb60e01b815290516001600160a01b03909216916391d1485491839163e58378bb916004808201926020929091908290030181865afa158015610dfe573d6000803e3d6000fd5b505050506040513d601f19601f82011682018060405250810190610e229190612c00565b6040516001600160e01b031960e084901b1681526004810191909152336024820152604401602060405180830381865afa158015610e64573d6000803e3d6000fd5b505050506040513d601f19601f82011682018060405250810190610e889190612c29565b610ea45760405162461bcd60e51b81526004016107c090612c44565b6000828152600160205260409020600301548111801590610ed5575060008281526001602052604090206004015481115b610ef15760405162461bcd60e51b81526004016107c090612c68565b600082815260016020908152604091829020600e0183905581513381529081018490529081018290527fc3ceec01f8c54ce9a11d170612bdc0052897f1f89774b51df78b62b086f15cd9906060015b60405180910390a15050565b6002546040805163e58378bb60e01b815290516001600160a01b03909216916391d1485491839163e58378bb916004808201926020929091908290030181865afa158015610f9e573d6000803e3d6000fd5b505050506040513d601f19601f82011682018060405250810190610fc29190612c00565b6040516001600160e01b031960e084901b1681526004810191909152336024820152604401602060405180830381865afa158015611004573d6000803e3d6000fd5b505050506040513d601f19601f820116820180604052508101906110289190612c29565b6110445760405162461bcd60e51b81526004016107c090612c44565b60008111801561105657506127108111155b6110725760405162461bcd60e51b81526004016107c090612e59565b60008281526001602052604090819020600a0182905551829033907f42810b2bf88c5f14e5d6e5c488f36bfa8082d60183daa19bf43e57f58b43cc16906110bc9085815260200190565b60405180910390a35050565b6002546040805163e58378bb60e01b815290516001600160a01b03909216916391d1485491839163e58378bb916004808201926020929091908290030181865afa15801561111a573d6000803e3d6000fd5b505050506040513d601f19601f8201168201806040525081019061113e9190612c00565b6040516001600160e01b031960e084901b1681526004810191909152336024820152604401602060405180830381865afa158015611180573d6000803e3d6000fd5b505050506040513d601f19601f820116820180604052508101906111a49190612c29565b6111c05760405162461bcd60e51b81526004016107c090612c44565b6001600160a01b03811661122b5760405162461bcd60e51b815260206004820152602c60248201527f436f6c6c61746572616c506f6f6c436f6e6669672f736574416461707465722d60448201526b7a65726f2d6164647265737360a01b60648201526084016107c0565b81816001600160a01b031663dca07dc56040518163ffffffff1660e01b8152600401602060405180830381865afa15801561126a573d6000803e3d6000fd5b505050506040513d601f19601f8201168201806040525081019061128e9190612c00565b146112ef5760405162461bcd60e51b815260206004820152602b60248201527f436f6c6c61746572616c506f6f6c436f6e6669672f736574416461707465722d60448201526a1ddc9bdb99d41bdbdb125960aa1b60648201526084016107c0565b60008281526001602090815260409182902060090180546001600160a01b0319166001600160a01b0385169081179091559151918252839133917f6a8721e2a39a7b4c4077afea31294313cf77bb4e00db5d6ee64d9de6f37ec53e91016110bc565b6002546040805163e58378bb60e01b815290516001600160a01b03909216916391d1485491839163e58378bb916004808201926020929091908290030181865afa1580156113a3573d6000803e3d6000fd5b505050506040513d601f19601f820116820180604052508101906113c79190612c00565b6040516001600160e01b031960e084901b1681526004810191909152336024820152604401602060405180830381865afa158015611409573d6000803e3d6000fd5b505050506040513d601f19601f8201168201806040525081019061142d9190612c29565b6114495760405162461bcd60e51b81526004016107c090612c44565b676765c793fa10079d601b1b8110156114745760405162461bcd60e51b81526004016107c090612db9565b6b033b2e3d523e808a07fcdc0b8111156114a05760405162461bcd60e51b81526004016107c090612e08565b6000828152600160205260409081902060070182905551829033907fa9c4195940f169a77487ff98fd68eb19e68d102a7bd11d5b0ed337661f5f8f19906110bc9085815260200190565b6002546040805163e58378bb60e01b815290516001600160a01b03909216916391d1485491839163e58378bb916004808201926020929091908290030181865afa15801561153c573d6000803e3d6000fd5b505050506040513d601f19601f820116820180604052508101906115609190612c00565b6040516001600160e01b031960e084901b1681526004810191909152336024820152604401602060405180830381865afa1580156115a2573d6000803e3d6000fd5b505050506040513d601f19601f820116820180604052508101906115c69190612c29565b6115e25760405162461bcd60e51b81526004016107c090612c44565b6000828152600160205260409020600e01548110156116555760405162461bcd60e51b815260206004820152602960248201527f436f6c6c61746572616c506f6f6c436f6e6669672f696e76616c69642d646562604482015268742d6365696c696e6760b81b60648201526084016107c0565b6000828152600160205260409081902060030182905551829033907f4f4a7c062642f5f259628a4a67ff6fee09ecd64ce33f018b645635203d531ae2906110bc9085815260200190565b6002546040805163e58378bb60e01b815290516001600160a01b03909216916391d1485491839163e58378bb916004808201926020929091908290030181865afa1580156116f1573d6000803e3d6000fd5b505050506040513d601f19601f820116820180604052508101906117159190612c00565b6040516001600160e01b031960e084901b1681526004810191909152336024820152604401602060405180830381865afa158015611757573d6000803e3d6000fd5b505050506040513d601f19601f8201168201806040525081019061177b9190612c29565b6117975760405162461bcd60e51b81526004016107c090612c44565b676765c793fa10079d601b1b81101580156117c757506117c3676765c793fa10079d601b1b6064612f49565b8111155b6117e35760405162461bcd60e51b81526004016107c090612d6b565b6000828152600160205260409081902060060182905551829033907f2dd5cec90f5c89b9886d2e3527094edb4b46a5ab75e6b277afd6393f0aa52373906110bc9085815260200190565b6002546040805163e58378bb60e01b815290516001600160a01b03909216916391d1485491839163e58378bb916004808201926020929091908290030181865afa15801561187f573d6000803e3d6000fd5b505050506040513d601f19601f820116820180604052508101906118a39190612c00565b6040516001600160e01b031960e084901b1681526004810191909152336024820152604401602060405180830381865afa1580156118e5573d6000803e3d6000fd5b505050506040513d601f19601f820116820180604052508101906119099190612c29565b6119255760405162461bcd60e51b81526004016107c090612c44565b6001600160a01b0381166119865760405162461bcd60e51b815260206004820152602260248201527f436f6c6c61746572616c506f6f6c436f6e6669672f7a65726f2d737472617465604482015261677960f01b60648201526084016107c0565b600082815260016020908152604091829020600d0180546001600160a01b0319166001600160a01b0385169081179091559151918252839133917ff8d3f0da75258c6c4a3a31a2b4642e60db99f3b5477f0f799088fec42ac6b38d91016110bc565b6002546040805163e58378bb60e01b815290516001600160a01b03909216916391d1485491839163e58378bb916004808201926020929091908290030181865afa158015611a3a573d6000803e3d6000fd5b505050506040513d601f19601f82011682018060405250810190611a5e9190612c00565b6040516001600160e01b031960e084901b1681526004810191909152336024820152604401602060405180830381865afa158015611aa0573d6000803e3d6000fd5b505050506040513d601f19601f82011682018060405250810190611ac49190612c29565b611ae05760405162461bcd60e51b81526004016107c090612c44565b6000828152600160205260409020600e01548110611b505760405162461bcd60e51b815260206004820152602760248201527f436f6c6c61746572616c506f6f6c436f6e6669672f696e76616c69642d6465626044820152663a16b33637b7b960c91b60648201526084016107c0565b6000828152600160205260409081902060040182905551829033907f5c7ce9b131da68fe8ad20b6cf7d870358657eb014d8c830f67d3b956d7c297ac906110bc9085815260200190565b6002546040805163e58378bb60e01b815290516001600160a01b03909216916391d1485491839163e58378bb916004808201926020929091908290030181865afa158015611bec573d6000803e3d6000fd5b505050506040513d601f19601f82011682018060405250810190611c109190612c00565b6040516001600160e01b031960e084901b1681526004810191909152336024820152604401602060405180830381865afa158015611c52573d6000803e3d6000fd5b505050506040513d601f19601f82011682018060405250810190611c769190612c29565b611c925760405162461bcd60e51b81526004016107c090612c44565b6001600160a01b038116611cf45760405162461bcd60e51b8152602060048201526024808201527f436f6c6c61746572616c506f6f6c436f6e6669672f7a65726f2d70726963652d6044820152631999595960e21b60648201526084016107c0565b81816001600160a01b0316633e0dc34e6040518163ffffffff1660e01b8152600401602060405180830381865afa158015611d33573d6000803e3d6000fd5b505050506040513d601f19601f82011682018060405250810190611d579190612c00565b14611d745760405162461bcd60e51b81526004016107c090612cb5565b806001600160a01b0316630184a92a6040518163ffffffff1660e01b8152600401602060405180830381865afa158015611db2573d6000803e3d6000fd5b505050506040513d601f19601f82011682018060405250810190611dd69190612c29565b611df25760405162461bcd60e51b81526004016107c090612cff565b806001600160a01b031663140d27206040518163ffffffff1660e01b815260040160408051808303816000875af1158015611e31573d6000803e3d6000fd5b505050506040513d601f19601f82011682018060405250810190611e559190612d48565b505060008281526001602090815260409182902060050180546001600160a01b0319166001600160a01b0385169081179091559151918252839133917fda0dc73df45d13e8d63f64cd1f08c36b18cb90bcb896f639ea24a122b435496d91016110bc565b60025460408051636792166f60e01b815290516001600160a01b03909216916391d14854918391636792166f916004808201926020929091908290030181865afa158015611f0b573d6000803e3d6000fd5b505050506040513d601f19601f82011682018060405250810190611f2f9190612c00565b6040516001600160e01b031960e084901b1681526004810191909152336024820152604401602060405180830381865afa158015611f71573d6000803e3d6000fd5b505050506040513d601f19601f82011682018060405250810190611f959190612c29565b611fd35760405162461bcd60e51b815260206004820152600f60248201526e21626f6f6b4b6565706572526f6c6560881b60448201526064016107c0565b6000828152600160205260409081902082905551829033907f8a154f019e08f1b1da116ec99dd6d59b74b32a69be219bad788d9c095e84e46e906110bc9085815260200190565b6002546040805163e58378bb60e01b815290516001600160a01b03909216916391d1485491839163e58378bb916004808201926020929091908290030181865afa15801561206c573d6000803e3d6000fd5b505050506040513d601f19601f820116820180604052508101906120909190612c00565b6040516001600160e01b031960e084901b1681526004810191909152336024820152604401602060405180830381865afa1580156120d2573d6000803e3d6000fd5b505050506040513d601f19601f820116820180604052508101906120f69190612c29565b6121125760405162461bcd60e51b81526004016107c090612c44565b61271081101580156121265750614a388111155b6121425760405162461bcd60e51b81526004016107c090612ea6565b60008281526001602052604090819020600b0182905551829033907fcf7a2b7293b9e5c2ebff583418dad7de6abde074357224117aa5f99333712ee5906110bc9085815260200190565b6002546040805163b998902f60e01b815290516001600160a01b03909216916391d1485491839163b998902f916004808201926020929091908290030181865afa1580156121de573d6000803e3d6000fd5b505050506040513d601f19601f820116820180604052508101906122029190612c00565b6040516001600160e01b031960e084901b1681526004810191909152336024820152604401602060405180830381865afa158015612244573d6000803e3d6000fd5b505050506040513d601f19601f820116820180604052508101906122689190612c29565b6122a75760405162461bcd60e51b815260206004820152601060248201526f2170726963654f7261636c65526f6c6560801b60448201526064016107c0565b6000828152600160205260409081902060020182905551829033907f3f8d75e25e91fca161ee992d8f5334a1dee3546396e6eeeddf7bebad3def464a906110bc9085815260200190565b600054610100900460ff16158080156123115750600054600160ff909116105b8061232b5750303b15801561232b575060005460ff166001145b61238e5760405162461bcd60e51b815260206004820152602e60248201527f496e697469616c697a61626c653a20636f6e747261637420697320616c72656160448201526d191e481a5b9a5d1a585b1a5e995960921b60648201526084016107c0565b6000805460ff1916600117905580156123b1576000805461ff0019166101001790555b600280546001600160a01b0319166001600160a01b038416179055801561240e576000805461ff0019169055604051600181527f7f26b83ff96e1f2b6a682f133852f6798a09c465da95921460cefb384740249890602001610f40565b5050565b6002546040805163e58378bb60e01b815290516001600160a01b03909216916391d1485491839163e58378bb916004808201926020929091908290030181865afa158015612464573d6000803e3d6000fd5b505050506040513d601f19601f820116820180604052508101906124889190612c00565b6040516001600160e01b031960e084901b1681526004810191909152336024820152604401602060405180830381865afa1580156124ca573d6000803e3d6000fd5b505050506040513d601f19601f820116820180604052508101906124ee9190612c29565b61250a5760405162461bcd60e51b81526004016107c090612c44565b61232881111561252c5760405162461bcd60e51b81526004016107c090612efb565b60008281526001602052604090819020600c0182905551829033907fa6cd9a2a9bff53ac1fcfcd1b85687f6127841bd5ba1e2d10afe58ba31d945845906110bc9085815260200190565b61260a604051806101e00160405280600081526020016000815260200160008152602001600081526020016000815260200160006001600160a01b0316815260200160008152602001600081526020016000815260200160006001600160a01b0316815260200160008152602001600081526020016000815260200160006001600160a01b03168152602001600081525090565b5060009081526001602081815260409283902083516101e081018552815481529281015491830191909152600281015492820192909252600382015460608201526004820154608082015260058201546001600160a01b0390811660a0830152600683015460c0830152600783015460e0830152600883015461010083015260098301548116610120830152600a830154610140830152600b830154610160830152600c830154610180830152600d830154166101a0820152600e909101546101c082015290565b60025460408051636792166f60e01b815290516001600160a01b03909216916391d14854918391636792166f916004808201926020929091908290030181865afa158015612724573d6000803e3d6000fd5b505050506040513d601f19601f820116820180604052508101906127489190612c00565b6040516001600160e01b031960e084901b1681526004810191909152336024820152604401602060405180830381865afa15801561278a573d6000803e3d6000fd5b505050506040513d601f19601f820116820180604052508101906127ae9190612c29565b6127ec5760405162461bcd60e51b815260206004820152600f60248201526e21626f6f6b4b6565706572526f6c6560881b60448201526064016107c0565b676765c793fa10079d601b1b8110156128625760405162461bcd60e51b815260206004820152603260248201527f436f6c6c61746572616c506f6f6c436f6e6669672f696e76616c69642d646562604482015271742d616363756d756c617465642d7261746560701b60648201526084016107c0565b6000828152600160208190526040918290200182905551829033907f990224c41a18cc2e5688940dc28dc43872d8b96854b6099c52b2ae5d4ed1e9d2906110bc9085815260200190565b60025460408051620470d160eb1b815290516001600160a01b03909216916391d148549183916323868800916004808201926020929091908290030181865afa1580156128fd573d6000803e3d6000fd5b505050506040513d601f19601f820116820180604052508101906129219190612c00565b6040516001600160e01b031960e084901b1681526004810191909152336024820152604401602060405180830381865afa158015612963573d6000803e3d6000fd5b505050506040513d601f19601f820116820180604052508101906129879190612c29565b6129d35760405162461bcd60e51b815260206004820152601a60248201527f2173746162696c697479466565436f6c6c6563746f72526f6c6500000000000060448201526064016107c0565b600090815260016020526040902042600890910155565b6000602082840312156129fc57600080fd5b5035919050565b80356001600160a01b0381168114612a1a57600080fd5b919050565b6000806000806000806000806000806000806101808d8f031215612a4257600080fd5b8c359b5060208d01359a5060408d0135995060608d01359850612a6760808e01612a03565b975060a08d0135965060c08d01359550612a8360e08e01612a03565b94506101008d013593506101208d013592506101408d01359150612aaa6101608e01612a03565b90509295989b509295989b509295989b565b60008060408385031215612acf57600080fd5b50508035926020909101359150565b60008060408385031215612af157600080fd5b82359150612b0160208401612a03565b90509250929050565b600060208284031215612b1c57600080fd5b612b2582612a03565b9392505050565b60006101e082019050825182526020830151602083015260408301516040830152606083015160608301526080830151608083015260a0830151612b7b60a08401826001600160a01b03169052565b5060c083015160c083015260e083015160e083015261010080840151818401525061012080840151612bb7828501826001600160a01b03169052565b50506101408381015190830152610160808401519083015261018080840151908301526101a0808401516001600160a01b0381168285015250506101c092830151919092015290565b600060208284031215612c1257600080fd5b5051919050565b80518015158114612a1a57600080fd5b600060208284031215612c3b57600080fd5b612b2582612c19565b6020808252600a9082015269216f776e6572526f6c6560b01b604082015260600190565b6020808252602d908201527f436f6c6c61746572616c506f6f6c436f6e6669672f696e76616c69642d706f7360408201526c6974696f6e2d6365696c696e6760981b606082015260800190565b6020808252602a908201527f436f6c6c61746572616c506f6f6c436f6e6669672f77726f6e672d70726963656040820152690b599959590b5c1bdbdb60b21b606082015260800190565b60208082526029908201527f436f6c6c61746572616c506f6f6c436f6e6669672f756e6865616c7468792d706040820152681c9a58d94b5999595960ba1b606082015260800190565b60008060408385031215612d5b57600080fd5b82519150612b0160208401612c19565b6020808252602e908201527f436f6c6c61746572616c506f6f6c436f6e6669672f696e76616c69642d6c697160408201526d7569646174696f6e2d726174696f60901b606082015260800190565b6020808252602f908201527f436f6c6c61746572616c506f6f6c436f6e6669672f696e76616c69642d73746160408201526e62696c6974792d6665652d7261746560881b606082015260800190565b60208082526031908201527f436f6c6c61746572616c506f6f6c436f6e6669672f73746162696c6974792d6660408201527065652d726174652d746f6f2d6c6172676560781b606082015260800190565b6020808252602d908201527f436f6c6c61746572616c506f6f6c436f6e6669672f696e76616c69642d636c6f60408201526c73652d666163746f722d62707360981b606082015260800190565b60208082526035908201527f436f6c6c61746572616c506f6f6c436f6e6669672f696e76616c69642d6c697160408201527475696461746f722d696e63656e746976652d62707360581b606082015260800190565b6020808252602e908201527f436f6c6c61746572616c506f6f6c436f6e6669672f696e76616c69642d74726560408201526d61737572792d666565732d62707360901b606082015260800190565b8082028115828204841417612f6e57634e487b7160e01b600052601160045260246000fd5b9291505056fea264697066735822122086b46b38522f6ab2ae3c233fbe244f23faa9c1518c63f33d648f8dba596239f664736f6c63430008110033",
    "immutableReferences": {},
    "source": "// SPDX-License-Identifier: AGPL-3.0-or-later\npragma solidity 0.8.17;\n\nimport \"@openzeppelin/contracts-upgradeable/proxy/utils/Initializable.sol\";\n\nimport \"../../interfaces/IPriceFeed.sol\";\nimport \"../../interfaces/IGenericTokenAdapter.sol\";\nimport \"../../interfaces/ICollateralPoolConfig.sol\";\nimport \"../../interfaces/IAccessControlConfig.sol\";\n\ncontract CollateralPoolConfig is Initializable, ICollateralPoolConfig {\n    uint256 internal constant RAY = 10 ** 27;\n\n    mapping(bytes32 => ICollateralPoolConfig.CollateralPool) private _collateralPools;\n    IAccessControlConfig public accessControlConfig;\n\n    event LogSetPriceWithSafetyMargin(address indexed _caller, bytes32 indexed _collateralPoolId, uint256 _priceWithSafetyMargin);\n    event LogSetDebtCeiling(address indexed _caller, bytes32 indexed _collateralPoolId, uint256 _debtCeiling);\n    event LogSetDebtFloor(address indexed _caller, bytes32 indexed _collateralPoolId, uint256 _debtFloor);\n    event LogSetPriceFeed(address indexed _caller, bytes32 indexed _poolId, address _priceFeed);\n    event LogSetLiquidationRatio(address indexed _caller, bytes32 indexed _poolId, uint256 _data);\n    event LogSetStabilityFeeRate(address indexed _caller, bytes32 indexed _poolId, uint256 _data);\n    event LogSetAdapter(address indexed _caller, bytes32 indexed _collateralPoolId, address _adapter);\n    event LogSetCloseFactorBps(address indexed _caller, bytes32 indexed _collateralPoolId, uint256 _closeFactorBps);\n    event LogSetLiquidatorIncentiveBps(address indexed _caller, bytes32 indexed _collateralPoolId, uint256 _liquidatorIncentiveBps);\n    event LogSetTreasuryFeesBps(address indexed _caller, bytes32 indexed _collateralPoolId, uint256 _treasuryFeeBps);\n    event LogSetStrategy(address indexed _caller, bytes32 indexed _collateralPoolId, address strategy);\n    event LogSetTotalDebtShare(address indexed _caller, bytes32 indexed _collateralPoolId, uint256 _totalDebtShare);\n    event LogSetDebtAccumulatedRate(address indexed _caller, bytes32 indexed _collateralPoolId, uint256 _debtAccumulatedRate);\n    event LogInitCollateralPoolId(\n        bytes32 indexed _collateralPoolId,\n        uint256 _debtCeiling,\n        uint256 _liquidationRatio,\n        uint256 _stabilityFeeRate,\n        address _adapter\n    );\n    event LogPositionDebtCeiling(address _messageSender, bytes32 _collateralPoolId, uint256 _positionDebtCeiling);\n\n    modifier onlyOwner() {\n        require(accessControlConfig.hasRole(accessControlConfig.OWNER_ROLE(), msg.sender), \"!ownerRole\");\n        _;\n    }\n\n    function initialize(address _accessControlConfig) external initializer {\n        accessControlConfig = IAccessControlConfig(_accessControlConfig);\n    }\n\n    function initCollateralPool(\n        bytes32 _collateralPoolId, // v\n        uint256 _debtCeiling, // v\n        uint256 _debtFloor,\n        uint256 _positionDebtCeiling,\n        address _priceFeed,\n        uint256 _liquidationRatio, // v\n        uint256 _stabilityFeeRate, //v\n        address _adapter, //v\n        uint256 _closeFactorBps,\n        uint256 _liquidatorIncentiveBps,\n        uint256 _treasuryFeesBps,\n        address _strategy\n    ) external onlyOwner {\n        require(_collateralPools[_collateralPoolId].debtAccumulatedRate == 0, \"CollateralPoolConfig/collateral-pool-already-init\");\n        require(_debtCeiling > _debtFloor, \"CollateralPoolConfig/invalid-ceiliing\");\n        require(\n            _positionDebtCeiling <= _debtCeiling && _positionDebtCeiling > _debtFloor, \n            \"CollateralPoolConfig/invalid-position-ceiling\"\n        );\n        \n        _collateralPools[_collateralPoolId].debtAccumulatedRate = RAY;\n        _collateralPools[_collateralPoolId].debtCeiling = _debtCeiling;\n        _collateralPools[_collateralPoolId].debtFloor = _debtFloor;\n        _collateralPools[_collateralPoolId].positionDebtCeiling = _positionDebtCeiling;\n\n        require(IPriceFeed(_priceFeed).poolId() == _collateralPoolId, \"CollateralPoolConfig/wrong-price-feed-pool\");\n        require(IPriceFeed(_priceFeed).isPriceOk(), \"CollateralPoolConfig/unhealthy-price-feed\");\n        IPriceFeed(_priceFeed).peekPrice(); // Sanity Check Call\n\n        _collateralPools[_collateralPoolId].priceFeed = _priceFeed;\n        require(_liquidationRatio >= RAY, \"CollateralPoolConfig/invalid-liquidation-ratio\");\n        _collateralPools[_collateralPoolId].liquidationRatio = _liquidationRatio;\n        require(_stabilityFeeRate >= RAY, \"CollateralPoolConfig/invalid-stability-fee-rate\");\n        // Maximum stability fee rate is 50% yearly\n        require(_stabilityFeeRate <= 1000000012857214317438491659, \"CollateralPoolConfig/stability-fee-rate-too-large\");\n        _collateralPools[_collateralPoolId].stabilityFeeRate = _stabilityFeeRate;\n        _collateralPools[_collateralPoolId].lastAccumulationTime = block.timestamp;\n\n        require(_adapter != address(0), \"CollateralPoolConfig/zero-adapter\");\n        require(IGenericTokenAdapter(_adapter).collateralPoolId() == _collateralPoolId, \"CollateralPoolConfig/wrong-adapter\");\n        _collateralPools[_collateralPoolId].adapter = _adapter;\n        require(_closeFactorBps > 0 && _closeFactorBps <= 10000, \"CollateralPoolConfig/invalid-close-factor-bps\");\n        require(_liquidatorIncentiveBps >= 10000 && _liquidatorIncentiveBps <= 19000, \"CollateralPoolConfig/invalid-liquidator-incentive-bps\");\n        require(_treasuryFeesBps <= 9000, \"CollateralPoolConfig/invalid-treasury-fees-bps\");\n        _collateralPools[_collateralPoolId].closeFactorBps = _closeFactorBps;\n        _collateralPools[_collateralPoolId].liquidatorIncentiveBps = _liquidatorIncentiveBps;\n        _collateralPools[_collateralPoolId].treasuryFeesBps = _treasuryFeesBps;\n        _collateralPools[_collateralPoolId].strategy = _strategy;\n\n        emit LogInitCollateralPoolId(_collateralPoolId, _debtCeiling, _liquidationRatio, _stabilityFeeRate, _adapter);\n    }\n\n    function setPriceWithSafetyMargin(bytes32 _collateralPoolId, uint256 _priceWithSafetyMargin) external override {\n        require(accessControlConfig.hasRole(accessControlConfig.PRICE_ORACLE_ROLE(), msg.sender), \"!priceOracleRole\");\n        _collateralPools[_collateralPoolId].priceWithSafetyMargin = _priceWithSafetyMargin;\n        emit LogSetPriceWithSafetyMargin(msg.sender, _collateralPoolId, _priceWithSafetyMargin);\n    }\n\n    function setDebtCeiling(bytes32 _collateralPoolId, uint256 _debtCeiling) external onlyOwner {\n        require(\n            _debtCeiling >= _collateralPools[_collateralPoolId].positionDebtCeiling, \n            \"CollateralPoolConfig/invalid-debt-ceiling\"\n        );\n\n        _collateralPools[_collateralPoolId].debtCeiling = _debtCeiling;\n        emit LogSetDebtCeiling(msg.sender, _collateralPoolId, _debtCeiling);\n    }\n\n    function setDebtFloor(bytes32 _collateralPoolId, uint256 _debtFloor) external onlyOwner {\n        require(_debtFloor < _collateralPools[_collateralPoolId].positionDebtCeiling, \"CollateralPoolConfig/invalid-debt-floor\");\n        _collateralPools[_collateralPoolId].debtFloor = _debtFloor;\n        emit LogSetDebtFloor(msg.sender, _collateralPoolId, _debtFloor);\n    }\n\n    function setPositionDebtCeiling(bytes32 _collateralPoolId, uint256 _positionDebtCeiling) external override onlyOwner {\n        require(\n            _positionDebtCeiling <= _collateralPools[_collateralPoolId].debtCeiling &&\n                _positionDebtCeiling > _collateralPools[_collateralPoolId].debtFloor,\n            \"CollateralPoolConfig/invalid-position-ceiling\"\n        );\n        _collateralPools[_collateralPoolId].positionDebtCeiling = _positionDebtCeiling;\n        emit LogPositionDebtCeiling(msg.sender, _collateralPoolId, _positionDebtCeiling);\n    }\n\n    function setPriceFeed(bytes32 _poolId, address _priceFeed) external onlyOwner {\n        require(_priceFeed != address(0), \"CollateralPoolConfig/zero-price-feed\");\n        require(IPriceFeed(_priceFeed).poolId() == _poolId, \"CollateralPoolConfig/wrong-price-feed-pool\");\n        require(IPriceFeed(_priceFeed).isPriceOk(), \"CollateralPoolConfig/unhealthy-price-feed\");\n\n        IPriceFeed(_priceFeed).peekPrice();\n\n        _collateralPools[_poolId].priceFeed = _priceFeed;\n        emit LogSetPriceFeed(msg.sender, _poolId, _priceFeed);\n    }\n\n    function setLiquidationRatio(bytes32 _poolId, uint256 _liquidationRatio) external onlyOwner {\n        require(_liquidationRatio >= RAY && _liquidationRatio <= RAY * 100, \"CollateralPoolConfig/invalid-liquidation-ratio\");\n        _collateralPools[_poolId].liquidationRatio = _liquidationRatio;\n        emit LogSetLiquidationRatio(msg.sender, _poolId, _liquidationRatio);\n    }\n\n    /** @dev Set the stability fee rate of the collateral pool.\n      The rate to be set here is the `r` in:\n          r^N = APR\n      Where:\n        r = stability fee rate\n        N = Accumulation frequency which is per-second in this case; the value will be 60*60*24*365 = 31536000 to signify the number of seconds within a year.\n        APR = the annual percentage rate\n    For example, to achieve 0.5% APR for stability fee rate:\n          r^31536000 = 1.005\n    Find the 31536000th root of 1.005 and we will get:\n          r = 1.000000000158153903837946258002097...\n    The rate is in [ray] format, so the actual value of `stabilityFeeRate` will be:\n          stabilityFeeRate = 1000000000158153903837946258\n    The above `stabilityFeeRate` will be the value we will use in this contract.\n  */\n    function setStabilityFeeRate(bytes32 _collateralPool, uint256 _stabilityFeeRate) external onlyOwner {\n        require(_stabilityFeeRate >= RAY, \"CollateralPoolConfig/invalid-stability-fee-rate\");\n        // Maximum stability fee rate is 50% yearly\n        require(_stabilityFeeRate <= 1000000012857214317438491659, \"CollateralPoolConfig/stability-fee-rate-too-large\");\n        _collateralPools[_collateralPool].stabilityFeeRate = _stabilityFeeRate;\n        emit LogSetStabilityFeeRate(msg.sender, _collateralPool, _stabilityFeeRate);\n    }\n\n    function setAdapter(bytes32 _collateralPoolId, address _adapter) external onlyOwner {\n        require(_adapter != address(0), \"CollateralPoolConfig/setAdapter-zero-address\");\n        require(IGenericTokenAdapter(_adapter).collateralPoolId() == _collateralPoolId, \"CollateralPoolConfig/setAdapter-wrongPoolId\");\n        _collateralPools[_collateralPoolId].adapter = _adapter;\n        emit LogSetAdapter(msg.sender, _collateralPoolId, _adapter);\n    }\n\n    function setCloseFactorBps(bytes32 _collateralPoolId, uint256 _closeFactorBps) external onlyOwner {\n        require(_closeFactorBps > 0 && _closeFactorBps <= 10000, \"CollateralPoolConfig/invalid-close-factor-bps\");\n        _collateralPools[_collateralPoolId].closeFactorBps = _closeFactorBps;\n        emit LogSetCloseFactorBps(msg.sender, _collateralPoolId, _closeFactorBps);\n    }\n\n    function setLiquidatorIncentiveBps(bytes32 _collateralPoolId, uint256 _liquidatorIncentiveBps) external onlyOwner {\n        require(_liquidatorIncentiveBps >= 10000 && _liquidatorIncentiveBps <= 19000, \"CollateralPoolConfig/invalid-liquidator-incentive-bps\");\n        _collateralPools[_collateralPoolId].liquidatorIncentiveBps = _liquidatorIncentiveBps;\n        emit LogSetLiquidatorIncentiveBps(msg.sender, _collateralPoolId, _liquidatorIncentiveBps);\n    }\n\n    function setTreasuryFeesBps(bytes32 _collateralPoolId, uint256 _treasuryFeesBps) external onlyOwner {\n        require(_treasuryFeesBps <= 9000, \"CollateralPoolConfig/invalid-treasury-fees-bps\");\n        _collateralPools[_collateralPoolId].treasuryFeesBps = _treasuryFeesBps;\n        emit LogSetTreasuryFeesBps(msg.sender, _collateralPoolId, _treasuryFeesBps);\n    }\n\n    function setTotalDebtShare(bytes32 _collateralPoolId, uint256 _totalDebtShare) external override {\n        require(accessControlConfig.hasRole(accessControlConfig.BOOK_KEEPER_ROLE(), msg.sender), \"!bookKeeperRole\");\n        _collateralPools[_collateralPoolId].totalDebtShare = _totalDebtShare;\n        emit LogSetTotalDebtShare(msg.sender, _collateralPoolId, _totalDebtShare);\n    }\n\n    function setDebtAccumulatedRate(bytes32 _collateralPoolId, uint256 _debtAccumulatedRate) external override {\n        require(accessControlConfig.hasRole(accessControlConfig.BOOK_KEEPER_ROLE(), msg.sender), \"!bookKeeperRole\");\n        require(_debtAccumulatedRate >= RAY, \"CollateralPoolConfig/invalid-debt-accumulated-rate\");\n        _collateralPools[_collateralPoolId].debtAccumulatedRate = _debtAccumulatedRate;\n        emit LogSetDebtAccumulatedRate(msg.sender, _collateralPoolId, _debtAccumulatedRate);\n    }\n\n    function setStrategy(bytes32 _collateralPoolId, address _strategy) external onlyOwner {\n        require(_strategy != address(0), \"CollateralPoolConfig/zero-strategy\");\n\n        _collateralPools[_collateralPoolId].strategy = _strategy;\n        emit LogSetStrategy(msg.sender, _collateralPoolId, address(_strategy));\n    }\n\n    function updateLastAccumulationTime(bytes32 _collateralPoolId) external override {\n        require(accessControlConfig.hasRole(accessControlConfig.STABILITY_FEE_COLLECTOR_ROLE(), msg.sender), \"!stabilityFeeCollectorRole\");\n        _collateralPools[_collateralPoolId].lastAccumulationTime = block.timestamp;\n    }\n\n    function collateralPools(bytes32 _collateralPoolId) external view override returns (ICollateralPoolConfig.CollateralPool memory) {\n        return _collateralPools[_collateralPoolId];\n    }\n\n    function getTotalDebtShare(bytes32 _collateralPoolId) external view override returns (uint256) {\n        return _collateralPools[_collateralPoolId].totalDebtShare;\n    }\n\n    function getDebtAccumulatedRate(bytes32 _collateralPoolId) external view override returns (uint256) {\n        return _collateralPools[_collateralPoolId].debtAccumulatedRate;\n    }\n\n    function getPriceWithSafetyMargin(bytes32 _collateralPoolId) external view override returns (uint256) {\n        return _collateralPools[_collateralPoolId].priceWithSafetyMargin;\n    }\n\n    function getDebtCeiling(bytes32 _collateralPoolId) external view override returns (uint256) {\n        return _collateralPools[_collateralPoolId].debtCeiling;\n    }\n\n    function getPositionDebtCeiling(bytes32 _collateralPoolId) external view override returns (uint256) {\n        return _collateralPools[_collateralPoolId].positionDebtCeiling;\n    }\n\n    function getDebtFloor(bytes32 _collateralPoolId) external view override returns (uint256) {\n        return _collateralPools[_collateralPoolId].debtFloor;\n    }\n\n    function getPriceFeed(bytes32 _collateralPoolId) external view override returns (address) {\n        return _collateralPools[_collateralPoolId].priceFeed;\n    }\n\n    function getLiquidationRatio(bytes32 _collateralPoolId) external view override returns (uint256) {\n        return _collateralPools[_collateralPoolId].liquidationRatio;\n    }\n\n    function getStabilityFeeRate(bytes32 _collateralPoolId) external view override returns (uint256) {\n        return _collateralPools[_collateralPoolId].stabilityFeeRate;\n    }\n\n    function getLastAccumulationTime(bytes32 _collateralPoolId) external view override returns (uint256) {\n        return _collateralPools[_collateralPoolId].lastAccumulationTime;\n    }\n\n    function getAdapter(bytes32 _collateralPoolId) external view override returns (address) {\n        return _collateralPools[_collateralPoolId].adapter;\n    }\n\n    function getCloseFactorBps(bytes32 _collateralPoolId) external view override returns (uint256) {\n        return _collateralPools[_collateralPoolId].closeFactorBps;\n    }\n\n    function getLiquidatorIncentiveBps(bytes32 _collateralPoolId) external view override returns (uint256) {\n        return _collateralPools[_collateralPoolId].liquidatorIncentiveBps;\n    }\n\n    function getTreasuryFeesBps(bytes32 _collateralPoolId) external view override returns (uint256) {\n        return _collateralPools[_collateralPoolId].treasuryFeesBps;\n    }\n\n    function getStrategy(bytes32 _collateralPoolId) external view override returns (address) {\n        return _collateralPools[_collateralPoolId].strategy;\n    }\n\n    function getCollateralPoolInfo(bytes32 _collateralPoolId) external view override returns (CollateralPoolInfo memory _info) {\n        _info.debtAccumulatedRate = _collateralPools[_collateralPoolId].debtAccumulatedRate;\n        _info.totalDebtShare = _collateralPools[_collateralPoolId].totalDebtShare;\n        _info.debtCeiling = _collateralPools[_collateralPoolId].debtCeiling;\n        _info.priceWithSafetyMargin = _collateralPools[_collateralPoolId].priceWithSafetyMargin;\n        _info.debtFloor = _collateralPools[_collateralPoolId].debtFloor;\n        _info.positionDebtCeiling = _collateralPools[_collateralPoolId].positionDebtCeiling;\n    }\n}\n",
    "sourcePath": "/Users/sangjun.lee/Sangjun/fathom-stablecoin-smart-contracts/contracts/main/stablecoin-core/config/CollateralPoolConfig.sol",
    "compiler": {
        "name": "solc",
        "version": "0.8.17+commit.8df45f5f.Emscripten.clang"
    },
    "schemaVersion": "3.4.10",
    "updatedAt": "2023-07-25T11:12:21.271Z",
    "devdoc": {
        "kind": "dev",
        "methods": {
            "setStabilityFeeRate(bytes32,uint256)": {
                "details": "Set the stability fee rate of the collateral pool. The rate to be set here is the `r` in: r^N = APR Where: r = stability fee rate N = Accumulation frequency which is per-second in this case; the value will be 60*60*24*365 = 31536000 to signify the number of seconds within a year. APR = the annual percentage rate For example, to achieve 0.5% APR for stability fee rate: r^31536000 = 1.005 Find the 31536000th root of 1.005 and we will get: r = 1.000000000158153903837946258002097... The rate is in [ray] format, so the actual value of `stabilityFeeRate` will be: stabilityFeeRate = 1000000000158153903837946258 The above `stabilityFeeRate` will be the value we will use in this contract."
            }
        },
        "version": 1
    },
    "userdoc": {
        "kind": "user",
        "methods": {},
        "version": 1
    }
}