{
    "contractName": "CollateralTokenAdapter",
    "abi": [
        {
            "anonymous": false,
            "inputs": [
                {
                    "indexed": false,
                    "internalType": "uint8",
                    "name": "version",
                    "type": "uint8"
                }
            ],
            "name": "Initialized",
            "type": "event"
        },
        {
            "anonymous": false,
            "inputs": [],
            "name": "LogCage",
            "type": "event"
        },
        {
            "anonymous": false,
            "inputs": [
                {
                    "indexed": false,
                    "internalType": "uint256",
                    "name": "_val",
                    "type": "uint256"
                }
            ],
            "name": "LogDeposit",
            "type": "event"
        },
        {
            "anonymous": false,
            "inputs": [
                {
                    "indexed": true,
                    "internalType": "address",
                    "name": "_caller",
                    "type": "address"
                },
                {
                    "indexed": false,
                    "internalType": "address",
                    "name": "_to",
                    "type": "address"
                }
            ],
            "name": "LogEmergencyWithdraw",
            "type": "event"
        },
        {
            "anonymous": false,
            "inputs": [
                {
                    "indexed": true,
                    "internalType": "address",
                    "name": "_src",
                    "type": "address"
                },
                {
                    "indexed": true,
                    "internalType": "address",
                    "name": "_dst",
                    "type": "address"
                },
                {
                    "indexed": false,
                    "internalType": "uint256",
                    "name": "_wad",
                    "type": "uint256"
                }
            ],
            "name": "LogMoveStake",
            "type": "event"
        },
        {
            "anonymous": false,
            "inputs": [],
            "name": "LogUncage",
            "type": "event"
        },
        {
            "anonymous": false,
            "inputs": [
                {
                    "indexed": false,
                    "internalType": "uint256",
                    "name": "_val",
                    "type": "uint256"
                }
            ],
            "name": "LogWithdraw",
            "type": "event"
        },
        {
            "anonymous": false,
            "inputs": [
                {
                    "indexed": false,
                    "internalType": "address",
                    "name": "account",
                    "type": "address"
                }
            ],
            "name": "Paused",
            "type": "event"
        },
        {
            "anonymous": false,
            "inputs": [
                {
                    "indexed": false,
                    "internalType": "address",
                    "name": "account",
                    "type": "address"
                }
            ],
            "name": "Unpaused",
            "type": "event"
        },
        {
            "inputs": [],
            "name": "bookKeeper",
            "outputs": [
                {
                    "internalType": "contract IBookKeeper",
                    "name": "",
                    "type": "address"
                }
            ],
            "stateMutability": "view",
            "type": "function"
        },
        {
            "inputs": [],
            "name": "collateralPoolId",
            "outputs": [
                {
                    "internalType": "bytes32",
                    "name": "",
                    "type": "bytes32"
                }
            ],
            "stateMutability": "view",
            "type": "function"
        },
        {
            "inputs": [],
            "name": "collateralToken",
            "outputs": [
                {
                    "internalType": "address",
                    "name": "",
                    "type": "address"
                }
            ],
            "stateMutability": "view",
            "type": "function"
        },
        {
            "inputs": [],
            "name": "live",
            "outputs": [
                {
                    "internalType": "uint256",
                    "name": "",
                    "type": "uint256"
                }
            ],
            "stateMutability": "view",
            "type": "function"
        },
        {
            "inputs": [],
            "name": "paused",
            "outputs": [
                {
                    "internalType": "bool",
                    "name": "",
                    "type": "bool"
                }
            ],
            "stateMutability": "view",
            "type": "function"
        },
        {
            "inputs": [],
            "name": "positionManager",
            "outputs": [
                {
                    "internalType": "contract IManager",
                    "name": "",
                    "type": "address"
                }
            ],
            "stateMutability": "view",
            "type": "function"
        },
        {
            "inputs": [],
            "name": "proxyWalletFactory",
            "outputs": [
                {
                    "internalType": "contract IProxyRegistry",
                    "name": "",
                    "type": "address"
                }
            ],
            "stateMutability": "view",
            "type": "function"
        },
        {
            "inputs": [
                {
                    "internalType": "address",
                    "name": "",
                    "type": "address"
                }
            ],
            "name": "stake",
            "outputs": [
                {
                    "internalType": "uint256",
                    "name": "",
                    "type": "uint256"
                }
            ],
            "stateMutability": "view",
            "type": "function"
        },
        {
            "inputs": [],
            "name": "totalShare",
            "outputs": [
                {
                    "internalType": "uint256",
                    "name": "",
                    "type": "uint256"
                }
            ],
            "stateMutability": "view",
            "type": "function"
        },
        {
            "inputs": [],
            "name": "vault",
            "outputs": [
                {
                    "internalType": "contract IVault",
                    "name": "",
                    "type": "address"
                }
            ],
            "stateMutability": "view",
            "type": "function"
        },
        {
            "inputs": [
                {
                    "internalType": "address",
                    "name": "",
                    "type": "address"
                }
            ],
            "name": "whiteListed",
            "outputs": [
                {
                    "internalType": "bool",
                    "name": "",
                    "type": "bool"
                }
            ],
            "stateMutability": "view",
            "type": "function"
        },
        {
            "inputs": [
                {
                    "internalType": "address",
                    "name": "_bookKeeper",
                    "type": "address"
                },
                {
                    "internalType": "bytes32",
                    "name": "_collateralPoolId",
                    "type": "bytes32"
                },
                {
                    "internalType": "address",
                    "name": "_collateralToken",
                    "type": "address"
                },
                {
                    "internalType": "address",
                    "name": "_positionManager",
                    "type": "address"
                },
                {
                    "internalType": "address",
                    "name": "_proxyWalletFactory",
                    "type": "address"
                }
            ],
            "name": "initialize",
            "outputs": [],
            "stateMutability": "nonpayable",
            "type": "function"
        },
        {
            "inputs": [
                {
                    "internalType": "address",
                    "name": "toBeWhitelisted",
                    "type": "address"
                }
            ],
            "name": "whitelist",
            "outputs": [],
            "stateMutability": "nonpayable",
            "type": "function"
        },
        {
            "inputs": [
                {
                    "internalType": "address",
                    "name": "toBeRemoved",
                    "type": "address"
                }
            ],
            "name": "blacklist",
            "outputs": [],
            "stateMutability": "nonpayable",
            "type": "function"
        },
        {
            "inputs": [],
            "name": "cage",
            "outputs": [],
            "stateMutability": "nonpayable",
            "type": "function"
        },
        {
            "inputs": [],
            "name": "uncage",
            "outputs": [],
            "stateMutability": "nonpayable",
            "type": "function"
        },
        {
            "inputs": [],
            "name": "pause",
            "outputs": [],
            "stateMutability": "nonpayable",
            "type": "function"
        },
        {
            "inputs": [],
            "name": "unpause",
            "outputs": [],
            "stateMutability": "nonpayable",
            "type": "function"
        },
        {
            "inputs": [
                {
                    "internalType": "address",
                    "name": "_vault",
                    "type": "address"
                }
            ],
            "name": "setVault",
            "outputs": [],
            "stateMutability": "nonpayable",
            "type": "function"
        },
        {
            "inputs": [
                {
                    "internalType": "address",
                    "name": "_positionAddress",
                    "type": "address"
                },
                {
                    "internalType": "uint256",
                    "name": "_amount",
                    "type": "uint256"
                },
                {
                    "internalType": "bytes",
                    "name": "_data",
                    "type": "bytes"
                }
            ],
            "name": "deposit",
            "outputs": [],
            "stateMutability": "payable",
            "type": "function"
        },
        {
            "inputs": [
                {
                    "internalType": "address",
                    "name": "_usr",
                    "type": "address"
                },
                {
                    "internalType": "uint256",
                    "name": "_amount",
                    "type": "uint256"
                },
                {
                    "internalType": "bytes",
                    "name": "",
                    "type": "bytes"
                }
            ],
            "name": "withdraw",
            "outputs": [],
            "stateMutability": "nonpayable",
            "type": "function"
        },
        {
            "inputs": [
                {
                    "internalType": "address",
                    "name": "_source",
                    "type": "address"
                },
                {
                    "internalType": "address",
                    "name": "_destination",
                    "type": "address"
                },
                {
                    "internalType": "uint256",
                    "name": "_share",
                    "type": "uint256"
                },
                {
                    "internalType": "bytes",
                    "name": "_data",
                    "type": "bytes"
                }
            ],
            "name": "moveStake",
            "outputs": [],
            "stateMutability": "nonpayable",
            "type": "function"
        },
        {
            "inputs": [
                {
                    "internalType": "address",
                    "name": "_source",
                    "type": "address"
                },
                {
                    "internalType": "address",
                    "name": "_destination",
                    "type": "address"
                },
                {
                    "internalType": "int256",
                    "name": "_collateralValue",
                    "type": "int256"
                },
                {
                    "internalType": "int256",
                    "name": "",
                    "type": "int256"
                },
                {
                    "internalType": "bytes",
                    "name": "_data",
                    "type": "bytes"
                }
            ],
            "name": "onAdjustPosition",
            "outputs": [],
            "stateMutability": "nonpayable",
            "type": "function"
        },
        {
            "inputs": [
                {
                    "internalType": "address",
                    "name": "_source",
                    "type": "address"
                },
                {
                    "internalType": "address",
                    "name": "_destination",
                    "type": "address"
                },
                {
                    "internalType": "uint256",
                    "name": "_share",
                    "type": "uint256"
                },
                {
                    "internalType": "bytes",
                    "name": "_data",
                    "type": "bytes"
                }
            ],
            "name": "onMoveCollateral",
            "outputs": [],
            "stateMutability": "nonpayable",
            "type": "function"
        },
        {
            "inputs": [],
            "name": "netAssetValuation",
            "outputs": [
                {
                    "internalType": "uint256",
                    "name": "",
                    "type": "uint256"
                }
            ],
            "stateMutability": "view",
            "type": "function"
        },
        {
            "inputs": [],
            "name": "netAssetPerShare",
            "outputs": [
                {
                    "internalType": "uint256",
                    "name": "",
                    "type": "uint256"
                }
            ],
            "stateMutability": "view",
            "type": "function"
        },
        {
            "inputs": [
                {
                    "internalType": "address",
                    "name": "_to",
                    "type": "address"
                }
            ],
            "name": "emergencyWithdraw",
            "outputs": [],
            "stateMutability": "nonpayable",
            "type": "function"
        }
    ],
    "bytecode": "0x608060405234801561001057600080fd5b50613256806100206000396000f3fe60806040526004361061019c5760003560e01c80638456cb59116100ec578063dca07dc51161008a578063f77c403611610064578063f77c403614610457578063f9f92be414610477578063fa0fca8414610497578063fbfa77cf146104c757600080fd5b8063dca07dc51461040c578063e3b3932a14610422578063e95927801461044257600080fd5b80639b19251a116100c65780639b19251a14610392578063a3b15138146103b2578063b2016bd4146103d2578063d63b23b2146103f757600080fd5b80638456cb5914610347578063957aa58c1461035c578063994436161461037257600080fd5b806349bdc2b811610159578063692450091161013357806369245009146102dd5780636ff1c9bc146102f2578063791b98bc146103125780638217b8461461033257600080fd5b806349bdc2b8146102865780635c975abb146102995780636817031b146102bd57600080fd5b8063026c4207146101a15780631704edb4146101ca578063264762041461020257806326a15d181461022f57806331f09265146102515780633f4ba83a14610271575b600080fd5b3480156101ad57600080fd5b506101b7609e5481565b6040519081526020015b60405180910390f35b3480156101d657600080fd5b50609d546101ea906001600160a01b031681565b6040516001600160a01b0390911681526020016101c1565b34801561020e57600080fd5b506101b761021d366004612d94565b609f6020526000908152604090205481565b34801561023b57600080fd5b5061024f61024a366004612db1565b6104e7565b005b34801561025d57600080fd5b5061024f61026c366004612e62565b61066f565b34801561027d57600080fd5b5061024f61073b565b61024f610294366004612e62565b610986565b3480156102a557600080fd5b5060335460ff165b60405190151581526020016101c1565b3480156102c957600080fd5b5061024f6102d8366004612d94565b610a44565b3480156102e957600080fd5b5061024f610c40565b3480156102fe57600080fd5b5061024f61030d366004612d94565b610df1565b34801561031e57600080fd5b50609c546101ea906001600160a01b031681565b34801561033e57600080fd5b50609e546101b7565b34801561035357600080fd5b5061024f611055565b34801561036857600080fd5b506101b760975481565b34801561037e57600080fd5b5061024f61038d366004612ebe565b61129d565b34801561039e57600080fd5b5061024f6103ad366004612d94565b61137a565b3480156103be57600080fd5b5061024f6103cd366004612ebe565b611641565b3480156103de57600080fd5b506098546101ea9061010090046001600160a01b031681565b34801561040357600080fd5b5061024f6116f3565b34801561041857600080fd5b506101b7609a5481565b34801561042e57600080fd5b506099546101ea906001600160a01b031681565b34801561044e57600080fd5b506101b76118d7565b34801561046357600080fd5b5061024f610472366004612f31565b611909565b34801561048357600080fd5b5061024f610492366004612d94565b611a57565b3480156104a357600080fd5b506102ad6104b2366004612d94565b60a06020526000908152604090205460ff1681565b3480156104d357600080fd5b50609b546101ea906001600160a01b031681565b600054610100900460ff16158080156105075750600054600160ff909116105b806105215750303b158015610521575060005460ff166001145b6105895760405162461bcd60e51b815260206004820152602e60248201527f496e697469616c697a61626c653a20636f6e747261637420697320616c72656160448201526d191e481a5b9a5d1a585b1a5e995960921b60648201526084015b60405180910390fd5b6000805460ff1916600117905580156105ac576000805461ff0019166101001790555b6105b4611cb9565b6105bc611ce8565b60988054610100600160a81b0319166101006001600160a01b0387811691909102919091179091556001609755609980546001600160a01b031990811689841617909155609a879055609c80548216868416179055609d80549091169184169190911790558015610667576000805461ff0019169055604051600181527f7f26b83ff96e1f2b6a682f133852f6798a09c465da95921460cefb38474024989060200160405180910390a15b505050505050565b610677611d17565b61067f611d70565b609d5460405163052e207160e31b81523360048201526001600160a01b0390911690632971038890602401602060405180830381865afa1580156106c7573d6000803e3d6000fd5b505050506040513d601f19601f820116820180604052508101906106eb9190612fad565b80610705575033600090815260a0602052604090205460ff165b6107215760405162461bcd60e51b815260040161058090612fcf565b61072b8484611db6565b6107356001606555565b50505050565b6099546040805163c8cc243f60e01b815290516000926001600160a01b03169163c8cc243f9160048083019260209291908290030181865afa158015610785573d6000803e3d6000fd5b505050506040513d601f19601f820116820180604052508101906107a99190612ffa565b9050806001600160a01b03166391d14854826001600160a01b031663e58378bb6040518163ffffffff1660e01b8152600401602060405180830381865afa1580156107f8573d6000803e3d6000fd5b505050506040513d601f19601f8201168201806040525081019061081c9190613017565b6040516001600160e01b031960e084901b1681526004810191909152336024820152604401602060405180830381865afa15801561085e573d6000803e3d6000fd5b505050506040513d601f19601f820116820180604052508101906108829190612fad565b8061095f5750806001600160a01b03166391d14854826001600160a01b031663b536818a6040518163ffffffff1660e01b8152600401602060405180830381865afa1580156108d5573d6000803e3d6000fd5b505050506040513d601f19601f820116820180604052508101906108f99190613017565b6040516001600160e01b031960e084901b1681526004810191909152336024820152604401602060405180830381865afa15801561093b573d6000803e3d6000fd5b505050506040513d601f19601f8201168201806040525081019061095f9190612fad565b61097b5760405162461bcd60e51b815260040161058090613030565b610983611fea565b50565b61098e611d17565b610996611d70565b609d5460405163052e207160e31b81523360048201526001600160a01b0390911690632971038890602401602060405180830381865afa1580156109de573d6000803e3d6000fd5b505050506040513d601f19601f82011682018060405250810190610a029190612fad565b80610a1c575033600090815260a0602052604090205460ff165b610a385760405162461bcd60e51b815260040161058090612fcf565b61072b8484848461203c565b6099546040805163c8cc243f60e01b815290516000926001600160a01b03169163c8cc243f9160048083019260209291908290030181865afa158015610a8e573d6000803e3d6000fd5b505050506040513d601f19601f82011682018060405250810190610ab29190612ffa565b9050806001600160a01b03166391d14854826001600160a01b031663e58378bb6040518163ffffffff1660e01b8152600401602060405180830381865afa158015610b01573d6000803e3d6000fd5b505050506040513d601f19601f82011682018060405250810190610b259190613017565b6040516001600160e01b031960e084901b1681526004810191909152336024820152604401602060405180830381865afa158015610b67573d6000803e3d6000fd5b505050506040513d601f19601f82011682018060405250810190610b8b9190612fad565b610ba75760405162461bcd60e51b815260040161058090613067565b60985460ff161515600103610c0f5760405162461bcd60e51b815260206004820152602860248201527f436f6c6c61746572616c546f6b656e416461707465722f5661756c742d7365746044820152672d616c726561647960c01b6064820152608401610580565b506098805460ff19166001179055609b80546001600160a01b039092166001600160a01b0319909216919091179055565b610c48611d17565b6099546040805163c8cc243f60e01b815290516000926001600160a01b03169163c8cc243f9160048083019260209291908290030181865afa158015610c92573d6000803e3d6000fd5b505050506040513d601f19601f82011682018060405250810190610cb69190612ffa565b9050806001600160a01b03166391d14854826001600160a01b031663e58378bb6040518163ffffffff1660e01b8152600401602060405180830381865afa158015610d05573d6000803e3d6000fd5b505050506040513d601f19601f82011682018060405250810190610d299190613017565b6040516001600160e01b031960e084901b1681526004810191909152336024820152604401602060405180830381865afa158015610d6b573d6000803e3d6000fd5b505050506040513d601f19601f82011682018060405250810190610d8f9190612fad565b610dab5760405162461bcd60e51b815260040161058090613067565b609754600103610de457600060978190556040517fbf689b4aae670d200b1d2b971ace2e0c3bef88a9c5e93f36705c7b86eab630b99190a15b50610def6001606555565b565b610df9611d17565b60975460000361104b57609954609a54604051633e2f890b60e21b815260048101919091523360248201526000916001600160a01b03169063f8be242c90604401602060405180830381865afa158015610e57573d6000803e3d6000fd5b505050506040513d601f19601f82011682018060405250810190610e7b9190613017565b9050600160ff1b8110610ee35760405162461bcd60e51b815260206004820152602a60248201527f436f6c6c61746572616c546f6b656e416461707465722f636f6c6c61746572616044820152696c2d6f766572666c6f7760b01b6064820152608401610580565b6000610ef682610ef16118d7565b612254565b9050610f04609e548261227a565b609e55609954609a546001600160a01b039091169063d295927a9033610f29866130c2565b6040516001600160e01b031960e086901b16815260048101939093526001600160a01b0390911660248301526044820152606401600060405180830381600087803b158015610f7757600080fd5b505af1158015610f8b573d6000803e3d6000fd5b5050609b54604051632e1a7d4d60e01b8152600481018690526001600160a01b039091169250632e1a7d4d9150602401600060405180830381600087803b158015610fd557600080fd5b505af1158015610fe9573d6000803e3d6000fd5b505060985461100a925061010090046001600160a01b0316905084846122d6565b6040516001600160a01b038416815233907f6ba7f365fdc489ae6b61ea2021626b6df9cff6f0280e8e1658e5d7f87794f0c89060200160405180910390a250505b6109836001606555565b6099546040805163c8cc243f60e01b815290516000926001600160a01b03169163c8cc243f9160048083019260209291908290030181865afa15801561109f573d6000803e3d6000fd5b505050506040513d601f19601f820116820180604052508101906110c39190612ffa565b9050806001600160a01b03166391d14854826001600160a01b031663e58378bb6040518163ffffffff1660e01b8152600401602060405180830381865afa158015611112573d6000803e3d6000fd5b505050506040513d601f19601f820116820180604052508101906111369190613017565b6040516001600160e01b031960e084901b1681526004810191909152336024820152604401602060405180830381865afa158015611178573d6000803e3d6000fd5b505050506040513d601f19601f8201168201806040525081019061119c9190612fad565b806112795750806001600160a01b03166391d14854826001600160a01b031663b536818a6040518163ffffffff1660e01b8152600401602060405180830381865afa1580156111ef573d6000803e3d6000fd5b505050506040513d601f19601f820116820180604052508101906112139190613017565b6040516001600160e01b031960e084901b1681526004810191909152336024820152604401602060405180830381865afa158015611255573d6000803e3d6000fd5b505050506040513d601f19601f820116820180604052508101906112799190612fad565b6112955760405162461bcd60e51b815260040161058090613030565b6109836123da565b6112a5611d17565b6112ad611d70565b609d5460405163052e207160e31b81523360048201526001600160a01b0390911690632971038890602401602060405180830381865afa1580156112f5573d6000803e3d6000fd5b505050506040513d601f19601f820116820180604052508101906113199190612fad565b80611333575033600090815260a0602052604090205460ff165b61134f5760405162461bcd60e51b815260040161058090612fcf565b61135c856000848461203c565b6113698585858585612417565b6113736001606555565b5050505050565b6099546040805163c8cc243f60e01b815290516000926001600160a01b03169163c8cc243f9160048083019260209291908290030181865afa1580156113c4573d6000803e3d6000fd5b505050506040513d601f19601f820116820180604052508101906113e89190612ffa565b9050806001600160a01b03166391d14854826001600160a01b031663e58378bb6040518163ffffffff1660e01b8152600401602060405180830381865afa158015611437573d6000803e3d6000fd5b505050506040513d601f19601f8201168201806040525081019061145b9190613017565b6040516001600160e01b031960e084901b1681526004810191909152336024820152604401602060405180830381865afa15801561149d573d6000803e3d6000fd5b505050506040513d601f19601f820116820180604052508101906114c19190612fad565b8061159e5750806001600160a01b03166391d14854826001600160a01b031663b536818a6040518163ffffffff1660e01b8152600401602060405180830381865afa158015611514573d6000803e3d6000fd5b505050506040513d601f19601f820116820180604052508101906115389190613017565b6040516001600160e01b031960e084901b1681526004810191909152336024820152604401602060405180830381865afa15801561157a573d6000803e3d6000fd5b505050506040513d601f19601f8201168201806040525081019061159e9190612fad565b6115ba5760405162461bcd60e51b815260040161058090613030565b6001600160a01b03821661161c5760405162461bcd60e51b8152602060048201526024808201527f416e6b72436f6c616461707465722f77686974656c6973742d696e76616c69646044820152634164647360e01b6064820152608401610580565b506001600160a01b0316600090815260a060205260409020805460ff19166001179055565b611649611d17565b611651611d70565b609d5460405163052e207160e31b81523360048201526001600160a01b0390911690632971038890602401602060405180830381865afa158015611699573d6000803e3d6000fd5b505050506040513d601f19601f820116820180604052508101906116bd9190612fad565b806116d7575033600090815260a0602052604090205460ff165b61135c5760405162461bcd60e51b815260040161058090612fcf565b6099546040805163c8cc243f60e01b815290516000926001600160a01b03169163c8cc243f9160048083019260209291908290030181865afa15801561173d573d6000803e3d6000fd5b505050506040513d601f19601f820116820180604052508101906117619190612ffa565b9050806001600160a01b03166391d14854826001600160a01b031663e58378bb6040518163ffffffff1660e01b8152600401602060405180830381865afa1580156117b0573d6000803e3d6000fd5b505050506040513d601f19601f820116820180604052508101906117d49190613017565b6040516001600160e01b031960e084901b1681526004810191909152336024820152604401602060405180830381865afa158015611816573d6000803e3d6000fd5b505050506040513d601f19601f8201168201806040525081019061183a9190612fad565b6118565760405162461bcd60e51b815260040161058090613067565b609754156118a65760405162461bcd60e51b815260206004820181905260248201527f436f6c6c61746572616c546f6b656e416461707465722f6e6f742d63616765646044820152606401610580565b60016097556040517f1868a6ced217213f36be87ba9aee25cde5381b42e85c8f88e73b18772c0bd07390600090a150565b6000609e546000036118f05750670de0b6b3a764000090565b6119046118fc609e5490565b609e54612254565b905090565b611911611d17565b611919611d70565b609d5460405163052e207160e31b81523360048201526001600160a01b0390911690632971038890602401602060405180830381865afa158015611961573d6000803e3d6000fd5b505050506040513d601f19601f820116820180604052508101906119859190612fad565b8061199f575033600090815260a0602052604090205460ff165b6119bb5760405162461bcd60e51b815260040161058090612fcf565b600160ff1b8413611a255760405162461bcd60e51b815260206004820152602e60248201527f436f6c6c61746572616c546f6b656e416461707465722f746f6f536d616c6c4360448201526d6f6c6c61746572616c56616c756560901b6064820152608401610580565b6000808512611a345784611a3d565b611a3d856130c2565b9050611a4c8787838686612417565b506106676001606555565b6099546040805163c8cc243f60e01b815290516000926001600160a01b03169163c8cc243f9160048083019260209291908290030181865afa158015611aa1573d6000803e3d6000fd5b505050506040513d601f19601f82011682018060405250810190611ac59190612ffa565b9050806001600160a01b03166391d14854826001600160a01b031663e58378bb6040518163ffffffff1660e01b8152600401602060405180830381865afa158015611b14573d6000803e3d6000fd5b505050506040513d601f19601f82011682018060405250810190611b389190613017565b6040516001600160e01b031960e084901b1681526004810191909152336024820152604401602060405180830381865afa158015611b7a573d6000803e3d6000fd5b505050506040513d601f19601f82011682018060405250810190611b9e9190612fad565b80611c7b5750806001600160a01b03166391d14854826001600160a01b031663b536818a6040518163ffffffff1660e01b8152600401602060405180830381865afa158015611bf1573d6000803e3d6000fd5b505050506040513d601f19601f82011682018060405250810190611c159190613017565b6040516001600160e01b031960e084901b1681526004810191909152336024820152604401602060405180830381865afa158015611c57573d6000803e3d6000fd5b505050506040513d601f19601f82011682018060405250810190611c7b9190612fad565b611c975760405162461bcd60e51b815260040161058090613030565b506001600160a01b0316600090815260a060205260409020805460ff19169055565b600054610100900460ff16611ce05760405162461bcd60e51b8152600401610580906130de565b610def6129d9565b600054610100900460ff16611d0f5760405162461bcd60e51b8152600401610580906130de565b610def612a0c565b600260655403611d695760405162461bcd60e51b815260206004820152601f60248201527f5265656e7472616e637947756172643a207265656e7472616e742063616c6c006044820152606401610580565b6002606555565b60335460ff1615610def5760405162461bcd60e51b815260206004820152601060248201526f14185d5cd8589b194e881c185d5cd95960821b6044820152606401610580565b8015611fac576000611dcf82611dca6118d7565b612a33565b905060008113611df15760405162461bcd60e51b815260040161058090613129565b336000908152609f6020526040902054811115611e6a5760405162461bcd60e51b815260206004820152603160248201527f436f6c6c61746572616c546f6b656e416461707465722f696e73756666696369604482015270195b9d081cdd185ad95908185b5bdd5b9d607a1b6064820152608401610580565b609954609a546001600160a01b039091169063d295927a9033611e8c856130c2565b6040516001600160e01b031960e086901b16815260048101939093526001600160a01b0390911660248301526044820152606401600060405180830381600087803b158015611eda57600080fd5b505af1158015611eee573d6000803e3d6000fd5b50505050611efe609e548261227a565b609e55336000908152609f6020526040902054611f1b908261227a565b336000908152609f60205260409081902091909155609b549051632e1a7d4d60e01b8152600481018490526001600160a01b0390911690632e1a7d4d90602401600060405180830381600087803b158015611f7557600080fd5b505af1158015611f89573d6000803e3d6000fd5b5050609854611faa925061010090046001600160a01b0316905084846122d6565b505b6040518181527f879a83fc17750905b8aef4ef85e6701b84a50e15d4463dc3c2e7fb0f9dbcf75d9060200160405180910390a15050565b6001606555565b611ff2612a50565b6033805460ff191690557f5db9ee0a495bf2e6ff9c91a7834c1ba4fdd244a5e8aa4e537bd38aeae4b073aa335b6040516001600160a01b03909116815260200160405180910390a1565b60975460011461208e5760405162461bcd60e51b815260206004820152601f60248201527f436f6c6c61746572616c546f6b656e416461707465722f6e6f742d6c697665006044820152606401610580565b821561221b5760006120a284610ef16118d7565b9050600081136120c45760405162461bcd60e51b815260040161058090613129565b6098546120e19061010090046001600160a01b0316333087612a99565b609954609a5460405163694ac93d60e11b815260048101919091526001600160a01b038781166024830152604482018490529091169063d295927a90606401600060405180830381600087803b15801561213a57600080fd5b505af115801561214e573d6000803e3d6000fd5b5050505061215e609e5482612ba9565b609e556001600160a01b0385166000908152609f60205260409020546121849082612ba9565b6001600160a01b038087166000908152609f6020526040902091909155609b546098546121bb926101009091048116911686612bfe565b609b5460405163b6b55f2560e01b8152600481018690526001600160a01b039091169063b6b55f2590602401600060405180830381600087803b15801561220157600080fd5b505af1158015612215573d6000803e3d6000fd5b50505050505b6040518381527ff641ad64267ca71156d13749ad746155df3095d9afeb604fe3b53016ce5fc8ba9060200160405180910390a150505050565b60008161226984670de0b6b3a7640000612d01565b612273919061316e565b9392505050565b6000826122878382613190565b91508111156122d05760405162461bcd60e51b815260206004820152601560248201527464732d6d6174682d7375622d756e646572666c6f7760581b6044820152606401610580565b92915050565b604080516001600160a01b038481166024830152604480830185905283518084039091018152606490920183526020820180516001600160e01b031663a9059cbb60e01b179052915160009283929087169161233291906131a3565b6000604051808303816000865af19150503d806000811461236f576040519150601f19603f3d011682016040523d82523d6000602084013e612374565b606091505b509150915081801561239e57508051158061239e57508080602001905181019061239e9190612fad565b6113735760405162461bcd60e51b815260206004820152600d60248201526c10b9b0b332aa3930b739b332b960991b6044820152606401610580565b6123e2611d70565b6033805460ff191660011790557f62e78cea01bee320cd4e420270b5ea74000d11b0c9f74754ebdbfc544b05a25861201f3390565b6099546040805163c8cc243f60e01b815290516000926001600160a01b03169163c8cc243f9160048083019260209291908290030181865afa158015612461573d6000803e3d6000fd5b505050506040513d601f19601f820116820180604052508101906124859190612ffa565b9050806001600160a01b03166391d14854826001600160a01b0316632e718ab76040518163ffffffff1660e01b8152600401602060405180830381865afa1580156124d4573d6000803e3d6000fd5b505050506040513d601f19601f820116820180604052508101906124f89190613017565b6040516001600160e01b031960e084901b1681526004810191909152336024820152604401602060405180830381865afa15801561253a573d6000803e3d6000fd5b505050506040513d601f19601f8201168201806040525081019061255e9190612fad565b61259f5760405162461bcd60e51b815260206004820152601260248201527110b1b7b63630ba32b930b626b0b730b3b2b960711b6044820152606401610580565b6001600160a01b0386166000908152609f602052604081205490036126185760405162461bcd60e51b815260206004820152602960248201527f436f6c6c61746572616c546f6b656e416461707465722f536f757263654e6f5360448201526874616b6556616c756560b81b6064820152608401610580565b6001600160a01b0386166000908152609f602052604090205461263b818661227a565b6001600160a01b038089166000908152609f6020526040808220939093559088168152205461266a9086612ba9565b6001600160a01b038781166000908152609f602052604080822093909355609954609a549351630a76216560e21b815260048101949094528a8316602485015290929116906329d88594906044016040805180830381865afa1580156126d4573d6000803e3d6000fd5b505050506040513d601f19601f820116820180604052508101906126f891906131d2565b50609954609a54604051633e2f890b60e21b815260048101919091526001600160a01b038b81166024830152929350612780929091169063f8be242c906044015b602060405180830381865afa158015612756573d6000803e3d6000fd5b505050506040513d601f19601f8201168201806040525081019061277a9190613017565b82612ba9565b6001600160a01b0389166000908152609f602052604090205410156128205760405162461bcd60e51b815260206004820152604a60248201527f436f6c6c61746572616c546f6b656e416461707465722f7374616b655b736f7560448201527f7263655d203c20636f6c6c61746572616c546f6b656e73202b206c6f636b656460648201526910dbdb1b185d195c985b60b21b608482015260a401610580565b609954609a54604051630a76216560e21b815260048101919091526001600160a01b038981166024830152909116906329d88594906044016040805180830381865afa158015612874573d6000803e3d6000fd5b505050506040513d601f19601f8201168201806040525081019061289891906131d2565b50609954609a54604051633e2f890b60e21b815260048101919091526001600160a01b038a811660248301529293506128dd929091169063f8be242c90604401612739565b6001600160a01b0388166000908152609f602052604090205411156129825760405162461bcd60e51b815260206004820152604f60248201527f436f6c6c61746572616c546f6b656e416461707465722f7374616b655b64657360448201527f74696e6174696f6e5d203e20636f6c6c61746572616c546f6b656e73202b206c60648201526e1bd8dad95910dbdb1b185d195c985b608a1b608482015260a401610580565b866001600160a01b0316886001600160a01b03167f11f8877fdec37577921d8bf36ca71ea534c8901eada496d759bce84bba46e2de886040516129c791815260200190565b60405180910390a35050505050505050565b600054610100900460ff16612a005760405162461bcd60e51b8152600401610580906130de565b6033805460ff19169055565b600054610100900460ff16611fe35760405162461bcd60e51b8152600401610580906130de565b6000612273612a4a84670de0b6b3a7640000612d01565b83612d68565b60335460ff16610def5760405162461bcd60e51b815260206004820152601460248201527314185d5cd8589b194e881b9bdd081c185d5cd95960621b6044820152606401610580565b604080516001600160a01b0385811660248301528481166044830152606480830185905283518084039091018152608490920183526020820180516001600160e01b03166323b872dd60e01b1790529151600092839290881691612afd91906131a3565b6000604051808303816000865af19150503d8060008114612b3a576040519150601f19603f3d011682016040523d82523d6000602084013e612b3f565b606091505b5091509150818015612b69575080511580612b69575080806020019051810190612b699190612fad565b6106675760405162461bcd60e51b815260206004820152601160248201527021736166655472616e7366657246726f6d60781b6044820152606401610580565b600082612bb683826131f6565b91508110156122d05760405162461bcd60e51b815260206004820152601460248201527364732d6d6174682d6164642d6f766572666c6f7760601b6044820152606401610580565b604080516001600160a01b038481166024830152604480830185905283518084039091018152606490920183526020820180516001600160e01b031663095ea7b360e01b1790529151600092839290871691612c5a91906131a3565b6000604051808303816000865af19150503d8060008114612c97576040519150601f19603f3d011682016040523d82523d6000602084013e612c9c565b606091505b5091509150818015612cc6575080511580612cc6575080806020019051810190612cc69190612fad565b6113735760405162461bcd60e51b815260206004820152600c60248201526b2173616665417070726f766560a01b6044820152606401610580565b6000811580612d2557508282612d178183613209565b9250612d23908361316e565b145b6122d05760405162461bcd60e51b815260206004820152601460248201527364732d6d6174682d6d756c2d6f766572666c6f7760601b6044820152606401610580565b60008161226984612d7a85600161227a565b612ba9565b6001600160a01b038116811461098357600080fd5b600060208284031215612da657600080fd5b813561227381612d7f565b600080600080600060a08688031215612dc957600080fd5b8535612dd481612d7f565b9450602086013593506040860135612deb81612d7f565b92506060860135612dfb81612d7f565b91506080860135612e0b81612d7f565b809150509295509295909350565b60008083601f840112612e2b57600080fd5b50813567ffffffffffffffff811115612e4357600080fd5b602083019150836020828501011115612e5b57600080fd5b9250929050565b60008060008060608587031215612e7857600080fd5b8435612e8381612d7f565b935060208501359250604085013567ffffffffffffffff811115612ea657600080fd5b612eb287828801612e19565b95989497509550505050565b600080600080600060808688031215612ed657600080fd5b8535612ee181612d7f565b94506020860135612ef181612d7f565b935060408601359250606086013567ffffffffffffffff811115612f1457600080fd5b612f2088828901612e19565b969995985093965092949392505050565b60008060008060008060a08789031215612f4a57600080fd5b8635612f5581612d7f565b95506020870135612f6581612d7f565b94506040870135935060608701359250608087013567ffffffffffffffff811115612f8f57600080fd5b612f9b89828a01612e19565b979a9699509497509295939492505050565b600060208284031215612fbf57600080fd5b8151801515811461227357600080fd5b60208082526011908201527008541c9bde1e53dc95da1a5d19531a5cdd607a1b604082015260600190565b60006020828403121561300c57600080fd5b815161227381612d7f565b60006020828403121561302957600080fd5b5051919050565b60208082526017908201527f21286f776e6572526f6c65206f7220676f76526f6c6529000000000000000000604082015260600190565b60208082526025908201527f436f6c6c61746572616c546f6b656e416461707465722f6e6f742d617574686f6040820152641c9a5e995960da1b606082015260800190565b634e487b7160e01b600052601160045260246000fd5b6000600160ff1b82016130d7576130d76130ac565b5060000390565b6020808252602b908201527f496e697469616c697a61626c653a20636f6e7472616374206973206e6f74206960408201526a6e697469616c697a696e6760a81b606082015260800190565b60208082526025908201527f436f6c6c61746572616c546f6b656e416461707465722f73686172652d6f766560408201526472666c6f7760d81b606082015260800190565b60008261318b57634e487b7160e01b600052601260045260246000fd5b500490565b818103818111156122d0576122d06130ac565b6000825160005b818110156131c457602081860181015185830152016131aa565b506000920191825250919050565b600080604083850312156131e557600080fd5b505080516020909101519092909150565b808201808211156122d0576122d06130ac565b80820281158282048414176122d0576122d06130ac56fea2646970667358221220c989b30a7a2471682600f9d92e845795b937a05e79c2f0f0664daaaff11e77be64736f6c63430008110033",
    "immutableReferences": {},
    "source": "// SPDX-License-Identifier: AGPL-3.0-or-later\npragma solidity 0.8.17;\n\nimport \"@openzeppelin/contracts-upgradeable/security/PausableUpgradeable.sol\";\nimport \"@openzeppelin/contracts-upgradeable/access/AccessControlUpgradeable.sol\";\nimport \"@openzeppelin/contracts-upgradeable/security/ReentrancyGuardUpgradeable.sol\";\n\nimport \"../../../interfaces/IBookKeeper.sol\";\nimport \"../../../interfaces/ICollateralAdapter.sol\";\nimport \"../../../interfaces/ICagable.sol\";\nimport \"../../../interfaces/IManager.sol\";\nimport \"../../../interfaces/IProxyRegistry.sol\";\nimport \"../../../utils/SafeToken.sol\";\nimport \"../../../interfaces/IVault.sol\";\n\ncontract CollateralTokenAdapterMath {\n    uint256 internal constant WAD = 10 ** 18;\n    uint256 internal constant RAY = 10 ** 27;\n\n    function add(uint256 _x, uint256 _y) internal pure returns (uint256 _z) {\n        require((_z = _x + _y) >= _x, \"ds-math-add-overflow\");\n    }\n\n    function sub(uint256 _x, uint256 _y) internal pure returns (uint256 _z) {\n        require((_z = _x - _y) <= _x, \"ds-math-sub-underflow\");\n    }\n\n    function mul(uint256 _x, uint256 _y) internal pure returns (uint256 _z) {\n        require(_y == 0 || (_z = _x * _y) / _y == _x, \"ds-math-mul-overflow\");\n    }\n\n    function div(uint256 _x, uint256 _y) internal pure returns (uint256 _z) {\n        require(_y > 0, \"ds-math-div-by-zero\");\n        _z = _x / _y;\n    }\n\n    function divup(uint256 _x, uint256 _y) internal pure returns (uint256 _z) {\n        _z = add(_x, sub(_y, 1)) / _y;\n    }\n\n    function wmul(uint256 _x, uint256 _y) internal pure returns (uint256 _z) {\n        _z = mul(_x, _y) / WAD;\n    }\n\n    function wdiv(uint256 _x, uint256 _y) internal pure returns (uint256 _z) {\n        _z = mul(_x, WAD) / _y;\n    }\n\n    function wdivup(uint256 _x, uint256 _y) internal pure returns (uint256 _z) {\n        _z = divup(mul(_x, WAD), _y);\n    }\n\n    function rmul(uint256 _x, uint256 _y) internal pure returns (uint256 _z) {\n        _z = mul(_x, _y) / RAY;\n    }\n\n    function rmulup(uint256 _x, uint256 _y) internal pure returns (uint256 _z) {\n        _z = divup(mul(_x, _y), RAY);\n    }\n\n    function rdiv(uint256 _x, uint256 _y) internal pure returns (uint256 _z) {\n        _z = mul(_x, RAY) / _y;\n    }\n}\n\n/// @dev receives WXDC from users and deposit in Vault.\ncontract CollateralTokenAdapter is CollateralTokenAdapterMath, ICollateralAdapter, PausableUpgradeable, ReentrancyGuardUpgradeable, ICagable {\n    using SafeToken for address;\n\n    uint256 public live;\n    bool internal flagVault;\n\n    address public collateralToken;\n    IBookKeeper public bookKeeper;\n    bytes32 public override collateralPoolId;\n\n    IVault public vault;\n    IManager public positionManager;\n    IProxyRegistry public proxyWalletFactory;\n\n    /// @dev Total CollateralTokens that has been staked in WAD\n    uint256 public totalShare;\n\n    /// @dev Mapping of user(positionAddress) => collteralTokens that he is staking\n    mapping(address => uint256) public stake;\n\n    mapping(address => bool) public whiteListed;\n\n    event LogDeposit(uint256 _val);\n    event LogWithdraw(uint256 _val);\n    event LogEmergencyWithdraw(address indexed _caller, address _to);\n    event LogMoveStake(address indexed _src, address indexed _dst, uint256 _wad);\n\n    modifier onlyOwner() {\n        IAccessControlConfig _accessControlConfig = IAccessControlConfig(bookKeeper.accessControlConfig());\n        require(_accessControlConfig.hasRole(_accessControlConfig.OWNER_ROLE(), msg.sender), \"CollateralTokenAdapter/not-authorized\");\n        _;\n    }\n\n    modifier onlyProxyWalletOrWhiteListed() {\n        require(IProxyRegistry(proxyWalletFactory).isProxy(msg.sender) || whiteListed[msg.sender], \"!ProxyOrWhiteList\");\n        _;\n    }\n\n    modifier onlyOwnerOrGov() {\n        IAccessControlConfig _accessControlConfig = IAccessControlConfig(bookKeeper.accessControlConfig());\n        require(\n            _accessControlConfig.hasRole(_accessControlConfig.OWNER_ROLE(), msg.sender) ||\n                _accessControlConfig.hasRole(_accessControlConfig.GOV_ROLE(), msg.sender),\n            \"!(ownerRole or govRole)\"\n        );\n        _;\n    }\n\n    modifier onlyCollateralManager() {\n        IAccessControlConfig _accessControlConfig = IAccessControlConfig(bookKeeper.accessControlConfig());\n        require(_accessControlConfig.hasRole(_accessControlConfig.COLLATERAL_MANAGER_ROLE(), msg.sender), \"!collateralManager\");\n        _;\n    }\n\n    function initialize(\n        address _bookKeeper,\n        bytes32 _collateralPoolId,\n        address _collateralToken,\n        address _positionManager,\n        address _proxyWalletFactory\n    ) external initializer {\n        // 1. Initialized all dependencies\n        PausableUpgradeable.__Pausable_init();\n        ReentrancyGuardUpgradeable.__ReentrancyGuard_init();\n        collateralToken = _collateralToken;\n\n        live = 1;\n\n        bookKeeper = IBookKeeper(_bookKeeper);\n        collateralPoolId = _collateralPoolId;\n\n        positionManager = IManager(_positionManager);\n\n        proxyWalletFactory = IProxyRegistry(_proxyWalletFactory);\n    }\n\n    function whitelist(address toBeWhitelisted) external onlyOwnerOrGov {\n        require(toBeWhitelisted != address(0), \"AnkrColadapter/whitelist-invalidAdds\");\n        whiteListed[toBeWhitelisted] = true;\n    }\n\n    function blacklist(address toBeRemoved) external onlyOwnerOrGov {\n        whiteListed[toBeRemoved] = false;\n    }\n\n    function cage() external override nonReentrant onlyOwner {\n        if (live == 1) {\n            live = 0;\n            emit LogCage();\n        }\n    }\n\n    function uncage() external override onlyOwner {\n        require(live == 0, \"CollateralTokenAdapter/not-caged\");\n        live = 1;\n        emit LogUncage();\n    }\n\n    function pause() external onlyOwnerOrGov {\n        _pause();\n    }\n\n    function unpause() external onlyOwnerOrGov {\n        _unpause();\n    }\n\n    function setVault(address _vault) external onlyOwner {\n        require(true != flagVault, \"CollateralTokenAdapter/Vault-set-already\");\n        flagVault = true;\n        vault = IVault(_vault);\n    }\n\n    /// @param _positionAddress The address that holding states of the position\n    /// @param _amount The XDC amount that being used as a collateral and to be staked to AnkrStakingPool\n    /// @param _data The extra data that may needs to execute the deposit\n    function deposit(\n        address _positionAddress,\n        uint256 _amount,\n        bytes calldata _data\n    ) external payable override nonReentrant whenNotPaused onlyProxyWalletOrWhiteListed {\n        _deposit(_positionAddress, _amount, _data);\n    }\n\n    /// @dev Withdraw WXDC from Vault\n    /// @param _usr The address that holding states of the position\n    /// @param _amount The WXDC col amount in Vault to be returned to proxyWallet and then to user\n    function withdraw(\n        address _usr,\n        uint256 _amount,\n        bytes calldata /* _data */\n    ) external override nonReentrant whenNotPaused onlyProxyWalletOrWhiteListed {\n        _withdraw(_usr, _amount);\n    }\n\n    function moveStake(\n        address _source,\n        address _destination,\n        uint256 _share,\n        bytes calldata _data\n    ) external override nonReentrant whenNotPaused onlyProxyWalletOrWhiteListed {\n        _moveStake(_source, _destination, _share, _data);\n    }\n\n    function onAdjustPosition(\n        address _source,\n        address _destination,\n        int256 _collateralValue,\n        int256 /* debtShare */,\n        bytes calldata _data\n    ) external override nonReentrant whenNotPaused onlyProxyWalletOrWhiteListed {\n        require(_collateralValue > -2 ** 255, \"CollateralTokenAdapter/tooSmallCollateralValue\");\n        uint256 _unsignedCollateralValue = _collateralValue < 0 ? uint256(-_collateralValue) : uint256(_collateralValue);\n        _moveStake(_source, _destination, _unsignedCollateralValue, _data);\n    }\n\n    function onMoveCollateral(\n        address _source,\n        address _destination,\n        uint256 _share,\n        bytes calldata _data\n    ) external override nonReentrant whenNotPaused onlyProxyWalletOrWhiteListed {\n        _deposit(_source, 0, _data);\n        _moveStake(_source, _destination, _share, _data);\n    }\n\n    /// @dev Ignore collateralTokens that have been directly transferred\n    function netAssetValuation() public view returns (uint256) {\n        return totalShare;\n    }\n\n    /// @dev Return Net Assets per Share in wad\n    function netAssetPerShare() public view returns (uint256) {\n        if (totalShare == 0) return WAD;\n        else return wdiv(netAssetValuation(), totalShare);\n    }\n\n    /// @dev Lock XDC in the vault\n    /// deposit collateral tokens to staking contract, and update BookKeeper\n    /// @param _positionAddress The position address to be updated\n    /// @param _amount The amount to be deposited\n    function _deposit(address _positionAddress, uint256 _amount, bytes calldata /* _data */) private {\n        require(live == 1, \"CollateralTokenAdapter/not-live\");\n\n        if (_amount > 0) {\n            uint256 _share = wdiv(_amount, netAssetPerShare()); // [wad]\n            // Overflow check for int256(wad) cast below\n            // Also enforces a non-zero wad\n            require(int256(_share) > 0, \"CollateralTokenAdapter/share-overflow\");\n            //transfer WXDC from proxyWallet to adapter\n            address(collateralToken).safeTransferFrom(msg.sender, address(this), _amount);\n            //bookKeeping\n            bookKeeper.addCollateral(collateralPoolId, _positionAddress, int256(_share));\n            totalShare = add(totalShare, _share);\n            stake[_positionAddress] = add(stake[_positionAddress], _share);\n\n            // safeApprove to Vault\n            address(collateralToken).safeApprove(address(vault), _amount);\n            //deposit WXDC to Vault\n            vault.deposit(_amount);\n        }\n        emit LogDeposit(_amount); // wxdc\n    }\n\n    /// @dev withdraw collateral tokens from staking contract, and update BookKeeper\n    /// @param _usr The position address to be updated\n    /// @param _amount The amount to be withdrawn\n    function _withdraw(address _usr, uint256 _amount) private {\n        if (_amount > 0) {\n            uint256 _share = wdivup(_amount, netAssetPerShare()); // [wad]\n            // Overflow check for int256(wad) cast below\n            // Also enforces a non-zero wad\n            require(int256(_share) > 0, \"CollateralTokenAdapter/share-overflow\");\n            require(stake[msg.sender] >= _share, \"CollateralTokenAdapter/insufficient staked amount\");\n\n            bookKeeper.addCollateral(collateralPoolId, msg.sender, -int256(_share));\n            totalShare = sub(totalShare, _share);\n            stake[msg.sender] = sub(stake[msg.sender], _share);\n\n            //withdraw WXDC from Vault\n            vault.withdraw(_amount);\n            //Transfer WXDC to proxyWallet\n            address(collateralToken).safeTransfer(_usr, _amount);\n        }\n        emit LogWithdraw(_amount);\n    }\n\n    /// @dev Move wad amount of staked balance from source to destination. Can only be moved if underlaying assets make sense.\n    function _moveStake(address _source, address _destination, uint256 _share, bytes calldata /* data */) private onlyCollateralManager {\n        // 1. Update collateral tokens for source and destination\n        require(stake[_source] != 0, \"CollateralTokenAdapter/SourceNoStakeValue\");\n        uint256 _stakedAmount = stake[_source];\n        stake[_source] = sub(_stakedAmount, _share);\n        stake[_destination] = add(stake[_destination], _share);\n\n        (uint256 _lockedCollateral, ) = bookKeeper.positions(collateralPoolId, _source);\n        require(\n            stake[_source] >= add(bookKeeper.collateralToken(collateralPoolId, _source), _lockedCollateral),\n            \"CollateralTokenAdapter/stake[source] < collateralTokens + lockedCollateral\"\n        );\n        (_lockedCollateral, ) = bookKeeper.positions(collateralPoolId, _destination);\n        require(\n            stake[_destination] <= add(bookKeeper.collateralToken(collateralPoolId, _destination), _lockedCollateral),\n            \"CollateralTokenAdapter/stake[destination] > collateralTokens + lockedCollateral\"\n        );\n        emit LogMoveStake(_source, _destination, _share);\n    }\n\n  /// @dev EMERGENCY WHEN COLLATERAL TOKEN ADAPTER CAGED ONLY. Withdraw COLLATERAL from VAULT A after redeemStablecoin\n  function emergencyWithdraw(address _to) external nonReentrant {\n    if (live == 0) {\n        uint256 _amount = bookKeeper.collateralToken(collateralPoolId, msg.sender);\n        require(_amount < 2**255, \"CollateralTokenAdapter/collateral-overflow\");\n        //deduct totalShare\n        uint256 _share = wdiv(_amount, netAssetPerShare()); // [wad]\n        totalShare = sub(totalShare, _share);\n    \n        //deduct emergency withdrawl amount of FXD\n        bookKeeper.addCollateral(collateralPoolId, msg.sender, -int256(_amount));\n        //withdraw WXDC from Vault\n        vault.withdraw(_amount);\n        //Transfer WXDC to msg.sender\n        address(collateralToken).safeTransfer(_to, _amount);\n        emit LogEmergencyWithdraw(msg.sender, _to);\n    }\n}\n}\n",
    "sourcePath": "/Users/antongrigorev/Developer/fathom-stablecoin-smart-contracts/contracts/main/stablecoin-core/adapters/CollateralTokenAdapter/CollateralTokenAdapter.sol",
    "compiler": {
        "name": "solc",
        "version": "0.8.17+commit.8df45f5f.Emscripten.clang"
    },
    "schemaVersion": "3.4.13",
    "updatedAt": "2023-04-27T21:05:38.857Z",
    "devdoc": {
        "details": "receives WXDC from users and deposit in Vault.",
        "kind": "dev",
        "methods": {
            "deposit(address,uint256,bytes)": {
                "params": {
                    "_amount": "The XDC amount that being used as a collateral and to be staked to AnkrStakingPool",
                    "_data": "The extra data that may needs to execute the deposit",
                    "_positionAddress": "The address that holding states of the position"
                }
            },
            "emergencyWithdraw(address)": {
                "details": "EMERGENCY WHEN COLLATERAL TOKEN ADAPTER CAGED ONLY. Withdraw COLLATERAL from VAULT A after redeemStablecoin"
            },
            "netAssetPerShare()": {
                "details": "Return Net Assets per Share in wad"
            },
            "netAssetValuation()": {
                "details": "Ignore collateralTokens that have been directly transferred"
            },
            "paused()": {
                "details": "Returns true if the contract is paused, and false otherwise."
            },
            "withdraw(address,uint256,bytes)": {
                "details": "Withdraw WXDC from Vault",
                "params": {
                    "_amount": "The WXDC col amount in Vault to be returned to proxyWallet and then to user",
                    "_usr": "The address that holding states of the position"
                }
            }
        },
        "stateVariables": {
            "stake": {
                "details": "Mapping of user(positionAddress) => collteralTokens that he is staking"
            },
            "totalShare": {
                "details": "Total CollateralTokens that has been staked in WAD"
            }
        },
        "version": 1
    },
    "userdoc": {
        "kind": "user",
        "methods": {},
        "version": 1
    }
}