{
    "contractName": "CollateralTokenAdapter",
    "abi": [
        {
            "anonymous": false,
            "inputs": [
                {
                    "indexed": false,
                    "internalType": "uint8",
                    "name": "version",
                    "type": "uint8"
                }
            ],
            "name": "Initialized",
            "type": "event"
        },
        {
            "anonymous": false,
            "inputs": [],
            "name": "LogCage",
            "type": "event"
        },
        {
            "anonymous": false,
            "inputs": [
                {
                    "indexed": false,
                    "internalType": "uint256",
                    "name": "_val",
                    "type": "uint256"
                }
            ],
            "name": "LogDeposit",
            "type": "event"
        },
        {
            "anonymous": false,
            "inputs": [
                {
                    "indexed": true,
                    "internalType": "address",
                    "name": "_caller",
                    "type": "address"
                },
                {
                    "indexed": false,
                    "internalType": "address",
                    "name": "_to",
                    "type": "address"
                }
            ],
            "name": "LogEmergencyWithdraw",
            "type": "event"
        },
        {
            "anonymous": false,
            "inputs": [
                {
                    "indexed": true,
                    "internalType": "address",
                    "name": "_src",
                    "type": "address"
                },
                {
                    "indexed": true,
                    "internalType": "address",
                    "name": "_dst",
                    "type": "address"
                },
                {
                    "indexed": false,
                    "internalType": "uint256",
                    "name": "_wad",
                    "type": "uint256"
                }
            ],
            "name": "LogMoveStake",
            "type": "event"
        },
        {
            "anonymous": false,
            "inputs": [],
            "name": "LogUncage",
            "type": "event"
        },
        {
            "anonymous": false,
            "inputs": [
                {
                    "indexed": false,
                    "internalType": "uint256",
                    "name": "_val",
                    "type": "uint256"
                }
            ],
            "name": "LogWithdraw",
            "type": "event"
        },
        {
            "anonymous": false,
            "inputs": [
                {
                    "indexed": false,
                    "internalType": "address",
                    "name": "account",
                    "type": "address"
                }
            ],
            "name": "Paused",
            "type": "event"
        },
        {
            "anonymous": false,
            "inputs": [
                {
                    "indexed": false,
                    "internalType": "address",
                    "name": "account",
                    "type": "address"
                }
            ],
            "name": "Unpaused",
            "type": "event"
        },
        {
            "inputs": [],
            "name": "bookKeeper",
            "outputs": [
                {
                    "internalType": "contract IBookKeeper",
                    "name": "",
                    "type": "address"
                }
            ],
            "stateMutability": "view",
            "type": "function"
        },
        {
            "inputs": [],
            "name": "collateralPoolId",
            "outputs": [
                {
                    "internalType": "bytes32",
                    "name": "",
                    "type": "bytes32"
                }
            ],
            "stateMutability": "view",
            "type": "function"
        },
        {
            "inputs": [],
            "name": "collateralToken",
            "outputs": [
                {
                    "internalType": "address",
                    "name": "",
                    "type": "address"
                }
            ],
            "stateMutability": "view",
            "type": "function"
        },
        {
            "inputs": [],
            "name": "live",
            "outputs": [
                {
                    "internalType": "uint256",
                    "name": "",
                    "type": "uint256"
                }
            ],
            "stateMutability": "view",
            "type": "function"
        },
        {
            "inputs": [],
            "name": "paused",
            "outputs": [
                {
                    "internalType": "bool",
                    "name": "",
                    "type": "bool"
                }
            ],
            "stateMutability": "view",
            "type": "function"
        },
        {
            "inputs": [],
            "name": "positionManager",
            "outputs": [
                {
                    "internalType": "contract IManager",
                    "name": "",
                    "type": "address"
                }
            ],
            "stateMutability": "view",
            "type": "function"
        },
        {
            "inputs": [],
            "name": "proxyWalletFactory",
            "outputs": [
                {
                    "internalType": "contract IProxyRegistry",
                    "name": "",
                    "type": "address"
                }
            ],
            "stateMutability": "view",
            "type": "function"
        },
        {
            "inputs": [
                {
                    "internalType": "address",
                    "name": "",
                    "type": "address"
                }
            ],
            "name": "stake",
            "outputs": [
                {
                    "internalType": "uint256",
                    "name": "",
                    "type": "uint256"
                }
            ],
            "stateMutability": "view",
            "type": "function"
        },
        {
            "inputs": [],
            "name": "totalShare",
            "outputs": [
                {
                    "internalType": "uint256",
                    "name": "",
                    "type": "uint256"
                }
            ],
            "stateMutability": "view",
            "type": "function"
        },
        {
            "inputs": [],
            "name": "vault",
            "outputs": [
                {
                    "internalType": "contract IVault",
                    "name": "",
                    "type": "address"
                }
            ],
            "stateMutability": "view",
            "type": "function"
        },
        {
            "inputs": [
                {
                    "internalType": "address",
                    "name": "",
                    "type": "address"
                }
            ],
            "name": "whiteListed",
            "outputs": [
                {
                    "internalType": "bool",
                    "name": "",
                    "type": "bool"
                }
            ],
            "stateMutability": "view",
            "type": "function"
        },
        {
            "inputs": [
                {
                    "internalType": "address",
                    "name": "_bookKeeper",
                    "type": "address"
                },
                {
                    "internalType": "bytes32",
                    "name": "_collateralPoolId",
                    "type": "bytes32"
                },
                {
                    "internalType": "address",
                    "name": "_collateralToken",
                    "type": "address"
                },
                {
                    "internalType": "address",
                    "name": "_positionManager",
                    "type": "address"
                },
                {
                    "internalType": "address",
                    "name": "_proxyWalletFactory",
                    "type": "address"
                }
            ],
            "name": "initialize",
            "outputs": [],
            "stateMutability": "nonpayable",
            "type": "function"
        },
        {
            "inputs": [
                {
                    "internalType": "address",
                    "name": "toBeWhitelisted",
                    "type": "address"
                }
            ],
            "name": "whitelist",
            "outputs": [],
            "stateMutability": "nonpayable",
            "type": "function"
        },
        {
            "inputs": [
                {
                    "internalType": "address",
                    "name": "toBeRemoved",
                    "type": "address"
                }
            ],
            "name": "blacklist",
            "outputs": [],
            "stateMutability": "nonpayable",
            "type": "function"
        },
        {
            "inputs": [],
            "name": "cage",
            "outputs": [],
            "stateMutability": "nonpayable",
            "type": "function"
        },
        {
            "inputs": [],
            "name": "uncage",
            "outputs": [],
            "stateMutability": "nonpayable",
            "type": "function"
        },
        {
            "inputs": [],
            "name": "pause",
            "outputs": [],
            "stateMutability": "nonpayable",
            "type": "function"
        },
        {
            "inputs": [],
            "name": "unpause",
            "outputs": [],
            "stateMutability": "nonpayable",
            "type": "function"
        },
        {
            "inputs": [
                {
                    "internalType": "address",
                    "name": "_vault",
                    "type": "address"
                }
            ],
            "name": "setVault",
            "outputs": [],
            "stateMutability": "nonpayable",
            "type": "function"
        },
        {
            "inputs": [
                {
                    "internalType": "address",
                    "name": "_positionAddress",
                    "type": "address"
                },
                {
                    "internalType": "uint256",
                    "name": "_amount",
                    "type": "uint256"
                },
                {
                    "internalType": "bytes",
                    "name": "_data",
                    "type": "bytes"
                }
            ],
            "name": "deposit",
            "outputs": [],
            "stateMutability": "payable",
            "type": "function"
        },
        {
            "inputs": [
                {
                    "internalType": "address",
                    "name": "_usr",
                    "type": "address"
                },
                {
                    "internalType": "uint256",
                    "name": "_amount",
                    "type": "uint256"
                },
                {
                    "internalType": "bytes",
                    "name": "",
                    "type": "bytes"
                }
            ],
            "name": "withdraw",
            "outputs": [],
            "stateMutability": "nonpayable",
            "type": "function"
        },
        {
            "inputs": [
                {
                    "internalType": "address",
                    "name": "_source",
                    "type": "address"
                },
                {
                    "internalType": "address",
                    "name": "_destination",
                    "type": "address"
                },
                {
                    "internalType": "uint256",
                    "name": "_share",
                    "type": "uint256"
                },
                {
                    "internalType": "bytes",
                    "name": "_data",
                    "type": "bytes"
                }
            ],
            "name": "moveStake",
            "outputs": [],
            "stateMutability": "nonpayable",
            "type": "function"
        },
        {
            "inputs": [
                {
                    "internalType": "address",
                    "name": "_source",
                    "type": "address"
                },
                {
                    "internalType": "address",
                    "name": "_destination",
                    "type": "address"
                },
                {
                    "internalType": "int256",
                    "name": "_collateralValue",
                    "type": "int256"
                },
                {
                    "internalType": "int256",
                    "name": "",
                    "type": "int256"
                },
                {
                    "internalType": "bytes",
                    "name": "_data",
                    "type": "bytes"
                }
            ],
            "name": "onAdjustPosition",
            "outputs": [],
            "stateMutability": "nonpayable",
            "type": "function"
        },
        {
            "inputs": [
                {
                    "internalType": "address",
                    "name": "_source",
                    "type": "address"
                },
                {
                    "internalType": "address",
                    "name": "_destination",
                    "type": "address"
                },
                {
                    "internalType": "uint256",
                    "name": "_share",
                    "type": "uint256"
                },
                {
                    "internalType": "bytes",
                    "name": "_data",
                    "type": "bytes"
                }
            ],
            "name": "onMoveCollateral",
            "outputs": [],
            "stateMutability": "nonpayable",
            "type": "function"
        },
        {
            "inputs": [],
            "name": "netAssetValuation",
            "outputs": [
                {
                    "internalType": "uint256",
                    "name": "",
                    "type": "uint256"
                }
            ],
            "stateMutability": "view",
            "type": "function"
        },
        {
            "inputs": [],
            "name": "netAssetPerShare",
            "outputs": [
                {
                    "internalType": "uint256",
                    "name": "",
                    "type": "uint256"
                }
            ],
            "stateMutability": "view",
            "type": "function"
        }
    ],
    "bytecode": "0x608060405234801561001057600080fd5b50612f52806100206000396000f3fe6080604052600436106101815760003560e01c8063957aa58c116100d1578063dca07dc51161008a578063f77c403611610064578063f77c40361461041c578063f9f92be41461043c578063fa0fca841461045c578063fbfa77cf1461048c57600080fd5b8063dca07dc5146103d1578063e3b3932a146103e7578063e95927801461040757600080fd5b8063957aa58c1461032157806399443616146103375780639b19251a14610357578063a3b1513814610377578063b2016bd414610397578063d63b23b2146103bc57600080fd5b806349bdc2b81161013e578063692450091161011857806369245009146102c2578063791b98bc146102d75780638217b846146102f75780638456cb591461030c57600080fd5b806349bdc2b81461026b5780635c975abb1461027e5780636817031b146102a257600080fd5b8063026c4207146101865780631704edb4146101af57806326476204146101e757806326a15d181461021457806331f09265146102365780633f4ba83a14610256575b600080fd5b34801561019257600080fd5b5061019c609e5481565b6040519081526020015b60405180910390f35b3480156101bb57600080fd5b50609d546101cf906001600160a01b031681565b6040516001600160a01b0390911681526020016101a6565b3480156101f357600080fd5b5061019c610202366004612a90565b609f6020526000908152604090205481565b34801561022057600080fd5b5061023461022f366004612aad565b6104ac565b005b34801561024257600080fd5b50610234610251366004612b5e565b610634565b34801561026257600080fd5b50610234610700565b610234610279366004612b5e565b61094b565b34801561028a57600080fd5b5060335460ff165b60405190151581526020016101a6565b3480156102ae57600080fd5b506102346102bd366004612a90565b610a09565b3480156102ce57600080fd5b50610234610c05565b3480156102e357600080fd5b50609c546101cf906001600160a01b031681565b34801561030357600080fd5b50609e5461019c565b34801561031857600080fd5b50610234610db6565b34801561032d57600080fd5b5061019c60975481565b34801561034357600080fd5b50610234610352366004612bba565b610ffe565b34801561036357600080fd5b50610234610372366004612a90565b6110db565b34801561038357600080fd5b50610234610392366004612bba565b6113a2565b3480156103a357600080fd5b506098546101cf9061010090046001600160a01b031681565b3480156103c857600080fd5b50610234611454565b3480156103dd57600080fd5b5061019c609a5481565b3480156103f357600080fd5b506099546101cf906001600160a01b031681565b34801561041357600080fd5b5061019c611638565b34801561042857600080fd5b50610234610437366004612c2d565b61166a565b34801561044857600080fd5b50610234610457366004612a90565b61174e565b34801561046857600080fd5b50610292610477366004612a90565b60a06020526000908152604090205460ff1681565b34801561049857600080fd5b50609b546101cf906001600160a01b031681565b600054610100900460ff16158080156104cc5750600054600160ff909116105b806104e65750303b1580156104e6575060005460ff166001145b61054e5760405162461bcd60e51b815260206004820152602e60248201527f496e697469616c697a61626c653a20636f6e747261637420697320616c72656160448201526d191e481a5b9a5d1a585b1a5e995960921b60648201526084015b60405180910390fd5b6000805460ff191660011790558015610571576000805461ff0019166101001790555b6105796119b0565b6105816119df565b60988054610100600160a81b0319166101006001600160a01b0387811691909102919091179091556001609755609980546001600160a01b031990811689841617909155609a879055609c80548216868416179055609d8054909116918416919091179055801561062c576000805461ff0019169055604051600181527f7f26b83ff96e1f2b6a682f133852f6798a09c465da95921460cefb38474024989060200160405180910390a15b505050505050565b61063c611a0e565b610644611a67565b609d5460405163052e207160e31b81523360048201526001600160a01b0390911690632971038890602401602060405180830381865afa15801561068c573d6000803e3d6000fd5b505050506040513d601f19601f820116820180604052508101906106b09190612ca9565b806106ca575033600090815260a0602052604090205460ff165b6106e65760405162461bcd60e51b815260040161054590612ccb565b6106f08484611aad565b6106fa6001606555565b50505050565b6099546040805163c8cc243f60e01b815290516000926001600160a01b03169163c8cc243f9160048083019260209291908290030181865afa15801561074a573d6000803e3d6000fd5b505050506040513d601f19601f8201168201806040525081019061076e9190612cf6565b9050806001600160a01b03166391d14854826001600160a01b031663e58378bb6040518163ffffffff1660e01b8152600401602060405180830381865afa1580156107bd573d6000803e3d6000fd5b505050506040513d601f19601f820116820180604052508101906107e19190612d13565b6040516001600160e01b031960e084901b1681526004810191909152336024820152604401602060405180830381865afa158015610823573d6000803e3d6000fd5b505050506040513d601f19601f820116820180604052508101906108479190612ca9565b806109245750806001600160a01b03166391d14854826001600160a01b031663b536818a6040518163ffffffff1660e01b8152600401602060405180830381865afa15801561089a573d6000803e3d6000fd5b505050506040513d601f19601f820116820180604052508101906108be9190612d13565b6040516001600160e01b031960e084901b1681526004810191909152336024820152604401602060405180830381865afa158015610900573d6000803e3d6000fd5b505050506040513d601f19601f820116820180604052508101906109249190612ca9565b6109405760405162461bcd60e51b815260040161054590612d2c565b610948611ce1565b50565b610953611a0e565b61095b611a67565b609d5460405163052e207160e31b81523360048201526001600160a01b0390911690632971038890602401602060405180830381865afa1580156109a3573d6000803e3d6000fd5b505050506040513d601f19601f820116820180604052508101906109c79190612ca9565b806109e1575033600090815260a0602052604090205460ff165b6109fd5760405162461bcd60e51b815260040161054590612ccb565b6106f084848484611d33565b6099546040805163c8cc243f60e01b815290516000926001600160a01b03169163c8cc243f9160048083019260209291908290030181865afa158015610a53573d6000803e3d6000fd5b505050506040513d601f19601f82011682018060405250810190610a779190612cf6565b9050806001600160a01b03166391d14854826001600160a01b031663e58378bb6040518163ffffffff1660e01b8152600401602060405180830381865afa158015610ac6573d6000803e3d6000fd5b505050506040513d601f19601f82011682018060405250810190610aea9190612d13565b6040516001600160e01b031960e084901b1681526004810191909152336024820152604401602060405180830381865afa158015610b2c573d6000803e3d6000fd5b505050506040513d601f19601f82011682018060405250810190610b509190612ca9565b610b6c5760405162461bcd60e51b815260040161054590612d63565b60985460ff161515600103610bd45760405162461bcd60e51b815260206004820152602860248201527f436f6c6c61746572616c546f6b656e416461707465722f5661756c742d7365746044820152672d616c726561647960c01b6064820152608401610545565b506098805460ff19166001179055609b80546001600160a01b039092166001600160a01b0319909216919091179055565b610c0d611a0e565b6099546040805163c8cc243f60e01b815290516000926001600160a01b03169163c8cc243f9160048083019260209291908290030181865afa158015610c57573d6000803e3d6000fd5b505050506040513d601f19601f82011682018060405250810190610c7b9190612cf6565b9050806001600160a01b03166391d14854826001600160a01b031663e58378bb6040518163ffffffff1660e01b8152600401602060405180830381865afa158015610cca573d6000803e3d6000fd5b505050506040513d601f19601f82011682018060405250810190610cee9190612d13565b6040516001600160e01b031960e084901b1681526004810191909152336024820152604401602060405180830381865afa158015610d30573d6000803e3d6000fd5b505050506040513d601f19601f82011682018060405250810190610d549190612ca9565b610d705760405162461bcd60e51b815260040161054590612d63565b609754600103610da957600060978190556040517fbf689b4aae670d200b1d2b971ace2e0c3bef88a9c5e93f36705c7b86eab630b99190a15b50610db46001606555565b565b6099546040805163c8cc243f60e01b815290516000926001600160a01b03169163c8cc243f9160048083019260209291908290030181865afa158015610e00573d6000803e3d6000fd5b505050506040513d601f19601f82011682018060405250810190610e249190612cf6565b9050806001600160a01b03166391d14854826001600160a01b031663e58378bb6040518163ffffffff1660e01b8152600401602060405180830381865afa158015610e73573d6000803e3d6000fd5b505050506040513d601f19601f82011682018060405250810190610e979190612d13565b6040516001600160e01b031960e084901b1681526004810191909152336024820152604401602060405180830381865afa158015610ed9573d6000803e3d6000fd5b505050506040513d601f19601f82011682018060405250810190610efd9190612ca9565b80610fda5750806001600160a01b03166391d14854826001600160a01b031663b536818a6040518163ffffffff1660e01b8152600401602060405180830381865afa158015610f50573d6000803e3d6000fd5b505050506040513d601f19601f82011682018060405250810190610f749190612d13565b6040516001600160e01b031960e084901b1681526004810191909152336024820152604401602060405180830381865afa158015610fb6573d6000803e3d6000fd5b505050506040513d601f19601f82011682018060405250810190610fda9190612ca9565b610ff65760405162461bcd60e51b815260040161054590612d2c565b610948611f50565b611006611a0e565b61100e611a67565b609d5460405163052e207160e31b81523360048201526001600160a01b0390911690632971038890602401602060405180830381865afa158015611056573d6000803e3d6000fd5b505050506040513d601f19601f8201168201806040525081019061107a9190612ca9565b80611094575033600090815260a0602052604090205460ff165b6110b05760405162461bcd60e51b815260040161054590612ccb565b6110bd8560008484611d33565b6110ca8585858585611f8d565b6110d46001606555565b5050505050565b6099546040805163c8cc243f60e01b815290516000926001600160a01b03169163c8cc243f9160048083019260209291908290030181865afa158015611125573d6000803e3d6000fd5b505050506040513d601f19601f820116820180604052508101906111499190612cf6565b9050806001600160a01b03166391d14854826001600160a01b031663e58378bb6040518163ffffffff1660e01b8152600401602060405180830381865afa158015611198573d6000803e3d6000fd5b505050506040513d601f19601f820116820180604052508101906111bc9190612d13565b6040516001600160e01b031960e084901b1681526004810191909152336024820152604401602060405180830381865afa1580156111fe573d6000803e3d6000fd5b505050506040513d601f19601f820116820180604052508101906112229190612ca9565b806112ff5750806001600160a01b03166391d14854826001600160a01b031663b536818a6040518163ffffffff1660e01b8152600401602060405180830381865afa158015611275573d6000803e3d6000fd5b505050506040513d601f19601f820116820180604052508101906112999190612d13565b6040516001600160e01b031960e084901b1681526004810191909152336024820152604401602060405180830381865afa1580156112db573d6000803e3d6000fd5b505050506040513d601f19601f820116820180604052508101906112ff9190612ca9565b61131b5760405162461bcd60e51b815260040161054590612d2c565b6001600160a01b03821661137d5760405162461bcd60e51b8152602060048201526024808201527f416e6b72436f6c616461707465722f77686974656c6973742d696e76616c69646044820152634164647360e01b6064820152608401610545565b506001600160a01b0316600090815260a060205260409020805460ff19166001179055565b6113aa611a0e565b6113b2611a67565b609d5460405163052e207160e31b81523360048201526001600160a01b0390911690632971038890602401602060405180830381865afa1580156113fa573d6000803e3d6000fd5b505050506040513d601f19601f8201168201806040525081019061141e9190612ca9565b80611438575033600090815260a0602052604090205460ff165b6110bd5760405162461bcd60e51b815260040161054590612ccb565b6099546040805163c8cc243f60e01b815290516000926001600160a01b03169163c8cc243f9160048083019260209291908290030181865afa15801561149e573d6000803e3d6000fd5b505050506040513d601f19601f820116820180604052508101906114c29190612cf6565b9050806001600160a01b03166391d14854826001600160a01b031663e58378bb6040518163ffffffff1660e01b8152600401602060405180830381865afa158015611511573d6000803e3d6000fd5b505050506040513d601f19601f820116820180604052508101906115359190612d13565b6040516001600160e01b031960e084901b1681526004810191909152336024820152604401602060405180830381865afa158015611577573d6000803e3d6000fd5b505050506040513d601f19601f8201168201806040525081019061159b9190612ca9565b6115b75760405162461bcd60e51b815260040161054590612d63565b609754156116075760405162461bcd60e51b815260206004820181905260248201527f436f6c6c61746572616c546f6b656e416461707465722f6e6f742d63616765646044820152606401610545565b60016097556040517f1868a6ced217213f36be87ba9aee25cde5381b42e85c8f88e73b18772c0bd07390600090a150565b6000609e546000036116515750670de0b6b3a764000090565b61166561165d609e5490565b609e5461254f565b905090565b611672611a0e565b61167a611a67565b609d5460405163052e207160e31b81523360048201526001600160a01b0390911690632971038890602401602060405180830381865afa1580156116c2573d6000803e3d6000fd5b505050506040513d601f19601f820116820180604052508101906116e69190612ca9565b80611700575033600090815260a0602052604090205460ff165b61171c5760405162461bcd60e51b815260040161054590612ccb565b600080851261172b5784611734565b61173485612dbe565b90506117438787838686611f8d565b5061062c6001606555565b6099546040805163c8cc243f60e01b815290516000926001600160a01b03169163c8cc243f9160048083019260209291908290030181865afa158015611798573d6000803e3d6000fd5b505050506040513d601f19601f820116820180604052508101906117bc9190612cf6565b9050806001600160a01b03166391d14854826001600160a01b031663e58378bb6040518163ffffffff1660e01b8152600401602060405180830381865afa15801561180b573d6000803e3d6000fd5b505050506040513d601f19601f8201168201806040525081019061182f9190612d13565b6040516001600160e01b031960e084901b1681526004810191909152336024820152604401602060405180830381865afa158015611871573d6000803e3d6000fd5b505050506040513d601f19601f820116820180604052508101906118959190612ca9565b806119725750806001600160a01b03166391d14854826001600160a01b031663b536818a6040518163ffffffff1660e01b8152600401602060405180830381865afa1580156118e8573d6000803e3d6000fd5b505050506040513d601f19601f8201168201806040525081019061190c9190612d13565b6040516001600160e01b031960e084901b1681526004810191909152336024820152604401602060405180830381865afa15801561194e573d6000803e3d6000fd5b505050506040513d601f19601f820116820180604052508101906119729190612ca9565b61198e5760405162461bcd60e51b815260040161054590612d2c565b506001600160a01b0316600090815260a060205260409020805460ff19169055565b600054610100900460ff166119d75760405162461bcd60e51b815260040161054590612dda565b610db4612575565b600054610100900460ff16611a065760405162461bcd60e51b815260040161054590612dda565b610db46125a8565b600260655403611a605760405162461bcd60e51b815260206004820152601f60248201527f5265656e7472616e637947756172643a207265656e7472616e742063616c6c006044820152606401610545565b6002606555565b60335460ff1615610db45760405162461bcd60e51b815260206004820152601060248201526f14185d5cd8589b194e881c185d5cd95960821b6044820152606401610545565b8015611ca3576000611ac682611ac1611638565b6125cf565b905060008113611ae85760405162461bcd60e51b815260040161054590612e25565b336000908152609f6020526040902054811115611b615760405162461bcd60e51b815260206004820152603160248201527f436f6c6c61746572616c546f6b656e416461707465722f696e73756666696369604482015270195b9d081cdd185ad95908185b5bdd5b9d607a1b6064820152608401610545565b609954609a546001600160a01b039091169063d295927a9033611b8385612dbe565b6040516001600160e01b031960e086901b16815260048101939093526001600160a01b0390911660248301526044820152606401600060405180830381600087803b158015611bd157600080fd5b505af1158015611be5573d6000803e3d6000fd5b50505050611bf5609e54826125ec565b609e55336000908152609f6020526040902054611c1290826125ec565b336000908152609f60205260409081902091909155609b549051632e1a7d4d60e01b8152600481018490526001600160a01b0390911690632e1a7d4d90602401600060405180830381600087803b158015611c6c57600080fd5b505af1158015611c80573d6000803e3d6000fd5b5050609854611ca1925061010090046001600160a01b031690508484612648565b505b6040518181527f879a83fc17750905b8aef4ef85e6701b84a50e15d4463dc3c2e7fb0f9dbcf75d9060200160405180910390a15050565b6001606555565b611ce961274c565b6033805460ff191690557f5db9ee0a495bf2e6ff9c91a7834c1ba4fdd244a5e8aa4e537bd38aeae4b073aa335b6040516001600160a01b03909116815260200160405180910390a1565b609754600114611d855760405162461bcd60e51b815260206004820152601f60248201527f436f6c6c61746572616c546f6b656e416461707465722f6e6f742d6c697665006044820152606401610545565b8215611f17576000611d9e84611d99611638565b61254f565b905060008113611dc05760405162461bcd60e51b815260040161054590612e25565b609854611ddd9061010090046001600160a01b0316333087612795565b609954609a5460405163694ac93d60e11b815260048101919091526001600160a01b038781166024830152604482018490529091169063d295927a90606401600060405180830381600087803b158015611e3657600080fd5b505af1158015611e4a573d6000803e3d6000fd5b50505050611e5a609e54826128a5565b609e556001600160a01b0385166000908152609f6020526040902054611e8090826128a5565b6001600160a01b038087166000908152609f6020526040902091909155609b54609854611eb79261010090910481169116866128fa565b609b5460405163b6b55f2560e01b8152600481018690526001600160a01b039091169063b6b55f2590602401600060405180830381600087803b158015611efd57600080fd5b505af1158015611f11573d6000803e3d6000fd5b50505050505b6040518381527ff641ad64267ca71156d13749ad746155df3095d9afeb604fe3b53016ce5fc8ba9060200160405180910390a150505050565b611f58611a67565b6033805460ff191660011790557f62e78cea01bee320cd4e420270b5ea74000d11b0c9f74754ebdbfc544b05a258611d163390565b6099546040805163c8cc243f60e01b815290516000926001600160a01b03169163c8cc243f9160048083019260209291908290030181865afa158015611fd7573d6000803e3d6000fd5b505050506040513d601f19601f82011682018060405250810190611ffb9190612cf6565b9050806001600160a01b03166391d14854826001600160a01b0316632e718ab76040518163ffffffff1660e01b8152600401602060405180830381865afa15801561204a573d6000803e3d6000fd5b505050506040513d601f19601f8201168201806040525081019061206e9190612d13565b6040516001600160e01b031960e084901b1681526004810191909152336024820152604401602060405180830381865afa1580156120b0573d6000803e3d6000fd5b505050506040513d601f19601f820116820180604052508101906120d49190612ca9565b6121155760405162461bcd60e51b815260206004820152601260248201527110b1b7b63630ba32b930b626b0b730b3b2b960711b6044820152606401610545565b6001600160a01b0386166000908152609f6020526040812054900361218e5760405162461bcd60e51b815260206004820152602960248201527f436f6c6c61746572616c546f6b656e416461707465722f536f757263654e6f5360448201526874616b6556616c756560b81b6064820152608401610545565b6001600160a01b0386166000908152609f60205260409020546121b181866125ec565b6001600160a01b038089166000908152609f602052604080822093909355908816815220546121e090866128a5565b6001600160a01b038781166000908152609f602052604080822093909355609954609a549351630a76216560e21b815260048101949094528a8316602485015290929116906329d88594906044016040805180830381865afa15801561224a573d6000803e3d6000fd5b505050506040513d601f19601f8201168201806040525081019061226e9190612e6a565b50609954609a54604051633e2f890b60e21b815260048101919091526001600160a01b038b811660248301529293506122f6929091169063f8be242c906044015b602060405180830381865afa1580156122cc573d6000803e3d6000fd5b505050506040513d601f19601f820116820180604052508101906122f09190612d13565b826128a5565b6001600160a01b0389166000908152609f602052604090205410156123965760405162461bcd60e51b815260206004820152604a60248201527f436f6c6c61746572616c546f6b656e416461707465722f7374616b655b736f7560448201527f7263655d203c20636f6c6c61746572616c546f6b656e73202b206c6f636b656460648201526910dbdb1b185d195c985b60b21b608482015260a401610545565b609954609a54604051630a76216560e21b815260048101919091526001600160a01b038981166024830152909116906329d88594906044016040805180830381865afa1580156123ea573d6000803e3d6000fd5b505050506040513d601f19601f8201168201806040525081019061240e9190612e6a565b50609954609a54604051633e2f890b60e21b815260048101919091526001600160a01b038a81166024830152929350612453929091169063f8be242c906044016122af565b6001600160a01b0388166000908152609f602052604090205411156124f85760405162461bcd60e51b815260206004820152604f60248201527f436f6c6c61746572616c546f6b656e416461707465722f7374616b655b64657360448201527f74696e6174696f6e5d203e20636f6c6c61746572616c546f6b656e73202b206c60648201526e1bd8dad95910dbdb1b185d195c985b608a1b608482015260a401610545565b866001600160a01b0316886001600160a01b03167f11f8877fdec37577921d8bf36ca71ea534c8901eada496d759bce84bba46e2de8860405161253d91815260200190565b60405180910390a35050505050505050565b60008161256484670de0b6b3a76400006129fd565b61256e9190612e8e565b9392505050565b600054610100900460ff1661259c5760405162461bcd60e51b815260040161054590612dda565b6033805460ff19169055565b600054610100900460ff16611cda5760405162461bcd60e51b815260040161054590612dda565b600061256e6125e684670de0b6b3a76400006129fd565b83612a64565b6000826125f98382612eb0565b91508111156126425760405162461bcd60e51b815260206004820152601560248201527464732d6d6174682d7375622d756e646572666c6f7760581b6044820152606401610545565b92915050565b604080516001600160a01b038481166024830152604480830185905283518084039091018152606490920183526020820180516001600160e01b031663a9059cbb60e01b17905291516000928392908716916126a49190612ec3565b6000604051808303816000865af19150503d80600081146126e1576040519150601f19603f3d011682016040523d82523d6000602084013e6126e6565b606091505b50915091508180156127105750805115806127105750808060200190518101906127109190612ca9565b6110d45760405162461bcd60e51b815260206004820152600d60248201526c10b9b0b332aa3930b739b332b960991b6044820152606401610545565b60335460ff16610db45760405162461bcd60e51b815260206004820152601460248201527314185d5cd8589b194e881b9bdd081c185d5cd95960621b6044820152606401610545565b604080516001600160a01b0385811660248301528481166044830152606480830185905283518084039091018152608490920183526020820180516001600160e01b03166323b872dd60e01b17905291516000928392908816916127f99190612ec3565b6000604051808303816000865af19150503d8060008114612836576040519150601f19603f3d011682016040523d82523d6000602084013e61283b565b606091505b50915091508180156128655750805115806128655750808060200190518101906128659190612ca9565b61062c5760405162461bcd60e51b815260206004820152601160248201527021736166655472616e7366657246726f6d60781b6044820152606401610545565b6000826128b28382612ef2565b91508110156126425760405162461bcd60e51b815260206004820152601460248201527364732d6d6174682d6164642d6f766572666c6f7760601b6044820152606401610545565b604080516001600160a01b038481166024830152604480830185905283518084039091018152606490920183526020820180516001600160e01b031663095ea7b360e01b17905291516000928392908716916129569190612ec3565b6000604051808303816000865af19150503d8060008114612993576040519150601f19603f3d011682016040523d82523d6000602084013e612998565b606091505b50915091508180156129c25750805115806129c25750808060200190518101906129c29190612ca9565b6110d45760405162461bcd60e51b815260206004820152600c60248201526b2173616665417070726f766560a01b6044820152606401610545565b6000811580612a2157508282612a138183612f05565b9250612a1f9083612e8e565b145b6126425760405162461bcd60e51b815260206004820152601460248201527364732d6d6174682d6d756c2d6f766572666c6f7760601b6044820152606401610545565b60008161256484612a768560016125ec565b6128a5565b6001600160a01b038116811461094857600080fd5b600060208284031215612aa257600080fd5b813561256e81612a7b565b600080600080600060a08688031215612ac557600080fd5b8535612ad081612a7b565b9450602086013593506040860135612ae781612a7b565b92506060860135612af781612a7b565b91506080860135612b0781612a7b565b809150509295509295909350565b60008083601f840112612b2757600080fd5b50813567ffffffffffffffff811115612b3f57600080fd5b602083019150836020828501011115612b5757600080fd5b9250929050565b60008060008060608587031215612b7457600080fd5b8435612b7f81612a7b565b935060208501359250604085013567ffffffffffffffff811115612ba257600080fd5b612bae87828801612b15565b95989497509550505050565b600080600080600060808688031215612bd257600080fd5b8535612bdd81612a7b565b94506020860135612bed81612a7b565b935060408601359250606086013567ffffffffffffffff811115612c1057600080fd5b612c1c88828901612b15565b969995985093965092949392505050565b60008060008060008060a08789031215612c4657600080fd5b8635612c5181612a7b565b95506020870135612c6181612a7b565b94506040870135935060608701359250608087013567ffffffffffffffff811115612c8b57600080fd5b612c9789828a01612b15565b979a9699509497509295939492505050565b600060208284031215612cbb57600080fd5b8151801515811461256e57600080fd5b60208082526011908201527008541c9bde1e53dc95da1a5d19531a5cdd607a1b604082015260600190565b600060208284031215612d0857600080fd5b815161256e81612a7b565b600060208284031215612d2557600080fd5b5051919050565b60208082526017908201527f21286f776e6572526f6c65206f7220676f76526f6c6529000000000000000000604082015260600190565b60208082526025908201527f436f6c6c61746572616c546f6b656e416461707465722f6e6f742d617574686f6040820152641c9a5e995960da1b606082015260800190565b634e487b7160e01b600052601160045260246000fd5b6000600160ff1b8201612dd357612dd3612da8565b5060000390565b6020808252602b908201527f496e697469616c697a61626c653a20636f6e7472616374206973206e6f74206960408201526a6e697469616c697a696e6760a81b606082015260800190565b60208082526025908201527f436f6c6c61746572616c546f6b656e416461707465722f73686172652d6f766560408201526472666c6f7760d81b606082015260800190565b60008060408385031215612e7d57600080fd5b505080516020909101519092909150565b600082612eab57634e487b7160e01b600052601260045260246000fd5b500490565b8181038181111561264257612642612da8565b6000825160005b81811015612ee45760208186018101518583015201612eca565b506000920191825250919050565b8082018082111561264257612642612da8565b808202811582820484141761264257612642612da856fea26469706673582212200e0522cf307acb03e48f4b79ec46d5a92510bed9b7601c394c1937fb3f23b0b064736f6c63430008110033",
    "immutableReferences": {},
    "source": "// SPDX-License-Identifier: AGPL-3.0-or-later\npragma solidity 0.8.17;\n\nimport \"@openzeppelin/contracts-upgradeable/security/PausableUpgradeable.sol\";\nimport \"@openzeppelin/contracts-upgradeable/access/AccessControlUpgradeable.sol\";\nimport \"@openzeppelin/contracts-upgradeable/security/ReentrancyGuardUpgradeable.sol\";\n\nimport \"../../../interfaces/IBookKeeper.sol\";\nimport \"../../../interfaces/ICollateralAdapter.sol\";\nimport \"../../../interfaces/ICagable.sol\";\nimport \"../../../interfaces/IManager.sol\";\nimport \"../../../interfaces/IProxyRegistry.sol\";\nimport \"../../../utils/SafeToken.sol\";\nimport \"../../../interfaces/IVault.sol\";\n\ncontract CollateralTokenAdapterMath {\n    uint256 internal constant WAD = 10 ** 18;\n    uint256 internal constant RAY = 10 ** 27;\n\n    function add(uint256 _x, uint256 _y) internal pure returns (uint256 _z) {\n        require((_z = _x + _y) >= _x, \"ds-math-add-overflow\");\n    }\n\n    function sub(uint256 _x, uint256 _y) internal pure returns (uint256 _z) {\n        require((_z = _x - _y) <= _x, \"ds-math-sub-underflow\");\n    }\n\n    function mul(uint256 _x, uint256 _y) internal pure returns (uint256 _z) {\n        require(_y == 0 || (_z = _x * _y) / _y == _x, \"ds-math-mul-overflow\");\n    }\n\n    function div(uint256 _x, uint256 _y) internal pure returns (uint256 _z) {\n        require(_y > 0, \"ds-math-div-by-zero\");\n        _z = _x / _y;\n    }\n\n    function divup(uint256 _x, uint256 _y) internal pure returns (uint256 _z) {\n        _z = add(_x, sub(_y, 1)) / _y;\n    }\n\n    function wmul(uint256 _x, uint256 _y) internal pure returns (uint256 _z) {\n        _z = mul(_x, _y) / WAD;\n    }\n\n    function wdiv(uint256 _x, uint256 _y) internal pure returns (uint256 _z) {\n        _z = mul(_x, WAD) / _y;\n    }\n\n    function wdivup(uint256 _x, uint256 _y) internal pure returns (uint256 _z) {\n        _z = divup(mul(_x, WAD), _y);\n    }\n\n    function rmul(uint256 _x, uint256 _y) internal pure returns (uint256 _z) {\n        _z = mul(_x, _y) / RAY;\n    }\n\n    function rmulup(uint256 _x, uint256 _y) internal pure returns (uint256 _z) {\n        _z = divup(mul(_x, _y), RAY);\n    }\n\n    function rdiv(uint256 _x, uint256 _y) internal pure returns (uint256 _z) {\n        _z = mul(_x, RAY) / _y;\n    }\n}\n\n/// @dev receives WXDC from users and deposit in Vault.\ncontract CollateralTokenAdapter is CollateralTokenAdapterMath, ICollateralAdapter, PausableUpgradeable, ReentrancyGuardUpgradeable, ICagable {\n    using SafeToken for address;\n\n    uint256 public live;\n    bool internal flagVault;\n\n    address public collateralToken;\n    IBookKeeper public bookKeeper;\n    bytes32 public override collateralPoolId;\n\n    IVault public vault;\n    IManager public positionManager;\n    IProxyRegistry public proxyWalletFactory;\n\n    /// @dev Total CollateralTokens that has been staked in WAD\n    uint256 public totalShare;\n\n    /// @dev Mapping of user(positionAddress) => collteralTokens that he is staking\n    mapping(address => uint256) public stake;\n\n    mapping(address => bool) public whiteListed;\n\n    event LogDeposit(uint256 _val);\n    event LogWithdraw(uint256 _val);\n    event LogEmergencyWithdraw(address indexed _caller, address _to);\n    event LogMoveStake(address indexed _src, address indexed _dst, uint256 _wad);\n\n    modifier onlyOwner() {\n        IAccessControlConfig _accessControlConfig = IAccessControlConfig(bookKeeper.accessControlConfig());\n        require(_accessControlConfig.hasRole(_accessControlConfig.OWNER_ROLE(), msg.sender), \"CollateralTokenAdapter/not-authorized\");\n        _;\n    }\n\n    modifier onlyProxyWalletOrWhiteListed() {\n        require(IProxyRegistry(proxyWalletFactory).isProxy(msg.sender) || whiteListed[msg.sender], \"!ProxyOrWhiteList\");\n        _;\n    }\n\n    modifier onlyOwnerOrGov() {\n        IAccessControlConfig _accessControlConfig = IAccessControlConfig(bookKeeper.accessControlConfig());\n        require(\n            _accessControlConfig.hasRole(_accessControlConfig.OWNER_ROLE(), msg.sender) ||\n                _accessControlConfig.hasRole(_accessControlConfig.GOV_ROLE(), msg.sender),\n            \"!(ownerRole or govRole)\"\n        );\n        _;\n    }\n\n    modifier onlyCollateralManager() {\n        IAccessControlConfig _accessControlConfig = IAccessControlConfig(bookKeeper.accessControlConfig());\n        require(_accessControlConfig.hasRole(_accessControlConfig.COLLATERAL_MANAGER_ROLE(), msg.sender), \"!collateralManager\");\n        _;\n    }\n\n    function initialize(\n        address _bookKeeper,\n        bytes32 _collateralPoolId,\n        address _collateralToken,\n        address _positionManager,\n        address _proxyWalletFactory\n    ) external initializer {\n        // 1. Initialized all dependencies\n        PausableUpgradeable.__Pausable_init();\n        ReentrancyGuardUpgradeable.__ReentrancyGuard_init();\n        collateralToken = _collateralToken;\n\n        live = 1;\n\n        bookKeeper = IBookKeeper(_bookKeeper);\n        collateralPoolId = _collateralPoolId;\n\n        positionManager = IManager(_positionManager);\n\n        proxyWalletFactory = IProxyRegistry(_proxyWalletFactory);\n    }\n\n    function whitelist(address toBeWhitelisted) external onlyOwnerOrGov {\n        require(toBeWhitelisted != address(0), \"AnkrColadapter/whitelist-invalidAdds\");\n        whiteListed[toBeWhitelisted] = true;\n    }\n\n    function blacklist(address toBeRemoved) external onlyOwnerOrGov {\n        whiteListed[toBeRemoved] = false;\n    }\n\n    function cage() external override nonReentrant onlyOwner {\n        if (live == 1) {\n            live = 0;\n            emit LogCage();\n        }\n    }\n\n    function uncage() external override onlyOwner {\n        require(live == 0, \"CollateralTokenAdapter/not-caged\");\n        live = 1;\n        emit LogUncage();\n    }\n\n    function pause() external onlyOwnerOrGov {\n        _pause();\n    }\n\n    function unpause() external onlyOwnerOrGov {\n        _unpause();\n    }\n\n    function setVault(address _vault) external onlyOwner {\n        require(true != flagVault, \"CollateralTokenAdapter/Vault-set-already\");\n        flagVault = true;\n        vault = IVault(_vault);\n    }\n\n    /// @param _positionAddress The address that holding states of the position\n    /// @param _amount The XDC amount that being used as a collateral and to be staked to AnkrStakingPool\n    /// @param _data The extra data that may needs to execute the deposit\n    function deposit(\n        address _positionAddress,\n        uint256 _amount,\n        bytes calldata _data\n    ) external payable override nonReentrant whenNotPaused onlyProxyWalletOrWhiteListed {\n        _deposit(_positionAddress, _amount, _data);\n    }\n\n    /// @dev Withdraw WXDC from Vault\n    /// @param _usr The address that holding states of the position\n    /// @param _amount The WXDC col amount in Vault to be returned to proxyWallet and then to user\n    function withdraw(\n        address _usr,\n        uint256 _amount,\n        bytes calldata /* _data */\n    ) external override nonReentrant whenNotPaused onlyProxyWalletOrWhiteListed {\n        _withdraw(_usr, _amount);\n    }\n\n    function moveStake(\n        address _source,\n        address _destination,\n        uint256 _share,\n        bytes calldata _data\n    ) external override nonReentrant whenNotPaused onlyProxyWalletOrWhiteListed {\n        _moveStake(_source, _destination, _share, _data);\n    }\n\n    function onAdjustPosition(\n        address _source,\n        address _destination,\n        int256 _collateralValue,\n        int256 /* debtShare */,\n        bytes calldata _data\n    ) external override nonReentrant whenNotPaused onlyProxyWalletOrWhiteListed {\n        uint256 _unsignedCollateralValue = _collateralValue < 0 ? uint256(-_collateralValue) : uint256(_collateralValue);\n        _moveStake(_source, _destination, _unsignedCollateralValue, _data);\n    }\n\n    function onMoveCollateral(\n        address _source,\n        address _destination,\n        uint256 _share,\n        bytes calldata _data\n    ) external override nonReentrant whenNotPaused onlyProxyWalletOrWhiteListed {\n        _deposit(_source, 0, _data);\n        _moveStake(_source, _destination, _share, _data);\n    }\n\n    /// @dev Ignore collateralTokens that have been directly transferred\n    function netAssetValuation() public view returns (uint256) {\n        return totalShare;\n    }\n\n    /// @dev Return Net Assets per Share in wad\n    function netAssetPerShare() public view returns (uint256) {\n        if (totalShare == 0) return WAD;\n        else return wdiv(netAssetValuation(), totalShare);\n    }\n\n    /// @dev Lock XDC in the vault\n    /// deposit collateral tokens to staking contract, and update BookKeeper\n    /// @param _positionAddress The position address to be updated\n    /// @param _amount The amount to be deposited\n    function _deposit(address _positionAddress, uint256 _amount, bytes calldata /* _data */) private {\n        require(live == 1, \"CollateralTokenAdapter/not-live\");\n\n        if (_amount > 0) {\n            uint256 _share = wdiv(_amount, netAssetPerShare()); // [wad]\n            // Overflow check for int256(wad) cast below\n            // Also enforces a non-zero wad\n            require(int256(_share) > 0, \"CollateralTokenAdapter/share-overflow\");\n            //transfer WXDC from proxyWallet to adapter\n            address(collateralToken).safeTransferFrom(msg.sender, address(this), _amount);\n            //bookKeeping\n            bookKeeper.addCollateral(collateralPoolId, _positionAddress, int256(_share));\n            totalShare = add(totalShare, _share);\n            stake[_positionAddress] = add(stake[_positionAddress], _share);\n\n            // safeApprove to Vault\n            address(collateralToken).safeApprove(address(vault), _amount);\n            //deposit WXDC to Vault\n            vault.deposit(_amount);\n        }\n        emit LogDeposit(_amount); // wxdc\n    }\n\n    /// @dev   /// withdraw collateral tokens from staking contract, and update BookKeeper and update BookKeeper\n    /// @param _usr The position address to be updated\n    /// @param _amount The amount to be deposited\n    function _withdraw(address _usr, uint256 _amount) private {\n        if (_amount > 0) {\n            uint256 _share = wdivup(_amount, netAssetPerShare()); // [wad]\n            // Overflow check for int256(wad) cast below\n            // Also enforces a non-zero wad\n            require(int256(_share) > 0, \"CollateralTokenAdapter/share-overflow\");\n            require(stake[msg.sender] >= _share, \"CollateralTokenAdapter/insufficient staked amount\");\n\n            bookKeeper.addCollateral(collateralPoolId, msg.sender, -int256(_share));\n            totalShare = sub(totalShare, _share);\n            stake[msg.sender] = sub(stake[msg.sender], _share);\n\n            //withdraw WXDC from Vault\n            vault.withdraw(_amount);\n            //Transfer WXDC to proxyWallet\n            address(collateralToken).safeTransfer(_usr, _amount);\n        }\n        emit LogWithdraw(_amount);\n    }\n\n    /// @dev Move wad amount of staked balance from source to destination. Can only be moved if underlaying assets make sense.\n    function _moveStake(address _source, address _destination, uint256 _share, bytes calldata /* data */) private onlyCollateralManager {\n        // 1. Update collateral tokens for source and destination\n        require(stake[_source] != 0, \"CollateralTokenAdapter/SourceNoStakeValue\");\n        uint256 _stakedAmount = stake[_source];\n        stake[_source] = sub(_stakedAmount, _share);\n        stake[_destination] = add(stake[_destination], _share);\n\n        (uint256 _lockedCollateral, ) = bookKeeper.positions(collateralPoolId, _source);\n        require(\n            stake[_source] >= add(bookKeeper.collateralToken(collateralPoolId, _source), _lockedCollateral),\n            \"CollateralTokenAdapter/stake[source] < collateralTokens + lockedCollateral\"\n        );\n        (_lockedCollateral, ) = bookKeeper.positions(collateralPoolId, _destination);\n        require(\n            stake[_destination] <= add(bookKeeper.collateralToken(collateralPoolId, _destination), _lockedCollateral),\n            \"CollateralTokenAdapter/stake[destination] > collateralTokens + lockedCollateral\"\n        );\n        emit LogMoveStake(_source, _destination, _share);\n    }\n}\n",
    "sourcePath": "/Users/sangjun.lee/Sangjun/fathom-stablecoin-smart-contracts/contracts/main/stablecoin-core/adapters/CollateralTokenAdapter/CollateralTokenAdapter.sol",
    "compiler": {
        "name": "solc",
        "version": "0.8.17+commit.8df45f5f.Emscripten.clang"
    },
    "schemaVersion": "3.4.10",
    "updatedAt": "2023-04-17T09:23:54.917Z",
    "devdoc": {
        "details": "receives WXDC from users and deposit in Vault.",
        "kind": "dev",
        "methods": {
            "deposit(address,uint256,bytes)": {
                "params": {
                    "_amount": "The XDC amount that being used as a collateral and to be staked to AnkrStakingPool",
                    "_data": "The extra data that may needs to execute the deposit",
                    "_positionAddress": "The address that holding states of the position"
                }
            },
            "netAssetPerShare()": {
                "details": "Return Net Assets per Share in wad"
            },
            "netAssetValuation()": {
                "details": "Ignore collateralTokens that have been directly transferred"
            },
            "paused()": {
                "details": "Returns true if the contract is paused, and false otherwise."
            },
            "withdraw(address,uint256,bytes)": {
                "details": "Withdraw WXDC from Vault",
                "params": {
                    "_amount": "The WXDC col amount in Vault to be returned to proxyWallet and then to user",
                    "_usr": "The address that holding states of the position"
                }
            }
        },
        "stateVariables": {
            "stake": {
                "details": "Mapping of user(positionAddress) => collteralTokens that he is staking"
            },
            "totalShare": {
                "details": "Total CollateralTokens that has been staked in WAD"
            }
        },
        "version": 1
    },
    "userdoc": {
        "kind": "user",
        "methods": {},
        "version": 1
    }
}