{
    "contractName": "DexPriceOracle",
    "abi": [
        {
            "anonymous": false,
            "inputs": [
                {
                    "indexed": false,
                    "internalType": "uint8",
                    "name": "version",
                    "type": "uint8"
                }
            ],
            "name": "Initialized",
            "type": "event"
        },
        {
            "inputs": [],
            "name": "dexFactory",
            "outputs": [
                {
                    "internalType": "address",
                    "name": "",
                    "type": "address"
                }
            ],
            "stateMutability": "view",
            "type": "function"
        },
        {
            "inputs": [
                {
                    "internalType": "address",
                    "name": "_dexFactory",
                    "type": "address"
                }
            ],
            "name": "initialize",
            "outputs": [],
            "stateMutability": "nonpayable",
            "type": "function"
        },
        {
            "inputs": [
                {
                    "internalType": "address",
                    "name": "token0",
                    "type": "address"
                },
                {
                    "internalType": "address",
                    "name": "token1",
                    "type": "address"
                }
            ],
            "name": "getPrice",
            "outputs": [
                {
                    "internalType": "uint256",
                    "name": "",
                    "type": "uint256"
                },
                {
                    "internalType": "uint256",
                    "name": "",
                    "type": "uint256"
                }
            ],
            "stateMutability": "view",
            "type": "function"
        }
    ],
    "bytecode": "0x608060405234801561001057600080fd5b50610963806100206000396000f3fe608060405234801561001057600080fd5b50600436106100415760003560e01c8063ac41865a14610046578063b8d8fbb414610073578063c4d66de8146100a4575b600080fd5b6100596100543660046106cc565b6100b9565b604080519283526020830191909152015b60405180910390f35b60005461008c906201000090046001600160a01b031681565b6040516001600160a01b03909116815260200161006a565b6100b76100b2366004610705565b6103b5565b005b600080826001600160a01b0316846001600160a01b0316036101225760405162461bcd60e51b815260206004820152601a60248201527f44657850726963654f7261636c652f73616d652d746f6b656e7300000000000060448201526064015b60405180910390fd5b60008054610140906201000090046001600160a01b031686866104e1565b9050600080600061015188886105c3565b509050806001600160a01b0316886001600160a01b0316036101e557836001600160a01b0316630902f1ac6040518163ffffffff1660e01b8152600401606060405180830381865afa1580156101ab573d6000803e3d6000fd5b505050506040513d601f19601f820116820180604052508101906101cf9190610745565b506001600160701b039182169450169150610259565b836001600160a01b0316630902f1ac6040518163ffffffff1660e01b8152600401606060405180830381865afa158015610223573d6000803e3d6000fd5b505050506040513d601f19601f820116820180604052508101906102479190610745565b506001600160701b0390811694501691505b6000886001600160a01b031663313ce5676040518163ffffffff1660e01b8152600401602060405180830381865afa158015610299573d6000803e3d6000fd5b505050506040513d601f19601f820116820180604052508101906102bd9190610795565b60ff1690506000886001600160a01b031663313ce5676040518163ffffffff1660e01b8152600401602060405180830381865afa158015610302573d6000803e3d6000fd5b505050506040513d601f19601f820116820180604052508101906103269190610795565b60ff1690506000808284101561035b5761034084846107ce565b61034b90600a6108cb565b61035590886108d7565b8661037b565b8661036684866107ce565b61037190600a6108cb565b61037b90886108d7565b909250905060008161039584670de0b6b3a76400006108d7565b61039f91906108ee565b9a504299505050505050505050505b9250929050565b600054610100900460ff16158080156103d55750600054600160ff909116105b806103ef5750303b1580156103ef575060005460ff166001145b6104525760405162461bcd60e51b815260206004820152602e60248201527f496e697469616c697a61626c653a20636f6e747261637420697320616c72656160448201526d191e481a5b9a5d1a585b1a5e995960921b6064820152608401610119565b6000805460ff191660011790558015610475576000805461ff0019166101001790555b6000805462010000600160b01b031916620100006001600160a01b0385160217905580156104dd576000805461ff0019169055604051600181527f7f26b83ff96e1f2b6a682f133852f6798a09c465da95921460cefb38474024989060200160405180910390a15b5050565b60405163e6a4390560e01b81526001600160a01b0383811660048301528281166024830152600091829186169063e6a4390590604401602060405180830381865afa158015610534573d6000803e3d6000fd5b505050506040513d601f19601f820116820180604052508101906105589190610910565b90506001600160a01b0381166105bb5760405162461bcd60e51b815260206004820152602260248201527f466174686f6d537761704c6962726172793a20706169722d6e6f742d65786973604482015261747360f01b6064820152608401610119565b949350505050565b600080826001600160a01b0316846001600160a01b0316036106365760405162461bcd60e51b815260206004820152602660248201527f466174686f6d537761704c6962726172793a204944454e544943414c5f41444460448201526552455353455360d01b6064820152608401610119565b826001600160a01b0316846001600160a01b031610610656578284610659565b83835b90925090506001600160a01b0382166103ae5760405162461bcd60e51b815260206004820152601f60248201527f466174686f6d537761704c6962726172793a205a45524f5f41444452455353006044820152606401610119565b6001600160a01b03811681146106c957600080fd5b50565b600080604083850312156106df57600080fd5b82356106ea816106b4565b915060208301356106fa816106b4565b809150509250929050565b60006020828403121561071757600080fd5b8135610722816106b4565b9392505050565b80516001600160701b038116811461074057600080fd5b919050565b60008060006060848603121561075a57600080fd5b61076384610729565b925061077160208501610729565b9150604084015163ffffffff8116811461078a57600080fd5b809150509250925092565b6000602082840312156107a757600080fd5b815160ff8116811461072257600080fd5b634e487b7160e01b600052601160045260246000fd5b818103818111156107e1576107e16107b8565b92915050565b600181815b80851115610822578160001904821115610808576108086107b8565b8085161561081557918102915b93841c93908002906107ec565b509250929050565b600082610839575060016107e1565b81610846575060006107e1565b816001811461085c576002811461086657610882565b60019150506107e1565b60ff841115610877576108776107b8565b50506001821b6107e1565b5060208310610133831016604e8410600b84101617156108a5575081810a6107e1565b6108af83836107e7565b80600019048211156108c3576108c36107b8565b029392505050565b6000610722838361082a565b80820281158282048414176107e1576107e16107b8565b60008261090b57634e487b7160e01b600052601260045260246000fd5b500490565b60006020828403121561092257600080fd5b8151610722816106b456fea2646970667358221220218c19e2cd7348c98d61ead2b399408d2b72cd67d8b7eda956b375bc3e61b3dc64736f6c63430008110033",
    "immutableReferences": {},
    "source": "// SPDX-License-Identifier: AGPL-3.0-or-later\npragma solidity 0.8.17;\n\nimport \"@openzeppelin/contracts-upgradeable/proxy/utils/Initializable.sol\";\n\nimport \"./lib/FathomSwapLibrary.sol\";\nimport \"./lib/IFathomSwapPair.sol\";\nimport \"../interfaces/IFathomDEXOracle.sol\";\nimport \"../interfaces/IToken.sol\";\n\ncontract DexPriceOracle is Initializable, IFathomDEXOracle {\n    address public dexFactory;\n\n    function initialize(address _dexFactory) external initializer {\n        dexFactory = _dexFactory;\n    }\n\n    /// @dev Return the wad price of token0/token1, multiplied by 1e18 (if you have 1 token0 how much you can sell it for token1)\n    function getPrice(address token0, address token1) external view override returns (uint256, uint256) {\n        require(token0 != token1, \"DexPriceOracle/same-tokens\");\n\n        address pair = FathomSwapLibrary.pairFor(dexFactory, token0, token1);\n\n        uint256 r0;\n        uint256 r1;\n        (address tokenA, ) = FathomSwapLibrary.sortTokens(token0, token1);\n        if (token0 == tokenA) {\n            (r0, r1, ) = IFathomSwapPair(pair).getReserves();\n        } else {\n            (r1, r0, ) = IFathomSwapPair(pair).getReserves();\n        }\n\n        uint256 decimals0 = IToken(token0).decimals();\n        uint256 decimals1 = IToken(token1).decimals();\n\n        (uint256 normalized0, uint256 normalized1) = decimals0 >= decimals1\n            ? (r0, r1 * (10 ** (decimals0 - decimals1)))\n            : (r0 * (10 ** (decimals1 - decimals0)), r1);\n\n        uint price = (normalized0 * 1e18) / normalized1;\n        return (price, block.timestamp);\n    }\n}\n",
    "sourcePath": "/Users/antongrigorev/Developer/fathom-stablecoin-smart-contracts/contracts/main/price-oracles/DexPriceOracle.sol",
    "compiler": {
        "name": "solc",
        "version": "0.8.17+commit.8df45f5f.Emscripten.clang"
    },
    "schemaVersion": "3.4.13",
    "updatedAt": "2023-04-27T21:05:38.629Z",
    "devdoc": {
        "kind": "dev",
        "methods": {
            "getPrice(address,address)": {
                "details": "Return the wad price of token0/token1, multiplied by 1e18 (if you have 1 token0 how much you can sell it for token1)"
            }
        },
        "version": 1
    },
    "userdoc": {
        "kind": "user",
        "methods": {},
        "version": 1
    }
}