{
    "contractName": "DexPriceOracle",
    "abi": [
        {
            "anonymous": false,
            "inputs": [
                {
                    "indexed": false,
                    "internalType": "uint8",
                    "name": "version",
                    "type": "uint8"
                }
            ],
            "name": "Initialized",
            "type": "event"
        },
        {
            "inputs": [],
            "name": "dexFactory",
            "outputs": [
                {
                    "internalType": "address",
                    "name": "",
                    "type": "address"
                }
            ],
            "stateMutability": "view",
            "type": "function"
        },
        {
            "inputs": [
                {
                    "internalType": "address",
                    "name": "_dexFactory",
                    "type": "address"
                }
            ],
            "name": "initialize",
            "outputs": [],
            "stateMutability": "nonpayable",
            "type": "function"
        },
        {
            "inputs": [
                {
                    "internalType": "address",
                    "name": "token0",
                    "type": "address"
                },
                {
                    "internalType": "address",
                    "name": "token1",
                    "type": "address"
                }
            ],
            "name": "getPrice",
            "outputs": [
                {
                    "internalType": "uint256",
                    "name": "",
                    "type": "uint256"
                },
                {
                    "internalType": "uint256",
                    "name": "",
                    "type": "uint256"
                }
            ],
            "stateMutability": "view",
            "type": "function"
        }
    ],
    "bytecode": "0x608060405234801561001057600080fd5b5061096d806100206000396000f3fe608060405234801561001057600080fd5b50600436106100415760003560e01c8063ac41865a14610046578063b8d8fbb414610073578063c4d66de8146100a4575b600080fd5b6100596100543660046106d6565b6100b9565b604080519283526020830191909152015b60405180910390f35b60005461008c906201000090046001600160a01b031681565b6040516001600160a01b03909116815260200161006a565b6100b76100b236600461070f565b6103bf565b005b600080826001600160a01b0316846001600160a01b0316036101225760405162461bcd60e51b815260206004820152601a60248201527f44657850726963654f7261636c652f73616d652d746f6b656e7300000000000060448201526064015b60405180910390fd5b60008054610140906201000090046001600160a01b031686866104eb565b9050600080600061015188886105cd565b509050806001600160a01b0316886001600160a01b0316036101e557836001600160a01b0316630902f1ac6040518163ffffffff1660e01b8152600401606060405180830381865afa1580156101ab573d6000803e3d6000fd5b505050506040513d601f19601f820116820180604052508101906101cf919061074f565b506001600160701b039182169450169150610259565b836001600160a01b0316630902f1ac6040518163ffffffff1660e01b8152600401606060405180830381865afa158015610223573d6000803e3d6000fd5b505050506040513d601f19601f82011682018060405250810190610247919061074f565b506001600160701b0390811694501691505b6000886001600160a01b031663313ce5676040518163ffffffff1660e01b8152600401602060405180830381865afa158015610299573d6000803e3d6000fd5b505050506040513d601f19601f820116820180604052508101906102bd919061079f565b60ff1690506000886001600160a01b031663313ce5676040518163ffffffff1660e01b8152600401602060405180830381865afa158015610302573d6000803e3d6000fd5b505050506040513d601f19601f82011682018060405250810190610326919061079f565b60ff1690506000808284101561035b5761034084846107d8565b61034b90600a6108d5565b61035590886108e1565b8661037b565b8661036684866107d8565b61037190600a6108d5565b61037b90886108e1565b909250905060008161039584670de0b6b3a76400006108e1565b61039f91906108f8565b9a505067ffffffffffffffff4216985050505050505050505b9250929050565b600054610100900460ff16158080156103df5750600054600160ff909116105b806103f95750303b1580156103f9575060005460ff166001145b61045c5760405162461bcd60e51b815260206004820152602e60248201527f496e697469616c697a61626c653a20636f6e747261637420697320616c72656160448201526d191e481a5b9a5d1a585b1a5e995960921b6064820152608401610119565b6000805460ff19166001179055801561047f576000805461ff0019166101001790555b6000805462010000600160b01b031916620100006001600160a01b0385160217905580156104e7576000805461ff0019169055604051600181527f7f26b83ff96e1f2b6a682f133852f6798a09c465da95921460cefb38474024989060200160405180910390a15b5050565b60405163e6a4390560e01b81526001600160a01b0383811660048301528281166024830152600091829186169063e6a4390590604401602060405180830381865afa15801561053e573d6000803e3d6000fd5b505050506040513d601f19601f82011682018060405250810190610562919061091a565b90506001600160a01b0381166105c55760405162461bcd60e51b815260206004820152602260248201527f466174686f6d537761704c6962726172793a20706169722d6e6f742d65786973604482015261747360f01b6064820152608401610119565b949350505050565b600080826001600160a01b0316846001600160a01b0316036106405760405162461bcd60e51b815260206004820152602660248201527f466174686f6d537761704c6962726172793a204944454e544943414c5f41444460448201526552455353455360d01b6064820152608401610119565b826001600160a01b0316846001600160a01b031610610660578284610663565b83835b90925090506001600160a01b0382166103b85760405162461bcd60e51b815260206004820152601f60248201527f466174686f6d537761704c6962726172793a205a45524f5f41444452455353006044820152606401610119565b6001600160a01b03811681146106d357600080fd5b50565b600080604083850312156106e957600080fd5b82356106f4816106be565b91506020830135610704816106be565b809150509250929050565b60006020828403121561072157600080fd5b813561072c816106be565b9392505050565b80516001600160701b038116811461074a57600080fd5b919050565b60008060006060848603121561076457600080fd5b61076d84610733565b925061077b60208501610733565b9150604084015163ffffffff8116811461079457600080fd5b809150509250925092565b6000602082840312156107b157600080fd5b815160ff8116811461072c57600080fd5b634e487b7160e01b600052601160045260246000fd5b818103818111156107eb576107eb6107c2565b92915050565b600181815b8085111561082c578160001904821115610812576108126107c2565b8085161561081f57918102915b93841c93908002906107f6565b509250929050565b600082610843575060016107eb565b81610850575060006107eb565b816001811461086657600281146108705761088c565b60019150506107eb565b60ff841115610881576108816107c2565b50506001821b6107eb565b5060208310610133831016604e8410600b84101617156108af575081810a6107eb565b6108b983836107f1565b80600019048211156108cd576108cd6107c2565b029392505050565b600061072c8383610834565b80820281158282048414176107eb576107eb6107c2565b60008261091557634e487b7160e01b600052601260045260246000fd5b500490565b60006020828403121561092c57600080fd5b815161072c816106be56fea264697066735822122094c23bfd559c1f3f05b8984e5eff67cdb238a39df6be8d6424a0ad5aae1f6f4264736f6c63430008110033",
    "immutableReferences": {},
    "source": "// SPDX-License-Identifier: AGPL-3.0-or-later\npragma solidity 0.8.17;\n\nimport \"@openzeppelin/contracts-upgradeable/proxy/utils/Initializable.sol\";\n\nimport \"./lib/FathomSwapLibrary.sol\";\nimport \"./lib/IFathomSwapPair.sol\";\nimport \"../interfaces/IFathomDEXOracle.sol\";\nimport \"../interfaces/IToken.sol\";\n\ncontract DexPriceOracle is Initializable, IFathomDEXOracle {\n    address public dexFactory;\n\n    function initialize(address _dexFactory) external initializer {\n        dexFactory = _dexFactory;\n    }\n\n    /// @dev Return the wad price of token0/token1, multiplied by 1e18 (if you have 1 token0 how much you can sell it for token1)\n    function getPrice(address token0, address token1) external view override returns (uint256, uint256) {\n        require(token0 != token1, \"DexPriceOracle/same-tokens\");\n\n        address pair = FathomSwapLibrary.pairFor(dexFactory, token0, token1);\n\n        uint256 r0;\n        uint256 r1;\n        (address tokenA, ) = FathomSwapLibrary.sortTokens(token0, token1);\n        if (token0 == tokenA) {\n            (r0, r1, ) = IFathomSwapPair(pair).getReserves();\n        } else {\n            (r1, r0, ) = IFathomSwapPair(pair).getReserves();\n        }\n\n        uint256 decimals0 = IToken(token0).decimals();\n        uint256 decimals1 = IToken(token1).decimals();\n\n        (uint256 normalized0, uint256 normalized1) = decimals0 >= decimals1\n            ? (r0, r1 * (10 ** (decimals0 - decimals1)))\n            : (r0 * (10 ** (decimals1 - decimals0)), r1);\n\n        uint price = (normalized0 * 1e18) / normalized1;\n        return (price, uint64(block.timestamp));\n    }\n}\n",
    "sourcePath": "/Users/sangjun.lee/Sangjun/fathom-stablecoin-smart-contracts/contracts/main/price-oracles/DexPriceOracle.sol",
    "compiler": {
        "name": "solc",
        "version": "0.8.17+commit.8df45f5f.Emscripten.clang"
    },
    "schemaVersion": "3.4.10",
    "updatedAt": "2023-04-17T09:23:54.734Z",
    "devdoc": {
        "kind": "dev",
        "methods": {
            "getPrice(address,address)": {
                "details": "Return the wad price of token0/token1, multiplied by 1e18 (if you have 1 token0 how much you can sell it for token1)"
            }
        },
        "version": 1
    },
    "userdoc": {
        "kind": "user",
        "methods": {},
        "version": 1
    }
}