{
    "contractName": "FathomStablecoinProxyActions",
    "abi": [
        {
            "anonymous": false,
            "inputs": [
                {
                    "indexed": false,
                    "internalType": "address",
                    "name": "_positionAddress",
                    "type": "address"
                },
                {
                    "indexed": false,
                    "internalType": "uint256",
                    "name": "_FXDBorrowAmount",
                    "type": "uint256"
                }
            ],
            "name": "LogBorrowedAmount",
            "type": "event"
        },
        {
            "anonymous": false,
            "inputs": [
                {
                    "indexed": false,
                    "internalType": "address",
                    "name": "_positionAddress",
                    "type": "address"
                },
                {
                    "indexed": false,
                    "internalType": "uint256",
                    "name": "_FXDPaidAmount",
                    "type": "uint256"
                }
            ],
            "name": "LogPaidAmount",
            "type": "event"
        },
        {
            "inputs": [
                {
                    "internalType": "address",
                    "name": "_bookKeeper",
                    "type": "address"
                },
                {
                    "internalType": "address",
                    "name": "_usr",
                    "type": "address"
                }
            ],
            "name": "whitelist",
            "outputs": [],
            "stateMutability": "nonpayable",
            "type": "function"
        },
        {
            "inputs": [
                {
                    "internalType": "address",
                    "name": "_bookKeeper",
                    "type": "address"
                },
                {
                    "internalType": "address",
                    "name": "_usr",
                    "type": "address"
                }
            ],
            "name": "blacklist",
            "outputs": [],
            "stateMutability": "nonpayable",
            "type": "function"
        },
        {
            "inputs": [
                {
                    "internalType": "address",
                    "name": "_proxyRegistry",
                    "type": "address"
                },
                {
                    "internalType": "address",
                    "name": "_manager",
                    "type": "address"
                },
                {
                    "internalType": "uint256",
                    "name": "_positionId",
                    "type": "uint256"
                },
                {
                    "internalType": "address",
                    "name": "_dst",
                    "type": "address"
                }
            ],
            "name": "transferOwnershipToProxy",
            "outputs": [],
            "stateMutability": "nonpayable",
            "type": "function"
        },
        {
            "inputs": [
                {
                    "internalType": "address",
                    "name": "_manager",
                    "type": "address"
                },
                {
                    "internalType": "uint256",
                    "name": "_positionId",
                    "type": "uint256"
                },
                {
                    "internalType": "address",
                    "name": "_user",
                    "type": "address"
                },
                {
                    "internalType": "uint256",
                    "name": "_ok",
                    "type": "uint256"
                }
            ],
            "name": "allowManagePosition",
            "outputs": [],
            "stateMutability": "nonpayable",
            "type": "function"
        },
        {
            "inputs": [
                {
                    "internalType": "address",
                    "name": "_manager",
                    "type": "address"
                },
                {
                    "internalType": "address",
                    "name": "_user",
                    "type": "address"
                },
                {
                    "internalType": "uint256",
                    "name": "_ok",
                    "type": "uint256"
                }
            ],
            "name": "allowMigratePosition",
            "outputs": [],
            "stateMutability": "nonpayable",
            "type": "function"
        },
        {
            "inputs": [
                {
                    "internalType": "address",
                    "name": "_manager",
                    "type": "address"
                },
                {
                    "internalType": "uint256",
                    "name": "_positionId",
                    "type": "uint256"
                },
                {
                    "internalType": "address",
                    "name": "_destination",
                    "type": "address"
                }
            ],
            "name": "exportPosition",
            "outputs": [],
            "stateMutability": "nonpayable",
            "type": "function"
        },
        {
            "inputs": [
                {
                    "internalType": "address",
                    "name": "_manager",
                    "type": "address"
                },
                {
                    "internalType": "address",
                    "name": "_source",
                    "type": "address"
                },
                {
                    "internalType": "uint256",
                    "name": "_positionId",
                    "type": "uint256"
                }
            ],
            "name": "importPosition",
            "outputs": [],
            "stateMutability": "nonpayable",
            "type": "function"
        },
        {
            "inputs": [
                {
                    "internalType": "address",
                    "name": "_manager",
                    "type": "address"
                },
                {
                    "internalType": "uint256",
                    "name": "_source",
                    "type": "uint256"
                },
                {
                    "internalType": "uint256",
                    "name": "_destination",
                    "type": "uint256"
                }
            ],
            "name": "movePosition",
            "outputs": [],
            "stateMutability": "nonpayable",
            "type": "function"
        },
        {
            "inputs": [
                {
                    "internalType": "address",
                    "name": "_manager",
                    "type": "address"
                },
                {
                    "internalType": "address",
                    "name": "_xdcAdapter",
                    "type": "address"
                },
                {
                    "internalType": "uint256",
                    "name": "_positionId",
                    "type": "uint256"
                },
                {
                    "internalType": "address",
                    "name": "_owner",
                    "type": "address"
                },
                {
                    "internalType": "bytes",
                    "name": "_data",
                    "type": "bytes"
                }
            ],
            "name": "safeLockXDC",
            "outputs": [],
            "stateMutability": "payable",
            "type": "function"
        },
        {
            "inputs": [
                {
                    "internalType": "address",
                    "name": "_manager",
                    "type": "address"
                },
                {
                    "internalType": "address",
                    "name": "_stabilityFeeCollector",
                    "type": "address"
                },
                {
                    "internalType": "address",
                    "name": "_tokenAdapter",
                    "type": "address"
                },
                {
                    "internalType": "address",
                    "name": "_stablecoinAdapter",
                    "type": "address"
                },
                {
                    "internalType": "uint256",
                    "name": "_positionId",
                    "type": "uint256"
                },
                {
                    "internalType": "uint256",
                    "name": "_amount",
                    "type": "uint256"
                },
                {
                    "internalType": "bytes",
                    "name": "_data",
                    "type": "bytes"
                }
            ],
            "name": "draw",
            "outputs": [],
            "stateMutability": "nonpayable",
            "type": "function"
        },
        {
            "inputs": [
                {
                    "internalType": "address",
                    "name": "_manager",
                    "type": "address"
                },
                {
                    "internalType": "address",
                    "name": "_stabilityFeeCollector",
                    "type": "address"
                },
                {
                    "internalType": "address",
                    "name": "_xdcAdapter",
                    "type": "address"
                },
                {
                    "internalType": "address",
                    "name": "_stablecoinAdapter",
                    "type": "address"
                },
                {
                    "internalType": "bytes32",
                    "name": "_collateralPoolId",
                    "type": "bytes32"
                },
                {
                    "internalType": "uint256",
                    "name": "_stablecoinAmount",
                    "type": "uint256"
                },
                {
                    "internalType": "bytes",
                    "name": "_data",
                    "type": "bytes"
                }
            ],
            "name": "openLockXDCAndDraw",
            "outputs": [
                {
                    "internalType": "uint256",
                    "name": "_positionId",
                    "type": "uint256"
                }
            ],
            "stateMutability": "payable",
            "type": "function"
        },
        {
            "inputs": [
                {
                    "internalType": "address",
                    "name": "_manager",
                    "type": "address"
                },
                {
                    "internalType": "address",
                    "name": "_xdcAdapter",
                    "type": "address"
                },
                {
                    "internalType": "address",
                    "name": "_stablecoinAdapter",
                    "type": "address"
                },
                {
                    "internalType": "uint256",
                    "name": "_positionId",
                    "type": "uint256"
                },
                {
                    "internalType": "uint256",
                    "name": "_collateralAmount",
                    "type": "uint256"
                },
                {
                    "internalType": "uint256",
                    "name": "_stablecoinAmount",
                    "type": "uint256"
                },
                {
                    "internalType": "bytes",
                    "name": "_data",
                    "type": "bytes"
                }
            ],
            "name": "wipeAndUnlockXDC",
            "outputs": [],
            "stateMutability": "nonpayable",
            "type": "function"
        },
        {
            "inputs": [
                {
                    "internalType": "address",
                    "name": "_manager",
                    "type": "address"
                },
                {
                    "internalType": "address",
                    "name": "_xdcAdapter",
                    "type": "address"
                },
                {
                    "internalType": "address",
                    "name": "_stablecoinAdapter",
                    "type": "address"
                },
                {
                    "internalType": "uint256",
                    "name": "_positionId",
                    "type": "uint256"
                },
                {
                    "internalType": "uint256",
                    "name": "_collateralAmount",
                    "type": "uint256"
                },
                {
                    "internalType": "bytes",
                    "name": "_data",
                    "type": "bytes"
                }
            ],
            "name": "wipeAllAndUnlockXDC",
            "outputs": [],
            "stateMutability": "nonpayable",
            "type": "function"
        },
        {
            "inputs": [
                {
                    "internalType": "address",
                    "name": "_manager",
                    "type": "address"
                },
                {
                    "internalType": "uint256",
                    "name": "_positionId",
                    "type": "uint256"
                },
                {
                    "internalType": "address",
                    "name": "_tokenAdapter",
                    "type": "address"
                },
                {
                    "internalType": "bytes",
                    "name": "_data",
                    "type": "bytes"
                }
            ],
            "name": "redeemLockedCollateral",
            "outputs": [],
            "stateMutability": "nonpayable",
            "type": "function"
        },
        {
            "inputs": [
                {
                    "internalType": "address",
                    "name": "_adapter",
                    "type": "address"
                },
                {
                    "internalType": "address",
                    "name": "_positionAddress",
                    "type": "address"
                },
                {
                    "internalType": "uint256",
                    "name": "_stablecoinAmount",
                    "type": "uint256"
                },
                {
                    "internalType": "bytes",
                    "name": "_data",
                    "type": "bytes"
                }
            ],
            "name": "stablecoinAdapterDeposit",
            "outputs": [],
            "stateMutability": "nonpayable",
            "type": "function"
        },
        {
            "inputs": [
                {
                    "internalType": "address",
                    "name": "_adapter",
                    "type": "address"
                },
                {
                    "internalType": "address",
                    "name": "_positionAddress",
                    "type": "address"
                },
                {
                    "internalType": "bytes",
                    "name": "_data",
                    "type": "bytes"
                }
            ],
            "name": "xdcAdapterDeposit",
            "outputs": [],
            "stateMutability": "payable",
            "type": "function"
        },
        {
            "inputs": [
                {
                    "internalType": "address",
                    "name": "_adapter",
                    "type": "address"
                },
                {
                    "internalType": "address",
                    "name": "_positionAddress",
                    "type": "address"
                },
                {
                    "internalType": "uint256",
                    "name": "_amount",
                    "type": "uint256"
                },
                {
                    "internalType": "bool",
                    "name": "_transferFrom",
                    "type": "bool"
                },
                {
                    "internalType": "bytes",
                    "name": "_data",
                    "type": "bytes"
                }
            ],
            "name": "tokenAdapterDeposit",
            "outputs": [],
            "stateMutability": "nonpayable",
            "type": "function"
        },
        {
            "inputs": [
                {
                    "internalType": "address",
                    "name": "_collateralToken",
                    "type": "address"
                },
                {
                    "internalType": "address",
                    "name": "_dst",
                    "type": "address"
                },
                {
                    "internalType": "uint256",
                    "name": "_amt",
                    "type": "uint256"
                }
            ],
            "name": "transfer",
            "outputs": [],
            "stateMutability": "nonpayable",
            "type": "function"
        },
        {
            "inputs": [
                {
                    "internalType": "address",
                    "name": "_manager",
                    "type": "address"
                },
                {
                    "internalType": "bytes32",
                    "name": "_collateralPoolId",
                    "type": "bytes32"
                },
                {
                    "internalType": "address",
                    "name": "_usr",
                    "type": "address"
                }
            ],
            "name": "open",
            "outputs": [
                {
                    "internalType": "uint256",
                    "name": "_positionId",
                    "type": "uint256"
                }
            ],
            "stateMutability": "nonpayable",
            "type": "function"
        },
        {
            "inputs": [
                {
                    "internalType": "address",
                    "name": "_manager",
                    "type": "address"
                },
                {
                    "internalType": "uint256",
                    "name": "_positionId",
                    "type": "uint256"
                },
                {
                    "internalType": "address",
                    "name": "_usr",
                    "type": "address"
                }
            ],
            "name": "transferOwnership",
            "outputs": [],
            "stateMutability": "nonpayable",
            "type": "function"
        },
        {
            "inputs": [
                {
                    "internalType": "address",
                    "name": "_manager",
                    "type": "address"
                },
                {
                    "internalType": "uint256",
                    "name": "_positionId",
                    "type": "uint256"
                },
                {
                    "internalType": "int256",
                    "name": "_collateralValue",
                    "type": "int256"
                },
                {
                    "internalType": "int256",
                    "name": "_debtShare",
                    "type": "int256"
                },
                {
                    "internalType": "address",
                    "name": "_adapter",
                    "type": "address"
                },
                {
                    "internalType": "bytes",
                    "name": "_data",
                    "type": "bytes"
                }
            ],
            "name": "adjustPosition",
            "outputs": [],
            "stateMutability": "nonpayable",
            "type": "function"
        },
        {
            "inputs": [
                {
                    "internalType": "address",
                    "name": "_manager",
                    "type": "address"
                },
                {
                    "internalType": "uint256",
                    "name": "_positionId",
                    "type": "uint256"
                },
                {
                    "internalType": "address",
                    "name": "_dst",
                    "type": "address"
                },
                {
                    "internalType": "uint256",
                    "name": "_collateralAmount",
                    "type": "uint256"
                },
                {
                    "internalType": "address",
                    "name": "_adapter",
                    "type": "address"
                },
                {
                    "internalType": "bytes",
                    "name": "_data",
                    "type": "bytes"
                }
            ],
            "name": "moveCollateral",
            "outputs": [],
            "stateMutability": "nonpayable",
            "type": "function"
        },
        {
            "inputs": [
                {
                    "internalType": "address",
                    "name": "_manager",
                    "type": "address"
                },
                {
                    "internalType": "uint256",
                    "name": "_positionId",
                    "type": "uint256"
                },
                {
                    "internalType": "address",
                    "name": "_dst",
                    "type": "address"
                },
                {
                    "internalType": "uint256",
                    "name": "_stablecoinValue",
                    "type": "uint256"
                }
            ],
            "name": "moveStablecoin",
            "outputs": [],
            "stateMutability": "nonpayable",
            "type": "function"
        },
        {
            "inputs": [
                {
                    "internalType": "address",
                    "name": "_manager",
                    "type": "address"
                },
                {
                    "internalType": "address",
                    "name": "_xdcAdapter",
                    "type": "address"
                },
                {
                    "internalType": "uint256",
                    "name": "_positionId",
                    "type": "uint256"
                },
                {
                    "internalType": "bytes",
                    "name": "_data",
                    "type": "bytes"
                }
            ],
            "name": "lockXDC",
            "outputs": [],
            "stateMutability": "payable",
            "type": "function"
        },
        {
            "inputs": [
                {
                    "internalType": "address",
                    "name": "_manager",
                    "type": "address"
                },
                {
                    "internalType": "address",
                    "name": "_stabilityFeeCollector",
                    "type": "address"
                },
                {
                    "internalType": "address",
                    "name": "_xdcAdapter",
                    "type": "address"
                },
                {
                    "internalType": "address",
                    "name": "_stablecoinAdapter",
                    "type": "address"
                },
                {
                    "internalType": "uint256",
                    "name": "_positionId",
                    "type": "uint256"
                },
                {
                    "internalType": "uint256",
                    "name": "_stablecoinAmount",
                    "type": "uint256"
                },
                {
                    "internalType": "bytes",
                    "name": "_data",
                    "type": "bytes"
                }
            ],
            "name": "lockXDCAndDraw",
            "outputs": [],
            "stateMutability": "payable",
            "type": "function"
        },
        {
            "inputs": [
                {
                    "internalType": "contract IManager",
                    "name": "_manager",
                    "type": "address"
                },
                {
                    "internalType": "address",
                    "name": "_stabilityFeeCollector",
                    "type": "address"
                },
                {
                    "internalType": "address",
                    "name": "_tokenAdapter",
                    "type": "address"
                },
                {
                    "internalType": "address",
                    "name": "_stablecoinAdapter",
                    "type": "address"
                },
                {
                    "internalType": "uint256",
                    "name": "_positionId",
                    "type": "uint256"
                },
                {
                    "internalType": "uint256",
                    "name": "_collateralAmount",
                    "type": "uint256"
                },
                {
                    "internalType": "uint256",
                    "name": "_stablecoinAmount",
                    "type": "uint256"
                },
                {
                    "internalType": "bool",
                    "name": "_transferFrom",
                    "type": "bool"
                },
                {
                    "internalType": "bytes",
                    "name": "_data",
                    "type": "bytes"
                }
            ],
            "name": "lockTokenAndDraw",
            "outputs": [],
            "stateMutability": "nonpayable",
            "type": "function"
        },
        {
            "inputs": [
                {
                    "internalType": "address",
                    "name": "_manager",
                    "type": "address"
                },
                {
                    "internalType": "address",
                    "name": "_stabilityFeeCollector",
                    "type": "address"
                },
                {
                    "internalType": "address",
                    "name": "_tokenAdapter",
                    "type": "address"
                },
                {
                    "internalType": "address",
                    "name": "_stablecoinAdapter",
                    "type": "address"
                },
                {
                    "internalType": "bytes32",
                    "name": "_collateralPoolId",
                    "type": "bytes32"
                },
                {
                    "internalType": "uint256",
                    "name": "_collateralAmount",
                    "type": "uint256"
                },
                {
                    "internalType": "uint256",
                    "name": "_stablecoinAmount",
                    "type": "uint256"
                },
                {
                    "internalType": "bool",
                    "name": "_transferFrom",
                    "type": "bool"
                },
                {
                    "internalType": "bytes",
                    "name": "_data",
                    "type": "bytes"
                }
            ],
            "name": "openLockTokenAndDraw",
            "outputs": [
                {
                    "internalType": "uint256",
                    "name": "_positionId",
                    "type": "uint256"
                }
            ],
            "stateMutability": "nonpayable",
            "type": "function"
        },
        {
            "inputs": [
                {
                    "internalType": "address",
                    "name": "_manager",
                    "type": "address"
                },
                {
                    "internalType": "address",
                    "name": "_tokenAdapter",
                    "type": "address"
                },
                {
                    "internalType": "address",
                    "name": "_stablecoinAdapter",
                    "type": "address"
                },
                {
                    "internalType": "uint256",
                    "name": "_positionId",
                    "type": "uint256"
                },
                {
                    "internalType": "uint256",
                    "name": "_collateralAmount",
                    "type": "uint256"
                },
                {
                    "internalType": "uint256",
                    "name": "_stablecoinAmount",
                    "type": "uint256"
                },
                {
                    "internalType": "bytes",
                    "name": "_data",
                    "type": "bytes"
                }
            ],
            "name": "wipeAndUnlockToken",
            "outputs": [],
            "stateMutability": "nonpayable",
            "type": "function"
        },
        {
            "inputs": [
                {
                    "internalType": "address",
                    "name": "_manager",
                    "type": "address"
                },
                {
                    "internalType": "address",
                    "name": "_tokenAdapter",
                    "type": "address"
                },
                {
                    "internalType": "address",
                    "name": "_stablecoinAdapter",
                    "type": "address"
                },
                {
                    "internalType": "uint256",
                    "name": "_positionId",
                    "type": "uint256"
                },
                {
                    "internalType": "uint256",
                    "name": "_collateralAmount",
                    "type": "uint256"
                },
                {
                    "internalType": "bytes",
                    "name": "_data",
                    "type": "bytes"
                }
            ],
            "name": "wipeAllAndUnlockToken",
            "outputs": [],
            "stateMutability": "nonpayable",
            "type": "function"
        }
    ],
    "bytecode": "0x608060405234801561001057600080fd5b50613d47806100206000396000f3fe6080604052600436106101c25760003560e01c806399ea511e116100f7578063b66291fb11610095578063cb77334d11610064578063cb77334d146104c7578063ce4af695146104e7578063cf588ca014610507578063fd7039031461052757600080fd5b8063b66291fb14610447578063b7c9836b14610467578063beabacc814610487578063bf33c1b8146104a757600080fd5b8063a341fab1116100d1578063a341fab1146103c7578063ad28ff88146103e7578063ad33f40014610407578063b092145e1461042757600080fd5b806399ea511e146103675780639a4e502014610387578063a02ce94d146103a757600080fd5b8063651d4b6a1161016457806385d6aeb41161013e57806385d6aeb4146102f45780638889d0f41461031457806388e234dd14610334578063916a8ae11461034757600080fd5b8063651d4b6a1461028f57806368d7e633146102a25780636aa3ee11146102c257600080fd5b80632d5e9f1d116101a05780632d5e9f1d1461020f57806342f059ee1461022f5780635c648c2b1461024f578063602fe0f61461026f57600080fd5b80630b74a2c0146101c75780631487493e146101e9578063259d4649146101fc575b600080fd5b3480156101d357600080fd5b506101e76101e23660046132d0565b61053a565b005b6101e76101f7366004613371565b61087f565b6101e761020a3660046133e4565b610919565b34801561021b57600080fd5b506101e761022a366004613449565b610a56565b34801561023b57600080fd5b506101e761024a36600461349c565b610c1f565b34801561025b57600080fd5b506101e761026a366004613371565b610c84565b34801561027b57600080fd5b506101e761028a3660046134dd565b610d81565b6101e761029d3660046132d0565b610df1565b3480156102ae57600080fd5b506101e76102bd366004613525565b610f5b565b3480156102ce57600080fd5b506102e26102dd3660046135ab565b610fcc565b60405190815260200160405180910390f35b34801561030057600080fd5b506101e761030f36600461349c565b61104b565b34801561032057600080fd5b506101e761032f3660046135fb565b611079565b6102e26103423660046132d0565b611142565b34801561035357600080fd5b506101e7610362366004613680565b61116d565b34801561037357600080fd5b506102e26103823660046136f0565b611542565b34801561039357600080fd5b506101e76103a23660046135ab565b611571565b3480156103b357600080fd5b506101e76103c23660046137b2565b6115a6565b3480156103d357600080fd5b506101e76103e236600461382a565b61195d565b3480156103f357600080fd5b506101e761040236600461385f565b611991565b34801561041357600080fd5b506101e7610422366004613898565b6119e9565b34801561043357600080fd5b506101e761044236600461385f565b611a1f565b34801561045357600080fd5b506101e76104623660046134dd565b611a4d565b34801561047357600080fd5b506101e76104823660046135ab565b611a89565b34801561049357600080fd5b506101e76104a236600461349c565b611abe565b3480156104b357600080fd5b506101e76104c23660046138ec565b611ad7565b3480156104d357600080fd5b506101e76104e23660046137b2565b611b0b565b3480156104f357600080fd5b506101e76105023660046136f0565b611f12565b34801561051357600080fd5b506101e7610522366004613680565b6123cb565b6101e7610535366004613942565b612720565b60405163133f757160e31b8152600481018590526000906001600160a01b038a16906399fbab8890602401602060405180830381865afa158015610582573d6000803e3d6000fd5b505050506040513d601f19601f820116820180604052508101906105a6919061398d565b90506000896001600160a01b031663e3b3932a6040518163ffffffff1660e01b8152600401602060405180830381865afa1580156105e8573d6000803e3d6000fd5b505050506040513d601f19601f8201168201806040525081019061060c919061398d565b6040516336df277960e11b8152600481018890529091506000906001600160a01b038c1690636dbe4ef290602401602060405180830381865afa158015610657573d6000803e3d6000fd5b505050506040513d601f19601f8201168201806040525081019061067b91906139aa565b90506106998b886000610691868f89888e6127da565b8d8a8a610f5b565b6106a88b883061028a8a61294c565b60405163d9ea915560e01b81523060048201526001600160a01b03898116602483015283169063d9ea915590604401602060405180830381865afa1580156106f4573d6000803e3d6000fd5b505050506040513d601f19601f8201168201806040525081019061071891906139aa565b60000361077b57604051634d8c928d60e11b81526001600160a01b038981166004830152831690639b19251a90602401600060405180830381600087803b15801561076257600080fd5b505af1158015610776573d6000803e3d6000fd5b505050505b6040516331f0926560e01b81526001600160a01b038916906331f09265906107ad9033908a908a908a906004016139ec565b600060405180830381600087803b1580156107c757600080fd5b505af11580156107db573d6000803e3d6000fd5b50506040516319d224a160e31b8152600481018490526001600160a01b038e16925063ce9125089150602401600060405180830381600087803b15801561082157600080fd5b505af1158015610835573d6000803e3d6000fd5b505050507fe83a08ae515fd9df0f768f1e44ddb4ab75353eb54f92aa8caac1d277804ee9a5838760405161086a929190613a1e565b60405180910390a15050505050505050505050565b60405163133f757160e31b8152600481018490526000906001600160a01b038716906399fbab8890602401602060405180830381865afa1580156108c7573d6000803e3d6000fd5b505050506040513d601f19601f820116820180604052508101906108eb919061398d565b90506108f985828585610919565b61091186856109073461296a565b6000898888610f5b565b505050505050565b6000846001600160a01b031663b2016bd46040518163ffffffff1660e01b81526004016020604051808303816000875af115801561095b573d6000803e3d6000fd5b505050506040513d601f19601f8201168201806040525081019061097f919061398d565b9050806001600160a01b031663d0e30db0346040518263ffffffff1660e01b81526004016000604051808303818588803b1580156109bc57600080fd5b505af11580156109d0573d6000803e3d6000fd5b506109eb935050506001600160a01b038316905086346129b0565b604051630937b85760e31b81526001600160a01b038616906349bdc2b890610a1d9087903490889088906004016139ec565b600060405180830381600087803b158015610a3757600080fd5b505af1158015610a4b573d6000803e3d6000fd5b505050505050505050565b60405163c455279160e01b81526001600160a01b0382811660048301526000919086169063c455279190602401602060405180830381865afa158015610aa0573d6000803e3d6000fd5b505050506040513d601f19601f82011682018060405250810190610ac4919061398d565b90506001600160a01b0381161580610b4f5750816001600160a01b0316816001600160a01b0316638da5cb5b6040518163ffffffff1660e01b8152600401602060405180830381865afa158015610b1f573d6000803e3d6000fd5b505050506040513d601f19601f82011682018060405250810190610b43919061398d565b6001600160a01b031614155b15610c0d57813b8015610b9d5760405162461bcd60e51b8152602060048201526011602482015270111cdd0b5a5ccb584b58dbdb9d1c9858dd607a1b60448201526064015b60405180910390fd5b6040516379b80ed160e11b81526001600160a01b03848116600483015287169063f3701da2906024016020604051808303816000875af1158015610be5573d6000803e3d6000fd5b505050506040513d601f19601f82011682018060405250810190610c09919061398d565b9150505b610c18848483611571565b5050505050565b604051632309463960e01b81526001600160a01b03841690632309463990610c4d9085908590600401613a1e565b600060405180830381600087803b158015610c6757600080fd5b505af1158015610c7b573d6000803e3d6000fd5b50505050505050565b6000856001600160a01b031663e9cbd8226040518163ffffffff1660e01b81526004016020604051808303816000875af1158015610cc6573d6000803e3d6000fd5b505050506040513d601f19601f82011682018060405250810190610cea919061398d565b9050610d016001600160a01b038216333087612ab5565b610d156001600160a01b03821687866129b0565b604051630937b85760e31b81526001600160a01b038716906349bdc2b890610d479088908890889088906004016139ec565b600060405180830381600087803b158015610d6157600080fd5b505af1158015610d75573d6000803e3d6000fd5b50505050505050505050565b6040516318d326fd60e31b8152600481018490526001600160a01b0383811660248301526044820183905285169063c69937e8906064015b600060405180830381600087803b158015610dd357600080fd5b505af1158015610de7573d6000803e3d6000fd5b5050505050505050565b60405163133f757160e31b8152600481018590526000906001600160a01b038a16906399fbab8890602401602060405180830381865afa158015610e39573d6000803e3d6000fd5b505050506040513d601f19601f82011682018060405250810190610e5d919061398d565b90506000896001600160a01b031663e3b3932a6040518163ffffffff1660e01b8152600401602060405180830381865afa158015610e9f573d6000803e3d6000fd5b505050506040513d601f19601f82011682018060405250810190610ec3919061398d565b6040516336df277960e11b8152600481018890529091506000906001600160a01b038c1690636dbe4ef290602401602060405180830381865afa158015610f0e573d6000803e3d6000fd5b505050506040513d601f19601f82011682018060405250810190610f3291906139aa565b9050610f4089848787610919565b6106998b88610f4e3461296a565b610691868f89888e6127da565b6040516319202b7960e01b81526001600160a01b038816906319202b7990610f9190899089908990899089908990600401613a37565b600060405180830381600087803b158015610fab57600080fd5b505af1158015610fbf573d6000803e3d6000fd5b5050505050505050505050565b604051636090dec560e01b8152600481018390526001600160a01b03828116602483015260009190851690636090dec5906044016020604051808303816000875af115801561101f573d6000803e3d6000fd5b505050506040513d601f19601f8201168201806040525081019061104391906139aa565b949350505050565b6040516373cc200d60e11b81526001600160a01b0384169063e798401a90610c4d9085908590600401613a1e565b6000866001600160a01b031663b2016bd46040518163ffffffff1660e01b81526004016020604051808303816000875af11580156110bb573d6000803e3d6000fd5b505050506040513d601f19601f820116820180604052508101906110df919061398d565b905083156110fc576110fc6001600160a01b038216333088612ab5565b6111106001600160a01b03821688876129b0565b604051630937b85760e31b81526001600160a01b038816906349bdc2b890610f919089908990889088906004016139ec565b600061114f898630610fcc565b90506111618989898985898989610df1565b98975050505050505050565b6000876001600160a01b031663e3b3932a6040518163ffffffff1660e01b8152600401602060405180830381865afa1580156111ad573d6000803e3d6000fd5b505050506040513d601f19601f820116820180604052508101906111d1919061398d565b60405163133f757160e31b8152600481018790529091506000906001600160a01b038a16906399fbab8890602401602060405180830381865afa15801561121c573d6000803e3d6000fd5b505050506040513d601f19601f82011682018060405250810190611240919061398d565b6040516336df277960e11b8152600481018890529091506000906001600160a01b038b1690636dbe4ef290602401602060405180830381865afa15801561128b573d6000803e3d6000fd5b505050506040513d601f19601f820116820180604052508101906112af91906139aa565b604051630a76216560e21b8152600481018290526001600160a01b0384811660248301529192506000918516906329d88594906044016040805180830381865afa158015611301573d6000803e3d6000fd5b505050506040513d601f19601f820116820180604052508101906113259190613a6b565b915050600061133685858686612bc5565b90506113458a85838a8a610c84565b61136d8c8a6113538b61296a565b61135c90613aa5565b61136586613aa5565b8f8c8c610f5b565b87156114b3576113828c8a308b8f8c8c6119e9565b6040516331f0926560e01b81526001600160a01b038c16906331f09265906113b49030908c908c908c906004016139ec565b600060405180830381600087803b1580156113ce57600080fd5b505af11580156113e2573d6000803e3d6000fd5b505050508a6001600160a01b031663b2016bd46040518163ffffffff1660e01b81526004016020604051808303816000875af1158015611426573d6000803e3d6000fd5b505050506040513d601f19601f8201168201806040525081019061144a919061398d565b6001600160a01b0316632e1a7d4d896040518263ffffffff1660e01b815260040161147791815260200190565b600060405180830381600087803b15801561149157600080fd5b505af11580156114a5573d6000803e3d6000fd5b505050506114b33389612df2565b6040516319d224a160e31b8152600481018490526001600160a01b038d169063ce91250890602401600060405180830381600087803b1580156114f557600080fd5b505af1158015611509573d6000803e3d6000fd5b50505050600080516020613cf2833981519152848260405161152c929190613a1e565b60405180910390a1505050505050505050505050565b600061154f8b8830610fcc565b90506115638b8b8b8b858b8b8b8b8b611f12565b9a9950505050505050505050565b604051631f95f98d60e31b8152600481018390526001600160a01b03828116602483015284169063fcafcc6890604401610c4d565b60405163133f757160e31b8152600481018690526000906001600160a01b038a16906399fbab8890602401602060405180830381865afa1580156115ee573d6000803e3d6000fd5b505050506040513d601f19601f82011682018060405250810190611612919061398d565b6040516336df277960e11b8152600481018890529091506000906001600160a01b038b1690636dbe4ef290602401602060405180830381865afa15801561165d573d6000803e3d6000fd5b505050506040513d601f19601f8201168201806040525081019061168191906139aa565b90506116908883878787610c84565b600061169c8a88612ea2565b905060006118488c6001600160a01b031663e3b3932a6040518163ffffffff1660e01b8152600401602060405180830381865afa1580156116e1573d6000803e3d6000fd5b505050506040513d601f19601f82011682018060405250810190611705919061398d565b8d6001600160a01b031663e3b3932a6040518163ffffffff1660e01b8152600401602060405180830381865afa158015611743573d6000803e3d6000fd5b505050506040513d601f19601f82011682018060405250810190611767919061398d565b60405163b4ac08bb60e01b81526001600160a01b038881166004830152919091169063b4ac08bb90602401602060405180830381865afa1580156117af573d6000803e3d6000fd5b505050506040513d601f19601f820116820180604052508101906117d391906139aa565b868f6001600160a01b0316636dbe4ef28e6040518263ffffffff1660e01b815260040161180291815260200190565b602060405180830381865afa15801561181f573d6000803e3d6000fd5b505050506040513d601f19601f8201168201806040525081019061184391906139aa565b612f2e565b905061186a8c8a6118588561296a565b61186190613aa5565b848f8b8b610f5b565b87156118e45761187f8c8a30858f8b8b6119e9565b6040516331f0926560e01b81526001600160a01b038c16906331f09265906118b19033908c908b908b906004016139ec565b600060405180830381600087803b1580156118cb57600080fd5b505af11580156118df573d6000803e3d6000fd5b505050505b6040516319d224a160e31b8152600481018490526001600160a01b038d169063ce91250890602401600060405180830381600087803b15801561192657600080fd5b505af115801561193a573d6000803e3d6000fd5b50505050600080516020613cf2833981519152848860405161152c929190613a1e565b60405163a3cf2f4f60e01b815260048101839052602481018290526001600160a01b0384169063a3cf2f4f90604401610c4d565b604051633e7e4af960e21b81526001600160a01b03828116600483015283169063f9f92be4906024015b600060405180830381600087803b1580156119d557600080fd5b505af1158015610911573d6000803e3d6000fd5b60405163571dbb7960e01b81526001600160a01b0388169063571dbb7990610f9190899089908990899089908990600401613ac1565b604051634d8c928d60e11b81526001600160a01b038281166004830152831690639b19251a906024016119bb565b604051638876e58960e01b8152600481018490526001600160a01b03838116602483015260448201839052851690638876e58990606401610db9565b60405163ba9a392560e01b8152600481018390526001600160a01b03828116602483015284169063ba9a392590604401610c4d565b611ad26001600160a01b03841683836130bd565b505050565b604051636bd2c56560e01b81526001600160a01b03861690636bd2c56590610a1d9087908790309088908890600401613afb565b60405163133f757160e31b8152600481018690526000906001600160a01b038a16906399fbab8890602401602060405180830381865afa158015611b53573d6000803e3d6000fd5b505050506040513d601f19601f82011682018060405250810190611b77919061398d565b6040516336df277960e11b8152600481018890529091506000906001600160a01b038b1690636dbe4ef290602401602060405180830381865afa158015611bc2573d6000803e3d6000fd5b505050506040513d601f19601f82011682018060405250810190611be691906139aa565b9050611bf58883878787610c84565b6000611d318b6001600160a01b031663e3b3932a6040518163ffffffff1660e01b8152600401602060405180830381865afa158015611c38573d6000803e3d6000fd5b505050506040513d601f19601f82011682018060405250810190611c5c919061398d565b8c6001600160a01b031663e3b3932a6040518163ffffffff1660e01b8152600401602060405180830381865afa158015611c9a573d6000803e3d6000fd5b505050506040513d601f19601f82011682018060405250810190611cbe919061398d565b60405163b4ac08bb60e01b81526001600160a01b038781166004830152919091169063b4ac08bb90602401602060405180830381865afa158015611d06573d6000803e3d6000fd5b505050506040513d601f19601f82011682018060405250810190611d2a91906139aa565b8585612f2e565b9050611d538b89611d418a61296a565b611d4a90613aa5565b848e8a8a610f5b565b8615611e9957611d688b89308a8e8a8a6119e9565b6040516331f0926560e01b81526001600160a01b038b16906331f0926590611d9a9030908b908a908a906004016139ec565b600060405180830381600087803b158015611db457600080fd5b505af1158015611dc8573d6000803e3d6000fd5b50505050896001600160a01b031663b2016bd46040518163ffffffff1660e01b81526004016020604051808303816000875af1158015611e0c573d6000803e3d6000fd5b505050506040513d601f19601f82011682018060405250810190611e30919061398d565b6001600160a01b0316632e1a7d4d886040518263ffffffff1660e01b8152600401611e5d91815260200190565b600060405180830381600087803b158015611e7757600080fd5b505af1158015611e8b573d6000803e3d6000fd5b50505050611e993388612df2565b6040516319d224a160e31b8152600481018390526001600160a01b038c169063ce91250890602401600060405180830381600087803b158015611edb57600080fd5b505af1158015611eef573d6000803e3d6000fd5b50505050600080516020613cf2833981519152838760405161086a929190613a1e565b6040516336df277960e11b8152600481018790526000906001600160a01b038c1690636dbe4ef290602401602060405180830381865afa158015611f5a573d6000803e3d6000fd5b505050506040513d601f19601f82011682018060405250810190611f7e91906139aa565b9050611ffc898c6001600160a01b03166399fbab888a6040518263ffffffff1660e01b8152600401611fb291815260200190565b602060405180830381865afa158015611fcf573d6000803e3d6000fd5b505050506040513d601f19601f82011682018060405250810190611ff3919061398d565b88878787611079565b600061201061200b8b89612ea2565b61296a565b905060006120f08d6001600160a01b031663e3b3932a6040518163ffffffff1660e01b8152600401602060405180830381865afa158015612055573d6000803e3d6000fd5b505050506040513d601f19601f82011682018060405250810190612079919061398d565b8d8f6001600160a01b03166399fbab888d6040518263ffffffff1660e01b81526004016120a891815260200190565b602060405180830381865afa1580156120c5573d6000803e3d6000fd5b505050506040513d601f19601f820116820180604052508101906120e9919061398d565b868b6127da565b90506121018d8a84848f8a8a610f5b565b6121108d8a3061028a8b61294c565b8c6001600160a01b031663e3b3932a6040518163ffffffff1660e01b8152600401602060405180830381865afa15801561214e573d6000803e3d6000fd5b505050506040513d601f19601f82011682018060405250810190612172919061398d565b60405163d9ea915560e01b81523060048201526001600160a01b038c81166024830152919091169063d9ea915590604401602060405180830381865afa1580156121c0573d6000803e3d6000fd5b505050506040513d601f19601f820116820180604052508101906121e491906139aa565b6000036122ab578c6001600160a01b031663e3b3932a6040518163ffffffff1660e01b8152600401602060405180830381865afa158015612229573d6000803e3d6000fd5b505050506040513d601f19601f8201168201806040525081019061224d919061398d565b604051634d8c928d60e11b81526001600160a01b038c811660048301529190911690639b19251a90602401600060405180830381600087803b15801561229257600080fd5b505af11580156122a6573d6000803e3d6000fd5b505050505b6040516331f0926560e01b81526001600160a01b038b16906331f09265906122dd9033908b908a908a906004016139ec565b600060405180830381600087803b1580156122f757600080fd5b505af115801561230b573d6000803e3d6000fd5b5050505060008d6001600160a01b03166399fbab888b6040518263ffffffff1660e01b815260040161233f91815260200190565b602060405180830381865afa15801561235c573d6000803e3d6000fd5b505050506040513d601f19601f82011682018060405250810190612380919061398d565b90507fe83a08ae515fd9df0f768f1e44ddb4ab75353eb54f92aa8caac1d277804ee9a581896040516123b3929190613a1e565b60405180910390a15050505050505050505050505050565b60405163133f757160e31b8152600481018590526000906001600160a01b038916906399fbab8890602401602060405180830381865afa158015612413573d6000803e3d6000fd5b505050506040513d601f19601f82011682018060405250810190612437919061398d565b6040516336df277960e11b8152600481018790529091506000906001600160a01b038a1690636dbe4ef290602401602060405180830381865afa158015612482573d6000803e3d6000fd5b505050506040513d601f19601f820116820180604052508101906124a691906139aa565b90506000896001600160a01b031663e3b3932a6040518163ffffffff1660e01b8152600401602060405180830381865afa1580156124e8573d6000803e3d6000fd5b505050506040513d601f19601f8201168201806040525081019061250c919061398d565b604051630a76216560e21b8152600481018490526001600160a01b03858116602483015291909116906329d88594906044016040805180830381865afa15801561255a573d6000803e3d6000fd5b505050506040513d601f19601f8201168201806040525081019061257e9190613a6b565b91505060006125f08b6001600160a01b031663e3b3932a6040518163ffffffff1660e01b8152600401602060405180830381865afa1580156125c4573d6000803e3d6000fd5b505050506040513d601f19601f820116820180604052508101906125e8919061398d565b858686612bc5565b90506125ff8985838989610c84565b600061260b8b89612ea2565b905061262d8c8a61261b8461296a565b61262490613aa5565b61136587613aa5565b87156126a7576126428c8a30848f8c8c6119e9565b6040516331f0926560e01b81526001600160a01b038c16906331f09265906126749033908c908c908c906004016139ec565b600060405180830381600087803b15801561268e57600080fd5b505af11580156126a2573d6000803e3d6000fd5b505050505b6040516319d224a160e31b8152600481018590526001600160a01b038d169063ce91250890602401600060405180830381600087803b1580156126e957600080fd5b505af11580156126fd573d6000803e3d6000fd5b50505050600080516020613cf2833981519152858360405161152c929190613a1e565b60405163025e7c2760e01b8152600481018590526001600160a01b03808516919088169063025e7c2790602401602060405180830381865afa15801561276a573d6000803e3d6000fd5b505050506040513d601f19601f8201168201806040525081019061278e919061398d565b6001600160a01b0316146127cd5760405162461bcd60e51b815260206004820152600660248201526510b7bbb732b960d11b6044820152606401610b94565b610911868686858561087f565b60405163497777d560e01b81526004810183905260009081906001600160a01b0387169063497777d5906024016020604051808303816000875af1158015612826573d6000803e3d6000fd5b505050506040513d601f19601f8201168201806040525081019061284a91906139aa565b60405163b4ac08bb60e01b81526001600160a01b03878116600483015291925060009189169063b4ac08bb90602401602060405180830381865afa158015612896573d6000803e3d6000fd5b505050506040513d601f19601f820116820180604052508101906128ba91906139aa565b90506128d2846b033b2e3c9fd0803ce80000006131c3565b81101561294157612906826128fc6128f6876b033b2e3c9fd0803ce80000006131c3565b84613222565b61200b9190613b2e565b925061291e846b033b2e3c9fd0803ce80000006131c3565b61292884846131c3565b10612933578261293e565b61293e836001613b50565b92505b505095945050505050565b6000612964826b033b2e3c9fd0803ce80000006131c3565b92915050565b8060008112156129ab5760405162461bcd60e51b815260206004820152600c60248201526b696e742d6f766572666c6f7760a01b6044820152606401610b94565b919050565b600080846001600160a01b031663095ea7b385856040516024016129d5929190613a1e565b6040516020818303038152906040529060e01b6020820180516001600160e01b038381831617835250505050604051612a0e9190613b78565b6000604051808303816000865af19150503d8060008114612a4b576040519150601f19603f3d011682016040523d82523d6000602084013e612a50565b606091505b5091509150818015612a7a575080511580612a7a575080806020019051810190612a7a9190613ba7565b610c185760405162461bcd60e51b815260206004820152600c60248201526b2173616665417070726f766560a01b6044820152606401610b94565b604080516001600160a01b0385811660248301528481166044830152606480830185905283518084039091018152608490920183526020820180516001600160e01b03166323b872dd60e01b1790529151600092839290881691612b199190613b78565b6000604051808303816000865af19150503d8060008114612b56576040519150601f19603f3d011682016040523d82523d6000602084013e612b5b565b606091505b5091509150818015612b85575080511580612b85575080806020019051810190612b859190613ba7565b6109115760405162461bcd60e51b815260206004820152601160248201527021736166655472616e7366657246726f6d60781b6044820152606401610b94565b600080856001600160a01b031663d86824616040518163ffffffff1660e01b8152600401602060405180830381865afa158015612c06573d6000803e3d6000fd5b505050506040513d601f19601f82011682018060405250810190612c2a919061398d565b6001600160a01b031663a09b0fe0846040518263ffffffff1660e01b8152600401612c5791815260200190565b602060405180830381865afa158015612c74573d6000803e3d6000fd5b505050506040513d601f19601f82011682018060405250810190612c9891906139aa565b604051630a76216560e21b8152600481018590526001600160a01b0386811660248301529192506000918816906329d88594906044016040805180830381865afa158015612cea573d6000803e3d6000fd5b505050506040513d601f19601f82011682018060405250810190612d0e9190613a6b565b60405163b4ac08bb60e01b81526001600160a01b038981166004830152919350600092509089169063b4ac08bb90602401602060405180830381865afa158015612d5c573d6000803e3d6000fd5b505050506040513d601f19601f82011682018060405250810190612d8091906139aa565b90506000612d8e83856131c3565b9050600082821015612da1576000612dab565b612dab8284613222565b9050612dc36b033b2e3c9fd0803ce800000082613b2e565b955080612ddc876b033b2e3c9fd0803ce80000006131c3565b10612de75785611563565b611563866001613bc4565b604080516000808252602082019092526001600160a01b038416908390604051612e1c9190613b78565b60006040518083038185875af1925050503d8060008114612e59576040519150601f19603f3d011682016040523d82523d6000602084013e612e5e565b606091505b5050905080611ad25760405162461bcd60e51b815260206004820152601060248201526f042e6c2cccaa8e4c2dce6cccae48aa8960831b6044820152606401610b94565b6000612f2782846001600160a01b031663313ce5676040518163ffffffff1660e01b81526004016020604051808303816000875af1158015612ee8573d6000803e3d6000fd5b505050506040513d601f19601f82011682018060405250810190612f0c91906139aa565b612f17906012613bd7565b612f2290600a613cce565b6131c3565b9392505050565b600080856001600160a01b031663d86824616040518163ffffffff1660e01b8152600401602060405180830381865afa158015612f6f573d6000803e3d6000fd5b505050506040513d601f19601f82011682018060405250810190612f93919061398d565b6001600160a01b031663a09b0fe0846040518263ffffffff1660e01b8152600401612fc091815260200190565b602060405180830381865afa158015612fdd573d6000803e3d6000fd5b505050506040513d601f19601f8201168201806040525081019061300191906139aa565b604051630a76216560e21b8152600481018590526001600160a01b0386811660248301529192506000918816906329d88594906044016040805180830381865afa158015613053573d6000803e3d6000fd5b505050506040513d601f19601f820116820180604052508101906130779190613a6b565b9150613088905061200b8388613b2e565b9250808311156130a95761309b8161296a565b6130a490613aa5565b6130b2565b6130b283613aa5565b979650505050505050565b600080846001600160a01b031663a9059cbb85856040516024016130e2929190613a1e565b6040516020818303038152906040529060e01b6020820180516001600160e01b03838183161783525050505060405161311b9190613b78565b6000604051808303816000865af19150503d8060008114613158576040519150601f19603f3d011682016040523d82523d6000602084013e61315d565b606091505b50915091508180156131875750805115806131875750808060200190518101906131879190613ba7565b610c185760405162461bcd60e51b815260206004820152600d60248201526c10b9b0b332aa3930b739b332b960991b6044820152606401610b94565b60008115806131e7575082826131d98183613cda565b92506131e59083613b2e565b145b6129645760405162461bcd60e51b815260206004820152600c60248201526b6d756c2d6f766572666c6f7760a01b6044820152606401610b94565b60008261322f8382613bd7565b91508111156129645760405162461bcd60e51b815260206004820152600c60248201526b7375622d6f766572666c6f7760a01b6044820152606401610b94565b6001600160a01b038116811461328457600080fd5b50565b60008083601f84011261329957600080fd5b50813567ffffffffffffffff8111156132b157600080fd5b6020830191508360208285010111156132c957600080fd5b9250929050565b60008060008060008060008060e0898b0312156132ec57600080fd5b88356132f78161326f565b975060208901356133078161326f565b965060408901356133178161326f565b955060608901356133278161326f565b94506080890135935060a0890135925060c089013567ffffffffffffffff81111561335157600080fd5b61335d8b828c01613287565b999c989b5096995094979396929594505050565b60008060008060006080868803121561338957600080fd5b85356133948161326f565b945060208601356133a48161326f565b935060408601359250606086013567ffffffffffffffff8111156133c757600080fd5b6133d388828901613287565b969995985093965092949392505050565b600080600080606085870312156133fa57600080fd5b84356134058161326f565b935060208501356134158161326f565b9250604085013567ffffffffffffffff81111561343157600080fd5b61343d87828801613287565b95989497509550505050565b6000806000806080858703121561345f57600080fd5b843561346a8161326f565b9350602085013561347a8161326f565b92506040850135915060608501356134918161326f565b939692955090935050565b6000806000606084860312156134b157600080fd5b83356134bc8161326f565b925060208401356134cc8161326f565b929592945050506040919091013590565b600080600080608085870312156134f357600080fd5b84356134fe8161326f565b93506020850135925060408501356135158161326f565b9396929550929360600135925050565b600080600080600080600060c0888a03121561354057600080fd5b873561354b8161326f565b965060208801359550604088013594506060880135935060808801356135708161326f565b925060a088013567ffffffffffffffff81111561358c57600080fd5b6135988a828b01613287565b989b979a50959850939692959293505050565b6000806000606084860312156135c057600080fd5b83356135cb8161326f565b92506020840135915060408401356135e28161326f565b809150509250925092565b801515811461328457600080fd5b60008060008060008060a0878903121561361457600080fd5b863561361f8161326f565b9550602087013561362f8161326f565b9450604087013593506060870135613646816135ed565b9250608087013567ffffffffffffffff81111561366257600080fd5b61366e89828a01613287565b979a9699509497509295939492505050565b600080600080600080600060c0888a03121561369b57600080fd5b87356136a68161326f565b965060208801356136b68161326f565b955060408801356136c68161326f565b9450606088013593506080880135925060a088013567ffffffffffffffff81111561358c57600080fd5b6000806000806000806000806000806101208b8d03121561371057600080fd5b8a3561371b8161326f565b995060208b013561372b8161326f565b985060408b013561373b8161326f565b975060608b013561374b8161326f565b965060808b0135955060a08b0135945060c08b0135935060e08b0135613770816135ed565b92506101008b013567ffffffffffffffff81111561378d57600080fd5b6137998d828e01613287565b915080935050809150509295989b9194979a5092959850565b60008060008060008060008060e0898b0312156137ce57600080fd5b88356137d98161326f565b975060208901356137e98161326f565b965060408901356137f98161326f565b9550606089013594506080890135935060a0890135925060c089013567ffffffffffffffff81111561335157600080fd5b60008060006060848603121561383f57600080fd5b833561384a8161326f565b95602085013595506040909401359392505050565b6000806040838503121561387257600080fd5b823561387d8161326f565b9150602083013561388d8161326f565b809150509250929050565b600080600080600080600060c0888a0312156138b357600080fd5b87356138be8161326f565b96506020880135955060408801356138d58161326f565b94506060880135935060808801356135708161326f565b60008060008060006080868803121561390457600080fd5b853561390f8161326f565b94506020860135935060408601356139268161326f565b9250606086013567ffffffffffffffff8111156133c757600080fd5b60008060008060008060a0878903121561395b57600080fd5b86356139668161326f565b955060208701356139768161326f565b94506040870135935060608701356136468161326f565b60006020828403121561399f57600080fd5b8151612f278161326f565b6000602082840312156139bc57600080fd5b5051919050565b81835281816020850137506000828201602090810191909152601f909101601f19169091010190565b60018060a01b0385168152836020820152606060408201526000613a146060830184866139c3565b9695505050505050565b6001600160a01b03929092168252602082015260400190565b86815285602082015284604082015260018060a01b038416606082015260a06080820152600061116160a0830184866139c3565b60008060408385031215613a7e57600080fd5b505080516020909101519092909150565b634e487b7160e01b600052601160045260246000fd5b6000600160ff1b8201613aba57613aba613a8f565b5060000390565b8681526001600160a01b038681166020830152604082018690528416606082015260a06080820181905260009061116190830184866139c3565b8581526001600160a01b038581166020830152841660408201526080606082018190526000906130b290830184866139c3565b600082613b4b57634e487b7160e01b600052601260045260246000fd5b500490565b8082018281126000831280158216821582161715613b7057613b70613a8f565b505092915050565b6000825160005b81811015613b995760208186018101518583015201613b7f565b506000920191825250919050565b600060208284031215613bb957600080fd5b8151612f27816135ed565b8082018082111561296457612964613a8f565b8181038181111561296457612964613a8f565b600181815b80851115613c25578160001904821115613c0b57613c0b613a8f565b80851615613c1857918102915b93841c9390800290613bef565b509250929050565b600082613c3c57506001612964565b81613c4957506000612964565b8160018114613c5f5760028114613c6957613c85565b6001915050612964565b60ff841115613c7a57613c7a613a8f565b50506001821b612964565b5060208310610133831016604e8410600b8410161715613ca8575081810a612964565b613cb28383613bea565b8060001904821115613cc657613cc6613a8f565b029392505050565b6000612f278383613c2d565b808202811582820484141761296457612964613a8f56fe445146cd84cf386cadbd440abe38a3aeed2d4998f099e6e93d5d02529614ff58a2646970667358221220be547687cb5f7a851ea10a892c85bdb58ce7deef694271b69fad76990b84c95964736f6c63430008110033",
    "immutableReferences": {},
    "source": "// SPDX-License-Identifier: AGPL-3.0-or-later\npragma solidity 0.8.17;\n\nimport \"../interfaces/IBookKeeper.sol\";\nimport \"../interfaces/IWXDC.sol\";\nimport \"../interfaces/IToken.sol\";\nimport \"../interfaces/IManager.sol\";\nimport \"../interfaces/IGenericTokenAdapter.sol\";\nimport \"../interfaces/IFarmableTokenAdapter.sol\";\nimport \"../interfaces/IStablecoinAdapter.sol\";\nimport \"../interfaces/IStabilityFeeCollector.sol\";\nimport \"../interfaces/IProxyRegistry.sol\";\nimport \"../interfaces/IProxy.sol\";\nimport \"../utils/SafeToken.sol\";\n\ncontract FathomStablecoinProxyActionsMath {\n    uint256 internal constant RAY = 10 ** 27;\n\n    event LogBorrowedAmount(address _positionAddress, uint256 _FXDBorrowAmount);\n    event LogPaidAmount(address _positionAddress, uint256 _FXDPaidAmount);\n\n    function convertTo18(address _tokenAdapter, uint256 _amt) internal returns (uint256 _wad) {\n        // For those collaterals that have less than 18 decimals precision we need to do the conversion before passing to adjustPosition function\n        // Adapters will automatically handle the difference of precision\n        _wad = _safeMul(_amt, 10 ** (18 - IGenericTokenAdapter(_tokenAdapter).decimals()));\n    }\n\n    function _safeSub(uint256 _x, uint256 _y) internal pure returns (uint256 _z) {\n        require((_z = _x - _y) <= _x, \"sub-overflow\");\n    }\n\n    function _safeToInt(uint256 _x) internal pure returns (int256 _y) {\n        _y = int256(_x);\n        require(_y >= 0, \"int-overflow\");\n    }\n\n    function _safeMul(uint256 _x, uint256 _y) internal pure returns (uint256 _z) {\n        require(_y == 0 || (_z = _x * _y) / _y == _x, \"mul-overflow\");\n    }\n\n    function _toRad(uint256 _wad) internal pure returns (uint256 _rad) {\n        _rad = _safeMul(_wad, RAY);\n    }\n}\n\n/// @notice WARNING: These functions meant to be used as a library for a Proxy.\n/// @notice DO NOT CALL ANY FUNCTION IN THIS CONTRACT DIRECTLY.\n/// @notice Hence, it shouldn't has any state variables. Some are unsafe if you call them directly.\ncontract FathomStablecoinProxyActions is FathomStablecoinProxyActionsMath {\n    using SafeToken for address;\n\n    function whitelist(address _bookKeeper, address _usr) external {\n        IBookKeeper(_bookKeeper).whitelist(_usr);\n    }\n\n    function blacklist(address _bookKeeper, address _usr) external {\n        IBookKeeper(_bookKeeper).blacklist(_usr);\n    }\n\n    function transferOwnershipToProxy(address _proxyRegistry, address _manager, uint256 _positionId, address _dst) external {\n        address _proxy = IProxyRegistry(_proxyRegistry).proxies(_dst);\n        if (_proxy == address(0) || IProxy(_proxy).owner() != _dst) {\n            uint256 _codeSize;\n            assembly {\n                _codeSize := extcodesize(_dst)\n            }\n            require(_codeSize == 0, \"Dst-is-a-contract\"); // We want to avoid creating a proxy for a contract address that might not be able to handle proxies, then losing the CDP\n            _proxy = IProxyRegistry(_proxyRegistry).build(_dst); // Creates the proxy for the dst address\n        }\n        transferOwnership(_manager, _positionId, _proxy);\n    }\n\n    function allowManagePosition(address _manager, uint256 _positionId, address _user, uint256 _ok) external {\n        IManager(_manager).allowManagePosition(_positionId, _user, _ok);\n    }\n\n    function allowMigratePosition(address _manager, address _user, uint256 _ok) external {\n        IManager(_manager).allowMigratePosition(_user, _ok);\n    }\n\n    function exportPosition(address _manager, uint256 _positionId, address _destination) external {\n        IManager(_manager).exportPosition(_positionId, _destination);\n    }\n\n    function importPosition(address _manager, address _source, uint256 _positionId) external {\n        IManager(_manager).importPosition(_source, _positionId);\n    }\n\n    function movePosition(address _manager, uint256 _source, uint256 _destination) external {\n        IManager(_manager).movePosition(_source, _destination);\n    }\n\n    function safeLockXDC(address _manager, address _xdcAdapter, uint256 _positionId, address _owner, bytes calldata _data) external payable {\n        require(IManager(_manager).owners(_positionId) == _owner, \"!owner\");\n        lockXDC(_manager, _xdcAdapter, _positionId, _data);\n    }\n\n    function draw(\n        address _manager,\n        address _stabilityFeeCollector,\n        address _tokenAdapter,\n        address _stablecoinAdapter,\n        uint256 _positionId,\n        uint256 _amount, // [wad]\n        bytes calldata _data\n    ) external {\n        address _positionAddress = IManager(_manager).positions(_positionId);\n        address _bookKeeper = IManager(_manager).bookKeeper();\n        bytes32 _collateralPoolId = IManager(_manager).collateralPools(_positionId);\n        // Generates debt in the CDP\n        adjustPosition(\n            _manager,\n            _positionId,\n            0,\n            _getDrawDebtShare(_bookKeeper, _stabilityFeeCollector, _positionAddress, _collateralPoolId, _amount),\n            _tokenAdapter,\n            _data\n        );\n\n        moveStablecoin(_manager, _positionId, address(this), _toRad(_amount)); // Moves the Fathom Stablecoin amount (balance in the bookKeeper in rad) to proxy's address\n\n        // Allows adapter to access to proxy's Fathom Stablecoin balance in the bookKeeper\n        if (IBookKeeper(_bookKeeper).positionWhitelist(address(this), address(_stablecoinAdapter)) == 0) {\n            IBookKeeper(_bookKeeper).whitelist(_stablecoinAdapter);\n        }\n\n        IStablecoinAdapter(_stablecoinAdapter).withdraw(msg.sender, _amount, _data); // Withdraws Fathom Stablecoin to the user's wallet as a token\n        IManager(_manager).updatePrice(_collateralPoolId);\n\n        emit LogBorrowedAmount(_positionAddress, _amount);\n    }\n\n    function openLockXDCAndDraw(\n        address _manager,\n        address _stabilityFeeCollector,\n        address _xdcAdapter,\n        address _stablecoinAdapter,\n        bytes32 _collateralPoolId,\n        uint256 _stablecoinAmount, // [wad]\n        bytes calldata _data\n    ) external payable returns (uint256 _positionId) {\n        _positionId = open(_manager, _collateralPoolId, address(this));\n        lockXDCAndDraw(_manager, _stabilityFeeCollector, _xdcAdapter, _stablecoinAdapter, _positionId, _stablecoinAmount, _data);\n    }\n\n    function wipeAndUnlockXDC(\n        address _manager,\n        address _xdcAdapter,\n        address _stablecoinAdapter,\n        uint256 _positionId,\n        uint256 _collateralAmount, // [wad]\n        uint256 _stablecoinAmount, // [wad]\n        bytes calldata _data\n    ) external {\n        address _positionAddress = IManager(_manager).positions(_positionId);\n        bytes32 _collateralPoolId = IManager(_manager).collateralPools(_positionId);\n        stablecoinAdapterDeposit(_stablecoinAdapter, _positionAddress, _stablecoinAmount, _data); // Deposits Fathom Stablecoin amount into the bookKeeper\n        // Paybacks debt to the position and unlocks WXDC amount from it\n        int256 _wipeDebtShare = _getWipeDebtShare(\n            IManager(_manager).bookKeeper(),\n            IBookKeeper(IManager(_manager).bookKeeper()).stablecoin(_positionAddress),\n            _positionAddress,\n            _collateralPoolId\n        ); // [wad]\n        adjustPosition(_manager, _positionId, -_safeToInt(_collateralAmount), _wipeDebtShare, _xdcAdapter, _data);\n        if (_collateralAmount > 0) {\n            moveCollateral(_manager, _positionId, address(this), _collateralAmount, _xdcAdapter, _data); // Moves the amount from the position to proxy's address\n            IGenericTokenAdapter(_xdcAdapter).withdraw(address(this), _collateralAmount, _data); // Withdraws WXDC amount to proxy address as a token\n            IWXDC(address(IGenericTokenAdapter(_xdcAdapter).collateralToken())).withdraw(_collateralAmount); // Converts WXDC to XDC\n            SafeToken.safeTransferETH(msg.sender, _collateralAmount); // Send XDC to user\n        }\n        IManager(_manager).updatePrice(_collateralPoolId);\n\n        emit LogPaidAmount(_positionAddress, _stablecoinAmount);\n    }\n\n    function wipeAllAndUnlockXDC(\n        address _manager,\n        address _xdcAdapter,\n        address _stablecoinAdapter,\n        uint256 _positionId,\n        uint256 _collateralAmount, // [wad]\n        bytes calldata _data\n    ) external {\n        address _bookKeeper = IManager(_manager).bookKeeper();\n        address _positionAddress = IManager(_manager).positions(_positionId);\n        bytes32 _collateralPoolId = IManager(_manager).collateralPools(_positionId);\n        (, uint256 _debtShare) = IBookKeeper(_bookKeeper).positions(_collateralPoolId, _positionAddress); // [wad]\n\n        uint256 _requiredStablecoinAmount = _getWipeAllStablecoinAmount(_bookKeeper, _positionAddress, _positionAddress, _collateralPoolId);\n        // Deposits Fathom Stablecoin amount into the bookKeeper\n        stablecoinAdapterDeposit(\n            _stablecoinAdapter,\n            _positionAddress,\n            _requiredStablecoinAmount,\n            _data\n        );\n        adjustPosition(_manager, _positionId, -_safeToInt(_collateralAmount), -int256(_debtShare), _xdcAdapter, _data); // Paybacks debt to the CDP and unlocks WXDC amount from it\n        if (_collateralAmount > 0) {\n            moveCollateral(_manager, _positionId, address(this), _collateralAmount, _xdcAdapter, _data); // Moves the amount from the CDP positionAddress to proxy's address\n            IGenericTokenAdapter(_xdcAdapter).withdraw(address(this), _collateralAmount, _data);\n            IWXDC(address(IGenericTokenAdapter(_xdcAdapter).collateralToken())).withdraw(_collateralAmount); // Converts WXDC to XDC\n            SafeToken.safeTransferETH(msg.sender, _collateralAmount); // Send XDC to user\n        }\n        IManager(_manager).updatePrice(_collateralPoolId);\n\n        emit LogPaidAmount(_positionAddress, _requiredStablecoinAmount);\n    }\n\n    function redeemLockedCollateral(address _manager, uint256 _positionId, address _tokenAdapter, bytes calldata _data) external {\n        IManager(_manager).redeemLockedCollateral(_positionId, _tokenAdapter, address(this), _data);\n    }\n\n    /// @param _adapter The address of stablecoin adapter\n    /// @param _positionAddress The address of the Position Handler\n    /// @param _stablecoinAmount The amount in wad to be deposit to Stablecoin adapter [wad]\n    /// @param _data The extra data for stable adapter context\n    function stablecoinAdapterDeposit(\n        address _adapter,\n        address _positionAddress,\n        uint256 _stablecoinAmount, // [wad]\n        bytes calldata _data\n    ) public {\n        address _stablecoin = address(IStablecoinAdapter(_adapter).stablecoin());\n        // Gets Fathom Stablecoin from the user's wallet\n        _stablecoin.safeTransferFrom(msg.sender, address(this), _stablecoinAmount);\n\n        // Approves adapter to take the Fathom Stablecoin amount\n        _stablecoin.safeApprove(_adapter, _stablecoinAmount);\n        // Deposits Fathom Stablecoin into the bookKeeper\n        IStablecoinAdapter(_adapter).deposit(_positionAddress, _stablecoinAmount, _data);\n    }\n\n    function xdcAdapterDeposit(address _adapter, address _positionAddress, bytes calldata _data) public payable {\n        //##back to Vanilla - Adapter now needs to have collateralToken state variable added\n        address _collateralToken = address(IGenericTokenAdapter(_adapter).collateralToken());\n        // Wraps XDC into WXDC\n        IWXDC(_collateralToken).deposit{ value: msg.value }();\n        // Approves adapter to take the WXDC amount\n        _collateralToken.safeApprove(address(_adapter), msg.value);\n        // Deposits WXDC collateral into the bookKeeper\n        IGenericTokenAdapter(_adapter).deposit(_positionAddress, msg.value, _data);\n    }\n\n    function tokenAdapterDeposit(\n        address _adapter,\n        address _positionAddress,\n        uint256 _amount, // [wad]\n        bool _transferFrom,\n        bytes calldata _data\n    ) public {\n        address _collateralToken = address(IGenericTokenAdapter(_adapter).collateralToken());\n\n        // Only executes for tokens that have approval/transferFrom implementation\n        if (_transferFrom) {\n            // Gets token from the user's wallet\n            _collateralToken.safeTransferFrom(msg.sender, address(this), _amount);\n        }\n        // Approves adapter to take the token amount\n        _collateralToken.safeApprove(_adapter, _amount);\n        // Deposits token collateral into the bookKeeper\n        IGenericTokenAdapter(_adapter).deposit(_positionAddress, _amount, _data);\n    }\n\n    function transfer(address _collateralToken, address _dst, uint256 _amt) public {\n        address(_collateralToken).safeTransfer(_dst, _amt);\n    }\n\n    function open(address _manager, bytes32 _collateralPoolId, address _usr) public returns (uint256 _positionId) {\n        _positionId = IManager(_manager).open(_collateralPoolId, _usr);\n    }\n\n    function transferOwnership(address _manager, uint256 _positionId, address _usr) public {\n        IManager(_manager).give(_positionId, _usr);\n    }\n\n    function adjustPosition(\n        address _manager,\n        uint256 _positionId,\n        int256 _collateralValue,\n        int256 _debtShare, // [wad]\n        address _adapter,\n        bytes calldata _data\n    ) public {\n        IManager(_manager).adjustPosition(_positionId, _collateralValue, _debtShare, _adapter, _data);\n    }\n\n    function moveCollateral(\n        address _manager,\n        uint256 _positionId,\n        address _dst,\n        uint256 _collateralAmount,\n        address _adapter,\n        bytes calldata _data\n    ) public {\n        IManager(_manager).moveCollateral(_positionId, _dst, _collateralAmount, _adapter, _data);\n    }\n\n    function moveStablecoin(\n        address _manager,\n        uint256 _positionId,\n        address _dst,\n        uint256 _stablecoinValue // [rad]\n    ) public {\n        IManager(_manager).moveStablecoin(_positionId, _dst, _stablecoinValue);\n    }\n\n    function lockXDC(address _manager, address _xdcAdapter, uint256 _positionId, bytes calldata _data) public payable {\n        address _positionAddress = IManager(_manager).positions(_positionId);\n        xdcAdapterDeposit(_xdcAdapter, _positionAddress, _data);\n        adjustPosition(_manager, _positionId, _safeToInt(msg.value), 0, _xdcAdapter, _data); // Locks XDC amount into the CDP\n    }\n\n    function lockXDCAndDraw(\n        address _manager,\n        address _stabilityFeeCollector,\n        address _xdcAdapter,\n        address _stablecoinAdapter,\n        uint256 _positionId,\n        uint256 _stablecoinAmount, // [wad]\n        bytes calldata _data\n    ) public payable {\n        address _positionAddress = IManager(_manager).positions(_positionId);\n        address _bookKeeper = IManager(_manager).bookKeeper();\n        bytes32 _collateralPoolId = IManager(_manager).collateralPools(_positionId);\n\n        xdcAdapterDeposit(_xdcAdapter, _positionAddress, _data);\n        adjustPosition(\n            _manager,\n            _positionId,\n            _safeToInt(msg.value),\n            _getDrawDebtShare(_bookKeeper, _stabilityFeeCollector, _positionAddress, _collateralPoolId, _stablecoinAmount),\n            _xdcAdapter,\n            _data\n        );\n        // Moves the Fathom Stablecoin amount (balance in the bookKeeper in rad) to proxy's address\n        moveStablecoin(_manager, _positionId, address(this), _toRad(_stablecoinAmount));\n        // Allows adapter to access to proxy's Fathom Stablecoin balance in the bookKeeper\n        if (IBookKeeper(_bookKeeper).positionWhitelist(address(this), address(_stablecoinAdapter)) == 0) {\n            IBookKeeper(_bookKeeper).whitelist(_stablecoinAdapter);\n        }\n        // Withdraws Fathom Stablecoin to the user's wallet as a token\n        IStablecoinAdapter(_stablecoinAdapter).withdraw(msg.sender, _stablecoinAmount, _data);\n        IManager(_manager).updatePrice(_collateralPoolId);\n        \n        emit LogBorrowedAmount(_positionAddress, _stablecoinAmount);\n    }\n\n    function lockTokenAndDraw(\n        IManager _manager,\n        address _stabilityFeeCollector,\n        address _tokenAdapter,\n        address _stablecoinAdapter,\n        uint256 _positionId,\n        uint256 _collateralAmount, // [in token decimal]\n        uint256 _stablecoinAmount, // [wad]\n        bool _transferFrom,\n        bytes calldata _data\n    ) public {\n        bytes32 _collateralPoolId = _manager.collateralPools(_positionId);\n        // Takes token amount from user's wallet and joins into the bookKeeper\n        tokenAdapterDeposit(_tokenAdapter, _manager.positions(_positionId), _collateralAmount, _transferFrom, _data);\n        // Locks token amount into the position and generates debt\n        int256 _collateralAmountInWad = _safeToInt(convertTo18(_tokenAdapter, _collateralAmount));\n        int256 _drawDebtShare = _getDrawDebtShare(\n            _manager.bookKeeper(),\n            _stabilityFeeCollector,\n            _manager.positions(_positionId),\n            _collateralPoolId,\n            _stablecoinAmount\n        ); // [wad]\n        adjustPosition(address(_manager), _positionId, _collateralAmountInWad, _drawDebtShare, _tokenAdapter, _data);\n        // Moves the Fathom Stablecoin amount (balance in the bookKeeper in rad) to proxy's address\n        moveStablecoin(address(_manager), _positionId, address(this), _toRad(_stablecoinAmount));\n        // Allows adapter to access to proxy's Fathom Stablecoin balance in the bookKeeper\n        if (IBookKeeper(_manager.bookKeeper()).positionWhitelist(address(this), address(_stablecoinAdapter)) == 0) {\n            IBookKeeper(_manager.bookKeeper()).whitelist(_stablecoinAdapter);\n        }\n        // Withdraws FXD to the user's wallet as a token\n        IStablecoinAdapter(_stablecoinAdapter).withdraw(msg.sender, _stablecoinAmount, _data);\n\n        address _positionAddress = IManager(_manager).positions(_positionId);\n        emit LogBorrowedAmount(_positionAddress, _stablecoinAmount);\n    }\n\n    function openLockTokenAndDraw(\n        address _manager,\n        address _stabilityFeeCollector,\n        address _tokenAdapter,\n        address _stablecoinAdapter,\n        bytes32 _collateralPoolId,\n        uint256 _collateralAmount, // [in token decimal]\n        uint256 _stablecoinAmount, // [wad]\n        bool _transferFrom,\n        bytes calldata _data\n    ) public returns (uint256 _positionId) {\n        _positionId = open(_manager, _collateralPoolId, address(this));\n        lockTokenAndDraw(\n            IManager(_manager),\n            _stabilityFeeCollector,\n            _tokenAdapter,\n            _stablecoinAdapter,\n            _positionId,\n            _collateralAmount,\n            _stablecoinAmount,\n            _transferFrom,\n            _data\n        );\n    }\n\n    function wipeAndUnlockToken(\n        address _manager,\n        address _tokenAdapter,\n        address _stablecoinAdapter,\n        uint256 _positionId,\n        uint256 _collateralAmount, // [in token decimal]\n        uint256 _stablecoinAmount, // [wad]\n        bytes calldata _data\n    ) public {\n        address _positionAddress = IManager(_manager).positions(_positionId);\n        bytes32 _collateralPoolId = IManager(_manager).collateralPools(_positionId);\n        // Deposits Fathom Stablecoin amount into the bookKeeper\n        stablecoinAdapterDeposit(_stablecoinAdapter, _positionAddress, _stablecoinAmount, _data);\n        uint256 _collateralAmountInWad = convertTo18(_tokenAdapter, _collateralAmount);\n        // Paybacks debt to the CDP and unlocks token amount from it\n        int256 _wipeDebtShare = _getWipeDebtShare(\n            IManager(_manager).bookKeeper(),\n            IBookKeeper(IManager(_manager).bookKeeper()).stablecoin(_positionAddress),\n            _positionAddress,\n            IManager(_manager).collateralPools(_positionId)\n        );\n        adjustPosition(_manager, _positionId, -_safeToInt(_collateralAmountInWad), _wipeDebtShare, _tokenAdapter, _data);\n        if (_collateralAmount > 0) {\n            moveCollateral(_manager, _positionId, address(this), _collateralAmountInWad, _tokenAdapter, _data); // Moves the amount from the position to proxy's address\n            IGenericTokenAdapter(_tokenAdapter).withdraw(msg.sender, _collateralAmount, _data); // Withdraws token amount to the user's wallet as a token\n        }\n        IManager(_manager).updatePrice(_collateralPoolId);\n\n        emit LogPaidAmount(_positionAddress, _stablecoinAmount);\n    }\n\n    function wipeAllAndUnlockToken(\n        address _manager,\n        address _tokenAdapter,\n        address _stablecoinAdapter,\n        uint256 _positionId,\n        uint256 _collateralAmount, // [token decimal]\n        bytes calldata _data\n    ) public {\n        // address _bookKeeper = IManager(_manager).bookKeeper();\n        address _positionAddress = IManager(_manager).positions(_positionId);\n        bytes32 _collateralPoolId = IManager(_manager).collateralPools(_positionId);\n        (, uint256 _debtShare) = IBookKeeper(IManager(_manager).bookKeeper()).positions(_collateralPoolId, _positionAddress);\n\n        uint256 _requiredStablecoinAmount = _getWipeAllStablecoinAmount(IManager(_manager).bookKeeper(), _positionAddress, _positionAddress, _collateralPoolId);\n        // Deposits Fathom Stablecoin amount into the bookKeeper\n        stablecoinAdapterDeposit(\n            _stablecoinAdapter,\n            _positionAddress,\n            _requiredStablecoinAmount,\n            _data\n        );\n        uint256 _collateralAmountInWad = convertTo18(_tokenAdapter, _collateralAmount);\n        // Paybacks debt to the position and unlocks token amount from it\n        adjustPosition(_manager, _positionId, -_safeToInt(_collateralAmountInWad), -int256(_debtShare), _tokenAdapter, _data);\n        if (_collateralAmount > 0) {\n            moveCollateral(_manager, _positionId, address(this), _collateralAmountInWad, _tokenAdapter, _data); // Moves the amount from the position to proxy's address\n            IGenericTokenAdapter(_tokenAdapter).withdraw(msg.sender, _collateralAmount, _data); // Withdraws token amount to the user's wallet as a token\n        }\n        IManager(_manager).updatePrice(_collateralPoolId);\n\n        emit LogPaidAmount(_positionAddress, _requiredStablecoinAmount);\n    }\n\n    function _getDrawDebtShare(\n        address _bookKeeper,\n        address _stabilityFeeCollector,\n        address _positionAddress,\n        bytes32 _collateralPoolId,\n        uint256 _stablecoinAmount // [wad]\n    ) internal returns (int256 _resultDebtShare) {\n        uint256 _debtAccumulatedRate = IStabilityFeeCollector(_stabilityFeeCollector).collect(_collateralPoolId); // [ray]. Updates stability fee rate\n        uint256 _positionStablecoinValue = IBookKeeper(_bookKeeper).stablecoin(_positionAddress); // [rad]. Gets Fathom Stablecoin balance of the positionAddress in the bookKeeper\n\n        // If there was already enough Fathom Stablecoin in the bookKeeper balance, just exits it without adding more debt\n        if (_positionStablecoinValue < _safeMul(_stablecoinAmount, RAY)) {\n            // Calculates the needed resultDebtShare so together with the existing positionStablecoinValue in the bookKeeper is enough to exit stablecoinAmount of Fathom Stablecoin tokens\n            _resultDebtShare = _safeToInt(_safeSub(_safeMul(_stablecoinAmount, RAY), _positionStablecoinValue) / _debtAccumulatedRate);\n            // This is neeeded due lack of precision. It might need to sum an extra resultDebtShare wei (for the given Fathom Stablecoin stablecoinAmount)\n            _resultDebtShare = _safeMul(uint256(_resultDebtShare), _debtAccumulatedRate) < _safeMul(_stablecoinAmount, RAY)\n                ? _resultDebtShare + 1\n                : _resultDebtShare;\n        }\n    }\n\n    function _getWipeDebtShare(\n        address _bookKeeper,\n        uint256 _stablecoinValue, // [rad]\n        address _positionAddress,\n        bytes32 _collateralPoolId\n    ) internal view returns (int256 _resultDebtShare) {\n        uint256 _debtAccumulatedRate = ICollateralPoolConfig(IBookKeeper(_bookKeeper).collateralPoolConfig()).getDebtAccumulatedRate(\n            _collateralPoolId\n        ); // [ray]. // Gets actual rate from the bookKeeper\n        (, uint256 _debtShare) = IBookKeeper(_bookKeeper).positions(_collateralPoolId, _positionAddress); // [wad]. // Gets actual debtShare value of the positionAddress\n\n        _resultDebtShare = _safeToInt(_stablecoinValue / _debtAccumulatedRate); // [wad]. // Uses the whole stablecoin balance in the bookKeeper to reduce the debt\n        // [wad]. // Checks the calculated resultDebtShare is not higher than positionAddress.art (total debt), otherwise uses its value\n        _resultDebtShare = uint256(_resultDebtShare) <= _debtShare ? -_resultDebtShare : -_safeToInt(_debtShare);\n    }\n\n    function _getWipeAllStablecoinAmount(\n        address _bookKeeper,\n        address _usr,\n        address _positionAddress,\n        bytes32 _collateralPoolId\n    ) internal view returns (uint256 _requiredStablecoinAmount) {\n        uint256 _debtAccumulatedRate = ICollateralPoolConfig(IBookKeeper(_bookKeeper).collateralPoolConfig()).getDebtAccumulatedRate(\n            _collateralPoolId\n        ); // [ray]. Gets actual rate from the bookKeeper\n        (, uint256 _debtShare) = IBookKeeper(_bookKeeper).positions(_collateralPoolId, _positionAddress); // [wad]. Gets actual debtShare value of the positionAddress\n        uint256 _stablecoinValue = IBookKeeper(_bookKeeper).stablecoin(_usr); // [rad]. Gets actual stablecoin amount in the usr\n\n        uint256 _positionDebtValue = _safeMul(_debtShare, _debtAccumulatedRate);\n        uint256 _requiredStablecoinValue = _positionDebtValue >= _stablecoinValue ? _safeSub(_positionDebtValue, _stablecoinValue) : 0; // [rad]\n        _requiredStablecoinAmount = _requiredStablecoinValue / RAY; // [wad] = [rad]/[ray]\n\n        // If the value precision has some dust, it will need to request for 1 extra amount wei\n        _requiredStablecoinAmount = _safeMul(_requiredStablecoinAmount, RAY) < _requiredStablecoinValue\n            ? _requiredStablecoinAmount + 1\n            : _requiredStablecoinAmount;\n    }\n}\n",
    "sourcePath": "/Users/antongrigorev/Developer/fathom-stablecoin-smart-contracts/contracts/main/proxy-actions/FathomStablecoinProxyActions.sol",
    "compiler": {
        "name": "solc",
        "version": "0.8.17+commit.8df45f5f.Emscripten.clang"
    },
    "schemaVersion": "3.4.13",
    "updatedAt": "2023-04-27T21:05:38.638Z",
    "devdoc": {
        "kind": "dev",
        "methods": {
            "stablecoinAdapterDeposit(address,address,uint256,bytes)": {
                "params": {
                    "_adapter": "The address of stablecoin adapter",
                    "_data": "The extra data for stable adapter context",
                    "_positionAddress": "The address of the Position Handler",
                    "_stablecoinAmount": "The amount in wad to be deposit to Stablecoin adapter [wad]"
                }
            }
        },
        "version": 1
    },
    "userdoc": {
        "kind": "user",
        "methods": {},
        "notice": "WARNING: These functions meant to be used as a library for a Proxy.DO NOT CALL ANY FUNCTION IN THIS CONTRACT DIRECTLY.Hence, it shouldn't has any state variables. Some are unsafe if you call them directly.",
        "version": 1
    }
}