{
    "contractName": "FathomStablecoinProxyActions",
    "abi": [
        {
            "inputs": [
                {
                    "internalType": "address",
                    "name": "_bookKeeper",
                    "type": "address"
                },
                {
                    "internalType": "address",
                    "name": "_usr",
                    "type": "address"
                }
            ],
            "name": "whitelist",
            "outputs": [],
            "stateMutability": "nonpayable",
            "type": "function"
        },
        {
            "inputs": [
                {
                    "internalType": "address",
                    "name": "_bookKeeper",
                    "type": "address"
                },
                {
                    "internalType": "address",
                    "name": "_usr",
                    "type": "address"
                }
            ],
            "name": "blacklist",
            "outputs": [],
            "stateMutability": "nonpayable",
            "type": "function"
        },
        {
            "inputs": [
                {
                    "internalType": "address",
                    "name": "_proxyRegistry",
                    "type": "address"
                },
                {
                    "internalType": "address",
                    "name": "_manager",
                    "type": "address"
                },
                {
                    "internalType": "uint256",
                    "name": "_positionId",
                    "type": "uint256"
                },
                {
                    "internalType": "address",
                    "name": "_dst",
                    "type": "address"
                }
            ],
            "name": "transferOwnershipToProxy",
            "outputs": [],
            "stateMutability": "nonpayable",
            "type": "function"
        },
        {
            "inputs": [
                {
                    "internalType": "address",
                    "name": "_manager",
                    "type": "address"
                },
                {
                    "internalType": "uint256",
                    "name": "_positionId",
                    "type": "uint256"
                },
                {
                    "internalType": "address",
                    "name": "_user",
                    "type": "address"
                },
                {
                    "internalType": "uint256",
                    "name": "_ok",
                    "type": "uint256"
                }
            ],
            "name": "allowManagePosition",
            "outputs": [],
            "stateMutability": "nonpayable",
            "type": "function"
        },
        {
            "inputs": [
                {
                    "internalType": "address",
                    "name": "_manager",
                    "type": "address"
                },
                {
                    "internalType": "address",
                    "name": "_user",
                    "type": "address"
                },
                {
                    "internalType": "uint256",
                    "name": "_ok",
                    "type": "uint256"
                }
            ],
            "name": "allowMigratePosition",
            "outputs": [],
            "stateMutability": "nonpayable",
            "type": "function"
        },
        {
            "inputs": [
                {
                    "internalType": "address",
                    "name": "_manager",
                    "type": "address"
                },
                {
                    "internalType": "uint256",
                    "name": "_positionId",
                    "type": "uint256"
                },
                {
                    "internalType": "address",
                    "name": "_destination",
                    "type": "address"
                }
            ],
            "name": "exportPosition",
            "outputs": [],
            "stateMutability": "nonpayable",
            "type": "function"
        },
        {
            "inputs": [
                {
                    "internalType": "address",
                    "name": "_manager",
                    "type": "address"
                },
                {
                    "internalType": "address",
                    "name": "_source",
                    "type": "address"
                },
                {
                    "internalType": "uint256",
                    "name": "_positionId",
                    "type": "uint256"
                }
            ],
            "name": "importPosition",
            "outputs": [],
            "stateMutability": "nonpayable",
            "type": "function"
        },
        {
            "inputs": [
                {
                    "internalType": "address",
                    "name": "_manager",
                    "type": "address"
                },
                {
                    "internalType": "uint256",
                    "name": "_source",
                    "type": "uint256"
                },
                {
                    "internalType": "uint256",
                    "name": "_destination",
                    "type": "uint256"
                }
            ],
            "name": "movePosition",
            "outputs": [],
            "stateMutability": "nonpayable",
            "type": "function"
        },
        {
            "inputs": [
                {
                    "internalType": "address",
                    "name": "_manager",
                    "type": "address"
                },
                {
                    "internalType": "address",
                    "name": "_xdcAdapter",
                    "type": "address"
                },
                {
                    "internalType": "uint256",
                    "name": "_positionId",
                    "type": "uint256"
                },
                {
                    "internalType": "address",
                    "name": "_owner",
                    "type": "address"
                },
                {
                    "internalType": "bytes",
                    "name": "_data",
                    "type": "bytes"
                }
            ],
            "name": "safeLockXDC",
            "outputs": [],
            "stateMutability": "payable",
            "type": "function"
        },
        {
            "inputs": [
                {
                    "internalType": "address",
                    "name": "_manager",
                    "type": "address"
                },
                {
                    "internalType": "address",
                    "name": "_stabilityFeeCollector",
                    "type": "address"
                },
                {
                    "internalType": "address",
                    "name": "_tokenAdapter",
                    "type": "address"
                },
                {
                    "internalType": "address",
                    "name": "_stablecoinAdapter",
                    "type": "address"
                },
                {
                    "internalType": "uint256",
                    "name": "_positionId",
                    "type": "uint256"
                },
                {
                    "internalType": "uint256",
                    "name": "_amount",
                    "type": "uint256"
                },
                {
                    "internalType": "bytes",
                    "name": "_data",
                    "type": "bytes"
                }
            ],
            "name": "draw",
            "outputs": [],
            "stateMutability": "nonpayable",
            "type": "function"
        },
        {
            "inputs": [
                {
                    "internalType": "address",
                    "name": "_manager",
                    "type": "address"
                },
                {
                    "internalType": "address",
                    "name": "_stabilityFeeCollector",
                    "type": "address"
                },
                {
                    "internalType": "address",
                    "name": "_xdcAdapter",
                    "type": "address"
                },
                {
                    "internalType": "address",
                    "name": "_stablecoinAdapter",
                    "type": "address"
                },
                {
                    "internalType": "bytes32",
                    "name": "_collateralPoolId",
                    "type": "bytes32"
                },
                {
                    "internalType": "uint256",
                    "name": "_stablecoinAmount",
                    "type": "uint256"
                },
                {
                    "internalType": "bytes",
                    "name": "_data",
                    "type": "bytes"
                }
            ],
            "name": "openLockXDCAndDraw",
            "outputs": [
                {
                    "internalType": "uint256",
                    "name": "_positionId",
                    "type": "uint256"
                }
            ],
            "stateMutability": "payable",
            "type": "function"
        },
        {
            "inputs": [
                {
                    "internalType": "address",
                    "name": "_manager",
                    "type": "address"
                },
                {
                    "internalType": "address",
                    "name": "_xdcAdapter",
                    "type": "address"
                },
                {
                    "internalType": "address",
                    "name": "_stablecoinAdapter",
                    "type": "address"
                },
                {
                    "internalType": "uint256",
                    "name": "_positionId",
                    "type": "uint256"
                },
                {
                    "internalType": "uint256",
                    "name": "_collateralAmount",
                    "type": "uint256"
                },
                {
                    "internalType": "uint256",
                    "name": "_stablecoinAmount",
                    "type": "uint256"
                },
                {
                    "internalType": "bytes",
                    "name": "_data",
                    "type": "bytes"
                }
            ],
            "name": "wipeAndUnlockXDC",
            "outputs": [],
            "stateMutability": "nonpayable",
            "type": "function"
        },
        {
            "inputs": [
                {
                    "internalType": "address",
                    "name": "_manager",
                    "type": "address"
                },
                {
                    "internalType": "address",
                    "name": "_xdcAdapter",
                    "type": "address"
                },
                {
                    "internalType": "address",
                    "name": "_stablecoinAdapter",
                    "type": "address"
                },
                {
                    "internalType": "uint256",
                    "name": "_positionId",
                    "type": "uint256"
                },
                {
                    "internalType": "uint256",
                    "name": "_collateralAmount",
                    "type": "uint256"
                },
                {
                    "internalType": "bytes",
                    "name": "_data",
                    "type": "bytes"
                }
            ],
            "name": "wipeAllAndUnlockXDC",
            "outputs": [],
            "stateMutability": "nonpayable",
            "type": "function"
        },
        {
            "inputs": [
                {
                    "internalType": "address",
                    "name": "_manager",
                    "type": "address"
                },
                {
                    "internalType": "uint256",
                    "name": "_positionId",
                    "type": "uint256"
                },
                {
                    "internalType": "address",
                    "name": "_tokenAdapter",
                    "type": "address"
                },
                {
                    "internalType": "bytes",
                    "name": "_data",
                    "type": "bytes"
                }
            ],
            "name": "redeemLockedCollateral",
            "outputs": [],
            "stateMutability": "nonpayable",
            "type": "function"
        },
        {
            "inputs": [
                {
                    "internalType": "address",
                    "name": "_adapter",
                    "type": "address"
                },
                {
                    "internalType": "address",
                    "name": "_positionAddress",
                    "type": "address"
                },
                {
                    "internalType": "uint256",
                    "name": "_stablecoinAmount",
                    "type": "uint256"
                },
                {
                    "internalType": "bytes",
                    "name": "_data",
                    "type": "bytes"
                }
            ],
            "name": "stablecoinAdapterDeposit",
            "outputs": [],
            "stateMutability": "nonpayable",
            "type": "function"
        },
        {
            "inputs": [
                {
                    "internalType": "address",
                    "name": "_adapter",
                    "type": "address"
                },
                {
                    "internalType": "address",
                    "name": "_positionAddress",
                    "type": "address"
                },
                {
                    "internalType": "bytes",
                    "name": "_data",
                    "type": "bytes"
                }
            ],
            "name": "xdcAdapterDeposit",
            "outputs": [],
            "stateMutability": "payable",
            "type": "function"
        },
        {
            "inputs": [
                {
                    "internalType": "address",
                    "name": "_adapter",
                    "type": "address"
                },
                {
                    "internalType": "address",
                    "name": "_positionAddress",
                    "type": "address"
                },
                {
                    "internalType": "uint256",
                    "name": "_amount",
                    "type": "uint256"
                },
                {
                    "internalType": "bool",
                    "name": "_transferFrom",
                    "type": "bool"
                },
                {
                    "internalType": "bytes",
                    "name": "_data",
                    "type": "bytes"
                }
            ],
            "name": "tokenAdapterDeposit",
            "outputs": [],
            "stateMutability": "nonpayable",
            "type": "function"
        },
        {
            "inputs": [
                {
                    "internalType": "address",
                    "name": "_collateralToken",
                    "type": "address"
                },
                {
                    "internalType": "address",
                    "name": "_dst",
                    "type": "address"
                },
                {
                    "internalType": "uint256",
                    "name": "_amt",
                    "type": "uint256"
                }
            ],
            "name": "transfer",
            "outputs": [],
            "stateMutability": "nonpayable",
            "type": "function"
        },
        {
            "inputs": [
                {
                    "internalType": "address",
                    "name": "_manager",
                    "type": "address"
                },
                {
                    "internalType": "bytes32",
                    "name": "_collateralPoolId",
                    "type": "bytes32"
                },
                {
                    "internalType": "address",
                    "name": "_usr",
                    "type": "address"
                }
            ],
            "name": "open",
            "outputs": [
                {
                    "internalType": "uint256",
                    "name": "_positionId",
                    "type": "uint256"
                }
            ],
            "stateMutability": "nonpayable",
            "type": "function"
        },
        {
            "inputs": [
                {
                    "internalType": "address",
                    "name": "_manager",
                    "type": "address"
                },
                {
                    "internalType": "uint256",
                    "name": "_positionId",
                    "type": "uint256"
                },
                {
                    "internalType": "address",
                    "name": "_usr",
                    "type": "address"
                }
            ],
            "name": "transferOwnership",
            "outputs": [],
            "stateMutability": "nonpayable",
            "type": "function"
        },
        {
            "inputs": [
                {
                    "internalType": "address",
                    "name": "_manager",
                    "type": "address"
                },
                {
                    "internalType": "uint256",
                    "name": "_positionId",
                    "type": "uint256"
                },
                {
                    "internalType": "int256",
                    "name": "_collateralValue",
                    "type": "int256"
                },
                {
                    "internalType": "int256",
                    "name": "_debtShare",
                    "type": "int256"
                },
                {
                    "internalType": "address",
                    "name": "_adapter",
                    "type": "address"
                },
                {
                    "internalType": "bytes",
                    "name": "_data",
                    "type": "bytes"
                }
            ],
            "name": "adjustPosition",
            "outputs": [],
            "stateMutability": "nonpayable",
            "type": "function"
        },
        {
            "inputs": [
                {
                    "internalType": "address",
                    "name": "_manager",
                    "type": "address"
                },
                {
                    "internalType": "uint256",
                    "name": "_positionId",
                    "type": "uint256"
                },
                {
                    "internalType": "address",
                    "name": "_dst",
                    "type": "address"
                },
                {
                    "internalType": "uint256",
                    "name": "_collateralAmount",
                    "type": "uint256"
                },
                {
                    "internalType": "address",
                    "name": "_adapter",
                    "type": "address"
                },
                {
                    "internalType": "bytes",
                    "name": "_data",
                    "type": "bytes"
                }
            ],
            "name": "moveCollateral",
            "outputs": [],
            "stateMutability": "nonpayable",
            "type": "function"
        },
        {
            "inputs": [
                {
                    "internalType": "address",
                    "name": "_manager",
                    "type": "address"
                },
                {
                    "internalType": "uint256",
                    "name": "_positionId",
                    "type": "uint256"
                },
                {
                    "internalType": "address",
                    "name": "_dst",
                    "type": "address"
                },
                {
                    "internalType": "uint256",
                    "name": "_stablecoinValue",
                    "type": "uint256"
                }
            ],
            "name": "moveStablecoin",
            "outputs": [],
            "stateMutability": "nonpayable",
            "type": "function"
        },
        {
            "inputs": [
                {
                    "internalType": "address",
                    "name": "_manager",
                    "type": "address"
                },
                {
                    "internalType": "address",
                    "name": "_xdcAdapter",
                    "type": "address"
                },
                {
                    "internalType": "uint256",
                    "name": "_positionId",
                    "type": "uint256"
                },
                {
                    "internalType": "bytes",
                    "name": "_data",
                    "type": "bytes"
                }
            ],
            "name": "lockXDC",
            "outputs": [],
            "stateMutability": "payable",
            "type": "function"
        },
        {
            "inputs": [
                {
                    "internalType": "address",
                    "name": "_manager",
                    "type": "address"
                },
                {
                    "internalType": "address",
                    "name": "_stabilityFeeCollector",
                    "type": "address"
                },
                {
                    "internalType": "address",
                    "name": "_xdcAdapter",
                    "type": "address"
                },
                {
                    "internalType": "address",
                    "name": "_stablecoinAdapter",
                    "type": "address"
                },
                {
                    "internalType": "uint256",
                    "name": "_positionId",
                    "type": "uint256"
                },
                {
                    "internalType": "uint256",
                    "name": "_stablecoinAmount",
                    "type": "uint256"
                },
                {
                    "internalType": "bytes",
                    "name": "_data",
                    "type": "bytes"
                }
            ],
            "name": "lockXDCAndDraw",
            "outputs": [],
            "stateMutability": "payable",
            "type": "function"
        },
        {
            "inputs": [
                {
                    "internalType": "contract IManager",
                    "name": "_manager",
                    "type": "address"
                },
                {
                    "internalType": "address",
                    "name": "_stabilityFeeCollector",
                    "type": "address"
                },
                {
                    "internalType": "address",
                    "name": "_tokenAdapter",
                    "type": "address"
                },
                {
                    "internalType": "address",
                    "name": "_stablecoinAdapter",
                    "type": "address"
                },
                {
                    "internalType": "uint256",
                    "name": "_positionId",
                    "type": "uint256"
                },
                {
                    "internalType": "uint256",
                    "name": "_collateralAmount",
                    "type": "uint256"
                },
                {
                    "internalType": "uint256",
                    "name": "_stablecoinAmount",
                    "type": "uint256"
                },
                {
                    "internalType": "bool",
                    "name": "_transferFrom",
                    "type": "bool"
                },
                {
                    "internalType": "bytes",
                    "name": "_data",
                    "type": "bytes"
                }
            ],
            "name": "lockTokenAndDraw",
            "outputs": [],
            "stateMutability": "nonpayable",
            "type": "function"
        },
        {
            "inputs": [
                {
                    "internalType": "address",
                    "name": "_manager",
                    "type": "address"
                },
                {
                    "internalType": "address",
                    "name": "_stabilityFeeCollector",
                    "type": "address"
                },
                {
                    "internalType": "address",
                    "name": "_tokenAdapter",
                    "type": "address"
                },
                {
                    "internalType": "address",
                    "name": "_stablecoinAdapter",
                    "type": "address"
                },
                {
                    "internalType": "bytes32",
                    "name": "_collateralPoolId",
                    "type": "bytes32"
                },
                {
                    "internalType": "uint256",
                    "name": "_collateralAmount",
                    "type": "uint256"
                },
                {
                    "internalType": "uint256",
                    "name": "_stablecoinAmount",
                    "type": "uint256"
                },
                {
                    "internalType": "bool",
                    "name": "_transferFrom",
                    "type": "bool"
                },
                {
                    "internalType": "bytes",
                    "name": "_data",
                    "type": "bytes"
                }
            ],
            "name": "openLockTokenAndDraw",
            "outputs": [
                {
                    "internalType": "uint256",
                    "name": "_positionId",
                    "type": "uint256"
                }
            ],
            "stateMutability": "nonpayable",
            "type": "function"
        },
        {
            "inputs": [
                {
                    "internalType": "address",
                    "name": "_manager",
                    "type": "address"
                },
                {
                    "internalType": "address",
                    "name": "_tokenAdapter",
                    "type": "address"
                },
                {
                    "internalType": "address",
                    "name": "_stablecoinAdapter",
                    "type": "address"
                },
                {
                    "internalType": "uint256",
                    "name": "_positionId",
                    "type": "uint256"
                },
                {
                    "internalType": "uint256",
                    "name": "_collateralAmount",
                    "type": "uint256"
                },
                {
                    "internalType": "uint256",
                    "name": "_stablecoinAmount",
                    "type": "uint256"
                },
                {
                    "internalType": "bytes",
                    "name": "_data",
                    "type": "bytes"
                }
            ],
            "name": "wipeAndUnlockToken",
            "outputs": [],
            "stateMutability": "nonpayable",
            "type": "function"
        },
        {
            "inputs": [
                {
                    "internalType": "address",
                    "name": "_manager",
                    "type": "address"
                },
                {
                    "internalType": "address",
                    "name": "_tokenAdapter",
                    "type": "address"
                },
                {
                    "internalType": "address",
                    "name": "_stablecoinAdapter",
                    "type": "address"
                },
                {
                    "internalType": "uint256",
                    "name": "_positionId",
                    "type": "uint256"
                },
                {
                    "internalType": "uint256",
                    "name": "_collateralAmount",
                    "type": "uint256"
                },
                {
                    "internalType": "bytes",
                    "name": "_data",
                    "type": "bytes"
                }
            ],
            "name": "wipeAllAndUnlockToken",
            "outputs": [],
            "stateMutability": "nonpayable",
            "type": "function"
        }
    ],
    "bytecode": "0x608060405234801561001057600080fd5b50613933806100206000396000f3fe6080604052600436106101c25760003560e01c806399ea511e116100f7578063b66291fb11610095578063cb77334d11610064578063cb77334d146104c7578063ce4af695146104e7578063cf588ca014610507578063fd7039031461052757600080fd5b8063b66291fb14610447578063b7c9836b14610467578063beabacc814610487578063bf33c1b8146104a757600080fd5b8063a341fab1116100d1578063a341fab1146103c7578063ad28ff88146103e7578063ad33f40014610407578063b092145e1461042757600080fd5b806399ea511e146103675780639a4e502014610387578063a02ce94d146103a757600080fd5b8063651d4b6a1161016457806385d6aeb41161013e57806385d6aeb4146102f45780638889d0f41461031457806388e234dd14610334578063916a8ae11461034757600080fd5b8063651d4b6a1461028f57806368d7e633146102a25780636aa3ee11146102c257600080fd5b80632d5e9f1d116101a05780632d5e9f1d1461020f57806342f059ee1461022f5780635c648c2b1461024f578063602fe0f61461026f57600080fd5b80630b74a2c0146101c75780631487493e146101e9578063259d4649146101fc575b600080fd5b3480156101d357600080fd5b506101e76101e2366004612ef5565b61053a565b005b6101e76101f7366004612f96565b610847565b6101e761020a366004613009565b6108e1565b34801561021b57600080fd5b506101e761022a36600461306e565b610a1e565b34801561023b57600080fd5b506101e761024a3660046130c1565b610be7565b34801561025b57600080fd5b506101e761026a366004612f96565b610c4f565b34801561027b57600080fd5b506101e761028a366004613102565b610d4c565b6101e761029d366004612ef5565b610dbc565b3480156102ae57600080fd5b506101e76102bd36600461314a565b610f26565b3480156102ce57600080fd5b506102e26102dd3660046131d0565b610f97565b60405190815260200160405180910390f35b34801561030057600080fd5b506101e761030f3660046130c1565b611016565b34801561032057600080fd5b506101e761032f366004613220565b61104b565b6102e2610342366004612ef5565b611114565b34801561035357600080fd5b506101e76103623660046132a5565b61113f565b34801561037357600080fd5b506102e2610382366004613315565b6114ad565b34801561039357600080fd5b506101e76103a23660046131d0565b6114dc565b3480156103b357600080fd5b506101e76103c23660046133d7565b611511565b3480156103d357600080fd5b506101e76103e236600461344f565b6118b7565b3480156103f357600080fd5b506101e7610402366004613484565b6118eb565b34801561041357600080fd5b506101e76104223660046134bd565b611943565b34801561043357600080fd5b506101e7610442366004613484565b611979565b34801561045357600080fd5b506101e7610462366004613102565b6119a7565b34801561047357600080fd5b506101e76104823660046131d0565b6119e3565b34801561049357600080fd5b506101e76104a23660046130c1565b611a18565b3480156104b357600080fd5b506101e76104c2366004613511565b611a31565b3480156104d357600080fd5b506101e76104e23660046133d7565b611a65565b3480156104f357600080fd5b506101e7610502366004613315565b611cf4565b34801561051357600080fd5b506101e76105223660046132a5565b612100565b6101e7610535366004613567565b612349565b60405163133f757160e31b8152600481018590526000906001600160a01b038a16906399fbab8890602401602060405180830381865afa158015610582573d6000803e3d6000fd5b505050506040513d601f19601f820116820180604052508101906105a691906135b2565b90506000896001600160a01b031663e3b3932a6040518163ffffffff1660e01b8152600401602060405180830381865afa1580156105e8573d6000803e3d6000fd5b505050506040513d601f19601f8201168201806040525081019061060c91906135b2565b6040516336df277960e11b8152600481018890529091506000906001600160a01b038c1690636dbe4ef290602401602060405180830381865afa158015610657573d6000803e3d6000fd5b505050506040513d601f19601f8201168201806040525081019061067b91906135cf565b90506106998b886000610691868f89888e612403565b8d8a8a610f26565b6106a88b883061028a8a612575565b60405163d9ea915560e01b81523060048201526001600160a01b03898116602483015283169063d9ea915590604401602060405180830381865afa1580156106f4573d6000803e3d6000fd5b505050506040513d601f19601f8201168201806040525081019061071891906135cf565b60000361077b57604051634d8c928d60e11b81526001600160a01b038981166004830152831690639b19251a90602401600060405180830381600087803b15801561076257600080fd5b505af1158015610776573d6000803e3d6000fd5b505050505b6040516331f0926560e01b81526001600160a01b038916906331f09265906107ad9033908a908a908a90600401613611565b600060405180830381600087803b1580156107c757600080fd5b505af11580156107db573d6000803e3d6000fd5b50506040516319d224a160e31b8152600481018490526001600160a01b038e16925063ce91250891506024015b600060405180830381600087803b15801561082257600080fd5b505af1158015610836573d6000803e3d6000fd5b505050505050505050505050505050565b60405163133f757160e31b8152600481018490526000906001600160a01b038716906399fbab8890602401602060405180830381865afa15801561088f573d6000803e3d6000fd5b505050506040513d601f19601f820116820180604052508101906108b391906135b2565b90506108c1858285856108e1565b6108d986856108cf34612593565b6000898888610f26565b505050505050565b6000846001600160a01b031663b2016bd46040518163ffffffff1660e01b81526004016020604051808303816000875af1158015610923573d6000803e3d6000fd5b505050506040513d601f19601f8201168201806040525081019061094791906135b2565b9050806001600160a01b031663d0e30db0346040518263ffffffff1660e01b81526004016000604051808303818588803b15801561098457600080fd5b505af1158015610998573d6000803e3d6000fd5b506109b3935050506001600160a01b038316905086346125d9565b604051630937b85760e31b81526001600160a01b038616906349bdc2b8906109e5908790349088908890600401613611565b600060405180830381600087803b1580156109ff57600080fd5b505af1158015610a13573d6000803e3d6000fd5b505050505050505050565b60405163c455279160e01b81526001600160a01b0382811660048301526000919086169063c455279190602401602060405180830381865afa158015610a68573d6000803e3d6000fd5b505050506040513d601f19601f82011682018060405250810190610a8c91906135b2565b90506001600160a01b0381161580610b175750816001600160a01b0316816001600160a01b0316638da5cb5b6040518163ffffffff1660e01b8152600401602060405180830381865afa158015610ae7573d6000803e3d6000fd5b505050506040513d601f19601f82011682018060405250810190610b0b91906135b2565b6001600160a01b031614155b15610bd557813b8015610b655760405162461bcd60e51b8152602060048201526011602482015270111cdd0b5a5ccb584b58dbdb9d1c9858dd607a1b60448201526064015b60405180910390fd5b6040516379b80ed160e11b81526001600160a01b03848116600483015287169063f3701da2906024016020604051808303816000875af1158015610bad573d6000803e3d6000fd5b505050506040513d601f19601f82011682018060405250810190610bd191906135b2565b9150505b610be08484836114dc565b5050505050565b604051632309463960e01b81526001600160a01b038381166004830152602482018390528416906323094639906044015b600060405180830381600087803b158015610c3257600080fd5b505af1158015610c46573d6000803e3d6000fd5b50505050505050565b6000856001600160a01b031663e9cbd8226040518163ffffffff1660e01b81526004016020604051808303816000875af1158015610c91573d6000803e3d6000fd5b505050506040513d601f19601f82011682018060405250810190610cb591906135b2565b9050610ccc6001600160a01b0382163330876126dc565b610ce06001600160a01b03821687866125d9565b604051630937b85760e31b81526001600160a01b038716906349bdc2b890610d12908890889088908890600401613611565b600060405180830381600087803b158015610d2c57600080fd5b505af1158015610d40573d6000803e3d6000fd5b50505050505050505050565b6040516318d326fd60e31b8152600481018490526001600160a01b0383811660248301526044820183905285169063c69937e8906064015b600060405180830381600087803b158015610d9e57600080fd5b505af1158015610db2573d6000803e3d6000fd5b5050505050505050565b60405163133f757160e31b8152600481018590526000906001600160a01b038a16906399fbab8890602401602060405180830381865afa158015610e04573d6000803e3d6000fd5b505050506040513d601f19601f82011682018060405250810190610e2891906135b2565b90506000896001600160a01b031663e3b3932a6040518163ffffffff1660e01b8152600401602060405180830381865afa158015610e6a573d6000803e3d6000fd5b505050506040513d601f19601f82011682018060405250810190610e8e91906135b2565b6040516336df277960e11b8152600481018890529091506000906001600160a01b038c1690636dbe4ef290602401602060405180830381865afa158015610ed9573d6000803e3d6000fd5b505050506040513d601f19601f82011682018060405250810190610efd91906135cf565b9050610f0b898487876108e1565b6106998b88610f1934612593565b610691868f89888e612403565b6040516319202b7960e01b81526001600160a01b038816906319202b7990610f5c90899089908990899089908990600401613643565b600060405180830381600087803b158015610f7657600080fd5b505af1158015610f8a573d6000803e3d6000fd5b5050505050505050505050565b604051636090dec560e01b8152600481018390526001600160a01b03828116602483015260009190851690636090dec5906044016020604051808303816000875af1158015610fea573d6000803e3d6000fd5b505050506040513d601f19601f8201168201806040525081019061100e91906135cf565b949350505050565b6040516373cc200d60e11b81526001600160a01b0383811660048301526024820183905284169063e798401a90604401610c18565b6000866001600160a01b031663b2016bd46040518163ffffffff1660e01b81526004016020604051808303816000875af115801561108d573d6000803e3d6000fd5b505050506040513d601f19601f820116820180604052508101906110b191906135b2565b905083156110ce576110ce6001600160a01b0382163330886126dc565b6110e26001600160a01b03821688876125d9565b604051630937b85760e31b81526001600160a01b038816906349bdc2b890610f5c908990899088908890600401613611565b6000611121898630610f97565b90506111338989898985898989610dbc565b98975050505050505050565b6000876001600160a01b031663e3b3932a6040518163ffffffff1660e01b8152600401602060405180830381865afa15801561117f573d6000803e3d6000fd5b505050506040513d601f19601f820116820180604052508101906111a391906135b2565b60405163133f757160e31b8152600481018790529091506000906001600160a01b038a16906399fbab8890602401602060405180830381865afa1580156111ee573d6000803e3d6000fd5b505050506040513d601f19601f8201168201806040525081019061121291906135b2565b6040516336df277960e11b8152600481018890529091506000906001600160a01b038b1690636dbe4ef290602401602060405180830381865afa15801561125d573d6000803e3d6000fd5b505050506040513d601f19601f8201168201806040525081019061128191906135cf565b604051630a76216560e21b8152600481018290526001600160a01b0384811660248301529192506000918516906329d88594906044016040805180830381865afa1580156112d3573d6000803e3d6000fd5b505050506040513d601f19601f820116820180604052508101906112f79190613677565b915050611312898461130b878788886127ec565b8989610c4f565b61133a8b896113208a612593565b611329906136b1565b611332856136b1565b8e8b8b610f26565b86156114805761134f8b89308a8e8b8b611943565b6040516331f0926560e01b81526001600160a01b038b16906331f09265906113819030908b908b908b90600401613611565b600060405180830381600087803b15801561139b57600080fd5b505af11580156113af573d6000803e3d6000fd5b50505050896001600160a01b031663b2016bd46040518163ffffffff1660e01b81526004016020604051808303816000875af11580156113f3573d6000803e3d6000fd5b505050506040513d601f19601f8201168201806040525081019061141791906135b2565b6001600160a01b0316632e1a7d4d886040518263ffffffff1660e01b815260040161144491815260200190565b600060405180830381600087803b15801561145e57600080fd5b505af1158015611472573d6000803e3d6000fd5b505050506114803388612a19565b6040516319d224a160e31b8152600481018390526001600160a01b038c169063ce91250890602401610808565b60006114ba8b8830610f97565b90506114ce8b8b8b8b858b8b8b8b8b611cf4565b9a9950505050505050505050565b604051631f95f98d60e31b8152600481018390526001600160a01b03828116602483015284169063fcafcc6890604401610c18565b60405163133f757160e31b8152600481018690526000906001600160a01b038a16906399fbab8890602401602060405180830381865afa158015611559573d6000803e3d6000fd5b505050506040513d601f19601f8201168201806040525081019061157d91906135b2565b6040516336df277960e11b8152600481018890529091506000906001600160a01b038b1690636dbe4ef290602401602060405180830381865afa1580156115c8573d6000803e3d6000fd5b505050506040513d601f19601f820116820180604052508101906115ec91906135cf565b90506115fb8883878787610c4f565b60006116078a88612ac9565b905060006117b38c6001600160a01b031663e3b3932a6040518163ffffffff1660e01b8152600401602060405180830381865afa15801561164c573d6000803e3d6000fd5b505050506040513d601f19601f8201168201806040525081019061167091906135b2565b8d6001600160a01b031663e3b3932a6040518163ffffffff1660e01b8152600401602060405180830381865afa1580156116ae573d6000803e3d6000fd5b505050506040513d601f19601f820116820180604052508101906116d291906135b2565b60405163b4ac08bb60e01b81526001600160a01b038881166004830152919091169063b4ac08bb90602401602060405180830381865afa15801561171a573d6000803e3d6000fd5b505050506040513d601f19601f8201168201806040525081019061173e91906135cf565b868f6001600160a01b0316636dbe4ef28e6040518263ffffffff1660e01b815260040161176d91815260200190565b602060405180830381865afa15801561178a573d6000803e3d6000fd5b505050506040513d601f19601f820116820180604052508101906117ae91906135cf565b612b55565b90506117d58c8a6117c385612593565b6117cc906136b1565b848f8b8b610f26565b871561184f576117ea8c8a30858f8b8b611943565b6040516331f0926560e01b81526001600160a01b038c16906331f092659061181c9033908c908b908b90600401613611565b600060405180830381600087803b15801561183657600080fd5b505af115801561184a573d6000803e3d6000fd5b505050505b6040516319d224a160e31b8152600481018490526001600160a01b038d169063ce91250890602401600060405180830381600087803b15801561189157600080fd5b505af11580156118a5573d6000803e3d6000fd5b50505050505050505050505050505050565b60405163a3cf2f4f60e01b815260048101839052602481018290526001600160a01b0384169063a3cf2f4f90604401610c18565b604051633e7e4af960e21b81526001600160a01b03828116600483015283169063f9f92be4906024015b600060405180830381600087803b15801561192f57600080fd5b505af11580156108d9573d6000803e3d6000fd5b60405163571dbb7960e01b81526001600160a01b0388169063571dbb7990610f5c908990899089908990899089906004016136cd565b604051634d8c928d60e11b81526001600160a01b038281166004830152831690639b19251a90602401611915565b604051638876e58960e01b8152600481018490526001600160a01b03838116602483015260448201839052851690638876e58990606401610d84565b60405163ba9a392560e01b8152600481018390526001600160a01b03828116602483015284169063ba9a392590604401610c18565b611a2c6001600160a01b0384168383612ce4565b505050565b604051636bd2c56560e01b81526001600160a01b03861690636bd2c565906109e59087908790309088908890600401613707565b60405163133f757160e31b8152600481018690526000906001600160a01b038a16906399fbab8890602401602060405180830381865afa158015611aad573d6000803e3d6000fd5b505050506040513d601f19601f82011682018060405250810190611ad191906135b2565b6040516336df277960e11b8152600481018890529091506000906001600160a01b038b1690636dbe4ef290602401602060405180830381865afa158015611b1c573d6000803e3d6000fd5b505050506040513d601f19601f82011682018060405250810190611b4091906135cf565b9050611b4f8883878787610c4f565b6000611c8b8b6001600160a01b031663e3b3932a6040518163ffffffff1660e01b8152600401602060405180830381865afa158015611b92573d6000803e3d6000fd5b505050506040513d601f19601f82011682018060405250810190611bb691906135b2565b8c6001600160a01b031663e3b3932a6040518163ffffffff1660e01b8152600401602060405180830381865afa158015611bf4573d6000803e3d6000fd5b505050506040513d601f19601f82011682018060405250810190611c1891906135b2565b60405163b4ac08bb60e01b81526001600160a01b038781166004830152919091169063b4ac08bb90602401602060405180830381865afa158015611c60573d6000803e3d6000fd5b505050506040513d601f19601f82011682018060405250810190611c8491906135cf565b8585612b55565b9050611cad8b89611c9b8a612593565b611ca4906136b1565b848e8a8a610f26565b861561148057611cc28b89308a8e8a8a611943565b6040516331f0926560e01b81526001600160a01b038b16906331f09265906113819030908b908a908a90600401613611565b6040516336df277960e11b8152600481018790526000906001600160a01b038c1690636dbe4ef290602401602060405180830381865afa158015611d3c573d6000803e3d6000fd5b505050506040513d601f19601f82011682018060405250810190611d6091906135cf565b9050611dde898c6001600160a01b03166399fbab888a6040518263ffffffff1660e01b8152600401611d9491815260200190565b602060405180830381865afa158015611db1573d6000803e3d6000fd5b505050506040513d601f19601f82011682018060405250810190611dd591906135b2565b8887878761104b565b6000611df2611ded8b89612ac9565b612593565b90506000611ed28d6001600160a01b031663e3b3932a6040518163ffffffff1660e01b8152600401602060405180830381865afa158015611e37573d6000803e3d6000fd5b505050506040513d601f19601f82011682018060405250810190611e5b91906135b2565b8d8f6001600160a01b03166399fbab888d6040518263ffffffff1660e01b8152600401611e8a91815260200190565b602060405180830381865afa158015611ea7573d6000803e3d6000fd5b505050506040513d601f19601f82011682018060405250810190611ecb91906135b2565b868b612403565b9050611ee38d8a84848f8a8a610f26565b611ef28d8a3061028a8b612575565b8c6001600160a01b031663e3b3932a6040518163ffffffff1660e01b8152600401602060405180830381865afa158015611f30573d6000803e3d6000fd5b505050506040513d601f19601f82011682018060405250810190611f5491906135b2565b60405163d9ea915560e01b81523060048201526001600160a01b038c81166024830152919091169063d9ea915590604401602060405180830381865afa158015611fa2573d6000803e3d6000fd5b505050506040513d601f19601f82011682018060405250810190611fc691906135cf565b60000361208d578c6001600160a01b031663e3b3932a6040518163ffffffff1660e01b8152600401602060405180830381865afa15801561200b573d6000803e3d6000fd5b505050506040513d601f19601f8201168201806040525081019061202f91906135b2565b604051634d8c928d60e11b81526001600160a01b038c811660048301529190911690639b19251a90602401600060405180830381600087803b15801561207457600080fd5b505af1158015612088573d6000803e3d6000fd5b505050505b6040516331f0926560e01b81526001600160a01b038b16906331f09265906120bf9033908b908a908a90600401613611565b600060405180830381600087803b1580156120d957600080fd5b505af11580156120ed573d6000803e3d6000fd5b5050505050505050505050505050505050565b6000876001600160a01b031663e3b3932a6040518163ffffffff1660e01b8152600401602060405180830381865afa158015612140573d6000803e3d6000fd5b505050506040513d601f19601f8201168201806040525081019061216491906135b2565b60405163133f757160e31b8152600481018790529091506000906001600160a01b038a16906399fbab8890602401602060405180830381865afa1580156121af573d6000803e3d6000fd5b505050506040513d601f19601f820116820180604052508101906121d391906135b2565b6040516336df277960e11b8152600481018890529091506000906001600160a01b038b1690636dbe4ef290602401602060405180830381865afa15801561221e573d6000803e3d6000fd5b505050506040513d601f19601f8201168201806040525081019061224291906135cf565b604051630a76216560e21b8152600481018290526001600160a01b0384811660248301529192506000918516906329d88594906044016040805180830381865afa158015612294573d6000803e3d6000fd5b505050506040513d601f19601f820116820180604052508101906122b89190613677565b9150506122cc898461130b878788886127ec565b60006122d88b89612ac9565b90506123028c8a6122e884612593565b6122f1906136b1565b6122fa866136b1565b8f8c8c610f26565b871561184f576123178c8a30848f8c8c611943565b6040516331f0926560e01b81526001600160a01b038c16906331f092659061181c9033908c908c908c90600401613611565b60405163025e7c2760e01b8152600481018590526001600160a01b03808516919088169063025e7c2790602401602060405180830381865afa158015612393573d6000803e3d6000fd5b505050506040513d601f19601f820116820180604052508101906123b791906135b2565b6001600160a01b0316146123f65760405162461bcd60e51b815260206004820152600660248201526510b7bbb732b960d11b6044820152606401610b5c565b6108d98686868585610847565b60405163497777d560e01b81526004810183905260009081906001600160a01b0387169063497777d5906024016020604051808303816000875af115801561244f573d6000803e3d6000fd5b505050506040513d601f19601f8201168201806040525081019061247391906135cf565b60405163b4ac08bb60e01b81526001600160a01b03878116600483015291925060009189169063b4ac08bb90602401602060405180830381865afa1580156124bf573d6000803e3d6000fd5b505050506040513d601f19601f820116820180604052508101906124e391906135cf565b90506124fb846b033b2e3c9fd0803ce8000000612de8565b81101561256a5761252f8261252561251f876b033b2e3c9fd0803ce8000000612de8565b84612e47565b611ded919061373a565b9250612547846b033b2e3c9fd0803ce8000000612de8565b6125518484612de8565b1061255c5782612567565b61256783600161375c565b92505b505095945050505050565b600061258d826b033b2e3c9fd0803ce8000000612de8565b92915050565b8060008112156125d45760405162461bcd60e51b815260206004820152600c60248201526b696e742d6f766572666c6f7760a01b6044820152606401610b5c565b919050565b604080516001600160a01b038481166024830152604480830185905283518084039091018152606490920183526020820180516001600160e01b031663095ea7b360e01b17905291516000928392908716916126359190613784565b6000604051808303816000865af19150503d8060008114612672576040519150601f19603f3d011682016040523d82523d6000602084013e612677565b606091505b50915091508180156126a15750805115806126a15750808060200190518101906126a191906137b3565b610be05760405162461bcd60e51b815260206004820152600c60248201526b2173616665417070726f766560a01b6044820152606401610b5c565b604080516001600160a01b0385811660248301528481166044830152606480830185905283518084039091018152608490920183526020820180516001600160e01b03166323b872dd60e01b17905291516000928392908816916127409190613784565b6000604051808303816000865af19150503d806000811461277d576040519150601f19603f3d011682016040523d82523d6000602084013e612782565b606091505b50915091508180156127ac5750805115806127ac5750808060200190518101906127ac91906137b3565b6108d95760405162461bcd60e51b815260206004820152601160248201527021736166655472616e7366657246726f6d60781b6044820152606401610b5c565b600080856001600160a01b031663d86824616040518163ffffffff1660e01b8152600401602060405180830381865afa15801561282d573d6000803e3d6000fd5b505050506040513d601f19601f8201168201806040525081019061285191906135b2565b6001600160a01b031663a09b0fe0846040518263ffffffff1660e01b815260040161287e91815260200190565b602060405180830381865afa15801561289b573d6000803e3d6000fd5b505050506040513d601f19601f820116820180604052508101906128bf91906135cf565b604051630a76216560e21b8152600481018590526001600160a01b0386811660248301529192506000918816906329d88594906044016040805180830381865afa158015612911573d6000803e3d6000fd5b505050506040513d601f19601f820116820180604052508101906129359190613677565b60405163b4ac08bb60e01b81526001600160a01b038981166004830152919350600092509089169063b4ac08bb90602401602060405180830381865afa158015612983573d6000803e3d6000fd5b505050506040513d601f19601f820116820180604052508101906129a791906135cf565b905060006129b58385612de8565b90506000828210156129c85760006129d2565b6129d28284612e47565b90506129ea6b033b2e3c9fd0803ce80000008261373a565b955080612a03876b033b2e3c9fd0803ce8000000612de8565b10612a0e57856114ce565b6114ce8660016137d0565b604080516000808252602082019092526001600160a01b038416908390604051612a439190613784565b60006040518083038185875af1925050503d8060008114612a80576040519150601f19603f3d011682016040523d82523d6000602084013e612a85565b606091505b5050905080611a2c5760405162461bcd60e51b815260206004820152601060248201526f042e6c2cccaa8e4c2dce6cccae48aa8960831b6044820152606401610b5c565b6000612b4e82846001600160a01b031663313ce5676040518163ffffffff1660e01b81526004016020604051808303816000875af1158015612b0f573d6000803e3d6000fd5b505050506040513d601f19601f82011682018060405250810190612b3391906135cf565b612b3e9060126137e3565b612b4990600a6138da565b612de8565b9392505050565b600080856001600160a01b031663d86824616040518163ffffffff1660e01b8152600401602060405180830381865afa158015612b96573d6000803e3d6000fd5b505050506040513d601f19601f82011682018060405250810190612bba91906135b2565b6001600160a01b031663a09b0fe0846040518263ffffffff1660e01b8152600401612be791815260200190565b602060405180830381865afa158015612c04573d6000803e3d6000fd5b505050506040513d601f19601f82011682018060405250810190612c2891906135cf565b604051630a76216560e21b8152600481018590526001600160a01b0386811660248301529192506000918816906329d88594906044016040805180830381865afa158015612c7a573d6000803e3d6000fd5b505050506040513d601f19601f82011682018060405250810190612c9e9190613677565b9150612caf9050611ded838861373a565b925080831115612cd057612cc281612593565b612ccb906136b1565b612cd9565b612cd9836136b1565b979650505050505050565b604080516001600160a01b038481166024830152604480830185905283518084039091018152606490920183526020820180516001600160e01b031663a9059cbb60e01b1790529151600092839290871691612d409190613784565b6000604051808303816000865af19150503d8060008114612d7d576040519150601f19603f3d011682016040523d82523d6000602084013e612d82565b606091505b5091509150818015612dac575080511580612dac575080806020019051810190612dac91906137b3565b610be05760405162461bcd60e51b815260206004820152600d60248201526c10b9b0b332aa3930b739b332b960991b6044820152606401610b5c565b6000811580612e0c57508282612dfe81836138e6565b9250612e0a908361373a565b145b61258d5760405162461bcd60e51b815260206004820152600c60248201526b6d756c2d6f766572666c6f7760a01b6044820152606401610b5c565b600082612e5483826137e3565b915081111561258d5760405162461bcd60e51b815260206004820152600c60248201526b7375622d6f766572666c6f7760a01b6044820152606401610b5c565b6001600160a01b0381168114612ea957600080fd5b50565b60008083601f840112612ebe57600080fd5b50813567ffffffffffffffff811115612ed657600080fd5b602083019150836020828501011115612eee57600080fd5b9250929050565b60008060008060008060008060e0898b031215612f1157600080fd5b8835612f1c81612e94565b97506020890135612f2c81612e94565b96506040890135612f3c81612e94565b95506060890135612f4c81612e94565b94506080890135935060a0890135925060c089013567ffffffffffffffff811115612f7657600080fd5b612f828b828c01612eac565b999c989b5096995094979396929594505050565b600080600080600060808688031215612fae57600080fd5b8535612fb981612e94565b94506020860135612fc981612e94565b935060408601359250606086013567ffffffffffffffff811115612fec57600080fd5b612ff888828901612eac565b969995985093965092949392505050565b6000806000806060858703121561301f57600080fd5b843561302a81612e94565b9350602085013561303a81612e94565b9250604085013567ffffffffffffffff81111561305657600080fd5b61306287828801612eac565b95989497509550505050565b6000806000806080858703121561308457600080fd5b843561308f81612e94565b9350602085013561309f81612e94565b92506040850135915060608501356130b681612e94565b939692955090935050565b6000806000606084860312156130d657600080fd5b83356130e181612e94565b925060208401356130f181612e94565b929592945050506040919091013590565b6000806000806080858703121561311857600080fd5b843561312381612e94565b935060208501359250604085013561313a81612e94565b9396929550929360600135925050565b600080600080600080600060c0888a03121561316557600080fd5b873561317081612e94565b9650602088013595506040880135945060608801359350608088013561319581612e94565b925060a088013567ffffffffffffffff8111156131b157600080fd5b6131bd8a828b01612eac565b989b979a50959850939692959293505050565b6000806000606084860312156131e557600080fd5b83356131f081612e94565b925060208401359150604084013561320781612e94565b809150509250925092565b8015158114612ea957600080fd5b60008060008060008060a0878903121561323957600080fd5b863561324481612e94565b9550602087013561325481612e94565b945060408701359350606087013561326b81613212565b9250608087013567ffffffffffffffff81111561328757600080fd5b61329389828a01612eac565b979a9699509497509295939492505050565b600080600080600080600060c0888a0312156132c057600080fd5b87356132cb81612e94565b965060208801356132db81612e94565b955060408801356132eb81612e94565b9450606088013593506080880135925060a088013567ffffffffffffffff8111156131b157600080fd5b6000806000806000806000806000806101208b8d03121561333557600080fd5b8a3561334081612e94565b995060208b013561335081612e94565b985060408b013561336081612e94565b975060608b013561337081612e94565b965060808b0135955060a08b0135945060c08b0135935060e08b013561339581613212565b92506101008b013567ffffffffffffffff8111156133b257600080fd5b6133be8d828e01612eac565b915080935050809150509295989b9194979a5092959850565b60008060008060008060008060e0898b0312156133f357600080fd5b88356133fe81612e94565b9750602089013561340e81612e94565b9650604089013561341e81612e94565b9550606089013594506080890135935060a0890135925060c089013567ffffffffffffffff811115612f7657600080fd5b60008060006060848603121561346457600080fd5b833561346f81612e94565b95602085013595506040909401359392505050565b6000806040838503121561349757600080fd5b82356134a281612e94565b915060208301356134b281612e94565b809150509250929050565b600080600080600080600060c0888a0312156134d857600080fd5b87356134e381612e94565b96506020880135955060408801356134fa81612e94565b945060608801359350608088013561319581612e94565b60008060008060006080868803121561352957600080fd5b853561353481612e94565b945060208601359350604086013561354b81612e94565b9250606086013567ffffffffffffffff811115612fec57600080fd5b60008060008060008060a0878903121561358057600080fd5b863561358b81612e94565b9550602087013561359b81612e94565b945060408701359350606087013561326b81612e94565b6000602082840312156135c457600080fd5b8151612b4e81612e94565b6000602082840312156135e157600080fd5b5051919050565b81835281816020850137506000828201602090810191909152601f909101601f19169091010190565b60018060a01b03851681528360208201526060604082015260006136396060830184866135e8565b9695505050505050565b86815285602082015284604082015260018060a01b038416606082015260a06080820152600061113360a0830184866135e8565b6000806040838503121561368a57600080fd5b505080516020909101519092909150565b634e487b7160e01b600052601160045260246000fd5b6000600160ff1b82016136c6576136c661369b565b5060000390565b8681526001600160a01b038681166020830152604082018690528416606082015260a06080820181905260009061113390830184866135e8565b8581526001600160a01b03858116602083015284166040820152608060608201819052600090612cd990830184866135e8565b60008261375757634e487b7160e01b600052601260045260246000fd5b500490565b808201828112600083128015821682158216171561377c5761377c61369b565b505092915050565b6000825160005b818110156137a5576020818601810151858301520161378b565b506000920191825250919050565b6000602082840312156137c557600080fd5b8151612b4e81613212565b8082018082111561258d5761258d61369b565b8181038181111561258d5761258d61369b565b600181815b808511156138315781600019048211156138175761381761369b565b8085161561382457918102915b93841c93908002906137fb565b509250929050565b6000826138485750600161258d565b816138555750600061258d565b816001811461386b576002811461387557613891565b600191505061258d565b60ff8411156138865761388661369b565b50506001821b61258d565b5060208310610133831016604e8410600b84101617156138b4575081810a61258d565b6138be83836137f6565b80600019048211156138d2576138d261369b565b029392505050565b6000612b4e8383613839565b808202811582820484141761258d5761258d61369b56fea2646970667358221220668c8e9711aaea6da69c698549aeff8bc1d7a8c8dc5b1a58993c049f8749e15a64736f6c63430008110033",
    "immutableReferences": {},
    "source": "// SPDX-License-Identifier: AGPL-3.0-or-later\npragma solidity 0.8.17;\n\nimport \"../interfaces/IBookKeeper.sol\";\nimport \"../interfaces/IWXDC.sol\";\nimport \"../interfaces/IToken.sol\";\nimport \"../interfaces/IManager.sol\";\nimport \"../interfaces/IGenericTokenAdapter.sol\";\nimport \"../interfaces/IFarmableTokenAdapter.sol\";\nimport \"../interfaces/IStablecoinAdapter.sol\";\nimport \"../interfaces/IStabilityFeeCollector.sol\";\nimport \"../interfaces/IProxyRegistry.sol\";\nimport \"../interfaces/IProxy.sol\";\nimport \"../utils/SafeToken.sol\";\n\ncontract FathomStablecoinProxyActionsMath {\n    uint256 internal constant RAY = 10 ** 27;\n\n    function convertTo18(address _tokenAdapter, uint256 _amt) internal returns (uint256 _wad) {\n        // For those collaterals that have less than 18 decimals precision we need to do the conversion before passing to adjustPosition function\n        // Adapters will automatically handle the difference of precision\n        _wad = _safeMul(_amt, 10 ** (18 - IGenericTokenAdapter(_tokenAdapter).decimals()));\n    }\n\n    function _safeSub(uint256 _x, uint256 _y) internal pure returns (uint256 _z) {\n        require((_z = _x - _y) <= _x, \"sub-overflow\");\n    }\n\n    function _safeToInt(uint256 _x) internal pure returns (int256 _y) {\n        _y = int256(_x);\n        require(_y >= 0, \"int-overflow\");\n    }\n\n    function _safeMul(uint256 _x, uint256 _y) internal pure returns (uint256 _z) {\n        require(_y == 0 || (_z = _x * _y) / _y == _x, \"mul-overflow\");\n    }\n\n    function _toRad(uint256 _wad) internal pure returns (uint256 _rad) {\n        _rad = _safeMul(_wad, RAY);\n    }\n}\n\n/// @notice WARNING: These functions meant to be used as a a library for a Proxy.\n/// @notice DO NOT CALL ANY FUNCTION IN THIS CONTRACT DIRECTLY.\n/// @notice Hence, it shouldn't has any state vairables. Some are unsafe if you call them directly.\ncontract FathomStablecoinProxyActions is FathomStablecoinProxyActionsMath {\n    using SafeToken for address;\n\n    function whitelist(address _bookKeeper, address _usr) external {\n        IBookKeeper(_bookKeeper).whitelist(_usr);\n    }\n\n    function blacklist(address _bookKeeper, address _usr) external {\n        IBookKeeper(_bookKeeper).blacklist(_usr);\n    }\n\n    function transferOwnershipToProxy(address _proxyRegistry, address _manager, uint256 _positionId, address _dst) external {\n        address _proxy = IProxyRegistry(_proxyRegistry).proxies(_dst);\n        if (_proxy == address(0) || IProxy(_proxy).owner() != _dst) {\n            uint256 _codeSize;\n            assembly {\n                _codeSize := extcodesize(_dst)\n            }\n            require(_codeSize == 0, \"Dst-is-a-contract\"); // We want to avoid creating a proxy for a contract address that might not be able to handle proxies, then losing the CDP\n            _proxy = IProxyRegistry(_proxyRegistry).build(_dst); // Creates the proxy for the dst address\n        }\n        transferOwnership(_manager, _positionId, _proxy);\n    }\n\n    function allowManagePosition(address _manager, uint256 _positionId, address _user, uint256 _ok) external {\n        IManager(_manager).allowManagePosition(_positionId, _user, _ok);\n    }\n\n    function allowMigratePosition(address _manager, address _user, uint256 _ok) external {\n        IManager(_manager).allowMigratePosition(_user, _ok);\n    }\n\n    function exportPosition(address _manager, uint256 _positionId, address _destination) external {\n        IManager(_manager).exportPosition(_positionId, _destination);\n    }\n\n    function importPosition(address _manager, address _source, uint256 _positionId) external {\n        IManager(_manager).importPosition(_source, _positionId);\n    }\n\n    function movePosition(address _manager, uint256 _source, uint256 _destination) external {\n        IManager(_manager).movePosition(_source, _destination);\n    }\n\n    function safeLockXDC(address _manager, address _xdcAdapter, uint256 _positionId, address _owner, bytes calldata _data) external payable {\n        require(IManager(_manager).owners(_positionId) == _owner, \"!owner\");\n        lockXDC(_manager, _xdcAdapter, _positionId, _data);\n    }\n\n    function draw(\n        address _manager,\n        address _stabilityFeeCollector,\n        address _tokenAdapter,\n        address _stablecoinAdapter,\n        uint256 _positionId,\n        uint256 _amount, // [wad]\n        bytes calldata _data\n    ) external {\n        address _positionAddress = IManager(_manager).positions(_positionId);\n        address _bookKeeper = IManager(_manager).bookKeeper();\n        bytes32 _collateralPoolId = IManager(_manager).collateralPools(_positionId);\n        // Generates debt in the CDP\n        adjustPosition(\n            _manager,\n            _positionId,\n            0,\n            _getDrawDebtShare(_bookKeeper, _stabilityFeeCollector, _positionAddress, _collateralPoolId, _amount),\n            _tokenAdapter,\n            _data\n        );\n\n        moveStablecoin(_manager, _positionId, address(this), _toRad(_amount)); // Moves the Fathom Stablecoin amount (balance in the bookKeeper in rad) to proxy's address\n\n        // Allows adapter to access to proxy's Fathom Stablecoin balance in the bookKeeper\n        if (IBookKeeper(_bookKeeper).positionWhitelist(address(this), address(_stablecoinAdapter)) == 0) {\n            IBookKeeper(_bookKeeper).whitelist(_stablecoinAdapter);\n        }\n\n        IStablecoinAdapter(_stablecoinAdapter).withdraw(msg.sender, _amount, _data); // Withdraws Fathom Stablecoin to the user's wallet as a token\n        IManager(_manager).updatePrice(_collateralPoolId);\n    }\n\n    function openLockXDCAndDraw(\n        address _manager,\n        address _stabilityFeeCollector,\n        address _xdcAdapter,\n        address _stablecoinAdapter,\n        bytes32 _collateralPoolId,\n        uint256 _stablecoinAmount, // [wad]\n        bytes calldata _data\n    ) external payable returns (uint256 _positionId) {\n        _positionId = open(_manager, _collateralPoolId, address(this));\n        lockXDCAndDraw(_manager, _stabilityFeeCollector, _xdcAdapter, _stablecoinAdapter, _positionId, _stablecoinAmount, _data);\n    }\n\n    function wipeAndUnlockXDC(\n        address _manager,\n        address _xdcAdapter,\n        address _stablecoinAdapter,\n        uint256 _positionId,\n        uint256 _collateralAmount, // [wad]\n        uint256 _stablecoinAmount, // [wad]\n        bytes calldata _data\n    ) external {\n        address _positionAddress = IManager(_manager).positions(_positionId);\n        bytes32 _collateralPoolId = IManager(_manager).collateralPools(_positionId);\n        stablecoinAdapterDeposit(_stablecoinAdapter, _positionAddress, _stablecoinAmount, _data); // Deposits Fathom Stablecoin amount into the bookKeeper\n        // Paybacks debt to the position and unlocks WXDC amount from it\n        int256 _wipeDebtShare = _getWipeDebtShare(\n            IManager(_manager).bookKeeper(),\n            IBookKeeper(IManager(_manager).bookKeeper()).stablecoin(_positionAddress),\n            _positionAddress,\n            _collateralPoolId\n        ); // [wad]\n        adjustPosition(_manager, _positionId, -_safeToInt(_collateralAmount), _wipeDebtShare, _xdcAdapter, _data);\n        if (_collateralAmount > 0) {\n            moveCollateral(_manager, _positionId, address(this), _collateralAmount, _xdcAdapter, _data); // Moves the amount from the position to proxy's address\n            IGenericTokenAdapter(_xdcAdapter).withdraw(address(this), _collateralAmount, _data); // Withdraws WXDC amount to proxy address as a token\n            IWXDC(address(IGenericTokenAdapter(_xdcAdapter).collateralToken())).withdraw(_collateralAmount); // Converts WXDC to XDC\n            SafeToken.safeTransferETH(msg.sender, _collateralAmount); // Send XDC to user\n        }\n        IManager(_manager).updatePrice(_collateralPoolId);\n    }\n\n    function wipeAllAndUnlockXDC(\n        address _manager,\n        address _xdcAdapter,\n        address _stablecoinAdapter,\n        uint256 _positionId,\n        uint256 _collateralAmount, // [wad]\n        bytes calldata _data\n    ) external {\n        address _bookKeeper = IManager(_manager).bookKeeper();\n        address _positionAddress = IManager(_manager).positions(_positionId);\n        bytes32 _collateralPoolId = IManager(_manager).collateralPools(_positionId);\n        (, uint256 _debtShare) = IBookKeeper(_bookKeeper).positions(_collateralPoolId, _positionAddress); // [wad]\n\n        // Deposits Fathom Stablecoin amount into the bookKeeper\n        stablecoinAdapterDeposit(\n            _stablecoinAdapter,\n            _positionAddress,\n            _getWipeAllStablecoinAmount(_bookKeeper, _positionAddress, _positionAddress, _collateralPoolId),\n            _data\n        );\n        adjustPosition(_manager, _positionId, -_safeToInt(_collateralAmount), -int256(_debtShare), _xdcAdapter, _data); // Paybacks debt to the CDP and unlocks WXDC amount from it\n        if (_collateralAmount > 0) {\n            moveCollateral(_manager, _positionId, address(this), _collateralAmount, _xdcAdapter, _data); // Moves the amount from the CDP positionAddress to proxy's address\n            IGenericTokenAdapter(_xdcAdapter).withdraw(address(this), _collateralAmount, _data);\n            IWXDC(address(IGenericTokenAdapter(_xdcAdapter).collateralToken())).withdraw(_collateralAmount); // Converts WXDC to XDC\n            SafeToken.safeTransferETH(msg.sender, _collateralAmount); // Send XDC to user\n        }\n        IManager(_manager).updatePrice(_collateralPoolId);\n    }\n\n    function redeemLockedCollateral(address _manager, uint256 _positionId, address _tokenAdapter, bytes calldata _data) external {\n        IManager(_manager).redeemLockedCollateral(_positionId, _tokenAdapter, address(this), _data);\n    }\n\n    /// @param _adapter The address of stablecoin adapter\n    /// @param _positionAddress The address of the Position Handler\n    /// @param _stablecoinAmount The amount in wad to be deposit to Stablecoin adapter [wad]\n    /// @param _data The extra data for stable adapter context\n    function stablecoinAdapterDeposit(\n        address _adapter,\n        address _positionAddress,\n        uint256 _stablecoinAmount, // [wad]\n        bytes calldata _data\n    ) public {\n        address _stablecoin = address(IStablecoinAdapter(_adapter).stablecoin());\n        // Gets Fathom Stablecoin from the user's wallet\n        _stablecoin.safeTransferFrom(msg.sender, address(this), _stablecoinAmount);\n\n        // Approves adapter to take the Fathom Stablecoin amount\n        _stablecoin.safeApprove(_adapter, _stablecoinAmount);\n        // Deposits Fathom Stablecoin into the bookKeeper\n        IStablecoinAdapter(_adapter).deposit(_positionAddress, _stablecoinAmount, _data);\n    }\n\n    function xdcAdapterDeposit(address _adapter, address _positionAddress, bytes calldata _data) public payable {\n        //##back to Vanilla - Adapter now needs to have collateralToken state variable added\n        address _collateralToken = address(IGenericTokenAdapter(_adapter).collateralToken());\n        // Wraps XDC into WXDC\n        IWXDC(_collateralToken).deposit{ value: msg.value }();\n        // Approves adapter to take the WXDC amount\n        _collateralToken.safeApprove(address(_adapter), msg.value);\n        // Deposits WXDC collateral into the bookKeeper\n        IGenericTokenAdapter(_adapter).deposit(_positionAddress, msg.value, _data);\n    }\n\n    function tokenAdapterDeposit(\n        address _adapter,\n        address _positionAddress,\n        uint256 _amount, // [wad]\n        bool _transferFrom,\n        bytes calldata _data\n    ) public {\n        address _collateralToken = address(IGenericTokenAdapter(_adapter).collateralToken());\n\n        // Only executes for tokens that have approval/transferFrom implementation\n        if (_transferFrom) {\n            // Gets token from the user's wallet\n            _collateralToken.safeTransferFrom(msg.sender, address(this), _amount);\n        }\n        // Approves adapter to take the token amount\n        _collateralToken.safeApprove(_adapter, _amount);\n        // Deposits token collateral into the bookKeeper\n        IGenericTokenAdapter(_adapter).deposit(_positionAddress, _amount, _data);\n    }\n\n    function transfer(address _collateralToken, address _dst, uint256 _amt) public {\n        address(_collateralToken).safeTransfer(_dst, _amt);\n    }\n\n    function open(address _manager, bytes32 _collateralPoolId, address _usr) public returns (uint256 _positionId) {\n        _positionId = IManager(_manager).open(_collateralPoolId, _usr);\n    }\n\n    function transferOwnership(address _manager, uint256 _positionId, address _usr) public {\n        IManager(_manager).give(_positionId, _usr);\n    }\n\n    function adjustPosition(\n        address _manager,\n        uint256 _positionId,\n        int256 _collateralValue,\n        int256 _debtShare, // [wad]\n        address _adapter,\n        bytes calldata _data\n    ) public {\n        IManager(_manager).adjustPosition(_positionId, _collateralValue, _debtShare, _adapter, _data);\n    }\n\n    function moveCollateral(\n        address _manager,\n        uint256 _positionId,\n        address _dst,\n        uint256 _collateralAmount,\n        address _adapter,\n        bytes calldata _data\n    ) public {\n        IManager(_manager).moveCollateral(_positionId, _dst, _collateralAmount, _adapter, _data);\n    }\n\n    function moveStablecoin(\n        address _manager,\n        uint256 _positionId,\n        address _dst,\n        uint256 _stablecoinValue // [rad]\n    ) public {\n        IManager(_manager).moveStablecoin(_positionId, _dst, _stablecoinValue);\n    }\n\n    function lockXDC(address _manager, address _xdcAdapter, uint256 _positionId, bytes calldata _data) public payable {\n        address _positionAddress = IManager(_manager).positions(_positionId);\n        xdcAdapterDeposit(_xdcAdapter, _positionAddress, _data);\n        adjustPosition(_manager, _positionId, _safeToInt(msg.value), 0, _xdcAdapter, _data); // Locks XDC amount into the CDP\n    }\n\n    function lockXDCAndDraw(\n        address _manager,\n        address _stabilityFeeCollector,\n        address _xdcAdapter,\n        address _stablecoinAdapter,\n        uint256 _positionId,\n        uint256 _stablecoinAmount, // [wad]\n        bytes calldata _data\n    ) public payable {\n        address _positionAddress = IManager(_manager).positions(_positionId);\n        address _bookKeeper = IManager(_manager).bookKeeper();\n        bytes32 _collateralPoolId = IManager(_manager).collateralPools(_positionId);\n\n        xdcAdapterDeposit(_xdcAdapter, _positionAddress, _data);\n\n        adjustPosition(\n            _manager,\n            _positionId,\n            _safeToInt(msg.value),\n            _getDrawDebtShare(_bookKeeper, _stabilityFeeCollector, _positionAddress, _collateralPoolId, _stablecoinAmount),\n            _xdcAdapter,\n            _data\n        );\n        // Moves the Fathom Stablecoin amount (balance in the bookKeeper in rad) to proxy's address\n        moveStablecoin(_manager, _positionId, address(this), _toRad(_stablecoinAmount));\n        // Allows adapter to access to proxy's Fathom Stablecoin balance in the bookKeeper\n        if (IBookKeeper(_bookKeeper).positionWhitelist(address(this), address(_stablecoinAdapter)) == 0) {\n            IBookKeeper(_bookKeeper).whitelist(_stablecoinAdapter);\n        }\n        // Withdraws Fathom Stablecoin to the user's wallet as a token\n        IStablecoinAdapter(_stablecoinAdapter).withdraw(msg.sender, _stablecoinAmount, _data);\n        IManager(_manager).updatePrice(_collateralPoolId);\n    }\n\n    function lockTokenAndDraw(\n        IManager _manager,\n        address _stabilityFeeCollector,\n        address _tokenAdapter,\n        address _stablecoinAdapter,\n        uint256 _positionId,\n        uint256 _collateralAmount, // [in token decimal]\n        uint256 _stablecoinAmount, // [wad]\n        bool _transferFrom,\n        bytes calldata _data\n    ) public {\n        bytes32 _collateralPoolId = _manager.collateralPools(_positionId);\n        // Takes token amount from user's wallet and joins into the bookKeeper\n        tokenAdapterDeposit(_tokenAdapter, _manager.positions(_positionId), _collateralAmount, _transferFrom, _data);\n        // Locks token amount into the position and generates debt\n        int256 _collateralAmountInWad = _safeToInt(convertTo18(_tokenAdapter, _collateralAmount));\n        int256 _drawDebtShare = _getDrawDebtShare(\n            _manager.bookKeeper(),\n            _stabilityFeeCollector,\n            _manager.positions(_positionId),\n            _collateralPoolId,\n            _stablecoinAmount\n        ); // [wad]\n        adjustPosition(address(_manager), _positionId, _collateralAmountInWad, _drawDebtShare, _tokenAdapter, _data);\n        // Moves the Fathom Stablecoin amount (balance in the bookKeeper in rad) to proxy's address\n        moveStablecoin(address(_manager), _positionId, address(this), _toRad(_stablecoinAmount));\n        // Allows adapter to access to proxy's Fathom Stablecoin balance in the bookKeeper\n        if (IBookKeeper(_manager.bookKeeper()).positionWhitelist(address(this), address(_stablecoinAdapter)) == 0) {\n            IBookKeeper(_manager.bookKeeper()).whitelist(_stablecoinAdapter);\n        }\n        // Withdraws FXD to the user's wallet as a token\n        IStablecoinAdapter(_stablecoinAdapter).withdraw(msg.sender, _stablecoinAmount, _data);\n    }\n\n    function openLockTokenAndDraw(\n        address _manager,\n        address _stabilityFeeCollector,\n        address _tokenAdapter,\n        address _stablecoinAdapter,\n        bytes32 _collateralPoolId,\n        uint256 _collateralAmount, // [in token decimal]\n        uint256 _stablecoinAmount, // [wad]\n        bool _transferFrom,\n        bytes calldata _data\n    ) public returns (uint256 _positionId) {\n        _positionId = open(_manager, _collateralPoolId, address(this));\n        lockTokenAndDraw(\n            IManager(_manager),\n            _stabilityFeeCollector,\n            _tokenAdapter,\n            _stablecoinAdapter,\n            _positionId,\n            _collateralAmount,\n            _stablecoinAmount,\n            _transferFrom,\n            _data\n        );\n    }\n\n    function wipeAndUnlockToken(\n        address _manager,\n        address _tokenAdapter,\n        address _stablecoinAdapter,\n        uint256 _positionId,\n        uint256 _collateralAmount, // [in token decimal]\n        uint256 _stablecoinAmount, // [wad]\n        bytes calldata _data\n    ) public {\n        address _positionAddress = IManager(_manager).positions(_positionId);\n        bytes32 _collateralPoolId = IManager(_manager).collateralPools(_positionId);\n        // Deposits Fathom Stablecoin amount into the bookKeeper\n        stablecoinAdapterDeposit(_stablecoinAdapter, _positionAddress, _stablecoinAmount, _data);\n        uint256 _collateralAmountInWad = convertTo18(_tokenAdapter, _collateralAmount);\n        // Paybacks debt to the CDP and unlocks token amount from it\n        int256 _wipeDebtShare = _getWipeDebtShare(\n            IManager(_manager).bookKeeper(),\n            IBookKeeper(IManager(_manager).bookKeeper()).stablecoin(_positionAddress),\n            _positionAddress,\n            IManager(_manager).collateralPools(_positionId)\n        );\n        adjustPosition(_manager, _positionId, -_safeToInt(_collateralAmountInWad), _wipeDebtShare, _tokenAdapter, _data);\n        if (_collateralAmount > 0) {\n            moveCollateral(_manager, _positionId, address(this), _collateralAmountInWad, _tokenAdapter, _data); // Moves the amount from the position to proxy's address\n            IGenericTokenAdapter(_tokenAdapter).withdraw(msg.sender, _collateralAmount, _data); // Withdraws token amount to the user's wallet as a token\n        }\n        IManager(_manager).updatePrice(_collateralPoolId);\n    }\n\n    function wipeAllAndUnlockToken(\n        address _manager,\n        address _tokenAdapter,\n        address _stablecoinAdapter,\n        uint256 _positionId,\n        uint256 _collateralAmount, // [token decimal]\n        bytes calldata _data\n    ) public {\n        address _bookKeeper = IManager(_manager).bookKeeper();\n        address _positionAddress = IManager(_manager).positions(_positionId);\n        bytes32 _collateralPoolId = IManager(_manager).collateralPools(_positionId);\n        (, uint256 _debtShare) = IBookKeeper(_bookKeeper).positions(_collateralPoolId, _positionAddress);\n\n        // Deposits Fathom Stablecoin amount into the bookKeeper\n        stablecoinAdapterDeposit(\n            _stablecoinAdapter,\n            _positionAddress,\n            _getWipeAllStablecoinAmount(_bookKeeper, _positionAddress, _positionAddress, _collateralPoolId),\n            _data\n        );\n        uint256 _collateralAmountInWad = convertTo18(_tokenAdapter, _collateralAmount);\n        // Paybacks debt to the position and unlocks token amount from it\n        adjustPosition(_manager, _positionId, -_safeToInt(_collateralAmountInWad), -int256(_debtShare), _tokenAdapter, _data);\n        if (_collateralAmount > 0) {\n            moveCollateral(_manager, _positionId, address(this), _collateralAmountInWad, _tokenAdapter, _data); // Moves the amount from the position to proxy's address\n            IGenericTokenAdapter(_tokenAdapter).withdraw(msg.sender, _collateralAmount, _data); // Withdraws token amount to the user's wallet as a token\n        }\n        IManager(_manager).updatePrice(_collateralPoolId);\n    }\n\n    function _getDrawDebtShare(\n        address _bookKeeper,\n        address _stabilityFeeCollector,\n        address _positionAddress,\n        bytes32 _collateralPoolId,\n        uint256 _stablecoinAmount // [wad]\n    ) internal returns (int256 _resultDebtShare) {\n        uint256 _debtAccumulatedRate = IStabilityFeeCollector(_stabilityFeeCollector).collect(_collateralPoolId); // [ray]. Updates stability fee rate\n        uint256 _positionStablecoinValue = IBookKeeper(_bookKeeper).stablecoin(_positionAddress); // [rad]. Gets Fathom Stablecoin balance of the positionAddress in the bookKeeper\n\n        // If there was already enough Fathom Stablecoin in the bookKeeper balance, just exits it without adding more debt\n        if (_positionStablecoinValue < _safeMul(_stablecoinAmount, RAY)) {\n            // Calculates the needed resultDebtShare so together with the existing positionStablecoinValue in the bookKeeper is enough to exit stablecoinAmount of Fathom Stablecoin tokens\n            _resultDebtShare = _safeToInt(_safeSub(_safeMul(_stablecoinAmount, RAY), _positionStablecoinValue) / _debtAccumulatedRate);\n            // This is neeeded due lack of precision. It might need to sum an extra resultDebtShare wei (for the given Fathom Stablecoin stablecoinAmount)\n            _resultDebtShare = _safeMul(uint256(_resultDebtShare), _debtAccumulatedRate) < _safeMul(_stablecoinAmount, RAY)\n                ? _resultDebtShare + 1\n                : _resultDebtShare;\n        }\n    }\n\n    function _getWipeDebtShare(\n        address _bookKeeper,\n        uint256 _stablecoinValue, // [rad]\n        address _positionAddress,\n        bytes32 _collateralPoolId\n    ) internal view returns (int256 _resultDebtShare) {\n        uint256 _debtAccumulatedRate = ICollateralPoolConfig(IBookKeeper(_bookKeeper).collateralPoolConfig()).getDebtAccumulatedRate(\n            _collateralPoolId\n        ); // [ray]. // Gets actual rate from the bookKeeper\n        (, uint256 _debtShare) = IBookKeeper(_bookKeeper).positions(_collateralPoolId, _positionAddress); // [wad]. // Gets actual debtShare value of the positionAddress\n\n        _resultDebtShare = _safeToInt(_stablecoinValue / _debtAccumulatedRate); // [wad]. // Uses the whole stablecoin balance in the bookKeeper to reduce the debt\n        // [wad]. // Checks the calculated resultDebtShare is not higher than positionAddress.art (total debt), otherwise uses its value\n        _resultDebtShare = uint256(_resultDebtShare) <= _debtShare ? -_resultDebtShare : -_safeToInt(_debtShare);\n    }\n\n    function _getWipeAllStablecoinAmount(\n        address _bookKeeper,\n        address _usr,\n        address _positionAddress,\n        bytes32 _collateralPoolId\n    ) internal view returns (uint256 _requiredStablecoinAmount) {\n        uint256 _debtAccumulatedRate = ICollateralPoolConfig(IBookKeeper(_bookKeeper).collateralPoolConfig()).getDebtAccumulatedRate(\n            _collateralPoolId\n        ); // [ray]. Gets actual rate from the bookKeeper\n        (, uint256 _debtShare) = IBookKeeper(_bookKeeper).positions(_collateralPoolId, _positionAddress); // [wad]. Gets actual debtShare value of the positionAddress\n        uint256 _stablecoinValue = IBookKeeper(_bookKeeper).stablecoin(_usr); // [rad]. Gets actual stablecoin amount in the usr\n\n        uint256 _positionDebtValue = _safeMul(_debtShare, _debtAccumulatedRate);\n        uint256 _requiredStablecoinValue = _positionDebtValue >= _stablecoinValue ? _safeSub(_positionDebtValue, _stablecoinValue) : 0; // [rad]\n        _requiredStablecoinAmount = _requiredStablecoinValue / RAY; // [wad] = [rad]/[ray]\n\n        // If the value precision has some dust, it will need to request for 1 extra amount wei\n        _requiredStablecoinAmount = _safeMul(_requiredStablecoinAmount, RAY) < _requiredStablecoinValue\n            ? _requiredStablecoinAmount + 1\n            : _requiredStablecoinAmount;\n    }\n}\n",
    "sourcePath": "/Users/sangjun.lee/Sangjun/fathom-stablecoin-smart-contracts/contracts/main/proxy-actions/FathomStablecoinProxyActions.sol",
    "compiler": {
        "name": "solc",
        "version": "0.8.17+commit.8df45f5f.Emscripten.clang"
    },
    "schemaVersion": "3.4.10",
    "updatedAt": "2023-04-17T09:23:54.759Z",
    "devdoc": {
        "kind": "dev",
        "methods": {
            "stablecoinAdapterDeposit(address,address,uint256,bytes)": {
                "params": {
                    "_adapter": "The address of stablecoin adapter",
                    "_data": "The extra data for stable adapter context",
                    "_positionAddress": "The address of the Position Handler",
                    "_stablecoinAmount": "The amount in wad to be deposit to Stablecoin adapter [wad]"
                }
            }
        },
        "version": 1
    },
    "userdoc": {
        "kind": "user",
        "methods": {},
        "notice": "WARNING: These functions meant to be used as a a library for a Proxy.DO NOT CALL ANY FUNCTION IN THIS CONTRACT DIRECTLY.Hence, it shouldn't has any state vairables. Some are unsafe if you call them directly.",
        "version": 1
    }
}