{
    "contractName": "FathomStablecoinProxyActions",
    "abi": [
        {
            "inputs": [
                {
                    "internalType": "address",
                    "name": "_adapter",
                    "type": "address"
                },
                {
                    "internalType": "address",
                    "name": "_positionAddress",
                    "type": "address"
                },
                {
                    "internalType": "uint256",
                    "name": "_stablecoinAmount",
                    "type": "uint256"
                },
                {
                    "internalType": "bytes",
                    "name": "_data",
                    "type": "bytes"
                }
            ],
            "name": "stablecoinAdapterDeposit",
            "outputs": [],
            "stateMutability": "nonpayable",
            "type": "function"
        },
        {
            "inputs": [
                {
                    "internalType": "address",
                    "name": "_collateralToken",
                    "type": "address"
                },
                {
                    "internalType": "address",
                    "name": "_dst",
                    "type": "address"
                },
                {
                    "internalType": "uint256",
                    "name": "_amt",
                    "type": "uint256"
                }
            ],
            "name": "transfer",
            "outputs": [],
            "stateMutability": "nonpayable",
            "type": "function"
        },
        {
            "inputs": [
                {
                    "internalType": "address",
                    "name": "_adapter",
                    "type": "address"
                },
                {
                    "internalType": "address",
                    "name": "_positionAddress",
                    "type": "address"
                },
                {
                    "internalType": "bytes",
                    "name": "_data",
                    "type": "bytes"
                }
            ],
            "name": "xdcAdapterDeposit",
            "outputs": [],
            "stateMutability": "payable",
            "type": "function"
        },
        {
            "inputs": [
                {
                    "internalType": "address",
                    "name": "_bookKeeper",
                    "type": "address"
                },
                {
                    "internalType": "address",
                    "name": "_usr",
                    "type": "address"
                }
            ],
            "name": "whitelist",
            "outputs": [],
            "stateMutability": "nonpayable",
            "type": "function"
        },
        {
            "inputs": [
                {
                    "internalType": "address",
                    "name": "_bookKeeper",
                    "type": "address"
                },
                {
                    "internalType": "address",
                    "name": "_usr",
                    "type": "address"
                }
            ],
            "name": "blacklist",
            "outputs": [],
            "stateMutability": "nonpayable",
            "type": "function"
        },
        {
            "inputs": [
                {
                    "internalType": "address",
                    "name": "_manager",
                    "type": "address"
                },
                {
                    "internalType": "bytes32",
                    "name": "_collateralPoolId",
                    "type": "bytes32"
                },
                {
                    "internalType": "address",
                    "name": "_usr",
                    "type": "address"
                }
            ],
            "name": "open",
            "outputs": [
                {
                    "internalType": "uint256",
                    "name": "_positionId",
                    "type": "uint256"
                }
            ],
            "stateMutability": "nonpayable",
            "type": "function"
        },
        {
            "inputs": [
                {
                    "internalType": "address",
                    "name": "_manager",
                    "type": "address"
                },
                {
                    "internalType": "uint256",
                    "name": "_positionId",
                    "type": "uint256"
                },
                {
                    "internalType": "address",
                    "name": "_usr",
                    "type": "address"
                }
            ],
            "name": "transferOwnership",
            "outputs": [],
            "stateMutability": "nonpayable",
            "type": "function"
        },
        {
            "inputs": [
                {
                    "internalType": "address",
                    "name": "_proxyRegistry",
                    "type": "address"
                },
                {
                    "internalType": "address",
                    "name": "_manager",
                    "type": "address"
                },
                {
                    "internalType": "uint256",
                    "name": "_positionId",
                    "type": "uint256"
                },
                {
                    "internalType": "address",
                    "name": "_dst",
                    "type": "address"
                }
            ],
            "name": "transferOwnershipToProxy",
            "outputs": [],
            "stateMutability": "nonpayable",
            "type": "function"
        },
        {
            "inputs": [
                {
                    "internalType": "address",
                    "name": "_manager",
                    "type": "address"
                },
                {
                    "internalType": "uint256",
                    "name": "_positionId",
                    "type": "uint256"
                },
                {
                    "internalType": "address",
                    "name": "_user",
                    "type": "address"
                },
                {
                    "internalType": "uint256",
                    "name": "_ok",
                    "type": "uint256"
                }
            ],
            "name": "allowManagePosition",
            "outputs": [],
            "stateMutability": "nonpayable",
            "type": "function"
        },
        {
            "inputs": [
                {
                    "internalType": "address",
                    "name": "_manager",
                    "type": "address"
                },
                {
                    "internalType": "address",
                    "name": "_user",
                    "type": "address"
                },
                {
                    "internalType": "uint256",
                    "name": "_ok",
                    "type": "uint256"
                }
            ],
            "name": "allowMigratePosition",
            "outputs": [],
            "stateMutability": "nonpayable",
            "type": "function"
        },
        {
            "inputs": [
                {
                    "internalType": "address",
                    "name": "_manager",
                    "type": "address"
                },
                {
                    "internalType": "uint256",
                    "name": "_positionId",
                    "type": "uint256"
                },
                {
                    "internalType": "address",
                    "name": "_dst",
                    "type": "address"
                },
                {
                    "internalType": "uint256",
                    "name": "_collateralAmount",
                    "type": "uint256"
                },
                {
                    "internalType": "address",
                    "name": "_adapter",
                    "type": "address"
                },
                {
                    "internalType": "bytes",
                    "name": "_data",
                    "type": "bytes"
                }
            ],
            "name": "moveCollateral",
            "outputs": [],
            "stateMutability": "nonpayable",
            "type": "function"
        },
        {
            "inputs": [
                {
                    "internalType": "address",
                    "name": "_manager",
                    "type": "address"
                },
                {
                    "internalType": "uint256",
                    "name": "_positionId",
                    "type": "uint256"
                },
                {
                    "internalType": "address",
                    "name": "_dst",
                    "type": "address"
                },
                {
                    "internalType": "uint256",
                    "name": "_stablecoinValue",
                    "type": "uint256"
                }
            ],
            "name": "moveStablecoin",
            "outputs": [],
            "stateMutability": "nonpayable",
            "type": "function"
        },
        {
            "inputs": [
                {
                    "internalType": "address",
                    "name": "_manager",
                    "type": "address"
                },
                {
                    "internalType": "uint256",
                    "name": "_positionId",
                    "type": "uint256"
                },
                {
                    "internalType": "int256",
                    "name": "_collateralValue",
                    "type": "int256"
                },
                {
                    "internalType": "int256",
                    "name": "_debtShare",
                    "type": "int256"
                },
                {
                    "internalType": "address",
                    "name": "_adapter",
                    "type": "address"
                },
                {
                    "internalType": "bytes",
                    "name": "_data",
                    "type": "bytes"
                }
            ],
            "name": "adjustPosition",
            "outputs": [],
            "stateMutability": "nonpayable",
            "type": "function"
        },
        {
            "inputs": [
                {
                    "internalType": "address",
                    "name": "_manager",
                    "type": "address"
                },
                {
                    "internalType": "uint256",
                    "name": "_positionId",
                    "type": "uint256"
                },
                {
                    "internalType": "address",
                    "name": "_destination",
                    "type": "address"
                }
            ],
            "name": "exportPosition",
            "outputs": [],
            "stateMutability": "nonpayable",
            "type": "function"
        },
        {
            "inputs": [
                {
                    "internalType": "address",
                    "name": "_manager",
                    "type": "address"
                },
                {
                    "internalType": "address",
                    "name": "_source",
                    "type": "address"
                },
                {
                    "internalType": "uint256",
                    "name": "_positionId",
                    "type": "uint256"
                }
            ],
            "name": "importPosition",
            "outputs": [],
            "stateMutability": "nonpayable",
            "type": "function"
        },
        {
            "inputs": [
                {
                    "internalType": "address",
                    "name": "_manager",
                    "type": "address"
                },
                {
                    "internalType": "uint256",
                    "name": "_source",
                    "type": "uint256"
                },
                {
                    "internalType": "uint256",
                    "name": "_destination",
                    "type": "uint256"
                }
            ],
            "name": "movePosition",
            "outputs": [],
            "stateMutability": "nonpayable",
            "type": "function"
        },
        {
            "inputs": [
                {
                    "internalType": "address",
                    "name": "_manager",
                    "type": "address"
                },
                {
                    "internalType": "address",
                    "name": "_xdcAdapter",
                    "type": "address"
                },
                {
                    "internalType": "uint256",
                    "name": "_positionId",
                    "type": "uint256"
                },
                {
                    "internalType": "bytes",
                    "name": "_data",
                    "type": "bytes"
                }
            ],
            "name": "lockXDC",
            "outputs": [],
            "stateMutability": "payable",
            "type": "function"
        },
        {
            "inputs": [
                {
                    "internalType": "address",
                    "name": "_manager",
                    "type": "address"
                },
                {
                    "internalType": "address",
                    "name": "_xdcAdapter",
                    "type": "address"
                },
                {
                    "internalType": "uint256",
                    "name": "_positionId",
                    "type": "uint256"
                },
                {
                    "internalType": "address",
                    "name": "_owner",
                    "type": "address"
                },
                {
                    "internalType": "bytes",
                    "name": "_data",
                    "type": "bytes"
                }
            ],
            "name": "safeLockXDC",
            "outputs": [],
            "stateMutability": "payable",
            "type": "function"
        },
        {
            "inputs": [
                {
                    "internalType": "address",
                    "name": "_manager",
                    "type": "address"
                },
                {
                    "internalType": "address",
                    "name": "_stabilityFeeCollector",
                    "type": "address"
                },
                {
                    "internalType": "address",
                    "name": "_tokenAdapter",
                    "type": "address"
                },
                {
                    "internalType": "address",
                    "name": "_stablecoinAdapter",
                    "type": "address"
                },
                {
                    "internalType": "uint256",
                    "name": "_positionId",
                    "type": "uint256"
                },
                {
                    "internalType": "uint256",
                    "name": "_amount",
                    "type": "uint256"
                },
                {
                    "internalType": "bytes",
                    "name": "_data",
                    "type": "bytes"
                }
            ],
            "name": "draw",
            "outputs": [],
            "stateMutability": "nonpayable",
            "type": "function"
        },
        {
            "inputs": [
                {
                    "internalType": "address",
                    "name": "_manager",
                    "type": "address"
                },
                {
                    "internalType": "address",
                    "name": "_tokenAdapter",
                    "type": "address"
                },
                {
                    "internalType": "address",
                    "name": "_stablecoinAdapter",
                    "type": "address"
                },
                {
                    "internalType": "uint256",
                    "name": "_positionId",
                    "type": "uint256"
                },
                {
                    "internalType": "uint256",
                    "name": "_amount",
                    "type": "uint256"
                },
                {
                    "internalType": "bytes",
                    "name": "_data",
                    "type": "bytes"
                }
            ],
            "name": "wipe",
            "outputs": [],
            "stateMutability": "nonpayable",
            "type": "function"
        },
        {
            "inputs": [
                {
                    "internalType": "address",
                    "name": "_manager",
                    "type": "address"
                },
                {
                    "internalType": "address",
                    "name": "_tokenAdapter",
                    "type": "address"
                },
                {
                    "internalType": "address",
                    "name": "_stablecoinAdapter",
                    "type": "address"
                },
                {
                    "internalType": "uint256",
                    "name": "_positionId",
                    "type": "uint256"
                },
                {
                    "internalType": "uint256",
                    "name": "_amount",
                    "type": "uint256"
                },
                {
                    "internalType": "address",
                    "name": "_owner",
                    "type": "address"
                },
                {
                    "internalType": "bytes",
                    "name": "_data",
                    "type": "bytes"
                }
            ],
            "name": "safeWipe",
            "outputs": [],
            "stateMutability": "nonpayable",
            "type": "function"
        },
        {
            "inputs": [
                {
                    "internalType": "address",
                    "name": "_manager",
                    "type": "address"
                },
                {
                    "internalType": "address",
                    "name": "_tokenAdapter",
                    "type": "address"
                },
                {
                    "internalType": "address",
                    "name": "_stablecoinAdapter",
                    "type": "address"
                },
                {
                    "internalType": "uint256",
                    "name": "_positionId",
                    "type": "uint256"
                },
                {
                    "internalType": "bytes",
                    "name": "_data",
                    "type": "bytes"
                }
            ],
            "name": "wipeAll",
            "outputs": [],
            "stateMutability": "nonpayable",
            "type": "function"
        },
        {
            "inputs": [
                {
                    "internalType": "address",
                    "name": "_manager",
                    "type": "address"
                },
                {
                    "internalType": "address",
                    "name": "_tokenAdapter",
                    "type": "address"
                },
                {
                    "internalType": "address",
                    "name": "_stablecoinAdapter",
                    "type": "address"
                },
                {
                    "internalType": "uint256",
                    "name": "_positionId",
                    "type": "uint256"
                },
                {
                    "internalType": "address",
                    "name": "_owner",
                    "type": "address"
                },
                {
                    "internalType": "bytes",
                    "name": "_data",
                    "type": "bytes"
                }
            ],
            "name": "safeWipeAll",
            "outputs": [],
            "stateMutability": "nonpayable",
            "type": "function"
        },
        {
            "inputs": [
                {
                    "internalType": "address",
                    "name": "_manager",
                    "type": "address"
                },
                {
                    "internalType": "address",
                    "name": "_stabilityFeeCollector",
                    "type": "address"
                },
                {
                    "internalType": "address",
                    "name": "_xdcAdapter",
                    "type": "address"
                },
                {
                    "internalType": "address",
                    "name": "_stablecoinAdapter",
                    "type": "address"
                },
                {
                    "internalType": "uint256",
                    "name": "_positionId",
                    "type": "uint256"
                },
                {
                    "internalType": "uint256",
                    "name": "_stablecoinAmount",
                    "type": "uint256"
                },
                {
                    "internalType": "bytes",
                    "name": "_data",
                    "type": "bytes"
                }
            ],
            "name": "lockXDCAndDraw",
            "outputs": [],
            "stateMutability": "payable",
            "type": "function"
        },
        {
            "inputs": [
                {
                    "internalType": "address",
                    "name": "_manager",
                    "type": "address"
                },
                {
                    "internalType": "address",
                    "name": "_stabilityFeeCollector",
                    "type": "address"
                },
                {
                    "internalType": "address",
                    "name": "_xdcAdapter",
                    "type": "address"
                },
                {
                    "internalType": "address",
                    "name": "_stablecoinAdapter",
                    "type": "address"
                },
                {
                    "internalType": "bytes32",
                    "name": "_collateralPoolId",
                    "type": "bytes32"
                },
                {
                    "internalType": "uint256",
                    "name": "_stablecoinAmount",
                    "type": "uint256"
                },
                {
                    "internalType": "bytes",
                    "name": "_data",
                    "type": "bytes"
                }
            ],
            "name": "openLockXDCAndDraw",
            "outputs": [
                {
                    "internalType": "uint256",
                    "name": "_positionId",
                    "type": "uint256"
                }
            ],
            "stateMutability": "payable",
            "type": "function"
        },
        {
            "inputs": [
                {
                    "internalType": "address",
                    "name": "_manager",
                    "type": "address"
                },
                {
                    "internalType": "address",
                    "name": "_xdcAdapter",
                    "type": "address"
                },
                {
                    "internalType": "address",
                    "name": "_stablecoinAdapter",
                    "type": "address"
                },
                {
                    "internalType": "uint256",
                    "name": "_positionId",
                    "type": "uint256"
                },
                {
                    "internalType": "uint256",
                    "name": "_collateralAmount",
                    "type": "uint256"
                },
                {
                    "internalType": "uint256",
                    "name": "_stablecoinAmount",
                    "type": "uint256"
                },
                {
                    "internalType": "bytes",
                    "name": "_data",
                    "type": "bytes"
                }
            ],
            "name": "wipeAndUnlockXDC",
            "outputs": [],
            "stateMutability": "nonpayable",
            "type": "function"
        },
        {
            "inputs": [
                {
                    "internalType": "address",
                    "name": "_manager",
                    "type": "address"
                },
                {
                    "internalType": "address",
                    "name": "_xdcAdapter",
                    "type": "address"
                },
                {
                    "internalType": "address",
                    "name": "_stablecoinAdapter",
                    "type": "address"
                },
                {
                    "internalType": "uint256",
                    "name": "_positionId",
                    "type": "uint256"
                },
                {
                    "internalType": "uint256",
                    "name": "_collateralAmount",
                    "type": "uint256"
                },
                {
                    "internalType": "bytes",
                    "name": "_data",
                    "type": "bytes"
                }
            ],
            "name": "wipeAllAndUnlockXDC",
            "outputs": [],
            "stateMutability": "nonpayable",
            "type": "function"
        }
    ],
    "bytecode": "0x608060405234801561001057600080fd5b50613242806100206000396000f3fe60806040526004361061019c5760003560e01c806388e234dd116100ec578063ad33f4001161008a578063b7c9836b11610064578063b7c9836b14610461578063beabacc814610481578063cb77334d146104a1578063fd703903146104c157600080fd5b8063ad33f40014610401578063b092145e14610421578063b66291fb1461044157600080fd5b80639a4e5020116100c65780639a4e502014610381578063a0d7768d146103a1578063a341fab1146103c1578063ad28ff88146103e157600080fd5b806388e234dd1461032e578063916a8ae1146103415780639758ffcb1461036157600080fd5b806342f059ee11610159578063651d4b6a11610133578063651d4b6a146102a957806368d7e633146102bc5780636aa3ee11146102dc57806385d6aeb41461030e57600080fd5b806342f059ee146102495780635c648c2b14610269578063602fe0f61461028957600080fd5b80630b74a2c0146101a15780631487493e146101c357806316d8bd51146101d6578063259d4649146101f65780632d5e9f1d146102095780632d68794114610229575b600080fd5b3480156101ad57600080fd5b506101c16101bc36600461293e565b6104d4565b005b6101c16101d13660046129df565b6107e1565b3480156101e257600080fd5b506101c16101f1366004612a52565b61087b565b6101c1610204366004612ad7565b610c46565b34801561021557600080fd5b506101c1610224366004612b3c565b610cb2565b34801561023557600080fd5b506101c1610244366004612b8f565b610e7b565b34801561025557600080fd5b506101c1610264366004612c27565b610f26565b34801561027557600080fd5b506101c16102843660046129df565b610f85565b34801561029557600080fd5b506101c16102a4366004612c68565b611082565b6101c16102b736600461293e565b6110f2565b3480156102c857600080fd5b506101c16102d7366004612cb0565b61125c565b3480156102e857600080fd5b506102fc6102f7366004612cfb565b6112cd565b60405190815260200160405180910390f35b34801561031a57600080fd5b506101c1610329366004612c27565b61134c565b6102fc61033c36600461293e565b611381565b34801561034d57600080fd5b506101c161035c366004612d3d565b6113ac565b34801561036d57600080fd5b506101c161037c366004612dad565b611647565b34801561038d57600080fd5b506101c161039c366004612cfb565b6116ea565b3480156103ad57600080fd5b506101c16103bc366004612d3d565b61171f565b3480156103cd57600080fd5b506101c16103dc366004612e2e565b611ad7565b3480156103ed57600080fd5b506101c16103fc366004612e63565b611b0b565b34801561040d57600080fd5b506101c161041c366004612e9c565b611b63565b34801561042d57600080fd5b506101c161043c366004612e63565b611b99565b34801561044d57600080fd5b506101c161045c366004612c68565b611bc7565b34801561046d57600080fd5b506101c161047c366004612cfb565b611c03565b34801561048d57600080fd5b506101c161049c366004612c27565b611c38565b3480156104ad57600080fd5b506101c16104bc366004612ed9565b611c51565b6101c16104cf366004612f51565b611eda565b60405163133f757160e31b8152600481018590526000906001600160a01b038a16906399fbab8890602401602060405180830381865afa15801561051c573d6000803e3d6000fd5b505050506040513d601f19601f820116820180604052508101906105409190612fb8565b90506000896001600160a01b031663e3b3932a6040518163ffffffff1660e01b8152600401602060405180830381865afa158015610582573d6000803e3d6000fd5b505050506040513d601f19601f820116820180604052508101906105a69190612fb8565b6040516336df277960e11b8152600481018890529091506000906001600160a01b038c1690636dbe4ef290602401602060405180830381865afa1580156105f1573d6000803e3d6000fd5b505050506040513d601f19601f820116820180604052508101906106159190612fdc565b90506106338b88600061062b868f89888e611f7b565b8d8a8a61125c565b6106428b88306102a48a6120ef565b60405163d9ea915560e01b81523060048201526001600160a01b03898116602483015283169063d9ea915590604401602060405180830381865afa15801561068e573d6000803e3d6000fd5b505050506040513d601f19601f820116820180604052508101906106b29190612fdc565b60000361071557604051634d8c928d60e11b81526001600160a01b038981166004830152831690639b19251a90602401600060405180830381600087803b1580156106fc57600080fd5b505af1158015610710573d6000803e3d6000fd5b505050505b6040516331f0926560e01b81526001600160a01b038916906331f09265906107479033908a908a908a9060040161301e565b600060405180830381600087803b15801561076157600080fd5b505af1158015610775573d6000803e3d6000fd5b50506040516319d224a160e31b8152600481018490526001600160a01b038e16925063ce91250891506024015b600060405180830381600087803b1580156107bc57600080fd5b505af11580156107d0573d6000803e3d6000fd5b505050505050505050505050505050565b60405163133f757160e31b8152600481018490526000906001600160a01b038716906399fbab8890602401602060405180830381865afa158015610829573d6000803e3d6000fd5b505050506040513d601f19601f8201168201806040525081019061084d9190612fb8565b905061085b85828585610c46565b61087386856108693461210c565b600089888861125c565b505050505050565b6000866001600160a01b031663e3b3932a6040518163ffffffff1660e01b8152600401602060405180830381865afa1580156108bb573d6000803e3d6000fd5b505050506040513d601f19601f820116820180604052508101906108df9190612fb8565b60405163133f757160e31b8152600481018690529091506000906001600160a01b038916906399fbab8890602401602060405180830381865afa15801561092a573d6000803e3d6000fd5b505050506040513d601f19601f8201168201806040525081019061094e9190612fb8565b6040516336df277960e11b8152600481018790529091506000906001600160a01b038a1690636dbe4ef290602401602060405180830381865afa158015610999573d6000803e3d6000fd5b505050506040513d601f19601f820116820180604052508101906109bd9190612fdc565b604051630a76216560e21b8152600481018290526001600160a01b0384811660248301529192506000918516906329d88594906044016040805180830381865afa158015610a0f573d6000803e3d6000fd5b505050506040513d601f19601f82011682018060405250810190610a339190613050565b60405163025e7c2760e01b8152600481018a9052909250600091506001600160a01b038c169063025e7c2790602401602060405180830381865afa158015610a7f573d6000803e3d6000fd5b505050506040513d601f19601f82011682018060405250810190610aa39190612fb8565b90506001600160a01b038116301480610b32575060405163997cc90f60e01b81526001600160a01b038281166004830152602482018a90523060448301528c169063997cc90f90606401602060405180830381865afa158015610b0a573d6000803e3d6000fd5b505050506040513d601f19601f82011682018060405250810190610b2e9190612fdc565b6001145b15610b6c57610b4f8985610b4888888989612152565b8a8a610f85565b610b678b896000610b5f8661308a565b8e8c8c61125c565b610c19565b610b7d8930610b4888308989612152565b6001600160a01b0385166356bd594a848630806000610b9b8961308a565b6040516001600160e01b031960e089901b16815260048101969096526001600160a01b039485166024870152928416604486015292166064840152608483019190915260a482015260c401600060405180830381600087803b158015610c0057600080fd5b505af1158015610c14573d6000803e3d6000fd5b505050505b6040516319d224a160e31b8152600481018490526001600160a01b038c169063ce912508906024016107a2565b604051630937b85760e31b81526001600160a01b038516906349bdc2b8903490610c7a90879083908890889060040161301e565b6000604051808303818588803b158015610c9357600080fd5b505af1158015610ca7573d6000803e3d6000fd5b505050505050505050565b60405163c455279160e01b81526001600160a01b0382811660048301526000919086169063c455279190602401602060405180830381865afa158015610cfc573d6000803e3d6000fd5b505050506040513d601f19601f82011682018060405250810190610d209190612fb8565b90506001600160a01b0381161580610dab5750816001600160a01b0316816001600160a01b0316638da5cb5b6040518163ffffffff1660e01b8152600401602060405180830381865afa158015610d7b573d6000803e3d6000fd5b505050506040513d601f19601f82011682018060405250810190610d9f9190612fb8565b6001600160a01b031614155b15610e6957813b8015610df95760405162461bcd60e51b8152602060048201526011602482015270111cdd0b5a5ccb584b58dbdb9d1c9858dd607a1b60448201526064015b60405180910390fd5b6040516379b80ed160e11b81526001600160a01b03848116600483015287169063f3701da2906024016020604051808303816000875af1158015610e41573d6000803e3d6000fd5b505050506040513d601f19601f82011682018060405250810190610e659190612fb8565b9150505b610e748484836116ea565b5050505050565b60405163025e7c2760e01b8152600481018590526001600160a01b03808516919089169063025e7c2790602401602060405180830381865afa158015610ec5573d6000803e3d6000fd5b505050506040513d601f19601f82011682018060405250810190610ee99190612fb8565b6001600160a01b031614610f0f5760405162461bcd60e51b8152600401610df0906130a6565b610f1d87878787868661087b565b50505050505050565b604051632309463960e01b81526001600160a01b038381166004830152602482018390528416906323094639906044015b600060405180830381600087803b158015610f7157600080fd5b505af1158015610f1d573d6000803e3d6000fd5b6000856001600160a01b031663e9cbd8226040518163ffffffff1660e01b81526004016020604051808303816000875af1158015610fc7573d6000803e3d6000fd5b505050506040513d601f19601f82011682018060405250810190610feb9190612fb8565b90506110026001600160a01b03821633308761238b565b6110166001600160a01b038216878661249b565b604051630937b85760e31b81526001600160a01b038716906349bdc2b89061104890889088908890889060040161301e565b600060405180830381600087803b15801561106257600080fd5b505af1158015611076573d6000803e3d6000fd5b50505050505050505050565b6040516318d326fd60e31b8152600481018490526001600160a01b0383811660248301526044820183905285169063c69937e8906064015b600060405180830381600087803b1580156110d457600080fd5b505af11580156110e8573d6000803e3d6000fd5b5050505050505050565b60405163133f757160e31b8152600481018590526000906001600160a01b038a16906399fbab8890602401602060405180830381865afa15801561113a573d6000803e3d6000fd5b505050506040513d601f19601f8201168201806040525081019061115e9190612fb8565b90506000896001600160a01b031663e3b3932a6040518163ffffffff1660e01b8152600401602060405180830381865afa1580156111a0573d6000803e3d6000fd5b505050506040513d601f19601f820116820180604052508101906111c49190612fb8565b6040516336df277960e11b8152600481018890529091506000906001600160a01b038c1690636dbe4ef290602401602060405180830381865afa15801561120f573d6000803e3d6000fd5b505050506040513d601f19601f820116820180604052508101906112339190612fdc565b905061124189848787610c46565b6106338b8861124f3461210c565b61062b868f89888e611f7b565b6040516319202b7960e01b81526001600160a01b038816906319202b7990611292908990899089908990899089906004016130c6565b600060405180830381600087803b1580156112ac57600080fd5b505af11580156112c0573d6000803e3d6000fd5b5050505050505050505050565b604051636090dec560e01b8152600481018390526001600160a01b03828116602483015260009190851690636090dec5906044016020604051808303816000875af1158015611320573d6000803e3d6000fd5b505050506040513d601f19601f820116820180604052508101906113449190612fdc565b949350505050565b6040516373cc200d60e11b81526001600160a01b0383811660048301526024820183905284169063e798401a90604401610f57565b600061138e8986306112cd565b90506113a089898989858989896110f2565b98975050505050505050565b6000876001600160a01b031663e3b3932a6040518163ffffffff1660e01b8152600401602060405180830381865afa1580156113ec573d6000803e3d6000fd5b505050506040513d601f19601f820116820180604052508101906114109190612fb8565b60405163133f757160e31b8152600481018790529091506000906001600160a01b038a16906399fbab8890602401602060405180830381865afa15801561145b573d6000803e3d6000fd5b505050506040513d601f19601f8201168201806040525081019061147f9190612fb8565b6040516336df277960e11b8152600481018890529091506000906001600160a01b038b1690636dbe4ef290602401602060405180830381865afa1580156114ca573d6000803e3d6000fd5b505050506040513d601f19601f820116820180604052508101906114ee9190612fdc565b604051630a76216560e21b8152600481018290526001600160a01b0384811660248301529192506000918516906329d88594906044016040805180830381865afa158015611540573d6000803e3d6000fd5b505050506040513d601f19601f820116820180604052508101906115649190613050565b91505061157f898461157887878888612152565b8989610f85565b6115a78b8961158d8a61210c565b6115969061308a565b61159f8561308a565b8e8b8b61125c565b6115b68b89308a8e8b8b611b63565b6040516331f0926560e01b81526001600160a01b038b16906331f09265906115e89033908b908b908b9060040161301e565b600060405180830381600087803b15801561160257600080fd5b505af1158015611616573d6000803e3d6000fd5b50506040516319d224a160e31b8152600481018590526001600160a01b038e16925063ce91250891506024016107a2565b60405163025e7c2760e01b8152600481018690526001600160a01b0380851691908a169063025e7c2790602401602060405180830381865afa158015611691573d6000803e3d6000fd5b505050506040513d601f19601f820116820180604052508101906116b59190612fb8565b6001600160a01b0316146116db5760405162461bcd60e51b8152600401610df0906130a6565b6110e88888888888878761171f565b604051631f95f98d60e31b8152600481018390526001600160a01b03828116602483015284169063fcafcc6890604401610f57565b6000876001600160a01b031663e3b3932a6040518163ffffffff1660e01b8152600401602060405180830381865afa15801561175f573d6000803e3d6000fd5b505050506040513d601f19601f820116820180604052508101906117839190612fb8565b60405163133f757160e31b8152600481018790529091506000906001600160a01b038a16906399fbab8890602401602060405180830381865afa1580156117ce573d6000803e3d6000fd5b505050506040513d601f19601f820116820180604052508101906117f29190612fb8565b6040516336df277960e11b8152600481018890529091506000906001600160a01b038b1690636dbe4ef290602401602060405180830381865afa15801561183d573d6000803e3d6000fd5b505050506040513d601f19601f820116820180604052508101906118619190612fdc565b60405163025e7c2760e01b8152600481018990529091506000906001600160a01b038c169063025e7c2790602401602060405180830381865afa1580156118ac573d6000803e3d6000fd5b505050506040513d601f19601f820116820180604052508101906118d09190612fb8565b90506001600160a01b03811630148061195f575060405163997cc90f60e01b81526001600160a01b038281166004830152602482018a90523060448301528c169063997cc90f90606401602060405180830381865afa158015611937573d6000803e3d6000fd5b505050506040513d601f19601f8201168201806040525081019061195b9190612fdc565b6001145b156119f8576119718984898989610f85565b60405163b4ac08bb60e01b81526001600160a01b0384811660048301526119f3918d918b9160009161159f918a9182169063b4ac08bb90602401602060405180830381865afa1580156119c8573d6000803e3d6000fd5b505050506040513d601f19601f820116820180604052508101906119ec9190612fdc565b898961259e565b611aaa565b611a058930898989610f85565b6000611a2785611a20676765c793fa10079d601b1b8b6130fa565b868661259e565b604051632b5eaca560e11b8152600481018590526001600160a01b038681166024830152306044830181905260648301526000608483015260a48201839052919250908616906356bd594a9060c401600060405180830381600087803b158015611a9057600080fd5b505af1158015611aa4573d6000803e3d6000fd5b50505050505b6040516319d224a160e31b8152600481018390526001600160a01b038c169063ce912508906024016107a2565b60405163a3cf2f4f60e01b815260048101839052602481018290526001600160a01b0384169063a3cf2f4f90604401610f57565b604051633e7e4af960e21b81526001600160a01b03828116600483015283169063f9f92be4906024015b600060405180830381600087803b158015611b4f57600080fd5b505af1158015610873573d6000803e3d6000fd5b60405163571dbb7960e01b81526001600160a01b0388169063571dbb799061129290899089908990899089908990600401613111565b604051634d8c928d60e11b81526001600160a01b038281166004830152831690639b19251a90602401611b35565b604051638876e58960e01b8152600481018490526001600160a01b03838116602483015260448201839052851690638876e589906064016110ba565b60405163ba9a392560e01b8152600481018390526001600160a01b03828116602483015284169063ba9a392590604401610f57565b611c4c6001600160a01b038416838361272d565b505050565b60405163133f757160e31b8152600481018690526000906001600160a01b038a16906399fbab8890602401602060405180830381865afa158015611c99573d6000803e3d6000fd5b505050506040513d601f19601f82011682018060405250810190611cbd9190612fb8565b6040516336df277960e11b8152600481018890529091506000906001600160a01b038b1690636dbe4ef290602401602060405180830381865afa158015611d08573d6000803e3d6000fd5b505050506040513d601f19601f82011682018060405250810190611d2c9190612fdc565b9050611d3b8883878787610f85565b6000611e778b6001600160a01b031663e3b3932a6040518163ffffffff1660e01b8152600401602060405180830381865afa158015611d7e573d6000803e3d6000fd5b505050506040513d601f19601f82011682018060405250810190611da29190612fb8565b8c6001600160a01b031663e3b3932a6040518163ffffffff1660e01b8152600401602060405180830381865afa158015611de0573d6000803e3d6000fd5b505050506040513d601f19601f82011682018060405250810190611e049190612fb8565b60405163b4ac08bb60e01b81526001600160a01b038781166004830152919091169063b4ac08bb90602401602060405180830381865afa158015611e4c573d6000803e3d6000fd5b505050506040513d601f19601f82011682018060405250810190611e709190612fdc565b858561259e565b9050611e998b89611e878a61210c565b611e909061308a565b848e8a8a61125c565b611ea88b89308a8e8a8a611b63565b6040516331f0926560e01b81526001600160a01b038b16906331f09265906115e89033908b908a908a9060040161301e565b60405163025e7c2760e01b8152600481018590526001600160a01b03808516919088169063025e7c2790602401602060405180830381865afa158015611f24573d6000803e3d6000fd5b505050506040513d601f19601f82011682018060405250810190611f489190612fb8565b6001600160a01b031614611f6e5760405162461bcd60e51b8152600401610df0906130a6565b61087386868685856107e1565b60405163497777d560e01b81526004810183905260009081906001600160a01b0387169063497777d5906024016020604051808303816000875af1158015611fc7573d6000803e3d6000fd5b505050506040513d601f19601f82011682018060405250810190611feb9190612fdc565b60405163b4ac08bb60e01b81526001600160a01b03878116600483015291925060009189169063b4ac08bb90602401602060405180830381865afa158015612037573d6000803e3d6000fd5b505050506040513d601f19601f8201168201806040525081019061205b9190612fdc565b905061207284676765c793fa10079d601b1b612831565b8110156120e4576120aa8261209b61209587676765c793fa10079d601b1b612831565b84612890565b6120a5919061314b565b61210c565b92506120c184676765c793fa10079d601b1b612831565b6120cb8484612831565b106120d657826120e1565b6120e183600161316d565b92505b505095945050505050565b600061210682676765c793fa10079d601b1b612831565b92915050565b80600081121561214d5760405162461bcd60e51b815260206004820152600c60248201526b696e742d6f766572666c6f7760a01b6044820152606401610df0565b919050565b600080856001600160a01b031663d86824616040518163ffffffff1660e01b8152600401602060405180830381865afa158015612193573d6000803e3d6000fd5b505050506040513d601f19601f820116820180604052508101906121b79190612fb8565b6001600160a01b031663a09b0fe0846040518263ffffffff1660e01b81526004016121e491815260200190565b602060405180830381865afa158015612201573d6000803e3d6000fd5b505050506040513d601f19601f820116820180604052508101906122259190612fdc565b604051630a76216560e21b8152600481018590526001600160a01b0386811660248301529192506000918816906329d88594906044016040805180830381865afa158015612277573d6000803e3d6000fd5b505050506040513d601f19601f8201168201806040525081019061229b9190613050565b60405163b4ac08bb60e01b81526001600160a01b038981166004830152919350600092509089169063b4ac08bb90602401602060405180830381865afa1580156122e9573d6000803e3d6000fd5b505050506040513d601f19601f8201168201806040525081019061230d9190612fdc565b9050600061231b8385612831565b905060008282101561232e576000612338565b6123388284612890565b905061234f676765c793fa10079d601b1b8261314b565b95508061236787676765c793fa10079d601b1b612831565b10612372578561237d565b61237d866001613195565b9a9950505050505050505050565b604080516001600160a01b0385811660248301528481166044830152606480830185905283518084039091018152608490920183526020820180516001600160e01b03166323b872dd60e01b17905291516000928392908816916123ef91906131a8565b6000604051808303816000865af19150503d806000811461242c576040519150601f19603f3d011682016040523d82523d6000602084013e612431565b606091505b509150915081801561245b57508051158061245b57508080602001905181019061245b91906131d7565b6108735760405162461bcd60e51b815260206004820152601160248201527021736166655472616e7366657246726f6d60781b6044820152606401610df0565b604080516001600160a01b038481166024830152604480830185905283518084039091018152606490920183526020820180516001600160e01b031663095ea7b360e01b17905291516000928392908716916124f791906131a8565b6000604051808303816000865af19150503d8060008114612534576040519150601f19603f3d011682016040523d82523d6000602084013e612539565b606091505b509150915081801561256357508051158061256357508080602001905181019061256391906131d7565b610e745760405162461bcd60e51b815260206004820152600c60248201526b2173616665417070726f766560a01b6044820152606401610df0565b600080856001600160a01b031663d86824616040518163ffffffff1660e01b8152600401602060405180830381865afa1580156125df573d6000803e3d6000fd5b505050506040513d601f19601f820116820180604052508101906126039190612fb8565b6001600160a01b031663a09b0fe0846040518263ffffffff1660e01b815260040161263091815260200190565b602060405180830381865afa15801561264d573d6000803e3d6000fd5b505050506040513d601f19601f820116820180604052508101906126719190612fdc565b604051630a76216560e21b8152600481018590526001600160a01b0386811660248301529192506000918816906329d88594906044016040805180830381865afa1580156126c3573d6000803e3d6000fd5b505050506040513d601f19601f820116820180604052508101906126e79190613050565b91506126f890506120a5838861314b565b9250808311156127195761270b8161210c565b6127149061308a565b612722565b6127228361308a565b979650505050505050565b604080516001600160a01b038481166024830152604480830185905283518084039091018152606490920183526020820180516001600160e01b031663a9059cbb60e01b179052915160009283929087169161278991906131a8565b6000604051808303816000865af19150503d80600081146127c6576040519150601f19603f3d011682016040523d82523d6000602084013e6127cb565b606091505b50915091508180156127f55750805115806127f55750808060200190518101906127f591906131d7565b610e745760405162461bcd60e51b815260206004820152600d60248201526c10b9b0b332aa3930b739b332b960991b6044820152606401610df0565b60008115806128555750828261284781836130fa565b9250612853908361314b565b145b6121065760405162461bcd60e51b815260206004820152600c60248201526b6d756c2d6f766572666c6f7760a01b6044820152606401610df0565b60008261289d83826131f9565b91508111156121065760405162461bcd60e51b815260206004820152600c60248201526b7375622d6f766572666c6f7760a01b6044820152606401610df0565b6001600160a01b03811681146128f257600080fd5b50565b60008083601f84011261290757600080fd5b50813567ffffffffffffffff81111561291f57600080fd5b60208301915083602082850101111561293757600080fd5b9250929050565b60008060008060008060008060e0898b03121561295a57600080fd5b8835612965816128dd565b97506020890135612975816128dd565b96506040890135612985816128dd565b95506060890135612995816128dd565b94506080890135935060a0890135925060c089013567ffffffffffffffff8111156129bf57600080fd5b6129cb8b828c016128f5565b999c989b5096995094979396929594505050565b6000806000806000608086880312156129f757600080fd5b8535612a02816128dd565b94506020860135612a12816128dd565b935060408601359250606086013567ffffffffffffffff811115612a3557600080fd5b612a41888289016128f5565b969995985093965092949392505050565b60008060008060008060a08789031215612a6b57600080fd5b8635612a76816128dd565b95506020870135612a86816128dd565b94506040870135612a96816128dd565b935060608701359250608087013567ffffffffffffffff811115612ab957600080fd5b612ac589828a016128f5565b979a9699509497509295939492505050565b60008060008060608587031215612aed57600080fd5b8435612af8816128dd565b93506020850135612b08816128dd565b9250604085013567ffffffffffffffff811115612b2457600080fd5b612b30878288016128f5565b95989497509550505050565b60008060008060808587031215612b5257600080fd5b8435612b5d816128dd565b93506020850135612b6d816128dd565b9250604085013591506060850135612b84816128dd565b939692955090935050565b600080600080600080600060c0888a031215612baa57600080fd5b8735612bb5816128dd565b96506020880135612bc5816128dd565b95506040880135612bd5816128dd565b9450606088013593506080880135612bec816128dd565b925060a088013567ffffffffffffffff811115612c0857600080fd5b612c148a828b016128f5565b989b979a50959850939692959293505050565b600080600060608486031215612c3c57600080fd5b8335612c47816128dd565b92506020840135612c57816128dd565b929592945050506040919091013590565b60008060008060808587031215612c7e57600080fd5b8435612c89816128dd565b9350602085013592506040850135612ca0816128dd565b9396929550929360600135925050565b600080600080600080600060c0888a031215612ccb57600080fd5b8735612cd6816128dd565b96506020880135955060408801359450606088013593506080880135612bec816128dd565b600080600060608486031215612d1057600080fd5b8335612d1b816128dd565b9250602084013591506040840135612d32816128dd565b809150509250925092565b600080600080600080600060c0888a031215612d5857600080fd5b8735612d63816128dd565b96506020880135612d73816128dd565b95506040880135612d83816128dd565b9450606088013593506080880135925060a088013567ffffffffffffffff811115612c0857600080fd5b60008060008060008060008060e0898b031215612dc957600080fd5b8835612dd4816128dd565b97506020890135612de4816128dd565b96506040890135612df4816128dd565b9550606089013594506080890135935060a0890135612e12816128dd565b925060c089013567ffffffffffffffff8111156129bf57600080fd5b600080600060608486031215612e4357600080fd5b8335612e4e816128dd565b95602085013595506040909401359392505050565b60008060408385031215612e7657600080fd5b8235612e81816128dd565b91506020830135612e91816128dd565b809150509250929050565b600080600080600080600060c0888a031215612eb757600080fd5b8735612ec2816128dd565b9650602088013595506040880135612bd5816128dd565b60008060008060008060008060e0898b031215612ef557600080fd5b8835612f00816128dd565b97506020890135612f10816128dd565b96506040890135612f20816128dd565b9550606089013594506080890135935060a0890135925060c089013567ffffffffffffffff8111156129bf57600080fd5b60008060008060008060a08789031215612f6a57600080fd5b8635612f75816128dd565b95506020870135612f85816128dd565b9450604087013593506060870135612f9c816128dd565b9250608087013567ffffffffffffffff811115612ab957600080fd5b600060208284031215612fca57600080fd5b8151612fd5816128dd565b9392505050565b600060208284031215612fee57600080fd5b5051919050565b81835281816020850137506000828201602090810191909152601f909101601f19169091010190565b60018060a01b0385168152836020820152606060408201526000613046606083018486612ff5565b9695505050505050565b6000806040838503121561306357600080fd5b505080516020909101519092909150565b634e487b7160e01b600052601160045260246000fd5b6000600160ff1b820161309f5761309f613074565b5060000390565b60208082526006908201526510b7bbb732b960d11b604082015260600190565b86815285602082015284604082015260018060a01b038416606082015260a0608082015260006113a060a083018486612ff5565b808202811582820484141761210657612106613074565b8681526001600160a01b038681166020830152604082018690528416606082015260a0608082018190526000906113a09083018486612ff5565b60008261316857634e487b7160e01b600052601260045260246000fd5b500490565b808201828112600083128015821682158216171561318d5761318d613074565b505092915050565b8082018082111561210657612106613074565b6000825160005b818110156131c957602081860181015185830152016131af565b506000920191825250919050565b6000602082840312156131e957600080fd5b81518015158114612fd557600080fd5b818103818111156121065761210661307456fea264697066735822122051dc746740d93020d681418046aea48d1c0587bea6803121b7b5baae0fa766d564736f6c63430008110033",
    "immutableReferences": {},
    "source": "// SPDX-License-Identifier: AGPL-3.0-or-later\npragma solidity 0.8.17;\n\nimport \"../interfaces/IBookKeeper.sol\";\nimport \"../interfaces/IWXDC.sol\";\nimport \"../interfaces/IToken.sol\";\nimport \"../interfaces/IManager.sol\";\nimport \"../interfaces/IGenericTokenAdapter.sol\";\nimport \"../interfaces/IFarmableTokenAdapter.sol\";\nimport \"../interfaces/IStablecoinAdapter.sol\";\nimport \"../interfaces/IStabilityFeeCollector.sol\";\nimport \"../interfaces/IProxyRegistry.sol\";\nimport \"../interfaces/IProxy.sol\";\nimport \"../utils/SafeToken.sol\";\n\n/// @notice WARNING: These functions meant to be used as a a library for a Proxy.\n/// @notice DO NOT CALL ANY FUNCTION IN THIS CONTRACT DIRECTLY.\n/// @notice Hence, it shouldn't has any state vairables. Some are unsafe if you call them directly.\ncontract FathomStablecoinProxyActions {\n    using SafeToken for address;\n    uint256 internal constant RAY = 10 ** 27;\n\n    function _safeSub(uint256 _x, uint256 _y) internal pure returns (uint256 _z) {\n        require((_z = _x - _y) <= _x, \"sub-overflow\");\n    }\n\n    function _safeToInt(uint256 _x) internal pure returns (int256 _y) {\n        _y = int256(_x);\n        require(_y >= 0, \"int-overflow\");\n    }\n\n    function _safeMul(uint256 _x, uint256 _y) internal pure returns (uint256 _z) {\n        require(_y == 0 || (_z = _x * _y) / _y == _x, \"mul-overflow\");\n    }\n\n    function _toRad(uint256 _wad) internal pure returns (uint256 _rad) {\n        _rad = _safeMul(_wad, RAY);\n    }\n\n    function convertTo18(address _tokenAdapter, uint256 _amt) internal returns (uint256 _wad) {\n        // For those collaterals that have less than 18 decimals precision we need to do the conversion before passing to adjustPosition function\n        // Adapters will automatically handle the difference of precision\n        _wad = _safeMul(_amt, 10 ** (18 - IGenericTokenAdapter(_tokenAdapter).decimals()));\n    }\n\n    function _getDrawDebtShare(\n        address _bookKeeper,\n        address _stabilityFeeCollector,\n        address _positionAddress,\n        bytes32 _collateralPoolId,\n        uint256 _stablecoinAmount // [wad]\n    ) internal returns (int256 _resultDebtShare) {\n        uint256 _debtAccumulatedRate = IStabilityFeeCollector(_stabilityFeeCollector).collect(_collateralPoolId); // [ray]. Updates stability fee rate\n        uint256 _positionStablecoinValue = IBookKeeper(_bookKeeper).stablecoin(_positionAddress); // [rad]. Gets Fathom Stablecoin balance of the positionAddress in the bookKeeper\n\n        // If there was already enough Fathom Stablecoin in the bookKeeper balance, just exits it without adding more debt\n        if (_positionStablecoinValue < _safeMul(_stablecoinAmount, RAY)) {\n            // Calculates the needed resultDebtShare so together with the existing positionStablecoinValue in the bookKeeper is enough to exit stablecoinAmount of Fathom Stablecoin tokens\n            _resultDebtShare = _safeToInt(_safeSub(_safeMul(_stablecoinAmount, RAY), _positionStablecoinValue) / _debtAccumulatedRate);\n            // This is neeeded due lack of precision. It might need to sum an extra resultDebtShare wei (for the given Fathom Stablecoin stablecoinAmount)\n            _resultDebtShare = _safeMul(uint256(_resultDebtShare), _debtAccumulatedRate) < _safeMul(_stablecoinAmount, RAY)\n                ? _resultDebtShare + 1\n                : _resultDebtShare;\n        }\n    }\n\n    function _getWipeDebtShare(\n        address _bookKeeper,\n        uint256 _stablecoinValue, // [rad]\n        address _positionAddress,\n        bytes32 _collateralPoolId\n    ) internal view returns (int256 _resultDebtShare) {\n        uint256 _debtAccumulatedRate = ICollateralPoolConfig(IBookKeeper(_bookKeeper).collateralPoolConfig()).getDebtAccumulatedRate(\n            _collateralPoolId\n        ); // [ray]. // Gets actual rate from the bookKeeper\n        (, uint256 _debtShare) = IBookKeeper(_bookKeeper).positions(_collateralPoolId, _positionAddress); // [wad]. // Gets actual debtShare value of the positionAddress\n\n        _resultDebtShare = _safeToInt(_stablecoinValue / _debtAccumulatedRate); // [wad]. // Uses the whole stablecoin balance in the bookKeeper to reduce the debt\n        _resultDebtShare = uint256(_resultDebtShare) <= _debtShare ? -_resultDebtShare : -_safeToInt(_debtShare); // [wad]. // Checks the calculated resultDebtShare is not higher than positionAddress.art (total debt), otherwise uses its value\n    }\n\n    function _getWipeAllStablecoinAmount(\n        address _bookKeeper,\n        address _usr,\n        address _positionAddress,\n        bytes32 _collateralPoolId\n    ) internal view returns (uint256 _requiredStablecoinAmount) {\n        uint256 _debtAccumulatedRate = ICollateralPoolConfig(IBookKeeper(_bookKeeper).collateralPoolConfig()).getDebtAccumulatedRate(\n            _collateralPoolId\n        ); // [ray]. Gets actual rate from the bookKeeper\n        (, uint256 _debtShare) = IBookKeeper(_bookKeeper).positions(_collateralPoolId, _positionAddress); // [wad]. Gets actual debtShare value of the positionAddress\n        uint256 _stablecoinValue = IBookKeeper(_bookKeeper).stablecoin(_usr); // [rad]. Gets actual stablecoin amount in the usr\n\n        uint256 _positionDebtValue = _safeMul(_debtShare, _debtAccumulatedRate);\n        uint256 _requiredStablecoinValue = _positionDebtValue >= _stablecoinValue ? _safeSub(_positionDebtValue, _stablecoinValue) : 0; // [rad]\n        _requiredStablecoinAmount = _requiredStablecoinValue / RAY; // [wad] = [rad]/[ray]\n\n        // If the value precision has some dust, it will need to request for 1 extra amount wei\n        _requiredStablecoinAmount = _safeMul(_requiredStablecoinAmount, RAY) < _requiredStablecoinValue\n            ? _requiredStablecoinAmount + 1\n            : _requiredStablecoinAmount;\n    }\n\n    /// @param _adapter The address of stablecoin adapter\n    /// @param _positionAddress The address of the Position Handler\n    /// @param _stablecoinAmount The amount in wad to be deposit to Stablecoin adapter [wad]\n    /// @param _data The extra data for stable adapter context\n    function stablecoinAdapterDeposit(\n        address _adapter,\n        address _positionAddress,\n        uint256 _stablecoinAmount, // [wad]\n        bytes calldata _data\n    ) public {\n        address _stablecoin = address(IStablecoinAdapter(_adapter).stablecoin());\n        // Gets Fathom Stablecoin from the user's wallet\n        _stablecoin.safeTransferFrom(msg.sender, address(this), _stablecoinAmount);\n\n        // Approves adapter to take the Fathom Stablecoin amount\n        _stablecoin.safeApprove(_adapter, _stablecoinAmount);\n        // Deposits Fathom Stablecoin into the bookKeeper\n        IStablecoinAdapter(_adapter).deposit(_positionAddress, _stablecoinAmount, _data);\n    }\n\n    function transfer(address _collateralToken, address _dst, uint256 _amt) public {\n        address(_collateralToken).safeTransfer(_dst, _amt);\n    }\n\n    function xdcAdapterDeposit(address _adapter, address _positionAddress, bytes calldata _data) public payable {\n       IGenericTokenAdapter(_adapter).deposit{value: msg.value}(_positionAddress, msg.value, _data); //XDC collateral into the bookKeeper\n    }\n\n    function whitelist(address _bookKeeper, address _usr) external {\n        IBookKeeper(_bookKeeper).whitelist(_usr);\n    }\n\n    function blacklist(address _bookKeeper, address _usr) external {\n        IBookKeeper(_bookKeeper).blacklist(_usr);\n    }\n\n    function open(address _manager, bytes32 _collateralPoolId, address _usr) public returns (uint256 _positionId) {\n        _positionId = IManager(_manager).open(_collateralPoolId, _usr);\n    }\n\n    function transferOwnership(address _manager, uint256 _positionId, address _usr) public {\n        IManager(_manager).give(_positionId, _usr);\n    }\n\n    function transferOwnershipToProxy(address _proxyRegistry, address _manager, uint256 _positionId, address _dst) external {\n        address _proxy = IProxyRegistry(_proxyRegistry).proxies(_dst);\n        if (_proxy == address(0) || IProxy(_proxy).owner() != _dst) {\n            uint256 _codeSize;\n            assembly {\n                _codeSize := extcodesize(_dst)\n            }\n            require(_codeSize == 0, \"Dst-is-a-contract\"); // We want to avoid creating a proxy for a contract address that might not be able to handle proxies, then losing the CDP\n            _proxy = IProxyRegistry(_proxyRegistry).build(_dst); // Creates the proxy for the dst address\n        }\n        transferOwnership(_manager, _positionId, _proxy);\n    }\n\n    function allowManagePosition(address _manager, uint256 _positionId, address _user, uint256 _ok) external {\n        IManager(_manager).allowManagePosition(_positionId, _user, _ok);\n    }\n\n    function allowMigratePosition(address _manager, address _user, uint256 _ok) external {\n        IManager(_manager).allowMigratePosition(_user, _ok);\n    }\n\n    function moveCollateral(\n        address _manager,\n        uint256 _positionId,\n        address _dst,\n        uint256 _collateralAmount,\n        address _adapter,\n        bytes calldata _data\n    ) public {\n        IManager(_manager).moveCollateral(_positionId, _dst, _collateralAmount, _adapter, _data);\n    }\n\n    function moveStablecoin(\n        address _manager,\n        uint256 _positionId,\n        address _dst,\n        uint256 _stablecoinValue // [rad]\n    ) public {\n        IManager(_manager).moveStablecoin(_positionId, _dst, _stablecoinValue);\n    }\n\n    function adjustPosition(\n        address _manager,\n        uint256 _positionId,\n        int256 _collateralValue,\n        int256 _debtShare, // [wad]\n        address _adapter,\n        bytes calldata _data\n    ) public {  \n        IManager(_manager).adjustPosition(_positionId, _collateralValue, _debtShare, _adapter, _data);\n    }\n\n    function exportPosition(address _manager, uint256 _positionId, address _destination) external {\n        IManager(_manager).exportPosition(_positionId, _destination);\n    }\n\n    function importPosition(address _manager, address _source, uint256 _positionId) external {\n        IManager(_manager).importPosition(_source, _positionId);\n    }\n\n    function movePosition(address _manager, uint256 _source, uint256 _destination) external {\n        IManager(_manager).movePosition(_source, _destination);\n    }\n\n\n    function lockXDC(address _manager, address _xdcAdapter, uint256 _positionId, bytes calldata _data) public payable {\n        address _positionAddress = IManager(_manager).positions(_positionId);\n        xdcAdapterDeposit(_xdcAdapter, _positionAddress, _data); // Receives XDC, stake it to Ankr staking pool.\n        adjustPosition(_manager, _positionId, _safeToInt(msg.value), 0, _xdcAdapter, _data); // Locks XDC amount into the CDP\n    }\n\n    function safeLockXDC(address _manager, address _xdcAdapter, uint256 _positionId, address _owner, bytes calldata _data) external payable {\n        require(IManager(_manager).owners(_positionId) == _owner, \"!owner\");\n        lockXDC(_manager, _xdcAdapter, _positionId, _data);\n    }\n\n    function draw(\n        address _manager,\n        address _stabilityFeeCollector,\n        address _tokenAdapter,\n        address _stablecoinAdapter,\n        uint256 _positionId,\n        uint256 _amount, // [wad]\n        bytes calldata _data\n    ) external {\n        address _positionAddress = IManager(_manager).positions(_positionId);\n        address _bookKeeper = IManager(_manager).bookKeeper();\n        bytes32 _collateralPoolId = IManager(_manager).collateralPools(_positionId);\n        // Generates debt in the CDP\n        adjustPosition(\n            _manager,\n            _positionId,\n            0,\n            _getDrawDebtShare(_bookKeeper, _stabilityFeeCollector, _positionAddress, _collateralPoolId, _amount),\n            _tokenAdapter,\n            _data\n        );\n\n        moveStablecoin(_manager, _positionId, address(this), _toRad(_amount)); // Moves the Fathom Stablecoin amount (balance in the bookKeeper in rad) to proxy's address\n\n        // Allows adapter to access to proxy's Fathom Stablecoin balance in the bookKeeper\n        if (IBookKeeper(_bookKeeper).positionWhitelist(address(this), address(_stablecoinAdapter)) == 0) {\n            IBookKeeper(_bookKeeper).whitelist(_stablecoinAdapter);\n        }\n\n        IStablecoinAdapter(_stablecoinAdapter).withdraw(msg.sender, _amount, _data); // Withdraws Fathom Stablecoin to the user's wallet as a token\n        IManager(_manager).updatePrice(_collateralPoolId);\n    }\n\n    function wipe(\n        address _manager,\n        address _tokenAdapter,\n        address _stablecoinAdapter,\n        uint256 _positionId,\n        uint256 _amount, // [wad]\n        bytes calldata _data\n    ) public {\n        address _bookKeeper = IManager(_manager).bookKeeper();\n        address _positionAddress = IManager(_manager).positions(_positionId);\n        bytes32 _collateralPoolId = IManager(_manager).collateralPools(_positionId);\n\n        address owner = IManager(_manager).owners(_positionId);\n        if (owner == address(this) || IManager(_manager).ownerWhitelist(owner, _positionId, address(this)) == 1) {\n            stablecoinAdapterDeposit(_stablecoinAdapter, _positionAddress, _amount, _data); // Deposits Fathom Stablecoin amount into the bookKeeper\n            // Paybacks debt to the CDP\n            adjustPosition(\n                _manager,\n                _positionId,\n                0,\n                _getWipeDebtShare(_bookKeeper, IBookKeeper(_bookKeeper).stablecoin(_positionAddress), _positionAddress, _collateralPoolId),\n                _tokenAdapter,\n                _data\n            );\n        } else {\n            stablecoinAdapterDeposit(_stablecoinAdapter, address(this), _amount, _data); // Deposits Fathom Stablecoin amount into the bookKeeper\n            int256 _wipeDebtShare = _getWipeDebtShare(_bookKeeper, _amount * RAY, _positionAddress, _collateralPoolId); // Paybacks debt to the position\n            IBookKeeper(_bookKeeper).adjustPosition(_collateralPoolId, _positionAddress, address(this), address(this), 0, _wipeDebtShare);\n        }\n        IManager(_manager).updatePrice(_collateralPoolId);\n    }\n\n    function safeWipe(\n        address _manager,\n        address _tokenAdapter,\n        address _stablecoinAdapter,\n        uint256 _positionId,\n        uint256 _amount, // [wad]\n        address _owner,\n        bytes calldata _data\n    ) external {\n        require(IManager(_manager).owners(_positionId) == _owner, \"!owner\");\n        wipe(_manager, _tokenAdapter, _stablecoinAdapter, _positionId, _amount, _data);\n    }\n\n    function wipeAll(address _manager, address _tokenAdapter, address _stablecoinAdapter, uint256 _positionId, bytes calldata _data) public {\n        address _bookKeeper = IManager(_manager).bookKeeper();\n        address _positionAddress = IManager(_manager).positions(_positionId);\n        bytes32 _collateralPoolId = IManager(_manager).collateralPools(_positionId);\n        (, uint256 _debtShare) = IBookKeeper(_bookKeeper).positions(_collateralPoolId, _positionAddress); // [wad]\n\n        address _owner = IManager(_manager).owners(_positionId);\n        if (_owner == address(this) || IManager(_manager).ownerWhitelist(_owner, _positionId, address(this)) == 1) {\n            // Deposits Fathom Stablecoin amount into the bookKeeper\n            stablecoinAdapterDeposit(\n                _stablecoinAdapter,\n                _positionAddress,\n                _getWipeAllStablecoinAmount(_bookKeeper, _positionAddress, _positionAddress, _collateralPoolId),\n                _data\n            );\n            adjustPosition(_manager, _positionId, 0, -int256(_debtShare), _tokenAdapter, _data); // Paybacks debt to the CDP\n        } else {\n            // Deposits Fathom Stablecoin amount into the bookKeeper\n            stablecoinAdapterDeposit(\n                _stablecoinAdapter,\n                address(this),\n                _getWipeAllStablecoinAmount(_bookKeeper, address(this), _positionAddress, _collateralPoolId),\n                _data\n            );\n            IBookKeeper(_bookKeeper).adjustPosition(_collateralPoolId, _positionAddress, address(this), address(this), 0, -int256(_debtShare)); // Paybacks debt to the position\n        }\n        IManager(_manager).updatePrice(_collateralPoolId);\n    }\n\n    function safeWipeAll(\n        address _manager,\n        address _tokenAdapter,\n        address _stablecoinAdapter,\n        uint256 _positionId,\n        address _owner,\n        bytes calldata _data\n    ) external {\n        require(IManager(_manager).owners(_positionId) == _owner, \"!owner\");\n        wipeAll(_manager, _tokenAdapter, _stablecoinAdapter, _positionId, _data);\n    }\n\n    function lockXDCAndDraw(\n        address _manager,\n        address _stabilityFeeCollector,\n        address _xdcAdapter,\n        address _stablecoinAdapter,\n        uint256 _positionId,\n        uint256 _stablecoinAmount, // [wad]\n        bytes calldata _data\n    ) public payable {\n        address _positionAddress = IManager(_manager).positions(_positionId);\n        address _bookKeeper = IManager(_manager).bookKeeper();\n        bytes32 _collateralPoolId = IManager(_manager).collateralPools(_positionId);\n\n        // deposits XDC to AnkrStakingPool via AnkrCollateralAdapter\n        xdcAdapterDeposit(_xdcAdapter, _positionAddress, _data);\n\n        adjustPosition(\n        _manager,\n        _positionId,\n        _safeToInt(msg.value),\n        _getDrawDebtShare(_bookKeeper, _stabilityFeeCollector, _positionAddress, _collateralPoolId, _stablecoinAmount),\n        _xdcAdapter,\n        _data\n        );\n        // Moves the Fathom Stablecoin amount (balance in the bookKeeper in rad) to proxy's address\n        moveStablecoin(_manager, _positionId, address(this), _toRad(_stablecoinAmount));\n        // Allows adapter to access to proxy's Fathom Stablecoin balance in the bookKeeper\n        if (IBookKeeper(_bookKeeper).positionWhitelist(address(this), address(_stablecoinAdapter)) == 0) {\n        IBookKeeper(_bookKeeper).whitelist(_stablecoinAdapter);\n        }\n        // Withdraws Fathom Stablecoin to the user's wallet as a token\n        IStablecoinAdapter(_stablecoinAdapter).withdraw(msg.sender, _stablecoinAmount, _data);\n        IManager(_manager).updatePrice(_collateralPoolId);\n    }\n\n    function openLockXDCAndDraw(\n        address _manager,\n        address _stabilityFeeCollector,\n        address _xdcAdapter,\n        address _stablecoinAdapter,\n        bytes32 _collateralPoolId,\n        uint256 _stablecoinAmount, // [wad]\n        bytes calldata _data\n    ) external payable returns (uint256 _positionId) {\n        _positionId = open(_manager, _collateralPoolId, address(this));\n        lockXDCAndDraw(_manager, _stabilityFeeCollector, _xdcAdapter, _stablecoinAdapter, _positionId, _stablecoinAmount, _data);\n    }\n\n    function wipeAndUnlockXDC(\n        address _manager,\n        address _xdcAdapter,\n        address _stablecoinAdapter,\n        uint256 _positionId,\n        uint256 _collateralAmount, // [wad]\n        uint256 _stablecoinAmount, // [wad]\n        bytes calldata _data\n    ) external {\n        address _positionAddress = IManager(_manager).positions(_positionId);\n        bytes32 _collateralPoolId = IManager(_manager).collateralPools(_positionId);\n        stablecoinAdapterDeposit(_stablecoinAdapter, _positionAddress, _stablecoinAmount, _data); // Deposits Fathom Stablecoin amount into the bookKeeper\n        // Paybacks debt to the position and unlocks WXDC amount from it\n        int256 _wipeDebtShare = _getWipeDebtShare(\n            IManager(_manager).bookKeeper(),\n            IBookKeeper(IManager(_manager).bookKeeper()).stablecoin(_positionAddress),\n            _positionAddress,\n            _collateralPoolId\n        ); // [wad]\n        adjustPosition(_manager, _positionId, -_safeToInt(_collateralAmount), _wipeDebtShare, _xdcAdapter, _data);\n        moveCollateral(_manager, _positionId, address(this), _collateralAmount, _xdcAdapter, _data); // Moves the amount from the position to proxy's address\n        IGenericTokenAdapter(_xdcAdapter).withdraw(msg.sender, _collateralAmount, _data);\n        IManager(_manager).updatePrice(_collateralPoolId);\n    }\n\n    function wipeAllAndUnlockXDC(\n        address _manager,\n        address _xdcAdapter,\n        address _stablecoinAdapter,\n        uint256 _positionId,\n        uint256 _collateralAmount, // [wad]\n        bytes calldata _data\n    ) external {\n        address _bookKeeper = IManager(_manager).bookKeeper();\n        address _positionAddress = IManager(_manager).positions(_positionId);\n        bytes32 _collateralPoolId = IManager(_manager).collateralPools(_positionId);\n        (, uint256 _debtShare) = IBookKeeper(_bookKeeper).positions(_collateralPoolId, _positionAddress); // [wad]\n\n        // Deposits Fathom Stablecoin amount into the bookKeeper\n        stablecoinAdapterDeposit(\n            _stablecoinAdapter,\n            _positionAddress,\n            _getWipeAllStablecoinAmount(_bookKeeper, _positionAddress, _positionAddress, _collateralPoolId),\n            _data\n        );\n\n        adjustPosition(_manager, _positionId, -_safeToInt(_collateralAmount), -int256(_debtShare), _xdcAdapter, _data); // Paybacks debt to the CDP and unlocks WXDC amount from it\n        moveCollateral(_manager, _positionId, address(this), _collateralAmount, _xdcAdapter, _data); // Moves the amount from the CDP positionAddress to proxy's address\n        IGenericTokenAdapter(_xdcAdapter).withdraw(msg.sender, _collateralAmount, _data); // Withdraw aXDCc from AnkrCollateralAdapter, fee deducted amount\n\n        IManager(_manager).updatePrice(_collateralPoolId);\n    }\n\n}\n",
    "sourcePath": "/Users/tarun.sharma/Tarun/Projects/stablecoin/fathom-stablecoin-smartcontract/fathom-stablecoin-smart-contracts/contracts/main/proxy-actions/FathomStablecoinProxyActions.sol",
    "compiler": {
        "name": "solc",
        "version": "0.8.17+commit.8df45f5f.Emscripten.clang"
    },
    "schemaVersion": "3.4.10",
    "updatedAt": "2023-01-26T12:28:45.845Z",
    "devdoc": {
        "kind": "dev",
        "methods": {
            "stablecoinAdapterDeposit(address,address,uint256,bytes)": {
                "params": {
                    "_adapter": "The address of stablecoin adapter",
                    "_data": "The extra data for stable adapter context",
                    "_positionAddress": "The address of the Position Handler",
                    "_stablecoinAmount": "The amount in wad to be deposit to Stablecoin adapter [wad]"
                }
            }
        },
        "version": 1
    },
    "userdoc": {
        "kind": "user",
        "methods": {},
        "notice": "WARNING: These functions meant to be used as a a library for a Proxy.DO NOT CALL ANY FUNCTION IN THIS CONTRACT DIRECTLY.Hence, it shouldn't has any state vairables. Some are unsafe if you call them directly.",
        "version": 1
    }
}