{
  "contractName": "FathomStablecoinProxyActions",
  "abi": [
    {
      "anonymous": false,
      "inputs": [
        {
          "indexed": false,
          "internalType": "address",
          "name": "_positionAddress",
          "type": "address"
        },
        {
          "indexed": false,
          "internalType": "uint256",
          "name": "_FXDBorrowAmount",
          "type": "uint256"
        }
      ],
      "name": "LogBorrowedAmount",
      "type": "event"
    },
    {
      "anonymous": false,
      "inputs": [
        {
          "indexed": false,
          "internalType": "address",
          "name": "_positionAddress",
          "type": "address"
        },
        {
          "indexed": false,
          "internalType": "uint256",
          "name": "_FXDPaidAmount",
          "type": "uint256"
        }
      ],
      "name": "LogPaidAmount",
      "type": "event"
    },
    {
      "inputs": [
        {
          "internalType": "address",
          "name": "_bookKeeper",
          "type": "address"
        },
        {
          "internalType": "address",
          "name": "_usr",
          "type": "address"
        }
      ],
      "name": "whitelist",
      "outputs": [],
      "stateMutability": "nonpayable",
      "type": "function"
    },
    {
      "inputs": [
        {
          "internalType": "address",
          "name": "_bookKeeper",
          "type": "address"
        },
        {
          "internalType": "address",
          "name": "_usr",
          "type": "address"
        }
      ],
      "name": "blacklist",
      "outputs": [],
      "stateMutability": "nonpayable",
      "type": "function"
    },
    {
      "inputs": [
        {
          "internalType": "address",
          "name": "_manager",
          "type": "address"
        },
        {
          "internalType": "uint256",
          "name": "_positionId",
          "type": "uint256"
        },
        {
          "internalType": "address",
          "name": "_user",
          "type": "address"
        },
        {
          "internalType": "uint256",
          "name": "_ok",
          "type": "uint256"
        }
      ],
      "name": "allowManagePosition",
      "outputs": [],
      "stateMutability": "nonpayable",
      "type": "function"
    },
    {
      "inputs": [
        {
          "internalType": "address",
          "name": "_manager",
          "type": "address"
        },
        {
          "internalType": "address",
          "name": "_user",
          "type": "address"
        },
        {
          "internalType": "uint256",
          "name": "_ok",
          "type": "uint256"
        }
      ],
      "name": "allowMigratePosition",
      "outputs": [],
      "stateMutability": "nonpayable",
      "type": "function"
    },
    {
      "inputs": [
        {
          "internalType": "address",
          "name": "_manager",
          "type": "address"
        },
        {
          "internalType": "uint256",
          "name": "_positionId",
          "type": "uint256"
        },
        {
          "internalType": "address",
          "name": "_destination",
          "type": "address"
        }
      ],
      "name": "exportPosition",
      "outputs": [],
      "stateMutability": "nonpayable",
      "type": "function"
    },
    {
      "inputs": [
        {
          "internalType": "address",
          "name": "_manager",
          "type": "address"
        },
        {
          "internalType": "address",
          "name": "_source",
          "type": "address"
        },
        {
          "internalType": "uint256",
          "name": "_positionId",
          "type": "uint256"
        }
      ],
      "name": "importPosition",
      "outputs": [],
      "stateMutability": "nonpayable",
      "type": "function"
    },
    {
      "inputs": [
        {
          "internalType": "address",
          "name": "_manager",
          "type": "address"
        },
        {
          "internalType": "uint256",
          "name": "_source",
          "type": "uint256"
        },
        {
          "internalType": "uint256",
          "name": "_destination",
          "type": "uint256"
        }
      ],
      "name": "movePosition",
      "outputs": [],
      "stateMutability": "nonpayable",
      "type": "function"
    },
    {
      "inputs": [
        {
          "internalType": "address",
          "name": "_manager",
          "type": "address"
        },
        {
          "internalType": "address",
          "name": "_xdcAdapter",
          "type": "address"
        },
        {
          "internalType": "uint256",
          "name": "_positionId",
          "type": "uint256"
        },
        {
          "internalType": "address",
          "name": "_owner",
          "type": "address"
        },
        {
          "internalType": "bytes",
          "name": "_data",
          "type": "bytes"
        }
      ],
      "name": "safeLockXDC",
      "outputs": [],
      "stateMutability": "payable",
      "type": "function"
    },
    {
      "inputs": [
        {
          "internalType": "address",
          "name": "_manager",
          "type": "address"
        },
        {
          "internalType": "address",
          "name": "_stabilityFeeCollector",
          "type": "address"
        },
        {
          "internalType": "address",
          "name": "_stablecoinAdapter",
          "type": "address"
        },
        {
          "internalType": "uint256",
          "name": "_positionId",
          "type": "uint256"
        },
        {
          "internalType": "uint256",
          "name": "_amount",
          "type": "uint256"
        },
        {
          "internalType": "bytes",
          "name": "_data",
          "type": "bytes"
        }
      ],
      "name": "draw",
      "outputs": [],
      "stateMutability": "nonpayable",
      "type": "function"
    },
    {
      "inputs": [
        {
          "internalType": "address",
          "name": "_manager",
          "type": "address"
        },
        {
          "internalType": "address",
          "name": "_stabilityFeeCollector",
          "type": "address"
        },
        {
          "internalType": "address",
          "name": "_xdcAdapter",
          "type": "address"
        },
        {
          "internalType": "address",
          "name": "_stablecoinAdapter",
          "type": "address"
        },
        {
          "internalType": "bytes32",
          "name": "_collateralPoolId",
          "type": "bytes32"
        },
        {
          "internalType": "uint256",
          "name": "_stablecoinAmount",
          "type": "uint256"
        },
        {
          "internalType": "bytes",
          "name": "_data",
          "type": "bytes"
        }
      ],
      "name": "openLockXDCAndDraw",
      "outputs": [
        {
          "internalType": "uint256",
          "name": "_positionId",
          "type": "uint256"
        }
      ],
      "stateMutability": "payable",
      "type": "function"
    },
    {
      "inputs": [
        {
          "internalType": "address",
          "name": "_manager",
          "type": "address"
        },
        {
          "internalType": "address",
          "name": "_xdcAdapter",
          "type": "address"
        },
        {
          "internalType": "address",
          "name": "_stablecoinAdapter",
          "type": "address"
        },
        {
          "internalType": "uint256",
          "name": "_positionId",
          "type": "uint256"
        },
        {
          "internalType": "uint256",
          "name": "_collateralAmount",
          "type": "uint256"
        },
        {
          "internalType": "uint256",
          "name": "_stablecoinAmount",
          "type": "uint256"
        },
        {
          "internalType": "bytes",
          "name": "_data",
          "type": "bytes"
        }
      ],
      "name": "wipeAndUnlockXDC",
      "outputs": [],
      "stateMutability": "nonpayable",
      "type": "function"
    },
    {
      "inputs": [
        {
          "internalType": "address",
          "name": "_manager",
          "type": "address"
        },
        {
          "internalType": "address",
          "name": "_xdcAdapter",
          "type": "address"
        },
        {
          "internalType": "address",
          "name": "_stablecoinAdapter",
          "type": "address"
        },
        {
          "internalType": "uint256",
          "name": "_positionId",
          "type": "uint256"
        },
        {
          "internalType": "uint256",
          "name": "_collateralAmount",
          "type": "uint256"
        },
        {
          "internalType": "bytes",
          "name": "_data",
          "type": "bytes"
        }
      ],
      "name": "wipeAllAndUnlockXDC",
      "outputs": [],
      "stateMutability": "nonpayable",
      "type": "function"
    },
    {
      "inputs": [
        {
          "internalType": "address",
          "name": "_manager",
          "type": "address"
        },
        {
          "internalType": "uint256",
          "name": "_positionId",
          "type": "uint256"
        },
        {
          "internalType": "bytes",
          "name": "_data",
          "type": "bytes"
        }
      ],
      "name": "redeemLockedCollateral",
      "outputs": [],
      "stateMutability": "nonpayable",
      "type": "function"
    },
    {
      "inputs": [
        {
          "internalType": "address",
          "name": "_adapter",
          "type": "address"
        },
        {
          "internalType": "address",
          "name": "_to",
          "type": "address"
        }
      ],
      "name": "emergencyWithdraw",
      "outputs": [],
      "stateMutability": "nonpayable",
      "type": "function"
    },
    {
      "inputs": [
        {
          "internalType": "address",
          "name": "_adapter",
          "type": "address"
        },
        {
          "internalType": "address",
          "name": "_positionAddress",
          "type": "address"
        },
        {
          "internalType": "uint256",
          "name": "_stablecoinAmount",
          "type": "uint256"
        },
        {
          "internalType": "bytes",
          "name": "_data",
          "type": "bytes"
        }
      ],
      "name": "stablecoinAdapterDeposit",
      "outputs": [],
      "stateMutability": "nonpayable",
      "type": "function"
    },
    {
      "inputs": [
        {
          "internalType": "address",
          "name": "_adapter",
          "type": "address"
        },
        {
          "internalType": "address",
          "name": "_positionAddress",
          "type": "address"
        },
        {
          "internalType": "bytes",
          "name": "_data",
          "type": "bytes"
        }
      ],
      "name": "xdcAdapterDeposit",
      "outputs": [],
      "stateMutability": "payable",
      "type": "function"
    },
    {
      "inputs": [
        {
          "internalType": "address",
          "name": "_adapter",
          "type": "address"
        },
        {
          "internalType": "address",
          "name": "_positionAddress",
          "type": "address"
        },
        {
          "internalType": "uint256",
          "name": "_amount",
          "type": "uint256"
        },
        {
          "internalType": "bool",
          "name": "_transferFrom",
          "type": "bool"
        },
        {
          "internalType": "bytes",
          "name": "_data",
          "type": "bytes"
        }
      ],
      "name": "tokenAdapterDeposit",
      "outputs": [],
      "stateMutability": "nonpayable",
      "type": "function"
    },
    {
      "inputs": [
        {
          "internalType": "address",
          "name": "_collateralToken",
          "type": "address"
        },
        {
          "internalType": "address",
          "name": "_dst",
          "type": "address"
        },
        {
          "internalType": "uint256",
          "name": "_amt",
          "type": "uint256"
        }
      ],
      "name": "transfer",
      "outputs": [],
      "stateMutability": "nonpayable",
      "type": "function"
    },
    {
      "inputs": [
        {
          "internalType": "address",
          "name": "_manager",
          "type": "address"
        },
        {
          "internalType": "bytes32",
          "name": "_collateralPoolId",
          "type": "bytes32"
        },
        {
          "internalType": "address",
          "name": "_usr",
          "type": "address"
        }
      ],
      "name": "open",
      "outputs": [
        {
          "internalType": "uint256",
          "name": "_positionId",
          "type": "uint256"
        }
      ],
      "stateMutability": "nonpayable",
      "type": "function"
    },
    {
      "inputs": [
        {
          "internalType": "address",
          "name": "_manager",
          "type": "address"
        },
        {
          "internalType": "uint256",
          "name": "_positionId",
          "type": "uint256"
        },
        {
          "internalType": "address",
          "name": "_usr",
          "type": "address"
        }
      ],
      "name": "transferOwnership",
      "outputs": [],
      "stateMutability": "nonpayable",
      "type": "function"
    },
    {
      "inputs": [
        {
          "internalType": "address",
          "name": "_manager",
          "type": "address"
        },
        {
          "internalType": "uint256",
          "name": "_positionId",
          "type": "uint256"
        },
        {
          "internalType": "int256",
          "name": "_collateralValue",
          "type": "int256"
        },
        {
          "internalType": "int256",
          "name": "_debtShare",
          "type": "int256"
        },
        {
          "internalType": "bytes",
          "name": "_data",
          "type": "bytes"
        }
      ],
      "name": "adjustPosition",
      "outputs": [],
      "stateMutability": "nonpayable",
      "type": "function"
    },
    {
      "inputs": [
        {
          "internalType": "address",
          "name": "_manager",
          "type": "address"
        },
        {
          "internalType": "uint256",
          "name": "_positionId",
          "type": "uint256"
        },
        {
          "internalType": "address",
          "name": "_dst",
          "type": "address"
        },
        {
          "internalType": "uint256",
          "name": "_collateralAmount",
          "type": "uint256"
        },
        {
          "internalType": "bytes",
          "name": "_data",
          "type": "bytes"
        }
      ],
      "name": "moveCollateral",
      "outputs": [],
      "stateMutability": "nonpayable",
      "type": "function"
    },
    {
      "inputs": [
        {
          "internalType": "address",
          "name": "_manager",
          "type": "address"
        },
        {
          "internalType": "uint256",
          "name": "_positionId",
          "type": "uint256"
        },
        {
          "internalType": "address",
          "name": "_dst",
          "type": "address"
        },
        {
          "internalType": "uint256",
          "name": "_stablecoinValue",
          "type": "uint256"
        }
      ],
      "name": "moveStablecoin",
      "outputs": [],
      "stateMutability": "nonpayable",
      "type": "function"
    },
    {
      "inputs": [
        {
          "internalType": "address",
          "name": "_manager",
          "type": "address"
        },
        {
          "internalType": "address",
          "name": "_xdcAdapter",
          "type": "address"
        },
        {
          "internalType": "uint256",
          "name": "_positionId",
          "type": "uint256"
        },
        {
          "internalType": "bytes",
          "name": "_data",
          "type": "bytes"
        }
      ],
      "name": "lockXDC",
      "outputs": [],
      "stateMutability": "payable",
      "type": "function"
    },
    {
      "inputs": [
        {
          "internalType": "address",
          "name": "_manager",
          "type": "address"
        },
        {
          "internalType": "address",
          "name": "_stabilityFeeCollector",
          "type": "address"
        },
        {
          "internalType": "address",
          "name": "_xdcAdapter",
          "type": "address"
        },
        {
          "internalType": "address",
          "name": "_stablecoinAdapter",
          "type": "address"
        },
        {
          "internalType": "uint256",
          "name": "_positionId",
          "type": "uint256"
        },
        {
          "internalType": "uint256",
          "name": "_stablecoinAmount",
          "type": "uint256"
        },
        {
          "internalType": "bytes",
          "name": "_data",
          "type": "bytes"
        }
      ],
      "name": "lockXDCAndDraw",
      "outputs": [],
      "stateMutability": "payable",
      "type": "function"
    },
    {
      "inputs": [
        {
          "internalType": "contract IManager",
          "name": "_manager",
          "type": "address"
        },
        {
          "internalType": "address",
          "name": "_stabilityFeeCollector",
          "type": "address"
        },
        {
          "internalType": "address",
          "name": "_tokenAdapter",
          "type": "address"
        },
        {
          "internalType": "address",
          "name": "_stablecoinAdapter",
          "type": "address"
        },
        {
          "internalType": "uint256",
          "name": "_positionId",
          "type": "uint256"
        },
        {
          "internalType": "uint256",
          "name": "_collateralAmount",
          "type": "uint256"
        },
        {
          "internalType": "uint256",
          "name": "_stablecoinAmount",
          "type": "uint256"
        },
        {
          "internalType": "bool",
          "name": "_transferFrom",
          "type": "bool"
        },
        {
          "internalType": "bytes",
          "name": "_data",
          "type": "bytes"
        }
      ],
      "name": "lockTokenAndDraw",
      "outputs": [],
      "stateMutability": "nonpayable",
      "type": "function"
    },
    {
      "inputs": [
        {
          "internalType": "address",
          "name": "_manager",
          "type": "address"
        },
        {
          "internalType": "address",
          "name": "_stabilityFeeCollector",
          "type": "address"
        },
        {
          "internalType": "address",
          "name": "_tokenAdapter",
          "type": "address"
        },
        {
          "internalType": "address",
          "name": "_stablecoinAdapter",
          "type": "address"
        },
        {
          "internalType": "bytes32",
          "name": "_collateralPoolId",
          "type": "bytes32"
        },
        {
          "internalType": "uint256",
          "name": "_collateralAmount",
          "type": "uint256"
        },
        {
          "internalType": "uint256",
          "name": "_stablecoinAmount",
          "type": "uint256"
        },
        {
          "internalType": "bool",
          "name": "_transferFrom",
          "type": "bool"
        },
        {
          "internalType": "bytes",
          "name": "_data",
          "type": "bytes"
        }
      ],
      "name": "openLockTokenAndDraw",
      "outputs": [
        {
          "internalType": "uint256",
          "name": "_positionId",
          "type": "uint256"
        }
      ],
      "stateMutability": "nonpayable",
      "type": "function"
    },
    {
      "inputs": [
        {
          "internalType": "address",
          "name": "_manager",
          "type": "address"
        },
        {
          "internalType": "address",
          "name": "_tokenAdapter",
          "type": "address"
        },
        {
          "internalType": "address",
          "name": "_stablecoinAdapter",
          "type": "address"
        },
        {
          "internalType": "uint256",
          "name": "_positionId",
          "type": "uint256"
        },
        {
          "internalType": "uint256",
          "name": "_collateralAmount",
          "type": "uint256"
        },
        {
          "internalType": "uint256",
          "name": "_stablecoinAmount",
          "type": "uint256"
        },
        {
          "internalType": "bytes",
          "name": "_data",
          "type": "bytes"
        }
      ],
      "name": "wipeAndUnlockToken",
      "outputs": [],
      "stateMutability": "nonpayable",
      "type": "function"
    },
    {
      "inputs": [
        {
          "internalType": "address",
          "name": "_manager",
          "type": "address"
        },
        {
          "internalType": "address",
          "name": "_tokenAdapter",
          "type": "address"
        },
        {
          "internalType": "address",
          "name": "_stablecoinAdapter",
          "type": "address"
        },
        {
          "internalType": "uint256",
          "name": "_positionId",
          "type": "uint256"
        },
        {
          "internalType": "uint256",
          "name": "_collateralAmount",
          "type": "uint256"
        },
        {
          "internalType": "bytes",
          "name": "_data",
          "type": "bytes"
        }
      ],
      "name": "wipeAllAndUnlockToken",
      "outputs": [],
      "stateMutability": "nonpayable",
      "type": "function"
    }
  ],
  "bytecode": "0x60a06040523060805234801561001457600080fd5b506080516143c16100ed60003960008181610544015281816105e7015281816106ad0152818161081f01528181610b9701528181610c3101528181610d5801528181610dfd01528181610e8a01528181611209015281816112b90152818161132201528181611385015281816114e60152818161154401528181611945015281816119a701528181611a1101528181611d8401528181611ded01528181611e5401528181611eb701528181611f5601528181611fc00152818161200e0152818161243f0152818161297f0152612cff01526143c16000f3fe6080604052600436106101c25760003560e01c8063916a8ae1116100f7578063b092145e11610095578063cb77334d11610064578063cb77334d146104c7578063ce4af695146104e7578063cf588ca014610507578063fd7039031461052757600080fd5b8063b092145e14610447578063b66291fb14610467578063b7c9836b14610487578063beabacc8146104a757600080fd5b8063a02ce94d116100d1578063a02ce94d146103c7578063a341fab1146103e7578063ac48198c14610407578063ad28ff881461042757600080fd5b8063916a8ae11461036757806399ea511e146103875780639a4e5020146103a757600080fd5b80636382d9ad116101645780636b971f531161013e5780636b971f53146102f457806385d6aeb4146103145780638889d0f41461033457806388e234dd1461035457600080fd5b80636382d9ad1461028f578063651d4b6a146102af5780636aa3ee11146102c257600080fd5b80633c5500c8116101a05780633c5500c81461020f57806342f059ee1461022f5780635c648c2b1461024f578063602fe0f61461026f57600080fd5b80630a65b4d0146101c75780631487493e146101e9578063259d4649146101fc575b600080fd5b3480156101d357600080fd5b506101e76101e2366004613965565b61053a565b005b6101e76101f73660046139e1565b6105dd565b6101e761020a366004613a54565b6106a3565b34801561021b57600080fd5b506101e761022a366004613ab9565b610815565b34801561023b57600080fd5b506101e761024a366004613b48565b610b8d565b34801561025b57600080fd5b506101e761026a3660046139e1565b610c27565b34801561027b57600080fd5b506101e761028a366004613b89565b610d4e565b34801561029b57600080fd5b506101e76102aa366004613bd1565b610df3565b6101e76102bd366004613c0a565b610e80565b3480156102ce57600080fd5b506102e26102dd366004613cab565b6111fd565b60405190815260200160405180910390f35b34801561030057600080fd5b506101e761030f366004613ced565b6112af565b34801561032057600080fd5b506101e761032f366004613b48565b611318565b34801561034057600080fd5b506101e761034f366004613d50565b61137b565b6102e2610362366004613c0a565b6114da565b34801561037357600080fd5b506101e7610382366004613ab9565b61153a565b34801561039357600080fd5b506102e26103a2366004613db7565b611939565b3480156103b357600080fd5b506101e76103c2366004613cab565b61199d565b3480156103d357600080fd5b506101e76103e2366004613e79565b611a07565b3480156103f357600080fd5b506101e7610402366004613ef1565b611d7a565b34801561041357600080fd5b506101e7610422366004613f26565b611de3565b34801561043357600080fd5b506101e7610442366004613bd1565b611e4a565b34801561045357600080fd5b506101e7610462366004613bd1565b611ead565b34801561047357600080fd5b506101e7610482366004613b89565b611f10565b34801561049357600080fd5b506101e76104a2366004613cab565b611f4c565b3480156104b357600080fd5b506101e76104c2366004613b48565b611fb6565b3480156104d357600080fd5b506101e76104e2366004613e79565b612004565b3480156104f357600080fd5b506101e7610502366004613db7565b612435565b34801561051357600080fd5b506101e7610522366004613ab9565b612975565b6101e7610535366004613f6a565b612cf5565b6001600160a01b037f000000000000000000000000000000000000000000000000000000000000000016300361056f57600080fd5b604051630c04449360e11b81526001600160a01b038716906318088926906105a39088908890889088908890600401613fde565b600060405180830381600087803b1580156105bd57600080fd5b505af11580156105d1573d6000803e3d6000fd5b50505050505050505050565b6001600160a01b037f000000000000000000000000000000000000000000000000000000000000000016300361061257600080fd5b60405163133f757160e31b8152600481018490526000906001600160a01b038716906399fbab8890602401602060405180830381865afa15801561065a573d6000803e3d6000fd5b505050506040513d601f19601f8201168201806040525081019061067e919061400c565b905061068c858285856106a3565b61069b868534600087876112af565b505050505050565b6001600160a01b037f00000000000000000000000000000000000000000000000000000000000000001630036106d857600080fd5b6000846001600160a01b031663b2016bd46040518163ffffffff1660e01b81526004016020604051808303816000875af115801561071a573d6000803e3d6000fd5b505050506040513d601f19601f8201168201806040525081019061073e919061400c565b9050806001600160a01b031663d0e30db0346040518263ffffffff1660e01b81526004016000604051808303818588803b15801561077b57600080fd5b505af115801561078f573d6000803e3d6000fd5b506107aa935050506001600160a01b03831690508634612de4565b604051630937b85760e31b81526001600160a01b038616906349bdc2b8906107dc908790349088908890600401614030565b600060405180830381600087803b1580156107f657600080fd5b505af115801561080a573d6000803e3d6000fd5b505050505050505050565b6001600160a01b037f000000000000000000000000000000000000000000000000000000000000000016300361084a57600080fd5b60405163133f757160e31b8152600481018590526000906001600160a01b038916906399fbab8890602401602060405180830381865afa158015610892573d6000803e3d6000fd5b505050506040513d601f19601f820116820180604052508101906108b6919061400c565b90506000886001600160a01b031663e3b3932a6040518163ffffffff1660e01b8152600401602060405180830381865afa1580156108f8573d6000803e3d6000fd5b505050506040513d601f19601f8201168201806040525081019061091c919061400c565b6040516336df277960e11b8152600481018890529091506000906001600160a01b038b1690636dbe4ef290602401602060405180830381865afa158015610967573d6000803e3d6000fd5b505050506040513d601f19601f8201168201806040525081019061098b9190614062565b90506109a88a8860006109a1868e89888e612f51565b89896112af565b6109b78a883061028a8a61309b565b60405163d9ea915560e01b81523060048201526001600160a01b03898116602483015283169063d9ea915590604401602060405180830381865afa158015610a03573d6000803e3d6000fd5b505050506040513d601f19601f82011682018060405250810190610a279190614062565b600003610a8a57604051634d8c928d60e11b81526001600160a01b038981166004830152831690639b19251a90602401600060405180830381600087803b158015610a7157600080fd5b505af1158015610a85573d6000803e3d6000fd5b505050505b6040516331f0926560e01b81526001600160a01b038916906331f0926590610abc9033908a908a908a90600401614030565b600060405180830381600087803b158015610ad657600080fd5b505af1158015610aea573d6000803e3d6000fd5b50506040516319d224a160e31b8152600481018490526001600160a01b038d16925063ce9125089150602401600060405180830381600087803b158015610b3057600080fd5b505af1158015610b44573d6000803e3d6000fd5b505050507fe83a08ae515fd9df0f768f1e44ddb4ab75353eb54f92aa8caac1d277804ee9a58387604051610b7992919061407b565b60405180910390a150505050505050505050565b6001600160a01b037f0000000000000000000000000000000000000000000000000000000000000000163003610bc257600080fd5b604051632309463960e01b81526001600160a01b03841690632309463990610bf0908590859060040161407b565b600060405180830381600087803b158015610c0a57600080fd5b505af1158015610c1e573d6000803e3d6000fd5b50505050505050565b6001600160a01b037f0000000000000000000000000000000000000000000000000000000000000000163003610c5c57600080fd5b6001600160a01b038416610c8b5760405162461bcd60e51b8152600401610c8290614094565b60405180910390fd5b6000856001600160a01b031663e9cbd8226040518163ffffffff1660e01b81526004016020604051808303816000875af1158015610ccd573d6000803e3d6000fd5b505050506040513d601f19601f82011682018060405250810190610cf1919061400c565b9050610d086001600160a01b0382163330876130b9565b610d1c6001600160a01b0382168786612de4565b604051630937b85760e31b81526001600160a01b038716906349bdc2b8906105a3908890889088908890600401614030565b6001600160a01b037f0000000000000000000000000000000000000000000000000000000000000000163003610d8357600080fd5b6040516318d326fd60e31b8152600481018490526001600160a01b0383811660248301526044820183905285169063c69937e8906064015b600060405180830381600087803b158015610dd557600080fd5b505af1158015610de9573d6000803e3d6000fd5b5050505050505050565b6001600160a01b037f0000000000000000000000000000000000000000000000000000000000000000163003610e2857600080fd5b604051631bfc726f60e21b81526001600160a01b038281166004830152831690636ff1c9bc906024015b600060405180830381600087803b158015610e6c57600080fd5b505af115801561069b573d6000803e3d6000fd5b6001600160a01b037f0000000000000000000000000000000000000000000000000000000000000000163003610eb557600080fd5b60405163133f757160e31b8152600481018590526000906001600160a01b038a16906399fbab8890602401602060405180830381865afa158015610efd573d6000803e3d6000fd5b505050506040513d601f19601f82011682018060405250810190610f21919061400c565b90506000896001600160a01b031663e3b3932a6040518163ffffffff1660e01b8152600401602060405180830381865afa158015610f63573d6000803e3d6000fd5b505050506040513d601f19601f82011682018060405250810190610f87919061400c565b6040516336df277960e11b8152600481018890529091506000906001600160a01b038c1690636dbe4ef290602401602060405180830381865afa158015610fd2573d6000803e3d6000fd5b505050506040513d601f19601f82011682018060405250810190610ff69190614062565b9050611004898487876106a3565b6110178b88346109a1868f89888e612f51565b6110268b883061028a8a61309b565b60405163d9ea915560e01b81523060048201526001600160a01b03898116602483015283169063d9ea915590604401602060405180830381865afa158015611072573d6000803e3d6000fd5b505050506040513d601f19601f820116820180604052508101906110969190614062565b6000036110f957604051634d8c928d60e11b81526001600160a01b038981166004830152831690639b19251a90602401600060405180830381600087803b1580156110e057600080fd5b505af11580156110f4573d6000803e3d6000fd5b505050505b6040516331f0926560e01b81526001600160a01b038916906331f092659061112b9033908a908a908a90600401614030565b600060405180830381600087803b15801561114557600080fd5b505af1158015611159573d6000803e3d6000fd5b50506040516319d224a160e31b8152600481018490526001600160a01b038e16925063ce9125089150602401600060405180830381600087803b15801561119f57600080fd5b505af11580156111b3573d6000803e3d6000fd5b505050507fe83a08ae515fd9df0f768f1e44ddb4ab75353eb54f92aa8caac1d277804ee9a583876040516111e892919061407b565b60405180910390a15050505050505050505050565b60006001600160a01b037f000000000000000000000000000000000000000000000000000000000000000016300361123457600080fd5b604051636090dec560e01b8152600481018490526001600160a01b038381166024830152851690636090dec5906044016020604051808303816000875af1158015611283573d6000803e3d6000fd5b505050506040513d601f19601f820116820180604052508101906112a79190614062565b949350505050565b6001600160a01b037f00000000000000000000000000000000000000000000000000000000000000001630036112e457600080fd5b6040516388786b9960e01b81526001600160a01b038716906388786b99906105a390889088908890889088906004016140de565b6001600160a01b037f000000000000000000000000000000000000000000000000000000000000000016300361134d57600080fd5b6040516373cc200d60e11b81526001600160a01b0384169063e798401a90610bf0908590859060040161407b565b6001600160a01b037f00000000000000000000000000000000000000000000000000000000000000001630036113b057600080fd5b6001600160a01b0385166113d65760405162461bcd60e51b8152600401610c8290614094565b6000866001600160a01b031663b2016bd46040518163ffffffff1660e01b81526004016020604051808303816000875af1158015611418573d6000803e3d6000fd5b505050506040513d601f19601f8201168201806040525081019061143c919061400c565b90508315611459576114596001600160a01b0382163330886130b9565b61146d6001600160a01b0382168887612de4565b604051630937b85760e31b81526001600160a01b038816906349bdc2b89061149f908990899088908890600401614030565b600060405180830381600087803b1580156114b957600080fd5b505af11580156114cd573d6000803e3d6000fd5b5050505050505050505050565b60006001600160a01b037f000000000000000000000000000000000000000000000000000000000000000016300361151157600080fd5b61151c8986306111fd565b905061152e8989898985898989610e80565b98975050505050505050565b6001600160a01b037f000000000000000000000000000000000000000000000000000000000000000016300361156f57600080fd5b6000876001600160a01b031663e3b3932a6040518163ffffffff1660e01b8152600401602060405180830381865afa1580156115af573d6000803e3d6000fd5b505050506040513d601f19601f820116820180604052508101906115d3919061400c565b60405163133f757160e31b8152600481018790529091506000906001600160a01b038a16906399fbab8890602401602060405180830381865afa15801561161e573d6000803e3d6000fd5b505050506040513d601f19601f82011682018060405250810190611642919061400c565b6040516336df277960e11b8152600481018890529091506000906001600160a01b038b1690636dbe4ef290602401602060405180830381865afa15801561168d573d6000803e3d6000fd5b505050506040513d601f19601f820116820180604052508101906116b19190614062565b604051630a76216560e21b8152600481018290526001600160a01b0384811660248301529192506000918516906329d88594906044016040805180830381865afa158015611703573d6000803e3d6000fd5b505050506040513d601f19601f820116820180604052508101906117279190614104565b91505060006117388585868661322f565b90506117478a85838a8a610c27565b6117658c8a6117558b61413e565b61175e8661413e565b8b8b6112af565b87156118aa576117798c8a308b8b8b61053a565b6040516331f0926560e01b81526001600160a01b038c16906331f09265906117ab9030908c908c908c90600401614030565b600060405180830381600087803b1580156117c557600080fd5b505af11580156117d9573d6000803e3d6000fd5b505050508a6001600160a01b031663b2016bd46040518163ffffffff1660e01b81526004016020604051808303816000875af115801561181d573d6000803e3d6000fd5b505050506040513d601f19601f82011682018060405250810190611841919061400c565b6001600160a01b0316632e1a7d4d896040518263ffffffff1660e01b815260040161186e91815260200190565b600060405180830381600087803b15801561188857600080fd5b505af115801561189c573d6000803e3d6000fd5b505050506118aa338961344f565b6040516319d224a160e31b8152600481018490526001600160a01b038d169063ce91250890602401600060405180830381600087803b1580156118ec57600080fd5b505af1158015611900573d6000803e3d6000fd5b5050505060008051602061436c833981519152848260405161192392919061407b565b60405180910390a1505050505050505050505050565b60006001600160a01b037f000000000000000000000000000000000000000000000000000000000000000016300361197057600080fd5b61197b8b88306111fd565b905061198f8b8b8b8b858b8b8b8b8b612435565b9a9950505050505050505050565b6001600160a01b037f00000000000000000000000000000000000000000000000000000000000000001630036119d257600080fd5b604051631f95f98d60e31b8152600481018390526001600160a01b03828116602483015284169063fcafcc6890604401610bf0565b6001600160a01b037f0000000000000000000000000000000000000000000000000000000000000000163003611a3c57600080fd5b60405163133f757160e31b8152600481018690526000906001600160a01b038a16906399fbab8890602401602060405180830381865afa158015611a84573d6000803e3d6000fd5b505050506040513d601f19601f82011682018060405250810190611aa8919061400c565b6040516336df277960e11b8152600481018890529091506000906001600160a01b038b1690636dbe4ef290602401602060405180830381865afa158015611af3573d6000803e3d6000fd5b505050506040513d601f19601f82011682018060405250810190611b179190614062565b9050611b268883878787610c27565b6000611b328a886134ff565b90506000611c708c6001600160a01b031663e3b3932a6040518163ffffffff1660e01b8152600401602060405180830381865afa158015611b77573d6000803e3d6000fd5b505050506040513d601f19601f82011682018060405250810190611b9b919061400c565b8d6001600160a01b031663e3b3932a6040518163ffffffff1660e01b8152600401602060405180830381865afa158015611bd9573d6000803e3d6000fd5b505050506040513d601f19601f82011682018060405250810190611bfd919061400c565b60405163b4ac08bb60e01b81526001600160a01b038881166004830152919091169063b4ac08bb90602401602060405180830381865afa158015611c45573d6000803e3d6000fd5b505050506040513d601f19601f82011682018060405250810190611c699190614062565b8686613619565b9050611c888c8a611c808561413e565b848a8a6112af565b8715611d0157611c9c8c8a30858a8a61053a565b6040516331f0926560e01b81526001600160a01b038c16906331f0926590611cce9033908c908b908b90600401614030565b600060405180830381600087803b158015611ce857600080fd5b505af1158015611cfc573d6000803e3d6000fd5b505050505b6040516319d224a160e31b8152600481018490526001600160a01b038d169063ce91250890602401600060405180830381600087803b158015611d4357600080fd5b505af1158015611d57573d6000803e3d6000fd5b5050505060008051602061436c833981519152848860405161192392919061407b565b6001600160a01b037f0000000000000000000000000000000000000000000000000000000000000000163003611daf57600080fd5b60405163a3cf2f4f60e01b815260048101839052602481018290526001600160a01b0384169063a3cf2f4f90604401610bf0565b6001600160a01b037f0000000000000000000000000000000000000000000000000000000000000000163003611e1857600080fd5b604051632ce0ee0560e01b81526001600160a01b03851690632ce0ee0590610dbb90869030908790879060040161415a565b6001600160a01b037f0000000000000000000000000000000000000000000000000000000000000000163003611e7f57600080fd5b604051633e7e4af960e21b81526001600160a01b03828116600483015283169063f9f92be490602401610e52565b6001600160a01b037f0000000000000000000000000000000000000000000000000000000000000000163003611ee257600080fd5b604051634d8c928d60e11b81526001600160a01b038281166004830152831690639b19251a90602401610e52565b604051638876e58960e01b8152600481018490526001600160a01b03838116602483015260448201839052851690638876e58990606401610dbb565b6001600160a01b037f0000000000000000000000000000000000000000000000000000000000000000163003611f8157600080fd5b60405163ba9a392560e01b8152600481018390526001600160a01b03828116602483015284169063ba9a392590604401610bf0565b6001600160a01b037f0000000000000000000000000000000000000000000000000000000000000000163003611feb57600080fd5b611fff6001600160a01b038416838361379c565b505050565b6001600160a01b037f000000000000000000000000000000000000000000000000000000000000000016300361203957600080fd5b60405163133f757160e31b8152600481018690526000906001600160a01b038a16906399fbab8890602401602060405180830381865afa158015612081573d6000803e3d6000fd5b505050506040513d601f19601f820116820180604052508101906120a5919061400c565b6040516336df277960e11b8152600481018890529091506000906001600160a01b038b1690636dbe4ef290602401602060405180830381865afa1580156120f0573d6000803e3d6000fd5b505050506040513d601f19601f820116820180604052508101906121149190614062565b90506121238883878787610c27565b600061225f8b6001600160a01b031663e3b3932a6040518163ffffffff1660e01b8152600401602060405180830381865afa158015612166573d6000803e3d6000fd5b505050506040513d601f19601f8201168201806040525081019061218a919061400c565b8c6001600160a01b031663e3b3932a6040518163ffffffff1660e01b8152600401602060405180830381865afa1580156121c8573d6000803e3d6000fd5b505050506040513d601f19601f820116820180604052508101906121ec919061400c565b60405163b4ac08bb60e01b81526001600160a01b038781166004830152919091169063b4ac08bb90602401602060405180830381865afa158015612234573d6000803e3d6000fd5b505050506040513d601f19601f820116820180604052508101906122589190614062565b8585613619565b90506122778b8961226f8a61413e565b8489896112af565b86156123bc5761228b8b89308a898961053a565b6040516331f0926560e01b81526001600160a01b038b16906331f09265906122bd9030908b908a908a90600401614030565b600060405180830381600087803b1580156122d757600080fd5b505af11580156122eb573d6000803e3d6000fd5b50505050896001600160a01b031663b2016bd46040518163ffffffff1660e01b81526004016020604051808303816000875af115801561232f573d6000803e3d6000fd5b505050506040513d601f19601f82011682018060405250810190612353919061400c565b6001600160a01b0316632e1a7d4d886040518263ffffffff1660e01b815260040161238091815260200190565b600060405180830381600087803b15801561239a57600080fd5b505af11580156123ae573d6000803e3d6000fd5b505050506123bc338861344f565b6040516319d224a160e31b8152600481018390526001600160a01b038c169063ce91250890602401600060405180830381600087803b1580156123fe57600080fd5b505af1158015612412573d6000803e3d6000fd5b5050505060008051602061436c83398151915283876040516111e892919061407b565b6001600160a01b037f000000000000000000000000000000000000000000000000000000000000000016300361246a57600080fd5b6040516336df277960e11b8152600481018790526000906001600160a01b038c1690636dbe4ef290602401602060405180830381865afa1580156124b2573d6000803e3d6000fd5b505050506040513d601f19601f820116820180604052508101906124d69190614062565b9050612554898c6001600160a01b03166399fbab888a6040518263ffffffff1660e01b815260040161250a91815260200190565b602060405180830381865afa158015612527573d6000803e3d6000fd5b505050506040513d601f19601f8201168201806040525081019061254b919061400c565b8887878761137b565b60006125608a886134ff565b905060006126408d6001600160a01b031663e3b3932a6040518163ffffffff1660e01b8152600401602060405180830381865afa1580156125a5573d6000803e3d6000fd5b505050506040513d601f19601f820116820180604052508101906125c9919061400c565b8d8f6001600160a01b03166399fbab888d6040518263ffffffff1660e01b81526004016125f891815260200190565b602060405180830381865afa158015612615573d6000803e3d6000fd5b505050506040513d601f19601f82011682018060405250810190612639919061400c565b868b612f51565b90506126508d8a848489896112af565b61265f8d8a3061028a8b61309b565b8c6001600160a01b031663e3b3932a6040518163ffffffff1660e01b8152600401602060405180830381865afa15801561269d573d6000803e3d6000fd5b505050506040513d601f19601f820116820180604052508101906126c1919061400c565b60405163d9ea915560e01b81523060048201526001600160a01b038c81166024830152919091169063d9ea915590604401602060405180830381865afa15801561270f573d6000803e3d6000fd5b505050506040513d601f19601f820116820180604052508101906127339190614062565b6000036127fa578c6001600160a01b031663e3b3932a6040518163ffffffff1660e01b8152600401602060405180830381865afa158015612778573d6000803e3d6000fd5b505050506040513d601f19601f8201168201806040525081019061279c919061400c565b604051634d8c928d60e11b81526001600160a01b038c811660048301529190911690639b19251a90602401600060405180830381600087803b1580156127e157600080fd5b505af11580156127f5573d6000803e3d6000fd5b505050505b6040516331f0926560e01b81526001600160a01b038b16906331f092659061282c9033908b908a908a90600401614030565b600060405180830381600087803b15801561284657600080fd5b505af115801561285a573d6000803e3d6000fd5b5050505060008d6001600160a01b03166399fbab888b6040518263ffffffff1660e01b815260040161288e91815260200190565b602060405180830381865afa1580156128ab573d6000803e3d6000fd5b505050506040513d601f19601f820116820180604052508101906128cf919061400c565b6040516319d224a160e31b8152600481018690529091506001600160a01b038f169063ce91250890602401600060405180830381600087803b15801561291457600080fd5b505af1158015612928573d6000803e3d6000fd5b505050507fe83a08ae515fd9df0f768f1e44ddb4ab75353eb54f92aa8caac1d277804ee9a5818960405161295d92919061407b565b60405180910390a15050505050505050505050505050565b6001600160a01b037f00000000000000000000000000000000000000000000000000000000000000001630036129aa57600080fd5b60405163133f757160e31b8152600481018590526000906001600160a01b038916906399fbab8890602401602060405180830381865afa1580156129f2573d6000803e3d6000fd5b505050506040513d601f19601f82011682018060405250810190612a16919061400c565b6040516336df277960e11b8152600481018790529091506000906001600160a01b038a1690636dbe4ef290602401602060405180830381865afa158015612a61573d6000803e3d6000fd5b505050506040513d601f19601f82011682018060405250810190612a859190614062565b90506000896001600160a01b031663e3b3932a6040518163ffffffff1660e01b8152600401602060405180830381865afa158015612ac7573d6000803e3d6000fd5b505050506040513d601f19601f82011682018060405250810190612aeb919061400c565b604051630a76216560e21b8152600481018490526001600160a01b03858116602483015291909116906329d88594906044016040805180830381865afa158015612b39573d6000803e3d6000fd5b505050506040513d601f19601f82011682018060405250810190612b5d9190614104565b9150506000612bcf8b6001600160a01b031663e3b3932a6040518163ffffffff1660e01b8152600401602060405180830381865afa158015612ba3573d6000803e3d6000fd5b505050506040513d601f19601f82011682018060405250810190612bc7919061400c565b85868661322f565b9050612bde8985838989610c27565b6000612bea8b896134ff565b9050612c038c8a612bfa8461413e565b61175e8761413e565b8715612c7c57612c178c8a30848b8b61053a565b6040516331f0926560e01b81526001600160a01b038c16906331f0926590612c499033908c908c908c90600401614030565b600060405180830381600087803b158015612c6357600080fd5b505af1158015612c77573d6000803e3d6000fd5b505050505b6040516319d224a160e31b8152600481018590526001600160a01b038d169063ce91250890602401600060405180830381600087803b158015612cbe57600080fd5b505af1158015612cd2573d6000803e3d6000fd5b5050505060008051602061436c833981519152858360405161192392919061407b565b6001600160a01b037f0000000000000000000000000000000000000000000000000000000000000000163003612d2a57600080fd5b60405163025e7c2760e01b8152600481018590526001600160a01b03808516919088169063025e7c2790602401602060405180830381865afa158015612d74573d6000803e3d6000fd5b505050506040513d601f19601f82011682018060405250810190612d98919061400c565b6001600160a01b031614612dd75760405162461bcd60e51b815260206004820152600660248201526510b7bbb732b960d11b6044820152606401610c82565b61069b86868685856105dd565b6001600160a01b0383163b612e455760405162461bcd60e51b815260206004820152602160248201527f73616665417070726f76653a206e6f6e2d636f6e7472616374206164647265736044820152607360f81b6064820152608401610c82565b600080846001600160a01b031663095ea7b38585604051602401612e6a92919061407b565b6040516020818303038152906040529060e01b6020820180516001600160e01b038381831617835250505050604051612ea39190614185565b6000604051808303816000865af19150503d8060008114612ee0576040519150601f19603f3d011682016040523d82523d6000602084013e612ee5565b606091505b5091509150818015612f0f575080511580612f0f575080806020019051810190612f0f91906141b4565b612f4a5760405162461bcd60e51b815260206004820152600c60248201526b2173616665417070726f766560a01b6044820152606401610c82565b5050505050565b60405163497777d560e01b81526004810183905260009081906001600160a01b0387169063497777d5906024016020604051808303816000875af1158015612f9d573d6000803e3d6000fd5b505050506040513d601f19601f82011682018060405250810190612fc19190614062565b60405163b4ac08bb60e01b81526001600160a01b03878116600483015291925060009189169063b4ac08bb90602401602060405180830381865afa15801561300d573d6000803e3d6000fd5b505050506040513d601f19601f820116820180604052508101906130319190614062565b905061303c8461309b565b81101561309057818161304e8661309b565b61305891906141d1565b61306291906141e4565b925061306d8461309b565b6130778385614206565b10613082578261308d565b61308d83600161421d565b92505b505095945050505050565b60006130b36b033b2e3c9fd0803ce800000083614206565b92915050565b6001600160a01b0384163b61311f5760405162461bcd60e51b815260206004820152602660248201527f736166655472616e7366657246726f6d3a206e6f6e2d636f6e7472616374206160448201526564647265737360d01b6064820152608401610c82565b604080516001600160a01b0385811660248301528481166044830152606480830185905283518084039091018152608490920183526020820180516001600160e01b03166323b872dd60e01b17905291516000928392908816916131839190614185565b6000604051808303816000865af19150503d80600081146131c0576040519150601f19603f3d011682016040523d82523d6000602084013e6131c5565b606091505b50915091508180156131ef5750805115806131ef5750808060200190518101906131ef91906141b4565b61069b5760405162461bcd60e51b815260206004820152601160248201527021736166655472616e7366657246726f6d60781b6044820152606401610c82565b600080856001600160a01b031663d86824616040518163ffffffff1660e01b8152600401602060405180830381865afa158015613270573d6000803e3d6000fd5b505050506040513d601f19601f82011682018060405250810190613294919061400c565b6001600160a01b031663a09b0fe0846040518263ffffffff1660e01b81526004016132c191815260200190565b602060405180830381865afa1580156132de573d6000803e3d6000fd5b505050506040513d601f19601f820116820180604052508101906133029190614062565b604051630a76216560e21b8152600481018590526001600160a01b0386811660248301529192506000918816906329d88594906044016040805180830381865afa158015613354573d6000803e3d6000fd5b505050506040513d601f19601f820116820180604052508101906133789190614104565b60405163b4ac08bb60e01b81526001600160a01b038981166004830152919350600092509089169063b4ac08bb90602401602060405180830381865afa1580156133c6573d6000803e3d6000fd5b505050506040513d601f19601f820116820180604052508101906133ea9190614062565b905060006133f88484614206565b905060008282101561340b576000613415565b61341583836141d1565b905061342d6b033b2e3c9fd0803ce8000000826141e4565b9550806134398761309b565b10613444578561198f565b61198f866001614245565b604080516000808252602082019092526001600160a01b0384169083906040516134799190614185565b60006040518083038185875af1925050503d80600081146134b6576040519150601f19603f3d011682016040523d82523d6000602084013e6134bb565b606091505b5050905080611fff5760405162461bcd60e51b815260206004820152601060248201526f042e6c2cccaa8e4c2dce6cccae48aa8960831b6044820152606401610c82565b600080836001600160a01b031663b2016bd46040518163ffffffff1660e01b81526004016020604051808303816000875af1158015613542573d6000803e3d6000fd5b505050506040513d601f19601f82011682018060405250810190613566919061400c565b6001600160a01b031663313ce5676040518163ffffffff1660e01b8152600401602060405180830381865afa1580156135a3573d6000803e3d6000fd5b505050506040513d601f19601f820116820180604052508101906135c79190614258565b60ff169050601281106135f9576135df6012826141d1565b6135ea90600a61435f565b6135f490846141e4565b6112a7565b6136048160126141d1565b61360f90600a61435f565b6112a79084614206565b600080856001600160a01b031663d86824616040518163ffffffff1660e01b8152600401602060405180830381865afa15801561365a573d6000803e3d6000fd5b505050506040513d601f19601f8201168201806040525081019061367e919061400c565b6001600160a01b031663a09b0fe0846040518263ffffffff1660e01b81526004016136ab91815260200190565b602060405180830381865afa1580156136c8573d6000803e3d6000fd5b505050506040513d601f19601f820116820180604052508101906136ec9190614062565b604051630a76216560e21b8152600481018590526001600160a01b0386811660248301529192506000918816906329d88594906044016040805180830381865afa15801561373e573d6000803e3d6000fd5b505050506040513d601f19601f820116820180604052508101906137629190614104565b9150613770905082876141e4565b925080831115613788576137838161413e565b613791565b6137918361413e565b979650505050505050565b6001600160a01b0383163b6137fe5760405162461bcd60e51b815260206004820152602260248201527f736166655472616e736665723a206e6f6e2d636f6e7472616374206164647265604482015261737360f01b6064820152608401610c82565b600080846001600160a01b031663a9059cbb858560405160240161382392919061407b565b6040516020818303038152906040529060e01b6020820180516001600160e01b03838183161783525050505060405161385c9190614185565b6000604051808303816000865af19150503d8060008114613899576040519150601f19603f3d011682016040523d82523d6000602084013e61389e565b606091505b50915091508180156138c85750805115806138c85750808060200190518101906138c891906141b4565b612f4a5760405162461bcd60e51b815260206004820152600d60248201526c10b9b0b332aa3930b739b332b960991b6044820152606401610c82565b6001600160a01b038116811461391957600080fd5b50565b60008083601f84011261392e57600080fd5b50813567ffffffffffffffff81111561394657600080fd5b60208301915083602082850101111561395e57600080fd5b9250929050565b60008060008060008060a0878903121561397e57600080fd5b863561398981613904565b95506020870135945060408701356139a081613904565b935060608701359250608087013567ffffffffffffffff8111156139c357600080fd5b6139cf89828a0161391c565b979a9699509497509295939492505050565b6000806000806000608086880312156139f957600080fd5b8535613a0481613904565b94506020860135613a1481613904565b935060408601359250606086013567ffffffffffffffff811115613a3757600080fd5b613a438882890161391c565b969995985093965092949392505050565b60008060008060608587031215613a6a57600080fd5b8435613a7581613904565b93506020850135613a8581613904565b9250604085013567ffffffffffffffff811115613aa157600080fd5b613aad8782880161391c565b95989497509550505050565b600080600080600080600060c0888a031215613ad457600080fd5b8735613adf81613904565b96506020880135613aef81613904565b95506040880135613aff81613904565b9450606088013593506080880135925060a088013567ffffffffffffffff811115613b2957600080fd5b613b358a828b0161391c565b989b979a50959850939692959293505050565b600080600060608486031215613b5d57600080fd5b8335613b6881613904565b92506020840135613b7881613904565b929592945050506040919091013590565b60008060008060808587031215613b9f57600080fd5b8435613baa81613904565b9350602085013592506040850135613bc181613904565b9396929550929360600135925050565b60008060408385031215613be457600080fd5b8235613bef81613904565b91506020830135613bff81613904565b809150509250929050565b60008060008060008060008060e0898b031215613c2657600080fd5b8835613c3181613904565b97506020890135613c4181613904565b96506040890135613c5181613904565b95506060890135613c6181613904565b94506080890135935060a0890135925060c089013567ffffffffffffffff811115613c8b57600080fd5b613c978b828c0161391c565b999c989b5096995094979396929594505050565b600080600060608486031215613cc057600080fd5b8335613ccb81613904565b9250602084013591506040840135613ce281613904565b809150509250925092565b60008060008060008060a08789031215613d0657600080fd5b8635613d1181613904565b9550602087013594506040870135935060608701359250608087013567ffffffffffffffff8111156139c357600080fd5b801515811461391957600080fd5b60008060008060008060a08789031215613d6957600080fd5b8635613d7481613904565b95506020870135613d8481613904565b9450604087013593506060870135613d9b81613d42565b9250608087013567ffffffffffffffff8111156139c357600080fd5b6000806000806000806000806000806101208b8d031215613dd757600080fd5b8a35613de281613904565b995060208b0135613df281613904565b985060408b0135613e0281613904565b975060608b0135613e1281613904565b965060808b0135955060a08b0135945060c08b0135935060e08b0135613e3781613d42565b92506101008b013567ffffffffffffffff811115613e5457600080fd5b613e608d828e0161391c565b915080935050809150509295989b9194979a5092959850565b60008060008060008060008060e0898b031215613e9557600080fd5b8835613ea081613904565b97506020890135613eb081613904565b96506040890135613ec081613904565b9550606089013594506080890135935060a0890135925060c089013567ffffffffffffffff811115613c8b57600080fd5b600080600060608486031215613f0657600080fd5b8335613f1181613904565b95602085013595506040909401359392505050565b60008060008060608587031215613f3c57600080fd5b8435613f4781613904565b935060208501359250604085013567ffffffffffffffff811115613aa157600080fd5b60008060008060008060a08789031215613f8357600080fd5b8635613f8e81613904565b95506020870135613f9e81613904565b9450604087013593506060870135613d9b81613904565b81835281816020850137506000828201602090810191909152601f909101601f19169091010190565b85815260018060a01b0385166020820152836040820152608060608201526000613791608083018486613fb5565b60006020828403121561401e57600080fd5b815161402981613904565b9392505050565b60018060a01b0385168152836020820152606060408201526000614058606083018486613fb5565b9695505050505050565b60006020828403121561407457600080fd5b5051919050565b6001600160a01b03929092168252602082015260400190565b6020808252602a908201527f436f6c6c61746572616c506f6f6c436f6e6669672f7a65726f2d706f736974696040820152696f6e2d6164647265737360b01b606082015260800190565b858152846020820152836040820152608060608201526000613791608083018486613fb5565b6000806040838503121561411757600080fd5b505080516020909101519092909150565b634e487b7160e01b600052601160045260246000fd5b6000600160ff1b820161415357614153614128565b5060000390565b8481526001600160a01b03841660208201526060604082018190526000906140589083018486613fb5565b6000825160005b818110156141a6576020818601810151858301520161418c565b506000920191825250919050565b6000602082840312156141c657600080fd5b815161402981613d42565b818103818111156130b3576130b3614128565b60008261420157634e487b7160e01b600052601260045260246000fd5b500490565b80820281158282048414176130b3576130b3614128565b808201828112600083128015821682158216171561423d5761423d614128565b505092915050565b808201808211156130b3576130b3614128565b60006020828403121561426a57600080fd5b815160ff8116811461402957600080fd5b600181815b808511156142b657816000190482111561429c5761429c614128565b808516156142a957918102915b93841c9390800290614280565b509250929050565b6000826142cd575060016130b3565b816142da575060006130b3565b81600181146142f057600281146142fa57614316565b60019150506130b3565b60ff84111561430b5761430b614128565b50506001821b6130b3565b5060208310610133831016604e8410600b8410161715614339575081810a6130b3565b614343838361427b565b806000190482111561435757614357614128565b029392505050565b600061402983836142be56fe445146cd84cf386cadbd440abe38a3aeed2d4998f099e6e93d5d02529614ff58a2646970667358221220cb39e39e31ea325676f79e4493479c73e84bcf1f3b4869a130a0a0bb401d3c1c64736f6c63430008110033",
  "immutableReferences": {
    "11163": [
      {
        "length": 32,
        "start": 1348
      },
      {
        "length": 32,
        "start": 1511
      },
      {
        "length": 32,
        "start": 1709
      },
      {
        "length": 32,
        "start": 2079
      },
      {
        "length": 32,
        "start": 2967
      },
      {
        "length": 32,
        "start": 3121
      },
      {
        "length": 32,
        "start": 3416
      },
      {
        "length": 32,
        "start": 3581
      },
      {
        "length": 32,
        "start": 3722
      },
      {
        "length": 32,
        "start": 4617
      },
      {
        "length": 32,
        "start": 4793
      },
      {
        "length": 32,
        "start": 4898
      },
      {
        "length": 32,
        "start": 4997
      },
      {
        "length": 32,
        "start": 5350
      },
      {
        "length": 32,
        "start": 5444
      },
      {
        "length": 32,
        "start": 6469
      },
      {
        "length": 32,
        "start": 6567
      },
      {
        "length": 32,
        "start": 6673
      },
      {
        "length": 32,
        "start": 7556
      },
      {
        "length": 32,
        "start": 7661
      },
      {
        "length": 32,
        "start": 7764
      },
      {
        "length": 32,
        "start": 7863
      },
      {
        "length": 32,
        "start": 8022
      },
      {
        "length": 32,
        "start": 8128
      },
      {
        "length": 32,
        "start": 8206
      },
      {
        "length": 32,
        "start": 9279
      },
      {
        "length": 32,
        "start": 10623
      },
      {
        "length": 32,
        "start": 11519
      }
    ]
  },
  "source": "// SPDX-License-Identifier: AGPL-3.0-or-later\npragma solidity 0.8.17;\n\nimport \"../interfaces/IBookKeeper.sol\";\nimport \"../interfaces/IWXDC.sol\";\nimport \"../interfaces/IToken.sol\";\nimport \"../interfaces/IManager.sol\";\nimport \"../interfaces/IGenericTokenAdapter.sol\";\nimport \"../interfaces/IStablecoinAdapter.sol\";\nimport \"../interfaces/IStabilityFeeCollector.sol\";\nimport \"../interfaces/IProxyRegistry.sol\";\nimport \"../interfaces/IProxy.sol\";\nimport \"../utils/SafeToken.sol\";\nimport \"../utils/CommonMath.sol\";\n\n/// @notice WARNING: These functions meant to be used as a library for a Proxy.\n/// @notice DO NOT CALL ANY FUNCTION IN THIS CONTRACT DIRECTLY.\n/// @notice Hence, it shouldn't has any state variables. Some are unsafe if you call them directly.\ncontract FathomStablecoinProxyActions is CommonMath {\n    using SafeToken for address;\n\n    // solhint-disable\n    event LogBorrowedAmount(address _positionAddress, uint256 _FXDBorrowAmount);\n    event LogPaidAmount(address _positionAddress, uint256 _FXDPaidAmount);\n    // solhint-enable\n\n    address immutable internal self = address(this);\n\n    modifier onlyDelegateCall() {\n        require(address(this) != self);\n        _;\n    }\n\n    function whitelist(address _bookKeeper, address _usr) external onlyDelegateCall {\n        IBookKeeper(_bookKeeper).whitelist(_usr);\n    }\n\n    function blacklist(address _bookKeeper, address _usr) external onlyDelegateCall {\n        IBookKeeper(_bookKeeper).blacklist(_usr);\n    }\n\n    function allowManagePosition(address _manager, uint256 _positionId, address _user, uint256 _ok) external {\n        IManager(_manager).allowManagePosition(_positionId, _user, _ok);\n    }\n\n    function allowMigratePosition(address _manager, address _user, uint256 _ok) external onlyDelegateCall {\n        IManager(_manager).allowMigratePosition(_user, _ok);\n    }\n\n    function exportPosition(address _manager, uint256 _positionId, address _destination) external onlyDelegateCall {\n        IManager(_manager).exportPosition(_positionId, _destination);\n    }\n\n    function importPosition(address _manager, address _source, uint256 _positionId) external onlyDelegateCall {\n        IManager(_manager).importPosition(_source, _positionId);\n    }\n\n    function movePosition(address _manager, uint256 _source, uint256 _destination) external onlyDelegateCall {\n        IManager(_manager).movePosition(_source, _destination);\n    }\n\n    function safeLockXDC(address _manager, address _xdcAdapter, uint256 _positionId, address _owner, bytes calldata _data) external payable onlyDelegateCall {\n        require(IManager(_manager).owners(_positionId) == _owner, \"!owner\");\n        lockXDC(_manager, _xdcAdapter, _positionId, _data);\n    }\n\n    function draw(\n        address _manager,\n        address _stabilityFeeCollector,\n        address _stablecoinAdapter,\n        uint256 _positionId,\n        uint256 _amount, // [wad]\n        bytes calldata _data\n    ) external onlyDelegateCall {\n        address _positionAddress = IManager(_manager).positions(_positionId);\n        address _bookKeeper = IManager(_manager).bookKeeper();\n        bytes32 _collateralPoolId = IManager(_manager).collateralPools(_positionId);\n        // Generates debt in the CDP\n        adjustPosition(\n            _manager,\n            _positionId,\n            0,\n            _getDrawDebtShare(_bookKeeper, _stabilityFeeCollector, _positionAddress, _collateralPoolId, _amount),\n            _data\n        );\n\n        moveStablecoin(_manager, _positionId, address(this), toRad(_amount)); // Moves the Fathom Stablecoin amount (balance in the bookKeeper in rad) to proxy's address\n\n        // Allows adapter to access to proxy's Fathom Stablecoin balance in the bookKeeper\n        if (IBookKeeper(_bookKeeper).positionWhitelist(address(this), address(_stablecoinAdapter)) == 0) {\n            IBookKeeper(_bookKeeper).whitelist(_stablecoinAdapter);\n        }\n\n        IStablecoinAdapter(_stablecoinAdapter).withdraw(msg.sender, _amount, _data); // Withdraws Fathom Stablecoin to the user's wallet as a token\n        IManager(_manager).updatePrice(_collateralPoolId);\n\n        emit LogBorrowedAmount(_positionAddress, _amount);\n    }\n\n    function openLockXDCAndDraw(\n        address _manager,\n        address _stabilityFeeCollector,\n        address _xdcAdapter,\n        address _stablecoinAdapter,\n        bytes32 _collateralPoolId,\n        uint256 _stablecoinAmount, // [wad]\n        bytes calldata _data\n    ) external payable onlyDelegateCall returns (uint256 _positionId) {\n        _positionId = open(_manager, _collateralPoolId, address(this));\n        lockXDCAndDraw(_manager, _stabilityFeeCollector, _xdcAdapter, _stablecoinAdapter, _positionId, _stablecoinAmount, _data);\n    }\n\n    function wipeAndUnlockXDC(\n        address _manager,\n        address _xdcAdapter,\n        address _stablecoinAdapter,\n        uint256 _positionId,\n        uint256 _collateralAmount, // [wad]\n        uint256 _stablecoinAmount, // [wad]\n        bytes calldata _data\n    ) external onlyDelegateCall {\n        address _positionAddress = IManager(_manager).positions(_positionId);\n        bytes32 _collateralPoolId = IManager(_manager).collateralPools(_positionId);\n        stablecoinAdapterDeposit(_stablecoinAdapter, _positionAddress, _stablecoinAmount, _data); // Deposits Fathom Stablecoin amount into the bookKeeper\n        // Paybacks debt to the position and unlocks WXDC amount from it\n        int256 _wipeDebtShare = _getWipeDebtShare(\n            IManager(_manager).bookKeeper(),\n            IBookKeeper(IManager(_manager).bookKeeper()).stablecoin(_positionAddress),\n            _positionAddress,\n            _collateralPoolId\n        ); // [wad]\n        adjustPosition(_manager, _positionId, -int256(_collateralAmount), _wipeDebtShare, _data);\n        if (_collateralAmount > 0) {\n            moveCollateral(_manager, _positionId, address(this), _collateralAmount, _data); // Moves the amount from the position to proxy's address\n            IGenericTokenAdapter(_xdcAdapter).withdraw(address(this), _collateralAmount, _data); // Withdraws WXDC amount to proxy address as a token\n            IWXDC(address(IGenericTokenAdapter(_xdcAdapter).collateralToken())).withdraw(_collateralAmount); // Converts WXDC to XDC\n            SafeToken.safeTransferETH(msg.sender, _collateralAmount); // Send XDC to user\n        }\n        IManager(_manager).updatePrice(_collateralPoolId);\n\n        emit LogPaidAmount(_positionAddress, _stablecoinAmount);\n    }\n\n    function wipeAllAndUnlockXDC(\n        address _manager,\n        address _xdcAdapter,\n        address _stablecoinAdapter,\n        uint256 _positionId,\n        uint256 _collateralAmount, // [wad]\n        bytes calldata _data\n    ) external onlyDelegateCall {\n        address _bookKeeper = IManager(_manager).bookKeeper();\n        address _positionAddress = IManager(_manager).positions(_positionId);\n        bytes32 _collateralPoolId = IManager(_manager).collateralPools(_positionId);\n        (, uint256 _debtShare) = IBookKeeper(_bookKeeper).positions(_collateralPoolId, _positionAddress); // [wad]\n\n        uint256 _requiredStablecoinAmount = _getWipeAllStablecoinAmount(_bookKeeper, _positionAddress, _positionAddress, _collateralPoolId);\n        // Deposits Fathom Stablecoin amount into the bookKeeper\n        stablecoinAdapterDeposit(_stablecoinAdapter, _positionAddress, _requiredStablecoinAmount, _data);\n        adjustPosition(_manager, _positionId, -int256(_collateralAmount), -int256(_debtShare), _data); // Paybacks debt to the CDP and unlocks WXDC amount from it\n        if (_collateralAmount > 0) {\n            moveCollateral(_manager, _positionId, address(this), _collateralAmount, _data); // Moves the amount from the CDP positionAddress to proxy's address\n            IGenericTokenAdapter(_xdcAdapter).withdraw(address(this), _collateralAmount, _data);\n            IWXDC(address(IGenericTokenAdapter(_xdcAdapter).collateralToken())).withdraw(_collateralAmount); // Converts WXDC to XDC\n            SafeToken.safeTransferETH(msg.sender, _collateralAmount); // Send XDC to user\n        }\n        IManager(_manager).updatePrice(_collateralPoolId);\n\n        emit LogPaidAmount(_positionAddress, _requiredStablecoinAmount);\n    }\n\n    function redeemLockedCollateral(address _manager, uint256 _positionId, bytes calldata _data) external onlyDelegateCall {\n        IManager(_manager).redeemLockedCollateral(_positionId, address(this), _data);\n    }\n\n    function emergencyWithdraw(address _adapter, address _to) external onlyDelegateCall {\n        IGenericTokenAdapter(_adapter).emergencyWithdraw(_to);\n    }\n\n    /// @param _adapter The address of stablecoin adapter\n    /// @param _positionAddress The address of the Position Handler\n    /// @param _stablecoinAmount The amount in wad to be deposit to Stablecoin adapter [wad]\n    /// @param _data The extra data for stable adapter context\n    function stablecoinAdapterDeposit(\n        address _adapter,\n        address _positionAddress,\n        uint256 _stablecoinAmount, // [wad]\n        bytes calldata _data\n    ) public onlyDelegateCall {\n        require(_positionAddress != address(0), \"CollateralPoolConfig/zero-position-address\");\n        address _stablecoin = address(IStablecoinAdapter(_adapter).stablecoin());\n        // Gets Fathom Stablecoin from the user's wallet\n        _stablecoin.safeTransferFrom(msg.sender, address(this), _stablecoinAmount);\n\n        // Approves adapter to take the Fathom Stablecoin amount\n        _stablecoin.safeApprove(_adapter, _stablecoinAmount);\n        // Deposits Fathom Stablecoin into the bookKeeper\n        IStablecoinAdapter(_adapter).deposit(_positionAddress, _stablecoinAmount, _data);\n    }\n\n    function xdcAdapterDeposit(address _adapter, address _positionAddress, bytes calldata _data) public payable onlyDelegateCall {\n        //##back to Vanilla - Adapter now needs to have collateralToken state variable added\n        address _collateralToken = address(IGenericTokenAdapter(_adapter).collateralToken());\n        // Wraps XDC into WXDC\n        IWXDC(_collateralToken).deposit{ value: msg.value }();\n        // Approves adapter to take the WXDC amount\n        _collateralToken.safeApprove(address(_adapter), msg.value);\n        // Deposits WXDC collateral into the bookKeeper\n        IGenericTokenAdapter(_adapter).deposit(_positionAddress, msg.value, _data);\n    }\n\n    function tokenAdapterDeposit(\n        address _adapter,\n        address _positionAddress,\n        uint256 _amount, // [wad]\n        bool _transferFrom,\n        bytes calldata _data\n    ) public onlyDelegateCall {\n        require(_positionAddress != address(0), \"CollateralPoolConfig/zero-position-address\");\n        address _collateralToken = address(IGenericTokenAdapter(_adapter).collateralToken());\n\n        // Only executes for tokens that have approval/transferFrom implementation\n        if (_transferFrom) {\n            // Gets token from the user's wallet\n            _collateralToken.safeTransferFrom(msg.sender, address(this), _amount);\n        }\n        // Approves adapter to take the token amount\n        _collateralToken.safeApprove(_adapter, _amount);\n        // Deposits token collateral into the bookKeeper\n        IGenericTokenAdapter(_adapter).deposit(_positionAddress, _amount, _data);\n    }\n\n    function transfer(address _collateralToken, address _dst, uint256 _amt) public onlyDelegateCall {\n        address(_collateralToken).safeTransfer(_dst, _amt);\n    }\n\n    function open(address _manager, bytes32 _collateralPoolId, address _usr) public onlyDelegateCall returns (uint256 _positionId) {\n        _positionId = IManager(_manager).open(_collateralPoolId, _usr);\n    }\n\n    function transferOwnership(address _manager, uint256 _positionId, address _usr) public onlyDelegateCall {\n        IManager(_manager).give(_positionId, _usr);\n    }\n\n    function adjustPosition(\n        address _manager,\n        uint256 _positionId,\n        int256 _collateralValue,\n        int256 _debtShare, // [wad]\n        bytes calldata _data\n    ) public onlyDelegateCall {\n        IManager(_manager).adjustPosition(_positionId, _collateralValue, _debtShare, _data);\n    }\n\n    function moveCollateral(\n        address _manager,\n        uint256 _positionId,\n        address _dst,\n        uint256 _collateralAmount,\n        bytes calldata _data\n    ) public onlyDelegateCall {\n        IManager(_manager).moveCollateral(_positionId, _dst, _collateralAmount, _data);\n    }\n\n    function moveStablecoin(\n        address _manager,\n        uint256 _positionId,\n        address _dst,\n        uint256 _stablecoinValue // [rad]\n    ) public onlyDelegateCall {\n        IManager(_manager).moveStablecoin(_positionId, _dst, _stablecoinValue);\n    }\n\n    function lockXDC(address _manager, address _xdcAdapter, uint256 _positionId, bytes calldata _data) public payable onlyDelegateCall {\n        address _positionAddress = IManager(_manager).positions(_positionId);\n        xdcAdapterDeposit(_xdcAdapter, _positionAddress, _data);\n        adjustPosition(_manager, _positionId, int256(msg.value), 0, _data); // Locks XDC amount into the CDP\n    }\n\n    function lockXDCAndDraw(\n        address _manager,\n        address _stabilityFeeCollector,\n        address _xdcAdapter,\n        address _stablecoinAdapter,\n        uint256 _positionId,\n        uint256 _stablecoinAmount, // [wad]\n        bytes calldata _data\n    ) public payable onlyDelegateCall {\n        address _positionAddress = IManager(_manager).positions(_positionId);\n        address _bookKeeper = IManager(_manager).bookKeeper();\n        bytes32 _collateralPoolId = IManager(_manager).collateralPools(_positionId);\n\n        xdcAdapterDeposit(_xdcAdapter, _positionAddress, _data);\n        adjustPosition(\n            _manager,\n            _positionId,\n            int256(msg.value),\n            _getDrawDebtShare(_bookKeeper, _stabilityFeeCollector, _positionAddress, _collateralPoolId, _stablecoinAmount),\n            _data\n        );\n        // Moves the Fathom Stablecoin amount (balance in the bookKeeper in rad) to proxy's address\n        moveStablecoin(_manager, _positionId, address(this), toRad(_stablecoinAmount));\n        // Allows adapter to access to proxy's Fathom Stablecoin balance in the bookKeeper\n        if (IBookKeeper(_bookKeeper).positionWhitelist(address(this), address(_stablecoinAdapter)) == 0) {\n            IBookKeeper(_bookKeeper).whitelist(_stablecoinAdapter);\n        }\n        // Withdraws Fathom Stablecoin to the user's wallet as a token\n        IStablecoinAdapter(_stablecoinAdapter).withdraw(msg.sender, _stablecoinAmount, _data);\n        IManager(_manager).updatePrice(_collateralPoolId);\n\n        emit LogBorrowedAmount(_positionAddress, _stablecoinAmount);\n    }\n\n    function lockTokenAndDraw(\n        IManager _manager,\n        address _stabilityFeeCollector,\n        address _tokenAdapter,\n        address _stablecoinAdapter,\n        uint256 _positionId,\n        uint256 _collateralAmount, // [in token decimal]\n        uint256 _stablecoinAmount, // [wad]\n        bool _transferFrom,\n        bytes calldata _data\n    ) public onlyDelegateCall {\n        bytes32 _collateralPoolId = _manager.collateralPools(_positionId);\n        // Takes token amount from user's wallet and joins into the bookKeeper\n        tokenAdapterDeposit(_tokenAdapter, _manager.positions(_positionId), _collateralAmount, _transferFrom, _data);\n        // Locks token amount into the position and generates debt\n        int256 _collateralAmountInWad = int256(_convertTo18(_tokenAdapter, _collateralAmount));\n        int256 _drawDebtShare = _getDrawDebtShare(\n            _manager.bookKeeper(),\n            _stabilityFeeCollector,\n            _manager.positions(_positionId),\n            _collateralPoolId,\n            _stablecoinAmount\n        ); // [wad]\n        adjustPosition(address(_manager), _positionId, _collateralAmountInWad, _drawDebtShare, _data);\n        // Moves the Fathom Stablecoin amount (balance in the bookKeeper in rad) to proxy's address\n        moveStablecoin(address(_manager), _positionId, address(this), toRad(_stablecoinAmount));\n        // Allows adapter to access to proxy's Fathom Stablecoin balance in the bookKeeper\n        if (IBookKeeper(_manager.bookKeeper()).positionWhitelist(address(this), address(_stablecoinAdapter)) == 0) {\n            IBookKeeper(_manager.bookKeeper()).whitelist(_stablecoinAdapter);\n        }\n        // Withdraws FXD to the user's wallet as a token\n        IStablecoinAdapter(_stablecoinAdapter).withdraw(msg.sender, _stablecoinAmount, _data);\n\n        address _positionAddress = IManager(_manager).positions(_positionId);\n        IManager(_manager).updatePrice(_collateralPoolId);\n        \n        emit LogBorrowedAmount(_positionAddress, _stablecoinAmount);\n    }\n\n    function openLockTokenAndDraw(\n        address _manager,\n        address _stabilityFeeCollector,\n        address _tokenAdapter,\n        address _stablecoinAdapter,\n        bytes32 _collateralPoolId,\n        uint256 _collateralAmount, // [in token decimal]\n        uint256 _stablecoinAmount, // [wad]\n        bool _transferFrom,\n        bytes calldata _data\n    ) public onlyDelegateCall returns (uint256 _positionId) {\n        _positionId = open(_manager, _collateralPoolId, address(this));\n        lockTokenAndDraw(\n            IManager(_manager),\n            _stabilityFeeCollector,\n            _tokenAdapter,\n            _stablecoinAdapter,\n            _positionId,\n            _collateralAmount,\n            _stablecoinAmount,\n            _transferFrom,\n            _data\n        );\n    }\n\n    function wipeAndUnlockToken(\n        address _manager,\n        address _tokenAdapter,\n        address _stablecoinAdapter,\n        uint256 _positionId,\n        uint256 _collateralAmount, // [in token decimal]\n        uint256 _stablecoinAmount, // [wad]\n        bytes calldata _data\n    ) public onlyDelegateCall {\n        address _positionAddress = IManager(_manager).positions(_positionId);\n        bytes32 _collateralPoolId = IManager(_manager).collateralPools(_positionId);\n        // Deposits Fathom Stablecoin amount into the bookKeeper\n        stablecoinAdapterDeposit(_stablecoinAdapter, _positionAddress, _stablecoinAmount, _data);\n        uint256 _collateralAmountInWad = _convertTo18(_tokenAdapter, _collateralAmount);\n        // Paybacks debt to the CDP and unlocks token amount from it\n        int256 _wipeDebtShare = _getWipeDebtShare(\n            IManager(_manager).bookKeeper(),\n            IBookKeeper(IManager(_manager).bookKeeper()).stablecoin(_positionAddress),\n            _positionAddress,\n            _collateralPoolId\n        );\n        adjustPosition(_manager, _positionId, -int256(_collateralAmountInWad), _wipeDebtShare, _data);\n        if (_collateralAmount > 0) {\n            moveCollateral(_manager, _positionId, address(this), _collateralAmountInWad, _data); // Moves the amount from the position to proxy's address\n            IGenericTokenAdapter(_tokenAdapter).withdraw(msg.sender, _collateralAmount, _data); // Withdraws token amount to the user's wallet as a token\n        }\n        IManager(_manager).updatePrice(_collateralPoolId);\n\n        emit LogPaidAmount(_positionAddress, _stablecoinAmount);\n    }\n\n    function wipeAllAndUnlockToken(\n        address _manager,\n        address _tokenAdapter,\n        address _stablecoinAdapter,\n        uint256 _positionId,\n        uint256 _collateralAmount, // [token decimal]\n        bytes calldata _data\n    ) public onlyDelegateCall {\n        address _positionAddress = IManager(_manager).positions(_positionId);\n        bytes32 _collateralPoolId = IManager(_manager).collateralPools(_positionId);\n        (, uint256 _debtShare) = IBookKeeper(IManager(_manager).bookKeeper()).positions(_collateralPoolId, _positionAddress);\n\n        uint256 _requiredStablecoinAmount = _getWipeAllStablecoinAmount(\n            IManager(_manager).bookKeeper(),\n            _positionAddress,\n            _positionAddress,\n            _collateralPoolId\n        );\n        // Deposits Fathom Stablecoin amount into the bookKeeper\n        stablecoinAdapterDeposit(_stablecoinAdapter, _positionAddress, _requiredStablecoinAmount, _data);\n        uint256 _collateralAmountInWad = _convertTo18(_tokenAdapter, _collateralAmount);\n        // Paybacks debt to the position and unlocks token amount from it\n        adjustPosition(_manager, _positionId, -int256(_collateralAmountInWad), -int256(_debtShare), _data);\n        if (_collateralAmount > 0) {\n            moveCollateral(_manager, _positionId, address(this), _collateralAmountInWad, _data); // Moves the amount from the position to proxy's address\n            IGenericTokenAdapter(_tokenAdapter).withdraw(msg.sender, _collateralAmount, _data); // Withdraws token amount to the user's wallet as a token\n        }\n        IManager(_manager).updatePrice(_collateralPoolId);\n\n        emit LogPaidAmount(_positionAddress, _requiredStablecoinAmount);\n    }\n\n    function _getDrawDebtShare(\n        address _bookKeeper,\n        address _stabilityFeeCollector,\n        address _positionAddress,\n        bytes32 _collateralPoolId,\n        uint256 _stablecoinAmount // [wad]\n    ) internal returns (int256 _resultDebtShare) {\n        uint256 _debtAccumulatedRate = IStabilityFeeCollector(_stabilityFeeCollector).collect(_collateralPoolId); // [ray]. Updates stability fee rate\n        uint256 _positionStablecoinValue = IBookKeeper(_bookKeeper).stablecoin(_positionAddress); // [rad]. Gets Fathom Stablecoin balance of the positionAddress in the bookKeeper\n\n        // If there was already enough Fathom Stablecoin in the bookKeeper balance, just exits it without adding more debt\n        if (_positionStablecoinValue < toRad(_stablecoinAmount)) {\n            // Calculates the needed resultDebtShare so together with the existing positionStablecoinValue in the bookKeeper is enough to exit stablecoinAmount of Fathom Stablecoin tokens\n            _resultDebtShare = int256((toRad(_stablecoinAmount) - _positionStablecoinValue) / _debtAccumulatedRate);\n            // This is neeeded due lack of precision. It might need to sum an extra resultDebtShare wei (for the given Fathom Stablecoin stablecoinAmount)\n            _resultDebtShare = (uint256(_resultDebtShare) * _debtAccumulatedRate) < toRad(_stablecoinAmount)\n                ? _resultDebtShare + 1\n                : _resultDebtShare;\n        }\n    }\n\n    function _convertTo18(address _tokenAdapter, uint256 _amt) internal returns (uint256 _wad) {\n        // For those collaterals that have less than 18 decimals precision we need to do the conversion before passing to adjustPosition function\n        // Adapters will automatically handle the difference of precision\n        uint256 decimals = IToken(IGenericTokenAdapter(_tokenAdapter).collateralToken()).decimals();\n        _wad = decimals < 18 ? _amt * (10 ** (18 - decimals)) : _amt / (10 ** (decimals - 18));\n    }\n\n    function _getWipeDebtShare(\n        address _bookKeeper,\n        uint256 _stablecoinValue, // [rad]\n        address _positionAddress,\n        bytes32 _collateralPoolId\n    ) internal view returns (int256 _resultDebtShare) {\n        uint256 _debtAccumulatedRate = ICollateralPoolConfig(IBookKeeper(_bookKeeper).collateralPoolConfig()).getDebtAccumulatedRate(\n            _collateralPoolId\n        ); // [ray]. // Gets actual rate from the bookKeeper\n        (, uint256 _debtShare) = IBookKeeper(_bookKeeper).positions(_collateralPoolId, _positionAddress); // [wad]. // Gets actual debtShare value of the positionAddress\n\n        _resultDebtShare = int256(_stablecoinValue / _debtAccumulatedRate); // [wad]. // Uses the whole stablecoin balance in the bookKeeper to reduce the debt\n        // [wad]. // Checks the calculated resultDebtShare is not higher than positionAddress.art (total debt), otherwise uses its value\n        _resultDebtShare = uint256(_resultDebtShare) <= _debtShare ? -_resultDebtShare : -int256(_debtShare);\n    }\n\n    function _getWipeAllStablecoinAmount(\n        address _bookKeeper,\n        address _usr,\n        address _positionAddress,\n        bytes32 _collateralPoolId\n    ) internal view returns (uint256 _requiredStablecoinAmount) {\n        uint256 _debtAccumulatedRate = ICollateralPoolConfig(IBookKeeper(_bookKeeper).collateralPoolConfig()).getDebtAccumulatedRate(\n            _collateralPoolId\n        ); // [ray]. Gets actual rate from the bookKeeper\n        (, uint256 _debtShare) = IBookKeeper(_bookKeeper).positions(_collateralPoolId, _positionAddress); // [wad]. Gets actual debtShare value of the positionAddress\n        uint256 _stablecoinValue = IBookKeeper(_bookKeeper).stablecoin(_usr); // [rad]. Gets actual stablecoin amount in the usr\n\n        uint256 _positionDebtValue = _debtShare * _debtAccumulatedRate;\n        uint256 _requiredStablecoinValue = _positionDebtValue >= _stablecoinValue ? _positionDebtValue - _stablecoinValue : 0; // [rad]\n        _requiredStablecoinAmount = _requiredStablecoinValue / RAY; // [wad] = [rad]/[ray]\n\n        // If the value precision has some dust, it will need to request for 1 extra amount wei\n        _requiredStablecoinAmount = toRad(_requiredStablecoinAmount) < _requiredStablecoinValue\n            ? _requiredStablecoinAmount + 1\n            : _requiredStablecoinAmount;\n    }\n}\n",
  "sourcePath": "/Users/sangjun.lee/Sangjun/fathom-stablecoin-smart-contracts/contracts/main/proxy-actions/FathomStablecoinProxyActions.sol",
  "compiler": {
    "name": "solc",
    "version": "0.8.17+commit.8df45f5f.Emscripten.clang"
  },
  "schemaVersion": "3.4.10",
  "updatedAt": "2023-07-28T08:37:28.697Z",
  "devdoc": {
    "kind": "dev",
    "methods": {
      "stablecoinAdapterDeposit(address,address,uint256,bytes)": {
        "params": {
          "_adapter": "The address of stablecoin adapter",
          "_data": "The extra data for stable adapter context",
          "_positionAddress": "The address of the Position Handler",
          "_stablecoinAmount": "The amount in wad to be deposit to Stablecoin adapter [wad]"
        }
      }
    },
    "version": 1
  },
  "userdoc": {
    "kind": "user",
    "methods": {},
    "notice": "WARNING: These functions meant to be used as a library for a Proxy.DO NOT CALL ANY FUNCTION IN THIS CONTRACT DIRECTLY.Hence, it shouldn't has any state variables. Some are unsafe if you call them directly.",
    "version": 1
  }
}