{
    "_format": "hh-sol-artifact-1",
    "contractName": "FathomStats",
    "sourceName": "contracts/8.17/stats/FathomStats.sol",
    "abi": [
        {
            "anonymous": false,
            "inputs": [
                {
                    "indexed": false,
                    "internalType": "uint8",
                    "name": "version",
                    "type": "uint8"
                }
            ],
            "name": "Initialized",
            "type": "event"
        },
        {
            "anonymous": false,
            "inputs": [
                {
                    "indexed": false,
                    "internalType": "address",
                    "name": "account",
                    "type": "address"
                }
            ],
            "name": "Paused",
            "type": "event"
        },
        {
            "anonymous": false,
            "inputs": [
                {
                    "indexed": false,
                    "internalType": "address",
                    "name": "account",
                    "type": "address"
                }
            ],
            "name": "Unpaused",
            "type": "event"
        },
        {
            "inputs": [],
            "name": "BookKeeper",
            "outputs": [
                {
                    "internalType": "address",
                    "name": "",
                    "type": "address"
                }
            ],
            "stateMutability": "view",
            "type": "function"
        },
        {
            "inputs": [],
            "name": "CollateralPoolConfig",
            "outputs": [
                {
                    "internalType": "address",
                    "name": "",
                    "type": "address"
                }
            ],
            "stateMutability": "view",
            "type": "function"
        },
        {
            "inputs": [],
            "name": "CollateralPoolId",
            "outputs": [
                {
                    "internalType": "bytes32",
                    "name": "",
                    "type": "bytes32"
                }
            ],
            "stateMutability": "view",
            "type": "function"
        },
        {
            "inputs": [],
            "name": "DEXPriceOracle",
            "outputs": [
                {
                    "internalType": "address",
                    "name": "",
                    "type": "address"
                }
            ],
            "stateMutability": "view",
            "type": "function"
        },
        {
            "inputs": [],
            "name": "FXD",
            "outputs": [
                {
                    "internalType": "address",
                    "name": "",
                    "type": "address"
                }
            ],
            "stateMutability": "view",
            "type": "function"
        },
        {
            "inputs": [],
            "name": "FairLaunch",
            "outputs": [
                {
                    "internalType": "address",
                    "name": "",
                    "type": "address"
                }
            ],
            "stateMutability": "view",
            "type": "function"
        },
        {
            "inputs": [],
            "name": "USDT",
            "outputs": [
                {
                    "internalType": "address",
                    "name": "",
                    "type": "address"
                }
            ],
            "stateMutability": "view",
            "type": "function"
        },
        {
            "inputs": [],
            "name": "WXDC",
            "outputs": [
                {
                    "internalType": "address",
                    "name": "",
                    "type": "address"
                }
            ],
            "stateMutability": "view",
            "type": "function"
        },
        {
            "inputs": [],
            "name": "getFathomInfo",
            "outputs": [
                {
                    "components": [
                        {
                            "internalType": "uint256",
                            "name": "fathomSupplyCap",
                            "type": "uint256"
                        },
                        {
                            "internalType": "uint256",
                            "name": "totalValueLocked",
                            "type": "uint256"
                        },
                        {
                            "internalType": "uint256",
                            "name": "FXDPriceFromDex",
                            "type": "uint256"
                        },
                        {
                            "internalType": "uint256",
                            "name": "liquidationRatio",
                            "type": "uint256"
                        },
                        {
                            "internalType": "uint256",
                            "name": "closeFactor",
                            "type": "uint256"
                        }
                    ],
                    "internalType": "struct FathomStats.FathomInfo",
                    "name": "",
                    "type": "tuple"
                }
            ],
            "stateMutability": "view",
            "type": "function"
        },
        {
            "inputs": [],
            "name": "getWXDCPrice",
            "outputs": [
                {
                    "internalType": "uint256",
                    "name": "",
                    "type": "uint256"
                }
            ],
            "stateMutability": "view",
            "type": "function"
        },
        {
            "inputs": [
                {
                    "internalType": "address",
                    "name": "bookKeeper",
                    "type": "address"
                },
                {
                    "internalType": "address",
                    "name": "fairLaunch",
                    "type": "address"
                },
                {
                    "internalType": "address",
                    "name": "wxdc",
                    "type": "address"
                },
                {
                    "internalType": "address",
                    "name": "usdt",
                    "type": "address"
                },
                {
                    "internalType": "address",
                    "name": "fxd",
                    "type": "address"
                },
                {
                    "internalType": "address",
                    "name": "dEXPriceOracle",
                    "type": "address"
                },
                {
                    "internalType": "bytes32",
                    "name": "collateralPoolId",
                    "type": "bytes32"
                },
                {
                    "internalType": "address",
                    "name": "collateralPoolConfig",
                    "type": "address"
                }
            ],
            "name": "initialize",
            "outputs": [],
            "stateMutability": "nonpayable",
            "type": "function"
        },
        {
            "inputs": [],
            "name": "paused",
            "outputs": [
                {
                    "internalType": "bool",
                    "name": "",
                    "type": "bool"
                }
            ],
            "stateMutability": "view",
            "type": "function"
        }
    ],
    "bytecode": "0x608060405234801561001057600080fd5b50610994806100206000396000f3fe608060405234801561001057600080fd5b50600436106100b45760003560e01c8063a23794e511610071578063a23794e514610144578063abac618f14610157578063c54e44eb1461016a578063cd64e4201461017d578063dd9149e1146101c7578063f39177aa146101da57600080fd5b80631616d75c146100b957806348994a9e146100d45780635c975abb146100ff57806388734cf014610115578063908eb6211461011e5780639dc57e6614610131575b600080fd5b6100c16101ef565b6040519081526020015b60405180910390f35b6066546100e7906001600160a01b031681565b6040516001600160a01b0390911681526020016100cb565b60335460ff1660405190151581526020016100cb565b6100c1606b5481565b6069546100e7906001600160a01b031681565b6065546100e7906001600160a01b031681565b606c546100e7906001600160a01b031681565b606a546100e7906001600160a01b031681565b6068546100e7906001600160a01b031681565b610185610274565b6040516100cb9190600060a082019050825182526020830151602083015260408301516040830152606083015160608301526080830151608083015292915050565b6067546100e7906001600160a01b031681565b6101ed6101e8366004610829565b610685565b005b606a54606854606754604051635620c32d60e11b81526001600160a01b03928316600482015290821660248201526000928392169063ac41865a906044016040805180830381865afa158015610249573d6000803e3d6000fd5b505050506040513d601f19601f8201168201806040525081019061026d91906108b9565b5092915050565b6102a66040518060a0016040528060008152602001600081526020016000815260200160008152602001600081525090565b6102d86040518060a0016040528060008152602001600081526020016000815260200160008152602001600081525090565b60655460408051635b2a512160e01b81529051722cd76fe086b93ce2f768a00b22a00000000000926001600160a01b031691635b2a51219160048083019260209291908290030181865afa158015610334573d6000803e3d6000fd5b505050506040513d601f19601f8201168201806040525081019061035891906108dd565b610362919061090c565b81526067546066546040516370a0823160e01b81526001600160a01b039182166004820152600092670de0b6b3a76400009216906370a0823190602401602060405180830381865afa1580156103bc573d6000803e3d6000fd5b505050506040513d601f19601f820116820180604052508101906103e091906108dd565b6103ea919061090c565b606a54606854606754604051635620c32d60e11b81526001600160a01b039283166004820152908216602482015292935060009291169063ac41865a906044016040805180830381865afa158015610446573d6000803e3d6000fd5b505050506040513d601f19601f8201168201806040525081019061046a91906108b9565b506068546066546040516370a0823160e01b81526001600160a01b0391821660048201529293506000929116906370a0823190602401602060405180830381865afa1580156104bd573d6000803e3d6000fd5b505050506040513d601f19601f820116820180604052508101906104e191906108dd565b9050806104ee838561092e565b6104f8919061094b565b6020850152606a54606854606954604051635620c32d60e11b81526001600160a01b0392831660048201529082166024820152600092919091169063ac41865a906044016040805180830381865afa158015610558573d6000803e3d6000fd5b505050506040513d601f19601f8201168201806040525081019061057c91906108b9565b506040808701829052606c54606b5491516344d0c93760e01b81529293506001600160a01b0316916344d0c937916105ba9160040190815260200190565b602060405180830381865afa1580156105d7573d6000803e3d6000fd5b505050506040513d601f19601f820116820180604052508101906105fb91906108dd565b6060860152606c54606b5460405163e73bbc7960e01b81526001600160a01b039092169163e73bbc79916106359160040190815260200190565b602060405180830381865afa158015610652573d6000803e3d6000fd5b505050506040513d601f19601f8201168201806040525081019061067691906108dd565b60808601525092949350505050565b600054610100900460ff16158080156106a55750600054600160ff909116105b806106bf5750303b1580156106bf575060005460ff166001145b6107265760405162461bcd60e51b815260206004820152602e60248201527f496e697469616c697a61626c653a20636f6e747261637420697320616c72656160448201526d191e481a5b9a5d1a585b1a5e995960921b606482015260840160405180910390fd5b6000805460ff191660011790558015610749576000805461ff0019166101001790555b606580546001600160a01b03199081166001600160a01b038c8116919091179092556066805482168b84161790556067805482168a8416179055606880548216898416179055606980548216888416179055606a80548216878416179055606b859055606c80549091169184169190911790558015610802576000805461ff0019169055604051600181527f7f26b83ff96e1f2b6a682f133852f6798a09c465da95921460cefb38474024989060200160405180910390a15b505050505050505050565b80356001600160a01b038116811461082457600080fd5b919050565b600080600080600080600080610100898b03121561084657600080fd5b61084f8961080d565b975061085d60208a0161080d565b965061086b60408a0161080d565b955061087960608a0161080d565b945061088760808a0161080d565b935061089560a08a0161080d565b925060c089013591506108aa60e08a0161080d565b90509295985092959890939650565b600080604083850312156108cc57600080fd5b505080516020909101519092909150565b6000602082840312156108ef57600080fd5b5051919050565b634e487b7160e01b600052601160045260246000fd5b60008261092957634e487b7160e01b600052601260045260246000fd5b500490565b8082028115828204841417610945576109456108f6565b92915050565b80820180821115610945576109456108f656fea2646970667358221220c2701a4d0ac0c5a5958f801a6a6980b7f8d886b6a694650afc66bffc0bd8570064736f6c63430008110033",
    "linkReferences": {},
    "deployedLinkReferences": {}
}