{
  "_format": "hh-sol-artifact-1",
  "contractName": "FathomStablecoinProxyActions",
  "sourceName": "contracts/6.12/proxy-actions/FathomStablecoinProxyActions.sol",
  "abi": [
    {
      "inputs": [
        {
          "internalType": "address",
          "name": "_manager",
          "type": "address"
        },
        {
          "internalType": "uint256",
          "name": "_positionId",
          "type": "uint256"
        },
        {
          "internalType": "int256",
          "name": "_collateralValue",
          "type": "int256"
        },
        {
          "internalType": "int256",
          "name": "_debtShare",
          "type": "int256"
        },
        {
          "internalType": "address",
          "name": "_adapter",
          "type": "address"
        },
        {
          "internalType": "bytes",
          "name": "_data",
          "type": "bytes"
        }
      ],
      "name": "adjustPosition",
      "outputs": [],
      "stateMutability": "nonpayable",
      "type": "function"
    },
    {
      "inputs": [
        {
          "internalType": "address",
          "name": "_manager",
          "type": "address"
        },
        {
          "internalType": "uint256",
          "name": "_positionId",
          "type": "uint256"
        },
        {
          "internalType": "address",
          "name": "_user",
          "type": "address"
        },
        {
          "internalType": "uint256",
          "name": "_ok",
          "type": "uint256"
        }
      ],
      "name": "allowManagePosition",
      "outputs": [],
      "stateMutability": "nonpayable",
      "type": "function"
    },
    {
      "inputs": [
        {
          "internalType": "address",
          "name": "_manager",
          "type": "address"
        },
        {
          "internalType": "address",
          "name": "_user",
          "type": "address"
        },
        {
          "internalType": "uint256",
          "name": "_ok",
          "type": "uint256"
        }
      ],
      "name": "allowMigratePosition",
      "outputs": [],
      "stateMutability": "nonpayable",
      "type": "function"
    },
    {
      "inputs": [
        {
          "internalType": "address",
          "name": "_bookKeeper",
          "type": "address"
        },
        {
          "internalType": "address",
          "name": "_usr",
          "type": "address"
        }
      ],
      "name": "blacklist",
      "outputs": [],
      "stateMutability": "nonpayable",
      "type": "function"
    },
    {
      "inputs": [
        {
          "internalType": "address",
          "name": "_adapter",
          "type": "address"
        },
        {
          "internalType": "address",
          "name": "_positionAddress",
          "type": "address"
        },
        {
          "internalType": "bytes",
          "name": "_data",
          "type": "bytes"
        }
      ],
      "name": "bnbAdapterDeposit",
      "outputs": [],
      "stateMutability": "payable",
      "type": "function"
    },
    {
      "inputs": [
        {
          "internalType": "address",
          "name": "_vault",
          "type": "address"
        },
        {
          "internalType": "uint256",
          "name": "_amount",
          "type": "uint256"
        },
        {
          "internalType": "bool",
          "name": "_transferTo",
          "type": "bool"
        }
      ],
      "name": "bnbToIbBNB",
      "outputs": [
        {
          "internalType": "uint256",
          "name": "",
          "type": "uint256"
        }
      ],
      "stateMutability": "payable",
      "type": "function"
    },
    {
      "inputs": [
        {
          "internalType": "address",
          "name": "_vault",
          "type": "address"
        },
        {
          "internalType": "address",
          "name": "_manager",
          "type": "address"
        },
        {
          "internalType": "address",
          "name": "_tokenAdapter",
          "type": "address"
        },
        {
          "internalType": "uint256",
          "name": "_positionId",
          "type": "uint256"
        },
        {
          "internalType": "uint256",
          "name": "_amount",
          "type": "uint256"
        },
        {
          "internalType": "bytes",
          "name": "_data",
          "type": "bytes"
        }
      ],
      "name": "convertAndLockToken",
      "outputs": [],
      "stateMutability": "nonpayable",
      "type": "function"
    },
    {
      "inputs": [
        {
          "internalType": "address",
          "name": "_vault",
          "type": "address"
        },
        {
          "internalType": "address",
          "name": "_manager",
          "type": "address"
        },
        {
          "internalType": "address",
          "name": "_tokenAdapter",
          "type": "address"
        },
        {
          "internalType": "uint256",
          "name": "_positionId",
          "type": "uint256"
        },
        {
          "internalType": "bytes",
          "name": "_data",
          "type": "bytes"
        }
      ],
      "name": "convertBNBAndLockToken",
      "outputs": [],
      "stateMutability": "payable",
      "type": "function"
    },
    {
      "inputs": [
        {
          "internalType": "address",
          "name": "_vault",
          "type": "address"
        },
        {
          "internalType": "contract IManager",
          "name": "_manager",
          "type": "address"
        },
        {
          "internalType": "address",
          "name": "_stabilityFeeCollector",
          "type": "address"
        },
        {
          "internalType": "address",
          "name": "_tokenAdapter",
          "type": "address"
        },
        {
          "internalType": "address",
          "name": "_stablecoinAdapter",
          "type": "address"
        },
        {
          "internalType": "uint256",
          "name": "_positionId",
          "type": "uint256"
        },
        {
          "internalType": "uint256",
          "name": "_stablecoinAmount",
          "type": "uint256"
        },
        {
          "internalType": "bytes",
          "name": "_data",
          "type": "bytes"
        }
      ],
      "name": "convertBNBLockTokenAndDraw",
      "outputs": [],
      "stateMutability": "payable",
      "type": "function"
    },
    {
      "inputs": [
        {
          "internalType": "address",
          "name": "_vault",
          "type": "address"
        },
        {
          "internalType": "address",
          "name": "_manager",
          "type": "address"
        },
        {
          "internalType": "address",
          "name": "_stabilityFeeCollector",
          "type": "address"
        },
        {
          "internalType": "address",
          "name": "_tokenAdapter",
          "type": "address"
        },
        {
          "internalType": "address",
          "name": "_stablecoinAdapter",
          "type": "address"
        },
        {
          "internalType": "bytes32",
          "name": "_collateralPoolId",
          "type": "bytes32"
        },
        {
          "internalType": "uint256",
          "name": "_stablecoinAmount",
          "type": "uint256"
        },
        {
          "internalType": "bytes",
          "name": "_data",
          "type": "bytes"
        }
      ],
      "name": "convertBNBOpenLockTokenAndDraw",
      "outputs": [
        {
          "internalType": "uint256",
          "name": "positionId",
          "type": "uint256"
        }
      ],
      "stateMutability": "payable",
      "type": "function"
    },
    {
      "inputs": [
        {
          "internalType": "address",
          "name": "_vault",
          "type": "address"
        },
        {
          "internalType": "contract IManager",
          "name": "_manager",
          "type": "address"
        },
        {
          "internalType": "address",
          "name": "_stabilityFeeCollector",
          "type": "address"
        },
        {
          "internalType": "address",
          "name": "_tokenAdapter",
          "type": "address"
        },
        {
          "internalType": "address",
          "name": "_stablecoinAdapter",
          "type": "address"
        },
        {
          "internalType": "uint256",
          "name": "_positionId",
          "type": "uint256"
        },
        {
          "internalType": "uint256",
          "name": "_amount",
          "type": "uint256"
        },
        {
          "internalType": "uint256",
          "name": "_stablecoinAmount",
          "type": "uint256"
        },
        {
          "internalType": "bytes",
          "name": "_data",
          "type": "bytes"
        }
      ],
      "name": "convertLockTokenAndDraw",
      "outputs": [],
      "stateMutability": "nonpayable",
      "type": "function"
    },
    {
      "inputs": [
        {
          "internalType": "address",
          "name": "_vault",
          "type": "address"
        },
        {
          "internalType": "address",
          "name": "_manager",
          "type": "address"
        },
        {
          "internalType": "address",
          "name": "_stabilityFeeCollector",
          "type": "address"
        },
        {
          "internalType": "address",
          "name": "_tokenAdapter",
          "type": "address"
        },
        {
          "internalType": "address",
          "name": "_stablecoinAdapter",
          "type": "address"
        },
        {
          "internalType": "bytes32",
          "name": "_collateralPoolId",
          "type": "bytes32"
        },
        {
          "internalType": "uint256",
          "name": "_tokenAmount",
          "type": "uint256"
        },
        {
          "internalType": "uint256",
          "name": "_stablecoinAmount",
          "type": "uint256"
        },
        {
          "internalType": "bytes",
          "name": "_data",
          "type": "bytes"
        }
      ],
      "name": "convertOpenLockTokenAndDraw",
      "outputs": [
        {
          "internalType": "uint256",
          "name": "positionId",
          "type": "uint256"
        }
      ],
      "stateMutability": "nonpayable",
      "type": "function"
    },
    {
      "inputs": [
        {
          "internalType": "address",
          "name": "_manager",
          "type": "address"
        },
        {
          "internalType": "address",
          "name": "_stabilityFeeCollector",
          "type": "address"
        },
        {
          "internalType": "address",
          "name": "_tokenAdapter",
          "type": "address"
        },
        {
          "internalType": "address",
          "name": "_stablecoinAdapter",
          "type": "address"
        },
        {
          "internalType": "uint256",
          "name": "_positionId",
          "type": "uint256"
        },
        {
          "internalType": "uint256",
          "name": "_amount",
          "type": "uint256"
        },
        {
          "internalType": "bytes",
          "name": "_data",
          "type": "bytes"
        }
      ],
      "name": "draw",
      "outputs": [],
      "stateMutability": "nonpayable",
      "type": "function"
    },
    {
      "inputs": [
        {
          "internalType": "address",
          "name": "_manager",
          "type": "address"
        },
        {
          "internalType": "uint256",
          "name": "_positionId",
          "type": "uint256"
        },
        {
          "internalType": "address",
          "name": "_destination",
          "type": "address"
        }
      ],
      "name": "exportPosition",
      "outputs": [],
      "stateMutability": "nonpayable",
      "type": "function"
    },
    {
      "inputs": [
        {
          "internalType": "address",
          "name": "_manager",
          "type": "address"
        },
        {
          "internalType": "address",
          "name": "_tokenAdapter",
          "type": "address"
        },
        {
          "internalType": "uint256",
          "name": "_positionId",
          "type": "uint256"
        },
        {
          "internalType": "address",
          "name": "_harvestToken",
          "type": "address"
        }
      ],
      "name": "harvest",
      "outputs": [],
      "stateMutability": "nonpayable",
      "type": "function"
    },
    {
      "inputs": [
        {
          "internalType": "address",
          "name": "_manager",
          "type": "address"
        },
        {
          "internalType": "address[]",
          "name": "_tokenAdapters",
          "type": "address[]"
        },
        {
          "internalType": "uint256[]",
          "name": "_positionIds",
          "type": "uint256[]"
        },
        {
          "internalType": "address",
          "name": "_harvestToken",
          "type": "address"
        }
      ],
      "name": "harvestMultiple",
      "outputs": [],
      "stateMutability": "nonpayable",
      "type": "function"
    },
    {
      "inputs": [
        {
          "internalType": "address",
          "name": "_vault",
          "type": "address"
        },
        {
          "internalType": "uint256",
          "name": "_amount",
          "type": "uint256"
        }
      ],
      "name": "ibBNBToBNB",
      "outputs": [],
      "stateMutability": "payable",
      "type": "function"
    },
    {
      "inputs": [
        {
          "internalType": "address",
          "name": "_vault",
          "type": "address"
        },
        {
          "internalType": "uint256",
          "name": "_amount",
          "type": "uint256"
        }
      ],
      "name": "ibTokenToToken",
      "outputs": [],
      "stateMutability": "nonpayable",
      "type": "function"
    },
    {
      "inputs": [
        {
          "internalType": "address",
          "name": "_manager",
          "type": "address"
        },
        {
          "internalType": "address",
          "name": "_source",
          "type": "address"
        },
        {
          "internalType": "uint256",
          "name": "_positionId",
          "type": "uint256"
        }
      ],
      "name": "importPosition",
      "outputs": [],
      "stateMutability": "nonpayable",
      "type": "function"
    },
    {
      "inputs": [
        {
          "internalType": "address",
          "name": "_manager",
          "type": "address"
        },
        {
          "internalType": "address",
          "name": "_bnbAdapter",
          "type": "address"
        },
        {
          "internalType": "uint256",
          "name": "_positionId",
          "type": "uint256"
        },
        {
          "internalType": "bytes",
          "name": "_data",
          "type": "bytes"
        }
      ],
      "name": "lockBNB",
      "outputs": [],
      "stateMutability": "payable",
      "type": "function"
    },
    {
      "inputs": [
        {
          "internalType": "address",
          "name": "_manager",
          "type": "address"
        },
        {
          "internalType": "address",
          "name": "_stabilityFeeCollector",
          "type": "address"
        },
        {
          "internalType": "address",
          "name": "_bnbAdapter",
          "type": "address"
        },
        {
          "internalType": "address",
          "name": "_stablecoinAdapter",
          "type": "address"
        },
        {
          "internalType": "uint256",
          "name": "_positionId",
          "type": "uint256"
        },
        {
          "internalType": "uint256",
          "name": "_stablecoinAmount",
          "type": "uint256"
        },
        {
          "internalType": "bytes",
          "name": "_data",
          "type": "bytes"
        }
      ],
      "name": "lockBNBAndDraw",
      "outputs": [],
      "stateMutability": "payable",
      "type": "function"
    },
    {
      "inputs": [
        {
          "internalType": "address",
          "name": "_manager",
          "type": "address"
        },
        {
          "internalType": "address",
          "name": "_tokenAdapter",
          "type": "address"
        },
        {
          "internalType": "uint256",
          "name": "_positionId",
          "type": "uint256"
        },
        {
          "internalType": "uint256",
          "name": "_amount",
          "type": "uint256"
        },
        {
          "internalType": "bool",
          "name": "_transferFrom",
          "type": "bool"
        },
        {
          "internalType": "bytes",
          "name": "_data",
          "type": "bytes"
        }
      ],
      "name": "lockToken",
      "outputs": [],
      "stateMutability": "nonpayable",
      "type": "function"
    },
    {
      "inputs": [
        {
          "internalType": "contract IManager",
          "name": "_manager",
          "type": "address"
        },
        {
          "internalType": "address",
          "name": "_stabilityFeeCollector",
          "type": "address"
        },
        {
          "internalType": "address",
          "name": "_tokenAdapter",
          "type": "address"
        },
        {
          "internalType": "address",
          "name": "_stablecoinAdapter",
          "type": "address"
        },
        {
          "internalType": "uint256",
          "name": "_positionId",
          "type": "uint256"
        },
        {
          "internalType": "uint256",
          "name": "_collateralAmount",
          "type": "uint256"
        },
        {
          "internalType": "uint256",
          "name": "_stablecoinAmount",
          "type": "uint256"
        },
        {
          "internalType": "bool",
          "name": "_transferFrom",
          "type": "bool"
        },
        {
          "internalType": "bytes",
          "name": "_data",
          "type": "bytes"
        }
      ],
      "name": "lockTokenAndDraw",
      "outputs": [],
      "stateMutability": "nonpayable",
      "type": "function"
    },
    {
      "inputs": [
        {
          "internalType": "address",
          "name": "_manager",
          "type": "address"
        },
        {
          "internalType": "uint256",
          "name": "_positionId",
          "type": "uint256"
        },
        {
          "internalType": "address",
          "name": "_dst",
          "type": "address"
        },
        {
          "internalType": "uint256",
          "name": "_collateralAmount",
          "type": "uint256"
        },
        {
          "internalType": "address",
          "name": "_adapter",
          "type": "address"
        },
        {
          "internalType": "bytes",
          "name": "_data",
          "type": "bytes"
        }
      ],
      "name": "moveCollateral",
      "outputs": [],
      "stateMutability": "nonpayable",
      "type": "function"
    },
    {
      "inputs": [
        {
          "internalType": "address",
          "name": "_manager",
          "type": "address"
        },
        {
          "internalType": "uint256",
          "name": "_source",
          "type": "uint256"
        },
        {
          "internalType": "uint256",
          "name": "_destination",
          "type": "uint256"
        }
      ],
      "name": "movePosition",
      "outputs": [],
      "stateMutability": "nonpayable",
      "type": "function"
    },
    {
      "inputs": [
        {
          "internalType": "address",
          "name": "_manager",
          "type": "address"
        },
        {
          "internalType": "uint256",
          "name": "_positionId",
          "type": "uint256"
        },
        {
          "internalType": "address",
          "name": "_dst",
          "type": "address"
        },
        {
          "internalType": "uint256",
          "name": "_stablecoinValue",
          "type": "uint256"
        }
      ],
      "name": "moveStablecoin",
      "outputs": [],
      "stateMutability": "nonpayable",
      "type": "function"
    },
    {
      "inputs": [
        {
          "internalType": "address",
          "name": "_manager",
          "type": "address"
        },
        {
          "internalType": "bytes32",
          "name": "_collateralPoolId",
          "type": "bytes32"
        },
        {
          "internalType": "address",
          "name": "_usr",
          "type": "address"
        }
      ],
      "name": "open",
      "outputs": [
        {
          "internalType": "uint256",
          "name": "_positionId",
          "type": "uint256"
        }
      ],
      "stateMutability": "nonpayable",
      "type": "function"
    },
    {
      "inputs": [
        {
          "internalType": "address",
          "name": "_manager",
          "type": "address"
        },
        {
          "internalType": "address",
          "name": "_stabilityFeeCollector",
          "type": "address"
        },
        {
          "internalType": "address",
          "name": "_bnbAdapter",
          "type": "address"
        },
        {
          "internalType": "address",
          "name": "_stablecoinAdapter",
          "type": "address"
        },
        {
          "internalType": "bytes32",
          "name": "_collateralPoolId",
          "type": "bytes32"
        },
        {
          "internalType": "uint256",
          "name": "_stablecoinAmount",
          "type": "uint256"
        },
        {
          "internalType": "bytes",
          "name": "_data",
          "type": "bytes"
        }
      ],
      "name": "openLockBNBAndDraw",
      "outputs": [
        {
          "internalType": "uint256",
          "name": "_positionId",
          "type": "uint256"
        }
      ],
      "stateMutability": "payable",
      "type": "function"
    },
    {
      "inputs": [
        {
          "internalType": "address",
          "name": "_manager",
          "type": "address"
        },
        {
          "internalType": "address",
          "name": "_stabilityFeeCollector",
          "type": "address"
        },
        {
          "internalType": "address",
          "name": "_tokenAdapter",
          "type": "address"
        },
        {
          "internalType": "address",
          "name": "_stablecoinAdapter",
          "type": "address"
        },
        {
          "internalType": "bytes32",
          "name": "_collateralPoolId",
          "type": "bytes32"
        },
        {
          "internalType": "uint256",
          "name": "_collateralAmount",
          "type": "uint256"
        },
        {
          "internalType": "uint256",
          "name": "_stablecoinAmount",
          "type": "uint256"
        },
        {
          "internalType": "bool",
          "name": "_transferFrom",
          "type": "bool"
        },
        {
          "internalType": "bytes",
          "name": "_data",
          "type": "bytes"
        }
      ],
      "name": "openLockTokenAndDraw",
      "outputs": [
        {
          "internalType": "uint256",
          "name": "_positionId",
          "type": "uint256"
        }
      ],
      "stateMutability": "nonpayable",
      "type": "function"
    },
    {
      "inputs": [
        {
          "internalType": "address",
          "name": "_manager",
          "type": "address"
        },
        {
          "internalType": "uint256",
          "name": "_positionId",
          "type": "uint256"
        },
        {
          "internalType": "address",
          "name": "_tokenAdapter",
          "type": "address"
        },
        {
          "internalType": "bytes",
          "name": "_data",
          "type": "bytes"
        }
      ],
      "name": "redeemLockedCollateral",
      "outputs": [],
      "stateMutability": "nonpayable",
      "type": "function"
    },
    {
      "inputs": [
        {
          "internalType": "address",
          "name": "_manager",
          "type": "address"
        },
        {
          "internalType": "address",
          "name": "_bnbAdapter",
          "type": "address"
        },
        {
          "internalType": "uint256",
          "name": "_positionId",
          "type": "uint256"
        },
        {
          "internalType": "address",
          "name": "_owner",
          "type": "address"
        },
        {
          "internalType": "bytes",
          "name": "_data",
          "type": "bytes"
        }
      ],
      "name": "safeLockBNB",
      "outputs": [],
      "stateMutability": "payable",
      "type": "function"
    },
    {
      "inputs": [
        {
          "internalType": "address",
          "name": "_manager",
          "type": "address"
        },
        {
          "internalType": "address",
          "name": "_tokenAdapter",
          "type": "address"
        },
        {
          "internalType": "uint256",
          "name": "_positionId",
          "type": "uint256"
        },
        {
          "internalType": "uint256",
          "name": "_amount",
          "type": "uint256"
        },
        {
          "internalType": "bool",
          "name": "_transferFrom",
          "type": "bool"
        },
        {
          "internalType": "address",
          "name": "_owner",
          "type": "address"
        },
        {
          "internalType": "bytes",
          "name": "_data",
          "type": "bytes"
        }
      ],
      "name": "safeLockToken",
      "outputs": [],
      "stateMutability": "nonpayable",
      "type": "function"
    },
    {
      "inputs": [
        {
          "internalType": "address",
          "name": "_manager",
          "type": "address"
        },
        {
          "internalType": "address",
          "name": "_tokenAdapter",
          "type": "address"
        },
        {
          "internalType": "address",
          "name": "_stablecoinAdapter",
          "type": "address"
        },
        {
          "internalType": "uint256",
          "name": "_positionId",
          "type": "uint256"
        },
        {
          "internalType": "uint256",
          "name": "_amount",
          "type": "uint256"
        },
        {
          "internalType": "address",
          "name": "_owner",
          "type": "address"
        },
        {
          "internalType": "bytes",
          "name": "_data",
          "type": "bytes"
        }
      ],
      "name": "safeWipe",
      "outputs": [],
      "stateMutability": "nonpayable",
      "type": "function"
    },
    {
      "inputs": [
        {
          "internalType": "address",
          "name": "_manager",
          "type": "address"
        },
        {
          "internalType": "address",
          "name": "_tokenAdapter",
          "type": "address"
        },
        {
          "internalType": "address",
          "name": "_stablecoinAdapter",
          "type": "address"
        },
        {
          "internalType": "uint256",
          "name": "_positionId",
          "type": "uint256"
        },
        {
          "internalType": "address",
          "name": "_owner",
          "type": "address"
        },
        {
          "internalType": "bytes",
          "name": "_data",
          "type": "bytes"
        }
      ],
      "name": "safeWipeAll",
      "outputs": [],
      "stateMutability": "nonpayable",
      "type": "function"
    },
    {
      "inputs": [
        {
          "internalType": "address",
          "name": "_adapter",
          "type": "address"
        },
        {
          "internalType": "address",
          "name": "_positionAddress",
          "type": "address"
        },
        {
          "internalType": "uint256",
          "name": "_stablecoinAmount",
          "type": "uint256"
        },
        {
          "internalType": "bytes",
          "name": "_data",
          "type": "bytes"
        }
      ],
      "name": "stablecoinAdapterDeposit",
      "outputs": [],
      "stateMutability": "nonpayable",
      "type": "function"
    },
    {
      "inputs": [
        {
          "internalType": "address",
          "name": "_adapter",
          "type": "address"
        },
        {
          "internalType": "address",
          "name": "_positionAddress",
          "type": "address"
        },
        {
          "internalType": "uint256",
          "name": "_amount",
          "type": "uint256"
        },
        {
          "internalType": "bool",
          "name": "_transferFrom",
          "type": "bool"
        },
        {
          "internalType": "bytes",
          "name": "_data",
          "type": "bytes"
        }
      ],
      "name": "tokenAdapterDeposit",
      "outputs": [],
      "stateMutability": "nonpayable",
      "type": "function"
    },
    {
      "inputs": [
        {
          "internalType": "address",
          "name": "_vault",
          "type": "address"
        },
        {
          "internalType": "uint256",
          "name": "_amount",
          "type": "uint256"
        },
        {
          "internalType": "bool",
          "name": "_transferTo",
          "type": "bool"
        }
      ],
      "name": "tokenToIbToken",
      "outputs": [
        {
          "internalType": "uint256",
          "name": "",
          "type": "uint256"
        }
      ],
      "stateMutability": "nonpayable",
      "type": "function"
    },
    {
      "inputs": [
        {
          "internalType": "address",
          "name": "_collateralToken",
          "type": "address"
        },
        {
          "internalType": "address",
          "name": "_dst",
          "type": "address"
        },
        {
          "internalType": "uint256",
          "name": "_amt",
          "type": "uint256"
        }
      ],
      "name": "transfer",
      "outputs": [],
      "stateMutability": "nonpayable",
      "type": "function"
    },
    {
      "inputs": [
        {
          "internalType": "address",
          "name": "_manager",
          "type": "address"
        },
        {
          "internalType": "uint256",
          "name": "_positionId",
          "type": "uint256"
        },
        {
          "internalType": "address",
          "name": "_usr",
          "type": "address"
        }
      ],
      "name": "transferOwnership",
      "outputs": [],
      "stateMutability": "nonpayable",
      "type": "function"
    },
    {
      "inputs": [
        {
          "internalType": "address",
          "name": "_proxyRegistry",
          "type": "address"
        },
        {
          "internalType": "address",
          "name": "_manager",
          "type": "address"
        },
        {
          "internalType": "uint256",
          "name": "_positionId",
          "type": "uint256"
        },
        {
          "internalType": "address",
          "name": "_dst",
          "type": "address"
        }
      ],
      "name": "transferOwnershipToProxy",
      "outputs": [],
      "stateMutability": "nonpayable",
      "type": "function"
    },
    {
      "inputs": [
        {
          "internalType": "address",
          "name": "_manager",
          "type": "address"
        },
        {
          "internalType": "address",
          "name": "_bnbAdapter",
          "type": "address"
        },
        {
          "internalType": "uint256",
          "name": "_positionId",
          "type": "uint256"
        },
        {
          "internalType": "uint256",
          "name": "_amount",
          "type": "uint256"
        },
        {
          "internalType": "bytes",
          "name": "_data",
          "type": "bytes"
        }
      ],
      "name": "unlockBNB",
      "outputs": [],
      "stateMutability": "nonpayable",
      "type": "function"
    },
    {
      "inputs": [
        {
          "internalType": "address",
          "name": "_manager",
          "type": "address"
        },
        {
          "internalType": "address",
          "name": "_tokenAdapter",
          "type": "address"
        },
        {
          "internalType": "uint256",
          "name": "_positionId",
          "type": "uint256"
        },
        {
          "internalType": "uint256",
          "name": "_amount",
          "type": "uint256"
        },
        {
          "internalType": "bytes",
          "name": "_data",
          "type": "bytes"
        }
      ],
      "name": "unlockToken",
      "outputs": [],
      "stateMutability": "nonpayable",
      "type": "function"
    },
    {
      "inputs": [
        {
          "internalType": "address",
          "name": "_bookKeeper",
          "type": "address"
        },
        {
          "internalType": "address",
          "name": "_usr",
          "type": "address"
        }
      ],
      "name": "whitelist",
      "outputs": [],
      "stateMutability": "nonpayable",
      "type": "function"
    },
    {
      "inputs": [
        {
          "internalType": "address",
          "name": "_manager",
          "type": "address"
        },
        {
          "internalType": "address",
          "name": "_tokenAdapter",
          "type": "address"
        },
        {
          "internalType": "address",
          "name": "_stablecoinAdapter",
          "type": "address"
        },
        {
          "internalType": "uint256",
          "name": "_positionId",
          "type": "uint256"
        },
        {
          "internalType": "uint256",
          "name": "_amount",
          "type": "uint256"
        },
        {
          "internalType": "bytes",
          "name": "_data",
          "type": "bytes"
        }
      ],
      "name": "wipe",
      "outputs": [],
      "stateMutability": "nonpayable",
      "type": "function"
    },
    {
      "inputs": [
        {
          "internalType": "address",
          "name": "_manager",
          "type": "address"
        },
        {
          "internalType": "address",
          "name": "_tokenAdapter",
          "type": "address"
        },
        {
          "internalType": "address",
          "name": "_stablecoinAdapter",
          "type": "address"
        },
        {
          "internalType": "uint256",
          "name": "_positionId",
          "type": "uint256"
        },
        {
          "internalType": "bytes",
          "name": "_data",
          "type": "bytes"
        }
      ],
      "name": "wipeAll",
      "outputs": [],
      "stateMutability": "nonpayable",
      "type": "function"
    },
    {
      "inputs": [
        {
          "internalType": "address",
          "name": "_manager",
          "type": "address"
        },
        {
          "internalType": "address",
          "name": "_bnbAdapter",
          "type": "address"
        },
        {
          "internalType": "address",
          "name": "_stablecoinAdapter",
          "type": "address"
        },
        {
          "internalType": "uint256",
          "name": "_positionId",
          "type": "uint256"
        },
        {
          "internalType": "uint256",
          "name": "_collateralAmount",
          "type": "uint256"
        },
        {
          "internalType": "bytes",
          "name": "_data",
          "type": "bytes"
        }
      ],
      "name": "wipeAllAndUnlockBNB",
      "outputs": [],
      "stateMutability": "nonpayable",
      "type": "function"
    },
    {
      "inputs": [
        {
          "internalType": "address",
          "name": "_manager",
          "type": "address"
        },
        {
          "internalType": "address",
          "name": "_tokenAdapter",
          "type": "address"
        },
        {
          "internalType": "address",
          "name": "_stablecoinAdapter",
          "type": "address"
        },
        {
          "internalType": "uint256",
          "name": "_positionId",
          "type": "uint256"
        },
        {
          "internalType": "uint256",
          "name": "_collateralAmount",
          "type": "uint256"
        },
        {
          "internalType": "bytes",
          "name": "_data",
          "type": "bytes"
        }
      ],
      "name": "wipeAllAndUnlockToken",
      "outputs": [],
      "stateMutability": "nonpayable",
      "type": "function"
    },
    {
      "inputs": [
        {
          "internalType": "address",
          "name": "_vault",
          "type": "address"
        },
        {
          "internalType": "address",
          "name": "_manager",
          "type": "address"
        },
        {
          "internalType": "address",
          "name": "_tokenAdapter",
          "type": "address"
        },
        {
          "internalType": "address",
          "name": "_stablecoinAdapter",
          "type": "address"
        },
        {
          "internalType": "uint256",
          "name": "_positionId",
          "type": "uint256"
        },
        {
          "internalType": "uint256",
          "name": "_collateralAmount",
          "type": "uint256"
        },
        {
          "internalType": "bytes",
          "name": "_data",
          "type": "bytes"
        }
      ],
      "name": "wipeAllUnlockIbBNBAndConvertToBNB",
      "outputs": [],
      "stateMutability": "nonpayable",
      "type": "function"
    },
    {
      "inputs": [
        {
          "internalType": "address",
          "name": "_vault",
          "type": "address"
        },
        {
          "internalType": "address",
          "name": "_manager",
          "type": "address"
        },
        {
          "internalType": "address",
          "name": "_tokenAdapter",
          "type": "address"
        },
        {
          "internalType": "address",
          "name": "_stablecoinAdapter",
          "type": "address"
        },
        {
          "internalType": "uint256",
          "name": "_positionId",
          "type": "uint256"
        },
        {
          "internalType": "uint256",
          "name": "_collateralAmount",
          "type": "uint256"
        },
        {
          "internalType": "bytes",
          "name": "_data",
          "type": "bytes"
        }
      ],
      "name": "wipeAllUnlockTokenAndConvert",
      "outputs": [],
      "stateMutability": "nonpayable",
      "type": "function"
    },
    {
      "inputs": [
        {
          "internalType": "address",
          "name": "_manager",
          "type": "address"
        },
        {
          "internalType": "address",
          "name": "_bnbAdapter",
          "type": "address"
        },
        {
          "internalType": "address",
          "name": "_stablecoinAdapter",
          "type": "address"
        },
        {
          "internalType": "uint256",
          "name": "_positionId",
          "type": "uint256"
        },
        {
          "internalType": "uint256",
          "name": "_collateralAmount",
          "type": "uint256"
        },
        {
          "internalType": "uint256",
          "name": "_stablecoinAmount",
          "type": "uint256"
        },
        {
          "internalType": "bytes",
          "name": "_data",
          "type": "bytes"
        }
      ],
      "name": "wipeAndUnlockBNB",
      "outputs": [],
      "stateMutability": "nonpayable",
      "type": "function"
    },
    {
      "inputs": [
        {
          "internalType": "address",
          "name": "_manager",
          "type": "address"
        },
        {
          "internalType": "address",
          "name": "_tokenAdapter",
          "type": "address"
        },
        {
          "internalType": "address",
          "name": "_stablecoinAdapter",
          "type": "address"
        },
        {
          "internalType": "uint256",
          "name": "_positionId",
          "type": "uint256"
        },
        {
          "internalType": "uint256",
          "name": "_collateralAmount",
          "type": "uint256"
        },
        {
          "internalType": "uint256",
          "name": "_stablecoinAmount",
          "type": "uint256"
        },
        {
          "internalType": "bytes",
          "name": "_data",
          "type": "bytes"
        }
      ],
      "name": "wipeAndUnlockToken",
      "outputs": [],
      "stateMutability": "nonpayable",
      "type": "function"
    },
    {
      "inputs": [
        {
          "internalType": "address",
          "name": "_vault",
          "type": "address"
        },
        {
          "internalType": "address",
          "name": "_manager",
          "type": "address"
        },
        {
          "internalType": "address",
          "name": "_tokenAdapter",
          "type": "address"
        },
        {
          "internalType": "address",
          "name": "_stablecoinAdapter",
          "type": "address"
        },
        {
          "internalType": "uint256",
          "name": "_positionId",
          "type": "uint256"
        },
        {
          "internalType": "uint256",
          "name": "_collateralAmount",
          "type": "uint256"
        },
        {
          "internalType": "uint256",
          "name": "_stablecoinAmount",
          "type": "uint256"
        },
        {
          "internalType": "bytes",
          "name": "_data",
          "type": "bytes"
        }
      ],
      "name": "wipeUnlockIbBNBAndCovertToBNB",
      "outputs": [],
      "stateMutability": "nonpayable",
      "type": "function"
    },
    {
      "inputs": [
        {
          "internalType": "address",
          "name": "_vault",
          "type": "address"
        },
        {
          "internalType": "address",
          "name": "_manager",
          "type": "address"
        },
        {
          "internalType": "address",
          "name": "_tokenAdapter",
          "type": "address"
        },
        {
          "internalType": "address",
          "name": "_stablecoinAdapter",
          "type": "address"
        },
        {
          "internalType": "uint256",
          "name": "_positionId",
          "type": "uint256"
        },
        {
          "internalType": "uint256",
          "name": "_collateralAmount",
          "type": "uint256"
        },
        {
          "internalType": "uint256",
          "name": "_stablecoinAmount",
          "type": "uint256"
        },
        {
          "internalType": "bytes",
          "name": "_data",
          "type": "bytes"
        }
      ],
      "name": "wipeUnlockTokenAndConvert",
      "outputs": [],
      "stateMutability": "nonpayable",
      "type": "function"
    },
    {
      "inputs": [
        {
          "internalType": "address",
          "name": "_manager",
          "type": "address"
        },
        {
          "internalType": "address",
          "name": "_bnbAdapter",
          "type": "address"
        },
        {
          "internalType": "uint256",
          "name": "_positionId",
          "type": "uint256"
        },
        {
          "internalType": "uint256",
          "name": "_amount",
          "type": "uint256"
        },
        {
          "internalType": "bytes",
          "name": "_data",
          "type": "bytes"
        }
      ],
      "name": "withdrawBNB",
      "outputs": [],
      "stateMutability": "nonpayable",
      "type": "function"
    },
    {
      "inputs": [
        {
          "internalType": "address",
          "name": "_manager",
          "type": "address"
        },
        {
          "internalType": "address",
          "name": "_tokenAdapter",
          "type": "address"
        },
        {
          "internalType": "uint256",
          "name": "_positionId",
          "type": "uint256"
        },
        {
          "internalType": "uint256",
          "name": "_amount",
          "type": "uint256"
        },
        {
          "internalType": "bytes",
          "name": "_data",
          "type": "bytes"
        }
      ],
      "name": "withdrawToken",
      "outputs": [],
      "stateMutability": "nonpayable",
      "type": "function"
    }
  ],
  "bytecode": "0x608060405234801561001057600080fd5b50615d7680620000216000396000f3fe6080604052600436106103505760003560e01c80639a4e5020116101c6578063bf33c1b8116100f7578063d8efea2411610095578063e9db68c71161006f578063e9db68c714610965578063eb6f2b9114610978578063fc4454fa14610998578063fcff5557146109ab57610350565b8063d8efea2414610905578063db2072e614610925578063e10432361461094557610350565b8063ce295efd116100d1578063ce295efd14610892578063ce4af695146108b2578063cf588ca0146108d2578063d75bf8f1146108f257610350565b8063bf33c1b81461083f578063c6e898711461085f578063c95d17931461087f57610350565b8063ad33f40011610164578063b7c9836b1161013e578063b7c9836b146107d9578063bd922999146107f9578063bea603fe1461080c578063beabacc81461081f57610350565b8063ad33f40014610779578063b092145e14610799578063b66291fb146107b957610350565b8063a02ce94d116101a0578063a02ce94d146106f9578063a0d7768d14610719578063a341fab114610739578063ad28ff881461075957610350565b80639a4e5020146106995780639cee8e4b146106b95780639cf77f6a146106d957610350565b8063602fe0f6116102a057806371a95c611161023e57806385d6aeb41161021857806385d6aeb4146106195780638889d0f4146106395780639758ffcb1461065957806399ea511e1461067957610350565b806371a95c61146105c657806378ebec91146105e65780637b4488981461060657610350565b806361a2ea071161027a57806361a2ea071461054657806368d7e633146105665780636aa3ee11146105865780637093ceb8146105a657610350565b8063602fe0f6146104e657806360a236d914610506578063614145d91461052657610350565b80632bd14b6b1161030d5780633cbfed50116102e75780633cbfed501461047357806342f059ee1461049357806354a707ef146104b35780635c648c2b146104c657610350565b80632bd14b6b146104205780632d5e9f1d146104335780632d6879411461045357610350565b80630b74a2c01461035557806312c6b9921461037757806314605ba61461039757806316d8bd51146103cd57806318bf7ce1146103ed5780631c55ac9b14610400575b600080fd5b34801561036157600080fd5b50610375610370366004614e6d565b6109cb565b005b34801561038357600080fd5b50610375610392366004615450565b610cbe565b3480156103a357600080fd5b506103b76103b236600461578a565b610d42565b6040516103c491906159da565b60405180910390f35b3480156103d957600080fd5b506103756103e8366004614fa5565b610f84565b6103756103fb3660046155d1565b61131d565b34801561040c57600080fd5b5061037561041b366004615450565b611340565b6103b761042e366004614d35565b6114b0565b34801561043f57600080fd5b5061037561044e366004615229565b6114db565b34801561045f57600080fd5b5061037561046e366004614f10565b6116b6565b34801561047f57600080fd5b5061037561048e366004615450565b61135b565b34801561049f57600080fd5b506103756104ae3660046151e9565b611779565b6103b76104c1366004614bc2565b6117d5565b3480156104d257600080fd5b506103756104e1366004615329565b611808565b3480156104f257600080fd5b50610375610501366004615707565b6118da565b34801561051257600080fd5b506103756105213660046155ef565b611942565b34801561053257600080fd5b50610375610541366004614e88565b61196e565b34801561055257600080fd5b506103b7610561366004614c76565b611993565b34801561057257600080fd5b506103756105813660046157c0565b6119cb565b34801561059257600080fd5b506103b76105a1366004615590565b611a2f565b3480156105b257600080fd5b506103756105c1366004614e6d565b611aba565b3480156105d257600080fd5b506103756105e1366004615450565b611ad3565b3480156105f257600080fd5b506103756106013660046150a5565b611b90565b610375610614366004615329565b611f09565b34801561062557600080fd5b506103756106343660046151e9565b611fae565b34801561064557600080fd5b506103756106543660046152df565b611fdc565b34801561066557600080fd5b50610375610674366004615027565b6120b4565b34801561068557600080fd5b506103b7610694366004614dd3565b61216f565b3480156106a557600080fd5b506103756106b4366004615590565b612190565b3480156106c557600080fd5b506103756106d43660046150a5565b6121be565b3480156106e557600080fd5b506103756106f4366004615399565b6121e0565b34801561070557600080fd5b50610375610714366004615112565b61229b565b34801561072557600080fd5b506103756107343660046150a5565b612578565b34801561074557600080fd5b5061037561075436600461580a565b61294d565b34801561076557600080fd5b50610375610774366004614b8a565b61297b565b34801561078557600080fd5b5061037561079436600461574e565b6129d5565b3480156107a557600080fd5b506103756107b4366004614b8a565b612a0b565b3480156107c557600080fd5b506103756107d4366004615707565b612a37565b3480156107e557600080fd5b506103756107f4366004615590565b612a67565b61037561080736600461527b565b612a95565b6103b761081a36600461578a565b612b4e565b34801561082b57600080fd5b5061037561083a3660046151e9565b612c20565b34801561084b57600080fd5b5061037561085a3660046156b4565b612c39565b34801561086b57600080fd5b5061037561087a366004615689565b612c9b565b61037561088d366004615187565b612e6d565b34801561089e57600080fd5b506103756108ad366004614e6d565b612f80565b3480156108be57600080fd5b506103756108cd366004614dd3565b612f9d565b3480156108de57600080fd5b506103756108ed3660046150a5565b61340b565b610375610900366004615689565b61367f565b34801561091157600080fd5b506103756109203660046153fd565b61370c565b34801561093157600080fd5b50610375610940366004614e88565b6137b7565b34801561095157600080fd5b50610375610960366004615229565b6137d5565b610375610973366004614e6d565b6138dd565b34801561098457600080fd5b506103756109933660046154ab565b613a7a565b6103756109a6366004614fa5565b613be9565b3480156109b757600080fd5b506103756109c6366004615112565b613c09565b60405163133f757160e31b81526000906001600160a01b038a16906399fbab88906109fa9088906004016159da565b60206040518083038186803b158015610a1257600080fd5b505afa158015610a26573d6000803e3d6000fd5b505050506040513d601f19601f82011682018060405250810190610a4a9190614b52565b90506000896001600160a01b031663e3b3932a6040518163ffffffff1660e01b815260040160206040518083038186803b158015610a8757600080fd5b505afa158015610a9b573d6000803e3d6000fd5b505050506040513d601f19601f82011682018060405250810190610abf9190614b52565b905060008a6001600160a01b0316636dbe4ef2886040518263ffffffff1660e01b8152600401610aef91906159da565b60206040518083038186803b158015610b0757600080fd5b505afa158015610b1b573d6000803e3d6000fd5b505050506040513d601f19601f82011682018060405250810190610b3f919061585a565b9050610b5d8b886000610b55868f89888e613f90565b8d8a8a6119cb565b610b6c8b88306105018a61411d565b60405163d9ea915560e01b81526001600160a01b0383169063d9ea915590610b9a9030908c90600401615917565b60206040518083038186803b158015610bb257600080fd5b505afa158015610bc6573d6000803e3d6000fd5b505050506040513d601f19601f82011682018060405250810190610bea919061585a565b610c4d57604051634d8c928d60e11b81526001600160a01b03831690639b19251a90610c1a908b906004016158db565b600060405180830381600087803b158015610c3457600080fd5b505af1158015610c48573d6000803e3d6000fd5b505050505b6040516331f0926560e01b81526001600160a01b038916906331f0926590610c7f9033908a908a908a906004016158ef565b600060405180830381600087803b158015610c9957600080fd5b505af1158015610cad573d6000803e3d6000fd5b505050505050505050505050505050565b610cd6868530610cce898861413a565b8987876129d5565b6040516331f0926560e01b81526001600160a01b038616906331f0926590610d089033908790879087906004016158ef565b600060405180830381600087803b158015610d2257600080fd5b505af1158015610d36573d6000803e3d6000fd5b50505050505050505050565b6000610dcc333085876001600160a01b031663fc0c546a6040518163ffffffff1660e01b815260040160206040518083038186803b158015610d8357600080fd5b505afa158015610d97573d6000803e3d6000fd5b505050506040513d601f19601f82011682018060405250810190610dbb9190614b52565b6001600160a01b03169291906141c5565b610e47846001600160a01b031663fc0c546a6040518163ffffffff1660e01b815260040160206040518083038186803b158015610e0857600080fd5b505afa158015610e1c573d6000803e3d6000fd5b505050506040513d601f19601f82011682018060405250810190610e409190614b52565b85856142ae565b6000610e5c6001600160a01b03861630614395565b60405163b6b55f2560e01b81529091506001600160a01b0386169063b6b55f2590610e8b9087906004016159da565b600060405180830381600087803b158015610ea557600080fd5b505af1158015610eb9573d6000803e3d6000fd5b5060009250610ed49150506001600160a01b03871630614395565b9050610f52866001600160a01b031663fc0c546a6040518163ffffffff1660e01b815260040160206040518083038186803b158015610f1257600080fd5b505afa158015610f26573d6000803e3d6000fd5b505050506040513d601f19601f82011682018060405250810190610f4a9190614b52565b8760006142ae565b6000610f5e8284614414565b90508415610f7a57610f7a6001600160a01b0388163383614437565b9695505050505050565b6000866001600160a01b031663e3b3932a6040518163ffffffff1660e01b815260040160206040518083038186803b158015610fbf57600080fd5b505afa158015610fd3573d6000803e3d6000fd5b505050506040513d601f19601f82011682018060405250810190610ff79190614b52565b90506000876001600160a01b03166399fbab88866040518263ffffffff1660e01b815260040161102791906159da565b60206040518083038186803b15801561103f57600080fd5b505afa158015611053573d6000803e3d6000fd5b505050506040513d601f19601f820116820180604052508101906110779190614b52565b90506000886001600160a01b0316636dbe4ef2876040518263ffffffff1660e01b81526004016110a791906159da565b60206040518083038186803b1580156110bf57600080fd5b505afa1580156110d3573d6000803e3d6000fd5b505050506040513d601f19601f820116820180604052508101906110f7919061585a565b90506000836001600160a01b03166329d8859483856040518363ffffffff1660e01b81526004016111299291906159e3565b604080518083038186803b15801561114057600080fd5b505afa158015611154573d6000803e3d6000fd5b505050506040513d601f19601f820116820180604052508101906111789190615872565b91505060008a6001600160a01b031663025e7c27896040518263ffffffff1660e01b81526004016111a991906159da565b60206040518083038186803b1580156111c157600080fd5b505afa1580156111d5573d6000803e3d6000fd5b505050506040513d601f19601f820116820180604052508101906111f99190614b52565b90506001600160a01b038116301480611291575060405163997cc90f60e01b81526001600160a01b038c169063997cc90f9061123d9084908c9030906004016159b7565b60206040518083038186803b15801561125557600080fd5b505afa158015611269573d6000803e3d6000fd5b505050506040513d601f19601f8201168201806040525081019061128d919061585a565b6001145b156112c6576112ae89856112a78888898961451e565b8a8a611808565b6112c18b896000856000038e8c8c6119cb565b611310565b6112d789306112a78830898961451e565b604051632b5eaca560e11b81526001600160a01b038616906356bd594a90610c7f9086908890309081906000908a8203906004016159fa565b5050505050505050505050565b600061132b8a346000612b4e565b9050610d368989898989868a60008b8b612f9d565b61135b868561134e8661477f565b60000360008987876119cb565b61136a868530868987876129d5565b6040516331f0926560e01b81526001600160a01b038616906331f092659061139c9030908790879087906004016158ef565b600060405180830381600087803b1580156113b657600080fd5b505af11580156113ca573d6000803e3d6000fd5b50505050846001600160a01b031663b2016bd46040518163ffffffff1660e01b8152600401602060405180830381600087803b15801561140957600080fd5b505af115801561141d573d6000803e3d6000fd5b505050506040513d601f19601f820116820180604052508101906114419190614b52565b6001600160a01b0316632e1a7d4d846040518263ffffffff1660e01b815260040161146c91906159da565b600060405180830381600087803b15801561148657600080fd5b505af115801561149a573d6000803e3d6000fd5b505050506114a833846147a6565b505050505050565b60006114bd898630611a2f565b90506114cf89898989858989896138dd565b98975050505050505050565b60405163c455279160e01b81526000906001600160a01b0386169063c45527919061150a9085906004016158db565b60206040518083038186803b15801561152257600080fd5b505afa158015611536573d6000803e3d6000fd5b505050506040513d601f19601f8201168201806040525081019061155a9190614b52565b90506001600160a01b03811615806115f45750816001600160a01b0316816001600160a01b0316638da5cb5b6040518163ffffffff1660e01b815260040160206040518083038186803b1580156115b057600080fd5b505afa1580156115c4573d6000803e3d6000fd5b505050506040513d601f19601f820116820180604052508101906115e89190614b52565b6001600160a01b031614155b156116a457813b80156116225760405162461bcd60e51b815260040161161990615ac8565b60405180910390fd5b6040516379b80ed160e11b81526001600160a01b0387169063f3701da29061164e9086906004016158db565b602060405180830381600087803b15801561166857600080fd5b505af115801561167c573d6000803e3d6000fd5b505050506040513d601f19601f820116820180604052508101906116a09190614b52565b9150505b6116af848483612190565b5050505050565b826001600160a01b0316876001600160a01b031663025e7c27866040518263ffffffff1660e01b81526004016116ec91906159da565b60206040518083038186803b15801561170457600080fd5b505afa158015611718573d6000803e3d6000fd5b505050506040513d601f19601f8201168201806040525081019061173c9190614b52565b6001600160a01b0316146117625760405162461bcd60e51b815260040161161990615bbb565b611770878787878686610f84565b50505050505050565b604051632309463960e01b81526001600160a01b038416906323094639906117a7908590859060040161599e565b600060405180830381600087803b1580156117c157600080fd5b505af1158015611770573d6000803e3d6000fd5b6000806117e48b346000612b4e565b90506117f98a8a8a8a8a868b60008c8c61216f565b9b9a5050505050505050505050565b6000856001600160a01b031663e9cbd8226040518163ffffffff1660e01b8152600401602060405180830381600087803b15801561184557600080fd5b505af1158015611859573d6000803e3d6000fd5b505050506040513d601f19601f8201168201806040525081019061187d9190614b52565b90506118946001600160a01b0382163330876141c5565b6118a86001600160a01b03821687866142ae565b604051630937b85760e31b81526001600160a01b038716906349bdc2b890610d089088908890889088906004016158ef565b6040516318d326fd60e31b81526001600160a01b0385169063c69937e89061190a90869086908690600401615c0e565b600060405180830381600087803b15801561192457600080fd5b505af1158015611938573d6000803e3d6000fd5b5050505050505050565b60006119598b6119528a8861413a565b6000610d42565b90506113108a8a8a8a8a868a60008b8b612f9d565b61197e888888888888888861229b565b611988898561367f565b505050505050505050565b6000806119a48c6119528b8961413a565b90506119b98b8b8b8b8b868b60008c8c61216f565b9150505b9a9950505050505050505050565b6040516319202b7960e01b81526001600160a01b038816906319202b7990611a0190899089908990899089908990600401615c67565b600060405180830381600087803b158015611a1b57600080fd5b505af1158015611310573d6000803e3d6000fd5b604051636090dec560e01b81526000906001600160a01b03851690636090dec590611a6090869086906004016159e3565b602060405180830381600087803b158015611a7a57600080fd5b505af1158015611a8e573d6000803e3d6000fd5b505050506040513d601f19601f82011682018060405250810190611ab2919061585a565b949350505050565b611ac98787878787878761340b565b611938888461367f565b60008115611aea57611ae782840184614b6e565b90505b6000611af6878661413a565b9050611b138887611b068461477f565b60000360008b89896119cb565b611b22888730848b89896129d5565b6040516331f0926560e01b81526001600160a01b038816906331f0926590611b549033908990899089906004016158ef565b600060405180830381600087803b158015611b6e57600080fd5b505af1158015611b82573d6000803e3d6000fd5b505050505050505050505050565b6000876001600160a01b031663e3b3932a6040518163ffffffff1660e01b815260040160206040518083038186803b158015611bcb57600080fd5b505afa158015611bdf573d6000803e3d6000fd5b505050506040513d601f19601f82011682018060405250810190611c039190614b52565b90506000886001600160a01b03166399fbab88876040518263ffffffff1660e01b8152600401611c3391906159da565b60206040518083038186803b158015611c4b57600080fd5b505afa158015611c5f573d6000803e3d6000fd5b505050506040513d601f19601f82011682018060405250810190611c839190614b52565b90506000896001600160a01b0316636dbe4ef2886040518263ffffffff1660e01b8152600401611cb391906159da565b60206040518083038186803b158015611ccb57600080fd5b505afa158015611cdf573d6000803e3d6000fd5b505050506040513d601f19601f82011682018060405250810190611d03919061585a565b90506000836001600160a01b03166329d8859483856040518363ffffffff1660e01b8152600401611d359291906159e3565b604080518083038186803b158015611d4c57600080fd5b505afa158015611d60573d6000803e3d6000fd5b505050506040513d601f19601f82011682018060405250810190611d849190615872565b915050611d9f8984611d988787888861451e565b8989611808565b611dbc8b89611dad8a61477f565b600003846000038e8b8b6119cb565b611dcb8b89308a8e8b8b6129d5565b6040516331f0926560e01b81526001600160a01b038b16906331f0926590611dfd9030908b908b908b906004016158ef565b600060405180830381600087803b158015611e1757600080fd5b505af1158015611e2b573d6000803e3d6000fd5b50505050896001600160a01b031663b2016bd46040518163ffffffff1660e01b8152600401602060405180830381600087803b158015611e6a57600080fd5b505af1158015611e7e573d6000803e3d6000fd5b505050506040513d601f19601f82011682018060405250810190611ea29190614b52565b6001600160a01b0316632e1a7d4d886040518263ffffffff1660e01b8152600401611ecd91906159da565b600060405180830381600087803b158015611ee757600080fd5b505af1158015611efb573d6000803e3d6000fd5b5050505061131033886147a6565b60405163133f757160e31b81526000906001600160a01b038716906399fbab8890611f389087906004016159da565b60206040518083038186803b158015611f5057600080fd5b505afa158015611f64573d6000803e3d6000fd5b505050506040513d601f19601f82011682018060405250810190611f889190614b52565b9050611f9685828585612e6d565b6114a88685611fa43461477f565b60008988886119cb565b6040516373cc200d60e11b81526001600160a01b0384169063e798401a906117a7908590859060040161599e565b6000866001600160a01b031663b2016bd46040518163ffffffff1660e01b8152600401602060405180830381600087803b15801561201957600080fd5b505af115801561202d573d6000803e3d6000fd5b505050506040513d601f19601f820116820180604052508101906120519190614b52565b9050831561206e5761206e6001600160a01b0382163330886141c5565b6120826001600160a01b03821688876142ae565b604051630937b85760e31b81526001600160a01b038816906349bdc2b890611a019089908990889088906004016158ef565b826001600160a01b0316886001600160a01b031663025e7c27876040518263ffffffff1660e01b81526004016120ea91906159da565b60206040518083038186803b15801561210257600080fd5b505afa158015612116573d6000803e3d6000fd5b505050506040513d601f19601f8201168201806040525081019061213a9190614b52565b6001600160a01b0316146121605760405162461bcd60e51b815260040161161990615bbb565b61193888888888888787612578565b600061217c8b8830611a2f565b90506119bd8b8b8b8b858b8b8b8b8b612f9d565b604051631f95f98d60e31b81526001600160a01b0384169063fcafcc68906117a790859085906004016159e3565b60006121ce88611952888761413a565b9050611938878787846000888861370c565b826001600160a01b0316886001600160a01b031663025e7c27886040518263ffffffff1660e01b815260040161221691906159da565b60206040518083038186803b15801561222e57600080fd5b505afa158015612242573d6000803e3d6000fd5b505050506040513d601f19601f820116820180604052508101906122669190614b52565b6001600160a01b03161461228c5760405162461bcd60e51b815260040161161990615bbb565b6119388888888888878761370c565b60405163133f757160e31b81526000906001600160a01b038a16906399fbab88906122ca9089906004016159da565b60206040518083038186803b1580156122e257600080fd5b505afa1580156122f6573d6000803e3d6000fd5b505050506040513d601f19601f8201168201806040525081019061231a9190614b52565b90506123298782868686611808565b6000612335898761413a565b9050600061251b8b6001600160a01b031663e3b3932a6040518163ffffffff1660e01b815260040160206040518083038186803b15801561237557600080fd5b505afa158015612389573d6000803e3d6000fd5b505050506040513d601f19601f820116820180604052508101906123ad9190614b52565b8c6001600160a01b031663e3b3932a6040518163ffffffff1660e01b815260040160206040518083038186803b1580156123e657600080fd5b505afa1580156123fa573d6000803e3d6000fd5b505050506040513d601f19601f8201168201806040525081019061241e9190614b52565b6001600160a01b031663b4ac08bb866040518263ffffffff1660e01b815260040161244991906158db565b60206040518083038186803b15801561246157600080fd5b505afa158015612475573d6000803e3d6000fd5b505050506040513d601f19601f82011682018060405250810190612499919061585a565b858e6001600160a01b0316636dbe4ef28d6040518263ffffffff1660e01b81526004016124c691906159da565b60206040518083038186803b1580156124de57600080fd5b505afa1580156124f2573d6000803e3d6000fd5b505050506040513d601f19601f82011682018060405250810190612516919061585a565b614833565b90506125378b8961252b8561477f565b600003848e8a8a6119cb565b6125468b8930858e8a8a6129d5565b6040516331f0926560e01b81526001600160a01b038b16906331f0926590610c7f9033908b908a908a906004016158ef565b6000876001600160a01b031663e3b3932a6040518163ffffffff1660e01b815260040160206040518083038186803b1580156125b357600080fd5b505afa1580156125c7573d6000803e3d6000fd5b505050506040513d601f19601f820116820180604052508101906125eb9190614b52565b90506000886001600160a01b03166399fbab88876040518263ffffffff1660e01b815260040161261b91906159da565b60206040518083038186803b15801561263357600080fd5b505afa158015612647573d6000803e3d6000fd5b505050506040513d601f19601f8201168201806040525081019061266b9190614b52565b90506000896001600160a01b0316636dbe4ef2886040518263ffffffff1660e01b815260040161269b91906159da565b60206040518083038186803b1580156126b357600080fd5b505afa1580156126c7573d6000803e3d6000fd5b505050506040513d601f19601f820116820180604052508101906126eb919061585a565b905060008a6001600160a01b031663025e7c27896040518263ffffffff1660e01b815260040161271b91906159da565b60206040518083038186803b15801561273357600080fd5b505afa158015612747573d6000803e3d6000fd5b505050506040513d601f19601f8201168201806040525081019061276b9190614b52565b90506001600160a01b038116301480612803575060405163997cc90f60e01b81526001600160a01b038c169063997cc90f906127af9084908c9030906004016159b7565b60206040518083038186803b1580156127c757600080fd5b505afa1580156127db573d6000803e3d6000fd5b505050506040513d601f19601f820116820180604052508101906127ff919061585a565b6001145b156128ab576128158984898989611808565b6112c18b8960006128a388896001600160a01b031663b4ac08bb8a6040518263ffffffff1660e01b815260040161284c91906158db565b60206040518083038186803b15801561286457600080fd5b505afa158015612878573d6000803e3d6000fd5b505050506040513d601f19601f8201168201806040525081019061289c919061585a565b8989614833565b8e8b8b6119cb565b6128b88930898989611808565b60006128d385676765c793fa10079d601b1b8a028686614833565b604051632b5eaca560e11b81529091506001600160a01b038616906356bd594a9061290d90869088903090819060009089906004016159fa565b600060405180830381600087803b15801561292757600080fd5b505af115801561293b573d6000803e3d6000fd5b50505050505050505050505050505050565b60405163a3cf2f4f60e01b81526001600160a01b0384169063a3cf2f4f906117a79085908590600401615c9b565b604051633e7e4af960e21b81526001600160a01b0383169063f9f92be4906129a79084906004016158db565b600060405180830381600087803b1580156129c157600080fd5b505af11580156114a8573d6000803e3d6000fd5b60405163571dbb7960e01b81526001600160a01b0388169063571dbb7990611a0190899089908990899089908990600401615c2d565b604051634d8c928d60e11b81526001600160a01b03831690639b19251a906129a79084906004016158db565b604051638876e58960e01b81526001600160a01b03851690638876e5899061190a90869086908690600401615c0e565b60405163ba9a392560e01b81526001600160a01b0384169063ba9a3925906117a790859085906004016159e3565b826001600160a01b0316866001600160a01b031663025e7c27866040518263ffffffff1660e01b8152600401612acb91906159da565b60206040518083038186803b158015612ae357600080fd5b505afa158015612af7573d6000803e3d6000fd5b505050506040513d601f19601f82011682018060405250810190612b1b9190614b52565b6001600160a01b031614612b415760405162461bcd60e51b815260040161161990615bbb565b6114a88686868585611f09565b6000612b8c846001600160a01b031663fc0c546a6040518163ffffffff1660e01b815260040160206040518083038186803b158015610e0857600080fd5b6000612ba16001600160a01b03861630614395565b9050846001600160a01b031663b6b55f2534346040518363ffffffff1660e01b8152600401612bd091906159da565b6000604051808303818588803b158015612be957600080fd5b505af1158015612bfd573d6000803e3d6000fd5b50505050506000610ed430876001600160a01b031661439590919063ffffffff16565b612c346001600160a01b0384168383614437565b505050565b604051636bd2c56560e01b81526001600160a01b03861690636bd2c56590612c6d9087908790309088908890600401615bdb565b600060405180830381600087803b158015612c8757600080fd5b505af1158015611988573d6000803e3d6000fd5b612cb06001600160a01b0383163330846141c5565b6000612d3630846001600160a01b031663fc0c546a6040518163ffffffff1660e01b815260040160206040518083038186803b158015612cef57600080fd5b505afa158015612d03573d6000803e3d6000fd5b505050506040513d601f19601f82011682018060405250810190612d279190614b52565b6001600160a01b031690614395565b604051632e1a7d4d60e01b81529091506001600160a01b03841690632e1a7d4d90612d659085906004016159da565b600060405180830381600087803b158015612d7f57600080fd5b505af1158015612d93573d6000803e3d6000fd5b505050506000612dd630856001600160a01b031663fc0c546a6040518163ffffffff1660e01b815260040160206040518083038186803b158015612cef57600080fd5b9050612e6733612de68385614414565b866001600160a01b031663fc0c546a6040518163ffffffff1660e01b815260040160206040518083038186803b158015612e1f57600080fd5b505afa158015612e33573d6000803e3d6000fd5b505050506040513d601f19601f82011682018060405250810190612e579190614b52565b6001600160a01b03169190614437565b50505050565b6000846001600160a01b031663b2016bd46040518163ffffffff1660e01b8152600401602060405180830381600087803b158015612eaa57600080fd5b505af1158015612ebe573d6000803e3d6000fd5b505050506040513d601f19601f82011682018060405250810190612ee29190614b52565b9050806001600160a01b031663d0e30db0346040518263ffffffff1660e01b81526004016000604051808303818588803b158015612f1f57600080fd5b505af1158015612f33573d6000803e3d6000fd5b50612f4e935050506001600160a01b038316905086346142ae565b604051630937b85760e31b81526001600160a01b038616906349bdc2b890612c6d9087903490889088906004016158ef565b612f8f8787878787878761340b565b6119388861087a888661413a565b6040516336df277960e11b81526000906001600160a01b038c1690636dbe4ef290612fcc908a906004016159da565b60206040518083038186803b158015612fe457600080fd5b505afa158015612ff8573d6000803e3d6000fd5b505050506040513d601f19601f8201168201806040525081019061301c919061585a565b90506130a7898c6001600160a01b03166399fbab888a6040518263ffffffff1660e01b815260040161304e91906159da565b60206040518083038186803b15801561306657600080fd5b505afa15801561307a573d6000803e3d6000fd5b505050506040513d601f19601f8201168201806040525081019061309e9190614b52565b88878787611fdc565b60006130bb6130b68b8961413a565b61477f565b905060006131b78d6001600160a01b031663e3b3932a6040518163ffffffff1660e01b815260040160206040518083038186803b1580156130fb57600080fd5b505afa15801561310f573d6000803e3d6000fd5b505050506040513d601f19601f820116820180604052508101906131339190614b52565b8d8f6001600160a01b03166399fbab888d6040518263ffffffff1660e01b815260040161316091906159da565b60206040518083038186803b15801561317857600080fd5b505afa15801561318c573d6000803e3d6000fd5b505050506040513d601f19601f820116820180604052508101906131b09190614b52565b868b613f90565b90506131c88d8a84848f8a8a6119cb565b6131d78d8a306105018b61411d565b8c6001600160a01b031663e3b3932a6040518163ffffffff1660e01b815260040160206040518083038186803b15801561321057600080fd5b505afa158015613224573d6000803e3d6000fd5b505050506040513d601f19601f820116820180604052508101906132489190614b52565b6001600160a01b031663d9ea9155308c6040518363ffffffff1660e01b8152600401613275929190615917565b60206040518083038186803b15801561328d57600080fd5b505afa1580156132a1573d6000803e3d6000fd5b505050506040513d601f19601f820116820180604052508101906132c5919061585a565b613398578c6001600160a01b031663e3b3932a6040518163ffffffff1660e01b815260040160206040518083038186803b15801561330257600080fd5b505afa158015613316573d6000803e3d6000fd5b505050506040513d601f19601f8201168201806040525081019061333a9190614b52565b6001600160a01b0316639b19251a8b6040518263ffffffff1660e01b815260040161336591906158db565b600060405180830381600087803b15801561337f57600080fd5b505af1158015613393573d6000803e3d6000fd5b505050505b6040516331f0926560e01b81526001600160a01b038b16906331f09265906133ca9033908b908a908a906004016158ef565b600060405180830381600087803b1580156133e457600080fd5b505af11580156133f8573d6000803e3d6000fd5b5050505050505050505050505050505050565b6000876001600160a01b031663e3b3932a6040518163ffffffff1660e01b815260040160206040518083038186803b15801561344657600080fd5b505afa15801561345a573d6000803e3d6000fd5b505050506040513d601f19601f8201168201806040525081019061347e9190614b52565b90506000886001600160a01b03166399fbab88876040518263ffffffff1660e01b81526004016134ae91906159da565b60206040518083038186803b1580156134c657600080fd5b505afa1580156134da573d6000803e3d6000fd5b505050506040513d601f19601f820116820180604052508101906134fe9190614b52565b90506000896001600160a01b0316636dbe4ef2886040518263ffffffff1660e01b815260040161352e91906159da565b60206040518083038186803b15801561354657600080fd5b505afa15801561355a573d6000803e3d6000fd5b505050506040513d601f19601f8201168201806040525081019061357e919061585a565b90506000836001600160a01b03166329d8859483856040518363ffffffff1660e01b81526004016135b09291906159e3565b604080518083038186803b1580156135c757600080fd5b505afa1580156135db573d6000803e3d6000fd5b505050506040513d601f19601f820116820180604052508101906135ff9190615872565b9150506136138984611d988787888861451e565b600061361f8b8961413a565b905061363e8c8a61362f8461477f565b600003856000038f8c8c6119cb565b61364d8c8a30848f8c8c6129d5565b6040516331f0926560e01b81526001600160a01b038c16906331f092659061290d9033908c908c908c906004016158ef565b6136946001600160a01b0383163330846141c5565b604051632e1a7d4d60e01b815247906001600160a01b03841690632e1a7d4d906136c29085906004016159da565b600060405180830381600087803b1580156136dc57600080fd5b505af11580156136f0573d6000803e3d6000fd5b505050506000479050612e67336137078385614414565b6147a6565b60405163133f757160e31b81526000906001600160a01b038916906399fbab889061373b9089906004016159da565b60206040518083038186803b15801561375357600080fd5b505afa158015613767573d6000803e3d6000fd5b505050506040513d601f19601f8201168201806040525081019061378b9190614b52565b905061379b878287878787611fdc565b61193888876137ad6130b68b8a61413a565b60008b88886119cb565b6137c7888888888888888861229b565b6119888961087a898761413a565b60405163133f757160e31b81526000906001600160a01b038616906399fbab88906138049086906004016159da565b60206040518083038186803b15801561381c57600080fd5b505afa158015613830573d6000803e3d6000fd5b505050506040513d601f19601f820116820180604052508101906138549190614b52565b6040805160008082526020820192839052630937b85760e31b9092529192506001600160a01b038616916349bdc2b8916138949185919060248101615955565b600060405180830381600087803b1580156138ae57600080fd5b505af11580156138c2573d6000803e3d6000fd5b505050506116af823361083a856001600160a01b03166149dd565b60405163133f757160e31b81526000906001600160a01b038a16906399fbab889061390c9088906004016159da565b60206040518083038186803b15801561392457600080fd5b505afa158015613938573d6000803e3d6000fd5b505050506040513d601f19601f8201168201806040525081019061395c9190614b52565b90506000896001600160a01b031663e3b3932a6040518163ffffffff1660e01b815260040160206040518083038186803b15801561399957600080fd5b505afa1580156139ad573d6000803e3d6000fd5b505050506040513d601f19601f820116820180604052508101906139d19190614b52565b905060008a6001600160a01b0316636dbe4ef2886040518263ffffffff1660e01b8152600401613a0191906159da565b60206040518083038186803b158015613a1957600080fd5b505afa158015613a2d573d6000803e3d6000fd5b505050506040513d601f19601f82011682018060405250810190613a51919061585a565b9050613a5f89848787612e6d565b610b5d8b88613a6d3461477f565b610b55868f89888e613f90565b8151835114613a9b5760405162461bcd60e51b815260040161161990615b48565b60005b8251811015613bd1576000856001600160a01b03166399fbab88858481518110613ac457fe5b60200260200101516040518263ffffffff1660e01b8152600401613ae891906159da565b60206040518083038186803b158015613b0057600080fd5b505afa158015613b14573d6000803e3d6000fd5b505050506040513d601f19601f82011682018060405250810190613b389190614b52565b9050848281518110613b4657fe5b60200260200101516001600160a01b03166349bdc2b88260006040516020016040516020818303038152906040526040518463ffffffff1660e01b8152600401613b9293929190615955565b600060405180830381600087803b158015613bac57600080fd5b505af1158015613bc0573d6000803e3d6000fd5b505060019093019250613a9e915050565b50612e67813361083a846001600160a01b03166149dd565b6000613bf787346000612b4e565b9050611770868686846000888861370c565b60405163133f757160e31b81526000906001600160a01b038a16906399fbab8890613c389089906004016159da565b60206040518083038186803b158015613c5057600080fd5b505afa158015613c64573d6000803e3d6000fd5b505050506040513d601f19601f82011682018060405250810190613c889190614b52565b9050613c978782868686611808565b6000613e278a6001600160a01b031663e3b3932a6040518163ffffffff1660e01b815260040160206040518083038186803b158015613cd557600080fd5b505afa158015613ce9573d6000803e3d6000fd5b505050506040513d601f19601f82011682018060405250810190613d0d9190614b52565b8b6001600160a01b031663e3b3932a6040518163ffffffff1660e01b815260040160206040518083038186803b158015613d4657600080fd5b505afa158015613d5a573d6000803e3d6000fd5b505050506040513d601f19601f82011682018060405250810190613d7e9190614b52565b6001600160a01b031663b4ac08bb856040518263ffffffff1660e01b8152600401613da991906158db565b60206040518083038186803b158015613dc157600080fd5b505afa158015613dd5573d6000803e3d6000fd5b505050506040513d601f19601f82011682018060405250810190613df9919061585a565b6040516336df277960e11b815285906001600160a01b038f1690636dbe4ef2906124c6908e906004016159da565b9050613e438a88613e378961477f565b600003848d89896119cb565b613e528a8830898d89896129d5565b6040516331f0926560e01b81526001600160a01b038a16906331f0926590613e849030908a90899089906004016158ef565b600060405180830381600087803b158015613e9e57600080fd5b505af1158015613eb2573d6000803e3d6000fd5b50505050886001600160a01b031663b2016bd46040518163ffffffff1660e01b8152600401602060405180830381600087803b158015613ef157600080fd5b505af1158015613f05573d6000803e3d6000fd5b505050506040513d601f19601f82011682018060405250810190613f299190614b52565b6001600160a01b0316632e1a7d4d876040518263ffffffff1660e01b8152600401613f5491906159da565b600060405180830381600087803b158015613f6e57600080fd5b505af1158015613f82573d6000803e3d6000fd5b50505050610d3633876147a6565b600080856001600160a01b031663497777d5856040518263ffffffff1660e01b8152600401613fbf91906159da565b602060405180830381600087803b158015613fd957600080fd5b505af1158015613fed573d6000803e3d6000fd5b505050506040513d601f19601f82011682018060405250810190614011919061585a565b90506000876001600160a01b031663b4ac08bb876040518263ffffffff1660e01b815260040161404191906158db565b60206040518083038186803b15801561405957600080fd5b505afa15801561406d573d6000803e3d6000fd5b505050506040513d601f19601f82011682018060405250810190614091919061585a565b90506140a884676765c793fa10079d601b1b614a5c565b811015614112576140de826140d16140cb87676765c793fa10079d601b1b614a5c565b84614414565b816140d857fe5b0461477f565b92506140f584676765c793fa10079d601b1b614a5c565b6140ff8484614a5c565b1061410a578261410f565b826001015b92505b505095945050505050565b600061413482676765c793fa10079d601b1b614a5c565b92915050565b60006141be82846001600160a01b031663313ce5676040518163ffffffff1660e01b8152600401602060405180830381600087803b15801561417b57600080fd5b505af115801561418f573d6000803e3d6000fd5b505050506040513d601f19601f820116820180604052508101906141b3919061585a565b601203600a0a614a5c565b9392505050565b60006060856001600160a01b03166323b872dd8686866040516024016141ed93929190615931565b6040516020818303038152906040529060e01b6020820180516001600160e01b03838183161783525050505060405161422691906158bf565b6000604051808303816000865af19150503d8060008114614263576040519150601f19603f3d011682016040523d82523d6000602084013e614268565b606091505b5091509150818015614292575080511580614292575080806020019051810190614292919061583e565b6114a85760405162461bcd60e51b815260040161161990615b1d565b60006060846001600160a01b031663095ea7b385856040516024016142d492919061599e565b6040516020818303038152906040529060e01b6020820180516001600160e01b03838183161783525050505060405161430d91906158bf565b6000604051808303816000865af19150503d806000811461434a576040519150601f19603f3d011682016040523d82523d6000602084013e61434f565b606091505b5091509150818015614379575080511580614379575080806020019051810190614379919061583e565b6116af5760405162461bcd60e51b815260040161161990615a55565b6040516370a0823160e01b81526000906001600160a01b038416906370a08231906143c49085906004016158db565b60206040518083038186803b1580156143dc57600080fd5b505afa1580156143f0573d6000803e3d6000fd5b505050506040513d601f19601f820116820180604052508101906141be919061585a565b808203828111156141345760405162461bcd60e51b815260040161161990615a7b565b60006060846001600160a01b031663a9059cbb858560405160240161445d92919061599e565b6040516020818303038152906040529060e01b6020820180516001600160e01b03838183161783525050505060405161449691906158bf565b6000604051808303816000865af19150503d80600081146144d3576040519150601f19603f3d011682016040523d82523d6000602084013e6144d8565b606091505b5091509150818015614502575080511580614502575080806020019051810190614502919061583e565b6116af5760405162461bcd60e51b815260040161161990615aa1565b600080856001600160a01b031663d86824616040518163ffffffff1660e01b815260040160206040518083038186803b15801561455a57600080fd5b505afa15801561456e573d6000803e3d6000fd5b505050506040513d601f19601f820116820180604052508101906145929190614b52565b6001600160a01b031663a09b0fe0846040518263ffffffff1660e01b81526004016145bd91906159da565b60206040518083038186803b1580156145d557600080fd5b505afa1580156145e9573d6000803e3d6000fd5b505050506040513d601f19601f8201168201806040525081019061460d919061585a565b90506000866001600160a01b03166329d8859485876040518363ffffffff1660e01b815260040161463f9291906159e3565b604080518083038186803b15801561465657600080fd5b505afa15801561466a573d6000803e3d6000fd5b505050506040513d601f19601f8201168201806040525081019061468e9190615872565b9150506000876001600160a01b031663b4ac08bb886040518263ffffffff1660e01b81526004016146bf91906158db565b60206040518083038186803b1580156146d757600080fd5b505afa1580156146eb573d6000803e3d6000fd5b505050506040513d601f19601f8201168201806040525081019061470f919061585a565b9050600061471d8385614a5c565b905060008282101561473057600061473a565b61473a8284614414565b9050676765c793fa10079d601b1b810495508061476287676765c793fa10079d601b1b614a5c565b1061476d57856119bd565b856001019a9950505050505050505050565b8060008112156147a15760405162461bcd60e51b815260040161161990615b95565b919050565b604080516000808252602082019092526001600160a01b0384169083906040516147d091906158bf565b60006040518083038185875af1925050503d806000811461480d576040519150601f19603f3d011682016040523d82523d6000602084013e614812565b606091505b5050905080612c345760405162461bcd60e51b815260040161161990615af3565b600080856001600160a01b031663d86824616040518163ffffffff1660e01b815260040160206040518083038186803b15801561486f57600080fd5b505afa158015614883573d6000803e3d6000fd5b505050506040513d601f19601f820116820180604052508101906148a79190614b52565b6001600160a01b031663a09b0fe0846040518263ffffffff1660e01b81526004016148d291906159da565b60206040518083038186803b1580156148ea57600080fd5b505afa1580156148fe573d6000803e3d6000fd5b505050506040513d601f19601f82011682018060405250810190614922919061585a565b90506000866001600160a01b03166329d8859485876040518363ffffffff1660e01b81526004016149549291906159e3565b604080518083038186803b15801561496b57600080fd5b505afa15801561497f573d6000803e3d6000fd5b505050506040513d601f19601f820116820180604052508101906149a39190615872565b9150506149b28287816140d857fe5b9250808311156149cd576149c58161477f565b6000036149d2565b826000035b979650505050505050565b6040516370a0823160e01b81526000906001600160a01b038316906370a0823190614a0c9030906004016158db565b60206040518083038186803b158015614a2457600080fd5b505afa158015614a38573d6000803e3d6000fd5b505050506040513d601f19601f82011682018060405250810190614134919061585a565b6000811580614a7757505080820282828281614a7457fe5b04145b6141345760405162461bcd60e51b815260040161161990615a2f565b803561413481615d1a565b600082601f830112614aae578081fd5b8135614ac1614abc82615ccf565b615ca9565b818152915060208083019084810181840286018201871015614ae257600080fd5b60005b84811015614b0157813584529282019290820190600101614ae5565b505050505092915050565b60008083601f840112614b1d578182fd5b5081356001600160401b03811115614b33578182fd5b602083019150836020828501011115614b4b57600080fd5b9250929050565b600060208284031215614b63578081fd5b81516141be81615d1a565b600060208284031215614b7f578081fd5b81356141be81615d1a565b60008060408385031215614b9c578081fd5b8235614ba781615d1a565b91506020830135614bb781615d1a565b809150509250929050565b60008060008060008060008060006101008a8c031215614be0578485fd5b8935614beb81615d1a565b985060208a0135614bfb81615d1a565b975060408a0135614c0b81615d1a565b965060608a0135614c1b81615d1a565b955060808a0135614c2b81615d1a565b945060a08a0135935060c08a0135925060e08a01356001600160401b03811115614c53578283fd5b614c5f8c828d01614b0c565b915080935050809150509295985092959850929598565b6000806000806000806000806000806101208b8d031215614c95578081fd5b8a35614ca081615d1a565b995060208b0135614cb081615d1a565b985060408b0135614cc081615d1a565b975060608b0135614cd081615d1a565b965060808b0135614ce081615d1a565b955060a08b0135945060c08b0135935060e08b013592506101008b01356001600160401b03811115614d10578182fd5b614d1c8d828e01614b0c565b915080935050809150509295989b9194979a5092959850565b60008060008060008060008060e0898b031215614d50578384fd5b8835614d5b81615d1a565b97506020890135614d6b81615d1a565b96506040890135614d7b81615d1a565b95506060890135614d8b81615d1a565b94506080890135935060a0890135925060c08901356001600160401b03811115614db3578283fd5b614dbf8b828c01614b0c565b999c989b5096995094979396929594505050565b6000806000806000806000806000806101208b8d031215614df2578384fd5b8a35614dfd81615d1a565b995060208b0135614e0d81615d1a565b985060408b0135614e1d81615d1a565b975060608b0135614e2d81615d1a565b965060808b0135955060a08b0135945060c08b0135935060e08b0135614e5281615d32565b92506101008b01356001600160401b03811115614d10578283fd5b60008060008060008060008060e0898b031215614d50578182fd5b60008060008060008060008060006101008a8c031215614ea6578283fd5b8935614eb181615d1a565b985060208a0135614ec181615d1a565b975060408a0135614ed181615d1a565b965060608a0135614ee181615d1a565b955060808a0135945060a08a0135935060c08a0135925060e08a01356001600160401b03811115614c53578283fd5b600080600080600080600060c0888a031215614f2a578081fd5b8735614f3581615d1a565b96506020880135614f4581615d1a565b95506040880135614f5581615d1a565b9450606088013593506080880135614f6c81615d1a565b925060a08801356001600160401b03811115614f86578182fd5b614f928a828b01614b0c565b989b979a50959850939692959293505050565b60008060008060008060a08789031215614fbd578384fd5b8635614fc881615d1a565b95506020870135614fd881615d1a565b94506040870135614fe881615d1a565b93506060870135925060808701356001600160401b03811115615009578283fd5b61501589828a01614b0c565b979a9699509497509295939492505050565b60008060008060008060008060e0898b031215615042578182fd5b883561504d81615d1a565b9750602089013561505d81615d1a565b9650604089013561506d81615d1a565b9550606089013594506080890135935060a089013561508b81615d1a565b925060c08901356001600160401b03811115614db3578283fd5b600080600080600080600060c0888a0312156150bf578081fd5b87356150ca81615d1a565b965060208801356150da81615d1a565b955060408801356150ea81615d1a565b9450606088013593506080880135925060a08801356001600160401b03811115614f86578182fd5b60008060008060008060008060e0898b03121561512d578182fd5b883561513881615d1a565b9750602089013561514881615d1a565b9650604089013561515881615d1a565b9550606089013594506080890135935060a0890135925060c08901356001600160401b03811115614db3578283fd5b6000806000806060858703121561519c578182fd5b84356151a781615d1a565b935060208501356151b781615d1a565b925060408501356001600160401b038111156151d1578283fd5b6151dd87828801614b0c565b95989497509550505050565b6000806000606084860312156151fd578081fd5b833561520881615d1a565b9250602084013561521881615d1a565b929592945050506040919091013590565b6000806000806080858703121561523e578182fd5b843561524981615d1a565b9350602085013561525981615d1a565b925060408501359150606085013561527081615d1a565b939692955090935050565b60008060008060008060a08789031215615293578384fd5b863561529e81615d1a565b955060208701356152ae81615d1a565b94506040870135935060608701356152c581615d1a565b925060808701356001600160401b03811115615009578283fd5b60008060008060008060a087890312156152f7578384fd5b863561530281615d1a565b9550602087013561531281615d1a565b94506040870135935060608701356152c581615d32565b600080600080600060808688031215615340578283fd5b853561534b81615d1a565b9450602086013561535b81615d1a565b93506040860135925060608601356001600160401b0381111561537c578182fd5b61538888828901614b0c565b969995985093965092949392505050565b60008060008060008060008060e0898b0312156153b4578182fd5b88356153bf81615d1a565b975060208901356153cf81615d1a565b9650604089013595506060890135945060808901356153ed81615d32565b935060a089013561508b81615d1a565b600080600080600080600060c0888a031215615417578081fd5b873561542281615d1a565b9650602088013561543281615d1a565b955060408801359450606088013593506080880135614f6c81615d32565b60008060008060008060a08789031215615468578384fd5b863561547381615d1a565b9550602087013561548381615d1a565b9450604087013593506060870135925060808701356001600160401b03811115615009578283fd5b600080600080608085870312156154c0578182fd5b84356154cb81615d1a565b93506020858101356001600160401b03808211156154e7578485fd5b818801915088601f8301126154fa578485fd5b8135615508614abc82615ccf565b81815284810190848601868402860187018d1015615524578889fd5b8895505b8386101561554f57803561553b81615d1a565b835260019590950194918601918601615528565b50975050506040880135925080831115615567578485fd5b505061557587828801614a9e565b9250506155858660608701614a93565b905092959194509250565b6000806000606084860312156155a4578081fd5b83356155af81615d1a565b92506020840135915060408401356155c681615d1a565b809150509250925092565b60008060008060008060008060006101008a8c031215614be0578283fd5b6000806000806000806000806000806101208b8d03121561560e578384fd5b8a3561561981615d1a565b995060208b013561562981615d1a565b985060408b013561563981615d1a565b975060608b013561564981615d1a565b965060808b013561565981615d1a565b955060a08b0135945060c08b0135935060e08b013592506101008b01356001600160401b03811115614d10578283fd5b6000806040838503121561569b578182fd5b82356156a681615d1a565b946020939093013593505050565b6000806000806000608086880312156156cb578283fd5b85356156d681615d1a565b94506020860135935060408601356156ed81615d1a565b925060608601356001600160401b0381111561537c578182fd5b6000806000806080858703121561571c578182fd5b843561572781615d1a565b935060208501359250604085013561573e81615d1a565b9396929550929360600135925050565b600080600080600080600060c0888a031215615768578081fd5b873561577381615d1a565b9650602088013595506040880135614f5581615d1a565b60008060006060848603121561579e578081fd5b83356157a981615d1a565b92506020840135915060408401356155c681615d32565b600080600080600080600060c0888a0312156157da578081fd5b87356157e581615d1a565b96506020880135955060408801359450606088013593506080880135614f6c81615d1a565b60008060006060848603121561581e578081fd5b833561582981615d1a565b95602085013595506040909401359392505050565b60006020828403121561584f578081fd5b81516141be81615d32565b60006020828403121561586b578081fd5b5051919050565b60008060408385031215615884578182fd5b505080516020909101519092909150565b60008284528282602086013780602084860101526020601f19601f85011685010190509392505050565b600082516158d1818460208701615cee565b9190910192915050565b6001600160a01b0391909116815260200190565b600060018060a01b038616825284602083015260606040830152610f7a606083018486615895565b6001600160a01b0392831681529116602082015260400190565b6001600160a01b039384168152919092166020820152604081019190915260600190565b600060018060a01b0385168252836020830152606060408301528251806060840152615988816080850160208701615cee565b601f01601f191691909101608001949350505050565b6001600160a01b03929092168252602082015260400190565b6001600160a01b0393841681526020810192909252909116604082015260600190565b90815260200190565b9182526001600160a01b0316602082015260400190565b9586526001600160a01b039485166020870152928416604086015292166060840152608083019190915260a082015260c00190565b6020808252600c908201526b6d756c2d6f766572666c6f7760a01b604082015260600190565b6020808252600c908201526b2173616665417070726f766560a01b604082015260600190565b6020808252600c908201526b7375622d6f766572666c6f7760a01b604082015260600190565b6020808252600d908201526c10b9b0b332aa3930b739b332b960991b604082015260600190565b602080825260119082015270111cdd0b5a5ccb584b58dbdb9d1c9858dd607a1b604082015260600190565b60208082526010908201526f042e6c2cccaa8e4c2dce6cccae48aa8960831b604082015260600190565b60208082526011908201527021736166655472616e7366657246726f6d60781b604082015260600190565b6020808252602d908201527f746f6b656e416461707465727320616e6420706f736974696f6e496473206c6560408201526c0dccee8d040dad2e6dac2e8c6d609b1b606082015260800190565b6020808252600c908201526b696e742d6f766572666c6f7760a01b604082015260600190565b60208082526006908201526510b7bbb732b960d11b604082015260600190565b8581526001600160a01b038581166020830152841660408201526080606082018190526000906149d29083018486615895565b9283526001600160a01b03919091166020830152604082015260600190565b8681526001600160a01b038681166020830152604082018690528416606082015260a0608082018190526000906114cf9083018486615895565b600087825286602083015285604083015260018060a01b038516606083015260a060808301526114cf60a083018486615895565b918252602082015260400190565b6040518181016001600160401b0381118282101715615cc757600080fd5b604052919050565b60006001600160401b03821115615ce4578081fd5b5060209081020190565b60005b83811015615d09578181015183820152602001615cf1565b83811115612e675750506000910152565b6001600160a01b0381168114615d2f57600080fd5b50565b8015158114615d2f57600080fdfea2646970667358221220a30b7137f6d12c69d46aff3ba4ffc3967fe7ed4c876c2464dc8f2c3acb3cdfe964736f6c634300060c0033",
  "linkReferences": {},
  "deployedLinkReferences": {}
}