{
    "contractName": "FathomStablecoinProxyActions",
    "abi": [
        {
            "anonymous": false,
            "inputs": [
                {
                    "indexed": false,
                    "internalType": "address",
                    "name": "_positionAddress",
                    "type": "address"
                },
                {
                    "indexed": false,
                    "internalType": "uint256",
                    "name": "_FXDBorrowAmount",
                    "type": "uint256"
                }
            ],
            "name": "LogBorrowedAmount",
            "type": "event"
        },
        {
            "anonymous": false,
            "inputs": [
                {
                    "indexed": false,
                    "internalType": "address",
                    "name": "_positionAddress",
                    "type": "address"
                },
                {
                    "indexed": false,
                    "internalType": "uint256",
                    "name": "_FXDPaidAmount",
                    "type": "uint256"
                }
            ],
            "name": "LogPaidAmount",
            "type": "event"
        },
        {
            "inputs": [
                {
                    "internalType": "address",
                    "name": "_bookKeeper",
                    "type": "address"
                },
                {
                    "internalType": "address",
                    "name": "_usr",
                    "type": "address"
                }
            ],
            "name": "whitelist",
            "outputs": [],
            "stateMutability": "nonpayable",
            "type": "function"
        },
        {
            "inputs": [
                {
                    "internalType": "address",
                    "name": "_bookKeeper",
                    "type": "address"
                },
                {
                    "internalType": "address",
                    "name": "_usr",
                    "type": "address"
                }
            ],
            "name": "blacklist",
            "outputs": [],
            "stateMutability": "nonpayable",
            "type": "function"
        },
        {
            "inputs": [
                {
                    "internalType": "address",
                    "name": "_manager",
                    "type": "address"
                },
                {
                    "internalType": "uint256",
                    "name": "_positionId",
                    "type": "uint256"
                },
                {
                    "internalType": "address",
                    "name": "_user",
                    "type": "address"
                },
                {
                    "internalType": "uint256",
                    "name": "_ok",
                    "type": "uint256"
                }
            ],
            "name": "allowManagePosition",
            "outputs": [],
            "stateMutability": "nonpayable",
            "type": "function"
        },
        {
            "inputs": [
                {
                    "internalType": "address",
                    "name": "_manager",
                    "type": "address"
                },
                {
                    "internalType": "address",
                    "name": "_user",
                    "type": "address"
                },
                {
                    "internalType": "uint256",
                    "name": "_ok",
                    "type": "uint256"
                }
            ],
            "name": "allowMigratePosition",
            "outputs": [],
            "stateMutability": "nonpayable",
            "type": "function"
        },
        {
            "inputs": [
                {
                    "internalType": "address",
                    "name": "_manager",
                    "type": "address"
                },
                {
                    "internalType": "uint256",
                    "name": "_positionId",
                    "type": "uint256"
                },
                {
                    "internalType": "address",
                    "name": "_destination",
                    "type": "address"
                }
            ],
            "name": "exportPosition",
            "outputs": [],
            "stateMutability": "nonpayable",
            "type": "function"
        },
        {
            "inputs": [
                {
                    "internalType": "address",
                    "name": "_manager",
                    "type": "address"
                },
                {
                    "internalType": "address",
                    "name": "_source",
                    "type": "address"
                },
                {
                    "internalType": "uint256",
                    "name": "_positionId",
                    "type": "uint256"
                }
            ],
            "name": "importPosition",
            "outputs": [],
            "stateMutability": "nonpayable",
            "type": "function"
        },
        {
            "inputs": [
                {
                    "internalType": "address",
                    "name": "_manager",
                    "type": "address"
                },
                {
                    "internalType": "uint256",
                    "name": "_source",
                    "type": "uint256"
                },
                {
                    "internalType": "uint256",
                    "name": "_destination",
                    "type": "uint256"
                }
            ],
            "name": "movePosition",
            "outputs": [],
            "stateMutability": "nonpayable",
            "type": "function"
        },
        {
            "inputs": [
                {
                    "internalType": "address",
                    "name": "_manager",
                    "type": "address"
                },
                {
                    "internalType": "address",
                    "name": "_xdcAdapter",
                    "type": "address"
                },
                {
                    "internalType": "uint256",
                    "name": "_positionId",
                    "type": "uint256"
                },
                {
                    "internalType": "address",
                    "name": "_owner",
                    "type": "address"
                },
                {
                    "internalType": "bytes",
                    "name": "_data",
                    "type": "bytes"
                }
            ],
            "name": "safeLockXDC",
            "outputs": [],
            "stateMutability": "payable",
            "type": "function"
        },
        {
            "inputs": [
                {
                    "internalType": "address",
                    "name": "_manager",
                    "type": "address"
                },
                {
                    "internalType": "address",
                    "name": "_stabilityFeeCollector",
                    "type": "address"
                },
                {
                    "internalType": "address",
                    "name": "_stablecoinAdapter",
                    "type": "address"
                },
                {
                    "internalType": "uint256",
                    "name": "_positionId",
                    "type": "uint256"
                },
                {
                    "internalType": "uint256",
                    "name": "_amount",
                    "type": "uint256"
                },
                {
                    "internalType": "bytes",
                    "name": "_data",
                    "type": "bytes"
                }
            ],
            "name": "draw",
            "outputs": [],
            "stateMutability": "nonpayable",
            "type": "function"
        },
        {
            "inputs": [
                {
                    "internalType": "address",
                    "name": "_manager",
                    "type": "address"
                },
                {
                    "internalType": "address",
                    "name": "_stabilityFeeCollector",
                    "type": "address"
                },
                {
                    "internalType": "address",
                    "name": "_xdcAdapter",
                    "type": "address"
                },
                {
                    "internalType": "address",
                    "name": "_stablecoinAdapter",
                    "type": "address"
                },
                {
                    "internalType": "bytes32",
                    "name": "_collateralPoolId",
                    "type": "bytes32"
                },
                {
                    "internalType": "uint256",
                    "name": "_stablecoinAmount",
                    "type": "uint256"
                },
                {
                    "internalType": "bytes",
                    "name": "_data",
                    "type": "bytes"
                }
            ],
            "name": "openLockXDCAndDraw",
            "outputs": [
                {
                    "internalType": "uint256",
                    "name": "_positionId",
                    "type": "uint256"
                }
            ],
            "stateMutability": "payable",
            "type": "function"
        },
        {
            "inputs": [
                {
                    "internalType": "address",
                    "name": "_manager",
                    "type": "address"
                },
                {
                    "internalType": "address",
                    "name": "_xdcAdapter",
                    "type": "address"
                },
                {
                    "internalType": "address",
                    "name": "_stablecoinAdapter",
                    "type": "address"
                },
                {
                    "internalType": "uint256",
                    "name": "_positionId",
                    "type": "uint256"
                },
                {
                    "internalType": "uint256",
                    "name": "_collateralAmount",
                    "type": "uint256"
                },
                {
                    "internalType": "uint256",
                    "name": "_stablecoinAmount",
                    "type": "uint256"
                },
                {
                    "internalType": "address",
                    "name": "_stabilityFeeCollector",
                    "type": "address"
                },
                {
                    "internalType": "bytes",
                    "name": "_data",
                    "type": "bytes"
                }
            ],
            "name": "wipeAndUnlockXDC",
            "outputs": [],
            "stateMutability": "nonpayable",
            "type": "function"
        },
        {
            "inputs": [
                {
                    "internalType": "address",
                    "name": "_manager",
                    "type": "address"
                },
                {
                    "internalType": "address",
                    "name": "_xdcAdapter",
                    "type": "address"
                },
                {
                    "internalType": "address",
                    "name": "_stablecoinAdapter",
                    "type": "address"
                },
                {
                    "internalType": "uint256",
                    "name": "_positionId",
                    "type": "uint256"
                },
                {
                    "internalType": "uint256",
                    "name": "_collateralAmount",
                    "type": "uint256"
                },
                {
                    "internalType": "address",
                    "name": "_stabilityFeeCollector",
                    "type": "address"
                },
                {
                    "internalType": "bytes",
                    "name": "_data",
                    "type": "bytes"
                }
            ],
            "name": "wipeAllAndUnlockXDC",
            "outputs": [],
            "stateMutability": "nonpayable",
            "type": "function"
        },
        {
            "inputs": [
                {
                    "internalType": "address",
                    "name": "_manager",
                    "type": "address"
                },
                {
                    "internalType": "uint256",
                    "name": "_positionId",
                    "type": "uint256"
                },
                {
                    "internalType": "bytes",
                    "name": "_data",
                    "type": "bytes"
                }
            ],
            "name": "redeemLockedCollateral",
            "outputs": [],
            "stateMutability": "nonpayable",
            "type": "function"
        },
        {
            "inputs": [
                {
                    "internalType": "address",
                    "name": "_adapter",
                    "type": "address"
                },
                {
                    "internalType": "address",
                    "name": "_to",
                    "type": "address"
                }
            ],
            "name": "emergencyWithdraw",
            "outputs": [],
            "stateMutability": "nonpayable",
            "type": "function"
        },
        {
            "inputs": [
                {
                    "internalType": "address",
                    "name": "_adapter",
                    "type": "address"
                },
                {
                    "internalType": "address",
                    "name": "_positionAddress",
                    "type": "address"
                },
                {
                    "internalType": "uint256",
                    "name": "_stablecoinAmount",
                    "type": "uint256"
                },
                {
                    "internalType": "bytes",
                    "name": "_data",
                    "type": "bytes"
                }
            ],
            "name": "stablecoinAdapterDeposit",
            "outputs": [],
            "stateMutability": "nonpayable",
            "type": "function"
        },
        {
            "inputs": [
                {
                    "internalType": "address",
                    "name": "_adapter",
                    "type": "address"
                },
                {
                    "internalType": "address",
                    "name": "_positionAddress",
                    "type": "address"
                },
                {
                    "internalType": "bytes",
                    "name": "_data",
                    "type": "bytes"
                }
            ],
            "name": "xdcAdapterDeposit",
            "outputs": [],
            "stateMutability": "payable",
            "type": "function"
        },
        {
            "inputs": [
                {
                    "internalType": "address",
                    "name": "_adapter",
                    "type": "address"
                },
                {
                    "internalType": "address",
                    "name": "_positionAddress",
                    "type": "address"
                },
                {
                    "internalType": "uint256",
                    "name": "_amount",
                    "type": "uint256"
                },
                {
                    "internalType": "bool",
                    "name": "_transferFrom",
                    "type": "bool"
                },
                {
                    "internalType": "bytes",
                    "name": "_data",
                    "type": "bytes"
                }
            ],
            "name": "tokenAdapterDeposit",
            "outputs": [],
            "stateMutability": "nonpayable",
            "type": "function"
        },
        {
            "inputs": [
                {
                    "internalType": "address",
                    "name": "_collateralToken",
                    "type": "address"
                },
                {
                    "internalType": "address",
                    "name": "_dst",
                    "type": "address"
                },
                {
                    "internalType": "uint256",
                    "name": "_amt",
                    "type": "uint256"
                }
            ],
            "name": "transfer",
            "outputs": [],
            "stateMutability": "nonpayable",
            "type": "function"
        },
        {
            "inputs": [
                {
                    "internalType": "address",
                    "name": "_manager",
                    "type": "address"
                },
                {
                    "internalType": "bytes32",
                    "name": "_collateralPoolId",
                    "type": "bytes32"
                },
                {
                    "internalType": "address",
                    "name": "_usr",
                    "type": "address"
                }
            ],
            "name": "open",
            "outputs": [
                {
                    "internalType": "uint256",
                    "name": "_positionId",
                    "type": "uint256"
                }
            ],
            "stateMutability": "nonpayable",
            "type": "function"
        },
        {
            "inputs": [
                {
                    "internalType": "address",
                    "name": "_manager",
                    "type": "address"
                },
                {
                    "internalType": "uint256",
                    "name": "_positionId",
                    "type": "uint256"
                },
                {
                    "internalType": "address",
                    "name": "_usr",
                    "type": "address"
                }
            ],
            "name": "transferOwnership",
            "outputs": [],
            "stateMutability": "nonpayable",
            "type": "function"
        },
        {
            "inputs": [
                {
                    "internalType": "address",
                    "name": "_manager",
                    "type": "address"
                },
                {
                    "internalType": "uint256",
                    "name": "_positionId",
                    "type": "uint256"
                },
                {
                    "internalType": "int256",
                    "name": "_collateralValue",
                    "type": "int256"
                },
                {
                    "internalType": "int256",
                    "name": "_debtShare",
                    "type": "int256"
                },
                {
                    "internalType": "bytes",
                    "name": "_data",
                    "type": "bytes"
                }
            ],
            "name": "adjustPosition",
            "outputs": [],
            "stateMutability": "nonpayable",
            "type": "function"
        },
        {
            "inputs": [
                {
                    "internalType": "address",
                    "name": "_manager",
                    "type": "address"
                },
                {
                    "internalType": "uint256",
                    "name": "_positionId",
                    "type": "uint256"
                },
                {
                    "internalType": "address",
                    "name": "_dst",
                    "type": "address"
                },
                {
                    "internalType": "uint256",
                    "name": "_collateralAmount",
                    "type": "uint256"
                },
                {
                    "internalType": "bytes",
                    "name": "_data",
                    "type": "bytes"
                }
            ],
            "name": "moveCollateral",
            "outputs": [],
            "stateMutability": "nonpayable",
            "type": "function"
        },
        {
            "inputs": [
                {
                    "internalType": "address",
                    "name": "_manager",
                    "type": "address"
                },
                {
                    "internalType": "uint256",
                    "name": "_positionId",
                    "type": "uint256"
                },
                {
                    "internalType": "address",
                    "name": "_dst",
                    "type": "address"
                },
                {
                    "internalType": "uint256",
                    "name": "_stablecoinValue",
                    "type": "uint256"
                }
            ],
            "name": "moveStablecoin",
            "outputs": [],
            "stateMutability": "nonpayable",
            "type": "function"
        },
        {
            "inputs": [
                {
                    "internalType": "address",
                    "name": "_manager",
                    "type": "address"
                },
                {
                    "internalType": "address",
                    "name": "_xdcAdapter",
                    "type": "address"
                },
                {
                    "internalType": "uint256",
                    "name": "_positionId",
                    "type": "uint256"
                },
                {
                    "internalType": "bytes",
                    "name": "_data",
                    "type": "bytes"
                }
            ],
            "name": "lockXDC",
            "outputs": [],
            "stateMutability": "payable",
            "type": "function"
        },
        {
            "inputs": [
                {
                    "internalType": "address",
                    "name": "_manager",
                    "type": "address"
                },
                {
                    "internalType": "address",
                    "name": "_stabilityFeeCollector",
                    "type": "address"
                },
                {
                    "internalType": "address",
                    "name": "_xdcAdapter",
                    "type": "address"
                },
                {
                    "internalType": "address",
                    "name": "_stablecoinAdapter",
                    "type": "address"
                },
                {
                    "internalType": "uint256",
                    "name": "_positionId",
                    "type": "uint256"
                },
                {
                    "internalType": "uint256",
                    "name": "_stablecoinAmount",
                    "type": "uint256"
                },
                {
                    "internalType": "bytes",
                    "name": "_data",
                    "type": "bytes"
                }
            ],
            "name": "lockXDCAndDraw",
            "outputs": [],
            "stateMutability": "payable",
            "type": "function"
        },
        {
            "inputs": [
                {
                    "internalType": "contract IManager",
                    "name": "_manager",
                    "type": "address"
                },
                {
                    "internalType": "address",
                    "name": "_stabilityFeeCollector",
                    "type": "address"
                },
                {
                    "internalType": "address",
                    "name": "_tokenAdapter",
                    "type": "address"
                },
                {
                    "internalType": "address",
                    "name": "_stablecoinAdapter",
                    "type": "address"
                },
                {
                    "internalType": "uint256",
                    "name": "_positionId",
                    "type": "uint256"
                },
                {
                    "internalType": "uint256",
                    "name": "_collateralAmount",
                    "type": "uint256"
                },
                {
                    "internalType": "uint256",
                    "name": "_stablecoinAmount",
                    "type": "uint256"
                },
                {
                    "internalType": "bool",
                    "name": "_transferFrom",
                    "type": "bool"
                },
                {
                    "internalType": "bytes",
                    "name": "_data",
                    "type": "bytes"
                }
            ],
            "name": "lockTokenAndDraw",
            "outputs": [],
            "stateMutability": "nonpayable",
            "type": "function"
        },
        {
            "inputs": [
                {
                    "internalType": "address",
                    "name": "_manager",
                    "type": "address"
                },
                {
                    "internalType": "address",
                    "name": "_stabilityFeeCollector",
                    "type": "address"
                },
                {
                    "internalType": "address",
                    "name": "_tokenAdapter",
                    "type": "address"
                },
                {
                    "internalType": "address",
                    "name": "_stablecoinAdapter",
                    "type": "address"
                },
                {
                    "internalType": "bytes32",
                    "name": "_collateralPoolId",
                    "type": "bytes32"
                },
                {
                    "internalType": "uint256",
                    "name": "_collateralAmount",
                    "type": "uint256"
                },
                {
                    "internalType": "uint256",
                    "name": "_stablecoinAmount",
                    "type": "uint256"
                },
                {
                    "internalType": "bool",
                    "name": "_transferFrom",
                    "type": "bool"
                },
                {
                    "internalType": "bytes",
                    "name": "_data",
                    "type": "bytes"
                }
            ],
            "name": "openLockTokenAndDraw",
            "outputs": [
                {
                    "internalType": "uint256",
                    "name": "_positionId",
                    "type": "uint256"
                }
            ],
            "stateMutability": "nonpayable",
            "type": "function"
        },
        {
            "inputs": [
                {
                    "internalType": "address",
                    "name": "_manager",
                    "type": "address"
                },
                {
                    "internalType": "address",
                    "name": "_tokenAdapter",
                    "type": "address"
                },
                {
                    "internalType": "address",
                    "name": "_stablecoinAdapter",
                    "type": "address"
                },
                {
                    "internalType": "uint256",
                    "name": "_positionId",
                    "type": "uint256"
                },
                {
                    "internalType": "uint256",
                    "name": "_collateralAmount",
                    "type": "uint256"
                },
                {
                    "internalType": "uint256",
                    "name": "_stablecoinAmount",
                    "type": "uint256"
                },
                {
                    "internalType": "address",
                    "name": "_stabilityFeeCollector",
                    "type": "address"
                },
                {
                    "internalType": "bytes",
                    "name": "_data",
                    "type": "bytes"
                }
            ],
            "name": "wipeAndUnlockToken",
            "outputs": [],
            "stateMutability": "nonpayable",
            "type": "function"
        },
        {
            "inputs": [
                {
                    "internalType": "address",
                    "name": "_manager",
                    "type": "address"
                },
                {
                    "internalType": "address",
                    "name": "_tokenAdapter",
                    "type": "address"
                },
                {
                    "internalType": "address",
                    "name": "_stablecoinAdapter",
                    "type": "address"
                },
                {
                    "internalType": "uint256",
                    "name": "_positionId",
                    "type": "uint256"
                },
                {
                    "internalType": "uint256",
                    "name": "_collateralAmount",
                    "type": "uint256"
                },
                {
                    "internalType": "address",
                    "name": "_stabilityFeeCollector",
                    "type": "address"
                },
                {
                    "internalType": "bytes",
                    "name": "_data",
                    "type": "bytes"
                }
            ],
            "name": "wipeAllAndUnlockToken",
            "outputs": [],
            "stateMutability": "nonpayable",
            "type": "function"
        }
    ],
    "bytecode": "0x60a06040523060805234801561001457600080fd5b506080516143dc6100ed60003960008181610544015281816105e7015281816106ad01528181610a4c01528181610bbe01528181610f3601528181610fd0015281816113440152818161146b015281816115100152818161159d0152818161191c015281816119cc01528181611a3501528181611a9801528181611bf901528181611c5901528181611cbb01528181611d2501528181611d8e01528181611df501528181611e5801528181611ef701528181611f6101528181611faf01528181612392015281816128d20152612d1a01526143dc6000f3fe6080604052600436106101c25760003560e01c80638889d0f4116100f7578063b092145e11610095578063c424521611610064578063c4245216146104c7578063ce4af695146104e7578063f68be05714610507578063fd7039031461052757600080fd5b8063b092145e14610447578063b66291fb14610467578063b7c9836b14610487578063beabacc8146104a757600080fd5b80639a4e5020116100d15780639a4e5020146103c7578063a341fab1146103e7578063ac48198c14610407578063ad28ff881461042757600080fd5b80638889d0f41461037457806388e234dd1461039457806399ea511e146103a757600080fd5b80635c648c2b11610164578063651d4b6a1161013e578063651d4b6a146102ef5780636aa3ee11146103025780636b971f531461033457806385d6aeb41461035457600080fd5b80635c648c2b1461028f578063602fe0f6146102af5780636382d9ad146102cf57600080fd5b8063259d4649116101a0578063259d46491461021c5780633c5500c81461022f57806342f059ee1461024f5780634abf42991461026f57600080fd5b80630a65b4d0146101c75780631487493e146101e957806316bd8867146101fc575b600080fd5b3480156101d357600080fd5b506101e76101e23660046138be565b61053a565b005b6101e76101f736600461393a565b6105dd565b34801561020857600080fd5b506101e76102173660046139ad565b6106a3565b6101e761022a366004613a4e565b610a42565b34801561023b57600080fd5b506101e761024a366004613ab3565b610bb4565b34801561025b57600080fd5b506101e761026a366004613b42565b610f2c565b34801561027b57600080fd5b506101e761028a366004613b83565b610fc6565b34801561029b57600080fd5b506101e76102aa36600461393a565b61133a565b3480156102bb57600080fd5b506101e76102ca366004613c31565b611461565b3480156102db57600080fd5b506101e76102ea366004613c79565b611506565b6101e76102fd366004613cb2565b611593565b34801561030e57600080fd5b5061032261031d366004613d33565b611910565b60405190815260200160405180910390f35b34801561034057600080fd5b506101e761034f366004613d75565b6119c2565b34801561036057600080fd5b506101e761036f366004613b42565b611a2b565b34801561038057600080fd5b506101e761038f366004613dd8565b611a8e565b6103226103a2366004613cb2565b611bed565b3480156103b357600080fd5b506103226103c2366004613e3f565b611c4d565b3480156103d357600080fd5b506101e76103e2366004613d33565b611cb1565b3480156103f357600080fd5b506101e7610402366004613f01565b611d1b565b34801561041357600080fd5b506101e7610422366004613f36565b611d84565b34801561043357600080fd5b506101e7610442366004613c79565b611deb565b34801561045357600080fd5b506101e7610462366004613c79565b611e4e565b34801561047357600080fd5b506101e7610482366004613c31565b611eb1565b34801561049357600080fd5b506101e76104a2366004613d33565b611eed565b3480156104b357600080fd5b506101e76104c2366004613b42565b611f57565b3480156104d357600080fd5b506101e76104e23660046139ad565b611fa5565b3480156104f357600080fd5b506101e7610502366004613e3f565b612388565b34801561051357600080fd5b506101e7610522366004613b83565b6128c8565b6101e7610535366004613f7a565b612d10565b6001600160a01b037f000000000000000000000000000000000000000000000000000000000000000016300361056f57600080fd5b604051630c04449360e11b81526001600160a01b038716906318088926906105a39088908890889088908890600401613fee565b600060405180830381600087803b1580156105bd57600080fd5b505af11580156105d1573d6000803e3d6000fd5b50505050505050505050565b6001600160a01b037f000000000000000000000000000000000000000000000000000000000000000016300361061257600080fd5b60405163133f757160e31b8152600481018490526000906001600160a01b038716906399fbab8890602401602060405180830381865afa15801561065a573d6000803e3d6000fd5b505050506040513d601f19601f8201168201806040525081019061067e9190614027565b905061068c85828585610a42565b61069b868534600087876119c2565b505050505050565b6001600160a01b037f00000000000000000000000000000000000000000000000000000000000000001630036106d857600080fd5b60405163133f757160e31b8152600481018690526000906001600160a01b038a16906399fbab8890602401602060405180830381865afa158015610720573d6000803e3d6000fd5b505050506040513d601f19601f820116820180604052508101906107449190614027565b6040516336df277960e11b8152600481018890529091506000906001600160a01b038b1690636dbe4ef290602401602060405180830381865afa15801561078f573d6000803e3d6000fd5b505050506040513d601f19601f820116820180604052508101906107b3919061404b565b905060008a6001600160a01b031663e3b3932a6040518163ffffffff1660e01b8152600401602060405180830381865afa1580156107f5573d6000803e3d6000fd5b505050506040513d601f19601f820116820180604052508101906108199190614027565b604051630a76216560e21b8152600481018490526001600160a01b03858116602483015291909116906329d88594906044016040805180830381865afa158015610867573d6000803e3d6000fd5b505050506040513d601f19601f8201168201806040525081019061088b9190614064565b91505060006108fe8c6001600160a01b031663e3b3932a6040518163ffffffff1660e01b8152600401602060405180830381865afa1580156108d1573d6000803e3d6000fd5b505050506040513d601f19601f820116820180604052508101906108f59190614027565b8586868b612dff565b905061090d8a8583898961133a565b60006109198c8a612fcb565b90506109398d8b6109298461409e565b6109328761409e565b8b8b6119c2565b88156109b25761094d8d8b30848b8b61053a565b6040516331f0926560e01b81526001600160a01b038d16906331f092659061097f9033908d908c908c906004016140ba565b600060405180830381600087803b15801561099957600080fd5b505af11580156109ad573d6000803e3d6000fd5b505050505b6040516319d224a160e31b8152600481018590526001600160a01b038e169063ce91250890602401600060405180830381600087803b1580156109f457600080fd5b505af1158015610a08573d6000803e3d6000fd5b505050506000805160206143878339815191528583604051610a2b9291906140ec565b60405180910390a150505050505050505050505050565b6001600160a01b037f0000000000000000000000000000000000000000000000000000000000000000163003610a7757600080fd5b6000846001600160a01b031663b2016bd46040518163ffffffff1660e01b81526004016020604051808303816000875af1158015610ab9573d6000803e3d6000fd5b505050506040513d601f19601f82011682018060405250810190610add9190614027565b9050806001600160a01b031663d0e30db0346040518263ffffffff1660e01b81526004016000604051808303818588803b158015610b1a57600080fd5b505af1158015610b2e573d6000803e3d6000fd5b50610b49935050506001600160a01b038316905086346130e5565b604051630937b85760e31b81526001600160a01b038616906349bdc2b890610b7b9087903490889088906004016140ba565b600060405180830381600087803b158015610b9557600080fd5b505af1158015610ba9573d6000803e3d6000fd5b505050505050505050565b6001600160a01b037f0000000000000000000000000000000000000000000000000000000000000000163003610be957600080fd5b60405163133f757160e31b8152600481018590526000906001600160a01b038916906399fbab8890602401602060405180830381865afa158015610c31573d6000803e3d6000fd5b505050506040513d601f19601f82011682018060405250810190610c559190614027565b90506000886001600160a01b031663e3b3932a6040518163ffffffff1660e01b8152600401602060405180830381865afa158015610c97573d6000803e3d6000fd5b505050506040513d601f19601f82011682018060405250810190610cbb9190614027565b6040516336df277960e11b8152600481018890529091506000906001600160a01b038b1690636dbe4ef290602401602060405180830381865afa158015610d06573d6000803e3d6000fd5b505050506040513d601f19601f82011682018060405250810190610d2a919061404b565b9050610d478a886000610d40868e89888e613252565b89896119c2565b610d568a88306102ca8a61339c565b60405163d9ea915560e01b81523060048201526001600160a01b03898116602483015283169063d9ea915590604401602060405180830381865afa158015610da2573d6000803e3d6000fd5b505050506040513d601f19601f82011682018060405250810190610dc6919061404b565b600003610e2957604051634d8c928d60e11b81526001600160a01b038981166004830152831690639b19251a90602401600060405180830381600087803b158015610e1057600080fd5b505af1158015610e24573d6000803e3d6000fd5b505050505b6040516331f0926560e01b81526001600160a01b038916906331f0926590610e5b9033908a908a908a906004016140ba565b600060405180830381600087803b158015610e7557600080fd5b505af1158015610e89573d6000803e3d6000fd5b50506040516319d224a160e31b8152600481018490526001600160a01b038d16925063ce9125089150602401600060405180830381600087803b158015610ecf57600080fd5b505af1158015610ee3573d6000803e3d6000fd5b505050507fe83a08ae515fd9df0f768f1e44ddb4ab75353eb54f92aa8caac1d277804ee9a58387604051610f189291906140ec565b60405180910390a150505050505050505050565b6001600160a01b037f0000000000000000000000000000000000000000000000000000000000000000163003610f6157600080fd5b604051632309463960e01b81526001600160a01b03841690632309463990610f8f90859085906004016140ec565b600060405180830381600087803b158015610fa957600080fd5b505af1158015610fbd573d6000803e3d6000fd5b50505050505050565b6001600160a01b037f0000000000000000000000000000000000000000000000000000000000000000163003610ffb57600080fd5b60405163133f757160e31b8152600481018790526000906001600160a01b038b16906399fbab8890602401602060405180830381865afa158015611043573d6000803e3d6000fd5b505050506040513d601f19601f820116820180604052508101906110679190614027565b6040516336df277960e11b8152600481018990529091506000906001600160a01b038c1690636dbe4ef290602401602060405180830381865afa1580156110b2573d6000803e3d6000fd5b505050506040513d601f19601f820116820180604052508101906110d6919061404b565b90506110e5898388878761133a565b60006110f18b89612fcb565b905060006112308d6001600160a01b031663e3b3932a6040518163ffffffff1660e01b8152600401602060405180830381865afa158015611136573d6000803e3d6000fd5b505050506040513d601f19601f8201168201806040525081019061115a9190614027565b8e6001600160a01b031663e3b3932a6040518163ffffffff1660e01b8152600401602060405180830381865afa158015611198573d6000803e3d6000fd5b505050506040513d601f19601f820116820180604052508101906111bc9190614027565b60405163b4ac08bb60e01b81526001600160a01b038881166004830152919091169063b4ac08bb90602401602060405180830381865afa158015611204573d6000803e3d6000fd5b505050506040513d601f19601f82011682018060405250810190611228919061404b565b86868b6133ba565b90506112488d8b6112408561409e565b848a8a6119c2565b88156112c15761125c8d8b30858a8a61053a565b6040516331f0926560e01b81526001600160a01b038d16906331f092659061128e9033908d908b908b906004016140ba565b600060405180830381600087803b1580156112a857600080fd5b505af11580156112bc573d6000803e3d6000fd5b505050505b6040516319d224a160e31b8152600481018490526001600160a01b038e169063ce91250890602401600060405180830381600087803b15801561130357600080fd5b505af1158015611317573d6000803e3d6000fd5b505050506000805160206143878339815191528489604051610a2b9291906140ec565b6001600160a01b037f000000000000000000000000000000000000000000000000000000000000000016300361136f57600080fd5b6001600160a01b03841661139e5760405162461bcd60e51b815260040161139590614105565b60405180910390fd5b6000856001600160a01b031663e9cbd8226040518163ffffffff1660e01b81526004016020604051808303816000875af11580156113e0573d6000803e3d6000fd5b505050506040513d601f19601f820116820180604052508101906114049190614027565b905061141b6001600160a01b0382163330876134cf565b61142f6001600160a01b03821687866130e5565b604051630937b85760e31b81526001600160a01b038716906349bdc2b8906105a39088908890889088906004016140ba565b6001600160a01b037f000000000000000000000000000000000000000000000000000000000000000016300361149657600080fd5b6040516318d326fd60e31b8152600481018490526001600160a01b0383811660248301526044820183905285169063c69937e8906064015b600060405180830381600087803b1580156114e857600080fd5b505af11580156114fc573d6000803e3d6000fd5b5050505050505050565b6001600160a01b037f000000000000000000000000000000000000000000000000000000000000000016300361153b57600080fd5b604051631bfc726f60e21b81526001600160a01b038281166004830152831690636ff1c9bc906024015b600060405180830381600087803b15801561157f57600080fd5b505af115801561069b573d6000803e3d6000fd5b6001600160a01b037f00000000000000000000000000000000000000000000000000000000000000001630036115c857600080fd5b60405163133f757160e31b8152600481018590526000906001600160a01b038a16906399fbab8890602401602060405180830381865afa158015611610573d6000803e3d6000fd5b505050506040513d601f19601f820116820180604052508101906116349190614027565b90506000896001600160a01b031663e3b3932a6040518163ffffffff1660e01b8152600401602060405180830381865afa158015611676573d6000803e3d6000fd5b505050506040513d601f19601f8201168201806040525081019061169a9190614027565b6040516336df277960e11b8152600481018890529091506000906001600160a01b038c1690636dbe4ef290602401602060405180830381865afa1580156116e5573d6000803e3d6000fd5b505050506040513d601f19601f82011682018060405250810190611709919061404b565b905061171789848787610a42565b61172a8b8834610d40868f89888e613252565b6117398b88306102ca8a61339c565b60405163d9ea915560e01b81523060048201526001600160a01b03898116602483015283169063d9ea915590604401602060405180830381865afa158015611785573d6000803e3d6000fd5b505050506040513d601f19601f820116820180604052508101906117a9919061404b565b60000361180c57604051634d8c928d60e11b81526001600160a01b038981166004830152831690639b19251a90602401600060405180830381600087803b1580156117f357600080fd5b505af1158015611807573d6000803e3d6000fd5b505050505b6040516331f0926560e01b81526001600160a01b038916906331f092659061183e9033908a908a908a906004016140ba565b600060405180830381600087803b15801561185857600080fd5b505af115801561186c573d6000803e3d6000fd5b50506040516319d224a160e31b8152600481018490526001600160a01b038e16925063ce9125089150602401600060405180830381600087803b1580156118b257600080fd5b505af11580156118c6573d6000803e3d6000fd5b505050507fe83a08ae515fd9df0f768f1e44ddb4ab75353eb54f92aa8caac1d277804ee9a583876040516118fb9291906140ec565b60405180910390a15050505050505050505050565b60006001600160a01b037f000000000000000000000000000000000000000000000000000000000000000016300361194757600080fd5b604051636090dec560e01b8152600481018490526001600160a01b038381166024830152851690636090dec5906044016020604051808303816000875af1158015611996573d6000803e3d6000fd5b505050506040513d601f19601f820116820180604052508101906119ba919061404b565b949350505050565b6001600160a01b037f00000000000000000000000000000000000000000000000000000000000000001630036119f757600080fd5b6040516388786b9960e01b81526001600160a01b038716906388786b99906105a3908890889088908890889060040161414f565b6001600160a01b037f0000000000000000000000000000000000000000000000000000000000000000163003611a6057600080fd5b6040516373cc200d60e11b81526001600160a01b0384169063e798401a90610f8f90859085906004016140ec565b6001600160a01b037f0000000000000000000000000000000000000000000000000000000000000000163003611ac357600080fd5b6001600160a01b038516611ae95760405162461bcd60e51b815260040161139590614105565b6000866001600160a01b031663b2016bd46040518163ffffffff1660e01b81526004016020604051808303816000875af1158015611b2b573d6000803e3d6000fd5b505050506040513d601f19601f82011682018060405250810190611b4f9190614027565b90508315611b6c57611b6c6001600160a01b0382163330886134cf565b611b806001600160a01b03821688876130e5565b604051630937b85760e31b81526001600160a01b038816906349bdc2b890611bb29089908990889088906004016140ba565b600060405180830381600087803b158015611bcc57600080fd5b505af1158015611be0573d6000803e3d6000fd5b5050505050505050505050565b60006001600160a01b037f0000000000000000000000000000000000000000000000000000000000000000163003611c2457600080fd5b611c2f898630611910565b9050611c418989898985898989611593565b98975050505050505050565b60006001600160a01b037f0000000000000000000000000000000000000000000000000000000000000000163003611c8457600080fd5b611c8f8b8830611910565b9050611ca38b8b8b8b858b8b8b8b8b612388565b9a9950505050505050505050565b6001600160a01b037f0000000000000000000000000000000000000000000000000000000000000000163003611ce657600080fd5b604051631f95f98d60e31b8152600481018390526001600160a01b03828116602483015284169063fcafcc6890604401610f8f565b6001600160a01b037f0000000000000000000000000000000000000000000000000000000000000000163003611d5057600080fd5b60405163a3cf2f4f60e01b815260048101839052602481018290526001600160a01b0384169063a3cf2f4f90604401610f8f565b6001600160a01b037f0000000000000000000000000000000000000000000000000000000000000000163003611db957600080fd5b604051632ce0ee0560e01b81526001600160a01b03851690632ce0ee05906114ce908690309087908790600401614175565b6001600160a01b037f0000000000000000000000000000000000000000000000000000000000000000163003611e2057600080fd5b604051633e7e4af960e21b81526001600160a01b03828116600483015283169063f9f92be490602401611565565b6001600160a01b037f0000000000000000000000000000000000000000000000000000000000000000163003611e8357600080fd5b604051634d8c928d60e11b81526001600160a01b038281166004830152831690639b19251a90602401611565565b604051638876e58960e01b8152600481018490526001600160a01b03838116602483015260448201839052851690638876e589906064016114ce565b6001600160a01b037f0000000000000000000000000000000000000000000000000000000000000000163003611f2257600080fd5b60405163ba9a392560e01b8152600481018390526001600160a01b03828116602483015284169063ba9a392590604401610f8f565b6001600160a01b037f0000000000000000000000000000000000000000000000000000000000000000163003611f8c57600080fd5b611fa06001600160a01b0384168383613645565b505050565b6001600160a01b037f0000000000000000000000000000000000000000000000000000000000000000163003611fda57600080fd5b6000886001600160a01b031663e3b3932a6040518163ffffffff1660e01b8152600401602060405180830381865afa15801561201a573d6000803e3d6000fd5b505050506040513d601f19601f8201168201806040525081019061203e9190614027565b60405163133f757160e31b8152600481018890529091506000906001600160a01b038b16906399fbab8890602401602060405180830381865afa158015612089573d6000803e3d6000fd5b505050506040513d601f19601f820116820180604052508101906120ad9190614027565b6040516336df277960e11b8152600481018990529091506000906001600160a01b038c1690636dbe4ef290602401602060405180830381865afa1580156120f8573d6000803e3d6000fd5b505050506040513d601f19601f8201168201806040525081019061211c919061404b565b604051630a76216560e21b8152600481018290526001600160a01b0384811660248301529192506000918516906329d88594906044016040805180830381865afa15801561216e573d6000803e3d6000fd5b505050506040513d601f19601f820116820180604052508101906121929190614064565b91505060006121a4858586868c612dff565b90506121b38b85838a8a61133a565b6121ca8d8b6121c18c61409e565b6109328661409e565b881561230f576121de8d8b308c8b8b61053a565b6040516331f0926560e01b81526001600160a01b038d16906331f09265906122109030908d908c908c906004016140ba565b600060405180830381600087803b15801561222a57600080fd5b505af115801561223e573d6000803e3d6000fd5b505050508b6001600160a01b031663b2016bd46040518163ffffffff1660e01b81526004016020604051808303816000875af1158015612282573d6000803e3d6000fd5b505050506040513d601f19601f820116820180604052508101906122a69190614027565b6001600160a01b0316632e1a7d4d8a6040518263ffffffff1660e01b81526004016122d391815260200190565b600060405180830381600087803b1580156122ed57600080fd5b505af1158015612301573d6000803e3d6000fd5b5050505061230f338a6137ad565b6040516319d224a160e31b8152600481018490526001600160a01b038e169063ce91250890602401600060405180830381600087803b15801561235157600080fd5b505af1158015612365573d6000803e3d6000fd5b505050506000805160206143878339815191528482604051610a2b9291906140ec565b6001600160a01b037f00000000000000000000000000000000000000000000000000000000000000001630036123bd57600080fd5b6040516336df277960e11b8152600481018790526000906001600160a01b038c1690636dbe4ef290602401602060405180830381865afa158015612405573d6000803e3d6000fd5b505050506040513d601f19601f82011682018060405250810190612429919061404b565b90506124a7898c6001600160a01b03166399fbab888a6040518263ffffffff1660e01b815260040161245d91815260200190565b602060405180830381865afa15801561247a573d6000803e3d6000fd5b505050506040513d601f19601f8201168201806040525081019061249e9190614027565b88878787611a8e565b60006124b38a88612fcb565b905060006125938d6001600160a01b031663e3b3932a6040518163ffffffff1660e01b8152600401602060405180830381865afa1580156124f8573d6000803e3d6000fd5b505050506040513d601f19601f8201168201806040525081019061251c9190614027565b8d8f6001600160a01b03166399fbab888d6040518263ffffffff1660e01b815260040161254b91815260200190565b602060405180830381865afa158015612568573d6000803e3d6000fd5b505050506040513d601f19601f8201168201806040525081019061258c9190614027565b868b613252565b90506125a38d8a848489896119c2565b6125b28d8a306102ca8b61339c565b8c6001600160a01b031663e3b3932a6040518163ffffffff1660e01b8152600401602060405180830381865afa1580156125f0573d6000803e3d6000fd5b505050506040513d601f19601f820116820180604052508101906126149190614027565b60405163d9ea915560e01b81523060048201526001600160a01b038c81166024830152919091169063d9ea915590604401602060405180830381865afa158015612662573d6000803e3d6000fd5b505050506040513d601f19601f82011682018060405250810190612686919061404b565b60000361274d578c6001600160a01b031663e3b3932a6040518163ffffffff1660e01b8152600401602060405180830381865afa1580156126cb573d6000803e3d6000fd5b505050506040513d601f19601f820116820180604052508101906126ef9190614027565b604051634d8c928d60e11b81526001600160a01b038c811660048301529190911690639b19251a90602401600060405180830381600087803b15801561273457600080fd5b505af1158015612748573d6000803e3d6000fd5b505050505b6040516331f0926560e01b81526001600160a01b038b16906331f092659061277f9033908b908a908a906004016140ba565b600060405180830381600087803b15801561279957600080fd5b505af11580156127ad573d6000803e3d6000fd5b5050505060008d6001600160a01b03166399fbab888b6040518263ffffffff1660e01b81526004016127e191815260200190565b602060405180830381865afa1580156127fe573d6000803e3d6000fd5b505050506040513d601f19601f820116820180604052508101906128229190614027565b6040516319d224a160e31b8152600481018690529091506001600160a01b038f169063ce91250890602401600060405180830381600087803b15801561286757600080fd5b505af115801561287b573d6000803e3d6000fd5b505050507fe83a08ae515fd9df0f768f1e44ddb4ab75353eb54f92aa8caac1d277804ee9a581896040516128b09291906140ec565b60405180910390a15050505050505050505050505050565b6001600160a01b037f00000000000000000000000000000000000000000000000000000000000000001630036128fd57600080fd5b60405163133f757160e31b8152600481018790526000906001600160a01b038b16906399fbab8890602401602060405180830381865afa158015612945573d6000803e3d6000fd5b505050506040513d601f19601f820116820180604052508101906129699190614027565b6040516336df277960e11b8152600481018990529091506000906001600160a01b038c1690636dbe4ef290602401602060405180830381865afa1580156129b4573d6000803e3d6000fd5b505050506040513d601f19601f820116820180604052508101906129d8919061404b565b90506129e7898388878761133a565b6000612b248c6001600160a01b031663e3b3932a6040518163ffffffff1660e01b8152600401602060405180830381865afa158015612a2a573d6000803e3d6000fd5b505050506040513d601f19601f82011682018060405250810190612a4e9190614027565b8d6001600160a01b031663e3b3932a6040518163ffffffff1660e01b8152600401602060405180830381865afa158015612a8c573d6000803e3d6000fd5b505050506040513d601f19601f82011682018060405250810190612ab09190614027565b60405163b4ac08bb60e01b81526001600160a01b038781166004830152919091169063b4ac08bb90602401602060405180830381865afa158015612af8573d6000803e3d6000fd5b505050506040513d601f19601f82011682018060405250810190612b1c919061404b565b85858a6133ba565b9050612b3c8c8a612b348b61409e565b8489896119c2565b8715612c8157612b508c8a308b898961053a565b6040516331f0926560e01b81526001600160a01b038c16906331f0926590612b829030908c908a908a906004016140ba565b600060405180830381600087803b158015612b9c57600080fd5b505af1158015612bb0573d6000803e3d6000fd5b505050508a6001600160a01b031663b2016bd46040518163ffffffff1660e01b81526004016020604051808303816000875af1158015612bf4573d6000803e3d6000fd5b505050506040513d601f19601f82011682018060405250810190612c189190614027565b6001600160a01b0316632e1a7d4d896040518263ffffffff1660e01b8152600401612c4591815260200190565b600060405180830381600087803b158015612c5f57600080fd5b505af1158015612c73573d6000803e3d6000fd5b50505050612c8133896137ad565b6040516319d224a160e31b8152600481018390526001600160a01b038d169063ce91250890602401600060405180830381600087803b158015612cc357600080fd5b505af1158015612cd7573d6000803e3d6000fd5b505050506000805160206143878339815191528388604051612cfa9291906140ec565b60405180910390a1505050505050505050505050565b6001600160a01b037f0000000000000000000000000000000000000000000000000000000000000000163003612d4557600080fd5b60405163025e7c2760e01b8152600481018590526001600160a01b03808516919088169063025e7c2790602401602060405180830381865afa158015612d8f573d6000803e3d6000fd5b505050506040513d601f19601f82011682018060405250810190612db39190614027565b6001600160a01b031614612df25760405162461bcd60e51b815260206004820152600660248201526510b7bbb732b960d11b6044820152606401611395565b61069b86868685856105dd565b60405163497777d560e01b81526004810183905260009081906001600160a01b0384169063497777d5906024016020604051808303816000875af1158015612e4b573d6000803e3d6000fd5b505050506040513d601f19601f82011682018060405250810190612e6f919061404b565b604051630a76216560e21b8152600481018690526001600160a01b0387811660248301529192506000918916906329d88594906044016040805180830381865afa158015612ec1573d6000803e3d6000fd5b505050506040513d601f19601f82011682018060405250810190612ee59190614064565b60405163b4ac08bb60e01b81526001600160a01b038a8116600483015291935060009250908a169063b4ac08bb90602401602060405180830381865afa158015612f33573d6000803e3d6000fd5b505050506040513d601f19601f82011682018060405250810190612f57919061404b565b90506000612f6584846141a0565b9050600082821015612f78576000612f82565b612f8283836141b7565b9050612f9a6b033b2e3c9fd0803ce8000000826141ca565b955080612fa68761339c565b10612fb15785612fbc565b612fbc8660016141ec565b9b9a5050505050505050505050565b600080836001600160a01b031663b2016bd46040518163ffffffff1660e01b81526004016020604051808303816000875af115801561300e573d6000803e3d6000fd5b505050506040513d601f19601f820116820180604052508101906130329190614027565b6001600160a01b031663313ce5676040518163ffffffff1660e01b8152600401602060405180830381865afa15801561306f573d6000803e3d6000fd5b505050506040513d601f19601f8201168201806040525081019061309391906141ff565b60ff169050601281106130c5576130ab6012826141b7565b6130b690600a614306565b6130c090846141ca565b6119ba565b6130d08160126141b7565b6130db90600a614306565b6119ba90846141a0565b6001600160a01b0383163b6131465760405162461bcd60e51b815260206004820152602160248201527f73616665417070726f76653a206e6f6e2d636f6e7472616374206164647265736044820152607360f81b6064820152608401611395565b600080846001600160a01b031663095ea7b3858560405160240161316b9291906140ec565b6040516020818303038152906040529060e01b6020820180516001600160e01b0383818316178352505050506040516131a49190614312565b6000604051808303816000865af19150503d80600081146131e1576040519150601f19603f3d011682016040523d82523d6000602084013e6131e6565b606091505b50915091508180156132105750805115806132105750808060200190518101906132109190614341565b61324b5760405162461bcd60e51b815260206004820152600c60248201526b2173616665417070726f766560a01b6044820152606401611395565b5050505050565b60405163497777d560e01b81526004810183905260009081906001600160a01b0387169063497777d5906024016020604051808303816000875af115801561329e573d6000803e3d6000fd5b505050506040513d601f19601f820116820180604052508101906132c2919061404b565b60405163b4ac08bb60e01b81526001600160a01b03878116600483015291925060009189169063b4ac08bb90602401602060405180830381865afa15801561330e573d6000803e3d6000fd5b505050506040513d601f19601f82011682018060405250810190613332919061404b565b905061333d8461339c565b81101561339157818161334f8661339c565b61335991906141b7565b61336391906141ca565b925061336e8461339c565b61337883856141a0565b10613383578261338e565b61338e83600161435e565b92505b505095945050505050565b60006133b46b033b2e3c9fd0803ce8000000836141a0565b92915050565b60405163497777d560e01b81526004810183905260009081906001600160a01b0384169063497777d5906024016020604051808303816000875af1158015613406573d6000803e3d6000fd5b505050506040513d601f19601f8201168201806040525081019061342a919061404b565b604051630a76216560e21b8152600481018690526001600160a01b0387811660248301529192506000918916906329d88594906044016040805180830381865afa15801561347c573d6000803e3d6000fd5b505050506040513d601f19601f820116820180604052508101906134a09190614064565b91506134ae905082886141ca565b9250808311156134c6576134c18161409e565b61338e565b61338e8361409e565b6001600160a01b0384163b6135355760405162461bcd60e51b815260206004820152602660248201527f736166655472616e7366657246726f6d3a206e6f6e2d636f6e7472616374206160448201526564647265737360d01b6064820152608401611395565b604080516001600160a01b0385811660248301528481166044830152606480830185905283518084039091018152608490920183526020820180516001600160e01b03166323b872dd60e01b17905291516000928392908816916135999190614312565b6000604051808303816000865af19150503d80600081146135d6576040519150601f19603f3d011682016040523d82523d6000602084013e6135db565b606091505b50915091508180156136055750805115806136055750808060200190518101906136059190614341565b61069b5760405162461bcd60e51b815260206004820152601160248201527021736166655472616e7366657246726f6d60781b6044820152606401611395565b6001600160a01b0383163b6136a75760405162461bcd60e51b815260206004820152602260248201527f736166655472616e736665723a206e6f6e2d636f6e7472616374206164647265604482015261737360f01b6064820152608401611395565b600080846001600160a01b031663a9059cbb85856040516024016136cc9291906140ec565b6040516020818303038152906040529060e01b6020820180516001600160e01b0383818316178352505050506040516137059190614312565b6000604051808303816000865af19150503d8060008114613742576040519150601f19603f3d011682016040523d82523d6000602084013e613747565b606091505b50915091508180156137715750805115806137715750808060200190518101906137719190614341565b61324b5760405162461bcd60e51b815260206004820152600d60248201526c10b9b0b332aa3930b739b332b960991b6044820152606401611395565b604080516000808252602082019092526001600160a01b0384169083906040516137d79190614312565b60006040518083038185875af1925050503d8060008114613814576040519150601f19603f3d011682016040523d82523d6000602084013e613819565b606091505b5050905080611fa05760405162461bcd60e51b815260206004820152601060248201526f042e6c2cccaa8e4c2dce6cccae48aa8960831b6044820152606401611395565b6001600160a01b038116811461387257600080fd5b50565b60008083601f84011261388757600080fd5b50813567ffffffffffffffff81111561389f57600080fd5b6020830191508360208285010111156138b757600080fd5b9250929050565b60008060008060008060a087890312156138d757600080fd5b86356138e28161385d565b95506020870135945060408701356138f98161385d565b935060608701359250608087013567ffffffffffffffff81111561391c57600080fd5b61392889828a01613875565b979a9699509497509295939492505050565b60008060008060006080868803121561395257600080fd5b853561395d8161385d565b9450602086013561396d8161385d565b935060408601359250606086013567ffffffffffffffff81111561399057600080fd5b61399c88828901613875565b969995985093965092949392505050565b60008060008060008060008060e0898b0312156139c957600080fd5b88356139d48161385d565b975060208901356139e48161385d565b965060408901356139f48161385d565b9550606089013594506080890135935060a0890135613a128161385d565b925060c089013567ffffffffffffffff811115613a2e57600080fd5b613a3a8b828c01613875565b999c989b5096995094979396929594505050565b60008060008060608587031215613a6457600080fd5b8435613a6f8161385d565b93506020850135613a7f8161385d565b9250604085013567ffffffffffffffff811115613a9b57600080fd5b613aa787828801613875565b95989497509550505050565b600080600080600080600060c0888a031215613ace57600080fd5b8735613ad98161385d565b96506020880135613ae98161385d565b95506040880135613af98161385d565b9450606088013593506080880135925060a088013567ffffffffffffffff811115613b2357600080fd5b613b2f8a828b01613875565b989b979a50959850939692959293505050565b600080600060608486031215613b5757600080fd5b8335613b628161385d565b92506020840135613b728161385d565b929592945050506040919091013590565b60008060008060008060008060006101008a8c031215613ba257600080fd5b8935613bad8161385d565b985060208a0135613bbd8161385d565b975060408a0135613bcd8161385d565b965060608a0135955060808a0135945060a08a0135935060c08a0135613bf28161385d565b925060e08a013567ffffffffffffffff811115613c0e57600080fd5b613c1a8c828d01613875565b915080935050809150509295985092959850929598565b60008060008060808587031215613c4757600080fd5b8435613c528161385d565b9350602085013592506040850135613c698161385d565b9396929550929360600135925050565b60008060408385031215613c8c57600080fd5b8235613c978161385d565b91506020830135613ca78161385d565b809150509250929050565b60008060008060008060008060e0898b031215613cce57600080fd5b8835613cd98161385d565b97506020890135613ce98161385d565b96506040890135613cf98161385d565b95506060890135613d098161385d565b94506080890135935060a0890135925060c089013567ffffffffffffffff811115613a2e57600080fd5b600080600060608486031215613d4857600080fd5b8335613d538161385d565b9250602084013591506040840135613d6a8161385d565b809150509250925092565b60008060008060008060a08789031215613d8e57600080fd5b8635613d998161385d565b9550602087013594506040870135935060608701359250608087013567ffffffffffffffff81111561391c57600080fd5b801515811461387257600080fd5b60008060008060008060a08789031215613df157600080fd5b8635613dfc8161385d565b95506020870135613e0c8161385d565b9450604087013593506060870135613e2381613dca565b9250608087013567ffffffffffffffff81111561391c57600080fd5b6000806000806000806000806000806101208b8d031215613e5f57600080fd5b8a35613e6a8161385d565b995060208b0135613e7a8161385d565b985060408b0135613e8a8161385d565b975060608b0135613e9a8161385d565b965060808b0135955060a08b0135945060c08b0135935060e08b0135613ebf81613dca565b92506101008b013567ffffffffffffffff811115613edc57600080fd5b613ee88d828e01613875565b915080935050809150509295989b9194979a5092959850565b600080600060608486031215613f1657600080fd5b8335613f218161385d565b95602085013595506040909401359392505050565b60008060008060608587031215613f4c57600080fd5b8435613f578161385d565b935060208501359250604085013567ffffffffffffffff811115613a9b57600080fd5b60008060008060008060a08789031215613f9357600080fd5b8635613f9e8161385d565b95506020870135613fae8161385d565b9450604087013593506060870135613e238161385d565b81835281816020850137506000828201602090810191909152601f909101601f19169091010190565b85815260018060a01b038516602082015283604082015260806060820152600061401c608083018486613fc5565b979650505050505050565b60006020828403121561403957600080fd5b81516140448161385d565b9392505050565b60006020828403121561405d57600080fd5b5051919050565b6000806040838503121561407757600080fd5b505080516020909101519092909150565b634e487b7160e01b600052601160045260246000fd5b6000600160ff1b82016140b3576140b3614088565b5060000390565b60018060a01b03851681528360208201526060604082015260006140e2606083018486613fc5565b9695505050505050565b6001600160a01b03929092168252602082015260400190565b6020808252602a908201527f436f6c6c61746572616c506f6f6c436f6e6669672f7a65726f2d706f736974696040820152696f6e2d6164647265737360b01b606082015260800190565b85815284602082015283604082015260806060820152600061401c608083018486613fc5565b8481526001600160a01b03841660208201526060604082018190526000906140e29083018486613fc5565b80820281158282048414176133b4576133b4614088565b818103818111156133b4576133b4614088565b6000826141e757634e487b7160e01b600052601260045260246000fd5b500490565b808201808211156133b4576133b4614088565b60006020828403121561421157600080fd5b815160ff8116811461404457600080fd5b600181815b8085111561425d57816000190482111561424357614243614088565b8085161561425057918102915b93841c9390800290614227565b509250929050565b600082614274575060016133b4565b81614281575060006133b4565b816001811461429757600281146142a1576142bd565b60019150506133b4565b60ff8411156142b2576142b2614088565b50506001821b6133b4565b5060208310610133831016604e8410600b84101617156142e0575081810a6133b4565b6142ea8383614222565b80600019048211156142fe576142fe614088565b029392505050565b60006140448383614265565b6000825160005b818110156143335760208186018101518583015201614319565b506000920191825250919050565b60006020828403121561435357600080fd5b815161404481613dca565b808201828112600083128015821682158216171561437e5761437e614088565b50509291505056fe445146cd84cf386cadbd440abe38a3aeed2d4998f099e6e93d5d02529614ff58a26469706673582212200456a8b321adcc08e88246f86dc9a4c99e1be9f3f1a289f8c9a5964931e39aba64736f6c63430008110033",
    "immutableReferences": {
        "11159": [
            {
                "length": 32,
                "start": 1348
            },
            {
                "length": 32,
                "start": 1511
            },
            {
                "length": 32,
                "start": 1709
            },
            {
                "length": 32,
                "start": 2636
            },
            {
                "length": 32,
                "start": 3006
            },
            {
                "length": 32,
                "start": 3894
            },
            {
                "length": 32,
                "start": 4048
            },
            {
                "length": 32,
                "start": 4932
            },
            {
                "length": 32,
                "start": 5227
            },
            {
                "length": 32,
                "start": 5392
            },
            {
                "length": 32,
                "start": 5533
            },
            {
                "length": 32,
                "start": 6428
            },
            {
                "length": 32,
                "start": 6604
            },
            {
                "length": 32,
                "start": 6709
            },
            {
                "length": 32,
                "start": 6808
            },
            {
                "length": 32,
                "start": 7161
            },
            {
                "length": 32,
                "start": 7257
            },
            {
                "length": 32,
                "start": 7355
            },
            {
                "length": 32,
                "start": 7461
            },
            {
                "length": 32,
                "start": 7566
            },
            {
                "length": 32,
                "start": 7669
            },
            {
                "length": 32,
                "start": 7768
            },
            {
                "length": 32,
                "start": 7927
            },
            {
                "length": 32,
                "start": 8033
            },
            {
                "length": 32,
                "start": 8111
            },
            {
                "length": 32,
                "start": 9106
            },
            {
                "length": 32,
                "start": 10450
            },
            {
                "length": 32,
                "start": 11546
            }
        ]
    },
    "source": "// SPDX-License-Identifier: AGPL-3.0-or-later\npragma solidity 0.8.17;\n\nimport \"../interfaces/IBookKeeper.sol\";\nimport \"../interfaces/IWXDC.sol\";\nimport \"../interfaces/IToken.sol\";\nimport \"../interfaces/IManager.sol\";\nimport \"../interfaces/IGenericTokenAdapter.sol\";\nimport \"../interfaces/IStablecoinAdapter.sol\";\nimport \"../interfaces/IStabilityFeeCollector.sol\";\nimport \"../interfaces/IProxyRegistry.sol\";\nimport \"../interfaces/IProxy.sol\";\nimport \"../utils/SafeToken.sol\";\nimport \"../utils/CommonMath.sol\";\n\n/// @notice WARNING: These functions meant to be used as a library for a Proxy.\n/// @notice DO NOT CALL ANY FUNCTION IN THIS CONTRACT DIRECTLY.\n/// @notice Hence, it shouldn't has any state variables. Some are unsafe if you call them directly.\ncontract FathomStablecoinProxyActions is CommonMath {\n    using SafeToken for address;\n\n    // solhint-disable\n    event LogBorrowedAmount(address _positionAddress, uint256 _FXDBorrowAmount);\n    event LogPaidAmount(address _positionAddress, uint256 _FXDPaidAmount);\n    // solhint-enable\n\n    address immutable internal self = address(this);\n\n    modifier onlyDelegateCall() {\n        require(address(this) != self);\n        _;\n    }\n\n    function whitelist(address _bookKeeper, address _usr) external onlyDelegateCall {\n        IBookKeeper(_bookKeeper).whitelist(_usr);\n    }\n\n    function blacklist(address _bookKeeper, address _usr) external onlyDelegateCall {\n        IBookKeeper(_bookKeeper).blacklist(_usr);\n    }\n\n    function allowManagePosition(address _manager, uint256 _positionId, address _user, uint256 _ok) external {\n        IManager(_manager).allowManagePosition(_positionId, _user, _ok);\n    }\n\n    function allowMigratePosition(address _manager, address _user, uint256 _ok) external onlyDelegateCall {\n        IManager(_manager).allowMigratePosition(_user, _ok);\n    }\n\n    function exportPosition(address _manager, uint256 _positionId, address _destination) external onlyDelegateCall {\n        IManager(_manager).exportPosition(_positionId, _destination);\n    }\n\n    function importPosition(address _manager, address _source, uint256 _positionId) external onlyDelegateCall {\n        IManager(_manager).importPosition(_source, _positionId);\n    }\n\n    function movePosition(address _manager, uint256 _source, uint256 _destination) external onlyDelegateCall {\n        IManager(_manager).movePosition(_source, _destination);\n    }\n\n    function safeLockXDC(address _manager, address _xdcAdapter, uint256 _positionId, address _owner, bytes calldata _data) external payable onlyDelegateCall {\n        require(IManager(_manager).owners(_positionId) == _owner, \"!owner\");\n        lockXDC(_manager, _xdcAdapter, _positionId, _data);\n    }\n\n    function draw(\n        address _manager,\n        address _stabilityFeeCollector,\n        address _stablecoinAdapter,\n        uint256 _positionId,\n        uint256 _amount, // [wad]\n        bytes calldata _data\n    ) external onlyDelegateCall {\n        address _positionAddress = IManager(_manager).positions(_positionId);\n        address _bookKeeper = IManager(_manager).bookKeeper();\n        bytes32 _collateralPoolId = IManager(_manager).collateralPools(_positionId);\n        // Generates debt in the CDP\n        adjustPosition(\n            _manager,\n            _positionId,\n            0,\n            _getDrawDebtShare(_bookKeeper, _stabilityFeeCollector, _positionAddress, _collateralPoolId, _amount),\n            _data\n        );\n\n        moveStablecoin(_manager, _positionId, address(this), toRad(_amount)); // Moves the Fathom Stablecoin amount (balance in the bookKeeper in rad) to proxy's address\n\n        // Allows adapter to access to proxy's Fathom Stablecoin balance in the bookKeeper\n        if (IBookKeeper(_bookKeeper).positionWhitelist(address(this), address(_stablecoinAdapter)) == 0) {\n            IBookKeeper(_bookKeeper).whitelist(_stablecoinAdapter);\n        }\n\n        IStablecoinAdapter(_stablecoinAdapter).withdraw(msg.sender, _amount, _data); // Withdraws Fathom Stablecoin to the user's wallet as a token\n        IManager(_manager).updatePrice(_collateralPoolId);\n\n        emit LogBorrowedAmount(_positionAddress, _amount);\n    }\n\n    function openLockXDCAndDraw(\n        address _manager,\n        address _stabilityFeeCollector,\n        address _xdcAdapter,\n        address _stablecoinAdapter,\n        bytes32 _collateralPoolId,\n        uint256 _stablecoinAmount, // [wad]\n        bytes calldata _data\n    ) external payable onlyDelegateCall returns (uint256 _positionId) {\n        _positionId = open(_manager, _collateralPoolId, address(this));\n        lockXDCAndDraw(_manager, _stabilityFeeCollector, _xdcAdapter, _stablecoinAdapter, _positionId, _stablecoinAmount, _data);\n    }\n\n    function wipeAndUnlockXDC(\n        address _manager,\n        address _xdcAdapter,\n        address _stablecoinAdapter,\n        uint256 _positionId,\n        uint256 _collateralAmount, // [wad]\n        uint256 _stablecoinAmount, // [wad]\n        address _stabilityFeeCollector,\n        bytes calldata _data\n    ) external onlyDelegateCall {\n        address _positionAddress = IManager(_manager).positions(_positionId);\n        bytes32 _collateralPoolId = IManager(_manager).collateralPools(_positionId);\n        stablecoinAdapterDeposit(_stablecoinAdapter, _positionAddress, _stablecoinAmount, _data); // Deposits Fathom Stablecoin amount into the bookKeeper\n        // Paybacks debt to the position and unlocks WXDC amount from it\n        int256 _wipeDebtShare = _getWipeDebtShare(\n            IManager(_manager).bookKeeper(),\n            IBookKeeper(IManager(_manager).bookKeeper()).stablecoin(_positionAddress),\n            _positionAddress,\n            _collateralPoolId,\n            _stabilityFeeCollector\n        ); // [wad]\n        adjustPosition(_manager, _positionId, -int256(_collateralAmount), _wipeDebtShare, _data);\n        if (_collateralAmount > 0) {\n            moveCollateral(_manager, _positionId, address(this), _collateralAmount, _data); // Moves the amount from the position to proxy's address\n            IGenericTokenAdapter(_xdcAdapter).withdraw(address(this), _collateralAmount, _data); // Withdraws WXDC amount to proxy address as a token\n            IWXDC(address(IGenericTokenAdapter(_xdcAdapter).collateralToken())).withdraw(_collateralAmount); // Converts WXDC to XDC\n            SafeToken.safeTransferETH(msg.sender, _collateralAmount); // Send XDC to user\n        }\n        IManager(_manager).updatePrice(_collateralPoolId);\n\n        emit LogPaidAmount(_positionAddress, _stablecoinAmount);\n    }\n\n    function wipeAllAndUnlockXDC(\n        address _manager,\n        address _xdcAdapter,\n        address _stablecoinAdapter,\n        uint256 _positionId,\n        uint256 _collateralAmount, // [wad]\n        address _stabilityFeeCollector,\n        bytes calldata _data\n    ) external onlyDelegateCall {\n        address _bookKeeper = IManager(_manager).bookKeeper();\n        address _positionAddress = IManager(_manager).positions(_positionId);\n        bytes32 _collateralPoolId = IManager(_manager).collateralPools(_positionId);\n        (, uint256 _debtShare) = IBookKeeper(_bookKeeper).positions(_collateralPoolId, _positionAddress); // [wad]\n\n        uint256 _requiredStablecoinAmount = _getWipeAllStablecoinAmount(\n            _bookKeeper, \n            _positionAddress, \n            _positionAddress, \n            _collateralPoolId, \n            _stabilityFeeCollector\n        );\n        // Deposits Fathom Stablecoin amount into the bookKeeper\n        stablecoinAdapterDeposit(_stablecoinAdapter, _positionAddress, _requiredStablecoinAmount, _data);\n        adjustPosition(_manager, _positionId, -int256(_collateralAmount), -int256(_debtShare), _data); // Paybacks debt to the CDP and unlocks WXDC amount from it\n        if (_collateralAmount > 0) {\n            moveCollateral(_manager, _positionId, address(this), _collateralAmount, _data); // Moves the amount from the CDP positionAddress to proxy's address\n            IGenericTokenAdapter(_xdcAdapter).withdraw(address(this), _collateralAmount, _data);\n            IWXDC(address(IGenericTokenAdapter(_xdcAdapter).collateralToken())).withdraw(_collateralAmount); // Converts WXDC to XDC\n            SafeToken.safeTransferETH(msg.sender, _collateralAmount); // Send XDC to user\n        }\n        IManager(_manager).updatePrice(_collateralPoolId);\n\n        emit LogPaidAmount(_positionAddress, _requiredStablecoinAmount);\n    }\n\n    function redeemLockedCollateral(address _manager, uint256 _positionId, bytes calldata _data) external onlyDelegateCall {\n        IManager(_manager).redeemLockedCollateral(_positionId, address(this), _data);\n    }\n\n    function emergencyWithdraw(address _adapter, address _to) external onlyDelegateCall {\n        IGenericTokenAdapter(_adapter).emergencyWithdraw(_to);\n    }\n\n    /// @param _adapter The address of stablecoin adapter\n    /// @param _positionAddress The address of the Position Handler\n    /// @param _stablecoinAmount The amount in wad to be deposit to Stablecoin adapter [wad]\n    /// @param _data The extra data for stable adapter context\n    function stablecoinAdapterDeposit(\n        address _adapter,\n        address _positionAddress,\n        uint256 _stablecoinAmount, // [wad]\n        bytes calldata _data\n    ) public onlyDelegateCall {\n        require(_positionAddress != address(0), \"CollateralPoolConfig/zero-position-address\");\n        address _stablecoin = address(IStablecoinAdapter(_adapter).stablecoin());\n        // Gets Fathom Stablecoin from the user's wallet\n        _stablecoin.safeTransferFrom(msg.sender, address(this), _stablecoinAmount);\n\n        // Approves adapter to take the Fathom Stablecoin amount\n        _stablecoin.safeApprove(_adapter, _stablecoinAmount);\n        // Deposits Fathom Stablecoin into the bookKeeper\n        IStablecoinAdapter(_adapter).deposit(_positionAddress, _stablecoinAmount, _data);\n    }\n\n    function xdcAdapterDeposit(address _adapter, address _positionAddress, bytes calldata _data) public payable onlyDelegateCall {\n        //##back to Vanilla - Adapter now needs to have collateralToken state variable added\n        address _collateralToken = address(IGenericTokenAdapter(_adapter).collateralToken());\n        // Wraps XDC into WXDC\n        IWXDC(_collateralToken).deposit{ value: msg.value }();\n        // Approves adapter to take the WXDC amount\n        _collateralToken.safeApprove(address(_adapter), msg.value);\n        // Deposits WXDC collateral into the bookKeeper\n        IGenericTokenAdapter(_adapter).deposit(_positionAddress, msg.value, _data);\n    }\n\n    function tokenAdapterDeposit(\n        address _adapter,\n        address _positionAddress,\n        uint256 _amount, // [wad]\n        bool _transferFrom,\n        bytes calldata _data\n    ) public onlyDelegateCall {\n        require(_positionAddress != address(0), \"CollateralPoolConfig/zero-position-address\");\n        address _collateralToken = address(IGenericTokenAdapter(_adapter).collateralToken());\n\n        // Only executes for tokens that have approval/transferFrom implementation\n        if (_transferFrom) {\n            // Gets token from the user's wallet\n            _collateralToken.safeTransferFrom(msg.sender, address(this), _amount);\n        }\n        // Approves adapter to take the token amount\n        _collateralToken.safeApprove(_adapter, _amount);\n        // Deposits token collateral into the bookKeeper\n        IGenericTokenAdapter(_adapter).deposit(_positionAddress, _amount, _data);\n    }\n\n    function transfer(address _collateralToken, address _dst, uint256 _amt) public onlyDelegateCall {\n        address(_collateralToken).safeTransfer(_dst, _amt);\n    }\n\n    function open(address _manager, bytes32 _collateralPoolId, address _usr) public onlyDelegateCall returns (uint256 _positionId) {\n        _positionId = IManager(_manager).open(_collateralPoolId, _usr);\n    }\n\n    function transferOwnership(address _manager, uint256 _positionId, address _usr) public onlyDelegateCall {\n        IManager(_manager).give(_positionId, _usr);\n    }\n\n    function adjustPosition(\n        address _manager,\n        uint256 _positionId,\n        int256 _collateralValue,\n        int256 _debtShare, // [wad]\n        bytes calldata _data\n    ) public onlyDelegateCall {\n        IManager(_manager).adjustPosition(_positionId, _collateralValue, _debtShare, _data);\n    }\n\n    function moveCollateral(\n        address _manager,\n        uint256 _positionId,\n        address _dst,\n        uint256 _collateralAmount,\n        bytes calldata _data\n    ) public onlyDelegateCall {\n        IManager(_manager).moveCollateral(_positionId, _dst, _collateralAmount, _data);\n    }\n\n    function moveStablecoin(\n        address _manager,\n        uint256 _positionId,\n        address _dst,\n        uint256 _stablecoinValue // [rad]\n    ) public onlyDelegateCall {\n        IManager(_manager).moveStablecoin(_positionId, _dst, _stablecoinValue);\n    }\n\n    function lockXDC(address _manager, address _xdcAdapter, uint256 _positionId, bytes calldata _data) public payable onlyDelegateCall {\n        address _positionAddress = IManager(_manager).positions(_positionId);\n        xdcAdapterDeposit(_xdcAdapter, _positionAddress, _data);\n        adjustPosition(_manager, _positionId, int256(msg.value), 0, _data); // Locks XDC amount into the CDP\n    }\n\n    function lockXDCAndDraw(\n        address _manager,\n        address _stabilityFeeCollector,\n        address _xdcAdapter,\n        address _stablecoinAdapter,\n        uint256 _positionId,\n        uint256 _stablecoinAmount, // [wad]\n        bytes calldata _data\n    ) public payable onlyDelegateCall {\n        address _positionAddress = IManager(_manager).positions(_positionId);\n        address _bookKeeper = IManager(_manager).bookKeeper();\n        bytes32 _collateralPoolId = IManager(_manager).collateralPools(_positionId);\n\n        xdcAdapterDeposit(_xdcAdapter, _positionAddress, _data);\n        adjustPosition(\n            _manager,\n            _positionId,\n            int256(msg.value),\n            _getDrawDebtShare(_bookKeeper, _stabilityFeeCollector, _positionAddress, _collateralPoolId, _stablecoinAmount),\n            _data\n        );\n        // Moves the Fathom Stablecoin amount (balance in the bookKeeper in rad) to proxy's address\n        moveStablecoin(_manager, _positionId, address(this), toRad(_stablecoinAmount));\n        // Allows adapter to access to proxy's Fathom Stablecoin balance in the bookKeeper\n        if (IBookKeeper(_bookKeeper).positionWhitelist(address(this), address(_stablecoinAdapter)) == 0) {\n            IBookKeeper(_bookKeeper).whitelist(_stablecoinAdapter);\n        }\n        // Withdraws Fathom Stablecoin to the user's wallet as a token\n        IStablecoinAdapter(_stablecoinAdapter).withdraw(msg.sender, _stablecoinAmount, _data);\n        IManager(_manager).updatePrice(_collateralPoolId);\n\n        emit LogBorrowedAmount(_positionAddress, _stablecoinAmount);\n    }\n\n    function lockTokenAndDraw(\n        IManager _manager,\n        address _stabilityFeeCollector,\n        address _tokenAdapter,\n        address _stablecoinAdapter,\n        uint256 _positionId,\n        uint256 _collateralAmount, // [in token decimal]\n        uint256 _stablecoinAmount, // [wad]\n        bool _transferFrom,\n        bytes calldata _data\n    ) public onlyDelegateCall {\n        bytes32 _collateralPoolId = _manager.collateralPools(_positionId);\n        // Takes token amount from user's wallet and joins into the bookKeeper\n        tokenAdapterDeposit(_tokenAdapter, _manager.positions(_positionId), _collateralAmount, _transferFrom, _data);\n        // Locks token amount into the position and generates debt\n        int256 _collateralAmountInWad = int256(_convertTo18(_tokenAdapter, _collateralAmount));\n        int256 _drawDebtShare = _getDrawDebtShare(\n            _manager.bookKeeper(),\n            _stabilityFeeCollector,\n            _manager.positions(_positionId),\n            _collateralPoolId,\n            _stablecoinAmount\n        ); // [wad]\n        adjustPosition(address(_manager), _positionId, _collateralAmountInWad, _drawDebtShare, _data);\n        // Moves the Fathom Stablecoin amount (balance in the bookKeeper in rad) to proxy's address\n        moveStablecoin(address(_manager), _positionId, address(this), toRad(_stablecoinAmount));\n        // Allows adapter to access to proxy's Fathom Stablecoin balance in the bookKeeper\n        if (IBookKeeper(_manager.bookKeeper()).positionWhitelist(address(this), address(_stablecoinAdapter)) == 0) {\n            IBookKeeper(_manager.bookKeeper()).whitelist(_stablecoinAdapter);\n        }\n        // Withdraws FXD to the user's wallet as a token\n        IStablecoinAdapter(_stablecoinAdapter).withdraw(msg.sender, _stablecoinAmount, _data);\n\n        address _positionAddress = IManager(_manager).positions(_positionId);\n        IManager(_manager).updatePrice(_collateralPoolId);\n        \n        emit LogBorrowedAmount(_positionAddress, _stablecoinAmount);\n    }\n\n    function openLockTokenAndDraw(\n        address _manager,\n        address _stabilityFeeCollector,\n        address _tokenAdapter,\n        address _stablecoinAdapter,\n        bytes32 _collateralPoolId,\n        uint256 _collateralAmount, // [in token decimal]\n        uint256 _stablecoinAmount, // [wad]\n        bool _transferFrom,\n        bytes calldata _data\n    ) public onlyDelegateCall returns (uint256 _positionId) {\n        _positionId = open(_manager, _collateralPoolId, address(this));\n        lockTokenAndDraw(\n            IManager(_manager),\n            _stabilityFeeCollector,\n            _tokenAdapter,\n            _stablecoinAdapter,\n            _positionId,\n            _collateralAmount,\n            _stablecoinAmount,\n            _transferFrom,\n            _data\n        );\n    }\n\n    function wipeAndUnlockToken(\n        address _manager,\n        address _tokenAdapter,\n        address _stablecoinAdapter,\n        uint256 _positionId,\n        uint256 _collateralAmount, // [in token decimal]\n        uint256 _stablecoinAmount, // [wad]\n        address _stabilityFeeCollector,\n        bytes calldata _data\n    ) public onlyDelegateCall {\n        address _positionAddress = IManager(_manager).positions(_positionId);\n        bytes32 _collateralPoolId = IManager(_manager).collateralPools(_positionId);\n        // Deposits Fathom Stablecoin amount into the bookKeeper\n        stablecoinAdapterDeposit(_stablecoinAdapter, _positionAddress, _stablecoinAmount, _data);\n        uint256 _collateralAmountInWad = _convertTo18(_tokenAdapter, _collateralAmount);\n        // Paybacks debt to the CDP and unlocks token amount from it\n        int256 _wipeDebtShare = _getWipeDebtShare(\n            IManager(_manager).bookKeeper(),\n            IBookKeeper(IManager(_manager).bookKeeper()).stablecoin(_positionAddress),\n            _positionAddress,\n            _collateralPoolId,\n            _stabilityFeeCollector\n        );\n        adjustPosition(_manager, _positionId, -int256(_collateralAmountInWad), _wipeDebtShare, _data);\n        if (_collateralAmount > 0) {\n            moveCollateral(_manager, _positionId, address(this), _collateralAmountInWad, _data); // Moves the amount from the position to proxy's address\n            IGenericTokenAdapter(_tokenAdapter).withdraw(msg.sender, _collateralAmount, _data); // Withdraws token amount to the user's wallet as a token\n        }\n        IManager(_manager).updatePrice(_collateralPoolId);\n\n        emit LogPaidAmount(_positionAddress, _stablecoinAmount);\n    }\n\n    function wipeAllAndUnlockToken(\n        address _manager,\n        address _tokenAdapter,\n        address _stablecoinAdapter,\n        uint256 _positionId,\n        uint256 _collateralAmount, // [token decimal]\n        address _stabilityFeeCollector,\n        bytes calldata _data\n    ) public onlyDelegateCall {\n        address _positionAddress = IManager(_manager).positions(_positionId);\n        bytes32 _collateralPoolId = IManager(_manager).collateralPools(_positionId);\n        (, uint256 _debtShare) = IBookKeeper(IManager(_manager).bookKeeper()).positions(_collateralPoolId, _positionAddress);\n\n        uint256 _requiredStablecoinAmount = _getWipeAllStablecoinAmount(\n            IManager(_manager).bookKeeper(),\n            _positionAddress,\n            _positionAddress,\n            _collateralPoolId,\n            _stabilityFeeCollector\n        );\n        // Deposits Fathom Stablecoin amount into the bookKeeper\n        stablecoinAdapterDeposit(_stablecoinAdapter, _positionAddress, _requiredStablecoinAmount, _data);\n        uint256 _collateralAmountInWad = _convertTo18(_tokenAdapter, _collateralAmount);\n        // Paybacks debt to the position and unlocks token amount from it\n        adjustPosition(_manager, _positionId, -int256(_collateralAmountInWad), -int256(_debtShare), _data);\n        if (_collateralAmount > 0) {\n            moveCollateral(_manager, _positionId, address(this), _collateralAmountInWad, _data); // Moves the amount from the position to proxy's address\n            IGenericTokenAdapter(_tokenAdapter).withdraw(msg.sender, _collateralAmount, _data); // Withdraws token amount to the user's wallet as a token\n        }\n        IManager(_manager).updatePrice(_collateralPoolId);\n\n        emit LogPaidAmount(_positionAddress, _requiredStablecoinAmount);\n    }\n\n    function _getDrawDebtShare(\n        address _bookKeeper,\n        address _stabilityFeeCollector,\n        address _positionAddress,\n        bytes32 _collateralPoolId,\n        uint256 _stablecoinAmount // [wad]\n    ) internal returns (int256 _resultDebtShare) {\n        uint256 _debtAccumulatedRate = IStabilityFeeCollector(_stabilityFeeCollector).collect(_collateralPoolId); // [ray]. Updates stability fee rate\n        uint256 _positionStablecoinValue = IBookKeeper(_bookKeeper).stablecoin(_positionAddress); // [rad]. Gets Fathom Stablecoin balance of the positionAddress in the bookKeeper\n\n        // If there was already enough Fathom Stablecoin in the bookKeeper balance, just exits it without adding more debt\n        if (_positionStablecoinValue < toRad(_stablecoinAmount)) {\n            // Calculates the needed resultDebtShare so together with the existing positionStablecoinValue in the bookKeeper is enough to exit stablecoinAmount of Fathom Stablecoin tokens\n            _resultDebtShare = int256((toRad(_stablecoinAmount) - _positionStablecoinValue) / _debtAccumulatedRate);\n            // This is neeeded due lack of precision. It might need to sum an extra resultDebtShare wei (for the given Fathom Stablecoin stablecoinAmount)\n            _resultDebtShare = (uint256(_resultDebtShare) * _debtAccumulatedRate) < toRad(_stablecoinAmount)\n                ? _resultDebtShare + 1\n                : _resultDebtShare;\n        }\n    }\n\n    function _convertTo18(address _tokenAdapter, uint256 _amt) internal returns (uint256 _wad) {\n        // For those collaterals that have less than 18 decimals precision we need to do the conversion before passing to adjustPosition function\n        // Adapters will automatically handle the difference of precision\n        uint256 decimals = IToken(IGenericTokenAdapter(_tokenAdapter).collateralToken()).decimals();\n        _wad = decimals < 18 ? _amt * (10 ** (18 - decimals)) : _amt / (10 ** (decimals - 18));\n    }\n\n    function _getWipeDebtShare(\n        address _bookKeeper,\n        uint256 _stablecoinValue, // [rad]\n        address _positionAddress,\n        bytes32 _collateralPoolId,\n        address _stabilityFeeCollector\n    ) internal returns (int256 _resultDebtShare) {\n        uint256 _debtAccumulatedRate = IStabilityFeeCollector(_stabilityFeeCollector).collect(_collateralPoolId); // [ray]. Updates stability fee rate\n        (, uint256 _debtShare) = IBookKeeper(_bookKeeper).positions(_collateralPoolId, _positionAddress); // [wad]. // Gets actual debtShare value of the positionAddress\n\n        _resultDebtShare = int256(_stablecoinValue / _debtAccumulatedRate); // [wad]. // Uses the whole stablecoin balance in the bookKeeper to reduce the debt\n        // [wad]. // Checks the calculated resultDebtShare is not higher than positionAddress.art (total debt), otherwise uses its value\n        _resultDebtShare = uint256(_resultDebtShare) <= _debtShare ? -_resultDebtShare : -int256(_debtShare);\n    }\n\n    function _getWipeAllStablecoinAmount(\n        address _bookKeeper,\n        address _usr,\n        address _positionAddress,\n        bytes32 _collateralPoolId,\n        address _stabilityFeeCollector\n    ) internal returns (uint256 _requiredStablecoinAmount) {\n        uint256 _debtAccumulatedRate = IStabilityFeeCollector(_stabilityFeeCollector).collect(_collateralPoolId); // [ray]. Updates stability fee rate\n        (, uint256 _debtShare) = IBookKeeper(_bookKeeper).positions(_collateralPoolId, _positionAddress); // [wad]. Gets actual debtShare value of the positionAddress\n        uint256 _stablecoinValue = IBookKeeper(_bookKeeper).stablecoin(_usr); // [rad]. Gets actual stablecoin amount in the usr\n\n        uint256 _positionDebtValue = _debtShare * _debtAccumulatedRate;\n        uint256 _requiredStablecoinValue = _positionDebtValue >= _stablecoinValue ? _positionDebtValue - _stablecoinValue : 0; // [rad]\n        _requiredStablecoinAmount = _requiredStablecoinValue / RAY; // [wad] = [rad]/[ray]\n\n        // If the value precision has some dust, it will need to request for 1 extra amount wei\n        _requiredStablecoinAmount = toRad(_requiredStablecoinAmount) < _requiredStablecoinValue\n            ? _requiredStablecoinAmount + 1\n            : _requiredStablecoinAmount;\n    }\n}\n",
    "sourcePath": "/Users/sangjun.lee/Sangjun/fathom-stablecoin-smart-contracts/contracts/main/proxy-actions/FathomStablecoinProxyActions.sol",
    "compiler": {
        "name": "solc",
        "version": "0.8.17+commit.8df45f5f.Emscripten.clang"
    },
    "schemaVersion": "3.4.10",
    "updatedAt": "2023-07-25T11:12:21.173Z",
    "devdoc": {
        "kind": "dev",
        "methods": {
            "stablecoinAdapterDeposit(address,address,uint256,bytes)": {
                "params": {
                    "_adapter": "The address of stablecoin adapter",
                    "_data": "The extra data for stable adapter context",
                    "_positionAddress": "The address of the Position Handler",
                    "_stablecoinAmount": "The amount in wad to be deposit to Stablecoin adapter [wad]"
                }
            }
        },
        "version": 1
    },
    "userdoc": {
        "kind": "user",
        "methods": {},
        "notice": "WARNING: These functions meant to be used as a library for a Proxy.DO NOT CALL ANY FUNCTION IN THIS CONTRACT DIRECTLY.Hence, it shouldn't has any state variables. Some are unsafe if you call them directly.",
        "version": 1
    }
}