{
  "_format": "hh-sol-artifact-1",
  "contractName": "GetPositions",
  "sourceName": "contracts/6.12/managers/GetPositions.sol",
  "abi": [
    {
      "inputs": [
        {
          "internalType": "address",
          "name": "_manager",
          "type": "address"
        },
        {
          "internalType": "address",
          "name": "_user",
          "type": "address"
        }
      ],
      "name": "getAllPositionsAsc",
      "outputs": [
        {
          "internalType": "uint256[]",
          "name": "_ids",
          "type": "uint256[]"
        },
        {
          "internalType": "address[]",
          "name": "_positions",
          "type": "address[]"
        },
        {
          "internalType": "bytes32[]",
          "name": "_collateralPools",
          "type": "bytes32[]"
        }
      ],
      "stateMutability": "view",
      "type": "function"
    },
    {
      "inputs": [
        {
          "internalType": "address",
          "name": "_manager",
          "type": "address"
        },
        {
          "internalType": "address",
          "name": "_user",
          "type": "address"
        }
      ],
      "name": "getAllPositionsDesc",
      "outputs": [
        {
          "internalType": "uint256[]",
          "name": "",
          "type": "uint256[]"
        },
        {
          "internalType": "address[]",
          "name": "",
          "type": "address[]"
        },
        {
          "internalType": "bytes32[]",
          "name": "",
          "type": "bytes32[]"
        }
      ],
      "stateMutability": "view",
      "type": "function"
    },
    {
      "inputs": [
        {
          "internalType": "address",
          "name": "_manager",
          "type": "address"
        },
        {
          "internalType": "uint256",
          "name": "_startIndex",
          "type": "uint256"
        },
        {
          "internalType": "uint256",
          "name": "_offset",
          "type": "uint256"
        }
      ],
      "name": "getPositionWithSafetyBuffer",
      "outputs": [
        {
          "internalType": "address[]",
          "name": "_positions",
          "type": "address[]"
        },
        {
          "internalType": "uint256[]",
          "name": "_debtShares",
          "type": "uint256[]"
        },
        {
          "internalType": "uint256[]",
          "name": "_safetyBuffers",
          "type": "uint256[]"
        }
      ],
      "stateMutability": "view",
      "type": "function"
    },
    {
      "inputs": [
        {
          "internalType": "address",
          "name": "_manager",
          "type": "address"
        },
        {
          "internalType": "uint256",
          "name": "_fromId",
          "type": "uint256"
        },
        {
          "internalType": "uint256",
          "name": "_size",
          "type": "uint256"
        }
      ],
      "name": "getPositionsAsc",
      "outputs": [
        {
          "internalType": "uint256[]",
          "name": "_ids",
          "type": "uint256[]"
        },
        {
          "internalType": "address[]",
          "name": "_positions",
          "type": "address[]"
        },
        {
          "internalType": "bytes32[]",
          "name": "_collateralPools",
          "type": "bytes32[]"
        }
      ],
      "stateMutability": "view",
      "type": "function"
    },
    {
      "inputs": [
        {
          "internalType": "address",
          "name": "_manager",
          "type": "address"
        },
        {
          "internalType": "uint256",
          "name": "_fromId",
          "type": "uint256"
        },
        {
          "internalType": "uint256",
          "name": "_size",
          "type": "uint256"
        }
      ],
      "name": "getPositionsDesc",
      "outputs": [
        {
          "internalType": "uint256[]",
          "name": "",
          "type": "uint256[]"
        },
        {
          "internalType": "address[]",
          "name": "",
          "type": "address[]"
        },
        {
          "internalType": "bytes32[]",
          "name": "",
          "type": "bytes32[]"
        }
      ],
      "stateMutability": "view",
      "type": "function"
    }
  ],
  "bytecode": "0x608060405234801561001057600080fd5b5061119a806100206000396000f3fe608060405234801561001057600080fd5b50600436106100575760003560e01c806313286b2b1461005c57806377d0560714610087578063833175d21461009a578063e64cfdae146100bc578063ed5d876a146100cf575b600080fd5b61006f61006a366004610f8c565b6100e2565b60405161007e939291906110c4565b60405180910390f35b61006f610095366004610f8c565b610101565b6100ad6100a8366004610f8c565b610111565b60405161007e93929190611081565b61006f6100ca366004610f54565b610768565b61006f6100dd366004610f54565b610887565b60608060606100f2868686610997565b92509250925093509350939050565b60608060606100f2868686610c56565b6060806060856001600160a01b031663583545026040518163ffffffff1660e01b815260040160206040518083038186803b15801561014f57600080fd5b505afa158015610163573d6000803e3d6000fd5b505050506040513d601f19601f820116820180604052508101906101879190610fc0565b84860111156102095784866001600160a01b031663583545026040518163ffffffff1660e01b815260040160206040518083038186803b1580156101ca57600080fd5b505afa1580156101de573d6000803e3d6000fd5b505050506040513d601f19601f820116820180604052508101906102029190610fc0565b0360010193505b6000866001600160a01b031663e3b3932a6040518163ffffffff1660e01b815260040160206040518083038186803b15801561024457600080fd5b505afa158015610258573d6000803e3d6000fd5b505050506040513d601f19601f8201168201806040525081019061027c9190610f31565b90508467ffffffffffffffff8111801561029557600080fd5b506040519080825280602002602001820160405280156102bf578160200160208202803683370190505b5093508467ffffffffffffffff811180156102d957600080fd5b50604051908082528060200260200182016040528015610303578160200160208202803683370190505b5092508467ffffffffffffffff8111801561031d57600080fd5b50604051908082528060200260200182016040528015610347578160200160208202803683370190505b5091506000865b86880181101561075c5760405163133f757160e31b81526000906001600160a01b038b16906399fbab889061038790859060040161112c565b60206040518083038186803b15801561039f57600080fd5b505afa1580156103b3573d6000803e3d6000fd5b505050506040513d601f19601f820116820180604052508101906103d79190610f31565b6001600160a01b031614156103eb5761075c565b60405163133f757160e31b81526001600160a01b038a16906399fbab889061041790849060040161112c565b60206040518083038186803b15801561042f57600080fd5b505afa158015610443573d6000803e3d6000fd5b505050506040513d601f19601f820116820180604052508101906104679190610f31565b86838151811061047357fe5b6001600160a01b0392831660209182029290920101526040516336df277960e11b81526000918b1690636dbe4ef2906104b090859060040161112c565b60206040518083038186803b1580156104c857600080fd5b505afa1580156104dc573d6000803e3d6000fd5b505050506040513d601f19601f820116820180604052508101906105009190610fc0565b9050600080856001600160a01b03166329d88594848b888151811061052157fe5b60200260200101516040518363ffffffff1660e01b8152600401610546929190611135565b604080518083038186803b15801561055d57600080fd5b505afa158015610571573d6000803e3d6000fd5b505050506040513d601f19601f820116820180604052508101906105959190610fd8565b915091506000866001600160a01b031663d86824616040518163ffffffff1660e01b815260040160206040518083038186803b1580156105d457600080fd5b505afa1580156105e8573d6000803e3d6000fd5b505050506040513d601f19601f8201168201806040525081019061060c9190610f31565b9050600061071383836001600160a01b031663a09b0fe0886040518263ffffffff1660e01b8152600401610640919061112c565b60206040518083038186803b15801561065857600080fd5b505afa15801561066c573d6000803e3d6000fd5b505050506040513d601f19601f820116820180604052508101906106909190610fc0565b604051638c492d0760e01b815287906001600160a01b03871690638c492d07906106be908c9060040161112c565b60206040518083038186803b1580156106d657600080fd5b505afa1580156106ea573d6000803e3d6000fd5b505050506040513d601f19601f8201168201806040525081019061070e9190610fc0565b610f0b565b90508089888151811061072257fe5b602002602001018181525050828a888151811061073b57fe5b6020908102919091010152505060019485019493909301925061034e915050565b50505093509350939050565b60608060606000856001600160a01b0316634afa7271866040518263ffffffff1660e01b815260040161079b919061106d565b60206040518083038186803b1580156107b357600080fd5b505afa1580156107c7573d6000803e3d6000fd5b505050506040513d601f19601f820116820180604052508101906107eb9190610fc0565b90506000866001600160a01b031663bbc26b84876040518263ffffffff1660e01b815260040161081b919061106d565b60206040518083038186803b15801561083357600080fd5b505afa158015610847573d6000803e3d6000fd5b505050506040513d601f19601f8201168201806040525081019061086b9190610fc0565b9050610878878284610997565b94509450945050509250925092565b60608060606000856001600160a01b0316634afa7271866040518263ffffffff1660e01b81526004016108ba919061106d565b60206040518083038186803b1580156108d257600080fd5b505afa1580156108e6573d6000803e3d6000fd5b505050506040513d601f19601f8201168201806040525081019061090a9190610fc0565b90506000866001600160a01b031663e93cb1b9876040518263ffffffff1660e01b815260040161093a919061106d565b60206040518083038186803b15801561095257600080fd5b505afa158015610966573d6000803e3d6000fd5b505050506040513d601f19601f8201168201806040525081019061098a9190610fc0565b9050610878878284610c56565b60608060608367ffffffffffffffff811180156109b357600080fd5b506040519080825280602002602001820160405280156109dd578160200160208202803683370190505b5092508367ffffffffffffffff811180156109f757600080fd5b50604051908082528060200260200182016040528015610a21578160200160208202803683370190505b5091508367ffffffffffffffff81118015610a3b57600080fd5b50604051908082528060200260200182016040528015610a65578160200160208202803683370190505b5090506000855b600081118015610a7b57508582105b15610c4b5780858381518110610a8d57fe5b602090810291909101015260405163133f757160e31b81526001600160a01b038916906399fbab8890610ac490849060040161112c565b60206040518083038186803b158015610adc57600080fd5b505afa158015610af0573d6000803e3d6000fd5b505050506040513d601f19601f82011682018060405250810190610b149190610f31565b848381518110610b2057fe5b6001600160a01b0392831660209182029290920101526040516336df277960e11b815290891690636dbe4ef290610b5b90849060040161112c565b60206040518083038186803b158015610b7357600080fd5b505afa158015610b87573d6000803e3d6000fd5b505050506040513d601f19601f82011682018060405250810190610bab9190610fc0565b838381518110610bb757fe5b6020908102919091010152604051634064a0cf60e11b81526001600160a01b038916906380c9419e90610bee90849060040161112c565b604080518083038186803b158015610c0557600080fd5b505afa158015610c19573d6000803e3d6000fd5b505050506040513d601f19601f82011682018060405250810190610c3d9190610fd8565b506001909201919050610a6c565b505093509350939050565b60608060608367ffffffffffffffff81118015610c7257600080fd5b50604051908082528060200260200182016040528015610c9c578160200160208202803683370190505b5092508367ffffffffffffffff81118015610cb657600080fd5b50604051908082528060200260200182016040528015610ce0578160200160208202803683370190505b5091508367ffffffffffffffff81118015610cfa57600080fd5b50604051908082528060200260200182016040528015610d24578160200160208202803683370190505b5090506000855b600081118015610d3a57508582105b15610c4b5780858381518110610d4c57fe5b602090810291909101015260405163133f757160e31b81526001600160a01b038916906399fbab8890610d8390849060040161112c565b60206040518083038186803b158015610d9b57600080fd5b505afa158015610daf573d6000803e3d6000fd5b505050506040513d601f19601f82011682018060405250810190610dd39190610f31565b848381518110610ddf57fe5b6001600160a01b0392831660209182029290920101526040516336df277960e11b815290891690636dbe4ef290610e1a90849060040161112c565b60206040518083038186803b158015610e3257600080fd5b505afa158015610e46573d6000803e3d6000fd5b505050506040513d601f19601f82011682018060405250810190610e6a9190610fc0565b838381518110610e7657fe5b6020908102919091010152604051634064a0cf60e11b81526001600160a01b038916906380c9419e90610ead90849060040161112c565b604080518083038186803b158015610ec457600080fd5b505afa158015610ed8573d6000803e3d6000fd5b505050506040513d601f19601f82011682018060405250810190610efc9190610fd8565b6001909301929150610d2b9050565b600082820285850280821015610f22576000610f26565b8082035b979650505050505050565b600060208284031215610f42578081fd5b8151610f4d8161114c565b9392505050565b60008060408385031215610f66578081fd5b8235610f718161114c565b91506020830135610f818161114c565b809150509250929050565b600080600060608486031215610fa0578081fd5b8335610fab8161114c565b95602085013595506040909401359392505050565b600060208284031215610fd1578081fd5b5051919050565b60008060408385031215610fea578182fd5b505080516020909101519092909150565b6000815180845260208085019450808401835b838110156110335781516001600160a01b03168752958201959082019060010161100e565b509495945050505050565b6000815180845260208085019450808401835b8381101561103357815187529582019590820190600101611051565b6001600160a01b0391909116815260200190565b6000606082526110946060830186610ffb565b82810360208401526110a6818661103e565b905082810360408401526110ba818561103e565b9695505050505050565b6000606082526110d7606083018661103e565b6020838203818501526110ea8287610ffb565b84810360408601528551808252828701935090820190845b8181101561111e57845183529383019391830191600101611102565b509098975050505050505050565b90815260200190565b9182526001600160a01b0316602082015260400190565b6001600160a01b038116811461116157600080fd5b5056fea2646970667358221220ff49795676d5788577c8d016c86a49b0eb3473f9f9af5c70e2bcd6597a8864af64736f6c634300060c0033",
  "linkReferences": {},
  "deployedLinkReferences": {}
}