{
  "contractName": "MainTokenGovernor",
  "abi": [
    {
      "inputs": [
        {
          "internalType": "contract IVotes",
          "name": "_token",
          "type": "address"
        },
        {
          "internalType": "contract TimelockController",
          "name": "_timelock",
          "type": "address"
        },
        {
          "internalType": "address[]",
          "name": "_signers",
          "type": "address[]"
        },
        {
          "internalType": "uint256",
          "name": "_numConfirmationsRequired",
          "type": "uint256"
        }
      ],
      "stateMutability": "nonpayable",
      "type": "constructor"
    },
    {
      "inputs": [],
      "name": "Empty",
      "type": "error"
    },
    {
      "anonymous": false,
      "inputs": [
        {
          "indexed": true,
          "internalType": "address",
          "name": "signer",
          "type": "address"
        },
        {
          "indexed": true,
          "internalType": "uint256",
          "name": "proposalId",
          "type": "uint256"
        }
      ],
      "name": "ConfirmProposal",
      "type": "event"
    },
    {
      "anonymous": false,
      "inputs": [
        {
          "indexed": true,
          "internalType": "address",
          "name": "signer",
          "type": "address"
        },
        {
          "indexed": true,
          "internalType": "uint256",
          "name": "proposalId",
          "type": "uint256"
        }
      ],
      "name": "ExecuteProposal",
      "type": "event"
    },
    {
      "anonymous": false,
      "inputs": [
        {
          "indexed": true,
          "internalType": "uint256",
          "name": "proposalId",
          "type": "uint256"
        }
      ],
      "name": "ProposalCanceled",
      "type": "event"
    },
    {
      "anonymous": false,
      "inputs": [
        {
          "indexed": true,
          "internalType": "uint256",
          "name": "proposalId",
          "type": "uint256"
        },
        {
          "indexed": false,
          "internalType": "address",
          "name": "proposer",
          "type": "address"
        },
        {
          "indexed": false,
          "internalType": "address[]",
          "name": "targets",
          "type": "address[]"
        },
        {
          "indexed": false,
          "internalType": "uint256[]",
          "name": "values",
          "type": "uint256[]"
        },
        {
          "indexed": false,
          "internalType": "string[]",
          "name": "signatures",
          "type": "string[]"
        },
        {
          "indexed": false,
          "internalType": "bytes[]",
          "name": "calldatas",
          "type": "bytes[]"
        },
        {
          "indexed": false,
          "internalType": "uint256",
          "name": "startBlock",
          "type": "uint256"
        },
        {
          "indexed": false,
          "internalType": "uint256",
          "name": "endBlock",
          "type": "uint256"
        },
        {
          "indexed": false,
          "internalType": "string",
          "name": "description",
          "type": "string"
        }
      ],
      "name": "ProposalCreated",
      "type": "event"
    },
    {
      "anonymous": false,
      "inputs": [
        {
          "indexed": true,
          "internalType": "uint256",
          "name": "proposalId",
          "type": "uint256"
        }
      ],
      "name": "ProposalExecuted",
      "type": "event"
    },
    {
      "anonymous": false,
      "inputs": [
        {
          "indexed": false,
          "internalType": "uint256",
          "name": "proposalId",
          "type": "uint256"
        },
        {
          "indexed": false,
          "internalType": "uint256",
          "name": "eta",
          "type": "uint256"
        }
      ],
      "name": "ProposalQueued",
      "type": "event"
    },
    {
      "anonymous": false,
      "inputs": [
        {
          "indexed": false,
          "internalType": "uint256",
          "name": "oldProposalThreshold",
          "type": "uint256"
        },
        {
          "indexed": false,
          "internalType": "uint256",
          "name": "newProposalThreshold",
          "type": "uint256"
        }
      ],
      "name": "ProposalThresholdSet",
      "type": "event"
    },
    {
      "anonymous": false,
      "inputs": [
        {
          "indexed": false,
          "internalType": "uint256",
          "name": "oldQuorumNumerator",
          "type": "uint256"
        },
        {
          "indexed": false,
          "internalType": "uint256",
          "name": "newQuorumNumerator",
          "type": "uint256"
        }
      ],
      "name": "QuorumNumeratorUpdated",
      "type": "event"
    },
    {
      "anonymous": false,
      "inputs": [
        {
          "indexed": true,
          "internalType": "address",
          "name": "signer",
          "type": "address"
        },
        {
          "indexed": true,
          "internalType": "uint256",
          "name": "proposalId",
          "type": "uint256"
        }
      ],
      "name": "RevokeConfirmation",
      "type": "event"
    },
    {
      "anonymous": false,
      "inputs": [
        {
          "indexed": false,
          "internalType": "address",
          "name": "oldTimelock",
          "type": "address"
        },
        {
          "indexed": false,
          "internalType": "address",
          "name": "newTimelock",
          "type": "address"
        }
      ],
      "name": "TimelockChange",
      "type": "event"
    },
    {
      "anonymous": false,
      "inputs": [
        {
          "indexed": true,
          "internalType": "address",
          "name": "voter",
          "type": "address"
        },
        {
          "indexed": true,
          "internalType": "uint256",
          "name": "proposalId",
          "type": "uint256"
        },
        {
          "indexed": false,
          "internalType": "uint8",
          "name": "support",
          "type": "uint8"
        },
        {
          "indexed": false,
          "internalType": "uint256",
          "name": "weight",
          "type": "uint256"
        },
        {
          "indexed": false,
          "internalType": "string",
          "name": "reason",
          "type": "string"
        }
      ],
      "name": "VoteCast",
      "type": "event"
    },
    {
      "anonymous": false,
      "inputs": [
        {
          "indexed": true,
          "internalType": "address",
          "name": "voter",
          "type": "address"
        },
        {
          "indexed": true,
          "internalType": "uint256",
          "name": "proposalId",
          "type": "uint256"
        },
        {
          "indexed": false,
          "internalType": "uint8",
          "name": "support",
          "type": "uint8"
        },
        {
          "indexed": false,
          "internalType": "uint256",
          "name": "weight",
          "type": "uint256"
        },
        {
          "indexed": false,
          "internalType": "string",
          "name": "reason",
          "type": "string"
        },
        {
          "indexed": false,
          "internalType": "bytes",
          "name": "params",
          "type": "bytes"
        }
      ],
      "name": "VoteCastWithParams",
      "type": "event"
    },
    {
      "anonymous": false,
      "inputs": [
        {
          "indexed": false,
          "internalType": "uint256",
          "name": "oldVotingDelay",
          "type": "uint256"
        },
        {
          "indexed": false,
          "internalType": "uint256",
          "name": "newVotingDelay",
          "type": "uint256"
        }
      ],
      "name": "VotingDelaySet",
      "type": "event"
    },
    {
      "anonymous": false,
      "inputs": [
        {
          "indexed": false,
          "internalType": "uint256",
          "name": "oldVotingPeriod",
          "type": "uint256"
        },
        {
          "indexed": false,
          "internalType": "uint256",
          "name": "newVotingPeriod",
          "type": "uint256"
        }
      ],
      "name": "VotingPeriodSet",
      "type": "event"
    },
    {
      "inputs": [],
      "name": "BALLOT_TYPEHASH",
      "outputs": [
        {
          "internalType": "bytes32",
          "name": "",
          "type": "bytes32"
        }
      ],
      "stateMutability": "view",
      "type": "function"
    },
    {
      "inputs": [],
      "name": "COUNTING_MODE",
      "outputs": [
        {
          "internalType": "string",
          "name": "",
          "type": "string"
        }
      ],
      "stateMutability": "pure",
      "type": "function"
    },
    {
      "inputs": [],
      "name": "EXTENDED_BALLOT_TYPEHASH",
      "outputs": [
        {
          "internalType": "bytes32",
          "name": "",
          "type": "bytes32"
        }
      ],
      "stateMutability": "view",
      "type": "function"
    },
    {
      "inputs": [
        {
          "internalType": "uint256",
          "name": "proposalId",
          "type": "uint256"
        },
        {
          "internalType": "uint8",
          "name": "support",
          "type": "uint8"
        }
      ],
      "name": "castVote",
      "outputs": [
        {
          "internalType": "uint256",
          "name": "",
          "type": "uint256"
        }
      ],
      "stateMutability": "nonpayable",
      "type": "function"
    },
    {
      "inputs": [
        {
          "internalType": "uint256",
          "name": "proposalId",
          "type": "uint256"
        },
        {
          "internalType": "uint8",
          "name": "support",
          "type": "uint8"
        },
        {
          "internalType": "uint8",
          "name": "v",
          "type": "uint8"
        },
        {
          "internalType": "bytes32",
          "name": "r",
          "type": "bytes32"
        },
        {
          "internalType": "bytes32",
          "name": "s",
          "type": "bytes32"
        }
      ],
      "name": "castVoteBySig",
      "outputs": [
        {
          "internalType": "uint256",
          "name": "",
          "type": "uint256"
        }
      ],
      "stateMutability": "nonpayable",
      "type": "function"
    },
    {
      "inputs": [
        {
          "internalType": "uint256",
          "name": "proposalId",
          "type": "uint256"
        },
        {
          "internalType": "uint8",
          "name": "support",
          "type": "uint8"
        },
        {
          "internalType": "string",
          "name": "reason",
          "type": "string"
        }
      ],
      "name": "castVoteWithReason",
      "outputs": [
        {
          "internalType": "uint256",
          "name": "",
          "type": "uint256"
        }
      ],
      "stateMutability": "nonpayable",
      "type": "function"
    },
    {
      "inputs": [
        {
          "internalType": "uint256",
          "name": "proposalId",
          "type": "uint256"
        },
        {
          "internalType": "uint8",
          "name": "support",
          "type": "uint8"
        },
        {
          "internalType": "string",
          "name": "reason",
          "type": "string"
        },
        {
          "internalType": "bytes",
          "name": "params",
          "type": "bytes"
        }
      ],
      "name": "castVoteWithReasonAndParams",
      "outputs": [
        {
          "internalType": "uint256",
          "name": "",
          "type": "uint256"
        }
      ],
      "stateMutability": "nonpayable",
      "type": "function"
    },
    {
      "inputs": [
        {
          "internalType": "uint256",
          "name": "proposalId",
          "type": "uint256"
        },
        {
          "internalType": "uint8",
          "name": "support",
          "type": "uint8"
        },
        {
          "internalType": "string",
          "name": "reason",
          "type": "string"
        },
        {
          "internalType": "bytes",
          "name": "params",
          "type": "bytes"
        },
        {
          "internalType": "uint8",
          "name": "v",
          "type": "uint8"
        },
        {
          "internalType": "bytes32",
          "name": "r",
          "type": "bytes32"
        },
        {
          "internalType": "bytes32",
          "name": "s",
          "type": "bytes32"
        }
      ],
      "name": "castVoteWithReasonAndParamsBySig",
      "outputs": [
        {
          "internalType": "uint256",
          "name": "",
          "type": "uint256"
        }
      ],
      "stateMutability": "nonpayable",
      "type": "function"
    },
    {
      "inputs": [
        {
          "internalType": "uint256",
          "name": "_proposalId",
          "type": "uint256"
        }
      ],
      "name": "confirmProposal",
      "outputs": [],
      "stateMutability": "nonpayable",
      "type": "function"
    },
    {
      "inputs": [
        {
          "internalType": "address[]",
          "name": "targets",
          "type": "address[]"
        },
        {
          "internalType": "uint256[]",
          "name": "values",
          "type": "uint256[]"
        },
        {
          "internalType": "bytes[]",
          "name": "calldatas",
          "type": "bytes[]"
        },
        {
          "internalType": "bytes32",
          "name": "descriptionHash",
          "type": "bytes32"
        }
      ],
      "name": "execute",
      "outputs": [
        {
          "internalType": "uint256",
          "name": "",
          "type": "uint256"
        }
      ],
      "stateMutability": "payable",
      "type": "function"
    },
    {
      "inputs": [
        {
          "internalType": "uint256",
          "name": "_proposalId",
          "type": "uint256"
        }
      ],
      "name": "getDescription",
      "outputs": [
        {
          "internalType": "string",
          "name": "",
          "type": "string"
        }
      ],
      "stateMutability": "view",
      "type": "function"
    },
    {
      "inputs": [],
      "name": "getProposalIds",
      "outputs": [
        {
          "internalType": "uint256[]",
          "name": "",
          "type": "uint256[]"
        }
      ],
      "stateMutability": "view",
      "type": "function"
    },
    {
      "inputs": [
        {
          "internalType": "uint256",
          "name": "_numIndexes",
          "type": "uint256"
        }
      ],
      "name": "getProposals",
      "outputs": [
        {
          "internalType": "string[]",
          "name": "",
          "type": "string[]"
        },
        {
          "internalType": "string[]",
          "name": "",
          "type": "string[]"
        },
        {
          "internalType": "string[]",
          "name": "",
          "type": "string[]"
        }
      ],
      "stateMutability": "view",
      "type": "function"
    },
    {
      "inputs": [
        {
          "internalType": "address",
          "name": "account",
          "type": "address"
        },
        {
          "internalType": "uint256",
          "name": "blockNumber",
          "type": "uint256"
        }
      ],
      "name": "getVotes",
      "outputs": [
        {
          "internalType": "uint256",
          "name": "",
          "type": "uint256"
        }
      ],
      "stateMutability": "view",
      "type": "function"
    },
    {
      "inputs": [
        {
          "internalType": "address",
          "name": "account",
          "type": "address"
        },
        {
          "internalType": "uint256",
          "name": "blockNumber",
          "type": "uint256"
        },
        {
          "internalType": "bytes",
          "name": "params",
          "type": "bytes"
        }
      ],
      "name": "getVotesWithParams",
      "outputs": [
        {
          "internalType": "uint256",
          "name": "",
          "type": "uint256"
        }
      ],
      "stateMutability": "view",
      "type": "function"
    },
    {
      "inputs": [],
      "name": "getsigners",
      "outputs": [
        {
          "internalType": "address[]",
          "name": "",
          "type": "address[]"
        }
      ],
      "stateMutability": "view",
      "type": "function"
    },
    {
      "inputs": [
        {
          "internalType": "uint256",
          "name": "proposalId",
          "type": "uint256"
        },
        {
          "internalType": "address",
          "name": "account",
          "type": "address"
        }
      ],
      "name": "hasVoted",
      "outputs": [
        {
          "internalType": "bool",
          "name": "",
          "type": "bool"
        }
      ],
      "stateMutability": "view",
      "type": "function"
    },
    {
      "inputs": [
        {
          "internalType": "address[]",
          "name": "targets",
          "type": "address[]"
        },
        {
          "internalType": "uint256[]",
          "name": "values",
          "type": "uint256[]"
        },
        {
          "internalType": "bytes[]",
          "name": "calldatas",
          "type": "bytes[]"
        },
        {
          "internalType": "bytes32",
          "name": "descriptionHash",
          "type": "bytes32"
        }
      ],
      "name": "hashProposal",
      "outputs": [
        {
          "internalType": "uint256",
          "name": "",
          "type": "uint256"
        }
      ],
      "stateMutability": "pure",
      "type": "function"
    },
    {
      "inputs": [
        {
          "internalType": "uint256",
          "name": "",
          "type": "uint256"
        },
        {
          "internalType": "address",
          "name": "",
          "type": "address"
        }
      ],
      "name": "isConfirmed",
      "outputs": [
        {
          "internalType": "bool",
          "name": "",
          "type": "bool"
        }
      ],
      "stateMutability": "view",
      "type": "function"
    },
    {
      "inputs": [
        {
          "internalType": "address",
          "name": "",
          "type": "address"
        }
      ],
      "name": "isSigner",
      "outputs": [
        {
          "internalType": "bool",
          "name": "",
          "type": "bool"
        }
      ],
      "stateMutability": "view",
      "type": "function"
    },
    {
      "inputs": [],
      "name": "name",
      "outputs": [
        {
          "internalType": "string",
          "name": "",
          "type": "string"
        }
      ],
      "stateMutability": "view",
      "type": "function"
    },
    {
      "inputs": [
        {
          "internalType": "uint256",
          "name": "",
          "type": "uint256"
        }
      ],
      "name": "numConfirmations",
      "outputs": [
        {
          "internalType": "uint8",
          "name": "",
          "type": "uint8"
        }
      ],
      "stateMutability": "view",
      "type": "function"
    },
    {
      "inputs": [],
      "name": "numConfirmationsRequired",
      "outputs": [
        {
          "internalType": "uint256",
          "name": "",
          "type": "uint256"
        }
      ],
      "stateMutability": "view",
      "type": "function"
    },
    {
      "inputs": [
        {
          "internalType": "uint256",
          "name": "proposalId",
          "type": "uint256"
        }
      ],
      "name": "proposalDeadline",
      "outputs": [
        {
          "internalType": "uint256",
          "name": "",
          "type": "uint256"
        }
      ],
      "stateMutability": "view",
      "type": "function"
    },
    {
      "inputs": [
        {
          "internalType": "uint256",
          "name": "proposalId",
          "type": "uint256"
        }
      ],
      "name": "proposalEta",
      "outputs": [
        {
          "internalType": "uint256",
          "name": "",
          "type": "uint256"
        }
      ],
      "stateMutability": "view",
      "type": "function"
    },
    {
      "inputs": [
        {
          "internalType": "uint256",
          "name": "proposalId",
          "type": "uint256"
        }
      ],
      "name": "proposalSnapshot",
      "outputs": [
        {
          "internalType": "uint256",
          "name": "",
          "type": "uint256"
        }
      ],
      "stateMutability": "view",
      "type": "function"
    },
    {
      "inputs": [
        {
          "internalType": "uint256",
          "name": "proposalId",
          "type": "uint256"
        }
      ],
      "name": "proposalVotes",
      "outputs": [
        {
          "internalType": "uint256",
          "name": "againstVotes",
          "type": "uint256"
        },
        {
          "internalType": "uint256",
          "name": "forVotes",
          "type": "uint256"
        },
        {
          "internalType": "uint256",
          "name": "abstainVotes",
          "type": "uint256"
        }
      ],
      "stateMutability": "view",
      "type": "function"
    },
    {
      "inputs": [
        {
          "internalType": "address[]",
          "name": "targets",
          "type": "address[]"
        },
        {
          "internalType": "uint256[]",
          "name": "values",
          "type": "uint256[]"
        },
        {
          "internalType": "bytes[]",
          "name": "calldatas",
          "type": "bytes[]"
        },
        {
          "internalType": "bytes32",
          "name": "descriptionHash",
          "type": "bytes32"
        }
      ],
      "name": "queue",
      "outputs": [
        {
          "internalType": "uint256",
          "name": "",
          "type": "uint256"
        }
      ],
      "stateMutability": "nonpayable",
      "type": "function"
    },
    {
      "inputs": [],
      "name": "quorumDenominator",
      "outputs": [
        {
          "internalType": "uint256",
          "name": "",
          "type": "uint256"
        }
      ],
      "stateMutability": "view",
      "type": "function"
    },
    {
      "inputs": [],
      "name": "quorumNumerator",
      "outputs": [
        {
          "internalType": "uint256",
          "name": "",
          "type": "uint256"
        }
      ],
      "stateMutability": "view",
      "type": "function"
    },
    {
      "inputs": [
        {
          "internalType": "uint256",
          "name": "_proposalId",
          "type": "uint256"
        }
      ],
      "name": "revokeConfirmation",
      "outputs": [],
      "stateMutability": "nonpayable",
      "type": "function"
    },
    {
      "inputs": [
        {
          "internalType": "uint256",
          "name": "newProposalThreshold",
          "type": "uint256"
        }
      ],
      "name": "setProposalThreshold",
      "outputs": [],
      "stateMutability": "nonpayable",
      "type": "function"
    },
    {
      "inputs": [
        {
          "internalType": "uint256",
          "name": "newVotingDelay",
          "type": "uint256"
        }
      ],
      "name": "setVotingDelay",
      "outputs": [],
      "stateMutability": "nonpayable",
      "type": "function"
    },
    {
      "inputs": [
        {
          "internalType": "uint256",
          "name": "newVotingPeriod",
          "type": "uint256"
        }
      ],
      "name": "setVotingPeriod",
      "outputs": [],
      "stateMutability": "nonpayable",
      "type": "function"
    },
    {
      "inputs": [
        {
          "internalType": "uint256",
          "name": "",
          "type": "uint256"
        }
      ],
      "name": "signers",
      "outputs": [
        {
          "internalType": "address",
          "name": "",
          "type": "address"
        }
      ],
      "stateMutability": "view",
      "type": "function"
    },
    {
      "inputs": [],
      "name": "timelock",
      "outputs": [
        {
          "internalType": "address",
          "name": "",
          "type": "address"
        }
      ],
      "stateMutability": "view",
      "type": "function"
    },
    {
      "inputs": [],
      "name": "token",
      "outputs": [
        {
          "internalType": "contract IVotes",
          "name": "",
          "type": "address"
        }
      ],
      "stateMutability": "view",
      "type": "function"
    },
    {
      "inputs": [
        {
          "internalType": "uint256",
          "name": "newQuorumNumerator",
          "type": "uint256"
        }
      ],
      "name": "updateQuorumNumerator",
      "outputs": [],
      "stateMutability": "nonpayable",
      "type": "function"
    },
    {
      "inputs": [
        {
          "internalType": "contract TimelockController",
          "name": "newTimelock",
          "type": "address"
        }
      ],
      "name": "updateTimelock",
      "outputs": [],
      "stateMutability": "nonpayable",
      "type": "function"
    },
    {
      "inputs": [],
      "name": "version",
      "outputs": [
        {
          "internalType": "string",
          "name": "",
          "type": "string"
        }
      ],
      "stateMutability": "view",
      "type": "function"
    },
    {
      "stateMutability": "payable",
      "type": "receive"
    },
    {
      "inputs": [
        {
          "internalType": "address[]",
          "name": "targets",
          "type": "address[]"
        },
        {
          "internalType": "uint256[]",
          "name": "values",
          "type": "uint256[]"
        },
        {
          "internalType": "bytes[]",
          "name": "calldatas",
          "type": "bytes[]"
        },
        {
          "internalType": "string",
          "name": "description",
          "type": "string"
        }
      ],
      "name": "propose",
      "outputs": [
        {
          "internalType": "uint256",
          "name": "",
          "type": "uint256"
        }
      ],
      "stateMutability": "nonpayable",
      "type": "function"
    },
    {
      "inputs": [],
      "name": "proposalThreshold",
      "outputs": [
        {
          "internalType": "uint256",
          "name": "",
          "type": "uint256"
        }
      ],
      "stateMutability": "view",
      "type": "function"
    },
    {
      "inputs": [
        {
          "internalType": "bytes4",
          "name": "interfaceId",
          "type": "bytes4"
        }
      ],
      "name": "supportsInterface",
      "outputs": [
        {
          "internalType": "bool",
          "name": "",
          "type": "bool"
        }
      ],
      "stateMutability": "view",
      "type": "function"
    },
    {
      "inputs": [],
      "name": "votingDelay",
      "outputs": [
        {
          "internalType": "uint256",
          "name": "",
          "type": "uint256"
        }
      ],
      "stateMutability": "view",
      "type": "function"
    },
    {
      "inputs": [],
      "name": "votingPeriod",
      "outputs": [
        {
          "internalType": "uint256",
          "name": "",
          "type": "uint256"
        }
      ],
      "stateMutability": "view",
      "type": "function"
    },
    {
      "inputs": [
        {
          "internalType": "uint256",
          "name": "blockNumber",
          "type": "uint256"
        }
      ],
      "name": "quorum",
      "outputs": [
        {
          "internalType": "uint256",
          "name": "",
          "type": "uint256"
        }
      ],
      "stateMutability": "view",
      "type": "function"
    },
    {
      "inputs": [
        {
          "internalType": "uint256",
          "name": "proposalId",
          "type": "uint256"
        }
      ],
      "name": "state",
      "outputs": [
        {
          "internalType": "enum IGovernor.ProposalState",
          "name": "",
          "type": "uint8"
        }
      ],
      "stateMutability": "view",
      "type": "function"
    }
  ],
  "bytecode": "0x6101606040523480156200001257600080fd5b506040516200520c3803806200520c833981016040819052620000359162000739565b82600485600160146103e86040518060400160405280601181526020017026b0b4b72a37b5b2b723b7bb32b93737b960791b8152508888826200007d6200028c60201b60201c565b815160208084019190912082519183019190912060e08290526101008190524660a0527f8b73c3c69bb8fe3d512ecc4cf759cc79239f7b179b0ffacaa9a75d522b39400f620000ce818484620002a7565b6080523060c0526101205250508451620000f29250600091506020860190620004a4565b5081516200010890600690602085019062000533565b50600881905560005b82518110156200022f576000838281518110620001325762000132620007c3565b6020026020010151905060006001600160a01b0316816001600160a01b0316036200017a5760405162461bcd60e51b8152600401620001719062000800565b60405180910390fd5b6001600160a01b03811660009081526007602052604090205460ff1615620001b65760405162461bcd60e51b815260040162000171906200083a565b6001600160a01b03166000818152600760205260408120805460ff191660019081179091556006805491820181559091527ff652222313e28459528d920b65115c16c04f3efc82aaedc97be59f3f377c0d3f0180546001600160a01b031916909117905580620002268162000862565b91505062000111565b505050506200024483620002e460201b60201c565b6200024f8262000326565b6200025a816200038b565b5050506001600160a01b0316610140526200027581620003cd565b50620002818162000439565b505050505062000a26565b6040805180820190915260018152603160f81b602082015290565b60008383834630604051602001620002c495949392919062000892565b6040516020818303038152906040528051906020012090505b9392505050565b7fc565b045403dc03c2eea82b81a0465edad9e2e7fc4d97e11421c209da93d7a93600b548260405162000319929190620008e8565b60405180910390a1600b55565b60008111620003495760405162461bcd60e51b8152600401620001719062000907565b7f7e3f7f0708a84de9203036abaa450dccc85ad5ff52f78c170f3edb55cf5e8828600c54826040516200037e929190620008e8565b60405180910390a1600c55565b7fccb45da8d5717e6c4544694297c4ba5cf151d455c9bb0ed4fc7a38411bc05461600d5482604051620003c0929190620008e8565b60405180910390a1600d55565b6064811115620003f15760405162461bcd60e51b8152600401620001719062000953565b600f8054908290556040517f0553476bf02ef2726e8ce5ced78d63e26e602e4a2257b1f559418e24b4633997906200042d9083908590620008e8565b60405180910390a15050565b6010546040517f08f74ea46ef7894f65eabfb5e6e695de773a000b47c529ab559178069b226401916200047a916001600160a01b03909116908490620009c1565b60405180910390a1601080546001600160a01b0319166001600160a01b0392909216919091179055565b828054620004b290620009f6565b90600052602060002090601f016020900481019282620004d6576000855562000521565b82601f10620004f157805160ff191683800117855562000521565b8280016001018555821562000521579182015b828111156200052157825182559160200191906001019062000504565b506200052f9291506200058b565b5090565b82805482825590600052602060002090810192821562000521579160200282015b828111156200052157825182546001600160a01b0319166001600160a01b0390911617825560209092019160019091019062000554565b5b808211156200052f57600081556001016200058c565b60006001600160a01b0382165b92915050565b6000620005af82620005a2565b620005cd81620005b5565b8114620005d957600080fd5b50565b8051620005af81620005c2565b634e487b7160e01b600052604160045260246000fd5b601f19601f83011681018181106001600160401b0382111715620006275762000627620005e9565b6040525050565b60006200063a60405190565b9050620006488282620005ff565b919050565b60006001600160401b03821115620006695762000669620005e9565b5060209081020190565b620005cd81620005a2565b8051620005af8162000673565b6000620006a26200069c846200064d565b6200062e565b83815290506020808201908402830185811115620006c357620006c3600080fd5b835b81811015620006eb5780620006db88826200067e565b84525060209283019201620006c5565b5050509392505050565b600082601f8301126200070b576200070b600080fd5b81516200071d8482602086016200068b565b949350505050565b80620005cd565b8051620005af8162000725565b60008060008060808587031215620007545762000754600080fd5b6000620007628787620005dc565b94505060206200077587828801620005dc565b93505060408501516001600160401b03811115620007965762000796600080fd5b620007a487828801620006f5565b9250506060620007b7878288016200072c565b91505092959194509250565b634e487b7160e01b600052603260045260246000fd5b600d81526000602082016c34b73b30b634b21037bbb732b960991b815291505b5060200190565b60208082528101620005af81620007d9565b601081526000602082016f6f776e6572206e6f7420756e6971756560801b81529150620007f9565b60208082528101620005af8162000812565b634e487b7160e01b600052601160045260246000fd5b600060001982036200087857620008786200084c565b5060010190565b805b82525050565b6200088181620005a2565b60a08101620008a282886200087f565b620008b160208301876200087f565b620008c060408301866200087f565b620008cf60608301856200087f565b620008de608083018462000887565b9695505050505050565b60408101620008f882856200087f565b620002dd60208301846200087f565b60208082528101620005af81602781527f476f7665726e6f7253657474696e67733a20766f74696e6720706572696f6420602082015266746f6f206c6f7760c81b604082015260600190565b60208082528101620005af81604381527f476f7665726e6f72566f74657351756f72756d4672616374696f6e3a2071756f60208201527f72756d4e756d657261746f72206f7665722071756f72756d44656e6f6d696e616040820152623a37b960e91b606082015260800190565b60408101620009d1828562000887565b620002dd602083018462000887565b634e487b7160e01b600052602260045260246000fd5b60028104600182168062000a0b57607f821691505b60208210810362000a205762000a20620009e0565b50919050565b60805160a05160c05160e05161010051610120516101405161477d62000a8f600039600081816109960152818161247d015261261c0152600061277e015260006127c00152600061279f015260006127030152600061272d01526000612757015261477d6000f3fe60806040526004361061028c5760003560e01c80637b3c71d31161015a578063c59057e4116100c1578063eb9019d41161007a578063eb9019d4146108e2578063ece40cc114610902578063f4a4f4d214610922578063f82c7c5314610942578063f8ce560a14610964578063fc0c546a1461098457600080fd5b8063c59057e4146107f4578063d0549b8514610814578063d33219b41461082a578063dd4e2ba514610848578063deaaa7cc1461088e578063ea0217cf146108c257600080fd5b8063a7713a7011610113578063a7713a701461072d578063a890c91014610742578063ab58fb8e14610762578063b58131b014610782578063c01f9e3714610797578063c518cd93146107b757600080fd5b80637b3c71d31461064e5780637d5e81e21461066e5780637df73e271461068e57806380f59a65146106be57806397c3d334146106f95780639a802a6d1461070d57600080fd5b80632fe3e261116101fe5780634925ec55116101b75780634925ec551461055b578063544ffc9c1461057b57806354fd4d50146105c457806356781388146105ee5780635f398a141461060e57806370b0f6601461062e57600080fd5b80632fe3e261146104595780633932abb11461048d5780633bccf4fd146104a25780633e4f49e6146104c257806340ba1b1e146104ef578063438596321461051157600080fd5b8063160cbed711610250578063160cbed71461038a5780632079fb9a146103aa57806320ea8d86146103d75780632656227d146103f75780632c72fdfc1461040a5780632d63f6931461043957600080fd5b806301ffc9a7146102d057806302a251a314610306578063034201811461032857806306f3f9e61461034857806306fdde031461036857600080fd5b366102cb573061029a6109c5565b6001600160a01b0316146102c95760405162461bcd60e51b81526004016102c090612ed3565b60405180910390fd5b005b600080fd5b3480156102dc57600080fd5b506102f06102eb366004612f05565b6109de565b6040516102fd9190612f30565b60405180910390f35b34801561031257600080fd5b5061031b6109ef565b6040516102fd9190612f44565b34801561033457600080fd5b5061031b6103433660046130c1565b6109fa565b34801561035457600080fd5b506102c9610363366004613198565b610ad1565b34801561037457600080fd5b5061037d610b5b565b6040516102fd919061321b565b34801561039657600080fd5b5061031b6103a53660046133f9565b610bed565b3480156103b657600080fd5b506103ca6103c5366004613198565b610ded565b6040516102fd91906134b3565b3480156103e357600080fd5b506102c96103f2366004613198565b610e17565b61031b6104053660046133f9565b610f3f565b34801561041657600080fd5b5061042a610425366004613198565b611020565b6040516102fd93929190613533565b34801561044557600080fd5b5061031b610454366004613198565b611071565b34801561046557600080fd5b5061031b7fb3b3f3b703cd84ce352197dcff232b1b5d3cfb2025ce47cf04742d0651f1af8881565b34801561049957600080fd5b5061031b6110a8565b3480156104ae57600080fd5b5061031b6104bd36600461356c565b6110b3565b3480156104ce57600080fd5b506104e26104dd366004613198565b61111b565b6040516102fd9190613628565b3480156104fb57600080fd5b50610504611126565b6040516102fd9190613693565b34801561051d57600080fd5b506102f061052c3660046136a4565b6000828152600e602090815260408083206001600160a01b038516845260030190915290205460ff1692915050565b34801561056757600080fd5b5061037d610576366004613198565b61117d565b34801561058757600080fd5b506105b5610596366004613198565b6000908152600e60205260409020805460018201546002909201549092565b6040516102fd939291906136e1565b3480156105d057600080fd5b506040805180820190915260018152603160f81b602082015261037d565b3480156105fa57600080fd5b5061031b610609366004613709565b61121f565b34801561061a57600080fd5b5061031b61062936600461373c565b611240565b34801561063a57600080fd5b506102c9610649366004613198565b61128a565b34801561065a57600080fd5b5061031b6106693660046137cc565b611311565b34801561067a57600080fd5b5061031b610689366004613839565b611363565b34801561069a57600080fd5b506102f06106a93660046138f8565b60076020526000908152604090205460ff1681565b3480156106ca57600080fd5b506102f06106d93660046136a4565b600960209081526000928352604080842090915290825290205460ff1681565b34801561070557600080fd5b50606461031b565b34801561071957600080fd5b5061031b610728366004613919565b611371565b34801561073957600080fd5b50600f5461031b565b34801561074e57600080fd5b506102c961075d3660046139a2565b611388565b34801561076e57600080fd5b5061031b61077d366004613198565b61140f565b34801561078e57600080fd5b5061031b6114ab565b3480156107a357600080fd5b5061031b6107b2366004613198565b6114b6565b3480156107c357600080fd5b506107e76107d2366004613198565b600a6020526000908152604090205460ff1681565b6040516102fd91906139cc565b34801561080057600080fd5b5061031b61080f3660046133f9565b6114e5565b34801561082057600080fd5b5061031b60085481565b34801561083657600080fd5b506010546001600160a01b03166103ca565b34801561085457600080fd5b506040805180820190915260208082527f737570706f72743d627261766f2671756f72756d3d666f722c6162737461696e9082015261037d565b34801561089a57600080fd5b5061031b7f150214d74d59b7d1e90c73fc22ef3d991dd0a76b046543d4d80ab92d2a50328f81565b3480156108ce57600080fd5b506102c96108dd366004613198565b61151f565b3480156108ee57600080fd5b5061031b6108fd3660046139da565b6115a6565b34801561090e57600080fd5b506102c961091d366004613198565b6115c7565b34801561092e57600080fd5b506102c961093d366004613198565b61164e565b34801561094e57600080fd5b5061095761177d565b6040516102fd9190613a57565b34801561097057600080fd5b5061031b61097f366004613198565b6117de565b34801561099057600080fd5b506109b87f000000000000000000000000000000000000000000000000000000000000000081565b6040516102fd9190613aaa565b60006109d96010546001600160a01b031690565b905090565b60006109e9826117e9565b92915050565b60006109d9600c5490565b600080610a7d610a757fb3b3f3b703cd84ce352197dcff232b1b5d3cfb2025ce47cf04742d0651f1af888c8c8c8c604051610a36929190613acb565b60405180910390208b80519060200120604051602001610a5a959493929190613ad8565b6040516020818303038152906040528051906020012061180e565b868686611821565b9050610ac38a828b8b8b8080601f0160208091040260200160405190810160405280939291908181526020018383808284376000920191909152508d925061183f915050565b9a9950505050505050505050565b610ad96109c5565b6001600160a01b0316336001600160a01b031614610b095760405162461bcd60e51b81526004016102c090613b51565b30610b126109c5565b6001600160a01b031614610b4f5760008036604051610b32929190613acb565b604051809103902090505b80610b486004611965565b03610b3d57505b610b58816119e4565b50565b606060008054610b6a90613b77565b80601f0160208091040260200160405190810160405280929190818152602001828054610b9690613b77565b8015610be35780601f10610bb857610100808354040283529160200191610be3565b820191906000526020600020905b815481529060010190602001808311610bc657829003601f168201915b5050505050905090565b600080610bfc868686866114e5565b90506004610c098261111b565b6007811115610c1a57610c1a6135e4565b14610c375760405162461bcd60e51b81526004016102c090613be1565b6010546040805163793d064960e11b815290516000926001600160a01b03169163f27a0c929160048083019260209291908290030181865afa158015610c81573d6000803e3d6000fd5b505050506040513d601f19601f82011682018060405250810190610ca59190613bfc565b60105460405163b1c5f42760e01b81529192506001600160a01b03169063b1c5f42790610cdf908a908a908a906000908b90600401613c8b565b602060405180830381865afa158015610cfc573d6000803e3d6000fd5b505050506040513d601f19601f82011682018060405250810190610d209190613bfc565b6000838152601160205260408082209290925560105491516308f2a0bb60e41b81526001600160a01b0390921691638f2a0bb091610d6b918b918b918b91908b908990600401613cd3565b600060405180830381600087803b158015610d8557600080fd5b505af1158015610d99573d6000803e3d6000fd5b505050507f9a2e42fd6722813d69113e7d0079d3d940171428df7373df9c7f7617cfda2892828242610dcb9190613d56565b604051610dd9929190613d6e565b60405180910390a15090505b949350505050565b60068181548110610dfd57600080fd5b6000918252602090912001546001600160a01b0316905081565b3360009081526007602052604090205460ff16610e465760405162461bcd60e51b81526004016102c090613daa565b60008181526002602081905260409091200154819060ff1615610e7b5760405162461bcd60e51b81526004016102c090613dee565b600082815260096020908152604080832033845290915290205460ff16610eb45760405162461bcd60e51b81526004016102c090613e2b565b6000828152600a60205260408120805460019290610ed690849060ff16613e3b565b825460ff9182166101009390930a9283029190920219909116179055506000828152600960209081526040808320338085529252808320805460ff191690555184927ff0dca620e2e81f7841d07bcc105e1704fb01475b278a9d4c236e1c62945edd5591a35050565b600080610f4e868686866114e5565b90506000610f5b8261111b565b90506004816007811115610f7157610f716135e4565b1480610f8e57506005816007811115610f8c57610f8c6135e4565b145b610faa5760405162461bcd60e51b81526004016102c090613be1565b6000828152600260208190526040808320909101805460ff191660011790555183917f712ae1383f79ac853f8d882153778e0260ef8f03b504e2866e0593e04d2b291f91a2610ffc8288888888611a4b565b6110098288888888611aed565b6110168288888888611b2d565b5095945050505050565b60015460609081908190600081900361104357506060925082915081905061106a565b808511156110605761105481611b66565b9350935093505061106a565b6110548582611de4565b9193909250565b60008181526002602090815260408083208151928301909152546001600160401b0316908190525b6001600160401b031692915050565b60006109d9600b5490565b6000806110f1610a757f150214d74d59b7d1e90c73fc22ef3d991dd0a76b046543d4d80ab92d2a50328f8989604051602001610a5a93929190613e5f565b905061110e8782886040518060200160405280600081525061204c565b9150505b95945050505050565b60006109e98261206f565b60606001805480602002602001604051908101604052809291908181526020018280548015610be357602002820191906000526020600020905b815481526020019060010190808311611160575050505050905090565b600081815260036020526040902080546060919061119a90613b77565b80601f01602080910402602001604051908101604052809291908181526020018280546111c690613b77565b80156112135780601f106111e857610100808354040283529160200191611213565b820191906000526020600020905b8154815290600101906020018083116111f657829003601f168201915b50505050509050919050565b600080339050610de58482856040518060200160405280600081525061204c565b60008033905061110e87828888888080601f0160208091040260200160405190810160405280939291908181526020018383808284376000920191909152508a925061183f915050565b6112926109c5565b6001600160a01b0316336001600160a01b0316146112c25760405162461bcd60e51b81526004016102c090613b51565b306112cb6109c5565b6001600160a01b03161461130857600080366040516112eb929190613acb565b604051809103902090505b806113016004611965565b036112f657505b610b58816121c1565b60008033905061135986828787878080601f01602080910402602001604051908101604052809392919081815260200183838082843760009201919091525061204c92505050565b9695505050505050565b600061111285858585612201565b600061137e848484612463565b90505b9392505050565b6113906109c5565b6001600160a01b0316336001600160a01b0316146113c05760405162461bcd60e51b81526004016102c090613b51565b306113c96109c5565b6001600160a01b03161461140657600080366040516113e9929190613acb565b604051809103902090505b806113ff6004611965565b036113f457505b610b58816124f5565b60105460008281526011602052604080822054905163d45c443560e01b8152919283926001600160a01b039091169163d45c4435916114519190600401612f44565b602060405180830381865afa15801561146e573d6000803e3d6000fd5b505050506040513d601f19601f820116820180604052508101906114929190613bfc565b9050806001146114a25780611381565b60009392505050565b60006109d9600d5490565b60008181526002602090815260408083208151928301909152600101546001600160401b031690819052611099565b6000848484846040516020016114fe9493929190613e87565b60408051601f19818403018152919052805160209091012095945050505050565b6115276109c5565b6001600160a01b0316336001600160a01b0316146115575760405162461bcd60e51b81526004016102c090613b51565b306115606109c5565b6001600160a01b03161461159d5760008036604051611580929190613acb565b604051809103902090505b806115966004611965565b0361158b57505b610b588161255e565b600061138183836115c260408051602081019091526000815290565b612463565b6115cf6109c5565b6001600160a01b0316336001600160a01b0316146115ff5760405162461bcd60e51b81526004016102c090613b51565b306116086109c5565b6001600160a01b0316146116455760008036604051611628929190613acb565b604051809103902090505b8061163e6004611965565b0361163357505b610b58816125be565b3360009081526007602052604090205460ff1661167d5760405162461bcd60e51b81526004016102c090613daa565b60008181526002602081905260409091200154819060ff16156116b25760405162461bcd60e51b81526004016102c090613dee565b6000828152600960209081526040808320338452909152902054829060ff16156116ee5760405162461bcd60e51b81526004016102c090613f03565b6000838152600a6020526040812080546001929061171090849060ff16613f13565b825460ff9182166101009390930a9283029190920219909116179055506000838152600960209081526040808320338085529252808320805460ff191660011790555185927fc465ffb6829baf0ff01f0180d8bc0dca7de4bb775e4d3a1bf155f9047da4026c91a3505050565b60606006805480602002602001604051908101604052809291908181526020018280548015610be357602002820191906000526020600020905b81546001600160a01b031681526001909101906020018083116117b7575050505050905090565b60006109e9826125fe565b60006001600160e01b03198216636e665ced60e01b14806109e957506109e9826126a6565b60006109e961181b6126f6565b836127e4565b600080600061183287878787612817565b91509150611016816128f7565b600085815260026020526040812060016118588861111b565b6007811115611869576118696135e4565b146118865760405162461bcd60e51b81526004016102c090613f74565b604080516020810190915281546001600160401b0316908190526000906118af90889086612463565b90506118be88888884886129d7565b83516000036119125787876001600160a01b03167fb8e138887d0aa13bab447e82de9d5c1777041ecd21ca36ba824ff1e6c07ddda488848960405161190593929190613f84565b60405180910390a361110e565b87876001600160a01b03167fe2babfbac5889a709b63bb7f598b324e08bc5a4fb9ec647fb3cbc9ec07eb8712888489896040516119529493929190613fb1565b60405180910390a3979650505050505050565b60006119808254600f81810b600160801b909204900b131590565b1561199e57604051631ed9509560e11b815260040160405180910390fd5b508054600f0b6000818152600180840160205260408220805492905583546fffffffffffffffffffffffffffffffff191692016001600160801b03169190911790915590565b6064811115611a055760405162461bcd60e51b81526004016102c090613ff2565b600f8054908290556040517f0553476bf02ef2726e8ce5ced78d63e26e602e4a2257b1f559418e24b463399790611a3f9083908590613d6e565b60405180910390a15050565b30611a546109c5565b6001600160a01b031614611ae65760005b8451811015611ae457306001600160a01b0316858281518110611a8a57611a8a61405f565b60200260200101516001600160a01b031603611ad457611ad4838281518110611ab557611ab561405f565b6020026020010151805190602001206004612ac390919063ffffffff16565b611add81614075565b9050611a65565b505b5050505050565b6008546000868152600a602052604090205460ff161015611b205760405162461bcd60e51b81526004016102c0906140d5565b611ae68585858585612aff565b30611b366109c5565b6001600160a01b031614611ae657600454600f81810b600160801b909204900b1315611ae6576000600455611ae6565b60608060606000846001600160401b03811115611b8557611b85612fc8565b604051908082528060200260200182016040528015611bb857816020015b6060815260200190600190039081611ba35790505b5090506000856001600160401b03811115611bd557611bd5612fc8565b604051908082528060200260200182016040528015611c0857816020015b6060815260200190600190039081611bf35790505b5090506000866001600160401b03811115611c2557611c25612fc8565b604051908082528060200260200182016040528015611c5857816020015b6060815260200190600190039081611c435790505b5090506000611c686001896140e5565b90505b60008111611dd757600060018281548110611c8857611c8861405f565b90600052602060002001549050611c9e81612b73565b838381518110611cb057611cb061405f565b6020026020010181905250600360008281526020019081526020016000208054611cd990613b77565b80601f0160208091040260200160405190810160405280929190818152602001828054611d0590613b77565b8015611d525780601f10611d2757610100808354040283529160200191611d52565b820191906000526020600020905b815481529060010190602001808311611d3557829003601f168201915b5050505050848381518110611d6957611d6961405f565b6020026020010181905250611d99611d808261111b565b6007811115611d9157611d916135e4565b60ff16612b73565b858381518110611dab57611dab61405f565b602002602001018190525081600003611dc45750611dd7565b81611dce816140ed565b92505050611c6b565b5096909550909350915050565b60608060606000846001600160401b03811115611e0357611e03612fc8565b604051908082528060200260200182016040528015611e3657816020015b6060815260200190600190039081611e215790505b5090506000856001600160401b03811115611e5357611e53612fc8565b604051908082528060200260200182016040528015611e8657816020015b6060815260200190600190039081611e715790505b5090506000866001600160401b03811115611ea357611ea3612fc8565b604051908082528060200260200182016040528015611ed657816020015b6060815260200190600190039081611ec15790505b5090506000611ee589896140e5565b90506000611ef460018a6140e5565b90505b81811061203c57600060018281548110611f1357611f1361405f565b90600052602060002001549050611f2981612b73565b848381518110611f3b57611f3b61405f565b6020026020010181905250600360008281526020019081526020016000208054611f6490613b77565b80601f0160208091040260200160405190810160405280929190818152602001828054611f9090613b77565b8015611fdd5780601f10611fb257610100808354040283529160200191611fdd565b820191906000526020600020905b815481529060010190602001808311611fc057829003601f168201915b5050505050858381518110611ff457611ff461405f565b602002602001018190525061200b611d808261111b565b86838151811061201d5761201d61405f565b6020026020010181905250508080612034906140ed565b915050611ef7565b5090989197509195509350505050565b60006111128585858561206a60408051602081019091526000815290565b61183f565b60008061207b83612c73565b90506004816007811115612091576120916135e4565b1461209c5792915050565b600083815260116020526040902054806120b7575092915050565b601054604051632ab0f52960e01b81526001600160a01b0390911690632ab0f529906120e7908490600401612f44565b602060405180830381865afa158015612104573d6000803e3d6000fd5b505050506040513d601f19601f820116820180604052508101906121289190614117565b15612137575060079392505050565b601054604051632c258a9f60e11b81526001600160a01b039091169063584b153e90612167908490600401612f44565b602060405180830381865afa158015612184573d6000803e3d6000fd5b505050506040513d601f19601f820116820180604052508101906121a89190614117565b156121b7575060059392505050565b5060029392505050565b7fc565b045403dc03c2eea82b81a0465edad9e2e7fc4d97e11421c209da93d7a93600b54826040516121f4929190613d6e565b60405180910390a1600b55565b600061220b6114ab565b61221a336108fd6001436140e5565b10156122385760405162461bcd60e51b81526004016102c090614186565b600061224d86868686805190602001206114e5565b905084518651146122705760405162461bcd60e51b81526004016102c0906141d4565b83518651146122915760405162461bcd60e51b81526004016102c0906141d4565b60008651116122b25760405162461bcd60e51b81526004016102c090614218565b600081815260026020908152604091829020825191820190925281546001600160401b031690819052156122f85760405162461bcd60e51b81526004016102c090614266565b600061230a6123056110a8565b612d53565b61231343612d53565b61231d9190614276565b9050600061232c6123056109ef565b6123369083614276565b835467ffffffffffffffff19166001600160401b038416178455905060018301805467ffffffffffffffff19166001600160401b0383161790556000848152600360209081526040909120875161238f92890190612df1565b506001805480820182556000919091527fb10e2d527612073b26eecdfd717e6a320cf44b4afac2b0732d9fcbe2b7fa0cf601849055837f7d84a6263ae0d98d3329bd7b46bb4e8d6f98cd35a7adb45c274c8b7fd5ebd5e0338b8b8d516001600160401b0381111561240257612402612fc8565b60405190808252806020026020018201604052801561243557816020015b60608152602001906001900390816124205790505b508c88888e60405161244e9897969594939291906142c7565b60405180910390a25091979650505050505050565b604051630748d63560e31b81526000906001600160a01b037f00000000000000000000000000000000000000000000000000000000000000001690633a46b1a8906124b49087908790600401614352565b602060405180830381865afa1580156124d1573d6000803e3d6000fd5b505050506040513d601f19601f8201168201806040525081019061137e9190613bfc565b6010546040517f08f74ea46ef7894f65eabfb5e6e695de773a000b47c529ab559178069b22640191612534916001600160a01b03909116908490614360565b60405180910390a1601080546001600160a01b0319166001600160a01b0392909216919091179055565b6000811161257e5760405162461bcd60e51b81526004016102c0906143bf565b7f7e3f7f0708a84de9203036abaa450dccc85ad5ff52f78c170f3edb55cf5e8828600c54826040516125b1929190613d6e565b60405180910390a1600c55565b7fccb45da8d5717e6c4544694297c4ba5cf151d455c9bb0ed4fc7a38411bc05461600d54826040516125f1929190613d6e565b60405180910390a1600d55565b60006064600f54604051632394e7a360e21b81526001600160a01b037f00000000000000000000000000000000000000000000000000000000000000001690638e539e8c90612651908790600401612f44565b602060405180830381865afa15801561266e573d6000803e3d6000fd5b505050506040513d601f19601f820116820180604052508101906126929190613bfc565b61269c91906143cf565b6109e99190614404565b60006001600160e01b031982166304d65e9160e51b14806126d757506001600160e01b03198216630b860e7b60e31b145b806109e957506301ffc9a760e01b6001600160e01b03198316146109e9565b6000306001600160a01b037f00000000000000000000000000000000000000000000000000000000000000001614801561274f57507f000000000000000000000000000000000000000000000000000000000000000046145b1561277957507f000000000000000000000000000000000000000000000000000000000000000090565b6109d97f00000000000000000000000000000000000000000000000000000000000000007f00000000000000000000000000000000000000000000000000000000000000007f0000000000000000000000000000000000000000000000000000000000000000612d80565b600082826040516020016127f9929190614418565b60405160208183030381529060405280519060200120905092915050565b6000807f7fffffffffffffffffffffffffffffff5d576e7357a4501ddfe92f46681b20a083111561284e57506000905060036128ee565b8460ff16601b1415801561286657508460ff16601c14155b1561287757506000905060046128ee565b60006001878787876040516000815260200160405260405161289c9493929190614449565b6020604051602081039080840390855afa1580156128be573d6000803e3d6000fd5b5050604051601f1901519150506001600160a01b0381166128e7576000600192509250506128ee565b9150600090505b94509492505050565b600081600481111561290b5761290b6135e4565b036129135750565b6001816004811115612927576129276135e4565b036129445760405162461bcd60e51b81526004016102c0906144b2565b6002816004811115612958576129586135e4565b036129755760405162461bcd60e51b81526004016102c0906144f6565b6003816004811115612989576129896135e4565b036129a65760405162461bcd60e51b81526004016102c090614545565b60048160048111156129ba576129ba6135e4565b03610b585760405162461bcd60e51b81526004016102c090614594565b6000858152600e602090815260408083206001600160a01b0388168452600381019092529091205460ff1615612a1f5760405162461bcd60e51b81526004016102c0906145e8565b6001600160a01b03851660009081526003820160205260409020805460ff1916600117905560ff8416612a6b5782816000016000828254612a609190613d56565b90915550611ae49050565b60001960ff851601612a8b5782816001016000828254612a609190613d56565b60011960ff851601612aab5782816002016000828254612a609190613d56565b60405162461bcd60e51b81526004016102c09061464a565b8154600160801b90819004600f0b6000818152600180860160205260409091209390935583546001600160801b03908116939091011602179055565b60105460405163e38335e560e01b81526001600160a01b039091169063e38335e5903490612b3a908890889088906000908990600401613c8b565b6000604051808303818588803b158015612b5357600080fd5b505af1158015612b67573d6000803e3d6000fd5b50505050505050505050565b606081600003612b9a5750506040805180820190915260018152600360fc1b602082015290565b8160005b8115612bc45780612bae81614075565b9150612bbd9050600a83614404565b9150612b9e565b6000816001600160401b03811115612bde57612bde612fc8565b6040519080825280601f01601f191660200182016040528015612c08576020820181803683370190505b5090505b8415610de557612c1d6001836140e5565b9150612c2a600a8661465a565b612c35906030613d56565b60f81b818381518110612c4a57612c4a61405f565b60200101906001600160f81b031916908160001a905350612c6c600a86614404565b9450612c0c565b600081815260026020819052604082209081015460ff1615612c985750600792915050565b6002810154610100900460ff1615612cb35750600292915050565b6000612cbe84611071565b905080600003612ce05760405162461bcd60e51b81526004016102c0906146a2565b438110612cf1575060009392505050565b6000612cfc856114b6565b9050438110612d1057506001949350505050565b612d1985612dba565b8015612d3857506000858152600e602052604090208054600190910154115b15612d4857506004949350505050565b506003949350505050565b60006001600160401b03821115612d7c5760405162461bcd60e51b81526004016102c0906146f5565b5090565b60008383834630604051602001612d9b959493929190614705565b6040516020818303038152906040528051906020012090509392505050565b6000818152600e6020526040812060028101546001820154612ddc9190613d56565b612de861097f85611071565b11159392505050565b828054612dfd90613b77565b90600052602060002090601f016020900481019282612e1f5760008555612e65565b82601f10612e3857805160ff1916838001178555612e65565b82800160010185558215612e65579182015b82811115612e65578251825591602001919060010190612e4a565b50612d7c9291505b80821115612d7c5760008155600101612e6d565b603281526000602082017f476f7665726e6f722c207265636569766528293a20205f6578656375746f72288152712920213d206164647265737328746869732960701b602082015291505b5060400190565b602080825281016109e981612e81565b6001600160e01b031981165b8114610b5857600080fd5b80356109e981612ee3565b600060208284031215612f1a57612f1a600080fd5b6000610de58484612efa565b8015155b82525050565b602081016109e98284612f26565b80612f2a565b602081016109e98284612f3e565b80612eef565b80356109e981612f52565b60ff8116612eef565b80356109e981612f63565b60008083601f840112612f8c57612f8c600080fd5b5081356001600160401b03811115612fa657612fa6600080fd5b602083019150836001820283011115612fc157612fc1600080fd5b9250929050565b634e487b7160e01b600052604160045260246000fd5b601f19601f83011681018181106001600160401b038211171561300357613003612fc8565b6040525050565b600061301560405190565b90506130218282612fde565b919050565b60006001600160401b0382111561303f5761303f612fc8565b601f19601f83011660200192915050565b82818337506000910152565b600061306f61306a84613026565b61300a565b90508281526020810184848401111561308a5761308a600080fd5b613095848285613050565b509392505050565b600082601f8301126130b1576130b1600080fd5b8135610de584826020860161305c565b60008060008060008060008060e0898b0312156130e0576130e0600080fd5b60006130ec8b8b612f58565b98505060206130fd8b828c01612f6c565b97505060408901356001600160401b0381111561311c5761311c600080fd5b6131288b828c01612f77565b965096505060608901356001600160401b0381111561314957613149600080fd5b6131558b828c0161309d565b94505060806131668b828c01612f6c565b93505060a06131778b828c01612f58565b92505060c06131888b828c01612f58565b9150509295985092959890939650565b6000602082840312156131ad576131ad600080fd5b6000610de58484612f58565b60005b838110156131d45781810151838201526020016131bc565b838111156131e3576000848401525b50505050565b60006131f3825190565b80845260208401935061320a8185602086016131b9565b601f01601f19169290920192915050565b6020808252810161138181846131e9565b60006001600160401b0382111561324557613245612fc8565b5060209081020190565b60006001600160a01b0382166109e9565b612eef8161324f565b80356109e981613260565b600061328261306a8461322c565b838152905060208082019084028301858111156132a1576132a1600080fd5b835b818110156132c557806132b68882613269565b845250602092830192016132a3565b5050509392505050565b600082601f8301126132e3576132e3600080fd5b8135610de5848260208601613274565b600061330161306a8461322c565b8381529050602080820190840283018581111561332057613320600080fd5b835b818110156132c557806133358882612f58565b84525060209283019201613322565b600082601f83011261335857613358600080fd5b8135610de58482602086016132f3565b600061337661306a8461322c565b8381529050602080820190840283018581111561339557613395600080fd5b835b818110156132c55780356001600160401b038111156133b8576133b8600080fd5b8086016133c5898261309d565b8552505060209283019201613397565b600082601f8301126133e9576133e9600080fd5b8135610de5848260208601613368565b6000806000806080858703121561341257613412600080fd5b84356001600160401b0381111561342b5761342b600080fd5b613437878288016132cf565b94505060208501356001600160401b0381111561345657613456600080fd5b61346287828801613344565b93505060408501356001600160401b0381111561348157613481600080fd5b61348d878288016133d5565b925050606061349e87828801612f58565b91505092959194509250565b612f2a8161324f565b602081016109e982846134aa565b600061138183836131e9565b60006134d7825190565b808452602084019350836020820285016134f18560200190565b8060005b85811015613526578484038952815161350e85826134c1565b94506020830160209a909a01999250506001016134f5565b5091979650505050505050565b6060808252810161354481866134cd565b9050818103602083015261355881856134cd565b9050818103604083015261111281846134cd565b600080600080600060a0868803121561358757613587600080fd5b60006135938888612f58565b95505060206135a488828901612f6c565b94505060406135b588828901612f6c565b93505060606135c688828901612f58565b92505060806135d788828901612f58565b9150509295509295909350565b634e487b7160e01b600052602160045260246000fd5b60088110610b5857610b586135e4565b80613021816135fa565b60006109e98261360a565b612f2a81613614565b602081016109e9828461361f565b60006136428383612f3e565b505060200190565b6000613654825190565b80845260209384019383018060005b838110156136885781516136778882613636565b975060208301925050600101613663565b509495945050505050565b60208082528101611381818461364a565b600080604083850312156136ba576136ba600080fd5b60006136c68585612f58565b92505060206136d785828601613269565b9150509250929050565b606081016136ef8286612f3e565b6136fc6020830185612f3e565b610de56040830184612f3e565b6000806040838503121561371f5761371f600080fd5b600061372b8585612f58565b92505060206136d785828601612f6c565b60008060008060006080868803121561375757613757600080fd5b60006137638888612f58565b955050602061377488828901612f6c565b94505060408601356001600160401b0381111561379357613793600080fd5b61379f88828901612f77565b935093505060608601356001600160401b038111156137c0576137c0600080fd5b6135d78882890161309d565b600080600080606085870312156137e5576137e5600080fd5b60006137f18787612f58565b945050602061380287828801612f6c565b93505060408501356001600160401b0381111561382157613821600080fd5b61382d87828801612f77565b95989497509550505050565b6000806000806080858703121561385257613852600080fd5b84356001600160401b0381111561386b5761386b600080fd5b613877878288016132cf565b94505060208501356001600160401b0381111561389657613896600080fd5b6138a287828801613344565b93505060408501356001600160401b038111156138c1576138c1600080fd5b6138cd878288016133d5565b92505060608501356001600160401b038111156138ec576138ec600080fd5b61349e8782880161309d565b60006020828403121561390d5761390d600080fd5b6000610de58484613269565b60008060006060848603121561393157613931600080fd5b600061393d8686613269565b935050602061394e86828701612f58565b92505060408401356001600160401b0381111561396d5761396d600080fd5b6139798682870161309d565b9150509250925092565b60006109e98261324f565b612eef81613983565b80356109e98161398e565b6000602082840312156139b7576139b7600080fd5b6000610de58484613997565b60ff8116612f2a565b602081016109e982846139c3565b600080604083850312156139f0576139f0600080fd5b60006139fc8585613269565b92505060206136d785828601612f58565b600061364283836134aa565b6000613a23825190565b80845260209384019383018060005b83811015613688578151613a468882613a0d565b975060208301925050600101613a32565b602080825281016113818184613a19565b60006109e96001600160a01b038316613a7f565b90565b6001600160a01b031690565b60006109e982613a68565b60006109e982613a8b565b612f2a81613a96565b602081016109e98284613aa1565b6000613ac5838584613050565b50500190565b6000610de5828486613ab8565b60a08101613ae68288612f3e565b613af36020830187612f3e565b613b0060408301866139c3565b613b0d6060830185612f3e565b6113596080830184612f3e565b601881526000602082017f476f7665726e6f723a206f6e6c79476f7665726e616e63650000000000000000815291505b5060200190565b602080825281016109e981613b1a565b634e487b7160e01b600052602260045260246000fd5b600281046001821680613b8b57607f821691505b602082108103613b9d57613b9d613b61565b50919050565b602181526000602082017f476f7665726e6f723a2070726f706f73616c206e6f74207375636365737366758152601b60fa1b60208201529150612ecc565b602080825281016109e981613ba3565b80516109e981612f52565b600060208284031215613c1157613c11600080fd5b6000610de58484613bf1565b6000613c27825190565b80845260208401935083602082028501613c418560200190565b8060005b858110156135265784840389528151613c5e85826134c1565b94506020830160209a909a0199925050600101613c45565b60006109e9613a7c8381565b612f2a81613c76565b60a08082528101613c9c8188613a19565b90508181036020830152613cb0818761364a565b90508181036040830152613cc48186613c1d565b9050613b0d6060830185613c82565b60c08082528101613ce48189613a19565b90508181036020830152613cf8818861364a565b90508181036040830152613d0c8187613c1d565b9050613d1b6060830186613c82565b613d286080830185612f3e565b613d3560a0830184612f3e565b979650505050505050565b634e487b7160e01b600052601160045260246000fd5b60008219821115613d6957613d69613d40565b500190565b60408101613d7c8285612f3e565b6113816020830184612f3e565b600a8152600060208201693737ba1039b4b3b732b960b11b81529150613b4a565b602080825281016109e981613d89565b601981526000602082017f70726f706f73616c20616c72656164792065786563757465640000000000000081529150613b4a565b602080825281016109e981613dba565b60168152600060208201751c1c9bdc1bdcd85b081b9bdd0818dbdb999a5c9b595960521b81529150613b4a565b602080825281016109e981613dfe565b600060ff8216915060ff83165b925082821015613e5a57613e5a613d40565b500390565b60608101613e6d8286612f3e565b613e7a6020830185612f3e565b610de560408301846139c3565b60808082528101613e988187613a19565b90508181036020830152613eac818661364a565b90508181036040830152613ec08185613c1d565b90506111126060830184612f3e565b601a81526000602082017f70726f706f73616c20616c726561647920636f6e6669726d656400000000000081529150613b4a565b602080825281016109e981613ecf565b600060ff8216915060ff831692508260ff03821115613d6957613d69613d40565b602381526000602082017f476f7665726e6f723a20766f7465206e6f742063757272656e746c792061637481526269766560e81b60208201529150612ecc565b602080825281016109e981613f34565b60608101613f9282866139c3565b613f9f6020830185612f3e565b818103604083015261111281846131e9565b60808101613fbf82876139c3565b613fcc6020830186612f3e565b8181036040830152613fde81856131e9565b9050818103606083015261135981846131e9565b602080825281016109e981604381527f476f7665726e6f72566f74657351756f72756d4672616374696f6e3a2071756f60208201527f72756d4e756d657261746f72206f7665722071756f72756d44656e6f6d696e616040820152623a37b960e91b606082015260800190565b634e487b7160e01b600052603260045260246000fd5b6000600019820361408857614088613d40565b5060010190565b602981526000602082017f4d61696e546f6b656e476f7665726e6f723a2050726f706f73616c206e6f742081526818dbdb999a5c9b595960ba1b60208201529150612ecc565b602080825281016109e98161408f565b600082613e48565b6000816140fc576140fc613d40565b506000190190565b801515612eef565b80516109e981614104565b60006020828403121561412c5761412c600080fd5b6000610de5848461410c565b603181526000602082017f476f7665726e6f723a2070726f706f73657220766f7465732062656c6f7720708152701c9bdc1bdcd85b081d1a1c995cda1bdb19607a1b60208201529150612ecc565b602080825281016109e981614138565b602181526000602082017f476f7665726e6f723a20696e76616c69642070726f706f73616c206c656e67748152600d60fb1b60208201529150612ecc565b602080825281016109e981614196565b601881526000602082017f476f7665726e6f723a20656d7074792070726f706f73616c000000000000000081529150613b4a565b602080825281016109e9816141e4565b602181526000602082017f476f7665726e6f723a2070726f706f73616c20616c72656164792065786973748152607360f81b60208201529150612ecc565b602080825281016109e981614228565b60006001600160401b03821691506001600160401b0383169250826001600160401b0303821115613d6957613d69613d40565b60006109e9613a7c6001600160401b03841681565b612f2a816142a9565b61010081016142d6828b6134aa565b81810360208301526142e8818a613a19565b905081810360408301526142fc818961364a565b9050818103606083015261431081886134cd565b905081810360808301526143248187613c1d565b905061433360a08301866142be565b61434060c08301856142be565b81810360e0830152610ac381846131e9565b60408101613d7c82856134aa565b6040810161436e82856134aa565b61138160208301846134aa565b602781526000602082017f476f7665726e6f7253657474696e67733a20766f74696e6720706572696f6420815266746f6f206c6f7760c81b60208201529150612ecc565b602080825281016109e98161437b565b60008160001904831182151516156143e9576143e9613d40565b500290565b634e487b7160e01b600052601260045260246000fd5b600082614413576144136143ee565b500490565b61190160f01b8152600201600061442f8285612f3e565b60208201915061443f8284612f3e565b5060200192915050565b608081016144578287612f3e565b61446460208301866139c3565b6144716040830185612f3e565b6111126060830184612f3e565b601881526000602082017f45434453413a20696e76616c6964207369676e6174757265000000000000000081529150613b4a565b602080825281016109e98161447e565b601f81526000602082017f45434453413a20696e76616c6964207369676e6174757265206c656e6774680081529150613b4a565b602080825281016109e9816144c2565b602281526000602082017f45434453413a20696e76616c6964207369676e6174757265202773272076616c815261756560f01b60208201529150612ecc565b602080825281016109e981614506565b602281526000602082017f45434453413a20696e76616c6964207369676e6174757265202776272076616c815261756560f01b60208201529150612ecc565b602080825281016109e981614555565b602781526000602082017f476f7665726e6f72566f74696e6753696d706c653a20766f746520616c726561815266191e4818d85cdd60ca1b60208201529150612ecc565b602080825281016109e9816145a4565b603581526000602082017f476f7665726e6f72566f74696e6753696d706c653a20696e76616c69642076618152746c756520666f7220656e756d20566f74655479706560581b60208201529150612ecc565b602080825281016109e9816145f8565b600082614669576146696143ee565b500690565b601d81526000602082017f476f7665726e6f723a20756e6b6e6f776e2070726f706f73616c20696400000081529150613b4a565b602080825281016109e98161466e565b602681526000602082017f53616665436173743a2076616c756520646f65736e27742066697420696e203681526534206269747360d01b60208201529150612ecc565b602080825281016109e9816146b2565b60a081016147138288612f3e565b6147206020830187612f3e565b61472d6040830186612f3e565b61473a6060830185612f3e565b61135960808301846134aa56fea2646970667358221220e179a7cca9729b60528602032f25fc317c776c6ea6513360f1b59bf583e95d2464736f6c634300080d0033",
  "immutableReferences": {
    "7055": [
      {
        "length": 32,
        "start": 2454
      },
      {
        "length": 32,
        "start": 9341
      },
      {
        "length": 32,
        "start": 9756
      }
    ],
    "12145": [
      {
        "length": 32,
        "start": 10071
      }
    ],
    "12147": [
      {
        "length": 32,
        "start": 10029
      }
    ],
    "12149": [
      {
        "length": 32,
        "start": 9987
      }
    ],
    "12151": [
      {
        "length": 32,
        "start": 10143
      }
    ],
    "12153": [
      {
        "length": 32,
        "start": 10176
      }
    ],
    "12155": [
      {
        "length": 32,
        "start": 10110
      }
    ]
  },
  "source": "// SPDX-License-Identifier: MIT\n// Copyright Fathom 2022\n\npragma solidity ^0.8.4;\n\nimport \"./Governor.sol\";\nimport \"./extensions/GovernorSettings.sol\";\nimport \"./extensions/GovernorCountingSimple.sol\";\nimport \"./extensions/GovernorVotes.sol\";\nimport \"./extensions/GovernorVotesQuorumFraction.sol\";\nimport \"./extensions/GovernorTimelockControl.sol\";\n\ncontract MainTokenGovernor is\n    Governor,\n    GovernorSettings,\n    GovernorCountingSimple,\n    GovernorVotes,\n    GovernorVotesQuorumFraction,\n    GovernorTimelockControl\n{\n    constructor(\n        IVotes _token,\n        TimelockController _timelock,\n        address[] memory _signers,\n        uint _numConfirmationsRequired\n    )\n        Governor(\"MainTokenGovernor\", _signers, _numConfirmationsRequired)\n        GovernorSettings(\n            1, /* 1 block */\n            20, /* Should be 1 week */\n            1000\n        )\n        GovernorVotes(_token)\n        GovernorVotesQuorumFraction(4)\n        GovernorTimelockControl(_timelock)\n    {}\n\n    // The following functions are overrides required by Solidity.\n\n    function propose(\n        address[] memory targets,\n        uint256[] memory values,\n        bytes[] memory calldatas,\n        string memory description\n    ) public override(Governor, IGovernor) returns (uint256) {\n        return super.propose(targets, values, calldatas, description);\n    }\n\n    function proposalThreshold() public view override(Governor, GovernorSettings) returns (uint256) {\n        return super.proposalThreshold();\n    }\n\n    function supportsInterface(bytes4 interfaceId)\n        public\n        view\n        override(Governor, GovernorTimelockControl)\n        returns (bool)\n    {\n        return super.supportsInterface(interfaceId);\n    }\n\n    function votingDelay() public view override(IGovernor, GovernorSettings) returns (uint256) {\n        return super.votingDelay();\n    }\n\n    function votingPeriod() public view override(IGovernor, GovernorSettings) returns (uint256) {\n        return super.votingPeriod();\n    }\n\n    function quorum(uint256 blockNumber)\n        public\n        view\n        override(IGovernor, GovernorVotesQuorumFraction)\n        returns (uint256)\n    {\n        return super.quorum(blockNumber);\n    }\n\n    function state(uint256 proposalId) public view override(Governor, GovernorTimelockControl) returns (ProposalState) {\n        return super.state(proposalId);\n    }\n\n    function _execute(\n        uint256 proposalId,\n        address[] memory targets,\n        uint256[] memory values,\n        bytes[] memory calldatas,\n        bytes32 descriptionHash\n    ) internal override(Governor, GovernorTimelockControl) {\n        require(numConfirmations[proposalId] >= numConfirmationsRequired, \"MainTokenGovernor: Proposal not confirmed\");\n        super._execute(proposalId, targets, values, calldatas, descriptionHash);\n    }\n\n    function _cancel(\n        address[] memory targets,\n        uint256[] memory values,\n        bytes[] memory calldatas,\n        bytes32 descriptionHash\n    ) internal override(Governor, GovernorTimelockControl) returns (uint256) {\n        return super._cancel(targets, values, calldatas, descriptionHash);\n    }\n\n    function _executor() internal view override(Governor, GovernorTimelockControl) returns (address) {\n        return super._executor();\n    }\n}\n",
  "sourcePath": "/Users/max.hayes/VSCodeProjects/fathom-dao-smart-contracts/contracts/dao/governance/MainTokenGovernor.sol",
  "compiler": {
    "name": "solc",
    "version": "0.8.13+commit.abaa5c0e.Darwin.appleclang"
  },
  "schemaVersion": "3.4.10",
  "updatedAt": "2022-10-05T13:59:14.220Z",
  "devdoc": {
    "errors": {
      "Empty()": [
        {
          "details": "An operation (e.g. {front}) couldn't be completed due to the queue being empty."
        }
      ]
    },
    "kind": "dev",
    "methods": {
      "COUNTING_MODE()": {
        "details": "See {IGovernor-COUNTING_MODE}."
      },
      "castVote(uint256,uint8)": {
        "details": "See {IGovernor-castVote}."
      },
      "castVoteBySig(uint256,uint8,uint8,bytes32,bytes32)": {
        "details": "See {IGovernor-castVoteBySig}."
      },
      "castVoteWithReason(uint256,uint8,string)": {
        "details": "See {IGovernor-castVoteWithReason}."
      },
      "castVoteWithReasonAndParams(uint256,uint8,string,bytes)": {
        "details": "See {IGovernor-castVoteWithReasonAndParams}."
      },
      "castVoteWithReasonAndParamsBySig(uint256,uint8,string,bytes,uint8,bytes32,bytes32)": {
        "details": "See {IGovernor-castVoteWithReasonAndParamsBySig}."
      },
      "execute(address[],uint256[],bytes[],bytes32)": {
        "details": "See {IGovernor-execute}."
      },
      "getDescription(uint256)": {
        "details": "returns a proposals description given a proposal Id"
      },
      "getProposalIds()": {
        "details": "returns all proposal Ids"
      },
      "getProposals(uint256)": {
        "details": "returns a proposals descriptions given an index, it will return the       last |numProposals| proposals  proposalIds, details and statusses"
      },
      "getVotes(address,uint256)": {
        "details": "See {IGovernor-getVotes}."
      },
      "getVotesWithParams(address,uint256,bytes)": {
        "details": "See {IGovernor-getVotesWithParams}."
      },
      "hasVoted(uint256,address)": {
        "details": "See {IGovernor-hasVoted}."
      },
      "hashProposal(address[],uint256[],bytes[],bytes32)": {
        "details": "See {IGovernor-hashProposal}. The proposal id is produced by hashing the RLC encoded `targets` array, the `values` array, the `calldatas` array and the descriptionHash (bytes32 which itself is the keccak256 hash of the description string). This proposal id can be produced from the proposal data which is part of the {ProposalCreated} event. It can even be computed in advance, before the proposal is submitted. Note that the chainId and the governor address are not part of the proposal id computation. Consequently, the same proposal (with same operation and same description) will have the same id if submitted on multiple governors across multiple networks. This also means that in order to execute the same operation twice (on the same governor) the proposer will have to change the description in order to avoid proposal id conflicts."
      },
      "name()": {
        "details": "See {IGovernor-name}."
      },
      "proposalDeadline(uint256)": {
        "details": "See {IGovernor-proposalDeadline}."
      },
      "proposalEta(uint256)": {
        "details": "Public accessor to check the eta of a queued proposal"
      },
      "proposalSnapshot(uint256)": {
        "details": "See {IGovernor-proposalSnapshot}."
      },
      "proposalVotes(uint256)": {
        "details": "Accessor to the internal vote counts."
      },
      "queue(address[],uint256[],bytes[],bytes32)": {
        "details": "Function to queue a proposal to the timelock."
      },
      "quorumDenominator()": {
        "details": "Returns the quorum denominator. Defaults to 100, but may be overridden."
      },
      "quorumNumerator()": {
        "details": "Returns the current quorum numerator. See {quorumDenominator}."
      },
      "setProposalThreshold(uint256)": {
        "details": "Update the proposal threshold. This operation can only be performed through a governance proposal. Emits a {ProposalThresholdSet} event."
      },
      "setVotingDelay(uint256)": {
        "details": "Update the voting delay. This operation can only be performed through a governance proposal. Emits a {VotingDelaySet} event."
      },
      "setVotingPeriod(uint256)": {
        "details": "Update the voting period. This operation can only be performed through a governance proposal. Emits a {VotingPeriodSet} event."
      },
      "timelock()": {
        "details": "Public accessor to check the address of the timelock"
      },
      "updateQuorumNumerator(uint256)": {
        "details": "Changes the quorum numerator. Emits a {QuorumNumeratorUpdated} event. Requirements: - Must be called through a governance proposal. - New numerator must be smaller or equal to the denominator."
      },
      "updateTimelock(address)": {
        "details": "Public endpoint to update the underlying timelock instance. Restricted to the timelock itself, so updates must be proposed, scheduled, and executed through governance proposals. CAUTION: It is not recommended to change the timelock while there are other queued governance proposals."
      },
      "version()": {
        "details": "See {IGovernor-version}."
      }
    },
    "version": 1
  },
  "userdoc": {
    "kind": "user",
    "methods": {},
    "version": 1
  }
}