{
    "contractName": "MainTokenGovernor",
    "abi": [
        {
            "inputs": [
                {
                    "internalType": "contract IVotes",
                    "name": "_token",
                    "type": "address"
                },
                {
                    "internalType": "contract TimelockController",
                    "name": "_timelock",
                    "type": "address"
                },
                {
                    "internalType": "address",
                    "name": "_multiSig",
                    "type": "address"
                },
                {
                    "internalType": "uint256",
                    "name": "_initialVotingDelay",
                    "type": "uint256"
                },
                {
                    "internalType": "uint256",
                    "name": "_votingPeriod",
                    "type": "uint256"
                },
                {
                    "internalType": "uint256",
                    "name": "_initialProposalThreshold",
                    "type": "uint256"
                },
                {
                    "internalType": "uint256",
                    "name": "_proposalTimeDelay",
                    "type": "uint256"
                },
                {
                    "internalType": "uint256",
                    "name": "_proposalLifetime",
                    "type": "uint256"
                }
            ],
            "stateMutability": "nonpayable",
            "type": "constructor"
        },
        {
            "inputs": [],
            "name": "AlreadyExecuted",
            "type": "error"
        },
        {
            "inputs": [],
            "name": "Empty",
            "type": "error"
        },
        {
            "inputs": [],
            "name": "EmptyProposal",
            "type": "error"
        },
        {
            "inputs": [],
            "name": "FailedToSendEther",
            "type": "error"
        },
        {
            "inputs": [],
            "name": "InsufficientFunds",
            "type": "error"
        },
        {
            "inputs": [],
            "name": "InsufficientVotes",
            "type": "error"
        },
        {
            "inputs": [],
            "name": "InvalidProposalLength",
            "type": "error"
        },
        {
            "inputs": [],
            "name": "LessThanMinimum",
            "type": "error"
        },
        {
            "inputs": [],
            "name": "LowLifetime",
            "type": "error"
        },
        {
            "inputs": [],
            "name": "MaxTargetLength",
            "type": "error"
        },
        {
            "inputs": [],
            "name": "NotConfirmed",
            "type": "error"
        },
        {
            "inputs": [],
            "name": "NotLive",
            "type": "error"
        },
        {
            "inputs": [],
            "name": "NotSuccessful",
            "type": "error"
        },
        {
            "inputs": [],
            "name": "OnlyExecutor",
            "type": "error"
        },
        {
            "inputs": [],
            "name": "OnlyMultiSig",
            "type": "error"
        },
        {
            "inputs": [],
            "name": "OnlyOvernance",
            "type": "error"
        },
        {
            "inputs": [],
            "name": "ProposalAlreadyConfirmed",
            "type": "error"
        },
        {
            "inputs": [],
            "name": "ProposalAlreadyExecuted",
            "type": "error"
        },
        {
            "inputs": [],
            "name": "ProposalAlreadyExists",
            "type": "error"
        },
        {
            "inputs": [],
            "name": "ProposalDelayNotPassed",
            "type": "error"
        },
        {
            "inputs": [],
            "name": "ProposalExpired",
            "type": "error"
        },
        {
            "inputs": [],
            "name": "ProposalNotActive",
            "type": "error"
        },
        {
            "inputs": [],
            "name": "ProposalNotConfirmed",
            "type": "error"
        },
        {
            "inputs": [],
            "name": "ProposalNotQueued",
            "type": "error"
        },
        {
            "inputs": [],
            "name": "ProposalNotSuccessful",
            "type": "error"
        },
        {
            "inputs": [],
            "name": "ProposerIsBlocklisted",
            "type": "error"
        },
        {
            "inputs": [],
            "name": "QuorumNumeratorOverflow",
            "type": "error"
        },
        {
            "inputs": [],
            "name": "QuorumNumeratorUnderflow",
            "type": "error"
        },
        {
            "inputs": [],
            "name": "TokenSupported",
            "type": "error"
        },
        {
            "inputs": [],
            "name": "TokenUnsupported",
            "type": "error"
        },
        {
            "inputs": [],
            "name": "UnknownProposal",
            "type": "error"
        },
        {
            "inputs": [],
            "name": "VoteCasted",
            "type": "error"
        },
        {
            "inputs": [],
            "name": "WrongVoteType",
            "type": "error"
        },
        {
            "inputs": [],
            "name": "ZeroAddress",
            "type": "error"
        },
        {
            "inputs": [],
            "name": "ZeroDelay",
            "type": "error"
        },
        {
            "inputs": [],
            "name": "ZeroTargets",
            "type": "error"
        },
        {
            "inputs": [],
            "name": "ZeroThreshold",
            "type": "error"
        },
        {
            "inputs": [],
            "name": "ZeroValue",
            "type": "error"
        },
        {
            "inputs": [],
            "name": "ZeroVotePeriod",
            "type": "error"
        },
        {
            "anonymous": false,
            "inputs": [
                {
                    "indexed": true,
                    "internalType": "address",
                    "name": "signer",
                    "type": "address"
                },
                {
                    "indexed": true,
                    "internalType": "uint256",
                    "name": "proposalId",
                    "type": "uint256"
                }
            ],
            "name": "ConfirmProposal",
            "type": "event"
        },
        {
            "anonymous": false,
            "inputs": [],
            "name": "EmergencyStop",
            "type": "event"
        },
        {
            "anonymous": false,
            "inputs": [
                {
                    "indexed": true,
                    "internalType": "address",
                    "name": "owner",
                    "type": "address"
                },
                {
                    "indexed": true,
                    "internalType": "bool",
                    "name": "success",
                    "type": "bool"
                },
                {
                    "indexed": false,
                    "internalType": "bytes",
                    "name": "data",
                    "type": "bytes"
                }
            ],
            "name": "ExecuteProposal",
            "type": "event"
        },
        {
            "anonymous": false,
            "inputs": [
                {
                    "indexed": false,
                    "internalType": "uint256",
                    "name": "newMaxTargets",
                    "type": "uint256"
                },
                {
                    "indexed": false,
                    "internalType": "uint256",
                    "name": "oldMaxTargets",
                    "type": "uint256"
                }
            ],
            "name": "MaxTargetUpdated",
            "type": "event"
        },
        {
            "anonymous": false,
            "inputs": [
                {
                    "indexed": false,
                    "internalType": "address",
                    "name": "newMultiSig",
                    "type": "address"
                },
                {
                    "indexed": false,
                    "internalType": "address",
                    "name": "oldMultiSig",
                    "type": "address"
                }
            ],
            "name": "MultiSigUpdated",
            "type": "event"
        },
        {
            "anonymous": false,
            "inputs": [
                {
                    "indexed": true,
                    "internalType": "uint256",
                    "name": "proposalId",
                    "type": "uint256"
                }
            ],
            "name": "ProposalCanceled",
            "type": "event"
        },
        {
            "anonymous": false,
            "inputs": [
                {
                    "indexed": true,
                    "internalType": "uint256",
                    "name": "proposalId",
                    "type": "uint256"
                },
                {
                    "indexed": true,
                    "internalType": "address",
                    "name": "proposer",
                    "type": "address"
                },
                {
                    "indexed": false,
                    "internalType": "address[]",
                    "name": "targets",
                    "type": "address[]"
                },
                {
                    "indexed": false,
                    "internalType": "uint256[]",
                    "name": "values",
                    "type": "uint256[]"
                },
                {
                    "indexed": false,
                    "internalType": "string[]",
                    "name": "signatures",
                    "type": "string[]"
                },
                {
                    "indexed": false,
                    "internalType": "bytes[]",
                    "name": "calldatas",
                    "type": "bytes[]"
                },
                {
                    "indexed": false,
                    "internalType": "uint256",
                    "name": "startBlock",
                    "type": "uint256"
                },
                {
                    "indexed": true,
                    "internalType": "uint256",
                    "name": "endBlock",
                    "type": "uint256"
                },
                {
                    "indexed": false,
                    "internalType": "string",
                    "name": "description",
                    "type": "string"
                }
            ],
            "name": "ProposalCreated",
            "type": "event"
        },
        {
            "anonymous": false,
            "inputs": [
                {
                    "indexed": true,
                    "internalType": "uint256",
                    "name": "proposalId",
                    "type": "uint256"
                }
            ],
            "name": "ProposalExecuted",
            "type": "event"
        },
        {
            "anonymous": false,
            "inputs": [
                {
                    "indexed": false,
                    "internalType": "uint256",
                    "name": "newProposalLifetime",
                    "type": "uint256"
                },
                {
                    "indexed": false,
                    "internalType": "uint256",
                    "name": "oldProposalLifetime",
                    "type": "uint256"
                }
            ],
            "name": "ProposalLifetimeUpdated",
            "type": "event"
        },
        {
            "anonymous": false,
            "inputs": [
                {
                    "indexed": false,
                    "internalType": "uint256",
                    "name": "proposalId",
                    "type": "uint256"
                },
                {
                    "indexed": false,
                    "internalType": "uint256",
                    "name": "eta",
                    "type": "uint256"
                }
            ],
            "name": "ProposalQueued",
            "type": "event"
        },
        {
            "anonymous": false,
            "inputs": [
                {
                    "indexed": false,
                    "internalType": "uint256",
                    "name": "oldProposalThreshold",
                    "type": "uint256"
                },
                {
                    "indexed": false,
                    "internalType": "uint256",
                    "name": "newProposalThreshold",
                    "type": "uint256"
                }
            ],
            "name": "ProposalThresholdSet",
            "type": "event"
        },
        {
            "anonymous": false,
            "inputs": [
                {
                    "indexed": false,
                    "internalType": "uint256",
                    "name": "newProposalTimeDelay",
                    "type": "uint256"
                },
                {
                    "indexed": false,
                    "internalType": "uint256",
                    "name": "oldProposalTimeDelay",
                    "type": "uint256"
                }
            ],
            "name": "ProposalTimeDelayUpdated",
            "type": "event"
        },
        {
            "anonymous": false,
            "inputs": [
                {
                    "indexed": false,
                    "internalType": "uint256",
                    "name": "oldQuorumNumerator",
                    "type": "uint256"
                },
                {
                    "indexed": false,
                    "internalType": "uint256",
                    "name": "newQuorumNumerator",
                    "type": "uint256"
                }
            ],
            "name": "QuorumNumeratorUpdated",
            "type": "event"
        },
        {
            "anonymous": false,
            "inputs": [
                {
                    "indexed": true,
                    "internalType": "address",
                    "name": "signer",
                    "type": "address"
                },
                {
                    "indexed": true,
                    "internalType": "uint256",
                    "name": "proposalId",
                    "type": "uint256"
                }
            ],
            "name": "RevokeConfirmation",
            "type": "event"
        },
        {
            "anonymous": false,
            "inputs": [
                {
                    "indexed": false,
                    "internalType": "address",
                    "name": "oldTimelock",
                    "type": "address"
                },
                {
                    "indexed": false,
                    "internalType": "address",
                    "name": "newTimelock",
                    "type": "address"
                }
            ],
            "name": "TimelockChange",
            "type": "event"
        },
        {
            "anonymous": false,
            "inputs": [
                {
                    "indexed": true,
                    "internalType": "address",
                    "name": "voter",
                    "type": "address"
                },
                {
                    "indexed": true,
                    "internalType": "uint256",
                    "name": "proposalId",
                    "type": "uint256"
                },
                {
                    "indexed": false,
                    "internalType": "uint8",
                    "name": "support",
                    "type": "uint8"
                },
                {
                    "indexed": false,
                    "internalType": "uint256",
                    "name": "weight",
                    "type": "uint256"
                },
                {
                    "indexed": false,
                    "internalType": "string",
                    "name": "reason",
                    "type": "string"
                }
            ],
            "name": "VoteCast",
            "type": "event"
        },
        {
            "anonymous": false,
            "inputs": [
                {
                    "indexed": true,
                    "internalType": "address",
                    "name": "voter",
                    "type": "address"
                },
                {
                    "indexed": true,
                    "internalType": "uint256",
                    "name": "proposalId",
                    "type": "uint256"
                },
                {
                    "indexed": false,
                    "internalType": "uint8",
                    "name": "support",
                    "type": "uint8"
                },
                {
                    "indexed": false,
                    "internalType": "uint256",
                    "name": "weight",
                    "type": "uint256"
                },
                {
                    "indexed": false,
                    "internalType": "string",
                    "name": "reason",
                    "type": "string"
                },
                {
                    "indexed": false,
                    "internalType": "bytes",
                    "name": "params",
                    "type": "bytes"
                }
            ],
            "name": "VoteCastWithParams",
            "type": "event"
        },
        {
            "anonymous": false,
            "inputs": [
                {
                    "indexed": false,
                    "internalType": "uint256",
                    "name": "oldVotingDelay",
                    "type": "uint256"
                },
                {
                    "indexed": false,
                    "internalType": "uint256",
                    "name": "newVotingDelay",
                    "type": "uint256"
                }
            ],
            "name": "VotingDelaySet",
            "type": "event"
        },
        {
            "anonymous": false,
            "inputs": [
                {
                    "indexed": false,
                    "internalType": "uint256",
                    "name": "oldVotingPeriod",
                    "type": "uint256"
                },
                {
                    "indexed": false,
                    "internalType": "uint256",
                    "name": "newVotingPeriod",
                    "type": "uint256"
                }
            ],
            "name": "VotingPeriodSet",
            "type": "event"
        },
        {
            "inputs": [],
            "name": "BALLOT_TYPEHASH",
            "outputs": [
                {
                    "internalType": "bytes32",
                    "name": "",
                    "type": "bytes32"
                }
            ],
            "stateMutability": "view",
            "type": "function"
        },
        {
            "inputs": [],
            "name": "EXTENDED_BALLOT_TYPEHASH",
            "outputs": [
                {
                    "internalType": "bytes32",
                    "name": "",
                    "type": "bytes32"
                }
            ],
            "stateMutability": "view",
            "type": "function"
        },
        {
            "inputs": [],
            "name": "MINIMUM_LIFETIME",
            "outputs": [
                {
                    "internalType": "uint256",
                    "name": "",
                    "type": "uint256"
                }
            ],
            "stateMutability": "view",
            "type": "function"
        },
        {
            "inputs": [],
            "name": "MINIMUM_QUORUM_NUMERATOR",
            "outputs": [
                {
                    "internalType": "uint256",
                    "name": "",
                    "type": "uint256"
                }
            ],
            "stateMutability": "view",
            "type": "function"
        },
        {
            "inputs": [
                {
                    "internalType": "uint256",
                    "name": "proposalId",
                    "type": "uint256"
                },
                {
                    "internalType": "uint8",
                    "name": "support",
                    "type": "uint8"
                }
            ],
            "name": "castVote",
            "outputs": [
                {
                    "internalType": "uint256",
                    "name": "",
                    "type": "uint256"
                }
            ],
            "stateMutability": "nonpayable",
            "type": "function"
        },
        {
            "inputs": [
                {
                    "internalType": "uint256",
                    "name": "proposalId",
                    "type": "uint256"
                },
                {
                    "internalType": "uint8",
                    "name": "support",
                    "type": "uint8"
                },
                {
                    "internalType": "uint8",
                    "name": "v",
                    "type": "uint8"
                },
                {
                    "internalType": "bytes32",
                    "name": "r",
                    "type": "bytes32"
                },
                {
                    "internalType": "bytes32",
                    "name": "s",
                    "type": "bytes32"
                }
            ],
            "name": "castVoteBySig",
            "outputs": [
                {
                    "internalType": "uint256",
                    "name": "",
                    "type": "uint256"
                }
            ],
            "stateMutability": "nonpayable",
            "type": "function"
        },
        {
            "inputs": [
                {
                    "internalType": "uint256",
                    "name": "proposalId",
                    "type": "uint256"
                },
                {
                    "internalType": "uint8",
                    "name": "support",
                    "type": "uint8"
                },
                {
                    "internalType": "string",
                    "name": "reason",
                    "type": "string"
                }
            ],
            "name": "castVoteWithReason",
            "outputs": [
                {
                    "internalType": "uint256",
                    "name": "",
                    "type": "uint256"
                }
            ],
            "stateMutability": "nonpayable",
            "type": "function"
        },
        {
            "inputs": [
                {
                    "internalType": "uint256",
                    "name": "proposalId",
                    "type": "uint256"
                },
                {
                    "internalType": "uint8",
                    "name": "support",
                    "type": "uint8"
                },
                {
                    "internalType": "string",
                    "name": "reason",
                    "type": "string"
                },
                {
                    "internalType": "bytes",
                    "name": "params",
                    "type": "bytes"
                }
            ],
            "name": "castVoteWithReasonAndParams",
            "outputs": [
                {
                    "internalType": "uint256",
                    "name": "",
                    "type": "uint256"
                }
            ],
            "stateMutability": "nonpayable",
            "type": "function"
        },
        {
            "inputs": [
                {
                    "internalType": "uint256",
                    "name": "proposalId",
                    "type": "uint256"
                },
                {
                    "internalType": "uint8",
                    "name": "support",
                    "type": "uint8"
                },
                {
                    "internalType": "string",
                    "name": "reason",
                    "type": "string"
                },
                {
                    "internalType": "bytes",
                    "name": "params",
                    "type": "bytes"
                },
                {
                    "internalType": "uint8",
                    "name": "v",
                    "type": "uint8"
                },
                {
                    "internalType": "bytes32",
                    "name": "r",
                    "type": "bytes32"
                },
                {
                    "internalType": "bytes32",
                    "name": "s",
                    "type": "bytes32"
                }
            ],
            "name": "castVoteWithReasonAndParamsBySig",
            "outputs": [
                {
                    "internalType": "uint256",
                    "name": "",
                    "type": "uint256"
                }
            ],
            "stateMutability": "nonpayable",
            "type": "function"
        },
        {
            "inputs": [
                {
                    "internalType": "uint256",
                    "name": "_proposalId",
                    "type": "uint256"
                }
            ],
            "name": "confirmProposal",
            "outputs": [],
            "stateMutability": "nonpayable",
            "type": "function"
        },
        {
            "inputs": [
                {
                    "internalType": "address[]",
                    "name": "targets",
                    "type": "address[]"
                },
                {
                    "internalType": "uint256[]",
                    "name": "values",
                    "type": "uint256[]"
                },
                {
                    "internalType": "bytes[]",
                    "name": "calldatas",
                    "type": "bytes[]"
                },
                {
                    "internalType": "bytes32",
                    "name": "descriptionHash",
                    "type": "bytes32"
                }
            ],
            "name": "execute",
            "outputs": [
                {
                    "internalType": "uint256",
                    "name": "",
                    "type": "uint256"
                }
            ],
            "stateMutability": "payable",
            "type": "function"
        },
        {
            "inputs": [
                {
                    "internalType": "uint256",
                    "name": "_proposalId",
                    "type": "uint256"
                }
            ],
            "name": "getDescription",
            "outputs": [
                {
                    "internalType": "string",
                    "name": "",
                    "type": "string"
                }
            ],
            "stateMutability": "view",
            "type": "function"
        },
        {
            "inputs": [],
            "name": "getProposalIds",
            "outputs": [
                {
                    "internalType": "uint256[]",
                    "name": "",
                    "type": "uint256[]"
                }
            ],
            "stateMutability": "view",
            "type": "function"
        },
        {
            "inputs": [
                {
                    "internalType": "uint256",
                    "name": "_numIndexes",
                    "type": "uint256"
                }
            ],
            "name": "getProposals",
            "outputs": [
                {
                    "internalType": "string[]",
                    "name": "",
                    "type": "string[]"
                },
                {
                    "internalType": "string[]",
                    "name": "",
                    "type": "string[]"
                },
                {
                    "internalType": "string[]",
                    "name": "",
                    "type": "string[]"
                }
            ],
            "stateMutability": "view",
            "type": "function"
        },
        {
            "inputs": [
                {
                    "internalType": "address",
                    "name": "account",
                    "type": "address"
                },
                {
                    "internalType": "uint256",
                    "name": "blockNumber",
                    "type": "uint256"
                }
            ],
            "name": "getVotes",
            "outputs": [
                {
                    "internalType": "uint256",
                    "name": "",
                    "type": "uint256"
                }
            ],
            "stateMutability": "view",
            "type": "function"
        },
        {
            "inputs": [
                {
                    "internalType": "address",
                    "name": "account",
                    "type": "address"
                },
                {
                    "internalType": "uint256",
                    "name": "blockNumber",
                    "type": "uint256"
                },
                {
                    "internalType": "bytes",
                    "name": "params",
                    "type": "bytes"
                }
            ],
            "name": "getVotesWithParams",
            "outputs": [
                {
                    "internalType": "uint256",
                    "name": "",
                    "type": "uint256"
                }
            ],
            "stateMutability": "view",
            "type": "function"
        },
        {
            "inputs": [
                {
                    "internalType": "uint256",
                    "name": "proposalId",
                    "type": "uint256"
                },
                {
                    "internalType": "address",
                    "name": "account",
                    "type": "address"
                }
            ],
            "name": "hasVoted",
            "outputs": [
                {
                    "internalType": "bool",
                    "name": "",
                    "type": "bool"
                }
            ],
            "stateMutability": "view",
            "type": "function"
        },
        {
            "inputs": [
                {
                    "internalType": "address[]",
                    "name": "targets",
                    "type": "address[]"
                },
                {
                    "internalType": "uint256[]",
                    "name": "values",
                    "type": "uint256[]"
                },
                {
                    "internalType": "bytes[]",
                    "name": "calldatas",
                    "type": "bytes[]"
                },
                {
                    "internalType": "bytes32",
                    "name": "descriptionHash",
                    "type": "bytes32"
                }
            ],
            "name": "hashProposal",
            "outputs": [
                {
                    "internalType": "uint256",
                    "name": "",
                    "type": "uint256"
                }
            ],
            "stateMutability": "pure",
            "type": "function"
        },
        {
            "inputs": [
                {
                    "internalType": "address",
                    "name": "",
                    "type": "address"
                }
            ],
            "name": "isBlocklisted",
            "outputs": [
                {
                    "internalType": "bool",
                    "name": "",
                    "type": "bool"
                }
            ],
            "stateMutability": "view",
            "type": "function"
        },
        {
            "inputs": [
                {
                    "internalType": "uint256",
                    "name": "",
                    "type": "uint256"
                }
            ],
            "name": "isConfirmed",
            "outputs": [
                {
                    "internalType": "bool",
                    "name": "",
                    "type": "bool"
                }
            ],
            "stateMutability": "view",
            "type": "function"
        },
        {
            "inputs": [
                {
                    "internalType": "address",
                    "name": "",
                    "type": "address"
                }
            ],
            "name": "isSupportedToken",
            "outputs": [
                {
                    "internalType": "bool",
                    "name": "",
                    "type": "bool"
                }
            ],
            "stateMutability": "view",
            "type": "function"
        },
        {
            "inputs": [
                {
                    "internalType": "uint256",
                    "name": "",
                    "type": "uint256"
                }
            ],
            "name": "listOfSupportedTokens",
            "outputs": [
                {
                    "internalType": "address",
                    "name": "",
                    "type": "address"
                }
            ],
            "stateMutability": "view",
            "type": "function"
        },
        {
            "inputs": [],
            "name": "live",
            "outputs": [
                {
                    "internalType": "uint256",
                    "name": "",
                    "type": "uint256"
                }
            ],
            "stateMutability": "view",
            "type": "function"
        },
        {
            "inputs": [],
            "name": "maxTargets",
            "outputs": [
                {
                    "internalType": "uint256",
                    "name": "",
                    "type": "uint256"
                }
            ],
            "stateMutability": "view",
            "type": "function"
        },
        {
            "inputs": [],
            "name": "name",
            "outputs": [
                {
                    "internalType": "string",
                    "name": "",
                    "type": "string"
                }
            ],
            "stateMutability": "view",
            "type": "function"
        },
        {
            "inputs": [
                {
                    "internalType": "address",
                    "name": "",
                    "type": "address"
                }
            ],
            "name": "nextAcceptableProposalTimestamp",
            "outputs": [
                {
                    "internalType": "uint256",
                    "name": "",
                    "type": "uint256"
                }
            ],
            "stateMutability": "view",
            "type": "function"
        },
        {
            "inputs": [
                {
                    "internalType": "uint256",
                    "name": "proposalId",
                    "type": "uint256"
                }
            ],
            "name": "proposalDeadline",
            "outputs": [
                {
                    "internalType": "uint256",
                    "name": "",
                    "type": "uint256"
                }
            ],
            "stateMutability": "view",
            "type": "function"
        },
        {
            "inputs": [
                {
                    "internalType": "uint256",
                    "name": "proposalId",
                    "type": "uint256"
                }
            ],
            "name": "proposalEta",
            "outputs": [
                {
                    "internalType": "uint256",
                    "name": "",
                    "type": "uint256"
                }
            ],
            "stateMutability": "view",
            "type": "function"
        },
        {
            "inputs": [],
            "name": "proposalLifetime",
            "outputs": [
                {
                    "internalType": "uint256",
                    "name": "",
                    "type": "uint256"
                }
            ],
            "stateMutability": "view",
            "type": "function"
        },
        {
            "inputs": [
                {
                    "internalType": "uint256",
                    "name": "proposalId",
                    "type": "uint256"
                }
            ],
            "name": "proposalSnapshot",
            "outputs": [
                {
                    "internalType": "uint256",
                    "name": "",
                    "type": "uint256"
                }
            ],
            "stateMutability": "view",
            "type": "function"
        },
        {
            "inputs": [],
            "name": "proposalTimeDelay",
            "outputs": [
                {
                    "internalType": "uint256",
                    "name": "",
                    "type": "uint256"
                }
            ],
            "stateMutability": "view",
            "type": "function"
        },
        {
            "inputs": [
                {
                    "internalType": "uint256",
                    "name": "proposalId",
                    "type": "uint256"
                }
            ],
            "name": "proposalVotes",
            "outputs": [
                {
                    "internalType": "uint256",
                    "name": "againstVotes",
                    "type": "uint256"
                },
                {
                    "internalType": "uint256",
                    "name": "forVotes",
                    "type": "uint256"
                },
                {
                    "internalType": "uint256",
                    "name": "abstainVotes",
                    "type": "uint256"
                }
            ],
            "stateMutability": "view",
            "type": "function"
        },
        {
            "inputs": [
                {
                    "internalType": "address[]",
                    "name": "targets",
                    "type": "address[]"
                },
                {
                    "internalType": "uint256[]",
                    "name": "values",
                    "type": "uint256[]"
                },
                {
                    "internalType": "bytes[]",
                    "name": "calldatas",
                    "type": "bytes[]"
                },
                {
                    "internalType": "bytes32",
                    "name": "descriptionHash",
                    "type": "bytes32"
                }
            ],
            "name": "queue",
            "outputs": [
                {
                    "internalType": "uint256",
                    "name": "",
                    "type": "uint256"
                }
            ],
            "stateMutability": "nonpayable",
            "type": "function"
        },
        {
            "inputs": [],
            "name": "quorumDenominator",
            "outputs": [
                {
                    "internalType": "uint256",
                    "name": "",
                    "type": "uint256"
                }
            ],
            "stateMutability": "view",
            "type": "function"
        },
        {
            "inputs": [],
            "name": "quorumNumerator",
            "outputs": [
                {
                    "internalType": "uint256",
                    "name": "",
                    "type": "uint256"
                }
            ],
            "stateMutability": "view",
            "type": "function"
        },
        {
            "inputs": [
                {
                    "internalType": "uint256",
                    "name": "_proposalId",
                    "type": "uint256"
                }
            ],
            "name": "revokeConfirmation",
            "outputs": [],
            "stateMutability": "nonpayable",
            "type": "function"
        },
        {
            "inputs": [
                {
                    "internalType": "address",
                    "name": "account",
                    "type": "address"
                },
                {
                    "internalType": "bool",
                    "name": "blocklistStatus",
                    "type": "bool"
                }
            ],
            "name": "setBlocklistStatusForProposer",
            "outputs": [],
            "stateMutability": "nonpayable",
            "type": "function"
        },
        {
            "inputs": [
                {
                    "internalType": "uint256",
                    "name": "newProposalThreshold",
                    "type": "uint256"
                }
            ],
            "name": "setProposalThreshold",
            "outputs": [],
            "stateMutability": "nonpayable",
            "type": "function"
        },
        {
            "inputs": [
                {
                    "internalType": "uint256",
                    "name": "newVotingDelay",
                    "type": "uint256"
                }
            ],
            "name": "setVotingDelay",
            "outputs": [],
            "stateMutability": "nonpayable",
            "type": "function"
        },
        {
            "inputs": [
                {
                    "internalType": "uint256",
                    "name": "newVotingPeriod",
                    "type": "uint256"
                }
            ],
            "name": "setVotingPeriod",
            "outputs": [],
            "stateMutability": "nonpayable",
            "type": "function"
        },
        {
            "inputs": [],
            "name": "timelock",
            "outputs": [
                {
                    "internalType": "address",
                    "name": "",
                    "type": "address"
                }
            ],
            "stateMutability": "view",
            "type": "function"
        },
        {
            "inputs": [],
            "name": "token",
            "outputs": [
                {
                    "internalType": "contract IVotes",
                    "name": "",
                    "type": "address"
                }
            ],
            "stateMutability": "view",
            "type": "function"
        },
        {
            "inputs": [
                {
                    "internalType": "uint256",
                    "name": "newMaxTargets",
                    "type": "uint256"
                }
            ],
            "name": "updateMaxTargets",
            "outputs": [],
            "stateMutability": "nonpayable",
            "type": "function"
        },
        {
            "inputs": [
                {
                    "internalType": "address",
                    "name": "newMultiSig",
                    "type": "address"
                }
            ],
            "name": "updateMultiSig",
            "outputs": [],
            "stateMutability": "nonpayable",
            "type": "function"
        },
        {
            "inputs": [
                {
                    "internalType": "uint256",
                    "name": "newProposalLifetime",
                    "type": "uint256"
                }
            ],
            "name": "updateProposalLifetime",
            "outputs": [],
            "stateMutability": "nonpayable",
            "type": "function"
        },
        {
            "inputs": [
                {
                    "internalType": "uint256",
                    "name": "newProposalTimeDelay",
                    "type": "uint256"
                }
            ],
            "name": "updateProposalTimeDelay",
            "outputs": [],
            "stateMutability": "nonpayable",
            "type": "function"
        },
        {
            "inputs": [
                {
                    "internalType": "uint256",
                    "name": "newQuorumNumerator",
                    "type": "uint256"
                }
            ],
            "name": "updateQuorumNumerator",
            "outputs": [],
            "stateMutability": "nonpayable",
            "type": "function"
        },
        {
            "inputs": [
                {
                    "internalType": "contract TimelockController",
                    "name": "newTimelock",
                    "type": "address"
                }
            ],
            "name": "updateTimelock",
            "outputs": [],
            "stateMutability": "nonpayable",
            "type": "function"
        },
        {
            "inputs": [],
            "name": "version",
            "outputs": [
                {
                    "internalType": "string",
                    "name": "",
                    "type": "string"
                }
            ],
            "stateMutability": "view",
            "type": "function"
        },
        {
            "stateMutability": "payable",
            "type": "receive"
        },
        {
            "inputs": [
                {
                    "internalType": "address",
                    "name": "target",
                    "type": "address"
                },
                {
                    "internalType": "bytes",
                    "name": "data",
                    "type": "bytes"
                }
            ],
            "name": "relayERC20",
            "outputs": [],
            "stateMutability": "nonpayable",
            "type": "function"
        },
        {
            "inputs": [
                {
                    "internalType": "address",
                    "name": "target",
                    "type": "address"
                },
                {
                    "internalType": "uint256",
                    "name": "value",
                    "type": "uint256"
                },
                {
                    "internalType": "bytes",
                    "name": "data",
                    "type": "bytes"
                }
            ],
            "name": "relayNativeToken",
            "outputs": [],
            "stateMutability": "payable",
            "type": "function"
        },
        {
            "inputs": [
                {
                    "internalType": "address[]",
                    "name": "targets",
                    "type": "address[]"
                },
                {
                    "internalType": "uint256[]",
                    "name": "values",
                    "type": "uint256[]"
                },
                {
                    "internalType": "bytes[]",
                    "name": "calldatas",
                    "type": "bytes[]"
                },
                {
                    "internalType": "string",
                    "name": "description",
                    "type": "string"
                }
            ],
            "name": "propose",
            "outputs": [
                {
                    "internalType": "uint256",
                    "name": "",
                    "type": "uint256"
                }
            ],
            "stateMutability": "nonpayable",
            "type": "function"
        },
        {
            "inputs": [
                {
                    "internalType": "address[]",
                    "name": "targets",
                    "type": "address[]"
                },
                {
                    "internalType": "uint256[]",
                    "name": "values",
                    "type": "uint256[]"
                },
                {
                    "internalType": "bytes[]",
                    "name": "calldatas",
                    "type": "bytes[]"
                },
                {
                    "internalType": "bytes32",
                    "name": "descriptionHash",
                    "type": "bytes32"
                }
            ],
            "name": "cancelProposal",
            "outputs": [
                {
                    "internalType": "uint256",
                    "name": "",
                    "type": "uint256"
                }
            ],
            "stateMutability": "nonpayable",
            "type": "function"
        },
        {
            "inputs": [],
            "name": "emergencyStop",
            "outputs": [],
            "stateMutability": "nonpayable",
            "type": "function"
        },
        {
            "inputs": [
                {
                    "internalType": "address",
                    "name": "_token",
                    "type": "address"
                }
            ],
            "name": "addSupportingToken",
            "outputs": [],
            "stateMutability": "nonpayable",
            "type": "function"
        },
        {
            "inputs": [
                {
                    "internalType": "address",
                    "name": "_token",
                    "type": "address"
                }
            ],
            "name": "removeSupportingToken",
            "outputs": [],
            "stateMutability": "nonpayable",
            "type": "function"
        },
        {
            "inputs": [],
            "name": "proposalThreshold",
            "outputs": [
                {
                    "internalType": "uint256",
                    "name": "",
                    "type": "uint256"
                }
            ],
            "stateMutability": "view",
            "type": "function"
        },
        {
            "inputs": [
                {
                    "internalType": "bytes4",
                    "name": "interfaceId",
                    "type": "bytes4"
                }
            ],
            "name": "supportsInterface",
            "outputs": [
                {
                    "internalType": "bool",
                    "name": "",
                    "type": "bool"
                }
            ],
            "stateMutability": "view",
            "type": "function"
        },
        {
            "inputs": [],
            "name": "votingDelay",
            "outputs": [
                {
                    "internalType": "uint256",
                    "name": "",
                    "type": "uint256"
                }
            ],
            "stateMutability": "view",
            "type": "function"
        },
        {
            "inputs": [],
            "name": "votingPeriod",
            "outputs": [
                {
                    "internalType": "uint256",
                    "name": "",
                    "type": "uint256"
                }
            ],
            "stateMutability": "view",
            "type": "function"
        },
        {
            "inputs": [
                {
                    "internalType": "uint256",
                    "name": "blockNumber",
                    "type": "uint256"
                }
            ],
            "name": "quorum",
            "outputs": [
                {
                    "internalType": "uint256",
                    "name": "",
                    "type": "uint256"
                }
            ],
            "stateMutability": "view",
            "type": "function"
        },
        {
            "inputs": [
                {
                    "internalType": "uint256",
                    "name": "proposalId",
                    "type": "uint256"
                }
            ],
            "name": "state",
            "outputs": [
                {
                    "internalType": "enum IGovernor.ProposalState",
                    "name": "",
                    "type": "uint8"
                }
            ],
            "stateMutability": "view",
            "type": "function"
        }
    ],
    "bytecode": "0x6101606040523480156200001257600080fd5b506040516200613438038062006134833981016040819052620000359162000550565b866004898787876040518060400160405280601181526020017026b0b4b72a37b5b2b723b7bb32b93737b960791b8152508c60148a8a846200007c6200025a60201b60201c565b815160208084019190912082519183019190912060e08290526101008190527f8b73c3c69bb8fe3d512ecc4cf759cc79239f7b179b0ffacaa9a75d522b39400f4660a052620000cd81848462000275565b6080523060c052610120525050506001600160a01b0385169050620001055760405163d92e233d60e01b815260040160405180910390fd5b826000036200012757604051636a6257c760e11b815260040160405180910390fd5b816000036200014957604051631a615ced60e11b815260040160405180910390fd5b620151808110156200016e576040516306a0c71b60e11b815260040160405180910390fd5b600a6200017c868262000728565b50600980546001600160a01b0319166001600160a01b039590951694909417909355600091909155600190815560039190915560025550620001be83620002b2565b620001c982620002f4565b620001d48162000358565b5050506001600160a01b038116620001ff5760405163d92e233d60e01b815260040160405180910390fd5b6001600160a01b0316610140526200021781620003bc565b506001600160a01b038116620002405760405163d92e233d60e01b815260040160405180910390fd5b6200024b816200044a565b5050505050505050506200089f565b6040805180820190915260018152603160f81b602082015290565b60008383834630604051602001620002929594939291906200080b565b6040516020818303038152906040528051906020012090505b9392505050565b7fc565b045403dc03c2eea82b81a0465edad9e2e7fc4d97e11421c209da93d7a93600e5482604051620002e792919062000861565b60405180910390a1600e55565b8060000362000316576040516390d8b45d60e01b815260040160405180910390fd5b7f7e3f7f0708a84de9203036abaa450dccc85ad5ff52f78c170f3edb55cf5e8828600f54826040516200034b92919062000861565b60405180910390a1600f55565b806000036200037a5760405163831761d760e01b815260040160405180910390fd5b7fccb45da8d5717e6c4544694297c4ba5cf151d455c9bb0ed4fc7a38411bc0546160105482604051620003af92919062000861565b60405180910390a1601055565b6064811115620003df5760405163fe454d0960e01b815260040160405180910390fd5b60028110156200040257604051632058374960e01b815260040160405180910390fd5b60128054908290556040517f0553476bf02ef2726e8ce5ced78d63e26e602e4a2257b1f559418e24b4633997906200043e908390859062000861565b60405180910390a15050565b6001600160a01b038116620004725760405163d92e233d60e01b815260040160405180910390fd5b6013546040517f08f74ea46ef7894f65eabfb5e6e695de773a000b47c529ab559178069b22640191620004b3916001600160a01b0390911690849062000880565b60405180910390a1601380546001600160a01b0319166001600160a01b0392909216919091179055565b60006001600160a01b0382165b92915050565b6000620004ea82620004dd565b6200050881620004f0565b81146200051457600080fd5b50565b8051620004ea81620004fd565b6200050881620004dd565b8051620004ea8162000524565b8062000508565b8051620004ea816200053c565b600080600080600080600080610100898b031215620005725762000572600080fd5b6000620005808b8b62000517565b9850506020620005938b828c0162000517565b9750506040620005a68b828c016200052f565b9650506060620005b98b828c0162000543565b9550506080620005cc8b828c0162000543565b94505060a0620005df8b828c0162000543565b93505060c0620005f28b828c0162000543565b92505060e0620006058b828c0162000543565b9150509295985092959890939650565b634e487b7160e01b600052604160045260246000fd5b634e487b7160e01b600052602260045260246000fd5b6002810460018216806200065657607f821691505b6020821081036200066b576200066b6200062b565b50919050565b6000620004ea6200067f8381565b90565b6200068d8362000671565b81546008840282811b60001990911b908116901990911617825550505050565b6000620006bc81848462000682565b505050565b81811015620006e057620006d7600082620006ad565b600101620006c1565b5050565b601f821115620006bc576000818152602090206020601f850104810160208510156200070d5750805b620007216020601f860104830182620006c1565b5050505050565b81516001600160401b0381111562000744576200074462000615565b62000750825462000641565b6200075d828285620006e4565b6020601f8311600181146200079457600084156200077b5750858201515b600019600886021c1981166002860217865550620007f0565b600085815260208120601f198616915b82811015620007c65788850151825560209485019460019092019101620007a4565b86831015620007e35784890151600019601f89166008021c191682555b6001600288020188555050505b505050505050565b805b82525050565b620007fa81620004dd565b60a081016200081b8288620007f8565b6200082a6020830187620007f8565b620008396040830186620007f8565b620008486060830185620007f8565b62000857608083018462000800565b9695505050505050565b60408101620008718285620007f8565b620002ab6020830184620007f8565b6040810162000890828562000800565b620002ab602083018462000800565b60805160a05160c05160e05161010051610120516101405161582c6200090860003960008181610bf60152818161308a0152613272015260006133d401526000613416015260006133f50152600061335901526000613383015260006133ad015261582c6000f3fe6080604052600436106103915760003560e01c8063784547a7116101d7578063c59057e41161010d578063eb9019d4116100a0578063f4a4f4d21161006f578063f4a4f4d214610b84578063f4b39f6d14610ba4578063f8ce560a14610bc4578063fc0c546a14610be457600080fd5b8063eb9019d414610b04578063ece40cc114610b24578063f27715b414610b44578063f3191bd914610b6457600080fd5b8063d33219b4116100dc578063d33219b414610a72578063deaaa7cc14610a90578063e4facb4d14610ac4578063ea0217cf14610ae457600080fd5b8063c59057e4146109fa578063caba588414610a1a578063cf66138b14610a47578063d19949fc14610a5d57600080fd5b806397c3d33411610185578063ab58fb8e11610154578063ab58fb8e1461098f578063b58131b0146109af578063bd015f5d146109c4578063c01f9e37146109da57600080fd5b806397c3d334146109265780639a802a6d1461093a578063a7713a701461095a578063a890c9101461096f57600080fd5b8063784547a7146108465780637b3c71d3146108765780637d5e81e2146108965780637fcc53ee146108b65780638e204c43146108cd578063929e1e20146108fd578063957aa58c1461091057600080fd5b80633932abb1116102c757806354fd4d501161025a5780635f398a14116102295780635f398a14146107c457806363a599a4146107e45780636484783e146107f957806370b0f6601461082657600080fd5b806354fd4d5014610744578063567813881461076e57806358df30f11461078e5780635f320775146107ae57600080fd5b806340ba1b1e1161029657806340ba1b1e1461066f57806343859632146106915780634925ec55146106db578063544ffc9c146106fb57600080fd5b80633932abb1146105ed5780633bccf4fd146106025780633e4f49e6146106225780633eadf4dc1461064f57600080fd5b806320ea8d861161033f57806327374c761161030e57806327374c761461054a5780632c72fdfc1461056a5780632d63f693146105995780632fe3e261146105b957600080fd5b806320ea8d86146104c757806321cd4131146104e7578063240028e8146105075780632656227d1461053757600080fd5b806301ffc9a7146103cd57806302a251a314610403578063034201811461042557806306f3f9e61461044557806306fdde0314610465578063160cbed7146104875780631c12dd73146104a757600080fd5b366103c8573061039f610c25565b6001600160a01b0316146103c657604051633fdb5f0160e11b815260040160405180910390fd5b005b600080fd5b3480156103d957600080fd5b506103ed6103e8366004613f7c565b610c3e565b6040516103fa9190613fa7565b60405180910390f35b34801561040f57600080fd5b50610418610c4f565b6040516103fa9190613fbb565b34801561043157600080fd5b506104186104403660046140f3565b610c5a565b34801561045157600080fd5b506103c66104603660046141c6565b610d0d565b34801561047157600080fd5b5061047a610d98565b6040516103fa919061423f565b34801561049357600080fd5b506104186104a23660046142a1565b610e2a565b3480156104b357600080fd5b506104186104c236600461451e565b6110d5565b3480156104d357600080fd5b506103c66104e23660046141c6565b611123565b3480156104f357600080fd5b506103c66105023660046145cf565b6111d9565b34801561051357600080fd5b506103ed6105223660046145cf565b60166020526000908152604090205460ff1681565b61041861054536600461451e565b611261565b34801561055657600080fd5b506103c66105653660046141c6565b61144c565b34801561057657600080fd5b5061058a6105853660046141c6565b6114e1565b6040516103fa93929190614662565b3480156105a557600080fd5b506104186105b43660046141c6565b611528565b3480156105c557600080fd5b506104187fb3b3f3b703cd84ce352197dcff232b1b5d3cfb2025ce47cf04742d0651f1af8881565b3480156105f957600080fd5b5061041861155f565b34801561060e57600080fd5b5061041861061d36600461469b565b61156a565b34801561062e57600080fd5b5061064261063d3660046141c6565b6115f6565b6040516103fa9190614757565b34801561065b57600080fd5b506103c661066a3660046141c6565b611601565b34801561067b57600080fd5b50610684611696565b6040516103fa91906147c2565b34801561069d57600080fd5b506103ed6106ac3660046147d3565b60008281526011602090815260408083206001600160a01b038516845260030190915290205460ff1692915050565b3480156106e757600080fd5b5061047a6106f63660046141c6565b6116ed565b34801561070757600080fd5b506107356107163660046141c6565b6000908152601160205260409020805460018201546002909201549092565b6040516103fa93929190614810565b34801561075057600080fd5b506040805180820190915260018152603160f81b602082015261047a565b34801561077a57600080fd5b50610418610789366004614838565b61178f565b34801561079a57600080fd5b506103c66107a93660046145cf565b6117d4565b3480156107ba57600080fd5b5061041860005481565b3480156107d057600080fd5b506104186107df36600461486b565b61185c565b3480156107f057600080fd5b506103c6611899565b34801561080557600080fd5b506104186108143660046145cf565b60066020526000908152604090205481565b34801561083257600080fd5b506103c66108413660046141c6565b611a2a565b34801561085257600080fd5b506103ed6108613660046141c6565b60056020526000908152604090205460ff1681565b34801561088257600080fd5b506104186108913660046148f7565b611ab2565b3480156108a257600080fd5b506104186108b1366004614961565b611aef565b3480156108c257600080fd5b506104186201518081565b3480156108d957600080fd5b506103ed6108e83660046145cf565b60046020526000908152604090205460ff1681565b6103c661090b366004614a3f565b611afd565b34801561091c57600080fd5b5061041860025481565b34801561093257600080fd5b506064610418565b34801561094657600080fd5b50610418610955366004614aac565b611c53565b34801561096657600080fd5b50601254610418565b34801561097b57600080fd5b506103c661098a366004614b00565b611c60565b34801561099b57600080fd5b506104186109aa3660046141c6565b611ce8565b3480156109bb57600080fd5b50610418611d84565b3480156109d057600080fd5b5061041860035481565b3480156109e657600080fd5b506104186109f53660046141c6565b611d8f565b348015610a0657600080fd5b50610418610a1536600461451e565b611dbe565b348015610a2657600080fd5b50610a3a610a353660046141c6565b611df8565b6040516103fa9190614b2a565b348015610a5357600080fd5b5061041860015481565b348015610a6957600080fd5b50610418600281565b348015610a7e57600080fd5b506013546001600160a01b0316610a3a565b348015610a9c57600080fd5b506104187f150214d74d59b7d1e90c73fc22ef3d991dd0a76b046543d4d80ab92d2a50328f81565b348015610ad057600080fd5b506103c6610adf3660046141c6565b611e22565b348015610af057600080fd5b506103c6610aff3660046141c6565b611eb8565b348015610b1057600080fd5b50610418610b1f366004614b38565b611f40565b348015610b3057600080fd5b506103c6610b3f3660046141c6565b611f61565b348015610b5057600080fd5b506103c6610b5f3660046145cf565b611fe9565b348015610b7057600080fd5b506103c6610b7f366004614b6b565b6120ab565b348015610b9057600080fd5b506103c6610b9f3660046141c6565b6121fe565b348015610bb057600080fd5b506103c6610bbf366004614bd9565b61234b565b348015610bd057600080fd5b50610418610bdf3660046141c6565b6123aa565b348015610bf057600080fd5b50610c187f000000000000000000000000000000000000000000000000000000000000000081565b6040516103fa9190614c4e565b6000610c396013546001600160a01b031690565b905090565b6000610c49826123b5565b92915050565b6000610c39600f5490565b6000600254600114610c7f5760405163baf13b3f60e01b815260040160405180910390fd5b6000610cf1610ce97fb3b3f3b703cd84ce352197dcff232b1b5d3cfb2025ce47cf04742d0651f1af888b8b8b805190602001208b80519060200120604051602001610cce959493929190614c65565b604051602081830303815290604052805190602001206123da565b8686866123ed565b9050610d0089828a8a8a612415565b9998505050505050505050565b610d15610c25565b6001600160a01b0316336001600160a01b031614610d465760405163819d5a5f60e01b815260040160405180910390fd5b30610d4f610c25565b6001600160a01b031614610d8c5760008036604051610d6f929190614cba565b604051809103902090505b80610d85600c61253c565b03610d7a57505b610d95816125bb565b50565b6060600a8054610da790614cdd565b80601f0160208091040260200160405190810160405280929190818152602001828054610dd390614cdd565b8015610e205780601f10610df557610100808354040283529160200191610e20565b820191906000526020600020905b815481529060010190602001808311610e0357829003601f168201915b5050505050905090565b600080610ea789898080602002602001604051908101604052809392919081815260200183836020028082843760009201919091525050604080516020808d0282810182019093528c82529093508c92508b918291850190849080828437600092019190915250610ea192508991508a9050614d09565b86611dbe565b60008181526005602052604090205490915060ff16610ed957604051637238834d60e11b815260040160405180910390fd5b6004610ee4826115f6565b6007811115610ef557610ef5614713565b14610f135760405163af6eefa360e01b815260040160405180910390fd5b6013546040805163793d064960e11b815290516000926001600160a01b03169163f27a0c929160048083019260209291908290030181865afa158015610f5d573d6000803e3d6000fd5b505050506040513d601f19601f82011682018060405250810190610f819190614d21565b60135460405163b1c5f42760e01b81529192506001600160a01b03169063b1c5f42790610fc1908d908d908d908d908d908d906000908e90600401614ec2565b602060405180830381865afa158015610fde573d6000803e3d6000fd5b505050506040513d601f19601f820116820180604052508101906110029190614d21565b6000838152601460205260408082209290925560135491516308f2a0bb60e41b81526001600160a01b0390921691638f2a0bb091611052918e918e918e918e918e918e918e908c90600401614f1a565b600060405180830381600087803b15801561106c57600080fd5b505af1158015611080573d6000803e3d6000fd5b505050507f9a2e42fd6722813d69113e7d0079d3d940171428df7373df9c7f7617cfda28928282426110b29190614f95565b6040516110c0929190614fa8565b60405180910390a15098975050505050505050565b6009546000906001600160a01b0316336001600160a01b03161461110c57604051634afb817760e11b815260040160405180910390fd5b61111885858585612645565b90505b949350505050565b6009546001600160a01b0316336001600160a01b03161461115757604051634afb817760e11b815260040160405180910390fd5b600081815260076020526040902060020154819060ff161561118c576040516351618d5360e01b815260040160405180910390fd5b61119582612653565b600082815260056020526040808220805460ff1916905551839133917ff0dca620e2e81f7841d07bcc105e1704fb01475b278a9d4c236e1c62945edd559190a35050565b6111e1610c25565b6001600160a01b0316336001600160a01b0316146112125760405163819d5a5f60e01b815260040160405180910390fd5b3061121b610c25565b6001600160a01b031614611258576000803660405161123b929190614cba565b604051809103902090505b80611251600c61253c565b0361124657505b610d9581612682565b60006002546001146112865760405163baf13b3f60e01b815260040160405180910390fd5b600061129486868686611dbe565b905061129f81612722565b6112a881612653565b60006112b3826115f6565b905060058160078111156112c9576112c9614713565b146112e75760405163599fb1a360e01b815260040160405180910390fd5b6000805b875181101561132d5787818151811061130657611306614fc3565b6020026020010151826113199190614f95565b91508061132581614fd9565b9150506112eb565b508034101561134f5760405163356680b760e01b815260040160405180910390fd5b600083815260076020526040808220600201805460ff191660011790555184917f712ae1383f79ac853f8d882153778e0260ef8f03b504e2866e0593e04d2b291f91a261139f8389898989612754565b6113ac83898989896127f4565b6113b98389898989612830565b80341115611440576000336113ce8334614ff3565b6040516113da90615006565b60006040518083038185875af1925050503d8060008114611417576040519150601f19603f3d011682016040523d82523d6000602084013e61141c565b606091505b505090508061143e57604051630dcf35db60e41b815260040160405180910390fd5b505b50909695505050505050565b6009546001600160a01b0316336001600160a01b03161461148057604051634afb817760e11b815260040160405180910390fd5b806000036114a157604051637c946ed760e01b815260040160405180910390fd5b7f3da73a181c2b3944927ac2df9dc262cf838e775431feb05974323f1cdabe3896816001546040516114d4929190614fa8565b60405180910390a1600155565b600b54606090819081906000819003611504575060609250829150819050611521565b80851115611510578094505b61151985612869565b935093509350505b9193909250565b60008181526007602090815260408083208151928301909152546001600160401b0316908190525b6001600160401b031692915050565b6000610c39600e5490565b600060025460011461158f5760405163baf13b3f60e01b815260040160405180910390fd5b60006115cc610ce97f150214d74d59b7d1e90c73fc22ef3d991dd0a76b046543d4d80ab92d2a50328f8989604051602001610cce93929190615011565b90506115e987828860405180602001604052806000815250612b29565b9150505b95945050505050565b6000610c4982612b4c565b6009546001600160a01b0316336001600160a01b03161461163557604051634afb817760e11b815260040160405180910390fd5b8060000361165657604051637c946ed760e01b815260040160405180910390fd5b7f9187ebb0ce0ff73eeba0fa7031c0d57dcf43f08ac34102f94434e5c0c108c96481600054604051611689929190614fa8565b60405180910390a1600055565b6060600b805480602002602001604051908101604052809291908181526020018280548015610e2057602002820191906000526020600020905b8154815260200190600101908083116116d0575050505050905090565b600081815260086020526040902080546060919061170a90614cdd565b80601f016020809104026020016040519081016040528092919081815260200182805461173690614cdd565b80156117835780601f1061175857610100808354040283529160200191611783565b820191906000526020600020905b81548152906001019060200180831161176657829003601f168201915b50505050509050919050565b60006002546001146117b45760405163baf13b3f60e01b815260040160405180910390fd5b600033905061111b84828560405180602001604052806000815250612b29565b6117dc610c25565b6001600160a01b0316336001600160a01b03161461180d5760405163819d5a5f60e01b815260040160405180910390fd5b30611816610c25565b6001600160a01b0316146118535760008036604051611836929190614cba565b604051809103902090505b8061184c600c61253c565b0361184157505b610d9581612c3f565b60006002546001146118815760405163baf13b3f60e01b815260040160405180910390fd5b3361188f8682878787612415565b9695505050505050565b6009546001600160a01b0316336001600160a01b0316146118cd57604051634afb817760e11b815260040160405180910390fd5b6118d5612da2565b60005b6017548110156119a4576000601782815481106118f7576118f7614fc3565b60009182526020822001546040516370a0823160e01b81526001600160a01b03909116925082906370a0823190611932903090600401614b2a565b602060405180830381865afa15801561194f573d6000803e3d6000fd5b505050506040513d601f19601f820116820180604052508101906119739190614d21565b9050801561198f5761198f6001600160a01b0383163383612df5565b5050808061199c90614fd9565b9150506118d8565b504715611a28576000336001600160a01b0316476040516119c490615006565b60006040518083038185875af1925050503d8060008114611a01576040519150601f19603f3d011682016040523d82523d6000602084013e611a06565b606091505b5050905080610d9557604051630dcf35db60e41b815260040160405180910390fd5b565b611a32610c25565b6001600160a01b0316336001600160a01b031614611a635760405163819d5a5f60e01b815260040160405180910390fd5b30611a6c610c25565b6001600160a01b031614611aa95760008036604051611a8c929190614cba565b604051809103902090505b80611aa2600c61253c565b03611a9757505b610d9581612e50565b6000600254600114611ad75760405163baf13b3f60e01b815260040160405180910390fd5b33611ae485828686612b29565b9150505b9392505050565b600061111885858585612e90565b611b05610c25565b6001600160a01b0316336001600160a01b031614611b365760405163819d5a5f60e01b815260040160405180910390fd5b30611b3f610c25565b6001600160a01b031614611b7c5760008036604051611b5f929190614cba565b604051809103902090505b80611b75600c61253c565b03611b6a57505b6001600160a01b03841660009081526016602052604090205460ff1615611bb657604051635f64e01d60e11b815260040160405180910390fd5b600080856001600160a01b0316858585604051611bd4929190614cba565b60006040518083038185875af1925050503d8060008114611c11576040519150601f19603f3d011682016040523d82523d6000602084013e611c16565b606091505b5091509150611c4a82826040518060400160405280600c81526020016b195b5c1d1e481c995d995c9d60a21b81525061302e565b50505050505050565b600061111b848484613070565b611c68610c25565b6001600160a01b0316336001600160a01b031614611c995760405163819d5a5f60e01b815260040160405180910390fd5b30611ca2610c25565b6001600160a01b031614611cdf5760008036604051611cc2929190614cba565b604051809103902090505b80611cd8600c61253c565b03611ccd57505b610d9581613102565b60135460008281526014602052604080822054905163d45c443560e01b8152919283926001600160a01b039091169163d45c443591611d2a9190600401613fbb565b602060405180830381865afa158015611d47573d6000803e3d6000fd5b505050506040513d601f19601f82011682018060405250810190611d6b9190614d21565b905080600114611d7b5780611ae8565b60009392505050565b6000610c3960105490565b60008181526007602090815260408083208151928301909152600101546001600160401b031690819052611550565b600084848484604051602001611dd794939291906150d0565b60408051601f19818403018152919052805160209091012095945050505050565b60178181548110611e0857600080fd5b6000918252602090912001546001600160a01b0316905081565b6009546001600160a01b0316336001600160a01b031614611e5657604051634afb817760e11b815260040160405180910390fd5b62015180811015611e7a5760405163e4e014cd60e01b815260040160405180910390fd5b7fc4106c7a131061f6ffb9a883270bb5c3aa2f9933a50cf3fa48d64d0dd73369c78182604051611eab929190614fa8565b60405180910390a1600355565b611ec0610c25565b6001600160a01b0316336001600160a01b031614611ef15760405163819d5a5f60e01b815260040160405180910390fd5b30611efa610c25565b6001600160a01b031614611f375760008036604051611f1a929190614cba565b604051809103902090505b80611f30600c61253c565b03611f2557505b610d9581613192565b6000611ae88383611f5c60408051602081019091526000815290565b613070565b611f69610c25565b6001600160a01b0316336001600160a01b031614611f9a5760405163819d5a5f60e01b815260040160405180910390fd5b30611fa3610c25565b6001600160a01b031614611fe05760008036604051611fc3929190614cba565b604051809103902090505b80611fd9600c61253c565b03611fce57505b610d95816131f3565b6009546001600160a01b0316336001600160a01b03161461201d57604051634afb817760e11b815260040160405180910390fd5b6001600160a01b0381166120445760405163d92e233d60e01b815260040160405180910390fd5b6009546040517fa31378226bf642b76b52240a017232ce81a41924f7e964dfe5b2cc0ebe6287ca916120819184916001600160a01b031690615118565b60405180910390a1600980546001600160a01b0319166001600160a01b0392909216919091179055565b6120b3610c25565b6001600160a01b0316336001600160a01b0316146120e45760405163819d5a5f60e01b815260040160405180910390fd5b306120ed610c25565b6001600160a01b03161461212a576000803660405161210d929190614cba565b604051809103902090505b80612123600c61253c565b0361211857505b6001600160a01b03831660009081526016602052604090205460ff1661216357604051635fdeadaf60e01b815260040160405180910390fd5b600080846001600160a01b03168484604051612180929190614cba565b6000604051808303816000865af19150503d80600081146121bd576040519150601f19603f3d011682016040523d82523d6000602084013e6121c2565b606091505b50915091506121f682826040518060400160405280600c81526020016b195b5c1d1e481c995d995c9d60a21b81525061302e565b505050505050565b6009546001600160a01b0316336001600160a01b03161461223257604051634afb817760e11b815260040160405180910390fd5b600081815260076020526040902060020154819060ff1615612267576040516351618d5360e01b815260040160405180910390fd5b600082815260056020526040902054829060ff161561229957604051631ff5e74360e21b815260040160405180910390fd5b6122a283612722565b6000838152600560205260408120805460ff191660011790556122c4846115f6565b905060048160078111156122da576122da614713565b141580156122fa575060058160078111156122f7576122f7614713565b14155b1561231857604051630213b73560e41b815260040160405180910390fd5b604051849033907fc465ffb6829baf0ff01f0180d8bc0dca7de4bb775e4d3a1bf155f9047da4026c90600090a350505050565b6009546001600160a01b0316336001600160a01b03161461237f57604051634afb817760e11b815260040160405180910390fd5b6001600160a01b03919091166000908152600460205260409020805460ff1916911515919091179055565b6000610c4982613254565b60006001600160e01b03198216636e665ced60e01b1480610c495750610c49826132fc565b6000610c496123e761334c565b8361343a565b60008060006123fe8787878761346d565b9150915061240b81613543565b5095945050505050565b6000858152600760205260408120600161242e886115f6565b600781111561243f5761243f614713565b1461245d57604051637becc13f60e01b815260040160405180910390fd5b604080516020810190915281546001600160401b03169081905260009061248690889086613070565b90506124958888888488613623565b83516000036124e95787876001600160a01b03167fb8e138887d0aa13bab447e82de9d5c1777041ecd21ca36ba824ff1e6c07ddda48884896040516124dc93929190615133565b60405180910390a36115e9565b87876001600160a01b03167fe2babfbac5889a709b63bb7f598b324e08bc5a4fb9ec647fb3cbc9ec07eb8712888489896040516125299493929190615160565b60405180910390a3979650505050505050565b60006125578254600f81810b600160801b909204900b131590565b1561257557604051631ed9509560e11b815260040160405180910390fd5b508054600f0b6000818152600180840160205260408220805492905583546fffffffffffffffffffffffffffffffff191692016001600160801b03169190911790915590565b60648111156125dd5760405163fe454d0960e01b815260040160405180910390fd5b60028110156125ff57604051632058374960e01b815260040160405180910390fd5b60128054908290556040517f0553476bf02ef2726e8ce5ced78d63e26e602e4a2257b1f559418e24b4633997906126399083908590614fa8565b60405180910390a15050565b600061111885858585613711565b60008181526005602052604090205460ff16610d955760405163428cb00560e11b815260040160405180910390fd5b6001600160a01b03811660009081526016602052604090205460ff16156126bc57604051635f64e01d60e11b815260040160405180910390fd5b6001600160a01b03166000818152601660205260408120805460ff191660019081179091556017805491820181559091527fc624b66cc0138b8fabc209247f72d758e1cf3343756d543badbf24212bed8c150180546001600160a01b0319169091179055565b600081815260076020526040902060030154421115610d95576040516328a7237960e01b815260040160405180910390fd5b3061275d610c25565b6001600160a01b0316146127ed5760005b84518110156121f657306001600160a01b031685828151811061279357612793614fc3565b60200260200101516001600160a01b0316036127dd576127dd8382815181106127be576127be614fc3565b602002602001015180519060200120600c6137bf90919063ffffffff16565b6127e681614fd9565b905061276e565b5050505050565b60008581526005602052604090205460ff166128235760405163428cb00560e11b815260040160405180910390fd5b6127ed85858585856137fb565b30612839610c25565b6001600160a01b0316146127ed57600c54600f81810b600160801b909204900b13156127ed576000600c556127ed565b60608060606000846001600160401b0381111561288857612888613ff8565b6040519080825280602002602001820160405280156128bb57816020015b60608152602001906001900390816128a65790505b5090506000856001600160401b038111156128d8576128d8613ff8565b60405190808252806020026020018201604052801561290b57816020015b60608152602001906001900390816128f65790505b5090506000866001600160401b0381111561292857612928613ff8565b60405190808252806020026020018201604052801561295b57816020015b60608152602001906001900390816129465790505b50600b54909150600061296f60018a614ff3565b905081891061298657612983600183614ff3565b90505b6000600b612995600185614ff3565b815481106129a5576129a5614fc3565b906000526020600020015490506129bb816138b8565b8483815181106129cd576129cd614fc3565b60200260200101819052506008600082815260200190815260200160002080546129f690614cdd565b80601f0160208091040260200160405190810160405280929190818152602001828054612a2290614cdd565b8015612a6f5780601f10612a4457610100808354040283529160200191612a6f565b820191906000526020600020905b815481529060010190602001808311612a5257829003601f168201915b5050505050858381518110612a8657612a86614fc3565b6020026020010181905250612ab6612a9d826115f6565b6007811115612aae57612aae614713565b60ff166138b8565b868381518110612ac857612ac8614fc3565b6020908102919091010152612ade600184614ff3565b600003612aeb5750612b1a565b81600003612af95750612b1a565b82612b03816151a1565b9350508180612b11906151a1565b92505050612986565b50909791965091945092505050565b600061111885858585612b4760408051602081019091526000815290565b612415565b600080612b58836139b8565b90506004816007811115612b6e57612b6e614713565b14612b795792915050565b60008381526014602052604090205480612b94575092915050565b60008481526015602052604090205460ff1615612bb5575060079392505050565b601354604051632c258a9f60e11b81526001600160a01b039091169063584b153e90612be5908490600401613fbb565b602060405180830381865afa158015612c02573d6000803e3d6000fd5b505050506040513d601f19601f82011682018060405250810190612c2691906151c3565b15612c35575060059392505050565b5060029392505050565b6001600160a01b03811660009081526016602052604090205460ff16612c7857604051635fdeadaf60e01b815260040160405180910390fd5b6001600160a01b0381166000908152601660205260408120805460ff191690555b601754811015612d6b57816001600160a01b031660178281548110612cc057612cc0614fc3565b6000918252602090912001546001600160a01b031603612d595760178054612cea90600190614ff3565b81548110612cfa57612cfa614fc3565b600091825260209091200154601780546001600160a01b039092169183908110612d2657612d26614fc3565b9060005260206000200160006101000a8154816001600160a01b0302191690836001600160a01b03160217905550612d6b565b80612d6381614fd9565b915050612c99565b506017805480612d7d57612d7d6151e4565b600082815260209020810160001990810180546001600160a01b031916905501905550565b600254600114612dc55760405163baf13b3f60e01b815260040160405180910390fd5b600060028190556040517f4e97bcfc80ae353daee1a1990d5b388eef167d3e197ebf5243cc4d43b4125c099190a1565b612e4b8363a9059cbb60e01b8484604051602401612e149291906151fa565b60408051601f198184030181529190526020810180516001600160e01b03166001600160e01b031990931692909217909152613a98565b505050565b7fc565b045403dc03c2eea82b81a0465edad9e2e7fc4d97e11421c209da93d7a93600e5482604051612e83929190614fa8565b60405180910390a1600e55565b6000848484600254600114612eb85760405163baf13b3f60e01b815260040160405180910390fd5b612ec0611d84565b612ecf33610b1f600143614ff3565b1015612eee57604051633048076b60e11b815260040160405180910390fd5b3360009081526004602052604090205460ff1615612f1f576040516301544e2960e11b815260040160405180910390fd5b612f2833613b27565b8151835114612f4a57604051633465db5d60e11b815260040160405180910390fd5b8051835114612f6c57604051633465db5d60e11b815260040160405180910390fd5b8251600003612f8e5760405163294565bf60e01b815260040160405180910390fd5b60005483511115612fb2576040516302aa55e160e51b815260040160405180910390fd5b6000612fc78989898980519060200120611dbe565b600081815260076020908152604091829020825191820190925281546001600160401b031690819052919250901561301257604051635c61cf3160e11b815260040160405180910390fd5b61302082828c8c8c8c613b8b565b9a9950505050505050505050565b6060831561303d575081611ae8565b82511561304d5782518084602001fd5b8160405162461bcd60e51b8152600401613067919061423f565b60405180910390fd5b604051630748d63560e31b81526000906001600160a01b037f00000000000000000000000000000000000000000000000000000000000000001690633a46b1a8906130c190879087906004016151fa565b602060405180830381865afa1580156130de573d6000803e3d6000fd5b505050506040513d601f19601f8201168201806040525081019061111b9190614d21565b6001600160a01b0381166131295760405163d92e233d60e01b815260040160405180910390fd5b6013546040517f08f74ea46ef7894f65eabfb5e6e695de773a000b47c529ab559178069b22640191613168916001600160a01b03909116908490615118565b60405180910390a1601380546001600160a01b0319166001600160a01b0392909216919091179055565b806000036131b3576040516390d8b45d60e01b815260040160405180910390fd5b7f7e3f7f0708a84de9203036abaa450dccc85ad5ff52f78c170f3edb55cf5e8828600f54826040516131e6929190614fa8565b60405180910390a1600f55565b806000036132145760405163831761d760e01b815260040160405180910390fd5b7fccb45da8d5717e6c4544694297c4ba5cf151d455c9bb0ed4fc7a38411bc0546160105482604051613247929190614fa8565b60405180910390a1601055565b60006064601254604051632394e7a360e21b81526001600160a01b037f00000000000000000000000000000000000000000000000000000000000000001690638e539e8c906132a7908790600401613fbb565b602060405180830381865afa1580156132c4573d6000803e3d6000fd5b505050506040513d601f19601f820116820180604052508101906132e89190614d21565b6132f29190615208565b610c49919061523d565b60006001600160e01b03198216632dcb927b60e11b148061332d57506001600160e01b03198216634eb6428760e11b145b80610c4957506301ffc9a760e01b6001600160e01b0319831614610c49565b6000306001600160a01b037f0000000000000000000000000000000000000000000000000000000000000000161480156133a557507f000000000000000000000000000000000000000000000000000000000000000046145b156133cf57507f000000000000000000000000000000000000000000000000000000000000000090565b610c397f00000000000000000000000000000000000000000000000000000000000000007f00000000000000000000000000000000000000000000000000000000000000007f0000000000000000000000000000000000000000000000000000000000000000613d13565b6000828260405160200161344f929190615251565b60405160208183030381529060405280519060200120905092915050565b6000806fa2a8918ca85bafe22016d0b997e4df60600160ff1b0383111561349a575060009050600361353a565b8460ff16601b141580156134b257508460ff16601c14155b156134c3575060009050600461353a565b6000600187878787604051600081526020016040526040516134e89493929190615282565b6020604051602081039080840390855afa15801561350a573d6000803e3d6000fd5b5050604051601f1901519150506001600160a01b0381166135335760006001925092505061353a565b9150600090505b94509492505050565b600081600481111561355757613557614713565b0361355f5750565b600181600481111561357357613573614713565b036135905760405162461bcd60e51b8152600401613067906152e9565b60028160048111156135a4576135a4614713565b036135c15760405162461bcd60e51b81526004016130679061532d565b60038160048111156135d5576135d5614713565b036135f25760405162461bcd60e51b81526004016130679061537f565b600481600481111561360657613606614713565b03610d955760405162461bcd60e51b8152600401613067906153ce565b60008581526011602090815260408083206001600160a01b0388168452600381019092529091205460ff161561366c57604051633a68a23b60e21b815260040160405180910390fd5b6001600160a01b03851660009081526003820160205260409020805460ff1916600117905560ff84166136b857828160000160008282546136ad9190614f95565b909155506121f69050565b60001960ff8516016136d857828160010160008282546136ad9190614f95565b60011960ff8516016136f857828160020160008282546136ad9190614f95565b604051635010c8f360e11b815260040160405180910390fd5b60008061372086868686613d4d565b60008181526014602052604090205490915015611118576013546000828152601460205260409081902054905163c4d252f560e01b81526001600160a01b039092169163c4d252f59161377591600401613fbb565b600060405180830381600087803b15801561378f57600080fd5b505af11580156137a3573d6000803e3d6000fd5b5050506000828152601460205260408120555095945050505050565b8154600160801b90819004600f0b6000818152600180860160205260409091209390935583546001600160801b03908116939091011602179055565b60008581526015602052604090205460ff161561382b57604051630dc1019760e01b815260040160405180910390fd5b60135460405163e38335e560e01b81526001600160a01b039091169063e38335e59034906138669088908890889060009089906004016153de565b6000604051808303818588803b15801561387f57600080fd5b505af1158015613893573d6000803e3d6000fd5b50505060009687525050601560205250506040909220805460ff191660011790555050565b6060816000036138df5750506040805180820190915260018152600360fc1b602082015290565b8160005b811561390957806138f381614fd9565b91506139029050600a8361523d565b91506138e3565b6000816001600160401b0381111561392357613923613ff8565b6040519080825280601f01601f19166020018201604052801561394d576020820181803683370190505b5090505b841561111b57613962600183614ff3565b915061396f600a86615426565b61397a906030614f95565b60f81b81838151811061398f5761398f614fc3565b60200101906001600160f81b031916908160001a9053506139b1600a8661523d565b9450613951565b6000818152600760205260408120600281015460ff16156139dc5750600792915050565b6002810154610100900460ff16156139f75750600292915050565b6000613a0284611528565b905080600003613a25576040516302eae9e560e51b815260040160405180910390fd5b438110613a36575060009392505050565b6000613a4185611d8f565b9050438110613a5557506001949350505050565b613a5e85613e25565b8015613a7d575060008581526011602052604090208054600190910154115b15613a8d57506004949350505050565b506003949350505050565b6000613aed826040518060400160405280602081526020017f5361666545524332303a206c6f772d6c6576656c2063616c6c206661696c6564815250856001600160a01b0316613e5c9092919063ffffffff16565b805190915015612e4b5780806020019051810190613b0b91906151c3565b612e4b5760405162461bcd60e51b815260040161306790615481565b6001600160a01b0381166000908152600660205260409020544211613b62576040516001620d66b760e41b0319815260040160405180910390fd5b600154613b6f9042614f95565b6001600160a01b03909116600090815260066020526040902055565b600080613b9e613b9961155f565b613e6b565b613ba743613e6b565b613bb19190615491565b90506000613bc0613b99610c4f565b613bca9083615491565b885467ffffffffffffffff19166001600160401b038416178955905060018801805467ffffffffffffffff19166001600160401b038316179055600354613c119042614f95565b60038901556000898152600860205260409020613c2e8582615542565b50600b80546001810182556000919091527f0175b7a638427703f0dbe7bb9bbf987a2551717b34e79f33b5b1008d1fa01db9018990556001600160401b038116336001600160a01b03168a7f7d84a6263ae0d98d3329bd7b46bb4e8d6f98cd35a7adb45c274c8b7fd5ebd5e08a8a8c516001600160401b03811115613cb557613cb5613ff8565b604051908082528060200260200182016040528015613ce857816020015b6060815260200190600190039081613cd35790505b508b898c604051613cfe96959493929190615622565b60405180910390a45096979650505050505050565b60008383834630604051602001613d2e95949392919061569c565b6040516020818303038152906040528051906020012090509392505050565b600080613d5c86868686611dbe565b90506000613d69826115f6565b90506002816007811115613d7f57613d7f614713565b1480613d9c57506006816007811115613d9a57613d9a614713565b145b80613db857506007816007811115613db657613db6614713565b145b15613dd657604051637becc13f60e01b815260040160405180910390fd5b600082815260076020526040808220600201805461ff0019166101001790555183917f789cf55be980739dad1d0699b93b58e806b51c9d96619bfa8fe0a28abaa7b30c91a25095945050505050565b600081815260116020526040812060028101546001820154613e479190614f95565b613e53610bdf85611528565b11159392505050565b606061111b8484600085613e98565b60006001600160401b03821115613e945760405162461bcd60e51b815260040161306790615721565b5090565b606082471015613eba5760405162461bcd60e51b815260040161306790615774565b6001600160a01b0385163b613ee15760405162461bcd60e51b8152600401613067906157b8565b600080866001600160a01b03168587604051613efd91906157ea565b60006040518083038185875af1925050503d8060008114613f3a576040519150601f19603f3d011682016040523d82523d6000602084013e613f3f565b606091505b5091509150613f4f82828661302e565b979650505050505050565b6001600160e01b031981165b8114610d9557600080fd5b8035610c4981613f5a565b600060208284031215613f9157613f91600080fd5b600061111b8484613f71565b8015155b82525050565b60208101610c498284613f9d565b80613fa1565b60208101610c498284613fb5565b80613f66565b8035610c4981613fc9565b60ff8116613f66565b8035610c4981613fda565b601f01601f191690565b634e487b7160e01b600052604160045260246000fd5b61401782613fee565b81018181106001600160401b038211171561403457614034613ff8565b6040525050565b600061404660405190565b9050614052828261400e565b919050565b60006001600160401b0382111561407057614070613ff8565b61407982613fee565b60200192915050565b82818337506000910152565b60006140a161409c84614057565b61403b565b9050828152602081018484840111156140bc576140bc600080fd5b6140c7848285614082565b509392505050565b600082601f8301126140e3576140e3600080fd5b813561111b84826020860161408e565b600080600080600080600060e0888a03121561411157614111600080fd5b600061411d8a8a613fcf565b975050602061412e8a828b01613fe3565b96505060408801356001600160401b0381111561414d5761414d600080fd5b6141598a828b016140cf565b95505060608801356001600160401b0381111561417857614178600080fd5b6141848a828b016140cf565b94505060806141958a828b01613fe3565b93505060a06141a68a828b01613fcf565b92505060c06141b78a828b01613fcf565b91505092959891949750929550565b6000602082840312156141db576141db600080fd5b600061111b8484613fcf565b60005b838110156142025781810151838201526020016141ea565b50506000910152565b6000614215825190565b80845260208401935061422c8185602086016141e7565b61423581613fee565b9093019392505050565b60208082528101611ae8818461420b565b60008083601f84011261426557614265600080fd5b5081356001600160401b0381111561427f5761427f600080fd5b60208301915083602082028301111561429a5761429a600080fd5b9250929050565b60008060008060008060006080888a0312156142bf576142bf600080fd5b87356001600160401b038111156142d8576142d8600080fd5b6142e48a828b01614250565b975097505060208801356001600160401b0381111561430557614305600080fd5b6143118a828b01614250565b955095505060408801356001600160401b0381111561433257614332600080fd5b61433e8a828b01614250565b935093505060606141b78a828b01613fcf565b60006001600160401b0382111561436a5761436a613ff8565b5060209081020190565b60006001600160a01b038216610c49565b613f6681614374565b8035610c4981614385565b60006143a761409c84614351565b838152905060208082019084028301858111156143c6576143c6600080fd5b835b818110156143ea57806143db888261438e565b845250602092830192016143c8565b5050509392505050565b600082601f83011261440857614408600080fd5b813561111b848260208601614399565b600061442661409c84614351565b8381529050602080820190840283018581111561444557614445600080fd5b835b818110156143ea578061445a8882613fcf565b84525060209283019201614447565b600082601f83011261447d5761447d600080fd5b813561111b848260208601614418565b600061449b61409c84614351565b838152905060208082019084028301858111156144ba576144ba600080fd5b835b818110156143ea5780356001600160401b038111156144dd576144dd600080fd5b8086016144ea89826140cf565b85525050602092830192016144bc565b600082601f83011261450e5761450e600080fd5b813561111b84826020860161448d565b6000806000806080858703121561453757614537600080fd5b84356001600160401b0381111561455057614550600080fd5b61455c878288016143f4565b94505060208501356001600160401b0381111561457b5761457b600080fd5b61458787828801614469565b93505060408501356001600160401b038111156145a6576145a6600080fd5b6145b2878288016144fa565b92505060606145c387828801613fcf565b91505092959194509250565b6000602082840312156145e4576145e4600080fd5b600061111b848461438e565b6000611ae8838361420b565b6000614606825190565b808452602084019350836020820285016146208560200190565b8060005b85811015614655578484038952815161463d85826145f0565b94506020830160209a909a0199925050600101614624565b5091979650505050505050565b6060808252810161467381866145fc565b9050818103602083015261468781856145fc565b9050818103604083015261111881846145fc565b600080600080600060a086880312156146b6576146b6600080fd5b60006146c28888613fcf565b95505060206146d388828901613fe3565b94505060406146e488828901613fe3565b93505060606146f588828901613fcf565b925050608061470688828901613fcf565b9150509295509295909350565b634e487b7160e01b600052602160045260246000fd5b60088110610d9557610d95614713565b8061405281614729565b6000610c4982614739565b613fa181614743565b60208101610c49828461474e565b60006147718383613fb5565b505060200190565b6000614783825190565b80845260209384019383018060005b838110156147b75781516147a68882614765565b975060208301925050600101614792565b509495945050505050565b60208082528101611ae88184614779565b600080604083850312156147e9576147e9600080fd5b60006147f58585613fcf565b92505060206148068582860161438e565b9150509250929050565b6060810161481e8286613fb5565b61482b6020830185613fb5565b61111b6040830184613fb5565b6000806040838503121561484e5761484e600080fd5b600061485a8585613fcf565b925050602061480685828601613fe3565b6000806000806080858703121561488457614884600080fd5b60006148908787613fcf565b94505060206148a187828801613fe3565b93505060408501356001600160401b038111156148c0576148c0600080fd5b6148cc878288016140cf565b92505060608501356001600160401b038111156148eb576148eb600080fd5b6145c3878288016140cf565b60008060006060848603121561490f5761490f600080fd5b600061491b8686613fcf565b935050602061492c86828701613fe3565b92505060408401356001600160401b0381111561494b5761494b600080fd5b614957868287016140cf565b9150509250925092565b6000806000806080858703121561497a5761497a600080fd5b84356001600160401b0381111561499357614993600080fd5b61499f878288016143f4565b94505060208501356001600160401b038111156149be576149be600080fd5b6149ca87828801614469565b93505060408501356001600160401b038111156149e9576149e9600080fd5b6148cc878288016144fa565b60008083601f840112614a0a57614a0a600080fd5b5081356001600160401b03811115614a2457614a24600080fd5b60208301915083600182028301111561429a5761429a600080fd5b60008060008060608587031215614a5857614a58600080fd5b6000614a64878761438e565b9450506020614a7587828801613fcf565b93505060408501356001600160401b03811115614a9457614a94600080fd5b614aa0878288016149f5565b95989497509550505050565b600080600060608486031215614ac457614ac4600080fd5b6000614ad0868661438e565b935050602061492c86828701613fcf565b6000610c4982614374565b613f6681614ae1565b8035610c4981614aec565b600060208284031215614b1557614b15600080fd5b600061111b8484614af5565b613fa181614374565b60208101610c498284614b21565b60008060408385031215614b4e57614b4e600080fd5b6000614b5a858561438e565b925050602061480685828601613fcf565b600080600060408486031215614b8357614b83600080fd5b6000614b8f868661438e565b93505060208401356001600160401b03811115614bae57614bae600080fd5b614bba868287016149f5565b92509250509250925092565b801515613f66565b8035610c4981614bc6565b60008060408385031215614bef57614bef600080fd5b6000614bfb858561438e565b925050602061480685828601614bce565b6000610c496001600160a01b038316614c23565b90565b6001600160a01b031690565b6000610c4982614c0c565b6000610c4982614c2f565b613fa181614c3a565b60208101610c498284614c45565b60ff8116613fa1565b60a08101614c738288613fb5565b614c806020830187613fb5565b614c8d6040830186614c5c565b614c9a6060830185613fb5565b61188f6080830184613fb5565b6000614cb4838584614082565b50500190565b600061111b828486614ca7565b634e487b7160e01b600052602260045260246000fd5b600281046001821680614cf157607f821691505b602082108103614d0357614d03614cc7565b50919050565b6000611ae836848461448d565b8051610c4981613fc9565b600060208284031215614d3657614d36600080fd5b600061111b8484614d16565b60006147718383614b21565b6000611ae8602084018461438e565b8183526000602084019350818060005b858110156147b757614d7f8284614d4e565b614d898882614d42565b975060208301925050600101614d6d565b82818337505050565b81835260006020840193506001600160fb1b03831115614dc557614dc5600080fd5b602083029250614cb4838584614d9a565b8183526000602084019350614dec838584614082565b61423583613fee565b600061111b848484614dd6565b6000808335601e1936859003018112614e1d57614e1d600080fd5b8381016020810193503591506001600160401b03821115614e4057614e40600080fd5b36829003831315614e5357614e53600080fd5b509250929050565b818352600060208401935083602084028101838060005b87811015614655578484038952614e898284614e02565b614e94868284614df5565b95506020840160209b909b019a93505050600101614e72565b6000610c49614c208381565b613fa181614ead565b60a08082528101614ed4818a8c614d5d565b90508181036020830152614ee981888a614da3565b90508181036040830152614efe818688614e5b565b9050614f0d6060830185614eb9565b610d006080830184613fb5565b60c08082528101614f2c818b8d614d5d565b90508181036020830152614f4181898b614da3565b90508181036040830152614f56818789614e5b565b9050614f656060830186614eb9565b614f726080830185613fb5565b61302060a0830184613fb5565b634e487b7160e01b600052601160045260246000fd5b80820180821115610c4957610c49614f7f565b60408101614fb68285613fb5565b611ae86020830184613fb5565b634e487b7160e01b600052603260045260246000fd5b60006000198203614fec57614fec614f7f565b5060010190565b81810381811115610c4957610c49614f7f565b6000610c4982614c20565b6060810161501f8286613fb5565b61502c6020830185613fb5565b61111b6040830184614c5c565b6000615043825190565b80845260209384019383018060005b838110156147b75781516150668882614d42565b975060208301925050600101615052565b6000615081825190565b8084526020840193508360208202850161509b8560200190565b8060005b8581101561465557848403895281516150b885826145f0565b94506020830160209a909a019992505060010161509f565b608080825281016150e18187615039565b905081810360208301526150f58186614779565b905081810360408301526151098185615077565b90506115ed6060830184613fb5565b604081016151268285614b21565b611ae86020830184614b21565b606081016151418286614c5c565b61514e6020830185613fb5565b8181036040830152611118818461420b565b6080810161516e8287614c5c565b61517b6020830186613fb5565b818103604083015261518d818561420b565b9050818103606083015261188f818461420b565b6000816151b0576151b0614f7f565b506000190190565b8051610c4981614bc6565b6000602082840312156151d8576151d8600080fd5b600061111b84846151b8565b634e487b7160e01b600052603160045260246000fd5b60408101614fb68285614b21565b600081600019048311821515161561522257615222614f7f565b500290565b634e487b7160e01b600052601260045260246000fd5b60008261524c5761524c615227565b500490565b61190160f01b815260020160006152688285613fb5565b6020820191506152788284613fb5565b5060200192915050565b608081016152908287613fb5565b61529d6020830186614c5c565b6152aa6040830185613fb5565b6115ed6060830184613fb5565b601881526000602082017745434453413a20696e76616c6964207369676e617475726560401b815291505b5060200190565b60208082528101610c49816152b7565b601f81526000602082017f45434453413a20696e76616c6964207369676e6174757265206c656e67746800815291506152e2565b60208082528101610c49816152f9565b602281526000602082017f45434453413a20696e76616c6964207369676e6174757265202773272076616c815261756560f01b602082015291505b5060400190565b60208082528101610c498161533d565b602281526000602082017f45434453413a20696e76616c6964207369676e6174757265202776272076616c815261756560f01b60208201529150615378565b60208082528101610c498161538f565b60a080825281016153ef8188615039565b905081810360208301526154038187614779565b905081810360408301526154178186615077565b9050614c9a6060830185614eb9565b60008261543557615435615227565b500690565b602a81526000602082017f5361666545524332303a204552433230206f7065726174696f6e20646964206e8152691bdd081cdd58d8d9595960b21b60208201529150615378565b60208082528101610c498161543a565b6001600160401b03918216919081169082820190811115610c4957610c49614f7f565b6154bd83614ead565b81546008840282811b60001990911b908116901990911617825550505050565b6000612e4b8184846154b4565b81811015615505576154fd6000826154dd565b6001016154ea565b5050565b601f821115612e4b576000818152602090206020601f850104810160208510156155305750805b6127ed6020601f8601048301826154ea565b81516001600160401b0381111561555b5761555b613ff8565b6155658254614cdd565b615570828285615509565b6020601f8311600181146155a4576000841561558c5750858201515b600019600886021c19811660028602178655506121f6565b600085815260208120601f198616915b828110156155d457888501518255602094850194600190920191016155b4565b868310156155f05784890151600019601f89166008021c191682555b600160028802018855505050505050505050565b6000610c49614c206001600160401b03841681565b613fa181615604565b60c080825281016156338189615039565b905081810360208301526156478188614779565b9050818103604083015261565b81876145fc565b9050818103606083015261566f8186615077565b905061567e6080830185615619565b81810360a0830152615690818461420b565b98975050505050505050565b60a081016156aa8288613fb5565b6156b76020830187613fb5565b6156c46040830186613fb5565b6156d16060830185613fb5565b61188f6080830184614b21565b602681526000602082017f53616665436173743a2076616c756520646f65736e27742066697420696e203681526534206269747360d01b60208201529150615378565b60208082528101610c49816156de565b602681526000602082017f416464726573733a20696e73756666696369656e742062616c616e636520666f8152651c8818d85b1b60d21b60208201529150615378565b60208082528101610c4981615731565b601d81526000602082017f416464726573733a2063616c6c20746f206e6f6e2d636f6e7472616374000000815291506152e2565b60208082528101610c4981615784565b60006157d2825190565b6157e08185602086016141e7565b9290920192915050565b6000611ae882846157c856fea2646970667358221220e10a7471a031033db2198e30cf9a772dd0942ef2f5c74c68f0ad4d350989f05364736f6c63430008100033",
    "immutableReferences": {
        "5704": [
            {
                "length": 32,
                "start": 13229
            }
        ],
        "5706": [
            {
                "length": 32,
                "start": 13187
            }
        ],
        "5708": [
            {
                "length": 32,
                "start": 13145
            }
        ],
        "5710": [
            {
                "length": 32,
                "start": 13301
            }
        ],
        "5712": [
            {
                "length": 32,
                "start": 13334
            }
        ],
        "5714": [
            {
                "length": 32,
                "start": 13268
            }
        ],
        "14695": [
            {
                "length": 32,
                "start": 3062
            },
            {
                "length": 32,
                "start": 12426
            },
            {
                "length": 32,
                "start": 12914
            }
        ]
    },
    "source": "// SPDX-License-Identifier: MIT\n// Copyright Fathom 2022\n\npragma solidity 0.8.16;\n\nimport \"./Governor.sol\";\nimport \"./interfaces/IRelay.sol\";\nimport \"./interfaces/ISupportingTokens.sol\";\nimport \"./interfaces/IEmergencyStop.sol\";\nimport \"./extensions/GovernorSettings.sol\";\nimport \"./extensions/GovernorCountingSimple.sol\";\nimport \"./extensions/GovernorVotes.sol\";\nimport \"./extensions/GovernorVotesQuorumFraction.sol\";\nimport \"./extensions/GovernorTimelockControl.sol\";\nimport \"../tokens/ERC20/IERC20.sol\";\nimport \"../../common/SafeERC20.sol\";\n\ncontract MainTokenGovernor is\n    IRelay,\n    ISupportingTokens,\n    IEmergencyStop,\n    Governor,\n    GovernorSettings,\n    GovernorCountingSimple,\n    GovernorVotes,\n    GovernorVotesQuorumFraction,\n    GovernorTimelockControl\n{\n    using SafeERC20 for IERC20;\n    mapping(address => bool) public isSupportedToken;\n    address[] public listOfSupportedTokens;\n\n    error TokenSupported();\n    error TokenUnsupported();\n\n    constructor(\n        IVotes _token,\n        TimelockController _timelock,\n        address _multiSig,\n        uint256 _initialVotingDelay,\n        uint256 _votingPeriod,\n        uint256 _initialProposalThreshold,\n        uint256 _proposalTimeDelay,\n        uint256 _proposalLifetime\n    )\n        Governor(\"MainTokenGovernor\", _multiSig, 20, _proposalTimeDelay, _proposalLifetime)\n        GovernorSettings(_initialVotingDelay, _votingPeriod, _initialProposalThreshold)\n        GovernorVotes(_token)\n        GovernorVotesQuorumFraction(4)\n        GovernorTimelockControl(_timelock)\n    {}\n\n    /**\n     * @dev Relays a transaction or function call to an arbitrary target. In cases where the governance executor\n     * is some contract other than the governor itself, like when using a timelock, this function can be invoked\n     * in a governance proposal to recover tokens that was sent to the governor contract by mistake.\n     * Note that if the executor is simply the governor itself, use of `relay` is redundant.\n     */\n    function relayERC20(address target, bytes calldata data) external virtual override onlyGovernance {\n        if (!isSupportedToken[target]) {\n            revert TokenUnsupported();\n        }\n        (bool success, bytes memory returndata) = target.call(data);\n        Address.verifyCallResult(success, returndata, \"empty revert\");\n    }\n\n    /**\n     * @dev Relays a transaction or function call to an arbitrary target. In cases where the governance executor\n     * is some contract other than the governor itself, like when using a timelock, this function can be invoked\n     * in a governance proposal to recover Ether that was sent to the governor contract by mistake.\n     * Note that if the executor is simply the governor itself, use of `relay` is redundant.\n     */\n    function relayNativeToken(\n        address target,\n        uint256 value,\n        bytes calldata data\n    ) external payable virtual override onlyGovernance {\n        if (isSupportedToken[target]) {\n            revert TokenSupported();\n        }\n        (bool success, bytes memory returndata) = target.call{ value: value }(data);\n        Address.verifyCallResult(success, returndata, \"empty revert\");\n    }\n\n    function propose(\n        address[] memory targets,\n        uint256[] memory values,\n        bytes[] memory calldatas,\n        string memory description\n    ) public override(Governor, IGovernor) returns (uint256) {\n        return super.propose(targets, values, calldatas, description);\n    }\n\n    /**\n     * @dev Cancelling of proposal can be done only through Multisig\n     */\n    function cancelProposal(\n        address[] memory targets,\n        uint256[] memory values,\n        bytes[] memory calldatas,\n        bytes32 descriptionHash\n    ) public override onlyMultiSig returns (uint256) {\n        return _cancel(targets, values, calldatas, descriptionHash);\n    }\n\n    /**\n     * @dev A multisig can stop this contract. Once stopped we will have to migrate.\n     *     Once this function is called, the contract cannot be made live again.\n     */\n    function emergencyStop() public override onlyMultiSig {\n        _emergencyStop();\n        for (uint256 i = 0; i < listOfSupportedTokens.length; i++) {\n            address _token = listOfSupportedTokens[i];\n            uint256 balanceInContract = IERC20(_token).balanceOf(address(this));\n            if (balanceInContract > 0) {\n                IERC20(_token).safeTransfer(msg.sender, balanceInContract);\n            }\n        }\n        if (address(this).balance > 0) {\n            (bool sent, ) = msg.sender.call{ value: (address(this).balance) }(\"\");\n            if (!sent) {\n                revert FailedToSendEther();\n            }\n        }\n    }\n\n    /**\n     * @dev Adds supporting tokens so that if there are tokens then it can be transferred\n     *     Only Governance is able to access this function.\n     *     It has to go through proposal and successful voting for execution.\n     */\n    function addSupportingToken(address _token) public override onlyGovernance {\n        _addSupportedToken(_token);\n    }\n\n    /**\n     * @dev Removes supporting tokens\n     *      Only Governance is able to access this function.\n     *      It has to go through proposal and successful voting for execution.\n     */\n    function removeSupportingToken(address _token) public override onlyGovernance {\n        _removeSupportingToken(_token);\n    }\n\n    function proposalThreshold() public view override(Governor, GovernorSettings) returns (uint256) {\n        return super.proposalThreshold();\n    }\n\n    function supportsInterface(bytes4 interfaceId) public view override(Governor, GovernorTimelockControl) returns (bool) {\n        return super.supportsInterface(interfaceId);\n    }\n\n    function votingDelay() public view override(IGovernor, GovernorSettings) returns (uint256) {\n        return super.votingDelay();\n    }\n\n    function votingPeriod() public view override(IGovernor, GovernorSettings) returns (uint256) {\n        return super.votingPeriod();\n    }\n\n    function quorum(uint256 blockNumber) public view override(IGovernor, GovernorVotesQuorumFraction) returns (uint256) {\n        return super.quorum(blockNumber);\n    }\n\n    function state(uint256 proposalId) public view override(Governor, GovernorTimelockControl) returns (ProposalState) {\n        return super.state(proposalId);\n    }\n\n    function _addSupportedToken(address _token) internal {\n        if (isSupportedToken[_token]) {\n            revert TokenSupported();\n        }\n        isSupportedToken[_token] = true;\n        listOfSupportedTokens.push(_token);\n    }\n\n    function _removeSupportingToken(address _token) internal {\n        if (!isSupportedToken[_token]) {\n            revert TokenUnsupported();\n        }\n        isSupportedToken[_token] = false;\n        for (uint256 i = 0; i < listOfSupportedTokens.length; i++) {\n            if (listOfSupportedTokens[i] == _token) {\n                listOfSupportedTokens[i] = listOfSupportedTokens[listOfSupportedTokens.length - 1];\n                break;\n            }\n        }\n        listOfSupportedTokens.pop();\n    }\n\n    function _execute(\n        uint256 proposalId,\n        address[] memory targets,\n        uint256[] memory values,\n        bytes[] memory calldatas,\n        bytes32 descriptionHash\n    ) internal override(Governor, GovernorTimelockControl) {\n        if (!isConfirmed[proposalId]) {\n            revert ProposalNotConfirmed();\n        }\n        super._execute(proposalId, targets, values, calldatas, descriptionHash);\n    }\n\n    function _cancel(\n        address[] memory targets,\n        uint256[] memory values,\n        bytes[] memory calldatas,\n        bytes32 descriptionHash\n    ) internal override(Governor, GovernorTimelockControl) returns (uint256) {\n        return super._cancel(targets, values, calldatas, descriptionHash);\n    }\n\n    function _executor() internal view override(Governor, GovernorTimelockControl) returns (address) {\n        return super._executor();\n    }\n}\n",
    "sourcePath": "/Users/subiksinghshrestha/Documents/FATHOM/fathom-dao-smart-contracts/contracts/dao/governance/MainTokenGovernor.sol",
    "compiler": {
        "name": "solc",
        "version": "0.8.16+commit.07a7930e.Darwin.appleclang"
    },
    "schemaVersion": "3.4.10",
    "updatedAt": "2023-04-14T09:23:16.191Z",
    "devdoc": {
        "errors": {
            "Empty()": [
                {
                    "details": "An operation (e.g. {front}) couldn't be completed due to the queue being empty."
                }
            ]
        },
        "kind": "dev",
        "methods": {
            "addSupportingToken(address)": {
                "details": "Adds supporting tokens so that if there are tokens then it can be transferred     Only Governance is able to access this function.     It has to go through proposal and successful voting for execution."
            },
            "cancelProposal(address[],uint256[],bytes[],bytes32)": {
                "details": "Cancelling of proposal can be done only through Multisig"
            },
            "confirmProposal(uint256)": {
                "details": "Only Multisig is able to confirm a proposal"
            },
            "emergencyStop()": {
                "details": "A multisig can stop this contract. Once stopped we will have to migrate.     Once this function is called, the contract cannot be made live again."
            },
            "hashProposal(address[],uint256[],bytes[],bytes32)": {
                "details": "A description of the possible `support` values for {castVote} and the way these votes are counted, meant to be consumed by UIs to show correct vote options and interpret the results. The string is a URL-encoded sequence of key-value pairs that each describe one aspect, for example `support=bravo&quorum=for,abstain`. There are 2 standard keys: `support` and `quorum`. - `support=bravo` refers to the vote options 0 = Against, 1 = For, 2 = Abstain, as in `GovernorBravo`. - `quorum=bravo` means that only For votes are counted towards quorum. - `quorum=for,abstain` means that both For and Abstain votes are counted towards quorum. If a counting module makes use of encoded `params`, it should  include this under a `params` key with a unique name that describes the behavior. For example: - `params=fractional` might refer to a scheme where votes are divided fractionally between for/against/abstain. - `params=erc721` might refer to a scheme where specific NFTs are delegated to vote. NOTE: The string can be decoded by the standard https://developer.mozilla.org/en-US/docs/Web/API/URLSearchParams[`URLSearchParams`] JavaScript class."
            },
            "relayERC20(address,bytes)": {
                "details": "Relays a transaction or function call to an arbitrary target. In cases where the governance executor is some contract other than the governor itself, like when using a timelock, this function can be invoked in a governance proposal to recover tokens that was sent to the governor contract by mistake. Note that if the executor is simply the governor itself, use of `relay` is redundant."
            },
            "relayNativeToken(address,uint256,bytes)": {
                "details": "Relays a transaction or function call to an arbitrary target. In cases where the governance executor is some contract other than the governor itself, like when using a timelock, this function can be invoked in a governance proposal to recover Ether that was sent to the governor contract by mistake. Note that if the executor is simply the governor itself, use of `relay` is redundant."
            },
            "removeSupportingToken(address)": {
                "details": "Removes supporting tokens      Only Governance is able to access this function.      It has to go through proposal and successful voting for execution."
            },
            "revokeConfirmation(uint256)": {
                "details": "Only Multisig is able to revoke a proposal confirmation"
            },
            "setBlocklistStatusForProposer(address,bool)": {
                "details": "Only Multisig can blocklist a an account or unblocklist an account"
            },
            "setProposalThreshold(uint256)": {
                "details": "Has to go through proposals and successful voting to update by Governance"
            },
            "setVotingDelay(uint256)": {
                "details": "Has to go through proposals and successful voting to update by Governance"
            },
            "setVotingPeriod(uint256)": {
                "details": "Has to go through proposals and successful voting to update by Governance"
            },
            "updateMaxTargets(uint256)": {
                "details": "Only Multisig can update"
            },
            "updateMultiSig(address)": {
                "details": "Only Multisig can update"
            },
            "updateProposalLifetime(uint256)": {
                "details": "Only Multisig can update"
            },
            "updateProposalTimeDelay(uint256)": {
                "details": "Only Multisig can update"
            },
            "updateQuorumNumerator(uint256)": {
                "details": "Changes the quorum numerator. Emits a {QuorumNumeratorUpdated} event. Requirements: - Must be called through a governance proposal. - New numerator must be smaller or equal to the denominator."
            }
        },
        "version": 1
    },
    "userdoc": {
        "kind": "user",
        "methods": {
            "queue(address[],uint256[],bytes[],bytes32)": {
                "notice": "The proposal must be confirmed by multisig before it can be queued"
            }
        },
        "version": 1
    }
}