{
  "contractName": "MainTokenGovernor",
  "abi": [
    {
      "inputs": [
        {
          "internalType": "contract IVotes",
          "name": "_token",
          "type": "address"
        },
        {
          "internalType": "contract TimelockController",
          "name": "_timelock",
          "type": "address"
        },
        {
          "internalType": "address",
          "name": "_multiSig",
          "type": "address"
        },
        {
          "internalType": "uint256",
          "name": "_initialVotingDelay",
          "type": "uint256"
        },
        {
          "internalType": "uint256",
          "name": "_votingPeriod",
          "type": "uint256"
        },
        {
          "internalType": "uint256",
          "name": "_initialProposalThreshold",
          "type": "uint256"
        },
        {
          "internalType": "uint256",
          "name": "_proposalTimeDelay",
          "type": "uint256"
        },
        {
          "internalType": "uint256",
          "name": "_proposalLifetime",
          "type": "uint256"
        }
      ],
      "stateMutability": "nonpayable",
      "type": "constructor"
    },
    {
      "inputs": [],
      "name": "AlreadyExecuted",
      "type": "error"
    },
    {
      "inputs": [],
      "name": "Empty",
      "type": "error"
    },
    {
      "inputs": [],
      "name": "EmptyProposal",
      "type": "error"
    },
    {
      "inputs": [],
      "name": "FailedToSendEther",
      "type": "error"
    },
    {
      "inputs": [],
      "name": "InsufficientFunds",
      "type": "error"
    },
    {
      "inputs": [],
      "name": "InsufficientVotes",
      "type": "error"
    },
    {
      "inputs": [],
      "name": "InvalidProposalLength",
      "type": "error"
    },
    {
      "inputs": [],
      "name": "LessThanMinimum",
      "type": "error"
    },
    {
      "inputs": [],
      "name": "LowLifetime",
      "type": "error"
    },
    {
      "inputs": [],
      "name": "MaxTargetLength",
      "type": "error"
    },
    {
      "inputs": [],
      "name": "NotConfirmed",
      "type": "error"
    },
    {
      "inputs": [],
      "name": "NotLive",
      "type": "error"
    },
    {
      "inputs": [],
      "name": "NotSuccessful",
      "type": "error"
    },
    {
      "inputs": [],
      "name": "OnlyExecutor",
      "type": "error"
    },
    {
      "inputs": [],
      "name": "OnlyMultiSig",
      "type": "error"
    },
    {
      "inputs": [],
      "name": "OnlyOvernance",
      "type": "error"
    },
    {
      "inputs": [],
      "name": "ProposalAlreadyConfirmed",
      "type": "error"
    },
    {
      "inputs": [],
      "name": "ProposalAlreadyExecuted",
      "type": "error"
    },
    {
      "inputs": [],
      "name": "ProposalAlreadyExists",
      "type": "error"
    },
    {
      "inputs": [],
      "name": "ProposalDelayNotPassed",
      "type": "error"
    },
    {
      "inputs": [],
      "name": "ProposalExpired",
      "type": "error"
    },
    {
      "inputs": [],
      "name": "ProposalNotActive",
      "type": "error"
    },
    {
      "inputs": [],
      "name": "ProposalNotConfirmed",
      "type": "error"
    },
    {
      "inputs": [],
      "name": "ProposalNotQueued",
      "type": "error"
    },
    {
      "inputs": [],
      "name": "ProposalNotSuccessful",
      "type": "error"
    },
    {
      "inputs": [],
      "name": "ProposerIsBlocklisted",
      "type": "error"
    },
    {
      "inputs": [],
      "name": "QuorumNumeratorOverflow",
      "type": "error"
    },
    {
      "inputs": [],
      "name": "QuorumNumeratorUnderflow",
      "type": "error"
    },
    {
      "inputs": [],
      "name": "TokenSupported",
      "type": "error"
    },
    {
      "inputs": [],
      "name": "TokenUnsupported",
      "type": "error"
    },
    {
      "inputs": [],
      "name": "UnknownProposal",
      "type": "error"
    },
    {
      "inputs": [],
      "name": "VoteCasted",
      "type": "error"
    },
    {
      "inputs": [],
      "name": "WrongVoteType",
      "type": "error"
    },
    {
      "inputs": [],
      "name": "ZeroAddress",
      "type": "error"
    },
    {
      "inputs": [],
      "name": "ZeroDelay",
      "type": "error"
    },
    {
      "inputs": [],
      "name": "ZeroTargets",
      "type": "error"
    },
    {
      "inputs": [],
      "name": "ZeroThreshold",
      "type": "error"
    },
    {
      "inputs": [],
      "name": "ZeroValue",
      "type": "error"
    },
    {
      "inputs": [],
      "name": "ZeroVotePeriod",
      "type": "error"
    },
    {
      "anonymous": false,
      "inputs": [
        {
          "indexed": true,
          "internalType": "address",
          "name": "account",
          "type": "address"
        },
        {
          "indexed": false,
          "internalType": "bool",
          "name": "isBlocklisted",
          "type": "bool"
        }
      ],
      "name": "BlocklistStatusUpdated",
      "type": "event"
    },
    {
      "anonymous": false,
      "inputs": [
        {
          "indexed": true,
          "internalType": "address",
          "name": "signer",
          "type": "address"
        },
        {
          "indexed": true,
          "internalType": "uint256",
          "name": "proposalId",
          "type": "uint256"
        }
      ],
      "name": "ConfirmProposal",
      "type": "event"
    },
    {
      "anonymous": false,
      "inputs": [],
      "name": "EmergencyStop",
      "type": "event"
    },
    {
      "anonymous": false,
      "inputs": [
        {
          "indexed": true,
          "internalType": "address",
          "name": "owner",
          "type": "address"
        },
        {
          "indexed": true,
          "internalType": "bool",
          "name": "success",
          "type": "bool"
        },
        {
          "indexed": false,
          "internalType": "bytes",
          "name": "data",
          "type": "bytes"
        }
      ],
      "name": "ExecuteProposal",
      "type": "event"
    },
    {
      "anonymous": false,
      "inputs": [
        {
          "indexed": false,
          "internalType": "uint256",
          "name": "newMaxTargets",
          "type": "uint256"
        },
        {
          "indexed": false,
          "internalType": "uint256",
          "name": "oldMaxTargets",
          "type": "uint256"
        }
      ],
      "name": "MaxTargetUpdated",
      "type": "event"
    },
    {
      "anonymous": false,
      "inputs": [
        {
          "indexed": false,
          "internalType": "address",
          "name": "newMultiSig",
          "type": "address"
        },
        {
          "indexed": false,
          "internalType": "address",
          "name": "oldMultiSig",
          "type": "address"
        }
      ],
      "name": "MultiSigUpdated",
      "type": "event"
    },
    {
      "anonymous": false,
      "inputs": [
        {
          "indexed": true,
          "internalType": "uint256",
          "name": "proposalId",
          "type": "uint256"
        }
      ],
      "name": "ProposalCanceled",
      "type": "event"
    },
    {
      "anonymous": false,
      "inputs": [
        {
          "indexed": true,
          "internalType": "uint256",
          "name": "proposalId",
          "type": "uint256"
        },
        {
          "indexed": true,
          "internalType": "address",
          "name": "proposer",
          "type": "address"
        },
        {
          "indexed": false,
          "internalType": "address[]",
          "name": "targets",
          "type": "address[]"
        },
        {
          "indexed": false,
          "internalType": "uint256[]",
          "name": "values",
          "type": "uint256[]"
        },
        {
          "indexed": false,
          "internalType": "string[]",
          "name": "signatures",
          "type": "string[]"
        },
        {
          "indexed": false,
          "internalType": "bytes[]",
          "name": "calldatas",
          "type": "bytes[]"
        },
        {
          "indexed": false,
          "internalType": "uint256",
          "name": "startBlock",
          "type": "uint256"
        },
        {
          "indexed": true,
          "internalType": "uint256",
          "name": "endBlock",
          "type": "uint256"
        },
        {
          "indexed": false,
          "internalType": "string",
          "name": "description",
          "type": "string"
        }
      ],
      "name": "ProposalCreated",
      "type": "event"
    },
    {
      "anonymous": false,
      "inputs": [
        {
          "indexed": true,
          "internalType": "uint256",
          "name": "proposalId",
          "type": "uint256"
        }
      ],
      "name": "ProposalExecuted",
      "type": "event"
    },
    {
      "anonymous": false,
      "inputs": [
        {
          "indexed": false,
          "internalType": "uint256",
          "name": "newProposalLifetime",
          "type": "uint256"
        },
        {
          "indexed": false,
          "internalType": "uint256",
          "name": "oldProposalLifetime",
          "type": "uint256"
        }
      ],
      "name": "ProposalLifetimeUpdated",
      "type": "event"
    },
    {
      "anonymous": false,
      "inputs": [
        {
          "indexed": false,
          "internalType": "uint256",
          "name": "proposalId",
          "type": "uint256"
        },
        {
          "indexed": false,
          "internalType": "uint256",
          "name": "eta",
          "type": "uint256"
        }
      ],
      "name": "ProposalQueued",
      "type": "event"
    },
    {
      "anonymous": false,
      "inputs": [
        {
          "indexed": false,
          "internalType": "uint256",
          "name": "oldProposalThreshold",
          "type": "uint256"
        },
        {
          "indexed": false,
          "internalType": "uint256",
          "name": "newProposalThreshold",
          "type": "uint256"
        }
      ],
      "name": "ProposalThresholdSet",
      "type": "event"
    },
    {
      "anonymous": false,
      "inputs": [
        {
          "indexed": false,
          "internalType": "uint256",
          "name": "newProposalTimeDelay",
          "type": "uint256"
        },
        {
          "indexed": false,
          "internalType": "uint256",
          "name": "oldProposalTimeDelay",
          "type": "uint256"
        }
      ],
      "name": "ProposalTimeDelayUpdated",
      "type": "event"
    },
    {
      "anonymous": false,
      "inputs": [
        {
          "indexed": false,
          "internalType": "uint256",
          "name": "oldQuorumNumerator",
          "type": "uint256"
        },
        {
          "indexed": false,
          "internalType": "uint256",
          "name": "newQuorumNumerator",
          "type": "uint256"
        }
      ],
      "name": "QuorumNumeratorUpdated",
      "type": "event"
    },
    {
      "anonymous": false,
      "inputs": [
        {
          "indexed": true,
          "internalType": "address",
          "name": "signer",
          "type": "address"
        },
        {
          "indexed": true,
          "internalType": "uint256",
          "name": "proposalId",
          "type": "uint256"
        }
      ],
      "name": "RevokeConfirmation",
      "type": "event"
    },
    {
      "anonymous": false,
      "inputs": [
        {
          "indexed": false,
          "internalType": "address",
          "name": "oldTimelock",
          "type": "address"
        },
        {
          "indexed": false,
          "internalType": "address",
          "name": "newTimelock",
          "type": "address"
        }
      ],
      "name": "TimelockChange",
      "type": "event"
    },
    {
      "anonymous": false,
      "inputs": [
        {
          "indexed": true,
          "internalType": "address",
          "name": "voter",
          "type": "address"
        },
        {
          "indexed": true,
          "internalType": "uint256",
          "name": "proposalId",
          "type": "uint256"
        },
        {
          "indexed": false,
          "internalType": "uint8",
          "name": "support",
          "type": "uint8"
        },
        {
          "indexed": false,
          "internalType": "uint256",
          "name": "weight",
          "type": "uint256"
        },
        {
          "indexed": false,
          "internalType": "string",
          "name": "reason",
          "type": "string"
        }
      ],
      "name": "VoteCast",
      "type": "event"
    },
    {
      "anonymous": false,
      "inputs": [
        {
          "indexed": true,
          "internalType": "address",
          "name": "voter",
          "type": "address"
        },
        {
          "indexed": true,
          "internalType": "uint256",
          "name": "proposalId",
          "type": "uint256"
        },
        {
          "indexed": false,
          "internalType": "uint8",
          "name": "support",
          "type": "uint8"
        },
        {
          "indexed": false,
          "internalType": "uint256",
          "name": "weight",
          "type": "uint256"
        },
        {
          "indexed": false,
          "internalType": "string",
          "name": "reason",
          "type": "string"
        },
        {
          "indexed": false,
          "internalType": "bytes",
          "name": "params",
          "type": "bytes"
        }
      ],
      "name": "VoteCastWithParams",
      "type": "event"
    },
    {
      "anonymous": false,
      "inputs": [
        {
          "indexed": false,
          "internalType": "uint256",
          "name": "oldVotingDelay",
          "type": "uint256"
        },
        {
          "indexed": false,
          "internalType": "uint256",
          "name": "newVotingDelay",
          "type": "uint256"
        }
      ],
      "name": "VotingDelaySet",
      "type": "event"
    },
    {
      "anonymous": false,
      "inputs": [
        {
          "indexed": false,
          "internalType": "uint256",
          "name": "oldVotingPeriod",
          "type": "uint256"
        },
        {
          "indexed": false,
          "internalType": "uint256",
          "name": "newVotingPeriod",
          "type": "uint256"
        }
      ],
      "name": "VotingPeriodSet",
      "type": "event"
    },
    {
      "inputs": [],
      "name": "BALLOT_TYPEHASH",
      "outputs": [
        {
          "internalType": "bytes32",
          "name": "",
          "type": "bytes32"
        }
      ],
      "stateMutability": "view",
      "type": "function"
    },
    {
      "inputs": [],
      "name": "EXTENDED_BALLOT_TYPEHASH",
      "outputs": [
        {
          "internalType": "bytes32",
          "name": "",
          "type": "bytes32"
        }
      ],
      "stateMutability": "view",
      "type": "function"
    },
    {
      "inputs": [],
      "name": "MINIMUM_LIFETIME",
      "outputs": [
        {
          "internalType": "uint256",
          "name": "",
          "type": "uint256"
        }
      ],
      "stateMutability": "view",
      "type": "function"
    },
    {
      "inputs": [],
      "name": "MINIMUM_QUORUM_NUMERATOR",
      "outputs": [
        {
          "internalType": "uint256",
          "name": "",
          "type": "uint256"
        }
      ],
      "stateMutability": "view",
      "type": "function"
    },
    {
      "inputs": [
        {
          "internalType": "uint256",
          "name": "proposalId",
          "type": "uint256"
        },
        {
          "internalType": "uint8",
          "name": "support",
          "type": "uint8"
        }
      ],
      "name": "castVote",
      "outputs": [
        {
          "internalType": "uint256",
          "name": "",
          "type": "uint256"
        }
      ],
      "stateMutability": "nonpayable",
      "type": "function"
    },
    {
      "inputs": [
        {
          "internalType": "uint256",
          "name": "proposalId",
          "type": "uint256"
        },
        {
          "internalType": "uint8",
          "name": "support",
          "type": "uint8"
        },
        {
          "internalType": "uint8",
          "name": "v",
          "type": "uint8"
        },
        {
          "internalType": "bytes32",
          "name": "r",
          "type": "bytes32"
        },
        {
          "internalType": "bytes32",
          "name": "s",
          "type": "bytes32"
        }
      ],
      "name": "castVoteBySig",
      "outputs": [
        {
          "internalType": "uint256",
          "name": "",
          "type": "uint256"
        }
      ],
      "stateMutability": "nonpayable",
      "type": "function"
    },
    {
      "inputs": [
        {
          "internalType": "uint256",
          "name": "proposalId",
          "type": "uint256"
        },
        {
          "internalType": "uint8",
          "name": "support",
          "type": "uint8"
        },
        {
          "internalType": "string",
          "name": "reason",
          "type": "string"
        }
      ],
      "name": "castVoteWithReason",
      "outputs": [
        {
          "internalType": "uint256",
          "name": "",
          "type": "uint256"
        }
      ],
      "stateMutability": "nonpayable",
      "type": "function"
    },
    {
      "inputs": [
        {
          "internalType": "uint256",
          "name": "proposalId",
          "type": "uint256"
        },
        {
          "internalType": "uint8",
          "name": "support",
          "type": "uint8"
        },
        {
          "internalType": "string",
          "name": "reason",
          "type": "string"
        },
        {
          "internalType": "bytes",
          "name": "params",
          "type": "bytes"
        }
      ],
      "name": "castVoteWithReasonAndParams",
      "outputs": [
        {
          "internalType": "uint256",
          "name": "",
          "type": "uint256"
        }
      ],
      "stateMutability": "nonpayable",
      "type": "function"
    },
    {
      "inputs": [
        {
          "internalType": "uint256",
          "name": "proposalId",
          "type": "uint256"
        },
        {
          "internalType": "uint8",
          "name": "support",
          "type": "uint8"
        },
        {
          "internalType": "string",
          "name": "reason",
          "type": "string"
        },
        {
          "internalType": "bytes",
          "name": "params",
          "type": "bytes"
        },
        {
          "internalType": "uint8",
          "name": "v",
          "type": "uint8"
        },
        {
          "internalType": "bytes32",
          "name": "r",
          "type": "bytes32"
        },
        {
          "internalType": "bytes32",
          "name": "s",
          "type": "bytes32"
        }
      ],
      "name": "castVoteWithReasonAndParamsBySig",
      "outputs": [
        {
          "internalType": "uint256",
          "name": "",
          "type": "uint256"
        }
      ],
      "stateMutability": "nonpayable",
      "type": "function"
    },
    {
      "inputs": [
        {
          "internalType": "uint256",
          "name": "_proposalId",
          "type": "uint256"
        }
      ],
      "name": "confirmProposal",
      "outputs": [],
      "stateMutability": "nonpayable",
      "type": "function"
    },
    {
      "inputs": [
        {
          "internalType": "address[]",
          "name": "targets",
          "type": "address[]"
        },
        {
          "internalType": "uint256[]",
          "name": "values",
          "type": "uint256[]"
        },
        {
          "internalType": "bytes[]",
          "name": "calldatas",
          "type": "bytes[]"
        },
        {
          "internalType": "bytes32",
          "name": "descriptionHash",
          "type": "bytes32"
        }
      ],
      "name": "execute",
      "outputs": [
        {
          "internalType": "uint256",
          "name": "",
          "type": "uint256"
        }
      ],
      "stateMutability": "payable",
      "type": "function"
    },
    {
      "inputs": [
        {
          "internalType": "uint256",
          "name": "_proposalId",
          "type": "uint256"
        }
      ],
      "name": "getDescription",
      "outputs": [
        {
          "internalType": "string",
          "name": "",
          "type": "string"
        }
      ],
      "stateMutability": "view",
      "type": "function"
    },
    {
      "inputs": [],
      "name": "getProposalIds",
      "outputs": [
        {
          "internalType": "uint256[]",
          "name": "",
          "type": "uint256[]"
        }
      ],
      "stateMutability": "view",
      "type": "function"
    },
    {
      "inputs": [
        {
          "internalType": "uint256",
          "name": "_numIndexes",
          "type": "uint256"
        }
      ],
      "name": "getProposals",
      "outputs": [
        {
          "internalType": "string[]",
          "name": "",
          "type": "string[]"
        },
        {
          "internalType": "string[]",
          "name": "",
          "type": "string[]"
        },
        {
          "internalType": "string[]",
          "name": "",
          "type": "string[]"
        }
      ],
      "stateMutability": "view",
      "type": "function"
    },
    {
      "inputs": [
        {
          "internalType": "address",
          "name": "account",
          "type": "address"
        },
        {
          "internalType": "uint256",
          "name": "blockNumber",
          "type": "uint256"
        }
      ],
      "name": "getVotes",
      "outputs": [
        {
          "internalType": "uint256",
          "name": "",
          "type": "uint256"
        }
      ],
      "stateMutability": "view",
      "type": "function"
    },
    {
      "inputs": [
        {
          "internalType": "address",
          "name": "account",
          "type": "address"
        },
        {
          "internalType": "uint256",
          "name": "blockNumber",
          "type": "uint256"
        },
        {
          "internalType": "bytes",
          "name": "params",
          "type": "bytes"
        }
      ],
      "name": "getVotesWithParams",
      "outputs": [
        {
          "internalType": "uint256",
          "name": "",
          "type": "uint256"
        }
      ],
      "stateMutability": "view",
      "type": "function"
    },
    {
      "inputs": [
        {
          "internalType": "uint256",
          "name": "proposalId",
          "type": "uint256"
        },
        {
          "internalType": "address",
          "name": "account",
          "type": "address"
        }
      ],
      "name": "hasVoted",
      "outputs": [
        {
          "internalType": "bool",
          "name": "",
          "type": "bool"
        }
      ],
      "stateMutability": "view",
      "type": "function"
    },
    {
      "inputs": [
        {
          "internalType": "address[]",
          "name": "targets",
          "type": "address[]"
        },
        {
          "internalType": "uint256[]",
          "name": "values",
          "type": "uint256[]"
        },
        {
          "internalType": "bytes[]",
          "name": "calldatas",
          "type": "bytes[]"
        },
        {
          "internalType": "bytes32",
          "name": "descriptionHash",
          "type": "bytes32"
        }
      ],
      "name": "hashProposal",
      "outputs": [
        {
          "internalType": "uint256",
          "name": "",
          "type": "uint256"
        }
      ],
      "stateMutability": "pure",
      "type": "function"
    },
    {
      "inputs": [
        {
          "internalType": "address",
          "name": "",
          "type": "address"
        }
      ],
      "name": "isBlocklisted",
      "outputs": [
        {
          "internalType": "bool",
          "name": "",
          "type": "bool"
        }
      ],
      "stateMutability": "view",
      "type": "function"
    },
    {
      "inputs": [
        {
          "internalType": "uint256",
          "name": "",
          "type": "uint256"
        }
      ],
      "name": "isConfirmed",
      "outputs": [
        {
          "internalType": "bool",
          "name": "",
          "type": "bool"
        }
      ],
      "stateMutability": "view",
      "type": "function"
    },
    {
      "inputs": [
        {
          "internalType": "address",
          "name": "",
          "type": "address"
        }
      ],
      "name": "isSupportedToken",
      "outputs": [
        {
          "internalType": "bool",
          "name": "",
          "type": "bool"
        }
      ],
      "stateMutability": "view",
      "type": "function"
    },
    {
      "inputs": [
        {
          "internalType": "uint256",
          "name": "",
          "type": "uint256"
        }
      ],
      "name": "listOfSupportedTokens",
      "outputs": [
        {
          "internalType": "address",
          "name": "",
          "type": "address"
        }
      ],
      "stateMutability": "view",
      "type": "function"
    },
    {
      "inputs": [],
      "name": "live",
      "outputs": [
        {
          "internalType": "uint256",
          "name": "",
          "type": "uint256"
        }
      ],
      "stateMutability": "view",
      "type": "function"
    },
    {
      "inputs": [],
      "name": "maxTargets",
      "outputs": [
        {
          "internalType": "uint256",
          "name": "",
          "type": "uint256"
        }
      ],
      "stateMutability": "view",
      "type": "function"
    },
    {
      "inputs": [],
      "name": "name",
      "outputs": [
        {
          "internalType": "string",
          "name": "",
          "type": "string"
        }
      ],
      "stateMutability": "view",
      "type": "function"
    },
    {
      "inputs": [
        {
          "internalType": "address",
          "name": "",
          "type": "address"
        }
      ],
      "name": "nextAcceptableProposalTimestamp",
      "outputs": [
        {
          "internalType": "uint256",
          "name": "",
          "type": "uint256"
        }
      ],
      "stateMutability": "view",
      "type": "function"
    },
    {
      "inputs": [
        {
          "internalType": "uint256",
          "name": "proposalId",
          "type": "uint256"
        }
      ],
      "name": "proposalDeadline",
      "outputs": [
        {
          "internalType": "uint256",
          "name": "",
          "type": "uint256"
        }
      ],
      "stateMutability": "view",
      "type": "function"
    },
    {
      "inputs": [
        {
          "internalType": "uint256",
          "name": "proposalId",
          "type": "uint256"
        }
      ],
      "name": "proposalEta",
      "outputs": [
        {
          "internalType": "uint256",
          "name": "",
          "type": "uint256"
        }
      ],
      "stateMutability": "view",
      "type": "function"
    },
    {
      "inputs": [],
      "name": "proposalLifetime",
      "outputs": [
        {
          "internalType": "uint256",
          "name": "",
          "type": "uint256"
        }
      ],
      "stateMutability": "view",
      "type": "function"
    },
    {
      "inputs": [
        {
          "internalType": "uint256",
          "name": "proposalId",
          "type": "uint256"
        }
      ],
      "name": "proposalSnapshot",
      "outputs": [
        {
          "internalType": "uint256",
          "name": "",
          "type": "uint256"
        }
      ],
      "stateMutability": "view",
      "type": "function"
    },
    {
      "inputs": [],
      "name": "proposalTimeDelay",
      "outputs": [
        {
          "internalType": "uint256",
          "name": "",
          "type": "uint256"
        }
      ],
      "stateMutability": "view",
      "type": "function"
    },
    {
      "inputs": [
        {
          "internalType": "uint256",
          "name": "proposalId",
          "type": "uint256"
        }
      ],
      "name": "proposalVotes",
      "outputs": [
        {
          "internalType": "uint256",
          "name": "againstVotes",
          "type": "uint256"
        },
        {
          "internalType": "uint256",
          "name": "forVotes",
          "type": "uint256"
        },
        {
          "internalType": "uint256",
          "name": "abstainVotes",
          "type": "uint256"
        }
      ],
      "stateMutability": "view",
      "type": "function"
    },
    {
      "inputs": [
        {
          "internalType": "address[]",
          "name": "targets",
          "type": "address[]"
        },
        {
          "internalType": "uint256[]",
          "name": "values",
          "type": "uint256[]"
        },
        {
          "internalType": "bytes[]",
          "name": "calldatas",
          "type": "bytes[]"
        },
        {
          "internalType": "bytes32",
          "name": "descriptionHash",
          "type": "bytes32"
        }
      ],
      "name": "queue",
      "outputs": [
        {
          "internalType": "uint256",
          "name": "",
          "type": "uint256"
        }
      ],
      "stateMutability": "nonpayable",
      "type": "function"
    },
    {
      "inputs": [],
      "name": "quorumDenominator",
      "outputs": [
        {
          "internalType": "uint256",
          "name": "",
          "type": "uint256"
        }
      ],
      "stateMutability": "view",
      "type": "function"
    },
    {
      "inputs": [],
      "name": "quorumNumerator",
      "outputs": [
        {
          "internalType": "uint256",
          "name": "",
          "type": "uint256"
        }
      ],
      "stateMutability": "view",
      "type": "function"
    },
    {
      "inputs": [
        {
          "internalType": "uint256",
          "name": "_proposalId",
          "type": "uint256"
        }
      ],
      "name": "revokeConfirmation",
      "outputs": [],
      "stateMutability": "nonpayable",
      "type": "function"
    },
    {
      "inputs": [
        {
          "internalType": "address",
          "name": "account",
          "type": "address"
        },
        {
          "internalType": "bool",
          "name": "blocklistStatus",
          "type": "bool"
        }
      ],
      "name": "setBlocklistStatusForProposer",
      "outputs": [],
      "stateMutability": "nonpayable",
      "type": "function"
    },
    {
      "inputs": [
        {
          "internalType": "uint256",
          "name": "newProposalThreshold",
          "type": "uint256"
        }
      ],
      "name": "setProposalThreshold",
      "outputs": [],
      "stateMutability": "nonpayable",
      "type": "function"
    },
    {
      "inputs": [
        {
          "internalType": "uint256",
          "name": "newVotingDelay",
          "type": "uint256"
        }
      ],
      "name": "setVotingDelay",
      "outputs": [],
      "stateMutability": "nonpayable",
      "type": "function"
    },
    {
      "inputs": [
        {
          "internalType": "uint256",
          "name": "newVotingPeriod",
          "type": "uint256"
        }
      ],
      "name": "setVotingPeriod",
      "outputs": [],
      "stateMutability": "nonpayable",
      "type": "function"
    },
    {
      "inputs": [],
      "name": "timelock",
      "outputs": [
        {
          "internalType": "address",
          "name": "",
          "type": "address"
        }
      ],
      "stateMutability": "view",
      "type": "function"
    },
    {
      "inputs": [],
      "name": "token",
      "outputs": [
        {
          "internalType": "contract IVotes",
          "name": "",
          "type": "address"
        }
      ],
      "stateMutability": "view",
      "type": "function"
    },
    {
      "inputs": [
        {
          "internalType": "uint256",
          "name": "newMaxTargets",
          "type": "uint256"
        }
      ],
      "name": "updateMaxTargets",
      "outputs": [],
      "stateMutability": "nonpayable",
      "type": "function"
    },
    {
      "inputs": [
        {
          "internalType": "address",
          "name": "newMultiSig",
          "type": "address"
        }
      ],
      "name": "updateMultiSig",
      "outputs": [],
      "stateMutability": "nonpayable",
      "type": "function"
    },
    {
      "inputs": [
        {
          "internalType": "uint256",
          "name": "newProposalLifetime",
          "type": "uint256"
        }
      ],
      "name": "updateProposalLifetime",
      "outputs": [],
      "stateMutability": "nonpayable",
      "type": "function"
    },
    {
      "inputs": [
        {
          "internalType": "uint256",
          "name": "newProposalTimeDelay",
          "type": "uint256"
        }
      ],
      "name": "updateProposalTimeDelay",
      "outputs": [],
      "stateMutability": "nonpayable",
      "type": "function"
    },
    {
      "inputs": [
        {
          "internalType": "uint256",
          "name": "newQuorumNumerator",
          "type": "uint256"
        }
      ],
      "name": "updateQuorumNumerator",
      "outputs": [],
      "stateMutability": "nonpayable",
      "type": "function"
    },
    {
      "inputs": [
        {
          "internalType": "contract TimelockController",
          "name": "newTimelock",
          "type": "address"
        }
      ],
      "name": "updateTimelock",
      "outputs": [],
      "stateMutability": "nonpayable",
      "type": "function"
    },
    {
      "inputs": [],
      "name": "version",
      "outputs": [
        {
          "internalType": "string",
          "name": "",
          "type": "string"
        }
      ],
      "stateMutability": "view",
      "type": "function"
    },
    {
      "stateMutability": "payable",
      "type": "receive"
    },
    {
      "inputs": [
        {
          "internalType": "address",
          "name": "target",
          "type": "address"
        },
        {
          "internalType": "bytes",
          "name": "data",
          "type": "bytes"
        }
      ],
      "name": "relayERC20",
      "outputs": [],
      "stateMutability": "nonpayable",
      "type": "function"
    },
    {
      "inputs": [
        {
          "internalType": "address",
          "name": "target",
          "type": "address"
        },
        {
          "internalType": "uint256",
          "name": "value",
          "type": "uint256"
        },
        {
          "internalType": "bytes",
          "name": "data",
          "type": "bytes"
        }
      ],
      "name": "relayNativeToken",
      "outputs": [],
      "stateMutability": "payable",
      "type": "function"
    },
    {
      "inputs": [
        {
          "internalType": "address[]",
          "name": "targets",
          "type": "address[]"
        },
        {
          "internalType": "uint256[]",
          "name": "values",
          "type": "uint256[]"
        },
        {
          "internalType": "bytes[]",
          "name": "calldatas",
          "type": "bytes[]"
        },
        {
          "internalType": "string",
          "name": "description",
          "type": "string"
        }
      ],
      "name": "propose",
      "outputs": [
        {
          "internalType": "uint256",
          "name": "",
          "type": "uint256"
        }
      ],
      "stateMutability": "nonpayable",
      "type": "function"
    },
    {
      "inputs": [
        {
          "internalType": "address[]",
          "name": "targets",
          "type": "address[]"
        },
        {
          "internalType": "uint256[]",
          "name": "values",
          "type": "uint256[]"
        },
        {
          "internalType": "bytes[]",
          "name": "calldatas",
          "type": "bytes[]"
        },
        {
          "internalType": "bytes32",
          "name": "descriptionHash",
          "type": "bytes32"
        }
      ],
      "name": "cancelProposal",
      "outputs": [
        {
          "internalType": "uint256",
          "name": "",
          "type": "uint256"
        }
      ],
      "stateMutability": "nonpayable",
      "type": "function"
    },
    {
      "inputs": [],
      "name": "emergencyStop",
      "outputs": [],
      "stateMutability": "nonpayable",
      "type": "function"
    },
    {
      "inputs": [
        {
          "internalType": "address",
          "name": "_token",
          "type": "address"
        }
      ],
      "name": "addSupportingToken",
      "outputs": [],
      "stateMutability": "nonpayable",
      "type": "function"
    },
    {
      "inputs": [
        {
          "internalType": "address",
          "name": "_token",
          "type": "address"
        }
      ],
      "name": "removeSupportingToken",
      "outputs": [],
      "stateMutability": "nonpayable",
      "type": "function"
    },
    {
      "inputs": [],
      "name": "proposalThreshold",
      "outputs": [
        {
          "internalType": "uint256",
          "name": "",
          "type": "uint256"
        }
      ],
      "stateMutability": "view",
      "type": "function"
    },
    {
      "inputs": [
        {
          "internalType": "bytes4",
          "name": "interfaceId",
          "type": "bytes4"
        }
      ],
      "name": "supportsInterface",
      "outputs": [
        {
          "internalType": "bool",
          "name": "",
          "type": "bool"
        }
      ],
      "stateMutability": "view",
      "type": "function"
    },
    {
      "inputs": [],
      "name": "votingDelay",
      "outputs": [
        {
          "internalType": "uint256",
          "name": "",
          "type": "uint256"
        }
      ],
      "stateMutability": "view",
      "type": "function"
    },
    {
      "inputs": [],
      "name": "votingPeriod",
      "outputs": [
        {
          "internalType": "uint256",
          "name": "",
          "type": "uint256"
        }
      ],
      "stateMutability": "view",
      "type": "function"
    },
    {
      "inputs": [
        {
          "internalType": "uint256",
          "name": "blockNumber",
          "type": "uint256"
        }
      ],
      "name": "quorum",
      "outputs": [
        {
          "internalType": "uint256",
          "name": "",
          "type": "uint256"
        }
      ],
      "stateMutability": "view",
      "type": "function"
    },
    {
      "inputs": [
        {
          "internalType": "uint256",
          "name": "proposalId",
          "type": "uint256"
        }
      ],
      "name": "state",
      "outputs": [
        {
          "internalType": "enum IGovernor.ProposalState",
          "name": "",
          "type": "uint8"
        }
      ],
      "stateMutability": "view",
      "type": "function"
    }
  ],
  "bytecode": "0x6101606040523480156200001257600080fd5b506040516200614138038062006141833981016040819052620000359162000528565b866004898787876040518060400160405280601181526020017026b0b4b72a37b5b2b723b7bb32b93737b960791b8152508c60148a8a846200007c6200023260201b60201c565b815160208084019190912082519183019190912060e08290526101008190527f8b73c3c69bb8fe3d512ecc4cf759cc79239f7b179b0ffacaa9a75d522b39400f4660a052620000cd8184846200024d565b6080523060c052610120525050506001600160a01b0385169050620001055760405163d92e233d60e01b815260040160405180910390fd5b826000036200012757604051636a6257c760e11b815260040160405180910390fd5b816000036200014957604051631a615ced60e11b815260040160405180910390fd5b620151808110156200016e576040516306a0c71b60e11b815260040160405180910390fd5b600a6200017c868262000700565b50600980546001600160a01b0319166001600160a01b039590951694909417909355600091909155600190815560039190915560025550620001be836200028a565b620001c982620002cc565b620001d48162000330565b5050506001600160a01b038116620001ff5760405163d92e233d60e01b815260040160405180910390fd5b6001600160a01b031661014052620002178162000394565b50620002238162000422565b50505050505050505062000877565b6040805180820190915260018152603160f81b602082015290565b600083838346306040516020016200026a959493929190620007e3565b6040516020818303038152906040528051906020012090505b9392505050565b7fc565b045403dc03c2eea82b81a0465edad9e2e7fc4d97e11421c209da93d7a93600e5482604051620002bf92919062000839565b60405180910390a1600e55565b80600003620002ee576040516390d8b45d60e01b815260040160405180910390fd5b7f7e3f7f0708a84de9203036abaa450dccc85ad5ff52f78c170f3edb55cf5e8828600f54826040516200032392919062000839565b60405180910390a1600f55565b80600003620003525760405163831761d760e01b815260040160405180910390fd5b7fccb45da8d5717e6c4544694297c4ba5cf151d455c9bb0ed4fc7a38411bc05461601054826040516200038792919062000839565b60405180910390a1601055565b6064811115620003b75760405163fe454d0960e01b815260040160405180910390fd5b6002811015620003da57604051632058374960e01b815260040160405180910390fd5b60128054908290556040517f0553476bf02ef2726e8ce5ced78d63e26e602e4a2257b1f559418e24b46339979062000416908390859062000839565b60405180910390a15050565b6001600160a01b0381166200044a5760405163d92e233d60e01b815260040160405180910390fd5b6013546040517f08f74ea46ef7894f65eabfb5e6e695de773a000b47c529ab559178069b226401916200048b916001600160a01b0390911690849062000858565b60405180910390a1601380546001600160a01b0319166001600160a01b0392909216919091179055565b60006001600160a01b0382165b92915050565b6000620004c282620004b5565b620004e081620004c8565b8114620004ec57600080fd5b50565b8051620004c281620004d5565b620004e081620004b5565b8051620004c281620004fc565b80620004e0565b8051620004c28162000514565b600080600080600080600080610100898b0312156200054a576200054a600080fd5b6000620005588b8b620004ef565b98505060206200056b8b828c01620004ef565b97505060406200057e8b828c0162000507565b9650506060620005918b828c016200051b565b9550506080620005a48b828c016200051b565b94505060a0620005b78b828c016200051b565b93505060c0620005ca8b828c016200051b565b92505060e0620005dd8b828c016200051b565b9150509295985092959890939650565b634e487b7160e01b600052604160045260246000fd5b634e487b7160e01b600052602260045260246000fd5b6002810460018216806200062e57607f821691505b60208210810362000643576200064362000603565b50919050565b6000620004c2620006578381565b90565b620006658362000649565b81546008840282811b60001990911b908116901990911617825550505050565b6000620006948184846200065a565b505050565b81811015620006b857620006af60008262000685565b60010162000699565b5050565b601f82111562000694576000818152602090206020601f85010481016020851015620006e55750805b620006f96020601f86010483018262000699565b5050505050565b81516001600160401b038111156200071c576200071c620005ed565b62000728825462000619565b62000735828285620006bc565b6020601f8311600181146200076c5760008415620007535750858201515b600019600886021c1981166002860217865550620007c8565b600085815260208120601f198616915b828110156200079e57888501518255602094850194600190920191016200077c565b86831015620007bb5784890151600019601f89166008021c191682555b6001600288020188555050505b505050505050565b805b82525050565b620007d281620004b5565b60a08101620007f38288620007d0565b620008026020830187620007d0565b620008116040830186620007d0565b620008206060830185620007d0565b6200082f6080830184620007d8565b9695505050505050565b60408101620008498285620007d0565b620002836020830184620007d0565b60408101620008688285620007d8565b620002836020830184620007d8565b60805160a05160c05160e051610100516101205161014051615861620008e060003960008181610bf6015281816130bf01526132a7015260006134090152600061344b0152600061342a0152600061338e015260006133b8015260006133e201526158616000f3fe6080604052600436106103915760003560e01c8063784547a7116101d7578063c59057e41161010d578063eb9019d4116100a0578063f4a4f4d21161006f578063f4a4f4d214610b84578063f4b39f6d14610ba4578063f8ce560a14610bc4578063fc0c546a14610be457600080fd5b8063eb9019d414610b04578063ece40cc114610b24578063f27715b414610b44578063f3191bd914610b6457600080fd5b8063d33219b4116100dc578063d33219b414610a72578063deaaa7cc14610a90578063e4facb4d14610ac4578063ea0217cf14610ae457600080fd5b8063c59057e4146109fa578063caba588414610a1a578063cf66138b14610a47578063d19949fc14610a5d57600080fd5b806397c3d33411610185578063ab58fb8e11610154578063ab58fb8e1461098f578063b58131b0146109af578063bd015f5d146109c4578063c01f9e37146109da57600080fd5b806397c3d334146109265780639a802a6d1461093a578063a7713a701461095a578063a890c9101461096f57600080fd5b8063784547a7146108465780637b3c71d3146108765780637d5e81e2146108965780637fcc53ee146108b65780638e204c43146108cd578063929e1e20146108fd578063957aa58c1461091057600080fd5b80633932abb1116102c757806354fd4d501161025a5780635f398a14116102295780635f398a14146107c457806363a599a4146107e45780636484783e146107f957806370b0f6601461082657600080fd5b806354fd4d5014610744578063567813881461076e57806358df30f11461078e5780635f320775146107ae57600080fd5b806340ba1b1e1161029657806340ba1b1e1461066f57806343859632146106915780634925ec55146106db578063544ffc9c146106fb57600080fd5b80633932abb1146105ed5780633bccf4fd146106025780633e4f49e6146106225780633eadf4dc1461064f57600080fd5b806320ea8d861161033f57806327374c761161030e57806327374c761461054a5780632c72fdfc1461056a5780632d63f693146105995780632fe3e261146105b957600080fd5b806320ea8d86146104c757806321cd4131146104e7578063240028e8146105075780632656227d1461053757600080fd5b806301ffc9a7146103cd57806302a251a314610403578063034201811461042557806306f3f9e61461044557806306fdde0314610465578063160cbed7146104875780631c12dd73146104a757600080fd5b366103c8573061039f610c25565b6001600160a01b0316146103c657604051633fdb5f0160e11b815260040160405180910390fd5b005b600080fd5b3480156103d957600080fd5b506103ed6103e8366004613fb1565b610c3e565b6040516103fa9190613fdc565b60405180910390f35b34801561040f57600080fd5b50610418610c4f565b6040516103fa9190613ff0565b34801561043157600080fd5b50610418610440366004614128565b610c5a565b34801561045157600080fd5b506103c66104603660046141fb565b610d0d565b34801561047157600080fd5b5061047a610d98565b6040516103fa9190614274565b34801561049357600080fd5b506104186104a23660046142d6565b610e2a565b3480156104b357600080fd5b506104186104c2366004614553565b6110d5565b3480156104d357600080fd5b506103c66104e23660046141fb565b611123565b3480156104f357600080fd5b506103c6610502366004614604565b6111d9565b34801561051357600080fd5b506103ed610522366004614604565b60166020526000908152604090205460ff1681565b610418610545366004614553565b611261565b34801561055657600080fd5b506103c66105653660046141fb565b61144c565b34801561057657600080fd5b5061058a6105853660046141fb565b6114e1565b6040516103fa93929190614697565b3480156105a557600080fd5b506104186105b43660046141fb565b611528565b3480156105c557600080fd5b506104187fb3b3f3b703cd84ce352197dcff232b1b5d3cfb2025ce47cf04742d0651f1af8881565b3480156105f957600080fd5b5061041861155f565b34801561060e57600080fd5b5061041861061d3660046146d0565b61156a565b34801561062e57600080fd5b5061064261063d3660046141fb565b6115f6565b6040516103fa919061478c565b34801561065b57600080fd5b506103c661066a3660046141fb565b611601565b34801561067b57600080fd5b50610684611696565b6040516103fa91906147f7565b34801561069d57600080fd5b506103ed6106ac366004614808565b60008281526011602090815260408083206001600160a01b038516845260030190915290205460ff1692915050565b3480156106e757600080fd5b5061047a6106f63660046141fb565b6116ed565b34801561070757600080fd5b506107356107163660046141fb565b6000908152601160205260409020805460018201546002909201549092565b6040516103fa93929190614845565b34801561075057600080fd5b506040805180820190915260018152603160f81b602082015261047a565b34801561077a57600080fd5b5061041861078936600461486d565b61178f565b34801561079a57600080fd5b506103c66107a9366004614604565b6117d4565b3480156107ba57600080fd5b5061041860005481565b3480156107d057600080fd5b506104186107df3660046148a0565b61185c565b3480156107f057600080fd5b506103c6611899565b34801561080557600080fd5b50610418610814366004614604565b60066020526000908152604090205481565b34801561083257600080fd5b506103c66108413660046141fb565b611a2a565b34801561085257600080fd5b506103ed6108613660046141fb565b60056020526000908152604090205460ff1681565b34801561088257600080fd5b5061041861089136600461492c565b611ab2565b3480156108a257600080fd5b506104186108b1366004614996565b611aef565b3480156108c257600080fd5b506104186201518081565b3480156108d957600080fd5b506103ed6108e8366004614604565b60046020526000908152604090205460ff1681565b6103c661090b366004614a74565b611afd565b34801561091c57600080fd5b5061041860025481565b34801561093257600080fd5b506064610418565b34801561094657600080fd5b50610418610955366004614ae1565b611c53565b34801561096657600080fd5b50601254610418565b34801561097b57600080fd5b506103c661098a366004614b35565b611c60565b34801561099b57600080fd5b506104186109aa3660046141fb565b611ce8565b3480156109bb57600080fd5b50610418611d84565b3480156109d057600080fd5b5061041860035481565b3480156109e657600080fd5b506104186109f53660046141fb565b611d8f565b348015610a0657600080fd5b50610418610a15366004614553565b611dbe565b348015610a2657600080fd5b50610a3a610a353660046141fb565b611df8565b6040516103fa9190614b5f565b348015610a5357600080fd5b5061041860015481565b348015610a6957600080fd5b50610418600281565b348015610a7e57600080fd5b506013546001600160a01b0316610a3a565b348015610a9c57600080fd5b506104187f150214d74d59b7d1e90c73fc22ef3d991dd0a76b046543d4d80ab92d2a50328f81565b348015610ad057600080fd5b506103c6610adf3660046141fb565b611e22565b348015610af057600080fd5b506103c6610aff3660046141fb565b611eb8565b348015610b1057600080fd5b50610418610b1f366004614b6d565b611f40565b348015610b3057600080fd5b506103c6610b3f3660046141fb565b611f61565b348015610b5057600080fd5b506103c6610b5f366004614604565b611fe9565b348015610b7057600080fd5b506103c6610b7f366004614ba0565b6120ab565b348015610b9057600080fd5b506103c6610b9f3660046141fb565b6121fe565b348015610bb057600080fd5b506103c6610bbf366004614c0e565b61234b565b348015610bd057600080fd5b50610418610bdf3660046141fb565b6123df565b348015610bf057600080fd5b50610c187f000000000000000000000000000000000000000000000000000000000000000081565b6040516103fa9190614c83565b6000610c396013546001600160a01b031690565b905090565b6000610c49826123ea565b92915050565b6000610c39600f5490565b6000600254600114610c7f5760405163baf13b3f60e01b815260040160405180910390fd5b6000610cf1610ce97fb3b3f3b703cd84ce352197dcff232b1b5d3cfb2025ce47cf04742d0651f1af888b8b8b805190602001208b80519060200120604051602001610cce959493929190614c9a565b6040516020818303038152906040528051906020012061240f565b868686612422565b9050610d0089828a8a8a61244a565b9998505050505050505050565b610d15610c25565b6001600160a01b0316336001600160a01b031614610d465760405163819d5a5f60e01b815260040160405180910390fd5b30610d4f610c25565b6001600160a01b031614610d8c5760008036604051610d6f929190614cef565b604051809103902090505b80610d85600c612571565b03610d7a57505b610d95816125f0565b50565b6060600a8054610da790614d12565b80601f0160208091040260200160405190810160405280929190818152602001828054610dd390614d12565b8015610e205780601f10610df557610100808354040283529160200191610e20565b820191906000526020600020905b815481529060010190602001808311610e0357829003601f168201915b5050505050905090565b600080610ea789898080602002602001604051908101604052809392919081815260200183836020028082843760009201919091525050604080516020808d0282810182019093528c82529093508c92508b918291850190849080828437600092019190915250610ea192508991508a9050614d3e565b86611dbe565b60008181526005602052604090205490915060ff16610ed957604051637238834d60e11b815260040160405180910390fd5b6004610ee4826115f6565b6007811115610ef557610ef5614748565b14610f135760405163af6eefa360e01b815260040160405180910390fd5b6013546040805163793d064960e11b815290516000926001600160a01b03169163f27a0c929160048083019260209291908290030181865afa158015610f5d573d6000803e3d6000fd5b505050506040513d601f19601f82011682018060405250810190610f819190614d56565b60135460405163b1c5f42760e01b81529192506001600160a01b03169063b1c5f42790610fc1908d908d908d908d908d908d906000908e90600401614ef7565b602060405180830381865afa158015610fde573d6000803e3d6000fd5b505050506040513d601f19601f820116820180604052508101906110029190614d56565b6000838152601460205260408082209290925560135491516308f2a0bb60e41b81526001600160a01b0390921691638f2a0bb091611052918e918e918e918e918e918e918e908c90600401614f4f565b600060405180830381600087803b15801561106c57600080fd5b505af1158015611080573d6000803e3d6000fd5b505050507f9a2e42fd6722813d69113e7d0079d3d940171428df7373df9c7f7617cfda28928282426110b29190614fca565b6040516110c0929190614fdd565b60405180910390a15098975050505050505050565b6009546000906001600160a01b0316336001600160a01b03161461110c57604051634afb817760e11b815260040160405180910390fd5b6111188585858561267a565b90505b949350505050565b6009546001600160a01b0316336001600160a01b03161461115757604051634afb817760e11b815260040160405180910390fd5b600081815260076020526040902060020154819060ff161561118c576040516351618d5360e01b815260040160405180910390fd5b61119582612688565b600082815260056020526040808220805460ff1916905551839133917ff0dca620e2e81f7841d07bcc105e1704fb01475b278a9d4c236e1c62945edd559190a35050565b6111e1610c25565b6001600160a01b0316336001600160a01b0316146112125760405163819d5a5f60e01b815260040160405180910390fd5b3061121b610c25565b6001600160a01b031614611258576000803660405161123b929190614cef565b604051809103902090505b80611251600c612571565b0361124657505b610d95816126b7565b60006002546001146112865760405163baf13b3f60e01b815260040160405180910390fd5b600061129486868686611dbe565b905061129f81612757565b6112a881612688565b60006112b3826115f6565b905060058160078111156112c9576112c9614748565b146112e75760405163599fb1a360e01b815260040160405180910390fd5b6000805b875181101561132d5787818151811061130657611306614ff8565b6020026020010151826113199190614fca565b9150806113258161500e565b9150506112eb565b508034101561134f5760405163356680b760e01b815260040160405180910390fd5b600083815260076020526040808220600201805460ff191660011790555184917f712ae1383f79ac853f8d882153778e0260ef8f03b504e2866e0593e04d2b291f91a261139f8389898989612789565b6113ac8389898989612829565b6113b98389898989612865565b80341115611440576000336113ce8334615028565b6040516113da9061503b565b60006040518083038185875af1925050503d8060008114611417576040519150601f19603f3d011682016040523d82523d6000602084013e61141c565b606091505b505090508061143e57604051630dcf35db60e41b815260040160405180910390fd5b505b50909695505050505050565b6009546001600160a01b0316336001600160a01b03161461148057604051634afb817760e11b815260040160405180910390fd5b806000036114a157604051637c946ed760e01b815260040160405180910390fd5b7f3da73a181c2b3944927ac2df9dc262cf838e775431feb05974323f1cdabe3896816001546040516114d4929190614fdd565b60405180910390a1600155565b600b54606090819081906000819003611504575060609250829150819050611521565b80851115611510578094505b6115198561289e565b935093509350505b9193909250565b60008181526007602090815260408083208151928301909152546001600160401b0316908190525b6001600160401b031692915050565b6000610c39600e5490565b600060025460011461158f5760405163baf13b3f60e01b815260040160405180910390fd5b60006115cc610ce97f150214d74d59b7d1e90c73fc22ef3d991dd0a76b046543d4d80ab92d2a50328f8989604051602001610cce93929190615046565b90506115e987828860405180602001604052806000815250612b5e565b9150505b95945050505050565b6000610c4982612b81565b6009546001600160a01b0316336001600160a01b03161461163557604051634afb817760e11b815260040160405180910390fd5b8060000361165657604051637c946ed760e01b815260040160405180910390fd5b7f9187ebb0ce0ff73eeba0fa7031c0d57dcf43f08ac34102f94434e5c0c108c96481600054604051611689929190614fdd565b60405180910390a1600055565b6060600b805480602002602001604051908101604052809291908181526020018280548015610e2057602002820191906000526020600020905b8154815260200190600101908083116116d0575050505050905090565b600081815260086020526040902080546060919061170a90614d12565b80601f016020809104026020016040519081016040528092919081815260200182805461173690614d12565b80156117835780601f1061175857610100808354040283529160200191611783565b820191906000526020600020905b81548152906001019060200180831161176657829003601f168201915b50505050509050919050565b60006002546001146117b45760405163baf13b3f60e01b815260040160405180910390fd5b600033905061111b84828560405180602001604052806000815250612b5e565b6117dc610c25565b6001600160a01b0316336001600160a01b03161461180d5760405163819d5a5f60e01b815260040160405180910390fd5b30611816610c25565b6001600160a01b0316146118535760008036604051611836929190614cef565b604051809103902090505b8061184c600c612571565b0361184157505b610d9581612c74565b60006002546001146118815760405163baf13b3f60e01b815260040160405180910390fd5b3361188f868287878761244a565b9695505050505050565b6009546001600160a01b0316336001600160a01b0316146118cd57604051634afb817760e11b815260040160405180910390fd5b6118d5612dd7565b60005b6017548110156119a4576000601782815481106118f7576118f7614ff8565b60009182526020822001546040516370a0823160e01b81526001600160a01b03909116925082906370a0823190611932903090600401614b5f565b602060405180830381865afa15801561194f573d6000803e3d6000fd5b505050506040513d601f19601f820116820180604052508101906119739190614d56565b9050801561198f5761198f6001600160a01b0383163383612e2a565b5050808061199c9061500e565b9150506118d8565b504715611a28576000336001600160a01b0316476040516119c49061503b565b60006040518083038185875af1925050503d8060008114611a01576040519150601f19603f3d011682016040523d82523d6000602084013e611a06565b606091505b5050905080610d9557604051630dcf35db60e41b815260040160405180910390fd5b565b611a32610c25565b6001600160a01b0316336001600160a01b031614611a635760405163819d5a5f60e01b815260040160405180910390fd5b30611a6c610c25565b6001600160a01b031614611aa95760008036604051611a8c929190614cef565b604051809103902090505b80611aa2600c612571565b03611a9757505b610d9581612e85565b6000600254600114611ad75760405163baf13b3f60e01b815260040160405180910390fd5b33611ae485828686612b5e565b9150505b9392505050565b600061111885858585612ec5565b611b05610c25565b6001600160a01b0316336001600160a01b031614611b365760405163819d5a5f60e01b815260040160405180910390fd5b30611b3f610c25565b6001600160a01b031614611b7c5760008036604051611b5f929190614cef565b604051809103902090505b80611b75600c612571565b03611b6a57505b6001600160a01b03841660009081526016602052604090205460ff1615611bb657604051635f64e01d60e11b815260040160405180910390fd5b600080856001600160a01b0316858585604051611bd4929190614cef565b60006040518083038185875af1925050503d8060008114611c11576040519150601f19603f3d011682016040523d82523d6000602084013e611c16565b606091505b5091509150611c4a82826040518060400160405280600c81526020016b195b5c1d1e481c995d995c9d60a21b815250613063565b50505050505050565b600061111b8484846130a5565b611c68610c25565b6001600160a01b0316336001600160a01b031614611c995760405163819d5a5f60e01b815260040160405180910390fd5b30611ca2610c25565b6001600160a01b031614611cdf5760008036604051611cc2929190614cef565b604051809103902090505b80611cd8600c612571565b03611ccd57505b610d9581613137565b60135460008281526014602052604080822054905163d45c443560e01b8152919283926001600160a01b039091169163d45c443591611d2a9190600401613ff0565b602060405180830381865afa158015611d47573d6000803e3d6000fd5b505050506040513d601f19601f82011682018060405250810190611d6b9190614d56565b905080600114611d7b5780611ae8565b60009392505050565b6000610c3960105490565b60008181526007602090815260408083208151928301909152600101546001600160401b031690819052611550565b600084848484604051602001611dd79493929190615105565b60408051601f19818403018152919052805160209091012095945050505050565b60178181548110611e0857600080fd5b6000918252602090912001546001600160a01b0316905081565b6009546001600160a01b0316336001600160a01b031614611e5657604051634afb817760e11b815260040160405180910390fd5b62015180811015611e7a5760405163e4e014cd60e01b815260040160405180910390fd5b7fc4106c7a131061f6ffb9a883270bb5c3aa2f9933a50cf3fa48d64d0dd73369c78182604051611eab929190614fdd565b60405180910390a1600355565b611ec0610c25565b6001600160a01b0316336001600160a01b031614611ef15760405163819d5a5f60e01b815260040160405180910390fd5b30611efa610c25565b6001600160a01b031614611f375760008036604051611f1a929190614cef565b604051809103902090505b80611f30600c612571565b03611f2557505b610d95816131c7565b6000611ae88383611f5c60408051602081019091526000815290565b6130a5565b611f69610c25565b6001600160a01b0316336001600160a01b031614611f9a5760405163819d5a5f60e01b815260040160405180910390fd5b30611fa3610c25565b6001600160a01b031614611fe05760008036604051611fc3929190614cef565b604051809103902090505b80611fd9600c612571565b03611fce57505b610d9581613228565b6009546001600160a01b0316336001600160a01b03161461201d57604051634afb817760e11b815260040160405180910390fd5b6001600160a01b0381166120445760405163d92e233d60e01b815260040160405180910390fd5b6009546040517fa31378226bf642b76b52240a017232ce81a41924f7e964dfe5b2cc0ebe6287ca916120819184916001600160a01b03169061514d565b60405180910390a1600980546001600160a01b0319166001600160a01b0392909216919091179055565b6120b3610c25565b6001600160a01b0316336001600160a01b0316146120e45760405163819d5a5f60e01b815260040160405180910390fd5b306120ed610c25565b6001600160a01b03161461212a576000803660405161210d929190614cef565b604051809103902090505b80612123600c612571565b0361211857505b6001600160a01b03831660009081526016602052604090205460ff1661216357604051635fdeadaf60e01b815260040160405180910390fd5b600080846001600160a01b03168484604051612180929190614cef565b6000604051808303816000865af19150503d80600081146121bd576040519150601f19603f3d011682016040523d82523d6000602084013e6121c2565b606091505b50915091506121f682826040518060400160405280600c81526020016b195b5c1d1e481c995d995c9d60a21b815250613063565b505050505050565b6009546001600160a01b0316336001600160a01b03161461223257604051634afb817760e11b815260040160405180910390fd5b600081815260076020526040902060020154819060ff1615612267576040516351618d5360e01b815260040160405180910390fd5b600082815260056020526040902054829060ff161561229957604051631ff5e74360e21b815260040160405180910390fd5b6122a283612757565b6000838152600560205260408120805460ff191660011790556122c4846115f6565b905060048160078111156122da576122da614748565b141580156122fa575060058160078111156122f7576122f7614748565b14155b1561231857604051630213b73560e41b815260040160405180910390fd5b604051849033907fc465ffb6829baf0ff01f0180d8bc0dca7de4bb775e4d3a1bf155f9047da4026c90600090a350505050565b6009546001600160a01b0316336001600160a01b03161461237f57604051634afb817760e11b815260040160405180910390fd5b6001600160a01b03821660008181526004602052604090819020805460ff1916841515179055517f285d30726c52fa6d937c831072c13afa1e31b5ec0c0c2c7ed72f48b59fa95e60906123d3908490613fdc565b60405180910390a25050565b6000610c4982613289565b60006001600160e01b03198216636e665ced60e01b1480610c495750610c4982613331565b6000610c4961241c613381565b8361346f565b6000806000612433878787876134a2565b9150915061244081613578565b5095945050505050565b60008581526007602052604081206001612463886115f6565b600781111561247457612474614748565b1461249257604051637becc13f60e01b815260040160405180910390fd5b604080516020810190915281546001600160401b0316908190526000906124bb908890866130a5565b90506124ca8888888488613658565b835160000361251e5787876001600160a01b03167fb8e138887d0aa13bab447e82de9d5c1777041ecd21ca36ba824ff1e6c07ddda488848960405161251193929190615168565b60405180910390a36115e9565b87876001600160a01b03167fe2babfbac5889a709b63bb7f598b324e08bc5a4fb9ec647fb3cbc9ec07eb87128884898960405161255e9493929190615195565b60405180910390a3979650505050505050565b600061258c8254600f81810b600160801b909204900b131590565b156125aa57604051631ed9509560e11b815260040160405180910390fd5b508054600f0b6000818152600180840160205260408220805492905583546fffffffffffffffffffffffffffffffff191692016001600160801b03169190911790915590565b60648111156126125760405163fe454d0960e01b815260040160405180910390fd5b600281101561263457604051632058374960e01b815260040160405180910390fd5b60128054908290556040517f0553476bf02ef2726e8ce5ced78d63e26e602e4a2257b1f559418e24b46339979061266e9083908590614fdd565b60405180910390a15050565b600061111885858585613746565b60008181526005602052604090205460ff16610d955760405163428cb00560e11b815260040160405180910390fd5b6001600160a01b03811660009081526016602052604090205460ff16156126f157604051635f64e01d60e11b815260040160405180910390fd5b6001600160a01b03166000818152601660205260408120805460ff191660019081179091556017805491820181559091527fc624b66cc0138b8fabc209247f72d758e1cf3343756d543badbf24212bed8c150180546001600160a01b0319169091179055565b600081815260076020526040902060030154421115610d95576040516328a7237960e01b815260040160405180910390fd5b30612792610c25565b6001600160a01b0316146128225760005b84518110156121f657306001600160a01b03168582815181106127c8576127c8614ff8565b60200260200101516001600160a01b031603612812576128128382815181106127f3576127f3614ff8565b602002602001015180519060200120600c6137f490919063ffffffff16565b61281b8161500e565b90506127a3565b5050505050565b60008581526005602052604090205460ff166128585760405163428cb00560e11b815260040160405180910390fd5b6128228585858585613830565b3061286e610c25565b6001600160a01b03161461282257600c54600f81810b600160801b909204900b1315612822576000600c55612822565b60608060606000846001600160401b038111156128bd576128bd61402d565b6040519080825280602002602001820160405280156128f057816020015b60608152602001906001900390816128db5790505b5090506000856001600160401b0381111561290d5761290d61402d565b60405190808252806020026020018201604052801561294057816020015b606081526020019060019003908161292b5790505b5090506000866001600160401b0381111561295d5761295d61402d565b60405190808252806020026020018201604052801561299057816020015b606081526020019060019003908161297b5790505b50600b5490915060006129a460018a615028565b90508189106129bb576129b8600183615028565b90505b6000600b6129ca600185615028565b815481106129da576129da614ff8565b906000526020600020015490506129f0816138ed565b848381518110612a0257612a02614ff8565b6020026020010181905250600860008281526020019081526020016000208054612a2b90614d12565b80601f0160208091040260200160405190810160405280929190818152602001828054612a5790614d12565b8015612aa45780601f10612a7957610100808354040283529160200191612aa4565b820191906000526020600020905b815481529060010190602001808311612a8757829003601f168201915b5050505050858381518110612abb57612abb614ff8565b6020026020010181905250612aeb612ad2826115f6565b6007811115612ae357612ae3614748565b60ff166138ed565b868381518110612afd57612afd614ff8565b6020908102919091010152612b13600184615028565b600003612b205750612b4f565b81600003612b2e5750612b4f565b82612b38816151d6565b9350508180612b46906151d6565b925050506129bb565b50909791965091945092505050565b600061111885858585612b7c60408051602081019091526000815290565b61244a565b600080612b8d836139ed565b90506004816007811115612ba357612ba3614748565b14612bae5792915050565b60008381526014602052604090205480612bc9575092915050565b60008481526015602052604090205460ff1615612bea575060079392505050565b601354604051632c258a9f60e11b81526001600160a01b039091169063584b153e90612c1a908490600401613ff0565b602060405180830381865afa158015612c37573d6000803e3d6000fd5b505050506040513d601f19601f82011682018060405250810190612c5b91906151f8565b15612c6a575060059392505050565b5060029392505050565b6001600160a01b03811660009081526016602052604090205460ff16612cad57604051635fdeadaf60e01b815260040160405180910390fd5b6001600160a01b0381166000908152601660205260408120805460ff191690555b601754811015612da057816001600160a01b031660178281548110612cf557612cf5614ff8565b6000918252602090912001546001600160a01b031603612d8e5760178054612d1f90600190615028565b81548110612d2f57612d2f614ff8565b600091825260209091200154601780546001600160a01b039092169183908110612d5b57612d5b614ff8565b9060005260206000200160006101000a8154816001600160a01b0302191690836001600160a01b03160217905550612da0565b80612d988161500e565b915050612cce565b506017805480612db257612db2615219565b600082815260209020810160001990810180546001600160a01b031916905501905550565b600254600114612dfa5760405163baf13b3f60e01b815260040160405180910390fd5b600060028190556040517f4e97bcfc80ae353daee1a1990d5b388eef167d3e197ebf5243cc4d43b4125c099190a1565b612e808363a9059cbb60e01b8484604051602401612e4992919061522f565b60408051601f198184030181529190526020810180516001600160e01b03166001600160e01b031990931692909217909152613acd565b505050565b7fc565b045403dc03c2eea82b81a0465edad9e2e7fc4d97e11421c209da93d7a93600e5482604051612eb8929190614fdd565b60405180910390a1600e55565b6000848484600254600114612eed5760405163baf13b3f60e01b815260040160405180910390fd5b612ef5611d84565b612f0433610b1f600143615028565b1015612f2357604051633048076b60e11b815260040160405180910390fd5b3360009081526004602052604090205460ff1615612f54576040516301544e2960e11b815260040160405180910390fd5b612f5d33613b5c565b8151835114612f7f57604051633465db5d60e11b815260040160405180910390fd5b8051835114612fa157604051633465db5d60e11b815260040160405180910390fd5b8251600003612fc35760405163294565bf60e01b815260040160405180910390fd5b60005483511115612fe7576040516302aa55e160e51b815260040160405180910390fd5b6000612ffc8989898980519060200120611dbe565b600081815260076020908152604091829020825191820190925281546001600160401b031690819052919250901561304757604051635c61cf3160e11b815260040160405180910390fd5b61305582828c8c8c8c613bc0565b9a9950505050505050505050565b60608315613072575081611ae8565b8251156130825782518084602001fd5b8160405162461bcd60e51b815260040161309c9190614274565b60405180910390fd5b604051630748d63560e31b81526000906001600160a01b037f00000000000000000000000000000000000000000000000000000000000000001690633a46b1a8906130f6908790879060040161522f565b602060405180830381865afa158015613113573d6000803e3d6000fd5b505050506040513d601f19601f8201168201806040525081019061111b9190614d56565b6001600160a01b03811661315e5760405163d92e233d60e01b815260040160405180910390fd5b6013546040517f08f74ea46ef7894f65eabfb5e6e695de773a000b47c529ab559178069b2264019161319d916001600160a01b0390911690849061514d565b60405180910390a1601380546001600160a01b0319166001600160a01b0392909216919091179055565b806000036131e8576040516390d8b45d60e01b815260040160405180910390fd5b7f7e3f7f0708a84de9203036abaa450dccc85ad5ff52f78c170f3edb55cf5e8828600f548260405161321b929190614fdd565b60405180910390a1600f55565b806000036132495760405163831761d760e01b815260040160405180910390fd5b7fccb45da8d5717e6c4544694297c4ba5cf151d455c9bb0ed4fc7a38411bc054616010548260405161327c929190614fdd565b60405180910390a1601055565b60006064601254604051632394e7a360e21b81526001600160a01b037f00000000000000000000000000000000000000000000000000000000000000001690638e539e8c906132dc908790600401613ff0565b602060405180830381865afa1580156132f9573d6000803e3d6000fd5b505050506040513d601f19601f8201168201806040525081019061331d9190614d56565b613327919061523d565b610c499190615272565b60006001600160e01b03198216632dcb927b60e11b148061336257506001600160e01b03198216634eb6428760e11b145b80610c4957506301ffc9a760e01b6001600160e01b0319831614610c49565b6000306001600160a01b037f0000000000000000000000000000000000000000000000000000000000000000161480156133da57507f000000000000000000000000000000000000000000000000000000000000000046145b1561340457507f000000000000000000000000000000000000000000000000000000000000000090565b610c397f00000000000000000000000000000000000000000000000000000000000000007f00000000000000000000000000000000000000000000000000000000000000007f0000000000000000000000000000000000000000000000000000000000000000613d48565b60008282604051602001613484929190615286565b60405160208183030381529060405280519060200120905092915050565b6000806fa2a8918ca85bafe22016d0b997e4df60600160ff1b038311156134cf575060009050600361356f565b8460ff16601b141580156134e757508460ff16601c14155b156134f8575060009050600461356f565b60006001878787876040516000815260200160405260405161351d94939291906152b7565b6020604051602081039080840390855afa15801561353f573d6000803e3d6000fd5b5050604051601f1901519150506001600160a01b0381166135685760006001925092505061356f565b9150600090505b94509492505050565b600081600481111561358c5761358c614748565b036135945750565b60018160048111156135a8576135a8614748565b036135c55760405162461bcd60e51b815260040161309c9061531e565b60028160048111156135d9576135d9614748565b036135f65760405162461bcd60e51b815260040161309c90615362565b600381600481111561360a5761360a614748565b036136275760405162461bcd60e51b815260040161309c906153b4565b600481600481111561363b5761363b614748565b03610d955760405162461bcd60e51b815260040161309c90615403565b60008581526011602090815260408083206001600160a01b0388168452600381019092529091205460ff16156136a157604051633a68a23b60e21b815260040160405180910390fd5b6001600160a01b03851660009081526003820160205260409020805460ff1916600117905560ff84166136ed57828160000160008282546136e29190614fca565b909155506121f69050565b60001960ff85160161370d57828160010160008282546136e29190614fca565b60011960ff85160161372d57828160020160008282546136e29190614fca565b604051635010c8f360e11b815260040160405180910390fd5b60008061375586868686613d82565b60008181526014602052604090205490915015611118576013546000828152601460205260409081902054905163c4d252f560e01b81526001600160a01b039092169163c4d252f5916137aa91600401613ff0565b600060405180830381600087803b1580156137c457600080fd5b505af11580156137d8573d6000803e3d6000fd5b5050506000828152601460205260408120555095945050505050565b8154600160801b90819004600f0b6000818152600180860160205260409091209390935583546001600160801b03908116939091011602179055565b60008581526015602052604090205460ff161561386057604051630dc1019760e01b815260040160405180910390fd5b60135460405163e38335e560e01b81526001600160a01b039091169063e38335e590349061389b908890889088906000908990600401615413565b6000604051808303818588803b1580156138b457600080fd5b505af11580156138c8573d6000803e3d6000fd5b50505060009687525050601560205250506040909220805460ff191660011790555050565b6060816000036139145750506040805180820190915260018152600360fc1b602082015290565b8160005b811561393e57806139288161500e565b91506139379050600a83615272565b9150613918565b6000816001600160401b038111156139585761395861402d565b6040519080825280601f01601f191660200182016040528015613982576020820181803683370190505b5090505b841561111b57613997600183615028565b91506139a4600a8661545b565b6139af906030614fca565b60f81b8183815181106139c4576139c4614ff8565b60200101906001600160f81b031916908160001a9053506139e6600a86615272565b9450613986565b6000818152600760205260408120600281015460ff1615613a115750600792915050565b6002810154610100900460ff1615613a2c5750600292915050565b6000613a3784611528565b905080600003613a5a576040516302eae9e560e51b815260040160405180910390fd5b438110613a6b575060009392505050565b6000613a7685611d8f565b9050438110613a8a57506001949350505050565b613a9385613e5a565b8015613ab2575060008581526011602052604090208054600190910154115b15613ac257506004949350505050565b506003949350505050565b6000613b22826040518060400160405280602081526020017f5361666545524332303a206c6f772d6c6576656c2063616c6c206661696c6564815250856001600160a01b0316613e919092919063ffffffff16565b805190915015612e805780806020019051810190613b4091906151f8565b612e805760405162461bcd60e51b815260040161309c906154b6565b6001600160a01b0381166000908152600660205260409020544211613b97576040516001620d66b760e41b0319815260040160405180910390fd5b600154613ba49042614fca565b6001600160a01b03909116600090815260066020526040902055565b600080613bd3613bce61155f565b613ea0565b613bdc43613ea0565b613be691906154c6565b90506000613bf5613bce610c4f565b613bff90836154c6565b885467ffffffffffffffff19166001600160401b038416178955905060018801805467ffffffffffffffff19166001600160401b038316179055600354613c469042614fca565b60038901556000898152600860205260409020613c638582615577565b50600b80546001810182556000919091527f0175b7a638427703f0dbe7bb9bbf987a2551717b34e79f33b5b1008d1fa01db9018990556001600160401b038116336001600160a01b03168a7f7d84a6263ae0d98d3329bd7b46bb4e8d6f98cd35a7adb45c274c8b7fd5ebd5e08a8a8c516001600160401b03811115613cea57613cea61402d565b604051908082528060200260200182016040528015613d1d57816020015b6060815260200190600190039081613d085790505b508b898c604051613d3396959493929190615657565b60405180910390a45096979650505050505050565b60008383834630604051602001613d639594939291906156d1565b6040516020818303038152906040528051906020012090509392505050565b600080613d9186868686611dbe565b90506000613d9e826115f6565b90506002816007811115613db457613db4614748565b1480613dd157506006816007811115613dcf57613dcf614748565b145b80613ded57506007816007811115613deb57613deb614748565b145b15613e0b57604051637becc13f60e01b815260040160405180910390fd5b600082815260076020526040808220600201805461ff0019166101001790555183917f789cf55be980739dad1d0699b93b58e806b51c9d96619bfa8fe0a28abaa7b30c91a25095945050505050565b600081815260116020526040812060028101546001820154613e7c9190614fca565b613e88610bdf85611528565b11159392505050565b606061111b8484600085613ecd565b60006001600160401b03821115613ec95760405162461bcd60e51b815260040161309c90615756565b5090565b606082471015613eef5760405162461bcd60e51b815260040161309c906157a9565b6001600160a01b0385163b613f165760405162461bcd60e51b815260040161309c906157ed565b600080866001600160a01b03168587604051613f32919061581f565b60006040518083038185875af1925050503d8060008114613f6f576040519150601f19603f3d011682016040523d82523d6000602084013e613f74565b606091505b5091509150613f84828286613063565b979650505050505050565b6001600160e01b031981165b8114610d9557600080fd5b8035610c4981613f8f565b600060208284031215613fc657613fc6600080fd5b600061111b8484613fa6565b8015155b82525050565b60208101610c498284613fd2565b80613fd6565b60208101610c498284613fea565b80613f9b565b8035610c4981613ffe565b60ff8116613f9b565b8035610c498161400f565b601f01601f191690565b634e487b7160e01b600052604160045260246000fd5b61404c82614023565b81018181106001600160401b03821117156140695761406961402d565b6040525050565b600061407b60405190565b90506140878282614043565b919050565b60006001600160401b038211156140a5576140a561402d565b6140ae82614023565b60200192915050565b82818337506000910152565b60006140d66140d18461408c565b614070565b9050828152602081018484840111156140f1576140f1600080fd5b6140fc8482856140b7565b509392505050565b600082601f83011261411857614118600080fd5b813561111b8482602086016140c3565b600080600080600080600060e0888a03121561414657614146600080fd5b60006141528a8a614004565b97505060206141638a828b01614018565b96505060408801356001600160401b0381111561418257614182600080fd5b61418e8a828b01614104565b95505060608801356001600160401b038111156141ad576141ad600080fd5b6141b98a828b01614104565b94505060806141ca8a828b01614018565b93505060a06141db8a828b01614004565b92505060c06141ec8a828b01614004565b91505092959891949750929550565b60006020828403121561421057614210600080fd5b600061111b8484614004565b60005b8381101561423757818101518382015260200161421f565b50506000910152565b600061424a825190565b80845260208401935061426181856020860161421c565b61426a81614023565b9093019392505050565b60208082528101611ae88184614240565b60008083601f84011261429a5761429a600080fd5b5081356001600160401b038111156142b4576142b4600080fd5b6020830191508360208202830111156142cf576142cf600080fd5b9250929050565b60008060008060008060006080888a0312156142f4576142f4600080fd5b87356001600160401b0381111561430d5761430d600080fd5b6143198a828b01614285565b975097505060208801356001600160401b0381111561433a5761433a600080fd5b6143468a828b01614285565b955095505060408801356001600160401b0381111561436757614367600080fd5b6143738a828b01614285565b935093505060606141ec8a828b01614004565b60006001600160401b0382111561439f5761439f61402d565b5060209081020190565b60006001600160a01b038216610c49565b613f9b816143a9565b8035610c49816143ba565b60006143dc6140d184614386565b838152905060208082019084028301858111156143fb576143fb600080fd5b835b8181101561441f578061441088826143c3565b845250602092830192016143fd565b5050509392505050565b600082601f83011261443d5761443d600080fd5b813561111b8482602086016143ce565b600061445b6140d184614386565b8381529050602080820190840283018581111561447a5761447a600080fd5b835b8181101561441f578061448f8882614004565b8452506020928301920161447c565b600082601f8301126144b2576144b2600080fd5b813561111b84826020860161444d565b60006144d06140d184614386565b838152905060208082019084028301858111156144ef576144ef600080fd5b835b8181101561441f5780356001600160401b0381111561451257614512600080fd5b80860161451f8982614104565b85525050602092830192016144f1565b600082601f83011261454357614543600080fd5b813561111b8482602086016144c2565b6000806000806080858703121561456c5761456c600080fd5b84356001600160401b0381111561458557614585600080fd5b61459187828801614429565b94505060208501356001600160401b038111156145b0576145b0600080fd5b6145bc8782880161449e565b93505060408501356001600160401b038111156145db576145db600080fd5b6145e78782880161452f565b92505060606145f887828801614004565b91505092959194509250565b60006020828403121561461957614619600080fd5b600061111b84846143c3565b6000611ae88383614240565b600061463b825190565b808452602084019350836020820285016146558560200190565b8060005b8581101561468a57848403895281516146728582614625565b94506020830160209a909a0199925050600101614659565b5091979650505050505050565b606080825281016146a88186614631565b905081810360208301526146bc8185614631565b905081810360408301526111188184614631565b600080600080600060a086880312156146eb576146eb600080fd5b60006146f78888614004565b955050602061470888828901614018565b945050604061471988828901614018565b935050606061472a88828901614004565b925050608061473b88828901614004565b9150509295509295909350565b634e487b7160e01b600052602160045260246000fd5b60088110610d9557610d95614748565b806140878161475e565b6000610c498261476e565b613fd681614778565b60208101610c498284614783565b60006147a68383613fea565b505060200190565b60006147b8825190565b80845260209384019383018060005b838110156147ec5781516147db888261479a565b9750602083019250506001016147c7565b509495945050505050565b60208082528101611ae881846147ae565b6000806040838503121561481e5761481e600080fd5b600061482a8585614004565b925050602061483b858286016143c3565b9150509250929050565b606081016148538286613fea565b6148606020830185613fea565b61111b6040830184613fea565b6000806040838503121561488357614883600080fd5b600061488f8585614004565b925050602061483b85828601614018565b600080600080608085870312156148b9576148b9600080fd5b60006148c58787614004565b94505060206148d687828801614018565b93505060408501356001600160401b038111156148f5576148f5600080fd5b61490187828801614104565b92505060608501356001600160401b0381111561492057614920600080fd5b6145f887828801614104565b60008060006060848603121561494457614944600080fd5b60006149508686614004565b935050602061496186828701614018565b92505060408401356001600160401b0381111561498057614980600080fd5b61498c86828701614104565b9150509250925092565b600080600080608085870312156149af576149af600080fd5b84356001600160401b038111156149c8576149c8600080fd5b6149d487828801614429565b94505060208501356001600160401b038111156149f3576149f3600080fd5b6149ff8782880161449e565b93505060408501356001600160401b03811115614a1e57614a1e600080fd5b6149018782880161452f565b60008083601f840112614a3f57614a3f600080fd5b5081356001600160401b03811115614a5957614a59600080fd5b6020830191508360018202830111156142cf576142cf600080fd5b60008060008060608587031215614a8d57614a8d600080fd5b6000614a9987876143c3565b9450506020614aaa87828801614004565b93505060408501356001600160401b03811115614ac957614ac9600080fd5b614ad587828801614a2a565b95989497509550505050565b600080600060608486031215614af957614af9600080fd5b6000614b0586866143c3565b935050602061496186828701614004565b6000610c49826143a9565b613f9b81614b16565b8035610c4981614b21565b600060208284031215614b4a57614b4a600080fd5b600061111b8484614b2a565b613fd6816143a9565b60208101610c498284614b56565b60008060408385031215614b8357614b83600080fd5b6000614b8f85856143c3565b925050602061483b85828601614004565b600080600060408486031215614bb857614bb8600080fd5b6000614bc486866143c3565b93505060208401356001600160401b03811115614be357614be3600080fd5b614bef86828701614a2a565b92509250509250925092565b801515613f9b565b8035610c4981614bfb565b60008060408385031215614c2457614c24600080fd5b6000614c3085856143c3565b925050602061483b85828601614c03565b6000610c496001600160a01b038316614c58565b90565b6001600160a01b031690565b6000610c4982614c41565b6000610c4982614c64565b613fd681614c6f565b60208101610c498284614c7a565b60ff8116613fd6565b60a08101614ca88288613fea565b614cb56020830187613fea565b614cc26040830186614c91565b614ccf6060830185613fea565b61188f6080830184613fea565b6000614ce98385846140b7565b50500190565b600061111b828486614cdc565b634e487b7160e01b600052602260045260246000fd5b600281046001821680614d2657607f821691505b602082108103614d3857614d38614cfc565b50919050565b6000611ae83684846144c2565b8051610c4981613ffe565b600060208284031215614d6b57614d6b600080fd5b600061111b8484614d4b565b60006147a68383614b56565b6000611ae860208401846143c3565b8183526000602084019350818060005b858110156147ec57614db48284614d83565b614dbe8882614d77565b975060208301925050600101614da2565b82818337505050565b81835260006020840193506001600160fb1b03831115614dfa57614dfa600080fd5b602083029250614ce9838584614dcf565b8183526000602084019350614e218385846140b7565b61426a83614023565b600061111b848484614e0b565b6000808335601e1936859003018112614e5257614e52600080fd5b8381016020810193503591506001600160401b03821115614e7557614e75600080fd5b36829003831315614e8857614e88600080fd5b509250929050565b818352600060208401935083602084028101838060005b8781101561468a578484038952614ebe8284614e37565b614ec9868284614e2a565b95506020840160209b909b019a93505050600101614ea7565b6000610c49614c558381565b613fd681614ee2565b60a08082528101614f09818a8c614d92565b90508181036020830152614f1e81888a614dd8565b90508181036040830152614f33818688614e90565b9050614f426060830185614eee565b610d006080830184613fea565b60c08082528101614f61818b8d614d92565b90508181036020830152614f7681898b614dd8565b90508181036040830152614f8b818789614e90565b9050614f9a6060830186614eee565b614fa76080830185613fea565b61305560a0830184613fea565b634e487b7160e01b600052601160045260246000fd5b80820180821115610c4957610c49614fb4565b60408101614feb8285613fea565b611ae86020830184613fea565b634e487b7160e01b600052603260045260246000fd5b6000600019820361502157615021614fb4565b5060010190565b81810381811115610c4957610c49614fb4565b6000610c4982614c55565b606081016150548286613fea565b6150616020830185613fea565b61111b6040830184614c91565b6000615078825190565b80845260209384019383018060005b838110156147ec57815161509b8882614d77565b975060208301925050600101615087565b60006150b6825190565b808452602084019350836020820285016150d08560200190565b8060005b8581101561468a57848403895281516150ed8582614625565b94506020830160209a909a01999250506001016150d4565b60808082528101615116818761506e565b9050818103602083015261512a81866147ae565b9050818103604083015261513e81856150ac565b90506115ed6060830184613fea565b6040810161515b8285614b56565b611ae86020830184614b56565b606081016151768286614c91565b6151836020830185613fea565b81810360408301526111188184614240565b608081016151a38287614c91565b6151b06020830186613fea565b81810360408301526151c28185614240565b9050818103606083015261188f8184614240565b6000816151e5576151e5614fb4565b506000190190565b8051610c4981614bfb565b60006020828403121561520d5761520d600080fd5b600061111b84846151ed565b634e487b7160e01b600052603160045260246000fd5b60408101614feb8285614b56565b600081600019048311821515161561525757615257614fb4565b500290565b634e487b7160e01b600052601260045260246000fd5b6000826152815761528161525c565b500490565b61190160f01b8152600201600061529d8285613fea565b6020820191506152ad8284613fea565b5060200192915050565b608081016152c58287613fea565b6152d26020830186614c91565b6152df6040830185613fea565b6115ed6060830184613fea565b601881526000602082017745434453413a20696e76616c6964207369676e617475726560401b815291505b5060200190565b60208082528101610c49816152ec565b601f81526000602082017f45434453413a20696e76616c6964207369676e6174757265206c656e6774680081529150615317565b60208082528101610c498161532e565b602281526000602082017f45434453413a20696e76616c6964207369676e6174757265202773272076616c815261756560f01b602082015291505b5060400190565b60208082528101610c4981615372565b602281526000602082017f45434453413a20696e76616c6964207369676e6174757265202776272076616c815261756560f01b602082015291506153ad565b60208082528101610c49816153c4565b60a08082528101615424818861506e565b9050818103602083015261543881876147ae565b9050818103604083015261544c81866150ac565b9050614ccf6060830185614eee565b60008261546a5761546a61525c565b500690565b602a81526000602082017f5361666545524332303a204552433230206f7065726174696f6e20646964206e8152691bdd081cdd58d8d9595960b21b602082015291506153ad565b60208082528101610c498161546f565b6001600160401b03918216919081169082820190811115610c4957610c49614fb4565b6154f283614ee2565b81546008840282811b60001990911b908116901990911617825550505050565b6000612e808184846154e9565b8181101561553a57615532600082615512565b60010161551f565b5050565b601f821115612e80576000818152602090206020601f850104810160208510156155655750805b6128226020601f86010483018261551f565b81516001600160401b038111156155905761559061402d565b61559a8254614d12565b6155a582828561553e565b6020601f8311600181146155d957600084156155c15750858201515b600019600886021c19811660028602178655506121f6565b600085815260208120601f198616915b8281101561560957888501518255602094850194600190920191016155e9565b868310156156255784890151600019601f89166008021c191682555b600160028802018855505050505050505050565b6000610c49614c556001600160401b03841681565b613fd681615639565b60c08082528101615668818961506e565b9050818103602083015261567c81886147ae565b905081810360408301526156908187614631565b905081810360608301526156a481866150ac565b90506156b3608083018561564e565b81810360a08301526156c58184614240565b98975050505050505050565b60a081016156df8288613fea565b6156ec6020830187613fea565b6156f96040830186613fea565b6157066060830185613fea565b61188f6080830184614b56565b602681526000602082017f53616665436173743a2076616c756520646f65736e27742066697420696e203681526534206269747360d01b602082015291506153ad565b60208082528101610c4981615713565b602681526000602082017f416464726573733a20696e73756666696369656e742062616c616e636520666f8152651c8818d85b1b60d21b602082015291506153ad565b60208082528101610c4981615766565b601d81526000602082017f416464726573733a2063616c6c20746f206e6f6e2d636f6e747261637400000081529150615317565b60208082528101610c49816157b9565b6000615807825190565b61581581856020860161421c565b9290920192915050565b6000611ae882846157fd56fea26469706673582212200851090506ae9bfa76e3f91f6595f04d72944cf795e48fcf69dc411e77f4785b64736f6c63430008100033",
  "immutableReferences": {
    "6640": [
      {
        "length": 32,
        "start": 13282
      }
    ],
    "6642": [
      {
        "length": 32,
        "start": 13240
      }
    ],
    "6644": [
      {
        "length": 32,
        "start": 13198
      }
    ],
    "6646": [
      {
        "length": 32,
        "start": 13354
      }
    ],
    "6648": [
      {
        "length": 32,
        "start": 13387
      }
    ],
    "6650": [
      {
        "length": 32,
        "start": 13321
      }
    ],
    "15628": [
      {
        "length": 32,
        "start": 3062
      },
      {
        "length": 32,
        "start": 12479
      },
      {
        "length": 32,
        "start": 12967
      }
    ]
  },
  "source": "// SPDX-License-Identifier: MIT\n// Copyright Fathom 2022\n\npragma solidity 0.8.16;\n\nimport \"./Governor.sol\";\nimport \"./interfaces/IRelay.sol\";\nimport \"./interfaces/ISupportingTokens.sol\";\nimport \"./interfaces/IEmergencyStop.sol\";\nimport \"./extensions/GovernorSettings.sol\";\nimport \"./extensions/GovernorCountingSimple.sol\";\nimport \"./extensions/GovernorVotes.sol\";\nimport \"./extensions/GovernorVotesQuorumFraction.sol\";\nimport \"./extensions/GovernorTimelockControl.sol\";\nimport \"../tokens/ERC20/IERC20.sol\";\nimport \"../../common/SafeERC20.sol\";\n\ncontract MainTokenGovernor is\n    IRelay,\n    ISupportingTokens,\n    IEmergencyStop,\n    Governor,\n    GovernorSettings,\n    GovernorCountingSimple,\n    GovernorVotes,\n    GovernorVotesQuorumFraction,\n    GovernorTimelockControl\n{\n    using SafeERC20 for IERC20;\n    mapping(address => bool) public isSupportedToken;\n    address[] public listOfSupportedTokens;\n\n    error TokenSupported();\n    error TokenUnsupported();\n\n    constructor(\n        IVotes _token,\n        TimelockController _timelock,\n        address _multiSig,\n        uint256 _initialVotingDelay,\n        uint256 _votingPeriod,\n        uint256 _initialProposalThreshold,\n        uint256 _proposalTimeDelay,\n        uint256 _proposalLifetime\n    )\n        Governor(\"MainTokenGovernor\", _multiSig, 20, _proposalTimeDelay, _proposalLifetime)\n        GovernorSettings(_initialVotingDelay, _votingPeriod, _initialProposalThreshold)\n        GovernorVotes(_token)\n        GovernorVotesQuorumFraction(4)\n        GovernorTimelockControl(_timelock)\n    {}\n\n    /**\n     * @dev Relays a transaction or function call to an arbitrary target. In cases where the governance executor\n     * is some contract other than the governor itself, like when using a timelock, this function can be invoked\n     * in a governance proposal to recover tokens that was sent to the governor contract by mistake.\n     * Note that if the executor is simply the governor itself, use of `relay` is redundant.\n     */\n    function relayERC20(address target, bytes calldata data) external virtual override onlyGovernance {\n        if (!isSupportedToken[target]) {\n            revert TokenUnsupported();\n        }\n        (bool success, bytes memory returndata) = target.call(data);\n        Address.verifyCallResult(success, returndata, \"empty revert\");\n    }\n\n    /**\n     * @dev Relays a transaction or function call to an arbitrary target. In cases where the governance executor\n     * is some contract other than the governor itself, like when using a timelock, this function can be invoked\n     * in a governance proposal to recover Ether that was sent to the governor contract by mistake.\n     * Note that if the executor is simply the governor itself, use of `relay` is redundant.\n     */\n    function relayNativeToken(address target, uint256 value, bytes calldata data) external payable virtual override onlyGovernance {\n        if (isSupportedToken[target]) {\n            revert TokenSupported();\n        }\n        (bool success, bytes memory returndata) = target.call{ value: value }(data);\n        Address.verifyCallResult(success, returndata, \"empty revert\");\n    }\n\n    function propose(\n        address[] memory targets,\n        uint256[] memory values,\n        bytes[] memory calldatas,\n        string memory description\n    ) public override(Governor, IGovernor) returns (uint256) {\n        return super.propose(targets, values, calldatas, description);\n    }\n\n    /**\n     * @dev Cancelling of proposal can be done only through Multisig\n     */\n    function cancelProposal(\n        address[] memory targets,\n        uint256[] memory values,\n        bytes[] memory calldatas,\n        bytes32 descriptionHash\n    ) public override onlyMultiSig returns (uint256) {\n        return _cancel(targets, values, calldatas, descriptionHash);\n    }\n\n    /**\n     * @dev A multisig can stop this contract. Once stopped we will have to migrate.\n     *     Once this function is called, the contract cannot be made live again.\n     */\n    function emergencyStop() public override onlyMultiSig {\n        _emergencyStop();\n        for (uint256 i = 0; i < listOfSupportedTokens.length; i++) {\n            address _token = listOfSupportedTokens[i];\n            uint256 balanceInContract = IERC20(_token).balanceOf(address(this));\n            if (balanceInContract > 0) {\n                IERC20(_token).safeTransfer(msg.sender, balanceInContract);\n            }\n        }\n        if (address(this).balance > 0) {\n            (bool sent, ) = msg.sender.call{ value: (address(this).balance) }(\"\");\n            if (!sent) {\n                revert FailedToSendEther();\n            }\n        }\n    }\n\n    /**\n     * @dev Adds supporting tokens so that if there are tokens then it can be transferred\n     *     Only Governance is able to access this function.\n     *     It has to go through proposal and successful voting for execution.\n     */\n    function addSupportingToken(address _token) public override onlyGovernance {\n        _addSupportedToken(_token);\n    }\n\n    /**\n     * @dev Removes supporting tokens\n     *      Only Governance is able to access this function.\n     *      It has to go through proposal and successful voting for execution.\n     */\n    function removeSupportingToken(address _token) public override onlyGovernance {\n        _removeSupportingToken(_token);\n    }\n\n    function proposalThreshold() public view override(Governor, GovernorSettings) returns (uint256) {\n        return super.proposalThreshold();\n    }\n\n    function supportsInterface(bytes4 interfaceId) public view override(Governor, GovernorTimelockControl) returns (bool) {\n        return super.supportsInterface(interfaceId);\n    }\n\n    function votingDelay() public view override(IGovernor, GovernorSettings) returns (uint256) {\n        return super.votingDelay();\n    }\n\n    function votingPeriod() public view override(IGovernor, GovernorSettings) returns (uint256) {\n        return super.votingPeriod();\n    }\n\n    function quorum(uint256 blockNumber) public view override(IGovernor, GovernorVotesQuorumFraction) returns (uint256) {\n        return super.quorum(blockNumber);\n    }\n\n    function state(uint256 proposalId) public view override(Governor, GovernorTimelockControl) returns (ProposalState) {\n        return super.state(proposalId);\n    }\n\n    function _addSupportedToken(address _token) internal {\n        if (isSupportedToken[_token]) {\n            revert TokenSupported();\n        }\n        isSupportedToken[_token] = true;\n        listOfSupportedTokens.push(_token);\n    }\n\n    function _removeSupportingToken(address _token) internal {\n        if (!isSupportedToken[_token]) {\n            revert TokenUnsupported();\n        }\n        isSupportedToken[_token] = false;\n        for (uint256 i = 0; i < listOfSupportedTokens.length; i++) {\n            if (listOfSupportedTokens[i] == _token) {\n                listOfSupportedTokens[i] = listOfSupportedTokens[listOfSupportedTokens.length - 1];\n                break;\n            }\n        }\n        listOfSupportedTokens.pop();\n    }\n\n    function _execute(\n        uint256 proposalId,\n        address[] memory targets,\n        uint256[] memory values,\n        bytes[] memory calldatas,\n        bytes32 descriptionHash\n    ) internal override(Governor, GovernorTimelockControl) {\n        if (!isConfirmed[proposalId]) {\n            revert ProposalNotConfirmed();\n        }\n        super._execute(proposalId, targets, values, calldatas, descriptionHash);\n    }\n\n    function _cancel(\n        address[] memory targets,\n        uint256[] memory values,\n        bytes[] memory calldatas,\n        bytes32 descriptionHash\n    ) internal override(Governor, GovernorTimelockControl) returns (uint256) {\n        return super._cancel(targets, values, calldatas, descriptionHash);\n    }\n\n    function _executor() internal view override(Governor, GovernorTimelockControl) returns (address) {\n        return super._executor();\n    }\n}\n",
  "sourcePath": "/Users/antongrigorev/Developer/fathom-dao-smart-contracts/contracts/dao/governance/MainTokenGovernor.sol",
  "compiler": {
    "name": "solc",
    "version": "0.8.16+commit.07a7930e.Darwin.appleclang"
  },
  "schemaVersion": "3.4.13",
  "updatedAt": "2023-04-29T06:38:40.694Z",
  "devdoc": {
    "errors": {
      "Empty()": [
        {
          "details": "An operation (e.g. {front}) couldn't be completed due to the queue being empty."
        }
      ]
    },
    "kind": "dev",
    "methods": {
      "addSupportingToken(address)": {
        "details": "Adds supporting tokens so that if there are tokens then it can be transferred     Only Governance is able to access this function.     It has to go through proposal and successful voting for execution."
      },
      "cancelProposal(address[],uint256[],bytes[],bytes32)": {
        "details": "Cancelling of proposal can be done only through Multisig"
      },
      "confirmProposal(uint256)": {
        "details": "Only Multisig is able to confirm a proposal"
      },
      "emergencyStop()": {
        "details": "A multisig can stop this contract. Once stopped we will have to migrate.     Once this function is called, the contract cannot be made live again."
      },
      "hashProposal(address[],uint256[],bytes[],bytes32)": {
        "details": "A description of the possible `support` values for {castVote} and the way these votes are counted, meant to be consumed by UIs to show correct vote options and interpret the results. The string is a URL-encoded sequence of key-value pairs that each describe one aspect, for example `support=bravo&quorum=for,abstain`. There are 2 standard keys: `support` and `quorum`. - `support=bravo` refers to the vote options 0 = Against, 1 = For, 2 = Abstain, as in `GovernorBravo`. - `quorum=bravo` means that only For votes are counted towards quorum. - `quorum=for,abstain` means that both For and Abstain votes are counted towards quorum. If a counting module makes use of encoded `params`, it should  include this under a `params` key with a unique name that describes the behavior. For example: - `params=fractional` might refer to a scheme where votes are divided fractionally between for/against/abstain. - `params=erc721` might refer to a scheme where specific NFTs are delegated to vote. NOTE: The string can be decoded by the standard https://developer.mozilla.org/en-US/docs/Web/API/URLSearchParams[`URLSearchParams`] JavaScript class."
      },
      "relayERC20(address,bytes)": {
        "details": "Relays a transaction or function call to an arbitrary target. In cases where the governance executor is some contract other than the governor itself, like when using a timelock, this function can be invoked in a governance proposal to recover tokens that was sent to the governor contract by mistake. Note that if the executor is simply the governor itself, use of `relay` is redundant."
      },
      "relayNativeToken(address,uint256,bytes)": {
        "details": "Relays a transaction or function call to an arbitrary target. In cases where the governance executor is some contract other than the governor itself, like when using a timelock, this function can be invoked in a governance proposal to recover Ether that was sent to the governor contract by mistake. Note that if the executor is simply the governor itself, use of `relay` is redundant."
      },
      "removeSupportingToken(address)": {
        "details": "Removes supporting tokens      Only Governance is able to access this function.      It has to go through proposal and successful voting for execution."
      },
      "revokeConfirmation(uint256)": {
        "details": "Only Multisig is able to revoke a proposal confirmation"
      },
      "setBlocklistStatusForProposer(address,bool)": {
        "details": "Only Multisig can blocklist a an account or unblocklist an account"
      },
      "setProposalThreshold(uint256)": {
        "details": "Has to go through proposals and successful voting to update by Governance"
      },
      "setVotingDelay(uint256)": {
        "details": "Has to go through proposals and successful voting to update by Governance"
      },
      "setVotingPeriod(uint256)": {
        "details": "Has to go through proposals and successful voting to update by Governance"
      },
      "updateMaxTargets(uint256)": {
        "details": "Only Multisig can update"
      },
      "updateMultiSig(address)": {
        "details": "Only Multisig can update"
      },
      "updateProposalLifetime(uint256)": {
        "details": "Only Multisig can update"
      },
      "updateProposalTimeDelay(uint256)": {
        "details": "Only Multisig can update"
      },
      "updateQuorumNumerator(uint256)": {
        "details": "Changes the quorum numerator. Emits a {QuorumNumeratorUpdated} event. Requirements: - Must be called through a governance proposal. - New numerator must be smaller or equal to the denominator."
      }
    },
    "version": 1
  },
  "userdoc": {
    "kind": "user",
    "methods": {
      "queue(address[],uint256[],bytes[],bytes32)": {
        "notice": "The proposal must be confirmed by multisig before it can be queued"
      }
    },
    "version": 1
  }
}