{
  "contractName": "MainTokenGovernor",
  "abi": [
    {
      "inputs": [
        {
          "internalType": "contract IVotes",
          "name": "_token",
          "type": "address"
        },
        {
          "internalType": "contract TimelockController",
          "name": "_timelock",
          "type": "address"
        },
        {
          "internalType": "address",
          "name": "_multiSig",
          "type": "address"
        },
        {
          "internalType": "uint256",
          "name": "_initialVotingDelay",
          "type": "uint256"
        },
        {
          "internalType": "uint256",
          "name": "_votingPeriod",
          "type": "uint256"
        },
        {
          "internalType": "uint256",
          "name": "_initialProposalThreshold",
          "type": "uint256"
        },
        {
          "internalType": "uint256",
          "name": "_proposalTimeDelay",
          "type": "uint256"
        },
        {
          "internalType": "uint256",
          "name": "_proposalLifetime",
          "type": "uint256"
        }
      ],
      "stateMutability": "nonpayable",
      "type": "constructor"
    },
    {
      "inputs": [],
      "name": "Empty",
      "type": "error"
    },
    {
      "anonymous": false,
      "inputs": [
        {
          "indexed": true,
          "internalType": "address",
          "name": "signer",
          "type": "address"
        },
        {
          "indexed": true,
          "internalType": "uint256",
          "name": "proposalId",
          "type": "uint256"
        }
      ],
      "name": "ConfirmProposal",
      "type": "event"
    },
    {
      "anonymous": false,
      "inputs": [],
      "name": "EmergencyStop",
      "type": "event"
    },
    {
      "anonymous": false,
      "inputs": [
        {
          "indexed": true,
          "internalType": "address",
          "name": "signer",
          "type": "address"
        },
        {
          "indexed": true,
          "internalType": "uint256",
          "name": "proposalId",
          "type": "uint256"
        }
      ],
      "name": "ExecuteProposal",
      "type": "event"
    },
    {
      "anonymous": false,
      "inputs": [
        {
          "indexed": true,
          "internalType": "address",
          "name": "owner",
          "type": "address"
        },
        {
          "indexed": true,
          "internalType": "bool",
          "name": "success",
          "type": "bool"
        },
        {
          "indexed": false,
          "internalType": "bytes",
          "name": "data",
          "type": "bytes"
        }
      ],
      "name": "ExecuteTransaction",
      "type": "event"
    },
    {
      "anonymous": false,
      "inputs": [
        {
          "indexed": false,
          "internalType": "uint256",
          "name": "newMaxTargets",
          "type": "uint256"
        },
        {
          "indexed": false,
          "internalType": "uint256",
          "name": "oldMaxTargets",
          "type": "uint256"
        }
      ],
      "name": "MaxTargetUpdated",
      "type": "event"
    },
    {
      "anonymous": false,
      "inputs": [
        {
          "indexed": false,
          "internalType": "address",
          "name": "newMultiSig",
          "type": "address"
        },
        {
          "indexed": false,
          "internalType": "address",
          "name": "oldMultiSig",
          "type": "address"
        }
      ],
      "name": "MultiSigUpdated",
      "type": "event"
    },
    {
      "anonymous": false,
      "inputs": [
        {
          "indexed": true,
          "internalType": "uint256",
          "name": "proposalId",
          "type": "uint256"
        }
      ],
      "name": "ProposalCanceled",
      "type": "event"
    },
    {
      "anonymous": false,
      "inputs": [
        {
          "indexed": true,
          "internalType": "uint256",
          "name": "proposalId",
          "type": "uint256"
        },
        {
          "indexed": true,
          "internalType": "address",
          "name": "proposer",
          "type": "address"
        },
        {
          "indexed": false,
          "internalType": "address[]",
          "name": "targets",
          "type": "address[]"
        },
        {
          "indexed": false,
          "internalType": "uint256[]",
          "name": "values",
          "type": "uint256[]"
        },
        {
          "indexed": false,
          "internalType": "string[]",
          "name": "signatures",
          "type": "string[]"
        },
        {
          "indexed": false,
          "internalType": "bytes[]",
          "name": "calldatas",
          "type": "bytes[]"
        },
        {
          "indexed": false,
          "internalType": "uint256",
          "name": "startBlock",
          "type": "uint256"
        },
        {
          "indexed": true,
          "internalType": "uint256",
          "name": "endBlock",
          "type": "uint256"
        },
        {
          "indexed": false,
          "internalType": "string",
          "name": "description",
          "type": "string"
        }
      ],
      "name": "ProposalCreated",
      "type": "event"
    },
    {
      "anonymous": false,
      "inputs": [
        {
          "indexed": true,
          "internalType": "uint256",
          "name": "proposalId",
          "type": "uint256"
        }
      ],
      "name": "ProposalExecuted",
      "type": "event"
    },
    {
      "anonymous": false,
      "inputs": [
        {
          "indexed": false,
          "internalType": "uint256",
          "name": "newProposalLifetime",
          "type": "uint256"
        },
        {
          "indexed": false,
          "internalType": "uint256",
          "name": "oldProposalLifetime",
          "type": "uint256"
        }
      ],
      "name": "ProposalLifetimeUpdated",
      "type": "event"
    },
    {
      "anonymous": false,
      "inputs": [
        {
          "indexed": false,
          "internalType": "uint256",
          "name": "proposalId",
          "type": "uint256"
        },
        {
          "indexed": false,
          "internalType": "uint256",
          "name": "eta",
          "type": "uint256"
        }
      ],
      "name": "ProposalQueued",
      "type": "event"
    },
    {
      "anonymous": false,
      "inputs": [
        {
          "indexed": false,
          "internalType": "uint256",
          "name": "oldProposalThreshold",
          "type": "uint256"
        },
        {
          "indexed": false,
          "internalType": "uint256",
          "name": "newProposalThreshold",
          "type": "uint256"
        }
      ],
      "name": "ProposalThresholdSet",
      "type": "event"
    },
    {
      "anonymous": false,
      "inputs": [
        {
          "indexed": false,
          "internalType": "uint256",
          "name": "newProposalTimeDelay",
          "type": "uint256"
        },
        {
          "indexed": false,
          "internalType": "uint256",
          "name": "oldProposalTimeDelay",
          "type": "uint256"
        }
      ],
      "name": "ProposalTimeDelayUpdated",
      "type": "event"
    },
    {
      "anonymous": false,
      "inputs": [
        {
          "indexed": false,
          "internalType": "uint256",
          "name": "oldQuorumNumerator",
          "type": "uint256"
        },
        {
          "indexed": false,
          "internalType": "uint256",
          "name": "newQuorumNumerator",
          "type": "uint256"
        }
      ],
      "name": "QuorumNumeratorUpdated",
      "type": "event"
    },
    {
      "anonymous": false,
      "inputs": [
        {
          "indexed": true,
          "internalType": "address",
          "name": "signer",
          "type": "address"
        },
        {
          "indexed": true,
          "internalType": "uint256",
          "name": "proposalId",
          "type": "uint256"
        }
      ],
      "name": "RevokeConfirmation",
      "type": "event"
    },
    {
      "anonymous": false,
      "inputs": [
        {
          "indexed": false,
          "internalType": "address",
          "name": "oldTimelock",
          "type": "address"
        },
        {
          "indexed": false,
          "internalType": "address",
          "name": "newTimelock",
          "type": "address"
        }
      ],
      "name": "TimelockChange",
      "type": "event"
    },
    {
      "anonymous": false,
      "inputs": [
        {
          "indexed": true,
          "internalType": "address",
          "name": "voter",
          "type": "address"
        },
        {
          "indexed": true,
          "internalType": "uint256",
          "name": "proposalId",
          "type": "uint256"
        },
        {
          "indexed": false,
          "internalType": "uint8",
          "name": "support",
          "type": "uint8"
        },
        {
          "indexed": false,
          "internalType": "uint256",
          "name": "weight",
          "type": "uint256"
        },
        {
          "indexed": false,
          "internalType": "string",
          "name": "reason",
          "type": "string"
        }
      ],
      "name": "VoteCast",
      "type": "event"
    },
    {
      "anonymous": false,
      "inputs": [
        {
          "indexed": true,
          "internalType": "address",
          "name": "voter",
          "type": "address"
        },
        {
          "indexed": true,
          "internalType": "uint256",
          "name": "proposalId",
          "type": "uint256"
        },
        {
          "indexed": false,
          "internalType": "uint8",
          "name": "support",
          "type": "uint8"
        },
        {
          "indexed": false,
          "internalType": "uint256",
          "name": "weight",
          "type": "uint256"
        },
        {
          "indexed": false,
          "internalType": "string",
          "name": "reason",
          "type": "string"
        },
        {
          "indexed": false,
          "internalType": "bytes",
          "name": "params",
          "type": "bytes"
        }
      ],
      "name": "VoteCastWithParams",
      "type": "event"
    },
    {
      "anonymous": false,
      "inputs": [
        {
          "indexed": false,
          "internalType": "uint256",
          "name": "oldVotingDelay",
          "type": "uint256"
        },
        {
          "indexed": false,
          "internalType": "uint256",
          "name": "newVotingDelay",
          "type": "uint256"
        }
      ],
      "name": "VotingDelaySet",
      "type": "event"
    },
    {
      "anonymous": false,
      "inputs": [
        {
          "indexed": false,
          "internalType": "uint256",
          "name": "oldVotingPeriod",
          "type": "uint256"
        },
        {
          "indexed": false,
          "internalType": "uint256",
          "name": "newVotingPeriod",
          "type": "uint256"
        }
      ],
      "name": "VotingPeriodSet",
      "type": "event"
    },
    {
      "inputs": [],
      "name": "BALLOT_TYPEHASH",
      "outputs": [
        {
          "internalType": "bytes32",
          "name": "",
          "type": "bytes32"
        }
      ],
      "stateMutability": "view",
      "type": "function"
    },
    {
      "inputs": [],
      "name": "EXTENDED_BALLOT_TYPEHASH",
      "outputs": [
        {
          "internalType": "bytes32",
          "name": "",
          "type": "bytes32"
        }
      ],
      "stateMutability": "view",
      "type": "function"
    },
    {
      "inputs": [],
      "name": "MINIMUM_LIFETIME",
      "outputs": [
        {
          "internalType": "uint256",
          "name": "",
          "type": "uint256"
        }
      ],
      "stateMutability": "view",
      "type": "function"
    },
    {
      "inputs": [],
      "name": "MINIMUM_QUORUM_NUMERATOR",
      "outputs": [
        {
          "internalType": "uint256",
          "name": "",
          "type": "uint256"
        }
      ],
      "stateMutability": "view",
      "type": "function"
    },
    {
      "inputs": [
        {
          "internalType": "uint256",
          "name": "proposalId",
          "type": "uint256"
        },
        {
          "internalType": "uint8",
          "name": "support",
          "type": "uint8"
        }
      ],
      "name": "castVote",
      "outputs": [
        {
          "internalType": "uint256",
          "name": "",
          "type": "uint256"
        }
      ],
      "stateMutability": "nonpayable",
      "type": "function"
    },
    {
      "inputs": [
        {
          "internalType": "uint256",
          "name": "proposalId",
          "type": "uint256"
        },
        {
          "internalType": "uint8",
          "name": "support",
          "type": "uint8"
        },
        {
          "internalType": "uint8",
          "name": "v",
          "type": "uint8"
        },
        {
          "internalType": "bytes32",
          "name": "r",
          "type": "bytes32"
        },
        {
          "internalType": "bytes32",
          "name": "s",
          "type": "bytes32"
        }
      ],
      "name": "castVoteBySig",
      "outputs": [
        {
          "internalType": "uint256",
          "name": "",
          "type": "uint256"
        }
      ],
      "stateMutability": "nonpayable",
      "type": "function"
    },
    {
      "inputs": [
        {
          "internalType": "uint256",
          "name": "proposalId",
          "type": "uint256"
        },
        {
          "internalType": "uint8",
          "name": "support",
          "type": "uint8"
        },
        {
          "internalType": "string",
          "name": "reason",
          "type": "string"
        }
      ],
      "name": "castVoteWithReason",
      "outputs": [
        {
          "internalType": "uint256",
          "name": "",
          "type": "uint256"
        }
      ],
      "stateMutability": "nonpayable",
      "type": "function"
    },
    {
      "inputs": [
        {
          "internalType": "uint256",
          "name": "proposalId",
          "type": "uint256"
        },
        {
          "internalType": "uint8",
          "name": "support",
          "type": "uint8"
        },
        {
          "internalType": "string",
          "name": "reason",
          "type": "string"
        },
        {
          "internalType": "bytes",
          "name": "params",
          "type": "bytes"
        }
      ],
      "name": "castVoteWithReasonAndParams",
      "outputs": [
        {
          "internalType": "uint256",
          "name": "",
          "type": "uint256"
        }
      ],
      "stateMutability": "nonpayable",
      "type": "function"
    },
    {
      "inputs": [
        {
          "internalType": "uint256",
          "name": "proposalId",
          "type": "uint256"
        },
        {
          "internalType": "uint8",
          "name": "support",
          "type": "uint8"
        },
        {
          "internalType": "string",
          "name": "reason",
          "type": "string"
        },
        {
          "internalType": "bytes",
          "name": "params",
          "type": "bytes"
        },
        {
          "internalType": "uint8",
          "name": "v",
          "type": "uint8"
        },
        {
          "internalType": "bytes32",
          "name": "r",
          "type": "bytes32"
        },
        {
          "internalType": "bytes32",
          "name": "s",
          "type": "bytes32"
        }
      ],
      "name": "castVoteWithReasonAndParamsBySig",
      "outputs": [
        {
          "internalType": "uint256",
          "name": "",
          "type": "uint256"
        }
      ],
      "stateMutability": "nonpayable",
      "type": "function"
    },
    {
      "inputs": [
        {
          "internalType": "uint256",
          "name": "_proposalId",
          "type": "uint256"
        }
      ],
      "name": "confirmProposal",
      "outputs": [],
      "stateMutability": "nonpayable",
      "type": "function"
    },
    {
      "inputs": [
        {
          "internalType": "address[]",
          "name": "targets",
          "type": "address[]"
        },
        {
          "internalType": "uint256[]",
          "name": "values",
          "type": "uint256[]"
        },
        {
          "internalType": "bytes[]",
          "name": "calldatas",
          "type": "bytes[]"
        },
        {
          "internalType": "bytes32",
          "name": "descriptionHash",
          "type": "bytes32"
        }
      ],
      "name": "execute",
      "outputs": [
        {
          "internalType": "uint256",
          "name": "",
          "type": "uint256"
        }
      ],
      "stateMutability": "payable",
      "type": "function"
    },
    {
      "inputs": [
        {
          "internalType": "uint256",
          "name": "_proposalId",
          "type": "uint256"
        }
      ],
      "name": "getDescription",
      "outputs": [
        {
          "internalType": "string",
          "name": "",
          "type": "string"
        }
      ],
      "stateMutability": "view",
      "type": "function"
    },
    {
      "inputs": [],
      "name": "getProposalIds",
      "outputs": [
        {
          "internalType": "uint256[]",
          "name": "",
          "type": "uint256[]"
        }
      ],
      "stateMutability": "view",
      "type": "function"
    },
    {
      "inputs": [
        {
          "internalType": "uint256",
          "name": "_numIndexes",
          "type": "uint256"
        }
      ],
      "name": "getProposals",
      "outputs": [
        {
          "internalType": "string[]",
          "name": "",
          "type": "string[]"
        },
        {
          "internalType": "string[]",
          "name": "",
          "type": "string[]"
        },
        {
          "internalType": "string[]",
          "name": "",
          "type": "string[]"
        }
      ],
      "stateMutability": "view",
      "type": "function"
    },
    {
      "inputs": [
        {
          "internalType": "address",
          "name": "account",
          "type": "address"
        },
        {
          "internalType": "uint256",
          "name": "blockNumber",
          "type": "uint256"
        }
      ],
      "name": "getVotes",
      "outputs": [
        {
          "internalType": "uint256",
          "name": "",
          "type": "uint256"
        }
      ],
      "stateMutability": "view",
      "type": "function"
    },
    {
      "inputs": [
        {
          "internalType": "address",
          "name": "account",
          "type": "address"
        },
        {
          "internalType": "uint256",
          "name": "blockNumber",
          "type": "uint256"
        },
        {
          "internalType": "bytes",
          "name": "params",
          "type": "bytes"
        }
      ],
      "name": "getVotesWithParams",
      "outputs": [
        {
          "internalType": "uint256",
          "name": "",
          "type": "uint256"
        }
      ],
      "stateMutability": "view",
      "type": "function"
    },
    {
      "inputs": [
        {
          "internalType": "uint256",
          "name": "proposalId",
          "type": "uint256"
        },
        {
          "internalType": "address",
          "name": "account",
          "type": "address"
        }
      ],
      "name": "hasVoted",
      "outputs": [
        {
          "internalType": "bool",
          "name": "",
          "type": "bool"
        }
      ],
      "stateMutability": "view",
      "type": "function"
    },
    {
      "inputs": [
        {
          "internalType": "address[]",
          "name": "targets",
          "type": "address[]"
        },
        {
          "internalType": "uint256[]",
          "name": "values",
          "type": "uint256[]"
        },
        {
          "internalType": "bytes[]",
          "name": "calldatas",
          "type": "bytes[]"
        },
        {
          "internalType": "bytes32",
          "name": "descriptionHash",
          "type": "bytes32"
        }
      ],
      "name": "hashProposal",
      "outputs": [
        {
          "internalType": "uint256",
          "name": "",
          "type": "uint256"
        }
      ],
      "stateMutability": "pure",
      "type": "function"
    },
    {
      "inputs": [
        {
          "internalType": "uint256",
          "name": "",
          "type": "uint256"
        }
      ],
      "name": "isConfirmed",
      "outputs": [
        {
          "internalType": "bool",
          "name": "",
          "type": "bool"
        }
      ],
      "stateMutability": "view",
      "type": "function"
    },
    {
      "inputs": [
        {
          "internalType": "address",
          "name": "",
          "type": "address"
        }
      ],
      "name": "isSupportedToken",
      "outputs": [
        {
          "internalType": "bool",
          "name": "",
          "type": "bool"
        }
      ],
      "stateMutability": "view",
      "type": "function"
    },
    {
      "inputs": [
        {
          "internalType": "uint256",
          "name": "",
          "type": "uint256"
        }
      ],
      "name": "listOfSupportedTokens",
      "outputs": [
        {
          "internalType": "address",
          "name": "",
          "type": "address"
        }
      ],
      "stateMutability": "view",
      "type": "function"
    },
    {
      "inputs": [],
      "name": "live",
      "outputs": [
        {
          "internalType": "uint256",
          "name": "",
          "type": "uint256"
        }
      ],
      "stateMutability": "view",
      "type": "function"
    },
    {
      "inputs": [],
      "name": "maxTargets",
      "outputs": [
        {
          "internalType": "uint256",
          "name": "",
          "type": "uint256"
        }
      ],
      "stateMutability": "view",
      "type": "function"
    },
    {
      "inputs": [],
      "name": "name",
      "outputs": [
        {
          "internalType": "string",
          "name": "",
          "type": "string"
        }
      ],
      "stateMutability": "view",
      "type": "function"
    },
    {
      "inputs": [
        {
          "internalType": "address",
          "name": "",
          "type": "address"
        }
      ],
      "name": "nextAcceptableProposalTimestamp",
      "outputs": [
        {
          "internalType": "uint256",
          "name": "",
          "type": "uint256"
        }
      ],
      "stateMutability": "view",
      "type": "function"
    },
    {
      "inputs": [
        {
          "internalType": "uint256",
          "name": "proposalId",
          "type": "uint256"
        }
      ],
      "name": "proposalDeadline",
      "outputs": [
        {
          "internalType": "uint256",
          "name": "",
          "type": "uint256"
        }
      ],
      "stateMutability": "view",
      "type": "function"
    },
    {
      "inputs": [
        {
          "internalType": "uint256",
          "name": "proposalId",
          "type": "uint256"
        }
      ],
      "name": "proposalEta",
      "outputs": [
        {
          "internalType": "uint256",
          "name": "",
          "type": "uint256"
        }
      ],
      "stateMutability": "view",
      "type": "function"
    },
    {
      "inputs": [],
      "name": "proposalLifetime",
      "outputs": [
        {
          "internalType": "uint256",
          "name": "",
          "type": "uint256"
        }
      ],
      "stateMutability": "view",
      "type": "function"
    },
    {
      "inputs": [
        {
          "internalType": "uint256",
          "name": "proposalId",
          "type": "uint256"
        }
      ],
      "name": "proposalSnapshot",
      "outputs": [
        {
          "internalType": "uint256",
          "name": "",
          "type": "uint256"
        }
      ],
      "stateMutability": "view",
      "type": "function"
    },
    {
      "inputs": [],
      "name": "proposalTimeDelay",
      "outputs": [
        {
          "internalType": "uint256",
          "name": "",
          "type": "uint256"
        }
      ],
      "stateMutability": "view",
      "type": "function"
    },
    {
      "inputs": [
        {
          "internalType": "uint256",
          "name": "proposalId",
          "type": "uint256"
        }
      ],
      "name": "proposalVotes",
      "outputs": [
        {
          "internalType": "uint256",
          "name": "againstVotes",
          "type": "uint256"
        },
        {
          "internalType": "uint256",
          "name": "forVotes",
          "type": "uint256"
        },
        {
          "internalType": "uint256",
          "name": "abstainVotes",
          "type": "uint256"
        }
      ],
      "stateMutability": "view",
      "type": "function"
    },
    {
      "inputs": [
        {
          "internalType": "address[]",
          "name": "targets",
          "type": "address[]"
        },
        {
          "internalType": "uint256[]",
          "name": "values",
          "type": "uint256[]"
        },
        {
          "internalType": "bytes[]",
          "name": "calldatas",
          "type": "bytes[]"
        },
        {
          "internalType": "bytes32",
          "name": "descriptionHash",
          "type": "bytes32"
        }
      ],
      "name": "queue",
      "outputs": [
        {
          "internalType": "uint256",
          "name": "",
          "type": "uint256"
        }
      ],
      "stateMutability": "nonpayable",
      "type": "function"
    },
    {
      "inputs": [],
      "name": "quorumDenominator",
      "outputs": [
        {
          "internalType": "uint256",
          "name": "",
          "type": "uint256"
        }
      ],
      "stateMutability": "view",
      "type": "function"
    },
    {
      "inputs": [],
      "name": "quorumNumerator",
      "outputs": [
        {
          "internalType": "uint256",
          "name": "",
          "type": "uint256"
        }
      ],
      "stateMutability": "view",
      "type": "function"
    },
    {
      "inputs": [
        {
          "internalType": "uint256",
          "name": "_proposalId",
          "type": "uint256"
        }
      ],
      "name": "revokeConfirmation",
      "outputs": [],
      "stateMutability": "nonpayable",
      "type": "function"
    },
    {
      "inputs": [
        {
          "internalType": "address",
          "name": "account",
          "type": "address"
        },
        {
          "internalType": "bool",
          "name": "blacklistStatus",
          "type": "bool"
        }
      ],
      "name": "setBlacklistStatusForProposer",
      "outputs": [],
      "stateMutability": "nonpayable",
      "type": "function"
    },
    {
      "inputs": [
        {
          "internalType": "uint256",
          "name": "newProposalThreshold",
          "type": "uint256"
        }
      ],
      "name": "setProposalThreshold",
      "outputs": [],
      "stateMutability": "nonpayable",
      "type": "function"
    },
    {
      "inputs": [
        {
          "internalType": "uint256",
          "name": "newVotingDelay",
          "type": "uint256"
        }
      ],
      "name": "setVotingDelay",
      "outputs": [],
      "stateMutability": "nonpayable",
      "type": "function"
    },
    {
      "inputs": [
        {
          "internalType": "uint256",
          "name": "newVotingPeriod",
          "type": "uint256"
        }
      ],
      "name": "setVotingPeriod",
      "outputs": [],
      "stateMutability": "nonpayable",
      "type": "function"
    },
    {
      "inputs": [],
      "name": "timelock",
      "outputs": [
        {
          "internalType": "address",
          "name": "",
          "type": "address"
        }
      ],
      "stateMutability": "view",
      "type": "function"
    },
    {
      "inputs": [],
      "name": "token",
      "outputs": [
        {
          "internalType": "contract IVotes",
          "name": "",
          "type": "address"
        }
      ],
      "stateMutability": "view",
      "type": "function"
    },
    {
      "inputs": [
        {
          "internalType": "uint256",
          "name": "newMaxTargets",
          "type": "uint256"
        }
      ],
      "name": "updateMaxTargets",
      "outputs": [],
      "stateMutability": "nonpayable",
      "type": "function"
    },
    {
      "inputs": [
        {
          "internalType": "address",
          "name": "newMultiSig",
          "type": "address"
        }
      ],
      "name": "updateMultiSig",
      "outputs": [],
      "stateMutability": "nonpayable",
      "type": "function"
    },
    {
      "inputs": [
        {
          "internalType": "uint256",
          "name": "newProposalLifetime",
          "type": "uint256"
        }
      ],
      "name": "updateProposalLifetime",
      "outputs": [],
      "stateMutability": "nonpayable",
      "type": "function"
    },
    {
      "inputs": [
        {
          "internalType": "uint256",
          "name": "newProposalTimeDelay",
          "type": "uint256"
        }
      ],
      "name": "updateProposalTimeDelay",
      "outputs": [],
      "stateMutability": "nonpayable",
      "type": "function"
    },
    {
      "inputs": [
        {
          "internalType": "uint256",
          "name": "newQuorumNumerator",
          "type": "uint256"
        }
      ],
      "name": "updateQuorumNumerator",
      "outputs": [],
      "stateMutability": "nonpayable",
      "type": "function"
    },
    {
      "inputs": [
        {
          "internalType": "contract TimelockController",
          "name": "newTimelock",
          "type": "address"
        }
      ],
      "name": "updateTimelock",
      "outputs": [],
      "stateMutability": "nonpayable",
      "type": "function"
    },
    {
      "inputs": [],
      "name": "version",
      "outputs": [
        {
          "internalType": "string",
          "name": "",
          "type": "string"
        }
      ],
      "stateMutability": "view",
      "type": "function"
    },
    {
      "stateMutability": "payable",
      "type": "receive"
    },
    {
      "inputs": [
        {
          "internalType": "address[]",
          "name": "targets",
          "type": "address[]"
        },
        {
          "internalType": "uint256[]",
          "name": "values",
          "type": "uint256[]"
        },
        {
          "internalType": "bytes[]",
          "name": "calldatas",
          "type": "bytes[]"
        },
        {
          "internalType": "string",
          "name": "description",
          "type": "string"
        }
      ],
      "name": "propose",
      "outputs": [
        {
          "internalType": "uint256",
          "name": "",
          "type": "uint256"
        }
      ],
      "stateMutability": "nonpayable",
      "type": "function"
    },
    {
      "inputs": [
        {
          "internalType": "address[]",
          "name": "targets",
          "type": "address[]"
        },
        {
          "internalType": "uint256[]",
          "name": "values",
          "type": "uint256[]"
        },
        {
          "internalType": "bytes[]",
          "name": "calldatas",
          "type": "bytes[]"
        },
        {
          "internalType": "bytes32",
          "name": "descriptionHash",
          "type": "bytes32"
        }
      ],
      "name": "cancelProposal",
      "outputs": [
        {
          "internalType": "uint256",
          "name": "",
          "type": "uint256"
        }
      ],
      "stateMutability": "nonpayable",
      "type": "function"
    },
    {
      "inputs": [],
      "name": "proposalThreshold",
      "outputs": [
        {
          "internalType": "uint256",
          "name": "",
          "type": "uint256"
        }
      ],
      "stateMutability": "view",
      "type": "function"
    },
    {
      "inputs": [
        {
          "internalType": "bytes4",
          "name": "interfaceId",
          "type": "bytes4"
        }
      ],
      "name": "supportsInterface",
      "outputs": [
        {
          "internalType": "bool",
          "name": "",
          "type": "bool"
        }
      ],
      "stateMutability": "view",
      "type": "function"
    },
    {
      "inputs": [],
      "name": "votingDelay",
      "outputs": [
        {
          "internalType": "uint256",
          "name": "",
          "type": "uint256"
        }
      ],
      "stateMutability": "view",
      "type": "function"
    },
    {
      "inputs": [],
      "name": "votingPeriod",
      "outputs": [
        {
          "internalType": "uint256",
          "name": "",
          "type": "uint256"
        }
      ],
      "stateMutability": "view",
      "type": "function"
    },
    {
      "inputs": [
        {
          "internalType": "uint256",
          "name": "blockNumber",
          "type": "uint256"
        }
      ],
      "name": "quorum",
      "outputs": [
        {
          "internalType": "uint256",
          "name": "",
          "type": "uint256"
        }
      ],
      "stateMutability": "view",
      "type": "function"
    },
    {
      "inputs": [
        {
          "internalType": "uint256",
          "name": "proposalId",
          "type": "uint256"
        }
      ],
      "name": "state",
      "outputs": [
        {
          "internalType": "enum IGovernor.ProposalState",
          "name": "",
          "type": "uint8"
        }
      ],
      "stateMutability": "view",
      "type": "function"
    },
    {
      "inputs": [],
      "name": "emergencyStop",
      "outputs": [],
      "stateMutability": "nonpayable",
      "type": "function"
    },
    {
      "inputs": [
        {
          "internalType": "address",
          "name": "_token",
          "type": "address"
        }
      ],
      "name": "addSupportingToken",
      "outputs": [],
      "stateMutability": "nonpayable",
      "type": "function"
    },
    {
      "inputs": [
        {
          "internalType": "address",
          "name": "_token",
          "type": "address"
        }
      ],
      "name": "removeSupportingToken",
      "outputs": [],
      "stateMutability": "nonpayable",
      "type": "function"
    },
    {
      "inputs": [
        {
          "internalType": "address",
          "name": "target",
          "type": "address"
        },
        {
          "internalType": "bytes",
          "name": "data",
          "type": "bytes"
        }
      ],
      "name": "relayERC20",
      "outputs": [],
      "stateMutability": "nonpayable",
      "type": "function"
    },
    {
      "inputs": [
        {
          "internalType": "address",
          "name": "target",
          "type": "address"
        },
        {
          "internalType": "uint256",
          "name": "value",
          "type": "uint256"
        },
        {
          "internalType": "bytes",
          "name": "data",
          "type": "bytes"
        }
      ],
      "name": "relayNativeToken",
      "outputs": [],
      "stateMutability": "payable",
      "type": "function"
    }
  ],
  "bytecode": "0x6101606040523480156200001257600080fd5b5060405162006a2d38038062006a2d833981016040819052620000359162000564565b866004898787876040518060400160405280601181526020017026b0b4b72a37b5b2b723b7bb32b93737b960791b8152508c60148a8a846200007c6200026960201b60201c565b815160208084019190912082519183019190912060e08290526101008190527f8b73c3c69bb8fe3d512ecc4cf759cc79239f7b179b0ffacaa9a75d522b39400f4660a052620000cd81848462000284565b6080523060c052610120525050506001600160a01b03851690506200010f5760405162461bcd60e51b8152600401620001069062000660565b60405180910390fd5b82600003620001325760405162461bcd60e51b81526004016200010690620006a7565b81600003620001555760405162461bcd60e51b81526004016200010690620006ee565b620151808110156200017b5760405162461bcd60e51b8152600401620001069062000735565b60026200018986826200085a565b50600580546001600160a01b0319166001600160a01b039590951694909417909355600091909155600190815560069190915560045550620001cb83620002c1565b620001d68262000303565b620001e18162000368565b5050506001600160a01b0381166200020d5760405162461bcd60e51b815260040162000106906200096b565b6001600160a01b0316610140526200022581620003cd565b506001600160a01b0381166200024f5760405162461bcd60e51b81526004016200010690620009a1565b6200025a816200045d565b50505050505050505062000baf565b6040805180820190915260018152603160f81b602082015290565b60008383834630604051602001620002a1959493929190620009c6565b6040516020818303038152906040528051906020012090505b9392505050565b7fc565b045403dc03c2eea82b81a0465edad9e2e7fc4d97e11421c209da93d7a93600e5482604051620002f692919062000a1c565b60405180910390a1600e55565b60008111620003265760405162461bcd60e51b8152600401620001069062000a80565b7f7e3f7f0708a84de9203036abaa450dccc85ad5ff52f78c170f3edb55cf5e8828600f54826040516200035b92919062000a1c565b60405180910390a1600f55565b7fccb45da8d5717e6c4544694297c4ba5cf151d455c9bb0ed4fc7a38411bc05461601054826040516200039d92919062000a1c565b60405180910390a160008111620003c85760405162461bcd60e51b8152600401620001069062000aed565b601055565b6064811115620003f15760405162461bcd60e51b8152600401620001069062000b43565b6002811015620004155760405162461bcd60e51b8152600401620001069062000b7e565b60128054908290556040517f0553476bf02ef2726e8ce5ced78d63e26e602e4a2257b1f559418e24b46339979062000451908390859062000a1c565b60405180910390a15050565b6001600160a01b038116620004865760405162461bcd60e51b81526004016200010690620009a1565b6013546040517f08f74ea46ef7894f65eabfb5e6e695de773a000b47c529ab559178069b22640191620004c7916001600160a01b0390911690849062000b90565b60405180910390a1601380546001600160a01b0319166001600160a01b0392909216919091179055565b60006001600160a01b0382165b92915050565b6000620004fe82620004f1565b6200051c8162000504565b81146200052857600080fd5b50565b8051620004fe8162000511565b6200051c81620004f1565b8051620004fe8162000538565b806200051c565b8051620004fe8162000550565b600080600080600080600080610100898b031215620005865762000586600080fd5b6000620005948b8b6200052b565b9850506020620005a78b828c016200052b565b9750506040620005ba8b828c0162000543565b9650506060620005cd8b828c0162000557565b9550506080620005e08b828c0162000557565b94505060a0620005f38b828c0162000557565b93505060c0620006068b828c0162000557565b92505060e0620006198b828c0162000557565b9150509295985092959890939650565b601581526000602082017f6d756c7469536967207a65726f20616464726573730000000000000000000000815291505b5060200190565b60208082528101620004fe8162000629565b601681526000602082017f6d61785461726765742063616e74206265207a65726f000000000000000000008152915062000659565b60208082528101620004fe8162000672565b601e81526000602082017f70726f706f73616c54696d6544656c61792063616e74206265207a65726f00008152915062000659565b60208082528101620004fe81620006b9565b601a81526000602082017f6c69666574696d65206c657373207468616e206d696e696d756d0000000000008152915062000659565b60208082528101620004fe8162000700565b634e487b7160e01b600052604160045260246000fd5b634e487b7160e01b600052602260045260246000fd5b6002810460018216806200078857607f821691505b6020821081036200079d576200079d6200075d565b50919050565b6000620004fe620007b18381565b90565b620007bf83620007a3565b81546008840282811b60001990911b908116901990911617825550505050565b6000620007ee818484620007b4565b505050565b81811015620008125762000809600082620007df565b600101620007f3565b5050565b601f821115620007ee576000818152602090206020601f850104810160208510156200083f5750805b620008536020601f860104830182620007f3565b5050505050565b81516001600160401b0381111562000876576200087662000747565b62000882825462000773565b6200088f82828562000816565b6020601f831160018114620008c65760008415620008ad5750858201515b600019600886021c198116600286021786555062000922565b600085815260208120601f198616915b82811015620008f85788850151825560209485019460019092019101620008d6565b86831015620009155784890151600019601f89166008021c191682555b6001600288020188555050505b505050505050565b602181526000602082017f746f6b656e416464726573732063616e74206265207a65726f206164647265738152607360f81b602082015291505b5060400190565b60208082528101620004fe816200092a565b600c81526000602082016b7a65726f206164647265737360a01b8152915062000659565b60208082528101620004fe816200097d565b805b82525050565b620009b581620004f1565b60a08101620009d68288620009b3565b620009e56020830187620009b3565b620009f46040830186620009b3565b62000a036060830185620009b3565b62000a126080830184620009bb565b9695505050505050565b6040810162000a2c8285620009b3565b620002ba6020830184620009b3565b602781526000602082017f476f7665726e6f7253657474696e67733a20766f74696e6720706572696f6420815266746f6f206c6f7760c81b6020820152915062000964565b60208082528101620004fe8162000a3b565b603a81526000602082017f5f73657450726f706f73616c5468726573686f6c643a205468726573686f6c6481527f20666f722070726f706f73616c2063616e74206265207a65726f0000000000006020820152915062000964565b60208082528101620004fe8162000a92565b602681526000602082017f71756f72756d4e756d657261746f72206f7665722071756f72756d44656e6f6d81526534b730ba37b960d11b6020820152915062000964565b60208082528101620004fe8162000aff565b60118152600060208201706c657373207468616e204d696e696d756d60781b8152915062000659565b60208082528101620004fe8162000b55565b6040810162000ba08285620009bb565b620002ba6020830184620009bb565b60805160a05160c05160e051610100516101205161014051615e1562000c1860003960008181610bb3015281816130fc01526132e1015260006134430152600061348501526000613464015260006133c8015260006133f20152600061341c0152615e156000f3fe6080604052600436106103765760003560e01c806370b0f660116101d7578063c59057e41161010d578063eb9019d4116100a0578063f4a4f4d21161006f578063f4a4f4d214610b41578063f801d90e14610b61578063f8ce560a14610b81578063fc0c546a14610ba157600080fd5b8063eb9019d414610ac1578063ece40cc114610ae1578063f27715b414610b01578063f3191bd914610b2157600080fd5b8063d33219b4116100dc578063d33219b414610a2f578063deaaa7cc14610a4d578063e4facb4d14610a81578063ea0217cf14610aa157600080fd5b8063c59057e4146109b7578063caba5884146109d7578063cf66138b14610a04578063d19949fc14610a1a57600080fd5b806397c3d33411610185578063ab58fb8e11610154578063ab58fb8e1461094c578063b58131b01461096c578063bd015f5d14610981578063c01f9e371461099757600080fd5b806397c3d334146108e35780639a802a6d146108f7578063a7713a7014610917578063a890c9101461092c57600080fd5b806370b0f66014610813578063784547a7146108335780637b3c71d3146108635780637d5e81e2146108835780637fcc53ee146108a3578063929e1e20146108ba578063957aa58c146108cd57600080fd5b80633932abb1116102ac578063544ffc9c1161025a5780635f320775116102295780635f3207751461079b5780635f398a14146107b157806363a599a4146107d15780636484783e146107e657600080fd5b8063544ffc9c146106e857806354fd4d5014610731578063567813881461075b57806358df30f11461077b57600080fd5b80633932abb1146105da5780633bccf4fd146105ef5780633e4f49e61461060f5780633eadf4dc1461063c57806340ba1b1e1461065c578063438596321461067e5780634925ec55146106c857600080fd5b806320ea8d861161032457806327374c76116102f357806327374c76146105375780632c72fdfc146105575780632d63f693146105865780632fe3e261146105a657600080fd5b806320ea8d86146104b457806321cd4131146104d4578063240028e8146104f45780632656227d1461052457600080fd5b806301ffc9a7146103ba57806302a251a3146103f0578063034201811461041257806306f3f9e61461043257806306fdde0314610452578063160cbed7146104745780631c12dd731461049457600080fd5b366103b55730610384610be2565b6001600160a01b0316146103b35760405162461bcd60e51b81526004016103aa90613e5d565b60405180910390fd5b005b600080fd5b3480156103c657600080fd5b506103da6103d5366004613e8f565b610bfb565b6040516103e79190613eba565b60405180910390f35b3480156103fc57600080fd5b50610405610c0c565b6040516103e79190613ece565b34801561041e57600080fd5b5061040561042d366004613ffa565b610c17565b34801561043e57600080fd5b506103b361044d3660046140cd565b610ccb565b34801561045e57600080fd5b50610467610d55565b6040516103e79190614144565b34801561048057600080fd5b5061040561048f366004614322565b610de7565b3480156104a057600080fd5b506104056104af366004614322565b611016565b3480156104c057600080fd5b506103b36104cf3660046140cd565b611061565b3480156104e057600080fd5b506103b36104ef3660046143d3565b611115565b34801561050057600080fd5b506103da61050f3660046143d3565b60166020526000908152604090205460ff1681565b610405610532366004614322565b61119c565b34801561054357600080fd5b506103b36105523660046140cd565b611383565b34801561056357600080fd5b506105776105723660046140cd565b611416565b6040516103e793929190614466565b34801561059257600080fd5b506104056105a13660046140cd565b61145d565b3480156105b257600080fd5b506104057fb3b3f3b703cd84ce352197dcff232b1b5d3cfb2025ce47cf04742d0651f1af8881565b3480156105e657600080fd5b50610405611494565b3480156105fb57600080fd5b5061040561060a36600461449f565b61149f565b34801561061b57600080fd5b5061062f61062a3660046140cd565b61151d565b6040516103e7919061455b565b34801561064857600080fd5b506103b36106573660046140cd565b611528565b34801561066857600080fd5b506106716115bb565b6040516103e791906145c6565b34801561068a57600080fd5b506103da6106993660046145d7565b60008281526011602090815260408083206001600160a01b038516845260030190915290205460ff1692915050565b3480156106d457600080fd5b506104676106e33660046140cd565b611612565b3480156106f457600080fd5b506107226107033660046140cd565b6000908152601160205260409020805460018201546002909201549092565b6040516103e793929190614614565b34801561073d57600080fd5b506040805180820190915260018152603160f81b6020820152610467565b34801561076757600080fd5b5061040561077636600461463c565b6116b4565b34801561078757600080fd5b506103b36107963660046143d3565b6116f8565b3480156107a757600080fd5b5061040560005481565b3480156107bd57600080fd5b506104056107cc36600461466f565b61177f565b3480156107dd57600080fd5b506103b36117bb565b3480156107f257600080fd5b506104056108013660046143d3565b600b6020526000908152604090205481565b34801561081f57600080fd5b506103b361082e3660046140cd565b61194a565b34801561083f57600080fd5b506103da61084e3660046140cd565b600a6020526000908152604090205460ff1681565b34801561086f57600080fd5b5061040561087e3660046146fb565b6119d1565b34801561088f57600080fd5b5061040561089e366004614765565b611a0d565b3480156108af57600080fd5b506104056201518081565b6103b36108c836600461484a565b611a1b565b3480156108d957600080fd5b5061040560045481565b3480156108ef57600080fd5b506064610405565b34801561090357600080fd5b506104056109123660046148b7565b611b7b565b34801561092357600080fd5b50601254610405565b34801561093857600080fd5b506103b361094736600461490b565b611b88565b34801561095857600080fd5b506104056109673660046140cd565b611c0f565b34801561097857600080fd5b50610405611cab565b34801561098d57600080fd5b5061040560065481565b3480156109a357600080fd5b506104056109b23660046140cd565b611cb6565b3480156109c357600080fd5b506104056109d2366004614322565b611ce5565b3480156109e357600080fd5b506109f76109f23660046140cd565b611d1f565b6040516103e79190614935565b348015610a1057600080fd5b5061040560015481565b348015610a2657600080fd5b50610405600281565b348015610a3b57600080fd5b506013546001600160a01b03166109f7565b348015610a5957600080fd5b506104057f150214d74d59b7d1e90c73fc22ef3d991dd0a76b046543d4d80ab92d2a50328f81565b348015610a8d57600080fd5b506103b3610a9c3660046140cd565b611d49565b348015610aad57600080fd5b506103b3610abc3660046140cd565b611ddd565b348015610acd57600080fd5b50610405610adc366004614943565b611e64565b348015610aed57600080fd5b506103b3610afc3660046140cd565b611e85565b348015610b0d57600080fd5b506103b3610b1c3660046143d3565b611f0c565b348015610b2d57600080fd5b506103b3610b3c366004614976565b611fcc565b348015610b4d57600080fd5b506103b3610b5c3660046140cd565b612129565b348015610b6d57600080fd5b506103b3610b7c3660046149e4565b61226e565b348015610b8d57600080fd5b50610405610b9c3660046140cd565b6122cc565b348015610bad57600080fd5b50610bd57f000000000000000000000000000000000000000000000000000000000000000081565b6040516103e79190614a59565b6000610bf66013546001600160a01b031690565b905090565b6000610c06826122d7565b92915050565b6000610bf6600f5490565b6000600454600114610c3b5760405162461bcd60e51b81526004016103aa90614a89565b6000610cad610ca57fb3b3f3b703cd84ce352197dcff232b1b5d3cfb2025ce47cf04742d0651f1af888b8b8b805190602001208b80519060200120604051602001610c8a959493929190614aa2565b604051602081830303815290604052805190602001206122fc565b86868661230f565b9050610cbc89828a8a8a612337565b9150505b979650505050505050565b610cd3610be2565b6001600160a01b0316336001600160a01b031614610d035760405162461bcd60e51b81526004016103aa90614b09565b30610d0c610be2565b6001600160a01b031614610d495760008036604051610d2c929190614b2c565b604051809103902090505b80610d42600c61245d565b03610d3757505b610d52816124dc565b50565b606060028054610d6490614b4f565b80601f0160208091040260200160405190810160405280929190818152602001828054610d9090614b4f565b8015610ddd5780601f10610db257610100808354040283529160200191610ddd565b820191906000526020600020905b815481529060010190602001808311610dc057829003601f168201915b5050505050905090565b600080610df686868686611ce5565b6000818152600a602052604090205490915060ff16610e275760405162461bcd60e51b81526004016103aa90614bad565b6004610e328261151d565b6007811115610e4357610e43614517565b14610e605760405162461bcd60e51b81526004016103aa90614bfb565b6013546040805163793d064960e11b815290516000926001600160a01b03169163f27a0c929160048083019260209291908290030181865afa158015610eaa573d6000803e3d6000fd5b505050506040513d601f19601f82011682018060405250810190610ece9190614c16565b60135460405163b1c5f42760e01b81529192506001600160a01b03169063b1c5f42790610f08908a908a908a906000908b90600401614cef565b602060405180830381865afa158015610f25573d6000803e3d6000fd5b505050506040513d601f19601f82011682018060405250810190610f499190614c16565b6000838152601460205260408082209290925560135491516308f2a0bb60e41b81526001600160a01b0390921691638f2a0bb091610f94918b918b918b91908b908990600401614d37565b600060405180830381600087803b158015610fae57600080fd5b505af1158015610fc2573d6000803e3d6000fd5b505050507f9a2e42fd6722813d69113e7d0079d3d940171428df7373df9c7f7617cfda2892828242610ff49190614daf565b604051611002929190614dc2565b60405180910390a15090505b949350505050565b6005546000906001600160a01b0316336001600160a01b03161461104c5760405162461bcd60e51b81526004016103aa90614e0a565b61105885858585612564565b95945050505050565b6005546001600160a01b0316336001600160a01b0316146110945760405162461bcd60e51b81526004016103aa90614e0a565b600081815260086020526040902060020154819060ff16156110c85760405162461bcd60e51b81526004016103aa90614e4e565b6110d182612572565b6000828152600a6020526040808220805460ff1916905551839133917ff0dca620e2e81f7841d07bcc105e1704fb01475b278a9d4c236e1c62945edd559190a35050565b61111d610be2565b6001600160a01b0316336001600160a01b03161461114d5760405162461bcd60e51b81526004016103aa90614b09565b30611156610be2565b6001600160a01b0316146111935760008036604051611176929190614b2c565b604051809103902090505b8061118c600c61245d565b0361118157505b610d52816125a0565b60006004546001146111c05760405162461bcd60e51b81526004016103aa90614a89565b60006111ce86868686611ce5565b90506111d98161263f565b6111e281612572565b60006111ed8261151d565b9050600581600781111561120357611203614517565b146112205760405162461bcd60e51b81526004016103aa90614bfb565b6000805b87518110156112665787818151811061123f5761123f614e5e565b6020026020010151826112529190614daf565b91508061125e81614e74565b915050611224565b50803410156112875760405162461bcd60e51b81526004016103aa90614ebd565b600083815260086020526040808220600201805460ff191660011790555184917f712ae1383f79ac853f8d882153778e0260ef8f03b504e2866e0593e04d2b291f91a26112d78389898989612670565b6112e48389898989612710565b6112f1838989898961274b565b80341115611377576000336113068334614ecd565b60405161131290614ee0565b60006040518083038185875af1925050503d806000811461134f576040519150601f19603f3d011682016040523d82523d6000602084013e611354565b606091505b50509050806113755760405162461bcd60e51b81526004016103aa90614f16565b505b50909695505050505050565b6005546001600160a01b0316336001600160a01b0316146113b65760405162461bcd60e51b81526004016103aa90614e0a565b806000036113d65760405162461bcd60e51b81526004016103aa90614f47565b7f3da73a181c2b3944927ac2df9dc262cf838e775431feb05974323f1cdabe389681600154604051611409929190614dc2565b60405180910390a1600155565b600354606090819081906000819003611439575060609250829150819050611456565b80851115611445578094505b61144e85612784565b935093509350505b9193909250565b60008181526008602090815260408083208151928301909152546001600160401b0316908190525b6001600160401b031692915050565b6000610bf6600e5490565b60006004546001146114c35760405162461bcd60e51b81526004016103aa90614a89565b6000611500610ca57f150214d74d59b7d1e90c73fc22ef3d991dd0a76b046543d4d80ab92d2a50328f8989604051602001610c8a93929190614f57565b9050610cc087828860405180602001604052806000815250612a44565b6000610c0682612a67565b6005546001600160a01b0316336001600160a01b03161461155b5760405162461bcd60e51b81526004016103aa90614e0a565b8060000361157b5760405162461bcd60e51b81526004016103aa90614f47565b7f9187ebb0ce0ff73eeba0fa7031c0d57dcf43f08ac34102f94434e5c0c108c964816000546040516115ae929190614dc2565b60405180910390a1600055565b60606003805480602002602001604051908101604052809291908181526020018280548015610ddd57602002820191906000526020600020905b8154815260200190600101908083116115f5575050505050905090565b600081815260096020526040902080546060919061162f90614b4f565b80601f016020809104026020016040519081016040528092919081815260200182805461165b90614b4f565b80156116a85780601f1061167d576101008083540402835291602001916116a8565b820191906000526020600020905b81548152906001019060200180831161168b57829003601f168201915b50505050509050919050565b60006004546001146116d85760405162461bcd60e51b81526004016103aa90614a89565b600033905061100e84828560405180602001604052806000815250612a44565b611700610be2565b6001600160a01b0316336001600160a01b0316146117305760405162461bcd60e51b81526004016103aa90614b09565b30611739610be2565b6001600160a01b0316146117765760008036604051611759929190614b2c565b604051809103902090505b8061176f600c61245d565b0361176457505b610d5281612b5e565b60006004546001146117a35760405162461bcd60e51b81526004016103aa90614a89565b336117b18682878787612337565b9695505050505050565b6005546001600160a01b0316336001600160a01b0316146117ee5760405162461bcd60e51b81526004016103aa90614e0a565b6117f6612cc0565b60005b6017548110156118c55760006017828154811061181857611818614e5e565b60009182526020822001546040516370a0823160e01b81526001600160a01b03909116925082906370a0823190611853903090600401614935565b602060405180830381865afa158015611870573d6000803e3d6000fd5b505050506040513d601f19601f820116820180604052508101906118949190614c16565b905080156118b0576118b06001600160a01b0383163383612d12565b505080806118bd90614e74565b9150506117f9565b504715611948576000336001600160a01b0316476040516118e590614ee0565b60006040518083038185875af1925050503d8060008114611922576040519150601f19603f3d011682016040523d82523d6000602084013e611927565b606091505b5050905080610d525760405162461bcd60e51b81526004016103aa90614f16565b565b611952610be2565b6001600160a01b0316336001600160a01b0316146119825760405162461bcd60e51b81526004016103aa90614b09565b3061198b610be2565b6001600160a01b0316146119c857600080366040516119ab929190614b2c565b604051809103902090505b806119c1600c61245d565b036119b657505b610d5281612d6d565b60006004546001146119f55760405162461bcd60e51b81526004016103aa90614a89565b33611a0285828686612a44565b9150505b9392505050565b600061105885858585612dad565b611a23610be2565b6001600160a01b0316336001600160a01b031614611a535760405162461bcd60e51b81526004016103aa90614b09565b30611a5c610be2565b6001600160a01b031614611a995760008036604051611a7c929190614b2c565b604051809103902090505b80611a92600c61245d565b03611a8757505b6001600160a01b03841660009081526016602052604090205460ff1615611ad25760405162461bcd60e51b81526004016103aa90614fc6565b600080856001600160a01b0316858585604051611af0929190614b2c565b60006040518083038185875af1925050503d8060008114611b2d576040519150601f19603f3d011682016040523d82523d6000602084013e611b32565b606091505b5091509150611b72828260405180604001604052806018815260200177726576657274656420776974686f7574206d65737361676560401b8152506130a9565b50505050505050565b600061100e8484846130e2565b611b90610be2565b6001600160a01b0316336001600160a01b031614611bc05760405162461bcd60e51b81526004016103aa90614b09565b30611bc9610be2565b6001600160a01b031614611c065760008036604051611be9929190614b2c565b604051809103902090505b80611bff600c61245d565b03611bf457505b610d5281613174565b60135460008281526014602052604080822054905163d45c443560e01b8152919283926001600160a01b039091169163d45c443591611c519190600401613ece565b602060405180830381865afa158015611c6e573d6000803e3d6000fd5b505050506040513d601f19601f82011682018060405250810190611c929190614c16565b905080600114611ca25780611a06565b60009392505050565b6000610bf660105490565b60008181526008602090815260408083208151928301909152600101546001600160401b031690819052611485565b600084848484604051602001611cfe9493929190614fd6565b60408051601f19818403018152919052805160209091012095945050505050565b60178181548110611d2f57600080fd5b6000918252602090912001546001600160a01b0316905081565b6005546001600160a01b0316336001600160a01b031614611d7c5760405162461bcd60e51b81526004016103aa90614e0a565b62015180811015611d9f5760405162461bcd60e51b81526004016103aa90615046565b7fc4106c7a131061f6ffb9a883270bb5c3aa2f9933a50cf3fa48d64d0dd73369c78182604051611dd0929190614dc2565b60405180910390a1600655565b611de5610be2565b6001600160a01b0316336001600160a01b031614611e155760405162461bcd60e51b81526004016103aa90614b09565b30611e1e610be2565b6001600160a01b031614611e5b5760008036604051611e3e929190614b2c565b604051809103902090505b80611e54600c61245d565b03611e4957505b610d5281613203565b6000611a068383611e8060408051602081019091526000815290565b6130e2565b611e8d610be2565b6001600160a01b0316336001600160a01b031614611ebd5760405162461bcd60e51b81526004016103aa90614b09565b30611ec6610be2565b6001600160a01b031614611f035760008036604051611ee6929190614b2c565b604051809103902090505b80611efc600c61245d565b03611ef157505b610d5281613263565b6005546001600160a01b0316336001600160a01b031614611f3f5760405162461bcd60e51b81526004016103aa90614e0a565b6001600160a01b038116611f655760405162461bcd60e51b81526004016103aa90615079565b6005546040517fa31378226bf642b76b52240a017232ce81a41924f7e964dfe5b2cc0ebe6287ca91611fa29184916001600160a01b031690615089565b60405180910390a1600580546001600160a01b0319166001600160a01b0392909216919091179055565b611fd4610be2565b6001600160a01b0316336001600160a01b0316146120045760405162461bcd60e51b81526004016103aa90614b09565b3061200d610be2565b6001600160a01b03161461204a576000803660405161202d929190614b2c565b604051809103902090505b80612043600c61245d565b0361203857505b6001600160a01b03831660009081526016602052604090205460ff166120825760405162461bcd60e51b81526004016103aa906150ce565b600080846001600160a01b0316848460405161209f929190614b2c565b6000604051808303816000865af19150503d80600081146120dc576040519150601f19603f3d011682016040523d82523d6000602084013e6120e1565b606091505b5091509150612121828260405180604001604052806018815260200177726576657274656420776974686f7574206d65737361676560401b8152506130a9565b505050505050565b6005546001600160a01b0316336001600160a01b03161461215c5760405162461bcd60e51b81526004016103aa90614e0a565b600081815260086020526040902060020154819060ff16156121905760405162461bcd60e51b81526004016103aa90614e4e565b6000828152600a6020526040902054829060ff16156121c15760405162461bcd60e51b81526004016103aa90615112565b6121ca8361263f565b6000838152600a60205260408120805460ff191660011790556121ec8461151d565b9050600481600781111561220257612202614517565b148061221f5750600581600781111561221d5761221d614517565b145b61223b5760405162461bcd60e51b81526004016103aa90615150565b604051849033907fc465ffb6829baf0ff01f0180d8bc0dca7de4bb775e4d3a1bf155f9047da4026c90600090a350505050565b6005546001600160a01b0316336001600160a01b0316146122a15760405162461bcd60e51b81526004016103aa90614e0a565b6001600160a01b03919091166000908152600760205260409020805460ff1916911515919091179055565b6000610c06826132c3565b60006001600160e01b03198216636e665ced60e01b1480610c065750610c068261336b565b6000610c066123096133bb565b836134a9565b6000806000612320878787876134dc565b9150915061232d816135b2565b5095945050505050565b600085815260086020526040812060016123508861151d565b600781111561236157612361614517565b1461237e5760405162461bcd60e51b81526004016103aa9061518e565b604080516020810190915281546001600160401b0316908190526000906123a7908890866130e2565b90506123b68888888488613692565b835160000361240a5787876001600160a01b03167fb8e138887d0aa13bab447e82de9d5c1777041ecd21ca36ba824ff1e6c07ddda48884896040516123fd9392919061519e565b60405180910390a3610cc0565b87876001600160a01b03167fe2babfbac5889a709b63bb7f598b324e08bc5a4fb9ec647fb3cbc9ec07eb87128884898960405161244a94939291906151cb565b60405180910390a3979650505050505050565b60006124788254600f81810b600160801b909204900b131590565b1561249657604051631ed9509560e11b815260040160405180910390fd5b508054600f0b6000818152600180840160205260408220805492905583546fffffffffffffffffffffffffffffffff191692016001600160801b03169190911790915590565b60648111156124fd5760405162461bcd60e51b81526004016103aa9061524f565b600281101561251e5760405162461bcd60e51b81526004016103aa90615287565b60128054908290556040517f0553476bf02ef2726e8ce5ced78d63e26e602e4a2257b1f559418e24b4633997906125589083908590614dc2565b60405180910390a15050565b60006110588585858561377e565b6000818152600a602052604090205460ff16610d525760405162461bcd60e51b81526004016103aa906152c4565b6001600160a01b03811660009081526016602052604090205460ff16156125d95760405162461bcd60e51b81526004016103aa906152ff565b6001600160a01b03166000818152601660205260408120805460ff191660019081179091556017805491820181559091527fc624b66cc0138b8fabc209247f72d758e1cf3343756d543badbf24212bed8c150180546001600160a01b0319169091179055565b600081815260086020526040902060030154421115610d525760405162461bcd60e51b81526004016103aa90615336565b30612679610be2565b6001600160a01b0316146127095760005b845181101561212157306001600160a01b03168582815181106126af576126af614e5e565b60200260200101516001600160a01b0316036126f9576126f98382815181106126da576126da614e5e565b602002602001015180519060200120600c61382c90919063ffffffff16565b61270281614e74565b905061268a565b5050505050565b6000858152600a602052604090205460ff1661273e5760405162461bcd60e51b81526004016103aa90615373565b6127098585858585613868565b30612754610be2565b6001600160a01b03161461270957600c54600f81810b600160801b909204900b1315612709576000600c55612709565b60608060606000846001600160401b038111156127a3576127a3613f01565b6040519080825280602002602001820160405280156127d657816020015b60608152602001906001900390816127c15790505b5090506000856001600160401b038111156127f3576127f3613f01565b60405190808252806020026020018201604052801561282657816020015b60608152602001906001900390816128115790505b5090506000866001600160401b0381111561284357612843613f01565b60405190808252806020026020018201604052801561287657816020015b60608152602001906001900390816128615790505b50600354909150600061288a60018a614ecd565b90508189106128a15761289e600183614ecd565b90505b600060036128b0600185614ecd565b815481106128c0576128c0614e5e565b906000526020600020015490506128d681613924565b8483815181106128e8576128e8614e5e565b602002602001018190525060096000828152602001908152602001600020805461291190614b4f565b80601f016020809104026020016040519081016040528092919081815260200182805461293d90614b4f565b801561298a5780601f1061295f5761010080835404028352916020019161298a565b820191906000526020600020905b81548152906001019060200180831161296d57829003601f168201915b50505050508583815181106129a1576129a1614e5e565b60200260200101819052506129d16129b88261151d565b60078111156129c9576129c9614517565b60ff16613924565b8683815181106129e3576129e3614e5e565b60209081029190910101526129f9600184614ecd565b600003612a065750612a35565b81600003612a145750612a35565b82612a1e81615383565b9350508180612a2c90615383565b925050506128a1565b50909791965091945092505050565b600061105885858585612a6260408051602081019091526000815290565b612337565b600080612a7383613a24565b90506004816007811115612a8957612a89614517565b14612a945792915050565b60008381526014602052604090205480612aaf575092915050565b60008481526015602052604090205460ff161515600103612ad4575060079392505050565b601354604051632c258a9f60e11b81526001600160a01b039091169063584b153e90612b04908490600401613ece565b602060405180830381865afa158015612b21573d6000803e3d6000fd5b505050506040513d601f19601f82011682018060405250810190612b4591906153a5565b15612b54575060059392505050565b5060029392505050565b6001600160a01b03811660009081526016602052604090205460ff16612b965760405162461bcd60e51b81526004016103aa906153fa565b6001600160a01b0381166000908152601660205260408120805460ff191690555b601754811015612c8957816001600160a01b031660178281548110612bde57612bde614e5e565b6000918252602090912001546001600160a01b031603612c775760178054612c0890600190614ecd565b81548110612c1857612c18614e5e565b600091825260209091200154601780546001600160a01b039092169183908110612c4457612c44614e5e565b9060005260206000200160006101000a8154816001600160a01b0302191690836001600160a01b03160217905550612c89565b80612c8181614e74565b915050612bb7565b506017805480612c9b57612c9b61540a565b600082815260209020810160001990810180546001600160a01b031916905501905550565b600454600114612ce25760405162461bcd60e51b81526004016103aa9061543f565b600060048190556040517f4e97bcfc80ae353daee1a1990d5b388eef167d3e197ebf5243cc4d43b4125c099190a1565b612d688363a9059cbb60e01b8484604051602401612d3192919061544f565b60408051601f198184030181529190526020810180516001600160e01b03166001600160e01b031990931692909217909152613b03565b505050565b7fc565b045403dc03c2eea82b81a0465edad9e2e7fc4d97e11421c209da93d7a93600e5482604051612da0929190614dc2565b60405180910390a1600e55565b6000600454600114612dd15760405162461bcd60e51b81526004016103aa90614a89565b612dd9611cab565b612de833610adc600143614ecd565b1015612e065760405162461bcd60e51b81526004016103aa906154a2565b3360009081526007602052604090205460ff1615612e365760405162461bcd60e51b81526004016103aa906154e0565b612e3f33613b92565b6000612e548686868680519060200120611ce5565b90508451865114612e775760405162461bcd60e51b81526004016103aa9061552e565b8351865114612e985760405162461bcd60e51b81526004016103aa9061552e565b6000865111612eb95760405162461bcd60e51b81526004016103aa9061556d565b60005486511115612edc5760405162461bcd60e51b81526004016103aa906155b1565b600081815260086020908152604091829020825191820190925281546001600160401b03169081905215612f225760405162461bcd60e51b81526004016103aa906155ff565b6000612f34612f2f611494565b613bf2565b612f3d43613bf2565b612f47919061560f565b90506000612f56612f2f610c0c565b612f60908361560f565b835467ffffffffffffffff19166001600160401b038416178455905060018301805467ffffffffffffffff19166001600160401b038316179055600654612fa79042614daf565b60038401556000848152600960205260409020612fc487826156c0565b50600380546001810182556000919091527fc2575a0e9e593c00f959f8c92f12db2869c3395a3b0502d05e2516446f71f85b018490556001600160401b038116336001600160a01b0316857f7d84a6263ae0d98d3329bd7b46bb4e8d6f98cd35a7adb45c274c8b7fd5ebd5e08c8c8e516001600160401b0381111561304b5761304b613f01565b60405190808252806020026020018201604052801561307e57816020015b60608152602001906001900390816130695790505b508d898e604051613094969594939291906157a0565b60405180910390a45091979650505050505050565b606083156130b8575081611a06565b8251156130c85782518084602001fd5b8160405162461bcd60e51b81526004016103aa9190614144565b604051630748d63560e31b81526000906001600160a01b037f00000000000000000000000000000000000000000000000000000000000000001690633a46b1a890613133908790879060040161544f565b602060405180830381865afa158015613150573d6000803e3d6000fd5b505050506040513d601f19601f8201168201806040525081019061100e9190614c16565b6001600160a01b03811661319a5760405162461bcd60e51b81526004016103aa90615079565b6013546040517f08f74ea46ef7894f65eabfb5e6e695de773a000b47c529ab559178069b226401916131d9916001600160a01b03909116908490615089565b60405180910390a1601380546001600160a01b0319166001600160a01b0392909216919091179055565b600081116132235760405162461bcd60e51b81526004016103aa9061585e565b7f7e3f7f0708a84de9203036abaa450dccc85ad5ff52f78c170f3edb55cf5e8828600f5482604051613256929190614dc2565b60405180910390a1600f55565b7fccb45da8d5717e6c4544694297c4ba5cf151d455c9bb0ed4fc7a38411bc0546160105482604051613296929190614dc2565b60405180910390a1600081116132be5760405162461bcd60e51b81526004016103aa906158c8565b601055565b60006064601254604051632394e7a360e21b81526001600160a01b037f00000000000000000000000000000000000000000000000000000000000000001690638e539e8c90613316908790600401613ece565b602060405180830381865afa158015613333573d6000803e3d6000fd5b505050506040513d601f19601f820116820180604052508101906133579190614c16565b61336191906158d8565b610c06919061590d565b60006001600160e01b03198216632dcb927b60e11b148061339c57506001600160e01b03198216634eb6428760e11b145b80610c0657506301ffc9a760e01b6001600160e01b0319831614610c06565b6000306001600160a01b037f00000000000000000000000000000000000000000000000000000000000000001614801561341457507f000000000000000000000000000000000000000000000000000000000000000046145b1561343e57507f000000000000000000000000000000000000000000000000000000000000000090565b610bf67f00000000000000000000000000000000000000000000000000000000000000007f00000000000000000000000000000000000000000000000000000000000000007f0000000000000000000000000000000000000000000000000000000000000000613c1f565b600082826040516020016134be929190615921565b60405160208183030381529060405280519060200120905092915050565b6000806fa2a8918ca85bafe22016d0b997e4df60600160ff1b0383111561350957506000905060036135a9565b8460ff16601b1415801561352157508460ff16601c14155b1561353257506000905060046135a9565b6000600187878787604051600081526020016040526040516135579493929190615952565b6020604051602081039080840390855afa158015613579573d6000803e3d6000fd5b5050604051601f1901519150506001600160a01b0381166135a2576000600192509250506135a9565b9150600090505b94509492505050565b60008160048111156135c6576135c6614517565b036135ce5750565b60018160048111156135e2576135e2614517565b036135ff5760405162461bcd60e51b81526004016103aa906159b6565b600281600481111561361357613613614517565b036136305760405162461bcd60e51b81526004016103aa906159fa565b600381600481111561364457613644614517565b036136615760405162461bcd60e51b81526004016103aa90615a49565b600481600481111561367557613675614517565b03610d525760405162461bcd60e51b81526004016103aa90615a98565b60008581526011602090815260408083206001600160a01b0388168452600381019092529091205460ff16156136da5760405162461bcd60e51b81526004016103aa90615aec565b6001600160a01b03851660009081526003820160205260409020805460ff1916600117905560ff8416613726578281600001600082825461371b9190614daf565b909155506121219050565b60001960ff851601613746578281600101600082825461371b9190614daf565b60011960ff851601613766578281600201600082825461371b9190614daf565b60405162461bcd60e51b81526004016103aa90615b4e565b60008061378d86868686613c59565b60008181526014602052604090205490915015611058576013546000828152601460205260409081902054905163c4d252f560e01b81526001600160a01b039092169163c4d252f5916137e291600401613ece565b600060405180830381600087803b1580156137fc57600080fd5b505af1158015613810573d6000803e3d6000fd5b5050506000828152601460205260408120555095945050505050565b8154600160801b90819004600f0b6000818152600180860160205260409091209390935583546001600160801b03908116939091011602179055565b60008581526015602052604090205460ff16156138975760405162461bcd60e51b81526004016103aa90615b85565b60135460405163e38335e560e01b81526001600160a01b039091169063e38335e59034906138d2908890889088906000908990600401614cef565b6000604051808303818588803b1580156138eb57600080fd5b505af11580156138ff573d6000803e3d6000fd5b50505060009687525050601560205250506040909220805460ff191660011790555050565b60608160000361394b5750506040805180820190915260018152600360fc1b602082015290565b8160005b8115613975578061395f81614e74565b915061396e9050600a8361590d565b915061394f565b6000816001600160401b0381111561398f5761398f613f01565b6040519080825280601f01601f1916602001820160405280156139b9576020820181803683370190505b5090505b841561100e576139ce600183614ecd565b91506139db600a86615b95565b6139e6906030614daf565b60f81b8183815181106139fb576139fb614e5e565b60200101906001600160f81b031916908160001a905350613a1d600a8661590d565b94506139bd565b6000818152600860205260408120600281015460ff1615613a485750600792915050565b6002810154610100900460ff1615613a635750600292915050565b6000613a6e8461145d565b905080600003613a905760405162461bcd60e51b81526004016103aa90615bdd565b438110613aa1575060009392505050565b6000613aac85611cb6565b9050438110613ac057506001949350505050565b613ac985613d34565b8015613ae8575060008581526011602052604090208054600190910154115b15613af857506004949350505050565b506003949350505050565b6000613b58826040518060400160405280602081526020017f5361666545524332303a206c6f772d6c6576656c2063616c6c206661696c6564815250856001600160a01b0316613d6b9092919063ffffffff16565b805190915015612d685780806020019051810190613b7691906153a5565b612d685760405162461bcd60e51b81526004016103aa90615c34565b6001600160a01b0381166000908152600b60205260409020544211613bc95760405162461bcd60e51b81526004016103aa90615c84565b600154613bd69042614daf565b6001600160a01b039091166000908152600b6020526040902055565b60006001600160401b03821115613c1b5760405162461bcd60e51b81526004016103aa90615cd7565b5090565b60008383834630604051602001613c3a959493929190615ce7565b6040516020818303038152906040528051906020012090509392505050565b600080613c6886868686611ce5565b90506000613c758261151d565b90506002816007811115613c8b57613c8b614517565b14158015613cab57506006816007811115613ca857613ca8614517565b14155b8015613cc957506007816007811115613cc657613cc6614517565b14155b613ce55760405162461bcd60e51b81526004016103aa90615d5d565b600082815260086020526040808220600201805461ff0019166101001790555183917f789cf55be980739dad1d0699b93b58e806b51c9d96619bfa8fe0a28abaa7b30c91a25095945050505050565b600081815260116020526040812060028101546001820154613d569190614daf565b613d62610b9c8561145d565b11159392505050565b606061100e8484600085856001600160a01b0385163b613d9d5760405162461bcd60e51b81526004016103aa90615da1565b600080866001600160a01b03168587604051613db99190615dd3565b60006040518083038185875af1925050503d8060008114613df6576040519150601f19603f3d011682016040523d82523d6000602084013e613dfb565b606091505b5091509150610cc08282866130a9565b603281526000602082017f476f7665726e6f722c207265636569766528293a20205f6578656375746f72288152712920213d206164647265737328746869732960701b602082015291505b5060400190565b60208082528101610c0681613e0b565b6001600160e01b031981165b8114610d5257600080fd5b8035610c0681613e6d565b600060208284031215613ea457613ea4600080fd5b600061100e8484613e84565b8015155b82525050565b60208101610c068284613eb0565b80613eb4565b60208101610c068284613ec8565b80613e79565b8035610c0681613edc565b60ff8116613e79565b8035610c0681613eed565b634e487b7160e01b600052604160045260246000fd5b601f19601f83011681018181106001600160401b0382111715613f3c57613f3c613f01565b6040525050565b6000613f4e60405190565b9050613f5a8282613f17565b919050565b60006001600160401b03821115613f7857613f78613f01565b601f19601f83011660200192915050565b82818337506000910152565b6000613fa8613fa384613f5f565b613f43565b905082815260208101848484011115613fc357613fc3600080fd5b613fce848285613f89565b509392505050565b600082601f830112613fea57613fea600080fd5b813561100e848260208601613f95565b600080600080600080600060e0888a03121561401857614018600080fd5b60006140248a8a613ee2565b97505060206140358a828b01613ef6565b96505060408801356001600160401b0381111561405457614054600080fd5b6140608a828b01613fd6565b95505060608801356001600160401b0381111561407f5761407f600080fd5b61408b8a828b01613fd6565b945050608061409c8a828b01613ef6565b93505060a06140ad8a828b01613ee2565b92505060c06140be8a828b01613ee2565b91505092959891949750929550565b6000602082840312156140e2576140e2600080fd5b600061100e8484613ee2565b60005b838110156141095781810151838201526020016140f1565b50506000910152565b600061411c825190565b8084526020840193506141338185602086016140ee565b601f01601f19169290920192915050565b60208082528101611a068184614112565b60006001600160401b0382111561416e5761416e613f01565b5060209081020190565b60006001600160a01b038216610c06565b613e7981614178565b8035610c0681614189565b60006141ab613fa384614155565b838152905060208082019084028301858111156141ca576141ca600080fd5b835b818110156141ee57806141df8882614192565b845250602092830192016141cc565b5050509392505050565b600082601f83011261420c5761420c600080fd5b813561100e84826020860161419d565b600061422a613fa384614155565b8381529050602080820190840283018581111561424957614249600080fd5b835b818110156141ee578061425e8882613ee2565b8452506020928301920161424b565b600082601f83011261428157614281600080fd5b813561100e84826020860161421c565b600061429f613fa384614155565b838152905060208082019084028301858111156142be576142be600080fd5b835b818110156141ee5780356001600160401b038111156142e1576142e1600080fd5b8086016142ee8982613fd6565b85525050602092830192016142c0565b600082601f83011261431257614312600080fd5b813561100e848260208601614291565b6000806000806080858703121561433b5761433b600080fd5b84356001600160401b0381111561435457614354600080fd5b614360878288016141f8565b94505060208501356001600160401b0381111561437f5761437f600080fd5b61438b8782880161426d565b93505060408501356001600160401b038111156143aa576143aa600080fd5b6143b6878288016142fe565b92505060606143c787828801613ee2565b91505092959194509250565b6000602082840312156143e8576143e8600080fd5b600061100e8484614192565b6000611a068383614112565b600061440a825190565b808452602084019350836020820285016144248560200190565b8060005b85811015614459578484038952815161444185826143f4565b94506020830160209a909a0199925050600101614428565b5091979650505050505050565b606080825281016144778186614400565b9050818103602083015261448b8185614400565b905081810360408301526110588184614400565b600080600080600060a086880312156144ba576144ba600080fd5b60006144c68888613ee2565b95505060206144d788828901613ef6565b94505060406144e888828901613ef6565b93505060606144f988828901613ee2565b925050608061450a88828901613ee2565b9150509295509295909350565b634e487b7160e01b600052602160045260246000fd5b60088110610d5257610d52614517565b80613f5a8161452d565b6000610c068261453d565b613eb481614547565b60208101610c068284614552565b60006145758383613ec8565b505060200190565b6000614587825190565b80845260209384019383018060005b838110156145bb5781516145aa8882614569565b975060208301925050600101614596565b509495945050505050565b60208082528101611a06818461457d565b600080604083850312156145ed576145ed600080fd5b60006145f98585613ee2565b925050602061460a85828601614192565b9150509250929050565b606081016146228286613ec8565b61462f6020830185613ec8565b61100e6040830184613ec8565b6000806040838503121561465257614652600080fd5b600061465e8585613ee2565b925050602061460a85828601613ef6565b6000806000806080858703121561468857614688600080fd5b60006146948787613ee2565b94505060206146a587828801613ef6565b93505060408501356001600160401b038111156146c4576146c4600080fd5b6146d087828801613fd6565b92505060608501356001600160401b038111156146ef576146ef600080fd5b6143c787828801613fd6565b60008060006060848603121561471357614713600080fd5b600061471f8686613ee2565b935050602061473086828701613ef6565b92505060408401356001600160401b0381111561474f5761474f600080fd5b61475b86828701613fd6565b9150509250925092565b6000806000806080858703121561477e5761477e600080fd5b84356001600160401b0381111561479757614797600080fd5b6147a3878288016141f8565b94505060208501356001600160401b038111156147c2576147c2600080fd5b6147ce8782880161426d565b93505060408501356001600160401b038111156147ed576147ed600080fd5b6146d0878288016142fe565b60008083601f84011261480e5761480e600080fd5b5081356001600160401b0381111561482857614828600080fd5b60208301915083600182028301111561484357614843600080fd5b9250929050565b6000806000806060858703121561486357614863600080fd5b600061486f8787614192565b945050602061488087828801613ee2565b93505060408501356001600160401b0381111561489f5761489f600080fd5b6148ab878288016147f9565b95989497509550505050565b6000806000606084860312156148cf576148cf600080fd5b60006148db8686614192565b935050602061473086828701613ee2565b6000610c0682614178565b613e79816148ec565b8035610c06816148f7565b60006020828403121561492057614920600080fd5b600061100e8484614900565b613eb481614178565b60208101610c06828461492c565b6000806040838503121561495957614959600080fd5b60006149658585614192565b925050602061460a85828601613ee2565b60008060006040848603121561498e5761498e600080fd5b600061499a8686614192565b93505060208401356001600160401b038111156149b9576149b9600080fd5b6149c5868287016147f9565b92509250509250925092565b801515613e79565b8035610c06816149d1565b600080604083850312156149fa576149fa600080fd5b6000614a068585614192565b925050602061460a858286016149d9565b6000610c066001600160a01b038316614a2e565b90565b6001600160a01b031690565b6000610c0682614a17565b6000610c0682614a3a565b613eb481614a45565b60208101610c068284614a50565b60088152600060208201676e6f74206c69766560c01b815291505b5060200190565b60208082528101610c0681614a67565b60ff8116613eb4565b60a08101614ab08288613ec8565b614abd6020830187613ec8565b614aca6040830186614a99565b614ad76060830185613ec8565b6117b16080830184613ec8565b600e81526000602082016d6f6e6c79476f7665726e616e636560901b81529150614a82565b60208082528101610c0681614ae4565b6000614b26838584613f89565b50500190565b600061100e828486614b19565b634e487b7160e01b600052602260045260246000fd5b600281046001821680614b6357607f821691505b602082108103614b7557614b75614b39565b50919050565b60208082527f71756575653a206e6f7420636f6e6669726d6564206279206d756c746973696791019081526000614a82565b60208082528101610c0681614b7b565b602181526000602082017f476f7665726e6f723a2070726f706f73616c206e6f74207375636365737366758152601b60fa1b60208201529150613e56565b60208082528101610c0681614bbd565b8051610c0681613edc565b600060208284031215614c2b57614c2b600080fd5b600061100e8484614c0b565b6000614575838361492c565b6000614c4d825190565b80845260209384019383018060005b838110156145bb578151614c708882614c37565b975060208301925050600101614c5c565b6000614c8b825190565b80845260208401935083602082028501614ca58560200190565b8060005b858110156144595784840389528151614cc285826143f4565b94506020830160209a909a0199925050600101614ca9565b6000610c06614a2b8381565b613eb481614cda565b60a08082528101614d008188614c43565b90508181036020830152614d14818761457d565b90508181036040830152614d288186614c81565b9050614ad76060830185614ce6565b60c08082528101614d488189614c43565b90508181036020830152614d5c818861457d565b90508181036040830152614d708187614c81565b9050614d7f6060830186614ce6565b614d8c6080830185613ec8565b610cc060a0830184613ec8565b634e487b7160e01b600052601160045260246000fd5b80820180821115610c0657610c06614d99565b60408101614dd08285613ec8565b611a066020830184613ec8565b6016815260006020820175476f7665726e6f723a206f6e6c794d756c746953696760501b81529150614a82565b60208082528101610c0681614ddd565b601981526000602082017f70726f706f73616c20616c72656164792065786563757465640000000000000081529150614a82565b60208082528101610c0681614e1a565b634e487b7160e01b600052603260045260246000fd5b60006000198203614e8757614e87614d99565b5060010190565b60188152600060208201771b5cd9cb9d985b1d59481b9bdd081cdd59999a58da595b9d60421b81529150614a82565b60208082528101610c0681614e8e565b81810381811115610c0657610c06614d99565b6000610c0682614a2b565b60148152600060208201732330b4b632b2103a379039b2b7321032ba3432b960611b81529150614a82565b60208082528101610c0681614eeb565b600a8152600060208201697a65726f2076616c756560b01b81529150614a82565b60208082528101610c0681614f26565b60608101614f658286613ec8565b614f726020830185613ec8565b61100e6040830184614a99565b602a81526000602082017f63616e742072656c6179206e617469766520746f6b656e20746f20737570706f815269393a32b2103a37b5b2b760b11b60208201529150613e56565b60208082528101610c0681614f7f565b60808082528101614fe78187614c43565b90508181036020830152614ffb818661457d565b9050818103604083015261500f8185614c81565b90506110586060830184613ec8565b60118152600060208201706c657373207468616e206d696e696d756d60781b81529150614a82565b60208082528101610c068161501e565b600c81526000602082016b7a65726f206164647265737360a01b81529150614a82565b60208082528101610c0681615056565b60408101615097828561492c565b611a06602083018461492c565b60138152600060208201721d1bdad95b881b9bdd081cdd5c1c1bdc9d1959606a1b81529150614a82565b60208082528101610c06816150a4565b601a81526000602082017f70726f706f73616c20616c726561647920636f6e6669726d656400000000000081529150614a82565b60208082528101610c06816150de565b60178152600060208201761c1c9bdc1bdcd85b081b9bdd081cdd58d8d95cdcd99d5b604a1b81529150614a82565b60208082528101610c0681615122565b6017815260006020820176476f7665726e6f723a20766f746520696e61637469766560481b81529150614a82565b60208082528101610c0681615160565b606081016151ac8286614a99565b6151b96020830185613ec8565b81810360408301526110588184614112565b608081016151d98287614a99565b6151e66020830186613ec8565b81810360408301526151f88185614112565b905081810360608301526117b18184614112565b602681526000602082017f71756f72756d4e756d657261746f72206f7665722071756f72756d44656e6f6d81526534b730ba37b960d11b60208201529150613e56565b60208082528101610c068161520c565b60118152600060208201706c657373207468616e204d696e696d756d60781b81529150614a82565b60208082528101610c068161525f565b60168152600060208201751c1c9bdc1bdcd85b081b9bdd0818dbdb999a5c9b595960521b81529150614a82565b60208082528101610c0681615297565b6014815260006020820173546f6b656e20616c72656164792065786973747360601b81529150614a82565b60208082528101610c06816152d4565b601081526000602082016f1c1c9bdc1bdcd85b08195e1c1a5c995960821b81529150614a82565b60208082528101610c068161530f565b6016815260006020820175141c9bdc1bdcd85b081b9bdd0818dbdb999a5c9b595960521b81529150614a82565b60208082528101610c0681615346565b60008161539257615392614d99565b506000190190565b8051610c06816149d1565b6000602082840312156153ba576153ba600080fd5b600061100e848461539a565b601a81526000602082017f546f6b656e20616c726561647920646f65736e7420657869737400000000000081529150614a82565b60208082528101610c06816153c6565b634e487b7160e01b600052603160045260246000fd5b60088152600060208201676e6f742d6c69766560c01b81529150614a82565b60208082528101610c0681615420565b60408101614dd0828561492c565b602881526000602082017f476f7665726e6f723a2070726f706f73657220766f7465732062656c6f7720748152671a1c995cda1bdb1960c21b60208201529150613e56565b60208082528101610c068161545d565b6017815260006020820176141c9bdc1bdcd95c881a5cc8189b1858dadb1a5cdd1959604a1b81529150614a82565b60208082528101610c06816154b2565b602181526000602082017f476f7665726e6f723a20696e76616c69642070726f706f73616c206c656e67748152600d60fb1b60208201529150613e56565b60208082528101610c06816154f0565b601881526000602082017711dbdd995c9b9bdc8e88195b5c1d1e481c1c9bdc1bdcd85b60421b81529150614a82565b60208082528101610c068161553e565b601b81526000602082017f476f7665726e6f723a206d617820746172676574206c656e677468000000000081529150614a82565b60208082528101610c068161557d565b602181526000602082017f476f7665726e6f723a2070726f706f73616c20616c72656164792065786973748152607360f81b60208201529150613e56565b60208082528101610c06816155c1565b6001600160401b03918216919081169082820190811115610c0657610c06614d99565b61563b83614cda565b81546008840282811b60001990911b908116901990911617825550505050565b6000612d68818484615632565b818110156156835761567b60008261565b565b600101615668565b5050565b601f821115612d68576000818152602090206020601f850104810160208510156156ae5750805b6127096020601f860104830182615668565b81516001600160401b038111156156d9576156d9613f01565b6156e38254614b4f565b6156ee828285615687565b6020601f831160018114615722576000841561570a5750858201515b600019600886021c1981166002860217865550612121565b600085815260208120601f198616915b828110156157525788850151825560209485019460019092019101615732565b8683101561576e5784890151600019601f89166008021c191682555b600160028802018855505050505050505050565b6000610c06614a2b6001600160401b03841681565b613eb481615782565b60c080825281016157b18189614c43565b905081810360208301526157c5818861457d565b905081810360408301526157d98187614400565b905081810360608301526157ed8186614c81565b90506157fc6080830185615797565b81810360a083015261580e8184614112565b98975050505050505050565b602781526000602082017f476f7665726e6f7253657474696e67733a20766f74696e6720706572696f6420815266746f6f206c6f7760c81b60208201529150613e56565b60208082528101610c068161581a565b603a81526000602082017f5f73657450726f706f73616c5468726573686f6c643a205468726573686f6c6481527f20666f722070726f706f73616c2063616e74206265207a65726f00000000000060208201529150613e56565b60208082528101610c068161586e565b60008160001904831182151516156158f2576158f2614d99565b500290565b634e487b7160e01b600052601260045260246000fd5b60008261591c5761591c6158f7565b500490565b61190160f01b815260020160006159388285613ec8565b6020820191506159488284613ec8565b5060200192915050565b608081016159608287613ec8565b61596d6020830186614a99565b61597a6040830185613ec8565b6110586060830184613ec8565b601881526000602082017745434453413a20696e76616c6964207369676e617475726560401b81529150614a82565b60208082528101610c0681615987565b601f81526000602082017f45434453413a20696e76616c6964207369676e6174757265206c656e6774680081529150614a82565b60208082528101610c06816159c6565b602281526000602082017f45434453413a20696e76616c6964207369676e6174757265202773272076616c815261756560f01b60208201529150613e56565b60208082528101610c0681615a0a565b602281526000602082017f45434453413a20696e76616c6964207369676e6174757265202776272076616c815261756560f01b60208201529150613e56565b60208082528101610c0681615a59565b602781526000602082017f476f7665726e6f72566f74696e6753696d706c653a20766f746520616c726561815266191e4818d85cdd60ca1b60208201529150613e56565b60208082528101610c0681615aa8565b603581526000602082017f476f7665726e6f72566f74696e6753696d706c653a20696e76616c69642076618152746c756520666f7220656e756d20566f74655479706560581b60208201529150613e56565b60208082528101610c0681615afc565b601081526000602082016f185b1c9958591e48195e1958dd5d195960821b81529150614a82565b60208082528101610c0681615b5e565b600082615ba457615ba46158f7565b500690565b601d81526000602082017f476f7665726e6f723a20756e6b6e6f776e2070726f706f73616c20696400000081529150614a82565b60208082528101610c0681615ba9565b602a81526000602082017f5361666545524332303a204552433230206f7065726174696f6e20646964206e8152691bdd081cdd58d8d9595960b21b60208201529150613e56565b60208082528101610c0681615bed565b602381526000602082017f43616e207375626d6974206f6e6c79206166746572206365727461696e2064658152626c617960e81b60208201529150613e56565b60208082528101610c0681615c44565b602681526000602082017f53616665436173743a2076616c756520646f65736e27742066697420696e203681526534206269747360d01b60208201529150613e56565b60208082528101610c0681615c94565b60a08101615cf58288613ec8565b615d026020830187613ec8565b615d0f6040830186613ec8565b615d1c6060830185613ec8565b6117b1608083018461492c565b601d81526000602082017f476f7665726e6f723a2070726f706f73616c206e6f742061637469766500000081529150614a82565b60208082528101610c0681615d29565b601d81526000602082017f416464726573733a2063616c6c20746f206e6f6e2d636f6e747261637400000081529150614a82565b60208082528101610c0681615d6d565b6000615dbb825190565b615dc98185602086016140ee565b9290920192915050565b6000611a068284615db156fea26469706673582212207f2a05e93fac4f2b04c70bec6a7b2b82f97ce33340b288dadcc72a84fc41c76b64736f6c63430008100033",
  "immutableReferences": {
    "5681": [
      {
        "length": 32,
        "start": 13340
      }
    ],
    "5683": [
      {
        "length": 32,
        "start": 13298
      }
    ],
    "5685": [
      {
        "length": 32,
        "start": 13256
      }
    ],
    "5687": [
      {
        "length": 32,
        "start": 13412
      }
    ],
    "5689": [
      {
        "length": 32,
        "start": 13445
      }
    ],
    "5691": [
      {
        "length": 32,
        "start": 13379
      }
    ],
    "14441": [
      {
        "length": 32,
        "start": 2995
      },
      {
        "length": 32,
        "start": 12540
      },
      {
        "length": 32,
        "start": 13025
      }
    ]
  },
  "source": "// SPDX-License-Identifier: MIT\n// Copyright Fathom 2022\n\npragma solidity 0.8.16;\n\nimport \"./Governor.sol\";\nimport \"./extensions/GovernorSettings.sol\";\nimport \"./extensions/GovernorCountingSimple.sol\";\nimport \"./extensions/GovernorVotes.sol\";\nimport \"./extensions/GovernorVotesQuorumFraction.sol\";\nimport \"./extensions/GovernorTimelockControl.sol\";\nimport \"../tokens/ERC20/IERC20.sol\";\nimport \"../../common/SafeERC20.sol\";\n\ncontract MainTokenGovernor is\n    Governor,\n    GovernorSettings,\n    GovernorCountingSimple,\n    GovernorVotes,\n    GovernorVotesQuorumFraction,\n    GovernorTimelockControl\n{\n    using SafeERC20 for IERC20;\n    mapping(address => bool) public isSupportedToken;\n    address[] public listOfSupportedTokens;\n\n    constructor(\n        IVotes _token,\n        TimelockController _timelock,\n        address _multiSig,\n        uint256 _initialVotingDelay,\n        uint256 _votingPeriod,\n        uint256 _initialProposalThreshold,\n        uint256 _proposalTimeDelay,\n        uint256 _proposalLifetime\n    )\n        Governor(\"MainTokenGovernor\", _multiSig, 20, _proposalTimeDelay,_proposalLifetime)\n        GovernorSettings(_initialVotingDelay, _votingPeriod, _initialProposalThreshold)\n        GovernorVotes(_token)\n        GovernorVotesQuorumFraction(4)\n        GovernorTimelockControl(_timelock)\n    {}\n\n    function propose(\n        address[] memory targets,\n        uint256[] memory values,\n        bytes[] memory calldatas,\n        string memory description\n    ) public override(Governor, IGovernor) returns (uint256) {\n        return super.propose(targets, values, calldatas, description);\n    }\n    /**\n     * @dev Cancelling of proposal can be done only through Multisig\n     */\n    function cancelProposal(\n        address[] memory targets,\n        uint256[] memory values,\n        bytes[] memory calldatas,\n        bytes32 descriptionHash\n    ) public override onlyMultiSig returns (uint256) {\n        return _cancel(targets, values, calldatas, descriptionHash);\n    }\n\n    function proposalThreshold() public view override(Governor, GovernorSettings) returns (uint256) {\n        return super.proposalThreshold();\n    }\n\n    function supportsInterface(bytes4 interfaceId) public view override(Governor, GovernorTimelockControl) returns (bool) {\n        return super.supportsInterface(interfaceId);\n    }\n\n    function votingDelay() public view override(IGovernor, GovernorSettings) returns (uint256) {\n        return super.votingDelay();\n    }\n\n    function votingPeriod() public view override(IGovernor, GovernorSettings) returns (uint256) {\n        return super.votingPeriod();\n    }\n\n    function quorum(uint256 blockNumber) public view override(IGovernor, GovernorVotesQuorumFraction) returns (uint256) {\n        return super.quorum(blockNumber);\n    }\n\n    function state(uint256 proposalId) public view override(Governor, GovernorTimelockControl) returns (ProposalState) {\n        return super.state(proposalId);\n    }\n\n    /**\n     * @dev A multisig can stop this contract. Once stopped we will have to migrate.\n     *     Once this function is called, the contract cannot be made live again.\n     */\n    function emergencyStop() public onlyMultiSig{\n        _emergencyStop();\n        for(uint i = 0; i < listOfSupportedTokens.length;i++){\n            address _token = listOfSupportedTokens[i];\n            uint256 balanceInContract = IERC20(_token).balanceOf(address(this));\n            if(balanceInContract > 0){\n                IERC20(_token).safeTransfer(msg.sender, balanceInContract);\n            }  \n        }\n        if (address(this).balance > 0){\n            (bool sent,) =   msg.sender.call{ value: (address(this).balance) }(\"\");\n            require(sent, \"Failed to send ether\");\n        } \n    }\n    /**\n     * @dev Adds supporting tokens so that if there are tokens then it can be transferred\n     *     Only Governance is able to access this function.\n     *     It has to go through proposal and successful voting for execution.\n    */\n    function addSupportingToken(address _token) public onlyGovernance {\n        _addSupportedToken(_token);\n    }\n\n    /**\n     * @dev Removes supporting tokens\n     *      Only Governance is able to access this function.\n     *      It has to go through proposal and successful voting for execution.\n    */\n    function removeSupportingToken(address _token) public onlyGovernance {\n        _removeSupportingToken(_token);\n    }\n\n    function _addSupportedToken(address _token) internal {\n        require(!isSupportedToken[_token], \"Token already exists\");\n        isSupportedToken[_token] = true;\n        listOfSupportedTokens.push(_token);\n    }\n\n    function _removeSupportingToken(address _token) internal {\n        require(isSupportedToken[_token], \"Token already doesnt exist\");\n        isSupportedToken[_token] = false;\n        for (uint256 i = 0; i < listOfSupportedTokens.length; i++) {\n            if (listOfSupportedTokens[i] == _token) {\n                listOfSupportedTokens[i] = listOfSupportedTokens[listOfSupportedTokens.length - 1];\n                break;\n            }\n        }\n        listOfSupportedTokens.pop();\n    }\n    \n\n    /**\n     * @dev Relays a transaction or function call to an arbitrary target. In cases where the governance executor\n     * is some contract other than the governor itself, like when using a timelock, this function can be invoked\n     * in a governance proposal to recover tokens that was sent to the governor contract by mistake.\n     * Note that if the executor is simply the governor itself, use of `relay` is redundant.\n     */\n    function relayERC20(\n        address target,\n        bytes calldata data\n    ) external virtual onlyGovernance {\n        require(isSupportedToken[target], \"token not supported\");\n        (bool success, bytes memory returndata) = target.call(data);\n        Address.verifyCallResult(success, returndata, \"reverted without message\");\n    }\n\n    /**\n     * @dev Relays a transaction or function call to an arbitrary target. In cases where the governance executor\n     * is some contract other than the governor itself, like when using a timelock, this function can be invoked\n     * in a governance proposal to recover Ether that was sent to the governor contract by mistake.\n     * Note that if the executor is simply the governor itself, use of `relay` is redundant.\n     */\n    function relayNativeToken(\n        address target,\n        uint256 value,\n        bytes calldata data\n    ) external payable virtual onlyGovernance {\n        require(!isSupportedToken[target],\"cant relay native token to supported token\");\n        (bool success, bytes memory returndata) = target.call{ value: value }(data);\n        Address.verifyCallResult(success, returndata, \"reverted without message\");\n    }\n\n    function _execute(\n        uint256 proposalId,\n        address[] memory targets,\n        uint256[] memory values,\n        bytes[] memory calldatas,\n        bytes32 descriptionHash\n    ) internal override(Governor, GovernorTimelockControl) {\n        require(isConfirmed[proposalId], \"Proposal not confirmed\");\n        super._execute(proposalId, targets, values, calldatas, descriptionHash);\n    }\n\n    function _cancel(\n        address[] memory targets,\n        uint256[] memory values,\n        bytes[] memory calldatas,\n        bytes32 descriptionHash\n    ) internal override(Governor, GovernorTimelockControl) returns (uint256) {\n        return super._cancel(targets, values, calldatas, descriptionHash);\n    }\n\n    function _executor() internal view override(Governor, GovernorTimelockControl) returns (address) {\n        return super._executor();\n    }\n}\n",
  "sourcePath": "/Users/subiksinghshrestha/Documents/FATHOM/fathom-dao-smart-contracts/contracts/dao/governance/MainTokenGovernor.sol",
  "compiler": {
    "name": "solc",
    "version": "0.8.16+commit.07a7930e.Darwin.appleclang"
  },
  "schemaVersion": "3.4.10",
  "updatedAt": "2023-03-21T11:38:26.425Z",
  "devdoc": {
    "errors": {
      "Empty()": [
        {
          "details": "An operation (e.g. {front}) couldn't be completed due to the queue being empty."
        }
      ]
    },
    "kind": "dev",
    "methods": {
      "addSupportingToken(address)": {
        "details": "Adds supporting tokens so that if there are tokens then it can be transferred     Only Governance is able to access this function.     It has to go through proposal and successful voting for execution."
      },
      "cancelProposal(address[],uint256[],bytes[],bytes32)": {
        "details": "Cancelling of proposal can be done only through Multisig"
      },
      "confirmProposal(uint256)": {
        "details": "Only Multisig is able to confirm a proposal"
      },
      "emergencyStop()": {
        "details": "A multisig can stop this contract. Once stopped we will have to migrate.     Once this function is called, the contract cannot be made live again."
      },
      "hashProposal(address[],uint256[],bytes[],bytes32)": {
        "details": "A description of the possible `support` values for {castVote} and the way these votes are counted, meant to be consumed by UIs to show correct vote options and interpret the results. The string is a URL-encoded sequence of key-value pairs that each describe one aspect, for example `support=bravo&quorum=for,abstain`. There are 2 standard keys: `support` and `quorum`. - `support=bravo` refers to the vote options 0 = Against, 1 = For, 2 = Abstain, as in `GovernorBravo`. - `quorum=bravo` means that only For votes are counted towards quorum. - `quorum=for,abstain` means that both For and Abstain votes are counted towards quorum. If a counting module makes use of encoded `params`, it should  include this under a `params` key with a unique name that describes the behavior. For example: - `params=fractional` might refer to a scheme where votes are divided fractionally between for/against/abstain. - `params=erc721` might refer to a scheme where specific NFTs are delegated to vote. NOTE: The string can be decoded by the standard https://developer.mozilla.org/en-US/docs/Web/API/URLSearchParams[`URLSearchParams`] JavaScript class."
      },
      "relayERC20(address,bytes)": {
        "details": "Relays a transaction or function call to an arbitrary target. In cases where the governance executor is some contract other than the governor itself, like when using a timelock, this function can be invoked in a governance proposal to recover tokens that was sent to the governor contract by mistake. Note that if the executor is simply the governor itself, use of `relay` is redundant."
      },
      "relayNativeToken(address,uint256,bytes)": {
        "details": "Relays a transaction or function call to an arbitrary target. In cases where the governance executor is some contract other than the governor itself, like when using a timelock, this function can be invoked in a governance proposal to recover Ether that was sent to the governor contract by mistake. Note that if the executor is simply the governor itself, use of `relay` is redundant."
      },
      "removeSupportingToken(address)": {
        "details": "Removes supporting tokens      Only Governance is able to access this function.      It has to go through proposal and successful voting for execution."
      },
      "revokeConfirmation(uint256)": {
        "details": "Only Multisig is able to revoke a proposal confirmation"
      },
      "setBlacklistStatusForProposer(address,bool)": {
        "details": "Only Multisig can blacklist a an account or unblacklist an account"
      },
      "setProposalThreshold(uint256)": {
        "details": "Has to go through proposals and successful voting to update by Governance"
      },
      "setVotingDelay(uint256)": {
        "details": "Has to go through proposals and successful voting to update by Governance"
      },
      "setVotingPeriod(uint256)": {
        "details": "Has to go through proposals and successful voting to update by Governance"
      },
      "updateMaxTargets(uint256)": {
        "details": "Only Multisig can update"
      },
      "updateMultiSig(address)": {
        "details": "Only Multisig can update"
      },
      "updateProposalLifetime(uint256)": {
        "details": "Only Multisig can update"
      },
      "updateProposalTimeDelay(uint256)": {
        "details": "Only Multisig can update"
      },
      "updateQuorumNumerator(uint256)": {
        "details": "Changes the quorum numerator. Emits a {QuorumNumeratorUpdated} event. Requirements: - Must be called through a governance proposal. - New numerator must be smaller or equal to the denominator."
      }
    },
    "version": 1
  },
  "userdoc": {
    "kind": "user",
    "methods": {
      "queue(address[],uint256[],bytes[],bytes32)": {
        "notice": "The proposal must be confirmed by multisig before it can be queued"
      }
    },
    "version": 1
  }
}