{
  "_format": "hh-sol-artifact-1",
  "contractName": "PositionManager",
  "sourceName": "contracts/6.12/managers/PositionManager.sol",
  "abi": [
    {
      "inputs": [
        {
          "internalType": "address",
          "name": "_bookKeeper",
          "type": "address"
        },
        {
          "internalType": "address",
          "name": "_showStopper",
          "type": "address"
        }
      ],
      "stateMutability": "nonpayable",
      "type": "constructor"
    },
    {
      "anonymous": false,
      "inputs": [
        {
          "indexed": true,
          "internalType": "address",
          "name": "_caller",
          "type": "address"
        },
        {
          "indexed": true,
          "internalType": "uint256",
          "name": "_positionId",
          "type": "uint256"
        },
        {
          "indexed": false,
          "internalType": "address",
          "name": "_owner",
          "type": "address"
        },
        {
          "indexed": false,
          "internalType": "address",
          "name": "_user",
          "type": "address"
        },
        {
          "indexed": false,
          "internalType": "uint256",
          "name": "_ok",
          "type": "uint256"
        }
      ],
      "name": "LogAllowManagePosition",
      "type": "event"
    },
    {
      "anonymous": false,
      "inputs": [
        {
          "indexed": true,
          "internalType": "address",
          "name": "_caller",
          "type": "address"
        },
        {
          "indexed": false,
          "internalType": "address",
          "name": "_user",
          "type": "address"
        },
        {
          "indexed": false,
          "internalType": "uint256",
          "name": "_ok",
          "type": "uint256"
        }
      ],
      "name": "LogAllowMigratePosition",
      "type": "event"
    },
    {
      "anonymous": false,
      "inputs": [
        {
          "indexed": true,
          "internalType": "uint256",
          "name": "_positionId",
          "type": "uint256"
        },
        {
          "indexed": false,
          "internalType": "address",
          "name": "_source",
          "type": "address"
        },
        {
          "indexed": false,
          "internalType": "address",
          "name": "_destination",
          "type": "address"
        },
        {
          "indexed": false,
          "internalType": "uint256",
          "name": "_lockedCollateral",
          "type": "uint256"
        },
        {
          "indexed": false,
          "internalType": "uint256",
          "name": "_debtShare",
          "type": "uint256"
        }
      ],
      "name": "LogExportPosition",
      "type": "event"
    },
    {
      "anonymous": false,
      "inputs": [
        {
          "indexed": true,
          "internalType": "uint256",
          "name": "_positionId",
          "type": "uint256"
        },
        {
          "indexed": false,
          "internalType": "address",
          "name": "_source",
          "type": "address"
        },
        {
          "indexed": false,
          "internalType": "address",
          "name": "_destination",
          "type": "address"
        },
        {
          "indexed": false,
          "internalType": "uint256",
          "name": "_lockedCollateral",
          "type": "uint256"
        },
        {
          "indexed": false,
          "internalType": "uint256",
          "name": "_debtShare",
          "type": "uint256"
        }
      ],
      "name": "LogImportPosition",
      "type": "event"
    },
    {
      "anonymous": false,
      "inputs": [
        {
          "indexed": false,
          "internalType": "uint256",
          "name": "_sourceId",
          "type": "uint256"
        },
        {
          "indexed": false,
          "internalType": "uint256",
          "name": "_destinationId",
          "type": "uint256"
        },
        {
          "indexed": false,
          "internalType": "uint256",
          "name": "_lockedCollateral",
          "type": "uint256"
        },
        {
          "indexed": false,
          "internalType": "uint256",
          "name": "_debtShare",
          "type": "uint256"
        }
      ],
      "name": "LogMovePosition",
      "type": "event"
    },
    {
      "anonymous": false,
      "inputs": [
        {
          "indexed": true,
          "internalType": "address",
          "name": "_usr",
          "type": "address"
        },
        {
          "indexed": true,
          "internalType": "address",
          "name": "_own",
          "type": "address"
        },
        {
          "indexed": true,
          "internalType": "uint256",
          "name": "_positionId",
          "type": "uint256"
        }
      ],
      "name": "LogNewPosition",
      "type": "event"
    },
    {
      "inputs": [
        {
          "internalType": "uint256",
          "name": "_positionId",
          "type": "uint256"
        },
        {
          "internalType": "int256",
          "name": "_collateralValue",
          "type": "int256"
        },
        {
          "internalType": "int256",
          "name": "_debtShare",
          "type": "int256"
        },
        {
          "internalType": "address",
          "name": "_adapter",
          "type": "address"
        },
        {
          "internalType": "bytes",
          "name": "_data",
          "type": "bytes"
        }
      ],
      "name": "adjustPosition",
      "outputs": [],
      "stateMutability": "nonpayable",
      "type": "function"
    },
    {
      "inputs": [
        {
          "internalType": "uint256",
          "name": "_positionId",
          "type": "uint256"
        },
        {
          "internalType": "address",
          "name": "_user",
          "type": "address"
        },
        {
          "internalType": "uint256",
          "name": "_ok",
          "type": "uint256"
        }
      ],
      "name": "allowManagePosition",
      "outputs": [],
      "stateMutability": "nonpayable",
      "type": "function"
    },
    {
      "inputs": [
        {
          "internalType": "address",
          "name": "_user",
          "type": "address"
        },
        {
          "internalType": "uint256",
          "name": "_ok",
          "type": "uint256"
        }
      ],
      "name": "allowMigratePosition",
      "outputs": [],
      "stateMutability": "nonpayable",
      "type": "function"
    },
    {
      "inputs": [],
      "name": "bookKeeper",
      "outputs": [
        {
          "internalType": "address",
          "name": "",
          "type": "address"
        }
      ],
      "stateMutability": "view",
      "type": "function"
    },
    {
      "inputs": [
        {
          "internalType": "uint256",
          "name": "",
          "type": "uint256"
        }
      ],
      "name": "collateralPools",
      "outputs": [
        {
          "internalType": "bytes32",
          "name": "",
          "type": "bytes32"
        }
      ],
      "stateMutability": "view",
      "type": "function"
    },
    {
      "inputs": [
        {
          "internalType": "uint256",
          "name": "_positionId",
          "type": "uint256"
        },
        {
          "internalType": "address",
          "name": "_destination",
          "type": "address"
        }
      ],
      "name": "exportPosition",
      "outputs": [],
      "stateMutability": "nonpayable",
      "type": "function"
    },
    {
      "inputs": [
        {
          "internalType": "uint256",
          "name": "_positionId",
          "type": "uint256"
        },
        {
          "internalType": "address",
          "name": "_destination",
          "type": "address"
        }
      ],
      "name": "give",
      "outputs": [],
      "stateMutability": "nonpayable",
      "type": "function"
    },
    {
      "inputs": [
        {
          "internalType": "address",
          "name": "_source",
          "type": "address"
        },
        {
          "internalType": "uint256",
          "name": "_positionId",
          "type": "uint256"
        }
      ],
      "name": "importPosition",
      "outputs": [],
      "stateMutability": "nonpayable",
      "type": "function"
    },
    {
      "inputs": [],
      "name": "lastPositionId",
      "outputs": [
        {
          "internalType": "uint256",
          "name": "",
          "type": "uint256"
        }
      ],
      "stateMutability": "view",
      "type": "function"
    },
    {
      "inputs": [
        {
          "internalType": "uint256",
          "name": "",
          "type": "uint256"
        }
      ],
      "name": "list",
      "outputs": [
        {
          "internalType": "uint256",
          "name": "prev",
          "type": "uint256"
        },
        {
          "internalType": "uint256",
          "name": "next",
          "type": "uint256"
        }
      ],
      "stateMutability": "view",
      "type": "function"
    },
    {
      "inputs": [
        {
          "internalType": "address",
          "name": "",
          "type": "address"
        }
      ],
      "name": "mapPositionHandlerToOwner",
      "outputs": [
        {
          "internalType": "address",
          "name": "",
          "type": "address"
        }
      ],
      "stateMutability": "view",
      "type": "function"
    },
    {
      "inputs": [
        {
          "internalType": "address",
          "name": "",
          "type": "address"
        },
        {
          "internalType": "address",
          "name": "",
          "type": "address"
        }
      ],
      "name": "migrationWhitelist",
      "outputs": [
        {
          "internalType": "uint256",
          "name": "",
          "type": "uint256"
        }
      ],
      "stateMutability": "view",
      "type": "function"
    },
    {
      "inputs": [
        {
          "internalType": "uint256",
          "name": "_positionId",
          "type": "uint256"
        },
        {
          "internalType": "address",
          "name": "_destination",
          "type": "address"
        },
        {
          "internalType": "uint256",
          "name": "_wad",
          "type": "uint256"
        },
        {
          "internalType": "address",
          "name": "_adapter",
          "type": "address"
        },
        {
          "internalType": "bytes",
          "name": "_data",
          "type": "bytes"
        }
      ],
      "name": "moveCollateral",
      "outputs": [],
      "stateMutability": "nonpayable",
      "type": "function"
    },
    {
      "inputs": [
        {
          "internalType": "bytes32",
          "name": "_collateralPoolId",
          "type": "bytes32"
        },
        {
          "internalType": "uint256",
          "name": "_positionId",
          "type": "uint256"
        },
        {
          "internalType": "address",
          "name": "_destination",
          "type": "address"
        },
        {
          "internalType": "uint256",
          "name": "_wad",
          "type": "uint256"
        },
        {
          "internalType": "address",
          "name": "_adapter",
          "type": "address"
        },
        {
          "internalType": "bytes",
          "name": "_data",
          "type": "bytes"
        }
      ],
      "name": "moveCollateral",
      "outputs": [],
      "stateMutability": "nonpayable",
      "type": "function"
    },
    {
      "inputs": [
        {
          "internalType": "uint256",
          "name": "_sourceId",
          "type": "uint256"
        },
        {
          "internalType": "uint256",
          "name": "_destinationId",
          "type": "uint256"
        }
      ],
      "name": "movePosition",
      "outputs": [],
      "stateMutability": "nonpayable",
      "type": "function"
    },
    {
      "inputs": [
        {
          "internalType": "uint256",
          "name": "_positionId",
          "type": "uint256"
        },
        {
          "internalType": "address",
          "name": "_destination",
          "type": "address"
        },
        {
          "internalType": "uint256",
          "name": "_rad",
          "type": "uint256"
        }
      ],
      "name": "moveStablecoin",
      "outputs": [],
      "stateMutability": "nonpayable",
      "type": "function"
    },
    {
      "inputs": [
        {
          "internalType": "bytes32",
          "name": "_collateralPoolId",
          "type": "bytes32"
        },
        {
          "internalType": "address",
          "name": "_user",
          "type": "address"
        }
      ],
      "name": "open",
      "outputs": [
        {
          "internalType": "uint256",
          "name": "",
          "type": "uint256"
        }
      ],
      "stateMutability": "nonpayable",
      "type": "function"
    },
    {
      "inputs": [
        {
          "internalType": "address",
          "name": "",
          "type": "address"
        }
      ],
      "name": "ownerFirstPositionId",
      "outputs": [
        {
          "internalType": "uint256",
          "name": "",
          "type": "uint256"
        }
      ],
      "stateMutability": "view",
      "type": "function"
    },
    {
      "inputs": [
        {
          "internalType": "address",
          "name": "",
          "type": "address"
        }
      ],
      "name": "ownerLastPositionId",
      "outputs": [
        {
          "internalType": "uint256",
          "name": "",
          "type": "uint256"
        }
      ],
      "stateMutability": "view",
      "type": "function"
    },
    {
      "inputs": [
        {
          "internalType": "address",
          "name": "",
          "type": "address"
        }
      ],
      "name": "ownerPositionCount",
      "outputs": [
        {
          "internalType": "uint256",
          "name": "",
          "type": "uint256"
        }
      ],
      "stateMutability": "view",
      "type": "function"
    },
    {
      "inputs": [
        {
          "internalType": "address",
          "name": "",
          "type": "address"
        },
        {
          "internalType": "uint256",
          "name": "",
          "type": "uint256"
        },
        {
          "internalType": "address",
          "name": "",
          "type": "address"
        }
      ],
      "name": "ownerWhitelist",
      "outputs": [
        {
          "internalType": "uint256",
          "name": "",
          "type": "uint256"
        }
      ],
      "stateMutability": "view",
      "type": "function"
    },
    {
      "inputs": [
        {
          "internalType": "uint256",
          "name": "",
          "type": "uint256"
        }
      ],
      "name": "owners",
      "outputs": [
        {
          "internalType": "address",
          "name": "",
          "type": "address"
        }
      ],
      "stateMutability": "view",
      "type": "function"
    },
    {
      "inputs": [
        {
          "internalType": "uint256",
          "name": "",
          "type": "uint256"
        }
      ],
      "name": "positions",
      "outputs": [
        {
          "internalType": "address",
          "name": "",
          "type": "address"
        }
      ],
      "stateMutability": "view",
      "type": "function"
    },
    {
      "inputs": [
        {
          "internalType": "uint256",
          "name": "_posId",
          "type": "uint256"
        },
        {
          "internalType": "address",
          "name": "_adapter",
          "type": "address"
        },
        {
          "internalType": "address",
          "name": "_collateralReceiver",
          "type": "address"
        },
        {
          "internalType": "bytes",
          "name": "_data",
          "type": "bytes"
        }
      ],
      "name": "redeemLockedCollateral",
      "outputs": [],
      "stateMutability": "nonpayable",
      "type": "function"
    },
    {
      "inputs": [],
      "name": "showStopper",
      "outputs": [
        {
          "internalType": "address",
          "name": "",
          "type": "address"
        }
      ],
      "stateMutability": "view",
      "type": "function"
    }
  ],
  "bytecode": "0x60806040523480156200001157600080fd5b5060405162002bd738038062002bd783398101604081905262000034916200016d565b816001600160a01b0316636f3a3bfc6040518163ffffffff1660e01b815260040160206040518083038186803b1580156200006e57600080fd5b505afa15801562000083573d6000803e3d6000fd5b505050506040513d601f19601f82011682018060405250810190620000a99190620001ab565b50816000806101000a8154816001600160a01b0302191690836001600160a01b03160217905550806001600160a01b031663957aa58c6040518163ffffffff1660e01b815260040160206040518083038186803b1580156200010a57600080fd5b505afa1580156200011f573d6000803e3d6000fd5b505050506040513d601f19601f82011682018060405250810190620001459190620001ab565b50600180546001600160a01b0319166001600160a01b039290921691909117905550620001dd565b6000806040838503121562000180578182fd5b82516200018d81620001c4565b6020840151909250620001a081620001c4565b809150509250929050565b600060208284031215620001bd578081fd5b5051919050565b6001600160a01b0381168114620001da57600080fd5b50565b6129ea80620001ed6000396000f3fe60806040523480156200001157600080fd5b5060043610620001965760003560e01c8063757bbd8911620000f3578063ba9a392511620000a5578063e3b3932a116200007b578063e3b3932a146200039d578063e798401a14620003a7578063e93cb1b914620003be578063fcafcc6814620003d55762000196565b8063ba9a39251462000358578063bbc26b84146200036f578063c69937e814620003865762000196565b8063757bbd8914620002be57806380c9419e14620002d55780638876e58914620002fc578063997cc90f146200031357806399fbab88146200032a578063a3cf2f4f14620003415762000196565b8063571dbb79116200014d578063571dbb7914620002415780635835450214620002585780636090dec514620002625780636707f3de14620002795780636bd2c56514620002905780636dbe4ef214620002a75762000196565b8063025e7c27146200019b5780630599bb3114620001ca57806319202b7914620001d45780632309463914620001ed57806346db0f3314620002045780634afa7271146200022a575b600080fd5b620001b2620001ac3660046200223d565b620003ec565b604051620001c191906200244f565b60405180910390f35b620001b262000407565b620001eb620001e5366004620023a4565b62000416565b005b620001eb620001fe36600462002116565b6200059c565b6200021b62000215366004620020d9565b620009b4565b604051620001c19190620025cc565b6200021b6200023b36600462002094565b620009d1565b620001eb6200025236600462002322565b620009e3565b6200021b62000b69565b6200021b620002733660046200218a565b62000b6f565b620001b26200028a36600462002094565b62000ea6565b620001eb620002a13660046200226f565b62000ec1565b6200021b620002b83660046200223d565b62000f95565b620001eb620002cf366004620021b1565b62000fa7565b620002ec620002e63660046200223d565b620010e7565b604051620001c192919062002897565b620001eb6200030d366004620022e8565b62001100565b6200021b6200032436600462002144565b6200120b565b620001b26200033b3660046200223d565b6200122e565b620001eb62000352366004620023df565b62001249565b620001eb620003693660046200218a565b620016be565b6200021b6200038036600462002094565b62001ad5565b620001eb62000397366004620022e8565b62001ae7565b620001b262001be2565b620001eb620003b836600462002116565b62001bf1565b6200021b620003cf36600462002094565b62001c57565b620001eb620003e63660046200218a565b62001c69565b6005602052600090815260409020546001600160a01b031681565b6001546001600160a01b031681565b60008681526005602052604090205486906001600160a01b03163314806200047257506000818152600560209081526040808320546001600160a01b03168352600b825280832084845282528083203384529091529020546001145b6200049a5760405162461bcd60e51b81526004016200049190620026b2565b60405180910390fd5b6000878152600360209081526040808320548354600790935292819020549051632b5eaca560e11b81526001600160a01b0393841693909216916356bd594a91620004f2918590819081908e908e90600401620025ec565b600060405180830381600087803b1580156200050d57600080fd5b505af115801562000522573d6000803e3d6000fd5b5050604051637bbe201b60e11b81526001600160a01b038816925063f77c403691506200055e90849081908c908c908b908b9060040162002463565b600060405180830381600087803b1580156200057957600080fd5b505af11580156200058e573d6000803e3d6000fd5b505050505050505050505050565b81336001600160a01b0382161480620005d857506001600160a01b0381166000908152600c602090815260408083203384529091529020546001145b620005f75760405162461bcd60e51b815260040162000491906200270c565b60008281526005602052604090205482906001600160a01b03163314806200065357506000818152600560209081526040808320546001600160a01b03168352600b825280832084845282528083203384529091529020546001145b620006725760405162461bcd60e51b81526004016200049190620026b2565b6000805484825260076020526040808320549051630a76216560e21b815283926001600160a01b0316916329d8859491620006b391908a90600401620025d5565b604080518083038186803b158015620006cb57600080fd5b505afa158015620006e0573d6000803e3d6000fd5b505050506040513d601f19601f8201168201806040525081019062000706919062002401565b60008054888252600760209081526040808420546003909252909220549395509193506001600160a01b03918216926303ab9076928a9116620007498762001fc7565b620007548762001fc7565b6040518663ffffffff1660e01b81526004016200077695949392919062002621565b600060405180830381600087803b1580156200079157600080fd5b505af1158015620007a6573d6000803e3d6000fd5b5050505060008060009054906101000a90046001600160a01b03166001600160a01b031663d86824616040518163ffffffff1660e01b815260040160206040518083038186803b158015620007fa57600080fd5b505afa1580156200080f573d6000803e3d6000fd5b505050506040513d601f19601f82011682018060405250810190620008359190620020ba565b60008781526007602052604080822054905163104e5c2760e31b815292935090916001600160a01b03841691638272e13891620008769190600401620025cc565b60206040518083038186803b1580156200088f57600080fd5b505afa158015620008a4573d6000803e3d6000fd5b505050506040513d601f19601f82011682018060405250810190620008ca9190620020ba565b600088815260036020908152604080832054815193845291830190819052634ca21b0b60e11b90529192506001600160a01b03808416926399443616926200091c928d92169088906024810162002511565b600060405180830381600087803b1580156200093757600080fd5b505af11580156200094c573d6000803e3d6000fd5b505050600088815260036020526040908190205490518992507f8f84d9a3c1dcda9a9ef0437655c515e92607e70633429aec289df8caa72470ce91620009a2918c916001600160a01b031690899089906200258a565b60405180910390a25050505050505050565b600c60209081526000928352604080842090915290825290205481565b600a6020526000908152604090205481565b60008681526005602052604090205486906001600160a01b031633148062000a3f57506000818152600560209081526040808320546001600160a01b03168352600b825280832084845282528083203384529091529020546001145b62000a5e5760405162461bcd60e51b81526004016200049190620026b2565b600080548882526007602090815260408084205460039092529283902054925163b5d9932960e01b81526001600160a01b039283169363b5d993299362000ab093929116908b908b9060040162002650565b600060405180830381600087803b15801562000acb57600080fd5b505af115801562000ae0573d6000803e3d6000fd5b50505060008881526003602052604090819020549051634ca21b0b60e11b81526001600160a01b03808816935063994436169262000b2c929116908a908a9089908990600401620024d0565b600060405180830381600087803b15801562000b4757600080fd5b505af115801562000b5c573d6000803e3d6000fd5b5050505050505050505050565b60025481565b60006001600160a01b03821662000b9a5760405162461bcd60e51b81526004016200049190620027c8565b60008060009054906101000a90046001600160a01b03166001600160a01b031663d86824616040518163ffffffff1660e01b815260040160206040518083038186803b15801562000bea57600080fd5b505afa15801562000bff573d6000803e3d6000fd5b505050506040513d601f19601f8201168201806040525081019062000c259190620020ba565b6001600160a01b031663a09b0fe0856040518263ffffffff1660e01b815260040162000c529190620025cc565b60206040518083038186803b15801562000c6b57600080fd5b505afa15801562000c80573d6000803e3d6000fd5b505050506040513d601f19601f8201168201806040525081019062000ca6919062002256565b90508062000cc85760405162461bcd60e51b81526004016200049190620027ff565b62000cd7600254600162001ff1565b6002556000546040516001600160a01b039091169062000cf7906200203d565b62000d0391906200244f565b604051809103906000f08015801562000d20573d6000803e3d6000fd5b5060028054600090815260036020818152604080842080546001600160a01b039788166001600160a01b031991821617909155855485526005835281852080548b89169083168117909155865486529383528185205490961684526006825280842080549096168317909555925482526007835283822088905581526008909152205462000dc5576002546001600160a01b0384166000908152600860205260409020555b6001600160a01b0383166000908152600960205260409020541562000e1e576001600160a01b03831660009081526009602090815260408083205460028054855260049093528184208190559154918352909120600101555b6002546001600160a01b038416600090815260096020908152604080832093909355600a9052205462000e5390600162001ff1565b6001600160a01b0384166000818152600a602052604080822093909355600254925133917fcffce84160d2d740324298d4e6b1c061e3157511a32c8f2d297f8804da2aaa0291a450506002545b92915050565b6006602052600090815260409020546001600160a01b031681565b60008581526005602052604090205485906001600160a01b031633148062000f1d57506000818152600560209081526040808320546001600160a01b03168352600b825280832084845282528083203384529091529020546001145b62000f3c5760405162461bcd60e51b81526004016200049190620026b2565b600086815260036020908152604080832054600154600790935292819020549051635983633360e01b81526001600160a01b03938416939092169163598363339162000b2c918a9086908b908b908b9060040162002675565b60076020526000908152604090205481565b60008681526005602052604090205486906001600160a01b03163314806200100357506000818152600560209081526040808320546001600160a01b03168352600b825280832084845282528083203384529091529020546001145b620010225760405162461bcd60e51b81526004016200049190620026b2565b60008054888252600360205260409182902054915163b5d9932960e01b81526001600160a01b039182169263b5d99329926200106b928d92909116908b908b9060040162002650565b600060405180830381600087803b1580156200108657600080fd5b505af11580156200109b573d6000803e3d6000fd5b50505060008881526003602052604090819020549051634ca21b0b60e11b81526001600160a01b0380881693506399443616926200055e929116908a908a9089908990600401620024d0565b6004602052600090815260409020805460019091015482565b60008381526005602052604090205483906001600160a01b03163314806200115c57506000818152600560209081526040808320546001600160a01b03168352600b825280832084845282528083203384529091529020546001145b6200117b5760405162461bcd60e51b81526004016200049190620026b2565b600084815260056020818152604080842080546001600160a01b039081168652600b84528286208a8752845282862089821687528452828620889055948990529290915290549051869233927f5f5a0a2dbd424d1b1a3d314b96d4695238505e727a59f0175eb23cec25243ded92620011fd92919091169088908890620024ac565b60405180910390a350505050565b600b60209081526000938452604080852082529284528284209052825290205481565b6003602052600090815260409020546001600160a01b031681565b60008281526005602052604090205482906001600160a01b0316331480620012a557506000818152600560209081526040808320546001600160a01b03168352600b825280832084845282528083203384529091529020546001145b620012c45760405162461bcd60e51b81526004016200049190620026b2565b60008281526005602052604090205482906001600160a01b03163314806200132057506000818152600560209081526040808320546001600160a01b03168352600b825280832084845282528083203384529091529020546001145b6200133f5760405162461bcd60e51b81526004016200049190620026b2565b6000838152600760205260408082205486835291205414620013755760405162461bcd60e51b81526004016200049190620026dd565b60008054858252600760209081526040808420546003909252808420549051630a76216560e21b815284936001600160a01b03908116936329d8859493620013c49391921690600401620025d5565b604080518083038186803b158015620013dc57600080fd5b505afa158015620013f1573d6000803e3d6000fd5b505050506040513d601f19601f8201168201806040525081019062001417919062002401565b60008054898252600760209081526040808420546003909252808420548b85529320549496509294506001600160a01b03908116936303ab9076939282169116620014628762001fc7565b6200146d8762001fc7565b6040518663ffffffff1660e01b81526004016200148f95949392919062002621565b600060405180830381600087803b158015620014aa57600080fd5b505af1158015620014bf573d6000803e3d6000fd5b5050505060008060009054906101000a90046001600160a01b03166001600160a01b031663d86824616040518163ffffffff1660e01b815260040160206040518083038186803b1580156200151357600080fd5b505afa15801562001528573d6000803e3d6000fd5b505050506040513d601f19601f820116820180604052508101906200154e9190620020ba565b60008881526007602052604080822054905163104e5c2760e31b815292935090916001600160a01b03841691638272e138916200158f9190600401620025cc565b60206040518083038186803b158015620015a857600080fd5b505afa158015620015bd573d6000803e3d6000fd5b505050506040513d601f19601f82011682018060405250810190620015e39190620020ba565b6000898152600360209081526040808320548b845281842054825194855292840191829052634ca21b0b60e11b9091529293506001600160a01b03808516936399443616936200164193918316929091169088906024810162002511565b600060405180830381600087803b1580156200165c57600080fd5b505af115801562001671573d6000803e3d6000fd5b505050507f4b1ecfa0f8f07da7f1cb8dae71f6346ef26c65f8eda2bf59aa5e79422b921b8b88888686604051620016ac9493929190620028a5565b60405180910390a15050505050505050565b60008281526005602052604090205482906001600160a01b03163314806200171a57506000818152600560209081526040808320546001600160a01b03168352600b825280832084845282528083203384529091529020546001145b620017395760405162461bcd60e51b81526004016200049190620026b2565b81336001600160a01b03821614806200177557506001600160a01b0381166000908152600c602090815260408083203384529091529020546001145b620017945760405162461bcd60e51b815260040162000491906200270c565b60008054858252600760209081526040808420546003909252808420549051630a76216560e21b815284936001600160a01b03908116936329d8859493620017e39391921690600401620025d5565b604080518083038186803b158015620017fb57600080fd5b505afa15801562001810573d6000803e3d6000fd5b505050506040513d601f19601f8201168201806040525081019062001836919062002401565b60008054898252600760209081526040808420546003909252909220549395509193506001600160a01b03918216926303ab9076921688620018788762001fc7565b620018838762001fc7565b6040518663ffffffff1660e01b8152600401620018a595949392919062002621565b600060405180830381600087803b158015620018c057600080fd5b505af1158015620018d5573d6000803e3d6000fd5b5050505060008060009054906101000a90046001600160a01b03166001600160a01b031663d86824616040518163ffffffff1660e01b815260040160206040518083038186803b1580156200192957600080fd5b505afa1580156200193e573d6000803e3d6000fd5b505050506040513d601f19601f82011682018060405250810190620019649190620020ba565b60008881526007602052604080822054905163104e5c2760e31b815292935090916001600160a01b03841691638272e13891620019a59190600401620025cc565b60206040518083038186803b158015620019be57600080fd5b505afa158015620019d3573d6000803e3d6000fd5b505050506040513d601f19601f82011682018060405250810190620019f99190620020ba565b600089815260036020908152604080832054815193845291830190819052634ca21b0b60e11b90529192506001600160a01b038084169263994436169262001a4d92909116908b9088906024810162002511565b600060405180830381600087803b15801562001a6857600080fd5b505af115801562001a7d573d6000803e3d6000fd5b505050600089815260036020526040908190205490518a92507ffc977cd1d8af796c27d4af8d24539074eb8c7a4af3d82391622fa1b3827b4f2d91620009a2916001600160a01b03909116908b90899089906200258a565b60096020526000908152604090205481565b60008381526005602052604090205483906001600160a01b031633148062001b4357506000818152600560209081526040808320546001600160a01b03168352600b825280832084845282528083203384529091529020546001145b62001b625760405162461bcd60e51b81526004016200049190620026b2565b6000805485825260036020526040918290205491516323055e1560e21b81526001600160a01b0391821692638c1578549262001ba89291169087908790600401620024ac565b600060405180830381600087803b15801562001bc357600080fd5b505af115801562001bd8573d6000803e3d6000fd5b5050505050505050565b6000546001600160a01b031681565b336000818152600c602090815260408083206001600160a01b038716845290915290819020839055517fa24170a98d11e6e8f73a24acb1354b153b2b2315485d4d32baa8f47e5dbf66289062001c4b9085908590620025b3565b60405180910390a25050565b60086020526000908152604090205481565b60008281526005602052604090205482906001600160a01b031633148062001cc557506000818152600560209081526040808320546001600160a01b03168352600b825280832084845282528083203384529091529020546001145b62001ce45760405162461bcd60e51b81526004016200049190620026b2565b6001600160a01b03821662001d0d5760405162461bcd60e51b815260040162000491906200273b565b6000838152600560205260409020546001600160a01b038381169116141562001d4a5760405162461bcd60e51b8152600401620004919062002791565b6000838152600460205260409020541562001d7f57600083815260046020526040808220600180820154915484529190922001555b6000838152600460205260409020600101541562001db9576000838152600460205260408082208054600190910154835291205562001de8565b60008381526004602090815260408083205460058352818420546001600160a01b031684526009909252909120555b6000838152600560209081526040808320546001600160a01b03168352600890915290205483141562001e475760008381526004602090815260408083206001015460058352818420546001600160a01b031684526008909252909120555b6000838152600560209081526040808320546001600160a01b03168352600a90915290205462001e7990600162002017565b600084815260056020908152604080832080546001600160a01b039081168552600a84528285209590955587845280548786166001600160a01b0319918216811790925560038452828520549095168452600683528184208054909516811790945583835260098083528184208054898652600485529285209283556001929092018490559390925291909152541562001f39576001600160a01b0382166000908152600960209081526040808320548352600490915290206001018390555b6001600160a01b03821660009081526008602052604090205462001f73576001600160a01b03821660009081526008602052604090208390555b6001600160a01b0382166000908152600960209081526040808320869055600a90915290205462001fa690600162001ff1565b6001600160a01b039092166000908152600a60205260409020919091555050565b80600081121562001fec5760405162461bcd60e51b815260040162000491906200286c565b919050565b8082018281101562000ea05760405162461bcd60e51b8152600401620004919062002846565b8082038281111562000ea05760405162461bcd60e51b815260040162000491906200276b565b60db80620028da83390190565b60008083601f8401126200205c578182fd5b50813567ffffffffffffffff81111562002074578182fd5b6020830191508360208285010111156200208d57600080fd5b9250929050565b600060208284031215620020a6578081fd5b8135620020b381620028c0565b9392505050565b600060208284031215620020cc578081fd5b8151620020b381620028c0565b60008060408385031215620020ec578081fd5b8235620020f981620028c0565b915060208301356200210b81620028c0565b809150509250929050565b6000806040838503121562002129578182fd5b82356200213681620028c0565b946020939093013593505050565b60008060006060848603121562002159578081fd5b83356200216681620028c0565b92506020840135915060408401356200217f81620028c0565b809150509250925092565b600080604083850312156200219d578182fd5b8235915060208301356200210b81620028c0565b600080600080600080600060c0888a031215620021cc578283fd5b87359650602088013595506040880135620021e781620028c0565b94506060880135935060808801356200220081620028c0565b925060a088013567ffffffffffffffff8111156200221c578283fd5b6200222a8a828b016200204a565b989b979a50959850939692959293505050565b6000602082840312156200224f578081fd5b5035919050565b60006020828403121562002268578081fd5b5051919050565b60008060008060006080868803121562002287578081fd5b8535945060208601356200229b81620028c0565b93506040860135620022ad81620028c0565b9250606086013567ffffffffffffffff811115620022c9578182fd5b620022d7888289016200204a565b969995985093965092949392505050565b600080600060608486031215620022fd578283fd5b8335925060208401356200231181620028c0565b929592945050506040919091013590565b60008060008060008060a087890312156200233b578182fd5b8635955060208701356200234f81620028c0565b94506040870135935060608701356200236881620028c0565b9250608087013567ffffffffffffffff81111562002384578283fd5b6200239289828a016200204a565b979a9699509497509295939492505050565b60008060008060008060a08789031215620023bd578384fd5b86359550602087013594506040870135935060608701356200236881620028c0565b60008060408385031215620023f2578182fd5b50508035926020909101359150565b6000806040838503121562002414578182fd5b505080516020909101519092909150565b60008284528282602086013780602084860101526020601f19601f85011685010190509392505050565b6001600160a01b0391909116815260200190565b6001600160a01b03878116825286166020820152604081018590526060810184905260a060808201819052600090620024a0908301848662002425565b98975050505050505050565b6001600160a01b039384168152919092166020820152604081019190915260600190565b6001600160a01b038681168252851660208201526040810184905260806060820181905260009062002506908301848662002425565b979650505050505050565b600060018060a01b0380871683526020818716818501528560408501526080606085015284519150816080850152825b828110156200255f5785810182015185820160a00152810162002541565b8281111562002571578360a084870101525b5050601f01601f19169190910160a00195945050505050565b6001600160a01b0394851681529290931660208301526040820152606081019190915260800190565b6001600160a01b03929092168252602082015260400190565b90815260200190565b9182526001600160a01b0316602082015260400190565b9586526001600160a01b039485166020870152928416604086015292166060840152608083019190915260a082015260c00190565b9485526001600160a01b0393841660208601529190921660408401526060830191909152608082015260a00190565b9384526001600160a01b03928316602085015291166040830152606082015260800190565b8681526001600160a01b03868116602083015285811660408301528416606082015260a060808201819052600090620024a0908301848662002425565b6020808252601190820152701bdddb995c881b9bdd08185b1b1bddd959607a1b604082015260600190565b602080825260159082015274085cd85b594818dbdb1b185d195c985b081c1bdbdb605a1b604082015260600190565b6020808252601590820152741b5a59dc985d1a5bdb881b9bdd08185b1b1bddd959605a1b604082015260600190565b60208082526016908201527564657374696e6174696f6e206164647265737328302960501b604082015260600190565b6020808252600c908201526b737562206f766572666c6f7760a01b604082015260600190565b60208082526019908201527f64657374696e6174696f6e20616c7265616479206f776e657200000000000000604082015260600190565b6020808252601f908201527f506f736974696f6e4d616e616765722f757365722d6164647265737328302900604082015260600190565b60208082526027908201527f506f736974696f6e4d616e616765722f636f6c6c61746572616c506f6f6c2d6e6040820152661bdd0b5a5b9a5d60ca1b606082015260800190565b6020808252600c908201526b616464206f766572666c6f7760a01b604082015260600190565b6020808252601190820152706d757374206e6f74206e6567617469766560781b604082015260600190565b918252602082015260400190565b93845260208401929092526040830152606082015260800190565b6001600160a01b0381168114620028d657600080fd5b5056fe6080604052348015600f57600080fd5b5060405160db38038060db83398181016040526020811015602f57600080fd5b505160408051634d8c928d60e11b815233600482015290516001600160a01b03831691639b19251a91602480830192600092919082900301818387803b158015607757600080fd5b505af1158015608a573d6000803e3d6000fd5b5050505050603f80609c6000396000f3fe6080604052600080fdfea26469706673582212208fb901d50ddbc77cd0b80b8664f090d37989857424de19b033d48713b91b72f164736f6c634300060c0033a26469706673582212208432776e22c3bb1c1439a340e25910e1c889a6828d6383d7c2755decca0a64ef64736f6c634300060c0033",
  "linkReferences": {},
  "deployedLinkReferences": {}
}