{
  "_format": "hh-sol-artifact-1",
  "contractName": "ProxyWallet",
  "sourceName": "contracts/6.12/proxy-wallet/ProxyWallet.sol",
  "abi": [
    {
      "inputs": [
        {
          "internalType": "address",
          "name": "_cacheAddr",
          "type": "address"
        }
      ],
      "stateMutability": "nonpayable",
      "type": "constructor"
    },
    {
      "anonymous": true,
      "inputs": [
        {
          "indexed": true,
          "internalType": "bytes4",
          "name": "sig",
          "type": "bytes4"
        },
        {
          "indexed": true,
          "internalType": "address",
          "name": "guy",
          "type": "address"
        },
        {
          "indexed": true,
          "internalType": "bytes32",
          "name": "foo",
          "type": "bytes32"
        },
        {
          "indexed": true,
          "internalType": "bytes32",
          "name": "bar",
          "type": "bytes32"
        },
        {
          "indexed": false,
          "internalType": "uint256",
          "name": "wad",
          "type": "uint256"
        },
        {
          "indexed": false,
          "internalType": "bytes",
          "name": "fax",
          "type": "bytes"
        }
      ],
      "name": "LogNote",
      "type": "event"
    },
    {
      "anonymous": false,
      "inputs": [
        {
          "indexed": true,
          "internalType": "address",
          "name": "_authority",
          "type": "address"
        }
      ],
      "name": "LogSetAuthority",
      "type": "event"
    },
    {
      "anonymous": false,
      "inputs": [
        {
          "indexed": true,
          "internalType": "address",
          "name": "_owner",
          "type": "address"
        }
      ],
      "name": "LogSetOwner",
      "type": "event"
    },
    {
      "inputs": [],
      "name": "authority",
      "outputs": [
        {
          "internalType": "contract IAuthority",
          "name": "",
          "type": "address"
        }
      ],
      "stateMutability": "view",
      "type": "function"
    },
    {
      "inputs": [],
      "name": "cache",
      "outputs": [
        {
          "internalType": "contract ProxyWalletCache",
          "name": "",
          "type": "address"
        }
      ],
      "stateMutability": "view",
      "type": "function"
    },
    {
      "inputs": [
        {
          "internalType": "bytes",
          "name": "_code",
          "type": "bytes"
        },
        {
          "internalType": "bytes",
          "name": "_data",
          "type": "bytes"
        }
      ],
      "name": "execute",
      "outputs": [
        {
          "internalType": "address",
          "name": "_target",
          "type": "address"
        },
        {
          "internalType": "bytes",
          "name": "_response",
          "type": "bytes"
        }
      ],
      "stateMutability": "payable",
      "type": "function"
    },
    {
      "inputs": [
        {
          "internalType": "address",
          "name": "_target",
          "type": "address"
        },
        {
          "internalType": "bytes",
          "name": "_data",
          "type": "bytes"
        }
      ],
      "name": "execute2",
      "outputs": [
        {
          "internalType": "bytes",
          "name": "_response",
          "type": "bytes"
        }
      ],
      "stateMutability": "payable",
      "type": "function"
    },
    {
      "inputs": [],
      "name": "owner",
      "outputs": [
        {
          "internalType": "address",
          "name": "",
          "type": "address"
        }
      ],
      "stateMutability": "view",
      "type": "function"
    },
    {
      "inputs": [
        {
          "internalType": "contract IAuthority",
          "name": "_authority",
          "type": "address"
        }
      ],
      "name": "setAuthority",
      "outputs": [],
      "stateMutability": "nonpayable",
      "type": "function"
    },
    {
      "inputs": [
        {
          "internalType": "address",
          "name": "_cacheAddr",
          "type": "address"
        }
      ],
      "name": "setCache",
      "outputs": [
        {
          "internalType": "bool",
          "name": "",
          "type": "bool"
        }
      ],
      "stateMutability": "nonpayable",
      "type": "function"
    },
    {
      "inputs": [
        {
          "internalType": "address",
          "name": "_owner",
          "type": "address"
        }
      ],
      "name": "setOwner",
      "outputs": [],
      "stateMutability": "nonpayable",
      "type": "function"
    },
    {
      "stateMutability": "payable",
      "type": "receive"
    }
  ],
  "bytecode": "0x608060405234801561001057600080fd5b50604051610edb380380610edb8339818101604052602081101561003357600080fd5b5051600180546001600160a01b031916339081179091556040517fce241d7ca1f669fee44b6fc00b8eba2df3bb514eed0f6f668f8f89096e81ed9490600090a261007c81610083565b50506102b4565b600061009a336001600160e01b03198335166101cb565b6100eb576040805162461bcd60e51b815260206004820152601860248201527f666174686f6d2d617574682d756e617574686f72697a65640000000000000000604482015290519081900360640190fd5b600435602435346001600160a01b0385166101375760405162461bcd60e51b8152600401808060200182810382526023815260200180610eb86023913960400191505060405180910390fd5b600280546001600160a01b0387166001600160a01b0319909116179055600193508183336001600160a01b03166000356001600160e01b0319166001600160e01b0319168460003660405180848152602001806020018281038252848482818152602001925080828437600083820152604051601f909101601f1916909201829003965090945050505050a4505050919050565b60006001600160a01b0383163014156101e6575060016102ae565b6001546001600160a01b0384811691161415610204575060016102ae565b6000546001600160a01b031661021c575060006102ae565b6000546040805163b700961360e01b81526001600160a01b0386811660048301523060248301526001600160e01b0319861660448301529151919092169163b7009613916064808301926020929190829003018186803b15801561027f57600080fd5b505afa158015610293573d6000803e3d6000fd5b505050506040513d60208110156102a957600080fd5b505190505b92915050565b610bf5806102c36000396000f3fe60806040526004361061007f5760003560e01c80637a9e5e4b1161004e5780637a9e5e4b146103d15780638da5cb5b14610404578063948f507614610419578063bf7e214f1461046057610086565b806313af40351461008b5780631f6a1eb9146100c05780632282ccf81461027557806360c7d295146103a057610086565b3661008657005b600080fd5b34801561009757600080fd5b506100be600480360360208110156100ae57600080fd5b50356001600160a01b0316610475565b005b6101ed600480360360408110156100d657600080fd5b8101906020810181356401000000008111156100f157600080fd5b82018360208201111561010357600080fd5b8035906020019184600183028401116401000000008311171561012557600080fd5b91908080601f016020809104026020016040519081016040528093929190818152602001838380828437600092019190915250929594936020810193503591505064010000000081111561017857600080fd5b82018360208201111561018a57600080fd5b803590602001918460018302840111640100000000831117156101ac57600080fd5b91908080601f016020809104026020016040519081016040528093929190818152602001838380828437600092019190915250929550610527945050505050565b60405180836001600160a01b0316815260200180602001828103825283818151815260200191508051906020019080838360005b83811015610239578181015183820152602001610221565b50505050905090810190601f1680156102665780820380516001836020036101000a031916815260200191505b50935050505060405180910390f35b61032b6004803603604081101561028b57600080fd5b6001600160a01b0382351691908101906040810160208201356401000000008111156102b657600080fd5b8201836020820111156102c857600080fd5b803590602001918460018302840111640100000000831117156102ea57600080fd5b91908080601f016020809104026020016040519081016040528093929190818152602001838380828437600092019190915250929550610702945050505050565b6040805160208082528351818301528351919283929083019185019080838360005b8381101561036557818101518382015260200161034d565b50505050905090810190601f1680156103925780820380516001836020036101000a031916815260200191505b509250505060405180910390f35b3480156103ac57600080fd5b506103b5610870565b604080516001600160a01b039092168252519081900360200190f35b3480156103dd57600080fd5b506100be600480360360208110156103f457600080fd5b50356001600160a01b031661087f565b34801561041057600080fd5b506103b561092d565b34801561042557600080fd5b5061044c6004803603602081101561043c57600080fd5b50356001600160a01b031661093c565b604080519115158252519081900360200190f35b34801561046c57600080fd5b506103b5610a80565b61048b336000356001600160e01b031916610a8f565b6104d7576040805162461bcd60e51b815260206004820152601860248201527719985d1a1bdb4b585d5d1a0b5d5b985d5d1a1bdc9a5e995960421b604482015290519081900360640190fd5b600180546001600160a01b0319166001600160a01b0383811691909117918290556040519116907fce241d7ca1f669fee44b6fc00b8eba2df3bb514eed0f6f668f8f89096e81ed9490600090a250565b6002546040516322fd145760e21b81526020600482018181528551602484015285516000946060946001600160a01b0390911693638bf4515c93899390928392604490910191908501908083838c5b8381101561058e578181015183820152602001610576565b50505050905090810190601f1680156105bb5780820380516001836020036101000a031916815260200191505b509250505060206040518083038186803b1580156105d857600080fd5b505afa1580156105ec573d6000803e3d6000fd5b505050506040513d602081101561060257600080fd5b505191506001600160a01b0382166106ef57600254604051633f6861d960e11b81526020600482018181528751602484015287516001600160a01b0390941693637ed0c3b293899383926044909201919085019080838360005b8381101561067457818101518382015260200161065c565b50505050905090810190601f1680156106a15780820380516001836020036101000a031916815260200191505b5092505050602060405180830381600087803b1580156106c057600080fd5b505af11580156106d4573d6000803e3d6000fd5b505050506040513d60208110156106ea57600080fd5b505191505b6106f98284610702565b90509250929050565b606061071a336000356001600160e01b031916610a8f565b610766576040805162461bcd60e51b815260206004820152601860248201527719985d1a1bdb4b585d5d1a0b5d5b985d5d1a1bdc9a5e995960421b604482015290519081900360640190fd5b600435602435346001600160a01b0386166107b25760405162461bcd60e51b8152600401808060200182810382526024815260200180610b9c6024913960400191505060405180910390fd5b600080865160208801896113885a03f43d6040519550601f19601f6020830101168601604052808652806000602088013e8115600181146107f2576107f9565b8160208801fd5b5050508183336001600160a01b03166000356001600160e01b0319166001600160e01b0319168460003660405180848152602001806020018281038252848482818152602001925080828437600083820152604051601f909101601f1916909201829003965090945050505050a450505092915050565b6002546001600160a01b031681565b610895336000356001600160e01b031916610a8f565b6108e1576040805162461bcd60e51b815260206004820152601860248201527719985d1a1bdb4b585d5d1a0b5d5b985d5d1a1bdc9a5e995960421b604482015290519081900360640190fd5b600080546001600160a01b0319166001600160a01b03838116919091178083556040519116917f1abebea81bfa2637f28358c371278fb15ede7ea8dd28d2e03b112ff6d936ada491a250565b6001546001600160a01b031681565b6000610954336000356001600160e01b031916610a8f565b6109a0576040805162461bcd60e51b815260206004820152601860248201527719985d1a1bdb4b585d5d1a0b5d5b985d5d1a1bdc9a5e995960421b604482015290519081900360640190fd5b600435602435346001600160a01b0385166109ec5760405162461bcd60e51b8152600401808060200182810382526023815260200180610b796023913960400191505060405180910390fd5b600280546001600160a01b0387166001600160a01b0319909116179055600193508183336001600160a01b03166000356001600160e01b0319166001600160e01b0319168460003660405180848152602001806020018281038252848482818152602001925080828437600083820152604051601f909101601f1916909201829003965090945050505050a4505050919050565b6000546001600160a01b031681565b60006001600160a01b038316301415610aaa57506001610b72565b6001546001600160a01b0384811691161415610ac857506001610b72565b6000546001600160a01b0316610ae057506000610b72565b6000546040805163b700961360e01b81526001600160a01b0386811660048301523060248301526001600160e01b0319861660448301529151919092169163b7009613916064808301926020929190829003018186803b158015610b4357600080fd5b505afa158015610b57573d6000803e3d6000fd5b505050506040513d6020811015610b6d57600080fd5b505190505b9291505056fe70726f78792d77616c6c65742d63616368652d616464726573732d726571756972656470726f78792d77616c6c65742d7461726765742d616464726573732d7265717569726564a26469706673582212204b3c49824e488d8a75e61076b39d0626be89e5805634593da94ac6ad5876949764736f6c634300060c003370726f78792d77616c6c65742d63616368652d616464726573732d7265717569726564",
  "linkReferences": {},
  "deployedLinkReferences": {}
}