{
    "contractName": "ProxyWalletRegistry",
    "abi": [
        {
            "anonymous": false,
            "inputs": [
                {
                    "indexed": false,
                    "internalType": "uint8",
                    "name": "version",
                    "type": "uint8"
                }
            ],
            "name": "Initialized",
            "type": "event"
        },
        {
            "anonymous": false,
            "inputs": [
                {
                    "indexed": true,
                    "internalType": "address",
                    "name": "user",
                    "type": "address"
                }
            ],
            "name": "LogAddToWhitelist",
            "type": "event"
        },
        {
            "anonymous": false,
            "inputs": [
                {
                    "indexed": false,
                    "internalType": "address",
                    "name": "owner",
                    "type": "address"
                },
                {
                    "indexed": false,
                    "internalType": "address",
                    "name": "proxyWallet",
                    "type": "address"
                }
            ],
            "name": "LogProxyWalletCreation",
            "type": "event"
        },
        {
            "anonymous": false,
            "inputs": [
                {
                    "indexed": true,
                    "internalType": "address",
                    "name": "user",
                    "type": "address"
                }
            ],
            "name": "LogRemoveFromWhitelist",
            "type": "event"
        },
        {
            "anonymous": false,
            "inputs": [
                {
                    "indexed": false,
                    "internalType": "bool",
                    "name": "newValue",
                    "type": "bool"
                }
            ],
            "name": "LogSetDecentralizedMode",
            "type": "event"
        },
        {
            "anonymous": false,
            "inputs": [
                {
                    "indexed": false,
                    "internalType": "address",
                    "name": "account",
                    "type": "address"
                }
            ],
            "name": "Paused",
            "type": "event"
        },
        {
            "anonymous": false,
            "inputs": [
                {
                    "indexed": false,
                    "internalType": "address",
                    "name": "account",
                    "type": "address"
                }
            ],
            "name": "Unpaused",
            "type": "event"
        },
        {
            "inputs": [],
            "name": "bookKeeper",
            "outputs": [
                {
                    "internalType": "contract IBookKeeper",
                    "name": "",
                    "type": "address"
                }
            ],
            "stateMutability": "view",
            "type": "function"
        },
        {
            "inputs": [],
            "name": "isDecentralizedMode",
            "outputs": [
                {
                    "internalType": "bool",
                    "name": "",
                    "type": "bool"
                }
            ],
            "stateMutability": "view",
            "type": "function"
        },
        {
            "inputs": [],
            "name": "paused",
            "outputs": [
                {
                    "internalType": "bool",
                    "name": "",
                    "type": "bool"
                }
            ],
            "stateMutability": "view",
            "type": "function"
        },
        {
            "inputs": [
                {
                    "internalType": "address",
                    "name": "",
                    "type": "address"
                }
            ],
            "name": "proxies",
            "outputs": [
                {
                    "internalType": "contract ProxyWallet",
                    "name": "",
                    "type": "address"
                }
            ],
            "stateMutability": "view",
            "type": "function"
        },
        {
            "inputs": [
                {
                    "internalType": "address",
                    "name": "",
                    "type": "address"
                }
            ],
            "name": "whitelisted",
            "outputs": [
                {
                    "internalType": "bool",
                    "name": "",
                    "type": "bool"
                }
            ],
            "stateMutability": "view",
            "type": "function"
        },
        {
            "inputs": [
                {
                    "internalType": "address",
                    "name": "_factory",
                    "type": "address"
                },
                {
                    "internalType": "address",
                    "name": "_bookKeeper",
                    "type": "address"
                }
            ],
            "name": "initialize",
            "outputs": [],
            "stateMutability": "nonpayable",
            "type": "function"
        },
        {
            "inputs": [
                {
                    "internalType": "address",
                    "name": "_usr",
                    "type": "address"
                }
            ],
            "name": "addToWhitelist",
            "outputs": [],
            "stateMutability": "nonpayable",
            "type": "function"
        },
        {
            "inputs": [
                {
                    "internalType": "address",
                    "name": "_usr",
                    "type": "address"
                }
            ],
            "name": "removeFromWhitelist",
            "outputs": [],
            "stateMutability": "nonpayable",
            "type": "function"
        },
        {
            "inputs": [
                {
                    "internalType": "bool",
                    "name": "isOn",
                    "type": "bool"
                }
            ],
            "name": "setDecentralizedMode",
            "outputs": [],
            "stateMutability": "nonpayable",
            "type": "function"
        },
        {
            "inputs": [],
            "name": "pause",
            "outputs": [],
            "stateMutability": "nonpayable",
            "type": "function"
        },
        {
            "inputs": [],
            "name": "unpause",
            "outputs": [],
            "stateMutability": "nonpayable",
            "type": "function"
        },
        {
            "inputs": [],
            "name": "build0",
            "outputs": [
                {
                    "internalType": "address payable",
                    "name": "_proxy",
                    "type": "address"
                }
            ],
            "stateMutability": "nonpayable",
            "type": "function"
        },
        {
            "inputs": [
                {
                    "internalType": "address",
                    "name": "_newOwner",
                    "type": "address"
                }
            ],
            "name": "setOwner",
            "outputs": [],
            "stateMutability": "nonpayable",
            "type": "function"
        },
        {
            "inputs": [
                {
                    "internalType": "address",
                    "name": "_owner",
                    "type": "address"
                }
            ],
            "name": "build",
            "outputs": [
                {
                    "internalType": "address payable",
                    "name": "_proxy",
                    "type": "address"
                }
            ],
            "stateMutability": "nonpayable",
            "type": "function"
        }
    ],
    "bytecode": "0x608060405234801561001057600080fd5b506113e6806100206000396000f3fe608060405234801561001057600080fd5b50600436106100ea5760003560e01c80638ab1d6811161008c578063d936547e11610066578063d936547e146101ca578063e3b3932a146101ed578063e43252d714610200578063f3701da21461021357600080fd5b80638ab1d6811461017b578063c45527911461018e578063d2556d5c146101b757600080fd5b8063485cc955116100c8578063485cc955146101355780635c975abb146101485780637748f425146101535780638456cb591461017357600080fd5b8063115d6e37146100ef57806313af4035146101185780633f4ba83a1461012d575b600080fd5b60685461010390600160a01b900460ff1681565b60405190151581526020015b60405180910390f35b61012b610126366004611266565b610226565b005b61012b610321565b61012b61014336600461128a565b61059b565b60335460ff16610103565b61015b610796565b6040516001600160a01b03909116815260200161010f565b61012b6107a6565b61012b610189366004611266565b610a18565b61015b61019c366004611266565b6065602052600090815260409020546001600160a01b031681565b61012b6101c53660046112d1565b610bc5565b6101036101d8366004611266565b60676020526000908152604090205460ff1681565b60685461015b906001600160a01b031681565b61012b61020e366004611266565b610d81565b61015b610221366004611266565b610f31565b61022e6110cf565b6001600160a01b03818116600090815260656020526040902054161561025357600080fd5b33600090815260656020908152604091829020548251638da5cb5b60e01b815292516001600160a01b0391821693918516928492638da5cb5b92600480830193928290030181865afa1580156102ad573d6000803e3d6000fd5b505050506040513d601f19601f820116820180604052508101906102d191906112ee565b6001600160a01b0316146102e457600080fd5b6001600160a01b039182166000908152606560205260408082208054949093166001600160a01b0319948516179092553381522080549091169055565b6068546040805163c8cc243f60e01b815290516000926001600160a01b03169163c8cc243f9160048083019260209291908290030181865afa15801561036b573d6000803e3d6000fd5b505050506040513d601f19601f8201168201806040525081019061038f91906112ee565b9050806001600160a01b03166391d14854826001600160a01b031663e58378bb6040518163ffffffff1660e01b8152600401602060405180830381865afa1580156103de573d6000803e3d6000fd5b505050506040513d601f19601f82011682018060405250810190610402919061130b565b6040516001600160e01b031960e084901b1681526004810191909152336024820152604401602060405180830381865afa158015610444573d6000803e3d6000fd5b505050506040513d601f19601f820116820180604052508101906104689190611324565b806105455750806001600160a01b03166391d14854826001600160a01b031663b536818a6040518163ffffffff1660e01b8152600401602060405180830381865afa1580156104bb573d6000803e3d6000fd5b505050506040513d601f19601f820116820180604052508101906104df919061130b565b6040516001600160e01b031960e084901b1681526004810191909152336024820152604401602060405180830381865afa158015610521573d6000803e3d6000fd5b505050506040513d601f19601f820116820180604052508101906105459190611324565b6105905760405162461bcd60e51b815260206004820152601760248201527621286f776e6572526f6c65206f7220676f76526f6c652960481b60448201526064015b60405180910390fd5b610598611117565b50565b600054610100900460ff16158080156105bb5750600054600160ff909116105b806105d55750303b1580156105d5575060005460ff166001145b6106385760405162461bcd60e51b815260206004820152602e60248201527f496e697469616c697a61626c653a20636f6e747261637420697320616c72656160448201526d191e481a5b9a5d1a585b1a5e995960921b6064820152608401610587565b6000805460ff19166001179055801561065b576000805461ff0019166101001790555b610663611169565b6001600160a01b0383166106b95760405162461bcd60e51b815260206004820181905260248201527f50726f787957616c6c657452656769737472792f7a65726f2d666163746f72796044820152606401610587565b6001600160a01b03821661071b5760405162461bcd60e51b815260206004820152602360248201527f50726f787957616c6c657452656769737472792f7a65726f2d626f6f6b4b65656044820152623832b960e91b6064820152608401610587565b606680546001600160a01b038086166001600160a01b03199283161790925560688054928516929091169190911790558015610791576000805461ff0019169055604051600181527f7f26b83ff96e1f2b6a682f133852f6798a09c465da95921460cefb38474024989060200160405180910390a15b505050565b60006107a133610f31565b905090565b6068546040805163c8cc243f60e01b815290516000926001600160a01b03169163c8cc243f9160048083019260209291908290030181865afa1580156107f0573d6000803e3d6000fd5b505050506040513d601f19601f8201168201806040525081019061081491906112ee565b9050806001600160a01b03166391d14854826001600160a01b031663e58378bb6040518163ffffffff1660e01b8152600401602060405180830381865afa158015610863573d6000803e3d6000fd5b505050506040513d601f19601f82011682018060405250810190610887919061130b565b6040516001600160e01b031960e084901b1681526004810191909152336024820152604401602060405180830381865afa1580156108c9573d6000803e3d6000fd5b505050506040513d601f19601f820116820180604052508101906108ed9190611324565b806109ca5750806001600160a01b03166391d14854826001600160a01b031663b536818a6040518163ffffffff1660e01b8152600401602060405180830381865afa158015610940573d6000803e3d6000fd5b505050506040513d601f19601f82011682018060405250810190610964919061130b565b6040516001600160e01b031960e084901b1681526004810191909152336024820152604401602060405180830381865afa1580156109a6573d6000803e3d6000fd5b505050506040513d601f19601f820116820180604052508101906109ca9190611324565b610a105760405162461bcd60e51b815260206004820152601760248201527621286f776e6572526f6c65206f7220676f76526f6c652960481b6044820152606401610587565b610598611198565b6068546040805163c8cc243f60e01b815290516000926001600160a01b03169163c8cc243f9160048083019260209291908290030181865afa158015610a62573d6000803e3d6000fd5b505050506040513d601f19601f82011682018060405250810190610a8691906112ee565b9050806001600160a01b03166391d14854826001600160a01b031663e58378bb6040518163ffffffff1660e01b8152600401602060405180830381865afa158015610ad5573d6000803e3d6000fd5b505050506040513d601f19601f82011682018060405250810190610af9919061130b565b6040516001600160e01b031960e084901b1681526004810191909152336024820152604401602060405180830381865afa158015610b3b573d6000803e3d6000fd5b505050506040513d601f19601f82011682018060405250810190610b5f9190611324565b610b7b5760405162461bcd60e51b815260040161058790611341565b6001600160a01b038216600081815260676020526040808220805460ff19169055517f9e9499495e2efd848d33cb197bde94612c1ec36f30605b60d445511e056069e19190a25050565b6068546040805163c8cc243f60e01b815290516000926001600160a01b03169163c8cc243f9160048083019260209291908290030181865afa158015610c0f573d6000803e3d6000fd5b505050506040513d601f19601f82011682018060405250810190610c3391906112ee565b9050806001600160a01b03166391d14854826001600160a01b031663e58378bb6040518163ffffffff1660e01b8152600401602060405180830381865afa158015610c82573d6000803e3d6000fd5b505050506040513d601f19601f82011682018060405250810190610ca6919061130b565b6040516001600160e01b031960e084901b1681526004810191909152336024820152604401602060405180830381865afa158015610ce8573d6000803e3d6000fd5b505050506040513d601f19601f82011682018060405250810190610d0c9190611324565b610d285760405162461bcd60e51b815260040161058790611341565b60688054831515600160a01b0260ff60a01b199091161790556040517f612639aacb827579d24ba152929ca083b888251aa3af501908eeba5f9dcd8c3790610d7590841515815260200190565b60405180910390a15050565b6068546040805163c8cc243f60e01b815290516000926001600160a01b03169163c8cc243f9160048083019260209291908290030181865afa158015610dcb573d6000803e3d6000fd5b505050506040513d601f19601f82011682018060405250810190610def91906112ee565b9050806001600160a01b03166391d14854826001600160a01b031663e58378bb6040518163ffffffff1660e01b8152600401602060405180830381865afa158015610e3e573d6000803e3d6000fd5b505050506040513d601f19601f82011682018060405250810190610e62919061130b565b6040516001600160e01b031960e084901b1681526004810191909152336024820152604401602060405180830381865afa158015610ea4573d6000803e3d6000fd5b505050506040513d601f19601f82011682018060405250810190610ec89190611324565b610ee45760405162461bcd60e51b815260040161058790611341565b6001600160a01b038216600081815260676020526040808220805460ff19166001179055517f4e3d8c117d484081f7268ed79cded71ad42979b92feb5f8f7f9824ac5cbfe3759190a25050565b6000610f3b6110cf565b6001600160a01b03821660009081526067602052604090205460ff1680610f6b5750606854600160a01b900460ff165b610fcb5760405162461bcd60e51b815260206004820152602b60248201527f50726f787957616c6c657452656769737472792f757365722d69732d6e6f742d60448201526a1dda1a5d195b1a5cdd195960aa1b6064820152608401610587565b6001600160a01b038281166000908152606560205260409020541615610ff057600080fd5b6066546040516379b80ed160e11b81526001600160a01b0384811660048301529091169063f3701da2906024016020604051808303816000875af115801561103c573d6000803e3d6000fd5b505050506040513d601f19601f8201168201806040525081019061106091906112ee565b6001600160a01b0383811660008181526065602090815260409182902080546001600160a01b031916948616948517905581519283528201929092529192507f3e82842775b73a7e4a81be24e32ea799e8d8f3a46f9d6b2396a9881a965c605b910160405180910390a1919050565b60335460ff16156111155760405162461bcd60e51b815260206004820152601060248201526f14185d5cd8589b194e881c185d5cd95960821b6044820152606401610587565b565b61111f6111d5565b6033805460ff191690557f5db9ee0a495bf2e6ff9c91a7834c1ba4fdd244a5e8aa4e537bd38aeae4b073aa335b6040516001600160a01b03909116815260200160405180910390a1565b600054610100900460ff166111905760405162461bcd60e51b815260040161058790611365565b61111561121e565b6111a06110cf565b6033805460ff191660011790557f62e78cea01bee320cd4e420270b5ea74000d11b0c9f74754ebdbfc544b05a25861114c3390565b60335460ff166111155760405162461bcd60e51b815260206004820152601460248201527314185d5cd8589b194e881b9bdd081c185d5cd95960621b6044820152606401610587565b600054610100900460ff166112455760405162461bcd60e51b815260040161058790611365565b6033805460ff19169055565b6001600160a01b038116811461059857600080fd5b60006020828403121561127857600080fd5b813561128381611251565b9392505050565b6000806040838503121561129d57600080fd5b82356112a881611251565b915060208301356112b881611251565b809150509250929050565b801515811461059857600080fd5b6000602082840312156112e357600080fd5b8135611283816112c3565b60006020828403121561130057600080fd5b815161128381611251565b60006020828403121561131d57600080fd5b5051919050565b60006020828403121561133657600080fd5b8151611283816112c3565b6020808252600a9082015269216f776e6572526f6c6560b01b604082015260600190565b6020808252602b908201527f496e697469616c697a61626c653a20636f6e7472616374206973206e6f74206960408201526a6e697469616c697a696e6760a81b60608201526080019056fea2646970667358221220bd0d7a5fe7dbb54408382d59a9950f4917d6f3e832f5e2b23c9848e336808f1464736f6c63430008110033",
    "immutableReferences": {},
    "source": "// SPDX-License-Identifier: AGPL-3.0-or-later\npragma solidity 0.8.17;\n\nimport \"@openzeppelin/contracts-upgradeable/security/PausableUpgradeable.sol\";\n\nimport \"../interfaces/IPausable.sol\";\nimport \"./ProxyWallet.sol\";\nimport \"./ProxyWalletFactory.sol\";\n\n/// @dev This Registry deploys new proxy instances through ProxyWalletFactory.build(address) and keeps a registry of owner => proxy\ncontract ProxyWalletRegistry is PausableUpgradeable, IPausable {\n    mapping(address => ProxyWallet) public proxies;\n    ProxyWalletFactory internal factory;\n    mapping(address => bool) public whitelisted;\n    IBookKeeper public bookKeeper;\n    bool public isDecentralizedMode;\n\n    event LogAddToWhitelist(address indexed user);\n    event LogRemoveFromWhitelist(address indexed user);\n    event LogSetDecentralizedMode(bool newValue);\n    event LogProxyWalletCreation(address owner, address proxyWallet);\n\n    modifier onlyOwnerOrGov() {\n        IAccessControlConfig _accessControlConfig = IAccessControlConfig(bookKeeper.accessControlConfig());\n        require(\n            _accessControlConfig.hasRole(_accessControlConfig.OWNER_ROLE(), msg.sender) ||\n                _accessControlConfig.hasRole(_accessControlConfig.GOV_ROLE(), msg.sender),\n            \"!(ownerRole or govRole)\"\n        );\n        _;\n    }\n\n    modifier onlyOwner() {\n        IAccessControlConfig _accessControlConfig = IAccessControlConfig(bookKeeper.accessControlConfig());\n        require(_accessControlConfig.hasRole(_accessControlConfig.OWNER_ROLE(), msg.sender), \"!ownerRole\");\n        _;\n    }\n\n    function initialize(address _factory, address _bookKeeper) external initializer {\n        PausableUpgradeable.__Pausable_init();\n\n        require(_factory != address(0), \"ProxyWalletRegistry/zero-factory\");\n        require(_bookKeeper != address(0), \"ProxyWalletRegistry/zero-bookKeeper\");\n\n        factory = ProxyWalletFactory(_factory);\n        bookKeeper = IBookKeeper(_bookKeeper);\n    }\n\n    function addToWhitelist(address _usr) external onlyOwner {\n        whitelisted[_usr] = true;\n        emit LogAddToWhitelist(_usr);\n    }\n\n    function removeFromWhitelist(address _usr) external onlyOwner {\n        whitelisted[_usr] = false;\n        emit LogRemoveFromWhitelist(_usr);\n    }\n\n    function setDecentralizedMode(bool isOn) external onlyOwner {\n        isDecentralizedMode = isOn;\n        emit LogSetDecentralizedMode(isOn);\n    }\n\n    // --- pause ---\n    /// @dev access: OWNER_ROLE, GOV_ROLE\n    function pause() external override onlyOwnerOrGov {\n        _pause();\n    }\n\n    /// @dev access: OWNER_ROLE, GOV_ROLE\n    function unpause() external override onlyOwnerOrGov {\n        _unpause();\n    }\n\n    /// @dev Deploys a new proxy instance and sets owner of proxy to caller\n    function build0() external returns (address payable _proxy) {\n        _proxy = build(msg.sender);\n    }\n\n    function setOwner(address _newOwner) external whenNotPaused {\n        require(proxies[_newOwner] == ProxyWallet(payable(address(0))));\n        ProxyWallet _proxy = proxies[msg.sender];\n        require(_proxy.owner() == _newOwner);\n        proxies[_newOwner] = _proxy;\n        proxies[msg.sender] = ProxyWallet(payable(address(0)));\n    }\n\n    /// @dev Deploys a new proxy instance and sets custom owner of proxy\n    function build(address _owner) public whenNotPaused returns (address payable _proxy) {\n        require(whitelisted[_owner] || isDecentralizedMode, \"ProxyWalletRegistry/user-is-not-whitelisted\");\n        require(proxies[_owner] == ProxyWallet(payable(address(0)))); // Not allow new proxy if the user already has one\n        _proxy = factory.build(_owner);\n        proxies[_owner] = ProxyWallet(_proxy);\n        emit LogProxyWalletCreation(_owner, _proxy);\n    }\n}\n",
    "sourcePath": "/Users/sangjun.lee/Sangjun/fathom-stablecoin-smart-contracts/contracts/main/proxy-wallet/ProxyWalletRegistry.sol",
    "compiler": {
        "name": "solc",
        "version": "0.8.17+commit.8df45f5f.Emscripten.clang"
    },
    "schemaVersion": "3.4.10",
    "updatedAt": "2023-07-25T11:12:21.192Z",
    "devdoc": {
        "details": "This Registry deploys new proxy instances through ProxyWalletFactory.build(address) and keeps a registry of owner => proxy",
        "kind": "dev",
        "methods": {
            "build(address)": {
                "details": "Deploys a new proxy instance and sets custom owner of proxy"
            },
            "build0()": {
                "details": "Deploys a new proxy instance and sets owner of proxy to caller"
            },
            "pause()": {
                "details": "access: OWNER_ROLE, GOV_ROLE"
            },
            "paused()": {
                "details": "Returns true if the contract is paused, and false otherwise."
            },
            "unpause()": {
                "details": "access: OWNER_ROLE, GOV_ROLE"
            }
        },
        "version": 1
    },
    "userdoc": {
        "kind": "user",
        "methods": {},
        "version": 1
    }
}