{
  "contractName": "ProxyWallet",
  "abi": [
    {
      "inputs": [
        {
          "internalType": "address",
          "name": "_storage",
          "type": "address"
        }
      ],
      "stateMutability": "nonpayable",
      "type": "constructor"
    },
    {
      "anonymous": true,
      "inputs": [
        {
          "indexed": true,
          "internalType": "bytes4",
          "name": "sig",
          "type": "bytes4"
        },
        {
          "indexed": true,
          "internalType": "address",
          "name": "guy",
          "type": "address"
        },
        {
          "indexed": true,
          "internalType": "bytes32",
          "name": "foo",
          "type": "bytes32"
        },
        {
          "indexed": true,
          "internalType": "bytes32",
          "name": "bar",
          "type": "bytes32"
        },
        {
          "indexed": false,
          "internalType": "uint256",
          "name": "wad",
          "type": "uint256"
        },
        {
          "indexed": false,
          "internalType": "bytes",
          "name": "fax",
          "type": "bytes"
        }
      ],
      "name": "LogNote",
      "type": "event"
    },
    {
      "anonymous": false,
      "inputs": [
        {
          "indexed": true,
          "internalType": "address",
          "name": "_authority",
          "type": "address"
        }
      ],
      "name": "LogSetAuthority",
      "type": "event"
    },
    {
      "anonymous": false,
      "inputs": [
        {
          "indexed": true,
          "internalType": "address",
          "name": "_owner",
          "type": "address"
        }
      ],
      "name": "LogSetOwner",
      "type": "event"
    },
    {
      "inputs": [],
      "name": "authority",
      "outputs": [
        {
          "internalType": "contract IAuthority",
          "name": "",
          "type": "address"
        }
      ],
      "stateMutability": "view",
      "type": "function"
    },
    {
      "inputs": [],
      "name": "owner",
      "outputs": [
        {
          "internalType": "address",
          "name": "",
          "type": "address"
        }
      ],
      "stateMutability": "view",
      "type": "function"
    },
    {
      "inputs": [],
      "name": "proxyActionsStorage",
      "outputs": [
        {
          "internalType": "contract ProxyActionsStorage",
          "name": "",
          "type": "address"
        }
      ],
      "stateMutability": "view",
      "type": "function"
    },
    {
      "inputs": [
        {
          "internalType": "contract IAuthority",
          "name": "_authority",
          "type": "address"
        }
      ],
      "name": "setAuthority",
      "outputs": [],
      "stateMutability": "nonpayable",
      "type": "function"
    },
    {
      "inputs": [
        {
          "internalType": "address",
          "name": "_owner",
          "type": "address"
        }
      ],
      "name": "setOwner",
      "outputs": [],
      "stateMutability": "nonpayable",
      "type": "function"
    },
    {
      "stateMutability": "payable",
      "type": "receive"
    },
    {
      "inputs": [
        {
          "internalType": "bytes",
          "name": "_data",
          "type": "bytes"
        }
      ],
      "name": "execute",
      "outputs": [
        {
          "internalType": "bytes",
          "name": "_response",
          "type": "bytes"
        }
      ],
      "stateMutability": "payable",
      "type": "function"
    }
  ],
  "bytecode": "0x608060405234801561001057600080fd5b5060405161087838038061087883398101604081905261002f91610092565b600180546001600160a01b031916339081179091556040517fce241d7ca1f669fee44b6fc00b8eba2df3bb514eed0f6f668f8f89096e81ed9490600090a2600280546001600160a01b0319166001600160a01b03929092169190911790556100c2565b6000602082840312156100a457600080fd5b81516001600160a01b03811681146100bb57600080fd5b9392505050565b6107a7806100d16000396000f3fe6080604052600436106100595760003560e01c806309c5eabe1461006557806313af40351461008e5780636b27e8f9146100b05780637a9e5e4b146100e85780638da5cb5b14610108578063bf7e214f1461012857600080fd5b3661006057005b600080fd5b61007861007336600461058a565b610148565b604051610085919061063b565b60405180910390f35b34801561009a57600080fd5b506100ae6100a93660046106a1565b6102dd565b005b3480156100bc57600080fd5b506002546100d0906001600160a01b031681565b6040516001600160a01b039091168152602001610085565b3480156100f457600080fd5b506100ae6101033660046106a1565b6103b9565b34801561011457600080fd5b506001546100d0906001600160a01b031681565b34801561013457600080fd5b506000546100d0906001600160a01b031681565b6060610160336000356001600160e01b031916610497565b6101855760405162461bcd60e51b815260040161017c906106c5565b60405180910390fd5b6002546040805163830185d560e01b8152905160048035936024359334936000936001600160a01b039093169263830185d5928082019260209290918290030181865afa1580156101da573d6000803e3d6000fd5b505050506040513d601f19601f820116820180604052508101906101fe91906106fc565b905085516000036102515760405162461bcd60e51b815260206004820152601a60248201527f70726f78792d77616c6c65742d646174612d7265717569726564000000000000604482015260640161017c565b600080875160208901846113885a03f43d6040519650601f19601f6020830101168701604052808752806000602089013e811560018103610293578160208901fd5b505050508183336001600160a01b03166000356001600160e01b0319166001600160e01b031916846000366040516102cd93929190610719565b60405180910390a4505050919050565b6102f3336000356001600160e01b031916610497565b61030f5760405162461bcd60e51b815260040161017c906106c5565b6001600160a01b03811661036f5760405162461bcd60e51b815260206004820152602160248201527f466174686f6d417574682f7365742d7a65726f2d616464726573732d6f776e656044820152603960f91b606482015260840161017c565b600180546001600160a01b0319166001600160a01b0383169081179091556040517fce241d7ca1f669fee44b6fc00b8eba2df3bb514eed0f6f668f8f89096e81ed9490600090a250565b6103cf336000356001600160e01b031916610497565b6103eb5760405162461bcd60e51b815260040161017c906106c5565b6001600160a01b03811661044f5760405162461bcd60e51b815260206004820152602560248201527f466174686f6d417574682f7365742d7a65726f2d616464726573732d617574686044820152646f7269747960d81b606482015260840161017c565b600080546001600160a01b0319166001600160a01b038316908117825560405190917f1abebea81bfa2637f28358c371278fb15ede7ea8dd28d2e03b112ff6d936ada491a250565b6000306001600160a01b038416036104b15750600161056e565b6001546001600160a01b03908116908416036104cf5750600161056e565b6000546001600160a01b03166104e75750600061056e565b60005460405163b700961360e01b81526001600160a01b0385811660048301523060248301526001600160e01b0319851660448301529091169063b700961390606401602060405180830381865afa158015610547573d6000803e3d6000fd5b505050506040513d601f19601f8201168201806040525081019061056b919061074f565b90505b92915050565b634e487b7160e01b600052604160045260246000fd5b60006020828403121561059c57600080fd5b813567ffffffffffffffff808211156105b457600080fd5b818401915084601f8301126105c857600080fd5b8135818111156105da576105da610574565b604051601f8201601f19908116603f0116810190838211818310171561060257610602610574565b8160405282815287602084870101111561061b57600080fd5b826020860160208301376000928101602001929092525095945050505050565b600060208083528351808285015260005b818110156106685785810183015185820160400152820161064c565b506000604082860101526040601f19601f8301168501019250505092915050565b6001600160a01b038116811461069e57600080fd5b50565b6000602082840312156106b357600080fd5b81356106be81610689565b9392505050565b60208082526018908201527f666174686f6d2d617574682d756e617574686f72697a65640000000000000000604082015260600190565b60006020828403121561070e57600080fd5b81516106be81610689565b83815260406020820152816040820152818360608301376000818301606090810191909152601f909201601f1916010192915050565b60006020828403121561076157600080fd5b815180151581146106be57600080fdfea264697066735822122041ff1683395a65dca0692f2003b8953c5f9cc9f1701f3bff8530d0f70c95f30264736f6c63430008110033",
  "immutableReferences": {},
  "source": "// SPDX-License-Identifier: AGPL-3.0-or-later\npragma solidity 0.8.17;\n\nimport \"./FathomAuth.sol\";\nimport \"./FathomNote.sol\";\nimport \"./ProxyActionsStorage.sol\";\n\n/// @dev Allows code execution using a persistent identity This can be very useful to execute a sequence of atomic actions. Since the owner of\n// the proxy can be changed, this allows for dynamic ownership models i.e. a multisig\ncontract ProxyWallet is FathomAuth, FathomNote {\n    ProxyActionsStorage public proxyActionsStorage;\n\n    constructor(address _storage) {\n        proxyActionsStorage = ProxyActionsStorage(_storage);\n    }\n\n    receive() external payable {}\n\n    function execute(bytes memory _data) public payable auth note returns (bytes memory _response) {\n        address target = proxyActionsStorage.proxyAction();\n        require(_data.length != 0, \"proxy-wallet-data-required\");\n        assembly {\n            let _succeeded := delegatecall(sub(gas(), 5000), target, add(_data, 0x20), mload(_data), 0, 0)\n            let _size := returndatasize()\n\n            _response := mload(0x40)\n            mstore(0x40, add(_response, and(add(add(_size, 0x20), 0x1f), not(0x1f))))\n            mstore(_response, _size)\n            returndatacopy(add(_response, 0x20), 0, _size)\n\n            switch iszero(_succeeded)\n            case 1 {\n                revert(add(_response, 0x20), _size)\n            }\n        }\n    }\n}\n",
  "sourcePath": "/Users/sangjun.lee/Sangjun/fathom-stablecoin-smart-contracts/contracts/main/proxy-wallet/ProxyWallet.sol",
  "compiler": {
    "name": "solc",
    "version": "0.8.17+commit.8df45f5f.Emscripten.clang"
  },
  "schemaVersion": "3.4.10",
  "updatedAt": "2023-07-25T11:12:21.188Z",
  "devdoc": {
    "details": "Allows code execution using a persistent identity This can be very useful to execute a sequence of atomic actions. Since the owner of",
    "kind": "dev",
    "methods": {},
    "version": 1
  },
  "userdoc": {
    "kind": "user",
    "methods": {},
    "version": 1
  }
}