{
    "contractName": "StableSwapModule",
    "abi": [
        {
            "anonymous": false,
            "inputs": [
                {
                    "indexed": false,
                    "internalType": "uint8",
                    "name": "version",
                    "type": "uint8"
                }
            ],
            "name": "Initialized",
            "type": "event"
        },
        {
            "anonymous": false,
            "inputs": [
                {
                    "indexed": true,
                    "internalType": "address",
                    "name": "user",
                    "type": "address"
                }
            ],
            "name": "LogAddToWhitelist",
            "type": "event"
        },
        {
            "anonymous": false,
            "inputs": [
                {
                    "indexed": false,
                    "internalType": "uint256",
                    "name": "_newBlocksPerLimit",
                    "type": "uint256"
                },
                {
                    "indexed": false,
                    "internalType": "uint256",
                    "name": "_oldBlocksPerLimit",
                    "type": "uint256"
                }
            ],
            "name": "LogBlocksPerLimitUpdate",
            "type": "event"
        },
        {
            "anonymous": false,
            "inputs": [
                {
                    "indexed": false,
                    "internalType": "uint256",
                    "name": "_newDailySwapLimit",
                    "type": "uint256"
                },
                {
                    "indexed": false,
                    "internalType": "uint256",
                    "name": "_oldDailySwapLimit",
                    "type": "uint256"
                }
            ],
            "name": "LogDailySwapLimitUpdate",
            "type": "event"
        },
        {
            "anonymous": false,
            "inputs": [
                {
                    "indexed": false,
                    "internalType": "bool",
                    "name": "_oldDecentralizedStateStatus",
                    "type": "bool"
                },
                {
                    "indexed": false,
                    "internalType": "bool",
                    "name": "_newDecentralizedStateStatus",
                    "type": "bool"
                }
            ],
            "name": "LogDecentralizedStateStatus",
            "type": "event"
        },
        {
            "anonymous": false,
            "inputs": [
                {
                    "indexed": true,
                    "internalType": "address",
                    "name": "_owner",
                    "type": "address"
                },
                {
                    "indexed": true,
                    "internalType": "address",
                    "name": "_token",
                    "type": "address"
                },
                {
                    "indexed": false,
                    "internalType": "uint256",
                    "name": "_value",
                    "type": "uint256"
                }
            ],
            "name": "LogDepositToken",
            "type": "event"
        },
        {
            "anonymous": false,
            "inputs": [
                {
                    "indexed": true,
                    "internalType": "address",
                    "name": "_account",
                    "type": "address"
                }
            ],
            "name": "LogEmergencyWithdraw",
            "type": "event"
        },
        {
            "anonymous": false,
            "inputs": [
                {
                    "indexed": false,
                    "internalType": "uint256",
                    "name": "_newNumberOfSwapsLimitPerUser",
                    "type": "uint256"
                },
                {
                    "indexed": false,
                    "internalType": "uint256",
                    "name": "_oldNumberOfSwapsLimitPerUser",
                    "type": "uint256"
                }
            ],
            "name": "LogNumberOfSwapsLimitPerUserUpdate",
            "type": "event"
        },
        {
            "anonymous": false,
            "inputs": [
                {
                    "indexed": false,
                    "internalType": "uint256",
                    "name": "_remainingDailySwapAmount",
                    "type": "uint256"
                }
            ],
            "name": "LogRemainingDailySwapAmount",
            "type": "event"
        },
        {
            "anonymous": false,
            "inputs": [
                {
                    "indexed": true,
                    "internalType": "address",
                    "name": "user",
                    "type": "address"
                }
            ],
            "name": "LogRemoveFromWhitelist",
            "type": "event"
        },
        {
            "anonymous": false,
            "inputs": [
                {
                    "indexed": true,
                    "internalType": "address",
                    "name": "_caller",
                    "type": "address"
                },
                {
                    "indexed": false,
                    "internalType": "uint256",
                    "name": "_feeIn",
                    "type": "uint256"
                }
            ],
            "name": "LogSetFeeIn",
            "type": "event"
        },
        {
            "anonymous": false,
            "inputs": [
                {
                    "indexed": true,
                    "internalType": "address",
                    "name": "_caller",
                    "type": "address"
                },
                {
                    "indexed": false,
                    "internalType": "uint256",
                    "name": "_feeOut",
                    "type": "uint256"
                }
            ],
            "name": "LogSetFeeOut",
            "type": "event"
        },
        {
            "anonymous": false,
            "inputs": [
                {
                    "indexed": false,
                    "internalType": "uint256",
                    "name": "_newSingleSwapLimit",
                    "type": "uint256"
                },
                {
                    "indexed": false,
                    "internalType": "uint256",
                    "name": "_oldSingleSwapLimit",
                    "type": "uint256"
                }
            ],
            "name": "LogSingleSwapLimitUpdate",
            "type": "event"
        },
        {
            "anonymous": false,
            "inputs": [
                {
                    "indexed": true,
                    "internalType": "address",
                    "name": "_owner",
                    "type": "address"
                },
                {
                    "indexed": false,
                    "internalType": "uint256",
                    "name": "_value",
                    "type": "uint256"
                },
                {
                    "indexed": false,
                    "internalType": "uint256",
                    "name": "_fee",
                    "type": "uint256"
                }
            ],
            "name": "LogSwapStablecoinToToken",
            "type": "event"
        },
        {
            "anonymous": false,
            "inputs": [
                {
                    "indexed": true,
                    "internalType": "address",
                    "name": "_owner",
                    "type": "address"
                },
                {
                    "indexed": false,
                    "internalType": "uint256",
                    "name": "_value",
                    "type": "uint256"
                },
                {
                    "indexed": false,
                    "internalType": "uint256",
                    "name": "_fee",
                    "type": "uint256"
                }
            ],
            "name": "LogSwapTokenToStablecoin",
            "type": "event"
        },
        {
            "anonymous": false,
            "inputs": [
                {
                    "indexed": true,
                    "internalType": "address",
                    "name": "_destination",
                    "type": "address"
                },
                {
                    "indexed": false,
                    "internalType": "uint256",
                    "name": "_stablecoinFee",
                    "type": "uint256"
                },
                {
                    "indexed": false,
                    "internalType": "uint256",
                    "name": "_tokenFee",
                    "type": "uint256"
                }
            ],
            "name": "LogWithdrawFees",
            "type": "event"
        },
        {
            "anonymous": false,
            "inputs": [
                {
                    "indexed": false,
                    "internalType": "address",
                    "name": "_account",
                    "type": "address"
                },
                {
                    "indexed": false,
                    "internalType": "address",
                    "name": "_token",
                    "type": "address"
                },
                {
                    "indexed": false,
                    "internalType": "uint256",
                    "name": "_amount",
                    "type": "uint256"
                }
            ],
            "name": "LogWithdrawToken",
            "type": "event"
        },
        {
            "anonymous": false,
            "inputs": [
                {
                    "indexed": false,
                    "internalType": "address",
                    "name": "account",
                    "type": "address"
                }
            ],
            "name": "Paused",
            "type": "event"
        },
        {
            "anonymous": false,
            "inputs": [
                {
                    "indexed": false,
                    "internalType": "address",
                    "name": "account",
                    "type": "address"
                }
            ],
            "name": "Unpaused",
            "type": "event"
        },
        {
            "inputs": [],
            "name": "DAILY_SWAP_LIMIT_DENOMINATOR",
            "outputs": [
                {
                    "internalType": "uint256",
                    "name": "",
                    "type": "uint256"
                }
            ],
            "stateMutability": "view",
            "type": "function"
        },
        {
            "inputs": [],
            "name": "MINIMUM_BLOCKS_PER_LIMIT",
            "outputs": [
                {
                    "internalType": "uint256",
                    "name": "",
                    "type": "uint256"
                }
            ],
            "stateMutability": "view",
            "type": "function"
        },
        {
            "inputs": [],
            "name": "MINIMUM_DAILY_SWAP_LIMIT_NUMERATOR",
            "outputs": [
                {
                    "internalType": "uint256",
                    "name": "",
                    "type": "uint256"
                }
            ],
            "stateMutability": "view",
            "type": "function"
        },
        {
            "inputs": [],
            "name": "MINIMUM_NUMBER_OF_SWAPS_LIMIT_PER_USER",
            "outputs": [
                {
                    "internalType": "uint256",
                    "name": "",
                    "type": "uint256"
                }
            ],
            "stateMutability": "view",
            "type": "function"
        },
        {
            "inputs": [],
            "name": "MINIMUM_SINGLE_SWAP_LIMIT_NUMERATOR",
            "outputs": [
                {
                    "internalType": "uint256",
                    "name": "",
                    "type": "uint256"
                }
            ],
            "stateMutability": "view",
            "type": "function"
        },
        {
            "inputs": [],
            "name": "ONE_DAY",
            "outputs": [
                {
                    "internalType": "uint256",
                    "name": "",
                    "type": "uint256"
                }
            ],
            "stateMutability": "view",
            "type": "function"
        },
        {
            "inputs": [],
            "name": "SINGLE_SWAP_LIMIT_DENOMINATOR",
            "outputs": [
                {
                    "internalType": "uint256",
                    "name": "",
                    "type": "uint256"
                }
            ],
            "stateMutability": "view",
            "type": "function"
        },
        {
            "inputs": [],
            "name": "blocksPerLimit",
            "outputs": [
                {
                    "internalType": "uint256",
                    "name": "",
                    "type": "uint256"
                }
            ],
            "stateMutability": "view",
            "type": "function"
        },
        {
            "inputs": [],
            "name": "bookKeeper",
            "outputs": [
                {
                    "internalType": "contract IBookKeeper",
                    "name": "",
                    "type": "address"
                }
            ],
            "stateMutability": "view",
            "type": "function"
        },
        {
            "inputs": [],
            "name": "dailySwapLimitNumerator",
            "outputs": [
                {
                    "internalType": "uint256",
                    "name": "",
                    "type": "uint256"
                }
            ],
            "stateMutability": "view",
            "type": "function"
        },
        {
            "inputs": [],
            "name": "feeIn",
            "outputs": [
                {
                    "internalType": "uint256",
                    "name": "",
                    "type": "uint256"
                }
            ],
            "stateMutability": "view",
            "type": "function"
        },
        {
            "inputs": [],
            "name": "feeOut",
            "outputs": [
                {
                    "internalType": "uint256",
                    "name": "",
                    "type": "uint256"
                }
            ],
            "stateMutability": "view",
            "type": "function"
        },
        {
            "inputs": [],
            "name": "feesUpgradeInitialized",
            "outputs": [
                {
                    "internalType": "bool",
                    "name": "",
                    "type": "bool"
                }
            ],
            "stateMutability": "view",
            "type": "function"
        },
        {
            "inputs": [],
            "name": "isDecentralizedState",
            "outputs": [
                {
                    "internalType": "bool",
                    "name": "",
                    "type": "bool"
                }
            ],
            "stateMutability": "view",
            "type": "function"
        },
        {
            "inputs": [
                {
                    "internalType": "address",
                    "name": "",
                    "type": "address"
                }
            ],
            "name": "lastSwapBlockNumberPerUser",
            "outputs": [
                {
                    "internalType": "uint256",
                    "name": "",
                    "type": "uint256"
                }
            ],
            "stateMutability": "view",
            "type": "function"
        },
        {
            "inputs": [],
            "name": "lastUpdate",
            "outputs": [
                {
                    "internalType": "uint256",
                    "name": "",
                    "type": "uint256"
                }
            ],
            "stateMutability": "view",
            "type": "function"
        },
        {
            "inputs": [],
            "name": "numberOfSwapsLimitPerUser",
            "outputs": [
                {
                    "internalType": "uint256",
                    "name": "",
                    "type": "uint256"
                }
            ],
            "stateMutability": "view",
            "type": "function"
        },
        {
            "inputs": [
                {
                    "internalType": "address",
                    "name": "",
                    "type": "address"
                }
            ],
            "name": "numberOfSwapsRemainingPerUserInBlockLimit",
            "outputs": [
                {
                    "internalType": "uint256",
                    "name": "",
                    "type": "uint256"
                }
            ],
            "stateMutability": "view",
            "type": "function"
        },
        {
            "inputs": [],
            "name": "paused",
            "outputs": [
                {
                    "internalType": "bool",
                    "name": "",
                    "type": "bool"
                }
            ],
            "stateMutability": "view",
            "type": "function"
        },
        {
            "inputs": [],
            "name": "remainingDailySwapAmount",
            "outputs": [
                {
                    "internalType": "uint256",
                    "name": "",
                    "type": "uint256"
                }
            ],
            "stateMutability": "view",
            "type": "function"
        },
        {
            "inputs": [],
            "name": "remainingFXDFeeBalance",
            "outputs": [
                {
                    "internalType": "uint256",
                    "name": "",
                    "type": "uint256"
                }
            ],
            "stateMutability": "view",
            "type": "function"
        },
        {
            "inputs": [],
            "name": "remainingTokenFeeBalance",
            "outputs": [
                {
                    "internalType": "uint256",
                    "name": "",
                    "type": "uint256"
                }
            ],
            "stateMutability": "view",
            "type": "function"
        },
        {
            "inputs": [],
            "name": "singleSwapLimitNumerator",
            "outputs": [
                {
                    "internalType": "uint256",
                    "name": "",
                    "type": "uint256"
                }
            ],
            "stateMutability": "view",
            "type": "function"
        },
        {
            "inputs": [],
            "name": "stablecoin",
            "outputs": [
                {
                    "internalType": "address",
                    "name": "",
                    "type": "address"
                }
            ],
            "stateMutability": "view",
            "type": "function"
        },
        {
            "inputs": [],
            "name": "stableswapWrapper",
            "outputs": [
                {
                    "internalType": "address",
                    "name": "",
                    "type": "address"
                }
            ],
            "stateMutability": "view",
            "type": "function"
        },
        {
            "inputs": [],
            "name": "token",
            "outputs": [
                {
                    "internalType": "address",
                    "name": "",
                    "type": "address"
                }
            ],
            "stateMutability": "view",
            "type": "function"
        },
        {
            "inputs": [
                {
                    "internalType": "address",
                    "name": "",
                    "type": "address"
                }
            ],
            "name": "tokenBalance",
            "outputs": [
                {
                    "internalType": "uint256",
                    "name": "",
                    "type": "uint256"
                }
            ],
            "stateMutability": "view",
            "type": "function"
        },
        {
            "inputs": [],
            "name": "totalFXDFeeBalance",
            "outputs": [
                {
                    "internalType": "uint256",
                    "name": "",
                    "type": "uint256"
                }
            ],
            "stateMutability": "view",
            "type": "function"
        },
        {
            "inputs": [],
            "name": "totalTokenFeeBalance",
            "outputs": [
                {
                    "internalType": "uint256",
                    "name": "",
                    "type": "uint256"
                }
            ],
            "stateMutability": "view",
            "type": "function"
        },
        {
            "inputs": [],
            "name": "totalValueDeposited",
            "outputs": [
                {
                    "internalType": "uint256",
                    "name": "",
                    "type": "uint256"
                }
            ],
            "stateMutability": "view",
            "type": "function"
        },
        {
            "inputs": [
                {
                    "internalType": "address",
                    "name": "",
                    "type": "address"
                }
            ],
            "name": "usersWhitelist",
            "outputs": [
                {
                    "internalType": "bool",
                    "name": "",
                    "type": "bool"
                }
            ],
            "stateMutability": "view",
            "type": "function"
        },
        {
            "inputs": [
                {
                    "internalType": "address",
                    "name": "_bookKeeper",
                    "type": "address"
                },
                {
                    "internalType": "address",
                    "name": "_token",
                    "type": "address"
                },
                {
                    "internalType": "address",
                    "name": "_stablecoin",
                    "type": "address"
                },
                {
                    "internalType": "uint256",
                    "name": "_dailySwapLimitNumerator",
                    "type": "uint256"
                },
                {
                    "internalType": "uint256",
                    "name": "_singleSwapLimitNumerator",
                    "type": "uint256"
                },
                {
                    "internalType": "uint256",
                    "name": "_numberOfSwapsLimitPerUser",
                    "type": "uint256"
                },
                {
                    "internalType": "uint256",
                    "name": "_blocksPerLimit",
                    "type": "uint256"
                }
            ],
            "name": "initialize",
            "outputs": [],
            "stateMutability": "nonpayable",
            "type": "function"
        },
        {
            "inputs": [],
            "name": "initializeFeesAfterUpgrade",
            "outputs": [],
            "stateMutability": "nonpayable",
            "type": "function"
        },
        {
            "inputs": [],
            "name": "udpateTotalValueDeposited",
            "outputs": [],
            "stateMutability": "nonpayable",
            "type": "function"
        },
        {
            "inputs": [
                {
                    "internalType": "address",
                    "name": "newStableSwapWrapper",
                    "type": "address"
                }
            ],
            "name": "setStableSwapWrapper",
            "outputs": [],
            "stateMutability": "nonpayable",
            "type": "function"
        },
        {
            "inputs": [
                {
                    "internalType": "uint256",
                    "name": "newdailySwapLimitNumerator",
                    "type": "uint256"
                }
            ],
            "name": "setDailySwapLimitNumerator",
            "outputs": [],
            "stateMutability": "nonpayable",
            "type": "function"
        },
        {
            "inputs": [
                {
                    "internalType": "uint256",
                    "name": "newSingleSwapLimitNumerator",
                    "type": "uint256"
                }
            ],
            "name": "setSingleSwapLimitNumerator",
            "outputs": [],
            "stateMutability": "nonpayable",
            "type": "function"
        },
        {
            "inputs": [
                {
                    "internalType": "uint256",
                    "name": "newNumberOfSwapsLimitPerUser",
                    "type": "uint256"
                }
            ],
            "name": "setNumberOfSwapsLimitPerUser",
            "outputs": [],
            "stateMutability": "nonpayable",
            "type": "function"
        },
        {
            "inputs": [
                {
                    "internalType": "uint256",
                    "name": "newBlocksPerLimit",
                    "type": "uint256"
                }
            ],
            "name": "setBlocksPerLimit",
            "outputs": [],
            "stateMutability": "nonpayable",
            "type": "function"
        },
        {
            "inputs": [
                {
                    "internalType": "uint256",
                    "name": "_feeIn",
                    "type": "uint256"
                }
            ],
            "name": "setFeeIn",
            "outputs": [],
            "stateMutability": "nonpayable",
            "type": "function"
        },
        {
            "inputs": [
                {
                    "internalType": "uint256",
                    "name": "_feeOut",
                    "type": "uint256"
                }
            ],
            "name": "setFeeOut",
            "outputs": [],
            "stateMutability": "nonpayable",
            "type": "function"
        },
        {
            "inputs": [
                {
                    "internalType": "bool",
                    "name": "_status",
                    "type": "bool"
                }
            ],
            "name": "setDecentralizedStatesStatus",
            "outputs": [],
            "stateMutability": "nonpayable",
            "type": "function"
        },
        {
            "inputs": [
                {
                    "internalType": "address",
                    "name": "_user",
                    "type": "address"
                }
            ],
            "name": "addToWhitelist",
            "outputs": [],
            "stateMutability": "nonpayable",
            "type": "function"
        },
        {
            "inputs": [
                {
                    "internalType": "address",
                    "name": "_user",
                    "type": "address"
                }
            ],
            "name": "removeFromWhitelist",
            "outputs": [],
            "stateMutability": "nonpayable",
            "type": "function"
        },
        {
            "inputs": [
                {
                    "internalType": "address",
                    "name": "_usr",
                    "type": "address"
                },
                {
                    "internalType": "uint256",
                    "name": "_amount",
                    "type": "uint256"
                }
            ],
            "name": "swapTokenToStablecoin",
            "outputs": [],
            "stateMutability": "nonpayable",
            "type": "function"
        },
        {
            "inputs": [
                {
                    "internalType": "address",
                    "name": "_usr",
                    "type": "address"
                },
                {
                    "internalType": "uint256",
                    "name": "_amount",
                    "type": "uint256"
                }
            ],
            "name": "swapStablecoinToToken",
            "outputs": [],
            "stateMutability": "nonpayable",
            "type": "function"
        },
        {
            "inputs": [
                {
                    "internalType": "address",
                    "name": "_token",
                    "type": "address"
                },
                {
                    "internalType": "uint256",
                    "name": "_amount",
                    "type": "uint256"
                }
            ],
            "name": "depositToken",
            "outputs": [],
            "stateMutability": "nonpayable",
            "type": "function"
        },
        {
            "inputs": [
                {
                    "internalType": "address",
                    "name": "_destination",
                    "type": "address"
                },
                {
                    "internalType": "uint256",
                    "name": "_amountFXDFee",
                    "type": "uint256"
                },
                {
                    "internalType": "uint256",
                    "name": "_amountTokenFee",
                    "type": "uint256"
                }
            ],
            "name": "withdrawFees",
            "outputs": [],
            "stateMutability": "nonpayable",
            "type": "function"
        },
        {
            "inputs": [
                {
                    "internalType": "address",
                    "name": "_token",
                    "type": "address"
                },
                {
                    "internalType": "uint256",
                    "name": "_amount",
                    "type": "uint256"
                }
            ],
            "name": "withdrawToken",
            "outputs": [],
            "stateMutability": "nonpayable",
            "type": "function"
        },
        {
            "inputs": [],
            "name": "pause",
            "outputs": [],
            "stateMutability": "nonpayable",
            "type": "function"
        },
        {
            "inputs": [],
            "name": "unpause",
            "outputs": [],
            "stateMutability": "nonpayable",
            "type": "function"
        },
        {
            "inputs": [
                {
                    "internalType": "address",
                    "name": "_account",
                    "type": "address"
                }
            ],
            "name": "emergencyWithdraw",
            "outputs": [],
            "stateMutability": "nonpayable",
            "type": "function"
        },
        {
            "inputs": [
                {
                    "internalType": "address",
                    "name": "_user",
                    "type": "address"
                }
            ],
            "name": "isUserWhitelisted",
            "outputs": [
                {
                    "internalType": "bool",
                    "name": "",
                    "type": "bool"
                }
            ],
            "stateMutability": "view",
            "type": "function"
        },
        {
            "inputs": [],
            "name": "totalValueLocked",
            "outputs": [
                {
                    "internalType": "uint256",
                    "name": "",
                    "type": "uint256"
                }
            ],
            "stateMutability": "view",
            "type": "function"
        }
    ],
    "bytecode": "0x608060405234801561001057600080fd5b50614660806100206000396000f3fe608060405234801561001057600080fd5b50600436106103425760003560e01c80636ff1c9bc116101b8578063b42746af11610104578063e3b3932a116100a2578063ec18154e1161007c578063ec18154e1461064f578063eedc966a14610657578063fb237eb214610677578063fc0c546a146106a357600080fd5b8063e3b3932a14610616578063e43252d714610629578063e9cbd8221461063c57600080fd5b8063c0463711116100de578063c0463711146105e8578063c8ee88fb146105f1578063dcabf64014610604578063e3004c461461060d57600080fd5b8063b42746af146105cf578063b5f01212146105d8578063bba2c901146105e057600080fd5b8063863e76db116101715780638e50d72c1161014b5780638e50d72c146105975780639e281a98146105a0578063a21c1c8f146105b3578063a836da86146105bc57600080fd5b8063863e76db1461057157806386eb51331461057b5780638ab1d6811461058457600080fd5b80636ff1c9bc146105325780637254fb3b14610545578063769a48d91461054d57806381e28cc7146105565780638299d28d146104115780638456cb591461056957600080fd5b806339e9bca81161029257806355725d4111610230578063651507f01161020a578063651507f0146104e8578063694cd52d146104f15780636c1cbef01461051c5780636d34ab511461052557600080fd5b806355725d41146104ca57806358a7a31d146103d55780635c975abb146104dd57600080fd5b806340853dce1161026c57806340853dce14610489578063425c20961461049c57806342e8a972146104af578063462e4445146104c257600080fd5b806339e9bca81461043e5780633c11453a1461045e5780633f4ba83a1461048157600080fd5b8063253e870e116102ff5780633031f48f116102d95780633031f48f1461041157806333739dec14610419578063338b5dea146104225780633848dc2f1461043557600080fd5b8063253e870e146103d5578063269e5855146103de5780632b4656c8146103fe57600080fd5b80630696819f146103475780630a4912551461036357806315eadbff1461037857806319eaa8711461039c5780631af40af9146103af5780632169d7c4146103c2575b600080fd5b610350609c5481565b6040519081526020015b60405180910390f35b610376610371366004614159565b6106b6565b005b60995461038c90600160a01b900460ff1681565b604051901515815260200161035a565b6103766103aa366004614187565b6108cd565b6103766103bd3660046141b9565b610aa3565b6103766103d0366004614159565b610c67565b61035061271081565b6103506103ec366004614187565b60a86020526000908152604090205481565b61037661040c3660046141d6565b610e84565b610350600181565b61035060aa5481565b610376610430366004614244565b61129c565b61035060a55481565b61035061044c366004614187565b60a76020526000908152604090205481565b61038c61046c366004614187565b60a66020526000908152604090205460ff1681565b610376611550565b610376610497366004614244565b61178d565b6103766104aa366004614270565b611abf565b6103766104bd366004614159565b611c89565b610350601481565b6103766104d8366004614159565b611e7c565b60335460ff1661038c565b61035060a25481565b60a954610504906001600160a01b031681565b6040516001600160a01b03909116815260200161035a565b61035060a15481565b60ac5461038c9060ff1681565b610376610540366004614187565b612067565b61035060c881565b610350609b5481565b610376610564366004614244565b6123d8565b61037661281c565b6103506201518081565b61035060a35481565b610376610592366004614187565b612a56565b61035060a45481565b6103766105ae366004614244565b612bfc565b610350609e5481565b6103766105ca366004614159565b612e63565b61035060a05481565b6103766130a3565b6103766132e6565b610350609d5481565b6103766105ff366004614159565b6134c1565b61035060ab5481565b610350609f5481565b609754610504906001600160a01b031681565b610376610637366004614187565b6136bb565b609854610504906001600160a01b031681565b610350613864565b610350610665366004614187565b609a6020526000908152604090205481565b61038c610685366004614187565b6001600160a01b0316600090815260a6602052604090205460ff1690565b609954610504906001600160a01b031681565b6097546040805163c8cc243f60e01b815290516000926001600160a01b03169163c8cc243f9160048083019260209291908290030181865afa158015610700573d6000803e3d6000fd5b505050506040513d601f19601f8201168201806040525081019061072491906142a5565b9050806001600160a01b03166391d14854826001600160a01b031663e58378bb6040518163ffffffff1660e01b8152600401602060405180830381865afa158015610773573d6000803e3d6000fd5b505050506040513d601f19601f8201168201806040525081019061079791906142c2565b336040518363ffffffff1660e01b81526004016107b59291906142db565b602060405180830381865afa1580156107d2573d6000803e3d6000fd5b505050506040513d601f19601f820116820180604052508101906107f691906142f2565b61081b5760405162461bcd60e51b81526004016108129061430f565b60405180910390fd5b600182101561088a5760405162461bcd60e51b8152602060048201526041602482015260008051602061460b83398151915260448201527f756d2d6e756d6265722d6f662d73776170732d6c696d69742d7065722d7573656064820152603960f91b608482015260a401610812565b60a4546040805184815260208101929092527f8a678f401fa2d9a6dc80fc3ea8f4f31f9b5c20c0f13076ba7105b7d35867e50b910160405180910390a15060a455565b6097546040805163c8cc243f60e01b815290516000926001600160a01b03169163c8cc243f9160048083019260209291908290030181865afa158015610917573d6000803e3d6000fd5b505050506040513d601f19601f8201168201806040525081019061093b91906142a5565b9050806001600160a01b03166391d14854826001600160a01b031663e58378bb6040518163ffffffff1660e01b8152600401602060405180830381865afa15801561098a573d6000803e3d6000fd5b505050506040513d601f19601f820116820180604052508101906109ae91906142c2565b336040518363ffffffff1660e01b81526004016109cc9291906142db565b602060405180830381865afa1580156109e9573d6000803e3d6000fd5b505050506040513d601f19601f82011682018060405250810190610a0d91906142f2565b610a295760405162461bcd60e51b81526004016108129061430f565b6001600160a01b0382163b610a805760405162461bcd60e51b815260206004820152601d60248201527f537461626c65537761704d6f64756c652f6e6f742d636f6e74726163740000006044820152606401610812565b5060a980546001600160a01b0319166001600160a01b0392909216919091179055565b6097546040805163c8cc243f60e01b815290516000926001600160a01b03169163c8cc243f9160048083019260209291908290030181865afa158015610aed573d6000803e3d6000fd5b505050506040513d601f19601f82011682018060405250810190610b1191906142a5565b9050806001600160a01b03166391d14854826001600160a01b031663e58378bb6040518163ffffffff1660e01b8152600401602060405180830381865afa158015610b60573d6000803e3d6000fd5b505050506040513d601f19601f82011682018060405250810190610b8491906142c2565b336040518363ffffffff1660e01b8152600401610ba29291906142db565b602060405180830381865afa158015610bbf573d6000803e3d6000fd5b505050506040513d601f19601f82011682018060405250810190610be391906142f2565b610bff5760405162461bcd60e51b81526004016108129061430f565b60995460408051600160a01b90920460ff161515825283151560208301527f3fa229db5043f4a1d50be94716819fcfca2c864e74e7abb8fc65559a79c9a600910160405180910390a15060998054911515600160a01b0260ff60a01b19909216919091179055565b6097546040805163c8cc243f60e01b815290516000926001600160a01b03169163c8cc243f9160048083019260209291908290030181865afa158015610cb1573d6000803e3d6000fd5b505050506040513d601f19601f82011682018060405250810190610cd591906142a5565b9050806001600160a01b03166391d14854826001600160a01b031663e58378bb6040518163ffffffff1660e01b8152600401602060405180830381865afa158015610d24573d6000803e3d6000fd5b505050506040513d601f19601f82011682018060405250810190610d4891906142c2565b336040518363ffffffff1660e01b8152600401610d669291906142db565b602060405180830381865afa158015610d83573d6000803e3d6000fd5b505050506040513d601f19601f82011682018060405250810190610da791906142f2565b610dc35760405162461bcd60e51b81526004016108129061430f565b612710821115610de55760405162461bcd60e51b815260040161081290614333565b6014821015610e415760405162461bcd60e51b8152602060048201526034602482015260008051602061460b8339815191526044820152731d5b4b5cda5b99db194b5cddd85c0b5b1a5b5a5d60621b6064820152608401610812565b60a0546040805184815260208101929092527f1c7c5a58f6507a27552843542f6a493ca5506d4865a20d0295218c9bf0e93003910160405180910390a15060a055565b600054610100900460ff1615808015610ea45750600054600160ff909116105b80610ebe5750303b158015610ebe575060005460ff166001145b610f215760405162461bcd60e51b815260206004820152602e60248201527f496e697469616c697a61626c653a20636f6e747261637420697320616c72656160448201526d191e481a5b9a5d1a585b1a5e995960921b6064820152608401610812565b6000805460ff191660011790558015610f44576000805461ff0019166101001790555b610f4c6138ea565b610f5461391b565b60c8851015610fbb5760405162461bcd60e51b815260206004820152602d60248201527f696e697469616c697a652f6c6573732d7468616e2d6d696e696d756d2d64616960448201526c1b1e4b5cddd85c0b5b1a5b5a5d609a1b6064820152608401610812565b60148410156110235760405162461bcd60e51b815260206004820152602e60248201527f696e697469616c697a652f6c6573732d7468616e2d6d696e696d756d2d73696e60448201526d19db194b5cddd85c0b5b1a5b5a5d60921b6064820152608401610812565b600183101561109a5760405162461bcd60e51b815260206004820152603b60248201527f696e697469616c697a652f6c6573732d7468616e2d6d696e696d756d2d6e756d60448201527f6265722d6f662d73776170732d6c696d69742d7065722d7573657200000000006064820152608401610812565b60018210156111015760405162461bcd60e51b815260206004820152602d60248201527f696e697469616c697a652f6c6573732d7468616e2d6d696e696d756d2d626c6f60448201526c18dadccb5c195c8b5b1a5b5a5d609a1b6064820152608401610812565b6001600160a01b0388166111575760405162461bcd60e51b815260206004820152601b60248201527f696e697469616c697a652f7a65726f2d626f6f6b2d6b656570657200000000006044820152606401610812565b6001600160a01b0386166111ad5760405162461bcd60e51b815260206004820152601a60248201527f696e697469616c697a652f7a65726f2d737461626c65636f696e0000000000006044820152606401610812565b6001600160a01b0387166111fb5760405162461bcd60e51b815260206004820152601560248201527434b734ba34b0b634bd3297bd32b93796ba37b5b2b760591b6044820152606401610812565b609780546001600160a01b03808b166001600160a01b0319928316179092556098805489841690831617905560998054928a1692909116919091179055609f85905560a084905560a483905560a58290558015611292576000805461ff0019169055604051600181527f7f26b83ff96e1f2b6a682f133852f6798a09c465da95921460cefb38474024989060200160405180910390a15b5050505050505050565b6112a461394a565b6112ac6139a3565b60a9546001600160a01b031633146112d65760405162461bcd60e51b81526004016108129061437e565b6099546001600160a01b03838116911614806112ff57506098546001600160a01b038381169116145b61134b5760405162461bcd60e51b815260206004820152601f60248201527f6465706f736974537461626c65636f696e2f696e76616c69642d746f6b656e006044820152606401610812565b806000036113ac5760405162461bcd60e51b815260206004820152602860248201527f737461626c65737761702d6465706f736974537461626c65636f696e2f616d6f604482015267756e742d7a65726f60c01b6064820152608401610812565b806113c06001600160a01b038416336139e9565b101561141a5760405162461bcd60e51b8152602060048201526024808201527f6465706f736974537461626c65636f696e2f6e6f742d656e6f7567682d62616c604482015263616e636560e01b6064820152608401610812565b6001600160a01b0382166000908152609a6020526040812080548392906114429084906143cb565b9091555061145d90506001600160a01b038316333084613a60565b6114ca81836001600160a01b031663313ce5676040518163ffffffff1660e01b8152600401602060405180830381865afa15801561149f573d6000803e3d6000fd5b505050506040513d601f19601f820116820180604052508101906114c391906143de565b6012613bde565b60a360008282546114db91906143cb565b9091555050609954600160a01b900460ff16156115025742609d556114fe613c39565b609e555b6040518181526001600160a01b0383169033907fb024cc5591038c18f7e2348d474092b453a32212dd1ebcc0370c4ac2e42cce439060200160405180910390a361154c6001606555565b5050565b6097546040805163c8cc243f60e01b815290516000926001600160a01b03169163c8cc243f9160048083019260209291908290030181865afa15801561159a573d6000803e3d6000fd5b505050506040513d601f19601f820116820180604052508101906115be91906142a5565b9050806001600160a01b03166391d14854826001600160a01b031663e58378bb6040518163ffffffff1660e01b8152600401602060405180830381865afa15801561160d573d6000803e3d6000fd5b505050506040513d601f19601f8201168201806040525081019061163191906142c2565b336040518363ffffffff1660e01b815260040161164f9291906142db565b602060405180830381865afa15801561166c573d6000803e3d6000fd5b505050506040513d601f19601f8201168201806040525081019061169091906142f2565b806117665750806001600160a01b03166391d14854826001600160a01b031663b536818a6040518163ffffffff1660e01b8152600401602060405180830381865afa1580156116e3573d6000803e3d6000fd5b505050506040513d601f19601f8201168201806040525081019061170791906142c2565b336040518363ffffffff1660e01b81526004016117259291906142db565b602060405180830381865afa158015611742573d6000803e3d6000fd5b505050506040513d601f19601f8201168201806040525081019061176691906142f2565b6117825760405162461bcd60e51b815260040161081290614401565b61178a613c60565b50565b6117956139a3565b609954600160a01b900460ff166117fc5733600090815260a6602052604090205460ff166117fc5760405162461bcd60e51b81526020600482015260146024820152731d5cd95c8b5b9bdd0b5dda1a5d195b1a5cdd195960621b6044820152606401610812565b61180461394a565b806000036118545760405162461bcd60e51b815260206004820152601c60248201527f537461626c65537761704d6f64756c652f616d6f756e742d7a65726f000000006044820152606401610812565b60006118ad82609960009054906101000a90046001600160a01b03166001600160a01b031663313ce5676040518163ffffffff1660e01b8152600401602060405180830381865afa15801561149f573d6000803e3d6000fd5b90506000670de0b6b3a7640000609b54836118c89190614438565b6118d2919061444f565b905060006118e08284614471565b6098546001600160a01b03166000908152609a60205260409020549091508111156119695760405162461bcd60e51b815260206004820152603360248201527f73776170546f6b656e546f537461626c65636f696e2f6e6f742d656e6f7567686044820152722d737461626c65636f696e2d62616c616e636560681b6064820152608401610812565b609954600160a01b900460ff16156119955761198483613cb2565b61198d83613d36565b611995613e16565b6098546001600160a01b03166000908152609a6020526040812080548592906119bf908490614471565b90915550506099546001600160a01b03166000908152609a6020526040812080548692906119ee9084906143cb565b925050819055508160a26000828254611a0791906143cb565b925050819055508160aa6000828254611a2091906143cb565b925050819055508160a36000828254611a399190614471565b9091555050609954611a56906001600160a01b0316333087613a60565b609854611a6d906001600160a01b03168683613f0c565b60408051858152602081018490526001600160a01b038716917febeefb54ae6b697f8f7b14ec942871ef2fc051ec90c2a221007e5a5702a4d7f291015b60405180910390a250505061154c6001606555565b611ac761394a565b60a9546001600160a01b03163314611af15760405162461bcd60e51b81526004016108129061437e565b81151580611afe57508015155b611b4a5760405162461bcd60e51b815260206004820152601860248201527f7769746864726177466565732f616d6f756e742d7a65726f00000000000000006044820152606401610812565b8160aa541015611bac5760405162461bcd60e51b815260206004820152602760248201527f7769746864726177466565732f6e6f742d656e6f7567682d6678642d6665652d60448201526662616c616e636560c81b6064820152608401610812565b8060ab541015611c105760405162461bcd60e51b815260206004820152602960248201527f7769746864726177466565732f6e6f742d656e6f7567682d746f6b656e2d6665604482015268652d62616c616e636560b81b6064820152608401610812565b8160aa6000828254611c229190614471565b925050819055508060ab6000828254611c3b9190614471565b90915550508115611c5d57609854611c5d906001600160a01b03168484613f0c565b8015611c7a57609954611c7a906001600160a01b03168483613f0c565b611c846001606555565b505050565b6097546040805163c8cc243f60e01b815290516000926001600160a01b03169163c8cc243f9160048083019260209291908290030181865afa158015611cd3573d6000803e3d6000fd5b505050506040513d601f19601f82011682018060405250810190611cf791906142a5565b9050806001600160a01b03166391d14854826001600160a01b031663e58378bb6040518163ffffffff1660e01b8152600401602060405180830381865afa158015611d46573d6000803e3d6000fd5b505050506040513d601f19601f82011682018060405250810190611d6a91906142c2565b336040518363ffffffff1660e01b8152600401611d889291906142db565b602060405180830381865afa158015611da5573d6000803e3d6000fd5b505050506040513d601f19601f82011682018060405250810190611dc991906142f2565b611de55760405162461bcd60e51b81526004016108129061430f565b6706f05b59d3b20000821115611e3d5760405162461bcd60e51b815260206004820181905260248201527f537461626c65537761704d6f64756c652f696e76616c69642d6665652d6f75746044820152606401610812565b609c82905560405182815233907fca068f6ffd884c8217e477778ef3821efcb5e96690cff9e680c7dbd077d1d1bd906020015b60405180910390a25050565b6097546040805163c8cc243f60e01b815290516000926001600160a01b03169163c8cc243f9160048083019260209291908290030181865afa158015611ec6573d6000803e3d6000fd5b505050506040513d601f19601f82011682018060405250810190611eea91906142a5565b9050806001600160a01b03166391d14854826001600160a01b031663e58378bb6040518163ffffffff1660e01b8152600401602060405180830381865afa158015611f39573d6000803e3d6000fd5b505050506040513d601f19601f82011682018060405250810190611f5d91906142c2565b336040518363ffffffff1660e01b8152600401611f7b9291906142db565b602060405180830381865afa158015611f98573d6000803e3d6000fd5b505050506040513d601f19601f82011682018060405250810190611fbc91906142f2565b611fd85760405162461bcd60e51b81526004016108129061430f565b6706f05b59d3b200008211156120305760405162461bcd60e51b815260206004820152601f60248201527f537461626c65537761704d6f64756c652f696e76616c69642d6665652d696e006044820152606401610812565b609b82905560405182815233907f761b3141cbb42e607f4e550cf06b417f5d0fe476ee4fb6b9fbb34c4ae134b81390602001611e70565b61206f61394a565b6097546040805163c8cc243f60e01b815290516000926001600160a01b03169163c8cc243f9160048083019260209291908290030181865afa1580156120b9573d6000803e3d6000fd5b505050506040513d601f19601f820116820180604052508101906120dd91906142a5565b9050806001600160a01b03166391d14854826001600160a01b031663e58378bb6040518163ffffffff1660e01b8152600401602060405180830381865afa15801561212c573d6000803e3d6000fd5b505050506040513d601f19601f8201168201806040525081019061215091906142c2565b336040518363ffffffff1660e01b815260040161216e9291906142db565b602060405180830381865afa15801561218b573d6000803e3d6000fd5b505050506040513d601f19601f820116820180604052508101906121af91906142f2565b806122855750806001600160a01b03166391d14854826001600160a01b031663b536818a6040518163ffffffff1660e01b8152600401602060405180830381865afa158015612202573d6000803e3d6000fd5b505050506040513d601f19601f8201168201806040525081019061222691906142c2565b336040518363ffffffff1660e01b81526004016122449291906142db565b602060405180830381865afa158015612261573d6000803e3d6000fd5b505050506040513d601f19601f8201168201806040525081019061228591906142f2565b6122a15760405162461bcd60e51b815260040161081290614401565b6122a9614079565b6001600160a01b0382166122ff5760405162461bcd60e51b815260206004820152601a60248201527f7769746864726177466565732f656d7074792d6163636f756e740000000000006044820152606401610812565b600060a381905560a181905560a281905560aa81905560ab819055609980546001600160a01b039081168352609a6020526040808420849055609854821684528320929092555461236a9184916123579116306139e9565b6099546001600160a01b03169190613f0c565b609854612399908390612386906001600160a01b0316306139e9565b6098546001600160a01b03169190613f0c565b6040516001600160a01b038316907f66b4c12417b17d45e180a77a43b566ff7cdec1cc047789840043d696de3acb4890600090a25061178a6001606555565b6123e06139a3565b609954600160a01b900460ff166124475733600090815260a6602052604090205460ff166124475760405162461bcd60e51b81526020600482015260146024820152731d5cd95c8b5b9bdd0b5dda1a5d195b1a5cdd195960621b6044820152606401610812565b61244f61394a565b8060000361249f5760405162461bcd60e51b815260206004820152601c60248201527f537461626c65537761704d6f64756c652f616d6f756e742d7a65726f000000006044820152606401610812565b6000670de0b6b3a7640000609c54836124b89190614438565b6124c2919061444f565b90506000612548836012609960009054906101000a90046001600160a01b03166001600160a01b031663313ce5676040518163ffffffff1660e01b8152600401602060405180830381865afa15801561251f573d6000803e3d6000fd5b505050506040513d601f19601f8201168201806040525081019061254391906143de565b613bde565b905060006125a36125598486614471565b6099546040805163313ce56760e01b815290516012926001600160a01b03169163313ce5679160048083019260209291908290030181865afa15801561251f573d6000803e3d6000fd5b6099546001600160a01b03166000908152609a60205260409020549091508111156126275760405162461bcd60e51b815260206004820152602e60248201527f73776170537461626c65636f696e546f546f6b656e2f6e6f742d656e6f75676860448201526d2d746f6b656e2d62616c616e636560901b6064820152608401610812565b609954600160a01b900460ff16156126535761264284613cb2565b61264b84613d36565b612653613e16565b6099546001600160a01b03166000908152609a60205260408120805484929061267d908490614471565b90915550506098546001600160a01b03166000908152609a6020526040812080548692906126ac9084906143cb565b925050819055508260a360008282546126c59190614471565b92505081905550612725836012609960009054906101000a90046001600160a01b03166001600160a01b031663313ce5676040518163ffffffff1660e01b8152600401602060405180830381865afa15801561251f573d6000803e3d6000fd5b60a1600082825461273691906143cb565b92505081905550612796836012609960009054906101000a90046001600160a01b03166001600160a01b031663313ce5676040518163ffffffff1660e01b8152600401602060405180830381865afa15801561251f573d6000803e3d6000fd5b60ab60008282546127a791906143cb565b90915550506098546127c4906001600160a01b0316333087613a60565b6099546127db906001600160a01b03168683613f0c565b60408051858152602081018590526001600160a01b038716917f19db3e213473ea73ae4b6c76a26cbcb2a43d954d78caca305d507dec79b24e829101611aaa565b6097546040805163c8cc243f60e01b815290516000926001600160a01b03169163c8cc243f9160048083019260209291908290030181865afa158015612866573d6000803e3d6000fd5b505050506040513d601f19601f8201168201806040525081019061288a91906142a5565b9050806001600160a01b03166391d14854826001600160a01b031663e58378bb6040518163ffffffff1660e01b8152600401602060405180830381865afa1580156128d9573d6000803e3d6000fd5b505050506040513d601f19601f820116820180604052508101906128fd91906142c2565b336040518363ffffffff1660e01b815260040161291b9291906142db565b602060405180830381865afa158015612938573d6000803e3d6000fd5b505050506040513d601f19601f8201168201806040525081019061295c91906142f2565b80612a325750806001600160a01b03166391d14854826001600160a01b031663b536818a6040518163ffffffff1660e01b8152600401602060405180830381865afa1580156129af573d6000803e3d6000fd5b505050506040513d601f19601f820116820180604052508101906129d391906142c2565b336040518363ffffffff1660e01b81526004016129f19291906142db565b602060405180830381865afa158015612a0e573d6000803e3d6000fd5b505050506040513d601f19601f82011682018060405250810190612a3291906142f2565b612a4e5760405162461bcd60e51b815260040161081290614401565b61178a6140c2565b6097546040805163c8cc243f60e01b815290516000926001600160a01b03169163c8cc243f9160048083019260209291908290030181865afa158015612aa0573d6000803e3d6000fd5b505050506040513d601f19601f82011682018060405250810190612ac491906142a5565b9050806001600160a01b03166391d14854826001600160a01b031663e58378bb6040518163ffffffff1660e01b8152600401602060405180830381865afa158015612b13573d6000803e3d6000fd5b505050506040513d601f19601f82011682018060405250810190612b3791906142c2565b336040518363ffffffff1660e01b8152600401612b559291906142db565b602060405180830381865afa158015612b72573d6000803e3d6000fd5b505050506040513d601f19601f82011682018060405250810190612b9691906142f2565b612bb25760405162461bcd60e51b81526004016108129061430f565b6001600160a01b038216600081815260a66020526040808220805460ff19169055517f9e9499495e2efd848d33cb197bde94612c1ec36f30605b60d445511e056069e19190a25050565b612c0461394a565b60a9546001600160a01b03163314612c2e5760405162461bcd60e51b81526004016108129061437e565b6099546001600160a01b0383811691161480612c5757506098546001600160a01b038381169116145b612ca35760405162461bcd60e51b815260206004820152601b60248201527f7769746864726177546f6b656e2f696e76616c69642d746f6b656e00000000006044820152606401610812565b80600003612cf35760405162461bcd60e51b815260206004820152601960248201527f7769746864726177546f6b656e2f616d6f756e742d7a65726f000000000000006044820152606401610812565b6001600160a01b0382166000908152609a6020526040902054811115612d5b5760405162461bcd60e51b815260206004820181905260248201527f7769746864726177546f6b656e2f6e6f742d656e6f7567682d62616c616e63656044820152606401610812565b6001600160a01b0382166000908152609a602052604081208054839290612d83908490614471565b90915550612d9d90506001600160a01b0383163383613f0c565b6000612de182846001600160a01b031663313ce5676040518163ffffffff1660e01b8152600401602060405180830381865afa15801561149f573d6000803e3d6000fd5b905060a354811115612df757600060a355612e0f565b8060a36000828254612e099190614471565b90915550505b604080513381526001600160a01b03851660208201529081018390527f46ae78bc7b198b8b534ca0070d125569ac5f955976841c4343223079f3abf0de9060600160405180910390a15061154c6001606555565b6097546040805163c8cc243f60e01b815290516000926001600160a01b03169163c8cc243f9160048083019260209291908290030181865afa158015612ead573d6000803e3d6000fd5b505050506040513d601f19601f82011682018060405250810190612ed191906142a5565b9050806001600160a01b03166391d14854826001600160a01b031663e58378bb6040518163ffffffff1660e01b8152600401602060405180830381865afa158015612f20573d6000803e3d6000fd5b505050506040513d601f19601f82011682018060405250810190612f4491906142c2565b336040518363ffffffff1660e01b8152600401612f629291906142db565b602060405180830381865afa158015612f7f573d6000803e3d6000fd5b505050506040513d601f19601f82011682018060405250810190612fa391906142f2565b612fbf5760405162461bcd60e51b81526004016108129061430f565b612710821115612fe15760405162461bcd60e51b815260040161081290614333565b60c882101561303c5760405162461bcd60e51b8152602060048201526033602482015260008051602061460b8339815191526044820152721d5b4b59185a5b1e4b5cddd85c0b5b1a5b5a5d606a1b6064820152608401610812565b609f546040805184815260208101929092527f91fc53b44c6fd2d041f17f6121e3caacab265cf4b02f97d3fc6e2bc0c9d1ffe7910160405180910390a1609f829055609954600160a01b900460ff161561154c5742609d5561309c613c39565b609e555050565b6097546040805163c8cc243f60e01b815290516000926001600160a01b03169163c8cc243f9160048083019260209291908290030181865afa1580156130ed573d6000803e3d6000fd5b505050506040513d601f19601f8201168201806040525081019061311191906142a5565b9050806001600160a01b03166391d14854826001600160a01b031663e58378bb6040518163ffffffff1660e01b8152600401602060405180830381865afa158015613160573d6000803e3d6000fd5b505050506040513d601f19601f8201168201806040525081019061318491906142c2565b336040518363ffffffff1660e01b81526004016131a29291906142db565b602060405180830381865afa1580156131bf573d6000803e3d6000fd5b505050506040513d601f19601f820116820180604052508101906131e391906142f2565b6131ff5760405162461bcd60e51b81526004016108129061430f565b60a954604080516386eb513360e01b815290516000926001600160a01b0316916386eb51339160048083019260209291908290030181865afa158015613249573d6000803e3d6000fd5b505050506040513d601f19601f8201168201806040525081019061326d91906142c2565b90506132c860a154609960009054906101000a90046001600160a01b03166001600160a01b031663313ce5676040518163ffffffff1660e01b8152600401602060405180830381865afa15801561149f573d6000803e3d6000fd5b60a2546132d591906143cb565b6132df9082614471565b60a3555050565b6097546040805163c8cc243f60e01b815290516000926001600160a01b03169163c8cc243f9160048083019260209291908290030181865afa158015613330573d6000803e3d6000fd5b505050506040513d601f19601f8201168201806040525081019061335491906142a5565b9050806001600160a01b03166391d14854826001600160a01b031663e58378bb6040518163ffffffff1660e01b8152600401602060405180830381865afa1580156133a3573d6000803e3d6000fd5b505050506040513d601f19601f820116820180604052508101906133c791906142c2565b336040518363ffffffff1660e01b81526004016133e59291906142db565b602060405180830381865afa158015613402573d6000803e3d6000fd5b505050506040513d601f19601f8201168201806040525081019061342691906142f2565b6134425760405162461bcd60e51b81526004016108129061430f565b60ac5460ff1615156001036134a55760405162461bcd60e51b8152602060048201526024808201527f537461626c65537761704d6f64756c652f616c72656164792d696e697469616c6044820152631a5e995960e21b6064820152608401610812565b5060ac805460ff1916600117905560a25460aa5560a15460ab55565b6097546040805163c8cc243f60e01b815290516000926001600160a01b03169163c8cc243f9160048083019260209291908290030181865afa15801561350b573d6000803e3d6000fd5b505050506040513d601f19601f8201168201806040525081019061352f91906142a5565b9050806001600160a01b03166391d14854826001600160a01b031663e58378bb6040518163ffffffff1660e01b8152600401602060405180830381865afa15801561357e573d6000803e3d6000fd5b505050506040513d601f19601f820116820180604052508101906135a291906142c2565b336040518363ffffffff1660e01b81526004016135c09291906142db565b602060405180830381865afa1580156135dd573d6000803e3d6000fd5b505050506040513d601f19601f8201168201806040525081019061360191906142f2565b61361d5760405162461bcd60e51b81526004016108129061430f565b60018210156136785760405162461bcd60e51b8152602060048201526033602482015260008051602061460b8339815191526044820152721d5b4b589b1bd8dadccb5c195c8b5b1a5b5a5d606a1b6064820152608401610812565b60a5546040805184815260208101929092527fccf8e789fb000c09df38137a96907424dced975131f1321e0d4b75a5b1d8ceb0910160405180910390a15060a555565b6097546040805163c8cc243f60e01b815290516000926001600160a01b03169163c8cc243f9160048083019260209291908290030181865afa158015613705573d6000803e3d6000fd5b505050506040513d601f19601f8201168201806040525081019061372991906142a5565b9050806001600160a01b03166391d14854826001600160a01b031663e58378bb6040518163ffffffff1660e01b8152600401602060405180830381865afa158015613778573d6000803e3d6000fd5b505050506040513d601f19601f8201168201806040525081019061379c91906142c2565b336040518363ffffffff1660e01b81526004016137ba9291906142db565b602060405180830381865afa1580156137d7573d6000803e3d6000fd5b505050506040513d601f19601f820116820180604052508101906137fb91906142f2565b6138175760405162461bcd60e51b81526004016108129061430f565b6001600160a01b038216600081815260a66020526040808220805460ff19166001179055517f4e3d8c117d484081f7268ed79cded71ad42979b92feb5f8f7f9824ac5cbfe3759190a25050565b6099546001600160a01b03166000818152609a6020908152604080832054815163313ce56760e01b8152915193946138c0949193909263313ce56792600480830193928290030181865afa15801561149f573d6000803e3d6000fd5b6098546001600160a01b03166000908152609a60205260409020546138e591906143cb565b905090565b600054610100900460ff166139115760405162461bcd60e51b815260040161081290614484565b6139196140ff565b565b600054610100900460ff166139425760405162461bcd60e51b815260040161081290614484565b613919614132565b60026065540361399c5760405162461bcd60e51b815260206004820152601f60248201527f5265656e7472616e637947756172643a207265656e7472616e742063616c6c006044820152606401610812565b6002606555565b60335460ff16156139195760405162461bcd60e51b815260206004820152601060248201526f14185d5cd8589b194e881c185d5cd95960821b6044820152606401610812565b6040516370a0823160e01b81526001600160a01b038281166004830152600091908416906370a0823190602401602060405180830381865afa158015613a33573d6000803e3d6000fd5b505050506040513d601f19601f82011682018060405250810190613a5791906142c2565b90505b92915050565b6001600160a01b0384163b613ac65760405162461bcd60e51b815260206004820152602660248201527f736166655472616e7366657246726f6d3a206e6f6e2d636f6e7472616374206160448201526564647265737360d01b6064820152608401610812565b604080516001600160a01b0385811660248301528481166044830152606480830185905283518084039091018152608490920183526020820180516001600160e01b03166323b872dd60e01b1790529151600092839290881691613b2a91906144cf565b6000604051808303816000865af19150503d8060008114613b67576040519150601f19603f3d011682016040523d82523d6000602084013e613b6c565b606091505b5091509150818015613b96575080511580613b96575080806020019051810190613b9691906142f2565b613bd65760405162461bcd60e51b815260206004820152601160248201527021736166655472616e7366657246726f6d60781b6044820152606401610812565b505050505050565b60008260ff168260ff161015613c1257613bf882846144fe565b613c0390600a6145fb565b613c0d908561444f565b613c31565b613c1c83836144fe565b613c2790600a6145fb565b613c319085614438565b949350505050565b600080612710609f5460a354613c4f9190614438565b613a5a919061444f565b6001606555565b613c68614079565b6033805460ff191690557f5db9ee0a495bf2e6ff9c91a7834c1ba4fdd244a5e8aa4e537bd38aeae4b073aa335b6040516001600160a01b03909116815260200160405180910390a1565b61271060a05460a354613cc59190614438565b613ccf919061444f565b81111561178a5760405162461bcd60e51b815260206004820152602f60248201527f5f636865636b53696e676c65537761704c696d69742f73696e676c652d73776160448201526e1c0b595e18d959591ccb5b1a5b5a5d608a1b6064820152608401610812565b62015180609d5442613d489190614471565b10613d5d5742609d55613d59613c39565b609e555b80609e541015613dc65760405162461bcd60e51b815260206004820152602e60248201527f5f757064617465416e64436865636b4461696c794c696d69742f6461696c792d60448201526d1b1a5b5a5d0b595e18d95959195960921b6064820152608401610812565b80609e6000828254613dd89190614471565b9091555050609e546040519081527f3ba6536311b1b8c63364031768ec0197123478d2fc4b4c54f710b85c32c12b319060200160405180910390a150565b60a55433600090815260a86020526040902054613e339043614471565b10613e5a5733600090815260a86020908152604080832043905560a45460a7909252909120555b33600090815260a76020526040902054613ede576040805162461bcd60e51b81526020600482015260248101919091527f5f757064617465416e64436865636b4e756d6265724f665377617073496e426c60448201527f6f636b735065724c696d69742f737761702d6c696d69742d65786365656465646064820152608401610812565b33600090815260a76020526040902054613efa90600190614471565b33600090815260a76020526040902055565b6001600160a01b0383163b613f6e5760405162461bcd60e51b815260206004820152602260248201527f736166655472616e736665723a206e6f6e2d636f6e7472616374206164647265604482015261737360f01b6064820152608401610812565b604080516001600160a01b038481166024830152604480830185905283518084039091018152606490920183526020820180516001600160e01b031663a9059cbb60e01b1790529151600092839290871691613fca91906144cf565b6000604051808303816000865af19150503d8060008114614007576040519150601f19603f3d011682016040523d82523d6000602084013e61400c565b606091505b509150915081801561403657508051158061403657508080602001905181019061403691906142f2565b6140725760405162461bcd60e51b815260206004820152600d60248201526c10b9b0b332aa3930b739b332b960991b6044820152606401610812565b5050505050565b60335460ff166139195760405162461bcd60e51b815260206004820152601460248201527314185d5cd8589b194e881b9bdd081c185d5cd95960621b6044820152606401610812565b6140ca6139a3565b6033805460ff191660011790557f62e78cea01bee320cd4e420270b5ea74000d11b0c9f74754ebdbfc544b05a258613c953390565b600054610100900460ff166141265760405162461bcd60e51b815260040161081290614484565b6033805460ff19169055565b600054610100900460ff16613c595760405162461bcd60e51b815260040161081290614484565b60006020828403121561416b57600080fd5b5035919050565b6001600160a01b038116811461178a57600080fd5b60006020828403121561419957600080fd5b81356141a481614172565b9392505050565b801515811461178a57600080fd5b6000602082840312156141cb57600080fd5b81356141a4816141ab565b600080600080600080600060e0888a0312156141f157600080fd5b87356141fc81614172565b9650602088013561420c81614172565b9550604088013561421c81614172565b969995985095966060810135965060808101359560a0820135955060c0909101359350915050565b6000806040838503121561425757600080fd5b823561426281614172565b946020939093013593505050565b60008060006060848603121561428557600080fd5b833561429081614172565b95602085013595506040909401359392505050565b6000602082840312156142b757600080fd5b81516141a481614172565b6000602082840312156142d457600080fd5b5051919050565b9182526001600160a01b0316602082015260400190565b60006020828403121561430457600080fd5b81516141a4816141ab565b6020808252600a9082015269216f776e6572526f6c6560b01b604082015260600190565b6020808252602b908201527f537461626c65537761704d6f64756c652f6e756d657261746f722d6f7665722d60408201526a3232b737b6b4b730ba37b960a91b606082015260800190565b60208082526017908201527f6f6e6c792d737461626c65737761702d77726170706572000000000000000000604082015260600190565b634e487b7160e01b600052601160045260246000fd5b80820180821115613a5a57613a5a6143b5565b6000602082840312156143f057600080fd5b815160ff811681146141a457600080fd5b60208082526017908201527f21286f776e6572526f6c65206f7220676f76526f6c6529000000000000000000604082015260600190565b8082028115828204841417613a5a57613a5a6143b5565b60008261446c57634e487b7160e01b600052601260045260246000fd5b500490565b81810381811115613a5a57613a5a6143b5565b6020808252602b908201527f496e697469616c697a61626c653a20636f6e7472616374206973206e6f74206960408201526a6e697469616c697a696e6760a81b606082015260800190565b6000825160005b818110156144f057602081860181015185830152016144d6565b506000920191825250919050565b60ff8281168282160390811115613a5a57613a5a6143b5565b600181815b80851115614552578160001904821115614538576145386143b5565b8085161561454557918102915b93841c939080029061451c565b509250929050565b60008261456957506001613a5a565b8161457657506000613a5a565b816001811461458c5760028114614596576145b2565b6001915050613a5a565b60ff8411156145a7576145a76143b5565b50506001821b613a5a565b5060208310610133831016604e8410600b84101617156145d5575081810a613a5a565b6145df8383614517565b80600019048211156145f3576145f36143b5565b029392505050565b6000613a5760ff84168361455a56fe537461626c65537761704d6f64756c652f6c6573732d7468616e2d6d696e696da2646970667358221220ff9bea0080112a5ea915a872517e4b80720bd50a1477a16d767d930c214ff35064736f6c63430008110033",
    "immutableReferences": {},
    "source": "// SPDX-License-Identifier: AGPL-3.0-or-later\npragma solidity 0.8.17;\n\nimport \"@openzeppelin/contracts-upgradeable/access/OwnableUpgradeable.sol\";\nimport \"@openzeppelin/contracts-upgradeable/security/PausableUpgradeable.sol\";\nimport \"@openzeppelin/contracts-upgradeable/security/ReentrancyGuardUpgradeable.sol\";\n\nimport \"../interfaces/IToken.sol\";\nimport \"../interfaces/IStablecoinAdapter.sol\";\nimport \"../interfaces/IStablecoin.sol\";\nimport \"../interfaces/IBookKeeper.sol\";\nimport \"../interfaces/IStableSwapModule.sol\";\nimport \"../utils/SafeToken.sol\";\nimport \"../interfaces/IStableSwapModuleWrapperRetriever.sol\";\n\n// Stable Swap Module\n// Allows anyone to go between FUSD and the Token by pooling the liquidity\n// An optional fee is charged for incoming and outgoing transfers\ncontract StableSwapModule is PausableUpgradeable, ReentrancyGuardUpgradeable, IStableSwapModule {\n    using SafeToken for address;\n\n    uint256 public constant ONE_DAY = 86400;\n    uint256 internal constant WAD = 10 ** 18;\n\n    IBookKeeper public bookKeeper;\n    address public override stablecoin;\n    address public override token;\n    bool public isDecentralizedState;\n    mapping(address => uint256) public override tokenBalance;\n\n    uint256 public feeIn; // fee in [wad]\n    uint256 public feeOut; // fee out [wad]\n    uint256 public lastUpdate;\n\n    uint256 public remainingDailySwapAmount; // [wad]\n    uint256 public dailySwapLimitNumerator;\n    uint256 public singleSwapLimitNumerator;\n    uint256 public totalTokenFeeBalance; // 6 decimals\n    uint256 public totalFXDFeeBalance; // [wad]\n    uint256 public totalValueDeposited;\n    uint256 public numberOfSwapsLimitPerUser; // number of swaps per user within a certain block limit set\n    uint256 public blocksPerLimit; // number of blocks within which the number of swaps per user is limited\n\n    uint256 public constant DAILY_SWAP_LIMIT_DENOMINATOR = 10000;\n    uint256 public constant SINGLE_SWAP_LIMIT_DENOMINATOR = 10000;\n    uint256 public constant MINIMUM_DAILY_SWAP_LIMIT_NUMERATOR = 200; //200/10000 = 2%\n    uint256 public constant MINIMUM_SINGLE_SWAP_LIMIT_NUMERATOR = 20; //20/10000 = 0.2%\n    uint256 public constant MINIMUM_BLOCKS_PER_LIMIT = 1;\n    uint256 public constant MINIMUM_NUMBER_OF_SWAPS_LIMIT_PER_USER = 1;\n\n    mapping(address => bool) public usersWhitelist;\n    mapping(address => uint256) public numberOfSwapsRemainingPerUserInBlockLimit;\n    mapping(address => uint256) public lastSwapBlockNumberPerUser;\n\n    //storage variables after upgrade\n    address public stableswapWrapper;\n   \n    //storage variables after upgrade - 2\n    uint256 public override remainingFXDFeeBalance;\n    uint256 public override remainingTokenFeeBalance;\n    bool public feesUpgradeInitialized;\n\n    event LogSetFeeIn(address indexed _caller, uint256 _feeIn);\n    event LogSetFeeOut(address indexed _caller, uint256 _feeOut);\n    event LogSwapTokenToStablecoin(address indexed _owner, uint256 _value, uint256 _fee);\n    event LogSwapStablecoinToToken(address indexed _owner, uint256 _value, uint256 _fee);\n    event LogDailySwapLimitUpdate(uint256 _newDailySwapLimit, uint256 _oldDailySwapLimit);\n    event LogSingleSwapLimitUpdate(uint256 _newSingleSwapLimit, uint256 _oldSingleSwapLimit);\n    event LogDepositToken(address indexed _owner, address indexed _token, uint256 _value);\n    event LogWithdrawFees(address indexed _destination, uint256 _stablecoinFee, uint256 _tokenFee);\n    event LogRemainingDailySwapAmount(uint256 _remainingDailySwapAmount);\n    event LogEmergencyWithdraw(address indexed _account);\n    event LogDecentralizedStateStatus(bool _oldDecentralizedStateStatus, bool _newDecentralizedStateStatus);\n    event LogAddToWhitelist(address indexed user);\n    event LogRemoveFromWhitelist(address indexed user);\n    event LogNumberOfSwapsLimitPerUserUpdate(uint256 _newNumberOfSwapsLimitPerUser, uint256 _oldNumberOfSwapsLimitPerUser);\n    event LogBlocksPerLimitUpdate(uint256 _newBlocksPerLimit, uint256 _oldBlocksPerLimit);\n    event LogWithdrawToken(address _account, address _token, uint256 _amount);\n\n    modifier onlyOwner() {\n        IAccessControlConfig _accessControlConfig = IAccessControlConfig(bookKeeper.accessControlConfig());\n        require(_accessControlConfig.hasRole(_accessControlConfig.OWNER_ROLE(), msg.sender), \"!ownerRole\");\n        _;\n    }\n\n    modifier onlyOwnerOrGov() {\n        IAccessControlConfig _accessControlConfig = IAccessControlConfig(bookKeeper.accessControlConfig());\n        require(\n            _accessControlConfig.hasRole(_accessControlConfig.OWNER_ROLE(), msg.sender) ||\n                _accessControlConfig.hasRole(_accessControlConfig.GOV_ROLE(), msg.sender),\n            \"!(ownerRole or govRole)\"\n        );\n        _;\n    }\n\n    modifier onlyWhitelistedIfNotDecentralized() {\n        if (!isDecentralizedState) {\n            require(usersWhitelist[msg.sender], \"user-not-whitelisted\");\n        }\n        _;\n    }\n\n    modifier onlyStableswapWrapper() {\n        require(msg.sender == stableswapWrapper, \"only-stableswap-wrapper\");\n        _;\n    }\n\n    function initialize(\n        address _bookKeeper,\n        address _token,\n        address _stablecoin,\n        uint256 _dailySwapLimitNumerator,\n        uint256 _singleSwapLimitNumerator,\n        uint256 _numberOfSwapsLimitPerUser,\n        uint256 _blocksPerLimit\n    ) external initializer {\n        PausableUpgradeable.__Pausable_init();\n        ReentrancyGuardUpgradeable.__ReentrancyGuard_init();\n\n        require(_dailySwapLimitNumerator >= MINIMUM_DAILY_SWAP_LIMIT_NUMERATOR, \"initialize/less-than-minimum-daily-swap-limit\");\n        require(_singleSwapLimitNumerator >= MINIMUM_SINGLE_SWAP_LIMIT_NUMERATOR, \"initialize/less-than-minimum-single-swap-limit\");\n        require(_numberOfSwapsLimitPerUser >= MINIMUM_NUMBER_OF_SWAPS_LIMIT_PER_USER, \"initialize/less-than-minimum-number-of-swaps-limit-per-user\");\n        require(_blocksPerLimit >= MINIMUM_BLOCKS_PER_LIMIT, \"initialize/less-than-minimum-blocks-per-limit\");\n\n        require(_bookKeeper != address(0), \"initialize/zero-book-keeper\");\n        require(_stablecoin != address(0), \"initialize/zero-stablecoin\");\n        require(_token != address(0), \"initialize/zero-token\");\n\n        bookKeeper = IBookKeeper(_bookKeeper);\n        stablecoin = _stablecoin;\n        token = _token;\n        dailySwapLimitNumerator = _dailySwapLimitNumerator;\n        singleSwapLimitNumerator = _singleSwapLimitNumerator;\n        numberOfSwapsLimitPerUser = _numberOfSwapsLimitPerUser;\n        blocksPerLimit = _blocksPerLimit;\n    }\n\n    /**\n     * @notice the function is to be called by the owner to initialize the fees after upgrade\n     */\n    function initializeFeesAfterUpgrade() external onlyOwner{\n        require(feesUpgradeInitialized != true, \"StableSwapModule/already-initialized\");\n        feesUpgradeInitialized = true;\n        remainingFXDFeeBalance = totalFXDFeeBalance;\n        remainingTokenFeeBalance = totalTokenFeeBalance;\n    }\n    /**\n     * @notice the function is to only mitigate the bad storage after upgrade.\n     */\n    function udpateTotalValueDeposited() external onlyOwner {\n        uint256 newTotalValueDeposited = IStableSwapModuleWrapperRetriever(stableswapWrapper).totalValueDeposited();\n        totalValueDeposited = newTotalValueDeposited - (totalFXDFeeBalance + _convertDecimals(totalTokenFeeBalance, IToken(token).decimals(), 18));\n    }\n\n    function setStableSwapWrapper(address newStableSwapWrapper) external onlyOwner {\n        require(AddressUpgradeable.isContract(newStableSwapWrapper), \"StableSwapModule/not-contract\");\n        stableswapWrapper = newStableSwapWrapper;\n    }\n\n    function setDailySwapLimitNumerator(uint256 newdailySwapLimitNumerator) external onlyOwner {\n        require(newdailySwapLimitNumerator <= DAILY_SWAP_LIMIT_DENOMINATOR, \"StableSwapModule/numerator-over-denominator\");\n        require(newdailySwapLimitNumerator >= MINIMUM_DAILY_SWAP_LIMIT_NUMERATOR, \"StableSwapModule/less-than-minimum-daily-swap-limit\");\n        emit LogDailySwapLimitUpdate(newdailySwapLimitNumerator, dailySwapLimitNumerator);\n        dailySwapLimitNumerator = newdailySwapLimitNumerator;\n        if (isDecentralizedState) {\n            lastUpdate = block.timestamp;\n            remainingDailySwapAmount = _dailySwapLimit();\n        }\n    }\n\n    function setSingleSwapLimitNumerator(uint256 newSingleSwapLimitNumerator) external onlyOwner {\n        require(newSingleSwapLimitNumerator <= SINGLE_SWAP_LIMIT_DENOMINATOR, \"StableSwapModule/numerator-over-denominator\");\n        require(newSingleSwapLimitNumerator >= MINIMUM_SINGLE_SWAP_LIMIT_NUMERATOR, \"StableSwapModule/less-than-minimum-single-swap-limit\");\n        emit LogSingleSwapLimitUpdate(newSingleSwapLimitNumerator, singleSwapLimitNumerator);\n        singleSwapLimitNumerator = newSingleSwapLimitNumerator;\n    }\n\n    function setNumberOfSwapsLimitPerUser(uint256 newNumberOfSwapsLimitPerUser) external onlyOwner {\n        require(\n            newNumberOfSwapsLimitPerUser >= MINIMUM_NUMBER_OF_SWAPS_LIMIT_PER_USER,\n            \"StableSwapModule/less-than-minimum-number-of-swaps-limit-per-user\"\n        );\n        emit LogNumberOfSwapsLimitPerUserUpdate(newNumberOfSwapsLimitPerUser, numberOfSwapsLimitPerUser);\n        numberOfSwapsLimitPerUser = newNumberOfSwapsLimitPerUser;\n    }\n\n    function setBlocksPerLimit(uint256 newBlocksPerLimit) external onlyOwner {\n        require(newBlocksPerLimit >= MINIMUM_BLOCKS_PER_LIMIT, \"StableSwapModule/less-than-minimum-blocks-per-limit\");\n        emit LogBlocksPerLimitUpdate(newBlocksPerLimit, blocksPerLimit);\n        blocksPerLimit = newBlocksPerLimit;\n    }\n\n    function setFeeIn(uint256 _feeIn) external onlyOwner {\n        require(_feeIn <= 5 * 1e17, \"StableSwapModule/invalid-fee-in\"); // Max feeIn is 0.5 Ethers or 50%\n        feeIn = _feeIn;\n        emit LogSetFeeIn(msg.sender, _feeIn);\n    }\n\n    function setFeeOut(uint256 _feeOut) external onlyOwner {\n        require(_feeOut <= 5 * 1e17, \"StableSwapModule/invalid-fee-out\"); // Max feeOut is 0.5 Ethers or 50%\n        feeOut = _feeOut;\n        emit LogSetFeeOut(msg.sender, _feeOut);\n    }\n\n    function setDecentralizedStatesStatus(bool _status) external onlyOwner {\n        emit LogDecentralizedStateStatus(isDecentralizedState, _status);\n        isDecentralizedState = _status;\n    }\n\n    function addToWhitelist(address _user) external onlyOwner {\n        usersWhitelist[_user] = true;\n        emit LogAddToWhitelist(_user);\n    }\n\n    function removeFromWhitelist(address _user) external onlyOwner {\n        usersWhitelist[_user] = false;\n        emit LogRemoveFromWhitelist(_user);\n    }\n    \n    /**\n    * @dev the function is to be called by the stableswap wrapper to swap tokens to stablecoin\n    * @param _usr the address of the user that receives the stablecoin\n    * @param _amount the amount of tokens to be swapped\n    */\n    function swapTokenToStablecoin(address _usr, uint256 _amount) external override whenNotPaused onlyWhitelistedIfNotDecentralized nonReentrant {\n        require(_amount != 0, \"StableSwapModule/amount-zero\");\n\n        uint256 tokenAmount18 = _convertDecimals(_amount, IToken(token).decimals(), 18);\n        uint256 fee = (tokenAmount18 * feeIn) / WAD;\n        uint256 stablecoinAmount = tokenAmount18 - fee;\n        require(tokenBalance[stablecoin] >= stablecoinAmount, \"swapTokenToStablecoin/not-enough-stablecoin-balance\");\n\n        if (isDecentralizedState) {\n            _checkSingleSwapLimit(tokenAmount18);\n            _updateAndCheckDailyLimit(tokenAmount18);\n            _updateAndCheckNumberOfSwapsInBlocksPerLimit();\n        }\n\n        tokenBalance[stablecoin] -= tokenAmount18;\n        tokenBalance[token] += _amount;\n        \n        totalFXDFeeBalance += fee;\n        remainingFXDFeeBalance += fee;\n\n        totalValueDeposited -= fee;\n\n        token.safeTransferFrom(msg.sender, address(this), _amount);\n        stablecoin.safeTransfer(_usr, stablecoinAmount);\n        emit LogSwapTokenToStablecoin(_usr, _amount, fee);\n    }\n\n    /**\n    * @dev the function is to be called by the stableswap wrapper to swap stablecoin to tokens\n    * @param _usr the address of the user that receives the tokens\n    * @param _amount the amount of stablecoin to be swapped\n    */\n    function swapStablecoinToToken(address _usr, uint256 _amount) external override whenNotPaused onlyWhitelistedIfNotDecentralized nonReentrant {\n        require(_amount != 0, \"StableSwapModule/amount-zero\");\n\n        uint256 fee = (_amount * feeOut) / WAD;\n        uint256 _amountScaled = _convertDecimals(_amount, 18, IToken(token).decimals());\n        uint256 tokenAmount = _convertDecimals(_amount - fee, 18, IToken(token).decimals());\n\n        require(tokenBalance[token] >= tokenAmount, \"swapStablecoinToToken/not-enough-token-balance\");\n\n        if (isDecentralizedState) {\n            _checkSingleSwapLimit(_amount);\n            _updateAndCheckDailyLimit(_amount);\n            _updateAndCheckNumberOfSwapsInBlocksPerLimit();\n        }\n\n        tokenBalance[token] -= _amountScaled;\n        tokenBalance[stablecoin] += _amount;\n        \n        totalValueDeposited -= fee;\n        \n        totalTokenFeeBalance += _convertDecimals(fee, 18, IToken(token).decimals());\n        remainingTokenFeeBalance += _convertDecimals(fee, 18, IToken(token).decimals());\n\n        stablecoin.safeTransferFrom(msg.sender, address(this), _amount);\n        token.safeTransfer(_usr, tokenAmount);\n        emit LogSwapStablecoinToToken(_usr, _amount, fee);\n    }\n\n    /** \n     * @dev the function is to be called by the stableswap wrapper to deposit tokens\n     * @param _token the address of the token to be deposited\n     * @param _amount the amount of tokens to be deposited\n     */\n    function depositToken(address _token, uint256 _amount) external override nonReentrant whenNotPaused onlyStableswapWrapper {\n        require(_token == token || _token == stablecoin, \"depositStablecoin/invalid-token\");\n        require(_amount != 0, \"stableswap-depositStablecoin/amount-zero\");\n        require(_token.balanceOf(msg.sender) >= _amount, \"depositStablecoin/not-enough-balance\");\n        \n        tokenBalance[_token] += _amount;\n        _token.safeTransferFrom(msg.sender, address(this), _amount);\n        \n        totalValueDeposited += _convertDecimals(_amount, IToken(_token).decimals(), 18);\n    \n        if (isDecentralizedState) {\n            lastUpdate = block.timestamp;\n            remainingDailySwapAmount = _dailySwapLimit();\n        }\n\n        emit LogDepositToken(msg.sender, _token, _amount);\n    }\n    \n    /**\n     * @dev the function is to be called by the stableswap wrapper to withdraw fees\n     * @param _destination the address of the user that receives the fees\n     * @param _amountFXDFee the amount of fees in stablecoin to be withdrawn\n     * @param _amountTokenFee the amount of fees in tokens to be withdrawn\n     */\n    function withdrawFees(address _destination, uint256 _amountFXDFee, uint256 _amountTokenFee) external override nonReentrant onlyStableswapWrapper {\n        require(_amountFXDFee != 0 || _amountTokenFee != 0, \"withdrawFees/amount-zero\");\n        require(remainingFXDFeeBalance >= _amountFXDFee, \"withdrawFees/not-enough-fxd-fee-balance\");\n        require(remainingTokenFeeBalance >= _amountTokenFee, \"withdrawFees/not-enough-token-fee-balance\");\n\n        remainingFXDFeeBalance -= _amountFXDFee;\n        remainingTokenFeeBalance -= _amountTokenFee;\n        \n        if(_amountFXDFee > 0) {\n            stablecoin.safeTransfer(_destination, _amountFXDFee);\n        }\n        if(_amountTokenFee > 0) {\n            token.safeTransfer(_destination, _amountTokenFee);\n        }\n    }\n\n    /**\n     * @dev the function is to be called by the stableswap wrapper to withdraw tokens\n     * @param _token the address of the token to be withdrawn\n     * @param _amount the amount of tokens to be withdrawn\n     */\n    function withdrawToken(address _token, uint256 _amount) external override nonReentrant onlyStableswapWrapper {\n        require(_token == token || _token == stablecoin, \"withdrawToken/invalid-token\");\n        require(_amount != 0, \"withdrawToken/amount-zero\");\n        require(tokenBalance[_token] >= _amount, \"withdrawToken/not-enough-balance\");\n\n        tokenBalance[_token] -= _amount;\n        _token.safeTransfer(msg.sender, _amount);\n\n        uint256 amountScaled = _convertDecimals(_amount, IToken(_token).decimals(), 18);\n\n        //to account for precision loss due to convert decimals\n        if(amountScaled > totalValueDeposited) {\n            totalValueDeposited = 0;\n        } else {\n            totalValueDeposited -= amountScaled;\n        }\n        \n        emit LogWithdrawToken(msg.sender, _token, _amount);\n    }\n\n    function pause() external onlyOwnerOrGov {\n        _pause();\n    }\n\n    function unpause() external onlyOwnerOrGov {\n        _unpause();\n    }\n\n    /**\n     * @dev the function withdraws whole balance of both the tokens\n     * @dev Fees is also withdrawn, so once emergencyWithdraw is done, people wont be able to withdraw their fees\n     * @dev All the balances will be reset\n    */\n    function emergencyWithdraw(address _account) external override nonReentrant onlyOwnerOrGov whenPaused {\n        require(_account != address(0), \"withdrawFees/empty-account\");\n        \n        totalValueDeposited = 0;\n        totalTokenFeeBalance = 0;\n        totalFXDFeeBalance = 0;\n\n        remainingFXDFeeBalance = 0;\n        remainingTokenFeeBalance = 0;\n        \n        tokenBalance[token] = 0;\n        tokenBalance[stablecoin] = 0;\n        \n        token.safeTransfer(_account, token.balanceOf(address(this)));\n        stablecoin.safeTransfer(_account, stablecoin.balanceOf(address(this)));\n        emit LogEmergencyWithdraw(_account);\n    }\n\n    function isUserWhitelisted(address _user) external view returns (bool) {\n        return usersWhitelist[_user];\n    }\n\n    function totalValueLocked() external view returns (uint256) {\n        return tokenBalance[stablecoin] + _convertDecimals(tokenBalance[token], IToken(token).decimals(), 18);\n    }\n\n    function _updateAndCheckDailyLimit(uint256 _amount) internal {\n        if (block.timestamp - lastUpdate >= ONE_DAY) {\n            lastUpdate = block.timestamp;\n            remainingDailySwapAmount = _dailySwapLimit();\n        }\n        require(remainingDailySwapAmount >= _amount, \"_updateAndCheckDailyLimit/daily-limit-exceeded\");\n        remainingDailySwapAmount -= _amount;\n        emit LogRemainingDailySwapAmount(remainingDailySwapAmount);\n    }\n\n    function _updateAndCheckNumberOfSwapsInBlocksPerLimit() internal {\n        if (block.number - lastSwapBlockNumberPerUser[msg.sender] >= blocksPerLimit) {\n            lastSwapBlockNumberPerUser[msg.sender] = block.number;\n            numberOfSwapsRemainingPerUserInBlockLimit[msg.sender] = numberOfSwapsLimitPerUser;\n        }\n        require(numberOfSwapsRemainingPerUserInBlockLimit[msg.sender] > 0, \"_updateAndCheckNumberOfSwapsInBlocksPerLimit/swap-limit-exceeded\");\n        numberOfSwapsRemainingPerUserInBlockLimit[msg.sender] = numberOfSwapsRemainingPerUserInBlockLimit[msg.sender] - 1;\n    }\n\n    function _checkSingleSwapLimit(uint256 _amount) internal view {\n        require(\n            _amount <= (totalValueDeposited * singleSwapLimitNumerator) / SINGLE_SWAP_LIMIT_DENOMINATOR,\n            \"_checkSingleSwapLimit/single-swap-exceeds-limit\"\n        );\n    }\n\n    function _dailySwapLimit() internal view returns (uint256) {\n        uint256 newDailySwapLimit = (totalValueDeposited * dailySwapLimitNumerator) / DAILY_SWAP_LIMIT_DENOMINATOR;\n        return newDailySwapLimit;\n    }\n\n    function _convertDecimals(uint256 _amount, uint8 _fromDecimals, uint8 _toDecimals) internal pure returns (uint256 result) {\n        result = _toDecimals >= _fromDecimals ? _amount * (10 ** (_toDecimals - _fromDecimals)) : _amount / (10 ** (_fromDecimals - _toDecimals));\n    }\n}\n",
    "sourcePath": "/Users/sangjun.lee/Sangjun/fathom-stablecoin-smart-contracts/contracts/main/stablecoin-core/StableSwapModule.sol",
    "compiler": {
        "name": "solc",
        "version": "0.8.17+commit.8df45f5f.Emscripten.clang"
    },
    "schemaVersion": "3.4.10",
    "updatedAt": "2023-07-25T11:12:21.235Z",
    "devdoc": {
        "kind": "dev",
        "methods": {
            "depositToken(address,uint256)": {
                "details": "the function is to be called by the stableswap wrapper to deposit tokens",
                "params": {
                    "_amount": "the amount of tokens to be deposited",
                    "_token": "the address of the token to be deposited"
                }
            },
            "emergencyWithdraw(address)": {
                "details": "the function withdraws whole balance of both the tokensFees is also withdrawn, so once emergencyWithdraw is done, people wont be able to withdraw their feesAll the balances will be reset"
            },
            "paused()": {
                "details": "Returns true if the contract is paused, and false otherwise."
            },
            "swapStablecoinToToken(address,uint256)": {
                "details": "the function is to be called by the stableswap wrapper to swap stablecoin to tokens",
                "params": {
                    "_amount": "the amount of stablecoin to be swapped",
                    "_usr": "the address of the user that receives the tokens"
                }
            },
            "swapTokenToStablecoin(address,uint256)": {
                "details": "the function is to be called by the stableswap wrapper to swap tokens to stablecoin",
                "params": {
                    "_amount": "the amount of tokens to be swapped",
                    "_usr": "the address of the user that receives the stablecoin"
                }
            },
            "withdrawFees(address,uint256,uint256)": {
                "details": "the function is to be called by the stableswap wrapper to withdraw fees",
                "params": {
                    "_amountFXDFee": "the amount of fees in stablecoin to be withdrawn",
                    "_amountTokenFee": "the amount of fees in tokens to be withdrawn",
                    "_destination": "the address of the user that receives the fees"
                }
            },
            "withdrawToken(address,uint256)": {
                "details": "the function is to be called by the stableswap wrapper to withdraw tokens",
                "params": {
                    "_amount": "the amount of tokens to be withdrawn",
                    "_token": "the address of the token to be withdrawn"
                }
            }
        },
        "version": 1
    },
    "userdoc": {
        "kind": "user",
        "methods": {
            "initializeFeesAfterUpgrade()": {
                "notice": "the function is to be called by the owner to initialize the fees after upgrade"
            },
            "udpateTotalValueDeposited()": {
                "notice": "the function is to only mitigate the bad storage after upgrade."
            }
        },
        "version": 1
    }
}