{
    "contractName": "StableSwapModuleWrapper",
    "abi": [
        {
            "anonymous": false,
            "inputs": [
                {
                    "indexed": false,
                    "internalType": "uint8",
                    "name": "version",
                    "type": "uint8"
                }
            ],
            "name": "Initialized",
            "type": "event"
        },
        {
            "anonymous": false,
            "inputs": [
                {
                    "indexed": true,
                    "internalType": "address",
                    "name": "user",
                    "type": "address"
                }
            ],
            "name": "LogAddToWhitelist",
            "type": "event"
        },
        {
            "anonymous": false,
            "inputs": [
                {
                    "indexed": true,
                    "internalType": "address",
                    "name": "_depositor",
                    "type": "address"
                },
                {
                    "indexed": false,
                    "internalType": "uint256",
                    "name": "_amount",
                    "type": "uint256"
                }
            ],
            "name": "LogDepositTokens",
            "type": "event"
        },
        {
            "anonymous": false,
            "inputs": [
                {
                    "indexed": true,
                    "internalType": "address",
                    "name": "user",
                    "type": "address"
                }
            ],
            "name": "LogRemoveFromWhitelist",
            "type": "event"
        },
        {
            "anonymous": false,
            "inputs": [
                {
                    "indexed": false,
                    "internalType": "bool",
                    "name": "_pauseState",
                    "type": "bool"
                }
            ],
            "name": "LogStableSwapWrapperPauseState",
            "type": "event"
        },
        {
            "anonymous": false,
            "inputs": [
                {
                    "indexed": false,
                    "internalType": "bool",
                    "name": "_isDecentralizedState",
                    "type": "bool"
                }
            ],
            "name": "LogUpdateIsDecentralizedState",
            "type": "event"
        },
        {
            "anonymous": false,
            "inputs": [
                {
                    "indexed": true,
                    "internalType": "address",
                    "name": "_depositor",
                    "type": "address"
                },
                {
                    "indexed": false,
                    "internalType": "uint256",
                    "name": "_amount",
                    "type": "uint256"
                }
            ],
            "name": "LogWithdrawTokens",
            "type": "event"
        },
        {
            "anonymous": false,
            "inputs": [
                {
                    "indexed": false,
                    "internalType": "address",
                    "name": "account",
                    "type": "address"
                }
            ],
            "name": "Paused",
            "type": "event"
        },
        {
            "anonymous": false,
            "inputs": [
                {
                    "indexed": false,
                    "internalType": "address",
                    "name": "account",
                    "type": "address"
                }
            ],
            "name": "Unpaused",
            "type": "event"
        },
        {
            "inputs": [],
            "name": "bookKeeper",
            "outputs": [
                {
                    "internalType": "contract IBookKeeper",
                    "name": "",
                    "type": "address"
                }
            ],
            "stateMutability": "view",
            "type": "function"
        },
        {
            "inputs": [
                {
                    "internalType": "address",
                    "name": "",
                    "type": "address"
                }
            ],
            "name": "checkpointFXDFee",
            "outputs": [
                {
                    "internalType": "uint256",
                    "name": "",
                    "type": "uint256"
                }
            ],
            "stateMutability": "view",
            "type": "function"
        },
        {
            "inputs": [
                {
                    "internalType": "address",
                    "name": "",
                    "type": "address"
                }
            ],
            "name": "checkpointTokenFee",
            "outputs": [
                {
                    "internalType": "uint256",
                    "name": "",
                    "type": "uint256"
                }
            ],
            "stateMutability": "view",
            "type": "function"
        },
        {
            "inputs": [
                {
                    "internalType": "address",
                    "name": "",
                    "type": "address"
                }
            ],
            "name": "claimedFXDFeeRewards",
            "outputs": [
                {
                    "internalType": "uint256",
                    "name": "",
                    "type": "uint256"
                }
            ],
            "stateMutability": "view",
            "type": "function"
        },
        {
            "inputs": [
                {
                    "internalType": "address",
                    "name": "",
                    "type": "address"
                }
            ],
            "name": "claimedTokenFeeRewards",
            "outputs": [
                {
                    "internalType": "uint256",
                    "name": "",
                    "type": "uint256"
                }
            ],
            "stateMutability": "view",
            "type": "function"
        },
        {
            "inputs": [
                {
                    "internalType": "address",
                    "name": "",
                    "type": "address"
                }
            ],
            "name": "depositTracker",
            "outputs": [
                {
                    "internalType": "uint256",
                    "name": "",
                    "type": "uint256"
                }
            ],
            "stateMutability": "view",
            "type": "function"
        },
        {
            "inputs": [],
            "name": "isDecentralizedState",
            "outputs": [
                {
                    "internalType": "bool",
                    "name": "",
                    "type": "bool"
                }
            ],
            "stateMutability": "view",
            "type": "function"
        },
        {
            "inputs": [],
            "name": "paused",
            "outputs": [
                {
                    "internalType": "bool",
                    "name": "",
                    "type": "bool"
                }
            ],
            "stateMutability": "view",
            "type": "function"
        },
        {
            "inputs": [],
            "name": "stableSwapModule",
            "outputs": [
                {
                    "internalType": "address",
                    "name": "",
                    "type": "address"
                }
            ],
            "stateMutability": "view",
            "type": "function"
        },
        {
            "inputs": [],
            "name": "stablecoin",
            "outputs": [
                {
                    "internalType": "address",
                    "name": "",
                    "type": "address"
                }
            ],
            "stateMutability": "view",
            "type": "function"
        },
        {
            "inputs": [],
            "name": "token",
            "outputs": [
                {
                    "internalType": "address",
                    "name": "",
                    "type": "address"
                }
            ],
            "stateMutability": "view",
            "type": "function"
        },
        {
            "inputs": [],
            "name": "totalValueDeposited",
            "outputs": [
                {
                    "internalType": "uint256",
                    "name": "",
                    "type": "uint256"
                }
            ],
            "stateMutability": "view",
            "type": "function"
        },
        {
            "inputs": [
                {
                    "internalType": "address",
                    "name": "",
                    "type": "address"
                }
            ],
            "name": "usersWhitelist",
            "outputs": [
                {
                    "internalType": "bool",
                    "name": "",
                    "type": "bool"
                }
            ],
            "stateMutability": "view",
            "type": "function"
        },
        {
            "inputs": [
                {
                    "internalType": "address",
                    "name": "_bookKeeper",
                    "type": "address"
                },
                {
                    "internalType": "address",
                    "name": "_stableswapModule",
                    "type": "address"
                }
            ],
            "name": "initialize",
            "outputs": [],
            "stateMutability": "nonpayable",
            "type": "function"
        },
        {
            "inputs": [
                {
                    "internalType": "address",
                    "name": "_user",
                    "type": "address"
                }
            ],
            "name": "addToWhitelist",
            "outputs": [],
            "stateMutability": "nonpayable",
            "type": "function"
        },
        {
            "inputs": [
                {
                    "internalType": "address",
                    "name": "_user",
                    "type": "address"
                }
            ],
            "name": "removeFromWhitelist",
            "outputs": [],
            "stateMutability": "nonpayable",
            "type": "function"
        },
        {
            "inputs": [
                {
                    "internalType": "bool",
                    "name": "_isDecentralizedState",
                    "type": "bool"
                }
            ],
            "name": "setIsDecentralizedState",
            "outputs": [],
            "stateMutability": "nonpayable",
            "type": "function"
        },
        {
            "inputs": [
                {
                    "internalType": "uint256",
                    "name": "_amount",
                    "type": "uint256"
                }
            ],
            "name": "depositTokens",
            "outputs": [],
            "stateMutability": "nonpayable",
            "type": "function"
        },
        {
            "inputs": [
                {
                    "internalType": "uint256",
                    "name": "_amount",
                    "type": "uint256"
                }
            ],
            "name": "withdrawTokens",
            "outputs": [],
            "stateMutability": "nonpayable",
            "type": "function"
        },
        {
            "inputs": [],
            "name": "pause",
            "outputs": [],
            "stateMutability": "nonpayable",
            "type": "function"
        },
        {
            "inputs": [],
            "name": "unpause",
            "outputs": [],
            "stateMutability": "nonpayable",
            "type": "function"
        },
        {
            "inputs": [],
            "name": "claimFeesRewards",
            "outputs": [],
            "stateMutability": "nonpayable",
            "type": "function"
        },
        {
            "inputs": [],
            "name": "withdrawClaimedFees",
            "outputs": [],
            "stateMutability": "nonpayable",
            "type": "function"
        },
        {
            "inputs": [],
            "name": "emergencyWithdraw",
            "outputs": [],
            "stateMutability": "nonpayable",
            "type": "function"
        },
        {
            "inputs": [
                {
                    "internalType": "uint256",
                    "name": "_amount",
                    "type": "uint256"
                }
            ],
            "name": "getAmounts",
            "outputs": [
                {
                    "internalType": "uint256",
                    "name": "",
                    "type": "uint256"
                },
                {
                    "internalType": "uint256",
                    "name": "",
                    "type": "uint256"
                }
            ],
            "stateMutability": "view",
            "type": "function"
        },
        {
            "inputs": [
                {
                    "internalType": "address",
                    "name": "account",
                    "type": "address"
                }
            ],
            "name": "getActualLiquidityAvailablePerUser",
            "outputs": [
                {
                    "internalType": "uint256",
                    "name": "",
                    "type": "uint256"
                },
                {
                    "internalType": "uint256",
                    "name": "",
                    "type": "uint256"
                }
            ],
            "stateMutability": "view",
            "type": "function"
        },
        {
            "inputs": [
                {
                    "internalType": "address",
                    "name": "account",
                    "type": "address"
                }
            ],
            "name": "getClaimableFeesPerUser",
            "outputs": [
                {
                    "internalType": "uint256",
                    "name": "",
                    "type": "uint256"
                },
                {
                    "internalType": "uint256",
                    "name": "",
                    "type": "uint256"
                }
            ],
            "stateMutability": "view",
            "type": "function"
        }
    ],
    "bytecode": "0x608060405234801561001057600080fd5b5061391c806100206000396000f3fe608060405234801561001057600080fd5b50600436106101a85760003560e01c80638456cb59116100f9578063db2e21bc11610097578063e43252d711610071578063e43252d7146103b0578063e9cbd822146103c3578063fc0c546a146103d6578063fe97a960146103e957600080fd5b8063db2e21bc14610382578063dd49756e1461038a578063e3b3932a1461039d57600080fd5b80638b29c80b116100d35780638b29c80b146103275780639e7fda4914610347578063a8c8240d1461034f578063d9d68e661461037a57600080fd5b80638456cb591461030357806386eb51331461030b5780638ab1d6811461031457600080fd5b80633c11453a11610166578063560260e111610140578063560260e1146102b257806359f7cf50146102c55780635c975abb146102d8578063761598a3146102e357600080fd5b80633c11453a146102745780633f4ba83a14610297578063485cc9551461029f57600080fd5b80625a1b2f146101ad57806315eadbff146101e057806318d8dfe4146102045780632b7a880d146102245780632ed1e6721461024c578063315a095d1461025f575b600080fd5b6101cd6101bb36600461358c565b609e6020526000908152604090205481565b6040519081526020015b60405180910390f35b609a546101f490600160a01b900460ff1681565b60405190151581526020016101d7565b6101cd61021236600461358c565b60a16020526000908152604090205481565b61023761023236600461358c565b610409565b604080519283526020830191909152016101d7565b61023761025a36600461358c565b61061d565b61027261026d3660046135b0565b610844565b005b6101f461028236600461358c565b609d6020526000908152604090205460ff1681565b610272610e0a565b6102726102ad3660046135c9565b6110b4565b6102726102c0366004613610565b6113b2565b6102376102d33660046135b0565b611571565b60335460ff166101f4565b6101cd6102f136600461358c565b609c6020526000908152604090205481565b610272611873565b6101cd609b5481565b61027261032236600461358c565b611b16565b6101cd61033536600461358c565b60a06020526000908152604090205481565b610272611cc3565b609a54610362906001600160a01b031681565b6040516001600160a01b0390911681526020016101d7565b610272611cd5565b610272611d7a565b6102726103983660046135b0565b61202a565b609754610362906001600160a01b031681565b6102726103be36600461358c565b6123c0565b609854610362906001600160a01b031681565b609954610362906001600160a01b031681565b6101cd6103f736600461358c565b609f6020526000908152604090205481565b6000806000610416612570565b905060006104226125eb565b90506000610439670de0b6b3a76400006002613643565b6001600160a01b0387166000908152609c602052604090205461046590670de0b6b3a764000090613643565b61046f919061365a565b90506000610532610489670de0b6b3a76400006002613643565b6001600160a01b0389166000908152609c60205260409020546104b590670de0b6b3a764000090613643565b6104bf919061365a565b6099546040805163313ce56760e01b815290516012926001600160a01b03169163313ce5679160048083019260209291908290030181865afa158015610509573d6000803e3d6000fd5b505050506040513d601f19601f8201168201806040525081019061052d919061367c565b612624565b6001600160a01b0388166000908152609e60205260408120549192509061055761267f565b610561919061369f565b6001600160a01b0389166000908152609f6020526040812054919250906105866126c9565b610590919061369f565b905060008087156105d157670de0b6b3a764000088816105b08988613643565b6105ba9190613643565b6105c4919061365a565b6105ce919061365a565b91505b861561060d57670de0b6b3a764000087816105ec8887613643565b6105f69190613643565b610600919061365a565b61060a919061365a565b90505b909a909950975050505050505050565b6001600160a01b038181166000908152609c602052604080822054609a54609854925163776e4b3560e11b8152928516600484015292938493919284929091169063eedc966a90602401602060405180830381865afa158015610684573d6000803e3d6000fd5b505050506040513d601f19601f820116820180604052508101906106a891906136b2565b609a5460995460405163776e4b3560e11b81526001600160a01b03918216600482015292935060009291169063eedc966a90602401602060405180830381865afa1580156106fa573d6000803e3d6000fd5b505050506040513d601f19601f8201168201806040525081019061071e91906136b2565b905060006107a482609960009054906101000a90046001600160a01b03166001600160a01b031663313ce5676040518163ffffffff1660e01b8152600401602060405180830381865afa158015610779573d6000803e3d6000fd5b505050506040513d601f19601f8201168201806040525081019061079d919061367c565b6012612624565b90506000670de0b6b3a76400006107bb83866136cb565b856107ce670de0b6b3a764000089613643565b6107d89190613643565b6107e2919061365a565b6107ec919061365a565b90506000670de0b6b3a764000061080384876136cb565b84610816670de0b6b3a76400008a613643565b6108209190613643565b61082a919061365a565b610834919061365a565b9199919850909650505050505050565b61084c612713565b61085461276c565b609a54600160a01b900460ff166108c057336000908152609d602052604090205460ff166108c05760405162461bcd60e51b81526020600482015260146024820152731d5cd95c8b5b9bdd0b5dda1a5d195b1a5cdd195960621b60448201526064015b60405180910390fd5b806000036109105760405162461bcd60e51b815260206004820152601a60248201527f7769746864726177546f6b656e732f616d6f756e742d7a65726f00000000000060448201526064016108b7565b336000908152609c60205260409020548111156109835760405162461bcd60e51b815260206004820152602b60248201527f7769746864726177546f6b656e732f616d6f756e742d657863656564732d757360448201526a195c9ccb59195c1bdcda5d60aa1b60648201526084016108b7565b80609b5410156109e95760405162461bcd60e51b815260206004820152602b60248201527f7769746864726177546f6b656e732f616d6f756e742d657863656564732d746f60448201526a1d185b0b59195c1bdcda5d60aa1b60648201526084016108b7565b6109f16127b2565b6109f9612995565b609a5460985460405163776e4b3560e11b81526001600160a01b039182166004820152600092919091169063eedc966a90602401602060405180830381865afa158015610a4a573d6000803e3d6000fd5b505050506040513d601f19601f82011682018060405250810190610a6e91906136b2565b609a5460995460405163776e4b3560e11b81526001600160a01b03918216600482015292935060009291169063eedc966a90602401602060405180830381865afa158015610ac0573d6000803e3d6000fd5b505050506040513d601f19601f82011682018060405250810190610ae491906136b2565b90506000610b3f82609960009054906101000a90046001600160a01b03166001600160a01b031663313ce5676040518163ffffffff1660e01b8152600401602060405180830381865afa158015610779573d6000803e3d6000fd5b905083610b4c82856136cb565b1015610bc05760405162461bcd60e51b815260206004820152603860248201527f7769746864726177546f6b656e732f616d6f756e742d6578636565642d746f7460448201527f616c2d62616c616e63652d696e2d737461626c6573776170000000000000000060648201526084016108b7565b6000670de0b6b3a7640000610bd583866136cb565b85610be8670de0b6b3a764000089613643565b610bf29190613643565b610bfc919061365a565b610c06919061365a565b90506000670de0b6b3a7640000610c1d84876136cb565b84610c30670de0b6b3a76400008a613643565b610c3a9190613643565b610c44919061365a565b610c4e919061365a565b905085610c5b82846136cb565b1115610ccf5760405162461bcd60e51b815260206004820152603a60248201527f7769746864726177546f6b656e732f746f74616c2d616d6f756e742d66726f6d60448201527f2d737461626c65737761702d657863656564732d616d6f756e7400000000000060648201526084016108b7565b6000610d2a826012609960009054906101000a90046001600160a01b03166001600160a01b031663313ce5676040518163ffffffff1660e01b8152600401602060405180830381865afa158015610509573d6000803e3d6000fd5b609854909150610d43906001600160a01b031684612af5565b609954610d59906001600160a01b031682612af5565b336000908152609c602052604081208054899290610d7890849061369f565b9250508190555086609b6000828254610d91919061369f565b9091555050609854610dac906001600160a01b031684612bf2565b609954610dc2906001600160a01b031682612bf2565b60405187815233907fdee7e59b5d6bc3fbc9a9da46930152736b088c9a04598c98f747dabf6174815c9060200160405180910390a2505050505050610e076001606555565b50565b6097546040805163c8cc243f60e01b815290516000926001600160a01b03169163c8cc243f9160048083019260209291908290030181865afa158015610e54573d6000803e3d6000fd5b505050506040513d601f19601f82011682018060405250810190610e7891906136de565b9050806001600160a01b03166391d14854826001600160a01b031663e58378bb6040518163ffffffff1660e01b8152600401602060405180830381865afa158015610ec7573d6000803e3d6000fd5b505050506040513d601f19601f82011682018060405250810190610eeb91906136b2565b6040516001600160e01b031960e084901b1681526004810191909152336024820152604401602060405180830381865afa158015610f2d573d6000803e3d6000fd5b505050506040513d601f19601f82011682018060405250810190610f5191906136fb565b8061102e5750806001600160a01b03166391d14854826001600160a01b031663b536818a6040518163ffffffff1660e01b8152600401602060405180830381865afa158015610fa4573d6000803e3d6000fd5b505050506040513d601f19601f82011682018060405250810190610fc891906136b2565b6040516001600160e01b031960e084901b1681526004810191909152336024820152604401602060405180830381865afa15801561100a573d6000803e3d6000fd5b505050506040513d601f19601f8201168201806040525081019061102e91906136fb565b6110745760405162461bcd60e51b815260206004820152601760248201527621286f776e6572526f6c65206f7220676f76526f6c652960481b60448201526064016108b7565b61107c612c11565b604051600081527fbe372442b6f89ef64c64c0428c78013b0e10381de670f54b75787126419d6529906020015b60405180910390a150565b600054610100900460ff16158080156110d45750600054600160ff909116105b806110ee5750303b1580156110ee575060005460ff166001145b6111515760405162461bcd60e51b815260206004820152602e60248201527f496e697469616c697a61626c653a20636f6e747261637420697320616c72656160448201526d191e481a5b9a5d1a585b1a5e995960921b60648201526084016108b7565b6000805460ff191660011790558015611174576000805461ff0019166101001790555b6001600160a01b0382163b6111cb5760405162461bcd60e51b815260206004820152601d60248201527f737461626c65737761704d6f64756c652d6e6f742d636f6e747261637400000060448201526064016108b7565b6001600160a01b0383163b6112225760405162461bcd60e51b815260206004820152601760248201527f626f6f6b6b65657065722d6e6f742d636f6e747261637400000000000000000060448201526064016108b7565b61122a612c63565b611232612c92565b609780546001600160a01b038086166001600160a01b031992831617909255609a80549285169290911682179055604080516374e5ec1160e11b8152905163e9cbd822916004808201926020929091908290030181865afa15801561129b573d6000803e3d6000fd5b505050506040513d601f19601f820116820180604052508101906112bf91906136de565b609860006101000a8154816001600160a01b0302191690836001600160a01b03160217905550816001600160a01b031663fc0c546a6040518163ffffffff1660e01b8152600401602060405180830381865afa158015611323573d6000803e3d6000fd5b505050506040513d601f19601f8201168201806040525081019061134791906136de565b609980546001600160a01b0319166001600160a01b039290921691909117905580156113ad576000805461ff0019169055604051600181527f7f26b83ff96e1f2b6a682f133852f6798a09c465da95921460cefb38474024989060200160405180910390a15b505050565b6097546040805163c8cc243f60e01b815290516000926001600160a01b03169163c8cc243f9160048083019260209291908290030181865afa1580156113fc573d6000803e3d6000fd5b505050506040513d601f19601f8201168201806040525081019061142091906136de565b9050806001600160a01b03166391d14854826001600160a01b031663e58378bb6040518163ffffffff1660e01b8152600401602060405180830381865afa15801561146f573d6000803e3d6000fd5b505050506040513d601f19601f8201168201806040525081019061149391906136b2565b6040516001600160e01b031960e084901b1681526004810191909152336024820152604401602060405180830381865afa1580156114d5573d6000803e3d6000fd5b505050506040513d601f19601f820116820180604052508101906114f991906136fb565b6115155760405162461bcd60e51b81526004016108b790613718565b609a805460ff60a01b1916600160a01b8415158102919091179182905560405160ff9190920416151581527f4e089ad0b762fc44b0427002516eb2b6562ffd939bf6ada00bdc0a104bf083b59060200160405180910390a15050565b600080826000036115bd5760405162461bcd60e51b8152602060048201526016602482015275676574416d6f756e74732f616d6f756e742d7a65726f60501b60448201526064016108b7565b336000908152609c602052604090205483111561162c5760405162461bcd60e51b815260206004820152602760248201527f676574416d6f756e74732f616d6f756e742d657863656564732d75736572732d60448201526619195c1bdcda5d60ca1b60648201526084016108b7565b82609b54101561168e5760405162461bcd60e51b815260206004820152602760248201527f676574416d6f756e74732f616d6f756e742d657863656564732d746f74616c2d60448201526619195c1bdcda5d60ca1b60648201526084016108b7565b609a5460985460405163776e4b3560e11b81526001600160a01b039182166004820152600092919091169063eedc966a90602401602060405180830381865afa1580156116df573d6000803e3d6000fd5b505050506040513d601f19601f8201168201806040525081019061170391906136b2565b609a5460995460405163776e4b3560e11b81526001600160a01b03918216600482015292935060009291169063eedc966a90602401602060405180830381865afa158015611755573d6000803e3d6000fd5b505050506040513d601f19601f8201168201806040525081019061177991906136b2565b905060006117d482609960009054906101000a90046001600160a01b03166001600160a01b031663313ce5676040518163ffffffff1660e01b8152600401602060405180830381865afa158015610779573d6000803e3d6000fd5b90506000670de0b6b3a76400006117eb83866136cb565b856117fe670de0b6b3a76400008b613643565b6118089190613643565b611812919061365a565b61181c919061365a565b90506000670de0b6b3a764000061183384876136cb565b84611846670de0b6b3a76400008c613643565b6118509190613643565b61185a919061365a565b611864919061365a565b91989197509095505050505050565b6097546040805163c8cc243f60e01b815290516000926001600160a01b03169163c8cc243f9160048083019260209291908290030181865afa1580156118bd573d6000803e3d6000fd5b505050506040513d601f19601f820116820180604052508101906118e191906136de565b9050806001600160a01b03166391d14854826001600160a01b031663e58378bb6040518163ffffffff1660e01b8152600401602060405180830381865afa158015611930573d6000803e3d6000fd5b505050506040513d601f19601f8201168201806040525081019061195491906136b2565b6040516001600160e01b031960e084901b1681526004810191909152336024820152604401602060405180830381865afa158015611996573d6000803e3d6000fd5b505050506040513d601f19601f820116820180604052508101906119ba91906136fb565b80611a975750806001600160a01b03166391d14854826001600160a01b031663b536818a6040518163ffffffff1660e01b8152600401602060405180830381865afa158015611a0d573d6000803e3d6000fd5b505050506040513d601f19601f82011682018060405250810190611a3191906136b2565b6040516001600160e01b031960e084901b1681526004810191909152336024820152604401602060405180830381865afa158015611a73573d6000803e3d6000fd5b505050506040513d601f19601f82011682018060405250810190611a9791906136fb565b611add5760405162461bcd60e51b815260206004820152601760248201527621286f776e6572526f6c65206f7220676f76526f6c652960481b60448201526064016108b7565b611ae5612cc1565b604051600181527fbe372442b6f89ef64c64c0428c78013b0e10381de670f54b75787126419d6529906020016110a9565b6097546040805163c8cc243f60e01b815290516000926001600160a01b03169163c8cc243f9160048083019260209291908290030181865afa158015611b60573d6000803e3d6000fd5b505050506040513d601f19601f82011682018060405250810190611b8491906136de565b9050806001600160a01b03166391d14854826001600160a01b031663e58378bb6040518163ffffffff1660e01b8152600401602060405180830381865afa158015611bd3573d6000803e3d6000fd5b505050506040513d601f19601f82011682018060405250810190611bf791906136b2565b6040516001600160e01b031960e084901b1681526004810191909152336024820152604401602060405180830381865afa158015611c39573d6000803e3d6000fd5b505050506040513d601f19601f82011682018060405250810190611c5d91906136fb565b611c795760405162461bcd60e51b81526004016108b790613718565b6001600160a01b0382166000818152609d6020526040808220805460ff19169055517f9e9499495e2efd848d33cb197bde94612c1ec36f30605b60d445511e056069e19190a25050565b611ccb61276c565b611cd36127b2565b565b611cdd612713565b611ce561276c565b33600090815260a06020526040902054151580611d10575033600090815260a1602052604090205415155b611d685760405162461bcd60e51b815260206004820152602360248201527f7769746864726177436c61696d6564466565732f6e6f2d636c61696d65642d6660448201526265657360e81b60648201526084016108b7565b611d70612995565b611cd36001606555565b611d82612713565b611d8a612cfe565b609a60009054906101000a90046001600160a01b03166001600160a01b0316635c975abb6040518163ffffffff1660e01b8152600401602060405180830381865afa158015611ddd573d6000803e3d6000fd5b505050506040513d601f19601f82011682018060405250810190611e0191906136fb565b611e4d5760405162461bcd60e51b815260206004820181905260248201527f656d657267656e637957697468647261772f53534d2d6e6f742d70617573656460448201526064016108b7565b336000908152609c60205260408120549003611eab5760405162461bcd60e51b815260206004820152601d60248201527f656d657267656e637957697468647261772f616d6f756e742d7a65726f00000060448201526064016108b7565b604051631768f33960e11b815233600482015260009081903090632ed1e672906024016040805180830381865afa158015611eea573d6000803e3d6000fd5b505050506040513d601f19601f82011682018060405250810190611f0e919061373c565b336000908152609c60205260408120559092509050611f2d81836136cb565b609b541115611f5c57611f4081836136cb565b609b6000828254611f51919061369f565b90915550611f629050565b6000609b555b336000908152609e60209081526040808320839055609f825280832083905560a0825280832083905560a1909152812055609854611fa9906001600160a01b031683612af5565b6000612004826012609960009054906101000a90046001600160a01b03166001600160a01b031663313ce5676040518163ffffffff1660e01b8152600401602060405180830381865afa158015610509573d6000803e3d6000fd5b60995490915061201d906001600160a01b031682612af5565b505050611cd36001606555565b612032612713565b61203a61276c565b609a54600160a01b900460ff166120a157336000908152609d602052604090205460ff166120a15760405162461bcd60e51b81526020600482015260146024820152731d5cd95c8b5b9bdd0b5dda1a5d195b1a5cdd195960621b60448201526064016108b7565b806000036120fb5760405162461bcd60e51b815260206004820152602160248201527f777261707065722d6465706f736974546f6b656e732f616d6f756e742d7a65726044820152606f60f81b60648201526084016108b7565b6000612156826012609960009054906101000a90046001600160a01b03166001600160a01b031663313ce5676040518163ffffffff1660e01b8152600401602060405180830381865afa158015610509573d6000803e3d6000fd5b6099546040516370a0823160e01b815233600482015291925082916001600160a01b03909116906370a0823190602401602060405180830381865afa1580156121a3573d6000803e3d6000fd5b505050506040513d601f19601f820116820180604052508101906121c791906136b2565b10156122155760405162461bcd60e51b815260206004820152601e60248201527f6465706f736974546f6b656e732f746f6b656e2d6e6f742d656e6f756768000060448201526064016108b7565b6098546040516370a0823160e01b815233600482015283916001600160a01b0316906370a0823190602401602060405180830381865afa15801561225d573d6000803e3d6000fd5b505050506040513d601f19601f8201168201806040525081019061228191906136b2565b10156122cf5760405162461bcd60e51b815260206004820152601c60248201527f6465706f736974546f6b656e732f4658442d6e6f742d656e6f7567680000000060448201526064016108b7565b6122d76127b2565b6098546122ed906001600160a01b031683612d47565b609954612303906001600160a01b031682612d47565b61230e826002613643565b336000908152609c60205260408120805490919061232d9084906136cb565b9091555061233e9050826002613643565b609b600082825461234f91906136cb565b909155505060985461236a906001600160a01b031683612d5c565b609954612380906001600160a01b031682612d5c565b60405182815233907fba36f6a4dd3e5674f3f9840d8a82df4c60bfbbc04ba96a84ed414a9c84bad8d89060200160405180910390a250610e076001606555565b6097546040805163c8cc243f60e01b815290516000926001600160a01b03169163c8cc243f9160048083019260209291908290030181865afa15801561240a573d6000803e3d6000fd5b505050506040513d601f19601f8201168201806040525081019061242e91906136de565b9050806001600160a01b03166391d14854826001600160a01b031663e58378bb6040518163ffffffff1660e01b8152600401602060405180830381865afa15801561247d573d6000803e3d6000fd5b505050506040513d601f19601f820116820180604052508101906124a191906136b2565b6040516001600160e01b031960e084901b1681526004810191909152336024820152604401602060405180830381865afa1580156124e3573d6000803e3d6000fd5b505050506040513d601f19601f8201168201806040525081019061250791906136fb565b6125235760405162461bcd60e51b81526004016108b790613718565b6001600160a01b0382166000818152609d6020526040808220805460ff19166001179055517f4e3d8c117d484081f7268ed79cded71ad42979b92feb5f8f7f9824ac5cbfe3759190a25050565b609a5460985460405163776e4b3560e11b81526001600160a01b039182166004820152600092919091169063eedc966a906024015b602060405180830381865afa1580156125c2573d6000803e3d6000fd5b505050506040513d601f19601f820116820180604052508101906125e691906136b2565b905090565b609a5460995460405163776e4b3560e11b81526001600160a01b039182166004820152600092919091169063eedc966a906024016125a5565b60008260ff168260ff1610156126585761263e8284613760565b61264990600a61385d565b612653908561365a565b612677565b6126628383613760565b61266d90600a61385d565b6126779085613643565b949350505050565b609a5460408051630651507f60e41b815290516000926001600160a01b03169163651507f09160048083019260209291908290030181865afa1580156125c2573d6000803e3d6000fd5b609a54604080516306c1cbef60e41b815290516000926001600160a01b031691636c1cbef09160048083019260209291908290030181865afa1580156125c2573d6000803e3d6000fd5b6002606554036127655760405162461bcd60e51b815260206004820152601f60248201527f5265656e7472616e637947756172643a207265656e7472616e742063616c6c0060448201526064016108b7565b6002606555565b60335460ff1615611cd35760405162461bcd60e51b815260206004820152601060248201526f14185d5cd8589b194e881c185d5cd95960821b60448201526064016108b7565b60006127bc612570565b905060006127c86125eb565b905060006127df670de0b6b3a76400006002613643565b336000908152609c602052604090205461280290670de0b6b3a764000090613643565b61280c919061365a565b90506000612849612826670de0b6b3a76400006002613643565b336000908152609c60205260409020546104b590670de0b6b3a764000090613643565b336000908152609e60205260408120549192509061286561267f565b61286f919061369f565b336000908152609f60205260408120549192509061288b6126c9565b612895919061369f565b905060008087156128d657670de0b6b3a764000088816128b58988613643565b6128bf9190613643565b6128c9919061365a565b6128d3919061365a565b91505b861561291257670de0b6b3a764000087816128f18887613643565b6128fb9190613643565b612905919061365a565b61290f919061365a565b90505b33600090815260a06020526040812080548492906129319084906136cb565b909155505033600090815260a16020526040812080548392906129559084906136cb565b90915550612963905061267f565b336000908152609e602052604090205561297b6126c9565b336000908152609f60205260409020555050505050505050565b33600090815260a0602090815260408083205460a1835281842054609a548351630cdce77b60e21b815293519295919491936001600160a01b03909116926333739dec926004808401939192918290030181865afa1580156129fb573d6000803e3d6000fd5b505050506040513d601f19601f82011682018060405250810190612a1f91906136b2565b90506000609a60009054906101000a90046001600160a01b03166001600160a01b031663dcabf6406040518163ffffffff1660e01b8152600401602060405180830381865afa158015612a76573d6000803e3d6000fd5b505050506040513d601f19601f82011682018060405250810190612a9a91906136b2565b905081841115612aa8578193505b80831115612ab4578092505b33600090815260a06020908152604080832083905560a190915281205583151580612adf5750600083115b15612aef57612aef338585612e8c565b50505050565b6000612b0a6001600160a01b03841630613057565b609a546040516313c5035360e31b81526001600160a01b03868116600483015260248201869052929350911690639e281a9890604401600060405180830381600087803b158015612b5a57600080fd5b505af1158015612b6e573d6000803e3d6000fd5b5060009250612b899150506001600160a01b03851630613057565b905082612b96838361369f565b14612aef5760405162461bcd60e51b815260206004820152602660248201527f776974686472617746726f6d537461626c65537761702f616d6f756e742d6d696044820152650e6dac2e8c6d60d31b60648201526084016108b7565b612c066001600160a01b03831633836130ce565b5050565b6001606555565b612c19612cfe565b6033805460ff191690557f5db9ee0a495bf2e6ff9c91a7834c1ba4fdd244a5e8aa4e537bd38aeae4b073aa335b6040516001600160a01b03909116815260200160405180910390a1565b600054610100900460ff16612c8a5760405162461bcd60e51b81526004016108b79061386c565b611cd361323b565b600054610100900460ff16612cb95760405162461bcd60e51b81526004016108b79061386c565b611cd361326e565b612cc961276c565b6033805460ff191660011790557f62e78cea01bee320cd4e420270b5ea74000d11b0c9f74754ebdbfc544b05a258612c463390565b60335460ff16611cd35760405162461bcd60e51b815260206004820152601460248201527314185d5cd8589b194e881b9bdd081c185d5cd95960621b60448201526064016108b7565b612c066001600160a01b038316333084613295565b6000612d716001600160a01b03841630613057565b609a54909150612d8f906001600160a01b0385811691166000613413565b609a54612da9906001600160a01b03858116911684613413565b609a546040516319c5aef560e11b81526001600160a01b038581166004830152602482018590529091169063338b5dea90604401600060405180830381600087803b158015612df757600080fd5b505af1158015612e0b573d6000803e3d6000fd5b5060009250612e269150506001600160a01b03851630613057565b905082612e33828461369f565b14612aef5760405162461bcd60e51b815260206004820152602360248201527f6465706f736974546f537461626c65537761702f616d6f756e742d6d69736d616044820152620e8c6d60eb1b60648201526084016108b7565b609854600090612ea5906001600160a01b031685613057565b609954909150600090612ec1906001600160a01b031686613057565b609a5460405163212e104b60e11b81526001600160a01b038881166004830152602482018890526044820187905292935091169063425c209690606401600060405180830381600087803b158015612f1857600080fd5b505af1158015612f2c573d6000803e3d6000fd5b505060985460009250612f4991506001600160a01b031687613057565b609954909150600090612f65906001600160a01b031688613057565b905085612f72858461369f565b14612fdd5760405162461bcd60e51b815260206004820152603560248201527f77697468647261774665657346726f6d537461626c65737761702f737461626c6044820152740cac6ded2dc5ac2dadeeadce85adad2e6dac2e8c6d605b1b60648201526084016108b7565b84612fe8848361369f565b1461304e5760405162461bcd60e51b815260206004820152603060248201527f77697468647261774665657346726f6d537461626c65737761702f746f6b656e60448201526f05ac2dadeeadce85adad2e6dac2e8c6d60831b60648201526084016108b7565b50505050505050565b6040516370a0823160e01b81526001600160a01b038281166004830152600091908416906370a0823190602401602060405180830381865afa1580156130a1573d6000803e3d6000fd5b505050506040513d601f19601f820116820180604052508101906130c591906136b2565b90505b92915050565b6001600160a01b0383163b6131305760405162461bcd60e51b815260206004820152602260248201527f736166655472616e736665723a206e6f6e2d636f6e7472616374206164647265604482015261737360f01b60648201526084016108b7565b604080516001600160a01b038481166024830152604480830185905283518084039091018152606490920183526020820180516001600160e01b031663a9059cbb60e01b179052915160009283929087169161318c91906138b7565b6000604051808303816000865af19150503d80600081146131c9576040519150601f19603f3d011682016040523d82523d6000602084013e6131ce565b606091505b50915091508180156131f85750805115806131f85750808060200190518101906131f891906136fb565b6132345760405162461bcd60e51b815260206004820152600d60248201526c10b9b0b332aa3930b739b332b960991b60448201526064016108b7565b5050505050565b600054610100900460ff166132625760405162461bcd60e51b81526004016108b79061386c565b6033805460ff19169055565b600054610100900460ff16612c0a5760405162461bcd60e51b81526004016108b79061386c565b6001600160a01b0384163b6132fb5760405162461bcd60e51b815260206004820152602660248201527f736166655472616e7366657246726f6d3a206e6f6e2d636f6e7472616374206160448201526564647265737360d01b60648201526084016108b7565b604080516001600160a01b0385811660248301528481166044830152606480830185905283518084039091018152608490920183526020820180516001600160e01b03166323b872dd60e01b179052915160009283929088169161335f91906138b7565b6000604051808303816000865af19150503d806000811461339c576040519150601f19603f3d011682016040523d82523d6000602084013e6133a1565b606091505b50915091508180156133cb5750805115806133cb5750808060200190518101906133cb91906136fb565b61340b5760405162461bcd60e51b815260206004820152601160248201527021736166655472616e7366657246726f6d60781b60448201526064016108b7565b505050505050565b6001600160a01b0383163b6134745760405162461bcd60e51b815260206004820152602160248201527f73616665417070726f76653a206e6f6e2d636f6e7472616374206164647265736044820152607360f81b60648201526084016108b7565b604080516001600160a01b038481166024830152604480830185905283518084039091018152606490920183526020820180516001600160e01b031663095ea7b360e01b17905291516000928392908716916134d091906138b7565b6000604051808303816000865af19150503d806000811461350d576040519150601f19603f3d011682016040523d82523d6000602084013e613512565b606091505b509150915081801561353c57508051158061353c57508080602001905181019061353c91906136fb565b6132345760405162461bcd60e51b815260206004820152600c60248201526b2173616665417070726f766560a01b60448201526064016108b7565b6001600160a01b0381168114610e0757600080fd5b60006020828403121561359e57600080fd5b81356135a981613577565b9392505050565b6000602082840312156135c257600080fd5b5035919050565b600080604083850312156135dc57600080fd5b82356135e781613577565b915060208301356135f781613577565b809150509250929050565b8015158114610e0757600080fd5b60006020828403121561362257600080fd5b81356135a981613602565b634e487b7160e01b600052601160045260246000fd5b80820281158282048414176130c8576130c861362d565b60008261367757634e487b7160e01b600052601260045260246000fd5b500490565b60006020828403121561368e57600080fd5b815160ff811681146135a957600080fd5b818103818111156130c8576130c861362d565b6000602082840312156136c457600080fd5b5051919050565b808201808211156130c8576130c861362d565b6000602082840312156136f057600080fd5b81516135a981613577565b60006020828403121561370d57600080fd5b81516135a981613602565b6020808252600a9082015269216f776e6572526f6c6560b01b604082015260600190565b6000806040838503121561374f57600080fd5b505080516020909101519092909150565b60ff82811682821603908111156130c8576130c861362d565b600181815b808511156137b457816000190482111561379a5761379a61362d565b808516156137a757918102915b93841c939080029061377e565b509250929050565b6000826137cb575060016130c8565b816137d8575060006130c8565b81600181146137ee57600281146137f857613814565b60019150506130c8565b60ff8411156138095761380961362d565b50506001821b6130c8565b5060208310610133831016604e8410600b8410161715613837575081810a6130c8565b6138418383613779565b80600019048211156138555761385561362d565b029392505050565b60006130c560ff8416836137bc565b6020808252602b908201527f496e697469616c697a61626c653a20636f6e7472616374206973206e6f74206960408201526a6e697469616c697a696e6760a81b606082015260800190565b6000825160005b818110156138d857602081860181015185830152016138be565b50600092019182525091905056fea2646970667358221220a185faca9c73291bc5f59ff8140cfd6773810bec47bdfaf48da81c980677cb0664736f6c63430008110033",
    "immutableReferences": {},
    "source": "// SPDX-License-Identifier: AGPL-3.0-or-later\npragma solidity 0.8.17;\n\nimport \"@openzeppelin/contracts-upgradeable/access/OwnableUpgradeable.sol\";\nimport \"@openzeppelin/contracts-upgradeable/security/PausableUpgradeable.sol\";\nimport \"@openzeppelin/contracts-upgradeable/security/ReentrancyGuardUpgradeable.sol\";\n\nimport \"../interfaces/IToken.sol\";\nimport \"../interfaces/IStablecoinAdapter.sol\";\nimport \"../interfaces/IStablecoin.sol\";\nimport \"../interfaces/IBookKeeper.sol\";\nimport \"../interfaces/IStableSwapModule.sol\";\nimport \"../utils/SafeToken.sol\";\nimport \"../interfaces/IStableSwapModuleWrapper.sol\";\nimport \"../interfaces/IStableSwapRetriever.sol\";\n\ncontract StableSwapModuleWrapper is PausableUpgradeable, ReentrancyGuardUpgradeable, IStableSwapModuleWrapper{\n    using SafeToken for address;\n    uint256 internal constant WAD = 10 ** 18;\n\n    IBookKeeper public bookKeeper;\n\n    address public stablecoin;\n    address public token;\n    address public stableSwapModule;\n    bool public isDecentralizedState;\n    uint256 public totalValueDeposited;\n\n    mapping(address => uint256) public depositTracker;\n    mapping(address => bool) public usersWhitelist;\n\n    //storage variables after upgrade - 1\n    mapping(address => uint256) public checkpointFXDFee;\n    mapping(address => uint256) public checkpointTokenFee;\n\n    mapping(address => uint256) public claimedFXDFeeRewards;\n    mapping(address => uint256) public claimedTokenFeeRewards;\n    \n    event LogDepositTokens(address indexed _depositor, uint256 _amount);\n    event LogWithdrawTokens(address indexed _depositor, uint256 _amount);\n    event LogAddToWhitelist(address indexed user);\n    event LogRemoveFromWhitelist(address indexed user);\n    event LogStableSwapWrapperPauseState(bool _pauseState);\n    event LogUpdateIsDecentralizedState(bool _isDecentralizedState);\n\n    modifier onlyOwner() {\n        IAccessControlConfig _accessControlConfig = IAccessControlConfig(bookKeeper.accessControlConfig());\n        require(_accessControlConfig.hasRole(_accessControlConfig.OWNER_ROLE(), msg.sender), \"!ownerRole\");\n        _;\n    }\n\n    modifier onlyOwnerOrGov() {\n        IAccessControlConfig _accessControlConfig = IAccessControlConfig(bookKeeper.accessControlConfig());\n        require(\n            _accessControlConfig.hasRole(_accessControlConfig.OWNER_ROLE(), msg.sender) ||\n                _accessControlConfig.hasRole(_accessControlConfig.GOV_ROLE(), msg.sender),\n            \"!(ownerRole or govRole)\"\n        );\n        _;\n    }\n\n    modifier onlyWhitelistedIfNotDecentralized() {\n        if (!isDecentralizedState) {\n            require(usersWhitelist[msg.sender], \"user-not-whitelisted\");\n        }\n        _;\n    }\n\n    function initialize(address _bookKeeper, address _stableswapModule) external initializer {\n        require(AddressUpgradeable.isContract(_stableswapModule), \"stableswapModule-not-contract\");\n        require(AddressUpgradeable.isContract(_bookKeeper), \"bookkeeper-not-contract\");\n\n        PausableUpgradeable.__Pausable_init();\n        ReentrancyGuardUpgradeable.__ReentrancyGuard_init();\n\n        bookKeeper = IBookKeeper(_bookKeeper);\n        stableSwapModule = _stableswapModule;\n        stablecoin = IStableSwapModule(_stableswapModule).stablecoin();\n        token = IStableSwapModule(_stableswapModule).token();\n    }\n\n    function addToWhitelist(address _user) external onlyOwner {\n        usersWhitelist[_user] = true;\n        emit LogAddToWhitelist(_user);\n    }\n\n    function removeFromWhitelist(address _user) external onlyOwner {\n        usersWhitelist[_user] = false;\n        emit LogRemoveFromWhitelist(_user);\n    }\n\n    function setIsDecentralizedState(bool _isDecentralizedState) external onlyOwner {\n        isDecentralizedState = _isDecentralizedState;\n        emit LogUpdateIsDecentralizedState(isDecentralizedState);\n    }\n\n    /**\n     * @dev _amount arg should be in 18 decimals\n     * @dev when you deposit tokens, you are depositing _amount of Stablecoin and Token each. So, the total deposit is twice the _amount   \n     * @notice claimFeesRewards is before deposit tracker is updated because we need to claim for all the liquidity available currently\n     */\n    function depositTokens(uint256 _amount) external override nonReentrant whenNotPaused onlyWhitelistedIfNotDecentralized {\n        require(_amount != 0, \"wrapper-depositTokens/amount-zero\");\n        uint256 _amountScaled = _convertDecimals(_amount, 18, IToken(token).decimals());\n        require(IToken(token).balanceOf(msg.sender) >= _amountScaled, \"depositTokens/token-not-enough\");\n        require(IToken(stablecoin).balanceOf(msg.sender) >= _amount, \"depositTokens/FXD-not-enough\");\n        \n        _claimFeesRewards();\n        \n        _transferToTheContract(stablecoin, _amount);\n        _transferToTheContract(token, _amountScaled);\n\n        depositTracker[msg.sender] += 2 * _amount;\n        totalValueDeposited += 2 * _amount;\n\n        _depositToStableSwap(stablecoin, _amount);\n        _depositToStableSwap(token, _amountScaled);\n\n        emit LogDepositTokens(msg.sender, _amount);\n    }\n\n    /**\n     * @dev _amount arg should be in 18 decimals\n     * @dev when you withdraw tokens, you are withdrawing _amount of total tokens , ie half of stablecoin and half of token\n     * @dev please consider that the withdraw of each token is not exactly half but depends upon ratio of tokens in the stableswap\n     * @notice claimFeesRewards is before deposit tracker is updated because we need to claim for all the liquidity available currently\n     */\n    function withdrawTokens(uint256 _amount) external override nonReentrant whenNotPaused onlyWhitelistedIfNotDecentralized {\n        require(_amount != 0, \"withdrawTokens/amount-zero\");\n        require(depositTracker[msg.sender] >= _amount, \"withdrawTokens/amount-exceeds-users-deposit\");\n        require(totalValueDeposited >= _amount , \"withdrawTokens/amount-exceeds-total-deposit\");\n        \n        _claimFeesRewards();\n        _withdrawClaimedFees();\n\n        uint256 stablecoinBalanceStableSwap18Decimals = IStableSwapModule(stableSwapModule).tokenBalance(stablecoin);\n        uint256 tokenBalanceStableSwapScaled = IStableSwapModule(stableSwapModule).tokenBalance(token);\n        uint256 tokenBalanceStableSwap18Decimals = _convertDecimals(tokenBalanceStableSwapScaled, IToken(token).decimals(), 18);\n\n        require(\n            stablecoinBalanceStableSwap18Decimals + tokenBalanceStableSwap18Decimals >= _amount,\n            \"withdrawTokens/amount-exceed-total-balance-in-stableswap\"\n        );\n\n        uint256 stablecoinAmountToWithdraw = (_amount * WAD * stablecoinBalanceStableSwap18Decimals) /\n            (stablecoinBalanceStableSwap18Decimals + tokenBalanceStableSwap18Decimals) /\n            WAD;\n\n        uint256 tokenAmountToWithdraw = (_amount * WAD * tokenBalanceStableSwap18Decimals) /\n            (stablecoinBalanceStableSwap18Decimals + tokenBalanceStableSwap18Decimals) /\n            WAD;\n\n        require(stablecoinAmountToWithdraw + tokenAmountToWithdraw <= _amount, \"withdrawTokens/total-amount-from-stableswap-exceeds-amount\");\n        uint256 tokenAmountToWithdrawScaled = _convertDecimals(tokenAmountToWithdraw, 18, IToken(token).decimals());\n\n        _withdrawFromStableSwap(stablecoin, stablecoinAmountToWithdraw);\n        _withdrawFromStableSwap(token, tokenAmountToWithdrawScaled);\n\n        depositTracker[msg.sender] -= _amount;\n        totalValueDeposited -= _amount;\n\n        _transferToUser(stablecoin, stablecoinAmountToWithdraw);\n        _transferToUser(token, tokenAmountToWithdrawScaled);\n\n        emit LogWithdrawTokens(msg.sender, _amount);\n    }\n\n\n    function pause() external onlyOwnerOrGov {\n        _pause();\n        emit LogStableSwapWrapperPauseState(true);\n    }\n\n    function unpause() external onlyOwnerOrGov {\n        _unpause();\n        emit LogStableSwapWrapperPauseState(false);\n    }\n\n\n    function claimFeesRewards() external override whenNotPaused {\n        _claimFeesRewards();\n    }\n\n    \n    function withdrawClaimedFees() external override nonReentrant whenNotPaused {\n        require(claimedFXDFeeRewards[msg.sender] != 0 || claimedTokenFeeRewards[msg.sender] != 0, \"withdrawClaimedFees/no-claimed-fees\");\n        _withdrawClaimedFees();\n    }\n\n    /**\n     * @dev emergencyWithdraw, allowed when SSM and Wrapper is paused\n     * @notice the function is used in emergency scenario, where the LPs will get back all of their shares of tokens in the stableswap\n     */\n    function emergencyWithdraw() external override nonReentrant whenPaused {\n        require(IStableSwapRetriever(stableSwapModule).paused(),\"emergencyWithdraw/SSM-not-paused\");\n        require(depositTracker[msg.sender] != 0, \"emergencyWithdraw/amount-zero\");\n        (uint256 stablecoinAmountToWithdraw, uint256 tokenAmountToWithdraw) = this.getActualLiquidityAvailablePerUser(msg.sender);\n        \n        depositTracker[msg.sender] = 0;\n\n        if(totalValueDeposited > stablecoinAmountToWithdraw + tokenAmountToWithdraw) {\n            totalValueDeposited -= (stablecoinAmountToWithdraw + tokenAmountToWithdraw);\n        } else {\n            totalValueDeposited = 0;\n        }\n        \n        checkpointFXDFee[msg.sender] = 0;\n        checkpointTokenFee[msg.sender] = 0;\n        \n        claimedFXDFeeRewards[msg.sender] = 0;\n        claimedTokenFeeRewards[msg.sender] = 0;\n        \n        _withdrawFromStableSwap(stablecoin, stablecoinAmountToWithdraw);\n        uint256 tokenAmountToWithdrawScaled = _convertDecimals(tokenAmountToWithdraw, 18, IToken(token).decimals());\n        _withdrawFromStableSwap(token, tokenAmountToWithdrawScaled);\n    }\n\n    function getAmounts(uint256 _amount) external override view returns(uint256, uint256) {\n        require(_amount != 0, \"getAmounts/amount-zero\");\n        require(depositTracker[msg.sender] >= _amount, \"getAmounts/amount-exceeds-users-deposit\");\n        require(totalValueDeposited >= _amount, \"getAmounts/amount-exceeds-total-deposit\");\n\n        uint256 stablecoinBalanceStableSwap18Decimals = IStableSwapModule(stableSwapModule).tokenBalance(stablecoin);\n        uint256 tokenBalanceStableSwapScaled = IStableSwapModule(stableSwapModule).tokenBalance(token);\n        uint256 tokenBalanceStableSwap18Decimals = _convertDecimals(tokenBalanceStableSwapScaled, IToken(token).decimals(), 18);\n\n        uint256 stablecoinAmountToWithdraw = (_amount * WAD * stablecoinBalanceStableSwap18Decimals) /\n            (stablecoinBalanceStableSwap18Decimals + tokenBalanceStableSwap18Decimals) /\n            WAD;\n\n        uint256 tokenAmountToWithdraw = (_amount * WAD * tokenBalanceStableSwap18Decimals) /\n            (stablecoinBalanceStableSwap18Decimals + tokenBalanceStableSwap18Decimals) /\n            WAD;\n\n        return (stablecoinAmountToWithdraw, tokenAmountToWithdraw);\n    }\n\n    function getActualLiquidityAvailablePerUser(address account) external view override returns (uint256, uint256) {\n        uint256 _amount = depositTracker[account];\n        uint256 stablecoinBalanceStableSwap18Decimals = IStableSwapModule(stableSwapModule).tokenBalance(stablecoin);\n        uint256 tokenBalanceStableSwapScaled = IStableSwapModule(stableSwapModule).tokenBalance(token);\n        uint256 tokenBalanceStableSwap18Decimals = _convertDecimals(tokenBalanceStableSwapScaled, IToken(token).decimals(), 18);\n\n        uint256 stablecoinAmountToWithdraw = (_amount * WAD * stablecoinBalanceStableSwap18Decimals) /\n            (stablecoinBalanceStableSwap18Decimals + tokenBalanceStableSwap18Decimals) /\n            WAD;\n\n        uint256 tokenAmountToWithdraw = (_amount * WAD * tokenBalanceStableSwap18Decimals) /\n            (stablecoinBalanceStableSwap18Decimals + tokenBalanceStableSwap18Decimals) /\n            WAD;\n\n        return (stablecoinAmountToWithdraw, tokenAmountToWithdraw);\n    }\n\n    function getClaimableFeesPerUser(address account) external view override returns (uint256, uint256) {\n        uint256 totalStablecoinLiquidity = _totalStablecoinBalanceStableswap();\n        uint256 totalTokenLiquidity = _totalTokenBalanceStableswap();\n        \n        uint256 stablecoinProviderLiquidity = depositTracker[account] * WAD / (2 * WAD);\n        uint256 tokenProviderLiquidity = _convertDecimals(depositTracker[account] * WAD / (2 * WAD), 18, IToken(token).decimals());\n        \n        uint256 unclaimedStablecoinFees = _totalFXDFeeBalance() - checkpointFXDFee[account];\n        uint256 unclaimedTokenFees = _totalTokenFeeBalance() - checkpointTokenFee[account];\n        \n        uint256 newFeeRewardsForStablecoin;\n        uint256 newFeesRewardsForToken;\n\n        if(totalStablecoinLiquidity > 0){\n            newFeeRewardsForStablecoin = (unclaimedStablecoinFees * stablecoinProviderLiquidity * WAD) / totalStablecoinLiquidity / WAD;\n        }\n\n        if(totalTokenLiquidity > 0){\n            newFeesRewardsForToken = (unclaimedTokenFees * tokenProviderLiquidity * WAD) / totalTokenLiquidity / WAD;\n        }\n\n        return (newFeeRewardsForStablecoin, newFeesRewardsForToken);\n    }\n    \n\n\n    function _claimFeesRewards() internal {\n        uint256 totalStablecoinLiquidity = _totalStablecoinBalanceStableswap();\n        uint256 totalTokenLiquidity = _totalTokenBalanceStableswap();\n        \n        uint256 stablecoinProviderLiquidity = depositTracker[msg.sender] * WAD / (2 * WAD);\n        uint256 tokenProviderLiquidity = _convertDecimals(depositTracker[msg.sender] * WAD / (2 * WAD), 18, IToken(token).decimals());\n        \n        uint256 unclaimedStablecoinFees = _totalFXDFeeBalance() - checkpointFXDFee[msg.sender];\n        uint256 unclaimedTokenFees = _totalTokenFeeBalance() - checkpointTokenFee[msg.sender];\n        \n        uint256 newFeeRewardsForStablecoin;\n        uint256 newFeesRewardsForToken;\n\n        if(totalStablecoinLiquidity > 0){\n            newFeeRewardsForStablecoin = (unclaimedStablecoinFees * stablecoinProviderLiquidity * WAD) / totalStablecoinLiquidity / WAD;\n        }\n        if(totalTokenLiquidity > 0){\n            newFeesRewardsForToken = (unclaimedTokenFees * tokenProviderLiquidity * WAD) / totalTokenLiquidity / WAD;\n        }\n\n        claimedFXDFeeRewards[msg.sender] += newFeeRewardsForStablecoin;\n        claimedTokenFeeRewards[msg.sender] += newFeesRewardsForToken;\n\n        checkpointFXDFee[msg.sender] = _totalFXDFeeBalance();\n        checkpointTokenFee[msg.sender] = _totalTokenFeeBalance();\n    }\n\n\n    function _withdrawClaimedFees() internal {\n        uint256 pendingFXDFee = claimedFXDFeeRewards[msg.sender];\n        uint256 pendingTokenFee = claimedTokenFeeRewards[msg.sender];\n\n        uint256 remainingFXDFeeBalanceInStableswap = IStableSwapModule(stableSwapModule).remainingFXDFeeBalance();\n        uint256 remainingTokenFeeBalanceInStableswap = IStableSwapModule(stableSwapModule).remainingTokenFeeBalance();\n        \n        if(pendingFXDFee > remainingFXDFeeBalanceInStableswap){\n            pendingFXDFee = remainingFXDFeeBalanceInStableswap;\n        }\n\n        if(pendingTokenFee > remainingTokenFeeBalanceInStableswap){\n            pendingTokenFee = remainingTokenFeeBalanceInStableswap;\n        }\n        \n        claimedFXDFeeRewards[msg.sender] = 0;\n        claimedTokenFeeRewards[msg.sender] = 0;\n        \n        if(pendingFXDFee > 0 || pendingTokenFee > 0){\n            _withdrawFeesFromStableswap(msg.sender, pendingFXDFee, pendingTokenFee);\n        }\n    }\n\n    function _depositToStableSwap(address _token, uint256 _amount) internal {\n        uint256 tokenBalanceBefore = _token.balanceOf(address(this));\n        _token.safeApprove(stableSwapModule, 0);\n        _token.safeApprove(stableSwapModule, _amount);\n        IStableSwapModule(stableSwapModule).depositToken(_token, _amount);\n        uint256 tokenBalanceAfter = _token.balanceOf(address(this));\n        require(tokenBalanceBefore - tokenBalanceAfter == _amount, \"depositToStableSwap/amount-mismatch\");\n    }\n\n    function _withdrawFromStableSwap(address _token, uint256 _amount) internal {\n        uint256 tokenBalanceBefore = _token.balanceOf(address(this));\n        IStableSwapModule(stableSwapModule).withdrawToken(_token, _amount);\n        uint256 tokenBalanceAfter = _token.balanceOf(address(this));\n        require(tokenBalanceAfter - tokenBalanceBefore == _amount, \"withdrawFromStableSwap/amount-mismatch\");\n    }\n\n    function _withdrawFeesFromStableswap(address _destination,uint256 _amountFXDFee, uint256 _amountTokenFee) internal {\n        uint256 stablecoinBalanceOfUserBeforeWithdraw = stablecoin.balanceOf(_destination);\n        uint256 tokenBalanceOfUserBeforeWithdraw = token.balanceOf(_destination);\n        \n        IStableSwapModule(stableSwapModule).withdrawFees(_destination,_amountFXDFee, _amountTokenFee);\n        uint256 stablecoinBalanceOfUserAfterWithdraw = stablecoin.balanceOf(_destination);\n        uint256 tokenBalanceOfUserAfterWithdraw = token.balanceOf(_destination);\n        \n        require(stablecoinBalanceOfUserAfterWithdraw - stablecoinBalanceOfUserBeforeWithdraw == _amountFXDFee, \"withdrawFeesFromStableswap/stablecoin-amount-mismatch\");\n        require(tokenBalanceOfUserAfterWithdraw - tokenBalanceOfUserBeforeWithdraw == _amountTokenFee, \"withdrawFeesFromStableswap/token-amount-mismatch\");\n    }\n\n    function _transferToTheContract(address _token, uint256 _amount) internal {\n        _token.safeTransferFrom(msg.sender, address(this), _amount);\n    }\n\n    function _transferToUser(address _token, uint256 _amount) internal {\n        _token.safeTransfer(msg.sender, _amount);\n    }\n\n    function _totalFXDFeeBalance() internal view returns(uint256) {\n        return IStableSwapRetriever(stableSwapModule).totalFXDFeeBalance();\n    }\n\n    function _totalTokenFeeBalance() internal view returns(uint256) {\n        return IStableSwapRetriever(stableSwapModule).totalTokenFeeBalance();\n    }\n\n    function _totalStablecoinBalanceStableswap() internal view returns(uint256) {\n        return IStableSwapModule(stableSwapModule).tokenBalance(stablecoin);\n    }\n\n    function _totalTokenBalanceStableswap() internal view returns(uint256) {\n        return IStableSwapModule(stableSwapModule).tokenBalance(token);\n    }\n\n    function _convertDecimals(uint256 _amount, uint8 _fromDecimals, uint8 _toDecimals) internal pure returns (uint256 result) {\n        result = _toDecimals >= _fromDecimals ? _amount * (10 ** (_toDecimals - _fromDecimals)) : _amount / (10 ** (_fromDecimals - _toDecimals));\n    }\n}\n",
    "sourcePath": "/Users/sangjun.lee/Sangjun/fathom-stablecoin-smart-contracts/contracts/main/stablecoin-core/StableSwapModuleWrapper.sol",
    "compiler": {
        "name": "solc",
        "version": "0.8.17+commit.8df45f5f.Emscripten.clang"
    },
    "schemaVersion": "3.4.10",
    "updatedAt": "2023-07-25T11:12:21.247Z",
    "devdoc": {
        "kind": "dev",
        "methods": {
            "depositTokens(uint256)": {
                "details": "_amount arg should be in 18 decimalswhen you deposit tokens, you are depositing _amount of Stablecoin and Token each. So, the total deposit is twice the _amount   "
            },
            "emergencyWithdraw()": {
                "details": "emergencyWithdraw, allowed when SSM and Wrapper is paused"
            },
            "paused()": {
                "details": "Returns true if the contract is paused, and false otherwise."
            },
            "withdrawTokens(uint256)": {
                "details": "_amount arg should be in 18 decimalswhen you withdraw tokens, you are withdrawing _amount of total tokens , ie half of stablecoin and half of tokenplease consider that the withdraw of each token is not exactly half but depends upon ratio of tokens in the stableswap"
            }
        },
        "version": 1
    },
    "userdoc": {
        "kind": "user",
        "methods": {
            "depositTokens(uint256)": {
                "notice": "claimFeesRewards is before deposit tracker is updated because we need to claim for all the liquidity available currently"
            },
            "emergencyWithdraw()": {
                "notice": "the function is used in emergency scenario, where the LPs will get back all of their shares of tokens in the stableswap"
            },
            "withdrawTokens(uint256)": {
                "notice": "claimFeesRewards is before deposit tracker is updated because we need to claim for all the liquidity available currently"
            }
        },
        "version": 1
    }
}