{
  "_format": "hh-sol-artifact-1",
  "contractName": "StabilityFeeCollector",
  "sourceName": "contracts/6.12/stablecoin-core/StabilityFeeCollector.sol",
  "abi": [
    {
      "inputs": [
        {
          "internalType": "address",
          "name": "_bookKeeper",
          "type": "address"
        },
        {
          "internalType": "address",
          "name": "_systemDebtEngine",
          "type": "address"
        }
      ],
      "stateMutability": "nonpayable",
      "type": "constructor"
    },
    {
      "anonymous": false,
      "inputs": [
        {
          "indexed": true,
          "internalType": "address",
          "name": "_caller",
          "type": "address"
        },
        {
          "indexed": false,
          "internalType": "uint256",
          "name": "_data",
          "type": "uint256"
        }
      ],
      "name": "LogSetGlobalStabilityFeeRate",
      "type": "event"
    },
    {
      "anonymous": false,
      "inputs": [
        {
          "indexed": true,
          "internalType": "address",
          "name": "_caller",
          "type": "address"
        },
        {
          "indexed": false,
          "internalType": "address",
          "name": "_data",
          "type": "address"
        }
      ],
      "name": "LogSetSystemDebtEngine",
      "type": "event"
    },
    {
      "inputs": [],
      "name": "bookKeeper",
      "outputs": [
        {
          "internalType": "contract IBookKeeper",
          "name": "",
          "type": "address"
        }
      ],
      "stateMutability": "view",
      "type": "function"
    },
    {
      "inputs": [
        {
          "internalType": "bytes32",
          "name": "_collateralPool",
          "type": "bytes32"
        }
      ],
      "name": "collect",
      "outputs": [
        {
          "internalType": "uint256",
          "name": "_debtAccumulatedRate",
          "type": "uint256"
        }
      ],
      "stateMutability": "nonpayable",
      "type": "function"
    },
    {
      "inputs": [],
      "name": "globalStabilityFeeRate",
      "outputs": [
        {
          "internalType": "uint256",
          "name": "",
          "type": "uint256"
        }
      ],
      "stateMutability": "view",
      "type": "function"
    },
    {
      "inputs": [
        {
          "internalType": "uint256",
          "name": "_globalStabilityFeeRate",
          "type": "uint256"
        }
      ],
      "name": "setGlobalStabilityFeeRate",
      "outputs": [],
      "stateMutability": "nonpayable",
      "type": "function"
    },
    {
      "inputs": [
        {
          "internalType": "address",
          "name": "_systemDebtEngine",
          "type": "address"
        }
      ],
      "name": "setSystemDebtEngine",
      "outputs": [],
      "stateMutability": "nonpayable",
      "type": "function"
    },
    {
      "inputs": [],
      "name": "systemDebtEngine",
      "outputs": [
        {
          "internalType": "address",
          "name": "",
          "type": "address"
        }
      ],
      "stateMutability": "view",
      "type": "function"
    }
  ],
  "bytecode": "0x608060405234801561001057600080fd5b50604051610c04380380610c0483398101604081905261002f9161009c565b600080546001600160a01b0319166001600160a01b038481169190911790915581166100765760405162461bcd60e51b815260040161006d906100d5565b60405180910390fd5b600180546001600160a01b0319166001600160a01b03929092169190911790555061014a565b600080604083850312156100ae578182fd5b82516100b981610132565b60208401519092506100ca81610132565b809150509250929050565b60208082526034908201527f53746162696c697479466565436f6c6c6563746f722f6261642d73797374656d60408201527f2d646562742d656e67696e652d61646472657373000000000000000000000000606082015260800190565b6001600160a01b038116811461014757600080fd5b50565b610aab806101596000396000f3fe608060405234801561001057600080fd5b50600436106100625760003560e01c806328e49a4214610067578063497777d514610085578063796a39bb146100a55780637e0972f5146100ba578063a985bdcf146100cd578063e3b3932a146100d5575b600080fd5b61006f6100dd565b60405161007c919061089a565b60405180910390f35b61009861009336600461086a565b6100ec565b60405161007c91906108ae565b6100b86100b336600461086a565b6100fd565b005b6100b86100c836600461082b565b6101a9565b61009861021c565b61006f610222565b6001546001600160a01b031681565b60006100f782610231565b92915050565b80158061011657506b033b2e3c9fd0803ce80000008110155b61013b5760405162461bcd60e51b815260040161013290610917565b60405180910390fd5b6b033b2e3d523e808a07fcdc0b8111156101675760405162461bcd60e51b815260040161013290610967565b600281905560405133907f86f297ca1817ba3695e4c5b0c81901d82dac7eb4343b99299b29c39fa2f685fa9061019e9084906108ae565b60405180910390a250565b6001600160a01b0381166101cf5760405162461bcd60e51b815260040161013290610a09565b600180546001600160a01b0319166001600160a01b03831617905560405133907f28c02b7fb4c1c94c7b73df5dd0863593970575d3a1faf5271e73ee27155c40219061019e90849061089a565b60025481565b6000546001600160a01b031681565b600080546040805163d868246160e01b8152905183926001600160a01b03169163d8682461916004808301926020929190829003018186803b15801561027657600080fd5b505afa15801561028a573d6000803e3d6000fd5b505050506040513d601f19601f820116820180604052508101906102ae919061084e565b6001600160a01b031663a09b0fe0846040518263ffffffff1660e01b81526004016102d991906108ae565b60206040518083038186803b1580156102f157600080fd5b505afa158015610305573d6000803e3d6000fd5b505050506040513d601f19601f820116820180604052508101906103299190610882565b905060008060009054906101000a90046001600160a01b03166001600160a01b031663d86824616040518163ffffffff1660e01b815260040160206040518083038186803b15801561037a57600080fd5b505afa15801561038e573d6000803e3d6000fd5b505050506040513d601f19601f820116820180604052508101906103b2919061084e565b6001600160a01b0316631fea158d856040518263ffffffff1660e01b81526004016103dd91906108ae565b60206040518083038186803b1580156103f557600080fd5b505afa158015610409573d6000803e3d6000fd5b505050506040513d601f19601f8201168201806040525081019061042d9190610882565b905060008060009054906101000a90046001600160a01b03166001600160a01b031663d86824616040518163ffffffff1660e01b815260040160206040518083038186803b15801561047e57600080fd5b505afa158015610492573d6000803e3d6000fd5b505050506040513d601f19601f820116820180604052508101906104b6919061084e565b6001600160a01b031663bbd112a5866040518263ffffffff1660e01b81526004016104e191906108ae565b60206040518083038186803b1580156104f957600080fd5b505afa15801561050d573d6000803e3d6000fd5b505050506040513d601f19601f820116820180604052508101906105319190610882565b9050804210156105535760405162461bcd60e51b8152600401610132906108d6565b6001546001600160a01b031661057b5760405162461bcd60e51b8152600401610132906109b9565b6105a86105a261058d60025485610709565b8342036b033b2e3c9fd0803ce8000000610719565b846107d7565b6000546001549195506001600160a01b03908116916390d53639918891166105d0888861080d565b6040518463ffffffff1660e01b81526004016105ee939291906108b7565b600060405180830381600087803b15801561060857600080fd5b505af115801561061c573d6000803e3d6000fd5b5050505060008054906101000a90046001600160a01b03166001600160a01b031663d86824616040518163ffffffff1660e01b815260040160206040518083038186803b15801561066c57600080fd5b505afa158015610680573d6000803e3d6000fd5b505050506040513d601f19601f820116820180604052508101906106a4919061084e565b6001600160a01b031663e73eb92e866040518263ffffffff1660e01b81526004016106cf91906108ae565b600060405180830381600087803b1580156106e957600080fd5b505af11580156106fd573d6000803e3d6000fd5b50505050505050919050565b818101828110156100f757600080fd5b60008380156107b95760018416801561073457859250610738565b8392505b50600283046002850494505b84156107b357858602868782041461075b57600080fd5b8181018181101561076b57600080fd5b85900496505060018516156107a857858302838782041415871515161561079157600080fd5b818101818110156107a157600080fd5b8590049350505b600285049450610744565b506107cf565b8380156107c957600092506107cd565b8392505b505b509392505050565b8181028115806107ef5750828282816107ec57fe5b04145b6107f857600080fd5b6b033b2e3c9fd0803ce8000000900492915050565b80820360008312801590610822575060008212155b6100f757600080fd5b60006020828403121561083c578081fd5b813561084781610a5d565b9392505050565b60006020828403121561085f578081fd5b815161084781610a5d565b60006020828403121561087b578081fd5b5035919050565b600060208284031215610893578081fd5b5051919050565b6001600160a01b0391909116815260200190565b90815260200190565b9283526001600160a01b03919091166020830152604082015260600190565b60208082526021908201527f53746162696c697479466565436f6c6c6563746f722f696e76616c69642d6e6f6040820152607760f81b606082015260800190565b60208082526030908201527f53746162696c697479466565436f6c6c6563746f722f696e76616c69642d737460408201526f6162696c6974792d6665652d7261746560801b606082015260800190565b60208082526032908201527f53746162696c697479466565436f6c6c6563746f722f73746162696c6974792d6040820152716665652d726174652d746f6f2d6c6172676560701b606082015260800190565b60208082526030908201527f53746162696c697479466565436f6c6c6563746f722f73797374656d2d64656260408201526f1d0b595b99da5b994b5b9bdd0b5cd95d60821b606082015260800190565b60208082526034908201527f53746162696c697479466565436f6c6c6563746f722f6261642d73797374656d6040820152732d646562742d656e67696e652d6164647265737360601b606082015260800190565b6001600160a01b0381168114610a7257600080fd5b5056fea264697066735822122070467569240c0c90c67bab2a1f73a735c4cce7842c4bd8940c55f9e9718e40fe64736f6c634300060c0033",
  "linkReferences": {},
  "deployedLinkReferences": {}
}