{
  "contractName": "StableSwapModuleWrapper",
  "abi": [
    {
      "anonymous": false,
      "inputs": [
        {
          "indexed": false,
          "internalType": "uint8",
          "name": "version",
          "type": "uint8"
        }
      ],
      "name": "Initialized",
      "type": "event"
    },
    {
      "anonymous": false,
      "inputs": [
        {
          "indexed": true,
          "internalType": "address",
          "name": "user",
          "type": "address"
        }
      ],
      "name": "LogAddToWhitelist",
      "type": "event"
    },
    {
      "anonymous": false,
      "inputs": [
        {
          "indexed": true,
          "internalType": "address",
          "name": "_depositor",
          "type": "address"
        },
        {
          "indexed": false,
          "internalType": "uint256",
          "name": "_amount",
          "type": "uint256"
        }
      ],
      "name": "LogDepositTokens",
      "type": "event"
    },
    {
      "anonymous": false,
      "inputs": [
        {
          "indexed": true,
          "internalType": "address",
          "name": "user",
          "type": "address"
        }
      ],
      "name": "LogRemoveFromWhitelist",
      "type": "event"
    },
    {
      "anonymous": false,
      "inputs": [
        {
          "indexed": false,
          "internalType": "bool",
          "name": "_pauseState",
          "type": "bool"
        }
      ],
      "name": "LogStableSwapWrapperPauseState",
      "type": "event"
    },
    {
      "anonymous": false,
      "inputs": [
        {
          "indexed": false,
          "internalType": "bool",
          "name": "_isDecentralizedState",
          "type": "bool"
        }
      ],
      "name": "LogUpdateIsDecentralizedState",
      "type": "event"
    },
    {
      "anonymous": false,
      "inputs": [
        {
          "indexed": true,
          "internalType": "address",
          "name": "_depositor",
          "type": "address"
        },
        {
          "indexed": false,
          "internalType": "uint256",
          "name": "_amount",
          "type": "uint256"
        }
      ],
      "name": "LogWithdrawTokens",
      "type": "event"
    },
    {
      "anonymous": false,
      "inputs": [
        {
          "indexed": false,
          "internalType": "address",
          "name": "account",
          "type": "address"
        }
      ],
      "name": "Paused",
      "type": "event"
    },
    {
      "anonymous": false,
      "inputs": [
        {
          "indexed": false,
          "internalType": "address",
          "name": "account",
          "type": "address"
        }
      ],
      "name": "Unpaused",
      "type": "event"
    },
    {
      "inputs": [],
      "name": "bookKeeper",
      "outputs": [
        {
          "internalType": "contract IBookKeeper",
          "name": "",
          "type": "address"
        }
      ],
      "stateMutability": "view",
      "type": "function"
    },
    {
      "inputs": [
        {
          "internalType": "address",
          "name": "",
          "type": "address"
        }
      ],
      "name": "depositTracker",
      "outputs": [
        {
          "internalType": "uint256",
          "name": "",
          "type": "uint256"
        }
      ],
      "stateMutability": "view",
      "type": "function"
    },
    {
      "inputs": [],
      "name": "isDecentralizedState",
      "outputs": [
        {
          "internalType": "bool",
          "name": "",
          "type": "bool"
        }
      ],
      "stateMutability": "view",
      "type": "function"
    },
    {
      "inputs": [],
      "name": "paused",
      "outputs": [
        {
          "internalType": "bool",
          "name": "",
          "type": "bool"
        }
      ],
      "stateMutability": "view",
      "type": "function"
    },
    {
      "inputs": [],
      "name": "stableSwapModule",
      "outputs": [
        {
          "internalType": "address",
          "name": "",
          "type": "address"
        }
      ],
      "stateMutability": "view",
      "type": "function"
    },
    {
      "inputs": [],
      "name": "stablecoin",
      "outputs": [
        {
          "internalType": "address",
          "name": "",
          "type": "address"
        }
      ],
      "stateMutability": "view",
      "type": "function"
    },
    {
      "inputs": [],
      "name": "token",
      "outputs": [
        {
          "internalType": "address",
          "name": "",
          "type": "address"
        }
      ],
      "stateMutability": "view",
      "type": "function"
    },
    {
      "inputs": [],
      "name": "totalValueDeposited",
      "outputs": [
        {
          "internalType": "uint256",
          "name": "",
          "type": "uint256"
        }
      ],
      "stateMutability": "view",
      "type": "function"
    },
    {
      "inputs": [
        {
          "internalType": "address",
          "name": "",
          "type": "address"
        }
      ],
      "name": "usersWhitelist",
      "outputs": [
        {
          "internalType": "bool",
          "name": "",
          "type": "bool"
        }
      ],
      "stateMutability": "view",
      "type": "function"
    },
    {
      "inputs": [
        {
          "internalType": "address",
          "name": "_bookKeeper",
          "type": "address"
        },
        {
          "internalType": "address",
          "name": "_stableswapModule",
          "type": "address"
        }
      ],
      "name": "initialize",
      "outputs": [],
      "stateMutability": "nonpayable",
      "type": "function"
    },
    {
      "inputs": [
        {
          "internalType": "address",
          "name": "_user",
          "type": "address"
        }
      ],
      "name": "addToWhitelist",
      "outputs": [],
      "stateMutability": "nonpayable",
      "type": "function"
    },
    {
      "inputs": [
        {
          "internalType": "address",
          "name": "_user",
          "type": "address"
        }
      ],
      "name": "removeFromWhitelist",
      "outputs": [],
      "stateMutability": "nonpayable",
      "type": "function"
    },
    {
      "inputs": [
        {
          "internalType": "bool",
          "name": "_isDecentralizedState",
          "type": "bool"
        }
      ],
      "name": "setIsDecentralizedState",
      "outputs": [],
      "stateMutability": "nonpayable",
      "type": "function"
    },
    {
      "inputs": [
        {
          "internalType": "uint256",
          "name": "_amount",
          "type": "uint256"
        }
      ],
      "name": "depositTokens",
      "outputs": [],
      "stateMutability": "nonpayable",
      "type": "function"
    },
    {
      "inputs": [
        {
          "internalType": "uint256",
          "name": "_amount",
          "type": "uint256"
        }
      ],
      "name": "withdrawTokens",
      "outputs": [],
      "stateMutability": "nonpayable",
      "type": "function"
    },
    {
      "inputs": [],
      "name": "pause",
      "outputs": [],
      "stateMutability": "nonpayable",
      "type": "function"
    },
    {
      "inputs": [],
      "name": "unpause",
      "outputs": [],
      "stateMutability": "nonpayable",
      "type": "function"
    },
    {
      "inputs": [
        {
          "internalType": "uint256",
          "name": "_amount",
          "type": "uint256"
        }
      ],
      "name": "getAmounts",
      "outputs": [
        {
          "internalType": "uint256",
          "name": "",
          "type": "uint256"
        },
        {
          "internalType": "uint256",
          "name": "",
          "type": "uint256"
        }
      ],
      "stateMutability": "view",
      "type": "function"
    },
    {
      "inputs": [
        {
          "internalType": "address",
          "name": "account",
          "type": "address"
        }
      ],
      "name": "getActualLiquidityAvailablePerUser",
      "outputs": [
        {
          "internalType": "uint256",
          "name": "",
          "type": "uint256"
        },
        {
          "internalType": "uint256",
          "name": "",
          "type": "uint256"
        }
      ],
      "stateMutability": "view",
      "type": "function"
    }
  ],
  "bytecode": "0x608060405234801561001057600080fd5b50612ae5806100206000396000f3fe608060405234801561001057600080fd5b50600436106101215760003560e01c8063761598a3116100ad578063dd49756e11610071578063dd49756e14610278578063e3b3932a1461028b578063e43252d71461029e578063e9cbd822146102b1578063fc0c546a146102c457600080fd5b8063761598a3146101fb5780638456cb591461022957806386eb5133146102315780638ab1d6811461023a578063a8c8240d1461024d57600080fd5b80633f4ba83a116100f45780633f4ba83a146101af578063485cc955146101b7578063560260e1146101ca57806359f7cf50146101dd5780635c975abb146101f057600080fd5b806315eadbff146101265780632ed1e6721461014f578063315a095d146101775780633c11453a1461018c575b600080fd5b609a5461013a90600160a01b900460ff1681565b60405190151581526020015b60405180910390f35b61016261015d366004612779565b6102d7565b60408051928352602083019190915201610146565b61018a61018536600461279d565b6104fe565b005b61013a61019a366004612779565b609d6020526000908152604090205460ff1681565b61018a610add565b61018a6101c53660046127b6565b610d87565b61018a6101d83660046127fd565b611085565b6101626101eb36600461279d565b611244565b60335460ff1661013a565b61021b610209366004612779565b609c6020526000908152604090205481565b604051908152602001610146565b61018a611546565b61021b609b5481565b61018a610248366004612779565b6117e9565b609a54610260906001600160a01b031681565b6040516001600160a01b039091168152602001610146565b61018a61028636600461279d565b611996565b609754610260906001600160a01b031681565b61018a6102ac366004612779565b611d24565b609854610260906001600160a01b031681565b609954610260906001600160a01b031681565b6001600160a01b038181166000908152609c602052604080822054609a54609854925163776e4b3560e11b8152928516600484015292938493919284929091169063eedc966a90602401602060405180830381865afa15801561033e573d6000803e3d6000fd5b505050506040513d601f19601f82011682018060405250810190610362919061281a565b609a5460995460405163776e4b3560e11b81526001600160a01b03918216600482015292935060009291169063eedc966a90602401602060405180830381865afa1580156103b4573d6000803e3d6000fd5b505050506040513d601f19601f820116820180604052508101906103d8919061281a565b9050600061045e82609960009054906101000a90046001600160a01b03166001600160a01b031663313ce5676040518163ffffffff1660e01b8152600401602060405180830381865afa158015610433573d6000803e3d6000fd5b505050506040513d601f19601f820116820180604052508101906104579190612833565b6012611ed4565b90506000670de0b6b3a7640000610475838661286c565b85610488670de0b6b3a76400008961287f565b610492919061287f565b61049c9190612896565b6104a69190612896565b90506000670de0b6b3a76400006104bd848761286c565b846104d0670de0b6b3a76400008a61287f565b6104da919061287f565b6104e49190612896565b6104ee9190612896565b9199919850909650505050505050565b610506611f2f565b61050e611f88565b609a54600160a01b900460ff1661057a57336000908152609d602052604090205460ff1661057a5760405162461bcd60e51b81526020600482015260146024820152731d5cd95c8b5b9bdd0b5dda1a5d195b1a5cdd195960621b60448201526064015b60405180910390fd5b806000036105ca5760405162461bcd60e51b815260206004820152601a60248201527f7769746864726177546f6b656e732f616d6f756e742d7a65726f0000000000006044820152606401610571565b336000908152609c602052604090205481111561063d5760405162461bcd60e51b815260206004820152602b60248201527f7769746864726177546f6b656e732f616d6f756e742d657863656564732d757360448201526a195c9ccb59195c1bdcda5d60aa1b6064820152608401610571565b80609b5410156106a35760405162461bcd60e51b815260206004820152602b60248201527f7769746864726177546f6b656e732f616d6f756e742d657863656564732d746f60448201526a1d185b0b59195c1bdcda5d60aa1b6064820152608401610571565b609a5460985460405163776e4b3560e11b81526001600160a01b039182166004820152600092919091169063eedc966a90602401602060405180830381865afa1580156106f4573d6000803e3d6000fd5b505050506040513d601f19601f82011682018060405250810190610718919061281a565b609a5460995460405163776e4b3560e11b81526001600160a01b03918216600482015292935060009291169063eedc966a90602401602060405180830381865afa15801561076a573d6000803e3d6000fd5b505050506040513d601f19601f8201168201806040525081019061078e919061281a565b905060006107e982609960009054906101000a90046001600160a01b03166001600160a01b031663313ce5676040518163ffffffff1660e01b8152600401602060405180830381865afa158015610433573d6000803e3d6000fd5b9050836107f6828561286c565b101561086a5760405162461bcd60e51b815260206004820152603860248201527f7769746864726177546f6b656e732f616d6f756e742d6578636565642d746f7460448201527f616c2d62616c616e63652d696e2d737461626c657377617000000000000000006064820152608401610571565b6000670de0b6b3a764000061087f838661286c565b85610892670de0b6b3a76400008961287f565b61089c919061287f565b6108a69190612896565b6108b09190612896565b90506000670de0b6b3a76400006108c7848761286c565b846108da670de0b6b3a76400008a61287f565b6108e4919061287f565b6108ee9190612896565b6108f89190612896565b905085610905828461286c565b11156109795760405162461bcd60e51b815260206004820152603a60248201527f7769746864726177546f6b656e732f746f74616c2d616d6f756e742d66726f6d60448201527f2d737461626c65737761702d657863656564732d616d6f756e740000000000006064820152608401610571565b60006109fd826012609960009054906101000a90046001600160a01b03166001600160a01b031663313ce5676040518163ffffffff1660e01b8152600401602060405180830381865afa1580156109d4573d6000803e3d6000fd5b505050506040513d601f19601f820116820180604052508101906109f89190612833565b611ed4565b609854909150610a16906001600160a01b031684611fd0565b609954610a2c906001600160a01b031682611fd0565b336000908152609c602052604081208054899290610a4b9084906128b8565b9250508190555086609b6000828254610a6491906128b8565b9091555050609854610a7f906001600160a01b0316846120d3565b609954610a95906001600160a01b0316826120d3565b60405187815233907fdee7e59b5d6bc3fbc9a9da46930152736b088c9a04598c98f747dabf6174815c9060200160405180910390a2505050505050610ada6001606555565b50565b6097546040805163c8cc243f60e01b815290516000926001600160a01b03169163c8cc243f9160048083019260209291908290030181865afa158015610b27573d6000803e3d6000fd5b505050506040513d601f19601f82011682018060405250810190610b4b91906128cb565b9050806001600160a01b03166391d14854826001600160a01b031663e58378bb6040518163ffffffff1660e01b8152600401602060405180830381865afa158015610b9a573d6000803e3d6000fd5b505050506040513d601f19601f82011682018060405250810190610bbe919061281a565b6040516001600160e01b031960e084901b1681526004810191909152336024820152604401602060405180830381865afa158015610c00573d6000803e3d6000fd5b505050506040513d601f19601f82011682018060405250810190610c2491906128e8565b80610d015750806001600160a01b03166391d14854826001600160a01b031663b536818a6040518163ffffffff1660e01b8152600401602060405180830381865afa158015610c77573d6000803e3d6000fd5b505050506040513d601f19601f82011682018060405250810190610c9b919061281a565b6040516001600160e01b031960e084901b1681526004810191909152336024820152604401602060405180830381865afa158015610cdd573d6000803e3d6000fd5b505050506040513d601f19601f82011682018060405250810190610d0191906128e8565b610d475760405162461bcd60e51b815260206004820152601760248201527621286f776e6572526f6c65206f7220676f76526f6c652960481b6044820152606401610571565b610d4f6120f2565b604051600081527fbe372442b6f89ef64c64c0428c78013b0e10381de670f54b75787126419d6529906020015b60405180910390a150565b600054610100900460ff1615808015610da75750600054600160ff909116105b80610dc15750303b158015610dc1575060005460ff166001145b610e245760405162461bcd60e51b815260206004820152602e60248201527f496e697469616c697a61626c653a20636f6e747261637420697320616c72656160448201526d191e481a5b9a5d1a585b1a5e995960921b6064820152608401610571565b6000805460ff191660011790558015610e47576000805461ff0019166101001790555b6001600160a01b0382163b610e9e5760405162461bcd60e51b815260206004820152601d60248201527f737461626c65737761704d6f64756c652d6e6f742d636f6e74726163740000006044820152606401610571565b6001600160a01b0383163b610ef55760405162461bcd60e51b815260206004820152601760248201527f626f6f6b6b65657065722d6e6f742d636f6e74726163740000000000000000006044820152606401610571565b610efd612144565b610f05612173565b609780546001600160a01b038086166001600160a01b031992831617909255609a80549285169290911682179055604080516374e5ec1160e11b8152905163e9cbd822916004808201926020929091908290030181865afa158015610f6e573d6000803e3d6000fd5b505050506040513d601f19601f82011682018060405250810190610f9291906128cb565b609860006101000a8154816001600160a01b0302191690836001600160a01b03160217905550816001600160a01b031663fc0c546a6040518163ffffffff1660e01b8152600401602060405180830381865afa158015610ff6573d6000803e3d6000fd5b505050506040513d601f19601f8201168201806040525081019061101a91906128cb565b609980546001600160a01b0319166001600160a01b03929092169190911790558015611080576000805461ff0019169055604051600181527f7f26b83ff96e1f2b6a682f133852f6798a09c465da95921460cefb38474024989060200160405180910390a15b505050565b6097546040805163c8cc243f60e01b815290516000926001600160a01b03169163c8cc243f9160048083019260209291908290030181865afa1580156110cf573d6000803e3d6000fd5b505050506040513d601f19601f820116820180604052508101906110f391906128cb565b9050806001600160a01b03166391d14854826001600160a01b031663e58378bb6040518163ffffffff1660e01b8152600401602060405180830381865afa158015611142573d6000803e3d6000fd5b505050506040513d601f19601f82011682018060405250810190611166919061281a565b6040516001600160e01b031960e084901b1681526004810191909152336024820152604401602060405180830381865afa1580156111a8573d6000803e3d6000fd5b505050506040513d601f19601f820116820180604052508101906111cc91906128e8565b6111e85760405162461bcd60e51b815260040161057190612905565b609a805460ff60a01b1916600160a01b8415158102919091179182905560405160ff9190920416151581527f4e089ad0b762fc44b0427002516eb2b6562ffd939bf6ada00bdc0a104bf083b59060200160405180910390a15050565b600080826000036112905760405162461bcd60e51b8152602060048201526016602482015275676574416d6f756e74732f616d6f756e742d7a65726f60501b6044820152606401610571565b336000908152609c60205260409020548311156112ff5760405162461bcd60e51b815260206004820152602760248201527f676574416d6f756e74732f616d6f756e742d657863656564732d75736572732d60448201526619195c1bdcda5d60ca1b6064820152608401610571565b82609b5410156113615760405162461bcd60e51b815260206004820152602760248201527f676574416d6f756e74732f616d6f756e742d657863656564732d746f74616c2d60448201526619195c1bdcda5d60ca1b6064820152608401610571565b609a5460985460405163776e4b3560e11b81526001600160a01b039182166004820152600092919091169063eedc966a90602401602060405180830381865afa1580156113b2573d6000803e3d6000fd5b505050506040513d601f19601f820116820180604052508101906113d6919061281a565b609a5460995460405163776e4b3560e11b81526001600160a01b03918216600482015292935060009291169063eedc966a90602401602060405180830381865afa158015611428573d6000803e3d6000fd5b505050506040513d601f19601f8201168201806040525081019061144c919061281a565b905060006114a782609960009054906101000a90046001600160a01b03166001600160a01b031663313ce5676040518163ffffffff1660e01b8152600401602060405180830381865afa158015610433573d6000803e3d6000fd5b90506000670de0b6b3a76400006114be838661286c565b856114d1670de0b6b3a76400008b61287f565b6114db919061287f565b6114e59190612896565b6114ef9190612896565b90506000670de0b6b3a7640000611506848761286c565b84611519670de0b6b3a76400008c61287f565b611523919061287f565b61152d9190612896565b6115379190612896565b91989197509095505050505050565b6097546040805163c8cc243f60e01b815290516000926001600160a01b03169163c8cc243f9160048083019260209291908290030181865afa158015611590573d6000803e3d6000fd5b505050506040513d601f19601f820116820180604052508101906115b491906128cb565b9050806001600160a01b03166391d14854826001600160a01b031663e58378bb6040518163ffffffff1660e01b8152600401602060405180830381865afa158015611603573d6000803e3d6000fd5b505050506040513d601f19601f82011682018060405250810190611627919061281a565b6040516001600160e01b031960e084901b1681526004810191909152336024820152604401602060405180830381865afa158015611669573d6000803e3d6000fd5b505050506040513d601f19601f8201168201806040525081019061168d91906128e8565b8061176a5750806001600160a01b03166391d14854826001600160a01b031663b536818a6040518163ffffffff1660e01b8152600401602060405180830381865afa1580156116e0573d6000803e3d6000fd5b505050506040513d601f19601f82011682018060405250810190611704919061281a565b6040516001600160e01b031960e084901b1681526004810191909152336024820152604401602060405180830381865afa158015611746573d6000803e3d6000fd5b505050506040513d601f19601f8201168201806040525081019061176a91906128e8565b6117b05760405162461bcd60e51b815260206004820152601760248201527621286f776e6572526f6c65206f7220676f76526f6c652960481b6044820152606401610571565b6117b86121a2565b604051600181527fbe372442b6f89ef64c64c0428c78013b0e10381de670f54b75787126419d652990602001610d7c565b6097546040805163c8cc243f60e01b815290516000926001600160a01b03169163c8cc243f9160048083019260209291908290030181865afa158015611833573d6000803e3d6000fd5b505050506040513d601f19601f8201168201806040525081019061185791906128cb565b9050806001600160a01b03166391d14854826001600160a01b031663e58378bb6040518163ffffffff1660e01b8152600401602060405180830381865afa1580156118a6573d6000803e3d6000fd5b505050506040513d601f19601f820116820180604052508101906118ca919061281a565b6040516001600160e01b031960e084901b1681526004810191909152336024820152604401602060405180830381865afa15801561190c573d6000803e3d6000fd5b505050506040513d601f19601f8201168201806040525081019061193091906128e8565b61194c5760405162461bcd60e51b815260040161057190612905565b6001600160a01b0382166000818152609d6020526040808220805460ff19169055517f9e9499495e2efd848d33cb197bde94612c1ec36f30605b60d445511e056069e19190a25050565b61199e611f2f565b6119a6611f88565b609a54600160a01b900460ff16611a0d57336000908152609d602052604090205460ff16611a0d5760405162461bcd60e51b81526020600482015260146024820152731d5cd95c8b5b9bdd0b5dda1a5d195b1a5cdd195960621b6044820152606401610571565b80600003611a675760405162461bcd60e51b815260206004820152602160248201527f777261707065722d6465706f736974546f6b656e732f616d6f756e742d7a65726044820152606f60f81b6064820152608401610571565b6000611ac2826012609960009054906101000a90046001600160a01b03166001600160a01b031663313ce5676040518163ffffffff1660e01b8152600401602060405180830381865afa1580156109d4573d6000803e3d6000fd5b6099546040516370a0823160e01b815233600482015291925082916001600160a01b03909116906370a0823190602401602060405180830381865afa158015611b0f573d6000803e3d6000fd5b505050506040513d601f19601f82011682018060405250810190611b33919061281a565b1015611b815760405162461bcd60e51b815260206004820152601e60248201527f6465706f736974546f6b656e732f746f6b656e2d6e6f742d656e6f75676800006044820152606401610571565b6098546040516370a0823160e01b815233600482015283916001600160a01b0316906370a0823190602401602060405180830381865afa158015611bc9573d6000803e3d6000fd5b505050506040513d601f19601f82011682018060405250810190611bed919061281a565b1015611c3b5760405162461bcd60e51b815260206004820152601c60248201527f6465706f736974546f6b656e732f4658442d6e6f742d656e6f756768000000006044820152606401610571565b609854611c51906001600160a01b0316836121df565b609954611c67906001600160a01b0316826121df565b611c7282600261287f565b336000908152609c602052604081208054909190611c9190849061286c565b90915550611ca2905082600261287f565b609b6000828254611cb3919061286c565b9091555050609854611cce906001600160a01b0316836121f4565b609954611ce4906001600160a01b0316826121f4565b60405182815233907fba36f6a4dd3e5674f3f9840d8a82df4c60bfbbc04ba96a84ed414a9c84bad8d89060200160405180910390a250610ada6001606555565b6097546040805163c8cc243f60e01b815290516000926001600160a01b03169163c8cc243f9160048083019260209291908290030181865afa158015611d6e573d6000803e3d6000fd5b505050506040513d601f19601f82011682018060405250810190611d9291906128cb565b9050806001600160a01b03166391d14854826001600160a01b031663e58378bb6040518163ffffffff1660e01b8152600401602060405180830381865afa158015611de1573d6000803e3d6000fd5b505050506040513d601f19601f82011682018060405250810190611e05919061281a565b6040516001600160e01b031960e084901b1681526004810191909152336024820152604401602060405180830381865afa158015611e47573d6000803e3d6000fd5b505050506040513d601f19601f82011682018060405250810190611e6b91906128e8565b611e875760405162461bcd60e51b815260040161057190612905565b6001600160a01b0382166000818152609d6020526040808220805460ff19166001179055517f4e3d8c117d484081f7268ed79cded71ad42979b92feb5f8f7f9824ac5cbfe3759190a25050565b60008260ff168260ff161015611f0857611eee8284612929565b611ef990600a612a26565b611f039085612896565b611f27565b611f128383612929565b611f1d90600a612a26565b611f27908561287f565b949350505050565b600260655403611f815760405162461bcd60e51b815260206004820152601f60248201527f5265656e7472616e637947756172643a207265656e7472616e742063616c6c006044820152606401610571565b6002606555565b60335460ff1615611fce5760405162461bcd60e51b815260206004820152601060248201526f14185d5cd8589b194e881c185d5cd95960821b6044820152606401610571565b565b6000611fe56001600160a01b03841630612324565b609a546040516313c5035360e31b81526001600160a01b03868116600483015260248201869052929350911690639e281a9890604401600060405180830381600087803b15801561203557600080fd5b505af1158015612049573d6000803e3d6000fd5b50600092506120649150506001600160a01b03851630612324565b90508261207183836128b8565b146120cd5760405162461bcd60e51b815260206004820152602660248201527f776974686472617746726f6d537461626c65537761702f616d6f756e742d6d696044820152650e6dac2e8c6d60d31b6064820152608401610571565b50505050565b6120e76001600160a01b038316338361239b565b5050565b6001606555565b6120fa6124a6565b6033805460ff191690557f5db9ee0a495bf2e6ff9c91a7834c1ba4fdd244a5e8aa4e537bd38aeae4b073aa335b6040516001600160a01b03909116815260200160405180910390a1565b600054610100900460ff1661216b5760405162461bcd60e51b815260040161057190612a35565b611fce6124ef565b600054610100900460ff1661219a5760405162461bcd60e51b815260040161057190612a35565b611fce612522565b6121aa611f88565b6033805460ff191660011790557f62e78cea01bee320cd4e420270b5ea74000d11b0c9f74754ebdbfc544b05a2586121273390565b6120e76001600160a01b038316333084612549565b60006122096001600160a01b03841630612324565b609a54909150612227906001600160a01b0385811691166000612661565b609a54612241906001600160a01b03858116911684612661565b609a546040516319c5aef560e11b81526001600160a01b038581166004830152602482018590529091169063338b5dea90604401600060405180830381600087803b15801561228f57600080fd5b505af11580156122a3573d6000803e3d6000fd5b50600092506122be9150506001600160a01b03851630612324565b9050826122cb82846128b8565b146120cd5760405162461bcd60e51b815260206004820152602360248201527f6465706f736974546f537461626c65537761702f616d6f756e742d6d69736d616044820152620e8c6d60eb1b6064820152608401610571565b6040516370a0823160e01b81526001600160a01b038281166004830152600091908416906370a0823190602401602060405180830381865afa15801561236e573d6000803e3d6000fd5b505050506040513d601f19601f82011682018060405250810190612392919061281a565b90505b92915050565b604080516001600160a01b038481166024830152604480830185905283518084039091018152606490920183526020820180516001600160e01b031663a9059cbb60e01b17905291516000928392908716916123f79190612a80565b6000604051808303816000865af19150503d8060008114612434576040519150601f19603f3d011682016040523d82523d6000602084013e612439565b606091505b509150915081801561246357508051158061246357508080602001905181019061246391906128e8565b61249f5760405162461bcd60e51b815260206004820152600d60248201526c10b9b0b332aa3930b739b332b960991b6044820152606401610571565b5050505050565b60335460ff16611fce5760405162461bcd60e51b815260206004820152601460248201527314185d5cd8589b194e881b9bdd081c185d5cd95960621b6044820152606401610571565b600054610100900460ff166125165760405162461bcd60e51b815260040161057190612a35565b6033805460ff19169055565b600054610100900460ff166120eb5760405162461bcd60e51b815260040161057190612a35565b604080516001600160a01b0385811660248301528481166044830152606480830185905283518084039091018152608490920183526020820180516001600160e01b03166323b872dd60e01b17905291516000928392908816916125ad9190612a80565b6000604051808303816000865af19150503d80600081146125ea576040519150601f19603f3d011682016040523d82523d6000602084013e6125ef565b606091505b509150915081801561261957508051158061261957508080602001905181019061261991906128e8565b6126595760405162461bcd60e51b815260206004820152601160248201527021736166655472616e7366657246726f6d60781b6044820152606401610571565b505050505050565b604080516001600160a01b038481166024830152604480830185905283518084039091018152606490920183526020820180516001600160e01b031663095ea7b360e01b17905291516000928392908716916126bd9190612a80565b6000604051808303816000865af19150503d80600081146126fa576040519150601f19603f3d011682016040523d82523d6000602084013e6126ff565b606091505b509150915081801561272957508051158061272957508080602001905181019061272991906128e8565b61249f5760405162461bcd60e51b815260206004820152600c60248201526b2173616665417070726f766560a01b6044820152606401610571565b6001600160a01b0381168114610ada57600080fd5b60006020828403121561278b57600080fd5b813561279681612764565b9392505050565b6000602082840312156127af57600080fd5b5035919050565b600080604083850312156127c957600080fd5b82356127d481612764565b915060208301356127e481612764565b809150509250929050565b8015158114610ada57600080fd5b60006020828403121561280f57600080fd5b8135612796816127ef565b60006020828403121561282c57600080fd5b5051919050565b60006020828403121561284557600080fd5b815160ff8116811461279657600080fd5b634e487b7160e01b600052601160045260246000fd5b8082018082111561239557612395612856565b808202811582820484141761239557612395612856565b6000826128b357634e487b7160e01b600052601260045260246000fd5b500490565b8181038181111561239557612395612856565b6000602082840312156128dd57600080fd5b815161279681612764565b6000602082840312156128fa57600080fd5b8151612796816127ef565b6020808252600a9082015269216f776e6572526f6c6560b01b604082015260600190565b60ff828116828216039081111561239557612395612856565b600181815b8085111561297d57816000190482111561296357612963612856565b8085161561297057918102915b93841c9390800290612947565b509250929050565b60008261299457506001612395565b816129a157506000612395565b81600181146129b757600281146129c1576129dd565b6001915050612395565b60ff8411156129d2576129d2612856565b50506001821b612395565b5060208310610133831016604e8410600b8410161715612a00575081810a612395565b612a0a8383612942565b8060001904821115612a1e57612a1e612856565b029392505050565b600061239260ff841683612985565b6020808252602b908201527f496e697469616c697a61626c653a20636f6e7472616374206973206e6f74206960408201526a6e697469616c697a696e6760a81b606082015260800190565b6000825160005b81811015612aa15760208186018101518583015201612a87565b50600092019182525091905056fea26469706673582212206b73f3d52706e98b78539645378eee623995d5afb35c9005da486d946356f97c64736f6c63430008110033",
  "immutableReferences": {},
  "source": "// SPDX-License-Identifier: AGPL-3.0-or-later\npragma solidity 0.8.17;\n\nimport \"@openzeppelin/contracts-upgradeable/access/OwnableUpgradeable.sol\";\nimport \"@openzeppelin/contracts-upgradeable/security/PausableUpgradeable.sol\";\nimport \"@openzeppelin/contracts-upgradeable/access/AccessControlUpgradeable.sol\";\nimport \"@openzeppelin/contracts-upgradeable/security/ReentrancyGuardUpgradeable.sol\";\n\nimport \"../interfaces/IToken.sol\";\nimport \"../interfaces/IStablecoinAdapter.sol\";\nimport \"../interfaces/IStablecoin.sol\";\nimport \"../interfaces/IBookKeeper.sol\";\nimport \"../interfaces/IStableSwapModule.sol\";\nimport \"../utils/SafeToken.sol\";\nimport \"../interfaces/IStableSwapModuleWrapper.sol\";\n \ncontract StableSwapModuleWrapper is PausableUpgradeable, ReentrancyGuardUpgradeable, IStableSwapModuleWrapper{\n    using SafeToken for address;\n    uint256 internal constant WAD = 10 ** 18;\n\n    IBookKeeper public bookKeeper;\n\n    address public stablecoin;\n    address public token;\n    address public stableSwapModule;\n    bool public isDecentralizedState;\n    uint256 public totalValueDeposited;\n    \n\n    mapping(address => uint256) public depositTracker;\n    mapping(address => bool) public usersWhitelist;\n    \n    event LogDepositTokens(address indexed _depositor, uint256 _amount);\n    event LogWithdrawTokens(address indexed _depositor, uint256 _amount);\n    event LogAddToWhitelist(address indexed user);\n    event LogRemoveFromWhitelist(address indexed user);\n    event LogStableSwapWrapperPauseState(bool _pauseState);\n    event LogUpdateIsDecentralizedState(bool _isDecentralizedState);\n\n    modifier onlyOwner() {\n        IAccessControlConfig _accessControlConfig = IAccessControlConfig(bookKeeper.accessControlConfig());\n        require(_accessControlConfig.hasRole(_accessControlConfig.OWNER_ROLE(), msg.sender), \"!ownerRole\");\n        _;\n    }\n\n    modifier onlyOwnerOrGov() {\n        IAccessControlConfig _accessControlConfig = IAccessControlConfig(IBookKeeper(bookKeeper).accessControlConfig());\n        require(\n            _accessControlConfig.hasRole(_accessControlConfig.OWNER_ROLE(), msg.sender) ||\n                _accessControlConfig.hasRole(_accessControlConfig.GOV_ROLE(), msg.sender),\n            \"!(ownerRole or govRole)\"\n        );\n        _;\n    }\n\n    modifier onlyWhitelistedIfNotDecentralized() {\n        if (!isDecentralizedState) {\n            require(usersWhitelist[msg.sender], \"user-not-whitelisted\");\n        }\n        _;\n    }\n\n    function initialize(\n        address _bookKeeper,\n        address _stableswapModule\n    ) external initializer {\n        require(AddressUpgradeable.isContract(_stableswapModule),\"stableswapModule-not-contract\");\n        require(AddressUpgradeable.isContract(_bookKeeper),\"bookkeeper-not-contract\");\n\n        PausableUpgradeable.__Pausable_init();\n        ReentrancyGuardUpgradeable.__ReentrancyGuard_init();\n        \n        bookKeeper = IBookKeeper(_bookKeeper);\n        stableSwapModule = _stableswapModule;\n        stablecoin = IStableSwapModule(_stableswapModule).stablecoin();\n        token = IStableSwapModule(_stableswapModule).token();\n    }\n    function addToWhitelist(address _user) external onlyOwner {\n        usersWhitelist[_user] = true;\n        emit LogAddToWhitelist(_user);\n    }\n\n    function removeFromWhitelist(address _user) external onlyOwner {\n        usersWhitelist[_user] = false;\n        emit LogRemoveFromWhitelist(_user);\n    }\n\n    function setIsDecentralizedState(bool _isDecentralizedState) external onlyOwner{\n        isDecentralizedState = _isDecentralizedState;\n        emit LogUpdateIsDecentralizedState(isDecentralizedState);\n    }\n\n    /**\n     * @dev _amount arg should be in 18 decimals\n     * @dev when you deposit tokens, you are depositing _amount of Stablecoin and Token each\n     * @dev so, the total deposit is twice the _amount    \n     */\n    function depositTokens(uint256 _amount) external override nonReentrant whenNotPaused onlyWhitelistedIfNotDecentralized{\n        require(_amount != 0, \"wrapper-depositTokens/amount-zero\");\n        uint256 _amountScaled = _convertDecimals(_amount, 18, IToken(token).decimals());\n        require(IToken(token).balanceOf(msg.sender) >= _amountScaled, \"depositTokens/token-not-enough\");\n        require(IToken(stablecoin).balanceOf(msg.sender) >= _amount, \"depositTokens/FXD-not-enough\");\n        \n        _transferToTheContract(stablecoin, _amount);\n        _transferToTheContract(token, _amountScaled);\n\n        depositTracker[msg.sender] += 2 * _amount;\n        totalValueDeposited += 2 * _amount;\n        \n        _depositToStableSwap(stablecoin, _amount);\n        _depositToStableSwap(token, _amountScaled);\n        \n        emit LogDepositTokens(msg.sender, _amount);\n    }\n\n    /**\n     * @dev _amount arg should be in 18 decimals\n     * @dev when you withdraw tokens, you are withdrawing _amount of total tokens , ie half of stablecoin and half of token\n     * @dev please consider that the withdraw of each token is not exactly half but depends upon ratio of tokens in the stableswap\n     */\n    function withdrawTokens(uint256 _amount) external override nonReentrant whenNotPaused onlyWhitelistedIfNotDecentralized{\n        require(_amount != 0, \"withdrawTokens/amount-zero\");\n        require(depositTracker[msg.sender] >= _amount, \"withdrawTokens/amount-exceeds-users-deposit\");\n        require(totalValueDeposited >= _amount , \"withdrawTokens/amount-exceeds-total-deposit\");\n        \n        uint256 stablecoinBalanceStableSwap18Decimals = IStableSwapModule(stableSwapModule).tokenBalance(stablecoin);\n        uint256 tokenBalanceStableSwapScaled = IStableSwapModule(stableSwapModule).tokenBalance(token);\n        uint256 tokenBalanceStableSwap18Decimals = _convertDecimals(tokenBalanceStableSwapScaled, IToken(token).decimals(), 18);\n       \n        require(stablecoinBalanceStableSwap18Decimals + tokenBalanceStableSwap18Decimals >= _amount, \n                \"withdrawTokens/amount-exceed-total-balance-in-stableswap\");\n\n        uint256 stablecoinAmountToWithdraw = \n                    _amount * WAD * stablecoinBalanceStableSwap18Decimals\n                    /(stablecoinBalanceStableSwap18Decimals + tokenBalanceStableSwap18Decimals) \n                    / WAD;\n\n\n        uint256 tokenAmountToWithdraw = \n                    _amount * WAD * tokenBalanceStableSwap18Decimals\n                    /(stablecoinBalanceStableSwap18Decimals + tokenBalanceStableSwap18Decimals)\n                    /WAD;\n        \n\n        require(stablecoinAmountToWithdraw + tokenAmountToWithdraw <= _amount, \"withdrawTokens/total-amount-from-stableswap-exceeds-amount\");\n        uint256 tokenAmountToWithdrawScaled = _convertDecimals(tokenAmountToWithdraw, 18, IToken(token).decimals());\n        \n        _withdrawFromStableSwap(stablecoin, stablecoinAmountToWithdraw);\n        _withdrawFromStableSwap(token, tokenAmountToWithdrawScaled);\n\n        depositTracker[msg.sender] -= _amount;\n        totalValueDeposited -= _amount;\n\n        _transferToUser(stablecoin, stablecoinAmountToWithdraw);\n        _transferToUser(token, tokenAmountToWithdrawScaled);\n\n        emit LogWithdrawTokens(msg.sender, _amount);\n    }\n\n    function pause() external onlyOwnerOrGov {\n        _pause();\n        emit LogStableSwapWrapperPauseState(true);\n    }\n\n    function unpause() external onlyOwnerOrGov {\n        _unpause();\n        emit LogStableSwapWrapperPauseState(false);\n    }\n\n    function getAmounts(uint256 _amount) external override view returns(uint256, uint256) {\n        require(_amount != 0, \"getAmounts/amount-zero\");\n        require(depositTracker[msg.sender] >= _amount, \"getAmounts/amount-exceeds-users-deposit\");\n        require(totalValueDeposited >= _amount , \"getAmounts/amount-exceeds-total-deposit\");\n\n        uint256 stablecoinBalanceStableSwap18Decimals = IStableSwapModule(stableSwapModule).tokenBalance(stablecoin);\n        uint256 tokenBalanceStableSwapScaled = IStableSwapModule(stableSwapModule).tokenBalance(token);\n        uint256 tokenBalanceStableSwap18Decimals = _convertDecimals(tokenBalanceStableSwapScaled, IToken(token).decimals(), 18);\n       \n        uint256 stablecoinAmountToWithdraw = \n                    _amount * WAD * stablecoinBalanceStableSwap18Decimals\n                    /(stablecoinBalanceStableSwap18Decimals + tokenBalanceStableSwap18Decimals) \n                    / WAD;\n\n        uint256 tokenAmountToWithdraw = \n                    _amount * WAD * tokenBalanceStableSwap18Decimals\n                    /(stablecoinBalanceStableSwap18Decimals + tokenBalanceStableSwap18Decimals)\n                    /WAD;\n\n        return (stablecoinAmountToWithdraw, tokenAmountToWithdraw);\n    }\n\n    function getActualLiquidityAvailablePerUser(address account) external override view returns(uint256, uint256) {\n        uint256 _amount = depositTracker[account];\n        uint256 stablecoinBalanceStableSwap18Decimals = IStableSwapModule(stableSwapModule).tokenBalance(stablecoin);\n        uint256 tokenBalanceStableSwapScaled = IStableSwapModule(stableSwapModule).tokenBalance(token);\n        uint256 tokenBalanceStableSwap18Decimals = _convertDecimals(tokenBalanceStableSwapScaled, IToken(token).decimals(), 18);\n       \n        uint256 stablecoinAmountToWithdraw = \n                    _amount * WAD * stablecoinBalanceStableSwap18Decimals\n                    /(stablecoinBalanceStableSwap18Decimals + tokenBalanceStableSwap18Decimals) \n                    / WAD;\n\n        uint256 tokenAmountToWithdraw = \n                    _amount * WAD * tokenBalanceStableSwap18Decimals\n                    /(stablecoinBalanceStableSwap18Decimals + tokenBalanceStableSwap18Decimals)\n                    /WAD;\n\n        return (stablecoinAmountToWithdraw, tokenAmountToWithdraw);\n    }\n\n    function _depositToStableSwap(address _token, uint256 _amount) internal {\n        uint256 tokenBalanceBefore = _token.balanceOf(address(this));\n        _token.safeApprove(stableSwapModule, 0);\n        _token.safeApprove(stableSwapModule, _amount);\n        IStableSwapModule(stableSwapModule).depositToken(_token, _amount);\n        uint256 tokenBalanceAfter = _token.balanceOf(address(this));\n        require(tokenBalanceBefore -  tokenBalanceAfter == _amount, \"depositToStableSwap/amount-mismatch\");\n    }\n\n    function _withdrawFromStableSwap(address _token, uint256 _amount) internal {\n        uint256 tokenBalanceBefore = _token.balanceOf(address(this));\n        IStableSwapModule(stableSwapModule).withdrawToken(_token, _amount);\n        uint256 tokenBalanceAfter = _token.balanceOf(address(this));\n        require(tokenBalanceAfter - tokenBalanceBefore == _amount, \"withdrawFromStableSwap/amount-mismatch\");\n    }\n\n    function _transferToTheContract(address _token, uint256 _amount) internal {\n        _token.safeTransferFrom(msg.sender, address(this), _amount);\n    }\n    function _transferToUser(address _token, uint256 _amount) internal {\n        _token.safeTransfer(msg.sender, _amount);\n    }\n\n    function _convertDecimals(uint256 _amount, uint8 _fromDecimals, uint8 _toDecimals) internal pure returns (uint256 result) {\n        result = _toDecimals >= _fromDecimals ? _amount * (10 ** (_toDecimals - _fromDecimals)) : _amount / (10 ** (_fromDecimals - _toDecimals));\n    }\n}\n",
  "sourcePath": "/Users/sangjun.lee/Sangjun/fathom-stablecoin-smart-contracts/contracts/main/stablecoin-core/StableSwapModuleWrapper.sol",
  "compiler": {
    "name": "solc",
    "version": "0.8.17+commit.8df45f5f.Emscripten.clang"
  },
  "schemaVersion": "3.4.10",
  "updatedAt": "2023-05-31T09:39:57.614Z",
  "devdoc": {
    "kind": "dev",
    "methods": {
      "depositTokens(uint256)": {
        "details": "_amount arg should be in 18 decimalswhen you deposit tokens, you are depositing _amount of Stablecoin and Token eachso, the total deposit is twice the _amount    "
      },
      "paused()": {
        "details": "Returns true if the contract is paused, and false otherwise."
      },
      "withdrawTokens(uint256)": {
        "details": "_amount arg should be in 18 decimalswhen you withdraw tokens, you are withdrawing _amount of total tokens , ie half of stablecoin and half of tokenplease consider that the withdraw of each token is not exactly half but depends upon ratio of tokens in the stableswap"
      }
    },
    "version": 1
  },
  "userdoc": {
    "kind": "user",
    "methods": {},
    "version": 1
  }
}