{
    "contractName": "StableSwapModule",
    "abi": [
        {
            "anonymous": false,
            "inputs": [
                {
                    "indexed": false,
                    "internalType": "uint8",
                    "name": "version",
                    "type": "uint8"
                }
            ],
            "name": "Initialized",
            "type": "event"
        },
        {
            "anonymous": false,
            "inputs": [
                {
                    "indexed": false,
                    "internalType": "uint256",
                    "name": "_newDailySwapLimit",
                    "type": "uint256"
                },
                {
                    "indexed": false,
                    "internalType": "uint256",
                    "name": "_oldDailySwapLimit",
                    "type": "uint256"
                }
            ],
            "name": "LogDailySwapLimitUpdate",
            "type": "event"
        },
        {
            "anonymous": false,
            "inputs": [
                {
                    "indexed": true,
                    "internalType": "address",
                    "name": "_owner",
                    "type": "address"
                },
                {
                    "indexed": true,
                    "internalType": "address",
                    "name": "_token",
                    "type": "address"
                },
                {
                    "indexed": false,
                    "internalType": "uint256",
                    "name": "_value",
                    "type": "uint256"
                }
            ],
            "name": "LogDepositToken",
            "type": "event"
        },
        {
            "anonymous": false,
            "inputs": [
                {
                    "indexed": true,
                    "internalType": "address",
                    "name": "_account",
                    "type": "address"
                }
            ],
            "name": "LogEmergencyWithdraw",
            "type": "event"
        },
        {
            "anonymous": false,
            "inputs": [
                {
                    "indexed": false,
                    "internalType": "uint256",
                    "name": "_remainingDailySwapAmount",
                    "type": "uint256"
                }
            ],
            "name": "LogRemainingDailySwapAmount",
            "type": "event"
        },
        {
            "anonymous": false,
            "inputs": [
                {
                    "indexed": true,
                    "internalType": "address",
                    "name": "_caller",
                    "type": "address"
                },
                {
                    "indexed": false,
                    "internalType": "uint256",
                    "name": "_feeIn",
                    "type": "uint256"
                }
            ],
            "name": "LogSetFeeIn",
            "type": "event"
        },
        {
            "anonymous": false,
            "inputs": [
                {
                    "indexed": true,
                    "internalType": "address",
                    "name": "_caller",
                    "type": "address"
                },
                {
                    "indexed": false,
                    "internalType": "uint256",
                    "name": "_feeOut",
                    "type": "uint256"
                }
            ],
            "name": "LogSetFeeOut",
            "type": "event"
        },
        {
            "anonymous": false,
            "inputs": [
                {
                    "indexed": false,
                    "internalType": "bool",
                    "name": "_pauseState",
                    "type": "bool"
                }
            ],
            "name": "LogStableSwapPauseState",
            "type": "event"
        },
        {
            "anonymous": false,
            "inputs": [
                {
                    "indexed": true,
                    "internalType": "address",
                    "name": "_owner",
                    "type": "address"
                },
                {
                    "indexed": false,
                    "internalType": "uint256",
                    "name": "_value",
                    "type": "uint256"
                },
                {
                    "indexed": false,
                    "internalType": "uint256",
                    "name": "_fee",
                    "type": "uint256"
                }
            ],
            "name": "LogSwapStablecoinToToken",
            "type": "event"
        },
        {
            "anonymous": false,
            "inputs": [
                {
                    "indexed": true,
                    "internalType": "address",
                    "name": "_owner",
                    "type": "address"
                },
                {
                    "indexed": false,
                    "internalType": "uint256",
                    "name": "_value",
                    "type": "uint256"
                },
                {
                    "indexed": false,
                    "internalType": "uint256",
                    "name": "_fee",
                    "type": "uint256"
                }
            ],
            "name": "LogSwapTokenToStablecoin",
            "type": "event"
        },
        {
            "anonymous": false,
            "inputs": [
                {
                    "indexed": true,
                    "internalType": "address",
                    "name": "_account",
                    "type": "address"
                },
                {
                    "indexed": false,
                    "internalType": "uint256",
                    "name": "_fees",
                    "type": "uint256"
                }
            ],
            "name": "LogWithdrawFees",
            "type": "event"
        },
        {
            "anonymous": false,
            "inputs": [
                {
                    "indexed": false,
                    "internalType": "address",
                    "name": "account",
                    "type": "address"
                }
            ],
            "name": "Paused",
            "type": "event"
        },
        {
            "anonymous": false,
            "inputs": [
                {
                    "indexed": false,
                    "internalType": "address",
                    "name": "account",
                    "type": "address"
                }
            ],
            "name": "Unpaused",
            "type": "event"
        },
        {
            "inputs": [],
            "name": "MINIMUM_DAILY_SWAP_LIMIT",
            "outputs": [
                {
                    "internalType": "uint256",
                    "name": "",
                    "type": "uint256"
                }
            ],
            "stateMutability": "view",
            "type": "function"
        },
        {
            "inputs": [],
            "name": "ONE_DAY",
            "outputs": [
                {
                    "internalType": "uint256",
                    "name": "",
                    "type": "uint256"
                }
            ],
            "stateMutability": "view",
            "type": "function"
        },
        {
            "inputs": [],
            "name": "bookKeeper",
            "outputs": [
                {
                    "internalType": "contract IBookKeeper",
                    "name": "",
                    "type": "address"
                }
            ],
            "stateMutability": "view",
            "type": "function"
        },
        {
            "inputs": [],
            "name": "dailySwapLimit",
            "outputs": [
                {
                    "internalType": "uint256",
                    "name": "",
                    "type": "uint256"
                }
            ],
            "stateMutability": "view",
            "type": "function"
        },
        {
            "inputs": [],
            "name": "feeIn",
            "outputs": [
                {
                    "internalType": "uint256",
                    "name": "",
                    "type": "uint256"
                }
            ],
            "stateMutability": "view",
            "type": "function"
        },
        {
            "inputs": [],
            "name": "feeOut",
            "outputs": [
                {
                    "internalType": "uint256",
                    "name": "",
                    "type": "uint256"
                }
            ],
            "stateMutability": "view",
            "type": "function"
        },
        {
            "inputs": [],
            "name": "lastUpdate",
            "outputs": [
                {
                    "internalType": "uint256",
                    "name": "",
                    "type": "uint256"
                }
            ],
            "stateMutability": "view",
            "type": "function"
        },
        {
            "inputs": [],
            "name": "paused",
            "outputs": [
                {
                    "internalType": "bool",
                    "name": "",
                    "type": "bool"
                }
            ],
            "stateMutability": "view",
            "type": "function"
        },
        {
            "inputs": [],
            "name": "remainingDailySwapAmount",
            "outputs": [
                {
                    "internalType": "uint256",
                    "name": "",
                    "type": "uint256"
                }
            ],
            "stateMutability": "view",
            "type": "function"
        },
        {
            "inputs": [],
            "name": "stablecoin",
            "outputs": [
                {
                    "internalType": "contract IStablecoin",
                    "name": "",
                    "type": "address"
                }
            ],
            "stateMutability": "view",
            "type": "function"
        },
        {
            "inputs": [],
            "name": "token",
            "outputs": [
                {
                    "internalType": "address",
                    "name": "",
                    "type": "address"
                }
            ],
            "stateMutability": "view",
            "type": "function"
        },
        {
            "inputs": [
                {
                    "internalType": "address",
                    "name": "",
                    "type": "address"
                }
            ],
            "name": "tokenBalance",
            "outputs": [
                {
                    "internalType": "uint256",
                    "name": "",
                    "type": "uint256"
                }
            ],
            "stateMutability": "view",
            "type": "function"
        },
        {
            "inputs": [],
            "name": "totalFeeBalance",
            "outputs": [
                {
                    "internalType": "uint256",
                    "name": "",
                    "type": "uint256"
                }
            ],
            "stateMutability": "view",
            "type": "function"
        },
        {
            "inputs": [
                {
                    "internalType": "address",
                    "name": "_bookKeeper",
                    "type": "address"
                },
                {
                    "internalType": "address",
                    "name": "_token",
                    "type": "address"
                },
                {
                    "internalType": "address",
                    "name": "_stablecoin",
                    "type": "address"
                },
                {
                    "internalType": "uint256",
                    "name": "_dailySwapLimit",
                    "type": "uint256"
                }
            ],
            "name": "initialize",
            "outputs": [],
            "stateMutability": "nonpayable",
            "type": "function"
        },
        {
            "inputs": [
                {
                    "internalType": "uint256",
                    "name": "newdailySwapLimit",
                    "type": "uint256"
                }
            ],
            "name": "setDailySwapLimit",
            "outputs": [],
            "stateMutability": "nonpayable",
            "type": "function"
        },
        {
            "inputs": [
                {
                    "internalType": "uint256",
                    "name": "_feeIn",
                    "type": "uint256"
                }
            ],
            "name": "setFeeIn",
            "outputs": [],
            "stateMutability": "nonpayable",
            "type": "function"
        },
        {
            "inputs": [
                {
                    "internalType": "uint256",
                    "name": "_feeOut",
                    "type": "uint256"
                }
            ],
            "name": "setFeeOut",
            "outputs": [],
            "stateMutability": "nonpayable",
            "type": "function"
        },
        {
            "inputs": [
                {
                    "internalType": "address",
                    "name": "_usr",
                    "type": "address"
                },
                {
                    "internalType": "uint256",
                    "name": "_tokenAmount",
                    "type": "uint256"
                }
            ],
            "name": "swapTokenToStablecoin",
            "outputs": [],
            "stateMutability": "nonpayable",
            "type": "function"
        },
        {
            "inputs": [
                {
                    "internalType": "address",
                    "name": "_usr",
                    "type": "address"
                },
                {
                    "internalType": "uint256",
                    "name": "_tokenAmount",
                    "type": "uint256"
                }
            ],
            "name": "swapStablecoinToToken",
            "outputs": [],
            "stateMutability": "nonpayable",
            "type": "function"
        },
        {
            "inputs": [
                {
                    "internalType": "address",
                    "name": "_token",
                    "type": "address"
                },
                {
                    "internalType": "uint256",
                    "name": "_amount",
                    "type": "uint256"
                }
            ],
            "name": "depositToken",
            "outputs": [],
            "stateMutability": "nonpayable",
            "type": "function"
        },
        {
            "inputs": [
                {
                    "internalType": "address",
                    "name": "_account",
                    "type": "address"
                }
            ],
            "name": "withdrawFees",
            "outputs": [],
            "stateMutability": "nonpayable",
            "type": "function"
        },
        {
            "inputs": [],
            "name": "pause",
            "outputs": [],
            "stateMutability": "nonpayable",
            "type": "function"
        },
        {
            "inputs": [],
            "name": "unpause",
            "outputs": [],
            "stateMutability": "nonpayable",
            "type": "function"
        },
        {
            "inputs": [
                {
                    "internalType": "address",
                    "name": "_account",
                    "type": "address"
                }
            ],
            "name": "emergencyWithdraw",
            "outputs": [],
            "stateMutability": "nonpayable",
            "type": "function"
        }
    ],
    "bytecode": "0x608060405234801561001057600080fd5b506128ac806100206000396000f3fe608060405234801561001057600080fd5b50600436106101585760003560e01c8063769a48d9116100c3578063cf756fdf1161007c578063cf756fdf14610277578063e35cc69b1461028a578063e3b3932a14610293578063e9cbd822146102be578063eedc966a146102d1578063fc0c546a146102f157600080fd5b8063769a48d91461023757806381e28cc7146102405780638456cb5914610253578063863e76db1461025b578063a21c1c8f14610265578063c04637111461026e57600080fd5b80633f4ba83a116101155780633f4ba83a146101cd57806340853dce146101d557806342e8a972146101e857806355725d41146101fb5780635c975abb1461020e5780636ff1c9bc1461022457600080fd5b80630696819f1461015d5780630c5ce3ae14610179578063164e68de14610182578063231d3bc114610197578063338b5dea146101a75780633cdabd9c146101ba575b600080fd5b610166609d5481565b6040519081526020015b60405180910390f35b61016660a15481565b61019561019036600461249e565b610304565b005b610166683635c9adc5dea0000081565b6101956101b53660046124c2565b61066f565b6101956101c83660046124ee565b6109d5565b610195610ba4565b6101956101e33660046124c2565b610e24565b6101956101f63660046124ee565b611065565b6101956102093660046124ee565b61125f565b60335460ff166040519015158152602001610170565b61019561023236600461249e565b611451565b610166609c5481565b61019561024e3660046124c2565b6117aa565b6101956119d5565b6101666201518081565b610166609f5481565b610166609e5481565b610195610285366004612507565b611c4e565b61016660a05481565b6097546102a6906001600160a01b031681565b6040516001600160a01b039091168152602001610170565b6098546102a6906001600160a01b031681565b6101666102df36600461249e565b609b6020526000908152604090205481565b6099546102a6906001600160a01b031681565b61030c611e86565b6097546040805163c8cc243f60e01b815290516000926001600160a01b03169163c8cc243f9160048083019260209291908290030181865afa158015610356573d6000803e3d6000fd5b505050506040513d601f19601f8201168201806040525081019061037a9190612558565b9050806001600160a01b03166391d14854826001600160a01b031663e58378bb6040518163ffffffff1660e01b8152600401602060405180830381865afa1580156103c9573d6000803e3d6000fd5b505050506040513d601f19601f820116820180604052508101906103ed9190612575565b6040516001600160e01b031960e084901b1681526004810191909152336024820152604401602060405180830381865afa15801561042f573d6000803e3d6000fd5b505050506040513d601f19601f82011682018060405250810190610453919061258e565b806105305750806001600160a01b03166391d14854826001600160a01b031663b536818a6040518163ffffffff1660e01b8152600401602060405180830381865afa1580156104a6573d6000803e3d6000fd5b505050506040513d601f19601f820116820180604052508101906104ca9190612575565b6040516001600160e01b031960e084901b1681526004810191909152336024820152604401602060405180830381865afa15801561050c573d6000803e3d6000fd5b505050506040513d601f19601f82011682018060405250810190610530919061258e565b6105555760405162461bcd60e51b815260040161054c906125b0565b60405180910390fd5b6001600160a01b0382166105ab5760405162461bcd60e51b815260206004820152601a60248201527f7769746864726177466565732f656d7074792d6163636f756e74000000000000604482015260640161054c565b60a1546000036105fd5760405162461bcd60e51b815260206004820152601b60248201527f7769746864726177466565732f6e6f2d6665652d62616c616e63650000000000604482015260640161054c565b60a18054600090915560985461061d906001600160a01b03168483611edf565b826001600160a01b03167fbe641c3ffc44b2d6c184f023fa4ed7bda4b6ffa71e03b3c98ae0c776da1f17e78260405161065891815260200190565b60405180910390a2505061066c6001606555565b50565b610677611e86565b61067f611fea565b6097546040805163c8cc243f60e01b815290516000926001600160a01b03169163c8cc243f9160048083019260209291908290030181865afa1580156106c9573d6000803e3d6000fd5b505050506040513d601f19601f820116820180604052508101906106ed9190612558565b9050806001600160a01b03166391d14854826001600160a01b031663e58378bb6040518163ffffffff1660e01b8152600401602060405180830381865afa15801561073c573d6000803e3d6000fd5b505050506040513d601f19601f820116820180604052508101906107609190612575565b6040516001600160e01b031960e084901b1681526004810191909152336024820152604401602060405180830381865afa1580156107a2573d6000803e3d6000fd5b505050506040513d601f19601f820116820180604052508101906107c6919061258e565b806108a35750806001600160a01b03166391d14854826001600160a01b031663b536818a6040518163ffffffff1660e01b8152600401602060405180830381865afa158015610819573d6000803e3d6000fd5b505050506040513d601f19601f8201168201806040525081019061083d9190612575565b6040516001600160e01b031960e084901b1681526004810191909152336024820152604401602060405180830381865afa15801561087f573d6000803e3d6000fd5b505050506040513d601f19601f820116820180604052508101906108a3919061258e565b6108bf5760405162461bcd60e51b815260040161054c906125b0565b816108d36001600160a01b03851633612032565b10156109395760405162461bcd60e51b815260206004820152602f60248201527f6465706f736974537461626c65636f696e2f6e6f742d656e6f7567682d73746160448201526e626c65636f696e2d62616c616e636560881b606482015260840161054c565b6098546001600160a01b03166000908152609b602052604090205461095e90836120a9565b6001600160a01b0384166000818152609b6020526040902091909155610986903330856120c4565b6040518281526001600160a01b0384169033907fb024cc5591038c18f7e2348d474092b453a32212dd1ebcc0370c4ac2e42cce439060200160405180910390a3506109d16001606555565b5050565b6097546040805163c8cc243f60e01b815290516000926001600160a01b03169163c8cc243f9160048083019260209291908290030181865afa158015610a1f573d6000803e3d6000fd5b505050506040513d601f19601f82011682018060405250810190610a439190612558565b9050806001600160a01b03166391d14854826001600160a01b031663e58378bb6040518163ffffffff1660e01b8152600401602060405180830381865afa158015610a92573d6000803e3d6000fd5b505050506040513d601f19601f82011682018060405250810190610ab69190612575565b6040516001600160e01b031960e084901b1681526004810191909152336024820152604401602060405180830381865afa158015610af8573d6000803e3d6000fd5b505050506040513d601f19601f82011682018060405250810190610b1c919061258e565b610b385760405162461bcd60e51b815260040161054c906125e7565b683635c9adc5dea00000821015610b615760405162461bcd60e51b815260040161054c9061260b565b60a0546040805184815260208101929092527f91fc53b44c6fd2d041f17f6121e3caacab265cf4b02f97d3fc6e2bc0c9d1ffe7910160405180910390a15060a055565b6097546040805163c8cc243f60e01b815290516000926001600160a01b03169163c8cc243f9160048083019260209291908290030181865afa158015610bee573d6000803e3d6000fd5b505050506040513d601f19601f82011682018060405250810190610c129190612558565b9050806001600160a01b03166391d14854826001600160a01b031663e58378bb6040518163ffffffff1660e01b8152600401602060405180830381865afa158015610c61573d6000803e3d6000fd5b505050506040513d601f19601f82011682018060405250810190610c859190612575565b6040516001600160e01b031960e084901b1681526004810191909152336024820152604401602060405180830381865afa158015610cc7573d6000803e3d6000fd5b505050506040513d601f19601f82011682018060405250810190610ceb919061258e565b80610dc85750806001600160a01b03166391d14854826001600160a01b031663b536818a6040518163ffffffff1660e01b8152600401602060405180830381865afa158015610d3e573d6000803e3d6000fd5b505050506040513d601f19601f82011682018060405250810190610d629190612575565b6040516001600160e01b031960e084901b1681526004810191909152336024820152604401602060405180830381865afa158015610da4573d6000803e3d6000fd5b505050506040513d601f19601f82011682018060405250810190610dc8919061258e565b610de45760405162461bcd60e51b815260040161054c906125b0565b610dec6121dc565b604051600081527fcdd780009e0ca26d4eb3c3ec7a679e3b2581bfb5b6f89856108a50f5b1fa2bcb906020015b60405180910390a150565b610e2c611e86565b610e34611fea565b80600003610e845760405162461bcd60e51b815260206004820152601c60248201527f537461626c65537761704d6f64756c652f616d6f756e742d7a65726f00000000604482015260640161054c565b6000610e9282609a5461222e565b90506000670de0b6b3a7640000610eab83609c5461222e565b610eb5919061266e565b90506000610ec3838361225b565b6098546001600160a01b03166000908152609b6020526040902054909150811115610f4c5760405162461bcd60e51b815260206004820152603360248201527f73776170546f6b656e546f537461626c65636f696e2f6e6f742d656e6f7567686044820152722d737461626c65636f696e2d62616c616e636560681b606482015260840161054c565b610f5584612276565b6098546001600160a01b03166000908152609b6020526040902054610f7a908261225b565b6098546001600160a01b039081166000908152609b60205260408082209390935560995490911681522054610faf90856120a9565b6099546001600160a01b03166000908152609b602052604081209190915560a18054849290610fdf908490612690565b9091555050609954610ffc906001600160a01b03163330876120c4565b609854611013906001600160a01b03168683611edf565b60408051858152602081018490526001600160a01b038716917febeefb54ae6b697f8f7b14ec942871ef2fc051ec90c2a221007e5a5702a4d7f291015b60405180910390a25050506109d16001606555565b6097546040805163c8cc243f60e01b815290516000926001600160a01b03169163c8cc243f9160048083019260209291908290030181865afa1580156110af573d6000803e3d6000fd5b505050506040513d601f19601f820116820180604052508101906110d39190612558565b9050806001600160a01b03166391d14854826001600160a01b031663e58378bb6040518163ffffffff1660e01b8152600401602060405180830381865afa158015611122573d6000803e3d6000fd5b505050506040513d601f19601f820116820180604052508101906111469190612575565b6040516001600160e01b031960e084901b1681526004810191909152336024820152604401602060405180830381865afa158015611188573d6000803e3d6000fd5b505050506040513d601f19601f820116820180604052508101906111ac919061258e565b6111c85760405162461bcd60e51b815260040161054c906125e7565b6706f05b59d3b200008211156112205760405162461bcd60e51b815260206004820181905260248201527f537461626c65537761704d6f64756c652f696e76616c69642d6665652d6f7574604482015260640161054c565b609d82905560405182815233907fca068f6ffd884c8217e477778ef3821efcb5e96690cff9e680c7dbd077d1d1bd906020015b60405180910390a25050565b6097546040805163c8cc243f60e01b815290516000926001600160a01b03169163c8cc243f9160048083019260209291908290030181865afa1580156112a9573d6000803e3d6000fd5b505050506040513d601f19601f820116820180604052508101906112cd9190612558565b9050806001600160a01b03166391d14854826001600160a01b031663e58378bb6040518163ffffffff1660e01b8152600401602060405180830381865afa15801561131c573d6000803e3d6000fd5b505050506040513d601f19601f820116820180604052508101906113409190612575565b6040516001600160e01b031960e084901b1681526004810191909152336024820152604401602060405180830381865afa158015611382573d6000803e3d6000fd5b505050506040513d601f19601f820116820180604052508101906113a6919061258e565b6113c25760405162461bcd60e51b815260040161054c906125e7565b6706f05b59d3b2000082111561141a5760405162461bcd60e51b815260206004820152601f60248201527f537461626c65537761704d6f64756c652f696e76616c69642d6665652d696e00604482015260640161054c565b609c82905560405182815233907f761b3141cbb42e607f4e550cf06b417f5d0fe476ee4fb6b9fbb34c4ae134b81390602001611253565b611459611e86565b6097546040805163c8cc243f60e01b815290516000926001600160a01b03169163c8cc243f9160048083019260209291908290030181865afa1580156114a3573d6000803e3d6000fd5b505050506040513d601f19601f820116820180604052508101906114c79190612558565b9050806001600160a01b03166391d14854826001600160a01b031663e58378bb6040518163ffffffff1660e01b8152600401602060405180830381865afa158015611516573d6000803e3d6000fd5b505050506040513d601f19601f8201168201806040525081019061153a9190612575565b6040516001600160e01b031960e084901b1681526004810191909152336024820152604401602060405180830381865afa15801561157c573d6000803e3d6000fd5b505050506040513d601f19601f820116820180604052508101906115a0919061258e565b8061167d5750806001600160a01b03166391d14854826001600160a01b031663b536818a6040518163ffffffff1660e01b8152600401602060405180830381865afa1580156115f3573d6000803e3d6000fd5b505050506040513d601f19601f820116820180604052508101906116179190612575565b6040516001600160e01b031960e084901b1681526004810191909152336024820152604401602060405180830381865afa158015611659573d6000803e3d6000fd5b505050506040513d601f19601f8201168201806040525081019061167d919061258e565b6116995760405162461bcd60e51b815260040161054c906125b0565b60335460ff166116eb5760405162461bcd60e51b815260206004820152601c60248201527f656d657267656e637957697468647261772f6e6f742d70617573656400000000604482015260640161054c565b609980546001600160a01b039081166000908152609b602052604080822082905560985483168252812055905461173c918491611729911630612032565b6099546001600160a01b03169190611edf565b60985461176b908390611758906001600160a01b031630612032565b6098546001600160a01b03169190611edf565b6040516001600160a01b038316907f66b4c12417b17d45e180a77a43b566ff7cdec1cc047789840043d696de3acb4890600090a25061066c6001606555565b6117b2611e86565b6117ba611fea565b8060000361180a5760405162461bcd60e51b815260206004820152601c60248201527f537461626c65537761704d6f64756c652f616d6f756e742d7a65726f00000000604482015260640161054c565b600061181882609a5461222e565b90506000670de0b6b3a764000061183183609d5461222e565b61183b919061266e565b9050600061184983836120a9565b6099546001600160a01b03166000908152609b60205260409020549091508411156118cd5760405162461bcd60e51b815260206004820152602e60248201527f73776170537461626c65636f696e546f546f6b656e2f6e6f742d656e6f75676860448201526d2d746f6b656e2d62616c616e636560901b606482015260840161054c565b6118d684612276565b6099546001600160a01b03166000908152609b60205260409020546118fb908561225b565b6099546001600160a01b039081166000908152609b6020526040808220939093556098549091168152205461193090826120a9565b6098546001600160a01b03166000908152609b602052604081209190915560a18054849290611960908490612690565b909155505060985461197d906001600160a01b03163330846120c4565b609954611994906001600160a01b03168686611edf565b60408051858152602081018490526001600160a01b038716917f19db3e213473ea73ae4b6c76a26cbcb2a43d954d78caca305d507dec79b24e829101611050565b6097546040805163c8cc243f60e01b815290516000926001600160a01b03169163c8cc243f9160048083019260209291908290030181865afa158015611a1f573d6000803e3d6000fd5b505050506040513d601f19601f82011682018060405250810190611a439190612558565b9050806001600160a01b03166391d14854826001600160a01b031663e58378bb6040518163ffffffff1660e01b8152600401602060405180830381865afa158015611a92573d6000803e3d6000fd5b505050506040513d601f19601f82011682018060405250810190611ab69190612575565b6040516001600160e01b031960e084901b1681526004810191909152336024820152604401602060405180830381865afa158015611af8573d6000803e3d6000fd5b505050506040513d601f19601f82011682018060405250810190611b1c919061258e565b80611bf95750806001600160a01b03166391d14854826001600160a01b031663b536818a6040518163ffffffff1660e01b8152600401602060405180830381865afa158015611b6f573d6000803e3d6000fd5b505050506040513d601f19601f82011682018060405250810190611b939190612575565b6040516001600160e01b031960e084901b1681526004810191909152336024820152604401602060405180830381865afa158015611bd5573d6000803e3d6000fd5b505050506040513d601f19601f82011682018060405250810190611bf9919061258e565b611c155760405162461bcd60e51b815260040161054c906125b0565b611c1d61234b565b604051600181527fcdd780009e0ca26d4eb3c3ec7a679e3b2581bfb5b6f89856108a50f5b1fa2bcb90602001610e19565b600054610100900460ff1615808015611c6e5750600054600160ff909116105b80611c885750303b158015611c88575060005460ff166001145b611ceb5760405162461bcd60e51b815260206004820152602e60248201527f496e697469616c697a61626c653a20636f6e747261637420697320616c72656160448201526d191e481a5b9a5d1a585b1a5e995960921b606482015260840161054c565b6000805460ff191660011790558015611d0e576000805461ff0019166101001790555b611d16612388565b611d1e6123b7565b683635c9adc5dea00000821015611d475760405162461bcd60e51b815260040161054c9061260b565b609780546001600160a01b038088166001600160a01b031992831617909255609880548684169083168117909155609980549388169390921692909217905560a08390556040805163313ce56760e01b8152905163313ce567916004808201926020929091908290030181865afa158015611dc6573d6000803e3d6000fd5b505050506040513d601f19601f82011682018060405250810190611dea91906126a3565b611df59060126126c6565b611e0090600a6127c3565b609a5560a0546040519081527f3ba6536311b1b8c63364031768ec0197123478d2fc4b4c54f710b85c32c12b319060200160405180910390a18015611e7f576000805461ff0019169055604051600181527f7f26b83ff96e1f2b6a682f133852f6798a09c465da95921460cefb38474024989060200160405180910390a15b5050505050565b600260655403611ed85760405162461bcd60e51b815260206004820152601f60248201527f5265656e7472616e637947756172643a207265656e7472616e742063616c6c00604482015260640161054c565b6002606555565b604080516001600160a01b038481166024830152604480830185905283518084039091018152606490920183526020820180516001600160e01b031663a9059cbb60e01b1790529151600092839290871691611f3b91906127d2565b6000604051808303816000865af19150503d8060008114611f78576040519150601f19603f3d011682016040523d82523d6000602084013e611f7d565b606091505b5091509150818015611fa7575080511580611fa7575080806020019051810190611fa7919061258e565b611e7f5760405162461bcd60e51b815260206004820152600d60248201526c10b9b0b332aa3930b739b332b960991b604482015260640161054c565b6001606555565b60335460ff16156120305760405162461bcd60e51b815260206004820152601060248201526f14185d5cd8589b194e881c185d5cd95960821b604482015260640161054c565b565b6040516370a0823160e01b81526001600160a01b038281166004830152600091908416906370a0823190602401602060405180830381865afa15801561207c573d6000803e3d6000fd5b505050506040513d601f19601f820116820180604052508101906120a09190612575565b90505b92915050565b6000826120b68382612690565b91508110156120a357600080fd5b604080516001600160a01b0385811660248301528481166044830152606480830185905283518084039091018152608490920183526020820180516001600160e01b03166323b872dd60e01b179052915160009283929088169161212891906127d2565b6000604051808303816000865af19150503d8060008114612165576040519150601f19603f3d011682016040523d82523d6000602084013e61216a565b606091505b5091509150818015612194575080511580612194575080806020019051810190612194919061258e565b6121d45760405162461bcd60e51b815260206004820152601160248201527021736166655472616e7366657246726f6d60781b604482015260640161054c565b505050505050565b6121e46123e6565b6033805460ff191690557f5db9ee0a495bf2e6ff9c91a7834c1ba4fdd244a5e8aa4e537bd38aeae4b073aa335b6040516001600160a01b03909116815260200160405180910390a1565b6000811580612252575082826122448183612801565b9250612250908361266e565b145b6120a357600080fd5b6000826122688382612818565b91508111156120a357600080fd5b62015180609e54426122889190612818565b106122985742609e5560a054609f555b80609f5410156123015760405162461bcd60e51b815260206004820152602e60248201527f5f756470617465416e64436865636b4461696c794c696d69742f6461696c792d60448201526d1b1a5b5a5d0b595e18d95959195960921b606482015260840161054c565b80609f60008282546123139190612818565b9091555050609f546040519081527f3ba6536311b1b8c63364031768ec0197123478d2fc4b4c54f710b85c32c12b3190602001610e19565b612353611fea565b6033805460ff191660011790557f62e78cea01bee320cd4e420270b5ea74000d11b0c9f74754ebdbfc544b05a2586122113390565b600054610100900460ff166123af5760405162461bcd60e51b815260040161054c9061282b565b61203061242f565b600054610100900460ff166123de5760405162461bcd60e51b815260040161054c9061282b565b612030612462565b60335460ff166120305760405162461bcd60e51b815260206004820152601460248201527314185d5cd8589b194e881b9bdd081c185d5cd95960621b604482015260640161054c565b600054610100900460ff166124565760405162461bcd60e51b815260040161054c9061282b565b6033805460ff19169055565b600054610100900460ff16611fe35760405162461bcd60e51b815260040161054c9061282b565b6001600160a01b038116811461066c57600080fd5b6000602082840312156124b057600080fd5b81356124bb81612489565b9392505050565b600080604083850312156124d557600080fd5b82356124e081612489565b946020939093013593505050565b60006020828403121561250057600080fd5b5035919050565b6000806000806080858703121561251d57600080fd5b843561252881612489565b9350602085013561253881612489565b9250604085013561254881612489565b9396929550929360600135925050565b60006020828403121561256a57600080fd5b81516124bb81612489565b60006020828403121561258757600080fd5b5051919050565b6000602082840312156125a057600080fd5b815180151581146124bb57600080fd5b60208082526017908201527f21286f776e6572526f6c65206f7220676f76526f6c6529000000000000000000604082015260600190565b6020808252600a9082015269216f776e6572526f6c6560b01b604082015260600190565b6020808252602d908201527f696e697469616c697a652f6c6573732d7468616e2d6d696e696d756d2d64616960408201526c1b1e4b5cddd85c0b5b1a5b5a5d609a1b606082015260800190565b634e487b7160e01b600052601160045260246000fd5b60008261268b57634e487b7160e01b600052601260045260246000fd5b500490565b808201808211156120a3576120a3612658565b6000602082840312156126b557600080fd5b815160ff811681146124bb57600080fd5b60ff82811682821603908111156120a3576120a3612658565b600181815b8085111561271a57816000190482111561270057612700612658565b8085161561270d57918102915b93841c93908002906126e4565b509250929050565b600082612731575060016120a3565b8161273e575060006120a3565b8160018114612754576002811461275e5761277a565b60019150506120a3565b60ff84111561276f5761276f612658565b50506001821b6120a3565b5060208310610133831016604e8410600b841016171561279d575081810a6120a3565b6127a783836126df565b80600019048211156127bb576127bb612658565b029392505050565b60006120a060ff841683612722565b6000825160005b818110156127f357602081860181015185830152016127d9565b506000920191825250919050565b80820281158282048414176120a3576120a3612658565b818103818111156120a3576120a3612658565b6020808252602b908201527f496e697469616c697a61626c653a20636f6e7472616374206973206e6f74206960408201526a6e697469616c697a696e6760a81b60608201526080019056fea264697066735822122057918c0259552f530e4ee204901bfe4fa09a000c9516ee10f013b920bc8c7e5964736f6c63430008110033",
    "immutableReferences": {},
    "source": "// SPDX-License-Identifier: AGPL-3.0-or-later\npragma solidity 0.8.17;\n\nimport \"@openzeppelin/contracts-upgradeable/access/OwnableUpgradeable.sol\";\nimport \"@openzeppelin/contracts-upgradeable/security/PausableUpgradeable.sol\";\nimport \"@openzeppelin/contracts-upgradeable/access/AccessControlUpgradeable.sol\";\nimport \"@openzeppelin/contracts-upgradeable/security/ReentrancyGuardUpgradeable.sol\";\n\nimport \"../interfaces/IStablecoinAdapter.sol\";\nimport \"../interfaces/IStablecoin.sol\";\nimport \"../interfaces/IBookKeeper.sol\";\nimport \"../interfaces/IAuthTokenAdapter.sol\";\nimport \"../interfaces/IStableSwapModule.sol\";\nimport \"../utils/SafeToken.sol\";\n\n// Stable Swap Module\n// Allows anyone to go between FUSD and the Token by pooling the liquidity\n// An optional fee is charged for incoming and outgoing transfers\ncontract StableSwapModule is PausableUpgradeable, ReentrancyGuardUpgradeable, IStableSwapModule {\n    using SafeToken for address;\n\n    IBookKeeper public bookKeeper;\n    IStablecoin public stablecoin;\n    address public token;\n    \n    uint256 internal to18ConversionFactor;\n    mapping(address => uint256) public tokenBalance;\n\n    uint256 public feeIn; // fee in [wad]\n    uint256 public feeOut; // fee out [wad]\n    uint256 public lastUpdate;\n\n    uint256 public remainingDailySwapAmount;\n    uint256 public dailySwapLimit;\n\n    uint256 public totalFeeBalance;\n\n    uint256 public constant ONE_DAY = 86400;\n    uint256 public constant MINIMUM_DAILY_SWAP_LIMIT = 1000*1e18;\n\n\n    event LogSetFeeIn(address indexed _caller, uint256 _feeIn);\n    event LogSetFeeOut(address indexed _caller, uint256 _feeOut);\n    event LogSwapTokenToStablecoin(address indexed _owner, uint256 _value, uint256 _fee);\n    event LogSwapStablecoinToToken(address indexed _owner, uint256 _value, uint256 _fee);\n    event LogDailySwapLimitUpdate(uint256 _newDailySwapLimit, uint256 _oldDailySwapLimit);\n    event LogDepositToken(address indexed _owner, address indexed _token, uint256 _value);\n    event LogWithdrawFees(address indexed _account, uint256 _fees);\n    event LogRemainingDailySwapAmount(uint256 _remainingDailySwapAmount);\n    event LogStableSwapPauseState(bool _pauseState);\n    event LogEmergencyWithdraw(address indexed _account);\n\n    modifier onlyOwner() {\n        IAccessControlConfig _accessControlConfig = IAccessControlConfig(bookKeeper.accessControlConfig());\n        require(_accessControlConfig.hasRole(_accessControlConfig.OWNER_ROLE(), msg.sender), \"!ownerRole\");\n        _;\n    }\n\n    modifier onlyOwnerOrGov() {\n        IAccessControlConfig _accessControlConfig = IAccessControlConfig(IBookKeeper(bookKeeper).accessControlConfig());\n        require(\n            _accessControlConfig.hasRole(_accessControlConfig.OWNER_ROLE(), msg.sender) ||\n                _accessControlConfig.hasRole(_accessControlConfig.GOV_ROLE(), msg.sender),\n            \"!(ownerRole or govRole)\"\n        );\n        _;\n    }\n\n    function initialize(address _bookKeeper,address _token, address _stablecoin, uint256 _dailySwapLimit) external initializer {\n        PausableUpgradeable.__Pausable_init();\n        ReentrancyGuardUpgradeable.__ReentrancyGuard_init();\n        require(_dailySwapLimit >= MINIMUM_DAILY_SWAP_LIMIT,\"initialize/less-than-minimum-daily-swap-limit\");\n        bookKeeper = IBookKeeper(_bookKeeper);\n        stablecoin = IStablecoin(_stablecoin);\n        token = _token;\n        dailySwapLimit = _dailySwapLimit;\n        to18ConversionFactor = 10 ** (18 - stablecoin.decimals());\n        emit LogRemainingDailySwapAmount(dailySwapLimit);\n    }\n\n    uint256 constant WAD = 10 ** 18;\n    uint256 constant RAY = 10 ** 27;\n\n    function add(uint256 _x, uint256 _y) internal pure returns (uint256 _z) {\n        require((_z = _x + _y) >= _x);\n    }\n\n    function sub(uint256 _x, uint256 _y) internal pure returns (uint256 _z) {\n        require((_z = _x - _y) <= _x);\n    }\n\n    function mul(uint256 _x, uint256 _y) internal pure returns (uint256 _z) {\n        require(_y == 0 || (_z = _x * _y) / _y == _x);\n    }\n\n    function setDailySwapLimit(uint256 newdailySwapLimit) external onlyOwner {\n        require(newdailySwapLimit >= MINIMUM_DAILY_SWAP_LIMIT,\"initialize/less-than-minimum-daily-swap-limit\");\n        emit LogDailySwapLimitUpdate(newdailySwapLimit, dailySwapLimit);\n        dailySwapLimit = newdailySwapLimit;\n    }\n\n    function setFeeIn(uint256 _feeIn) external onlyOwner {\n        require(_feeIn <= 5 * 1e17, \"StableSwapModule/invalid-fee-in\"); // Max feeIn is 0.5 Ethers or 50%\n        feeIn = _feeIn;\n        emit LogSetFeeIn(msg.sender, _feeIn);\n    }\n\n    function setFeeOut(uint256 _feeOut) external onlyOwner {\n        require(_feeOut <= 5 * 1e17, \"StableSwapModule/invalid-fee-out\"); // Max feeOut is 0.5 Ethers or 50%\n        feeOut = _feeOut;\n        emit LogSetFeeOut(msg.sender, _feeOut);\n    }\n\n    \n    function swapTokenToStablecoin(address _usr,uint256 _tokenAmount) external override nonReentrant whenNotPaused {\n        require(_tokenAmount != 0, \"StableSwapModule/amount-zero\");\n        \n        uint256 _tokenAmount18 = mul(_tokenAmount, to18ConversionFactor);\n        uint256 _fee = mul(_tokenAmount18, feeIn) / WAD;\n        uint256 _stablecoinAmount = sub(_tokenAmount18, _fee);\n        \n        require(tokenBalance[address(stablecoin)] >= _stablecoinAmount, \"swapTokenToStablecoin/not-enough-stablecoin-balance\");\n        \n        _udpateAndCheckDailyLimit(_tokenAmount);\n        \n        tokenBalance[address(stablecoin)] = sub(tokenBalance[address(stablecoin)], _stablecoinAmount);\n        tokenBalance[address(token)] = add(tokenBalance[address(token)], _tokenAmount);\n        totalFeeBalance += _fee;\n        \n        token.safeTransferFrom(msg.sender, address(this), _tokenAmount);\n        address(stablecoin).safeTransfer(_usr, _stablecoinAmount);\n        emit LogSwapTokenToStablecoin(_usr, _tokenAmount, _fee);\n    }\n    \n\n    function swapStablecoinToToken(address _usr,uint256 _tokenAmount) external override nonReentrant whenNotPaused {\n        require(_tokenAmount != 0, \"StableSwapModule/amount-zero\");\n        uint256 _tokenAmount18 = mul(_tokenAmount, to18ConversionFactor);\n        uint256 _fee = mul(_tokenAmount18, feeOut) / WAD;\n        uint256 _stablecoinAmount = add(_tokenAmount18, _fee);\n        \n        require(tokenBalance[address(token)] >= _tokenAmount,\"swapStablecoinToToken/not-enough-token-balance\");\n        \n        _udpateAndCheckDailyLimit(_tokenAmount);\n        \n        tokenBalance[address(token)] = sub(tokenBalance[address(token)], _tokenAmount);\n        tokenBalance[address(stablecoin)] = add(tokenBalance[address(stablecoin)], _stablecoinAmount);\n        totalFeeBalance += _fee;\n        \n        address(stablecoin).safeTransferFrom(msg.sender, address(this), _stablecoinAmount);\n        token.safeTransfer(_usr, _tokenAmount);\n        emit LogSwapStablecoinToToken(_usr, _tokenAmount, _fee);\n    }\n\n    function depositToken(address _token,uint256 _amount) external override nonReentrant whenNotPaused onlyOwnerOrGov{\n        require(address(_token).balanceOf(msg.sender) >= _amount,\"depositStablecoin/not-enough-stablecoin-balance\");\n        tokenBalance[address(_token)] = add(tokenBalance[address(stablecoin)], _amount);\n        _token.safeTransferFrom(msg.sender,address(this), _amount);\n        emit LogDepositToken(msg.sender, _token, _amount);\n    }\n\n    function withdrawFees(address _account) external override nonReentrant onlyOwnerOrGov{\n        require(_account!= address(0),\"withdrawFees/empty-account\");\n        require(totalFeeBalance!=0,\"withdrawFees/no-fee-balance\");\n        uint256 pendingFeeBalance = totalFeeBalance;\n        totalFeeBalance = 0;\n        address(stablecoin).safeTransfer(_account,  pendingFeeBalance);\n        emit LogWithdrawFees(_account, pendingFeeBalance);\n    }   \n\n    function pause() external onlyOwnerOrGov {\n        _pause();\n        emit LogStableSwapPauseState(true);\n    }\n\n    function unpause() external onlyOwnerOrGov {\n        _unpause();\n        emit LogStableSwapPauseState(false);\n    }\n\n    function emergencyWithdraw(address _account) external override nonReentrant onlyOwnerOrGov{\n        require(paused(),\"emergencyWithdraw/not-paused\");\n        tokenBalance[address(token)] = 0;\n        tokenBalance[address(stablecoin)] = 0;\n        token.safeTransfer(_account, token.balanceOf(address(this)));\n        address(stablecoin).safeTransfer(_account, address(stablecoin).balanceOf(address(this)));\n        emit LogEmergencyWithdraw(_account);\n    }\n\n    function _udpateAndCheckDailyLimit(uint256 _amount) internal {\n        if(block.timestamp - lastUpdate >= ONE_DAY){\n            lastUpdate = block.timestamp;\n            remainingDailySwapAmount= dailySwapLimit;\n        }\n        require(remainingDailySwapAmount >= _amount,\"_udpateAndCheckDailyLimit/daily-limit-exceeded\");\n        remainingDailySwapAmount -= _amount;\n        emit LogRemainingDailySwapAmount(remainingDailySwapAmount);\n    }\n}\n",
    "sourcePath": "/Users/subiksinghshrestha/Documents/FATHOM/fathom-stablecoin-smart-contracts/contracts/main/stablecoin-core/StableSwapModule.sol",
    "compiler": {
        "name": "solc",
        "version": "0.8.17+commit.8df45f5f.Emscripten.clang"
    },
    "schemaVersion": "3.4.10",
    "updatedAt": "2023-01-20T06:15:15.907Z",
    "devdoc": {
        "kind": "dev",
        "methods": {
            "paused()": {
                "details": "Returns true if the contract is paused, and false otherwise."
            }
        },
        "version": 1
    },
    "userdoc": {
        "kind": "user",
        "methods": {},
        "version": 1
    }
}