{
  "contractName": "StableSwapModule",
  "abi": [
    {
      "anonymous": false,
      "inputs": [
        {
          "indexed": false,
          "internalType": "uint8",
          "name": "version",
          "type": "uint8"
        }
      ],
      "name": "Initialized",
      "type": "event"
    },
    {
      "anonymous": false,
      "inputs": [
        {
          "indexed": true,
          "internalType": "address",
          "name": "user",
          "type": "address"
        }
      ],
      "name": "LogAddToWhitelist",
      "type": "event"
    },
    {
      "anonymous": false,
      "inputs": [
        {
          "indexed": false,
          "internalType": "uint256",
          "name": "_newBlocksPerLimit",
          "type": "uint256"
        },
        {
          "indexed": false,
          "internalType": "uint256",
          "name": "_oldBlocksPerLimit",
          "type": "uint256"
        }
      ],
      "name": "LogBlocksPerLimitUpdate",
      "type": "event"
    },
    {
      "anonymous": false,
      "inputs": [
        {
          "indexed": false,
          "internalType": "uint256",
          "name": "_newDailySwapLimit",
          "type": "uint256"
        },
        {
          "indexed": false,
          "internalType": "uint256",
          "name": "_oldDailySwapLimit",
          "type": "uint256"
        }
      ],
      "name": "LogDailySwapLimitUpdate",
      "type": "event"
    },
    {
      "anonymous": false,
      "inputs": [
        {
          "indexed": false,
          "internalType": "bool",
          "name": "_oldDecentralizedStateStatus",
          "type": "bool"
        },
        {
          "indexed": false,
          "internalType": "bool",
          "name": "_newDecentralizedStateStatus",
          "type": "bool"
        }
      ],
      "name": "LogDecentralizedStateStatus",
      "type": "event"
    },
    {
      "anonymous": false,
      "inputs": [
        {
          "indexed": true,
          "internalType": "address",
          "name": "_owner",
          "type": "address"
        },
        {
          "indexed": true,
          "internalType": "address",
          "name": "_token",
          "type": "address"
        },
        {
          "indexed": false,
          "internalType": "uint256",
          "name": "_value",
          "type": "uint256"
        }
      ],
      "name": "LogDepositToken",
      "type": "event"
    },
    {
      "anonymous": false,
      "inputs": [
        {
          "indexed": true,
          "internalType": "address",
          "name": "_account",
          "type": "address"
        }
      ],
      "name": "LogEmergencyWithdraw",
      "type": "event"
    },
    {
      "anonymous": false,
      "inputs": [
        {
          "indexed": false,
          "internalType": "uint256",
          "name": "_newNumberOfSwapsLimitPerUser",
          "type": "uint256"
        },
        {
          "indexed": false,
          "internalType": "uint256",
          "name": "_oldNumberOfSwapsLimitPerUser",
          "type": "uint256"
        }
      ],
      "name": "LogNumberOfSwapsLimitPerUserUpdate",
      "type": "event"
    },
    {
      "anonymous": false,
      "inputs": [
        {
          "indexed": false,
          "internalType": "uint256",
          "name": "_remainingDailySwapAmount",
          "type": "uint256"
        }
      ],
      "name": "LogRemainingDailySwapAmount",
      "type": "event"
    },
    {
      "anonymous": false,
      "inputs": [
        {
          "indexed": true,
          "internalType": "address",
          "name": "user",
          "type": "address"
        }
      ],
      "name": "LogRemoveFromWhitelist",
      "type": "event"
    },
    {
      "anonymous": false,
      "inputs": [
        {
          "indexed": true,
          "internalType": "address",
          "name": "_caller",
          "type": "address"
        },
        {
          "indexed": false,
          "internalType": "uint256",
          "name": "_feeIn",
          "type": "uint256"
        }
      ],
      "name": "LogSetFeeIn",
      "type": "event"
    },
    {
      "anonymous": false,
      "inputs": [
        {
          "indexed": true,
          "internalType": "address",
          "name": "_caller",
          "type": "address"
        },
        {
          "indexed": false,
          "internalType": "uint256",
          "name": "_feeOut",
          "type": "uint256"
        }
      ],
      "name": "LogSetFeeOut",
      "type": "event"
    },
    {
      "anonymous": false,
      "inputs": [
        {
          "indexed": false,
          "internalType": "uint256",
          "name": "_newSingleSwapLimit",
          "type": "uint256"
        },
        {
          "indexed": false,
          "internalType": "uint256",
          "name": "_oldSingleSwapLimit",
          "type": "uint256"
        }
      ],
      "name": "LogSingleSwapLimitUpdate",
      "type": "event"
    },
    {
      "anonymous": false,
      "inputs": [
        {
          "indexed": false,
          "internalType": "bool",
          "name": "_pauseState",
          "type": "bool"
        }
      ],
      "name": "LogStableSwapPauseState",
      "type": "event"
    },
    {
      "anonymous": false,
      "inputs": [
        {
          "indexed": true,
          "internalType": "address",
          "name": "_owner",
          "type": "address"
        },
        {
          "indexed": false,
          "internalType": "uint256",
          "name": "_value",
          "type": "uint256"
        },
        {
          "indexed": false,
          "internalType": "uint256",
          "name": "_fee",
          "type": "uint256"
        }
      ],
      "name": "LogSwapStablecoinToToken",
      "type": "event"
    },
    {
      "anonymous": false,
      "inputs": [
        {
          "indexed": true,
          "internalType": "address",
          "name": "_owner",
          "type": "address"
        },
        {
          "indexed": false,
          "internalType": "uint256",
          "name": "_value",
          "type": "uint256"
        },
        {
          "indexed": false,
          "internalType": "uint256",
          "name": "_fee",
          "type": "uint256"
        }
      ],
      "name": "LogSwapTokenToStablecoin",
      "type": "event"
    },
    {
      "anonymous": false,
      "inputs": [
        {
          "indexed": true,
          "internalType": "address",
          "name": "_destination",
          "type": "address"
        },
        {
          "indexed": false,
          "internalType": "uint256",
          "name": "_stablecoinFee",
          "type": "uint256"
        },
        {
          "indexed": false,
          "internalType": "uint256",
          "name": "_tokenFee",
          "type": "uint256"
        }
      ],
      "name": "LogWithdrawFees",
      "type": "event"
    },
    {
      "anonymous": false,
      "inputs": [
        {
          "indexed": false,
          "internalType": "address",
          "name": "account",
          "type": "address"
        }
      ],
      "name": "Paused",
      "type": "event"
    },
    {
      "anonymous": false,
      "inputs": [
        {
          "indexed": false,
          "internalType": "address",
          "name": "account",
          "type": "address"
        }
      ],
      "name": "Unpaused",
      "type": "event"
    },
    {
      "inputs": [],
      "name": "DAILY_SWAP_LIMIT_DENOMINATOR",
      "outputs": [
        {
          "internalType": "uint256",
          "name": "",
          "type": "uint256"
        }
      ],
      "stateMutability": "view",
      "type": "function"
    },
    {
      "inputs": [],
      "name": "MINIMUM_BLOCKS_PER_LIMIT",
      "outputs": [
        {
          "internalType": "uint256",
          "name": "",
          "type": "uint256"
        }
      ],
      "stateMutability": "view",
      "type": "function"
    },
    {
      "inputs": [],
      "name": "MINIMUM_DAILY_SWAP_LIMIT_NUMERATOR",
      "outputs": [
        {
          "internalType": "uint256",
          "name": "",
          "type": "uint256"
        }
      ],
      "stateMutability": "view",
      "type": "function"
    },
    {
      "inputs": [],
      "name": "MINIMUM_NUMBER_OF_SWAPS_LIMIT_PER_USER",
      "outputs": [
        {
          "internalType": "uint256",
          "name": "",
          "type": "uint256"
        }
      ],
      "stateMutability": "view",
      "type": "function"
    },
    {
      "inputs": [],
      "name": "MINIMUM_SINGLE_SWAP_LIMIT_NUMERATOR",
      "outputs": [
        {
          "internalType": "uint256",
          "name": "",
          "type": "uint256"
        }
      ],
      "stateMutability": "view",
      "type": "function"
    },
    {
      "inputs": [],
      "name": "ONE_DAY",
      "outputs": [
        {
          "internalType": "uint256",
          "name": "",
          "type": "uint256"
        }
      ],
      "stateMutability": "view",
      "type": "function"
    },
    {
      "inputs": [],
      "name": "SINGLE_SWAP_LIMIT_DENOMINATOR",
      "outputs": [
        {
          "internalType": "uint256",
          "name": "",
          "type": "uint256"
        }
      ],
      "stateMutability": "view",
      "type": "function"
    },
    {
      "inputs": [],
      "name": "blocksPerLimit",
      "outputs": [
        {
          "internalType": "uint256",
          "name": "",
          "type": "uint256"
        }
      ],
      "stateMutability": "view",
      "type": "function"
    },
    {
      "inputs": [],
      "name": "bookKeeper",
      "outputs": [
        {
          "internalType": "contract IBookKeeper",
          "name": "",
          "type": "address"
        }
      ],
      "stateMutability": "view",
      "type": "function"
    },
    {
      "inputs": [],
      "name": "dailySwapLimitNumerator",
      "outputs": [
        {
          "internalType": "uint256",
          "name": "",
          "type": "uint256"
        }
      ],
      "stateMutability": "view",
      "type": "function"
    },
    {
      "inputs": [],
      "name": "feeIn",
      "outputs": [
        {
          "internalType": "uint256",
          "name": "",
          "type": "uint256"
        }
      ],
      "stateMutability": "view",
      "type": "function"
    },
    {
      "inputs": [],
      "name": "feeOut",
      "outputs": [
        {
          "internalType": "uint256",
          "name": "",
          "type": "uint256"
        }
      ],
      "stateMutability": "view",
      "type": "function"
    },
    {
      "inputs": [],
      "name": "isDecentralizedState",
      "outputs": [
        {
          "internalType": "bool",
          "name": "",
          "type": "bool"
        }
      ],
      "stateMutability": "view",
      "type": "function"
    },
    {
      "inputs": [
        {
          "internalType": "address",
          "name": "",
          "type": "address"
        }
      ],
      "name": "lastSwapBlockNumberPerUser",
      "outputs": [
        {
          "internalType": "uint256",
          "name": "",
          "type": "uint256"
        }
      ],
      "stateMutability": "view",
      "type": "function"
    },
    {
      "inputs": [],
      "name": "lastUpdate",
      "outputs": [
        {
          "internalType": "uint256",
          "name": "",
          "type": "uint256"
        }
      ],
      "stateMutability": "view",
      "type": "function"
    },
    {
      "inputs": [],
      "name": "numberOfSwapsLimitPerUser",
      "outputs": [
        {
          "internalType": "uint256",
          "name": "",
          "type": "uint256"
        }
      ],
      "stateMutability": "view",
      "type": "function"
    },
    {
      "inputs": [
        {
          "internalType": "address",
          "name": "",
          "type": "address"
        }
      ],
      "name": "numberOfSwapsRemainingPerUserInBlockLimit",
      "outputs": [
        {
          "internalType": "uint256",
          "name": "",
          "type": "uint256"
        }
      ],
      "stateMutability": "view",
      "type": "function"
    },
    {
      "inputs": [],
      "name": "paused",
      "outputs": [
        {
          "internalType": "bool",
          "name": "",
          "type": "bool"
        }
      ],
      "stateMutability": "view",
      "type": "function"
    },
    {
      "inputs": [],
      "name": "remainingDailySwapAmount",
      "outputs": [
        {
          "internalType": "uint256",
          "name": "",
          "type": "uint256"
        }
      ],
      "stateMutability": "view",
      "type": "function"
    },
    {
      "inputs": [],
      "name": "singleSwapLimitNumerator",
      "outputs": [
        {
          "internalType": "uint256",
          "name": "",
          "type": "uint256"
        }
      ],
      "stateMutability": "view",
      "type": "function"
    },
    {
      "inputs": [],
      "name": "stablecoin",
      "outputs": [
        {
          "internalType": "address",
          "name": "",
          "type": "address"
        }
      ],
      "stateMutability": "view",
      "type": "function"
    },
    {
      "inputs": [],
      "name": "token",
      "outputs": [
        {
          "internalType": "address",
          "name": "",
          "type": "address"
        }
      ],
      "stateMutability": "view",
      "type": "function"
    },
    {
      "inputs": [
        {
          "internalType": "address",
          "name": "",
          "type": "address"
        }
      ],
      "name": "tokenBalance",
      "outputs": [
        {
          "internalType": "uint256",
          "name": "",
          "type": "uint256"
        }
      ],
      "stateMutability": "view",
      "type": "function"
    },
    {
      "inputs": [],
      "name": "totalFXDFeeBalance",
      "outputs": [
        {
          "internalType": "uint256",
          "name": "",
          "type": "uint256"
        }
      ],
      "stateMutability": "view",
      "type": "function"
    },
    {
      "inputs": [],
      "name": "totalTokenFeeBalance",
      "outputs": [
        {
          "internalType": "uint256",
          "name": "",
          "type": "uint256"
        }
      ],
      "stateMutability": "view",
      "type": "function"
    },
    {
      "inputs": [],
      "name": "totalValueDeposited",
      "outputs": [
        {
          "internalType": "uint256",
          "name": "",
          "type": "uint256"
        }
      ],
      "stateMutability": "view",
      "type": "function"
    },
    {
      "inputs": [
        {
          "internalType": "address",
          "name": "",
          "type": "address"
        }
      ],
      "name": "usersWhitelist",
      "outputs": [
        {
          "internalType": "bool",
          "name": "",
          "type": "bool"
        }
      ],
      "stateMutability": "view",
      "type": "function"
    },
    {
      "inputs": [
        {
          "internalType": "address",
          "name": "_bookKeeper",
          "type": "address"
        },
        {
          "internalType": "address",
          "name": "_token",
          "type": "address"
        },
        {
          "internalType": "address",
          "name": "_stablecoin",
          "type": "address"
        },
        {
          "internalType": "uint256",
          "name": "_dailySwapLimitNumerator",
          "type": "uint256"
        },
        {
          "internalType": "uint256",
          "name": "_singleSwapLimitNumerator",
          "type": "uint256"
        },
        {
          "internalType": "uint256",
          "name": "_numberOfSwapsLimitPerUser",
          "type": "uint256"
        },
        {
          "internalType": "uint256",
          "name": "_blocksPerLimit",
          "type": "uint256"
        }
      ],
      "name": "initialize",
      "outputs": [],
      "stateMutability": "nonpayable",
      "type": "function"
    },
    {
      "inputs": [
        {
          "internalType": "uint256",
          "name": "newdailySwapLimitNumerator",
          "type": "uint256"
        }
      ],
      "name": "setDailySwapLimitNumerator",
      "outputs": [],
      "stateMutability": "nonpayable",
      "type": "function"
    },
    {
      "inputs": [
        {
          "internalType": "uint256",
          "name": "newSingleSwapLimitNumerator",
          "type": "uint256"
        }
      ],
      "name": "setSingleSwapLimitNumerator",
      "outputs": [],
      "stateMutability": "nonpayable",
      "type": "function"
    },
    {
      "inputs": [
        {
          "internalType": "uint256",
          "name": "newNumberOfSwapsLimitPerUser",
          "type": "uint256"
        }
      ],
      "name": "setNumberOfSwapsLimitPerUser",
      "outputs": [],
      "stateMutability": "nonpayable",
      "type": "function"
    },
    {
      "inputs": [
        {
          "internalType": "uint256",
          "name": "newBlocksPerLimit",
          "type": "uint256"
        }
      ],
      "name": "setBlocksPerLimit",
      "outputs": [],
      "stateMutability": "nonpayable",
      "type": "function"
    },
    {
      "inputs": [
        {
          "internalType": "uint256",
          "name": "_feeIn",
          "type": "uint256"
        }
      ],
      "name": "setFeeIn",
      "outputs": [],
      "stateMutability": "nonpayable",
      "type": "function"
    },
    {
      "inputs": [
        {
          "internalType": "uint256",
          "name": "_feeOut",
          "type": "uint256"
        }
      ],
      "name": "setFeeOut",
      "outputs": [],
      "stateMutability": "nonpayable",
      "type": "function"
    },
    {
      "inputs": [
        {
          "internalType": "bool",
          "name": "_status",
          "type": "bool"
        }
      ],
      "name": "setDecentralizedStatesStatus",
      "outputs": [],
      "stateMutability": "nonpayable",
      "type": "function"
    },
    {
      "inputs": [
        {
          "internalType": "address",
          "name": "_user",
          "type": "address"
        }
      ],
      "name": "addToWhitelist",
      "outputs": [],
      "stateMutability": "nonpayable",
      "type": "function"
    },
    {
      "inputs": [
        {
          "internalType": "address",
          "name": "_user",
          "type": "address"
        }
      ],
      "name": "removeFromWhitelist",
      "outputs": [],
      "stateMutability": "nonpayable",
      "type": "function"
    },
    {
      "inputs": [
        {
          "internalType": "address",
          "name": "_user",
          "type": "address"
        }
      ],
      "name": "isUserWhitelisted",
      "outputs": [
        {
          "internalType": "bool",
          "name": "",
          "type": "bool"
        }
      ],
      "stateMutability": "view",
      "type": "function"
    },
    {
      "inputs": [
        {
          "internalType": "address",
          "name": "_usr",
          "type": "address"
        },
        {
          "internalType": "uint256",
          "name": "_amount",
          "type": "uint256"
        }
      ],
      "name": "swapTokenToStablecoin",
      "outputs": [],
      "stateMutability": "nonpayable",
      "type": "function"
    },
    {
      "inputs": [
        {
          "internalType": "address",
          "name": "_usr",
          "type": "address"
        },
        {
          "internalType": "uint256",
          "name": "_amount",
          "type": "uint256"
        }
      ],
      "name": "swapStablecoinToToken",
      "outputs": [],
      "stateMutability": "nonpayable",
      "type": "function"
    },
    {
      "inputs": [
        {
          "internalType": "address",
          "name": "_token",
          "type": "address"
        },
        {
          "internalType": "uint256",
          "name": "_amount",
          "type": "uint256"
        }
      ],
      "name": "depositToken",
      "outputs": [],
      "stateMutability": "nonpayable",
      "type": "function"
    },
    {
      "inputs": [
        {
          "internalType": "address",
          "name": "_destination",
          "type": "address"
        }
      ],
      "name": "withdrawFees",
      "outputs": [],
      "stateMutability": "nonpayable",
      "type": "function"
    },
    {
      "inputs": [],
      "name": "pause",
      "outputs": [],
      "stateMutability": "nonpayable",
      "type": "function"
    },
    {
      "inputs": [],
      "name": "unpause",
      "outputs": [],
      "stateMutability": "nonpayable",
      "type": "function"
    },
    {
      "inputs": [
        {
          "internalType": "address",
          "name": "_account",
          "type": "address"
        }
      ],
      "name": "emergencyWithdraw",
      "outputs": [],
      "stateMutability": "nonpayable",
      "type": "function"
    },
    {
      "inputs": [],
      "name": "totalValueLocked",
      "outputs": [
        {
          "internalType": "uint256",
          "name": "",
          "type": "uint256"
        }
      ],
      "stateMutability": "view",
      "type": "function"
    }
  ],
  "bytecode": "0x608060405234801561001057600080fd5b50613e02806100206000396000f3fe608060405234801561001057600080fd5b506004361061028a5760003560e01c80636ff1c9bc1161015c578063a836da86116100ce578063e43252d711610087578063e43252d714610509578063e9cbd8221461051c578063ec18154e1461052f578063eedc966a14610537578063fb237eb214610557578063fc0c546a1461058357600080fd5b8063a836da861461049d578063b42746af146104b0578063c0463711146104b9578063c8ee88fb146104c2578063e3004c46146104d5578063e3b3932a146104de57600080fd5b80638456cb59116101205780638456cb591461045d578063863e76db1461046557806386eb51331461046f5780638ab1d681146104785780638e50d72c1461048b578063a21c1c8f1461049457600080fd5b80636ff1c9bc146104265780637254fb3b14610439578063769a48d91461044157806381e28cc71461044a5780638299d28d1461035957600080fd5b80633848dc2f11610200578063462e4445116101b9578063462e4445146103ee57806355725d41146103f657806358a7a31d1461031d5780635c975abb14610409578063651507f0146104145780636c1cbef01461041d57600080fd5b80633848dc2f1461037457806339e9bca81461037d5780633c11453a1461039d5780633f4ba83a146103c057806340853dce146103c857806342e8a972146103db57600080fd5b80632169d7c4116102525780632169d7c41461030a578063253e870e1461031d578063269e5855146103265780632b4656c8146103465780633031f48f14610359578063338b5dea1461036157600080fd5b80630696819f1461028f5780630a491255146102ab57806315eadbff146102c0578063164e68de146102e45780631af40af9146102f7575b600080fd5b610298609c5481565b6040519081526020015b60405180910390f35b6102be6102b9366004613967565b610596565b005b6099546102d490600160a01b900460ff1681565b60405190151581526020016102a2565b6102be6102f2366004613995565b6107ad565b6102be6103053660046139c7565b610b94565b6102be610318366004613967565b610d53565b61029861271081565b610298610334366004613995565b60a86020526000908152604090205481565b6102be6103543660046139e4565b610f70565b610298600181565b6102be61036f366004613a52565b61128e565b61029860a55481565b61029861038b366004613995565b60a76020526000908152604090205481565b6102d46103ab366004613995565b60a66020526000908152604090205460ff1681565b6102be61173a565b6102be6103d6366004613a52565b6119ac565b6102be6103e9366004613967565b611cab565b610298601481565b6102be610404366004613967565b611e9e565b60335460ff166102d4565b61029860a25481565b61029860a15481565b6102be610434366004613995565b612089565b61029860c881565b610298609b5481565b6102be610458366004613a52565b6123e0565b6102be61274c565b6102986201518081565b61029860a35481565b6102be610486366004613995565b6129b7565b61029860a45481565b610298609e5481565b6102be6104ab366004613967565b612b5d565b61029860a05481565b610298609d5481565b6102be6104d0366004613967565b612d9d565b610298609f5481565b6097546104f1906001600160a01b031681565b6040516001600160a01b0390911681526020016102a2565b6102be610517366004613995565b612f97565b6098546104f1906001600160a01b031681565b610298613140565b610298610545366004613995565b609a6020526000908152604090205481565b6102d4610565366004613995565b6001600160a01b0316600090815260a6602052604090205460ff1690565b6099546104f1906001600160a01b031681565b6097546040805163c8cc243f60e01b815290516000926001600160a01b03169163c8cc243f9160048083019260209291908290030181865afa1580156105e0573d6000803e3d6000fd5b505050506040513d601f19601f820116820180604052508101906106049190613a7e565b9050806001600160a01b03166391d14854826001600160a01b031663e58378bb6040518163ffffffff1660e01b8152600401602060405180830381865afa158015610653573d6000803e3d6000fd5b505050506040513d601f19601f820116820180604052508101906106779190613a9b565b336040518363ffffffff1660e01b8152600401610695929190613ab4565b602060405180830381865afa1580156106b2573d6000803e3d6000fd5b505050506040513d601f19601f820116820180604052508101906106d69190613acb565b6106fb5760405162461bcd60e51b81526004016106f290613ae8565b60405180910390fd5b600182101561076a5760405162461bcd60e51b81526020600482015260416024820152600080516020613dad83398151915260448201527f756d2d6e756d6265722d6f662d73776170732d6c696d69742d7065722d7573656064820152603960f91b608482015260a4016106f2565b60a4546040805184815260208101929092527f8a678f401fa2d9a6dc80fc3ea8f4f31f9b5c20c0f13076ba7105b7d35867e50b910160405180910390a15060a455565b6107b56131c6565b6097546040805163c8cc243f60e01b815290516000926001600160a01b03169163c8cc243f9160048083019260209291908290030181865afa1580156107ff573d6000803e3d6000fd5b505050506040513d601f19601f820116820180604052508101906108239190613a7e565b9050806001600160a01b03166391d14854826001600160a01b031663e58378bb6040518163ffffffff1660e01b8152600401602060405180830381865afa158015610872573d6000803e3d6000fd5b505050506040513d601f19601f820116820180604052508101906108969190613a9b565b336040518363ffffffff1660e01b81526004016108b4929190613ab4565b602060405180830381865afa1580156108d1573d6000803e3d6000fd5b505050506040513d601f19601f820116820180604052508101906108f59190613acb565b806109cb5750806001600160a01b03166391d14854826001600160a01b031663b536818a6040518163ffffffff1660e01b8152600401602060405180830381865afa158015610948573d6000803e3d6000fd5b505050506040513d601f19601f8201168201806040525081019061096c9190613a9b565b336040518363ffffffff1660e01b815260040161098a929190613ab4565b602060405180830381865afa1580156109a7573d6000803e3d6000fd5b505050506040513d601f19601f820116820180604052508101906109cb9190613acb565b6109e75760405162461bcd60e51b81526004016106f290613b0c565b6001600160a01b038216610a3d5760405162461bcd60e51b815260206004820152601e60248201527f7769746864726177466565732f77726f6e672d64657374696e6174696f6e000060448201526064016106f2565b60a254151580610a4e575060a15415155b610a9a5760405162461bcd60e51b815260206004820152601b60248201527f7769746864726177466565732f6e6f2d6665652d62616c616e6365000000000060448201526064016106f2565b60a2548015610aed57600060a28190556098546001600160a01b03168152609a602052604081208054839290610ad1908490613b59565b9091555050609854610aed906001600160a01b0316848361321f565b60a1548015610b4057600060a18190556099546001600160a01b03168152609a602052604081208054839290610b24908490613b59565b9091555050609954610b40906001600160a01b0316858361321f565b60408051838152602081018390526001600160a01b038616917f231dfe65cdfbccb5fa65cf5ce027aef6dac6d15b4c7cd98400164f726f775850910160405180910390a2505050610b916001606555565b50565b6097546040805163c8cc243f60e01b815290516000926001600160a01b03169163c8cc243f9160048083019260209291908290030181865afa158015610bde573d6000803e3d6000fd5b505050506040513d601f19601f82011682018060405250810190610c029190613a7e565b9050806001600160a01b03166391d14854826001600160a01b031663e58378bb6040518163ffffffff1660e01b8152600401602060405180830381865afa158015610c51573d6000803e3d6000fd5b505050506040513d601f19601f82011682018060405250810190610c759190613a9b565b336040518363ffffffff1660e01b8152600401610c93929190613ab4565b602060405180830381865afa158015610cb0573d6000803e3d6000fd5b505050506040513d601f19601f82011682018060405250810190610cd49190613acb565b610cf05760405162461bcd60e51b81526004016106f290613ae8565b60998054831515600160a01b81810260ff60a01b199093169290921792839055604080519290930460ff161515825260208201527f3fa229db5043f4a1d50be94716819fcfca2c864e74e7abb8fc65559a79c9a600910160405180910390a15050565b6097546040805163c8cc243f60e01b815290516000926001600160a01b03169163c8cc243f9160048083019260209291908290030181865afa158015610d9d573d6000803e3d6000fd5b505050506040513d601f19601f82011682018060405250810190610dc19190613a7e565b9050806001600160a01b03166391d14854826001600160a01b031663e58378bb6040518163ffffffff1660e01b8152600401602060405180830381865afa158015610e10573d6000803e3d6000fd5b505050506040513d601f19601f82011682018060405250810190610e349190613a9b565b336040518363ffffffff1660e01b8152600401610e52929190613ab4565b602060405180830381865afa158015610e6f573d6000803e3d6000fd5b505050506040513d601f19601f82011682018060405250810190610e939190613acb565b610eaf5760405162461bcd60e51b81526004016106f290613ae8565b612710821115610ed15760405162461bcd60e51b81526004016106f290613b6c565b6014821015610f2d5760405162461bcd60e51b81526020600482015260346024820152600080516020613dad8339815191526044820152731d5b4b5cda5b99db194b5cddd85c0b5b1a5b5a5d60621b60648201526084016106f2565b60a0546040805184815260208101929092527f1c7c5a58f6507a27552843542f6a493ca5506d4865a20d0295218c9bf0e93003910160405180910390a15060a055565b600054610100900460ff1615808015610f905750600054600160ff909116105b80610faa5750303b158015610faa575060005460ff166001145b61100d5760405162461bcd60e51b815260206004820152602e60248201527f496e697469616c697a61626c653a20636f6e747261637420697320616c72656160448201526d191e481a5b9a5d1a585b1a5e995960921b60648201526084016106f2565b6000805460ff191660011790558015611030576000805461ff0019166101001790555b611038613331565b611040613362565b60c88510156110a75760405162461bcd60e51b815260206004820152602d60248201527f696e697469616c697a652f6c6573732d7468616e2d6d696e696d756d2d64616960448201526c1b1e4b5cddd85c0b5b1a5b5a5d609a1b60648201526084016106f2565b601484101561110f5760405162461bcd60e51b815260206004820152602e60248201527f696e697469616c697a652f6c6573732d7468616e2d6d696e696d756d2d73696e60448201526d19db194b5cddd85c0b5b1a5b5a5d60921b60648201526084016106f2565b60018310156111865760405162461bcd60e51b815260206004820152603b60248201527f696e697469616c697a652f6c6573732d7468616e2d6d696e696d756d2d6e756d60448201527f6265722d6f662d73776170732d6c696d69742d7065722d75736572000000000060648201526084016106f2565b60018210156111ed5760405162461bcd60e51b815260206004820152602d60248201527f696e697469616c697a652f6c6573732d7468616e2d6d696e696d756d2d626c6f60448201526c18dadccb5c195c8b5b1a5b5a5d609a1b60648201526084016106f2565b609780546001600160a01b03808b166001600160a01b0319928316179092556098805489841690831617905560998054928a1692909116919091179055609f85905560a084905560a483905560a58290558015611284576000805461ff0019169055604051600181527f7f26b83ff96e1f2b6a682f133852f6798a09c465da95921460cefb38474024989060200160405180910390a15b5050505050505050565b6112966131c6565b61129e613391565b6097546040805163c8cc243f60e01b815290516000926001600160a01b03169163c8cc243f9160048083019260209291908290030181865afa1580156112e8573d6000803e3d6000fd5b505050506040513d601f19601f8201168201806040525081019061130c9190613a7e565b9050806001600160a01b03166391d14854826001600160a01b031663e58378bb6040518163ffffffff1660e01b8152600401602060405180830381865afa15801561135b573d6000803e3d6000fd5b505050506040513d601f19601f8201168201806040525081019061137f9190613a9b565b336040518363ffffffff1660e01b815260040161139d929190613ab4565b602060405180830381865afa1580156113ba573d6000803e3d6000fd5b505050506040513d601f19601f820116820180604052508101906113de9190613acb565b806114b45750806001600160a01b03166391d14854826001600160a01b031663b536818a6040518163ffffffff1660e01b8152600401602060405180830381865afa158015611431573d6000803e3d6000fd5b505050506040513d601f19601f820116820180604052508101906114559190613a9b565b336040518363ffffffff1660e01b8152600401611473929190613ab4565b602060405180830381865afa158015611490573d6000803e3d6000fd5b505050506040513d601f19601f820116820180604052508101906114b49190613acb565b6114d05760405162461bcd60e51b81526004016106f290613b0c565b6099546001600160a01b03848116911614806114f957506098546001600160a01b038481169116145b6115455760405162461bcd60e51b815260206004820152601f60248201527f6465706f736974537461626c65636f696e2f696e76616c69642d746f6b656e0060448201526064016106f2565b816000036115955760405162461bcd60e51b815260206004820152601d60248201527f6465706f736974537461626c65636f696e2f616d6f756e742d7a65726f00000060448201526064016106f2565b816115a96001600160a01b038516336133d7565b10156116035760405162461bcd60e51b8152602060048201526024808201527f6465706f736974537461626c65636f696e2f6e6f742d656e6f7567682d62616c604482015263616e636560e01b60648201526084016106f2565b6001600160a01b0383166000908152609a60205260408120805484929061162b908490613bb7565b9091555061164690506001600160a01b03841633308561344e565b6116b382846001600160a01b031663313ce5676040518163ffffffff1660e01b8152600401602060405180830381865afa158015611688573d6000803e3d6000fd5b505050506040513d601f19601f820116820180604052508101906116ac9190613bca565b6012613566565b60a360008282546116c49190613bb7565b9091555050609954600160a01b900460ff16156116eb5742609d556116e76135c1565b609e555b6040518281526001600160a01b0384169033907fb024cc5591038c18f7e2348d474092b453a32212dd1ebcc0370c4ac2e42cce439060200160405180910390a3506117366001606555565b5050565b6097546040805163c8cc243f60e01b815290516000926001600160a01b03169163c8cc243f9160048083019260209291908290030181865afa158015611784573d6000803e3d6000fd5b505050506040513d601f19601f820116820180604052508101906117a89190613a7e565b9050806001600160a01b03166391d14854826001600160a01b031663e58378bb6040518163ffffffff1660e01b8152600401602060405180830381865afa1580156117f7573d6000803e3d6000fd5b505050506040513d601f19601f8201168201806040525081019061181b9190613a9b565b336040518363ffffffff1660e01b8152600401611839929190613ab4565b602060405180830381865afa158015611856573d6000803e3d6000fd5b505050506040513d601f19601f8201168201806040525081019061187a9190613acb565b806119505750806001600160a01b03166391d14854826001600160a01b031663b536818a6040518163ffffffff1660e01b8152600401602060405180830381865afa1580156118cd573d6000803e3d6000fd5b505050506040513d601f19601f820116820180604052508101906118f19190613a9b565b336040518363ffffffff1660e01b815260040161190f929190613ab4565b602060405180830381865afa15801561192c573d6000803e3d6000fd5b505050506040513d601f19601f820116820180604052508101906119509190613acb565b61196c5760405162461bcd60e51b81526004016106f290613b0c565b6119746135e1565b604051600081527fcdd780009e0ca26d4eb3c3ec7a679e3b2581bfb5b6f89856108a50f5b1fa2bcb906020015b60405180910390a150565b6119b4613391565b609954600160a01b900460ff16611a1b5733600090815260a6602052604090205460ff16611a1b5760405162461bcd60e51b81526020600482015260146024820152731d5cd95c8b5b9bdd0b5dda1a5d195b1a5cdd195960621b60448201526064016106f2565b611a236131c6565b80600003611a735760405162461bcd60e51b815260206004820152601c60248201527f537461626c65537761704d6f64756c652f616d6f756e742d7a65726f0000000060448201526064016106f2565b6000611acc82609960009054906101000a90046001600160a01b03166001600160a01b031663313ce5676040518163ffffffff1660e01b8152600401602060405180830381865afa158015611688573d6000803e3d6000fd5b90506000670de0b6b3a7640000609b5483611ae79190613bed565b611af19190613c04565b90506000611aff8284613b59565b6098546001600160a01b03166000908152609a6020526040902054909150811115611b885760405162461bcd60e51b815260206004820152603360248201527f73776170546f6b656e546f537461626c65636f696e2f6e6f742d656e6f7567686044820152722d737461626c65636f696e2d62616c616e636560681b60648201526084016106f2565b609954600160a01b900460ff1615611bb457611ba383613633565b611bac836136b7565b611bb4613791565b6098546001600160a01b03166000908152609a602052604081208054839290611bde908490613b59565b90915550506099546001600160a01b03166000908152609a602052604081208054869290611c0d908490613bb7565b925050819055508160a26000828254611c269190613bb7565b9091555050609954611c43906001600160a01b031633308761344e565b609854611c5a906001600160a01b0316868361321f565b60408051858152602081018490526001600160a01b038716917febeefb54ae6b697f8f7b14ec942871ef2fc051ec90c2a221007e5a5702a4d7f2910160405180910390a25050506117366001606555565b6097546040805163c8cc243f60e01b815290516000926001600160a01b03169163c8cc243f9160048083019260209291908290030181865afa158015611cf5573d6000803e3d6000fd5b505050506040513d601f19601f82011682018060405250810190611d199190613a7e565b9050806001600160a01b03166391d14854826001600160a01b031663e58378bb6040518163ffffffff1660e01b8152600401602060405180830381865afa158015611d68573d6000803e3d6000fd5b505050506040513d601f19601f82011682018060405250810190611d8c9190613a9b565b336040518363ffffffff1660e01b8152600401611daa929190613ab4565b602060405180830381865afa158015611dc7573d6000803e3d6000fd5b505050506040513d601f19601f82011682018060405250810190611deb9190613acb565b611e075760405162461bcd60e51b81526004016106f290613ae8565b6706f05b59d3b20000821115611e5f5760405162461bcd60e51b815260206004820181905260248201527f537461626c65537761704d6f64756c652f696e76616c69642d6665652d6f757460448201526064016106f2565b609c82905560405182815233907fca068f6ffd884c8217e477778ef3821efcb5e96690cff9e680c7dbd077d1d1bd906020015b60405180910390a25050565b6097546040805163c8cc243f60e01b815290516000926001600160a01b03169163c8cc243f9160048083019260209291908290030181865afa158015611ee8573d6000803e3d6000fd5b505050506040513d601f19601f82011682018060405250810190611f0c9190613a7e565b9050806001600160a01b03166391d14854826001600160a01b031663e58378bb6040518163ffffffff1660e01b8152600401602060405180830381865afa158015611f5b573d6000803e3d6000fd5b505050506040513d601f19601f82011682018060405250810190611f7f9190613a9b565b336040518363ffffffff1660e01b8152600401611f9d929190613ab4565b602060405180830381865afa158015611fba573d6000803e3d6000fd5b505050506040513d601f19601f82011682018060405250810190611fde9190613acb565b611ffa5760405162461bcd60e51b81526004016106f290613ae8565b6706f05b59d3b200008211156120525760405162461bcd60e51b815260206004820152601f60248201527f537461626c65537761704d6f64756c652f696e76616c69642d6665652d696e0060448201526064016106f2565b609b82905560405182815233907f761b3141cbb42e607f4e550cf06b417f5d0fe476ee4fb6b9fbb34c4ae134b81390602001611e92565b6120916131c6565b6097546040805163c8cc243f60e01b815290516000926001600160a01b03169163c8cc243f9160048083019260209291908290030181865afa1580156120db573d6000803e3d6000fd5b505050506040513d601f19601f820116820180604052508101906120ff9190613a7e565b9050806001600160a01b03166391d14854826001600160a01b031663e58378bb6040518163ffffffff1660e01b8152600401602060405180830381865afa15801561214e573d6000803e3d6000fd5b505050506040513d601f19601f820116820180604052508101906121729190613a9b565b336040518363ffffffff1660e01b8152600401612190929190613ab4565b602060405180830381865afa1580156121ad573d6000803e3d6000fd5b505050506040513d601f19601f820116820180604052508101906121d19190613acb565b806122a75750806001600160a01b03166391d14854826001600160a01b031663b536818a6040518163ffffffff1660e01b8152600401602060405180830381865afa158015612224573d6000803e3d6000fd5b505050506040513d601f19601f820116820180604052508101906122489190613a9b565b336040518363ffffffff1660e01b8152600401612266929190613ab4565b602060405180830381865afa158015612283573d6000803e3d6000fd5b505050506040513d601f19601f820116820180604052508101906122a79190613acb565b6122c35760405162461bcd60e51b81526004016106f290613b0c565b6122cb613887565b6001600160a01b0382166123215760405162461bcd60e51b815260206004820152601a60248201527f7769746864726177466565732f656d7074792d6163636f756e7400000000000060448201526064016106f2565b609980546001600160a01b039081166000908152609a602052604080822082905560985483168252812055905461237291849161235f9116306133d7565b6099546001600160a01b0316919061321f565b6098546123a190839061238e906001600160a01b0316306133d7565b6098546001600160a01b0316919061321f565b6040516001600160a01b038316907f66b4c12417b17d45e180a77a43b566ff7cdec1cc047789840043d696de3acb4890600090a250610b916001606555565b6123e8613391565b609954600160a01b900460ff1661244f5733600090815260a6602052604090205460ff1661244f5760405162461bcd60e51b81526020600482015260146024820152731d5cd95c8b5b9bdd0b5dda1a5d195b1a5cdd195960621b60448201526064016106f2565b6124576131c6565b806000036124a75760405162461bcd60e51b815260206004820152601c60248201527f537461626c65537761704d6f64756c652f616d6f756e742d7a65726f0000000060448201526064016106f2565b6000670de0b6b3a7640000609c54836124c09190613bed565b6124ca9190613c04565b9050600061254e6124db8385613b59565b6099546040805163313ce56760e01b815290516012926001600160a01b03169163313ce5679160048083019260209291908290030181865afa158015612525573d6000803e3d6000fd5b505050506040513d601f19601f820116820180604052508101906125499190613bca565b613566565b6099546001600160a01b03166000908152609a60205260409020549091508111156125d25760405162461bcd60e51b815260206004820152602e60248201527f73776170537461626c65636f696e546f546f6b656e2f6e6f742d656e6f75676860448201526d2d746f6b656e2d62616c616e636560901b60648201526084016106f2565b609954600160a01b900460ff16156125fe576125ed83613633565b6125f6836136b7565b6125fe613791565b6099546001600160a01b03166000908152609a602052604081208054839290612628908490613b59565b90915550506098546001600160a01b03166000908152609a602052604081208054859290612657908490613bb7565b925050819055506126b7826012609960009054906101000a90046001600160a01b03166001600160a01b031663313ce5676040518163ffffffff1660e01b8152600401602060405180830381865afa158015612525573d6000803e3d6000fd5b60a160008282546126c89190613bb7565b90915550506098546126e5906001600160a01b031633308661344e565b6099546126fc906001600160a01b0316858361321f565b60408051848152602081018490526001600160a01b038616917f19db3e213473ea73ae4b6c76a26cbcb2a43d954d78caca305d507dec79b24e82910160405180910390a250506117366001606555565b6097546040805163c8cc243f60e01b815290516000926001600160a01b03169163c8cc243f9160048083019260209291908290030181865afa158015612796573d6000803e3d6000fd5b505050506040513d601f19601f820116820180604052508101906127ba9190613a7e565b9050806001600160a01b03166391d14854826001600160a01b031663e58378bb6040518163ffffffff1660e01b8152600401602060405180830381865afa158015612809573d6000803e3d6000fd5b505050506040513d601f19601f8201168201806040525081019061282d9190613a9b565b336040518363ffffffff1660e01b815260040161284b929190613ab4565b602060405180830381865afa158015612868573d6000803e3d6000fd5b505050506040513d601f19601f8201168201806040525081019061288c9190613acb565b806129625750806001600160a01b03166391d14854826001600160a01b031663b536818a6040518163ffffffff1660e01b8152600401602060405180830381865afa1580156128df573d6000803e3d6000fd5b505050506040513d601f19601f820116820180604052508101906129039190613a9b565b336040518363ffffffff1660e01b8152600401612921929190613ab4565b602060405180830381865afa15801561293e573d6000803e3d6000fd5b505050506040513d601f19601f820116820180604052508101906129629190613acb565b61297e5760405162461bcd60e51b81526004016106f290613b0c565b6129866138d0565b604051600181527fcdd780009e0ca26d4eb3c3ec7a679e3b2581bfb5b6f89856108a50f5b1fa2bcb906020016119a1565b6097546040805163c8cc243f60e01b815290516000926001600160a01b03169163c8cc243f9160048083019260209291908290030181865afa158015612a01573d6000803e3d6000fd5b505050506040513d601f19601f82011682018060405250810190612a259190613a7e565b9050806001600160a01b03166391d14854826001600160a01b031663e58378bb6040518163ffffffff1660e01b8152600401602060405180830381865afa158015612a74573d6000803e3d6000fd5b505050506040513d601f19601f82011682018060405250810190612a989190613a9b565b336040518363ffffffff1660e01b8152600401612ab6929190613ab4565b602060405180830381865afa158015612ad3573d6000803e3d6000fd5b505050506040513d601f19601f82011682018060405250810190612af79190613acb565b612b135760405162461bcd60e51b81526004016106f290613ae8565b6001600160a01b038216600081815260a66020526040808220805460ff19169055517f9e9499495e2efd848d33cb197bde94612c1ec36f30605b60d445511e056069e19190a25050565b6097546040805163c8cc243f60e01b815290516000926001600160a01b03169163c8cc243f9160048083019260209291908290030181865afa158015612ba7573d6000803e3d6000fd5b505050506040513d601f19601f82011682018060405250810190612bcb9190613a7e565b9050806001600160a01b03166391d14854826001600160a01b031663e58378bb6040518163ffffffff1660e01b8152600401602060405180830381865afa158015612c1a573d6000803e3d6000fd5b505050506040513d601f19601f82011682018060405250810190612c3e9190613a9b565b336040518363ffffffff1660e01b8152600401612c5c929190613ab4565b602060405180830381865afa158015612c79573d6000803e3d6000fd5b505050506040513d601f19601f82011682018060405250810190612c9d9190613acb565b612cb95760405162461bcd60e51b81526004016106f290613ae8565b612710821115612cdb5760405162461bcd60e51b81526004016106f290613b6c565b60c8821015612d365760405162461bcd60e51b81526020600482015260336024820152600080516020613dad8339815191526044820152721d5b4b59185a5b1e4b5cddd85c0b5b1a5b5a5d606a1b60648201526084016106f2565b609f546040805184815260208101929092527f91fc53b44c6fd2d041f17f6121e3caacab265cf4b02f97d3fc6e2bc0c9d1ffe7910160405180910390a1609f829055609954600160a01b900460ff16156117365742609d55612d966135c1565b609e555050565b6097546040805163c8cc243f60e01b815290516000926001600160a01b03169163c8cc243f9160048083019260209291908290030181865afa158015612de7573d6000803e3d6000fd5b505050506040513d601f19601f82011682018060405250810190612e0b9190613a7e565b9050806001600160a01b03166391d14854826001600160a01b031663e58378bb6040518163ffffffff1660e01b8152600401602060405180830381865afa158015612e5a573d6000803e3d6000fd5b505050506040513d601f19601f82011682018060405250810190612e7e9190613a9b565b336040518363ffffffff1660e01b8152600401612e9c929190613ab4565b602060405180830381865afa158015612eb9573d6000803e3d6000fd5b505050506040513d601f19601f82011682018060405250810190612edd9190613acb565b612ef95760405162461bcd60e51b81526004016106f290613ae8565b6001821015612f545760405162461bcd60e51b81526020600482015260336024820152600080516020613dad8339815191526044820152721d5b4b589b1bd8dadccb5c195c8b5b1a5b5a5d606a1b60648201526084016106f2565b60a5546040805184815260208101929092527fccf8e789fb000c09df38137a96907424dced975131f1321e0d4b75a5b1d8ceb0910160405180910390a15060a555565b6097546040805163c8cc243f60e01b815290516000926001600160a01b03169163c8cc243f9160048083019260209291908290030181865afa158015612fe1573d6000803e3d6000fd5b505050506040513d601f19601f820116820180604052508101906130059190613a7e565b9050806001600160a01b03166391d14854826001600160a01b031663e58378bb6040518163ffffffff1660e01b8152600401602060405180830381865afa158015613054573d6000803e3d6000fd5b505050506040513d601f19601f820116820180604052508101906130789190613a9b565b336040518363ffffffff1660e01b8152600401613096929190613ab4565b602060405180830381865afa1580156130b3573d6000803e3d6000fd5b505050506040513d601f19601f820116820180604052508101906130d79190613acb565b6130f35760405162461bcd60e51b81526004016106f290613ae8565b6001600160a01b038216600081815260a66020526040808220805460ff19166001179055517f4e3d8c117d484081f7268ed79cded71ad42979b92feb5f8f7f9824ac5cbfe3759190a25050565b6099546001600160a01b03166000818152609a6020908152604080832054815163313ce56760e01b81529151939461319c949193909263313ce56792600480830193928290030181865afa158015611688573d6000803e3d6000fd5b6098546001600160a01b03166000908152609a60205260409020546131c19190613bb7565b905090565b6002606554036132185760405162461bcd60e51b815260206004820152601f60248201527f5265656e7472616e637947756172643a207265656e7472616e742063616c6c0060448201526064016106f2565b6002606555565b604080516001600160a01b038481166024830152604480830185905283518084039091018152606490920183526020820180516001600160e01b031663a9059cbb60e01b179052915160009283929087169161327b9190613c26565b6000604051808303816000865af19150503d80600081146132b8576040519150601f19603f3d011682016040523d82523d6000602084013e6132bd565b606091505b50915091508180156132e75750805115806132e75750808060200190518101906132e79190613acb565b6133235760405162461bcd60e51b815260206004820152600d60248201526c10b9b0b332aa3930b739b332b960991b60448201526064016106f2565b5050505050565b6001606555565b600054610100900460ff166133585760405162461bcd60e51b81526004016106f290613c55565b61336061390d565b565b600054610100900460ff166133895760405162461bcd60e51b81526004016106f290613c55565b613360613940565b60335460ff16156133605760405162461bcd60e51b815260206004820152601060248201526f14185d5cd8589b194e881c185d5cd95960821b60448201526064016106f2565b6040516370a0823160e01b81526001600160a01b038281166004830152600091908416906370a0823190602401602060405180830381865afa158015613421573d6000803e3d6000fd5b505050506040513d601f19601f820116820180604052508101906134459190613a9b565b90505b92915050565b604080516001600160a01b0385811660248301528481166044830152606480830185905283518084039091018152608490920183526020820180516001600160e01b03166323b872dd60e01b17905291516000928392908816916134b29190613c26565b6000604051808303816000865af19150503d80600081146134ef576040519150601f19603f3d011682016040523d82523d6000602084013e6134f4565b606091505b509150915081801561351e57508051158061351e57508080602001905181019061351e9190613acb565b61355e5760405162461bcd60e51b815260206004820152601160248201527021736166655472616e7366657246726f6d60781b60448201526064016106f2565b505050505050565b60008260ff168260ff16101561359a576135808284613ca0565b61358b90600a613d9d565b6135959085613c04565b6135b9565b6135a48383613ca0565b6135af90600a613d9d565b6135b99085613bed565b949350505050565b600080612710609f5460a3546135d79190613bed565b6134489190613c04565b6135e9613887565b6033805460ff191690557f5db9ee0a495bf2e6ff9c91a7834c1ba4fdd244a5e8aa4e537bd38aeae4b073aa335b6040516001600160a01b03909116815260200160405180910390a1565b61271060a05460a3546136469190613bed565b6136509190613c04565b811115610b915760405162461bcd60e51b815260206004820152602f60248201527f5f636865636b53696e676c65537761704c696d69742f73696e676c652d73776160448201526e1c0b595e18d959591ccb5b1a5b5a5d608a1b60648201526084016106f2565b62015180609d54426136c99190613b59565b106136de5742609d556136da6135c1565b609e555b80609e5410156137475760405162461bcd60e51b815260206004820152602e60248201527f5f757064617465416e64436865636b4461696c794c696d69742f6461696c792d60448201526d1b1a5b5a5d0b595e18d95959195960921b60648201526084016106f2565b80609e60008282546137599190613b59565b9091555050609e546040519081527f3ba6536311b1b8c63364031768ec0197123478d2fc4b4c54f710b85c32c12b31906020016119a1565b60a55433600090815260a860205260409020546137ae9043613b59565b106137d55733600090815260a86020908152604080832043905560a45460a7909252909120555b33600090815260a76020526040902054613859576040805162461bcd60e51b81526020600482015260248101919091527f5f757064617465416e64436865636b4e756d6265724f665377617073496e426c60448201527f6f636b735065724c696d69742f737761702d6c696d69742d657863656564656460648201526084016106f2565b33600090815260a7602052604090205461387590600190613b59565b33600090815260a76020526040902055565b60335460ff166133605760405162461bcd60e51b815260206004820152601460248201527314185d5cd8589b194e881b9bdd081c185d5cd95960621b60448201526064016106f2565b6138d8613391565b6033805460ff191660011790557f62e78cea01bee320cd4e420270b5ea74000d11b0c9f74754ebdbfc544b05a2586136163390565b600054610100900460ff166139345760405162461bcd60e51b81526004016106f290613c55565b6033805460ff19169055565b600054610100900460ff1661332a5760405162461bcd60e51b81526004016106f290613c55565b60006020828403121561397957600080fd5b5035919050565b6001600160a01b0381168114610b9157600080fd5b6000602082840312156139a757600080fd5b81356139b281613980565b9392505050565b8015158114610b9157600080fd5b6000602082840312156139d957600080fd5b81356139b2816139b9565b600080600080600080600060e0888a0312156139ff57600080fd5b8735613a0a81613980565b96506020880135613a1a81613980565b95506040880135613a2a81613980565b969995985095966060810135965060808101359560a0820135955060c0909101359350915050565b60008060408385031215613a6557600080fd5b8235613a7081613980565b946020939093013593505050565b600060208284031215613a9057600080fd5b81516139b281613980565b600060208284031215613aad57600080fd5b5051919050565b9182526001600160a01b0316602082015260400190565b600060208284031215613add57600080fd5b81516139b2816139b9565b6020808252600a9082015269216f776e6572526f6c6560b01b604082015260600190565b60208082526017908201527f21286f776e6572526f6c65206f7220676f76526f6c6529000000000000000000604082015260600190565b634e487b7160e01b600052601160045260246000fd5b8181038181111561344857613448613b43565b6020808252602b908201527f537461626c65537761704d6f64756c652f6e756d657261746f722d6f7665722d60408201526a3232b737b6b4b730ba37b960a91b606082015260800190565b8082018082111561344857613448613b43565b600060208284031215613bdc57600080fd5b815160ff811681146139b257600080fd5b808202811582820484141761344857613448613b43565b600082613c2157634e487b7160e01b600052601260045260246000fd5b500490565b6000825160005b81811015613c475760208186018101518583015201613c2d565b506000920191825250919050565b6020808252602b908201527f496e697469616c697a61626c653a20636f6e7472616374206973206e6f74206960408201526a6e697469616c697a696e6760a81b606082015260800190565b60ff828116828216039081111561344857613448613b43565b600181815b80851115613cf4578160001904821115613cda57613cda613b43565b80851615613ce757918102915b93841c9390800290613cbe565b509250929050565b600082613d0b57506001613448565b81613d1857506000613448565b8160018114613d2e5760028114613d3857613d54565b6001915050613448565b60ff841115613d4957613d49613b43565b50506001821b613448565b5060208310610133831016604e8410600b8410161715613d77575081810a613448565b613d818383613cb9565b8060001904821115613d9557613d95613b43565b029392505050565b600061344560ff841683613cfc56fe537461626c65537761704d6f64756c652f6c6573732d7468616e2d6d696e696da2646970667358221220370cca336d252ebf104aa01d5067574b0ad5078c5864c9aada6eb33a83c5b62964736f6c63430008110033",
  "immutableReferences": {},
  "source": "// SPDX-License-Identifier: AGPL-3.0-or-later\npragma solidity 0.8.17;\n\nimport \"@openzeppelin/contracts-upgradeable/access/OwnableUpgradeable.sol\";\nimport \"@openzeppelin/contracts-upgradeable/security/PausableUpgradeable.sol\";\nimport \"@openzeppelin/contracts-upgradeable/access/AccessControlUpgradeable.sol\";\nimport \"@openzeppelin/contracts-upgradeable/security/ReentrancyGuardUpgradeable.sol\";\n\nimport \"../interfaces/IToken.sol\";\nimport \"../interfaces/IStablecoinAdapter.sol\";\nimport \"../interfaces/IStablecoin.sol\";\nimport \"../interfaces/IBookKeeper.sol\";\nimport \"../interfaces/IStableSwapModule.sol\";\nimport \"../utils/SafeToken.sol\";\n\n// Stable Swap Module\n// Allows anyone to go between FUSD and the Token by pooling the liquidity\n// An optional fee is charged for incoming and outgoing transfers\ncontract StableSwapModule is PausableUpgradeable, ReentrancyGuardUpgradeable, IStableSwapModule {\n    using SafeToken for address;\n\n    IBookKeeper public bookKeeper;\n    address public stablecoin;\n    address public token;\n    bool public isDecentralizedState;\n    mapping(address => uint256) public tokenBalance;\n\n    uint256 public feeIn; // fee in [wad]\n    uint256 public feeOut; // fee out [wad]\n    uint256 public lastUpdate;\n\n    uint256 public remainingDailySwapAmount; // [wad]\n    uint256 public dailySwapLimitNumerator; \n    uint256 public singleSwapLimitNumerator;  \n    uint256 public totalTokenFeeBalance; // [wad]\n    uint256 public totalFXDFeeBalance; // [wad]\n    uint256 public totalValueDeposited;\n    uint256 public numberOfSwapsLimitPerUser; \n    uint256 public blocksPerLimit; \n\n    uint256 public constant DAILY_SWAP_LIMIT_DENOMINATOR = 10000;\n    uint256 public constant SINGLE_SWAP_LIMIT_DENOMINATOR = 10000;\n    uint256 public constant MINIMUM_DAILY_SWAP_LIMIT_NUMERATOR = 200; //200/10000 = 2%\n    uint256 public constant MINIMUM_SINGLE_SWAP_LIMIT_NUMERATOR = 20; //20/10000 = 0.2%\n    uint256 public constant MINIMUM_BLOCKS_PER_LIMIT = 1;\n    uint256 public constant MINIMUM_NUMBER_OF_SWAPS_LIMIT_PER_USER = 1;\n\n    uint256 public constant ONE_DAY = 86400;\n    uint256 constant WAD = 10**18;\n    \n    mapping(address => bool) public usersWhitelist;\n    mapping(address => uint256) public numberOfSwapsRemainingPerUserInBlockLimit;\n    mapping(address => uint256) public lastSwapBlockNumberPerUser;\n\n    event LogSetFeeIn(address indexed _caller, uint256 _feeIn);\n    event LogSetFeeOut(address indexed _caller, uint256 _feeOut);\n    event LogSwapTokenToStablecoin(address indexed _owner, uint256 _value, uint256 _fee);\n    event LogSwapStablecoinToToken(address indexed _owner, uint256 _value, uint256 _fee);\n    event LogDailySwapLimitUpdate(uint256 _newDailySwapLimit, uint256 _oldDailySwapLimit);\n    event LogSingleSwapLimitUpdate(uint256 _newSingleSwapLimit, uint256 _oldSingleSwapLimit);\n    event LogDepositToken(address indexed _owner, address indexed _token, uint256 _value);\n    event LogWithdrawFees(address indexed _destination, uint256 _stablecoinFee, uint256 _tokenFee);\n    event LogRemainingDailySwapAmount(uint256 _remainingDailySwapAmount);\n    event LogStableSwapPauseState(bool _pauseState);\n    event LogEmergencyWithdraw(address indexed _account);\n    event LogDecentralizedStateStatus(bool _oldDecentralizedStateStatus, bool _newDecentralizedStateStatus);\n    event LogAddToWhitelist(address indexed user);\n    event LogRemoveFromWhitelist(address indexed user);\n    event LogNumberOfSwapsLimitPerUserUpdate(uint256 _newNumberOfSwapsLimitPerUser, uint256 _oldNumberOfSwapsLimitPerUser);\n    event LogBlocksPerLimitUpdate(uint256 _newBlocksPerLimit, uint256 _oldBlocksPerLimit);\n\n    modifier onlyOwner() {\n        IAccessControlConfig _accessControlConfig = IAccessControlConfig(bookKeeper.accessControlConfig());\n        require(_accessControlConfig.hasRole(_accessControlConfig.OWNER_ROLE(), msg.sender), \"!ownerRole\");\n        _;\n    }\n\n    modifier onlyOwnerOrGov() {\n        IAccessControlConfig _accessControlConfig = IAccessControlConfig(IBookKeeper(bookKeeper).accessControlConfig());\n        require(\n            _accessControlConfig.hasRole(_accessControlConfig.OWNER_ROLE(), msg.sender) ||\n                _accessControlConfig.hasRole(_accessControlConfig.GOV_ROLE(), msg.sender),\n            \"!(ownerRole or govRole)\"\n        );\n        _;\n    }\n\n    modifier onlyWhitelistedIfNotDecentralized(){\n        if(!isDecentralizedState){\n            require(usersWhitelist[msg.sender],\"user-not-whitelisted\");\n        }\n        _;\n    }\n\n    function initialize(\n        address _bookKeeper,\n        address _token,\n        address _stablecoin,\n        uint256 _dailySwapLimitNumerator,\n        uint256 _singleSwapLimitNumerator,\n        uint256 _numberOfSwapsLimitPerUser,\n        uint256 _blocksPerLimit\n    ) external initializer {\n        PausableUpgradeable.__Pausable_init();\n        ReentrancyGuardUpgradeable.__ReentrancyGuard_init();\n        require(_dailySwapLimitNumerator >= MINIMUM_DAILY_SWAP_LIMIT_NUMERATOR, \"initialize/less-than-minimum-daily-swap-limit\");\n        require(_singleSwapLimitNumerator >= MINIMUM_SINGLE_SWAP_LIMIT_NUMERATOR, \"initialize/less-than-minimum-single-swap-limit\");\n        require(_numberOfSwapsLimitPerUser >= MINIMUM_NUMBER_OF_SWAPS_LIMIT_PER_USER, \"initialize/less-than-minimum-number-of-swaps-limit-per-user\");\n        require(_blocksPerLimit >= MINIMUM_BLOCKS_PER_LIMIT, \"initialize/less-than-minimum-blocks-per-limit\");\n\n        bookKeeper = IBookKeeper(_bookKeeper);\n        stablecoin = _stablecoin;\n        token = _token;\n        dailySwapLimitNumerator = _dailySwapLimitNumerator;\n        singleSwapLimitNumerator = _singleSwapLimitNumerator;\n        numberOfSwapsLimitPerUser = _numberOfSwapsLimitPerUser;\n        blocksPerLimit = _blocksPerLimit;\n    }\n\n    function setDailySwapLimitNumerator(uint256 newdailySwapLimitNumerator) external onlyOwner {\n        require(newdailySwapLimitNumerator <= DAILY_SWAP_LIMIT_DENOMINATOR,\"StableSwapModule/numerator-over-denominator\");\n        require(newdailySwapLimitNumerator >= MINIMUM_DAILY_SWAP_LIMIT_NUMERATOR, \"StableSwapModule/less-than-minimum-daily-swap-limit\");\n        emit LogDailySwapLimitUpdate(newdailySwapLimitNumerator, dailySwapLimitNumerator);\n        dailySwapLimitNumerator = newdailySwapLimitNumerator;\n        if(isDecentralizedState){\n            lastUpdate = block.timestamp;\n            remainingDailySwapAmount = _dailySwapLimit();\n        }\n    }\n\n    function setSingleSwapLimitNumerator(uint256 newSingleSwapLimitNumerator) external onlyOwner {\n        require(newSingleSwapLimitNumerator <= SINGLE_SWAP_LIMIT_DENOMINATOR,\"StableSwapModule/numerator-over-denominator\");\n        require(newSingleSwapLimitNumerator >= MINIMUM_SINGLE_SWAP_LIMIT_NUMERATOR, \"StableSwapModule/less-than-minimum-single-swap-limit\");\n        emit LogSingleSwapLimitUpdate(newSingleSwapLimitNumerator, singleSwapLimitNumerator);\n        singleSwapLimitNumerator = newSingleSwapLimitNumerator;\n    }\n    function setNumberOfSwapsLimitPerUser(uint256 newNumberOfSwapsLimitPerUser) external onlyOwner {\n        require(newNumberOfSwapsLimitPerUser >= MINIMUM_NUMBER_OF_SWAPS_LIMIT_PER_USER, \"StableSwapModule/less-than-minimum-number-of-swaps-limit-per-user\");\n        emit LogNumberOfSwapsLimitPerUserUpdate(newNumberOfSwapsLimitPerUser, numberOfSwapsLimitPerUser);\n        numberOfSwapsLimitPerUser = newNumberOfSwapsLimitPerUser;\n    }\n    function setBlocksPerLimit(uint256 newBlocksPerLimit) external onlyOwner {\n        require(newBlocksPerLimit >= MINIMUM_BLOCKS_PER_LIMIT, \"StableSwapModule/less-than-minimum-blocks-per-limit\");\n        emit LogBlocksPerLimitUpdate(newBlocksPerLimit, blocksPerLimit);\n        blocksPerLimit = newBlocksPerLimit;\n    }\n    function setFeeIn(uint256 _feeIn) external onlyOwner {\n        require(_feeIn <= 5 * 1e17, \"StableSwapModule/invalid-fee-in\"); // Max feeIn is 0.5 Ethers or 50%\n        feeIn = _feeIn;\n        emit LogSetFeeIn(msg.sender, _feeIn);\n    }\n\n    function setFeeOut(uint256 _feeOut) external onlyOwner {\n        require(_feeOut <= 5 * 1e17, \"StableSwapModule/invalid-fee-out\"); // Max feeOut is 0.5 Ethers or 50%\n        feeOut = _feeOut;\n        emit LogSetFeeOut(msg.sender, _feeOut);\n    }\n\n    function setDecentralizedStatesStatus(bool _status) external onlyOwner{\n        isDecentralizedState = _status;\n        emit LogDecentralizedStateStatus(isDecentralizedState, _status);\n    }\n\n    function addToWhitelist(address _user) external onlyOwner{\n        usersWhitelist[_user] = true;\n        emit LogAddToWhitelist(_user);\n    }\n\n    function removeFromWhitelist(address _user) external onlyOwner{\n        usersWhitelist[_user] = false;\n        emit LogRemoveFromWhitelist(_user);\n    }\n\n    function isUserWhitelisted(address _user) external view returns(bool){\n        return usersWhitelist[_user];\n    }\n    \n    function swapTokenToStablecoin(address _usr, uint256 _amount) external override whenNotPaused onlyWhitelistedIfNotDecentralized() nonReentrant  {\n        require(_amount != 0, \"StableSwapModule/amount-zero\");\n\n        uint256 tokenAmount18 = _convertDecimals(_amount, IToken(token).decimals(), 18);\n        uint256 fee = (tokenAmount18 * feeIn) / WAD;\n        uint256 stablecoinAmount = tokenAmount18 - fee;\n        require(tokenBalance[stablecoin] >= stablecoinAmount, \"swapTokenToStablecoin/not-enough-stablecoin-balance\");\n        \n        if(isDecentralizedState){\n            _checkSingleSwapLimit(tokenAmount18);\n            _updateAndCheckDailyLimit(tokenAmount18);\n            _updateAndCheckNumberOfSwapsInBlocksPerLimit();\n        }\n\n        tokenBalance[stablecoin] -= stablecoinAmount;\n        tokenBalance[token] += _amount;\n        totalFXDFeeBalance += fee;\n\n        token.safeTransferFrom(msg.sender, address(this), _amount);\n        stablecoin.safeTransfer(_usr, stablecoinAmount);\n        emit LogSwapTokenToStablecoin(_usr, _amount, fee);\n    }\n\n    function swapStablecoinToToken(address _usr, uint256 _amount) external override whenNotPaused onlyWhitelistedIfNotDecentralized() nonReentrant  {\n        require(_amount != 0, \"StableSwapModule/amount-zero\");\n        \n        uint256 fee = (_amount * feeOut) / WAD;\n        uint256 tokenAmount = _convertDecimals(_amount - fee, 18, IToken(token).decimals());\n        \n        require(tokenBalance[token] >= tokenAmount, \"swapStablecoinToToken/not-enough-token-balance\");\n        \n        if(isDecentralizedState){\n            _checkSingleSwapLimit(_amount);\n            _updateAndCheckDailyLimit(_amount);\n            _updateAndCheckNumberOfSwapsInBlocksPerLimit();\n        }\n\n        tokenBalance[token] -= tokenAmount;\n        tokenBalance[stablecoin] += _amount;\n        totalTokenFeeBalance += _convertDecimals(fee, 18, IToken(token).decimals());\n\n        stablecoin.safeTransferFrom(msg.sender, address(this), _amount);\n        token.safeTransfer(_usr, tokenAmount);\n        emit LogSwapStablecoinToToken(_usr, _amount, fee);\n    }\n\n    function depositToken(address _token, uint256 _amount) external override nonReentrant whenNotPaused onlyOwnerOrGov {\n        require(_token == token || _token == stablecoin, \"depositStablecoin/invalid-token\");\n        require(_amount != 0, \"depositStablecoin/amount-zero\");\n        require(_token.balanceOf(msg.sender) >= _amount, \"depositStablecoin/not-enough-balance\");\n        tokenBalance[_token] += _amount;\n        _token.safeTransferFrom(msg.sender, address(this), _amount);\n        totalValueDeposited += _convertDecimals(_amount, IToken(_token).decimals(),18);\n\n        if(isDecentralizedState){\n            lastUpdate = block.timestamp;\n            remainingDailySwapAmount = _dailySwapLimit();\n        }\n\n        emit LogDepositToken(msg.sender, _token, _amount);\n    }\n\n    function withdrawFees(address _destination) external override nonReentrant onlyOwnerOrGov {\n        require(_destination != address(0), \"withdrawFees/wrong-destination\");\n        require(totalFXDFeeBalance != 0 || totalTokenFeeBalance != 0, \"withdrawFees/no-fee-balance\");\n        uint256 pendingFXDBalance = totalFXDFeeBalance;\n        if(pendingFXDBalance !=0) {\n            totalFXDFeeBalance = 0;\n            tokenBalance[stablecoin] -= pendingFXDBalance;\n            stablecoin.safeTransfer(_destination, pendingFXDBalance);\n        }\n        uint256 pendingTokenBalance = totalTokenFeeBalance;\n        if(pendingTokenBalance !=0) {\n            totalTokenFeeBalance = 0;\n            tokenBalance[token] -= pendingTokenBalance;\n            token.safeTransfer(_destination, pendingTokenBalance);\n        }\n\n        emit LogWithdrawFees(_destination, pendingFXDBalance, pendingTokenBalance);\n    }\n\n    function pause() external onlyOwnerOrGov {\n        _pause();\n        emit LogStableSwapPauseState(true);\n    }\n\n    function unpause() external onlyOwnerOrGov {\n        _unpause();\n        emit LogStableSwapPauseState(false);\n    }\n\n    function emergencyWithdraw(address _account) external override nonReentrant onlyOwnerOrGov whenPaused {\n        require(_account != address(0), \"withdrawFees/empty-account\");\n        tokenBalance[token] = 0;\n        tokenBalance[stablecoin] = 0;\n        token.safeTransfer(_account, token.balanceOf(address(this)));\n        stablecoin.safeTransfer(_account, stablecoin.balanceOf(address(this)));\n        emit LogEmergencyWithdraw(_account);\n    }\n\n    function totalValueLocked() external view returns(uint256) {\n        return tokenBalance[stablecoin] + _convertDecimals(tokenBalance[token], IToken(token).decimals(),18);\n    }\n\n    function _updateAndCheckDailyLimit(uint256 _amount) internal {\n        if (block.timestamp - lastUpdate >= ONE_DAY) {\n            lastUpdate = block.timestamp;\n            remainingDailySwapAmount = _dailySwapLimit();\n        }\n        require(remainingDailySwapAmount >= _amount, \"_updateAndCheckDailyLimit/daily-limit-exceeded\");\n        remainingDailySwapAmount -= _amount;\n        emit LogRemainingDailySwapAmount(remainingDailySwapAmount);\n    }\n\n    function _checkSingleSwapLimit(uint256 _amount) view internal {\n        require(_amount<= totalValueDeposited * singleSwapLimitNumerator / SINGLE_SWAP_LIMIT_DENOMINATOR,\n                \"_checkSingleSwapLimit/single-swap-exceeds-limit\");\n    }\n\n    function _dailySwapLimit() internal view returns (uint256){\n        uint256 newDailySwapLimit = totalValueDeposited * dailySwapLimitNumerator / DAILY_SWAP_LIMIT_DENOMINATOR;\n        return newDailySwapLimit;\n    }\n\n    function _updateAndCheckNumberOfSwapsInBlocksPerLimit() internal {\n        if (block.number - lastSwapBlockNumberPerUser[msg.sender] >= blocksPerLimit) {\n            lastSwapBlockNumberPerUser[msg.sender] = block.number;\n            numberOfSwapsRemainingPerUserInBlockLimit[msg.sender] = numberOfSwapsLimitPerUser;\n        }\n        require(numberOfSwapsRemainingPerUserInBlockLimit[msg.sender] > 0, \"_updateAndCheckNumberOfSwapsInBlocksPerLimit/swap-limit-exceeded\");\n        numberOfSwapsRemainingPerUserInBlockLimit[msg.sender] = numberOfSwapsRemainingPerUserInBlockLimit[msg.sender] - 1;\n    }\n\n    function _convertDecimals(\n        uint256 _amount,\n        uint8 _fromDecimals,\n        uint8 _toDecimals\n    ) internal pure returns (uint256 result) {\n        result = _toDecimals >= _fromDecimals ? _amount * (10**(_toDecimals - _fromDecimals)) : _amount / (10**(_fromDecimals - _toDecimals));\n    }\n}\n",
  "sourcePath": "/Users/subiksinghshrestha/Documents/FATHOM/fathom-stablecoin-smart-contracts/contracts/main/stablecoin-core/StableSwapModule.sol",
  "compiler": {
    "name": "solc",
    "version": "0.8.17+commit.8df45f5f.Emscripten.clang"
  },
  "schemaVersion": "3.4.10",
  "updatedAt": "2023-04-04T11:45:08.722Z",
  "devdoc": {
    "kind": "dev",
    "methods": {
      "paused()": {
        "details": "Returns true if the contract is paused, and false otherwise."
      }
    },
    "version": 1
  },
  "userdoc": {
    "kind": "user",
    "methods": {},
    "version": 1
  }
}