{
  "_format": "hh-sol-artifact-1",
  "contractName": "StablecoinAdapter",
  "sourceName": "contracts/6.12/stablecoin-core/adapters/StablecoinAdapter.sol",
  "abi": [
    {
      "inputs": [
        {
          "internalType": "address",
          "name": "_bookKeeper",
          "type": "address"
        },
        {
          "internalType": "address",
          "name": "_stablecoin",
          "type": "address"
        }
      ],
      "stateMutability": "nonpayable",
      "type": "constructor"
    },
    {
      "anonymous": false,
      "inputs": [],
      "name": "LogCage",
      "type": "event"
    },
    {
      "anonymous": false,
      "inputs": [],
      "name": "LogUncage",
      "type": "event"
    },
    {
      "inputs": [],
      "name": "bookKeeper",
      "outputs": [
        {
          "internalType": "contract IBookKeeper",
          "name": "",
          "type": "address"
        }
      ],
      "stateMutability": "view",
      "type": "function"
    },
    {
      "inputs": [],
      "name": "cage",
      "outputs": [],
      "stateMutability": "nonpayable",
      "type": "function"
    },
    {
      "inputs": [
        {
          "internalType": "address",
          "name": "usr",
          "type": "address"
        },
        {
          "internalType": "uint256",
          "name": "wad",
          "type": "uint256"
        },
        {
          "internalType": "bytes",
          "name": "",
          "type": "bytes"
        }
      ],
      "name": "deposit",
      "outputs": [],
      "stateMutability": "payable",
      "type": "function"
    },
    {
      "inputs": [],
      "name": "live",
      "outputs": [
        {
          "internalType": "uint256",
          "name": "",
          "type": "uint256"
        }
      ],
      "stateMutability": "view",
      "type": "function"
    },
    {
      "inputs": [],
      "name": "stablecoin",
      "outputs": [
        {
          "internalType": "contract IStablecoin",
          "name": "",
          "type": "address"
        }
      ],
      "stateMutability": "view",
      "type": "function"
    },
    {
      "inputs": [],
      "name": "uncage",
      "outputs": [],
      "stateMutability": "nonpayable",
      "type": "function"
    },
    {
      "inputs": [
        {
          "internalType": "address",
          "name": "usr",
          "type": "address"
        },
        {
          "internalType": "uint256",
          "name": "wad",
          "type": "uint256"
        },
        {
          "internalType": "bytes",
          "name": "",
          "type": "bytes"
        }
      ],
      "name": "withdraw",
      "outputs": [],
      "stateMutability": "nonpayable",
      "type": "function"
    }
  ],
  "bytecode": "0x608060405234801561001057600080fd5b5060405161067f38038061067f8339818101604052604081101561003357600080fd5b50805160209091015160016002819055600080546001600160a01b03199081166001600160a01b03958616178255825416939092169290921790915561060090819061007f90396000f3fe6080604052600436106100705760003560e01c8063957aa58c1161004e578063957aa58c146101a3578063d63b23b2146101ca578063e3b3932a146101df578063e9cbd8221461021057610070565b806331f092651461007557806349bdc2b814610109578063692450091461018e575b600080fd5b34801561008157600080fd5b506101076004803603606081101561009857600080fd5b6001600160a01b03823516916020810135918101906060810160408201356401000000008111156100c857600080fd5b8201836020820111156100da57600080fd5b803590602001918460018302840111640100000000831117156100fc57600080fd5b509092509050610225565b005b6101076004803603606081101561011f57600080fd5b6001600160a01b038235169160208101359181019060608101604082013564010000000081111561014f57600080fd5b82018360208201111561016157600080fd5b8035906020019184600183028401116401000000008311171561018357600080fd5b509092509050610386565b34801561019a57600080fd5b50610107610470565b3480156101af57600080fd5b506101b86104f7565b60408051918252519081900360200190f35b3480156101d657600080fd5b506101076104fd565b3480156101eb57600080fd5b506101f4610582565b604080516001600160a01b039092168252519081900360200190f35b34801561021c57600080fd5b506101f4610591565b60025460011461027c576040805162461bcd60e51b815260206004820152601a60248201527f537461626c65636f696e416461707465722f6e6f742d6c697665000000000000604482015290519081900360640190fd5b6000546001600160a01b0316638c15785433306102a56b033b2e3c9fd0803ce8000000886105a0565b6040518463ffffffff1660e01b815260040180846001600160a01b03168152602001836001600160a01b031681526020018281526020019350505050600060405180830381600087803b1580156102fb57600080fd5b505af115801561030f573d6000803e3d6000fd5b5050600154604080516340c10f1960e01b81526001600160a01b0389811660048301526024820189905291519190921693506340c10f199250604480830192600092919082900301818387803b15801561036857600080fd5b505af115801561037c573d6000803e3d6000fd5b5050505050505050565b6000546001600160a01b0316638c15785430866103af6b033b2e3c9fd0803ce8000000886105a0565b6040518463ffffffff1660e01b815260040180846001600160a01b03168152602001836001600160a01b031681526020018281526020019350505050600060405180830381600087803b15801561040557600080fd5b505af1158015610419573d6000803e3d6000fd5b505060015460408051632770a7eb60e21b81523360048201526024810188905290516001600160a01b039092169350639dc29fac925060448082019260009290919082900301818387803b15801561036857600080fd5b6002546001146104c7576040805162461bcd60e51b815260206004820152601a60248201527f537461626c65636f696e416461707465722f6e6f742d6c697665000000000000604482015290519081900360640190fd5b600060028190556040517fbf689b4aae670d200b1d2b971ace2e0c3bef88a9c5e93f36705c7b86eab630b99190a1565b60025481565b60025415610552576040805162461bcd60e51b815260206004820152601b60248201527f537461626c65636f696e416461707465722f6e6f742d63616765640000000000604482015290519081900360640190fd5b60016002556040517f1868a6ced217213f36be87ba9aee25cde5381b42e85c8f88e73b18772c0bd07390600090a1565b6000546001600160a01b031681565b6001546001600160a01b031681565b60008115806105bb575050808202828282816105b857fe5b04145b6105c457600080fd5b9291505056fea2646970667358221220b543c815a8e5ba5ec75d6f870c5178328a5e502d55399116cc118b86b8ea59cd64736f6c634300060c0033",
  "linkReferences": {},
  "deployedLinkReferences": {}
}