{
    "contractName": "StablecoinAdapter",
    "abi": [
        {
            "anonymous": false,
            "inputs": [
                {
                    "indexed": false,
                    "internalType": "uint8",
                    "name": "version",
                    "type": "uint8"
                }
            ],
            "name": "Initialized",
            "type": "event"
        },
        {
            "anonymous": false,
            "inputs": [],
            "name": "LogCage",
            "type": "event"
        },
        {
            "anonymous": false,
            "inputs": [],
            "name": "LogUncage",
            "type": "event"
        },
        {
            "anonymous": false,
            "inputs": [
                {
                    "indexed": false,
                    "internalType": "address",
                    "name": "account",
                    "type": "address"
                }
            ],
            "name": "Paused",
            "type": "event"
        },
        {
            "anonymous": false,
            "inputs": [
                {
                    "indexed": false,
                    "internalType": "address",
                    "name": "account",
                    "type": "address"
                }
            ],
            "name": "Unpaused",
            "type": "event"
        },
        {
            "inputs": [],
            "name": "bookKeeper",
            "outputs": [
                {
                    "internalType": "contract IBookKeeper",
                    "name": "",
                    "type": "address"
                }
            ],
            "stateMutability": "view",
            "type": "function"
        },
        {
            "inputs": [],
            "name": "live",
            "outputs": [
                {
                    "internalType": "uint256",
                    "name": "",
                    "type": "uint256"
                }
            ],
            "stateMutability": "view",
            "type": "function"
        },
        {
            "inputs": [],
            "name": "paused",
            "outputs": [
                {
                    "internalType": "bool",
                    "name": "",
                    "type": "bool"
                }
            ],
            "stateMutability": "view",
            "type": "function"
        },
        {
            "inputs": [],
            "name": "stablecoin",
            "outputs": [
                {
                    "internalType": "contract IStablecoin",
                    "name": "",
                    "type": "address"
                }
            ],
            "stateMutability": "view",
            "type": "function"
        },
        {
            "inputs": [
                {
                    "internalType": "address",
                    "name": "_bookKeeper",
                    "type": "address"
                },
                {
                    "internalType": "address",
                    "name": "_stablecoin",
                    "type": "address"
                }
            ],
            "name": "initialize",
            "outputs": [],
            "stateMutability": "nonpayable",
            "type": "function"
        },
        {
            "inputs": [],
            "name": "cage",
            "outputs": [],
            "stateMutability": "nonpayable",
            "type": "function"
        },
        {
            "inputs": [],
            "name": "uncage",
            "outputs": [],
            "stateMutability": "nonpayable",
            "type": "function"
        },
        {
            "inputs": [
                {
                    "internalType": "address",
                    "name": "usr",
                    "type": "address"
                },
                {
                    "internalType": "uint256",
                    "name": "wad",
                    "type": "uint256"
                },
                {
                    "internalType": "bytes",
                    "name": "",
                    "type": "bytes"
                }
            ],
            "name": "deposit",
            "outputs": [],
            "stateMutability": "payable",
            "type": "function"
        },
        {
            "inputs": [
                {
                    "internalType": "address",
                    "name": "usr",
                    "type": "address"
                },
                {
                    "internalType": "uint256",
                    "name": "ray",
                    "type": "uint256"
                },
                {
                    "internalType": "bytes",
                    "name": "",
                    "type": "bytes"
                }
            ],
            "name": "depositRAD",
            "outputs": [],
            "stateMutability": "payable",
            "type": "function"
        },
        {
            "inputs": [
                {
                    "internalType": "address",
                    "name": "usr",
                    "type": "address"
                },
                {
                    "internalType": "uint256",
                    "name": "wad",
                    "type": "uint256"
                },
                {
                    "internalType": "bytes",
                    "name": "",
                    "type": "bytes"
                }
            ],
            "name": "withdraw",
            "outputs": [],
            "stateMutability": "nonpayable",
            "type": "function"
        },
        {
            "inputs": [],
            "name": "pause",
            "outputs": [],
            "stateMutability": "nonpayable",
            "type": "function"
        },
        {
            "inputs": [],
            "name": "unpause",
            "outputs": [],
            "stateMutability": "nonpayable",
            "type": "function"
        }
    ],
    "bytecode": "0x608060405234801561001057600080fd5b506115d2806100206000396000f3fe6080604052600436106100a75760003560e01c8063692450091161006457806369245009146101515780638456cb5914610166578063957aa58c1461017b578063d63b23b21461019f578063e3b3932a146101b4578063e9cbd822146101ec57600080fd5b806331f09265146100ac5780633f4ba83a146100ce578063485cc955146100e357806349bdc2b8146101035780635c975abb14610116578063653623ab1461013e575b600080fd5b3480156100b857600080fd5b506100cc6100c73660046113ce565b61020c565b005b3480156100da57600080fd5b506100cc61037a565b3480156100ef57600080fd5b506100cc6100fe366004611457565b6105ef565b6100cc6101113660046113ce565b61073f565b34801561012257600080fd5b5060335460ff1660405190151581526020015b60405180910390f35b6100cc61014c3660046113ce565b610816565b34801561015d57600080fd5b506100cc6108f8565b34801561017257600080fd5b506100cc610beb565b34801561018757600080fd5b5061019160995481565b604051908152602001610135565b3480156101ab57600080fd5b506100cc610e5d565b3480156101c057600080fd5b506097546101d4906001600160a01b031681565b6040516001600160a01b039091168152602001610135565b3480156101f857600080fd5b506098546101d4906001600160a01b031681565b61021461114e565b61021c6111a7565b6099546001146102735760405162461bcd60e51b815260206004820152601a60248201527f537461626c65636f696e416461707465722f6e6f742d6c69766500000000000060448201526064015b60405180910390fd5b6097546001600160a01b0316638c157854333061029c6b033b2e3c9fd0803ce8000000886111ef565b6040516001600160e01b031960e086901b1681526001600160a01b0393841660048201529290911660248301526044820152606401600060405180830381600087803b1580156102eb57600080fd5b505af11580156102ff573d6000803e3d6000fd5b50506098546040516340c10f1960e01b81526001600160a01b0388811660048301526024820188905290911692506340c10f1991506044015b600060405180830381600087803b15801561035257600080fd5b505af1158015610366573d6000803e3d6000fd5b505050506103746001606555565b50505050565b6097546040805163c8cc243f60e01b815290516000926001600160a01b03169163c8cc243f9160048083019260209291908290030181865afa1580156103c4573d6000803e3d6000fd5b505050506040513d601f19601f820116820180604052508101906103e89190611490565b9050806001600160a01b03166391d14854826001600160a01b031663e58378bb6040518163ffffffff1660e01b8152600401602060405180830381865afa158015610437573d6000803e3d6000fd5b505050506040513d601f19601f8201168201806040525081019061045b91906114b4565b6040516001600160e01b031960e084901b1681526004810191909152336024820152604401602060405180830381865afa15801561049d573d6000803e3d6000fd5b505050506040513d601f19601f820116820180604052508101906104c191906114cd565b8061059e5750806001600160a01b03166391d14854826001600160a01b031663b536818a6040518163ffffffff1660e01b8152600401602060405180830381865afa158015610514573d6000803e3d6000fd5b505050506040513d601f19601f8201168201806040525081019061053891906114b4565b6040516001600160e01b031960e084901b1681526004810191909152336024820152604401602060405180830381865afa15801561057a573d6000803e3d6000fd5b505050506040513d601f19601f8201168201806040525081019061059e91906114cd565b6105e45760405162461bcd60e51b815260206004820152601760248201527621286f776e6572526f6c65206f7220676f76526f6c652960481b604482015260640161026a565b6105ec611229565b50565b600054610100900460ff161580801561060f5750600054600160ff909116105b806106295750303b158015610629575060005460ff166001145b61068c5760405162461bcd60e51b815260206004820152602e60248201527f496e697469616c697a61626c653a20636f6e747261637420697320616c72656160448201526d191e481a5b9a5d1a585b1a5e995960921b606482015260840161026a565b6000805460ff1916600117905580156106af576000805461ff0019166101001790555b6106b761127b565b6106bf6112aa565b6001609955609780546001600160a01b038086166001600160a01b0319928316179092556098805492851692909116919091179055801561073a576000805461ff0019169055604051600181527f7f26b83ff96e1f2b6a682f133852f6798a09c465da95921460cefb38474024989060200160405180910390a15b505050565b61074761114e565b61074f6111a7565b6097546001600160a01b0316638c15785430866107786b033b2e3c9fd0803ce8000000886111ef565b6040516001600160e01b031960e086901b1681526001600160a01b0393841660048201529290911660248301526044820152606401600060405180830381600087803b1580156107c757600080fd5b505af11580156107db573d6000803e3d6000fd5b5050609854604051632770a7eb60e21b8152336004820152602481018790526001600160a01b039091169250639dc29fac9150604401610338565b61081e61114e565b6108266111a7565b6097546040516323055e1560e21b81523060048201526001600160a01b0386811660248301526044820186905290911690638c15785490606401600060405180830381600087803b15801561087a57600080fd5b505af115801561088e573d6000803e3d6000fd5b50506098546001600160a01b03169150639dc29fac9050336108bc6b033b2e3c9fd0803ce800000087611505565b6108c7906001611527565b6040516001600160e01b031960e085901b1681526001600160a01b0390921660048301526024820152604401610338565b6097546040805163c8cc243f60e01b815290516000926001600160a01b03169163c8cc243f9160048083019260209291908290030181865afa158015610942573d6000803e3d6000fd5b505050506040513d601f19601f820116820180604052508101906109669190611490565b9050806001600160a01b03166391d14854826001600160a01b031663e58378bb6040518163ffffffff1660e01b8152600401602060405180830381865afa1580156109b5573d6000803e3d6000fd5b505050506040513d601f19601f820116820180604052508101906109d991906114b4565b6040516001600160e01b031960e084901b1681526004810191909152336024820152604401602060405180830381865afa158015610a1b573d6000803e3d6000fd5b505050506040513d601f19601f82011682018060405250810190610a3f91906114cd565b80610b1c5750806001600160a01b03166391d14854826001600160a01b031663d7a47a696040518163ffffffff1660e01b8152600401602060405180830381865afa158015610a92573d6000803e3d6000fd5b505050506040513d601f19601f82011682018060405250810190610ab691906114b4565b6040516001600160e01b031960e084901b1681526004810191909152336024820152604401602060405180830381865afa158015610af8573d6000803e3d6000fd5b505050506040513d601f19601f82011682018060405250810190610b1c91906114cd565b610b685760405162461bcd60e51b815260206004820152601f60248201527f21286f776e6572526f6c65206f722073686f7753746f70706572526f6c652900604482015260640161026a565b609954600114610bba5760405162461bcd60e51b815260206004820152601a60248201527f537461626c65636f696e416461707465722f6e6f742d6c697665000000000000604482015260640161026a565b600060998190556040517fbf689b4aae670d200b1d2b971ace2e0c3bef88a9c5e93f36705c7b86eab630b99190a150565b6097546040805163c8cc243f60e01b815290516000926001600160a01b03169163c8cc243f9160048083019260209291908290030181865afa158015610c35573d6000803e3d6000fd5b505050506040513d601f19601f82011682018060405250810190610c599190611490565b9050806001600160a01b03166391d14854826001600160a01b031663e58378bb6040518163ffffffff1660e01b8152600401602060405180830381865afa158015610ca8573d6000803e3d6000fd5b505050506040513d601f19601f82011682018060405250810190610ccc91906114b4565b6040516001600160e01b031960e084901b1681526004810191909152336024820152604401602060405180830381865afa158015610d0e573d6000803e3d6000fd5b505050506040513d601f19601f82011682018060405250810190610d3291906114cd565b80610e0f5750806001600160a01b03166391d14854826001600160a01b031663b536818a6040518163ffffffff1660e01b8152600401602060405180830381865afa158015610d85573d6000803e3d6000fd5b505050506040513d601f19601f82011682018060405250810190610da991906114b4565b6040516001600160e01b031960e084901b1681526004810191909152336024820152604401602060405180830381865afa158015610deb573d6000803e3d6000fd5b505050506040513d601f19601f82011682018060405250810190610e0f91906114cd565b610e555760405162461bcd60e51b815260206004820152601760248201527621286f776e6572526f6c65206f7220676f76526f6c652960481b604482015260640161026a565b6105ec6112d9565b6097546040805163c8cc243f60e01b815290516000926001600160a01b03169163c8cc243f9160048083019260209291908290030181865afa158015610ea7573d6000803e3d6000fd5b505050506040513d601f19601f82011682018060405250810190610ecb9190611490565b9050806001600160a01b03166391d14854826001600160a01b031663e58378bb6040518163ffffffff1660e01b8152600401602060405180830381865afa158015610f1a573d6000803e3d6000fd5b505050506040513d601f19601f82011682018060405250810190610f3e91906114b4565b6040516001600160e01b031960e084901b1681526004810191909152336024820152604401602060405180830381865afa158015610f80573d6000803e3d6000fd5b505050506040513d601f19601f82011682018060405250810190610fa491906114cd565b806110815750806001600160a01b03166391d14854826001600160a01b031663d7a47a696040518163ffffffff1660e01b8152600401602060405180830381865afa158015610ff7573d6000803e3d6000fd5b505050506040513d601f19601f8201168201806040525081019061101b91906114b4565b6040516001600160e01b031960e084901b1681526004810191909152336024820152604401602060405180830381865afa15801561105d573d6000803e3d6000fd5b505050506040513d601f19601f8201168201806040525081019061108191906114cd565b6110cd5760405162461bcd60e51b815260206004820152601f60248201527f21286f776e6572526f6c65206f722073686f7753746f70706572526f6c652900604482015260640161026a565b6099541561111d5760405162461bcd60e51b815260206004820152601b60248201527f537461626c65636f696e416461707465722f6e6f742d63616765640000000000604482015260640161026a565b60016099556040517f1868a6ced217213f36be87ba9aee25cde5381b42e85c8f88e73b18772c0bd07390600090a150565b6002606554036111a05760405162461bcd60e51b815260206004820152601f60248201527f5265656e7472616e637947756172643a207265656e7472616e742063616c6c00604482015260640161026a565b6002606555565b60335460ff16156111ed5760405162461bcd60e51b815260206004820152601060248201526f14185d5cd8589b194e881c185d5cd95960821b604482015260640161026a565b565b600081158061121357508282611205818361153a565b92506112119083611505565b145b61121c57600080fd5b92915050565b6001606555565b611231611316565b6033805460ff191690557f5db9ee0a495bf2e6ff9c91a7834c1ba4fdd244a5e8aa4e537bd38aeae4b073aa335b6040516001600160a01b03909116815260200160405180910390a1565b600054610100900460ff166112a25760405162461bcd60e51b815260040161026a90611551565b6111ed61135f565b600054610100900460ff166112d15760405162461bcd60e51b815260040161026a90611551565b6111ed611392565b6112e16111a7565b6033805460ff191660011790557f62e78cea01bee320cd4e420270b5ea74000d11b0c9f74754ebdbfc544b05a25861125e3390565b60335460ff166111ed5760405162461bcd60e51b815260206004820152601460248201527314185d5cd8589b194e881b9bdd081c185d5cd95960621b604482015260640161026a565b600054610100900460ff166113865760405162461bcd60e51b815260040161026a90611551565b6033805460ff19169055565b600054610100900460ff166112225760405162461bcd60e51b815260040161026a90611551565b6001600160a01b03811681146105ec57600080fd5b600080600080606085870312156113e457600080fd5b84356113ef816113b9565b935060208501359250604085013567ffffffffffffffff8082111561141357600080fd5b818701915087601f83011261142757600080fd5b81358181111561143657600080fd5b88602082850101111561144857600080fd5b95989497505060200194505050565b6000806040838503121561146a57600080fd5b8235611475816113b9565b91506020830135611485816113b9565b809150509250929050565b6000602082840312156114a257600080fd5b81516114ad816113b9565b9392505050565b6000602082840312156114c657600080fd5b5051919050565b6000602082840312156114df57600080fd5b815180151581146114ad57600080fd5b634e487b7160e01b600052601160045260246000fd5b60008261152257634e487b7160e01b600052601260045260246000fd5b500490565b8082018082111561121c5761121c6114ef565b808202811582820484141761121c5761121c6114ef565b6020808252602b908201527f496e697469616c697a61626c653a20636f6e7472616374206973206e6f74206960408201526a6e697469616c697a696e6760a81b60608201526080019056fea26469706673582212206ea564ce19427251c4ad3e3e00b7045300073eaca52bdc096bee4d01e593c60664736f6c63430008110033",
    "immutableReferences": {},
    "source": "// SPDX-License-Identifier: AGPL-3.0-or-later\npragma solidity 0.8.17;\n\nimport \"@openzeppelin/contracts-upgradeable/security/PausableUpgradeable.sol\";\nimport \"@openzeppelin/contracts-upgradeable/access/AccessControlUpgradeable.sol\";\nimport \"@openzeppelin/contracts-upgradeable/security/ReentrancyGuardUpgradeable.sol\";\nimport \"../../interfaces/IStablecoin.sol\";\nimport \"../../interfaces/IBookKeeper.sol\";\nimport \"../../interfaces/IToken.sol\";\nimport \"../../interfaces/IStablecoinAdapter.sol\";\nimport \"../../interfaces/ICagable.sol\";\n\ncontract StablecoinAdapter is PausableUpgradeable, ReentrancyGuardUpgradeable, IStablecoinAdapter, ICagable {\n    IBookKeeper public override bookKeeper; // CDP Engine\n    IStablecoin public override stablecoin; // Stablecoin Token\n    uint256 public live; // Active Flag\n\n    modifier onlyOwnerOrGov() {\n        IAccessControlConfig _accessControlConfig = IAccessControlConfig(IBookKeeper(bookKeeper).accessControlConfig());\n        require(\n            _accessControlConfig.hasRole(_accessControlConfig.OWNER_ROLE(), msg.sender) ||\n                _accessControlConfig.hasRole(_accessControlConfig.GOV_ROLE(), msg.sender),\n            \"!(ownerRole or govRole)\"\n        );\n        _;\n    }\n\n    modifier onlyOwnerOrShowStopper() {\n        IAccessControlConfig _accessControlConfig = IAccessControlConfig(IBookKeeper(bookKeeper).accessControlConfig());\n        require(\n            _accessControlConfig.hasRole(_accessControlConfig.OWNER_ROLE(), msg.sender) ||\n                _accessControlConfig.hasRole(_accessControlConfig.SHOW_STOPPER_ROLE(), msg.sender),\n            \"!(ownerRole or showStopperRole)\"\n        );\n        _;\n    }\n\n    function initialize(address _bookKeeper, address _stablecoin) external initializer {\n        PausableUpgradeable.__Pausable_init();\n        ReentrancyGuardUpgradeable.__ReentrancyGuard_init();\n\n        live = 1;\n        bookKeeper = IBookKeeper(_bookKeeper);\n        stablecoin = IStablecoin(_stablecoin);\n    }\n\n    function cage() external override onlyOwnerOrShowStopper {\n        require(live == 1, \"StablecoinAdapter/not-live\");\n        live = 0;\n        emit LogCage();\n    }\n\n    function uncage() external override onlyOwnerOrShowStopper {\n        require(live == 0, \"StablecoinAdapter/not-caged\");\n        live = 1;\n        emit LogUncage();\n    }\n\n    uint256 constant ONE = 10 ** 27;\n\n    function mul(uint256 x, uint256 y) internal pure returns (uint256 z) {\n        require(y == 0 || (z = x * y) / y == x);\n    }\n\n    function deposit(address usr, uint256 wad, bytes calldata /* data */) external payable override nonReentrant whenNotPaused {\n        bookKeeper.moveStablecoin(address(this), usr, mul(ONE, wad));\n        stablecoin.burn(msg.sender, wad);\n    }\n\n    function depositRAD(address usr, uint256 ray, bytes calldata /* data */) external payable override nonReentrant whenNotPaused {\n        bookKeeper.moveStablecoin(address(this), usr, ray);\n        stablecoin.burn(msg.sender, (ray / ONE) + 1);\n    }\n\n    function withdraw(address usr, uint256 wad, bytes calldata /* data */) external override nonReentrant whenNotPaused {\n        require(live == 1, \"StablecoinAdapter/not-live\");\n        bookKeeper.moveStablecoin(msg.sender, address(this), mul(ONE, wad));\n        stablecoin.mint(usr, wad);\n    }\n\n    function pause() external onlyOwnerOrGov {\n        _pause();\n    }\n\n    function unpause() external onlyOwnerOrGov {\n        _unpause();\n    }\n}\n",
    "sourcePath": "/Users/sangjun.lee/Sangjun/fathom-stablecoin-smart-contracts/contracts/main/stablecoin-core/adapters/StablecoinAdapter.sol",
    "compiler": {
        "name": "solc",
        "version": "0.8.17+commit.8df45f5f.Emscripten.clang"
    },
    "schemaVersion": "3.4.10",
    "updatedAt": "2023-02-03T16:56:00.109Z",
    "devdoc": {
        "kind": "dev",
        "methods": {
            "paused()": {
                "details": "Returns true if the contract is paused, and false otherwise."
            }
        },
        "version": 1
    },
    "userdoc": {
        "kind": "user",
        "methods": {},
        "version": 1
    }
}