{
    "contractName": "StabilityFeeCollector",
    "abi": [
        {
            "anonymous": false,
            "inputs": [
                {
                    "indexed": false,
                    "internalType": "uint8",
                    "name": "version",
                    "type": "uint8"
                }
            ],
            "name": "Initialized",
            "type": "event"
        },
        {
            "anonymous": false,
            "inputs": [
                {
                    "indexed": true,
                    "internalType": "address",
                    "name": "_caller",
                    "type": "address"
                },
                {
                    "indexed": false,
                    "internalType": "uint256",
                    "name": "_data",
                    "type": "uint256"
                }
            ],
            "name": "LogSetGlobalStabilityFeeRate",
            "type": "event"
        },
        {
            "anonymous": false,
            "inputs": [
                {
                    "indexed": true,
                    "internalType": "address",
                    "name": "_caller",
                    "type": "address"
                },
                {
                    "indexed": false,
                    "internalType": "address",
                    "name": "_data",
                    "type": "address"
                }
            ],
            "name": "LogSetSystemDebtEngine",
            "type": "event"
        },
        {
            "anonymous": false,
            "inputs": [
                {
                    "indexed": false,
                    "internalType": "address",
                    "name": "account",
                    "type": "address"
                }
            ],
            "name": "Paused",
            "type": "event"
        },
        {
            "anonymous": false,
            "inputs": [
                {
                    "indexed": false,
                    "internalType": "address",
                    "name": "account",
                    "type": "address"
                }
            ],
            "name": "Unpaused",
            "type": "event"
        },
        {
            "inputs": [],
            "name": "bookKeeper",
            "outputs": [
                {
                    "internalType": "contract IBookKeeper",
                    "name": "",
                    "type": "address"
                }
            ],
            "stateMutability": "view",
            "type": "function"
        },
        {
            "inputs": [],
            "name": "globalStabilityFeeRate",
            "outputs": [
                {
                    "internalType": "uint256",
                    "name": "",
                    "type": "uint256"
                }
            ],
            "stateMutability": "view",
            "type": "function"
        },
        {
            "inputs": [],
            "name": "paused",
            "outputs": [
                {
                    "internalType": "bool",
                    "name": "",
                    "type": "bool"
                }
            ],
            "stateMutability": "view",
            "type": "function"
        },
        {
            "inputs": [],
            "name": "systemDebtEngine",
            "outputs": [
                {
                    "internalType": "address",
                    "name": "",
                    "type": "address"
                }
            ],
            "stateMutability": "view",
            "type": "function"
        },
        {
            "inputs": [
                {
                    "internalType": "address",
                    "name": "_bookKeeper",
                    "type": "address"
                },
                {
                    "internalType": "address",
                    "name": "_systemDebtEngine",
                    "type": "address"
                }
            ],
            "name": "initialize",
            "outputs": [],
            "stateMutability": "nonpayable",
            "type": "function"
        },
        {
            "inputs": [
                {
                    "internalType": "address",
                    "name": "_systemDebtEngine",
                    "type": "address"
                }
            ],
            "name": "setSystemDebtEngine",
            "outputs": [],
            "stateMutability": "nonpayable",
            "type": "function"
        },
        {
            "inputs": [
                {
                    "internalType": "bytes32",
                    "name": "_collateralPool",
                    "type": "bytes32"
                }
            ],
            "name": "collect",
            "outputs": [
                {
                    "internalType": "uint256",
                    "name": "_debtAccumulatedRate",
                    "type": "uint256"
                }
            ],
            "stateMutability": "nonpayable",
            "type": "function"
        },
        {
            "inputs": [],
            "name": "pause",
            "outputs": [],
            "stateMutability": "nonpayable",
            "type": "function"
        },
        {
            "inputs": [],
            "name": "unpause",
            "outputs": [],
            "stateMutability": "nonpayable",
            "type": "function"
        }
    ],
    "bytecode": "0x608060405234801561001057600080fd5b506114e5806100206000396000f3fe608060405234801561001057600080fd5b50600436106100935760003560e01c80635c975abb116100665780635c975abb146101065780637e0972f51461011c5780638456cb591461012f578063a985bdcf14610137578063e3b3932a1461014057600080fd5b806328e49a42146100985780633f4ba83a146100c8578063485cc955146100d2578063497777d5146100e5575b600080fd5b6098546100ab906001600160a01b031681565b6040516001600160a01b0390911681526020015b60405180910390f35b6100d0610153565b005b6100d06100e03660046112ad565b6103cd565b6100f86100f33660046112e6565b610541565b6040519081526020016100bf565b60335460ff1660405190151581526020016100bf565b6100d061012a3660046112ff565b61056d565b6100d061076a565b6100f860995481565b6097546100ab906001600160a01b031681565b6097546040805163c8cc243f60e01b815290516000926001600160a01b03169163c8cc243f9160048083019260209291908290030181865afa15801561019d573d6000803e3d6000fd5b505050506040513d601f19601f820116820180604052508101906101c1919061131c565b9050806001600160a01b03166391d14854826001600160a01b031663e58378bb6040518163ffffffff1660e01b8152600401602060405180830381865afa158015610210573d6000803e3d6000fd5b505050506040513d601f19601f820116820180604052508101906102349190611339565b6040516001600160e01b031960e084901b1681526004810191909152336024820152604401602060405180830381865afa158015610276573d6000803e3d6000fd5b505050506040513d601f19601f8201168201806040525081019061029a9190611352565b806103775750806001600160a01b03166391d14854826001600160a01b031663b536818a6040518163ffffffff1660e01b8152600401602060405180830381865afa1580156102ed573d6000803e3d6000fd5b505050506040513d601f19601f820116820180604052508101906103119190611339565b6040516001600160e01b031960e084901b1681526004810191909152336024820152604401602060405180830381865afa158015610353573d6000803e3d6000fd5b505050506040513d601f19601f820116820180604052508101906103779190611352565b6103c25760405162461bcd60e51b815260206004820152601760248201527621286f776e6572526f6c65206f7220676f76526f6c652960481b60448201526064015b60405180910390fd5b6103ca6109dc565b50565b600054610100900460ff16158080156103ed5750600054600160ff909116105b806104075750303b158015610407575060005460ff166001145b61046a5760405162461bcd60e51b815260206004820152602e60248201527f496e697469616c697a61626c653a20636f6e747261637420697320616c72656160448201526d191e481a5b9a5d1a585b1a5e995960921b60648201526084016103b9565b6000805460ff19166001179055801561048d576000805461ff0019166101001790555b610495610a2e565b61049d610a5f565b609780546001600160a01b0319166001600160a01b038581169190911790915582166104db5760405162461bcd60e51b81526004016103b990611374565b609880546001600160a01b0319166001600160a01b038416179055801561053c576000805461ff0019169055604051600181527f7f26b83ff96e1f2b6a682f133852f6798a09c465da95921460cefb38474024989060200160405180910390a15b505050565b600061054b610a8e565b610553610ad4565b61055c82610b2d565b90506105686001606555565b919050565b6097546040805163c8cc243f60e01b815290516000926001600160a01b03169163c8cc243f9160048083019260209291908290030181865afa1580156105b7573d6000803e3d6000fd5b505050506040513d601f19601f820116820180604052508101906105db919061131c565b9050806001600160a01b03166391d14854826001600160a01b031663e58378bb6040518163ffffffff1660e01b8152600401602060405180830381865afa15801561062a573d6000803e3d6000fd5b505050506040513d601f19601f8201168201806040525081019061064e9190611339565b6040516001600160e01b031960e084901b1681526004810191909152336024820152604401602060405180830381865afa158015610690573d6000803e3d6000fd5b505050506040513d601f19601f820116820180604052508101906106b49190611352565b6106ed5760405162461bcd60e51b815260206004820152600a602482015269216f776e6572526f6c6560b01b60448201526064016103b9565b6001600160a01b0382166107135760405162461bcd60e51b81526004016103b990611374565b609880546001600160a01b0319166001600160a01b03841690811790915560405190815233907f28c02b7fb4c1c94c7b73df5dd0863593970575d3a1faf5271e73ee27155c40219060200160405180910390a25050565b6097546040805163c8cc243f60e01b815290516000926001600160a01b03169163c8cc243f9160048083019260209291908290030181865afa1580156107b4573d6000803e3d6000fd5b505050506040513d601f19601f820116820180604052508101906107d8919061131c565b9050806001600160a01b03166391d14854826001600160a01b031663e58378bb6040518163ffffffff1660e01b8152600401602060405180830381865afa158015610827573d6000803e3d6000fd5b505050506040513d601f19601f8201168201806040525081019061084b9190611339565b6040516001600160e01b031960e084901b1681526004810191909152336024820152604401602060405180830381865afa15801561088d573d6000803e3d6000fd5b505050506040513d601f19601f820116820180604052508101906108b19190611352565b8061098e5750806001600160a01b03166391d14854826001600160a01b031663b536818a6040518163ffffffff1660e01b8152600401602060405180830381865afa158015610904573d6000803e3d6000fd5b505050506040513d601f19601f820116820180604052508101906109289190611339565b6040516001600160e01b031960e084901b1681526004810191909152336024820152604401602060405180830381865afa15801561096a573d6000803e3d6000fd5b505050506040513d601f19601f8201168201806040525081019061098e9190611352565b6109d45760405162461bcd60e51b815260206004820152601760248201527621286f776e6572526f6c65206f7220676f76526f6c652960481b60448201526064016103b9565b6103ca611067565b6109e46110a4565b6033805460ff191690557f5db9ee0a495bf2e6ff9c91a7834c1ba4fdd244a5e8aa4e537bd38aeae4b073aa335b6040516001600160a01b03909116815260200160405180910390a1565b600054610100900460ff16610a555760405162461bcd60e51b81526004016103b9906113c8565b610a5d6110ed565b565b600054610100900460ff16610a865760405162461bcd60e51b81526004016103b9906113c8565b610a5d611120565b60335460ff1615610a5d5760405162461bcd60e51b815260206004820152601060248201526f14185d5cd8589b194e881c185d5cd95960821b60448201526064016103b9565b600260655403610b265760405162461bcd60e51b815260206004820152601f60248201527f5265656e7472616e637947756172643a207265656e7472616e742063616c6c0060448201526064016103b9565b6002606555565b600080609760009054906101000a90046001600160a01b03166001600160a01b031663d86824616040518163ffffffff1660e01b8152600401602060405180830381865afa158015610b83573d6000803e3d6000fd5b505050506040513d601f19601f82011682018060405250810190610ba7919061131c565b6001600160a01b031663a09b0fe0846040518263ffffffff1660e01b8152600401610bd491815260200190565b602060405180830381865afa158015610bf1573d6000803e3d6000fd5b505050506040513d601f19601f82011682018060405250810190610c159190611339565b90506000609760009054906101000a90046001600160a01b03166001600160a01b031663d86824616040518163ffffffff1660e01b8152600401602060405180830381865afa158015610c6c573d6000803e3d6000fd5b505050506040513d601f19601f82011682018060405250810190610c90919061131c565b6001600160a01b0316631fea158d856040518263ffffffff1660e01b8152600401610cbd91815260200190565b602060405180830381865afa158015610cda573d6000803e3d6000fd5b505050506040513d601f19601f82011682018060405250810190610cfe9190611339565b90506000609760009054906101000a90046001600160a01b03166001600160a01b031663d86824616040518163ffffffff1660e01b8152600401602060405180830381865afa158015610d55573d6000803e3d6000fd5b505050506040513d601f19601f82011682018060405250810190610d79919061131c565b6001600160a01b031663bbd112a5866040518263ffffffff1660e01b8152600401610da691815260200190565b602060405180830381865afa158015610dc3573d6000803e3d6000fd5b505050506040513d601f19601f82011682018060405250810190610de79190611339565b905080421015610e4f5760405162461bcd60e51b815260206004820152602d60248201527f53746162696c697479466565436f6c6c6563746f722f696e76616c69642d626c60448201526c06f636b2e74696d657374616d7609c1b60648201526084016103b9565b6098546001600160a01b0316610ec05760405162461bcd60e51b815260206004820152603060248201527f53746162696c697479466565436f6c6c6563746f722f73797374656d2d64656260448201526f1d0b595b99da5b994b5b9bdd0b5cd95d60821b60648201526084016103b9565b610ef4610eee610ed260995485611147565b610edc8442611429565b6b033b2e3c9fd0803ce8000000611168565b84611226565b6097546098549195506001600160a01b03908116916390d5363991889116610f1c888861126f565b6040516001600160e01b031960e086901b16815260048101939093526001600160a01b0390911660248301526044820152606401600060405180830381600087803b158015610f6a57600080fd5b505af1158015610f7e573d6000803e3d6000fd5b50505050609760009054906101000a90046001600160a01b03166001600160a01b031663d86824616040518163ffffffff1660e01b8152600401602060405180830381865afa158015610fd5573d6000803e3d6000fd5b505050506040513d601f19601f82011682018060405250810190610ff9919061131c565b6001600160a01b031663e73eb92e866040518263ffffffff1660e01b815260040161102691815260200190565b600060405180830381600087803b15801561104057600080fd5b505af1158015611054573d6000803e3d6000fd5b50505050505050919050565b6001606555565b61106f610a8e565b6033805460ff191660011790557f62e78cea01bee320cd4e420270b5ea74000d11b0c9f74754ebdbfc544b05a258610a113390565b60335460ff16610a5d5760405162461bcd60e51b815260206004820152601460248201527314185d5cd8589b194e881b9bdd081c185d5cd95960621b60448201526064016103b9565b600054610100900460ff166111145760405162461bcd60e51b81526004016103b9906113c8565b6033805460ff19169055565b600054610100900460ff166110605760405162461bcd60e51b81526004016103b9906113c8565b6000611153828461143c565b90508281101561116257600080fd5b92915050565b60008380156112085760018416801561118357859250611187565b8392505b50600283046002850494505b84156112025785860286878204146111aa57600080fd5b818101818110156111ba57600080fd5b85900496505060018516156111f75785830283878204141587151516156111e057600080fd5b818101818110156111f057600080fd5b8590049350505b600285049450611193565b5061121e565b838015611218576000925061121c565b8392505b505b509392505050565b6000611232828461144f565b90508115806112495750826112478383611466565b145b61125257600080fd5b6112686b033b2e3c9fd0803ce800000082611466565b9392505050565b600061127b8284611488565b90506000831215801561128f575060008212155b61116257600080fd5b6001600160a01b03811681146103ca57600080fd5b600080604083850312156112c057600080fd5b82356112cb81611298565b915060208301356112db81611298565b809150509250929050565b6000602082840312156112f857600080fd5b5035919050565b60006020828403121561131157600080fd5b813561126881611298565b60006020828403121561132e57600080fd5b815161126881611298565b60006020828403121561134b57600080fd5b5051919050565b60006020828403121561136457600080fd5b8151801515811461126857600080fd5b60208082526034908201527f53746162696c697479466565436f6c6c6563746f722f6261642d73797374656d6040820152732d646562742d656e67696e652d6164647265737360601b606082015260800190565b6020808252602b908201527f496e697469616c697a61626c653a20636f6e7472616374206973206e6f74206960408201526a6e697469616c697a696e6760a81b606082015260800190565b634e487b7160e01b600052601160045260246000fd5b8181038181111561116257611162611413565b8082018082111561116257611162611413565b808202811582820484141761116257611162611413565b60008261148357634e487b7160e01b600052601260045260246000fd5b500490565b81810360008312801583831316838312821617156114a8576114a8611413565b509291505056fea26469706673582212204d9b3f3713c204f6a002643a0550c67e2beddd1b09202b0da886ade5198d7c8f64736f6c63430008110033",
    "immutableReferences": {},
    "source": "// SPDX-License-Identifier: AGPL-3.0-or-later\npragma solidity 0.8.17;\n\nimport \"@openzeppelin/contracts-upgradeable/security/PausableUpgradeable.sol\";\nimport \"@openzeppelin/contracts-upgradeable/access/AccessControlUpgradeable.sol\";\nimport \"@openzeppelin/contracts-upgradeable/security/ReentrancyGuardUpgradeable.sol\";\n\nimport \"../interfaces/IBookKeeper.sol\";\nimport \"../interfaces/IStabilityFeeCollector.sol\";\n\n/** @notice A contract which acts as a collector for the stability fee.\n    The stability fee is a fee that is collected from the minter of Fathom Stablecoin in a per-seconds basis.\n    The stability fee will be accumulated in the system as a surplus to settle any bad debt.\n*/\ncontract StabilityFeeCollector is PausableUpgradeable, ReentrancyGuardUpgradeable, IStabilityFeeCollector {\n    struct CollateralPool {\n        uint256 stabilityFeeRate; // Collateral-specific, per-second stability fee debtAccumulatedRate or mint interest debtAccumulatedRate [ray]\n        uint256 lastAccumulationTime; // Time of last call to `collect` [unix epoch time]\n    }\n\n    IBookKeeper public bookKeeper;\n    address public systemDebtEngine;\n    uint256 public globalStabilityFeeRate; // Global, per-second stability fee debtAccumulatedRate [ray]\n\n    function initialize(address _bookKeeper, address _systemDebtEngine) external initializer {\n        PausableUpgradeable.__Pausable_init();\n        ReentrancyGuardUpgradeable.__ReentrancyGuard_init();\n\n        bookKeeper = IBookKeeper(_bookKeeper);\n        require(_systemDebtEngine != address(0), \"StabilityFeeCollector/bad-system-debt-engine-address\");\n        systemDebtEngine = _systemDebtEngine;\n    }\n\n    function rpow(uint256 x, uint256 n, uint256 b) internal pure returns (uint256 z) {\n        assembly {\n            switch x\n            case 0 {\n                switch n\n                case 0 {\n                    z := b\n                }\n                default {\n                    z := 0\n                }\n            }\n            default {\n                switch mod(n, 2)\n                case 0 {\n                    z := b\n                }\n                default {\n                    z := x\n                }\n                let half := div(b, 2) // for rounding.\n                for {\n                    n := div(n, 2)\n                } n {\n                    n := div(n, 2)\n                } {\n                    let xx := mul(x, x)\n                    if iszero(eq(div(xx, x), x)) {\n                        revert(0, 0)\n                    }\n                    let xxRound := add(xx, half)\n                    if lt(xxRound, xx) {\n                        revert(0, 0)\n                    }\n                    x := div(xxRound, b)\n                    if mod(n, 2) {\n                        let zx := mul(z, x)\n                        if and(iszero(iszero(x)), iszero(eq(div(zx, x), z))) {\n                            revert(0, 0)\n                        }\n                        let zxRound := add(zx, half)\n                        if lt(zxRound, zx) {\n                            revert(0, 0)\n                        }\n                        z := div(zxRound, b)\n                    }\n                }\n            }\n        }\n    }\n\n    uint256 constant RAY = 10 ** 27;\n\n    function add(uint256 _x, uint256 _y) internal pure returns (uint256 _z) {\n        _z = _x + _y;\n        require(_z >= _x);\n    }\n\n    function diff(uint256 _x, uint256 _y) internal pure returns (int256 _z) {\n        _z = int256(_x) - int256(_y);\n        require(int256(_x) >= 0 && int256(_y) >= 0);\n    }\n\n    function rmul(uint256 _x, uint256 _y) internal pure returns (uint256 _z) {\n        _z = _x * _y;\n        require(_y == 0 || _z / _y == _x);\n        _z = _z / RAY;\n    }\n\n    // --- Administration ---\n    event LogSetGlobalStabilityFeeRate(address indexed _caller, uint256 _data);\n    event LogSetSystemDebtEngine(address indexed _caller, address _data);\n\n    modifier onlyOwner() {\n        IAccessControlConfig _accessControlConfig = IAccessControlConfig(bookKeeper.accessControlConfig());\n        require(_accessControlConfig.hasRole(_accessControlConfig.OWNER_ROLE(), msg.sender), \"!ownerRole\");\n        _;\n    }\n\n    modifier onlyOwnerOrGov() {\n        IAccessControlConfig _accessControlConfig = IAccessControlConfig(IBookKeeper(bookKeeper).accessControlConfig());\n        require(\n            _accessControlConfig.hasRole(_accessControlConfig.OWNER_ROLE(), msg.sender) ||\n                _accessControlConfig.hasRole(_accessControlConfig.GOV_ROLE(), msg.sender),\n            \"!(ownerRole or govRole)\"\n        );\n        _;\n    }\n\n    function setSystemDebtEngine(address _systemDebtEngine) external onlyOwner {\n        require(_systemDebtEngine != address(0), \"StabilityFeeCollector/bad-system-debt-engine-address\");\n        systemDebtEngine = _systemDebtEngine;\n        emit LogSetSystemDebtEngine(msg.sender, _systemDebtEngine);\n    }\n\n    /** @dev Collect the stability fee of the collateral pool.\n      This function could be called by anyone.\n      It will update the `debtAccumulatedRate` of the specified collateral pool according to\n      the global and per-pool stability fee rates with respect to the last block that `collect` was called.\n    */\n    function collect(bytes32 _collateralPool) external override whenNotPaused nonReentrant returns (uint256 _debtAccumulatedRate) {\n        _debtAccumulatedRate = _collect(_collateralPool);\n    }\n\n    function _collect(bytes32 _collateralPoolId) internal returns (uint256 _debtAccumulatedRate) {\n        uint256 _previousDebtAccumulatedRate = ICollateralPoolConfig(bookKeeper.collateralPoolConfig()).getDebtAccumulatedRate(_collateralPoolId);\n        uint256 _stabilityFeeRate = ICollateralPoolConfig(bookKeeper.collateralPoolConfig()).getStabilityFeeRate(_collateralPoolId);\n        uint256 _lastAccumulationTime = ICollateralPoolConfig(bookKeeper.collateralPoolConfig()).getLastAccumulationTime(_collateralPoolId);\n        require(block.timestamp >= _lastAccumulationTime, \"StabilityFeeCollector/invalid-block.timestamp\");\n        require(systemDebtEngine != address(0), \"StabilityFeeCollector/system-debt-engine-not-set\");\n\n        _debtAccumulatedRate = rmul(\n            rpow(add(globalStabilityFeeRate, _stabilityFeeRate), block.timestamp - _lastAccumulationTime, RAY),\n            _previousDebtAccumulatedRate\n        );\n\n        bookKeeper.accrueStabilityFee(_collateralPoolId, systemDebtEngine, diff(_debtAccumulatedRate, _previousDebtAccumulatedRate));\n        ICollateralPoolConfig(bookKeeper.collateralPoolConfig()).updateLastAccumulationTime(_collateralPoolId);\n    }\n\n    function pause() external onlyOwnerOrGov {\n        _pause();\n    }\n\n    function unpause() external onlyOwnerOrGov {\n        _unpause();\n    }\n}\n",
    "sourcePath": "/Users/sangjun.lee/Sangjun/fathom-stablecoin-smart-contracts/contracts/main/stablecoin-core/StabilityFeeCollector.sol",
    "compiler": {
        "name": "solc",
        "version": "0.8.17+commit.8df45f5f.Emscripten.clang"
    },
    "schemaVersion": "3.4.10",
    "updatedAt": "2023-02-03T16:56:00.085Z",
    "devdoc": {
        "kind": "dev",
        "methods": {
            "collect(bytes32)": {
                "details": "Collect the stability fee of the collateral pool. This function could be called by anyone. It will update the `debtAccumulatedRate` of the specified collateral pool according to the global and per-pool stability fee rates with respect to the last block that `collect` was called."
            },
            "paused()": {
                "details": "Returns true if the contract is paused, and false otherwise."
            }
        },
        "version": 1
    },
    "userdoc": {
        "kind": "user",
        "methods": {},
        "notice": "A contract which acts as a collector for the stability fee. The stability fee is a fee that is collected from the minter of Fathom Stablecoin in a per-seconds basis. The stability fee will be accumulated in the system as a surplus to settle any bad debt.",
        "version": 1
    }
}