{
    "contractName": "StableSwapModule",
    "abi": [
        {
            "anonymous": false,
            "inputs": [
                {
                    "indexed": false,
                    "internalType": "uint8",
                    "name": "version",
                    "type": "uint8"
                }
            ],
            "name": "Initialized",
            "type": "event"
        },
        {
            "anonymous": false,
            "inputs": [
                {
                    "indexed": true,
                    "internalType": "address",
                    "name": "user",
                    "type": "address"
                }
            ],
            "name": "LogAddToWhitelist",
            "type": "event"
        },
        {
            "anonymous": false,
            "inputs": [
                {
                    "indexed": false,
                    "internalType": "uint256",
                    "name": "_newBlocksPerLimit",
                    "type": "uint256"
                },
                {
                    "indexed": false,
                    "internalType": "uint256",
                    "name": "_oldBlocksPerLimit",
                    "type": "uint256"
                }
            ],
            "name": "LogBlocksPerLimitUpdate",
            "type": "event"
        },
        {
            "anonymous": false,
            "inputs": [
                {
                    "indexed": false,
                    "internalType": "uint256",
                    "name": "_newDailySwapLimit",
                    "type": "uint256"
                },
                {
                    "indexed": false,
                    "internalType": "uint256",
                    "name": "_oldDailySwapLimit",
                    "type": "uint256"
                }
            ],
            "name": "LogDailySwapLimitUpdate",
            "type": "event"
        },
        {
            "anonymous": false,
            "inputs": [
                {
                    "indexed": false,
                    "internalType": "bool",
                    "name": "_oldDecentralizedStateStatus",
                    "type": "bool"
                },
                {
                    "indexed": false,
                    "internalType": "bool",
                    "name": "_newDecentralizedStateStatus",
                    "type": "bool"
                }
            ],
            "name": "LogDecentralizedStateStatus",
            "type": "event"
        },
        {
            "anonymous": false,
            "inputs": [
                {
                    "indexed": true,
                    "internalType": "address",
                    "name": "_owner",
                    "type": "address"
                },
                {
                    "indexed": true,
                    "internalType": "address",
                    "name": "_token",
                    "type": "address"
                },
                {
                    "indexed": false,
                    "internalType": "uint256",
                    "name": "_value",
                    "type": "uint256"
                }
            ],
            "name": "LogDepositToken",
            "type": "event"
        },
        {
            "anonymous": false,
            "inputs": [
                {
                    "indexed": true,
                    "internalType": "address",
                    "name": "_account",
                    "type": "address"
                }
            ],
            "name": "LogEmergencyWithdraw",
            "type": "event"
        },
        {
            "anonymous": false,
            "inputs": [
                {
                    "indexed": false,
                    "internalType": "uint256",
                    "name": "_newNumberOfSwapsLimitPerUser",
                    "type": "uint256"
                },
                {
                    "indexed": false,
                    "internalType": "uint256",
                    "name": "_oldNumberOfSwapsLimitPerUser",
                    "type": "uint256"
                }
            ],
            "name": "LogNumberOfSwapsLimitPerUserUpdate",
            "type": "event"
        },
        {
            "anonymous": false,
            "inputs": [
                {
                    "indexed": false,
                    "internalType": "uint256",
                    "name": "_remainingDailySwapAmount",
                    "type": "uint256"
                }
            ],
            "name": "LogRemainingDailySwapAmount",
            "type": "event"
        },
        {
            "anonymous": false,
            "inputs": [
                {
                    "indexed": true,
                    "internalType": "address",
                    "name": "user",
                    "type": "address"
                }
            ],
            "name": "LogRemoveFromWhitelist",
            "type": "event"
        },
        {
            "anonymous": false,
            "inputs": [
                {
                    "indexed": true,
                    "internalType": "address",
                    "name": "_caller",
                    "type": "address"
                },
                {
                    "indexed": false,
                    "internalType": "uint256",
                    "name": "_feeIn",
                    "type": "uint256"
                }
            ],
            "name": "LogSetFeeIn",
            "type": "event"
        },
        {
            "anonymous": false,
            "inputs": [
                {
                    "indexed": true,
                    "internalType": "address",
                    "name": "_caller",
                    "type": "address"
                },
                {
                    "indexed": false,
                    "internalType": "uint256",
                    "name": "_feeOut",
                    "type": "uint256"
                }
            ],
            "name": "LogSetFeeOut",
            "type": "event"
        },
        {
            "anonymous": false,
            "inputs": [
                {
                    "indexed": false,
                    "internalType": "uint256",
                    "name": "_newSingleSwapLimit",
                    "type": "uint256"
                },
                {
                    "indexed": false,
                    "internalType": "uint256",
                    "name": "_oldSingleSwapLimit",
                    "type": "uint256"
                }
            ],
            "name": "LogSingleSwapLimitUpdate",
            "type": "event"
        },
        {
            "anonymous": false,
            "inputs": [
                {
                    "indexed": false,
                    "internalType": "bool",
                    "name": "_pauseState",
                    "type": "bool"
                }
            ],
            "name": "LogStableSwapPauseState",
            "type": "event"
        },
        {
            "anonymous": false,
            "inputs": [
                {
                    "indexed": true,
                    "internalType": "address",
                    "name": "_owner",
                    "type": "address"
                },
                {
                    "indexed": false,
                    "internalType": "uint256",
                    "name": "_value",
                    "type": "uint256"
                },
                {
                    "indexed": false,
                    "internalType": "uint256",
                    "name": "_fee",
                    "type": "uint256"
                }
            ],
            "name": "LogSwapStablecoinToToken",
            "type": "event"
        },
        {
            "anonymous": false,
            "inputs": [
                {
                    "indexed": true,
                    "internalType": "address",
                    "name": "_owner",
                    "type": "address"
                },
                {
                    "indexed": false,
                    "internalType": "uint256",
                    "name": "_value",
                    "type": "uint256"
                },
                {
                    "indexed": false,
                    "internalType": "uint256",
                    "name": "_fee",
                    "type": "uint256"
                }
            ],
            "name": "LogSwapTokenToStablecoin",
            "type": "event"
        },
        {
            "anonymous": false,
            "inputs": [
                {
                    "indexed": true,
                    "internalType": "address",
                    "name": "_destination",
                    "type": "address"
                },
                {
                    "indexed": false,
                    "internalType": "uint256",
                    "name": "_stablecoinFee",
                    "type": "uint256"
                },
                {
                    "indexed": false,
                    "internalType": "uint256",
                    "name": "_tokenFee",
                    "type": "uint256"
                }
            ],
            "name": "LogWithdrawFees",
            "type": "event"
        },
        {
            "anonymous": false,
            "inputs": [
                {
                    "indexed": false,
                    "internalType": "address",
                    "name": "account",
                    "type": "address"
                }
            ],
            "name": "Paused",
            "type": "event"
        },
        {
            "anonymous": false,
            "inputs": [
                {
                    "indexed": false,
                    "internalType": "address",
                    "name": "account",
                    "type": "address"
                }
            ],
            "name": "Unpaused",
            "type": "event"
        },
        {
            "inputs": [],
            "name": "DAILY_SWAP_LIMIT_DENOMINATOR",
            "outputs": [
                {
                    "internalType": "uint256",
                    "name": "",
                    "type": "uint256"
                }
            ],
            "stateMutability": "view",
            "type": "function"
        },
        {
            "inputs": [],
            "name": "MINIMUM_BLOCKS_PER_LIMIT",
            "outputs": [
                {
                    "internalType": "uint256",
                    "name": "",
                    "type": "uint256"
                }
            ],
            "stateMutability": "view",
            "type": "function"
        },
        {
            "inputs": [],
            "name": "MINIMUM_DAILY_SWAP_LIMIT",
            "outputs": [
                {
                    "internalType": "uint256",
                    "name": "",
                    "type": "uint256"
                }
            ],
            "stateMutability": "view",
            "type": "function"
        },
        {
            "inputs": [],
            "name": "MINIMUM_DAILY_SWAP_LIMIT_NUMERATOR",
            "outputs": [
                {
                    "internalType": "uint256",
                    "name": "",
                    "type": "uint256"
                }
            ],
            "stateMutability": "view",
            "type": "function"
        },
        {
            "inputs": [],
            "name": "MINIMUM_NUMBER_OF_SWAPS_LIMIT_PER_USER",
            "outputs": [
                {
                    "internalType": "uint256",
                    "name": "",
                    "type": "uint256"
                }
            ],
            "stateMutability": "view",
            "type": "function"
        },
        {
            "inputs": [],
            "name": "MINIMUM_SINGLE_SWAP_LIMIT_NUMERATOR",
            "outputs": [
                {
                    "internalType": "uint256",
                    "name": "",
                    "type": "uint256"
                }
            ],
            "stateMutability": "view",
            "type": "function"
        },
        {
            "inputs": [],
            "name": "ONE_DAY",
            "outputs": [
                {
                    "internalType": "uint256",
                    "name": "",
                    "type": "uint256"
                }
            ],
            "stateMutability": "view",
            "type": "function"
        },
        {
            "inputs": [],
            "name": "SINGLE_SWAP_LIMIT_DENOMINATOR",
            "outputs": [
                {
                    "internalType": "uint256",
                    "name": "",
                    "type": "uint256"
                }
            ],
            "stateMutability": "view",
            "type": "function"
        },
        {
            "inputs": [],
            "name": "blocksPerLimit",
            "outputs": [
                {
                    "internalType": "uint256",
                    "name": "",
                    "type": "uint256"
                }
            ],
            "stateMutability": "view",
            "type": "function"
        },
        {
            "inputs": [],
            "name": "bookKeeper",
            "outputs": [
                {
                    "internalType": "contract IBookKeeper",
                    "name": "",
                    "type": "address"
                }
            ],
            "stateMutability": "view",
            "type": "function"
        },
        {
            "inputs": [],
            "name": "dailySwapLimitNumerator",
            "outputs": [
                {
                    "internalType": "uint256",
                    "name": "",
                    "type": "uint256"
                }
            ],
            "stateMutability": "view",
            "type": "function"
        },
        {
            "inputs": [],
            "name": "feeIn",
            "outputs": [
                {
                    "internalType": "uint256",
                    "name": "",
                    "type": "uint256"
                }
            ],
            "stateMutability": "view",
            "type": "function"
        },
        {
            "inputs": [],
            "name": "feeOut",
            "outputs": [
                {
                    "internalType": "uint256",
                    "name": "",
                    "type": "uint256"
                }
            ],
            "stateMutability": "view",
            "type": "function"
        },
        {
            "inputs": [],
            "name": "isDecentralizedState",
            "outputs": [
                {
                    "internalType": "bool",
                    "name": "",
                    "type": "bool"
                }
            ],
            "stateMutability": "view",
            "type": "function"
        },
        {
            "inputs": [
                {
                    "internalType": "address",
                    "name": "",
                    "type": "address"
                }
            ],
            "name": "lastSwapBlockNumberPerUser",
            "outputs": [
                {
                    "internalType": "uint256",
                    "name": "",
                    "type": "uint256"
                }
            ],
            "stateMutability": "view",
            "type": "function"
        },
        {
            "inputs": [],
            "name": "lastUpdate",
            "outputs": [
                {
                    "internalType": "uint256",
                    "name": "",
                    "type": "uint256"
                }
            ],
            "stateMutability": "view",
            "type": "function"
        },
        {
            "inputs": [],
            "name": "numberOfSwapsLimitPerUser",
            "outputs": [
                {
                    "internalType": "uint256",
                    "name": "",
                    "type": "uint256"
                }
            ],
            "stateMutability": "view",
            "type": "function"
        },
        {
            "inputs": [
                {
                    "internalType": "address",
                    "name": "",
                    "type": "address"
                }
            ],
            "name": "numberOfSwapsRemainingPerUserInBlockLimit",
            "outputs": [
                {
                    "internalType": "uint256",
                    "name": "",
                    "type": "uint256"
                }
            ],
            "stateMutability": "view",
            "type": "function"
        },
        {
            "inputs": [],
            "name": "paused",
            "outputs": [
                {
                    "internalType": "bool",
                    "name": "",
                    "type": "bool"
                }
            ],
            "stateMutability": "view",
            "type": "function"
        },
        {
            "inputs": [],
            "name": "remainingDailySwapAmount",
            "outputs": [
                {
                    "internalType": "uint256",
                    "name": "",
                    "type": "uint256"
                }
            ],
            "stateMutability": "view",
            "type": "function"
        },
        {
            "inputs": [],
            "name": "singleSwapLimitNumerator",
            "outputs": [
                {
                    "internalType": "uint256",
                    "name": "",
                    "type": "uint256"
                }
            ],
            "stateMutability": "view",
            "type": "function"
        },
        {
            "inputs": [],
            "name": "stablecoin",
            "outputs": [
                {
                    "internalType": "address",
                    "name": "",
                    "type": "address"
                }
            ],
            "stateMutability": "view",
            "type": "function"
        },
        {
            "inputs": [],
            "name": "token",
            "outputs": [
                {
                    "internalType": "address",
                    "name": "",
                    "type": "address"
                }
            ],
            "stateMutability": "view",
            "type": "function"
        },
        {
            "inputs": [
                {
                    "internalType": "address",
                    "name": "",
                    "type": "address"
                }
            ],
            "name": "tokenBalance",
            "outputs": [
                {
                    "internalType": "uint256",
                    "name": "",
                    "type": "uint256"
                }
            ],
            "stateMutability": "view",
            "type": "function"
        },
        {
            "inputs": [],
            "name": "totalFXDFeeBalance",
            "outputs": [
                {
                    "internalType": "uint256",
                    "name": "",
                    "type": "uint256"
                }
            ],
            "stateMutability": "view",
            "type": "function"
        },
        {
            "inputs": [],
            "name": "totalTokenFeeBalance",
            "outputs": [
                {
                    "internalType": "uint256",
                    "name": "",
                    "type": "uint256"
                }
            ],
            "stateMutability": "view",
            "type": "function"
        },
        {
            "inputs": [],
            "name": "totalValueDeposited",
            "outputs": [
                {
                    "internalType": "uint256",
                    "name": "",
                    "type": "uint256"
                }
            ],
            "stateMutability": "view",
            "type": "function"
        },
        {
            "inputs": [
                {
                    "internalType": "address",
                    "name": "",
                    "type": "address"
                }
            ],
            "name": "usersWhitelist",
            "outputs": [
                {
                    "internalType": "bool",
                    "name": "",
                    "type": "bool"
                }
            ],
            "stateMutability": "view",
            "type": "function"
        },
        {
            "inputs": [
                {
                    "internalType": "address",
                    "name": "_bookKeeper",
                    "type": "address"
                },
                {
                    "internalType": "address",
                    "name": "_token",
                    "type": "address"
                },
                {
                    "internalType": "address",
                    "name": "_stablecoin",
                    "type": "address"
                },
                {
                    "internalType": "uint256",
                    "name": "_dailySwapLimitNumerator",
                    "type": "uint256"
                },
                {
                    "internalType": "uint256",
                    "name": "_singleSwapLimitNumerator",
                    "type": "uint256"
                },
                {
                    "internalType": "uint256",
                    "name": "_numberOfSwapsLimitPerUser",
                    "type": "uint256"
                },
                {
                    "internalType": "uint256",
                    "name": "_blocksPerLimit",
                    "type": "uint256"
                }
            ],
            "name": "initialize",
            "outputs": [],
            "stateMutability": "nonpayable",
            "type": "function"
        },
        {
            "inputs": [
                {
                    "internalType": "uint256",
                    "name": "newdailySwapLimitNumerator",
                    "type": "uint256"
                }
            ],
            "name": "setDailySwapLimitNumerator",
            "outputs": [],
            "stateMutability": "nonpayable",
            "type": "function"
        },
        {
            "inputs": [
                {
                    "internalType": "uint256",
                    "name": "newSingleSwapLimitNumerator",
                    "type": "uint256"
                }
            ],
            "name": "setSingleSwapLimitNumerator",
            "outputs": [],
            "stateMutability": "nonpayable",
            "type": "function"
        },
        {
            "inputs": [
                {
                    "internalType": "uint256",
                    "name": "newNumberOfSwapsLimitPerUser",
                    "type": "uint256"
                }
            ],
            "name": "setNumberOfSwapsLimitPerUser",
            "outputs": [],
            "stateMutability": "nonpayable",
            "type": "function"
        },
        {
            "inputs": [
                {
                    "internalType": "uint256",
                    "name": "newBlocksPerLimit",
                    "type": "uint256"
                }
            ],
            "name": "setBlocksPerLimit",
            "outputs": [],
            "stateMutability": "nonpayable",
            "type": "function"
        },
        {
            "inputs": [
                {
                    "internalType": "uint256",
                    "name": "_feeIn",
                    "type": "uint256"
                }
            ],
            "name": "setFeeIn",
            "outputs": [],
            "stateMutability": "nonpayable",
            "type": "function"
        },
        {
            "inputs": [
                {
                    "internalType": "uint256",
                    "name": "_feeOut",
                    "type": "uint256"
                }
            ],
            "name": "setFeeOut",
            "outputs": [],
            "stateMutability": "nonpayable",
            "type": "function"
        },
        {
            "inputs": [
                {
                    "internalType": "bool",
                    "name": "_status",
                    "type": "bool"
                }
            ],
            "name": "setDecentralizedStatesStatus",
            "outputs": [],
            "stateMutability": "nonpayable",
            "type": "function"
        },
        {
            "inputs": [
                {
                    "internalType": "address",
                    "name": "_user",
                    "type": "address"
                }
            ],
            "name": "addToWhitelist",
            "outputs": [],
            "stateMutability": "nonpayable",
            "type": "function"
        },
        {
            "inputs": [
                {
                    "internalType": "address",
                    "name": "_user",
                    "type": "address"
                }
            ],
            "name": "removeFromWhitelist",
            "outputs": [],
            "stateMutability": "nonpayable",
            "type": "function"
        },
        {
            "inputs": [
                {
                    "internalType": "address",
                    "name": "_usr",
                    "type": "address"
                },
                {
                    "internalType": "uint256",
                    "name": "_amount",
                    "type": "uint256"
                }
            ],
            "name": "swapTokenToStablecoin",
            "outputs": [],
            "stateMutability": "nonpayable",
            "type": "function"
        },
        {
            "inputs": [
                {
                    "internalType": "address",
                    "name": "_usr",
                    "type": "address"
                },
                {
                    "internalType": "uint256",
                    "name": "_amount",
                    "type": "uint256"
                }
            ],
            "name": "swapStablecoinToToken",
            "outputs": [],
            "stateMutability": "nonpayable",
            "type": "function"
        },
        {
            "inputs": [
                {
                    "internalType": "address",
                    "name": "_token",
                    "type": "address"
                },
                {
                    "internalType": "uint256",
                    "name": "_amount",
                    "type": "uint256"
                }
            ],
            "name": "depositToken",
            "outputs": [],
            "stateMutability": "nonpayable",
            "type": "function"
        },
        {
            "inputs": [
                {
                    "internalType": "address",
                    "name": "_destination",
                    "type": "address"
                }
            ],
            "name": "withdrawFees",
            "outputs": [],
            "stateMutability": "nonpayable",
            "type": "function"
        },
        {
            "inputs": [],
            "name": "pause",
            "outputs": [],
            "stateMutability": "nonpayable",
            "type": "function"
        },
        {
            "inputs": [],
            "name": "unpause",
            "outputs": [],
            "stateMutability": "nonpayable",
            "type": "function"
        },
        {
            "inputs": [
                {
                    "internalType": "address",
                    "name": "_account",
                    "type": "address"
                }
            ],
            "name": "emergencyWithdraw",
            "outputs": [],
            "stateMutability": "nonpayable",
            "type": "function"
        },
        {
            "inputs": [
                {
                    "internalType": "address",
                    "name": "_user",
                    "type": "address"
                }
            ],
            "name": "isUserWhitelisted",
            "outputs": [
                {
                    "internalType": "bool",
                    "name": "",
                    "type": "bool"
                }
            ],
            "stateMutability": "view",
            "type": "function"
        },
        {
            "inputs": [],
            "name": "totalValueLocked",
            "outputs": [
                {
                    "internalType": "uint256",
                    "name": "",
                    "type": "uint256"
                }
            ],
            "stateMutability": "view",
            "type": "function"
        }
    ],
    "bytecode": "0x608060405234801561001057600080fd5b50613e1d806100206000396000f3fe608060405234801561001057600080fd5b50600436106102955760003560e01c80636c1cbef011610167578063a836da86116100ce578063e43252d711610087578063e43252d714610524578063e9cbd82214610537578063ec18154e1461054a578063eedc966a14610552578063fb237eb214610572578063fc0c546a1461059e57600080fd5b8063a836da86146104b8578063b42746af146104cb578063c0463711146104d4578063c8ee88fb146104dd578063e3004c46146104f0578063e3b3932a146104f957600080fd5b80638456cb59116101205780638456cb5914610478578063863e76db1461048057806386eb51331461048a5780638ab1d681146104935780638e50d72c146104a6578063a21c1c8f146104af57600080fd5b80636c1cbef0146104385780636ff1c9bc146104415780637254fb3b14610454578063769a48d91461045c57806381e28cc7146104655780638299d28d1461037457600080fd5b8063338b5dea1161020b57806342e8a972116101c457806342e8a972146103f6578063462e44451461040957806355725d411461041157806358a7a31d146103385780635c975abb14610424578063651507f01461042f57600080fd5b8063338b5dea1461037c5780633848dc2f1461038f57806339e9bca8146103985780633c11453a146103b85780633f4ba83a146103db57806340853dce146103e357600080fd5b80632169d7c41161025d5780632169d7c414610315578063231d3bc114610328578063253e870e14610338578063269e5855146103415780632b4656c8146103615780633031f48f1461037457600080fd5b80630696819f1461029a5780630a491255146102b657806315eadbff146102cb578063164e68de146102ef5780631af40af914610302575b600080fd5b6102a3609c5481565b6040519081526020015b60405180910390f35b6102c96102c4366004613982565b6105b1565b005b6099546102df90600160a01b900460ff1681565b60405190151581526020016102ad565b6102c96102fd3660046139b0565b6107c8565b6102c96103103660046139e2565b610baf565b6102c9610323366004613982565b610d6e565b6102a3683635c9adc5dea0000081565b6102a361271081565b6102a361034f3660046139b0565b60a86020526000908152604090205481565b6102c961036f3660046139ff565b610f8b565b6102a3600181565b6102c961038a366004613a6d565b6112a9565b6102a360a55481565b6102a36103a63660046139b0565b60a76020526000908152604090205481565b6102df6103c63660046139b0565b60a66020526000908152604090205460ff1681565b6102c9611755565b6102c96103f1366004613a6d565b6119c7565b6102c9610404366004613982565b611cc6565b6102a3601481565b6102c961041f366004613982565b611eb9565b60335460ff166102df565b6102a360a25481565b6102a360a15481565b6102c961044f3660046139b0565b6120a4565b6102a360c881565b6102a3609b5481565b6102c9610473366004613a6d565b6123fb565b6102c9612767565b6102a36201518081565b6102a360a35481565b6102c96104a13660046139b0565b6129d2565b6102a360a45481565b6102a3609e5481565b6102c96104c6366004613982565b612b78565b6102a360a05481565b6102a3609d5481565b6102c96104eb366004613982565b612db8565b6102a3609f5481565b60975461050c906001600160a01b031681565b6040516001600160a01b0390911681526020016102ad565b6102c96105323660046139b0565b612fb2565b60985461050c906001600160a01b031681565b6102a361315b565b6102a36105603660046139b0565b609a6020526000908152604090205481565b6102df6105803660046139b0565b6001600160a01b0316600090815260a6602052604090205460ff1690565b60995461050c906001600160a01b031681565b6097546040805163c8cc243f60e01b815290516000926001600160a01b03169163c8cc243f9160048083019260209291908290030181865afa1580156105fb573d6000803e3d6000fd5b505050506040513d601f19601f8201168201806040525081019061061f9190613a99565b9050806001600160a01b03166391d14854826001600160a01b031663e58378bb6040518163ffffffff1660e01b8152600401602060405180830381865afa15801561066e573d6000803e3d6000fd5b505050506040513d601f19601f820116820180604052508101906106929190613ab6565b336040518363ffffffff1660e01b81526004016106b0929190613acf565b602060405180830381865afa1580156106cd573d6000803e3d6000fd5b505050506040513d601f19601f820116820180604052508101906106f19190613ae6565b6107165760405162461bcd60e51b815260040161070d90613b03565b60405180910390fd5b60018210156107855760405162461bcd60e51b81526020600482015260416024820152600080516020613dc883398151915260448201527f756d2d6e756d6265722d6f662d73776170732d6c696d69742d7065722d7573656064820152603960f91b608482015260a40161070d565b60a4546040805184815260208101929092527f8a678f401fa2d9a6dc80fc3ea8f4f31f9b5c20c0f13076ba7105b7d35867e50b910160405180910390a15060a455565b6107d06131e1565b6097546040805163c8cc243f60e01b815290516000926001600160a01b03169163c8cc243f9160048083019260209291908290030181865afa15801561081a573d6000803e3d6000fd5b505050506040513d601f19601f8201168201806040525081019061083e9190613a99565b9050806001600160a01b03166391d14854826001600160a01b031663e58378bb6040518163ffffffff1660e01b8152600401602060405180830381865afa15801561088d573d6000803e3d6000fd5b505050506040513d601f19601f820116820180604052508101906108b19190613ab6565b336040518363ffffffff1660e01b81526004016108cf929190613acf565b602060405180830381865afa1580156108ec573d6000803e3d6000fd5b505050506040513d601f19601f820116820180604052508101906109109190613ae6565b806109e65750806001600160a01b03166391d14854826001600160a01b031663b536818a6040518163ffffffff1660e01b8152600401602060405180830381865afa158015610963573d6000803e3d6000fd5b505050506040513d601f19601f820116820180604052508101906109879190613ab6565b336040518363ffffffff1660e01b81526004016109a5929190613acf565b602060405180830381865afa1580156109c2573d6000803e3d6000fd5b505050506040513d601f19601f820116820180604052508101906109e69190613ae6565b610a025760405162461bcd60e51b815260040161070d90613b27565b6001600160a01b038216610a585760405162461bcd60e51b815260206004820152601e60248201527f7769746864726177466565732f77726f6e672d64657374696e6174696f6e0000604482015260640161070d565b60a254151580610a69575060a15415155b610ab55760405162461bcd60e51b815260206004820152601b60248201527f7769746864726177466565732f6e6f2d6665652d62616c616e63650000000000604482015260640161070d565b60a2548015610b0857600060a28190556098546001600160a01b03168152609a602052604081208054839290610aec908490613b74565b9091555050609854610b08906001600160a01b0316848361323a565b60a1548015610b5b57600060a18190556099546001600160a01b03168152609a602052604081208054839290610b3f908490613b74565b9091555050609954610b5b906001600160a01b0316858361323a565b60408051838152602081018390526001600160a01b038616917f231dfe65cdfbccb5fa65cf5ce027aef6dac6d15b4c7cd98400164f726f775850910160405180910390a2505050610bac6001606555565b50565b6097546040805163c8cc243f60e01b815290516000926001600160a01b03169163c8cc243f9160048083019260209291908290030181865afa158015610bf9573d6000803e3d6000fd5b505050506040513d601f19601f82011682018060405250810190610c1d9190613a99565b9050806001600160a01b03166391d14854826001600160a01b031663e58378bb6040518163ffffffff1660e01b8152600401602060405180830381865afa158015610c6c573d6000803e3d6000fd5b505050506040513d601f19601f82011682018060405250810190610c909190613ab6565b336040518363ffffffff1660e01b8152600401610cae929190613acf565b602060405180830381865afa158015610ccb573d6000803e3d6000fd5b505050506040513d601f19601f82011682018060405250810190610cef9190613ae6565b610d0b5760405162461bcd60e51b815260040161070d90613b03565b60998054831515600160a01b81810260ff60a01b199093169290921792839055604080519290930460ff161515825260208201527f3fa229db5043f4a1d50be94716819fcfca2c864e74e7abb8fc65559a79c9a600910160405180910390a15050565b6097546040805163c8cc243f60e01b815290516000926001600160a01b03169163c8cc243f9160048083019260209291908290030181865afa158015610db8573d6000803e3d6000fd5b505050506040513d601f19601f82011682018060405250810190610ddc9190613a99565b9050806001600160a01b03166391d14854826001600160a01b031663e58378bb6040518163ffffffff1660e01b8152600401602060405180830381865afa158015610e2b573d6000803e3d6000fd5b505050506040513d601f19601f82011682018060405250810190610e4f9190613ab6565b336040518363ffffffff1660e01b8152600401610e6d929190613acf565b602060405180830381865afa158015610e8a573d6000803e3d6000fd5b505050506040513d601f19601f82011682018060405250810190610eae9190613ae6565b610eca5760405162461bcd60e51b815260040161070d90613b03565b612710821115610eec5760405162461bcd60e51b815260040161070d90613b87565b6014821015610f485760405162461bcd60e51b81526020600482015260346024820152600080516020613dc88339815191526044820152731d5b4b5cda5b99db194b5cddd85c0b5b1a5b5a5d60621b606482015260840161070d565b60a0546040805184815260208101929092527f1c7c5a58f6507a27552843542f6a493ca5506d4865a20d0295218c9bf0e93003910160405180910390a15060a055565b600054610100900460ff1615808015610fab5750600054600160ff909116105b80610fc55750303b158015610fc5575060005460ff166001145b6110285760405162461bcd60e51b815260206004820152602e60248201527f496e697469616c697a61626c653a20636f6e747261637420697320616c72656160448201526d191e481a5b9a5d1a585b1a5e995960921b606482015260840161070d565b6000805460ff19166001179055801561104b576000805461ff0019166101001790555b61105361334c565b61105b61337d565b60c88510156110c25760405162461bcd60e51b815260206004820152602d60248201527f696e697469616c697a652f6c6573732d7468616e2d6d696e696d756d2d64616960448201526c1b1e4b5cddd85c0b5b1a5b5a5d609a1b606482015260840161070d565b601484101561112a5760405162461bcd60e51b815260206004820152602e60248201527f696e697469616c697a652f6c6573732d7468616e2d6d696e696d756d2d73696e60448201526d19db194b5cddd85c0b5b1a5b5a5d60921b606482015260840161070d565b60018310156111a15760405162461bcd60e51b815260206004820152603b60248201527f696e697469616c697a652f6c6573732d7468616e2d6d696e696d756d2d6e756d60448201527f6265722d6f662d73776170732d6c696d69742d7065722d757365720000000000606482015260840161070d565b60018210156112085760405162461bcd60e51b815260206004820152602d60248201527f696e697469616c697a652f6c6573732d7468616e2d6d696e696d756d2d626c6f60448201526c18dadccb5c195c8b5b1a5b5a5d609a1b606482015260840161070d565b609780546001600160a01b03808b166001600160a01b0319928316179092556098805489841690831617905560998054928a1692909116919091179055609f85905560a084905560a483905560a5829055801561129f576000805461ff0019169055604051600181527f7f26b83ff96e1f2b6a682f133852f6798a09c465da95921460cefb38474024989060200160405180910390a15b5050505050505050565b6112b16131e1565b6112b96133ac565b6097546040805163c8cc243f60e01b815290516000926001600160a01b03169163c8cc243f9160048083019260209291908290030181865afa158015611303573d6000803e3d6000fd5b505050506040513d601f19601f820116820180604052508101906113279190613a99565b9050806001600160a01b03166391d14854826001600160a01b031663e58378bb6040518163ffffffff1660e01b8152600401602060405180830381865afa158015611376573d6000803e3d6000fd5b505050506040513d601f19601f8201168201806040525081019061139a9190613ab6565b336040518363ffffffff1660e01b81526004016113b8929190613acf565b602060405180830381865afa1580156113d5573d6000803e3d6000fd5b505050506040513d601f19601f820116820180604052508101906113f99190613ae6565b806114cf5750806001600160a01b03166391d14854826001600160a01b031663b536818a6040518163ffffffff1660e01b8152600401602060405180830381865afa15801561144c573d6000803e3d6000fd5b505050506040513d601f19601f820116820180604052508101906114709190613ab6565b336040518363ffffffff1660e01b815260040161148e929190613acf565b602060405180830381865afa1580156114ab573d6000803e3d6000fd5b505050506040513d601f19601f820116820180604052508101906114cf9190613ae6565b6114eb5760405162461bcd60e51b815260040161070d90613b27565b6099546001600160a01b038481169116148061151457506098546001600160a01b038481169116145b6115605760405162461bcd60e51b815260206004820152601f60248201527f6465706f736974537461626c65636f696e2f696e76616c69642d746f6b656e00604482015260640161070d565b816000036115b05760405162461bcd60e51b815260206004820152601d60248201527f6465706f736974537461626c65636f696e2f616d6f756e742d7a65726f000000604482015260640161070d565b816115c46001600160a01b038516336133f2565b101561161e5760405162461bcd60e51b8152602060048201526024808201527f6465706f736974537461626c65636f696e2f6e6f742d656e6f7567682d62616c604482015263616e636560e01b606482015260840161070d565b6001600160a01b0383166000908152609a602052604081208054849290611646908490613bd2565b9091555061166190506001600160a01b038416333085613469565b6116ce82846001600160a01b031663313ce5676040518163ffffffff1660e01b8152600401602060405180830381865afa1580156116a3573d6000803e3d6000fd5b505050506040513d601f19601f820116820180604052508101906116c79190613be5565b6012613581565b60a360008282546116df9190613bd2565b9091555050609954600160a01b900460ff16156117065742609d556117026135dc565b609e555b6040518281526001600160a01b0384169033907fb024cc5591038c18f7e2348d474092b453a32212dd1ebcc0370c4ac2e42cce439060200160405180910390a3506117516001606555565b5050565b6097546040805163c8cc243f60e01b815290516000926001600160a01b03169163c8cc243f9160048083019260209291908290030181865afa15801561179f573d6000803e3d6000fd5b505050506040513d601f19601f820116820180604052508101906117c39190613a99565b9050806001600160a01b03166391d14854826001600160a01b031663e58378bb6040518163ffffffff1660e01b8152600401602060405180830381865afa158015611812573d6000803e3d6000fd5b505050506040513d601f19601f820116820180604052508101906118369190613ab6565b336040518363ffffffff1660e01b8152600401611854929190613acf565b602060405180830381865afa158015611871573d6000803e3d6000fd5b505050506040513d601f19601f820116820180604052508101906118959190613ae6565b8061196b5750806001600160a01b03166391d14854826001600160a01b031663b536818a6040518163ffffffff1660e01b8152600401602060405180830381865afa1580156118e8573d6000803e3d6000fd5b505050506040513d601f19601f8201168201806040525081019061190c9190613ab6565b336040518363ffffffff1660e01b815260040161192a929190613acf565b602060405180830381865afa158015611947573d6000803e3d6000fd5b505050506040513d601f19601f8201168201806040525081019061196b9190613ae6565b6119875760405162461bcd60e51b815260040161070d90613b27565b61198f6135fc565b604051600081527fcdd780009e0ca26d4eb3c3ec7a679e3b2581bfb5b6f89856108a50f5b1fa2bcb906020015b60405180910390a150565b6119cf6133ac565b609954600160a01b900460ff16611a365733600090815260a6602052604090205460ff16611a365760405162461bcd60e51b81526020600482015260146024820152731d5cd95c8b5b9bdd0b5dda1a5d195b1a5cdd195960621b604482015260640161070d565b611a3e6131e1565b80600003611a8e5760405162461bcd60e51b815260206004820152601c60248201527f537461626c65537761704d6f64756c652f616d6f756e742d7a65726f00000000604482015260640161070d565b6000611ae782609960009054906101000a90046001600160a01b03166001600160a01b031663313ce5676040518163ffffffff1660e01b8152600401602060405180830381865afa1580156116a3573d6000803e3d6000fd5b90506000670de0b6b3a7640000609b5483611b029190613c08565b611b0c9190613c1f565b90506000611b1a8284613b74565b6098546001600160a01b03166000908152609a6020526040902054909150811115611ba35760405162461bcd60e51b815260206004820152603360248201527f73776170546f6b656e546f537461626c65636f696e2f6e6f742d656e6f7567686044820152722d737461626c65636f696e2d62616c616e636560681b606482015260840161070d565b609954600160a01b900460ff1615611bcf57611bbe8361364e565b611bc7836136d2565b611bcf6137ac565b6098546001600160a01b03166000908152609a602052604081208054839290611bf9908490613b74565b90915550506099546001600160a01b03166000908152609a602052604081208054869290611c28908490613bd2565b925050819055508160a26000828254611c419190613bd2565b9091555050609954611c5e906001600160a01b0316333087613469565b609854611c75906001600160a01b0316868361323a565b60408051858152602081018490526001600160a01b038716917febeefb54ae6b697f8f7b14ec942871ef2fc051ec90c2a221007e5a5702a4d7f2910160405180910390a25050506117516001606555565b6097546040805163c8cc243f60e01b815290516000926001600160a01b03169163c8cc243f9160048083019260209291908290030181865afa158015611d10573d6000803e3d6000fd5b505050506040513d601f19601f82011682018060405250810190611d349190613a99565b9050806001600160a01b03166391d14854826001600160a01b031663e58378bb6040518163ffffffff1660e01b8152600401602060405180830381865afa158015611d83573d6000803e3d6000fd5b505050506040513d601f19601f82011682018060405250810190611da79190613ab6565b336040518363ffffffff1660e01b8152600401611dc5929190613acf565b602060405180830381865afa158015611de2573d6000803e3d6000fd5b505050506040513d601f19601f82011682018060405250810190611e069190613ae6565b611e225760405162461bcd60e51b815260040161070d90613b03565b6706f05b59d3b20000821115611e7a5760405162461bcd60e51b815260206004820181905260248201527f537461626c65537761704d6f64756c652f696e76616c69642d6665652d6f7574604482015260640161070d565b609c82905560405182815233907fca068f6ffd884c8217e477778ef3821efcb5e96690cff9e680c7dbd077d1d1bd906020015b60405180910390a25050565b6097546040805163c8cc243f60e01b815290516000926001600160a01b03169163c8cc243f9160048083019260209291908290030181865afa158015611f03573d6000803e3d6000fd5b505050506040513d601f19601f82011682018060405250810190611f279190613a99565b9050806001600160a01b03166391d14854826001600160a01b031663e58378bb6040518163ffffffff1660e01b8152600401602060405180830381865afa158015611f76573d6000803e3d6000fd5b505050506040513d601f19601f82011682018060405250810190611f9a9190613ab6565b336040518363ffffffff1660e01b8152600401611fb8929190613acf565b602060405180830381865afa158015611fd5573d6000803e3d6000fd5b505050506040513d601f19601f82011682018060405250810190611ff99190613ae6565b6120155760405162461bcd60e51b815260040161070d90613b03565b6706f05b59d3b2000082111561206d5760405162461bcd60e51b815260206004820152601f60248201527f537461626c65537761704d6f64756c652f696e76616c69642d6665652d696e00604482015260640161070d565b609b82905560405182815233907f761b3141cbb42e607f4e550cf06b417f5d0fe476ee4fb6b9fbb34c4ae134b81390602001611ead565b6120ac6131e1565b6097546040805163c8cc243f60e01b815290516000926001600160a01b03169163c8cc243f9160048083019260209291908290030181865afa1580156120f6573d6000803e3d6000fd5b505050506040513d601f19601f8201168201806040525081019061211a9190613a99565b9050806001600160a01b03166391d14854826001600160a01b031663e58378bb6040518163ffffffff1660e01b8152600401602060405180830381865afa158015612169573d6000803e3d6000fd5b505050506040513d601f19601f8201168201806040525081019061218d9190613ab6565b336040518363ffffffff1660e01b81526004016121ab929190613acf565b602060405180830381865afa1580156121c8573d6000803e3d6000fd5b505050506040513d601f19601f820116820180604052508101906121ec9190613ae6565b806122c25750806001600160a01b03166391d14854826001600160a01b031663b536818a6040518163ffffffff1660e01b8152600401602060405180830381865afa15801561223f573d6000803e3d6000fd5b505050506040513d601f19601f820116820180604052508101906122639190613ab6565b336040518363ffffffff1660e01b8152600401612281929190613acf565b602060405180830381865afa15801561229e573d6000803e3d6000fd5b505050506040513d601f19601f820116820180604052508101906122c29190613ae6565b6122de5760405162461bcd60e51b815260040161070d90613b27565b6122e66138a2565b6001600160a01b03821661233c5760405162461bcd60e51b815260206004820152601a60248201527f7769746864726177466565732f656d7074792d6163636f756e74000000000000604482015260640161070d565b609980546001600160a01b039081166000908152609a602052604080822082905560985483168252812055905461238d91849161237a9116306133f2565b6099546001600160a01b0316919061323a565b6098546123bc9083906123a9906001600160a01b0316306133f2565b6098546001600160a01b0316919061323a565b6040516001600160a01b038316907f66b4c12417b17d45e180a77a43b566ff7cdec1cc047789840043d696de3acb4890600090a250610bac6001606555565b6124036133ac565b609954600160a01b900460ff1661246a5733600090815260a6602052604090205460ff1661246a5760405162461bcd60e51b81526020600482015260146024820152731d5cd95c8b5b9bdd0b5dda1a5d195b1a5cdd195960621b604482015260640161070d565b6124726131e1565b806000036124c25760405162461bcd60e51b815260206004820152601c60248201527f537461626c65537761704d6f64756c652f616d6f756e742d7a65726f00000000604482015260640161070d565b6000670de0b6b3a7640000609c54836124db9190613c08565b6124e59190613c1f565b905060006125696124f68385613b74565b6099546040805163313ce56760e01b815290516012926001600160a01b03169163313ce5679160048083019260209291908290030181865afa158015612540573d6000803e3d6000fd5b505050506040513d601f19601f820116820180604052508101906125649190613be5565b613581565b6099546001600160a01b03166000908152609a60205260409020549091508111156125ed5760405162461bcd60e51b815260206004820152602e60248201527f73776170537461626c65636f696e546f546f6b656e2f6e6f742d656e6f75676860448201526d2d746f6b656e2d62616c616e636560901b606482015260840161070d565b609954600160a01b900460ff1615612619576126088361364e565b612611836136d2565b6126196137ac565b6099546001600160a01b03166000908152609a602052604081208054839290612643908490613b74565b90915550506098546001600160a01b03166000908152609a602052604081208054859290612672908490613bd2565b925050819055506126d2826012609960009054906101000a90046001600160a01b03166001600160a01b031663313ce5676040518163ffffffff1660e01b8152600401602060405180830381865afa158015612540573d6000803e3d6000fd5b60a160008282546126e39190613bd2565b9091555050609854612700906001600160a01b0316333086613469565b609954612717906001600160a01b0316858361323a565b60408051848152602081018490526001600160a01b038616917f19db3e213473ea73ae4b6c76a26cbcb2a43d954d78caca305d507dec79b24e82910160405180910390a250506117516001606555565b6097546040805163c8cc243f60e01b815290516000926001600160a01b03169163c8cc243f9160048083019260209291908290030181865afa1580156127b1573d6000803e3d6000fd5b505050506040513d601f19601f820116820180604052508101906127d59190613a99565b9050806001600160a01b03166391d14854826001600160a01b031663e58378bb6040518163ffffffff1660e01b8152600401602060405180830381865afa158015612824573d6000803e3d6000fd5b505050506040513d601f19601f820116820180604052508101906128489190613ab6565b336040518363ffffffff1660e01b8152600401612866929190613acf565b602060405180830381865afa158015612883573d6000803e3d6000fd5b505050506040513d601f19601f820116820180604052508101906128a79190613ae6565b8061297d5750806001600160a01b03166391d14854826001600160a01b031663b536818a6040518163ffffffff1660e01b8152600401602060405180830381865afa1580156128fa573d6000803e3d6000fd5b505050506040513d601f19601f8201168201806040525081019061291e9190613ab6565b336040518363ffffffff1660e01b815260040161293c929190613acf565b602060405180830381865afa158015612959573d6000803e3d6000fd5b505050506040513d601f19601f8201168201806040525081019061297d9190613ae6565b6129995760405162461bcd60e51b815260040161070d90613b27565b6129a16138eb565b604051600181527fcdd780009e0ca26d4eb3c3ec7a679e3b2581bfb5b6f89856108a50f5b1fa2bcb906020016119bc565b6097546040805163c8cc243f60e01b815290516000926001600160a01b03169163c8cc243f9160048083019260209291908290030181865afa158015612a1c573d6000803e3d6000fd5b505050506040513d601f19601f82011682018060405250810190612a409190613a99565b9050806001600160a01b03166391d14854826001600160a01b031663e58378bb6040518163ffffffff1660e01b8152600401602060405180830381865afa158015612a8f573d6000803e3d6000fd5b505050506040513d601f19601f82011682018060405250810190612ab39190613ab6565b336040518363ffffffff1660e01b8152600401612ad1929190613acf565b602060405180830381865afa158015612aee573d6000803e3d6000fd5b505050506040513d601f19601f82011682018060405250810190612b129190613ae6565b612b2e5760405162461bcd60e51b815260040161070d90613b03565b6001600160a01b038216600081815260a66020526040808220805460ff19169055517f9e9499495e2efd848d33cb197bde94612c1ec36f30605b60d445511e056069e19190a25050565b6097546040805163c8cc243f60e01b815290516000926001600160a01b03169163c8cc243f9160048083019260209291908290030181865afa158015612bc2573d6000803e3d6000fd5b505050506040513d601f19601f82011682018060405250810190612be69190613a99565b9050806001600160a01b03166391d14854826001600160a01b031663e58378bb6040518163ffffffff1660e01b8152600401602060405180830381865afa158015612c35573d6000803e3d6000fd5b505050506040513d601f19601f82011682018060405250810190612c599190613ab6565b336040518363ffffffff1660e01b8152600401612c77929190613acf565b602060405180830381865afa158015612c94573d6000803e3d6000fd5b505050506040513d601f19601f82011682018060405250810190612cb89190613ae6565b612cd45760405162461bcd60e51b815260040161070d90613b03565b612710821115612cf65760405162461bcd60e51b815260040161070d90613b87565b60c8821015612d515760405162461bcd60e51b81526020600482015260336024820152600080516020613dc88339815191526044820152721d5b4b59185a5b1e4b5cddd85c0b5b1a5b5a5d606a1b606482015260840161070d565b609f546040805184815260208101929092527f91fc53b44c6fd2d041f17f6121e3caacab265cf4b02f97d3fc6e2bc0c9d1ffe7910160405180910390a1609f829055609954600160a01b900460ff16156117515742609d55612db16135dc565b609e555050565b6097546040805163c8cc243f60e01b815290516000926001600160a01b03169163c8cc243f9160048083019260209291908290030181865afa158015612e02573d6000803e3d6000fd5b505050506040513d601f19601f82011682018060405250810190612e269190613a99565b9050806001600160a01b03166391d14854826001600160a01b031663e58378bb6040518163ffffffff1660e01b8152600401602060405180830381865afa158015612e75573d6000803e3d6000fd5b505050506040513d601f19601f82011682018060405250810190612e999190613ab6565b336040518363ffffffff1660e01b8152600401612eb7929190613acf565b602060405180830381865afa158015612ed4573d6000803e3d6000fd5b505050506040513d601f19601f82011682018060405250810190612ef89190613ae6565b612f145760405162461bcd60e51b815260040161070d90613b03565b6001821015612f6f5760405162461bcd60e51b81526020600482015260336024820152600080516020613dc88339815191526044820152721d5b4b589b1bd8dadccb5c195c8b5b1a5b5a5d606a1b606482015260840161070d565b60a5546040805184815260208101929092527fccf8e789fb000c09df38137a96907424dced975131f1321e0d4b75a5b1d8ceb0910160405180910390a15060a555565b6097546040805163c8cc243f60e01b815290516000926001600160a01b03169163c8cc243f9160048083019260209291908290030181865afa158015612ffc573d6000803e3d6000fd5b505050506040513d601f19601f820116820180604052508101906130209190613a99565b9050806001600160a01b03166391d14854826001600160a01b031663e58378bb6040518163ffffffff1660e01b8152600401602060405180830381865afa15801561306f573d6000803e3d6000fd5b505050506040513d601f19601f820116820180604052508101906130939190613ab6565b336040518363ffffffff1660e01b81526004016130b1929190613acf565b602060405180830381865afa1580156130ce573d6000803e3d6000fd5b505050506040513d601f19601f820116820180604052508101906130f29190613ae6565b61310e5760405162461bcd60e51b815260040161070d90613b03565b6001600160a01b038216600081815260a66020526040808220805460ff19166001179055517f4e3d8c117d484081f7268ed79cded71ad42979b92feb5f8f7f9824ac5cbfe3759190a25050565b6099546001600160a01b03166000818152609a6020908152604080832054815163313ce56760e01b8152915193946131b7949193909263313ce56792600480830193928290030181865afa1580156116a3573d6000803e3d6000fd5b6098546001600160a01b03166000908152609a60205260409020546131dc9190613bd2565b905090565b6002606554036132335760405162461bcd60e51b815260206004820152601f60248201527f5265656e7472616e637947756172643a207265656e7472616e742063616c6c00604482015260640161070d565b6002606555565b604080516001600160a01b038481166024830152604480830185905283518084039091018152606490920183526020820180516001600160e01b031663a9059cbb60e01b17905291516000928392908716916132969190613c41565b6000604051808303816000865af19150503d80600081146132d3576040519150601f19603f3d011682016040523d82523d6000602084013e6132d8565b606091505b50915091508180156133025750805115806133025750808060200190518101906133029190613ae6565b61333e5760405162461bcd60e51b815260206004820152600d60248201526c10b9b0b332aa3930b739b332b960991b604482015260640161070d565b5050505050565b6001606555565b600054610100900460ff166133735760405162461bcd60e51b815260040161070d90613c70565b61337b613928565b565b600054610100900460ff166133a45760405162461bcd60e51b815260040161070d90613c70565b61337b61395b565b60335460ff161561337b5760405162461bcd60e51b815260206004820152601060248201526f14185d5cd8589b194e881c185d5cd95960821b604482015260640161070d565b6040516370a0823160e01b81526001600160a01b038281166004830152600091908416906370a0823190602401602060405180830381865afa15801561343c573d6000803e3d6000fd5b505050506040513d601f19601f820116820180604052508101906134609190613ab6565b90505b92915050565b604080516001600160a01b0385811660248301528481166044830152606480830185905283518084039091018152608490920183526020820180516001600160e01b03166323b872dd60e01b17905291516000928392908816916134cd9190613c41565b6000604051808303816000865af19150503d806000811461350a576040519150601f19603f3d011682016040523d82523d6000602084013e61350f565b606091505b50915091508180156135395750805115806135395750808060200190518101906135399190613ae6565b6135795760405162461bcd60e51b815260206004820152601160248201527021736166655472616e7366657246726f6d60781b604482015260640161070d565b505050505050565b60008260ff168260ff1610156135b55761359b8284613cbb565b6135a690600a613db8565b6135b09085613c1f565b6135d4565b6135bf8383613cbb565b6135ca90600a613db8565b6135d49085613c08565b949350505050565b600080612710609f5460a3546135f29190613c08565b6134639190613c1f565b6136046138a2565b6033805460ff191690557f5db9ee0a495bf2e6ff9c91a7834c1ba4fdd244a5e8aa4e537bd38aeae4b073aa335b6040516001600160a01b03909116815260200160405180910390a1565b61271060a05460a3546136619190613c08565b61366b9190613c1f565b811115610bac5760405162461bcd60e51b815260206004820152602f60248201527f5f636865636b53696e676c65537761704c696d69742f73696e676c652d73776160448201526e1c0b595e18d959591ccb5b1a5b5a5d608a1b606482015260840161070d565b62015180609d54426136e49190613b74565b106136f95742609d556136f56135dc565b609e555b80609e5410156137625760405162461bcd60e51b815260206004820152602e60248201527f5f757064617465416e64436865636b4461696c794c696d69742f6461696c792d60448201526d1b1a5b5a5d0b595e18d95959195960921b606482015260840161070d565b80609e60008282546137749190613b74565b9091555050609e546040519081527f3ba6536311b1b8c63364031768ec0197123478d2fc4b4c54f710b85c32c12b31906020016119bc565b60a55433600090815260a860205260409020546137c99043613b74565b106137f05733600090815260a86020908152604080832043905560a45460a7909252909120555b33600090815260a76020526040902054613874576040805162461bcd60e51b81526020600482015260248101919091527f5f757064617465416e64436865636b4e756d6265724f665377617073496e426c60448201527f6f636b735065724c696d69742f737761702d6c696d69742d6578636565646564606482015260840161070d565b33600090815260a7602052604090205461389090600190613b74565b33600090815260a76020526040902055565b60335460ff1661337b5760405162461bcd60e51b815260206004820152601460248201527314185d5cd8589b194e881b9bdd081c185d5cd95960621b604482015260640161070d565b6138f36133ac565b6033805460ff191660011790557f62e78cea01bee320cd4e420270b5ea74000d11b0c9f74754ebdbfc544b05a2586136313390565b600054610100900460ff1661394f5760405162461bcd60e51b815260040161070d90613c70565b6033805460ff19169055565b600054610100900460ff166133455760405162461bcd60e51b815260040161070d90613c70565b60006020828403121561399457600080fd5b5035919050565b6001600160a01b0381168114610bac57600080fd5b6000602082840312156139c257600080fd5b81356139cd8161399b565b9392505050565b8015158114610bac57600080fd5b6000602082840312156139f457600080fd5b81356139cd816139d4565b600080600080600080600060e0888a031215613a1a57600080fd5b8735613a258161399b565b96506020880135613a358161399b565b95506040880135613a458161399b565b969995985095966060810135965060808101359560a0820135955060c0909101359350915050565b60008060408385031215613a8057600080fd5b8235613a8b8161399b565b946020939093013593505050565b600060208284031215613aab57600080fd5b81516139cd8161399b565b600060208284031215613ac857600080fd5b5051919050565b9182526001600160a01b0316602082015260400190565b600060208284031215613af857600080fd5b81516139cd816139d4565b6020808252600a9082015269216f776e6572526f6c6560b01b604082015260600190565b60208082526017908201527f21286f776e6572526f6c65206f7220676f76526f6c6529000000000000000000604082015260600190565b634e487b7160e01b600052601160045260246000fd5b8181038181111561346357613463613b5e565b6020808252602b908201527f537461626c65537761704d6f64756c652f6e756d657261746f722d6f7665722d60408201526a3232b737b6b4b730ba37b960a91b606082015260800190565b8082018082111561346357613463613b5e565b600060208284031215613bf757600080fd5b815160ff811681146139cd57600080fd5b808202811582820484141761346357613463613b5e565b600082613c3c57634e487b7160e01b600052601260045260246000fd5b500490565b6000825160005b81811015613c625760208186018101518583015201613c48565b506000920191825250919050565b6020808252602b908201527f496e697469616c697a61626c653a20636f6e7472616374206973206e6f74206960408201526a6e697469616c697a696e6760a81b606082015260800190565b60ff828116828216039081111561346357613463613b5e565b600181815b80851115613d0f578160001904821115613cf557613cf5613b5e565b80851615613d0257918102915b93841c9390800290613cd9565b509250929050565b600082613d2657506001613463565b81613d3357506000613463565b8160018114613d495760028114613d5357613d6f565b6001915050613463565b60ff841115613d6457613d64613b5e565b50506001821b613463565b5060208310610133831016604e8410600b8410161715613d92575081810a613463565b613d9c8383613cd4565b8060001904821115613db057613db0613b5e565b029392505050565b600061346060ff841683613d1756fe537461626c65537761704d6f64756c652f6c6573732d7468616e2d6d696e696da26469706673582212201fe26e2cbdababb45b9cc7776acee4cc1f5acee92d8e90ed633c2559927549b464736f6c63430008110033",
    "immutableReferences": {},
    "source": "// SPDX-License-Identifier: AGPL-3.0-or-later\npragma solidity 0.8.17;\n\nimport \"@openzeppelin/contracts-upgradeable/access/OwnableUpgradeable.sol\";\nimport \"@openzeppelin/contracts-upgradeable/security/PausableUpgradeable.sol\";\nimport \"@openzeppelin/contracts-upgradeable/access/AccessControlUpgradeable.sol\";\nimport \"@openzeppelin/contracts-upgradeable/security/ReentrancyGuardUpgradeable.sol\";\n\nimport \"../interfaces/IToken.sol\";\nimport \"../interfaces/IStablecoinAdapter.sol\";\nimport \"../interfaces/IStablecoin.sol\";\nimport \"../interfaces/IBookKeeper.sol\";\nimport \"../interfaces/IStableSwapModule.sol\";\nimport \"../utils/SafeToken.sol\";\n\n// Stable Swap Module\n// Allows anyone to go between FUSD and the Token by pooling the liquidity\n// An optional fee is charged for incoming and outgoing transfers\ncontract StableSwapModule is PausableUpgradeable, ReentrancyGuardUpgradeable, IStableSwapModule {\n    using SafeToken for address;\n\n    uint256 public constant ONE_DAY = 86400;\n    uint256 public constant MINIMUM_DAILY_SWAP_LIMIT = 1000 * 1e18;\n    uint256 internal constant WAD = 10 ** 18;\n\n    IBookKeeper public bookKeeper;\n    address public stablecoin;\n    address public token;\n    bool public isDecentralizedState;\n    mapping(address => uint256) public tokenBalance;\n\n    uint256 public feeIn; // fee in [wad]\n    uint256 public feeOut; // fee out [wad]\n    uint256 public lastUpdate;\n\n    uint256 public remainingDailySwapAmount; // [wad]\n    uint256 public dailySwapLimitNumerator;\n    uint256 public singleSwapLimitNumerator;\n    uint256 public totalTokenFeeBalance; // [wad]\n    uint256 public totalFXDFeeBalance; // [wad]\n    uint256 public totalValueDeposited;\n    uint256 public numberOfSwapsLimitPerUser;\n    uint256 public blocksPerLimit;\n\n    uint256 public constant DAILY_SWAP_LIMIT_DENOMINATOR = 10000;\n    uint256 public constant SINGLE_SWAP_LIMIT_DENOMINATOR = 10000;\n    uint256 public constant MINIMUM_DAILY_SWAP_LIMIT_NUMERATOR = 200; //200/10000 = 2%\n    uint256 public constant MINIMUM_SINGLE_SWAP_LIMIT_NUMERATOR = 20; //20/10000 = 0.2%\n    uint256 public constant MINIMUM_BLOCKS_PER_LIMIT = 1;\n    uint256 public constant MINIMUM_NUMBER_OF_SWAPS_LIMIT_PER_USER = 1;\n\n    mapping(address => bool) public usersWhitelist;\n    mapping(address => uint256) public numberOfSwapsRemainingPerUserInBlockLimit;\n    mapping(address => uint256) public lastSwapBlockNumberPerUser;\n\n    event LogSetFeeIn(address indexed _caller, uint256 _feeIn);\n    event LogSetFeeOut(address indexed _caller, uint256 _feeOut);\n    event LogSwapTokenToStablecoin(address indexed _owner, uint256 _value, uint256 _fee);\n    event LogSwapStablecoinToToken(address indexed _owner, uint256 _value, uint256 _fee);\n    event LogDailySwapLimitUpdate(uint256 _newDailySwapLimit, uint256 _oldDailySwapLimit);\n    event LogSingleSwapLimitUpdate(uint256 _newSingleSwapLimit, uint256 _oldSingleSwapLimit);\n    event LogDepositToken(address indexed _owner, address indexed _token, uint256 _value);\n    event LogWithdrawFees(address indexed _destination, uint256 _stablecoinFee, uint256 _tokenFee);\n    event LogRemainingDailySwapAmount(uint256 _remainingDailySwapAmount);\n    event LogStableSwapPauseState(bool _pauseState);\n    event LogEmergencyWithdraw(address indexed _account);\n    event LogDecentralizedStateStatus(bool _oldDecentralizedStateStatus, bool _newDecentralizedStateStatus);\n    event LogAddToWhitelist(address indexed user);\n    event LogRemoveFromWhitelist(address indexed user);\n    event LogNumberOfSwapsLimitPerUserUpdate(uint256 _newNumberOfSwapsLimitPerUser, uint256 _oldNumberOfSwapsLimitPerUser);\n    event LogBlocksPerLimitUpdate(uint256 _newBlocksPerLimit, uint256 _oldBlocksPerLimit);\n\n    modifier onlyOwner() {\n        IAccessControlConfig _accessControlConfig = IAccessControlConfig(bookKeeper.accessControlConfig());\n        require(_accessControlConfig.hasRole(_accessControlConfig.OWNER_ROLE(), msg.sender), \"!ownerRole\");\n        _;\n    }\n\n    modifier onlyOwnerOrGov() {\n        IAccessControlConfig _accessControlConfig = IAccessControlConfig(IBookKeeper(bookKeeper).accessControlConfig());\n        require(\n            _accessControlConfig.hasRole(_accessControlConfig.OWNER_ROLE(), msg.sender) ||\n                _accessControlConfig.hasRole(_accessControlConfig.GOV_ROLE(), msg.sender),\n            \"!(ownerRole or govRole)\"\n        );\n        _;\n    }\n\n    modifier onlyWhitelistedIfNotDecentralized() {\n        if (!isDecentralizedState) {\n            require(usersWhitelist[msg.sender], \"user-not-whitelisted\");\n        }\n        _;\n    }\n\n    function initialize(\n        address _bookKeeper,\n        address _token,\n        address _stablecoin,\n        uint256 _dailySwapLimitNumerator,\n        uint256 _singleSwapLimitNumerator,\n        uint256 _numberOfSwapsLimitPerUser,\n        uint256 _blocksPerLimit\n    ) external initializer {\n        PausableUpgradeable.__Pausable_init();\n        ReentrancyGuardUpgradeable.__ReentrancyGuard_init();\n        require(_dailySwapLimitNumerator >= MINIMUM_DAILY_SWAP_LIMIT_NUMERATOR, \"initialize/less-than-minimum-daily-swap-limit\");\n        require(_singleSwapLimitNumerator >= MINIMUM_SINGLE_SWAP_LIMIT_NUMERATOR, \"initialize/less-than-minimum-single-swap-limit\");\n        require(_numberOfSwapsLimitPerUser >= MINIMUM_NUMBER_OF_SWAPS_LIMIT_PER_USER, \"initialize/less-than-minimum-number-of-swaps-limit-per-user\");\n        require(_blocksPerLimit >= MINIMUM_BLOCKS_PER_LIMIT, \"initialize/less-than-minimum-blocks-per-limit\");\n\n        bookKeeper = IBookKeeper(_bookKeeper);\n        stablecoin = _stablecoin;\n        token = _token;\n        dailySwapLimitNumerator = _dailySwapLimitNumerator;\n        singleSwapLimitNumerator = _singleSwapLimitNumerator;\n        numberOfSwapsLimitPerUser = _numberOfSwapsLimitPerUser;\n        blocksPerLimit = _blocksPerLimit;\n    }\n\n    function setDailySwapLimitNumerator(uint256 newdailySwapLimitNumerator) external onlyOwner {\n        require(newdailySwapLimitNumerator <= DAILY_SWAP_LIMIT_DENOMINATOR, \"StableSwapModule/numerator-over-denominator\");\n        require(newdailySwapLimitNumerator >= MINIMUM_DAILY_SWAP_LIMIT_NUMERATOR, \"StableSwapModule/less-than-minimum-daily-swap-limit\");\n        emit LogDailySwapLimitUpdate(newdailySwapLimitNumerator, dailySwapLimitNumerator);\n        dailySwapLimitNumerator = newdailySwapLimitNumerator;\n        if (isDecentralizedState) {\n            lastUpdate = block.timestamp;\n            remainingDailySwapAmount = _dailySwapLimit();\n        }\n    }\n\n    function setSingleSwapLimitNumerator(uint256 newSingleSwapLimitNumerator) external onlyOwner {\n        require(newSingleSwapLimitNumerator <= SINGLE_SWAP_LIMIT_DENOMINATOR, \"StableSwapModule/numerator-over-denominator\");\n        require(newSingleSwapLimitNumerator >= MINIMUM_SINGLE_SWAP_LIMIT_NUMERATOR, \"StableSwapModule/less-than-minimum-single-swap-limit\");\n        emit LogSingleSwapLimitUpdate(newSingleSwapLimitNumerator, singleSwapLimitNumerator);\n        singleSwapLimitNumerator = newSingleSwapLimitNumerator;\n    }\n\n    function setNumberOfSwapsLimitPerUser(uint256 newNumberOfSwapsLimitPerUser) external onlyOwner {\n        require(\n            newNumberOfSwapsLimitPerUser >= MINIMUM_NUMBER_OF_SWAPS_LIMIT_PER_USER,\n            \"StableSwapModule/less-than-minimum-number-of-swaps-limit-per-user\"\n        );\n        emit LogNumberOfSwapsLimitPerUserUpdate(newNumberOfSwapsLimitPerUser, numberOfSwapsLimitPerUser);\n        numberOfSwapsLimitPerUser = newNumberOfSwapsLimitPerUser;\n    }\n\n    function setBlocksPerLimit(uint256 newBlocksPerLimit) external onlyOwner {\n        require(newBlocksPerLimit >= MINIMUM_BLOCKS_PER_LIMIT, \"StableSwapModule/less-than-minimum-blocks-per-limit\");\n        emit LogBlocksPerLimitUpdate(newBlocksPerLimit, blocksPerLimit);\n        blocksPerLimit = newBlocksPerLimit;\n    }\n\n    function setFeeIn(uint256 _feeIn) external onlyOwner {\n        require(_feeIn <= 5 * 1e17, \"StableSwapModule/invalid-fee-in\"); // Max feeIn is 0.5 Ethers or 50%\n        feeIn = _feeIn;\n        emit LogSetFeeIn(msg.sender, _feeIn);\n    }\n\n    function setFeeOut(uint256 _feeOut) external onlyOwner {\n        require(_feeOut <= 5 * 1e17, \"StableSwapModule/invalid-fee-out\"); // Max feeOut is 0.5 Ethers or 50%\n        feeOut = _feeOut;\n        emit LogSetFeeOut(msg.sender, _feeOut);\n    }\n\n    function setDecentralizedStatesStatus(bool _status) external onlyOwner {\n        isDecentralizedState = _status;\n        emit LogDecentralizedStateStatus(isDecentralizedState, _status);\n    }\n\n    function addToWhitelist(address _user) external onlyOwner {\n        usersWhitelist[_user] = true;\n        emit LogAddToWhitelist(_user);\n    }\n\n    function removeFromWhitelist(address _user) external onlyOwner {\n        usersWhitelist[_user] = false;\n        emit LogRemoveFromWhitelist(_user);\n    }\n\n    function swapTokenToStablecoin(address _usr, uint256 _amount) external override whenNotPaused onlyWhitelistedIfNotDecentralized nonReentrant {\n        require(_amount != 0, \"StableSwapModule/amount-zero\");\n\n        uint256 tokenAmount18 = _convertDecimals(_amount, IToken(token).decimals(), 18);\n        uint256 fee = (tokenAmount18 * feeIn) / WAD;\n        uint256 stablecoinAmount = tokenAmount18 - fee;\n        require(tokenBalance[stablecoin] >= stablecoinAmount, \"swapTokenToStablecoin/not-enough-stablecoin-balance\");\n\n        if (isDecentralizedState) {\n            _checkSingleSwapLimit(tokenAmount18);\n            _updateAndCheckDailyLimit(tokenAmount18);\n            _updateAndCheckNumberOfSwapsInBlocksPerLimit();\n        }\n\n        tokenBalance[stablecoin] -= stablecoinAmount;\n        tokenBalance[token] += _amount;\n        totalFXDFeeBalance += fee;\n\n        token.safeTransferFrom(msg.sender, address(this), _amount);\n        stablecoin.safeTransfer(_usr, stablecoinAmount);\n        emit LogSwapTokenToStablecoin(_usr, _amount, fee);\n    }\n\n    function swapStablecoinToToken(address _usr, uint256 _amount) external override whenNotPaused onlyWhitelistedIfNotDecentralized nonReentrant {\n        require(_amount != 0, \"StableSwapModule/amount-zero\");\n\n        uint256 fee = (_amount * feeOut) / WAD;\n        uint256 tokenAmount = _convertDecimals(_amount - fee, 18, IToken(token).decimals());\n\n        require(tokenBalance[token] >= tokenAmount, \"swapStablecoinToToken/not-enough-token-balance\");\n\n        if (isDecentralizedState) {\n            _checkSingleSwapLimit(_amount);\n            _updateAndCheckDailyLimit(_amount);\n            _updateAndCheckNumberOfSwapsInBlocksPerLimit();\n        }\n\n        tokenBalance[token] -= tokenAmount;\n        tokenBalance[stablecoin] += _amount;\n        totalTokenFeeBalance += _convertDecimals(fee, 18, IToken(token).decimals());\n\n        stablecoin.safeTransferFrom(msg.sender, address(this), _amount);\n        token.safeTransfer(_usr, tokenAmount);\n        emit LogSwapStablecoinToToken(_usr, _amount, fee);\n    }\n\n    function depositToken(address _token, uint256 _amount) external override nonReentrant whenNotPaused onlyOwnerOrGov {\n        require(_token == token || _token == stablecoin, \"depositStablecoin/invalid-token\");\n        require(_amount != 0, \"depositStablecoin/amount-zero\");\n        require(_token.balanceOf(msg.sender) >= _amount, \"depositStablecoin/not-enough-balance\");\n        tokenBalance[_token] += _amount;\n        _token.safeTransferFrom(msg.sender, address(this), _amount);\n        totalValueDeposited += _convertDecimals(_amount, IToken(_token).decimals(), 18);\n\n        if (isDecentralizedState) {\n            lastUpdate = block.timestamp;\n            remainingDailySwapAmount = _dailySwapLimit();\n        }\n\n        emit LogDepositToken(msg.sender, _token, _amount);\n    }\n\n    function withdrawFees(address _destination) external override nonReentrant onlyOwnerOrGov {\n        require(_destination != address(0), \"withdrawFees/wrong-destination\");\n        require(totalFXDFeeBalance != 0 || totalTokenFeeBalance != 0, \"withdrawFees/no-fee-balance\");\n        uint256 pendingFXDBalance = totalFXDFeeBalance;\n        if (pendingFXDBalance != 0) {\n            totalFXDFeeBalance = 0;\n            tokenBalance[stablecoin] -= pendingFXDBalance;\n            stablecoin.safeTransfer(_destination, pendingFXDBalance);\n        }\n        uint256 pendingTokenBalance = totalTokenFeeBalance;\n        if (pendingTokenBalance != 0) {\n            totalTokenFeeBalance = 0;\n            tokenBalance[token] -= pendingTokenBalance;\n            token.safeTransfer(_destination, pendingTokenBalance);\n        }\n\n        emit LogWithdrawFees(_destination, pendingFXDBalance, pendingTokenBalance);\n    }\n\n    function pause() external onlyOwnerOrGov {\n        _pause();\n        emit LogStableSwapPauseState(true);\n    }\n\n    function unpause() external onlyOwnerOrGov {\n        _unpause();\n        emit LogStableSwapPauseState(false);\n    }\n\n    function emergencyWithdraw(address _account) external override nonReentrant onlyOwnerOrGov whenPaused {\n        require(_account != address(0), \"withdrawFees/empty-account\");\n        tokenBalance[token] = 0;\n        tokenBalance[stablecoin] = 0;\n        token.safeTransfer(_account, token.balanceOf(address(this)));\n        stablecoin.safeTransfer(_account, stablecoin.balanceOf(address(this)));\n        emit LogEmergencyWithdraw(_account);\n    }\n\n    function isUserWhitelisted(address _user) external view returns (bool) {\n        return usersWhitelist[_user];\n    }\n\n    function totalValueLocked() external view returns (uint256) {\n        return tokenBalance[stablecoin] + _convertDecimals(tokenBalance[token], IToken(token).decimals(), 18);\n    }\n\n    function _updateAndCheckDailyLimit(uint256 _amount) internal {\n        if (block.timestamp - lastUpdate >= ONE_DAY) {\n            lastUpdate = block.timestamp;\n            remainingDailySwapAmount = _dailySwapLimit();\n        }\n        require(remainingDailySwapAmount >= _amount, \"_updateAndCheckDailyLimit/daily-limit-exceeded\");\n        remainingDailySwapAmount -= _amount;\n        emit LogRemainingDailySwapAmount(remainingDailySwapAmount);\n    }\n\n    function _updateAndCheckNumberOfSwapsInBlocksPerLimit() internal {\n        if (block.number - lastSwapBlockNumberPerUser[msg.sender] >= blocksPerLimit) {\n            lastSwapBlockNumberPerUser[msg.sender] = block.number;\n            numberOfSwapsRemainingPerUserInBlockLimit[msg.sender] = numberOfSwapsLimitPerUser;\n        }\n        require(numberOfSwapsRemainingPerUserInBlockLimit[msg.sender] > 0, \"_updateAndCheckNumberOfSwapsInBlocksPerLimit/swap-limit-exceeded\");\n        numberOfSwapsRemainingPerUserInBlockLimit[msg.sender] = numberOfSwapsRemainingPerUserInBlockLimit[msg.sender] - 1;\n    }\n\n    function _checkSingleSwapLimit(uint256 _amount) internal view {\n        require(\n            _amount <= (totalValueDeposited * singleSwapLimitNumerator) / SINGLE_SWAP_LIMIT_DENOMINATOR,\n            \"_checkSingleSwapLimit/single-swap-exceeds-limit\"\n        );\n    }\n\n    function _dailySwapLimit() internal view returns (uint256) {\n        uint256 newDailySwapLimit = (totalValueDeposited * dailySwapLimitNumerator) / DAILY_SWAP_LIMIT_DENOMINATOR;\n        return newDailySwapLimit;\n    }\n\n    function _convertDecimals(uint256 _amount, uint8 _fromDecimals, uint8 _toDecimals) internal pure returns (uint256 result) {\n        result = _toDecimals >= _fromDecimals ? _amount * (10 ** (_toDecimals - _fromDecimals)) : _amount / (10 ** (_fromDecimals - _toDecimals));\n    }\n}\n",
    "sourcePath": "/Users/antongrigorev/Developer/fathom-stablecoin-smart-contracts/contracts/main/stablecoin-core/StableSwapModule.sol",
    "compiler": {
        "name": "solc",
        "version": "0.8.17+commit.8df45f5f.Emscripten.clang"
    },
    "schemaVersion": "3.4.13",
    "updatedAt": "2023-04-27T21:05:38.843Z",
    "devdoc": {
        "kind": "dev",
        "methods": {
            "paused()": {
                "details": "Returns true if the contract is paused, and false otherwise."
            }
        },
        "version": 1
    },
    "userdoc": {
        "kind": "user",
        "methods": {},
        "version": 1
    }
}