{
  "_format": "hh-sol-artifact-1",
  "contractName": "StableSwapModule",
  "sourceName": "contracts/6.12/stablecoin-core/StableSwapModule.sol",
  "abi": [
    {
      "inputs": [
        {
          "internalType": "address",
          "name": "_authTokenAdapter",
          "type": "address"
        },
        {
          "internalType": "address",
          "name": "_stablecoinAdapter",
          "type": "address"
        },
        {
          "internalType": "address",
          "name": "_systemDebtEngine",
          "type": "address"
        }
      ],
      "stateMutability": "nonpayable",
      "type": "constructor"
    },
    {
      "anonymous": false,
      "inputs": [
        {
          "indexed": true,
          "internalType": "address",
          "name": "_caller",
          "type": "address"
        },
        {
          "indexed": false,
          "internalType": "uint256",
          "name": "_feeIn",
          "type": "uint256"
        }
      ],
      "name": "LogSetFeeIn",
      "type": "event"
    },
    {
      "anonymous": false,
      "inputs": [
        {
          "indexed": true,
          "internalType": "address",
          "name": "_caller",
          "type": "address"
        },
        {
          "indexed": false,
          "internalType": "uint256",
          "name": "_feeOut",
          "type": "uint256"
        }
      ],
      "name": "LogSetFeeOut",
      "type": "event"
    },
    {
      "anonymous": false,
      "inputs": [
        {
          "indexed": true,
          "internalType": "address",
          "name": "_owner",
          "type": "address"
        },
        {
          "indexed": false,
          "internalType": "uint256",
          "name": "_value",
          "type": "uint256"
        },
        {
          "indexed": false,
          "internalType": "uint256",
          "name": "_fee",
          "type": "uint256"
        }
      ],
      "name": "LogSwapStablecoinToToken",
      "type": "event"
    },
    {
      "anonymous": false,
      "inputs": [
        {
          "indexed": true,
          "internalType": "address",
          "name": "_owner",
          "type": "address"
        },
        {
          "indexed": false,
          "internalType": "uint256",
          "name": "_value",
          "type": "uint256"
        },
        {
          "indexed": false,
          "internalType": "uint256",
          "name": "_fee",
          "type": "uint256"
        }
      ],
      "name": "LogSwapTokenToStablecoin",
      "type": "event"
    },
    {
      "inputs": [],
      "name": "authTokenAdapter",
      "outputs": [
        {
          "internalType": "contract IAuthTokenAdapter",
          "name": "",
          "type": "address"
        }
      ],
      "stateMutability": "view",
      "type": "function"
    },
    {
      "inputs": [
        {
          "internalType": "address",
          "name": "_usr",
          "type": "address"
        }
      ],
      "name": "blacklist",
      "outputs": [],
      "stateMutability": "nonpayable",
      "type": "function"
    },
    {
      "inputs": [],
      "name": "bookKeeper",
      "outputs": [
        {
          "internalType": "contract IBookKeeper",
          "name": "",
          "type": "address"
        }
      ],
      "stateMutability": "view",
      "type": "function"
    },
    {
      "inputs": [],
      "name": "collateralPoolId",
      "outputs": [
        {
          "internalType": "bytes32",
          "name": "",
          "type": "bytes32"
        }
      ],
      "stateMutability": "view",
      "type": "function"
    },
    {
      "inputs": [],
      "name": "feeIn",
      "outputs": [
        {
          "internalType": "uint256",
          "name": "",
          "type": "uint256"
        }
      ],
      "stateMutability": "view",
      "type": "function"
    },
    {
      "inputs": [],
      "name": "feeOut",
      "outputs": [
        {
          "internalType": "uint256",
          "name": "",
          "type": "uint256"
        }
      ],
      "stateMutability": "view",
      "type": "function"
    },
    {
      "inputs": [
        {
          "internalType": "uint256",
          "name": "_feeIn",
          "type": "uint256"
        }
      ],
      "name": "setFeeIn",
      "outputs": [],
      "stateMutability": "nonpayable",
      "type": "function"
    },
    {
      "inputs": [
        {
          "internalType": "uint256",
          "name": "_feeOut",
          "type": "uint256"
        }
      ],
      "name": "setFeeOut",
      "outputs": [],
      "stateMutability": "nonpayable",
      "type": "function"
    },
    {
      "inputs": [],
      "name": "stablecoin",
      "outputs": [
        {
          "internalType": "contract IStablecoin",
          "name": "",
          "type": "address"
        }
      ],
      "stateMutability": "view",
      "type": "function"
    },
    {
      "inputs": [],
      "name": "stablecoinAdapter",
      "outputs": [
        {
          "internalType": "contract IStablecoinAdapter",
          "name": "",
          "type": "address"
        }
      ],
      "stateMutability": "view",
      "type": "function"
    },
    {
      "inputs": [
        {
          "internalType": "address",
          "name": "_usr",
          "type": "address"
        },
        {
          "internalType": "uint256",
          "name": "_tokenAmount",
          "type": "uint256"
        }
      ],
      "name": "swapStablecoinToToken",
      "outputs": [],
      "stateMutability": "nonpayable",
      "type": "function"
    },
    {
      "inputs": [
        {
          "internalType": "address",
          "name": "_usr",
          "type": "address"
        },
        {
          "internalType": "uint256",
          "name": "_tokenAmount",
          "type": "uint256"
        }
      ],
      "name": "swapTokenToStablecoin",
      "outputs": [],
      "stateMutability": "nonpayable",
      "type": "function"
    },
    {
      "inputs": [],
      "name": "systemDebtEngine",
      "outputs": [
        {
          "internalType": "address",
          "name": "",
          "type": "address"
        }
      ],
      "stateMutability": "view",
      "type": "function"
    },
    {
      "inputs": [
        {
          "internalType": "address",
          "name": "_usr",
          "type": "address"
        }
      ],
      "name": "whitelist",
      "outputs": [],
      "stateMutability": "nonpayable",
      "type": "function"
    }
  ],
  "bytecode": "0x60806040523480156200001157600080fd5b506040516200137338038062001373833981810160405260608110156200003757600080fd5b508051602080830151604093840151600180546001600160a01b038087166001600160a01b03199283168117909355600380549186169190921617905585516371d9c99560e11b81529551949592949193869386936000939263e3b3932a926004808201939182900301818787803b158015620000b357600080fd5b505af1158015620000c8573d6000803e3d6000fd5b505050506040513d6020811015620000df57600080fd5b5051600080546001600160a01b0319166001600160a01b03808416919091178255604080516374e5ec1160e11b8152905193945091929085169163e9cbd82291600480830192602092919082900301818787803b1580156200014057600080fd5b505af115801562000155573d6000803e3d6000fd5b505050506040513d60208110156200016c57600080fd5b5051600280546001600160a01b0319166001600160a01b03808416919091179091556040805163dca07dc560e01b815290519293509086169163dca07dc5916004808201926020929091908290030181600087803b158015620001ce57600080fd5b505af1158015620001e3573d6000803e3d6000fd5b505050506040513d6020811015620001fa57600080fd5b50516004908155600580546001600160a01b0319166001600160a01b03888116919091179091556040805163313ce56760e01b815290519187169263313ce5679282820192602092908290030181600087803b1580156200025a57600080fd5b505af11580156200026f573d6000803e3d6000fd5b505050506040513d60208110156200028657600080fd5b5051601203600a0a600655620002b56001600160a01b038216876000196200032b602090811b62000b9e17901c565b816001600160a01b0316639b19251a876040518263ffffffff1660e01b815260040180826001600160a01b03168152602001915050600060405180830381600087803b1580156200030557600080fd5b505af11580156200031a573d6000803e3d6000fd5b50505050505050505050506200048c565b604080516001600160a01b038481166024830152604480830185905283518084039091018152606490920183526020820180516001600160e01b031663095ea7b360e01b178152925182516000946060949389169392918291908083835b60208310620003aa5780518252601f19909201916020918201910162000389565b6001836020036101000a0380198251168184511680821785525050505050509050019150506000604051808303816000865af19150503d80600081146200040e576040519150601f19603f3d011682016040523d82523d6000602084013e62000413565b606091505b5091509150818015620004445750805115806200044457508080602001905160208110156200044157600080fd5b50515b62000485576040805162461bcd60e51b815260206004820152600c60248201526b2173616665417070726f766560a01b604482015290519081900360640190fd5b5050505050565b610ed7806200049c6000396000f3fe608060405234801561001057600080fd5b50600436106100ea5760003560e01c806381e28cc71161008c578063e3b3932a11610066578063e3b3932a146101ff578063e723b97714610207578063e9cbd8221461020f578063f9f92be414610217576100ea565b806381e28cc7146101a55780639b19251a146101d1578063dca07dc5146101f7576100ea565b806342e8a972116100c857806342e8a9721461015b57806346a311d31461017857806355725d4114610180578063769a48d91461019d576100ea565b80630696819f146100ef57806328e49a421461010957806340853dce1461012d575b600080fd5b6100f761023d565b60408051918252519081900360200190f35b610111610243565b604080516001600160a01b039092168252519081900360200190f35b6101596004803603604081101561014357600080fd5b506001600160a01b038135169060200135610252565b005b6101596004803603602081101561017157600080fd5b50356105d6565b610111610671565b6101596004803603602081101561019657600080fd5b5035610680565b6100f761071b565b610159600480360360408110156101bb57600080fd5b506001600160a01b038135169060200135610721565b610159600480360360208110156101e757600080fd5b50356001600160a01b0316610aba565b6100f7610b20565b610111610b26565b610111610b35565b610111610b44565b6101596004803603602081101561022d57600080fd5b50356001600160a01b0316610b53565b60085481565b6005546001600160a01b031681565b806102a4576040805162461bcd60e51b815260206004820152601c60248201527f537461626c65537761704d6f64756c652f616d6f756e742d7a65726f00000000604482015290519081900360640190fd5b60006102b282600654610cf0565b90506000670de0b6b3a76400006102cb83600754610cf0565b816102d257fe5b04905060006102e18383610d1a565b60015460408051633d14d1b760e21b81523060048201526024810188905233604482015290519293506001600160a01b039091169163f45346dc9160648082019260009290919082900301818387803b15801561033d57600080fd5b505af1158015610351573d6000803e3d6000fd5b5050600080546004805460408051632b5eaca560e11b81529283019190915230602483018190526044830181905260648301526084820189905260a48201899052516001600160a01b0390921694506356bd594a935060c480820193929182900301818387803b1580156103c457600080fd5b505af11580156103d8573d6000803e3d6000fd5b50506000546005546001600160a01b039182169350638c157854925030911661040d866b033b2e3c9fd0803ce8000000610cf0565b6040518463ffffffff1660e01b815260040180846001600160a01b03168152602001836001600160a01b031681526020018281526020019350505050600060405180830381600087803b15801561046357600080fd5b505af1158015610477573d6000803e3d6000fd5b50505050600360009054906101000a90046001600160a01b03166001600160a01b03166331f0926586836000604051602001808281526020019150506040516020818303038152906040526040518463ffffffff1660e01b815260040180846001600160a01b0316815260200183815260200180602001828103825283818151815260200191508051906020019080838360005b8381101561052357818101518382015260200161050b565b50505050905090810190601f1680156105505780820380516001836020036101000a031916815260200191505b50945050505050600060405180830381600087803b15801561057157600080fd5b505af1158015610585573d6000803e3d6000fd5b5050604080518781526020810186905281516001600160a01b038a1694507febeefb54ae6b697f8f7b14ec942871ef2fc051ec90c2a221007e5a5702a4d7f293509081900390910190a25050505050565b6706f05b59d3b20000811115610633576040805162461bcd60e51b815260206004820152601f60248201527f537461626c65537761704d6f64756c652f696e76616c69642d6665652d696e00604482015290519081900360640190fd5b600881905560408051828152905133917fca068f6ffd884c8217e477778ef3821efcb5e96690cff9e680c7dbd077d1d1bd919081900360200190a250565b6003546001600160a01b031681565b6706f05b59d3b200008111156106dd576040805162461bcd60e51b815260206004820152601f60248201527f537461626c65537761704d6f64756c652f696e76616c69642d6665652d696e00604482015290519081900360640190fd5b600781905560408051828152905133917f761b3141cbb42e607f4e550cf06b417f5d0fe476ee4fb6b9fbb34c4ae134b813919081900360200190a250565b60075481565b80610773576040805162461bcd60e51b815260206004820152601c60248201527f537461626c65537761704d6f64756c652f616d6f756e742d7a65726f00000000604482015290519081900360640190fd5b600061078182600654610cf0565b90506000670de0b6b3a764000061079a83600854610cf0565b816107a157fe5b04905060006107b08383610d2a565b6002549091506107cb906001600160a01b0316333084610d3a565b600360009054906101000a90046001600160a01b03166001600160a01b03166349bdc2b830836000604051602001808281526020019150506040516020818303038152906040526040518463ffffffff1660e01b815260040180846001600160a01b0316815260200183815260200180602001828103825283818151815260200191508051906020019080838360005b8381101561087357818101518382015260200161085b565b50505050905090810190601f1680156108a05780820380516001836020036101000a031916815260200191505b50945050505050600060405180830381600087803b1580156108c157600080fd5b505af11580156108d5573d6000803e3d6000fd5b5050600080546004805460408051632b5eaca560e11b81529283019190915230602483018190526044830181905260648301528884036084830181905260a4830152516001600160a01b0390921694506356bd594a935060c480820193929182900301818387803b15801561094957600080fd5b505af115801561095d573d6000803e3d6000fd5b50506001546040805163f3fef3a360e01b81526001600160a01b038a81166004830152602482018a9052915191909216935063f3fef3a39250604480830192600092919082900301818387803b1580156109b657600080fd5b505af11580156109ca573d6000803e3d6000fd5b50506000546005546001600160a01b039182169350638c15785492503091166109ff866b033b2e3c9fd0803ce8000000610cf0565b6040518463ffffffff1660e01b815260040180846001600160a01b03168152602001836001600160a01b031681526020018281526020019350505050600060405180830381600087803b158015610a5557600080fd5b505af1158015610a69573d6000803e3d6000fd5b5050604080518781526020810186905281516001600160a01b038a1694507f19db3e213473ea73ae4b6c76a26cbcb2a43d954d78caca305d507dec79b24e8293509081900390910190a25050505050565b6000805460408051634d8c928d60e11b81526001600160a01b03858116600483015291519190921692639b19251a926024808201939182900301818387803b158015610b0557600080fd5b505af1158015610b19573d6000803e3d6000fd5b5050505050565b60045481565b6000546001600160a01b031681565b6001546001600160a01b031681565b6002546001600160a01b031681565b6000805460408051633e7e4af960e21b81526001600160a01b0385811660048301529151919092169263f9f92be4926024808201939182900301818387803b158015610b0557600080fd5b604080516001600160a01b038481166024830152604480830185905283518084039091018152606490920183526020820180516001600160e01b031663095ea7b360e01b178152925182516000946060949389169392918291908083835b60208310610c1b5780518252601f199092019160209182019101610bfc565b6001836020036101000a0380198251168184511680821785525050505050509050019150506000604051808303816000865af19150503d8060008114610c7d576040519150601f19603f3d011682016040523d82523d6000602084013e610c82565b606091505b5091509150818015610cb0575080511580610cb05750808060200190516020811015610cad57600080fd5b50515b610b19576040805162461bcd60e51b815260206004820152600c60248201526b2173616665417070726f766560a01b604482015290519081900360640190fd5b6000811580610d0b57505080820282828281610d0857fe5b04145b610d1457600080fd5b92915050565b80820382811115610d1457600080fd5b80820182811015610d1457600080fd5b604080516001600160a01b0385811660248301528481166044830152606480830185905283518084039091018152608490920183526020820180516001600160e01b03166323b872dd60e01b17815292518251600094606094938a169392918291908083835b60208310610dbf5780518252601f199092019160209182019101610da0565b6001836020036101000a0380198251168184511680821785525050505050509050019150506000604051808303816000865af19150503d8060008114610e21576040519150601f19603f3d011682016040523d82523d6000602084013e610e26565b606091505b5091509150818015610e54575080511580610e545750808060200190516020811015610e5157600080fd5b50515b610e99576040805162461bcd60e51b815260206004820152601160248201527021736166655472616e7366657246726f6d60781b604482015290519081900360640190fd5b50505050505056fea2646970667358221220c3a5efc58ce49025c50aa99cb43fae599e20d854d447c761c954c97ec3ab6fd364736f6c634300060c0033",
  "linkReferences": {},
  "deployedLinkReferences": {}
}