{
    "contractName": "StakingGettersHelper",
    "abi": [
        {
            "inputs": [
                {
                    "internalType": "address",
                    "name": "_stakingContract",
                    "type": "address"
                },
                {
                    "internalType": "address",
                    "name": "admin",
                    "type": "address"
                }
            ],
            "stateMutability": "nonpayable",
            "type": "constructor"
        },
        {
            "inputs": [],
            "name": "LockIdCantBeZeroError",
            "type": "error"
        },
        {
            "inputs": [],
            "name": "LockIdOutOfIndexError",
            "type": "error"
        },
        {
            "inputs": [],
            "name": "LockOpenedError",
            "type": "error"
        },
        {
            "anonymous": false,
            "inputs": [
                {
                    "indexed": true,
                    "internalType": "bytes32",
                    "name": "role",
                    "type": "bytes32"
                },
                {
                    "indexed": true,
                    "internalType": "bytes32",
                    "name": "previousAdminRole",
                    "type": "bytes32"
                },
                {
                    "indexed": true,
                    "internalType": "bytes32",
                    "name": "newAdminRole",
                    "type": "bytes32"
                }
            ],
            "name": "RoleAdminChanged",
            "type": "event"
        },
        {
            "anonymous": false,
            "inputs": [
                {
                    "indexed": true,
                    "internalType": "bytes32",
                    "name": "role",
                    "type": "bytes32"
                },
                {
                    "indexed": true,
                    "internalType": "address",
                    "name": "account",
                    "type": "address"
                },
                {
                    "indexed": true,
                    "internalType": "address",
                    "name": "sender",
                    "type": "address"
                }
            ],
            "name": "RoleGranted",
            "type": "event"
        },
        {
            "anonymous": false,
            "inputs": [
                {
                    "indexed": true,
                    "internalType": "bytes32",
                    "name": "role",
                    "type": "bytes32"
                },
                {
                    "indexed": true,
                    "internalType": "address",
                    "name": "account",
                    "type": "address"
                },
                {
                    "indexed": true,
                    "internalType": "address",
                    "name": "sender",
                    "type": "address"
                }
            ],
            "name": "RoleRevoked",
            "type": "event"
        },
        {
            "inputs": [],
            "name": "DEFAULT_ADMIN_ROLE",
            "outputs": [
                {
                    "internalType": "bytes32",
                    "name": "",
                    "type": "bytes32"
                }
            ],
            "stateMutability": "view",
            "type": "function"
        },
        {
            "inputs": [
                {
                    "internalType": "bytes32",
                    "name": "role",
                    "type": "bytes32"
                }
            ],
            "name": "getRoleAdmin",
            "outputs": [
                {
                    "internalType": "bytes32",
                    "name": "",
                    "type": "bytes32"
                }
            ],
            "stateMutability": "view",
            "type": "function"
        },
        {
            "inputs": [
                {
                    "internalType": "bytes32",
                    "name": "role",
                    "type": "bytes32"
                },
                {
                    "internalType": "address",
                    "name": "account",
                    "type": "address"
                }
            ],
            "name": "grantRole",
            "outputs": [],
            "stateMutability": "nonpayable",
            "type": "function"
        },
        {
            "inputs": [
                {
                    "internalType": "bytes32",
                    "name": "role",
                    "type": "bytes32"
                },
                {
                    "internalType": "address",
                    "name": "account",
                    "type": "address"
                }
            ],
            "name": "hasRole",
            "outputs": [
                {
                    "internalType": "bool",
                    "name": "",
                    "type": "bool"
                }
            ],
            "stateMutability": "view",
            "type": "function"
        },
        {
            "inputs": [
                {
                    "internalType": "bytes32",
                    "name": "role",
                    "type": "bytes32"
                },
                {
                    "internalType": "address",
                    "name": "account",
                    "type": "address"
                }
            ],
            "name": "renounceRole",
            "outputs": [],
            "stateMutability": "nonpayable",
            "type": "function"
        },
        {
            "inputs": [
                {
                    "internalType": "bytes32",
                    "name": "role",
                    "type": "bytes32"
                },
                {
                    "internalType": "address",
                    "name": "account",
                    "type": "address"
                }
            ],
            "name": "revokeRole",
            "outputs": [],
            "stateMutability": "nonpayable",
            "type": "function"
        },
        {
            "inputs": [
                {
                    "internalType": "bytes4",
                    "name": "interfaceId",
                    "type": "bytes4"
                }
            ],
            "name": "supportsInterface",
            "outputs": [
                {
                    "internalType": "bool",
                    "name": "",
                    "type": "bool"
                }
            ],
            "stateMutability": "view",
            "type": "function"
        },
        {
            "inputs": [
                {
                    "internalType": "address",
                    "name": "account",
                    "type": "address"
                }
            ],
            "name": "getLocksLength",
            "outputs": [
                {
                    "internalType": "uint256",
                    "name": "",
                    "type": "uint256"
                }
            ],
            "stateMutability": "view",
            "type": "function"
        },
        {
            "inputs": [],
            "name": "getWeight",
            "outputs": [
                {
                    "components": [
                        {
                            "internalType": "uint32",
                            "name": "maxWeightShares",
                            "type": "uint32"
                        },
                        {
                            "internalType": "uint32",
                            "name": "minWeightShares",
                            "type": "uint32"
                        },
                        {
                            "internalType": "uint32",
                            "name": "maxWeightPenalty",
                            "type": "uint32"
                        },
                        {
                            "internalType": "uint32",
                            "name": "minWeightPenalty",
                            "type": "uint32"
                        },
                        {
                            "internalType": "uint32",
                            "name": "penaltyWeightMultiplier",
                            "type": "uint32"
                        }
                    ],
                    "internalType": "struct Weight",
                    "name": "",
                    "type": "tuple"
                }
            ],
            "stateMutability": "view",
            "type": "function"
        },
        {
            "inputs": [
                {
                    "internalType": "address",
                    "name": "account",
                    "type": "address"
                },
                {
                    "internalType": "uint256",
                    "name": "lockId",
                    "type": "uint256"
                }
            ],
            "name": "getLock",
            "outputs": [
                {
                    "internalType": "uint128",
                    "name": "",
                    "type": "uint128"
                },
                {
                    "internalType": "uint128",
                    "name": "",
                    "type": "uint128"
                },
                {
                    "internalType": "uint64",
                    "name": "",
                    "type": "uint64"
                },
                {
                    "internalType": "address",
                    "name": "",
                    "type": "address"
                },
                {
                    "internalType": "uint256",
                    "name": "",
                    "type": "uint256"
                }
            ],
            "stateMutability": "view",
            "type": "function"
        },
        {
            "inputs": [
                {
                    "internalType": "address",
                    "name": "account",
                    "type": "address"
                }
            ],
            "name": "getUserTotalDeposit",
            "outputs": [
                {
                    "internalType": "uint256",
                    "name": "",
                    "type": "uint256"
                }
            ],
            "stateMutability": "view",
            "type": "function"
        },
        {
            "inputs": [
                {
                    "internalType": "uint256",
                    "name": "streamId",
                    "type": "uint256"
                },
                {
                    "internalType": "address",
                    "name": "account",
                    "type": "address"
                }
            ],
            "name": "getStreamClaimableAmount",
            "outputs": [
                {
                    "internalType": "uint256",
                    "name": "",
                    "type": "uint256"
                }
            ],
            "stateMutability": "view",
            "type": "function"
        },
        {
            "inputs": [
                {
                    "internalType": "address",
                    "name": "account",
                    "type": "address"
                }
            ],
            "name": "getUserTotalVotes",
            "outputs": [
                {
                    "internalType": "uint256",
                    "name": "",
                    "type": "uint256"
                }
            ],
            "stateMutability": "view",
            "type": "function"
        },
        {
            "inputs": [
                {
                    "internalType": "uint256",
                    "name": "lockId",
                    "type": "uint256"
                },
                {
                    "internalType": "address",
                    "name": "account",
                    "type": "address"
                }
            ],
            "name": "getFeesForEarlyUnlock",
            "outputs": [
                {
                    "internalType": "uint256",
                    "name": "",
                    "type": "uint256"
                }
            ],
            "stateMutability": "view",
            "type": "function"
        },
        {
            "inputs": [
                {
                    "internalType": "address",
                    "name": "account",
                    "type": "address"
                },
                {
                    "internalType": "uint256",
                    "name": "lockId",
                    "type": "uint256"
                }
            ],
            "name": "getLockInfo",
            "outputs": [
                {
                    "components": [
                        {
                            "internalType": "uint128",
                            "name": "amountOfToken",
                            "type": "uint128"
                        },
                        {
                            "internalType": "uint128",
                            "name": "positionStreamShares",
                            "type": "uint128"
                        },
                        {
                            "internalType": "uint64",
                            "name": "end",
                            "type": "uint64"
                        },
                        {
                            "internalType": "address",
                            "name": "owner",
                            "type": "address"
                        },
                        {
                            "internalType": "uint256",
                            "name": "amountOfVoteToken",
                            "type": "uint256"
                        }
                    ],
                    "internalType": "struct LockedBalance",
                    "name": "",
                    "type": "tuple"
                }
            ],
            "stateMutability": "view",
            "type": "function"
        }
    ],
    "bytecode": "0x60806040523480156200001157600080fd5b506040516200160e3803806200160e833981016040819052620000349162000151565b600180546001600160a01b0319166001600160a01b0384161790556200005c60008262000064565b505062000194565b620000708282620000ed565b620000e9576000828152602081815260408083206001600160a01b03851684529091529020805460ff19166001179055620000a83390565b6001600160a01b0316816001600160a01b0316837f2f8788117e7eff1d82e926ec794901d17c78024a50270940304540a733656f0d60405160405180910390a45b5050565b6000828152602081815260408083206001600160a01b038516845290915290205460ff165b92915050565b60006001600160a01b03821662000112565b620001358162000118565b81146200014157600080fd5b50565b805162000112816200012a565b60008060408385031215620001695762000169600080fd5b600062000177858562000144565b92505060206200018a8582860162000144565b9150509250929050565b61146a80620001a46000396000f3fe608060405234801561001057600080fd5b50600436106100e55760003560e01c806336568abe11610097578063a4c828dc11610066578063a4c828dc14610203578063a9b4b78014610216578063b37a7c101461022b578063d547741f1461023e57600080fd5b806336568abe146101c25780637183ab24146101d557806391d14854146101e8578063a217fddf146101fb57600080fd5b806301ffc9a7146100ea5780630e0930f0146101135780631208a2561461013357806315b9672c146101575780631c61e61714610177578063248a9ca31461018a5780632f2ff15d146101ad575b600080fd5b6100fd6100f8366004610bda565b610251565b60405161010a9190610c0d565b60405180910390f35b610126610121366004610c40565b610288565b60405161010a9190610c67565b610146610141366004610c86565b61029c565b60405161010a959493929190610ceb565b61016a610165366004610c86565b6102d9565b60405161010a9190610d9a565b610126610185366004610da8565b61037f565b610126610198366004610ddb565b60009081526020819052604090206001015490565b6101c06101bb366004610da8565b610449565b005b6101c06101d0366004610da8565b610473565b6101266101e3366004610c40565b6104b2565b6100fd6101f6366004610da8565b61052e565b610126600081565b610126610211366004610c40565b610557565b61021e6105d4565b60405161010a9190610e65565b610126610239366004610da8565b61060c565b6101c061024c366004610da8565b61069a565b60006001600160e01b03198216637965db0b60e01b148061028257506301ffc9a760e01b6001600160e01b03198316145b92915050565b600080610294836106bf565b519392505050565b6000806000806000806102af88886102d9565b8051602082015160408301516060840151608090940151929c919b50995091975095509350505050565b6040805160a08101825260008082526020820181905291810182905260608101829052608081018290529061030d846106bf565b90508051831115610331576040516355acf36160e01b815260040160405180910390fd5b8260000361035257604051637f4b186760e11b815260040160405180910390fd5b8061035e600185610e89565b8151811061036e5761036e610e9c565b602002602001015191505092915050565b60008061038b836106bf565b905080516000036103a0576000915050610282565b600060015b825181116104405760015460405163ddcf3e2960e01b81526001600160a01b039091169063ddcf3e29906103e190899089908690600401610eb2565b602060405180830381865afa1580156103fe573d6000803e3d6000fd5b505050506040513d601f19601f820116820180604052508101906104229190610ee5565b61042c9083610f06565b91508061043881610f19565b9150506103a5565b50949350505050565b60008281526020819052604090206001015461046481610735565b61046e8383610742565b505050565b6001600160a01b03811633146104a45760405162461bcd60e51b815260040161049b90610f33565b60405180910390fd5b6104ae82826107c6565b5050565b6000806104be836106bf565b905080516000036104d25750600092915050565b600060015b8251811161052657826104eb600183610e89565b815181106104fb576104fb610e9c565b602002602001015160800151826105129190610f06565b91508061051e81610f19565b9150506104d7565b509392505050565b6000918252602082815260408084206001600160a01b0393909316845291905290205460ff1690565b600080610563836106bf565b905080516000036105775750600092915050565b600060015b825181116105265782610590600183610e89565b815181106105a0576105a0610e9c565b6020026020010151600001516001600160801b0316826105c09190610f06565b9150806105cc81610f19565b91505061057c565b6040805160a08101825260008082526020820181905291810182905260608101829052608081019190915261060761082b565b905090565b60008061061983856102d9565b905042816040015167ffffffffffffffff1611610649576040516328038d9560e01b815260040160405180910390fd5b805160408201516001600160801b039091169067ffffffffffffffff16600061067282426108bf565b90506000620186a06106848584610f86565b61068e9190610fbb565b98975050505050505050565b6000828152602081905260409020600101546106b581610735565b61046e83836107c6565b600154604051630a8d85f760e41b81526060916001600160a01b03169063a8d85f70906106f0908590600401610fcf565b600060405180830381865afa15801561070d573d6000803e3d6000fd5b505050506040513d6000823e601f3d908101601f1916820160405261028291908101906111ac565b61073f81336109e1565b50565b61074c828261052e565b6104ae576000828152602081815260408083206001600160a01b03851684529091529020805460ff191660011790556107823390565b6001600160a01b0316816001600160a01b0316837f2f8788117e7eff1d82e926ec794901d17c78024a50270940304540a733656f0d60405160405180910390a45050565b6107d0828261052e565b156104ae576000828152602081815260408083206001600160a01b0385168085529252808320805460ff1916905551339285917ff6391f5c32d9c69d2a47ea670b442974b53935d1edc7fd64eb21e047a839171b9190a45050565b6040805160a08082018352600080835260208301819052828401819052606083018190526080830152600154835163a1aab33f60e01b8152935192936001600160a01b039091169263a1aab33f926004808401939192918290030181865afa15801561089b573d6000803e3d6000fd5b505050506040513d601f19601f820116820180604052508101906106079190611278565b6000806108ca61082b565b90506000600160009054906101000a90046001600160a01b03166001600160a01b0316634b1d29b46040518163ffffffff1660e01b8152600401602060405180830381865afa158015610921573d6000803e3d6000fd5b505050506040513d601f19601f820116820180604052508101906109459190611299565b67ffffffffffffffff169050848085106109655760009350505050610282565b60006109718683610e89565b905082818560600151866040015161098991906112ba565b866080015161099891906112da565b63ffffffff166109a89190610f86565b6109b29190610fbb565b846060015185608001516109c691906112da565b63ffffffff166109d69190610f06565b979650505050505050565b6109eb828261052e565b6104ae57610a03816001600160a01b03166014610a45565b610a0e836020610a45565b604051602001610a1f92919061134e565b60408051601f198184030181529082905262461bcd60e51b825261049b916004016113d2565b60606000610a54836002610f86565b610a5f906002610f06565b67ffffffffffffffff811115610a7757610a77610fdd565b6040519080825280601f01601f191660200182016040528015610aa1576020820181803683370190505b509050600360fc1b81600081518110610abc57610abc610e9c565b60200101906001600160f81b031916908160001a905350600f60fb1b81600181518110610aeb57610aeb610e9c565b60200101906001600160f81b031916908160001a9053506000610b0f846002610f86565b610b1a906001610f06565b90505b6001811115610b92576f181899199a1a9b1b9c1cb0b131b232b360811b85600f1660108110610b4e57610b4e610e9c565b1a60f81b828281518110610b6457610b64610e9c565b60200101906001600160f81b031916908160001a90535060049490941c93610b8b816113e3565b9050610b1d565b508315610bb15760405162461bcd60e51b815260040161049b906113fa565b9392505050565b6001600160e01b031981165b811461073f57600080fd5b803561028281610bb8565b600060208284031215610bef57610bef600080fd5b6000610bfb8484610bcf565b949350505050565b8015155b82525050565b602081016102828284610c03565b60006001600160a01b038216610282565b610bc481610c1b565b803561028281610c2c565b600060208284031215610c5557610c55600080fd5b6000610bfb8484610c35565b80610c07565b602081016102828284610c61565b80610bc4565b803561028281610c75565b60008060408385031215610c9c57610c9c600080fd5b6000610ca88585610c35565b9250506020610cb985828601610c7b565b9150509250929050565b6001600160801b038116610c07565b67ffffffffffffffff8116610c07565b610c0781610c1b565b60a08101610cf98288610cc3565b610d066020830187610cc3565b610d136040830186610cd2565b610d206060830185610ce2565b610d2d6080830184610c61565b9695505050505050565b805160a0830190610d488482610cc3565b506020820151610d5b6020850182610cc3565b506040820151610d6e6040850182610cd2565b506060820151610d816060850182610ce2565b506080820151610d946080850182610c61565b50505050565b60a081016102828284610d37565b60008060408385031215610dbe57610dbe600080fd5b6000610dca8585610c7b565b9250506020610cb985828601610c35565b600060208284031215610df057610df0600080fd5b6000610bfb8484610c7b565b63ffffffff8116610c07565b805160a0830190610e198482610dfc565b506020820151610e2c6020850182610dfc565b506040820151610e3f6040850182610dfc565b506060820151610e526060850182610dfc565b506080820151610d946080850182610dfc565b60a081016102828284610e08565b634e487b7160e01b600052601160045260246000fd5b8181038181111561028257610282610e73565b634e487b7160e01b600052603260045260246000fd5b60608101610ec08286610c61565b610ecd6020830185610ce2565b610bfb6040830184610c61565b805161028281610c75565b600060208284031215610efa57610efa600080fd5b6000610bfb8484610eda565b8082018082111561028257610282610e73565b60006000198203610f2c57610f2c610e73565b5060010190565b6020808252810161028281602f81527f416363657373436f6e74726f6c3a2063616e206f6e6c792072656e6f756e636560208201526e103937b632b9903337b91039b2b63360891b604082015260600190565b6000816000190483118215151615610fa057610fa0610e73565b500290565b634e487b7160e01b600052601260045260246000fd5b600082610fca57610fca610fa5565b500490565b602081016102828284610ce2565b634e487b7160e01b600052604160045260246000fd5b601f19601f830116810181811067ffffffffffffffff8211171561101957611019610fdd565b6040525050565b600061102b60405190565b90506110378282610ff3565b919050565b600067ffffffffffffffff82111561105657611056610fdd565b5060209081020190565b6001600160801b038116610bc4565b805161028281611060565b67ffffffffffffffff8116610bc4565b80516102828161107a565b805161028281610c2c565b600060a082840312156110b5576110b5600080fd5b6110bf60a0611020565b905060006110cd848461106f565b82525060206110de8484830161106f565b60208301525060406110f28482850161108a565b604083015250606061110684828501611095565b606083015250608061111a84828501610eda565b60808301525092915050565b60006111396111348461103c565b611020565b83815290506020810160a0840283018581111561115857611158600080fd5b835b8181101561117e578061116d88826110a0565b84525060209092019160a00161115a565b5050509392505050565b600082601f83011261119c5761119c600080fd5b8151610bfb848260208601611126565b6000602082840312156111c1576111c1600080fd5b815167ffffffffffffffff8111156111db576111db600080fd5b610bfb84828501611188565b63ffffffff8116610bc4565b8051610282816111e7565b600060a0828403121561121357611213600080fd5b61121d60a0611020565b9050600061122b84846111f3565b825250602061123c848483016111f3565b6020830152506040611250848285016111f3565b6040830152506060611264848285016111f3565b606083015250608061111a848285016111f3565b600060a0828403121561128d5761128d600080fd5b6000610bfb84846111fe565b6000602082840312156112ae576112ae600080fd5b6000610bfb848461108a565b63ffffffff91821691908116908282039081111561028257610282610e73565b600063ffffffff8216915063ffffffff831692508163ffffffff0483118215151615610fa057610fa0610e73565b60005b8381101561132357818101518382015260200161130b565b50506000910152565b6000611336825190565b611344818560208601611308565b9290920192915050565b76020b1b1b2b9b9a1b7b73a3937b61d1030b1b1b7bab73a1604d1b8152601701600061137a828561132c565b7001034b99036b4b9b9b4b733903937b6329607d1b81526011019150610bfb828461132c565b60006113aa825190565b8084526020840193506113c1818560208601611308565b601f01601f19169290920192915050565b60208082528101610bb181846113a0565b6000816113f2576113f2610e73565b506000190190565b60208082528181019081527f537472696e67733a20686578206c656e67746820696e73756666696369656e7460408301526060820161028256fea26469706673582212204b3f534ec7d7415a24d0bdf5250e52605a991445abaace482f47d1ebe00c2d0464736f6c63430008100033",
    "immutableReferences": {},
    "source": "// SPDX-License-Identifier: AGPL 3.0\n// Copyright Fathom 2022\npragma solidity 0.8.16;\n\nimport \"./IStakingHelper.sol\";\nimport \"./IStakingGetterHelper.sol\";\nimport \"../interfaces/IStakingGetter.sol\";\nimport \"../StakingStructs.sol\";\nimport \"../../../common/access/AccessControl.sol\";\n\n// solhint-disable not-rely-on-time\ncontract StakingGettersHelper is IStakingGetterHelper, AccessControl {\n    address private stakingContract;\n\n    error LockOpenedError();\n    error LockIdOutOfIndexError();\n    error LockIdCantBeZeroError();\n\n    constructor(address _stakingContract, address admin) {\n        stakingContract = _stakingContract;\n        _grantRole(DEFAULT_ADMIN_ROLE, admin);\n    }\n\n    function getLocksLength(address account) external view override returns (uint256) {\n        LockedBalance[] memory locks = _getAllLocks(account);\n        return locks.length;\n    }\n\n    function getWeight() external view override returns (Weight memory) {\n        return _getWeight();\n    }\n\n    function getLock(address account, uint256 lockId) external view override returns (uint128, uint128, uint64, address, uint256) {\n        LockedBalance memory lock = getLockInfo(account, lockId);\n        return (lock.amountOfToken, lock.positionStreamShares, lock.end, lock.owner, lock.amountOfVoteToken);\n    }\n\n    function getUserTotalDeposit(address account) external view override returns (uint256) {\n        LockedBalance[] memory locks = _getAllLocks(account);\n        if (locks.length == 0) {\n            return 0;\n        }\n        uint256 totalDeposit = 0;\n        for (uint256 lockId = 1; lockId <= locks.length; lockId++) {\n            totalDeposit += locks[lockId - 1].amountOfToken;\n        }\n        return totalDeposit;\n    }\n\n    function getStreamClaimableAmount(uint256 streamId, address account) external view override returns (uint256) {\n        LockedBalance[] memory locks = _getAllLocks(account);\n        if (locks.length == 0) {\n            return 0;\n        }\n        uint256 totalRewards = 0;\n        for (uint256 lockId = 1; lockId <= locks.length; lockId++) {\n            totalRewards += IStakingHelper(stakingContract).getStreamClaimableAmountPerLock(streamId, account, lockId);\n        }\n        return totalRewards;\n    }\n\n    function getUserTotalVotes(address account) external view override returns (uint256) {\n        LockedBalance[] memory locks = _getAllLocks(account);\n        if (locks.length == 0) {\n            return 0;\n        }\n        uint256 totalVotes = 0;\n        for (uint256 lockId = 1; lockId <= locks.length; lockId++) {\n            totalVotes += locks[lockId - 1].amountOfVoteToken;\n        }\n        return totalVotes;\n    }\n\n    function getFeesForEarlyUnlock(uint256 lockId, address account) external view override returns (uint256) {\n        LockedBalance memory lock = getLockInfo(account, lockId);\n        if (lock.end <= block.timestamp) {\n            revert LockOpenedError();\n        }\n\n        uint256 amount = lock.amountOfToken;\n        uint256 lockEnd = lock.end;\n        uint256 weighingCoef = _weightedPenalty(lockEnd, block.timestamp);\n        uint256 penalty = (weighingCoef * amount) / 100000;\n        return penalty;\n    }\n\n    function getLockInfo(address account, uint256 lockId) public view override returns (LockedBalance memory) {\n        LockedBalance[] memory locks = _getAllLocks(account);\n        if (lockId > locks.length) {\n            revert LockIdOutOfIndexError();\n        }\n        if (lockId == 0) {\n            revert LockIdCantBeZeroError();\n        }\n        return locks[lockId - 1];\n    }\n\n    function _getAllLocks(address account) internal view returns (LockedBalance[] memory) {\n        return IStakingHelper(stakingContract).getAllLocks(account);\n    }\n\n    function _weightedPenalty(uint256 lockEnd, uint256 timestamp) internal view returns (uint256) {\n        Weight memory weight = _getWeight();\n        uint256 maxLockPeriod = IStakingHelper(stakingContract).maxLockPeriod();\n        uint256 slopeStart = lockEnd;\n        if (timestamp >= slopeStart) return 0;\n        uint256 remainingTime = slopeStart - timestamp;\n\n        //why weight multiplier: Because if a person remaining time is less than 12 hours, the calculation\n        //would only give minWeightPenalty, because 2900 * 12hours/4days = 0\n        return (weight.penaltyWeightMultiplier *\n            weight.minWeightPenalty +\n            (weight.penaltyWeightMultiplier * (weight.maxWeightPenalty - weight.minWeightPenalty) * remainingTime) /\n            maxLockPeriod);\n    }\n\n    function _getWeight() internal view returns (Weight memory) {\n        return IStakingStorage(stakingContract).weight();\n    }\n}\n",
    "sourcePath": "/Users/antongrigorev/Developer/fathom-dao-smart-contracts/contracts/dao/staking/helpers/StakingGettersHelper.sol",
    "compiler": {
        "name": "solc",
        "version": "0.8.16+commit.07a7930e.Darwin.appleclang"
    },
    "schemaVersion": "3.4.13",
    "updatedAt": "2023-04-29T06:38:40.714Z",
    "devdoc": {
        "kind": "dev",
        "methods": {
            "getRoleAdmin(bytes32)": {
                "details": "Returns the admin role that controls `role`. See {grantRole} and {revokeRole}. To change a role's admin, use {_setRoleAdmin}."
            },
            "grantRole(bytes32,address)": {
                "details": "Grants `role` to `account`. If `account` had not been already granted `role`, emits a {RoleGranted} event. Requirements: - the caller must have ``role``'s admin role. May emit a {RoleGranted} event."
            },
            "hasRole(bytes32,address)": {
                "details": "Returns `true` if `account` has been granted `role`."
            },
            "renounceRole(bytes32,address)": {
                "details": "Revokes `role` from the calling account. Roles are often managed via {grantRole} and {revokeRole}: this function's purpose is to provide a mechanism for accounts to lose their privileges if they are compromised (such as when a trusted device is misplaced). If the calling account had been revoked `role`, emits a {RoleRevoked} event. Requirements: - the caller must be `account`. May emit a {RoleRevoked} event."
            },
            "revokeRole(bytes32,address)": {
                "details": "Revokes `role` from `account`. If `account` had been granted `role`, emits a {RoleRevoked} event. Requirements: - the caller must have ``role``'s admin role. May emit a {RoleRevoked} event."
            },
            "supportsInterface(bytes4)": {
                "details": "See {IERC165-supportsInterface}."
            }
        },
        "version": 1
    },
    "userdoc": {
        "kind": "user",
        "methods": {},
        "version": 1
    }
}