{
  "contractName": "StakingPackage",
  "abi": [
    {
      "inputs": [],
      "name": "AlreadyInitialized",
      "type": "error"
    },
    {
      "inputs": [
        {
          "internalType": "uint256",
          "name": "_lockId",
          "type": "uint256"
        },
        {
          "internalType": "address",
          "name": "_account",
          "type": "address"
        }
      ],
      "name": "MaxLockIdExceeded",
      "type": "error"
    },
    {
      "inputs": [],
      "name": "MaxLockPeriodExceeded",
      "type": "error"
    },
    {
      "inputs": [],
      "name": "NotPaused",
      "type": "error"
    },
    {
      "inputs": [],
      "name": "StreamIdZero",
      "type": "error"
    },
    {
      "inputs": [
        {
          "internalType": "address",
          "name": "_vault",
          "type": "address"
        }
      ],
      "name": "VaultNotMigrated",
      "type": "error"
    },
    {
      "inputs": [
        {
          "internalType": "address",
          "name": "_vault",
          "type": "address"
        }
      ],
      "name": "VaultNotSupported",
      "type": "error"
    },
    {
      "inputs": [],
      "name": "ZeroAddress",
      "type": "error"
    },
    {
      "inputs": [],
      "name": "ZeroLockId",
      "type": "error"
    },
    {
      "inputs": [
        {
          "internalType": "uint256",
          "name": "lockId",
          "type": "uint256"
        }
      ],
      "name": "ZeroLocked",
      "type": "error"
    },
    {
      "inputs": [],
      "name": "ZeroPenalty",
      "type": "error"
    },
    {
      "inputs": [],
      "name": "ZeroTotalStakedToken",
      "type": "error"
    },
    {
      "anonymous": false,
      "inputs": [
        {
          "indexed": false,
          "internalType": "uint8",
          "name": "version",
          "type": "uint8"
        }
      ],
      "name": "Initialized",
      "type": "event"
    },
    {
      "anonymous": false,
      "inputs": [
        {
          "indexed": true,
          "internalType": "address",
          "name": "account",
          "type": "address"
        },
        {
          "indexed": false,
          "internalType": "uint256",
          "name": "amount",
          "type": "uint256"
        },
        {
          "indexed": true,
          "internalType": "uint256",
          "name": "lockId",
          "type": "uint256"
        }
      ],
      "name": "PartialUnstaked",
      "type": "event"
    },
    {
      "anonymous": false,
      "inputs": [
        {
          "indexed": true,
          "internalType": "uint256",
          "name": "streamId",
          "type": "uint256"
        },
        {
          "indexed": true,
          "internalType": "address",
          "name": "account",
          "type": "address"
        },
        {
          "indexed": false,
          "internalType": "uint256",
          "name": "pendings",
          "type": "uint256"
        }
      ],
      "name": "Pending",
      "type": "event"
    },
    {
      "anonymous": false,
      "inputs": [
        {
          "indexed": true,
          "internalType": "uint256",
          "name": "streamId",
          "type": "uint256"
        },
        {
          "indexed": true,
          "internalType": "address",
          "name": "user",
          "type": "address"
        },
        {
          "indexed": false,
          "internalType": "uint256",
          "name": "pendingAmount",
          "type": "uint256"
        }
      ],
      "name": "Released",
      "type": "event"
    },
    {
      "anonymous": false,
      "inputs": [
        {
          "indexed": true,
          "internalType": "bytes32",
          "name": "role",
          "type": "bytes32"
        },
        {
          "indexed": true,
          "internalType": "bytes32",
          "name": "previousAdminRole",
          "type": "bytes32"
        },
        {
          "indexed": true,
          "internalType": "bytes32",
          "name": "newAdminRole",
          "type": "bytes32"
        }
      ],
      "name": "RoleAdminChanged",
      "type": "event"
    },
    {
      "anonymous": false,
      "inputs": [
        {
          "indexed": true,
          "internalType": "bytes32",
          "name": "role",
          "type": "bytes32"
        },
        {
          "indexed": true,
          "internalType": "address",
          "name": "account",
          "type": "address"
        },
        {
          "indexed": true,
          "internalType": "address",
          "name": "sender",
          "type": "address"
        }
      ],
      "name": "RoleGranted",
      "type": "event"
    },
    {
      "anonymous": false,
      "inputs": [
        {
          "indexed": true,
          "internalType": "bytes32",
          "name": "role",
          "type": "bytes32"
        },
        {
          "indexed": true,
          "internalType": "address",
          "name": "account",
          "type": "address"
        },
        {
          "indexed": true,
          "internalType": "address",
          "name": "sender",
          "type": "address"
        }
      ],
      "name": "RoleRevoked",
      "type": "event"
    },
    {
      "anonymous": false,
      "inputs": [
        {
          "indexed": true,
          "internalType": "address",
          "name": "account",
          "type": "address"
        },
        {
          "indexed": false,
          "internalType": "uint256",
          "name": "amount",
          "type": "uint256"
        },
        {
          "indexed": false,
          "internalType": "uint256",
          "name": "streamShares",
          "type": "uint256"
        },
        {
          "indexed": false,
          "internalType": "uint256",
          "name": "nVoteToken",
          "type": "uint256"
        },
        {
          "indexed": true,
          "internalType": "uint256",
          "name": "lockId",
          "type": "uint256"
        },
        {
          "indexed": false,
          "internalType": "uint256",
          "name": "end",
          "type": "uint256"
        }
      ],
      "name": "Staked",
      "type": "event"
    },
    {
      "anonymous": false,
      "inputs": [
        {
          "indexed": true,
          "internalType": "uint256",
          "name": "streamId",
          "type": "uint256"
        },
        {
          "indexed": true,
          "internalType": "address",
          "name": "owner",
          "type": "address"
        },
        {
          "indexed": true,
          "internalType": "address",
          "name": "token",
          "type": "address"
        },
        {
          "indexed": false,
          "internalType": "uint256",
          "name": "tau",
          "type": "uint256"
        }
      ],
      "name": "StreamCreated",
      "type": "event"
    },
    {
      "anonymous": false,
      "inputs": [
        {
          "indexed": true,
          "internalType": "uint256",
          "name": "streamId",
          "type": "uint256"
        },
        {
          "indexed": true,
          "internalType": "address",
          "name": "owner",
          "type": "address"
        },
        {
          "indexed": true,
          "internalType": "address",
          "name": "token",
          "type": "address"
        }
      ],
      "name": "StreamProposalCancelled",
      "type": "event"
    },
    {
      "anonymous": false,
      "inputs": [
        {
          "indexed": true,
          "internalType": "uint256",
          "name": "streamId",
          "type": "uint256"
        },
        {
          "indexed": true,
          "internalType": "address",
          "name": "streamOwner",
          "type": "address"
        },
        {
          "indexed": true,
          "internalType": "address",
          "name": "rewardToken",
          "type": "address"
        },
        {
          "indexed": false,
          "internalType": "uint256",
          "name": "maxDepositAmount",
          "type": "uint256"
        }
      ],
      "name": "StreamProposed",
      "type": "event"
    },
    {
      "anonymous": false,
      "inputs": [
        {
          "indexed": true,
          "internalType": "uint256",
          "name": "streamId",
          "type": "uint256"
        },
        {
          "indexed": true,
          "internalType": "address",
          "name": "owner",
          "type": "address"
        },
        {
          "indexed": true,
          "internalType": "address",
          "name": "token",
          "type": "address"
        }
      ],
      "name": "StreamRemoved",
      "type": "event"
    },
    {
      "anonymous": false,
      "inputs": [
        {
          "indexed": true,
          "internalType": "address",
          "name": "account",
          "type": "address"
        },
        {
          "indexed": false,
          "internalType": "uint256",
          "name": "amount",
          "type": "uint256"
        },
        {
          "indexed": true,
          "internalType": "uint256",
          "name": "lockId",
          "type": "uint256"
        }
      ],
      "name": "Unstaked",
      "type": "event"
    },
    {
      "inputs": [],
      "name": "DEFAULT_ADMIN_ROLE",
      "outputs": [
        {
          "internalType": "bytes32",
          "name": "",
          "type": "bytes32"
        }
      ],
      "stateMutability": "view",
      "type": "function"
    },
    {
      "inputs": [],
      "name": "PAUSE_ROLE",
      "outputs": [
        {
          "internalType": "bytes32",
          "name": "",
          "type": "bytes32"
        }
      ],
      "stateMutability": "view",
      "type": "function"
    },
    {
      "inputs": [],
      "name": "STREAM_MANAGER_ROLE",
      "outputs": [
        {
          "internalType": "bytes32",
          "name": "",
          "type": "bytes32"
        }
      ],
      "stateMutability": "view",
      "type": "function"
    },
    {
      "inputs": [],
      "name": "TREASURY_ROLE",
      "outputs": [
        {
          "internalType": "bytes32",
          "name": "",
          "type": "bytes32"
        }
      ],
      "stateMutability": "view",
      "type": "function"
    },
    {
      "inputs": [
        {
          "internalType": "uint256",
          "name": "flags",
          "type": "uint256"
        }
      ],
      "name": "adminPause",
      "outputs": [],
      "stateMutability": "nonpayable",
      "type": "function"
    },
    {
      "inputs": [
        {
          "internalType": "uint256",
          "name": "streamId",
          "type": "uint256"
        }
      ],
      "name": "cancelStreamProposal",
      "outputs": [],
      "stateMutability": "nonpayable",
      "type": "function"
    },
    {
      "inputs": [
        {
          "internalType": "uint256",
          "name": "streamId",
          "type": "uint256"
        }
      ],
      "name": "claimAllLockRewardsForStream",
      "outputs": [],
      "stateMutability": "nonpayable",
      "type": "function"
    },
    {
      "inputs": [
        {
          "internalType": "uint256",
          "name": "lockId",
          "type": "uint256"
        }
      ],
      "name": "claimAllStreamRewardsForLock",
      "outputs": [],
      "stateMutability": "nonpayable",
      "type": "function"
    },
    {
      "inputs": [
        {
          "internalType": "uint256",
          "name": "amount",
          "type": "uint256"
        },
        {
          "internalType": "uint256",
          "name": "lockPeriod",
          "type": "uint256"
        }
      ],
      "name": "createLock",
      "outputs": [],
      "stateMutability": "nonpayable",
      "type": "function"
    },
    {
      "inputs": [
        {
          "internalType": "uint256",
          "name": "amount",
          "type": "uint256"
        },
        {
          "internalType": "uint256",
          "name": "lockPeriod",
          "type": "uint256"
        }
      ],
      "name": "createLockWithoutEarlyWithdrawal",
      "outputs": [],
      "stateMutability": "nonpayable",
      "type": "function"
    },
    {
      "inputs": [
        {
          "components": [
            {
              "internalType": "uint256",
              "name": "amount",
              "type": "uint256"
            },
            {
              "internalType": "uint256",
              "name": "lockPeriod",
              "type": "uint256"
            },
            {
              "internalType": "address",
              "name": "account",
              "type": "address"
            }
          ],
          "internalType": "struct CreateLockParams[]",
          "name": "lockParams",
          "type": "tuple[]"
        }
      ],
      "name": "createLocksForCouncils",
      "outputs": [],
      "stateMutability": "nonpayable",
      "type": "function"
    },
    {
      "inputs": [
        {
          "internalType": "uint256",
          "name": "streamId",
          "type": "uint256"
        },
        {
          "internalType": "uint256",
          "name": "rewardTokenAmount",
          "type": "uint256"
        }
      ],
      "name": "createStream",
      "outputs": [],
      "stateMutability": "nonpayable",
      "type": "function"
    },
    {
      "inputs": [
        {
          "internalType": "uint256",
          "name": "lockId",
          "type": "uint256"
        }
      ],
      "name": "earlyUnlock",
      "outputs": [],
      "stateMutability": "nonpayable",
      "type": "function"
    },
    {
      "inputs": [],
      "name": "emergencyUnlockAndWithdraw",
      "outputs": [],
      "stateMutability": "nonpayable",
      "type": "function"
    },
    {
      "inputs": [
        {
          "internalType": "address",
          "name": "account",
          "type": "address"
        }
      ],
      "name": "getAllLocks",
      "outputs": [
        {
          "components": [
            {
              "internalType": "uint128",
              "name": "amountOfToken",
              "type": "uint128"
            },
            {
              "internalType": "uint128",
              "name": "positionStreamShares",
              "type": "uint128"
            },
            {
              "internalType": "uint64",
              "name": "end",
              "type": "uint64"
            },
            {
              "internalType": "address",
              "name": "owner",
              "type": "address"
            },
            {
              "internalType": "uint256",
              "name": "amountOfVoteToken",
              "type": "uint256"
            }
          ],
          "internalType": "struct LockedBalance[]",
          "name": "",
          "type": "tuple[]"
        }
      ],
      "stateMutability": "view",
      "type": "function"
    },
    {
      "inputs": [
        {
          "internalType": "bytes32",
          "name": "role",
          "type": "bytes32"
        }
      ],
      "name": "getRoleAdmin",
      "outputs": [
        {
          "internalType": "bytes32",
          "name": "",
          "type": "bytes32"
        }
      ],
      "stateMutability": "view",
      "type": "function"
    },
    {
      "inputs": [
        {
          "internalType": "uint256",
          "name": "streamId",
          "type": "uint256"
        }
      ],
      "name": "getStream",
      "outputs": [
        {
          "internalType": "uint256",
          "name": "rewardDepositAmount",
          "type": "uint256"
        },
        {
          "internalType": "uint256",
          "name": "rewardClaimedAmount",
          "type": "uint256"
        },
        {
          "internalType": "uint256",
          "name": "rps",
          "type": "uint256"
        },
        {
          "internalType": "enum StreamStatus",
          "name": "status",
          "type": "uint8"
        }
      ],
      "stateMutability": "view",
      "type": "function"
    },
    {
      "inputs": [
        {
          "internalType": "uint256",
          "name": "streamId",
          "type": "uint256"
        },
        {
          "internalType": "address",
          "name": "account",
          "type": "address"
        },
        {
          "internalType": "uint256",
          "name": "lockId",
          "type": "uint256"
        }
      ],
      "name": "getStreamClaimableAmountPerLock",
      "outputs": [
        {
          "internalType": "uint256",
          "name": "",
          "type": "uint256"
        }
      ],
      "stateMutability": "view",
      "type": "function"
    },
    {
      "inputs": [
        {
          "internalType": "uint256",
          "name": "streamId",
          "type": "uint256"
        }
      ],
      "name": "getStreamSchedule",
      "outputs": [
        {
          "internalType": "uint256[]",
          "name": "scheduleTimes",
          "type": "uint256[]"
        },
        {
          "internalType": "uint256[]",
          "name": "scheduleRewards",
          "type": "uint256[]"
        }
      ],
      "stateMutability": "view",
      "type": "function"
    },
    {
      "inputs": [
        {
          "internalType": "address",
          "name": "account",
          "type": "address"
        },
        {
          "internalType": "uint256",
          "name": "streamId",
          "type": "uint256"
        }
      ],
      "name": "getUsersPendingRewards",
      "outputs": [
        {
          "internalType": "uint256",
          "name": "",
          "type": "uint256"
        }
      ],
      "stateMutability": "view",
      "type": "function"
    },
    {
      "inputs": [
        {
          "internalType": "bytes32",
          "name": "role",
          "type": "bytes32"
        },
        {
          "internalType": "address",
          "name": "account",
          "type": "address"
        }
      ],
      "name": "grantRole",
      "outputs": [],
      "stateMutability": "nonpayable",
      "type": "function"
    },
    {
      "inputs": [
        {
          "internalType": "bytes32",
          "name": "role",
          "type": "bytes32"
        },
        {
          "internalType": "address",
          "name": "account",
          "type": "address"
        }
      ],
      "name": "hasRole",
      "outputs": [
        {
          "internalType": "bool",
          "name": "",
          "type": "bool"
        }
      ],
      "stateMutability": "view",
      "type": "function"
    },
    {
      "inputs": [
        {
          "internalType": "address",
          "name": "_owner",
          "type": "address"
        },
        {
          "internalType": "uint256[]",
          "name": "scheduleTimes",
          "type": "uint256[]"
        },
        {
          "internalType": "uint256[]",
          "name": "scheduleRewards",
          "type": "uint256[]"
        },
        {
          "internalType": "uint256",
          "name": "tau",
          "type": "uint256"
        }
      ],
      "name": "initializeMainStream",
      "outputs": [],
      "stateMutability": "nonpayable",
      "type": "function"
    },
    {
      "inputs": [
        {
          "internalType": "address",
          "name": "_admin",
          "type": "address"
        },
        {
          "internalType": "address",
          "name": "_vault",
          "type": "address"
        },
        {
          "internalType": "address",
          "name": "_mainToken",
          "type": "address"
        },
        {
          "internalType": "address",
          "name": "_voteToken",
          "type": "address"
        },
        {
          "components": [
            {
              "internalType": "uint32",
              "name": "maxWeightShares",
              "type": "uint32"
            },
            {
              "internalType": "uint32",
              "name": "minWeightShares",
              "type": "uint32"
            },
            {
              "internalType": "uint32",
              "name": "maxWeightPenalty",
              "type": "uint32"
            },
            {
              "internalType": "uint32",
              "name": "minWeightPenalty",
              "type": "uint32"
            },
            {
              "internalType": "uint32",
              "name": "penaltyWeightMultiplier",
              "type": "uint32"
            }
          ],
          "internalType": "struct Weight",
          "name": "_weight",
          "type": "tuple"
        },
        {
          "components": [
            {
              "internalType": "uint32",
              "name": "voteShareCoef",
              "type": "uint32"
            },
            {
              "internalType": "uint32",
              "name": "voteLockCoef",
              "type": "uint32"
            }
          ],
          "internalType": "struct VoteCoefficient",
          "name": "voteCoef",
          "type": "tuple"
        },
        {
          "internalType": "uint256",
          "name": "_maxLocks",
          "type": "uint256"
        },
        {
          "internalType": "address",
          "name": "_rewardsContract",
          "type": "address"
        },
        {
          "internalType": "uint256",
          "name": "_minLockPeriod",
          "type": "uint256"
        }
      ],
      "name": "initializeStaking",
      "outputs": [],
      "stateMutability": "nonpayable",
      "type": "function"
    },
    {
      "inputs": [],
      "name": "mainToken",
      "outputs": [
        {
          "internalType": "address",
          "name": "",
          "type": "address"
        }
      ],
      "stateMutability": "view",
      "type": "function"
    },
    {
      "inputs": [],
      "name": "maxLockPeriod",
      "outputs": [
        {
          "internalType": "uint256",
          "name": "",
          "type": "uint256"
        }
      ],
      "stateMutability": "view",
      "type": "function"
    },
    {
      "inputs": [],
      "name": "maxLockPositions",
      "outputs": [
        {
          "internalType": "uint256",
          "name": "",
          "type": "uint256"
        }
      ],
      "stateMutability": "view",
      "type": "function"
    },
    {
      "inputs": [],
      "name": "minLockPeriod",
      "outputs": [
        {
          "internalType": "uint256",
          "name": "",
          "type": "uint256"
        }
      ],
      "stateMutability": "view",
      "type": "function"
    },
    {
      "inputs": [],
      "name": "paused",
      "outputs": [
        {
          "internalType": "uint256",
          "name": "",
          "type": "uint256"
        }
      ],
      "stateMutability": "view",
      "type": "function"
    },
    {
      "inputs": [
        {
          "internalType": "address",
          "name": "streamOwner",
          "type": "address"
        },
        {
          "internalType": "address",
          "name": "rewardToken",
          "type": "address"
        },
        {
          "internalType": "uint256",
          "name": "maxDepositAmount",
          "type": "uint256"
        },
        {
          "internalType": "uint256",
          "name": "minDepositAmount",
          "type": "uint256"
        },
        {
          "internalType": "uint256[]",
          "name": "scheduleTimes",
          "type": "uint256[]"
        },
        {
          "internalType": "uint256[]",
          "name": "scheduleRewards",
          "type": "uint256[]"
        },
        {
          "internalType": "uint256",
          "name": "tau",
          "type": "uint256"
        }
      ],
      "name": "proposeStream",
      "outputs": [],
      "stateMutability": "nonpayable",
      "type": "function"
    },
    {
      "inputs": [
        {
          "internalType": "uint256",
          "name": "streamId",
          "type": "uint256"
        },
        {
          "internalType": "address",
          "name": "streamFundReceiver",
          "type": "address"
        }
      ],
      "name": "removeStream",
      "outputs": [],
      "stateMutability": "nonpayable",
      "type": "function"
    },
    {
      "inputs": [
        {
          "internalType": "bytes32",
          "name": "role",
          "type": "bytes32"
        },
        {
          "internalType": "address",
          "name": "account",
          "type": "address"
        }
      ],
      "name": "renounceRole",
      "outputs": [],
      "stateMutability": "nonpayable",
      "type": "function"
    },
    {
      "inputs": [
        {
          "internalType": "bytes32",
          "name": "role",
          "type": "bytes32"
        },
        {
          "internalType": "address",
          "name": "account",
          "type": "address"
        }
      ],
      "name": "revokeRole",
      "outputs": [],
      "stateMutability": "nonpayable",
      "type": "function"
    },
    {
      "inputs": [],
      "name": "rewardsCalculator",
      "outputs": [
        {
          "internalType": "address",
          "name": "",
          "type": "address"
        }
      ],
      "stateMutability": "view",
      "type": "function"
    },
    {
      "inputs": [
        {
          "internalType": "uint256",
          "name": "_minLockPeriod",
          "type": "uint256"
        }
      ],
      "name": "setMinimumLockPeriod",
      "outputs": [],
      "stateMutability": "nonpayable",
      "type": "function"
    },
    {
      "inputs": [
        {
          "internalType": "uint256",
          "name": "",
          "type": "uint256"
        }
      ],
      "name": "streamTotalUserPendings",
      "outputs": [
        {
          "internalType": "uint256",
          "name": "",
          "type": "uint256"
        }
      ],
      "stateMutability": "view",
      "type": "function"
    },
    {
      "inputs": [
        {
          "internalType": "bytes4",
          "name": "interfaceId",
          "type": "bytes4"
        }
      ],
      "name": "supportsInterface",
      "outputs": [
        {
          "internalType": "bool",
          "name": "",
          "type": "bool"
        }
      ],
      "stateMutability": "view",
      "type": "function"
    },
    {
      "inputs": [],
      "name": "totalAmountOfStakedToken",
      "outputs": [
        {
          "internalType": "uint256",
          "name": "",
          "type": "uint256"
        }
      ],
      "stateMutability": "view",
      "type": "function"
    },
    {
      "inputs": [],
      "name": "totalAmountOfVoteToken",
      "outputs": [
        {
          "internalType": "uint256",
          "name": "",
          "type": "uint256"
        }
      ],
      "stateMutability": "view",
      "type": "function"
    },
    {
      "inputs": [],
      "name": "totalPenaltyBalance",
      "outputs": [
        {
          "internalType": "uint256",
          "name": "",
          "type": "uint256"
        }
      ],
      "stateMutability": "view",
      "type": "function"
    },
    {
      "inputs": [],
      "name": "totalStreamShares",
      "outputs": [
        {
          "internalType": "uint256",
          "name": "",
          "type": "uint256"
        }
      ],
      "stateMutability": "view",
      "type": "function"
    },
    {
      "inputs": [
        {
          "internalType": "uint256",
          "name": "lockId",
          "type": "uint256"
        }
      ],
      "name": "unlock",
      "outputs": [],
      "stateMutability": "nonpayable",
      "type": "function"
    },
    {
      "inputs": [
        {
          "internalType": "uint256",
          "name": "lockId",
          "type": "uint256"
        },
        {
          "internalType": "uint256",
          "name": "amount",
          "type": "uint256"
        }
      ],
      "name": "unlockPartially",
      "outputs": [],
      "stateMutability": "nonpayable",
      "type": "function"
    },
    {
      "inputs": [
        {
          "internalType": "address",
          "name": "_vault",
          "type": "address"
        }
      ],
      "name": "updateVault",
      "outputs": [],
      "stateMutability": "nonpayable",
      "type": "function"
    },
    {
      "inputs": [
        {
          "internalType": "address",
          "name": "",
          "type": "address"
        }
      ],
      "name": "users",
      "outputs": [
        {
          "internalType": "uint256",
          "name": "voteTokenBalance",
          "type": "uint256"
        }
      ],
      "stateMutability": "view",
      "type": "function"
    },
    {
      "inputs": [],
      "name": "vault",
      "outputs": [
        {
          "internalType": "address",
          "name": "",
          "type": "address"
        }
      ],
      "stateMutability": "view",
      "type": "function"
    },
    {
      "inputs": [],
      "name": "voteToken",
      "outputs": [
        {
          "internalType": "address",
          "name": "",
          "type": "address"
        }
      ],
      "stateMutability": "view",
      "type": "function"
    },
    {
      "inputs": [],
      "name": "weight",
      "outputs": [
        {
          "internalType": "uint32",
          "name": "maxWeightShares",
          "type": "uint32"
        },
        {
          "internalType": "uint32",
          "name": "minWeightShares",
          "type": "uint32"
        },
        {
          "internalType": "uint32",
          "name": "maxWeightPenalty",
          "type": "uint32"
        },
        {
          "internalType": "uint32",
          "name": "minWeightPenalty",
          "type": "uint32"
        },
        {
          "internalType": "uint32",
          "name": "penaltyWeightMultiplier",
          "type": "uint32"
        }
      ],
      "stateMutability": "view",
      "type": "function"
    },
    {
      "inputs": [],
      "name": "withdrawAllStreams",
      "outputs": [],
      "stateMutability": "nonpayable",
      "type": "function"
    },
    {
      "inputs": [
        {
          "internalType": "address",
          "name": "penaltyReceiver",
          "type": "address"
        }
      ],
      "name": "withdrawPenalty",
      "outputs": [],
      "stateMutability": "nonpayable",
      "type": "function"
    },
    {
      "inputs": [
        {
          "internalType": "uint256",
          "name": "streamId",
          "type": "uint256"
        }
      ],
      "name": "withdrawStream",
      "outputs": [],
      "stateMutability": "nonpayable",
      "type": "function"
    }
  ],
  "bytecode": "0x60806040523480156200001157600080fd5b506200001c62000022565b62000112565b601454610100900460ff1615620000565760405162461bcd60e51b81526004016200004d90620000b0565b60405180910390fd5b60145460ff9081161015620000ae576014805460ff191660ff9081179091556040517f7f26b83ff96e1f2b6a682f133852f6798a09c465da95921460cefb384740249891620000a59162000102565b60405180910390a15b565b60208082528101620000fc81602781527f496e697469616c697a61626c653a20636f6e747261637420697320696e697469602082015266616c697a696e6760c81b604082015260600190565b92915050565b60ff8216815260208101620000fc565b615fcd80620001226000396000f3fe608060405234801561001057600080fd5b50600436106102c15760003560e01c8063894e9a0d1161017d578063b0abc981116100d9578063d547741f11610092578063d547741f146106ca578063ddcf3e29146106dd578063e7563f3f146106f0578063eb6a971714610703578063f1807b701461070b578063f604037314610713578063fbfa77cf1461071c57600080fd5b8063b0abc98114610658578063b52c05fe14610661578063bd5cf8ff14610674578063cedb66681461067d578063cf04a19d14610690578063d11a57ec146106a357600080fd5b80639403830e116101365780639403830e1461057e578063a1aab33f14610591578063a217fddf146105dd578063a3132880146105e5578063a87430ba146105f8578063a8cbd3c714610618578063a8d85f701461063857600080fd5b8063894e9a0d146104d55780638ca6ce11146104f85780638d40bd031461050b578063904033221461051e578063911328121461053157806391d148541461056b57600080fd5b80633ba31abf1161022c5780635ef5020f116101e55780635ef5020f146104565780635f7461d6146104695780636198e3391461047c5780636d878d101461048f5780636db8e53d146104a257806370bc770c146104ab57806373ae54b5146104cc57600080fd5b80633ba31abf146103f65780633ea005c8146104095780633fc15f151461041e5780634b1d29b41461043157806355021b3a1461043a5780635c975abb1461044d57600080fd5b80632f2ff15d1161027e5780632f2ff15d1461037a57806336085c511461038d57806336568abe146103a0578063382a7193146103b3578063389ed267146103c65780633a3f1511146103ed57600080fd5b806301ffc9a7146102c6578063160d66ae146102ef5780631d9755cb1461030f578063248a9ca3146103245780632692c59f146103545780632b6a722114610367575b600080fd5b6102d96102d436600461479a565b61072f565b6040516102e691906147c5565b60405180910390f35b600c54610302906001600160a01b031681565b6040516102e691906147ed565b61032261031d366004614925565b610766565b005b6103476103323660046149bd565b60009081526079602052604090206001015490565b6040516102e691906149e4565b6103226103623660046149bd565b610ae3565b6103226103753660046149f2565b610b1a565b610322610388366004614a13565b610bb5565b61032261039b3660046149bd565b610bda565b6103226103ae366004614a13565b610cd2565b6103226103c13660046149bd565b610d04565b6103477f139c2898040ef16910dc9f44dc697df79363da767d8bc92f2e310312b816e46d81565b61034760025481565b610322610404366004614a13565b610e13565b610347600080516020615f7883398151915281565b600b54610302906001600160a01b031681565b61034760005481565b610322610448366004614a50565b611048565b61034760ab5481565b610322610464366004614b53565b6112e2565b6103226104773660046149bd565b6114ea565b61032261048a3660046149bd565b611588565b600e54610302906001600160a01b031681565b61034760065481565b6104be6104b93660046149bd565b611681565b6040516102e6929190614c7a565b61034760015481565b6104e86104e33660046149bd565b61177f565b6040516102e69493929190614ce3565b610322610506366004614d18565b6117db565b610322610519366004614d18565b6118d5565b61032261052c3660046149bd565b611b22565b61034761053f366004614d4b565b6001600160a01b0391909116600090815260106020908152604080832093835260019093019052205490565b6102d9610579366004614a13565b611bf3565b61032261058c366004614d18565b611c1e565b600f546105cc9063ffffffff808216916401000000008104821691600160401b8204811691600160601b8104821691600160801b9091041685565b6040516102e6959493929190614d79565b610347600081565b6103226105f3366004614e16565b611ca7565b6103476106063660046149f2565b60106020526000908152604090205481565b6103476106263660046149bd565b60136020526000908152604090205481565b61064b6106463660046149f2565b611dd3565b6040516102e69190614f2a565b61034760055481565b61032261066f366004614d18565b611e99565b61034760075481565b61032261068b3660046149bd565b611edb565b61032261069e3660046149bd565b611f24565b6103477fe1dcbdb91df27212a29bc27177c840cf2f819ecf2187432e1fac86c2dd5dfca981565b6103226106d8366004614a13565b611f58565b6103476106eb366004614f3b565b611f7d565b6103226106fe3660046149f2565b6120e1565b61032261228d565b61032261237b565b61034760085481565b600d54610302906001600160a01b031681565b60006001600160e01b03198216637965db0b60e01b148061076057506301ffc9a760e01b6001600160e01b03198316145b92915050565b60006107718161242b565b600e54600160a81b900460ff16151560010361079f5760405162dc149f60e41b815260040160405180910390fd5b6107d63330856000815181106107b7576107b7614f8b565b6020908102919091010151600b546001600160a01b0316929190612435565b61082e85600b60009054906101000a90046001600160a01b03168560008151811061080357610803614f8b565b60200260200101518660008151811061081e5761081e614f8b565b602002602001015188888861248d565b60408051808201825285815260208082018690528251610160810184526001600160a01b03808a1680835292820192909252600b549091169281019290925260009160119060608101600281526020018760008151811061089157610891614f8b565b6020908102919091018101518252600082820181905260408084018290526060808501839052608085018b905260a0850183905260c0909401879052855460018082018855968352918390208551600b9093020180546001600160a01b03199081166001600160a01b0394851617825593860151968101805485169784169790971790965584015160028087018054948516929093169182178355938501519495949391926001600160a81b0319161790600160a01b90849081111561095957610959614c9f565b02179055506080820151600382015560a0820151600482015560c0820151600582015560e08201516006820155610100820151600782015561012082015160088201556101408201518051805160098401916109ba91839160200190614721565b5060208281015180516109d39260018501920190614721565b50505050506109e26000612502565b600e805460ff60a81b1916600160a81b1790558451610a28908690600090610a0c57610a0c614f8b565b6020908102919091010151600b546001600160a01b031661253b565b600b5485516001600160a01b039182169189169084907f16284487ea0f1368a3aac8128c3dd7d8e577839303a834c010386a8aea226570908990600090610a7157610a71614f8b565b6020026020010151604051610a8691906149e4565b60405180910390a4600b546040516001600160a01b039182169189169084907f4396d7c3edc1447dac8dd2b7143af95840c926a210524a0d3198012c7fdf37c790610ad29089906149e4565b60405180910390a450505050505050565b7f139c2898040ef16910dc9f44dc697df79363da767d8bc92f2e310312b816e46d610b0d8161242b565b610b1682612502565b5050565b60018060ab541660001480610b355750610b35600033611bf3565b610b5a5760405162461bcd60e51b8152600401610b5190614fca565b60405180910390fd5b7fe1dcbdb91df27212a29bc27177c840cf2f819ecf2187432e1fac86c2dd5dfca9610b848161242b565b600854600003610ba757604051635cc6486f60e01b815260040160405180910390fd5b610bb0836125d8565b505050565b600082815260796020526040902060010154610bd08161242b565b610bb0838361261a565b60018060ab541660001480610bf55750610bf5600033611bf3565b610c115760405162461bcd60e51b8152600401610b5190614fca565b610c1a826126a0565b33600090815260036020908152604080832085845290915290205460ff1615610c555760405162461bcd60e51b8152600401610b5190615001565b336000908152601260205260408120610c6f600185615027565b81548110610c7f57610c7f614f8b565b600091825260209091206003909102016001810154909150426001600160401b0390911611610cc05760405162461bcd60e51b8152600401610b519061505a565b610cc8612793565b610bb08333612849565b6001600160a01b0381163314610cfa5760405162461bcd60e51b8152600401610b51906150b9565b610b168282612981565b60018060ab541660001480610d1f5750610d1f600033611bf3565b610d3b5760405162461bcd60e51b8152600401610b5190614fca565b33600090815260106020908152604080832085845260018101909252822054909103610d795760405162461bcd60e51b8152600401610b51906150eb565b60008381526002820160205260409020544211610da85760405162461bcd60e51b8152600401610b519061511e565b600260118481548110610dbd57610dbd614f8b565b90600052602060002090600b020160020160149054906101000a900460ff166002811115610ded57610ded614c9f565b14610e0a5760405162461bcd60e51b8152600401610b5190615154565b610bb0836129e8565b600080516020615f78833981519152610e2b8161242b565b82600003610e4c576040516327b92aab60e21b815260040160405180910390fd5b60008381526013602052604090205415610e785760405162461bcd60e51b8152600401610b5190615187565b600060118481548110610e8d57610e8d614f8b565b60009182526020909120600b90910201905060028082810154600160a01b900460ff1690811115610ec057610ec0614c9f565b14610edd5760405162461bcd60e51b8152600401610b51906151b7565b60028101805460ff60a01b1916905560048101546003820154600091610f0291615027565b6002830154600d546040516370a0823160e01b81529293506000926001600160a01b03928316926370a0823192610f3e929116906004016147ed565b602060405180830381865afa158015610f5b573d6000803e3d6000fd5b505050506040513d601f19601f82011682018060405250810190610f7f91906151d2565b600d5460028501549192506001600160a01b039081169163da0c1a889188911684861115610fad5784610faf565b855b6040518463ffffffff1660e01b8152600401610fcd939291906151f3565b600060405180830381600087803b158015610fe757600080fd5b505af1158015610ffb573d6000803e3d6000fd5b505050600284015484546040516001600160a01b03928316935091169088907f661da9ced4b5d786f5b5f451a5f68af24721a01b0a65bb47fa4fdf70b80b887c90600090a4505050505050565b600080516020615f788339815191526110608161242b565b61106f8888888888888861248d565b600d54604051630480051d60e31b81526001600160a01b039091169063240028e89061109f908a906004016147ed565b602060405180830381865afa1580156110bc573d6000803e3d6000fd5b505050506040513d601f19601f820116820180604052508101906110e0919061522e565b6110fc5760405162461bcd60e51b8152600401610b519061526c565b6040805180820182528581526020808201869052601180548451610160810186526001600160a01b03808f1682523394820194909452928c169483019490945291929190606081016001815260006020808301829052604080840183905260608085018f9052608085018e905260a085018b905260c0850184905260e0909401889052855460018082018855968452928290208551600b9094020180546001600160a01b03199081166001600160a01b039586161782559286015196810180548416978516979097179096558401516002808701805493841692909416918217845593850151949594936001600160a81b03199092161790600160a01b90849081111561120b5761120b614c9f565b02179055506080820151600382015560a0820151600482015560c0820151600582015560e082015160068201556101008201516007820155610120820151600882015561014082015180518051600984019161126c91839160200190614721565b5060208281015180516112859260018501920190614721565b5050505050886001600160a01b03168a6001600160a01b0316827f16284487ea0f1368a3aac8128c3dd7d8e577839303a834c010386a8aea2265708b6040516112ce91906149e4565b60405180910390a450505050505050505050565b601454610100900460ff16158080156113025750601454600160ff909116105b8061131c5750303b15801561131c575060145460ff166001145b6113385760405162461bcd60e51b8152600401610b51906152c7565b6014805460ff19166001179055801561135b576014805461ff0019166101001790555b600e80546001600160a01b0319166001600160a01b0385161790556113ac8888888c8861138b60208c018c6152ee565b63ffffffff166113a160408d0160208e016152ee565b63ffffffff16612b09565b600d54604051630480051d60e31b81526001600160a01b039091169063240028e8906113dc908b906004016147ed565b602060405180830381865afa1580156113f9573d6000803e3d6000fd5b505050506040513d601f19601f8201168201806040525081019061141d919061522e565b6114395760405162461bcd60e51b8152600401610b519061532c565b61144460018b612cf0565b61145c600080516020615f788339815191528b61261a565b6114867fe1dcbdb91df27212a29bc27177c840cf2f819ecf2187432e1fac86c2dd5dfca98b61261a565b6301e13380600055600182905580156114de576014805461ff00191690556040517f7f26b83ff96e1f2b6a682f133852f6798a09c465da95921460cefb3847402498906114d590600190615359565b60405180910390a15b50505050505050505050565b60018060ab5416600014806115055750611505600033611bf3565b6115215760405162461bcd60e51b8152600401610b5190614fca565b3360009081526012602052604090205482111561155557813360405163632eba3d60e11b8152600401610b51929190615367565b816000036115765760405163d7315a2d60e01b815260040160405180910390fd5b61157e612793565b610b163383612d5a565b60018060ab5416600014806115a357506115a3600033611bf3565b6115bf5760405162461bcd60e51b8152600401610b5190614fca565b6115c8826126a0565b3360009081526012602052604081206115e2600185615027565b815481106115f2576115f2614f8b565b600091825260209091206003909102016001810154909150426001600160401b0390911611156116345760405162461bcd60e51b8152600401610b51906153a3565b61163c612793565b80543360008181526003602090815260408083208884529091529020805460ff191690556001600160801b039091169061167b90829081908790612dcf565b50505050565b6060806011838154811061169757611697614f8b565b90600052602060002090600b0201600901600001601184815481106116be576116be614f8b565b90600052602060002090600b02016009016001018180548060200260200160405190810160405280929190818152602001828054801561171d57602002820191906000526020600020905b815481526020019060010190808311611709575b505050505091508080548060200260200160405190810160405280929190818152602001828054801561176f57602002820191906000526020600020905b81548152602001906001019080831161175b575b5050505050905091509150915091565b60008060008060006011868154811061179a5761179a614f8b565b90600052602060002090600b020190508060030154816004015482600801548360020160149054906101000a900460ff169450945094509450509193509193565b60018060ab5416600014806117f657506117f6600033611bf3565b6118125760405162461bcd60e51b8152600401610b5190614fca565b61181b836126a0565b336000908152601260205260408120611835600186615027565b8154811061184557611845614f8b565b600091825260209091206003909102016001810154909150426001600160401b0390911611156118875760405162461bcd60e51b8152600401610b51906153a3565b61188f612793565b80543360008181526003602090815260408083208984529091529020805460ff191690556001600160801b03909116906118ce90829086908890612dcf565b5050505050565b60018060ab5416600014806118f057506118f0600033611bf3565b61190c5760405162461bcd60e51b8152600401610b5190614fca565b60006011848154811061192157611921614f8b565b60009182526020909120600b9091020190506001600282810154600160a01b900460ff169081111561195557611955614c9f565b146119725760405162461bcd60e51b8152600401610b51906153d5565b428160090160000160008154811061198c5761198c614f8b565b906000526020600020015410156119b55760405162461bcd60e51b8152600401610b5190615407565b80546001600160a01b031633146119de5760405162461bcd60e51b8152600401610b5190615437565b8060050154831115611a025760405162461bcd60e51b8152600401610b5190615468565b8060060154831015611a265760405162461bcd60e51b8152600401610b5190615498565b6002810154611a40906001600160a01b0316333086612435565b60028101805460ff60a01b1916600160a11b179055600381018390556005810154831015611a7257611a728484612fae565b6003810154600a82018054600090611a8c57611a8c614f8b565b906000526020600020015414611ab45760405162461bcd60e51b8152600401610b51906154c8565b6002810154815460078301546040516001600160a01b03938416939092169187917f4396d7c3edc1447dac8dd2b7143af95840c926a210524a0d3198012c7fdf37c791611b0191906149e4565b60405180910390a4600281015461167b9084906001600160a01b031661253b565b600080516020615f78833981519152611b3a8161242b565b600060118381548110611b4f57611b4f614f8b565b60009182526020909120600b9091020190506001600282810154600160a01b900460ff1690811115611b8357611b83614c9f565b14611ba05760405162461bcd60e51b8152600401610b51906153d5565b60028101805460ff60a01b19811690915581546040516001600160a01b03928316929091169085907ffadbcbd495527ce5e10fd0cceba57d404a4625dd6ce0499c254ac523789ef3ad90600090a4505050565b60009182526079602090815260408084206001600160a01b0393909316845291905290205460ff1690565b60018060ab541660001480611c395750611c39600033611bf3565b611c555760405162461bcd60e51b8152600401610b5190614fca565b336000908152600360209081526040808320601290925282205460019290611c7d90846154d8565b81526020810191909152604001600020805460ff1916911515919091179055610bb08383336130b4565b6000611cb28161242b565b600e54600160a01b900460ff161515600103611ce05760405162dc149f60e41b815260040160405180910390fd5b600e805460ff60a01b1916600160a01b17905560005b8281101561167b576000848483818110611d1257611d12614f8b565b9050606002016040016020810190611d2a91906149f2565b6001600160a01b03811660009081526003602090815260408083206012909252822054929350600192909190611d6090846154d8565b81526020810191909152604001600020805460ff1916911515919091179055611dc0858584818110611d9457611d94614f8b565b90506060020160000135868685818110611db057611db0614f8b565b90506060020160200135836130b4565b5080611dcb816154eb565b915050611cf6565b6001600160a01b0381166000908152601260209081526040808320805482518185028101850190935280835260609492939192909184015b82821015611e8e5760008481526020908190206040805160a0810182526003860290920180546001600160801b038082168552600160801b90910416838501526001808201546001600160401b03811693850193909352600160401b9092046001600160a01b031660608401526002015460808301529083529092019101611e0b565b505050509050919050565b60018060ab541660001480611eb45750611eb4600033611bf3565b611ed05760405162461bcd60e51b8152600401610b5190614fca565b610bb08383336130b4565b60018060ab541660001480611ef65750611ef6600033611bf3565b611f125760405162461bcd60e51b8152600401610b5190614fca565b611f1a612793565b610b163383613194565b6000611f2f8161242b565b600054821115611f5257604051639ab093af60e01b815260040160405180910390fd5b50600155565b600082815260796020526040902060010154611f738161242b565b610bb08383612981565b6000600260118581548110611f9457611f94614f8b565b90600052602060002090600b020160020160149054906101000a900460ff166002811115611fc457611fc4614c9f565b14611fe15760405162461bcd60e51b8152600401610b5190615154565b6001600160a01b0383166000908152601260205260409020548211156120195760405162461bcd60e51b8152600401610b5190615525565b600061202485613254565b6001600160a01b03851660009081526010602090815260408083206012909252822092935091612055600187615027565b8154811061206557612065614f8b565b600091825260208083208884526003868101835260408086208d8752909352919093205491029091018054909250600160801b90046001600160801b03166ec097ce7bc90715b34b9f1000000000816120be8488615027565b6120c89190615535565b6120d2919061556a565b955050505050505b9392505050565b60006120ec8161242b565b60ab5460000361210f57604051636cd6020160e01b815260040160405180910390fd5b6001600160a01b0382166121365760405163d92e233d60e01b815260040160405180910390fd5b6040516301ffc9a760e01b81526001600160a01b038316906301ffc9a79061216990633485434760e11b9060040161558e565b602060405180830381865afa158015612186573d6000803e3d6000fd5b505050506040513d601f19601f820116820180604052508101906121aa919061522e565b6121c957816040516363f1f03760e01b8152600401610b5191906147ed565b600d60009054906101000a90046001600160a01b03166001600160a01b0316632c678c646040518163ffffffff1660e01b8152600401602060405180830381865afa15801561221c573d6000803e3d6000fd5b505050506040513d601f19601f82011682018060405250810190612240919061522e565b61226a57600d5460405163cec27f4760e01b8152610b51916001600160a01b0316906004016147ed565b50600d80546001600160a01b0319166001600160a01b0392909216919091179055565b60018060ab5416600014806122a857506122a8600033611bf3565b6122c45760405162461bcd60e51b8152600401610b5190614fca565b336000908152601060205260408120905b601154811015610bb05760008181526001830160205260409020541580159061230d5750600081815260028301602052604090205442115b801561235b575060026011828154811061232957612329614f8b565b90600052602060002090600b020160020160149054906101000a900460ff16600281111561235957612359614c9f565b145b1561236957612369816129e8565b80612373816154eb565b9150506122d5565b60ab5460000361239e57604051636cd6020160e01b815260040160405180910390fd5b33600090815260126020526040902054805b6001811061241d573360009081526012602052604081206123d2600184615027565b815481106123e2576123e2614f8b565b60009182526020909120600390910201546001600160801b0316905061240a81808433612dcf565b50806124158161559c565b9150506123b0565b5061242860006129e8565b50565b61242881336132da565b61167b846323b872dd60e01b858585604051602401612456939291906151f3565b60408051601f198184030181529190526020810180516001600160e01b03166001600160e01b03199093169290921790915261333e565b600e546040516329b367cb60e11b81526001600160a01b0390911690635366cf96906124c9908a908a908a908a908a908a908a906004016155b3565b60006040518083038186803b1580156124e157600080fd5b505afa1580156124f5573d6000803e3d6000fd5b5050505050505050505050565b60ab54818116148061251a575061251a600033611bf3565b6125365760405162461bcd60e51b8152600401610b5190615656565b60ab55565b600d54612556906001600160a01b03838116911660006133cd565b600d54612570906001600160a01b038381169116846133cd565b600d546040516311f9fbc960e21b81526001600160a01b03909116906347e7ef24906125a29084908690600401615666565b600060405180830381600087803b1580156125bc57600080fd5b505af11580156125d0573d6000803e3d6000fd5b505050505050565b600880546000909155600d54600b54604051631b41835160e31b81526001600160a01b039283169263da0c1a88926125a29287929091169086906004016151f3565b6126248282611bf3565b610b165760008281526079602090815260408083206001600160a01b03851684529091529020805460ff1916600117905561265c3390565b6001600160a01b0316816001600160a01b0316837f2f8788117e7eff1d82e926ec794901d17c78024a50270940304540a733656f0d60405160405180910390a45050565b806000036126c15760405163d7315a2d60e01b815260040160405180910390fd5b336000908152601260205260409020548111156126f557803360405163632eba3d60e11b8152600401610b51929190615367565b33600090815260126020526040812061270f600184615027565b8154811061271f5761271f614f8b565b60009182526020909120600160039092020190810154909150600160401b90046001600160a01b031633146127665760405162461bcd60e51b8152600401610b5190615437565b80546001600160801b0316600003610b16578160405163f19d752960e01b8152600401610b5191906149e4565b426004540361279e57565b600554156128435760005b601154811015612841576002601182815481106127c8576127c8614f8b565b90600052602060002090600b020160020160149054906101000a900460ff1660028111156127f8576127f8614c9f565b0361282f5761280681613254565b6011828154811061281957612819614f8b565b90600052602060002090600b0201600801819055505b80612839816154eb565b9150506127a9565b505b42600455565b6001600160a01b038116600090815260126020526040812061286c600185615027565b8154811061287c5761287c614f8b565b60009182526020909120600390910201600181015481549192506001600160401b0316906001600160801b03166128b581808787612dcf565b60006128c18342613481565b90506000620186a06128d38484615535565b6128dd919061556a565b6001600160a01b038716600090815260106020908152604080832083805260018101909252822080549394509092849290612919908490615027565b9091555050600080805260136020527f8fa6efc3be94b5b348b21fea823fe8d100408cee9b7f90524494500445d8ff6c8054849290612959908490615027565b92505081905550816008600082825461297291906154d8565b90915550505050505050505050565b61298b8282611bf3565b15610b165760008281526079602090815260408083206001600160a01b0385168085529252808320805460ff1916905551339285917ff6391f5c32d9c69d2a47ea670b442974b53935d1edc7fd64eb21e047a839171b9190a45050565b3360009081526010602090815260408083208484526001810183528184208054908590556013909352908320805491938392612a25908490615027565b9091555050604051339084907f3bfce8de0db7450cc169b94323c210e69a36c6a4a58c9f5d96bec4973adce39290612a5e9085906149e4565b60405180910390a3600d54601180546001600160a01b039092169163da0c1a8891339187908110612a9157612a91614f8b565b600091825260209091206002600b9092020101546040516001600160e01b031960e085901b168152612ad292916001600160a01b03169086906004016151f3565b600060405180830381600087803b158015612aec57600080fd5b505af1158015612b00573d6000803e3d6000fd5b50505050505050565b6001600160a01b038716612b305760405163d92e233d60e01b815260040160405180910390fd5b6001600160a01b038616612b575760405163d92e233d60e01b815260040160405180910390fd5b6001600160a01b038416612b7e5760405163d92e233d60e01b815260040160405180910390fd5b612b8e60408601602087016152ee565b63ffffffff16612ba160208701876152ee565b63ffffffff1611612bc45760405162461bcd60e51b8152600401610b51906156a1565b612bd460808601606087016152ee565b63ffffffff16612bea60608701604088016152ee565b63ffffffff1611612c0d5760405162461bcd60e51b8152600401610b51906156d3565b620186a0612c2160608701604088016152ee565b612c3160a08801608089016152ee565b612c3b91906156e3565b63ffffffff161115612c5f5760405162461bcd60e51b8152600401610b5190615734565b80600003612c7f5760405162461bcd60e51b8152600401610b5190615764565b600b80546001600160a01b03808a166001600160a01b031992831617909255600c80549289169290911691909117905584600f612cbc82826158fa565b5050600d80546001600160a01b0319166001600160a01b039590951694909417909355600291909155600955600a55505050565b601454610100900460ff16612d175760405162461bcd60e51b8152600401610b519061594c565b612d1f61353d565b612d2a60008261261a565b612d547f139c2898040ef16910dc9f44dc697df79363da767d8bc92f2e310312b816e46d8261261a565b5060ab55565b60115460005b8181101561167b57600260118281548110612d7d57612d7d614f8b565b90600052602060002090600b020160020160149054906101000a900460ff166002811115612dad57612dad614c9f565b03612dbd57612dbd848285613566565b80612dc7816154eb565b915050612d60565b6001600160a01b038116600090815260106020908152604080832060129092528220909190612dff600186615027565b81548110612e0f57612e0f614f8b565b60009182526020822060039091020180549092506001600160801b03169003612e4d578360405163f19d752960e01b8152600401610b5191906149e4565b600554600003612e7057604051635cf8d8a760e01b815260040160405180910390fd5b6002810180546000918290556007805491928392612e8f908490615027565b90915550508254600090821015612eb0578354612ead908390615027565b90505b808455612ebf878988886138c3565b600c546040516370a0823160e01b81526000916001600160a01b0316906370a0823190612ef09089906004016147ed565b602060405180830381865afa158015612f0d573d6000803e3d6000fd5b505050506040513d601f19601f82011682018060405250810190612f3191906151d2565b905082811015612f3f578092505b600c54604051632770a7eb60e21b81526001600160a01b0390911690639dc29fac90612f719089908790600401615666565b600060405180830381600087803b158015612f8b57600080fd5b505af1158015612f9f573d6000803e3d6000fd5b50505050505050505050505050565b600060118381548110612fc357612fc3614f8b565b600091825260208220600a600b90920201015491505b8181101561167b5760118481548110612ff457612ff4614f8b565b90600052602060002090600b020160050154836011868154811061301a5761301a614f8b565b90600052602060002090600b0201600901600101838154811061303f5761303f614f8b565b90600052602060002001546130549190615535565b61305e919061556a565b6011858154811061307157613071614f8b565b90600052602060002090600b0201600901600101828154811061309657613096614f8b565b600091825260209091200155806130ac816154eb565b915050612fd9565b6001548210156130d65760405162461bcd60e51b8152600401610b519061597b565b6002546001600160a01b03821660009081526012602052604090205411156131105760405162461bcd60e51b8152600401610b51906159ab565b600083116131305760405162461bcd60e51b8152600401610b51906159da565b6000548211156131525760405162461bcd60e51b8152600401610b5190615a09565b600b5461316a906001600160a01b0316333086612435565b613172612793565b61317d818484613ac0565b600b54610bb09084906001600160a01b031661253b565b6002601182815481106131a9576131a9614f8b565b90600052602060002090600b020160020160149054906101000a900460ff1660028111156131d9576131d9614c9f565b146131f65760405162461bcd60e51b8152600401610b5190615a38565b6001600160a01b038216600090815260126020526040902080548061322d5760405162461bcd60e51b8152600401610b5190615a66565b60015b8181116118ce57613242858583613566565b8061324c816154eb565b915050613230565b60006006546000036132785760405162461bcd60e51b8152600401610b5190615a96565b6006546ec097ce7bc90715b34b9f100000000061329784600454613cae565b6132a19190615535565b6132ab919061556a565b601183815481106132be576132be614f8b565b90600052602060002090600b02016008015461076091906154d8565b6132e48282611bf3565b610b16576132fc816001600160a01b03166014613d48565b613307836020613d48565b604051602001613318929190615aec565b60408051601f198184030181529082905262461bcd60e51b8252610b5191600401615b70565b6000613393826040518060400160405280602081526020017f5361666545524332303a206c6f772d6c6576656c2063616c6c206661696c6564815250856001600160a01b0316613eb39092919063ffffffff16565b805190915015610bb057808060200190518101906133b1919061522e565b610bb05760405162461bcd60e51b8152600401610b5190615bc8565b8015806134465750604051636eb1769f60e11b81526001600160a01b0384169063dd62ed3e906134039030908690600401615bd8565b602060405180830381865afa158015613420573d6000803e3d6000fd5b505050506040513d601f19601f8201168201806040525081019061344491906151d2565b155b6134625760405162461bcd60e51b8152600401610b5190615c39565b610bb08363095ea7b360e01b8484604051602401612456929190615666565b600082808310613495576000915050610760565b60006134a18483615027565b600054600f549192509082906134cd9063ffffffff600160601b8204811691600160401b900416615c49565b600f546134e79190600160801b900463ffffffff166156e3565b63ffffffff166134f79190615535565b613501919061556a565b600f546135249063ffffffff600160601b8204811691600160801b9004166156e3565b63ffffffff1661353491906154d8565b95945050505050565b601454610100900460ff166135645760405162461bcd60e51b8152600401610b519061594c565b565b6001600160a01b0383166000908152601260205260408120613589600184615027565b8154811061359957613599614f8b565b6000918252602090912060039091020190506002601184815481106135c0576135c0614f8b565b90600052602060002090600b020160020160149054906101000a900460ff1660028111156135f0576135f0614c9f565b1461360d5760405162461bcd60e51b8152600401610b5190615a38565b6001600160a01b0384166000908152601060205260408120825490916001600160801b0390911690036136525760405162461bcd60e51b8152600401610b5190615c88565b8154600084815260038301602090815260408083208884529091528120546011805492936ec097ce7bc90715b34b9f100000000093600160801b9091046001600160801b0316929190899081106136ab576136ab614f8b565b90600052602060002090600b0201600801546136c79190615027565b6136d19190615535565b6136db919061556a565b9050806000036136ed57505050505050565b60008581526001830160205260408120805483929061370d9084906154d8565b9091555050600085815260136020526040812080548392906137309084906154d8565b9091555050601180548690811061374957613749614f8b565b600091825260208083206008600b9093020191909101548683526003850182526040808420898552909252912055601180548690811061378b5761378b614f8b565b90600052602060002090600b020160070154426137a891906154d8565b600086815260028401602052604090205560118054869081106137cd576137cd614f8b565b90600052602060002090600b02016003015481601187815481106137f3576137f3614f8b565b90600052602060002090600b02016004015461380f91906154d8565b111561382d5760405162461bcd60e51b8152600401610b5190615cc3565b806011868154811061384157613841614f8b565b90600052602060002090600b0201600401600082825461386191906154d8565b90915550506000858152600183016020526040908190205490516001600160a01b0388169187917f5f1c6be51c8ec7fa7e7ddd9f798ec55927b06cfc8d9159987d1ae3358cb10b59916138b3916149e4565b60405180910390a3505050505050565b6001600160a01b0381166000908152601060209081526040808320601290925282209091906138f3600186615027565b8154811061390357613903614f8b565b9060005260206000209060030201905084600560008282546139259190615027565b9091555050805460068054600160801b9092046001600160801b031691600090613950908490615027565b909155505060008082556139648787615027565b905086836001016000808152602001908152602001600020600082825461398b91906154d8565b9091555050601180546000906139a3576139a3614f8b565b90600052602060002090600b020160070154426139c091906154d8565b6000808052600285016020908152604082209290925560139091527f8fa6efc3be94b5b348b21fea823fe8d100408cee9b7f90524494500445d8ff6c8054899290613a0c9084906154d8565b90915550508015613a6a57613a2381868486613eca565b84846001600160a01b03167f845a16492d8f772c792e84d2c5495d37fca22ce33263b67322e92ef0be653c5089604051613a5d91906149e4565b60405180910390a3612b00565b613a7583858761404c565b84846001600160a01b03167f7fc4727e062e336010f2c282598ef5f14facb3de68cf8195c2f23e1454b2b74e89604051613aaf91906149e4565b60405180910390a350505050505050565b6001600160a01b03831660009081526010602052604081208215613b4957600a54670de0b6b3a76400009081613af68688615535565b613b009190615535565b613b0a919061556a565b613b14919061556a565b915081816000016000828254613b2a91906154d8565b925050819055508160076000828254613b4391906154d8565b90915550505b60006040518060a00160405280613b5f87614283565b6001600160801b0316815260006020820152604001613b86613b8142886154d8565b6142b0565b6001600160401b0390811682526001600160a01b03808a16602080850182905260409485018990526000828152601282528581208054600181810183558284528484208a51958b01516001600160801b03908116600160801b02961695909517600390920290940190815596880151928701805460608a0151909616600160401b026001600160e01b031990961693909616929092179390931790935560808501516002909401939093559190915254909150613c48908790879086906142d9565b82156125d057600c546040516340c10f1960e01b81526001600160a01b03909116906340c10f1990613c809089908790600401615666565b600060405180830381600087803b158015613c9a57600080fd5b505af11580156114de573d6000803e3d6000fd5b600e54601180546000926001600160a01b0316916351e1551a9186908110613cd857613cd8614f8b565b90600052602060002090600b0201600901846040518363ffffffff1660e01b8152600401613d07929190615d5e565b602060405180830381865afa158015613d24573d6000803e3d6000fd5b505050506040513d601f19601f820116820180604052508101906120da91906151d2565b60606000613d57836002615535565b613d629060026154d8565b6001600160401b03811115613d7957613d7961480f565b6040519080825280601f01601f191660200182016040528015613da3576020820181803683370190505b509050600360fc1b81600081518110613dbe57613dbe614f8b565b60200101906001600160f81b031916908160001a905350600f60fb1b81600181518110613ded57613ded614f8b565b60200101906001600160f81b031916908160001a9053506000613e11846002615535565b613e1c9060016154d8565b90505b6001811115613e94576f181899199a1a9b1b9c1cb0b131b232b360811b85600f1660108110613e5057613e50614f8b565b1a60f81b828281518110613e6657613e66614f8b565b60200101906001600160f81b031916908160001a90535060049490941c93613e8d8161559c565b9050613e1f565b5083156120da5760405162461bcd60e51b8152600401610b5190615db0565b6060613ec284846000856144cd565b949350505050565b8360056000828254613edc91906154d8565b90915550613eeb905084614283565b82548390600090613f069084906001600160801b0316615dc0565b92506101000a8154816001600160801b0302191690836001600160801b031602179055506000613f388560004261458f565b9050613f4381614283565b83548490601090613f65908490600160801b90046001600160801b0316615dc0565b92506101000a8154816001600160801b0302191690836001600160801b031602179055508060066000828254613f9b91906154d8565b909155505060115460005b81811015612b0057600260118281548110613fc357613fc3614f8b565b90600052602060002090600b020160020160149054906101000a900460ff166002811115613ff357613ff3614c9f565b0361403a576011818154811061400b5761400b614f8b565b600091825260208083206008600b90930201919091015488835260038701825260408084208585529092529120555b80614044816154eb565b915050613fa6565b6011546001600160a01b0383166000908152601260205260409020548281148015906140785750600181115b156141eb576001600160a01b03841660009081526012602052604081206140a0600184615027565b815481106140b0576140b0614f8b565b600091825260208083206001600160a01b0389168452601290915260409092206003909102909101915081906140e7600187615027565b815481106140f7576140f7614f8b565b600091825260208220835460039092020180546fffffffffffffffffffffffffffffffff19166001600160801b0392831690811782558454600160801b90819004909316909202909117815560018084018054918301805467ffffffffffffffff1981166001600160401b03909416938417825591546001600160a01b03600160401b9182900416026001600160e01b03199092169092171790556002928301549201919091555b838110156141e8576000838152600388016020818152604080842085855282528084205489855292825280842085855290915290912055806141e0816154eb565b91505061419f565b50505b60005b8281101561422457600082815260038701602090815260408083208484529091528120558061421c816154eb565b9150506141ee565b506001600160a01b038416600090815260126020526040902080548061424c5761424c615de3565b6000828152602081206003600019909301928302018181556001810180546001600160e01b03191690556002015590555050505050565b60006001600160801b038211156142ac5760405162461bcd60e51b8152600401610b5190615e2d565b5090565b60006001600160401b038211156142ac5760405162461bcd60e51b8152600401610b5190615e71565b6001600160a01b038416600090815260106020908152604080832060129092528220909190614309600185615027565b8154811061431957614319614f8b565b90600052602060002090600302019050846005600082825461433b91906154d8565b909155506000905061434e86864261458f565b9050806006600082825461436291906154d8565b90915550614371905081614283565b82548390601090614393908490600160801b90046001600160801b0316615dc0565b92506101000a8154816001600160801b0302191690836001600160801b031602179055506000601180549050905060005b8181101561446a576002601182815481106143e1576143e1614f8b565b90600052602060002090600b020160020160149054906101000a900460ff16600281111561441157614411614c9f565b03614458576011818154811061442957614429614f8b565b600091825260208083206008600b90930201919091015488835260038801825260408084208585529092529120555b80614462816154eb565b9150506143c4565b50600183015460405186916001600160a01b038b16917f6381ea17a5324d29cc015352644672ead5185c1c61a0d3a521eda97e35cec97e916144bb918c9188918d916001600160401b031690615e9f565b60405180910390a35050505050505050565b6060824710156144ef5760405162461bcd60e51b8152600401610b5190615f17565b6001600160a01b0385163b6145165760405162461bcd60e51b8152600401610b5190615f5b565b600080866001600160a01b031685876040516145329190615f6b565b60006040518083038185875af1925050503d806000811461456f576040519150601f19603f3d011682016040523d82523d6000602084013e614574565b606091505b50915091506145848282866146e8565b979650505050505050565b6000806103e8846009546145a39190615535565b6145ad919061556a565b6145b790866154d8565b905060006228207263ffffffff1660116000815481106145d9576145d9614f8b565b90600052602060002090600b02016009016000016000815481106145ff576145ff614f8b565b906000526020600020015461461491906154d8565b905060006146266301e13380836154d8565b905081851161464c57600f546146429063ffffffff1684615535565b93505050506120da565b80851061466e57600f5461464290640100000000900463ffffffff1684615535565b6146788282615027565b6146828683615027565b600f5461469f9063ffffffff640100000000820481169116615c49565b6146af9063ffffffff1686615535565b6146b99190615535565b6146c3919061556a565b600f546146de90640100000000900463ffffffff1685615535565b61458491906154d8565b606083156146f75750816120da565b8251156147075782518084602001fd5b8160405162461bcd60e51b8152600401610b519190615b70565b82805482825590600052602060002090810192821561475c579160200282015b8281111561475c578251825591602001919060010190614741565b506142ac9291505b808211156142ac5760008155600101614764565b6001600160e01b031981165b811461242857600080fd5b803561076081614778565b6000602082840312156147af576147af600080fd5b6000613ec2848461478f565b8015155b82525050565b6020810161076082846147bb565b60006001600160a01b038216610760565b6147bf816147d3565b6020810161076082846147e4565b614784816147d3565b8035610760816147fb565b634e487b7160e01b600052604160045260246000fd5b601f19601f83011681018181106001600160401b038211171561484a5761484a61480f565b6040525050565b600061485c60405190565b90506148688282614825565b919050565b60006001600160401b038211156148865761488661480f565b5060209081020190565b80614784565b803561076081614890565b60006148b46148af8461486d565b614851565b838152905060208082019084028301858111156148d3576148d3600080fd5b835b818110156148f757806148e88882614896565b845250602092830192016148d5565b5050509392505050565b600082601f83011261491557614915600080fd5b8135613ec28482602086016148a1565b6000806000806080858703121561493e5761493e600080fd5b600061494a8787614804565b94505060208501356001600160401b0381111561496957614969600080fd5b61497587828801614901565b93505060408501356001600160401b0381111561499457614994600080fd5b6149a087828801614901565b92505060606149b187828801614896565b91505092959194509250565b6000602082840312156149d2576149d2600080fd5b6000613ec28484614896565b806147bf565b6020810161076082846149de565b600060208284031215614a0757614a07600080fd5b6000613ec28484614804565b60008060408385031215614a2957614a29600080fd5b6000614a358585614896565b9250506020614a4685828601614804565b9150509250929050565b600080600080600080600060e0888a031215614a6e57614a6e600080fd5b6000614a7a8a8a614804565b9750506020614a8b8a828b01614804565b9650506040614a9c8a828b01614896565b9550506060614aad8a828b01614896565b94505060808801356001600160401b03811115614acc57614acc600080fd5b614ad88a828b01614901565b93505060a08801356001600160401b03811115614af757614af7600080fd5b614b038a828b01614901565b92505060c0614b148a828b01614896565b91505092959891949750929550565b600060a08284031215614b3857614b38600080fd5b50919050565b600060408284031215614b3857614b38600080fd5b60008060008060008060008060006101c08a8c031215614b7557614b75600080fd5b6000614b818c8c614804565b9950506020614b928c828d01614804565b9850506040614ba38c828d01614804565b9750506060614bb48c828d01614804565b9650506080614bc58c828d01614b23565b955050610120614bd78c828d01614b3e565b945050610160614be98c828d01614896565b935050610180614bfb8c828d01614804565b9250506101a0614c0d8c828d01614896565b9150509295985092959850929598565b6000614c2983836149de565b505060200190565b6000614c3b825190565b80845260209384019383018060005b83811015614c6f578151614c5e8882614c1d565b975060208301925050600101614c4a565b509495945050505050565b60408082528101614c8b8185614c31565b90508181036020830152613ec28184614c31565b634e487b7160e01b600052602160045260246000fd5b6003811061242857612428614c9f565b8061486881614cb5565b600061076082614cc5565b6147bf81614ccf565b60808101614cf182876149de565b614cfe60208301866149de565b614d0b60408301856149de565b6135346060830184614cda565b60008060408385031215614d2e57614d2e600080fd5b6000614d3a8585614896565b9250506020614a4685828601614896565b60008060408385031215614d6157614d61600080fd5b6000614d3a8585614804565b63ffffffff81166147bf565b60a08101614d878288614d6d565b614d946020830187614d6d565b614da16040830186614d6d565b614dae6060830185614d6d565b614dbb6080830184614d6d565b9695505050505050565b60008083601f840112614dda57614dda600080fd5b5081356001600160401b03811115614df457614df4600080fd5b602083019150836060820283011115614e0f57614e0f600080fd5b9250929050565b60008060208385031215614e2c57614e2c600080fd5b82356001600160401b03811115614e4557614e45600080fd5b614e5185828601614dc5565b92509250509250929050565b6001600160801b0381166147bf565b6001600160401b0381166147bf565b805160a0830190614e8c8482614e5d565b506020820151614e9f6020850182614e5d565b506040820151614eb26040850182614e6c565b506060820151614ec560608501826147e4565b50608082015161167b60808501826149de565b6000614ee48383614e7b565b505060a00190565b6000614ef6825190565b80845260209384019383018060005b83811015614c6f578151614f198882614ed8565b975060208301925050600101614f05565b602080825281016120da8184614eec565b600080600060608486031215614f5357614f53600080fd5b6000614f5f8686614896565b9350506020614f7086828701614804565b9250506040614f8186828701614896565b9150509250925092565b634e487b7160e01b600052603260045260246000fd5b600f81526000602082016e1c185d5cd9590818dbdb9d1c9858dd608a1b815291505b5060200190565b6020808252810161076081614fa1565b601081526000602082016f6561726c7920696e6665617369626c6560801b81529150614fc3565b6020808252810161076081614fda565b634e487b7160e01b600052601160045260246000fd5b8181038181111561076057610760615011565b60098152600060208201683637b1b59037b832b760b91b81529150614fc3565b602080825281016107608161503a565b602f81526000602082017f416363657373436f6e74726f6c3a2063616e206f6e6c792072656e6f756e636581526e103937b632b9903337b91039b2b63360891b602082015291505b5060400190565b602080825281016107608161506a565b600b81526000602082016a6e6f2070656e64696e677360a81b81529150614fc3565b60208082528101610760816150c9565b600c81526000602082016b1b9bdd081c995b19585cd95960a21b81529150614fc3565b60208082528101610760816150fb565b600f81526000602082016e73747265616d20696e61637469766560881b81529150614fc3565b602080825281016107608161512e565b600c81526000602082016b373a103bb4ba34323930bbb760a11b81529150614fc3565b6020808252810161076081615164565b60098152600060208201684e6f2053747265616d60b81b81529150614fc3565b6020808252810161076081615197565b805161076081614890565b6000602082840312156151e7576151e7600080fd5b6000613ec284846151c7565b6060810161520182866147e4565b61520e60208301856147e4565b613ec260408301846149de565b801515614784565b80516107608161521b565b60006020828403121561524357615243600080fd5b6000613ec28484615223565b600681526000602082016510aa37b5b2b760d11b81529150614fc3565b602080825281016107608161524f565b602e81526000602082017f496e697469616c697a61626c653a20636f6e747261637420697320616c72656181526d191e481a5b9a5d1a585b1a5e995960921b602082015291506150b2565b602080825281016107608161527c565b63ffffffff8116614784565b8035610760816152d7565b60006020828403121561530357615303600080fd5b6000613ec284846152e3565b600681526000602082016510ba37b5b2b760d11b81529150614fc3565b602080825281016107608161530f565b60006107608261534a565b90565b60ff1690565b6147bf8161533c565b602081016107608284615350565b6040810161537582856149de565b6120da60208301846147e4565b600a8152600060208201696c6f636b20636c6f736560b01b81529150614fc3565b6020808252810161076081615382565b600b81526000602082016a1b9d081c1c9bdc1bdcd95960aa1b81529150614fc3565b60208082528101610760816153b3565b600b81526000602082016a70726f702065787069726560a81b81529150614fc3565b60208082528101610760816153e5565b60098152600060208201683130b21037bbb732b960b91b81529150614fc3565b6020808252810161076081615417565b600a8152600060208201690e4eee4c8e640d0d2ced60b31b81529150614fc3565b6020808252810161076081615447565b60098152600060208201687277726473206c6f7760b81b81529150614fc3565b6020808252810161076081615478565b6009815260006020820168189859081cdd185c9d60ba1b81529150614fc3565b60208082528101610760816154a8565b8082018082111561076057610760615011565b600060001982036154fe576154fe615011565b5060010190565b60098152600060208201680c4c2c840d2dcc8caf60bb1b81529150614fc3565b6020808252810161076081615505565b600081600019048311821515161561554f5761554f615011565b500290565b634e487b7160e01b600052601260045260246000fd5b60008261557957615579615554565b500490565b6001600160e01b031981166147bf565b60208101610760828461557e565b6000816155ab576155ab615011565b506000190190565b60e081016155c1828a6147e4565b6155ce60208301896147e4565b6155db60408301886149de565b6155e860608301876149de565b81810360808301526155fa8186614c31565b905081810360a083015261560e8185614c31565b905061561d60c08301846149de565b98975050505050505050565b60168152600060208201756f6e6c792061646d696e2063616e20756e706175736560501b81529150614fc3565b6020808252810161076081615629565b6040810161567482856147e4565b6120da60208301846149de565b600981526000602082016862616420736861726560b81b81529150614fc3565b6020808252810161076081615681565b600b81526000602082016a6261642070656e616c747960a81b81529150614fc3565b60208082528101610760816156b1565b600063ffffffff8216915063ffffffff831692508163ffffffff048311821515161561554f5761554f615011565b600c81526000602082016b1ddc9bdb99c81dd95a59da1d60a21b81529150614fc3565b6020808252810161076081615711565b60098152600060208201683d32b9379031b7b2b360b91b81529150614fc3565b6020808252810161076081615744565b60008135610760816152d7565b600063ffffffff835b81169019929092169190911792915050565b600063ffffffff8216610760565b6157b38261579c565b6157be818354615781565b8255505050565b600067ffffffff0000000061578a8460201b90565b6157e38261579c565b6157be8183546157c5565b600063ffffffff60401b61578a8460401b90565b61580b8261579c565b6157be8183546157ee565b600063ffffffff60601b61578a8460601b90565b6158338261579c565b6157be818354615816565b600063ffffffff60801b61578a8460801b90565b61585b8261579c565b6157be81835461583e565b80828061587281615774565b905061587e81846157aa565b5082915050602083018061589181615774565b905061589d81846157da565b508291505060408301806158b081615774565b90506158bc8184615802565b508291505060608301806158cf81615774565b90506158db818461582a565b508291505060808301806158ee81615774565b90506118ce8184615852565b610b168282615866565b602b81526000602082017f496e697469616c697a61626c653a20636f6e7472616374206973206e6f74206981526a6e697469616c697a696e6760a81b602082015291506150b2565b6020808252810161076081615904565b60088152600060208201676d696e206c6f636b60c01b81529150614fc3565b602080825281016107608161595c565b60098152600060208201686d6178206c6f636b7360b81b81529150614fc3565b602080825281016107608161598b565b60088152600060208201670616d6f756e7420360c41b81529150614fc3565b60208082528101610760816159bb565b60088152600060208201676d61782074696d6560c01b81529150614fc3565b60208082528101610760816159ea565b6008815260006020820167696e61637469766560c01b81529150614fc3565b6020808252810161076081615a19565b60078152600060208201666e6f206c6f636b60c81b81529150614fc3565b6020808252810161076081615a48565b60098152600060208201684e6f2053686172657360b81b81529150614fc3565b6020808252810161076081615a76565b60005b83811015615ac1578181015183820152602001615aa9565b50506000910152565b6000615ad4825190565b615ae2818560208601615aa6565b9290920192915050565b76020b1b1b2b9b9a1b7b73a3937b61d1030b1b1b7bab73a1604d1b81526017016000615b188285615aca565b7001034b99036b4b9b9b4b733903937b6329607d1b81526011019150613ec28284615aca565b6000615b48825190565b808452602084019350615b5f818560208601615aa6565b601f01601f19169290920192915050565b602080825281016120da8184615b3e565b602a81526000602082017f5361666545524332303a204552433230206f7065726174696f6e20646964206e8152691bdd081cdd58d8d9595960b21b602082015291506150b2565b6020808252810161076081615b81565b6040810161537582856147e4565b603681526000602082017f5361666545524332303a20617070726f76652066726f6d206e6f6e2d7a65726f81527520746f206e6f6e2d7a65726f20616c6c6f77616e636560501b602082015291506150b2565b6020808252810161076081615be6565b63ffffffff91821691908116908282039081111561076057610760615011565b60088152600060208201674e6f205374616b6560c01b81529150614fc3565b6020808252810161076081615c69565b6014815260006020820173696e73756666696369656e74207265776172647360601b81529150614fc3565b6020808252810161076081615c98565b600081610760565b60006107608254615cd3565b6000615cf1825490565b808452600083815260208082209501949081905b83811015614c6f57615d1682615cdb565b615d208882614c1d565b97505060019182019101615d05565b604080835260009083018183615d458382615ce7565b925050600184018583036020870152614dbb8382615ce7565b60408082528101615d6f8185615d2f565b90506120da60208301846149de565b60208082527f537472696e67733a20686578206c656e67746820696e73756666696369656e7491019081526000614fc3565b6020808252810161076081615d7e565b6001600160801b0391821691908116908282019081111561076057610760615011565b634e487b7160e01b600052603160045260246000fd5b601c81526000602082017f426f72696e674d6174683a2075696e74313238204f766572666c6f770000000081529150614fc3565b6020808252810161076081615df9565b601b81526000602082017f426f72696e674d6174683a2075696e743634204f766572666c6f77000000000081529150614fc3565b6020808252810161076081615e3d565b60006107606153476001600160401b03841681565b6147bf81615e81565b60808101615ead82876149de565b615eba60208301866149de565b615ec760408301856149de565b6135346060830184615e96565b602681526000602082017f416464726573733a20696e73756666696369656e742062616c616e636520666f8152651c8818d85b1b60d21b602082015291506150b2565b6020808252810161076081615ed4565b601d81526000602082017f416464726573733a2063616c6c20746f206e6f6e2d636f6e747261637400000081529150614fc3565b6020808252810161076081615f27565b60006120da8284615aca56fe930802d0eadfb856cb83e01d1c4daa3c89e9c6d9f74cfbe13124decf2b33128aa2646970667358221220dd1a9c9a90d1a45de253635749aa277e8c28e5f421df08f8f97f517469749d9164736f6c63430008100033",
  "immutableReferences": {},
  "source": "// SPDX-License-Identifier: AGPL 3.0\n// Copyright Fathom 2022\n\npragma solidity 0.8.16;\n\nimport \"./StakingHandler.sol\";\nimport \"./StakingGetters.sol\";\n\ncontract StakingPackage is StakingHandlers, StakingGetters {}\n",
  "sourcePath": "/Users/subiksinghshrestha/Documents/FATHOM/fathom-dao-smart-contracts/contracts/dao/staking/packages/StakingPackage.sol",
  "compiler": {
    "name": "solc",
    "version": "0.8.16+commit.07a7930e.Darwin.appleclang"
  },
  "schemaVersion": "3.4.10",
  "updatedAt": "2023-02-16T12:41:27.837Z",
  "devdoc": {
    "kind": "dev",
    "methods": {
      "adminPause(uint256)": {
        "details": "adminPause pauses this contract. Only pause role or default admin role can access this function.",
        "params": {
          "flags": "flags variable is used for pausing this contract."
        }
      },
      "emergencyUnlockAndWithdraw()": {
        "details": "Disregard rewards for emergency unlock and withdraw"
      },
      "getRoleAdmin(bytes32)": {
        "details": "Returns the admin role that controls `role`. See {grantRole} and {revokeRole}. To change a role's admin, use {_setRoleAdmin}."
      },
      "grantRole(bytes32,address)": {
        "details": "Grants `role` to `account`. If `account` had not been already granted `role`, emits a {RoleGranted} event. Requirements: - the caller must have ``role``'s admin role. May emit a {RoleGranted} event."
      },
      "hasRole(bytes32,address)": {
        "details": "Returns `true` if `account` has been granted `role`."
      },
      "initializeStaking(address,address,address,address,(uint32,uint32,uint32,uint32,uint32),(uint32,uint32),uint256,address,uint256)": {
        "details": "initialize the contract and deploys the first stream of rewardsinitializable only once due to stakingInitialised flag",
        "params": {
          "_admin": "the owner and manager of the main token stream",
          "_mainToken": "token contract address",
          "_vault": "The Vault address to store main token and rewards tokens",
          "_weight": "Weighting coefficient for shares and penalties"
        }
      },
      "proposeStream(address,address,uint256,uint256,uint256[],uint256[],uint256)": {
        "details": "An admin of the staking contract can whitelist (propose) a stream. Whitelisting of the stream provides the option for the stream owner (presumably the issuing party of a specific token) to deposit some ERC-20 tokens on the staking contract and potentially get in return some main tokens immediately. ",
        "params": {
          "maxDepositAmount": "The upper amount of the tokens that should be deposited by stream owner",
          "rewardToken": "the address of the ERC-20 tokens to be deposited in the stream",
          "scheduleRewards": "remaining rewards to be delivered at the beginning of each scheduled interval.  Last element is always zero. First value (in scheduleRewards) from array is supposed to be a total amount of rewards for stream.",
          "scheduleTimes": "timestamp denoting the start of each scheduled interval. Last element is the end of the stream.",
          "streamOwner": "only this account will be able to launch a stream",
          "tau": "the tau is (pending release period) for this stream (e.g one day)"
        }
      },
      "renounceRole(bytes32,address)": {
        "details": "Revokes `role` from the calling account. Roles are often managed via {grantRole} and {revokeRole}: this function's purpose is to provide a mechanism for accounts to lose their privileges if they are compromised (such as when a trusted device is misplaced). If the calling account had been revoked `role`, emits a {RoleRevoked} event. Requirements: - the caller must be `account`. May emit a {RoleRevoked} event."
      },
      "revokeRole(bytes32,address)": {
        "details": "Revokes `role` from `account`. If `account` had been granted `role`, emits a {RoleRevoked} event. Requirements: - the caller must have ``role``'s admin role. May emit a {RoleRevoked} event."
      },
      "supportsInterface(bytes4)": {
        "details": "See {IERC165-supportsInterface}."
      }
    },
    "version": 1
  },
  "userdoc": {
    "kind": "user",
    "methods": {
      "initializeStaking(address,address,address,address,(uint32,uint32,uint32,uint32,uint32),(uint32,uint32),uint256,address,uint256)": {
        "notice": "By calling this function, the deployer of this contract must make sure that the Rewards amount was deposited to the treasury contract before initializing of the default Stream"
      },
      "minLockPeriod()": {
        "notice": "Checks if the staking is initialized"
      },
      "proposeStream(address,address,uint256,uint256,uint256[],uint256[],uint256)": {
        "notice": "Manager of Vault must call"
      },
      "totalAmountOfStakedToken()": {
        "notice": "The below three are used for autocompounding feature and weighted shares"
      },
      "totalAmountOfVoteToken()": {
        "notice": "voteToken -> vote Token"
      },
      "weight()": {
        "notice": "Weighting coefficient for shares and penalties"
      }
    },
    "version": 1
  }
}