{
    "contractName": "StakingPackage",
    "abi": [
        {
            "inputs": [
                {
                    "internalType": "uint256",
                    "name": "_lockId",
                    "type": "uint256"
                },
                {
                    "internalType": "address",
                    "name": "_account",
                    "type": "address"
                }
            ],
            "name": "LockLengthExceeded",
            "type": "error"
        },
        {
            "inputs": [],
            "name": "NotPaused",
            "type": "error"
        },
        {
            "inputs": [
                {
                    "internalType": "address",
                    "name": "_vault",
                    "type": "address"
                }
            ],
            "name": "VaultNotMigrated",
            "type": "error"
        },
        {
            "inputs": [
                {
                    "internalType": "address",
                    "name": "_vault",
                    "type": "address"
                }
            ],
            "name": "VaultNotSupported",
            "type": "error"
        },
        {
            "inputs": [],
            "name": "ZeroAddress",
            "type": "error"
        },
        {
            "inputs": [
                {
                    "internalType": "uint256",
                    "name": "lockId",
                    "type": "uint256"
                }
            ],
            "name": "ZeroAmountOfLockedToken",
            "type": "error"
        },
        {
            "inputs": [],
            "name": "ZeroLockId",
            "type": "error"
        },
        {
            "inputs": [],
            "name": "ZeroTotalAmountOfStakedToken",
            "type": "error"
        },
        {
            "anonymous": false,
            "inputs": [
                {
                    "indexed": false,
                    "internalType": "uint8",
                    "name": "version",
                    "type": "uint8"
                }
            ],
            "name": "Initialized",
            "type": "event"
        },
        {
            "anonymous": false,
            "inputs": [
                {
                    "indexed": true,
                    "internalType": "address",
                    "name": "account",
                    "type": "address"
                },
                {
                    "indexed": false,
                    "internalType": "uint256",
                    "name": "amount",
                    "type": "uint256"
                },
                {
                    "indexed": true,
                    "internalType": "uint256",
                    "name": "lockId",
                    "type": "uint256"
                }
            ],
            "name": "PartialUnstaked",
            "type": "event"
        },
        {
            "anonymous": false,
            "inputs": [
                {
                    "indexed": true,
                    "internalType": "uint256",
                    "name": "streamId",
                    "type": "uint256"
                },
                {
                    "indexed": true,
                    "internalType": "address",
                    "name": "account",
                    "type": "address"
                },
                {
                    "indexed": false,
                    "internalType": "uint256",
                    "name": "pendings",
                    "type": "uint256"
                }
            ],
            "name": "Pending",
            "type": "event"
        },
        {
            "anonymous": false,
            "inputs": [
                {
                    "indexed": true,
                    "internalType": "uint256",
                    "name": "streamId",
                    "type": "uint256"
                },
                {
                    "indexed": true,
                    "internalType": "address",
                    "name": "user",
                    "type": "address"
                },
                {
                    "indexed": false,
                    "internalType": "uint256",
                    "name": "pendingAmount",
                    "type": "uint256"
                }
            ],
            "name": "Released",
            "type": "event"
        },
        {
            "anonymous": false,
            "inputs": [
                {
                    "indexed": true,
                    "internalType": "bytes32",
                    "name": "role",
                    "type": "bytes32"
                },
                {
                    "indexed": true,
                    "internalType": "bytes32",
                    "name": "previousAdminRole",
                    "type": "bytes32"
                },
                {
                    "indexed": true,
                    "internalType": "bytes32",
                    "name": "newAdminRole",
                    "type": "bytes32"
                }
            ],
            "name": "RoleAdminChanged",
            "type": "event"
        },
        {
            "anonymous": false,
            "inputs": [
                {
                    "indexed": true,
                    "internalType": "bytes32",
                    "name": "role",
                    "type": "bytes32"
                },
                {
                    "indexed": true,
                    "internalType": "address",
                    "name": "account",
                    "type": "address"
                },
                {
                    "indexed": true,
                    "internalType": "address",
                    "name": "sender",
                    "type": "address"
                }
            ],
            "name": "RoleGranted",
            "type": "event"
        },
        {
            "anonymous": false,
            "inputs": [
                {
                    "indexed": true,
                    "internalType": "bytes32",
                    "name": "role",
                    "type": "bytes32"
                },
                {
                    "indexed": true,
                    "internalType": "address",
                    "name": "account",
                    "type": "address"
                },
                {
                    "indexed": true,
                    "internalType": "address",
                    "name": "sender",
                    "type": "address"
                }
            ],
            "name": "RoleRevoked",
            "type": "event"
        },
        {
            "anonymous": false,
            "inputs": [
                {
                    "indexed": true,
                    "internalType": "address",
                    "name": "account",
                    "type": "address"
                },
                {
                    "indexed": false,
                    "internalType": "uint256",
                    "name": "amount",
                    "type": "uint256"
                },
                {
                    "indexed": false,
                    "internalType": "uint256",
                    "name": "streamShares",
                    "type": "uint256"
                },
                {
                    "indexed": false,
                    "internalType": "uint256",
                    "name": "nVoteToken",
                    "type": "uint256"
                },
                {
                    "indexed": true,
                    "internalType": "uint256",
                    "name": "lockId",
                    "type": "uint256"
                },
                {
                    "indexed": false,
                    "internalType": "uint256",
                    "name": "end",
                    "type": "uint256"
                }
            ],
            "name": "Staked",
            "type": "event"
        },
        {
            "anonymous": false,
            "inputs": [
                {
                    "indexed": true,
                    "internalType": "uint256",
                    "name": "streamId",
                    "type": "uint256"
                },
                {
                    "indexed": true,
                    "internalType": "address",
                    "name": "owner",
                    "type": "address"
                },
                {
                    "indexed": true,
                    "internalType": "address",
                    "name": "token",
                    "type": "address"
                },
                {
                    "indexed": false,
                    "internalType": "uint256",
                    "name": "tau",
                    "type": "uint256"
                }
            ],
            "name": "StreamCreated",
            "type": "event"
        },
        {
            "anonymous": false,
            "inputs": [
                {
                    "indexed": true,
                    "internalType": "uint256",
                    "name": "streamId",
                    "type": "uint256"
                },
                {
                    "indexed": true,
                    "internalType": "address",
                    "name": "owner",
                    "type": "address"
                },
                {
                    "indexed": true,
                    "internalType": "address",
                    "name": "token",
                    "type": "address"
                }
            ],
            "name": "StreamProposalCancelled",
            "type": "event"
        },
        {
            "anonymous": false,
            "inputs": [
                {
                    "indexed": true,
                    "internalType": "uint256",
                    "name": "streamId",
                    "type": "uint256"
                },
                {
                    "indexed": true,
                    "internalType": "address",
                    "name": "streamOwner",
                    "type": "address"
                },
                {
                    "indexed": true,
                    "internalType": "address",
                    "name": "rewardToken",
                    "type": "address"
                },
                {
                    "indexed": false,
                    "internalType": "uint256",
                    "name": "maxDepositAmount",
                    "type": "uint256"
                }
            ],
            "name": "StreamProposed",
            "type": "event"
        },
        {
            "anonymous": false,
            "inputs": [
                {
                    "indexed": true,
                    "internalType": "uint256",
                    "name": "streamId",
                    "type": "uint256"
                },
                {
                    "indexed": true,
                    "internalType": "address",
                    "name": "owner",
                    "type": "address"
                },
                {
                    "indexed": true,
                    "internalType": "address",
                    "name": "token",
                    "type": "address"
                }
            ],
            "name": "StreamRemoved",
            "type": "event"
        },
        {
            "anonymous": false,
            "inputs": [
                {
                    "indexed": true,
                    "internalType": "address",
                    "name": "account",
                    "type": "address"
                },
                {
                    "indexed": false,
                    "internalType": "uint256",
                    "name": "amount",
                    "type": "uint256"
                },
                {
                    "indexed": true,
                    "internalType": "uint256",
                    "name": "lockId",
                    "type": "uint256"
                }
            ],
            "name": "Unstaked",
            "type": "event"
        },
        {
            "inputs": [],
            "name": "DEFAULT_ADMIN_ROLE",
            "outputs": [
                {
                    "internalType": "bytes32",
                    "name": "",
                    "type": "bytes32"
                }
            ],
            "stateMutability": "view",
            "type": "function"
        },
        {
            "inputs": [],
            "name": "PAUSE_ROLE",
            "outputs": [
                {
                    "internalType": "bytes32",
                    "name": "",
                    "type": "bytes32"
                }
            ],
            "stateMutability": "view",
            "type": "function"
        },
        {
            "inputs": [],
            "name": "STREAM_MANAGER_ROLE",
            "outputs": [
                {
                    "internalType": "bytes32",
                    "name": "",
                    "type": "bytes32"
                }
            ],
            "stateMutability": "view",
            "type": "function"
        },
        {
            "inputs": [],
            "name": "TREASURY_ROLE",
            "outputs": [
                {
                    "internalType": "bytes32",
                    "name": "",
                    "type": "bytes32"
                }
            ],
            "stateMutability": "view",
            "type": "function"
        },
        {
            "inputs": [
                {
                    "internalType": "uint256",
                    "name": "flags",
                    "type": "uint256"
                }
            ],
            "name": "adminPause",
            "outputs": [],
            "stateMutability": "nonpayable",
            "type": "function"
        },
        {
            "inputs": [
                {
                    "internalType": "uint256",
                    "name": "streamId",
                    "type": "uint256"
                }
            ],
            "name": "cancelStreamProposal",
            "outputs": [],
            "stateMutability": "nonpayable",
            "type": "function"
        },
        {
            "inputs": [
                {
                    "internalType": "uint256",
                    "name": "streamId",
                    "type": "uint256"
                }
            ],
            "name": "claimAllLockRewardsForStream",
            "outputs": [],
            "stateMutability": "nonpayable",
            "type": "function"
        },
        {
            "inputs": [
                {
                    "internalType": "uint256",
                    "name": "lockId",
                    "type": "uint256"
                }
            ],
            "name": "claimAllStreamRewardsForLock",
            "outputs": [],
            "stateMutability": "nonpayable",
            "type": "function"
        },
        {
            "inputs": [],
            "name": "councilsInitialized",
            "outputs": [
                {
                    "internalType": "bool",
                    "name": "",
                    "type": "bool"
                }
            ],
            "stateMutability": "view",
            "type": "function"
        },
        {
            "inputs": [
                {
                    "internalType": "uint256",
                    "name": "amount",
                    "type": "uint256"
                },
                {
                    "internalType": "uint256",
                    "name": "lockPeriod",
                    "type": "uint256"
                }
            ],
            "name": "createLock",
            "outputs": [],
            "stateMutability": "nonpayable",
            "type": "function"
        },
        {
            "inputs": [
                {
                    "components": [
                        {
                            "internalType": "uint256",
                            "name": "amount",
                            "type": "uint256"
                        },
                        {
                            "internalType": "uint256",
                            "name": "lockPeriod",
                            "type": "uint256"
                        },
                        {
                            "internalType": "address",
                            "name": "account",
                            "type": "address"
                        }
                    ],
                    "internalType": "struct CreateLockParams[]",
                    "name": "lockParams",
                    "type": "tuple[]"
                }
            ],
            "name": "createLocksForCouncils",
            "outputs": [],
            "stateMutability": "nonpayable",
            "type": "function"
        },
        {
            "inputs": [
                {
                    "internalType": "uint256",
                    "name": "streamId",
                    "type": "uint256"
                },
                {
                    "internalType": "uint256",
                    "name": "rewardTokenAmount",
                    "type": "uint256"
                }
            ],
            "name": "createStream",
            "outputs": [],
            "stateMutability": "nonpayable",
            "type": "function"
        },
        {
            "inputs": [
                {
                    "internalType": "uint256",
                    "name": "lockId",
                    "type": "uint256"
                }
            ],
            "name": "earlyUnlock",
            "outputs": [],
            "stateMutability": "nonpayable",
            "type": "function"
        },
        {
            "inputs": [],
            "name": "emergencyUnlockAndWithdraw",
            "outputs": [],
            "stateMutability": "nonpayable",
            "type": "function"
        },
        {
            "inputs": [
                {
                    "internalType": "address",
                    "name": "account",
                    "type": "address"
                }
            ],
            "name": "getAllLocks",
            "outputs": [
                {
                    "components": [
                        {
                            "internalType": "uint128",
                            "name": "amountOfToken",
                            "type": "uint128"
                        },
                        {
                            "internalType": "uint128",
                            "name": "amountOfVoteToken",
                            "type": "uint128"
                        },
                        {
                            "internalType": "uint128",
                            "name": "positionStreamShares",
                            "type": "uint128"
                        },
                        {
                            "internalType": "uint64",
                            "name": "end",
                            "type": "uint64"
                        },
                        {
                            "internalType": "address",
                            "name": "owner",
                            "type": "address"
                        }
                    ],
                    "internalType": "struct LockedBalance[]",
                    "name": "",
                    "type": "tuple[]"
                }
            ],
            "stateMutability": "view",
            "type": "function"
        },
        {
            "inputs": [
                {
                    "internalType": "bytes32",
                    "name": "role",
                    "type": "bytes32"
                }
            ],
            "name": "getRoleAdmin",
            "outputs": [
                {
                    "internalType": "bytes32",
                    "name": "",
                    "type": "bytes32"
                }
            ],
            "stateMutability": "view",
            "type": "function"
        },
        {
            "inputs": [
                {
                    "internalType": "uint256",
                    "name": "streamId",
                    "type": "uint256"
                },
                {
                    "internalType": "address",
                    "name": "account",
                    "type": "address"
                },
                {
                    "internalType": "uint256",
                    "name": "lockId",
                    "type": "uint256"
                }
            ],
            "name": "getStreamClaimableAmountPerLock",
            "outputs": [
                {
                    "internalType": "uint256",
                    "name": "",
                    "type": "uint256"
                }
            ],
            "stateMutability": "view",
            "type": "function"
        },
        {
            "inputs": [
                {
                    "internalType": "uint256",
                    "name": "streamId",
                    "type": "uint256"
                }
            ],
            "name": "getStreamSchedule",
            "outputs": [
                {
                    "internalType": "uint256[]",
                    "name": "scheduleTimes",
                    "type": "uint256[]"
                },
                {
                    "internalType": "uint256[]",
                    "name": "scheduleRewards",
                    "type": "uint256[]"
                }
            ],
            "stateMutability": "view",
            "type": "function"
        },
        {
            "inputs": [
                {
                    "internalType": "address",
                    "name": "account",
                    "type": "address"
                },
                {
                    "internalType": "uint256",
                    "name": "streamId",
                    "type": "uint256"
                }
            ],
            "name": "getUsersPendingRewards",
            "outputs": [
                {
                    "internalType": "uint256",
                    "name": "",
                    "type": "uint256"
                }
            ],
            "stateMutability": "view",
            "type": "function"
        },
        {
            "inputs": [
                {
                    "internalType": "bytes32",
                    "name": "role",
                    "type": "bytes32"
                },
                {
                    "internalType": "address",
                    "name": "account",
                    "type": "address"
                }
            ],
            "name": "grantRole",
            "outputs": [],
            "stateMutability": "nonpayable",
            "type": "function"
        },
        {
            "inputs": [
                {
                    "internalType": "bytes32",
                    "name": "role",
                    "type": "bytes32"
                },
                {
                    "internalType": "address",
                    "name": "account",
                    "type": "address"
                }
            ],
            "name": "hasRole",
            "outputs": [
                {
                    "internalType": "bool",
                    "name": "",
                    "type": "bool"
                }
            ],
            "stateMutability": "view",
            "type": "function"
        },
        {
            "inputs": [
                {
                    "internalType": "address",
                    "name": "_owner",
                    "type": "address"
                },
                {
                    "internalType": "uint256[]",
                    "name": "scheduleTimes",
                    "type": "uint256[]"
                },
                {
                    "internalType": "uint256[]",
                    "name": "scheduleRewards",
                    "type": "uint256[]"
                },
                {
                    "internalType": "uint256",
                    "name": "tau",
                    "type": "uint256"
                }
            ],
            "name": "initializeMainStream",
            "outputs": [],
            "stateMutability": "nonpayable",
            "type": "function"
        },
        {
            "inputs": [
                {
                    "internalType": "address",
                    "name": "_admin",
                    "type": "address"
                },
                {
                    "internalType": "address",
                    "name": "_vault",
                    "type": "address"
                },
                {
                    "internalType": "address",
                    "name": "_mainToken",
                    "type": "address"
                },
                {
                    "internalType": "address",
                    "name": "_voteToken",
                    "type": "address"
                },
                {
                    "components": [
                        {
                            "internalType": "uint32",
                            "name": "maxWeightShares",
                            "type": "uint32"
                        },
                        {
                            "internalType": "uint32",
                            "name": "minWeightShares",
                            "type": "uint32"
                        },
                        {
                            "internalType": "uint32",
                            "name": "maxWeightPenalty",
                            "type": "uint32"
                        },
                        {
                            "internalType": "uint32",
                            "name": "minWeightPenalty",
                            "type": "uint32"
                        },
                        {
                            "internalType": "uint32",
                            "name": "penaltyWeightMultiplier",
                            "type": "uint32"
                        }
                    ],
                    "internalType": "struct Weight",
                    "name": "_weight",
                    "type": "tuple"
                },
                {
                    "components": [
                        {
                            "internalType": "uint32",
                            "name": "voteShareCoef",
                            "type": "uint32"
                        },
                        {
                            "internalType": "uint32",
                            "name": "voteLockCoef",
                            "type": "uint32"
                        }
                    ],
                    "internalType": "struct VoteCoefficient",
                    "name": "voteCoef",
                    "type": "tuple"
                },
                {
                    "internalType": "uint256",
                    "name": "_maxLocks",
                    "type": "uint256"
                },
                {
                    "internalType": "address",
                    "name": "_rewardsContract",
                    "type": "address"
                }
            ],
            "name": "initializeStaking",
            "outputs": [],
            "stateMutability": "nonpayable",
            "type": "function"
        },
        {
            "inputs": [],
            "name": "mainStreamInitialized",
            "outputs": [
                {
                    "internalType": "bool",
                    "name": "",
                    "type": "bool"
                }
            ],
            "stateMutability": "view",
            "type": "function"
        },
        {
            "inputs": [],
            "name": "mainToken",
            "outputs": [
                {
                    "internalType": "address",
                    "name": "",
                    "type": "address"
                }
            ],
            "stateMutability": "view",
            "type": "function"
        },
        {
            "inputs": [],
            "name": "maxLockPeriod",
            "outputs": [
                {
                    "internalType": "uint256",
                    "name": "",
                    "type": "uint256"
                }
            ],
            "stateMutability": "view",
            "type": "function"
        },
        {
            "inputs": [],
            "name": "maxLockPositions",
            "outputs": [
                {
                    "internalType": "uint256",
                    "name": "",
                    "type": "uint256"
                }
            ],
            "stateMutability": "view",
            "type": "function"
        },
        {
            "inputs": [],
            "name": "paused",
            "outputs": [
                {
                    "internalType": "uint256",
                    "name": "",
                    "type": "uint256"
                }
            ],
            "stateMutability": "view",
            "type": "function"
        },
        {
            "inputs": [
                {
                    "internalType": "address",
                    "name": "",
                    "type": "address"
                },
                {
                    "internalType": "uint256",
                    "name": "",
                    "type": "uint256"
                }
            ],
            "name": "prohibitedEarlyWithdraw",
            "outputs": [
                {
                    "internalType": "bool",
                    "name": "",
                    "type": "bool"
                }
            ],
            "stateMutability": "view",
            "type": "function"
        },
        {
            "inputs": [
                {
                    "internalType": "address",
                    "name": "streamOwner",
                    "type": "address"
                },
                {
                    "internalType": "address",
                    "name": "rewardToken",
                    "type": "address"
                },
                {
                    "internalType": "uint256",
                    "name": "maxDepositAmount",
                    "type": "uint256"
                },
                {
                    "internalType": "uint256",
                    "name": "minDepositAmount",
                    "type": "uint256"
                },
                {
                    "internalType": "uint256[]",
                    "name": "scheduleTimes",
                    "type": "uint256[]"
                },
                {
                    "internalType": "uint256[]",
                    "name": "scheduleRewards",
                    "type": "uint256[]"
                },
                {
                    "internalType": "uint256",
                    "name": "tau",
                    "type": "uint256"
                }
            ],
            "name": "proposeStream",
            "outputs": [],
            "stateMutability": "nonpayable",
            "type": "function"
        },
        {
            "inputs": [
                {
                    "internalType": "uint256",
                    "name": "slot",
                    "type": "uint256"
                }
            ],
            "name": "readBySlot",
            "outputs": [
                {
                    "internalType": "bytes32",
                    "name": "value",
                    "type": "bytes32"
                }
            ],
            "stateMutability": "view",
            "type": "function"
        },
        {
            "inputs": [
                {
                    "internalType": "uint256",
                    "name": "streamId",
                    "type": "uint256"
                },
                {
                    "internalType": "address",
                    "name": "streamFundReceiver",
                    "type": "address"
                }
            ],
            "name": "removeStream",
            "outputs": [],
            "stateMutability": "nonpayable",
            "type": "function"
        },
        {
            "inputs": [
                {
                    "internalType": "bytes32",
                    "name": "role",
                    "type": "bytes32"
                },
                {
                    "internalType": "address",
                    "name": "account",
                    "type": "address"
                }
            ],
            "name": "renounceRole",
            "outputs": [],
            "stateMutability": "nonpayable",
            "type": "function"
        },
        {
            "inputs": [
                {
                    "internalType": "bytes32",
                    "name": "role",
                    "type": "bytes32"
                },
                {
                    "internalType": "address",
                    "name": "account",
                    "type": "address"
                }
            ],
            "name": "revokeRole",
            "outputs": [],
            "stateMutability": "nonpayable",
            "type": "function"
        },
        {
            "inputs": [],
            "name": "rewardsCalculator",
            "outputs": [
                {
                    "internalType": "address",
                    "name": "",
                    "type": "address"
                }
            ],
            "stateMutability": "view",
            "type": "function"
        },
        {
            "inputs": [
                {
                    "internalType": "uint256",
                    "name": "",
                    "type": "uint256"
                }
            ],
            "name": "streamTotalUserPendings",
            "outputs": [
                {
                    "internalType": "uint256",
                    "name": "",
                    "type": "uint256"
                }
            ],
            "stateMutability": "view",
            "type": "function"
        },
        {
            "inputs": [
                {
                    "internalType": "bytes4",
                    "name": "interfaceId",
                    "type": "bytes4"
                }
            ],
            "name": "supportsInterface",
            "outputs": [
                {
                    "internalType": "bool",
                    "name": "",
                    "type": "bool"
                }
            ],
            "stateMutability": "view",
            "type": "function"
        },
        {
            "inputs": [],
            "name": "totalAmountOfStakedToken",
            "outputs": [
                {
                    "internalType": "uint256",
                    "name": "",
                    "type": "uint256"
                }
            ],
            "stateMutability": "view",
            "type": "function"
        },
        {
            "inputs": [],
            "name": "totalAmountOfVoteToken",
            "outputs": [
                {
                    "internalType": "uint256",
                    "name": "",
                    "type": "uint256"
                }
            ],
            "stateMutability": "view",
            "type": "function"
        },
        {
            "inputs": [],
            "name": "totalPenaltyBalance",
            "outputs": [
                {
                    "internalType": "uint256",
                    "name": "",
                    "type": "uint256"
                }
            ],
            "stateMutability": "view",
            "type": "function"
        },
        {
            "inputs": [],
            "name": "totalStreamShares",
            "outputs": [
                {
                    "internalType": "uint256",
                    "name": "",
                    "type": "uint256"
                }
            ],
            "stateMutability": "view",
            "type": "function"
        },
        {
            "inputs": [
                {
                    "internalType": "uint256",
                    "name": "lockId",
                    "type": "uint256"
                }
            ],
            "name": "unlock",
            "outputs": [],
            "stateMutability": "nonpayable",
            "type": "function"
        },
        {
            "inputs": [
                {
                    "internalType": "uint256",
                    "name": "lockId",
                    "type": "uint256"
                },
                {
                    "internalType": "uint256",
                    "name": "amount",
                    "type": "uint256"
                }
            ],
            "name": "unlockPartially",
            "outputs": [],
            "stateMutability": "nonpayable",
            "type": "function"
        },
        {
            "inputs": [
                {
                    "internalType": "address",
                    "name": "_vault",
                    "type": "address"
                }
            ],
            "name": "updateVault",
            "outputs": [],
            "stateMutability": "nonpayable",
            "type": "function"
        },
        {
            "inputs": [
                {
                    "internalType": "address",
                    "name": "",
                    "type": "address"
                }
            ],
            "name": "users",
            "outputs": [
                {
                    "internalType": "uint256",
                    "name": "voteTokenBalance",
                    "type": "uint256"
                }
            ],
            "stateMutability": "view",
            "type": "function"
        },
        {
            "inputs": [],
            "name": "vault",
            "outputs": [
                {
                    "internalType": "address",
                    "name": "",
                    "type": "address"
                }
            ],
            "stateMutability": "view",
            "type": "function"
        },
        {
            "inputs": [],
            "name": "voteToken",
            "outputs": [
                {
                    "internalType": "address",
                    "name": "",
                    "type": "address"
                }
            ],
            "stateMutability": "view",
            "type": "function"
        },
        {
            "inputs": [],
            "name": "withdrawAllStreams",
            "outputs": [],
            "stateMutability": "nonpayable",
            "type": "function"
        },
        {
            "inputs": [
                {
                    "internalType": "address",
                    "name": "penaltyReceiver",
                    "type": "address"
                }
            ],
            "name": "withdrawPenalty",
            "outputs": [],
            "stateMutability": "nonpayable",
            "type": "function"
        },
        {
            "inputs": [
                {
                    "internalType": "uint256",
                    "name": "streamId",
                    "type": "uint256"
                }
            ],
            "name": "withdrawStream",
            "outputs": [],
            "stateMutability": "nonpayable",
            "type": "function"
        }
    ],
    "bytecode": "0x60806040523480156200001157600080fd5b506200001c62000022565b62000112565b601354610100900460ff1615620000565760405162461bcd60e51b81526004016200004d90620000b0565b60405180910390fd5b60135460ff9081161015620000ae576013805460ff191660ff9081179091556040517f7f26b83ff96e1f2b6a682f133852f6798a09c465da95921460cefb384740249891620000a59162000102565b60405180910390a15b565b60208082528101620000fc81602781527f496e697469616c697a61626c653a20636f6e747261637420697320696e697469602082015266616c697a696e6760c81b604082015260600190565b92915050565b60ff8216815260208101620000fc565b615fc580620001226000396000f3fe608060405234801561001057600080fd5b50600436106102d65760003560e01c80638ca6ce1111610182578063b52c05fe116100e9578063ddcf3e29116100a2578063f1807b701161007c578063f1807b70146106d6578063f6040373146106de578063fbfa77cf146106e7578063fe33e7f4146106fa57600080fd5b8063ddcf3e29146106a8578063e7563f3f146106bb578063eb6a9717146106ce57600080fd5b8063b52c05fe1461062d578063bd5cf8ff14610640578063c195f88c14610649578063cedb66681461065b578063d11a57ec1461066e578063d547741f1461069557600080fd5b8063a31328801161013b578063a31328801461059e578063a87430ba146105b1578063a8cbd3c7146105d1578063a8d85f70146105f1578063b0abc98114610611578063b224a27b1461061a57600080fd5b80638ca6ce11146105105780638d40bd03146105235780639040332214610536578063911328121461054957806391d1485414610583578063a217fddf1461059657600080fd5b80633ba31abf116102415780635f7461d6116101fa5780636d878d10116101d45780636d878d10146104a55780636db8e53d146104b857806370bc770c146104c15780637c9b8f0c146104e257600080fd5b80635f7461d61461046b5780636198e3391461047e578063655af3011461049157600080fd5b80633ba31abf1461040b5780633ea005c81461041e5780633fc15f15146104335780634b1d29b41461044657806355021b3a1461044f5780635c975abb1461046257600080fd5b80632f2ff15d116102935780632f2ff15d1461038f57806336085c51146103a257806336568abe146103b5578063382a7193146103c8578063389ed267146103db5780633a3f15111461040257600080fd5b806301ffc9a7146102db578063160d66ae146103045780631d9755cb14610324578063248a9ca3146103395780632692c59f146103695780632b6a72211461037c575b600080fd5b6102ee6102e936600461475f565b61070e565b6040516102fb919061478a565b60405180910390f35b600b54610317906001600160a01b031681565b6040516102fb91906147b2565b6103376103323660046148ea565b610745565b005b61035c610347366004614982565b60009081526078602052604090206001015490565b6040516102fb91906149a9565b610337610377366004614982565b610ac7565b61033761038a3660046149b7565b610afe565b61033761039d3660046149d8565b610b8f565b6103376103b0366004614982565b610bb4565b6103376103c33660046149d8565b610cba565b6103376103d6366004614982565b610cec565b61035c7f139c2898040ef16910dc9f44dc697df79363da767d8bc92f2e310312b816e46d81565b61035c60015481565b6103376104193660046149d8565b610dfb565b61035c600080516020615f7083398151915281565b600a54610317906001600160a01b031681565b61035c60005481565b61033761045d366004614a15565b61102f565b61035c60aa5481565b610337610479366004614982565b6112c9565b61033761048c366004614982565b611366565b600d546102ee90600160a81b900460ff1681565b600d54610317906001600160a01b031681565b61035c60055481565b6104d46104cf366004614982565b611468565b6040516102fb929190614b45565b6102ee6104f0366004614b6a565b600260209081526000928352604080842090915290825290205460ff1681565b61033761051e366004614b9d565b611566565b610337610531366004614b9d565b611669565b610337610544366004614982565b6118bc565b61035c610557366004614b6a565b6001600160a01b03919091166000908152600f6020908152604080832093835260019093019052205490565b6102ee6105913660046149d8565b61198d565b61035c600081565b6103376105ac366004614c10565b6119b8565b61035c6105bf3660046149b7565b600f6020526000908152604090205481565b61035c6105df366004614982565b60126020526000908152604090205481565b6106046105ff3660046149b7565b611ae0565b6040516102fb9190614d24565b61035c60045481565b610337610628366004614d65565b611ba3565b61033761063b366004614b9d565b611da5565b61035c60065481565b61035c610657366004614982565b5490565b610337610669366004614982565b611de7565b61035c7fe1dcbdb91df27212a29bc27177c840cf2f819ecf2187432e1fac86c2dd5dfca981565b6103376106a33660046149d8565b611e30565b61035c6106b6366004614e1b565b611e55565b6103376106c93660046149b7565b611fb8565b610337612164565b610337612252565b61035c60075481565b600c54610317906001600160a01b031681565b600d546102ee90600160a01b900460ff1681565b60006001600160e01b03198216637965db0b60e01b148061073f57506301ffc9a760e01b6001600160e01b03198316145b92915050565b60006107508161231a565b600d54600160a81b900460ff16156107835760405162461bcd60e51b815260040161077a90614e8e565b60405180910390fd5b6107ba33308560008151811061079b5761079b614e9e565b6020908102919091010151600a546001600160a01b0316929190612324565b61081285600a60009054906101000a90046001600160a01b0316856000815181106107e7576107e7614e9e565b60200260200101518660008151811061080257610802614e9e565b602002602001015188888861237c565b60408051808201825285815260208082018690528251610160810184526001600160a01b03808a1680835292820192909252600a549091169281019290925260009160109060608101600281526020018760008151811061087557610875614e9e565b6020908102919091018101518252600082820181905260408084018290526060808501839052608085018b905260a0850183905260c0909401879052855460018082018855968352918390208551600b9093020180546001600160a01b03199081166001600160a01b0394851617825593860151968101805485169784169790971790965584015160028087018054948516929093169182178355938501519495949391926001600160a81b0319161790600160a01b90849081111561093d5761093d614eb4565b02179055506080820151600382015560a0820151600482015560c0820151600582015560e082015160068201556101008201516007820155610120820151600882015561014082015180518051600984019161099e918391602001906146e6565b5060208281015180516109b792600185019201906146e6565b50505050506109c660006123f1565b600d805460ff60a81b1916600160a81b1790558451610a0c9086906000906109f0576109f0614e9e565b6020908102919091010151600a546001600160a01b031661242a565b600a5485516001600160a01b039182169189169084907f16284487ea0f1368a3aac8128c3dd7d8e577839303a834c010386a8aea226570908990600090610a5557610a55614e9e565b6020026020010151604051610a6a91906149a9565b60405180910390a4600a546040516001600160a01b039182169189169084907f4396d7c3edc1447dac8dd2b7143af95840c926a210524a0d3198012c7fdf37c790610ab69089906149a9565b60405180910390a450505050505050565b7f139c2898040ef16910dc9f44dc697df79363da767d8bc92f2e310312b816e46d610af18161231a565b610afa826123f1565b5050565b60018060aa541660001480610b195750610b1960003361198d565b610b355760405162461bcd60e51b815260040161077a90614ef0565b7fe1dcbdb91df27212a29bc27177c840cf2f819ecf2187432e1fac86c2dd5dfca9610b5f8161231a565b600060075411610b815760405162461bcd60e51b815260040161077a90614f21565b610b8a836124c7565b505050565b600082815260786020526040902060010154610baa8161231a565b610b8a8383612509565b60018060aa541660001480610bcf5750610bcf60003361198d565b610beb5760405162461bcd60e51b815260040161077a90614ef0565b610bf48261258f565b33600090815260026020908152604080832085845290915290205460ff1615610c2f5760405162461bcd60e51b815260040161077a90614f58565b336000908152601160205260408120610c49600185614f7e565b81548110610c5957610c59614e9e565b90600052602060002090600302019050428160010160109054906101000a90046001600160401b03166001600160401b031611610ca85760405162461bcd60e51b815260040161077a90614fb1565b610cb0612678565b610b8a833361272e565b6001600160a01b0381163314610ce25760405162461bcd60e51b815260040161077a90615010565b610afa828261286d565b60018060aa541660001480610d075750610d0760003361198d565b610d235760405162461bcd60e51b815260040161077a90614ef0565b336000908152600f6020908152604080832085845260018101909252822054909103610d615760405162461bcd60e51b815260040161077a90615042565b60008381526002820160205260409020544211610d905760405162461bcd60e51b815260040161077a90615075565b600260108481548110610da557610da5614e9e565b90600052602060002090600b020160020160149054906101000a900460ff166002811115610dd557610dd5614eb4565b14610df25760405162461bcd60e51b815260040161077a906150ab565b610b8a836128d4565b600080516020615f70833981519152610e138161231a565b82600003610e335760405162461bcd60e51b815260040161077a906150da565b60008381526012602052604090205415610e5f5760405162461bcd60e51b815260040161077a9061510d565b600060108481548110610e7457610e74614e9e565b60009182526020909120600b90910201905060028082810154600160a01b900460ff1690811115610ea757610ea7614eb4565b14610ec45760405162461bcd60e51b815260040161077a9061513d565b60028101805460ff60a01b1916905560048101546003820154600091610ee991614f7e565b6002830154600c546040516370a0823160e01b81529293506000926001600160a01b03928316926370a0823192610f25929116906004016147b2565b602060405180830381865afa158015610f42573d6000803e3d6000fd5b505050506040513d601f19601f82011682018060405250810190610f669190615158565b600c5460028501549192506001600160a01b039081169163da0c1a889188911684861115610f945784610f96565b855b6040518463ffffffff1660e01b8152600401610fb493929190615179565b600060405180830381600087803b158015610fce57600080fd5b505af1158015610fe2573d6000803e3d6000fd5b505050600284015484546040516001600160a01b03928316935091169088907f661da9ced4b5d786f5b5f451a5f68af24721a01b0a65bb47fa4fdf70b80b887c90600090a4505050505050565b600080516020615f708339815191526110478161231a565b6110568888888888888861237c565b600c54604051630480051d60e31b81526001600160a01b039091169063240028e890611086908a906004016147b2565b602060405180830381865afa1580156110a3573d6000803e3d6000fd5b505050506040513d601f19601f820116820180604052508101906110c791906151b4565b6110e35760405162461bcd60e51b815260040161077a906151f2565b6040805180820182528581526020808201869052601080548451610160810186526001600160a01b03808f1682523394820194909452928c169483019490945291929190606081016001815260006020808301829052604080840183905260608085018f9052608085018e905260a085018b905260c0850184905260e0909401889052855460018082018855968452928290208551600b9094020180546001600160a01b03199081166001600160a01b039586161782559286015196810180548416978516979097179096558401516002808701805493841692909416918217845593850151949594936001600160a81b03199092161790600160a01b9084908111156111f2576111f2614eb4565b02179055506080820151600382015560a0820151600482015560c0820151600582015560e0820151600682015561010082015160078201556101208201516008820155610140820151805180516009840191611253918391602001906146e6565b50602082810151805161126c92600185019201906146e6565b5050505050886001600160a01b03168a6001600160a01b0316827f16284487ea0f1368a3aac8128c3dd7d8e577839303a834c010386a8aea2265708b6040516112b591906149a9565b60405180910390a450505050505050505050565b60018060aa5416600014806112e457506112e460003361198d565b6113005760405162461bcd60e51b815260040161077a90614ef0565b336000908152601160205260409020548211156113345781336040516323636ebb60e21b815260040161077a929190615202565b816000036113545760405162461bcd60e51b815260040161077a9061523c565b61135c612678565b610afa33836129f5565b60018060aa541660001480611381575061138160003361198d565b61139d5760405162461bcd60e51b815260040161077a90614ef0565b6113a68261258f565b3360009081526011602052604081206113c0600185614f7e565b815481106113d0576113d0614e9e565b90600052602060002090600302019050428160010160109054906101000a90046001600160401b03166001600160401b031611156114205760405162461bcd60e51b815260040161077a9061526d565b611428612678565b80546001600160801b031661143f81808633612a6a565b505033600090815260026020908152604080832094835293905291909120805460ff1916905550565b6060806010838154811061147e5761147e614e9e565b90600052602060002090600b0201600901600001601084815481106114a5576114a5614e9e565b90600052602060002090600b02016009016001018180548060200260200160405190810160405280929190818152602001828054801561150457602002820191906000526020600020905b8154815260200190600101908083116114f0575b505050505091508080548060200260200160405190810160405280929190818152602001828054801561155657602002820191906000526020600020905b815481526020019060010190808311611542575b5050505050905091509150915091565b60018060aa541660001480611581575061158160003361198d565b61159d5760405162461bcd60e51b815260040161077a90614ef0565b6115a68361258f565b3360009081526011602052604081206115c0600186614f7e565b815481106115d0576115d0614e9e565b90600052602060002090600302019050428160010160109054906101000a90046001600160401b03166001600160401b031611156116205760405162461bcd60e51b815260040161077a9061526d565b611628612678565b80546001600160801b031661163f81858733612a6a565b505033600090815260026020908152604080832095835294905292909220805460ff191690555050565b60018060aa541660001480611684575061168460003361198d565b6116a05760405162461bcd60e51b815260040161077a90614ef0565b6000601084815481106116b5576116b5614e9e565b60009182526020909120600b9091020190506001600282810154600160a01b900460ff16908111156116e9576116e9614eb4565b146117065760405162461bcd60e51b815260040161077a9061529f565b428160090160000160008154811061172057611720614e9e565b906000526020600020015410156117495760405162461bcd60e51b815260040161077a906152d1565b80546001600160a01b031633146117725760405162461bcd60e51b815260040161077a90615301565b80600501548311156117965760405162461bcd60e51b815260040161077a90615332565b80600601548310156117ba5760405162461bcd60e51b815260040161077a90615362565b60028101546117d4906001600160a01b0316333086612324565b60028101805460ff60a01b1916600160a11b179055600381018390556005810154831015611806576118068484612c59565b6003810154600a8201805460009061182057611820614e9e565b9060005260206000200154146118485760405162461bcd60e51b815260040161077a90615392565b6002810154815460078301546040516001600160a01b03938416939092169187917f4396d7c3edc1447dac8dd2b7143af95840c926a210524a0d3198012c7fdf37c79161189591906149a9565b60405180910390a460028101546118b69084906001600160a01b031661242a565b50505050565b600080516020615f708339815191526118d48161231a565b6000601083815481106118e9576118e9614e9e565b60009182526020909120600b9091020190506001600282810154600160a01b900460ff169081111561191d5761191d614eb4565b1461193a5760405162461bcd60e51b815260040161077a9061529f565b60028101805460ff60a01b19811690915581546040516001600160a01b03928316929091169085907ffadbcbd495527ce5e10fd0cceba57d404a4625dd6ce0499c254ac523789ef3ad90600090a4505050565b60009182526078602090815260408084206001600160a01b0393909316845291905290205460ff1690565b60006119c38161231a565b600d54600160a01b900460ff16156119ed5760405162461bcd60e51b815260040161077a906153c0565b600d805460ff60a01b1916600160a01b17905560005b828110156118b6576000848483818110611a1f57611a1f614e9e565b9050606002016040016020810190611a3791906149b7565b6001600160a01b03811660009081526002602090815260408083206011909252822054929350600192909190611a6d90846153d0565b81526020810191909152604001600020805460ff1916911515919091179055611acd858584818110611aa157611aa1614e9e565b90506060020160000135868685818110611abd57611abd614e9e565b9050606002016020013583612d53565b5080611ad8816153e3565b915050611a03565b6001600160a01b0381166000908152601160209081526040808320805482518185028101850190935280835260609492939192909184015b82821015611b985760008481526020908190206040805160a0810182526003860290920180546001600160801b038082168552600160801b9182900481168587015260018084015491821694860194909452046001600160401b03166060840152600201546001600160a01b031660808301529083529092019101611b18565b505050509050919050565b601354610100900460ff1615808015611bc35750601354600160ff909116105b80611bdd5750303b158015611bdd575060135460ff166001145b611bf95760405162461bcd60e51b815260040161077a90615448565b6013805460ff191660011790558015611c1c576013805461ff0019166101001790555b600d80546001600160a01b0319166001600160a01b038416179055611c6d8787878b87611c4c60208b018b61546f565b63ffffffff16611c6260408c0160208d0161546f565b63ffffffff16612e11565b600c54604051630480051d60e31b81526001600160a01b039091169063240028e890611c9d908a906004016147b2565b602060405180830381865afa158015611cba573d6000803e3d6000fd5b505050506040513d601f19601f82011682018060405250810190611cde91906151b4565b611cfa5760405162461bcd60e51b815260040161077a906154ad565b611d0560018a612ff8565b611d1d600080516020615f708339815191528a612509565b611d477fe1dcbdb91df27212a29bc27177c840cf2f819ecf2187432e1fac86c2dd5dfca98a612509565b6301e133806000558015611d9a576013805461ff00191690556040517f7f26b83ff96e1f2b6a682f133852f6798a09c465da95921460cefb384740249890611d91906001906154da565b60405180910390a15b505050505050505050565b60018060aa541660001480611dc05750611dc060003361198d565b611ddc5760405162461bcd60e51b815260040161077a90614ef0565b610b8a838333612d53565b60018060aa541660001480611e025750611e0260003361198d565b611e1e5760405162461bcd60e51b815260040161077a90614ef0565b611e26612678565b610afa3383613062565b600082815260786020526040902060010154611e4b8161231a565b610b8a838361286d565b6000600260108581548110611e6c57611e6c614e9e565b90600052602060002090600b020160020160149054906101000a900460ff166002811115611e9c57611e9c614eb4565b14611eb95760405162461bcd60e51b815260040161077a906150ab565b6001600160a01b038316600090815260116020526040902054821115611ef15760405162461bcd60e51b815260040161077a90615508565b6000611efc85613129565b6001600160a01b0385166000908152600f602090815260408083206011909252822092935091611f2d600187614f7e565b81548110611f3d57611f3d614e9e565b600091825260208083208884526003868101835260408086208d87529093529190932054910290910160018101549092506001600160801b03166e111b0ec57e6499a1f4b1014d3f6d5960321b81611f958488614f7e565b611f9f9190615518565b611fa9919061554d565b955050505050505b9392505050565b6000611fc38161231a565b60aa54600003611fe657604051636cd6020160e01b815260040160405180910390fd5b6001600160a01b03821661200d5760405163d92e233d60e01b815260040160405180910390fd5b6040516301ffc9a760e01b81526001600160a01b038316906301ffc9a79061204090633485434760e11b90600401615571565b602060405180830381865afa15801561205d573d6000803e3d6000fd5b505050506040513d601f19601f8201168201806040525081019061208191906151b4565b6120a057816040516363f1f03760e01b815260040161077a91906147b2565b600c60009054906101000a90046001600160a01b03166001600160a01b0316632c678c646040518163ffffffff1660e01b8152600401602060405180830381865afa1580156120f3573d6000803e3d6000fd5b505050506040513d601f19601f8201168201806040525081019061211791906151b4565b61214157600c5460405163cec27f4760e01b815261077a916001600160a01b0316906004016147b2565b50600c80546001600160a01b0319166001600160a01b0392909216919091179055565b60018060aa54166000148061217f575061217f60003361198d565b61219b5760405162461bcd60e51b815260040161077a90614ef0565b336000908152600f60205260408120905b601054811015610b8a576000818152600183016020526040902054158015906121e45750600081815260028301602052604090205442115b8015612232575060026010828154811061220057612200614e9e565b90600052602060002090600b020160020160149054906101000a900460ff16600281111561223057612230614eb4565b145b1561224057612240816128d4565b8061224a816153e3565b9150506121ac565b60aa5460000361227557604051636cd6020160e01b815260040160405180910390fd5b33600090815260116020526040902054806122a25760405162461bcd60e51b815260040161077a9061559e565b60015b81811161230c573360009081526011602052604081208054839081106122cd576122cd614e9e565b6000918252602090912060039091020180549091506001600160801b03166122f781808533612a6a565b50508080612304906153e3565b9150506122a5565b5061231760006128d4565b50565b61231781336131b2565b6118b6846323b872dd60e01b85858560405160240161234593929190615179565b60408051601f198184030181529190526020810180516001600160e01b03166001600160e01b031990931692909217909152613216565b600d546040516329b367cb60e11b81526001600160a01b0390911690635366cf96906123b8908a908a908a908a908a908a908a906004016155ae565b60006040518083038186803b1580156123d057600080fd5b505afa1580156123e4573d6000803e3d6000fd5b5050505050505050505050565b60aa548181161480612409575061240960003361198d565b6124255760405162461bcd60e51b815260040161077a90615651565b60aa55565b600c54612445906001600160a01b03838116911660006132a5565b600c5461245f906001600160a01b038381169116846132a5565b600c546040516311f9fbc960e21b81526001600160a01b03909116906347e7ef24906124919084908690600401615661565b600060405180830381600087803b1580156124ab57600080fd5b505af11580156124bf573d6000803e3d6000fd5b505050505050565b600780546000909155600c54600a54604051631b41835160e31b81526001600160a01b039283169263da0c1a8892612491928792909116908690600401615179565b612513828261198d565b610afa5760008281526078602090815260408083206001600160a01b03851684529091529020805460ff1916600117905561254b3390565b6001600160a01b0316816001600160a01b0316837f2f8788117e7eff1d82e926ec794901d17c78024a50270940304540a733656f0d60405160405180910390a45050565b806000036125b05760405163d7315a2d60e01b815260040160405180910390fd5b336000908152601160205260409020548111156125e45780336040516323636ebb60e21b815260040161077a929190615202565b3360009081526011602052604081206125fe600184614f7e565b8154811061260e5761260e614e9e565b60009182526020822060039091020180549092506001600160801b0316900361264c5781604051631c8ce57360e21b815260040161077a91906149a9565b60028101546001600160a01b03163314610afa5760405162461bcd60e51b815260040161077a90615301565b426003540361268357565b600454156127285760005b601054811015612726576002601082815481106126ad576126ad614e9e565b90600052602060002090600b020160020160149054906101000a900460ff1660028111156126dd576126dd614eb4565b03612714576126eb81613129565b601082815481106126fe576126fe614e9e565b90600052602060002090600b0201600801819055505b8061271e816153e3565b91505061268e565b505b42600355565b6001600160a01b0381166000908152601160205260408120612751600185614f7e565b8154811061276157612761614e9e565b6000918252602090912060039091020160018101548154919250600160801b90046001600160401b0316906001600160801b03166127a181808787612a6a565b60006127ad8342613359565b90506000620186a06127bf8484615518565b6127c9919061554d565b6001600160a01b0387166000908152600f6020908152604080832083805260018101909252822080549394509092849290612805908490614f7e565b9091555050600080805260126020527f7e7fa33969761a458e04f477e039a608702b4f924981d6653935a8319a08ad7b8054849290612845908490614f7e565b92505081905550816007600082825461285e91906153d0565b90915550505050505050505050565b612877828261198d565b15610afa5760008281526078602090815260408083206001600160a01b0385168085529252808320805460ff1916905551339285917ff6391f5c32d9c69d2a47ea670b442974b53935d1edc7fd64eb21e047a839171b9190a45050565b336000908152600f602090815260408083208484526001810183528184208054908590556012909352908320805491938392612911908490614f7e565b9091555050604051339084907f3bfce8de0db7450cc169b94323c210e69a36c6a4a58c9f5d96bec4973adce3929061294a9085906149a9565b60405180910390a3600c54601080546001600160a01b039092169163da0c1a889133918790811061297d5761297d614e9e565b600091825260209091206002600b9092020101546040516001600160e01b031960e085901b1681526129be92916001600160a01b0316908690600401615179565b600060405180830381600087803b1580156129d857600080fd5b505af11580156129ec573d6000803e3d6000fd5b50505050505050565b60105460005b818110156118b657600260108281548110612a1857612a18614e9e565b90600052602060002090600b020160020160149054906101000a900460ff166002811115612a4857612a48614eb4565b03612a5857612a5884828561341a565b80612a62816153e3565b9150506129fb565b6001600160a01b0381166000908152600f6020908152604080832060119092528220909190612a9a600186614f7e565b81548110612aaa57612aaa614e9e565b90600052602060002090600302019050600454600003612add57604051630c65c67b60e01b815260040160405180910390fd5b80546001600160801b0316600003612b0a5783604051631c8ce57360e21b815260040161077a91906149a9565b80546001600160801b03808216835560068054600160801b90930490911691829190600090612b3a908490614f7e565b90915550508254600090821015612b5b578354612b58908390614f7e565b90505b808455612b6a87898888613766565b600b546040516370a0823160e01b81526000916001600160a01b0316906370a0823190612b9b9089906004016147b2565b602060405180830381865afa158015612bb8573d6000803e3d6000fd5b505050506040513d601f19601f82011682018060405250810190612bdc9190615158565b905082811015612bea578092505b600b54604051632770a7eb60e21b81526001600160a01b0390911690639dc29fac90612c1c9089908790600401615661565b600060405180830381600087803b158015612c3657600080fd5b505af1158015612c4a573d6000803e3d6000fd5b50505050505050505050505050565b600060108381548110612c6e57612c6e614e9e565b600091825260208220600a600b90920201015491505b818110156118b657612cfd60108581548110612ca257612ca2614e9e565b90600052602060002090600b02016009016001018281548110612cc757612cc7614e9e565b90600052602060002001548460108781548110612ce657612ce6614e9e565b90600052602060002090600b020160050154613977565b60108581548110612d1057612d10614e9e565b90600052602060002090600b02016009016001018281548110612d3557612d35614e9e565b60009182526020909120015580612d4b816153e3565b915050612c84565b6001546001600160a01b0382166000908152601160205260409020541115612d8d5760405162461bcd60e51b815260040161077a9061569c565b60008311612dad5760405162461bcd60e51b815260040161077a906156cb565b600054821115612dcf5760405162461bcd60e51b815260040161077a906156fa565b600a54612de7906001600160a01b0316333086612324565b612def612678565b612dfa818484613a29565b600a54610b8a9084906001600160a01b031661242a565b6001600160a01b038716612e385760405163d92e233d60e01b815260040160405180910390fd5b6001600160a01b038616612e5f5760405163d92e233d60e01b815260040160405180910390fd5b6001600160a01b038416612e865760405163d92e233d60e01b815260040160405180910390fd5b612e96604086016020870161546f565b63ffffffff16612ea9602087018761546f565b63ffffffff1611612ecc5760405162461bcd60e51b815260040161077a9061572a565b612edc608086016060870161546f565b63ffffffff16612ef2606087016040880161546f565b63ffffffff1611612f155760405162461bcd60e51b815260040161077a9061575c565b620186a0612f29606087016040880161546f565b612f3960a088016080890161546f565b612f43919061576c565b63ffffffff161115612f675760405162461bcd60e51b815260040161077a906157bd565b80600003612f875760405162461bcd60e51b815260040161077a906157ed565b600a80546001600160a01b03808a166001600160a01b031992831617909255600b80549289169290911691909117905584600e612fc48282615988565b5050600c80546001600160a01b0319166001600160a01b039590951694909417909355600191909155600855600955505050565b601354610100900460ff1661301f5760405162461bcd60e51b815260040161077a906159da565b613027613c41565b613032600082612509565b61305c7f139c2898040ef16910dc9f44dc697df79363da767d8bc92f2e310312b816e46d82612509565b5060aa55565b60026010828154811061307757613077614e9e565b90600052602060002090600b020160020160149054906101000a900460ff1660028111156130a7576130a7614eb4565b146130c45760405162461bcd60e51b815260040161077a90615a09565b6001600160a01b03821660009081526011602052604090208054806130fb5760405162461bcd60e51b815260040161077a90615a37565b60015b8181116131225761311085858361341a565b8061311a816153e3565b9150506130fe565b5050505050565b600060055460000361314d5760405162461bcd60e51b815260040161077a90615a67565b6005546e111b0ec57e6499a1f4b1014d3f6d5960321b61316f84600354613c6a565b6131799190615518565b613183919061554d565b6010838154811061319657613196614e9e565b90600052602060002090600b02016008015461073f91906153d0565b6131bc828261198d565b610afa576131d4816001600160a01b03166014613d04565b6131df836020613d04565b6040516020016131f0929190615abd565b60408051601f198184030181529082905262461bcd60e51b825261077a91600401615b47565b600061326b826040518060400160405280602081526020017f5361666545524332303a206c6f772d6c6576656c2063616c6c206661696c6564815250856001600160a01b0316613e6f9092919063ffffffff16565b805190915015610b8a578080602001905181019061328991906151b4565b610b8a5760405162461bcd60e51b815260040161077a90615b9f565b80158061331e5750604051636eb1769f60e11b81526001600160a01b0384169063dd62ed3e906132db9030908690600401615baf565b602060405180830381865afa1580156132f8573d6000803e3d6000fd5b505050506040513d601f19601f8201168201806040525081019061331c9190615158565b155b61333a5760405162461bcd60e51b815260040161077a90615c10565b610b8a8363095ea7b360e01b8484604051602401612345929190615661565b60008280831061336d57600091505061073f565b60006133798483614f7e565b600054600e549192509082906133aa9063ffffffff600160601b820481169168010000000000000000900416615c20565b600e546133c49190600160801b900463ffffffff1661576c565b63ffffffff166133d49190615518565b6133de919061554d565b600e546134019063ffffffff600160601b8204811691600160801b90041661576c565b63ffffffff1661341191906153d0565b95945050505050565b6001600160a01b038316600090815260116020526040812061343d600184614f7e565b8154811061344d5761344d614e9e565b60009182526020909120600390910201905060026010848154811061347457613474614e9e565b90600052602060002090600b020160020160149054906101000a900460ff1660028111156134a4576134a4614eb4565b146134c15760405162461bcd60e51b815260040161077a90615a09565b6001600160a01b0384166000908152600f60205260408120825490916001600160801b0390911690036135065760405162461bcd60e51b815260040161077a90615c5f565b600083815260038201602090815260408083208784529091528120546010805461357e9291908890811061353c5761353c614e9e565b90600052602060002090600b0201600801546135589190614f7e565b60018501546001600160801b03166e111b0ec57e6499a1f4b1014d3f6d5960321b613977565b90508060000361359057505050505050565b6000858152600183016020526040812080548392906135b09084906153d0565b9091555050600085815260126020526040812080548392906135d39084906153d0565b909155505060108054869081106135ec576135ec614e9e565b600091825260208083206008600b9093020191909101548683526003850182526040808420898552909252912055601080548690811061362e5761362e614e9e565b90600052602060002090600b0201600701544261364b91906153d0565b6000868152600284016020526040902055601080548690811061367057613670614e9e565b90600052602060002090600b020160030154816010878154811061369657613696614e9e565b90600052602060002090600b0201600401546136b291906153d0565b11156136d05760405162461bcd60e51b815260040161077a90615c9a565b80601086815481106136e4576136e4614e9e565b90600052602060002090600b0201600401600082825461370491906153d0565b90915550506000858152600183016020526040908190205490516001600160a01b0388169187917f5f1c6be51c8ec7fa7e7ddd9f798ec55927b06cfc8d9159987d1ae3358cb10b5991613756916149a9565b60405180910390a3505050505050565b6001600160a01b0381166000908152600f6020908152604080832060119092528220909190613796600186614f7e565b815481106137a6576137a6614e9e565b9060005260206000209060030201905084600460008282546137c89190614f7e565b90915550506001810154600580546001600160801b03909216916000906137f0908490614f7e565b90915550506001810180546001600160801b03199081169091558154168155600061381b8787614f7e565b905086836001016000808152602001908152602001600020600082825461384291906153d0565b90915550506010805460009061385a5761385a614e9e565b90600052602060002090600b0201600701544261387791906153d0565b6000808052600285016020908152604082209290925560129091527f7e7fa33969761a458e04f477e039a608702b4f924981d6653935a8319a08ad7b80548992906138c39084906153d0565b90915550508015613921576138da81868486613e86565b84846001600160a01b03167f845a16492d8f772c792e84d2c5495d37fca22ce33263b67322e92ef0be653c508960405161391491906149a9565b60405180910390a36129ec565b61392c838587614003565b84846001600160a01b03167f7fc4727e062e336010f2c282598ef5f14facb3de68cf8195c2f23e1454b2b74e8960405161396691906149a9565b60405180910390a350505050505050565b60008080600019858709858702925082811083820303915050806000036139b057600084116139a557600080fd5b508290049050611fb1565b8084116139bc57600080fd5b6000848688096000868103871696879004966002600389028118808a02820302808a02820302808a02820302808a02820302808a02820302808a02909103029181900381900460010186841190950394909402919094039290920491909117919091029150509392505050565b6001600160a01b0383166000908152600f602052604081208215613ab257600954670de0b6b3a76400009081613a5f8688615518565b613a699190615518565b613a73919061554d565b613a7d919061554d565b915081816000016000828254613a9391906153d0565b925050819055508160066000828254613aac91906153d0565b90915550505b60006040518060a00160405280613ac887614243565b6001600160801b03168152602001613adf85614243565b6001600160801b0316815260006020820152604001613b06613b0142886153d0565b614270565b6001600160401b0390811682526001600160a01b03898116602093840181905260008181526011855260408082208054600180820183558285528885208a51998b01516001600160801b039a8b16600160801b918c168202176003909402909101928355938a0151908201805460608c015192909a166001600160c01b0319909a16999099179716909202959095179095556080860151600290950180546001600160a01b031916959093169490941790915590915254909150613bcf90879087908690614299565b82156124bf57600b546040516340c10f1960e01b81526001600160a01b03909116906340c10f1990613c079089908790600401615661565b600060405180830381600087803b158015613c2157600080fd5b505af1158015613c35573d6000803e3d6000fd5b50505050505050505050565b601354610100900460ff16613c685760405162461bcd60e51b815260040161077a906159da565b565b600d54601080546000926001600160a01b0316916351e1551a9186908110613c9457613c94614e9e565b90600052602060002090600b0201600901846040518363ffffffff1660e01b8152600401613cc3929190615d3f565b602060405180830381865afa158015613ce0573d6000803e3d6000fd5b505050506040513d601f19601f82011682018060405250810190611fb19190615158565b60606000613d13836002615518565b613d1e9060026153d0565b6001600160401b03811115613d3557613d356147d4565b6040519080825280601f01601f191660200182016040528015613d5f576020820181803683370190505b509050600360fc1b81600081518110613d7a57613d7a614e9e565b60200101906001600160f81b031916908160001a905350600f60fb1b81600181518110613da957613da9614e9e565b60200101906001600160f81b031916908160001a9053506000613dcd846002615518565b613dd89060016153d0565b90505b6001811115613e50576f181899199a1a9b1b9c1cb0b131b232b360811b85600f1660108110613e0c57613e0c614e9e565b1a60f81b828281518110613e2257613e22614e9e565b60200101906001600160f81b031916908160001a90535060049490941c93613e4981615d5f565b9050613ddb565b508315611fb15760405162461bcd60e51b815260040161077a90615da8565b6060613e7e848460008561448f565b949350505050565b8360046000828254613e9891906153d0565b90915550613ea7905084614243565b82548390600090613ec29084906001600160801b0316615db8565b92506101000a8154816001600160801b0302191690836001600160801b031602179055506000613ef485600042614551565b9050613eff81614243565b600184018054600090613f1c9084906001600160801b0316615db8565b92506101000a8154816001600160801b0302191690836001600160801b031602179055508060056000828254613f5291906153d0565b909155505060105460005b818110156129ec57600260108281548110613f7a57613f7a614e9e565b90600052602060002090600b020160020160149054906101000a900460ff166002811115613faa57613faa614eb4565b03613ff15760108181548110613fc257613fc2614e9e565b600091825260208083206008600b90930201919091015488835260038701825260408084208585529092529120555b80613ffb816153e3565b915050613f5d565b6010546001600160a01b03831660009081526011602052604090205482811480159061402f5750600181115b1561419e576001600160a01b0384166000908152601160205260408120614057600184614f7e565b8154811061406757614067614e9e565b600091825260208083206001600160a01b03891684526011909152604090922060039091029091019150819061409e600187614f7e565b815481106140ae576140ae614e9e565b600091825260208220835460039092020180546001600160801b03199081166001600160801b0393841690811783558554600160801b90819004851681029091178355600180870180549185018054948516929096169182178655546001600160401b0390839004169091026001600160c01b03199092161717909155600292830154920180546001600160a01b0319166001600160a01b03909316929092179091555b8381101561419b57600083815260038801602081815260408084208585528252808420548985529282528084208585529091529091205580614193816153e3565b915050614152565b50505b60005b828110156141d75760008281526003870160209081526040808320848452909152812055806141cf816153e3565b9150506141a1565b506001600160a01b03841660009081526011602052604090208054806141ff576141ff615ddb565b6000828152602081206003600019909301928302019081556001810180546001600160c01b031916905560020180546001600160a01b031916905590555050505050565b60006001600160801b0382111561426c5760405162461bcd60e51b815260040161077a90615e25565b5090565b60006001600160401b0382111561426c5760405162461bcd60e51b815260040161077a90615e69565b6001600160a01b0384166000908152600f60209081526040808320601190925282209091906142c9600185614f7e565b815481106142d9576142d9614e9e565b9060005260206000209060030201905084600460008282546142fb91906153d0565b909155506000905061430e868642614551565b9050806005600082825461432291906153d0565b90915550614331905081614243565b60018301805460009061434e9084906001600160801b0316615db8565b92506101000a8154816001600160801b0302191690836001600160801b031602179055506000601080549050905060005b818110156144255760026010828154811061439c5761439c614e9e565b90600052602060002090600b020160020160149054906101000a900460ff1660028111156143cc576143cc614eb4565b0361441357601081815481106143e4576143e4614e9e565b600091825260208083206008600b90930201919091015488835260038801825260408084208585529092529120555b8061441d816153e3565b91505061437f565b5084886001600160a01b03167f6381ea17a5324d29cc015352644672ead5185c1c61a0d3a521eda97e35cec97e89858a8860010160109054906101000a90046001600160401b031660405161447d9493929190615e97565b60405180910390a35050505050505050565b6060824710156144b15760405162461bcd60e51b815260040161077a90615f0f565b6001600160a01b0385163b6144d85760405162461bcd60e51b815260040161077a90615f53565b600080866001600160a01b031685876040516144f49190615f63565b60006040518083038185875af1925050503d8060008114614531576040519150601f19603f3d011682016040523d82523d6000602084013e614536565b606091505b50915091506145468282866146ad565b979650505050505050565b6000806103e8846008546145659190615518565b61456f919061554d565b61457990866153d0565b90506000622820726001600160401b0316601060008154811061459e5761459e614e9e565b90600052602060002090600b02016009016000016000815481106145c4576145c4614e9e565b90600052602060002001546145d991906153d0565b905060006145eb6301e13380836153d0565b905081851161461157600e546146079063ffffffff1684615518565b9350505050611fb1565b80851061463357600e5461460790640100000000900463ffffffff1684615518565b61463d8282614f7e565b6146478683614f7e565b600e546146649063ffffffff640100000000820481169116615c20565b6146749063ffffffff1686615518565b61467e9190615518565b614688919061554d565b600e546146a390640100000000900463ffffffff1685615518565b61454691906153d0565b606083156146bc575081611fb1565b8251156146cc5782518084602001fd5b8160405162461bcd60e51b815260040161077a9190615b47565b828054828255906000526020600020908101928215614721579160200282015b82811115614721578251825591602001919060010190614706565b5061426c9291505b8082111561426c5760008155600101614729565b6001600160e01b031981165b811461231757600080fd5b803561073f8161473d565b60006020828403121561477457614774600080fd5b6000613e7e8484614754565b8015155b82525050565b6020810161073f8284614780565b60006001600160a01b03821661073f565b61478481614798565b6020810161073f82846147a9565b61474981614798565b803561073f816147c0565b634e487b7160e01b600052604160045260246000fd5b601f19601f83011681018181106001600160401b038211171561480f5761480f6147d4565b6040525050565b600061482160405190565b905061482d82826147ea565b919050565b60006001600160401b0382111561484b5761484b6147d4565b5060209081020190565b80614749565b803561073f81614855565b600061487961487484614832565b614816565b8381529050602080820190840283018581111561489857614898600080fd5b835b818110156148bc57806148ad888261485b565b8452506020928301920161489a565b5050509392505050565b600082601f8301126148da576148da600080fd5b8135613e7e848260208601614866565b6000806000806080858703121561490357614903600080fd5b600061490f87876147c9565b94505060208501356001600160401b0381111561492e5761492e600080fd5b61493a878288016148c6565b93505060408501356001600160401b0381111561495957614959600080fd5b614965878288016148c6565b92505060606149768782880161485b565b91505092959194509250565b60006020828403121561499757614997600080fd5b6000613e7e848461485b565b80614784565b6020810161073f82846149a3565b6000602082840312156149cc576149cc600080fd5b6000613e7e84846147c9565b600080604083850312156149ee576149ee600080fd5b60006149fa858561485b565b9250506020614a0b858286016147c9565b9150509250929050565b600080600080600080600060e0888a031215614a3357614a33600080fd5b6000614a3f8a8a6147c9565b9750506020614a508a828b016147c9565b9650506040614a618a828b0161485b565b9550506060614a728a828b0161485b565b94505060808801356001600160401b03811115614a9157614a91600080fd5b614a9d8a828b016148c6565b93505060a08801356001600160401b03811115614abc57614abc600080fd5b614ac88a828b016148c6565b92505060c0614ad98a828b0161485b565b91505092959891949750929550565b6000614af483836149a3565b505060200190565b6000614b06825190565b80845260209384019383018060005b83811015614b3a578151614b298882614ae8565b975060208301925050600101614b15565b509495945050505050565b60408082528101614b568185614afc565b90508181036020830152613e7e8184614afc565b60008060408385031215614b8057614b80600080fd5b6000614b8c85856147c9565b9250506020614a0b8582860161485b565b60008060408385031215614bb357614bb3600080fd5b6000614b8c858561485b565b60008083601f840112614bd457614bd4600080fd5b5081356001600160401b03811115614bee57614bee600080fd5b602083019150836060820283011115614c0957614c09600080fd5b9250929050565b60008060208385031215614c2657614c26600080fd5b82356001600160401b03811115614c3f57614c3f600080fd5b614c4b85828601614bbf565b92509250509250929050565b6001600160801b038116614784565b6001600160401b038116614784565b805160a0830190614c868482614c57565b506020820151614c996020850182614c57565b506040820151614cac6040850182614c57565b506060820151614cbf6060850182614c66565b5060808201516118b660808501826147a9565b6000614cde8383614c75565b505060a00190565b6000614cf0825190565b80845260209384019383018060005b83811015614b3a578151614d138882614cd2565b975060208301925050600101614cff565b60208082528101611fb18184614ce6565b600060a08284031215614d4a57614d4a600080fd5b50919050565b600060408284031215614d4a57614d4a600080fd5b6000806000806000806000806101a0898b031215614d8557614d85600080fd5b6000614d918b8b6147c9565b9850506020614da28b828c016147c9565b9750506040614db38b828c016147c9565b9650506060614dc48b828c016147c9565b9550506080614dd58b828c01614d35565b945050610120614de78b828c01614d50565b935050610160614df98b828c0161485b565b925050610180614e0b8b828c016147c9565b9150509295985092959890939650565b600080600060608486031215614e3357614e33600080fd5b6000614e3f868661485b565b9350506020614e50868287016147c9565b9250506040614e618682870161485b565b9150509250925092565b6009815260006020820168696e697420646f6e6560b81b815291505b5060200190565b6020808252810161073f81614e6b565b634e487b7160e01b600052603260045260246000fd5b634e487b7160e01b600052602160045260246000fd5b600f81526000602082016e1c185d5cd9590818dbdb9d1c9858dd608a1b81529150614e87565b6020808252810161073f81614eca565b600a8152600060208201696e6f2070656e616c747960b01b81529150614e87565b6020808252810161073f81614f00565b601081526000602082016f6561726c7920696e6665617369626c6560801b81529150614e87565b6020808252810161073f81614f31565b634e487b7160e01b600052601160045260246000fd5b8181038181111561073f5761073f614f68565b60098152600060208201683637b1b59037b832b760b91b81529150614e87565b6020808252810161073f81614f91565b602f81526000602082017f416363657373436f6e74726f6c3a2063616e206f6e6c792072656e6f756e636581526e103937b632b9903337b91039b2b63360891b602082015291505b5060400190565b6020808252810161073f81614fc1565b600b81526000602082016a6e6f2070656e64696e677360a81b81529150614e87565b6020808252810161073f81615020565b600c81526000602082016b1b9bdd081c995b19585cd95960a21b81529150614e87565b6020808252810161073f81615052565b600f81526000602082016e73747265616d20696e61637469766560881b81529150614e87565b6020808252810161073f81615085565b6008815260006020820167053747265616d20360c41b81529150614e87565b6020808252810161073f816150bb565b600c81526000602082016b373a103bb4ba34323930bbb760a11b81529150614e87565b6020808252810161073f816150ea565b60098152600060208201684e6f2053747265616d60b81b81529150614e87565b6020808252810161073f8161511d565b805161073f81614855565b60006020828403121561516d5761516d600080fd5b6000613e7e848461514d565b6060810161518782866147a9565b61519460208301856147a9565b613e7e60408301846149a3565b801515614749565b805161073f816151a1565b6000602082840312156151c9576151c9600080fd5b6000613e7e84846151a9565b600681526000602082016510aa37b5b2b760d11b81529150614e87565b6020808252810161073f816151d5565b6040810161521082856149a3565b611fb160208301846147a9565b600881526000602082016706c6f636b496420360c41b81529150614e87565b6020808252810161073f8161521d565b600a8152600060208201696c6f636b20636c6f736560b01b81529150614e87565b6020808252810161073f8161524c565b600b81526000602082016a1b9d081c1c9bdc1bdcd95960aa1b81529150614e87565b6020808252810161073f8161527d565b600b81526000602082016a70726f702065787069726560a81b81529150614e87565b6020808252810161073f816152af565b60098152600060208201683130b21037bbb732b960b91b81529150614e87565b6020808252810161073f816152e1565b600a8152600060208201690e4eee4c8e640d0d2ced60b31b81529150614e87565b6020808252810161073f81615311565b60098152600060208201687277726473206c6f7760b81b81529150614e87565b6020808252810161073f81615342565b6009815260006020820168189859081cdd185c9d60ba1b81529150614e87565b6020808252810161073f81615372565b600781526000602082016618dc99585d195960ca1b81529150614e87565b6020808252810161073f816153a2565b8082018082111561073f5761073f614f68565b600060001982036153f6576153f6614f68565b5060010190565b602e81526000602082017f496e697469616c697a61626c653a20636f6e747261637420697320616c72656181526d191e481a5b9a5d1a585b1a5e995960921b60208201529150615009565b6020808252810161073f816153fd565b63ffffffff8116614749565b803561073f81615458565b60006020828403121561548457615484600080fd5b6000613e7e8484615464565b600681526000602082016510ba37b5b2b760d11b81529150614e87565b6020808252810161073f81615490565b600061073f826154cb565b90565b60ff1690565b614784816154bd565b6020810161073f82846154d1565b60098152600060208201680c4c2c840d2dcc8caf60bb1b81529150614e87565b6020808252810161073f816154e8565b600081600019048311821515161561553257615532614f68565b500290565b634e487b7160e01b600052601260045260246000fd5b60008261555c5761555c615537565b500490565b6001600160e01b03198116614784565b6020810161073f8284615561565b60088152600060208201676e6f206c6f636b7360c01b81529150614e87565b6020808252810161073f8161557f565b60e081016155bc828a6147a9565b6155c960208301896147a9565b6155d660408301886149a3565b6155e360608301876149a3565b81810360808301526155f58186614afc565b905081810360a08301526156098185614afc565b905061561860c08301846149a3565b98975050505050505050565b60168152600060208201756f6e6c792061646d696e2063616e20756e706175736560501b81529150614e87565b6020808252810161073f81615624565b6040810161566f82856147a9565b611fb160208301846149a3565b60098152600060208201686d6178206c6f636b7360b81b81529150614e87565b6020808252810161073f8161567c565b60088152600060208201670616d6f756e7420360c41b81529150614e87565b6020808252810161073f816156ac565b60088152600060208201676d61782074696d6560c01b81529150614e87565b6020808252810161073f816156db565b600981526000602082016862616420736861726560b81b81529150614e87565b6020808252810161073f8161570a565b600b81526000602082016a6261642070656e616c747960a81b81529150614e87565b6020808252810161073f8161573a565b600063ffffffff8216915063ffffffff831692508163ffffffff048311821515161561553257615532614f68565b600c81526000602082016b1ddc9bdb99c81dd95a59da1d60a21b81529150614e87565b6020808252810161073f8161579a565b60098152600060208201683d32b9379031b7b2b360b91b81529150614e87565b6020808252810161073f816157cd565b6000813561073f81615458565b600063ffffffff835b81169019929092169190911792915050565b600063ffffffff821661073f565b61583c82615825565b61584781835461580a565b8255505050565b600067ffffffff000000006158138460201b90565b61586c82615825565b61584781835461584e565b60006bffffffff00000000000000006158138460401b90565b61589982615825565b615847818354615877565b600063ffffffff60601b6158138460601b90565b6158c182615825565b6158478183546158a4565b600063ffffffff60801b6158138460801b90565b6158e982615825565b6158478183546158cc565b808280615900816157fd565b905061590c8184615833565b5082915050602083018061591f816157fd565b905061592b8184615863565b5082915050604083018061593e816157fd565b905061594a8184615890565b5082915050606083018061595d816157fd565b905061596981846158b8565b5082915050608083018061597c816157fd565b905061312281846158e0565b610afa82826158f4565b602b81526000602082017f496e697469616c697a61626c653a20636f6e7472616374206973206e6f74206981526a6e697469616c697a696e6760a81b60208201529150615009565b6020808252810161073f81615992565b6008815260006020820167696e61637469766560c01b81529150614e87565b6020808252810161073f816159ea565b60078152600060208201666e6f206c6f636b60c81b81529150614e87565b6020808252810161073f81615a19565b60098152600060208201684e6f2053686172657360b81b81529150614e87565b6020808252810161073f81615a47565b60005b83811015615a92578181015183820152602001615a7a565b50506000910152565b6000615aa5825190565b615ab3818560208601615a77565b9290920192915050565b7f416363657373436f6e74726f6c3a206163636f756e742000000000000000000081526017016000615aef8285615a9b565b7001034b99036b4b9b9b4b733903937b6329607d1b81526011019150613e7e8284615a9b565b6000615b1f825190565b808452602084019350615b36818560208601615a77565b601f01601f19169290920192915050565b60208082528101611fb18184615b15565b602a81526000602082017f5361666545524332303a204552433230206f7065726174696f6e20646964206e8152691bdd081cdd58d8d9595960b21b60208201529150615009565b6020808252810161073f81615b58565b6040810161521082856147a9565b603681526000602082017f5361666545524332303a20617070726f76652066726f6d206e6f6e2d7a65726f81527520746f206e6f6e2d7a65726f20616c6c6f77616e636560501b60208201529150615009565b6020808252810161073f81615bbd565b63ffffffff91821691908116908282039081111561073f5761073f614f68565b60088152600060208201674e6f205374616b6560c01b81529150614e87565b6020808252810161073f81615c40565b6014815260006020820173696e73756666696369656e74207265776172647360601b81529150614e87565b6020808252810161073f81615c6f565b60008161073f565b600061073f8254615caa565b6000615cc8825490565b808452600083815260208082209501949081905b83811015614b3a57615ced82615cb2565b615cf78882614ae8565b97505060019182019101615cdc565b604080835260009083018183615d1c8382615cbe565b925050600184018583036020870152615d358382615cbe565b9695505050505050565b60408082528101615d508185615d06565b9050611fb160208301846149a3565b600081615d6e57615d6e614f68565b506000190190565b60208082527f537472696e67733a20686578206c656e67746820696e73756666696369656e7491019081526000614e87565b6020808252810161073f81615d76565b6001600160801b0391821691908116908282019081111561073f5761073f614f68565b634e487b7160e01b600052603160045260246000fd5b601c81526000602082017f426f72696e674d6174683a2075696e74313238204f766572666c6f770000000081529150614e87565b6020808252810161073f81615df1565b601b81526000602082017f426f72696e674d6174683a2075696e743634204f766572666c6f77000000000081529150614e87565b6020808252810161073f81615e35565b600061073f6154c86001600160401b03841681565b61478481615e79565b60808101615ea582876149a3565b615eb260208301866149a3565b615ebf60408301856149a3565b6134116060830184615e8e565b602681526000602082017f416464726573733a20696e73756666696369656e742062616c616e636520666f8152651c8818d85b1b60d21b60208201529150615009565b6020808252810161073f81615ecc565b601d81526000602082017f416464726573733a2063616c6c20746f206e6f6e2d636f6e747261637400000081529150614e87565b6020808252810161073f81615f1f565b6000611fb18284615a9b56fe930802d0eadfb856cb83e01d1c4daa3c89e9c6d9f74cfbe13124decf2b33128aa264697066735822122028cbe76ea9413f3bdbfe3998839ec0f21556054e945e75f2fd4ebce5a36eaa2d64736f6c63430008100033",
    "immutableReferences": {},
    "source": "// SPDX-License-Identifier: AGPL 3.0\n// Copyright Fathom 2022\n\npragma solidity 0.8.16;\n\nimport \"./StakingHandler.sol\";\nimport \"./StakingGetters.sol\";\n\ncontract StakingPackage is StakingHandlers, StakingGetters {}\n",
    "sourcePath": "/Users/subiksinghshrestha/Documents/FATHOM/fathom-dao-smart-contracts/contracts/dao/staking/packages/StakingPackage.sol",
    "compiler": {
        "name": "solc",
        "version": "0.8.16+commit.07a7930e.Darwin.appleclang"
    },
    "schemaVersion": "3.4.10",
    "updatedAt": "2023-02-04T08:03:31.935Z",
    "devdoc": {
        "kind": "dev",
        "methods": {
            "adminPause(uint256)": {
                "details": "adminPause pauses this contract. Only pause role or default admin role can access this function.",
                "params": {
                    "flags": "flags variable is used for pausing this contract."
                }
            },
            "emergencyUnlockAndWithdraw()": {
                "details": "Disregard rewards for emergency unlock and withdraw"
            },
            "getRoleAdmin(bytes32)": {
                "details": "Returns the admin role that controls `role`. See {grantRole} and {revokeRole}. To change a role's admin, use {_setRoleAdmin}."
            },
            "grantRole(bytes32,address)": {
                "details": "Grants `role` to `account`. If `account` had not been already granted `role`, emits a {RoleGranted} event. Requirements: - the caller must have ``role``'s admin role. May emit a {RoleGranted} event."
            },
            "hasRole(bytes32,address)": {
                "details": "Returns `true` if `account` has been granted `role`."
            },
            "initializeStaking(address,address,address,address,(uint32,uint32,uint32,uint32,uint32),(uint32,uint32),uint256,address)": {
                "details": "initialize the contract and deploys the first stream of rewardsinitializable only once due to stakingInitialised flag",
                "params": {
                    "_admin": "the owner and manager of the main token stream",
                    "_mainToken": "token contract address",
                    "_vault": "The Vault address to store main token and rewards tokens",
                    "_weight": "Weighting coefficient for shares and penalties"
                }
            },
            "proposeStream(address,address,uint256,uint256,uint256[],uint256[],uint256)": {
                "details": "An admin of the staking contract can whitelist (propose) a stream. Whitelisting of the stream provides the option for the stream owner (presumably the issuing party of a specific token) to deposit some ERC-20 tokens on the staking contract and potentially get in return some main tokens immediately. ",
                "params": {
                    "maxDepositAmount": "The upper amount of the tokens that should be deposited by stream owner",
                    "rewardToken": "the address of the ERC-20 tokens to be deposited in the stream",
                    "scheduleRewards": "remaining rewards to be delivered at the beginning of each scheduled interval.  Last element is always zero. First value (in scheduleRewards) from array is supposed to be a total amount of rewards for stream.",
                    "scheduleTimes": "timestamp denoting the start of each scheduled interval. Last element is the end of the stream.",
                    "streamOwner": "only this account will be able to launch a stream",
                    "tau": "the tau is (pending release period) for this stream (e.g one day)"
                }
            },
            "renounceRole(bytes32,address)": {
                "details": "Revokes `role` from the calling account. Roles are often managed via {grantRole} and {revokeRole}: this function's purpose is to provide a mechanism for accounts to lose their privileges if they are compromised (such as when a trusted device is misplaced). If the calling account had been revoked `role`, emits a {RoleRevoked} event. Requirements: - the caller must be `account`. May emit a {RoleRevoked} event."
            },
            "revokeRole(bytes32,address)": {
                "details": "Revokes `role` from `account`. If `account` had been granted `role`, emits a {RoleRevoked} event. Requirements: - the caller must have ``role``'s admin role. May emit a {RoleRevoked} event."
            },
            "supportsInterface(bytes4)": {
                "details": "See {IERC165-supportsInterface}."
            }
        },
        "version": 1
    },
    "userdoc": {
        "kind": "user",
        "methods": {
            "initializeStaking(address,address,address,address,(uint32,uint32,uint32,uint32,uint32),(uint32,uint32),uint256,address)": {
                "notice": "By calling this function, the deployer of this contract must make sure that the Rewards amount was deposited to the treasury contract before initializing of the default Stream"
            },
            "maxLockPositions()": {
                "notice": "Checks if the staking is initialized"
            },
            "proposeStream(address,address,uint256,uint256,uint256[],uint256[],uint256)": {
                "notice": "Manager of Vault must call"
            },
            "totalAmountOfStakedToken()": {
                "notice": "The below three are used for autocompounding feature and weighted shares"
            },
            "totalAmountOfVoteToken()": {
                "notice": "voteToken -> vote Token"
            }
        },
        "version": 1
    }
}