{
    "contractName": "StakingPackage",
    "abi": [
        {
            "inputs": [],
            "name": "AlreadyInitialized",
            "type": "error"
        },
        {
            "inputs": [],
            "name": "BadIndexError",
            "type": "error"
        },
        {
            "inputs": [],
            "name": "BadMaxLockPositions",
            "type": "error"
        },
        {
            "inputs": [],
            "name": "BadStart",
            "type": "error"
        },
        {
            "inputs": [],
            "name": "EarlyWithdrawalInfeasible",
            "type": "error"
        },
        {
            "inputs": [],
            "name": "InactiveStreamError",
            "type": "error"
        },
        {
            "inputs": [],
            "name": "IncorrectWeight",
            "type": "error"
        },
        {
            "inputs": [],
            "name": "InsufficientRewardsError",
            "type": "error"
        },
        {
            "inputs": [],
            "name": "InvalidPenaltyWeights",
            "type": "error"
        },
        {
            "inputs": [],
            "name": "InvalidShareWeights",
            "type": "error"
        },
        {
            "inputs": [],
            "name": "LockAlreadyOpen",
            "type": "error"
        },
        {
            "inputs": [],
            "name": "LockNotClosed",
            "type": "error"
        },
        {
            "inputs": [],
            "name": "LockNotExpired",
            "type": "error"
        },
        {
            "inputs": [
                {
                    "internalType": "uint256",
                    "name": "_lockId",
                    "type": "uint256"
                },
                {
                    "internalType": "address",
                    "name": "_account",
                    "type": "address"
                }
            ],
            "name": "MaxLockIdExceeded",
            "type": "error"
        },
        {
            "inputs": [],
            "name": "MaxLockPeriodExceeded",
            "type": "error"
        },
        {
            "inputs": [],
            "name": "MaxLockPositionsReached",
            "type": "error"
        },
        {
            "inputs": [],
            "name": "MinLockPeriodNotMet",
            "type": "error"
        },
        {
            "inputs": [],
            "name": "NoActiveStream",
            "type": "error"
        },
        {
            "inputs": [],
            "name": "NoLockError",
            "type": "error"
        },
        {
            "inputs": [],
            "name": "NoPendings",
            "type": "error"
        },
        {
            "inputs": [],
            "name": "NoSharesError",
            "type": "error"
        },
        {
            "inputs": [],
            "name": "NoStakeError",
            "type": "error"
        },
        {
            "inputs": [],
            "name": "NotLockOwner",
            "type": "error"
        },
        {
            "inputs": [],
            "name": "NotOwner",
            "type": "error"
        },
        {
            "inputs": [],
            "name": "NotPaused",
            "type": "error"
        },
        {
            "inputs": [],
            "name": "NotProposed",
            "type": "error"
        },
        {
            "inputs": [],
            "name": "NotReleased",
            "type": "error"
        },
        {
            "inputs": [],
            "name": "ProposalExpired",
            "type": "error"
        },
        {
            "inputs": [],
            "name": "RewardsTooHigh",
            "type": "error"
        },
        {
            "inputs": [],
            "name": "RewardsTooLow",
            "type": "error"
        },
        {
            "inputs": [],
            "name": "StreamIdZero",
            "type": "error"
        },
        {
            "inputs": [],
            "name": "StreamInactive",
            "type": "error"
        },
        {
            "inputs": [],
            "name": "StreamInactiveError",
            "type": "error"
        },
        {
            "inputs": [],
            "name": "StreamNotWithdrawn",
            "type": "error"
        },
        {
            "inputs": [],
            "name": "UnsupportedToken",
            "type": "error"
        },
        {
            "inputs": [
                {
                    "internalType": "address",
                    "name": "_vault",
                    "type": "address"
                }
            ],
            "name": "VaultNotMigrated",
            "type": "error"
        },
        {
            "inputs": [
                {
                    "internalType": "address",
                    "name": "_vault",
                    "type": "address"
                }
            ],
            "name": "VaultNotSupported",
            "type": "error"
        },
        {
            "inputs": [],
            "name": "ZeroAddress",
            "type": "error"
        },
        {
            "inputs": [],
            "name": "ZeroAmount",
            "type": "error"
        },
        {
            "inputs": [],
            "name": "ZeroCoefficient",
            "type": "error"
        },
        {
            "inputs": [],
            "name": "ZeroLockId",
            "type": "error"
        },
        {
            "inputs": [
                {
                    "internalType": "uint256",
                    "name": "lockId",
                    "type": "uint256"
                }
            ],
            "name": "ZeroLocked",
            "type": "error"
        },
        {
            "inputs": [],
            "name": "ZeroPenalty",
            "type": "error"
        },
        {
            "inputs": [],
            "name": "ZeroTotalStakedToken",
            "type": "error"
        },
        {
            "anonymous": false,
            "inputs": [
                {
                    "indexed": false,
                    "internalType": "uint8",
                    "name": "version",
                    "type": "uint8"
                }
            ],
            "name": "Initialized",
            "type": "event"
        },
        {
            "anonymous": false,
            "inputs": [
                {
                    "indexed": true,
                    "internalType": "address",
                    "name": "account",
                    "type": "address"
                },
                {
                    "indexed": false,
                    "internalType": "uint256",
                    "name": "amount",
                    "type": "uint256"
                },
                {
                    "indexed": true,
                    "internalType": "uint256",
                    "name": "lockId",
                    "type": "uint256"
                }
            ],
            "name": "PartialUnstaked",
            "type": "event"
        },
        {
            "anonymous": false,
            "inputs": [
                {
                    "indexed": true,
                    "internalType": "uint256",
                    "name": "streamId",
                    "type": "uint256"
                },
                {
                    "indexed": true,
                    "internalType": "address",
                    "name": "account",
                    "type": "address"
                },
                {
                    "indexed": false,
                    "internalType": "uint256",
                    "name": "pendings",
                    "type": "uint256"
                }
            ],
            "name": "Pending",
            "type": "event"
        },
        {
            "anonymous": false,
            "inputs": [
                {
                    "indexed": true,
                    "internalType": "uint256",
                    "name": "streamId",
                    "type": "uint256"
                },
                {
                    "indexed": true,
                    "internalType": "address",
                    "name": "user",
                    "type": "address"
                },
                {
                    "indexed": false,
                    "internalType": "uint256",
                    "name": "pendingAmount",
                    "type": "uint256"
                }
            ],
            "name": "Released",
            "type": "event"
        },
        {
            "anonymous": false,
            "inputs": [
                {
                    "indexed": true,
                    "internalType": "bytes32",
                    "name": "role",
                    "type": "bytes32"
                },
                {
                    "indexed": true,
                    "internalType": "bytes32",
                    "name": "previousAdminRole",
                    "type": "bytes32"
                },
                {
                    "indexed": true,
                    "internalType": "bytes32",
                    "name": "newAdminRole",
                    "type": "bytes32"
                }
            ],
            "name": "RoleAdminChanged",
            "type": "event"
        },
        {
            "anonymous": false,
            "inputs": [
                {
                    "indexed": true,
                    "internalType": "bytes32",
                    "name": "role",
                    "type": "bytes32"
                },
                {
                    "indexed": true,
                    "internalType": "address",
                    "name": "account",
                    "type": "address"
                },
                {
                    "indexed": true,
                    "internalType": "address",
                    "name": "sender",
                    "type": "address"
                }
            ],
            "name": "RoleGranted",
            "type": "event"
        },
        {
            "anonymous": false,
            "inputs": [
                {
                    "indexed": true,
                    "internalType": "bytes32",
                    "name": "role",
                    "type": "bytes32"
                },
                {
                    "indexed": true,
                    "internalType": "address",
                    "name": "account",
                    "type": "address"
                },
                {
                    "indexed": true,
                    "internalType": "address",
                    "name": "sender",
                    "type": "address"
                }
            ],
            "name": "RoleRevoked",
            "type": "event"
        },
        {
            "anonymous": false,
            "inputs": [
                {
                    "indexed": true,
                    "internalType": "address",
                    "name": "account",
                    "type": "address"
                },
                {
                    "indexed": false,
                    "internalType": "uint256",
                    "name": "amount",
                    "type": "uint256"
                },
                {
                    "indexed": false,
                    "internalType": "uint256",
                    "name": "streamShares",
                    "type": "uint256"
                },
                {
                    "indexed": false,
                    "internalType": "uint256",
                    "name": "nVoteToken",
                    "type": "uint256"
                },
                {
                    "indexed": true,
                    "internalType": "uint256",
                    "name": "lockId",
                    "type": "uint256"
                },
                {
                    "indexed": false,
                    "internalType": "uint256",
                    "name": "end",
                    "type": "uint256"
                }
            ],
            "name": "Staked",
            "type": "event"
        },
        {
            "anonymous": false,
            "inputs": [
                {
                    "indexed": true,
                    "internalType": "uint256",
                    "name": "streamId",
                    "type": "uint256"
                },
                {
                    "indexed": true,
                    "internalType": "address",
                    "name": "owner",
                    "type": "address"
                },
                {
                    "indexed": true,
                    "internalType": "address",
                    "name": "token",
                    "type": "address"
                },
                {
                    "indexed": false,
                    "internalType": "uint256",
                    "name": "tau",
                    "type": "uint256"
                }
            ],
            "name": "StreamCreated",
            "type": "event"
        },
        {
            "anonymous": false,
            "inputs": [
                {
                    "indexed": true,
                    "internalType": "uint256",
                    "name": "streamId",
                    "type": "uint256"
                },
                {
                    "indexed": true,
                    "internalType": "address",
                    "name": "owner",
                    "type": "address"
                },
                {
                    "indexed": true,
                    "internalType": "address",
                    "name": "token",
                    "type": "address"
                }
            ],
            "name": "StreamProposalCancelled",
            "type": "event"
        },
        {
            "anonymous": false,
            "inputs": [
                {
                    "indexed": true,
                    "internalType": "uint256",
                    "name": "streamId",
                    "type": "uint256"
                },
                {
                    "indexed": true,
                    "internalType": "address",
                    "name": "streamOwner",
                    "type": "address"
                },
                {
                    "indexed": true,
                    "internalType": "address",
                    "name": "rewardToken",
                    "type": "address"
                },
                {
                    "indexed": false,
                    "internalType": "uint256",
                    "name": "maxDepositAmount",
                    "type": "uint256"
                }
            ],
            "name": "StreamProposed",
            "type": "event"
        },
        {
            "anonymous": false,
            "inputs": [
                {
                    "indexed": true,
                    "internalType": "uint256",
                    "name": "streamId",
                    "type": "uint256"
                },
                {
                    "indexed": true,
                    "internalType": "address",
                    "name": "owner",
                    "type": "address"
                },
                {
                    "indexed": true,
                    "internalType": "address",
                    "name": "token",
                    "type": "address"
                }
            ],
            "name": "StreamRemoved",
            "type": "event"
        },
        {
            "anonymous": false,
            "inputs": [
                {
                    "indexed": true,
                    "internalType": "address",
                    "name": "account",
                    "type": "address"
                },
                {
                    "indexed": false,
                    "internalType": "uint256",
                    "name": "amount",
                    "type": "uint256"
                },
                {
                    "indexed": true,
                    "internalType": "uint256",
                    "name": "lockId",
                    "type": "uint256"
                }
            ],
            "name": "Unstaked",
            "type": "event"
        },
        {
            "inputs": [],
            "name": "DEFAULT_ADMIN_ROLE",
            "outputs": [
                {
                    "internalType": "bytes32",
                    "name": "",
                    "type": "bytes32"
                }
            ],
            "stateMutability": "view",
            "type": "function"
        },
        {
            "inputs": [],
            "name": "PAUSE_ROLE",
            "outputs": [
                {
                    "internalType": "bytes32",
                    "name": "",
                    "type": "bytes32"
                }
            ],
            "stateMutability": "view",
            "type": "function"
        },
        {
            "inputs": [],
            "name": "STREAM_MANAGER_ROLE",
            "outputs": [
                {
                    "internalType": "bytes32",
                    "name": "",
                    "type": "bytes32"
                }
            ],
            "stateMutability": "view",
            "type": "function"
        },
        {
            "inputs": [],
            "name": "TREASURY_ROLE",
            "outputs": [
                {
                    "internalType": "bytes32",
                    "name": "",
                    "type": "bytes32"
                }
            ],
            "stateMutability": "view",
            "type": "function"
        },
        {
            "inputs": [
                {
                    "internalType": "uint256",
                    "name": "flags",
                    "type": "uint256"
                }
            ],
            "name": "adminPause",
            "outputs": [],
            "stateMutability": "nonpayable",
            "type": "function"
        },
        {
            "inputs": [
                {
                    "internalType": "uint256",
                    "name": "streamId",
                    "type": "uint256"
                }
            ],
            "name": "cancelStreamProposal",
            "outputs": [],
            "stateMutability": "nonpayable",
            "type": "function"
        },
        {
            "inputs": [
                {
                    "internalType": "uint256",
                    "name": "streamId",
                    "type": "uint256"
                }
            ],
            "name": "claimAllLockRewardsForStream",
            "outputs": [],
            "stateMutability": "nonpayable",
            "type": "function"
        },
        {
            "inputs": [
                {
                    "internalType": "uint256",
                    "name": "lockId",
                    "type": "uint256"
                }
            ],
            "name": "claimAllStreamRewardsForLock",
            "outputs": [],
            "stateMutability": "nonpayable",
            "type": "function"
        },
        {
            "inputs": [
                {
                    "internalType": "uint256",
                    "name": "amount",
                    "type": "uint256"
                },
                {
                    "internalType": "uint256",
                    "name": "lockPeriod",
                    "type": "uint256"
                }
            ],
            "name": "createLock",
            "outputs": [],
            "stateMutability": "nonpayable",
            "type": "function"
        },
        {
            "inputs": [
                {
                    "internalType": "uint256",
                    "name": "amount",
                    "type": "uint256"
                },
                {
                    "internalType": "uint256",
                    "name": "lockPeriod",
                    "type": "uint256"
                }
            ],
            "name": "createLockWithoutEarlyWithdrawal",
            "outputs": [],
            "stateMutability": "nonpayable",
            "type": "function"
        },
        {
            "inputs": [
                {
                    "components": [
                        {
                            "internalType": "uint256",
                            "name": "amount",
                            "type": "uint256"
                        },
                        {
                            "internalType": "uint256",
                            "name": "lockPeriod",
                            "type": "uint256"
                        },
                        {
                            "internalType": "address",
                            "name": "account",
                            "type": "address"
                        }
                    ],
                    "internalType": "struct CreateLockParams[]",
                    "name": "lockParams",
                    "type": "tuple[]"
                }
            ],
            "name": "createLocksForCouncils",
            "outputs": [],
            "stateMutability": "nonpayable",
            "type": "function"
        },
        {
            "inputs": [
                {
                    "internalType": "uint256",
                    "name": "streamId",
                    "type": "uint256"
                },
                {
                    "internalType": "uint256",
                    "name": "rewardTokenAmount",
                    "type": "uint256"
                }
            ],
            "name": "createStream",
            "outputs": [],
            "stateMutability": "nonpayable",
            "type": "function"
        },
        {
            "inputs": [
                {
                    "internalType": "uint256",
                    "name": "lockId",
                    "type": "uint256"
                }
            ],
            "name": "earlyUnlock",
            "outputs": [],
            "stateMutability": "nonpayable",
            "type": "function"
        },
        {
            "inputs": [],
            "name": "emergencyUnlockAndWithdraw",
            "outputs": [],
            "stateMutability": "nonpayable",
            "type": "function"
        },
        {
            "inputs": [
                {
                    "internalType": "address",
                    "name": "account",
                    "type": "address"
                }
            ],
            "name": "getAllLocks",
            "outputs": [
                {
                    "components": [
                        {
                            "internalType": "uint128",
                            "name": "amountOfToken",
                            "type": "uint128"
                        },
                        {
                            "internalType": "uint128",
                            "name": "positionStreamShares",
                            "type": "uint128"
                        },
                        {
                            "internalType": "uint64",
                            "name": "end",
                            "type": "uint64"
                        },
                        {
                            "internalType": "address",
                            "name": "owner",
                            "type": "address"
                        },
                        {
                            "internalType": "uint256",
                            "name": "amountOfVoteToken",
                            "type": "uint256"
                        }
                    ],
                    "internalType": "struct LockedBalance[]",
                    "name": "",
                    "type": "tuple[]"
                }
            ],
            "stateMutability": "view",
            "type": "function"
        },
        {
            "inputs": [
                {
                    "internalType": "bytes32",
                    "name": "role",
                    "type": "bytes32"
                }
            ],
            "name": "getRoleAdmin",
            "outputs": [
                {
                    "internalType": "bytes32",
                    "name": "",
                    "type": "bytes32"
                }
            ],
            "stateMutability": "view",
            "type": "function"
        },
        {
            "inputs": [
                {
                    "internalType": "uint256",
                    "name": "streamId",
                    "type": "uint256"
                }
            ],
            "name": "getStream",
            "outputs": [
                {
                    "internalType": "uint256",
                    "name": "rewardDepositAmount",
                    "type": "uint256"
                },
                {
                    "internalType": "uint256",
                    "name": "rewardClaimedAmount",
                    "type": "uint256"
                },
                {
                    "internalType": "uint256",
                    "name": "rps",
                    "type": "uint256"
                },
                {
                    "internalType": "enum StreamStatus",
                    "name": "status",
                    "type": "uint8"
                }
            ],
            "stateMutability": "view",
            "type": "function"
        },
        {
            "inputs": [
                {
                    "internalType": "uint256",
                    "name": "streamId",
                    "type": "uint256"
                },
                {
                    "internalType": "address",
                    "name": "account",
                    "type": "address"
                },
                {
                    "internalType": "uint256",
                    "name": "lockId",
                    "type": "uint256"
                }
            ],
            "name": "getStreamClaimableAmountPerLock",
            "outputs": [
                {
                    "internalType": "uint256",
                    "name": "",
                    "type": "uint256"
                }
            ],
            "stateMutability": "view",
            "type": "function"
        },
        {
            "inputs": [
                {
                    "internalType": "uint256",
                    "name": "streamId",
                    "type": "uint256"
                }
            ],
            "name": "getStreamSchedule",
            "outputs": [
                {
                    "internalType": "uint256[]",
                    "name": "scheduleTimes",
                    "type": "uint256[]"
                },
                {
                    "internalType": "uint256[]",
                    "name": "scheduleRewards",
                    "type": "uint256[]"
                }
            ],
            "stateMutability": "view",
            "type": "function"
        },
        {
            "inputs": [
                {
                    "internalType": "address",
                    "name": "account",
                    "type": "address"
                },
                {
                    "internalType": "uint256",
                    "name": "streamId",
                    "type": "uint256"
                }
            ],
            "name": "getUsersPendingRewards",
            "outputs": [
                {
                    "internalType": "uint256",
                    "name": "",
                    "type": "uint256"
                }
            ],
            "stateMutability": "view",
            "type": "function"
        },
        {
            "inputs": [
                {
                    "internalType": "bytes32",
                    "name": "role",
                    "type": "bytes32"
                },
                {
                    "internalType": "address",
                    "name": "account",
                    "type": "address"
                }
            ],
            "name": "grantRole",
            "outputs": [],
            "stateMutability": "nonpayable",
            "type": "function"
        },
        {
            "inputs": [
                {
                    "internalType": "bytes32",
                    "name": "role",
                    "type": "bytes32"
                },
                {
                    "internalType": "address",
                    "name": "account",
                    "type": "address"
                }
            ],
            "name": "hasRole",
            "outputs": [
                {
                    "internalType": "bool",
                    "name": "",
                    "type": "bool"
                }
            ],
            "stateMutability": "view",
            "type": "function"
        },
        {
            "inputs": [
                {
                    "internalType": "address",
                    "name": "_owner",
                    "type": "address"
                },
                {
                    "internalType": "uint256[]",
                    "name": "scheduleTimes",
                    "type": "uint256[]"
                },
                {
                    "internalType": "uint256[]",
                    "name": "scheduleRewards",
                    "type": "uint256[]"
                },
                {
                    "internalType": "uint256",
                    "name": "tau",
                    "type": "uint256"
                }
            ],
            "name": "initializeMainStream",
            "outputs": [],
            "stateMutability": "nonpayable",
            "type": "function"
        },
        {
            "inputs": [
                {
                    "internalType": "address",
                    "name": "_admin",
                    "type": "address"
                },
                {
                    "internalType": "address",
                    "name": "_vault",
                    "type": "address"
                },
                {
                    "internalType": "address",
                    "name": "_treasury",
                    "type": "address"
                },
                {
                    "internalType": "address",
                    "name": "_mainToken",
                    "type": "address"
                },
                {
                    "internalType": "address",
                    "name": "_voteToken",
                    "type": "address"
                },
                {
                    "components": [
                        {
                            "internalType": "uint32",
                            "name": "maxWeightShares",
                            "type": "uint32"
                        },
                        {
                            "internalType": "uint32",
                            "name": "minWeightShares",
                            "type": "uint32"
                        },
                        {
                            "internalType": "uint32",
                            "name": "maxWeightPenalty",
                            "type": "uint32"
                        },
                        {
                            "internalType": "uint32",
                            "name": "minWeightPenalty",
                            "type": "uint32"
                        },
                        {
                            "internalType": "uint32",
                            "name": "penaltyWeightMultiplier",
                            "type": "uint32"
                        }
                    ],
                    "internalType": "struct Weight",
                    "name": "_weight",
                    "type": "tuple"
                },
                {
                    "components": [
                        {
                            "internalType": "uint32",
                            "name": "voteShareCoef",
                            "type": "uint32"
                        },
                        {
                            "internalType": "uint32",
                            "name": "voteLockCoef",
                            "type": "uint32"
                        }
                    ],
                    "internalType": "struct VoteCoefficient",
                    "name": "voteCoef",
                    "type": "tuple"
                },
                {
                    "internalType": "uint256",
                    "name": "_maxLocks",
                    "type": "uint256"
                },
                {
                    "internalType": "address",
                    "name": "_rewardsContract",
                    "type": "address"
                },
                {
                    "internalType": "uint256",
                    "name": "_minLockPeriod",
                    "type": "uint256"
                }
            ],
            "name": "initializeStaking",
            "outputs": [],
            "stateMutability": "nonpayable",
            "type": "function"
        },
        {
            "inputs": [],
            "name": "mainToken",
            "outputs": [
                {
                    "internalType": "address",
                    "name": "",
                    "type": "address"
                }
            ],
            "stateMutability": "view",
            "type": "function"
        },
        {
            "inputs": [],
            "name": "maxLockPeriod",
            "outputs": [
                {
                    "internalType": "uint256",
                    "name": "",
                    "type": "uint256"
                }
            ],
            "stateMutability": "view",
            "type": "function"
        },
        {
            "inputs": [],
            "name": "maxLockPositions",
            "outputs": [
                {
                    "internalType": "uint256",
                    "name": "",
                    "type": "uint256"
                }
            ],
            "stateMutability": "view",
            "type": "function"
        },
        {
            "inputs": [],
            "name": "minLockPeriod",
            "outputs": [
                {
                    "internalType": "uint256",
                    "name": "",
                    "type": "uint256"
                }
            ],
            "stateMutability": "view",
            "type": "function"
        },
        {
            "inputs": [],
            "name": "paused",
            "outputs": [
                {
                    "internalType": "uint256",
                    "name": "",
                    "type": "uint256"
                }
            ],
            "stateMutability": "view",
            "type": "function"
        },
        {
            "inputs": [
                {
                    "internalType": "address",
                    "name": "streamOwner",
                    "type": "address"
                },
                {
                    "internalType": "address",
                    "name": "rewardToken",
                    "type": "address"
                },
                {
                    "internalType": "uint256",
                    "name": "percentToTreasury",
                    "type": "uint256"
                },
                {
                    "internalType": "uint256",
                    "name": "maxDepositAmount",
                    "type": "uint256"
                },
                {
                    "internalType": "uint256",
                    "name": "minDepositAmount",
                    "type": "uint256"
                },
                {
                    "internalType": "uint256[]",
                    "name": "scheduleTimes",
                    "type": "uint256[]"
                },
                {
                    "internalType": "uint256[]",
                    "name": "scheduleRewards",
                    "type": "uint256[]"
                },
                {
                    "internalType": "uint256",
                    "name": "tau",
                    "type": "uint256"
                }
            ],
            "name": "proposeStream",
            "outputs": [],
            "stateMutability": "nonpayable",
            "type": "function"
        },
        {
            "inputs": [
                {
                    "internalType": "uint256",
                    "name": "streamId",
                    "type": "uint256"
                },
                {
                    "internalType": "address",
                    "name": "streamFundReceiver",
                    "type": "address"
                }
            ],
            "name": "removeStream",
            "outputs": [],
            "stateMutability": "nonpayable",
            "type": "function"
        },
        {
            "inputs": [
                {
                    "internalType": "bytes32",
                    "name": "role",
                    "type": "bytes32"
                },
                {
                    "internalType": "address",
                    "name": "account",
                    "type": "address"
                }
            ],
            "name": "renounceRole",
            "outputs": [],
            "stateMutability": "nonpayable",
            "type": "function"
        },
        {
            "inputs": [
                {
                    "internalType": "bytes32",
                    "name": "role",
                    "type": "bytes32"
                },
                {
                    "internalType": "address",
                    "name": "account",
                    "type": "address"
                }
            ],
            "name": "revokeRole",
            "outputs": [],
            "stateMutability": "nonpayable",
            "type": "function"
        },
        {
            "inputs": [],
            "name": "rewardsCalculator",
            "outputs": [
                {
                    "internalType": "address",
                    "name": "",
                    "type": "address"
                }
            ],
            "stateMutability": "view",
            "type": "function"
        },
        {
            "inputs": [
                {
                    "internalType": "uint256",
                    "name": "newMaxLockPositions",
                    "type": "uint256"
                }
            ],
            "name": "setMaxLockPositions",
            "outputs": [],
            "stateMutability": "nonpayable",
            "type": "function"
        },
        {
            "inputs": [
                {
                    "internalType": "uint256",
                    "name": "_minLockPeriod",
                    "type": "uint256"
                }
            ],
            "name": "setMinimumLockPeriod",
            "outputs": [],
            "stateMutability": "nonpayable",
            "type": "function"
        },
        {
            "inputs": [
                {
                    "internalType": "address",
                    "name": "newTreasury",
                    "type": "address"
                }
            ],
            "name": "setTreasuryAddress",
            "outputs": [],
            "stateMutability": "nonpayable",
            "type": "function"
        },
        {
            "inputs": [
                {
                    "internalType": "uint256",
                    "name": "",
                    "type": "uint256"
                }
            ],
            "name": "streamTotalUserPendings",
            "outputs": [
                {
                    "internalType": "uint256",
                    "name": "",
                    "type": "uint256"
                }
            ],
            "stateMutability": "view",
            "type": "function"
        },
        {
            "inputs": [
                {
                    "internalType": "bytes4",
                    "name": "interfaceId",
                    "type": "bytes4"
                }
            ],
            "name": "supportsInterface",
            "outputs": [
                {
                    "internalType": "bool",
                    "name": "",
                    "type": "bool"
                }
            ],
            "stateMutability": "view",
            "type": "function"
        },
        {
            "inputs": [],
            "name": "totalAmountOfStakedToken",
            "outputs": [
                {
                    "internalType": "uint256",
                    "name": "",
                    "type": "uint256"
                }
            ],
            "stateMutability": "view",
            "type": "function"
        },
        {
            "inputs": [],
            "name": "totalAmountOfVoteToken",
            "outputs": [
                {
                    "internalType": "uint256",
                    "name": "",
                    "type": "uint256"
                }
            ],
            "stateMutability": "view",
            "type": "function"
        },
        {
            "inputs": [],
            "name": "totalPenaltyBalance",
            "outputs": [
                {
                    "internalType": "uint256",
                    "name": "",
                    "type": "uint256"
                }
            ],
            "stateMutability": "view",
            "type": "function"
        },
        {
            "inputs": [],
            "name": "totalStreamShares",
            "outputs": [
                {
                    "internalType": "uint256",
                    "name": "",
                    "type": "uint256"
                }
            ],
            "stateMutability": "view",
            "type": "function"
        },
        {
            "inputs": [],
            "name": "treasury",
            "outputs": [
                {
                    "internalType": "address",
                    "name": "",
                    "type": "address"
                }
            ],
            "stateMutability": "view",
            "type": "function"
        },
        {
            "inputs": [
                {
                    "internalType": "uint256",
                    "name": "lockId",
                    "type": "uint256"
                }
            ],
            "name": "unlock",
            "outputs": [],
            "stateMutability": "nonpayable",
            "type": "function"
        },
        {
            "inputs": [
                {
                    "internalType": "uint256",
                    "name": "lockId",
                    "type": "uint256"
                },
                {
                    "internalType": "uint256",
                    "name": "amount",
                    "type": "uint256"
                }
            ],
            "name": "unlockPartially",
            "outputs": [],
            "stateMutability": "nonpayable",
            "type": "function"
        },
        {
            "inputs": [
                {
                    "internalType": "address",
                    "name": "_vault",
                    "type": "address"
                }
            ],
            "name": "updateVault",
            "outputs": [],
            "stateMutability": "nonpayable",
            "type": "function"
        },
        {
            "inputs": [
                {
                    "internalType": "address",
                    "name": "",
                    "type": "address"
                }
            ],
            "name": "users",
            "outputs": [
                {
                    "internalType": "uint256",
                    "name": "voteTokenBalance",
                    "type": "uint256"
                }
            ],
            "stateMutability": "view",
            "type": "function"
        },
        {
            "inputs": [],
            "name": "vault",
            "outputs": [
                {
                    "internalType": "address",
                    "name": "",
                    "type": "address"
                }
            ],
            "stateMutability": "view",
            "type": "function"
        },
        {
            "inputs": [],
            "name": "voteToken",
            "outputs": [
                {
                    "internalType": "address",
                    "name": "",
                    "type": "address"
                }
            ],
            "stateMutability": "view",
            "type": "function"
        },
        {
            "inputs": [],
            "name": "weight",
            "outputs": [
                {
                    "internalType": "uint32",
                    "name": "maxWeightShares",
                    "type": "uint32"
                },
                {
                    "internalType": "uint32",
                    "name": "minWeightShares",
                    "type": "uint32"
                },
                {
                    "internalType": "uint32",
                    "name": "maxWeightPenalty",
                    "type": "uint32"
                },
                {
                    "internalType": "uint32",
                    "name": "minWeightPenalty",
                    "type": "uint32"
                },
                {
                    "internalType": "uint32",
                    "name": "penaltyWeightMultiplier",
                    "type": "uint32"
                }
            ],
            "stateMutability": "view",
            "type": "function"
        },
        {
            "inputs": [],
            "name": "withdrawAllStreams",
            "outputs": [],
            "stateMutability": "nonpayable",
            "type": "function"
        },
        {
            "inputs": [],
            "name": "withdrawPenalty",
            "outputs": [],
            "stateMutability": "nonpayable",
            "type": "function"
        },
        {
            "inputs": [
                {
                    "internalType": "uint256",
                    "name": "streamId",
                    "type": "uint256"
                }
            ],
            "name": "withdrawStream",
            "outputs": [],
            "stateMutability": "nonpayable",
            "type": "function"
        }
    ],
    "bytecode": "0x60806040523480156200001157600080fd5b506200001c62000022565b62000112565b601554610100900460ff1615620000565760405162461bcd60e51b81526004016200004d90620000b0565b60405180910390fd5b60155460ff9081161015620000ae576015805460ff191660ff9081179091556040517f7f26b83ff96e1f2b6a682f133852f6798a09c465da95921460cefb384740249891620000a59162000102565b60405180910390a15b565b60208082528101620000fc81602781527f496e697469616c697a61626c653a20636f6e747261637420697320696e697469602082015266616c697a696e6760c81b604082015260600190565b92915050565b60ff8216815260208101620000fc565b615f3b80620001226000396000f3fe608060405234801561001057600080fd5b50600436106102e25760003560e01c806373ae54b511610188578063a8d85f70116100e4578063d547741f11610092578063d547741f14610706578063ddcf3e2914610719578063e7563f3f1461072c578063eb6a97171461073f578063f1807b7014610747578063f60403731461074f578063fbfa77cf1461075857600080fd5b8063a8d85f7014610686578063b0abc981146106a6578063b52c05fe146106af578063bd5cf8ff146106c2578063cedb6668146106cb578063cf04a19d146106de578063d11a57ec146106f157600080fd5b806391d148541161014157806391d14854146105ba5780639403830e146105cd578063a1aab33f146105e0578063a217fddf1461062b578063a313288014610633578063a87430ba14610646578063a8cbd3c71461066657600080fd5b806373ae54b51461051b578063894e9a0d146105245780638ca6ce11146105475780638d40bd031461055a578063904033221461056d578063911328121461058057600080fd5b8063389ed267116102425780635f7461d6116101f05780635f7461d6146104925780636198e339146104a557806361d027b3146104b85780636605bfda146104cb5780636d878d10146104de5780636db8e53d146104f157806370bc770c146104fa57600080fd5b8063389ed267146104155780633a3f15111461043c5780633ba31abf146104455780633ea005c8146104585780633fc15f151461046d5780634b1d29b4146104805780635c975abb1461048957600080fd5b80631d9755cb1161029f5780631d9755cb14610373578063248a9ca3146103865780632692c59f146103b65780632f2ff15d146103c957806336085c51146103dc57806336568abe146103ef578063382a71931461040257600080fd5b806301ffc9a7146102e75780630b881567146103105780631194ebeb146103255780631556578b14610338578063160d66ae1461034b5780631a1ce2fc1461036b575b600080fd5b6102fa6102f5366004614db6565b61076b565b6040516103079190614de1565b60405180910390f35b61032361031e366004614e55565b6107a2565b005b610323610333366004614f84565b6109b2565b610323610346366004615062565b610d9d565b600c5461035e906001600160a01b031681565b604051610307919061508c565b610323610dd1565b61032361038136600461509a565b610e5c565b6103a9610394366004615062565b6000908152607a602052604090206001015490565b6040516103079190615140565b6103236103c4366004615062565b6112a9565b6103236103d736600461514e565b6112dc565b6103236103ea366004615062565b611306565b6103236103fd36600461514e565b611400565b610323610410366004615062565b611432565b6103a97f139c2898040ef16910dc9f44dc697df79363da767d8bc92f2e310312b816e46d81565b6103a960025481565b61032361045336600461514e565b611544565b6103a9600080516020615ec683398151915281565b600b5461035e906001600160a01b031681565b6103a960005481565b6103a960ac5481565b6103236104a0366004615062565b61177c565b6103236104b3366004615062565b61181a565b600f5461035e906001600160a01b031681565b6103236104d936600461518b565b611914565b600e5461035e906001600160a01b031681565b6103a960065481565b61050d610508366004615062565b6119a6565b604051610307929190615209565b6103a960015481565b610537610532366004615062565b611aa4565b6040516103079493929190615277565b6103236105553660046152ac565b611b00565b6103236105683660046152ac565b611bfb565b61032361057b366004615062565b611f2f565b6103a961058e3660046152df565b6001600160a01b0391909116600090815260116020908152604080832093835260019093019052205490565b6102fa6105c836600461514e565b612001565b6103236105db3660046152ac565b61202c565b60105461061a9063ffffffff80821691600160201b8104821691600160401b8204811691600160601b8104821691600160801b9091041685565b60405161030795949392919061530d565b6103a9600081565b6103236106413660046153a3565b6120b5565b6103a961065436600461518b565b60116020526000908152604090205481565b6103a9610674366004615062565b60146020526000908152604090205481565b61069961069436600461518b565b6121e1565b60405161030791906154b7565b6103a960055481565b6103236106bd3660046152ac565b6122a7565b6103a960075481565b6103236106d9366004615062565b6122e9565b6103236106ec366004615062565b612332565b6103a9600080516020615ee683398151915281565b61032361071436600461514e565b612366565b6103a96107273660046154c8565b61238b565b61032361073a36600461518b565b6124f1565b61032361269d565b61032361278b565b6103a960085481565b600d5461035e906001600160a01b031681565b60006001600160e01b03198216637965db0b60e01b148061079c57506301ffc9a760e01b6001600160e01b03198316145b92915050565b601554610100900460ff16158080156107c25750601554600160ff909116105b806107dc5750303b1580156107dc575060155460ff166001145b6108015760405162461bcd60e51b81526004016107f890615566565b60405180910390fd5b6015805460ff191660011790558015610824576015805461ff0019166101001790555b600e80546001600160a01b0319166001600160a01b03851617905561088488888b610854368b90038b018b61566c565b8e8961086360208d018d61568d565b63ffffffff1661087960408e0160208f0161568d565b63ffffffff166128d1565b600d54604051630480051d60e31b81526001600160a01b039091169063240028e8906108b4908b9060040161508c565b602060405180830381865afa1580156108d1573d6000803e3d6000fd5b505050506040513d601f19601f820116820180604052508101906108f591906156c1565b6109125760405163350b944160e11b815260040160405180910390fd5b61091d60018c6129d2565b610935600080516020615ec68339815191528c612a3c565b61094d600080516020615ee68339815191528a612a3c565b6301e13380600055600182905580156109a5576015805461ff00191690556040517f7f26b83ff96e1f2b6a682f133852f6798a09c465da95921460cefb38474024989061099c906001906156ff565b60405180910390a15b5050505050505050505050565b600080516020615ec68339815191526109ca81612ac2565b610a3e8b8b8b8b8b8b8b8080602002602001604051908101604052809392919081815260200183836020028082843760009201919091525050604080516020808f0282810182019093528e82529093508e92508d9182918501908490808284376000920191909152508c9250612acf915050565b600d54604051630480051d60e31b81526001600160a01b039091169063240028e890610a6e908d9060040161508c565b602060405180830381865afa158015610a8b573d6000803e3d6000fd5b505050506040513d601f19601f82011682018060405250810190610aaf91906156c1565b610acc5760405163350b944160e11b815260040160405180910390fd5b604080516060602088028083018201845292820188815260009383928b918b918291908601908490808284376000920191909152505050908252506040805160208881028281018201909352888252928301929091899189918291850190849080828437600081840152601f19601f8201169050808301925050505050505081525090506000601280549050905060126040518061018001604052808f6001600160a01b03168152602001336001600160a01b031681526020018d81526020018e6001600160a01b0316815260200160016002811115610bae57610bae61522e565b815260200160008152602001600081526020018c81526020018b8152602001868152602001600081526020018481525090806001815401808255809150506001900390600052602060002090600c020160009091909190915060008201518160000160006101000a8154816001600160a01b0302191690836001600160a01b0316021790555060208201518160010160006101000a8154816001600160a01b0302191690836001600160a01b031602179055506040820151816002015560608201518160030160006101000a8154816001600160a01b0302191690836001600160a01b0316021790555060808201518160030160146101000a81548160ff02191690836002811115610cc257610cc261522e565b021790555060a0820151600482015560c0820151600582015560e0820151600682015561010082015160078201556101208201516008820155610140820151600982015561016082015180518051600a840191610d2491839160200190614d3d565b506020828101518051610d3d9260018501920190614d3d565b50505050508b6001600160a01b03168d6001600160a01b0316827f16284487ea0f1368a3aac8128c3dd7d8e577839303a834c010386a8aea2265708d604051610d869190615140565b60405180910390a450505050505050505050505050565b6000610da881612ac2565b600254821015610dcb576040516321c04e1560e01b815260040160405180910390fd5b50600255565b60018060ac541660001480610dec5750610dec600033612001565b610e085760405162461bcd60e51b81526004016107f890615736565b600080516020615ee6833981519152610e2081612ac2565b600854600003610e4357604051635cc6486f60e01b815260040160405180910390fd5b600f54610e58906001600160a01b0316612b47565b5050565b6000610e6781612ac2565b600f54600160a01b900460ff161515600103610e955760405162dc149f60e41b815260040160405180910390fd5b610eca333086866000818110610ead57610ead615746565b600b546001600160a01b0316949392602090910201359050612bbf565b600b54610f7b9088906001600160a01b0316600087878281610eee57610eee615746565b9050602002013588886000818110610f0857610f08615746565b905060200201358b8b8080602002602001604051908101604052809392919081815260200183836020028082843760009201919091525050604080516020808f0282810182019093528e82529093508e92508d9182918501908490808284376000920191909152508c9250612acf915050565b600080604051806040016040528089898080602002602001604051908101604052809392919081815260200183836020028082843760009201919091525050509082525060408051602089810282810182019093528982529283019290918a918a918291850190849080828437600092018290525093909452505060408051610180810182526001600160a01b03808f16808352602083015291810192909252600b54166060820152919250601291905060808101600281526020018888600081811061104a5761104a615746565b6020908102929092013583525060008282018190526040808401829052606080850183905260808086018c905260a0860184905260c0909501889052865460018082018955978452928490208651600c9094020180546001600160a01b03199081166001600160a01b039586161782559487015197810180548616988516989098179097559085015160028088019190915590850151600387018054948516919093169081178355938501519495949391926001600160a81b03191690911790600160a01b9084908111156111215761112161522e565b021790555060a0820151600482015560c0820151600582015560e0820151600682015561010082015160078201556101208201516008820155610140820151600982015561016082015180518051600a84019161118391839160200190614d3d565b50602082810151805161119c9260018501920190614d3d565b50505050506111ab6000612c17565b600f805460ff60a01b1916600160a01b179055600b546001600160a01b03908116908a16837f16284487ea0f1368a3aac8128c3dd7d8e577839303a834c010386a8aea226570898960008161120257611202615746565b905060200201356040516112169190615140565b60405180910390a4600b546040516001600160a01b03918216918b169084907f4396d7c3edc1447dac8dd2b7143af95840c926a210524a0d3198012c7fdf37c790611262908990615140565b60405180910390a461129e8686600081811061128057611280615746565b600b5460209091029290920135916001600160a01b03169050612c50565b505050505050505050565b7f139c2898040ef16910dc9f44dc697df79363da767d8bc92f2e310312b816e46d6112d381612ac2565b610e5882612c17565b6000828152607a60205260409020600101546112f781612ac2565b6113018383612a3c565b505050565b60018060ac5416600014806113215750611321600033612001565b61133d5760405162461bcd60e51b81526004016107f890615736565b61134682612cb7565b33600090815260036020908152604080832085845290915290205460ff16156113825760405163559f3e9960e11b815260040160405180910390fd5b33600090815260136020526040812061139c600185615772565b815481106113ac576113ac615746565b600091825260209091206003909102016001810154909150426001600160401b03909116116113ee57604051635d8e3e2960e11b815260040160405180910390fd5b6113f6612dab565b6113018333612e61565b6001600160a01b03811633146114285760405162461bcd60e51b81526004016107f8906157d1565b610e588282612f99565b60018060ac54166000148061144d575061144d600033612001565b6114695760405162461bcd60e51b81526004016107f890615736565b336000908152601160209081526040808320858452600181019092528220549091036114a85760405163214f008560e01b815260040160405180910390fd5b600083815260028201602052604090205442116114d8576040516309316dab60e41b815260040160405180910390fd5b6002601284815481106114ed576114ed615746565b90600052602060002090600c020160030160149054906101000a900460ff16600281111561151d5761151d61522e565b1461153b5760405163cb3c54e960e01b815260040160405180910390fd5b61130183613000565b600080516020615ec683398151915261155c81612ac2565b8260000361157d576040516327b92aab60e21b815260040160405180910390fd5b600083815260146020526040902054156115aa5760405163010de00360e71b815260040160405180910390fd5b6000601284815481106115bf576115bf615746565b60009182526020909120600c90910201905060026003820154600160a01b900460ff1660028111156115f3576115f361522e565b1461161157604051631b017f1760e11b815260040160405180910390fd5b60038101805460ff60a01b191690556005810154600482015460009161163691615772565b6003830154600d546040516370a0823160e01b81529293506000926001600160a01b03928316926370a08231926116729291169060040161508c565b602060405180830381865afa15801561168f573d6000803e3d6000fd5b505050506040513d601f19601f820116820180604052508101906116b391906157ec565b600d5460038501549192506001600160a01b039081169163da0c1a8891889116848611156116e157846116e3565b855b6040518463ffffffff1660e01b81526004016117019392919061580d565b600060405180830381600087803b15801561171b57600080fd5b505af115801561172f573d6000803e3d6000fd5b505050600384015484546040516001600160a01b03928316935091169088907f661da9ced4b5d786f5b5f451a5f68af24721a01b0a65bb47fa4fdf70b80b887c90600090a4505050505050565b60018060ac5416600014806117975750611797600033612001565b6117b35760405162461bcd60e51b81526004016107f890615736565b336000908152601360205260409020548211156117e757813360405163632eba3d60e11b81526004016107f8929190615835565b816000036118085760405163d7315a2d60e01b815260040160405180910390fd5b611810612dab565b610e583383613121565b60018060ac5416600014806118355750611835600033612001565b6118515760405162461bcd60e51b81526004016107f890615736565b61185a82612cb7565b336000908152601360205260408120611874600185615772565b8154811061188457611884615746565b600091825260209091206003909102016001810154909150426001600160401b0390911611156118c7576040516368ce0c1560e01b815260040160405180910390fd5b6118cf612dab565b80543360008181526003602090815260408083208884529091529020805460ff191690556001600160801b039091169061190e90829081908790613196565b50505050565b600061191f81612ac2565b6001600160a01b0382166119465760405163d92e233d60e01b815260040160405180910390fd5b600f5461196b90600080516020615ee6833981519152906001600160a01b0316612f99565b611983600080516020615ee683398151915283612a3c565b50600f80546001600160a01b0319166001600160a01b0392909216919091179055565b606080601283815481106119bc576119bc615746565b90600052602060002090600c0201600a01600001601284815481106119e3576119e3615746565b90600052602060002090600c0201600a0160010181805480602002602001604051908101604052809291908181526020018280548015611a4257602002820191906000526020600020905b815481526020019060010190808311611a2e575b5050505050915080805480602002602001604051908101604052809291908181526020018280548015611a9457602002820191906000526020600020905b815481526020019060010190808311611a80575b5050505050905091509150915091565b600080600080600060128681548110611abf57611abf615746565b90600052602060002090600c020190508060040154816005015482600901548360030160149054906101000a900460ff169450945094509450509193509193565b60018060ac541660001480611b1b5750611b1b600033612001565b611b375760405162461bcd60e51b81526004016107f890615736565b611b4083612cb7565b336000908152601360205260408120611b5a600186615772565b81548110611b6a57611b6a615746565b600091825260209091206003909102016001810154909150426001600160401b039091161115611bad5760405163342ad40160e11b815260040160405180910390fd5b611bb5612dab565b80543360008181526003602090815260408083208984529091529020805460ff191690556001600160801b0390911690611bf490829086908890613196565b5050505050565b60018060ac541660001480611c165750611c16600033612001565b611c325760405162461bcd60e51b81526004016107f890615736565b600060128481548110611c4757611c47615746565b60009182526020918290206040805161018081018252600c90930290910180546001600160a01b039081168452600182015481169484019490945260028082015492840192909252600381015493841660608401529350611ddf928491608084019160ff600160a01b9091041690811115611cc457611cc461522e565b6002811115611cd557611cd561522e565b8152602001600482015481526020016005820154815260200160068201548152602001600782015481526020016008820154815260200160098201548152602001600a820160405180604001604052908160008201805480602002602001604051908101604052809291908181526020018280548015611d7457602002820191906000526020600020905b815481526020019060010190808311611d60575b5050505050815260200160018201805480602002602001604051908101604052809291908181526020018280548015611dcc57602002820191906000526020600020905b815481526020019060010190808311611db8575b5050505050815250508152505084613347565b6003810154611df9906001600160a01b0316333086612bbf565b60038101805460ff60a01b1916600160a11b179055600281015460009061271090611e25908690615850565b611e2f9190615885565b9050611e3b8185615772565b6004830181905560068301541115611e5b57611e5b858360040154613436565b6004820154600b83018054600090611e7557611e75615746565b906000526020600020015414611e9e576040516305fb017960e41b815260040160405180910390fd5b6003820154825460088401546040516001600160a01b03938416939092169188917f4396d7c3edc1447dac8dd2b7143af95840c926a210524a0d3198012c7fdf37c791611eeb9190615140565b60405180910390a4600f546003830154611f12916001600160a01b0391821691168361353c565b60048201546003830154611bf491906001600160a01b0316612c50565b600080516020615ec6833981519152611f4781612ac2565b600060128381548110611f5c57611f5c615746565b60009182526020909120600c90910201905060016003820154600160a01b900460ff166002811115611f9057611f9061522e565b14611fae576040516379543eaf60e11b815260040160405180910390fd5b60038101805460ff60a01b19811690915581546040516001600160a01b03928316929091169085907ffadbcbd495527ce5e10fd0cceba57d404a4625dd6ce0499c254ac523789ef3ad90600090a4505050565b6000918252607a602090815260408084206001600160a01b0393909316845291905290205460ff1690565b60018060ac5416600014806120475750612047600033612001565b6120635760405162461bcd60e51b81526004016107f890615736565b33600090815260036020908152604080832060139092528220546001929061208b9084615899565b81526020810191909152604001600020805460ff191691151591909117905561130183833361355b565b60006120c081612ac2565b600e54600160a01b900460ff1615156001036120ee5760405162dc149f60e41b815260040160405180910390fd5b600e805460ff60a01b1916600160a01b17905560005b8281101561190e57600084848381811061212057612120615746565b9050606002016040016020810190612138919061518b565b6001600160a01b0381166000908152600360209081526040808320601390925282205492935060019290919061216e9084615899565b81526020810191909152604001600020805460ff19169115159190911790556121ce8585848181106121a2576121a2615746565b905060600201600001358686858181106121be576121be615746565b905060600201602001358361355b565b50806121d9816158ac565b915050612104565b6001600160a01b0381166000908152601360209081526040808320805482518185028101850190935280835260609492939192909184015b8282101561229c5760008481526020908190206040805160a0810182526003860290920180546001600160801b038082168552600160801b90910416838501526001808201546001600160401b03811693850193909352600160401b9092046001600160a01b031660608401526002015460808301529083529092019101612219565b505050509050919050565b60018060ac5416600014806122c257506122c2600033612001565b6122de5760405162461bcd60e51b81526004016107f890615736565b61130183833361355b565b60018060ac5416600014806123045750612304600033612001565b6123205760405162461bcd60e51b81526004016107f890615736565b612328612dab565b610e58338361363f565b600061233d81612ac2565b60005482111561236057604051639ab093af60e01b815260040160405180910390fd5b50600155565b6000828152607a602052604090206001015461238181612ac2565b6113018383612f99565b60006002601285815481106123a2576123a2615746565b90600052602060002090600c020160030160149054906101000a900460ff1660028111156123d2576123d261522e565b146123f05760405163439022eb60e11b815260040160405180910390fd5b6001600160a01b03831660009081526013602052604090205482111561242957604051636646ea1960e11b815260040160405180910390fd5b600061243485613705565b6001600160a01b03851660009081526011602090815260408083206013909252822092935091612465600187615772565b8154811061247557612475615746565b600091825260208083208884526003868101835260408086208d8752909352919093205491029091018054909250600160801b90046001600160801b03166ec097ce7bc90715b34b9f1000000000816124ce8488615772565b6124d89190615850565b6124e29190615885565b955050505050505b9392505050565b60006124fc81612ac2565b60ac5460000361251f57604051636cd6020160e01b815260040160405180910390fd5b6001600160a01b0382166125465760405163d92e233d60e01b815260040160405180910390fd5b6040516301ffc9a760e01b81526001600160a01b038316906301ffc9a79061257990633485434760e11b906004016158d6565b602060405180830381865afa158015612596573d6000803e3d6000fd5b505050506040513d601f19601f820116820180604052508101906125ba91906156c1565b6125d957816040516363f1f03760e01b81526004016107f8919061508c565b600d60009054906101000a90046001600160a01b03166001600160a01b0316632c678c646040518163ffffffff1660e01b8152600401602060405180830381865afa15801561262c573d6000803e3d6000fd5b505050506040513d601f19601f8201168201806040525081019061265091906156c1565b61267a57600d5460405163cec27f4760e01b81526107f8916001600160a01b03169060040161508c565b50600d80546001600160a01b0319166001600160a01b0392909216919091179055565b60018060ac5416600014806126b857506126b8600033612001565b6126d45760405162461bcd60e51b81526004016107f890615736565b336000908152601160205260408120905b6012548110156113015760008181526001830160205260409020541580159061271d5750600081815260028301602052604090205442115b801561276b575060026012828154811061273957612739615746565b90600052602060002090600c020160030160149054906101000a900460ff1660028111156127695761276961522e565b145b156127795761277981613000565b80612783816158ac565b9150506126e5565b60ac546000036127ae57604051636cd6020160e01b815260040160405180910390fd5b336000908152601160209081526040808320601390925290912054805b60018110612842576127dd3382613121565b3360009081526013602052604081206127f7600184615772565b8154811061280757612807615746565b60009182526020909120600390910201546001600160801b0316905061282f81808433613196565b508061283a816158e4565b9150506127cb565b5060005b601254811015611301576000818152600184016020526040902054158015906128b1575060026012828154811061287f5761287f615746565b90600052602060002090600c020160030160149054906101000a900460ff1660028111156128af576128af61522e565b145b156128bf576128bf81613000565b806128c9816158ac565b915050612846565b6128df88888888888661378c565b600b80546001600160a01b03199081166001600160a01b039a8b1617909155600c80548216988a1698909817909755600f805488169689169690961790955583516010805460208701516040880151606089015160809099015163ffffffff95861667ffffffffffffffff1990941693909317600160201b928616929092029190911767ffffffffffffffff60401b1916600160401b9185169190910263ffffffff60601b191617600160601b978416979097029690961763ffffffff60801b1916600160801b929096169190910294909417909355600d80549095169190951617909255600292909255600955600a55565b601554610100900460ff166129f95760405162461bcd60e51b81526004016107f890615943565b612a016138ee565b612a0c600082612a3c565b612a367f139c2898040ef16910dc9f44dc697df79363da767d8bc92f2e310312b816e46d82612a3c565b5060ac55565b612a468282612001565b610e58576000828152607a602090815260408083206001600160a01b03851684529091529020805460ff19166001179055612a7e3390565b6001600160a01b0316816001600160a01b0316837f2f8788117e7eff1d82e926ec794901d17c78024a50270940304540a733656f0d60405160405180910390a45050565b612acc8133613917565b50565b600e54604051639d8efc3760e01b81526001600160a01b0390911690639d8efc3790612b0d908b908b908b908b908b908b908b908b90600401615953565b60006040518083038186803b158015612b2557600080fd5b505afa158015612b39573d6000803e3d6000fd5b505050505050505050505050565b600880546000909155600d54600b54604051631b41835160e31b81526001600160a01b039283169263da0c1a8892612b8992879290911690869060040161580d565b600060405180830381600087803b158015612ba357600080fd5b505af1158015612bb7573d6000803e3d6000fd5b505050505050565b61190e846323b872dd60e01b858585604051602401612be09392919061580d565b60408051601f198184030181529190526020810180516001600160e01b03166001600160e01b03199093169290921790915261397b565b60ac548181161480612c2f5750612c2f600033612001565b612c4b5760405162461bcd60e51b81526004016107f890615a05565b60ac55565b600d54612c6b906001600160a01b0383811691166000613a0a565b600d54612c85906001600160a01b03838116911684613a0a565b600d546040516311f9fbc960e21b81526001600160a01b03909116906347e7ef2490612b899084908690600401615a15565b80600003612cd85760405163d7315a2d60e01b815260040160405180910390fd5b33600090815260136020526040902054811115612d0c57803360405163632eba3d60e11b81526004016107f8929190615835565b336000908152601360205260408120612d26600184615772565b81548110612d3657612d36615746565b60009182526020909120600160039092020190810154909150600160401b90046001600160a01b03163314612d7e57604051630472b49d60e51b815260040160405180910390fd5b80546001600160801b0316600003610e58578160405163f19d752960e01b81526004016107f89190615140565b4260045403612db657565b60055415612e5b5760005b601254811015612e5957600260128281548110612de057612de0615746565b90600052602060002090600c020160030160149054906101000a900460ff166002811115612e1057612e1061522e565b03612e4757612e1e81613705565b60128281548110612e3157612e31615746565b90600052602060002090600c0201600901819055505b80612e51816158ac565b915050612dc1565b505b42600455565b6001600160a01b0381166000908152601360205260408120612e84600185615772565b81548110612e9457612e94615746565b60009182526020909120600390910201600181015481549192506001600160401b0316906001600160801b0316612ecd81808787613196565b6000612ed98342613abe565b90506000620186a0612eeb8484615850565b612ef59190615885565b6001600160a01b038716600090815260116020908152604080832083805260018101909252822080549394509092849290612f31908490615772565b9091555050600080805260146020527f4f26c3876aa9f4b92579780beea1161a61f87ebf1ec6ee865b299e447ecba99c8054849290612f71908490615772565b925050819055508160086000828254612f8a9190615899565b90915550505050505050505050565b612fa38282612001565b15610e58576000828152607a602090815260408083206001600160a01b0385168085529252808320805460ff1916905551339285917ff6391f5c32d9c69d2a47ea670b442974b53935d1edc7fd64eb21e047a839171b9190a45050565b336000908152601160209081526040808320848452600181018352818420805490859055601490935290832080549193839261303d908490615772565b9091555050604051339084907f3bfce8de0db7450cc169b94323c210e69a36c6a4a58c9f5d96bec4973adce39290613076908590615140565b60405180910390a3600d54601280546001600160a01b039092169163da0c1a88913391879081106130a9576130a9615746565b600091825260209091206003600c9092020101546040516001600160e01b031960e085901b1681526130ea92916001600160a01b031690869060040161580d565b600060405180830381600087803b15801561310457600080fd5b505af1158015613118573d6000803e3d6000fd5b50505050505050565b60125460005b8181101561190e5760026012828154811061314457613144615746565b90600052602060002090600c020160030160149054906101000a900460ff1660028111156131745761317461522e565b0361318457613184848285613b7a565b8061318e816158ac565b915050613127565b6001600160a01b0381166000908152601160209081526040808320601390925282209091906131c6600186615772565b815481106131d6576131d6615746565b9060005260206000209060030201905060055460000361320957604051635cf8d8a760e01b815260040160405180910390fd5b6002810180546000918290556007805491928392613228908490615772565b90915550508254600090821015613249578354613246908390615772565b90505b80845561325887898888613ed6565b600c546040516370a0823160e01b81526000916001600160a01b0316906370a082319061328990899060040161508c565b602060405180830381865afa1580156132a6573d6000803e3d6000fd5b505050506040513d601f19601f820116820180604052508101906132ca91906157ec565b9050828110156132d8578092505b600c54604051632770a7eb60e21b81526001600160a01b0390911690639dc29fac9061330a9089908790600401615a15565b600060405180830381600087803b15801561332457600080fd5b505af1158015613338573d6000803e3d6000fd5b50505050505050505050505050565b60018260800151600281111561335f5761335f61522e565b1461337d576040516379543eaf60e11b815260040160405180910390fd5b428261016001516000015160008151811061339a5761339a615746565b602002602001015110156133c1576040516328a7237960e01b815260040160405180910390fd5b81516001600160a01b031633146133eb576040516330cd747160e01b815260040160405180910390fd5b8160e00151811115613410576040516370ea9fa360e11b815260040160405180910390fd5b816101000151811015610e5857604051638969a67560e01b815260040160405180910390fd5b60006012838154811061344b5761344b615746565b600091825260208220600b600c90920201015491505b8181101561190e576012848154811061347c5761347c615746565b90600052602060002090600c02016006015483601286815481106134a2576134a2615746565b90600052602060002090600c0201600a0160010183815481106134c7576134c7615746565b90600052602060002001546134dc9190615850565b6134e69190615885565b601285815481106134f9576134f9615746565b90600052602060002090600c0201600a01600101828154811061351e5761351e615746565b60009182526020909120015580613534816158ac565b915050613461565b6113018363a9059cbb60e01b8484604051602401612be0929190615a15565b60015482101561357e5760405163183dd27d60e01b815260040160405180910390fd5b6002546001600160a01b03821660009081526013602052604090205411156135b957604051632a01dbab60e21b815260040160405180910390fd5b826000036135da57604051631f2a200560e01b815260040160405180910390fd5b6000548211156135fd57604051639ab093af60e01b815260040160405180910390fd5b600b54613615906001600160a01b0316333086612bbf565b61361d612dab565b6136288184846140d3565b600b546113019084906001600160a01b0316612c50565b60026012828154811061365457613654615746565b90600052602060002090600c020160030160149054906101000a900460ff1660028111156136845761368461522e565b146136a257604051633d47126760e01b815260040160405180910390fd5b6001600160a01b0382166000908152601360205260408120805490918190036136de57604051637dc6ce3b60e11b815260040160405180910390fd5b60015b818111611bf4576136f3858583613b7a565b806136fd816158ac565b9150506136e1565b600060065460000361372a5760405163b6311c8760e01b815260040160405180910390fd5b6006546ec097ce7bc90715b34b9f1000000000613749846004546142cd565b6137539190615850565b61375d9190615885565b6012838154811061377057613770615746565b90600052602060002090600c02016009015461079c9190615899565b6001600160a01b0386166137b35760405163d92e233d60e01b815260040160405180910390fd5b6001600160a01b0385166137da5760405163d92e233d60e01b815260040160405180910390fd5b6001600160a01b0382166138015760405163d92e233d60e01b815260040160405180910390fd5b6001600160a01b0384166138285760405163d92e233d60e01b815260040160405180910390fd5b826020015163ffffffff16836000015163ffffffff161161385c576040516302eba45360e51b815260040160405180910390fd5b826060015163ffffffff16836040015163ffffffff161161389057604051639fe24b6b60e01b815260040160405180910390fd5b620186a0836040015184608001516138a89190615a30565b63ffffffff1611156138cd576040516335e7c1c760e21b815260040160405180910390fd5b80600003612bb75760405163fa9d8a3560e01b815260040160405180910390fd5b601554610100900460ff166139155760405162461bcd60e51b81526004016107f890615943565b565b6139218282612001565b610e5857613939816001600160a01b03166014614367565b613944836020614367565b604051602001613955929190615aa4565b60408051601f198184030181529082905262461bcd60e51b82526107f891600401615b28565b60006139d0826040518060400160405280602081526020017f5361666545524332303a206c6f772d6c6576656c2063616c6c206661696c6564815250856001600160a01b03166144d29092919063ffffffff16565b80519091501561130157808060200190518101906139ee91906156c1565b6113015760405162461bcd60e51b81526004016107f890615b80565b801580613a835750604051636eb1769f60e11b81526001600160a01b0384169063dd62ed3e90613a409030908690600401615b90565b602060405180830381865afa158015613a5d573d6000803e3d6000fd5b505050506040513d601f19601f82011682018060405250810190613a8191906157ec565b155b613a9f5760405162461bcd60e51b81526004016107f890615bf1565b6113018363095ea7b360e01b8484604051602401612be0929190615a15565b600082808310613ad257600091505061079c565b6000613ade8483615772565b600054601054919250908290613b0a9063ffffffff600160601b8204811691600160401b900416615c01565b601054613b249190600160801b900463ffffffff16615a30565b63ffffffff16613b349190615850565b613b3e9190615885565b601054613b619063ffffffff600160601b8204811691600160801b900416615a30565b63ffffffff16613b719190615899565b95945050505050565b600260128381548110613b8f57613b8f615746565b90600052602060002090600c020160030160149054906101000a900460ff166002811115613bbf57613bbf61522e565b14613bdd57604051633d47126760e01b815260040160405180910390fd5b6001600160a01b0383166000908152601360205260408120613c00600184615772565b81548110613c1057613c10615746565b60009182526020822060039091020180549092506001600160801b03169003613c4c5760405163c95c74a560e01b815260040160405180910390fd5b6001600160a01b0384166000908152601160209081526040808320845486855260038201845282852088865290935290832054601280549294936ec097ce7bc90715b34b9f100000000093600160801b9091046001600160801b031692919089908110613cbb57613cbb615746565b90600052602060002090600c020160090154613cd79190615772565b613ce19190615850565b613ceb9190615885565b905080600003613cfd57505050505050565b60128581548110613d1057613d10615746565b90600052602060002090600c0201600401548160128781548110613d3657613d36615746565b90600052602060002090600c020160050154613d529190615899565b1115613d7157604051630109353560e01b815260040160405180910390fd5b600085815260018301602052604081208054839290613d91908490615899565b909155505060008581526014602052604081208054839290613db4908490615899565b90915550506012805486908110613dcd57613dcd615746565b600091825260208083206009600c90930201919091015486835260038501825260408084208985529092529120556012805486908110613e0f57613e0f615746565b90600052602060002090600c02016008015442613e2c9190615899565b60008681526002840160205260409020556012805482919087908110613e5457613e54615746565b90600052602060002090600c02016005016000828254613e749190615899565b90915550506000858152600183016020526040908190205490516001600160a01b0388169187917f5f1c6be51c8ec7fa7e7ddd9f798ec55927b06cfc8d9159987d1ae3358cb10b5991613ec691615140565b60405180910390a3505050505050565b6001600160a01b038116600090815260116020908152604080832060139092528220909190613f06600186615772565b81548110613f1657613f16615746565b906000526020600020906003020190508460056000828254613f389190615772565b9091555050805460068054600160801b9092046001600160801b031691600090613f63908490615772565b90915550506000808255613f778787615772565b9050868360010160008081526020019081526020016000206000828254613f9e9190615899565b909155505060128054600090613fb657613fb6615746565b90600052602060002090600c02016008015442613fd39190615899565b6000808052600285016020908152604082209290925560149091527f4f26c3876aa9f4b92579780beea1161a61f87ebf1ec6ee865b299e447ecba99c805489929061401f908490615899565b9091555050801561407d57614036818684866144e9565b84846001600160a01b03167f845a16492d8f772c792e84d2c5495d37fca22ce33263b67322e92ef0be653c50896040516140709190615140565b60405180910390a3613118565b61408883858761466b565b84846001600160a01b03167f7fc4727e062e336010f2c282598ef5f14facb3de68cf8195c2f23e1454b2b74e896040516140c29190615140565b60405180910390a350505050505050565b6001600160a01b0383166000908152601160205260408120821561415c57600a54670de0b6b3a764000090816141098688615850565b6141139190615850565b61411d9190615885565b6141279190615885565b91508181600001600082825461413d9190615899565b9250508190555081600760008282546141569190615899565b90915550505b60006040518060a00160405280614172876148a2565b6001600160801b03168152600060208201526040016141996141944288615899565b6148cf565b6001600160401b0390811682526001600160a01b03808a16602080850182905260409485018990526000828152601382528581208054600181810183558284528484208a51958b01516001600160801b03908116600160801b02961695909517600390920290940190815596880151928701805460608a0151909616600160401b026001600160e01b03199096169390961692909217939093179093556080850151600290940193909355919091525490915061425b908790879086906148f8565b8215612bb757600c546040516340c10f1960e01b81526001600160a01b03909116906340c10f19906142939089908790600401615a15565b600060405180830381600087803b1580156142ad57600080fd5b505af11580156142c1573d6000803e3d6000fd5b50505050505050505050565b600e54601280546000926001600160a01b0316916351e1551a91869081106142f7576142f7615746565b90600052602060002090600c0201600a01846040518363ffffffff1660e01b8152600401614326929190615cac565b602060405180830381865afa158015614343573d6000803e3d6000fd5b505050506040513d601f19601f820116820180604052508101906124ea91906157ec565b60606000614376836002615850565b614381906002615899565b6001600160401b0381111561439857614398615576565b6040519080825280601f01601f1916602001820160405280156143c2576020820181803683370190505b509050600360fc1b816000815181106143dd576143dd615746565b60200101906001600160f81b031916908160001a905350600f60fb1b8160018151811061440c5761440c615746565b60200101906001600160f81b031916908160001a9053506000614430846002615850565b61443b906001615899565b90505b60018111156144b3576f181899199a1a9b1b9c1cb0b131b232b360811b85600f166010811061446f5761446f615746565b1a60f81b82828151811061448557614485615746565b60200101906001600160f81b031916908160001a90535060049490941c936144ac816158e4565b905061443e565b5083156124ea5760405162461bcd60e51b81526004016107f890615cfe565b60606144e18484600085614aec565b949350505050565b83600560008282546144fb9190615899565b9091555061450a9050846148a2565b825483906000906145259084906001600160801b0316615d0e565b92506101000a8154816001600160801b0302191690836001600160801b03160217905550600061455785600042614bae565b9050614562816148a2565b83548490601090614584908490600160801b90046001600160801b0316615d0e565b92506101000a8154816001600160801b0302191690836001600160801b0316021790555080600660008282546145ba9190615899565b909155505060125460005b81811015613118576002601282815481106145e2576145e2615746565b90600052602060002090600c020160030160149054906101000a900460ff1660028111156146125761461261522e565b03614659576012818154811061462a5761462a615746565b600091825260208083206009600c90930201919091015488835260038701825260408084208585529092529120555b80614663816158ac565b9150506145c5565b6012546001600160a01b0383166000908152601360205260409020548281148015906146975750600181115b1561480a576001600160a01b03841660009081526013602052604081206146bf600184615772565b815481106146cf576146cf615746565b600091825260208083206001600160a01b038916845260139091526040909220600390910290910191508190614706600187615772565b8154811061471657614716615746565b600091825260208220835460039092020180546fffffffffffffffffffffffffffffffff19166001600160801b0392831690811782558454600160801b90819004909316909202909117815560018084018054918301805467ffffffffffffffff1981166001600160401b03909416938417825591546001600160a01b03600160401b9182900416026001600160e01b03199092169092171790556002928301549201919091555b83811015614807576000838152600388016020818152604080842085855282528084205489855292825280842085855290915290912055806147ff816158ac565b9150506147be565b50505b60005b8281101561484357600082815260038701602090815260408083208484529091528120558061483b816158ac565b91505061480d565b506001600160a01b038416600090815260136020526040902080548061486b5761486b615d31565b6000828152602081206003600019909301928302018181556001810180546001600160e01b03191690556002015590555050505050565b60006001600160801b038211156148cb5760405162461bcd60e51b81526004016107f890615d7b565b5090565b60006001600160401b038211156148cb5760405162461bcd60e51b81526004016107f890615dbf565b6001600160a01b038416600090815260116020908152604080832060139092528220909190614928600185615772565b8154811061493857614938615746565b90600052602060002090600302019050846005600082825461495a9190615899565b909155506000905061496d868642614bae565b905080600660008282546149819190615899565b909155506149909050816148a2565b825483906010906149b2908490600160801b90046001600160801b0316615d0e565b92506101000a8154816001600160801b0302191690836001600160801b031602179055506000601280549050905060005b81811015614a8957600260128281548110614a0057614a00615746565b90600052602060002090600c020160030160149054906101000a900460ff166002811115614a3057614a3061522e565b03614a775760128181548110614a4857614a48615746565b600091825260208083206009600c90930201919091015488835260038801825260408084208585529092529120555b80614a81816158ac565b9150506149e3565b50600183015460405186916001600160a01b038b16917f6381ea17a5324d29cc015352644672ead5185c1c61a0d3a521eda97e35cec97e91614ada918c9188918d916001600160401b031690615ded565b60405180910390a35050505050505050565b606082471015614b0e5760405162461bcd60e51b81526004016107f890615e65565b6001600160a01b0385163b614b355760405162461bcd60e51b81526004016107f890615ea9565b600080866001600160a01b03168587604051614b519190615eb9565b60006040518083038185875af1925050503d8060008114614b8e576040519150601f19603f3d011682016040523d82523d6000602084013e614b93565b606091505b5091509150614ba3828286614d04565b979650505050505050565b6000806103e884600954614bc29190615850565b614bcc9190615885565b614bd69086615899565b905060006228207263ffffffff166012600081548110614bf857614bf8615746565b90600052602060002090600c0201600a01600001600081548110614c1e57614c1e615746565b9060005260206000200154614c339190615899565b90506000614c456301e1338083615899565b9050818511614c6b57601054614c619063ffffffff1684615850565b93505050506124ea565b808510614c8c57601054614c6190600160201b900463ffffffff1684615850565b614c968282615772565b614ca08683615772565b601054614cbc9063ffffffff600160201b820481169116615c01565b614ccc9063ffffffff1686615850565b614cd69190615850565b614ce09190615885565b601054614cfa90600160201b900463ffffffff1685615850565b614ba39190615899565b60608315614d135750816124ea565b825115614d235782518084602001fd5b8160405162461bcd60e51b81526004016107f89190615b28565b828054828255906000526020600020908101928215614d78579160200282015b82811115614d78578251825591602001919060010190614d5d565b506148cb9291505b808211156148cb5760008155600101614d80565b6001600160e01b031981165b8114612acc57600080fd5b803561079c81614d94565b600060208284031215614dcb57614dcb600080fd5b60006144e18484614dab565b8015155b82525050565b6020810161079c8284614dd7565b60006001600160a01b03821661079c565b614da081614def565b803561079c81614e00565b600060a08284031215614e2957614e29600080fd5b50919050565b600060408284031215614e2957614e29600080fd5b80614da0565b803561079c81614e44565b6000806000806000806000806000806101e08b8d031215614e7857614e78600080fd5b6000614e848d8d614e09565b9a50506020614e958d828e01614e09565b9950506040614ea68d828e01614e09565b9850506060614eb78d828e01614e09565b9750506080614ec88d828e01614e09565b96505060a0614ed98d828e01614e14565b955050610140614eeb8d828e01614e2f565b945050610180614efd8d828e01614e4a565b9350506101a0614f0f8d828e01614e09565b9250506101c0614f218d828e01614e4a565b9150509295989b9194979a5092959850565b60008083601f840112614f4857614f48600080fd5b5081356001600160401b03811115614f6257614f62600080fd5b602083019150836020820283011115614f7d57614f7d600080fd5b9250929050565b6000806000806000806000806000806101008b8d031215614fa757614fa7600080fd5b6000614fb38d8d614e09565b9a50506020614fc48d828e01614e09565b9950506040614fd58d828e01614e4a565b9850506060614fe68d828e01614e4a565b9750506080614ff78d828e01614e4a565b96505060a08b01356001600160401b0381111561501657615016600080fd5b6150228d828e01614f33565b955095505060c08b01356001600160401b0381111561504357615043600080fd5b61504f8d828e01614f33565b935093505060e0614f218d828e01614e4a565b60006020828403121561507757615077600080fd5b60006144e18484614e4a565b614ddb81614def565b6020810161079c8284615083565b600080600080600080608087890312156150b6576150b6600080fd5b60006150c28989614e09565b96505060208701356001600160401b038111156150e1576150e1600080fd5b6150ed89828a01614f33565b955095505060408701356001600160401b0381111561510e5761510e600080fd5b61511a89828a01614f33565b9350935050606061512d89828a01614e4a565b9150509295509295509295565b80614ddb565b6020810161079c828461513a565b6000806040838503121561516457615164600080fd5b60006151708585614e4a565b925050602061518185828601614e09565b9150509250929050565b6000602082840312156151a0576151a0600080fd5b60006144e18484614e09565b60006151b8838361513a565b505060200190565b60006151ca825190565b80845260209384019383018060005b838110156151fe5781516151ed88826151ac565b9750602083019250506001016151d9565b509495945050505050565b6040808252810161521a81856151c0565b905081810360208301526144e181846151c0565b634e487b7160e01b600052602160045260246000fd5b60038110612acc57612acc61522e565b8061525e81615244565b919050565b600061079c82615254565b614ddb81615263565b60808101615285828761513a565b615292602083018661513a565b61529f604083018561513a565b613b71606083018461526e565b600080604083850312156152c2576152c2600080fd5b60006152ce8585614e4a565b925050602061518185828601614e4a565b600080604083850312156152f5576152f5600080fd5b60006152ce8585614e09565b63ffffffff8116614ddb565b60a0810161531b8288615301565b6153286020830187615301565b6153356040830186615301565b6153426060830185615301565b61534f6080830184615301565b9695505050505050565b60008083601f84011261536e5761536e600080fd5b5081356001600160401b0381111561538857615388600080fd5b602083019150836060820283011115614f7d57614f7d600080fd5b600080602083850312156153b9576153b9600080fd5b82356001600160401b038111156153d2576153d2600080fd5b6153de85828601615359565b92509250509250929050565b6001600160801b038116614ddb565b6001600160401b038116614ddb565b805160a083019061541984826153ea565b50602082015161542c60208501826153ea565b50604082015161543f60408501826153f9565b5060608201516154526060850182615083565b50608082015161190e608085018261513a565b60006154718383615408565b505060a00190565b6000615483825190565b80845260209384019383018060005b838110156151fe5781516154a68882615465565b975060208301925050600101615492565b602080825281016124ea8184615479565b6000806000606084860312156154e0576154e0600080fd5b60006154ec8686614e4a565b93505060206154fd86828701614e09565b925050604061550e86828701614e4a565b9150509250925092565b602e81526000602082017f496e697469616c697a61626c653a20636f6e747261637420697320616c72656181526d191e481a5b9a5d1a585b1a5e995960921b602082015291505b5060400190565b6020808252810161079c81615518565b634e487b7160e01b600052604160045260246000fd5b601f19601f83011681018181106001600160401b03821117156155b1576155b1615576565b6040525050565b60006155c360405190565b905061525e828261558c565b63ffffffff8116614da0565b803561079c816155cf565b600060a082840312156155fb576155fb600080fd5b61560560a06155b8565b9050600061561384846155db565b8252506020615624848483016155db565b6020830152506040615638848285016155db565b604083015250606061564c848285016155db565b6060830152506080615660848285016155db565b60808301525092915050565b600060a0828403121561568157615681600080fd5b60006144e184846155e6565b6000602082840312156156a2576156a2600080fd5b60006144e184846155db565b801515614da0565b805161079c816156ae565b6000602082840312156156d6576156d6600080fd5b60006144e184846156b6565b600061079c826156f0565b90565b60ff1690565b614ddb816156e2565b6020810161079c82846156f6565b600f81526000602082016e1c185d5cd9590818dbdb9d1c9858dd608a1b815291505b5060200190565b6020808252810161079c8161570d565b634e487b7160e01b600052603260045260246000fd5b634e487b7160e01b600052601160045260246000fd5b8181038181111561079c5761079c61575c565b602f81526000602082017f416363657373436f6e74726f6c3a2063616e206f6e6c792072656e6f756e636581526e103937b632b9903337b91039b2b63360891b6020820152915061555f565b6020808252810161079c81615785565b805161079c81614e44565b60006020828403121561580157615801600080fd5b60006144e184846157e1565b6060810161581b8286615083565b6158286020830185615083565b6144e1604083018461513a565b60408101615843828561513a565b6124ea6020830184615083565b600081600019048311821515161561586a5761586a61575c565b500290565b634e487b7160e01b600052601260045260246000fd5b6000826158945761589461586f565b500490565b8082018082111561079c5761079c61575c565b600060001982036158bf576158bf61575c565b5060010190565b6001600160e01b03198116614ddb565b6020810161079c82846158c6565b6000816158f3576158f361575c565b506000190190565b602b81526000602082017f496e697469616c697a61626c653a20636f6e7472616374206973206e6f74206981526a6e697469616c697a696e6760a81b6020820152915061555f565b6020808252810161079c816158fb565b6101008101615962828b615083565b61596f602083018a615083565b61597c604083018961513a565b615989606083018861513a565b615996608083018761513a565b81810360a08301526159a881866151c0565b905081810360c08301526159bc81856151c0565b90506159cb60e083018461513a565b9998505050505050505050565b60168152600060208201756f6e6c792061646d696e2063616e20756e706175736560501b8152915061572f565b6020808252810161079c816159d8565b60408101615a238285615083565b6124ea602083018461513a565b600063ffffffff8216915063ffffffff831692508163ffffffff048311821515161561586a5761586a61575c565b60005b83811015615a79578181015183820152602001615a61565b50506000910152565b6000615a8c825190565b615a9a818560208601615a5e565b9290920192915050565b76020b1b1b2b9b9a1b7b73a3937b61d1030b1b1b7bab73a1604d1b81526017016000615ad08285615a82565b7001034b99036b4b9b9b4b733903937b6329607d1b815260110191506144e18284615a82565b6000615b00825190565b808452602084019350615b17818560208601615a5e565b601f01601f19169290920192915050565b602080825281016124ea8184615af6565b602a81526000602082017f5361666545524332303a204552433230206f7065726174696f6e20646964206e8152691bdd081cdd58d8d9595960b21b6020820152915061555f565b6020808252810161079c81615b39565b604081016158438285615083565b603681526000602082017f5361666545524332303a20617070726f76652066726f6d206e6f6e2d7a65726f81527520746f206e6f6e2d7a65726f20616c6c6f77616e636560501b6020820152915061555f565b6020808252810161079c81615b9e565b63ffffffff91821691908116908282039081111561079c5761079c61575c565b60008161079c565b600061079c8254615c21565b6000615c3f825490565b808452600083815260208082209501949081905b838110156151fe57615c6482615c29565b615c6e88826151ac565b97505060019182019101615c53565b604080835260009083018183615c938382615c35565b92505060018401858303602087015261534f8382615c35565b60408082528101615cbd8185615c7d565b90506124ea602083018461513a565b60208082527f537472696e67733a20686578206c656e67746820696e73756666696369656e749101908152600061572f565b6020808252810161079c81615ccc565b6001600160801b0391821691908116908282019081111561079c5761079c61575c565b634e487b7160e01b600052603160045260246000fd5b601c81526000602082017f426f72696e674d6174683a2075696e74313238204f766572666c6f77000000008152915061572f565b6020808252810161079c81615d47565b601b81526000602082017f426f72696e674d6174683a2075696e743634204f766572666c6f7700000000008152915061572f565b6020808252810161079c81615d8b565b600061079c6156ed6001600160401b03841681565b614ddb81615dcf565b60808101615dfb828761513a565b615e08602083018661513a565b615e15604083018561513a565b613b716060830184615de4565b602681526000602082017f416464726573733a20696e73756666696369656e742062616c616e636520666f8152651c8818d85b1b60d21b6020820152915061555f565b6020808252810161079c81615e22565b601d81526000602082017f416464726573733a2063616c6c20746f206e6f6e2d636f6e74726163740000008152915061572f565b6020808252810161079c81615e75565b60006124ea8284615a8256fe930802d0eadfb856cb83e01d1c4daa3c89e9c6d9f74cfbe13124decf2b33128ae1dcbdb91df27212a29bc27177c840cf2f819ecf2187432e1fac86c2dd5dfca9a2646970667358221220c0b9fec2cc08b8af506bd458c3210962bd722284ad654255f301953848f9c3ae64736f6c63430008100033",
    "immutableReferences": {},
    "source": "// SPDX-License-Identifier: AGPL 3.0\n// Copyright Fathom 2022\n\npragma solidity 0.8.16;\n\nimport \"./StakingHandler.sol\";\nimport \"./StakingGetters.sol\";\n\ncontract StakingPackage is StakingHandlers, StakingGetters {}\n",
    "sourcePath": "/Users/subiksinghshrestha/Documents/FATHOM/fathom-dao-smart-contracts/contracts/dao/staking/packages/StakingPackage.sol",
    "compiler": {
        "name": "solc",
        "version": "0.8.16+commit.07a7930e.Darwin.appleclang"
    },
    "schemaVersion": "3.4.10",
    "updatedAt": "2023-03-31T08:28:09.610Z",
    "devdoc": {
        "kind": "dev",
        "methods": {
            "adminPause(uint256)": {
                "details": "adminPause pauses this contract. Only pause role or default admin role can access this function.",
                "params": {
                    "flags": "flags variable is used for pausing this contract."
                }
            },
            "createLocksForCouncils((uint256,uint256,address)[])": {
                "details": "Creating locks for council can be done by Admin only which is Multisig.      Multisig can create locks for councils"
            },
            "createStream(uint256,uint256)": {
                "details": "This function creates a stream and makes it live. Only the Stream Owner is able to call this function.      Stream Owner is set while proposing a stream"
            },
            "emergencyUnlockAndWithdraw()": {
                "details": "In case of emergency, unlock your tokens and withdraw your rewards."
            },
            "getRoleAdmin(bytes32)": {
                "details": "Returns the admin role that controls `role`. See {grantRole} and {revokeRole}. To change a role's admin, use {_setRoleAdmin}."
            },
            "grantRole(bytes32,address)": {
                "details": "Grants `role` to `account`. If `account` had not been already granted `role`, emits a {RoleGranted} event. Requirements: - the caller must have ``role``'s admin role. May emit a {RoleGranted} event."
            },
            "hasRole(bytes32,address)": {
                "details": "Returns `true` if `account` has been granted `role`."
            },
            "initializeMainStream(address,uint256[],uint256[],uint256)": {
                "details": "The function is callable only once, and it can be done only with admin,       which at initial setup is Multisig"
            },
            "initializeStaking(address,address,address,address,address,(uint32,uint32,uint32,uint32,uint32),(uint32,uint32),uint256,address,uint256)": {
                "details": "initialize the contract and deploys the first stream of rewardsinitializable only once due to stakingInitialised flag",
                "params": {
                    "_admin": "the owner and manager of the main token stream",
                    "_mainToken": "token contract address",
                    "_vault": "The Vault address to store main token and rewards tokens",
                    "_weight": "Weighting coefficient for shares and penalties"
                }
            },
            "proposeStream(address,address,uint256,uint256,uint256,uint256[],uint256[],uint256)": {
                "details": "An admin of the staking contract can allowlist (propose) a stream. Allowlisting of the stream provides the option for the stream owner (presumably the issuing party of a specific token) to deposit some ERC-20 tokens on the staking contract and potentially get in return some main tokens immediately. ",
                "params": {
                    "maxDepositAmount": "The upper amount of the tokens that should be deposited by stream owner",
                    "rewardToken": "the address of the ERC-20 tokens to be deposited in the stream",
                    "scheduleRewards": "remaining rewards to be delivered at the beginning of each scheduled interval.  Last element is always zero. First value (in scheduleRewards) from array is supposed to be a total amount of rewards for stream.",
                    "scheduleTimes": "timestamp denoting the start of each scheduled interval. Last element is the end of the stream.",
                    "streamOwner": "only this account will be able to launch a stream",
                    "tau": "the tau is (pending release period) for this stream (e.g one day)"
                }
            },
            "removeStream(uint256,address)": {
                "details": "A stream can be removed after all the rewards pending have been withdrawn.      Stream can be removed by the Stream Manager which is Multisig at time of deployment."
            },
            "renounceRole(bytes32,address)": {
                "details": "Revokes `role` from the calling account. Roles are often managed via {grantRole} and {revokeRole}: this function's purpose is to provide a mechanism for accounts to lose their privileges if they are compromised (such as when a trusted device is misplaced). If the calling account had been revoked `role`, emits a {RoleRevoked} event. Requirements: - the caller must be `account`. May emit a {RoleRevoked} event."
            },
            "revokeRole(bytes32,address)": {
                "details": "Revokes `role` from `account`. If `account` had been granted `role`, emits a {RoleRevoked} event. Requirements: - the caller must have ``role``'s admin role. May emit a {RoleRevoked} event."
            },
            "setMaxLockPositions(uint256)": {
                "details": "This allows for setting up maximum lock positions.      Only admin which is Multisig at deployment can call this"
            },
            "setMinimumLockPeriod(uint256)": {
                "details": "This allows for setting up minimum locking period.      Only admin which is Multisig at deployment can call this"
            },
            "supportsInterface(bytes4)": {
                "details": "See {IERC165-supportsInterface}."
            },
            "updateVault(address)": {
                "details": "Vault can be updated only if the contract is at paused state.      Only Admin that is, Multisig at the time of deployment can update Vault"
            },
            "withdrawPenalty()": {
                "details": "Penalty accrued due to early unlocking can be withdrawn to some address, most likely the treasury.      Address with TREASURY_ROLE can access this function, which is Multisig at time of deployment"
            }
        },
        "version": 1
    },
    "userdoc": {
        "kind": "user",
        "methods": {
            "emergencyUnlockAndWithdraw()": {
                "notice": "This can be only executed only if the contract is at paused state."
            },
            "initializeStaking(address,address,address,address,address,(uint32,uint32,uint32,uint32,uint32),(uint32,uint32),uint256,address,uint256)": {
                "notice": "By calling this function, the deployer of this contract must make sure that the Rewards amount was deposited to the treasury contract before initializing of the default Stream"
            },
            "minLockPeriod()": {
                "notice": "Checks if the staking is initialized"
            },
            "proposeStream(address,address,uint256,uint256,uint256,uint256[],uint256[],uint256)": {
                "notice": "Manager of Vault must call"
            },
            "totalAmountOfStakedToken()": {
                "notice": "The below three are used for autocompounding feature and weighted shares"
            },
            "totalAmountOfVoteToken()": {
                "notice": "voteToken -> vote Token"
            },
            "weight()": {
                "notice": "Weighting coefficient for shares and penalties"
            }
        },
        "version": 1
    }
}