{
  "contractName": "StakingGetters",
  "abi": [
    {
      "inputs": [],
      "name": "ZeroAddress",
      "type": "error"
    },
    {
      "inputs": [
        {
          "internalType": "uint256",
          "name": "lockId",
          "type": "uint256"
        }
      ],
      "name": "ZeroAmountOfLockedToken",
      "type": "error"
    },
    {
      "inputs": [],
      "name": "ZeroTotalAmountOfStakedToken",
      "type": "error"
    },
    {
      "anonymous": false,
      "inputs": [
        {
          "indexed": true,
          "internalType": "address",
          "name": "account",
          "type": "address"
        },
        {
          "indexed": false,
          "internalType": "uint256",
          "name": "amount",
          "type": "uint256"
        },
        {
          "indexed": true,
          "internalType": "uint256",
          "name": "lockId",
          "type": "uint256"
        }
      ],
      "name": "PartialUnstaked",
      "type": "event"
    },
    {
      "anonymous": false,
      "inputs": [
        {
          "indexed": true,
          "internalType": "uint256",
          "name": "streamId",
          "type": "uint256"
        },
        {
          "indexed": true,
          "internalType": "address",
          "name": "account",
          "type": "address"
        },
        {
          "indexed": false,
          "internalType": "uint256",
          "name": "pendings",
          "type": "uint256"
        }
      ],
      "name": "Pending",
      "type": "event"
    },
    {
      "anonymous": false,
      "inputs": [
        {
          "indexed": true,
          "internalType": "uint256",
          "name": "streamId",
          "type": "uint256"
        },
        {
          "indexed": true,
          "internalType": "address",
          "name": "user",
          "type": "address"
        },
        {
          "indexed": false,
          "internalType": "uint256",
          "name": "pendingAmount",
          "type": "uint256"
        }
      ],
      "name": "Released",
      "type": "event"
    },
    {
      "anonymous": false,
      "inputs": [
        {
          "indexed": true,
          "internalType": "address",
          "name": "account",
          "type": "address"
        },
        {
          "indexed": false,
          "internalType": "uint256",
          "name": "amount",
          "type": "uint256"
        },
        {
          "indexed": false,
          "internalType": "uint256",
          "name": "streamShares",
          "type": "uint256"
        },
        {
          "indexed": false,
          "internalType": "uint256",
          "name": "nVoteToken",
          "type": "uint256"
        },
        {
          "indexed": true,
          "internalType": "uint256",
          "name": "lockId",
          "type": "uint256"
        },
        {
          "indexed": false,
          "internalType": "uint256",
          "name": "end",
          "type": "uint256"
        }
      ],
      "name": "Staked",
      "type": "event"
    },
    {
      "anonymous": false,
      "inputs": [
        {
          "indexed": true,
          "internalType": "uint256",
          "name": "streamId",
          "type": "uint256"
        },
        {
          "indexed": true,
          "internalType": "address",
          "name": "owner",
          "type": "address"
        },
        {
          "indexed": true,
          "internalType": "address",
          "name": "token",
          "type": "address"
        },
        {
          "indexed": false,
          "internalType": "uint256",
          "name": "tau",
          "type": "uint256"
        }
      ],
      "name": "StreamCreated",
      "type": "event"
    },
    {
      "anonymous": false,
      "inputs": [
        {
          "indexed": true,
          "internalType": "uint256",
          "name": "streamId",
          "type": "uint256"
        },
        {
          "indexed": true,
          "internalType": "address",
          "name": "owner",
          "type": "address"
        },
        {
          "indexed": true,
          "internalType": "address",
          "name": "token",
          "type": "address"
        }
      ],
      "name": "StreamProposalCancelled",
      "type": "event"
    },
    {
      "anonymous": false,
      "inputs": [
        {
          "indexed": true,
          "internalType": "uint256",
          "name": "streamId",
          "type": "uint256"
        },
        {
          "indexed": true,
          "internalType": "address",
          "name": "streamOwner",
          "type": "address"
        },
        {
          "indexed": true,
          "internalType": "address",
          "name": "rewardToken",
          "type": "address"
        },
        {
          "indexed": false,
          "internalType": "uint256",
          "name": "maxDepositAmount",
          "type": "uint256"
        }
      ],
      "name": "StreamProposed",
      "type": "event"
    },
    {
      "anonymous": false,
      "inputs": [
        {
          "indexed": true,
          "internalType": "uint256",
          "name": "streamId",
          "type": "uint256"
        },
        {
          "indexed": true,
          "internalType": "address",
          "name": "owner",
          "type": "address"
        },
        {
          "indexed": true,
          "internalType": "address",
          "name": "token",
          "type": "address"
        }
      ],
      "name": "StreamRemoved",
      "type": "event"
    },
    {
      "anonymous": false,
      "inputs": [
        {
          "indexed": true,
          "internalType": "address",
          "name": "account",
          "type": "address"
        },
        {
          "indexed": false,
          "internalType": "uint256",
          "name": "amount",
          "type": "uint256"
        },
        {
          "indexed": true,
          "internalType": "uint256",
          "name": "lockId",
          "type": "uint256"
        }
      ],
      "name": "Unstaked",
      "type": "event"
    },
    {
      "inputs": [],
      "name": "councilsInitialized",
      "outputs": [
        {
          "internalType": "bool",
          "name": "",
          "type": "bool"
        }
      ],
      "stateMutability": "view",
      "type": "function"
    },
    {
      "inputs": [],
      "name": "mainStreamInitialized",
      "outputs": [
        {
          "internalType": "bool",
          "name": "",
          "type": "bool"
        }
      ],
      "stateMutability": "view",
      "type": "function"
    },
    {
      "inputs": [],
      "name": "mainToken",
      "outputs": [
        {
          "internalType": "address",
          "name": "",
          "type": "address"
        }
      ],
      "stateMutability": "view",
      "type": "function"
    },
    {
      "inputs": [],
      "name": "maxLockPeriod",
      "outputs": [
        {
          "internalType": "uint256",
          "name": "",
          "type": "uint256"
        }
      ],
      "stateMutability": "view",
      "type": "function"
    },
    {
      "inputs": [],
      "name": "maxLockPositions",
      "outputs": [
        {
          "internalType": "uint256",
          "name": "",
          "type": "uint256"
        }
      ],
      "stateMutability": "view",
      "type": "function"
    },
    {
      "inputs": [
        {
          "internalType": "address",
          "name": "",
          "type": "address"
        },
        {
          "internalType": "uint256",
          "name": "",
          "type": "uint256"
        }
      ],
      "name": "prohibitedEarlyWithdraw",
      "outputs": [
        {
          "internalType": "bool",
          "name": "",
          "type": "bool"
        }
      ],
      "stateMutability": "view",
      "type": "function"
    },
    {
      "inputs": [],
      "name": "rewardsCalculator",
      "outputs": [
        {
          "internalType": "address",
          "name": "",
          "type": "address"
        }
      ],
      "stateMutability": "view",
      "type": "function"
    },
    {
      "inputs": [
        {
          "internalType": "uint256",
          "name": "",
          "type": "uint256"
        }
      ],
      "name": "streamTotalUserPendings",
      "outputs": [
        {
          "internalType": "uint256",
          "name": "",
          "type": "uint256"
        }
      ],
      "stateMutability": "view",
      "type": "function"
    },
    {
      "inputs": [],
      "name": "totalAmountOfStakedToken",
      "outputs": [
        {
          "internalType": "uint256",
          "name": "",
          "type": "uint256"
        }
      ],
      "stateMutability": "view",
      "type": "function"
    },
    {
      "inputs": [],
      "name": "totalAmountOfVoteToken",
      "outputs": [
        {
          "internalType": "uint256",
          "name": "",
          "type": "uint256"
        }
      ],
      "stateMutability": "view",
      "type": "function"
    },
    {
      "inputs": [],
      "name": "totalPenaltyBalance",
      "outputs": [
        {
          "internalType": "uint256",
          "name": "",
          "type": "uint256"
        }
      ],
      "stateMutability": "view",
      "type": "function"
    },
    {
      "inputs": [],
      "name": "totalStreamShares",
      "outputs": [
        {
          "internalType": "uint256",
          "name": "",
          "type": "uint256"
        }
      ],
      "stateMutability": "view",
      "type": "function"
    },
    {
      "inputs": [
        {
          "internalType": "address",
          "name": "",
          "type": "address"
        }
      ],
      "name": "users",
      "outputs": [
        {
          "internalType": "uint256",
          "name": "voteTokenBalance",
          "type": "uint256"
        }
      ],
      "stateMutability": "view",
      "type": "function"
    },
    {
      "inputs": [],
      "name": "vault",
      "outputs": [
        {
          "internalType": "address",
          "name": "",
          "type": "address"
        }
      ],
      "stateMutability": "view",
      "type": "function"
    },
    {
      "inputs": [],
      "name": "voteToken",
      "outputs": [
        {
          "internalType": "address",
          "name": "",
          "type": "address"
        }
      ],
      "stateMutability": "view",
      "type": "function"
    },
    {
      "inputs": [
        {
          "internalType": "address",
          "name": "account",
          "type": "address"
        },
        {
          "internalType": "uint256",
          "name": "streamId",
          "type": "uint256"
        }
      ],
      "name": "getUsersPendingRewards",
      "outputs": [
        {
          "internalType": "uint256",
          "name": "",
          "type": "uint256"
        }
      ],
      "stateMutability": "view",
      "type": "function"
    },
    {
      "inputs": [
        {
          "internalType": "uint256",
          "name": "streamId",
          "type": "uint256"
        },
        {
          "internalType": "address",
          "name": "account",
          "type": "address"
        },
        {
          "internalType": "uint256",
          "name": "lockId",
          "type": "uint256"
        }
      ],
      "name": "getStreamClaimableAmountPerLock",
      "outputs": [
        {
          "internalType": "uint256",
          "name": "",
          "type": "uint256"
        }
      ],
      "stateMutability": "view",
      "type": "function"
    },
    {
      "inputs": [
        {
          "internalType": "uint256",
          "name": "slot",
          "type": "uint256"
        }
      ],
      "name": "readBySlot",
      "outputs": [
        {
          "internalType": "bytes32",
          "name": "value",
          "type": "bytes32"
        }
      ],
      "stateMutability": "view",
      "type": "function"
    },
    {
      "inputs": [
        {
          "internalType": "address",
          "name": "account",
          "type": "address"
        }
      ],
      "name": "getAllLocks",
      "outputs": [
        {
          "components": [
            {
              "internalType": "uint128",
              "name": "amountOfToken",
              "type": "uint128"
            },
            {
              "internalType": "uint128",
              "name": "amountOfVoteToken",
              "type": "uint128"
            },
            {
              "internalType": "uint128",
              "name": "positionStreamShares",
              "type": "uint128"
            },
            {
              "internalType": "uint64",
              "name": "end",
              "type": "uint64"
            },
            {
              "internalType": "address",
              "name": "owner",
              "type": "address"
            }
          ],
          "internalType": "struct LockedBalance[]",
          "name": "",
          "type": "tuple[]"
        }
      ],
      "stateMutability": "view",
      "type": "function"
    },
    {
      "inputs": [
        {
          "internalType": "uint256",
          "name": "streamId",
          "type": "uint256"
        }
      ],
      "name": "getStreamSchedule",
      "outputs": [
        {
          "internalType": "uint256[]",
          "name": "scheduleTimes",
          "type": "uint256[]"
        },
        {
          "internalType": "uint256[]",
          "name": "scheduleRewards",
          "type": "uint256[]"
        }
      ],
      "stateMutability": "view",
      "type": "function"
    }
  ],
  "bytecode": "0x608060405234801561001057600080fd5b50610c9d806100206000396000f3fe608060405234801561001057600080fd5b506004361061012c5760003560e01c8063a87430ba116100ad578063c195f88c11610071578063c195f88c1461029d578063ddcf3e29146102af578063f6040373146102c2578063fbfa77cf146102cb578063fe33e7f4146102de57600080fd5b8063a87430ba1461022b578063a8cbd3c71461024b578063a8d85f701461026b578063b0abc9811461028b578063bd5cf8ff1461029457600080fd5b80636d878d10116100f45780636d878d10146101ad5780636db8e53d146101c057806370bc770c146101c95780637c9b8f0c146101ea578063911328121461021857600080fd5b8063160d66ae146101315780633a3f15111461015a5780633fc15f15146101705780634b1d29b414610183578063655af3011461018c575b600080fd5b600b54610144906001600160a01b031681565b6040516101519190610797565b60405180910390f35b61016360015481565b60405161015191906107ab565b600a54610144906001600160a01b031681565b61016360005481565b600d546101a090600160a81b900460ff1681565b60405161015191906107c1565b600d54610144906001600160a01b031681565b61016360055481565b6101dc6101d73660046107ea565b6102f2565b604051610151929190610870565b6101a06101f83660046108a9565b600260209081526000928352604080842090915290825290205460ff1681565b6101636102263660046108a9565b6103f0565b6101636102393660046108e6565b600f6020526000908152604090205481565b6101636102593660046107ea565b60126020526000908152604090205481565b61027e6102793660046108e6565b61041e565b60405161015191906109db565b61016360045481565b61016360065481565b6101636102ab3660046107ea565b5490565b6101636102bd3660046109ec565b6104e2565b61016360075481565b600c54610144906001600160a01b031681565b600d546101a090600160a01b900460ff1681565b6060806010838154811061030857610308610a3c565b90600052602060002090600b02016009016000016010848154811061032f5761032f610a3c565b90600052602060002090600b02016009016001018180548060200260200160405190810160405280929190818152602001828054801561038e57602002820191906000526020600020905b81548152602001906001019080831161037a575b50505050509150808054806020026020016040519081016040528092919081815260200182805480156103e057602002820191906000526020600020905b8154815260200190600101908083116103cc575b5050505050905091509150915091565b6001600160a01b0382166000908152600f602090815260408083208484526001019091529020545b92915050565b6001600160a01b0381166000908152601160209081526040808320805482518185028101850190935280835260609492939192909184015b828210156104d75760008481526020908190206040805160a0810182526003860290920180546001600160801b038082168552600160801b91829004811685870152600180840154918216948601949094520467ffffffffffffffff166060840152600201546001600160a01b031660808301529083529092019101610456565b505050509050919050565b60006002601085815481106104f9576104f9610a3c565b90600052602060002090600b020160020160149054906101000a900460ff16600281111561052957610529610a52565b1461054f5760405162461bcd60e51b815260040161054690610a91565b60405180910390fd5b6001600160a01b0383166000908152601160205260409020548211156105875760405162461bcd60e51b815260040161054690610ac1565b600061059285610651565b6001600160a01b0385166000908152600f6020908152604080832060119092528220929350916105c3600187610ae7565b815481106105d3576105d3610a3c565b600091825260208083208884526003868101835260408086208d87529093529190932054910290910160018101549092506001600160801b031674446c3b15f9926687d2c40534fdb5640000000000008161062e8488610ae7565b6106389190610afa565b6106429190610b2f565b955050505050505b9392505050565b60006005546000036106755760405162461bcd60e51b815260040161054690610b63565b60055474446c3b15f9926687d2c40534fdb56400000000000061069a846003546106dd565b6106a49190610afa565b6106ae9190610b2f565b601083815481106106c1576106c1610a3c565b90600052602060002090600b0201600801546104189190610b73565b600d54601080546000926001600160a01b0316916351e1551a918690811061070757610707610a3c565b90600052602060002090600b0201600901846040518363ffffffff1660e01b8152600401610736929190610c1b565b602060405180830381865afa158015610753573d6000803e3d6000fd5b505050506040513d601f19601f8201168201806040525081019061064a9190610c46565b60006001600160a01b038216610418565b61079181610777565b82525050565b602081016104188284610788565b80610791565b6020810161041882846107a5565b801515610791565b6020810161041882846107b9565b805b81146107dc57600080fd5b50565b8035610418816107cf565b6000602082840312156107ff576107ff600080fd5b600061080b84846107df565b949350505050565b600061081f83836107a5565b505060200190565b6000610831825190565b80845260209384019383018060005b838110156108655781516108548882610813565b975060208301925050600101610840565b509495945050505050565b604080825281016108818185610827565b9050818103602083015261080b8184610827565b6107d181610777565b803561041881610895565b600080604083850312156108bf576108bf600080fd5b60006108cb858561089e565b92505060206108dc858286016107df565b9150509250929050565b6000602082840312156108fb576108fb600080fd5b600061080b848461089e565b6001600160801b038116610791565b67ffffffffffffffff8116610791565b805160a08301906109378482610907565b50602082015161094a6020850182610907565b50604082015161095d6040850182610907565b5060608201516109706060850182610916565b5060808201516109836080850182610788565b50505050565b60006109958383610926565b505060a00190565b60006109a7825190565b80845260209384019383018060005b838110156108655781516109ca8882610989565b9750602083019250506001016109b6565b6020808252810161064a818461099d565b600080600060608486031215610a0457610a04600080fd5b6000610a1086866107df565b9350506020610a218682870161089e565b9250506040610a32868287016107df565b9150509250925092565b634e487b7160e01b600052603260045260246000fd5b634e487b7160e01b600052602160045260246000fd5b600f81526000602082016e73747265616d20696e61637469766560881b815291505b5060200190565b6020808252810161041881610a68565b60098152600060208201680c4c2c840d2dcc8caf60bb1b81529150610a8a565b6020808252810161041881610aa1565b634e487b7160e01b600052601160045260246000fd5b8181038181111561041857610418610ad1565b6000816000190483118215151615610b1457610b14610ad1565b500290565b634e487b7160e01b600052601260045260246000fd5b600082610b3e57610b3e610b19565b500490565b60098152600060208201684e6f2053686172657360b81b81529150610a8a565b6020808252810161041881610b43565b8082018082111561041857610418610ad1565b600081610418565b60006104188254610b86565b6000610ba4825490565b808452600083815260208082209501949081905b8381101561086557610bc982610b8e565b610bd38882610813565b97505060019182019101610bb8565b604080835260009083018183610bf88382610b9a565b925050600184018583036020870152610c118382610b9a565b9695505050505050565b60408082528101610c2c8185610be2565b905061064a60208301846107a5565b8051610418816107cf565b600060208284031215610c5b57610c5b600080fd5b600061080b8484610c3b56fea26469706673582212200ea437dfdb6a479836463c97bf61fa27df8b3796937c2abf719ae3aa5419954364736f6c63430008100033",
  "immutableReferences": {},
  "source": "// SPDX-License-Identifier: AGPL 3.0\n// Original Copyright Aurora\n// Copyright Fathom 2022\n\npragma solidity 0.8.16;\n\nimport \"../StakingStorage.sol\";\nimport \"../interfaces/IStakingGetter.sol\";\nimport \"./StakingInternals.sol\";\n\ncontract StakingGetters is StakingStorage, IStakingGetter, StakingInternals {\n    function getUsersPendingRewards(address account, uint256 streamId) external override view returns (uint256) {\n        return users[account].pendings[streamId];\n    }\n    function getStreamClaimableAmountPerLock(\n        uint256 streamId,\n        address account,\n        uint256 lockId\n    ) external view override returns (uint256) {\n        require(streams[streamId].status == StreamStatus.ACTIVE, \"stream inactive\");\n        require(lockId <= locks[account].length, \"bad index\");\n        uint256 latestRps = _getLatestRewardsPerShare(streamId);\n        User storage userAccount = users[account];\n        LockedBalance storage lock = locks[account][lockId - 1];\n        uint256 userRpsPerLock = userAccount.rpsDuringLastClaimForLock[lockId][streamId];\n        uint256 userSharesOfLock = lock.positionStreamShares;\n        return ((latestRps - userRpsPerLock) * userSharesOfLock) / RPS_MULTIPLIER;\n    }\n\n    function readBySlot(uint256 slot) external view override returns(bytes32 value) {\n        assembly {\n            value := sload(slot)\n        }\n    }\n    function getAllLocks(address account) external override view returns (LockedBalance[] memory) {\n        return locks[account];\n    }\n    function getStreamSchedule(uint256 streamId) external override view returns (uint256[] memory scheduleTimes, uint256[] memory scheduleRewards) {\n        return (streams[streamId].schedule.time, streams[streamId].schedule.reward);\n    }\n}\n",
  "sourcePath": "/Users/subiksinghshrestha/Documents/FATHOM/fathom-dao-smart-contracts/contracts/dao/staking/packages/StakingGetters.sol",
  "compiler": {
    "name": "solc",
    "version": "0.8.16+commit.07a7930e.Darwin.appleclang"
  },
  "schemaVersion": "3.4.10",
  "updatedAt": "2023-02-04T08:03:31.913Z",
  "devdoc": {
    "kind": "dev",
    "methods": {},
    "version": 1
  },
  "userdoc": {
    "kind": "user",
    "methods": {
      "maxLockPositions()": {
        "notice": "Checks if the staking is initialized"
      },
      "totalAmountOfStakedToken()": {
        "notice": "The below three are used for autocompounding feature and weighted shares"
      },
      "totalAmountOfVoteToken()": {
        "notice": "voteToken -> vote Token"
      }
    },
    "version": 1
  }
}