{
  "_format": "hh-sol-artifact-1",
  "contractName": "StakingPackage",
  "sourceName": "contracts/dao/staking/packages/StakingPackage.sol",
  "abi": [
    {
      "anonymous": false,
      "inputs": [
        {
          "indexed": true,
          "internalType": "bool",
          "name": "oldFlag",
          "type": "bool"
        },
        {
          "indexed": true,
          "internalType": "bool",
          "name": "newFlag",
          "type": "bool"
        }
      ],
      "name": "EarlyWithdrawalFlagSet",
      "type": "event"
    },
    {
      "anonymous": false,
      "inputs": [
        {
          "indexed": true,
          "internalType": "uint256",
          "name": "oldMaxLockPositions",
          "type": "uint256"
        },
        {
          "indexed": true,
          "internalType": "uint256",
          "name": "newMaxLockPositions",
          "type": "uint256"
        }
      ],
      "name": "MaxLockPositionsSet",
      "type": "event"
    },
    {
      "anonymous": false,
      "inputs": [
        {
          "indexed": true,
          "internalType": "uint256",
          "name": "streamId",
          "type": "uint256"
        },
        {
          "indexed": true,
          "internalType": "address",
          "name": "account",
          "type": "address"
        },
        {
          "indexed": true,
          "internalType": "uint256",
          "name": "pendings",
          "type": "uint256"
        }
      ],
      "name": "Pending",
      "type": "event"
    },
    {
      "anonymous": false,
      "inputs": [
        {
          "indexed": true,
          "internalType": "uint256",
          "name": "streamId",
          "type": "uint256"
        },
        {
          "indexed": true,
          "internalType": "address",
          "name": "user",
          "type": "address"
        },
        {
          "indexed": false,
          "internalType": "uint256",
          "name": "pendingAmount",
          "type": "uint256"
        }
      ],
      "name": "Released",
      "type": "event"
    },
    {
      "anonymous": false,
      "inputs": [
        {
          "indexed": true,
          "internalType": "bytes32",
          "name": "role",
          "type": "bytes32"
        },
        {
          "indexed": true,
          "internalType": "bytes32",
          "name": "previousAdminRole",
          "type": "bytes32"
        },
        {
          "indexed": true,
          "internalType": "bytes32",
          "name": "newAdminRole",
          "type": "bytes32"
        }
      ],
      "name": "RoleAdminChanged",
      "type": "event"
    },
    {
      "anonymous": false,
      "inputs": [
        {
          "indexed": true,
          "internalType": "bytes32",
          "name": "role",
          "type": "bytes32"
        },
        {
          "indexed": true,
          "internalType": "address",
          "name": "account",
          "type": "address"
        },
        {
          "indexed": true,
          "internalType": "address",
          "name": "sender",
          "type": "address"
        }
      ],
      "name": "RoleGranted",
      "type": "event"
    },
    {
      "anonymous": false,
      "inputs": [
        {
          "indexed": true,
          "internalType": "bytes32",
          "name": "role",
          "type": "bytes32"
        },
        {
          "indexed": true,
          "internalType": "address",
          "name": "account",
          "type": "address"
        },
        {
          "indexed": true,
          "internalType": "address",
          "name": "sender",
          "type": "address"
        }
      ],
      "name": "RoleRevoked",
      "type": "event"
    },
    {
      "anonymous": false,
      "inputs": [
        {
          "indexed": false,
          "internalType": "address",
          "name": "account",
          "type": "address"
        },
        {
          "indexed": true,
          "internalType": "uint256",
          "name": "streamShares",
          "type": "uint256"
        },
        {
          "indexed": true,
          "internalType": "uint256",
          "name": "nVEMainTkn",
          "type": "uint256"
        },
        {
          "indexed": true,
          "internalType": "uint256",
          "name": "lockId",
          "type": "uint256"
        }
      ],
      "name": "Staked",
      "type": "event"
    },
    {
      "anonymous": false,
      "inputs": [
        {
          "indexed": true,
          "internalType": "uint256",
          "name": "streamId",
          "type": "uint256"
        },
        {
          "indexed": true,
          "internalType": "address",
          "name": "owner",
          "type": "address"
        },
        {
          "indexed": true,
          "internalType": "address",
          "name": "token",
          "type": "address"
        },
        {
          "indexed": false,
          "internalType": "uint256",
          "name": "tokenAmount",
          "type": "uint256"
        }
      ],
      "name": "StreamCreated",
      "type": "event"
    },
    {
      "anonymous": false,
      "inputs": [
        {
          "indexed": true,
          "internalType": "uint256",
          "name": "streamId",
          "type": "uint256"
        },
        {
          "indexed": true,
          "internalType": "address",
          "name": "streamOwner",
          "type": "address"
        },
        {
          "indexed": false,
          "internalType": "uint256",
          "name": "mainTknStreamOwnerReward",
          "type": "uint256"
        }
      ],
      "name": "StreamOwnerRewardReleased",
      "type": "event"
    },
    {
      "anonymous": false,
      "inputs": [
        {
          "indexed": true,
          "internalType": "uint256",
          "name": "streamId",
          "type": "uint256"
        },
        {
          "indexed": true,
          "internalType": "address",
          "name": "owner",
          "type": "address"
        },
        {
          "indexed": true,
          "internalType": "address",
          "name": "token",
          "type": "address"
        }
      ],
      "name": "StreamProposalCancelled",
      "type": "event"
    },
    {
      "anonymous": false,
      "inputs": [
        {
          "indexed": true,
          "internalType": "uint256",
          "name": "streamId",
          "type": "uint256"
        },
        {
          "indexed": true,
          "internalType": "address",
          "name": "streamOwner",
          "type": "address"
        },
        {
          "indexed": true,
          "internalType": "address",
          "name": "rewardToken",
          "type": "address"
        },
        {
          "indexed": false,
          "internalType": "uint256",
          "name": "maxDepositAmount",
          "type": "uint256"
        }
      ],
      "name": "StreamProposed",
      "type": "event"
    },
    {
      "anonymous": false,
      "inputs": [
        {
          "indexed": true,
          "internalType": "uint256",
          "name": "streamId",
          "type": "uint256"
        },
        {
          "indexed": true,
          "internalType": "address",
          "name": "owner",
          "type": "address"
        },
        {
          "indexed": true,
          "internalType": "address",
          "name": "token",
          "type": "address"
        }
      ],
      "name": "StreamRemoved",
      "type": "event"
    },
    {
      "anonymous": false,
      "inputs": [
        {
          "indexed": true,
          "internalType": "address",
          "name": "oldTreasuryAddress",
          "type": "address"
        },
        {
          "indexed": true,
          "internalType": "address",
          "name": "newTreasuryAddress",
          "type": "address"
        }
      ],
      "name": "TreasuryAddressSet",
      "type": "event"
    },
    {
      "anonymous": false,
      "inputs": [
        {
          "indexed": true,
          "internalType": "address",
          "name": "account",
          "type": "address"
        },
        {
          "indexed": true,
          "internalType": "uint256",
          "name": "amount",
          "type": "uint256"
        },
        {
          "indexed": true,
          "internalType": "uint256",
          "name": "lockId",
          "type": "uint256"
        }
      ],
      "name": "Unstaked",
      "type": "event"
    },
    {
      "inputs": [],
      "name": "DEFAULT_ADMIN_ROLE",
      "outputs": [
        {
          "internalType": "bytes32",
          "name": "",
          "type": "bytes32"
        }
      ],
      "stateMutability": "view",
      "type": "function"
    },
    {
      "inputs": [],
      "name": "GOVERNANCE_ROLE",
      "outputs": [
        {
          "internalType": "bytes32",
          "name": "",
          "type": "bytes32"
        }
      ],
      "stateMutability": "view",
      "type": "function"
    },
    {
      "inputs": [],
      "name": "PAUSE_ROLE",
      "outputs": [
        {
          "internalType": "bytes32",
          "name": "",
          "type": "bytes32"
        }
      ],
      "stateMutability": "view",
      "type": "function"
    },
    {
      "inputs": [],
      "name": "STREAM_MANAGER_ROLE",
      "outputs": [
        {
          "internalType": "bytes32",
          "name": "",
          "type": "bytes32"
        }
      ],
      "stateMutability": "view",
      "type": "function"
    },
    {
      "inputs": [],
      "name": "admin",
      "outputs": [
        {
          "internalType": "address",
          "name": "",
          "type": "address"
        }
      ],
      "stateMutability": "view",
      "type": "function"
    },
    {
      "inputs": [
        {
          "internalType": "uint256",
          "name": "flags",
          "type": "uint256"
        }
      ],
      "name": "adminPause",
      "outputs": [],
      "stateMutability": "nonpayable",
      "type": "function"
    },
    {
      "inputs": [
        {
          "internalType": "uint256",
          "name": "streamId",
          "type": "uint256"
        }
      ],
      "name": "cancelStreamProposal",
      "outputs": [],
      "stateMutability": "nonpayable",
      "type": "function"
    },
    {
      "inputs": [
        {
          "internalType": "uint256",
          "name": "streamId",
          "type": "uint256"
        }
      ],
      "name": "claimAllLockRewardsForStream",
      "outputs": [],
      "stateMutability": "nonpayable",
      "type": "function"
    },
    {
      "inputs": [
        {
          "internalType": "uint256",
          "name": "lockId",
          "type": "uint256"
        }
      ],
      "name": "claimAllStreamRewardsForLock",
      "outputs": [],
      "stateMutability": "nonpayable",
      "type": "function"
    },
    {
      "inputs": [
        {
          "internalType": "uint256",
          "name": "streamId",
          "type": "uint256"
        },
        {
          "internalType": "uint256",
          "name": "lockId",
          "type": "uint256"
        }
      ],
      "name": "claimRewards",
      "outputs": [],
      "stateMutability": "nonpayable",
      "type": "function"
    },
    {
      "inputs": [
        {
          "internalType": "uint256",
          "name": "amount",
          "type": "uint256"
        },
        {
          "internalType": "uint256",
          "name": "unlockTime",
          "type": "uint256"
        }
      ],
      "name": "createLock",
      "outputs": [],
      "stateMutability": "nonpayable",
      "type": "function"
    },
    {
      "inputs": [
        {
          "internalType": "uint256",
          "name": "streamId",
          "type": "uint256"
        },
        {
          "internalType": "uint256",
          "name": "rewardTokenAmount",
          "type": "uint256"
        }
      ],
      "name": "createStream",
      "outputs": [],
      "stateMutability": "nonpayable",
      "type": "function"
    },
    {
      "inputs": [
        {
          "internalType": "uint256",
          "name": "lockId",
          "type": "uint256"
        }
      ],
      "name": "earlyUnlock",
      "outputs": [],
      "stateMutability": "nonpayable",
      "type": "function"
    },
    {
      "inputs": [],
      "name": "earlyWithdrawPenaltyWeight",
      "outputs": [
        {
          "internalType": "uint64",
          "name": "",
          "type": "uint64"
        }
      ],
      "stateMutability": "view",
      "type": "function"
    },
    {
      "inputs": [
        {
          "internalType": "address",
          "name": "account",
          "type": "address"
        }
      ],
      "name": "getAllLocks",
      "outputs": [
        {
          "components": [
            {
              "internalType": "uint128",
              "name": "amountOfMAINTkn",
              "type": "uint128"
            },
            {
              "internalType": "uint128",
              "name": "amountOfveMAINTkn",
              "type": "uint128"
            },
            {
              "internalType": "uint128",
              "name": "mainTknShares",
              "type": "uint128"
            },
            {
              "internalType": "uint128",
              "name": "positionStreamShares",
              "type": "uint128"
            },
            {
              "internalType": "uint64",
              "name": "end",
              "type": "uint64"
            },
            {
              "internalType": "address",
              "name": "owner",
              "type": "address"
            }
          ],
          "internalType": "struct LockedBalance[]",
          "name": "",
          "type": "tuple[]"
        }
      ],
      "stateMutability": "view",
      "type": "function"
    },
    {
      "inputs": [
        {
          "internalType": "uint256",
          "name": "streamId",
          "type": "uint256"
        }
      ],
      "name": "getLatestRewardsPerShare",
      "outputs": [
        {
          "internalType": "uint256",
          "name": "",
          "type": "uint256"
        }
      ],
      "stateMutability": "view",
      "type": "function"
    },
    {
      "inputs": [
        {
          "internalType": "address",
          "name": "account",
          "type": "address"
        },
        {
          "internalType": "uint256",
          "name": "lockId",
          "type": "uint256"
        }
      ],
      "name": "getLockInfo",
      "outputs": [
        {
          "components": [
            {
              "internalType": "uint128",
              "name": "amountOfMAINTkn",
              "type": "uint128"
            },
            {
              "internalType": "uint128",
              "name": "amountOfveMAINTkn",
              "type": "uint128"
            },
            {
              "internalType": "uint128",
              "name": "mainTknShares",
              "type": "uint128"
            },
            {
              "internalType": "uint128",
              "name": "positionStreamShares",
              "type": "uint128"
            },
            {
              "internalType": "uint64",
              "name": "end",
              "type": "uint64"
            },
            {
              "internalType": "address",
              "name": "owner",
              "type": "address"
            }
          ],
          "internalType": "struct LockedBalance",
          "name": "",
          "type": "tuple"
        }
      ],
      "stateMutability": "view",
      "type": "function"
    },
    {
      "inputs": [
        {
          "internalType": "uint256",
          "name": "streamId",
          "type": "uint256"
        },
        {
          "internalType": "address",
          "name": "account",
          "type": "address"
        }
      ],
      "name": "getPending",
      "outputs": [
        {
          "internalType": "uint256",
          "name": "",
          "type": "uint256"
        }
      ],
      "stateMutability": "view",
      "type": "function"
    },
    {
      "inputs": [
        {
          "internalType": "bytes32",
          "name": "role",
          "type": "bytes32"
        }
      ],
      "name": "getRoleAdmin",
      "outputs": [
        {
          "internalType": "bytes32",
          "name": "",
          "type": "bytes32"
        }
      ],
      "stateMutability": "view",
      "type": "function"
    },
    {
      "inputs": [
        {
          "internalType": "uint256",
          "name": "streamId",
          "type": "uint256"
        }
      ],
      "name": "getStream",
      "outputs": [
        {
          "internalType": "address",
          "name": "streamOwner",
          "type": "address"
        },
        {
          "internalType": "address",
          "name": "rewardToken",
          "type": "address"
        },
        {
          "internalType": "uint256",
          "name": "rewardDepositAmount",
          "type": "uint256"
        },
        {
          "internalType": "uint256",
          "name": "rewardClaimedAmount",
          "type": "uint256"
        },
        {
          "internalType": "uint256",
          "name": "maxDepositAmount",
          "type": "uint256"
        },
        {
          "internalType": "uint256",
          "name": "rps",
          "type": "uint256"
        },
        {
          "internalType": "uint256",
          "name": "tau",
          "type": "uint256"
        },
        {
          "internalType": "enum StreamStatus",
          "name": "status",
          "type": "uint8"
        }
      ],
      "stateMutability": "view",
      "type": "function"
    },
    {
      "inputs": [
        {
          "internalType": "uint256",
          "name": "streamId",
          "type": "uint256"
        },
        {
          "internalType": "address",
          "name": "account",
          "type": "address"
        },
        {
          "internalType": "uint256",
          "name": "lockId",
          "type": "uint256"
        }
      ],
      "name": "getStreamClaimableAmountPerLock",
      "outputs": [
        {
          "internalType": "uint256",
          "name": "",
          "type": "uint256"
        }
      ],
      "stateMutability": "view",
      "type": "function"
    },
    {
      "inputs": [
        {
          "internalType": "address",
          "name": "account",
          "type": "address"
        },
        {
          "internalType": "uint256",
          "name": "streamId",
          "type": "uint256"
        }
      ],
      "name": "getUsersPendingRewards",
      "outputs": [
        {
          "internalType": "uint256",
          "name": "",
          "type": "uint256"
        }
      ],
      "stateMutability": "view",
      "type": "function"
    },
    {
      "inputs": [],
      "name": "govnContract",
      "outputs": [
        {
          "internalType": "address",
          "name": "",
          "type": "address"
        }
      ],
      "stateMutability": "view",
      "type": "function"
    },
    {
      "inputs": [
        {
          "internalType": "bytes32",
          "name": "role",
          "type": "bytes32"
        },
        {
          "internalType": "address",
          "name": "account",
          "type": "address"
        }
      ],
      "name": "grantRole",
      "outputs": [],
      "stateMutability": "nonpayable",
      "type": "function"
    },
    {
      "inputs": [
        {
          "internalType": "bytes32",
          "name": "role",
          "type": "bytes32"
        },
        {
          "internalType": "address",
          "name": "account",
          "type": "address"
        }
      ],
      "name": "hasRole",
      "outputs": [
        {
          "internalType": "bool",
          "name": "",
          "type": "bool"
        }
      ],
      "stateMutability": "view",
      "type": "function"
    },
    {
      "inputs": [
        {
          "internalType": "address",
          "name": "_vault",
          "type": "address"
        },
        {
          "internalType": "address",
          "name": "_mainTkn",
          "type": "address"
        },
        {
          "internalType": "address",
          "name": "_veMAINTkn",
          "type": "address"
        },
        {
          "components": [
            {
              "internalType": "uint32",
              "name": "maxWeightShares",
              "type": "uint32"
            },
            {
              "internalType": "uint32",
              "name": "minWeightShares",
              "type": "uint32"
            },
            {
              "internalType": "uint32",
              "name": "maxWeightPenalty",
              "type": "uint32"
            },
            {
              "internalType": "uint32",
              "name": "minWeightPenalty",
              "type": "uint32"
            },
            {
              "internalType": "uint32",
              "name": "penaltyWeightMultiplier",
              "type": "uint32"
            }
          ],
          "internalType": "struct Weight",
          "name": "_weight",
          "type": "tuple"
        },
        {
          "internalType": "address",
          "name": "streamOwner",
          "type": "address"
        },
        {
          "internalType": "uint256[]",
          "name": "scheduleTimes",
          "type": "uint256[]"
        },
        {
          "internalType": "uint256[]",
          "name": "scheduleRewards",
          "type": "uint256[]"
        },
        {
          "internalType": "uint256",
          "name": "tau",
          "type": "uint256"
        },
        {
          "internalType": "uint256",
          "name": "_voteShareCoef",
          "type": "uint256"
        },
        {
          "internalType": "uint256",
          "name": "_voteLockWeight",
          "type": "uint256"
        },
        {
          "internalType": "uint256",
          "name": "_maxLocks",
          "type": "uint256"
        }
      ],
      "name": "initializeStaking",
      "outputs": [],
      "stateMutability": "nonpayable",
      "type": "function"
    },
    {
      "inputs": [],
      "name": "mainTkn",
      "outputs": [
        {
          "internalType": "address",
          "name": "",
          "type": "address"
        }
      ],
      "stateMutability": "view",
      "type": "function"
    },
    {
      "inputs": [],
      "name": "maxLockPositions",
      "outputs": [
        {
          "internalType": "uint256",
          "name": "",
          "type": "uint256"
        }
      ],
      "stateMutability": "view",
      "type": "function"
    },
    {
      "inputs": [],
      "name": "paused",
      "outputs": [
        {
          "internalType": "uint256",
          "name": "",
          "type": "uint256"
        }
      ],
      "stateMutability": "view",
      "type": "function"
    },
    {
      "inputs": [
        {
          "internalType": "address",
          "name": "streamOwner",
          "type": "address"
        },
        {
          "internalType": "address",
          "name": "rewardToken",
          "type": "address"
        },
        {
          "internalType": "uint256",
          "name": "maxDepositAmount",
          "type": "uint256"
        },
        {
          "internalType": "uint256",
          "name": "minDepositAmount",
          "type": "uint256"
        },
        {
          "internalType": "uint256[]",
          "name": "scheduleTimes",
          "type": "uint256[]"
        },
        {
          "internalType": "uint256[]",
          "name": "scheduleRewards",
          "type": "uint256[]"
        },
        {
          "internalType": "uint256",
          "name": "tau",
          "type": "uint256"
        }
      ],
      "name": "proposeStream",
      "outputs": [],
      "stateMutability": "nonpayable",
      "type": "function"
    },
    {
      "inputs": [
        {
          "internalType": "uint256",
          "name": "streamId",
          "type": "uint256"
        },
        {
          "internalType": "address",
          "name": "streamFundReceiver",
          "type": "address"
        }
      ],
      "name": "removeStream",
      "outputs": [],
      "stateMutability": "nonpayable",
      "type": "function"
    },
    {
      "inputs": [
        {
          "internalType": "bytes32",
          "name": "role",
          "type": "bytes32"
        },
        {
          "internalType": "address",
          "name": "account",
          "type": "address"
        }
      ],
      "name": "renounceRole",
      "outputs": [],
      "stateMutability": "nonpayable",
      "type": "function"
    },
    {
      "inputs": [
        {
          "internalType": "bytes32",
          "name": "role",
          "type": "bytes32"
        },
        {
          "internalType": "address",
          "name": "account",
          "type": "address"
        }
      ],
      "name": "revokeRole",
      "outputs": [],
      "stateMutability": "nonpayable",
      "type": "function"
    },
    {
      "inputs": [
        {
          "internalType": "bool",
          "name": "_flag",
          "type": "bool"
        }
      ],
      "name": "setEarlyWithdrawalFlag",
      "outputs": [],
      "stateMutability": "nonpayable",
      "type": "function"
    },
    {
      "inputs": [
        {
          "internalType": "address",
          "name": "_govnContract",
          "type": "address"
        }
      ],
      "name": "setGovernanceContract",
      "outputs": [],
      "stateMutability": "nonpayable",
      "type": "function"
    },
    {
      "inputs": [
        {
          "internalType": "uint8",
          "name": "_maxLockPositions",
          "type": "uint8"
        }
      ],
      "name": "setMaxLockPositions",
      "outputs": [],
      "stateMutability": "nonpayable",
      "type": "function"
    },
    {
      "inputs": [
        {
          "internalType": "address",
          "name": "_treasury",
          "type": "address"
        }
      ],
      "name": "setTreasuryAddress",
      "outputs": [],
      "stateMutability": "nonpayable",
      "type": "function"
    },
    {
      "inputs": [
        {
          "internalType": "bytes4",
          "name": "interfaceId",
          "type": "bytes4"
        }
      ],
      "name": "supportsInterface",
      "outputs": [
        {
          "internalType": "bool",
          "name": "",
          "type": "bool"
        }
      ],
      "stateMutability": "view",
      "type": "function"
    },
    {
      "inputs": [],
      "name": "totalAmountOfStakedMAINTkn",
      "outputs": [
        {
          "internalType": "uint256",
          "name": "",
          "type": "uint256"
        }
      ],
      "stateMutability": "view",
      "type": "function"
    },
    {
      "inputs": [],
      "name": "totalAmountOfveMAINTkn",
      "outputs": [
        {
          "internalType": "uint256",
          "name": "",
          "type": "uint256"
        }
      ],
      "stateMutability": "view",
      "type": "function"
    },
    {
      "inputs": [],
      "name": "totalMAINTknShares",
      "outputs": [
        {
          "internalType": "uint256",
          "name": "",
          "type": "uint256"
        }
      ],
      "stateMutability": "view",
      "type": "function"
    },
    {
      "inputs": [],
      "name": "totalPenaltyBalance",
      "outputs": [
        {
          "internalType": "uint256",
          "name": "",
          "type": "uint256"
        }
      ],
      "stateMutability": "view",
      "type": "function"
    },
    {
      "inputs": [],
      "name": "totalStreamShares",
      "outputs": [
        {
          "internalType": "uint256",
          "name": "",
          "type": "uint256"
        }
      ],
      "stateMutability": "view",
      "type": "function"
    },
    {
      "inputs": [
        {
          "internalType": "uint256",
          "name": "lockId",
          "type": "uint256"
        }
      ],
      "name": "unlock",
      "outputs": [],
      "stateMutability": "nonpayable",
      "type": "function"
    },
    {
      "inputs": [
        {
          "internalType": "address",
          "name": "",
          "type": "address"
        }
      ],
      "name": "users",
      "outputs": [
        {
          "internalType": "uint128",
          "name": "veMAINTknBalance",
          "type": "uint128"
        },
        {
          "internalType": "uint128",
          "name": "veMAINTknReleased",
          "type": "uint128"
        }
      ],
      "stateMutability": "view",
      "type": "function"
    },
    {
      "inputs": [],
      "name": "vault",
      "outputs": [
        {
          "internalType": "address",
          "name": "",
          "type": "address"
        }
      ],
      "stateMutability": "view",
      "type": "function"
    },
    {
      "inputs": [],
      "name": "veMAINTkn",
      "outputs": [
        {
          "internalType": "address",
          "name": "",
          "type": "address"
        }
      ],
      "stateMutability": "view",
      "type": "function"
    },
    {
      "inputs": [
        {
          "internalType": "uint256",
          "name": "streamId",
          "type": "uint256"
        }
      ],
      "name": "withdraw",
      "outputs": [],
      "stateMutability": "nonpayable",
      "type": "function"
    },
    {
      "inputs": [],
      "name": "withdrawAll",
      "outputs": [],
      "stateMutability": "nonpayable",
      "type": "function"
    },
    {
      "inputs": [
        {
          "internalType": "address",
          "name": "penaltyReceiver",
          "type": "address"
        }
      ],
      "name": "withdrawPenalty",
      "outputs": [],
      "stateMutability": "nonpayable",
      "type": "function"
    }
  ],
  "bytecode": "0x608060405234801561001057600080fd5b506001601455615fa480620000266000396000f3fe608060405234801561001057600080fd5b50600436106102d65760003560e01c80636605bfda11610182578063a217fddf116100e9578063d547741f116100a2578063f36c8f5c1161007c578063f36c8f5c14610707578063f60403731461071c578063f851a44014610725578063fbfa77cf1461073857600080fd5b8063d547741f146106ce578063ddcf3e29146106e1578063eb55a47c146106f457600080fd5b8063a217fddf14610635578063a87430ba1461063d578063a8d85f701461067f578063b52c05fe1461069f578063cb6a496d146106b2578063cedb6668146106bb57600080fd5b80638659ef621161013b5780638659ef6214610588578063894e9a0d1461059b5780638d40bd03146105c257806390403322146105d557806391132812146105e857806391d148541461062257600080fd5b80636605bfda14610507578063670d2dfc1461051a5780636db8e53d1461052d5780637e583913146105365780637f37df3b14610549578063853828b61461058057600080fd5b80632f2ff15d116102415780633ba31abf116101fa578063594dd432116101d4578063594dd432146104c55780635c975abb146104d85780635f7461d6146104e15780636198e339146104f457600080fd5b80633ba31abf1461048a5780633ea005c81461049d57806355021b3a146104b257600080fd5b80632f2ff15d146103fa578063338e30781461040d57806336085c511461043457806336568abe14610447578063389ed2671461045a5780633a3f15111461048157600080fd5b8063248a9ca311610293578063248a9ca3146103785780632692c59f1461039b578063277d96b7146103ae5780632851ed12146103c15780632b6a7221146103d45780632e1a7d4d146103e757600080fd5b806301ffc9a7146102db5780631129753f1461030457806315b9672c14610319578063160d3fee1461033957806319e220a41461034f5780631f5b2ac01461036f575b600080fd5b6102ee6102e93660046146a5565b61074b565b6040516102fb91906146d8565b60405180910390f35b61031761031236600461470b565b610782565b005b61032c61032736600461473d565b6107d5565b6040516102fb9190614811565b61034260035481565b6040516102fb9190614825565b600c54610362906001600160a01b031681565b6040516102fb9190614833565b61034260055481565b610342610386366004614841565b60009081526015602052604090206001015490565b6103176103a9366004614841565b610901565b6103426103bc366004614841565b61093a565b6103176103cf366004614a04565b610945565b6103176103e236600461470b565b610d2e565b6103176103f5366004614841565b610dad565b610317610408366004614b2d565b610e2d565b60085461042790600160a01b90046001600160401b031681565b6040516102fb9190614b60565b610317610442366004614841565b610e52565b610317610455366004614b2d565b611028565b6103427f139c2898040ef16910dc9f44dc697df79363da767d8bc92f2e310312b816e46d81565b61034260125481565b610317610498366004614b2d565b61105a565b610342600080516020615f4f83398151915281565b6103176104c0366004614b6e565b6111f9565b6103176104d3366004614c41565b6114ae565b61034260175481565b6103176104ef366004614841565b611527565b610317610502366004614841565b61159f565b61031761051536600461470b565b611738565b610317610528366004614c76565b6117a3565b61034260045481565b601354610362906001600160a01b031681565b610342610557366004614b2d565b6001600160a01b03166000908152600e6020908152604080832093835260019093019052205490565b610317611813565b600b54610362906001600160a01b031681565b6105ae6105a9366004614841565b6118bb565b6040516102fb989796959493929190614cdb565b6103176105d0366004614c41565b611963565b6103176105e3366004614841565b611bc8565b6103426105f636600461473d565b6001600160a01b03919091166000908152600e6020908152604080832093835260019093019052205490565b6102ee610630366004614b2d565b611c92565b610342600081565b61067161064b36600461470b565b600e602052600090815260409020546001600160801b0380821691600160801b90041682565b6040516102fb929190614d52565b61069261068d36600461470b565b611cbd565b6040516102fb9190614dca565b6103176106ad366004614c41565b611d93565b61034260025481565b6103176106c9366004614841565b611f65565b6103176106dc366004614b2d565b611fae565b6103426106ef366004614ddb565b611fd3565b610317610702366004614e3f565b6120d4565b610342600080516020615f2f83398151915281565b61034260075481565b601654610362906001600160a01b031681565b600d54610362906001600160a01b031681565b60006001600160e01b03198216637965db0b60e01b148061077c57506301ffc9a760e01b6001600160e01b03198316145b92915050565b600080516020615f2f83398151915261079a81612112565b6107b2600080516020615f2f8339815191528361211c565b50601380546001600160a01b0319166001600160a01b0392909216919091179055565b6040805160c08101825260008082526020808301829052828401829052606083018290526080830182905260a083018290526001600160a01b03861682526010905291909120548211156108445760405162461bcd60e51b815260040161083b90614e86565b60405180910390fd5b6001600160a01b0383166000908152601060205260409020610867600184614eac565b8154811061087757610877614ec7565b60009182526020918290206040805160c08101825260039390930290910180546001600160801b038082168552600160801b9182900481169585019590955260018201548086169385019390935290910490921660608201526002909101546001600160401b0381166080830152600160401b90046001600160a01b031660a08201529392505050565b60175481811614806109195750610919600033611c92565b6109355760405162461bcd60e51b815260040161083b90614f0a565b601755565b600061077c826121a2565b60005460ff16156109685760405162461bcd60e51b815260040161083b90614f44565b6109ab878b8760008151811061098057610980614ec7565b60200260200101518860008151811061099b5761099b614ec7565b60200260200101518a8a8a612226565b6109ba8a8a8a8e8787876124cc565b600d54604051630480051d60e31b81526001600160a01b039091169063240028e8906109ea908d90600401614833565b602060405180830381865afa158015610a07573d6000803e3d6000fd5b505050506040513d601f19601f82011682018060405250810190610a2b9190614f5f565b610a475760405162461bcd60e51b815260040161083b90614fa8565b610a51600061268f565b610a69600080516020615f4f8339815191523361211c565b610a81600080516020615f2f8339815191523361211c565b6000806040518060400160405280898152602001888152509050600f6040518061016001604052808b6001600160a01b031681526020018b6001600160a01b03168152602001600b60009054906101000a90046001600160a01b03166001600160a01b031681526020016000815260200160008152602001600081526020016000815260200188815260200160008152602001838152602001600280811115610b2c57610b2c614c97565b905281546001808201845560009384526020938490208351600c9093020180546001600160a01b03199081166001600160a01b0394851617825584860151928201805482169385169390931790925560408401516002820180549093169316929092179055606082015160038201556080820151600482015560a0820151600582015560c0820151600682015560e082015160078201556101008201516008820155610120820151805180519394929391926009850192610bf0928492019061462c565b506020828101518051610c09926001850192019061462c565b505050610140820151600b8201805460ff19166001836002811115610c3057610c30614c97565b0217905550506013805460ff60a01b1916600160a01b179055506000805460ff1916600117815587516001600160a01b03808f1692908c169185917f16284487ea0f1368a3aac8128c3dd7d8e577839303a834c010386a8aea226570918c9190610c9c57610c9c614ec7565b6020026020010151604051610cb19190614825565b60405180910390a48b6001600160a01b0316896001600160a01b0316837f4396d7c3edc1447dac8dd2b7143af95840c926a210524a0d3198012c7fdf37c78a600081518110610d0257610d02614ec7565b6020026020010151604051610d179190614825565b60405180910390a450505050505050505050505050565b6001806017541660001480610d495750610d49600033611c92565b610d655760405162461bcd60e51b815260040161083b90614fde565b600080516020615f2f833981519152610d7d81612112565b600060075411610d9f5760405162461bcd60e51b815260040161083b9061500f565b610da8836126f9565b505050565b6001806017541660001480610dc85750610dc8600033611c92565b610de45760405162461bcd60e51b815260040161083b90614fde565b336000908152600e602090815260408083208584526002019091529020544211610e205760405162461bcd60e51b815260040161083b90615046565b610e298261278a565b5050565b600082815260156020526040902060010154610e4881612112565b610da8838361211c565b610e5a612883565b6001806017541660001480610e755750610e75600033611c92565b610e915760405162461bcd60e51b815260040161083b90614fde565b601354600160a01b900460ff161515600114610ebf5760405162461bcd60e51b815260040161083b9061507e565b81600003610edf5760405162461bcd60e51b815260040161083b906150ad565b33600090815260106020526040902054821115610f0e5760405162461bcd60e51b815260040161083b906150e2565b336000908152601060205260408120610f28600185614eac565b81548110610f3857610f38614ec7565b6000918252602090912060039091020180549091506001600160801b0316610f725760405162461bcd60e51b815260040161083b90615117565b6002810154426001600160401b0390911611610fa05760405162461bcd60e51b815260040161083b90615149565b6002810154600160401b90046001600160a01b03163314610fd35760405162461bcd60e51b815260040161083b90615179565b610fdb6128ac565b600354600182015460025460009291610fff916001600160801b0390911690615189565b61100991906151be565b9050611018848283853361298d565b5050506110256001601455565b50565b6001600160a01b03811633146110505760405162461bcd60e51b815260040161083b906151d2565b610e298282612a65565b600080516020615f4f83398151915261107281612112565b826000036110925760405162461bcd60e51b815260040161083b90615244565b6000600f84815481106110a7576110a7614ec7565b60009182526020909120600c9091020190506002600b82015460ff1660028111156110d4576110d4614c97565b146110f15760405162461bcd60e51b815260040161083b90615274565b600b8101805460ff191690556004810154600382015460009161111391614eac565b6002830154909150600090611130906001600160a01b0316612acc565b600d5460028501549192506001600160a01b039081169163da0c1a88918891168486111561115e5784611160565b855b6040518463ffffffff1660e01b815260040161117e93929190615284565b600060405180830381600087803b15801561119857600080fd5b505af11580156111ac573d6000803e3d6000fd5b505050600284015484546040516001600160a01b03928316935091169088907f661da9ced4b5d786f5b5f451a5f68af24721a01b0a65bb47fa4fdf70b80b887c90600090a4505050505050565b600080516020615f4f83398151915261121181612112565b61122088888888888888612226565b600d54604051630480051d60e31b81526001600160a01b039091169063240028e890611250908a90600401614833565b602060405180830381865afa15801561126d573d6000803e3d6000fd5b505050506040513d601f19601f820116820180604052508101906112919190614f5f565b6112ad5760405162461bcd60e51b815260040161083b906152d2565b600060405180604001604052808681526020018581525090506000600f805490509050600f6040518061016001604052808c6001600160a01b03168152602001336001600160a01b031681526020018b6001600160a01b0316815260200160008152602001600081526020018a8152602001898152602001868152602001600081526020018481526020016001600281111561134b5761134b614c97565b905281546001808201845560009384526020938490208351600c9093020180546001600160a01b03199081166001600160a01b0394851617825584860151928201805482169385169390931790925560408401516002820180549093169316929092179055606082015160038201556080820151600482015560a0820151600582015560c0820151600682015560e08201516007820155610100820151600882015561012082015180518051939492939192600985019261140f928492019061462c565b506020828101518051611428926001850192019061462c565b505050610140820151600b8201805460ff1916600183600281111561144f5761144f614c97565b02179055505050886001600160a01b03168a6001600160a01b0316827f16284487ea0f1368a3aac8128c3dd7d8e577839303a834c010386a8aea2265708b60405161149a9190614825565b60405180910390a450505050505050505050565b60018060175416600014806114c957506114c9600033611c92565b6114e55760405162461bcd60e51b815260040161083b90614fde565b336000908152601060205260409020548211156115145760405162461bcd60e51b815260040161083b906150e2565b61151c6128ac565b610da8338484612b40565b60018060175416600014806115425750611542600033611c92565b61155e5760405162461bcd60e51b815260040161083b90614fde565b3360009081526010602052604090205482111561158d5760405162461bcd60e51b815260040161083b906150e2565b6115956128ac565b610e293383612e14565b6115a7612883565b60018060175416600014806115c257506115c2600033611c92565b6115de5760405162461bcd60e51b815260040161083b90614fde565b816000036115fe5760405162461bcd60e51b815260040161083b906150ad565b3360009081526010602052604090205482111561162d5760405162461bcd60e51b815260040161083b906150e2565b336000908152601060205260408120611647600185614eac565b8154811061165757611657614ec7565b6000918252602090912060039091020180549091506001600160801b03166116915760405162461bcd60e51b815260040161083b90615117565b6002810154426001600160401b0390911611156116c05760405162461bcd60e51b815260040161083b90615306565b6002810154600160401b90046001600160a01b031633146116f35760405162461bcd60e51b815260040161083b90615179565b6116fb6128ac565b60035460018201546002546000929161171f916001600160801b0390911690615189565b61172991906151be565b90506110188482838533612e81565b600080516020615f2f83398151915261175081612112565b600880546001600160a01b038481166001600160a01b0319831681179093556040519116919082907f1db696c9becb6c7e5b140934fe902d723d35791ef36d36c9b1586f6a502fd29790600090a3505050565b600080516020615f2f8339815191526117bb81612112565b6013805460ff60a01b198116600160a01b851515818102929092179093556040519290910460ff1691821515907f6cd354be06b6c3ce9871ee8831b718be7a99ce8fe7c914e03ee420fa85bc6a7590600090a3505050565b600180601754166000148061182e575061182e600033611c92565b61184a5760405162461bcd60e51b815260040161083b90614fde565b336000908152600e60205260408120600f5490915b818110156118b5576000818152600184016020526040902054158015906118955750600081815260028401602052604090205442115b156118a3576118a38161278a565b806118ad81615316565b91505061185f565b50505050565b6000806000806000806000806000600f8a815481106118dc576118dc614ec7565b90600052602060002090600c020190508060000160009054906101000a90046001600160a01b03168160020160009054906101000a90046001600160a01b03168260030154836004015484600501548560080154866007015487600b0160009054906101000a900460ff169850985098509850985098509850985050919395975091939597565b600180601754166000148061197e575061197e600033611c92565b61199a5760405162461bcd60e51b815260040161083b90614fde565b6000600f84815481106119af576119af614ec7565b60009182526020909120600c9091020190506001600b82015460ff1660028111156119dc576119dc614c97565b146119f95760405162461bcd60e51b815260040161083b90615359565b4281600901600001600081548110611a1357611a13614ec7565b90600052602060002001541015611a3c5760405162461bcd60e51b815260040161083b90615396565b8060050154831115611a605760405162461bcd60e51b815260040161083b906153c9565b8060060154831015611a845760405162461bcd60e51b815260040161083b906153fb565b600b8101805460ff19166002179055600381018390556005810154831015611ab057611ab08484612fb0565b6003810154600a82018054600090611aca57611aca614ec7565b906000526020600020015414611af25760405162461bcd60e51b815260040161083b90615435565b600281015481546040516001600160a01b03928316929091169086907f4396d7c3edc1447dac8dd2b7143af95840c926a210524a0d3198012c7fdf37c790611b3b908890614825565b60405180910390a46002810154600d546040516323b872dd60e01b81526001600160a01b03928316926323b872dd92611b7e923392909116908890600401615284565b6020604051808303816000875af1158015611b9d573d6000803e3d6000fd5b505050506040513d601f19601f82011682018060405250810190611bc19190614f5f565b5050505050565b600080516020615f4f833981519152611be081612112565b6000600f8381548110611bf557611bf5614ec7565b60009182526020909120600c9091020190506001600b82015460ff166002811115611c2257611c22614c97565b14611c3f5760405162461bcd60e51b815260040161083b9061546e565b600b8101805460ff19169055600281015481546040516001600160a01b03928316929091169085907ffadbcbd495527ce5e10fd0cceba57d404a4625dd6ce0499c254ac523789ef3ad90600090a4505050565b60009182526015602090815260408084206001600160a01b0393909316845291905290205460ff1690565b6001600160a01b0381166000908152601060209081526040808320805482518185028101850190935280835260609492939192909184015b82821015611d885760008481526020908190206040805160c0810182526003860290920180546001600160801b038082168552600160801b9182900481168587015260018084015480831695870195909552919093049092166060840152600201546001600160401b0381166080840152600160401b90046001600160a01b031660a08301529083529092019101611cf5565b505050509050919050565b611d9b612883565b6001806017541660001480611db65750611db6600033611c92565b611dd25760405162461bcd60e51b815260040161083b90614fde565b601254336000908152601060205260409020541115611e035760405162461bcd60e51b815260040161083b9061549e565b60008311611e235760405162461bcd60e51b815260040161083b906154cd565b428211611e425760405162461bcd60e51b815260040161083b90615501565b611e5362093a806301e13380615511565b611e5d9042615511565b821115611e7c5760405162461bcd60e51b815260040161083b9061554a565b611e846128ac565b6040805160c0810182526000808252602082018190529181018290526060810182905260808101611eb4856130b6565b6001600160401b03168152602001336001600160a01b03168152509050611edc3382866130e3565b600b54600d546040516323b872dd60e01b81526001600160a01b03928316926323b872dd92611f15923392909116908990600401615284565b6020604051808303816000875af1158015611f34573d6000803e3d6000fd5b505050506040513d601f19601f82011682018060405250810190611f589190614f5f565b505050610e296001601455565b6001806017541660001480611f805750611f80600033611c92565b611f9c5760405162461bcd60e51b815260040161083b90614fde565b611fa46128ac565b610e29338361328a565b600082815260156020526040902060010154611fc981612112565b610da88383612a65565b6001600160a01b03821660009081526010602052604081205482111561200b5760405162461bcd60e51b815260040161083b90614e86565b6000612016856121a2565b6001600160a01b0385166000908152600e602090815260408083206010909252822092935091612047600187614eac565b8154811061205757612057614ec7565b600091825260208083208884526003868101835260408086208d8752909352919093205491029091016001810154909250600160801b90046001600160801b03166c7e37be2022c0914b2680000000816120b18488614eac565b6120bb9190615189565b6120c591906151be565b955050505050505b9392505050565b6012805460ff83169182905560405190919082907f46a30b28ed71185fea149df29e60cb4e801e2371324ab100861181aaa4e28b6d90600090a35050565b611025813361341a565b6121268282611c92565b610e295760008281526015602090815260408083206001600160a01b03851684529091529020805460ff1916600117905561215e3390565b6001600160a01b0316816001600160a01b0316837f2f8788117e7eff1d82e926ec794901d17c78024a50270940304540a733656f0d60405160405180910390a45050565b60006004546000036121c65760405162461bcd60e51b815260040161083b90615581565b6004546c7e37be2022c0914b26800000006121e38460015461347e565b6121ed9190615189565b6121f791906151be565b600f838154811061220a5761220a614ec7565b90600052602060002090600c02016008015461077c9190615511565b6001600160a01b03871661224c5760405162461bcd60e51b815260040161083b906155b5565b6001600160a01b0386166122725760405162461bcd60e51b815260040161083b906155f0565b600085116122925760405162461bcd60e51b815260040161083b90615627565b600084116122b25760405162461bcd60e51b815260040161083b9061565e565b848411156122d25760405162461bcd60e51b815260040161083b90615698565b816000815181106122e5576122e5614ec7565b6020026020010151851461230b5760405162461bcd60e51b815260040161083b906156d2565b428360008151811061231f5761231f614ec7565b6020026020010151116123445760405162461bcd60e51b815260040161083b9061570b565b81518351146123655760405162461bcd60e51b815260040161083b90615743565b6002835110156123875760405162461bcd60e51b815260040161083b90615779565b806000036123a75760405162461bcd60e51b815260040161083b906157ab565b60015b835181101561247c57836123bf600183614eac565b815181106123cf576123cf614ec7565b60200260200101518482815181106123e9576123e9614ec7565b60200260200101511161240e5760405162461bcd60e51b815260040161083b906157df565b8261241a600183614eac565b8151811061242a5761242a614ec7565b602002602001015183828151811061244457612444614ec7565b6020026020010151111561246a5760405162461bcd60e51b815260040161083b90615815565b8061247481615316565b9150506123aa565b50816001835161248c9190614eac565b8151811061249c5761249c614ec7565b60200260200101516000146124c35760405162461bcd60e51b815260040161083b9061584f565b50505050505050565b6001600160a01b0387166124f25760405162461bcd60e51b815260040161083b90615884565b6001600160a01b0386166125185760405162461bcd60e51b815260040161083b906158b9565b6001600160a01b03841661253e5760405162461bcd60e51b815260040161083b906158ee565b846020015163ffffffff16856000015163ffffffff16116125715760405162461bcd60e51b815260040161083b90615926565b846060015163ffffffff16856040015163ffffffff16116125a45760405162461bcd60e51b815260040161083b90615960565b600b80546001600160a01b039889166001600160a01b031991821617909155600c8054978916978216979097179096558451601180546020880151604089015160608a01516080909a015163ffffffff908116600160801b0263ffffffff60801b199b8216600160601b0263ffffffff60601b19938316600160401b02939093166fffffffffffffffff0000000000000000199483166401000000000267ffffffffffffffff199096169290971691909117939093179190911693909317929092179690961617909455600d8054939096169290941691909117909355600992909255600a55601255565b60185460ff16156126b25760405162461bcd60e51b815260040161083b90615999565b6126bd60003361211c565b6126e77f139c2898040ef16910dc9f44dc697df79363da767d8bc92f2e310312b816e46d3361211c565b6017556018805460ff19166001179055565b600780546000918290556006805491928392612716908490615511565b9091555050600d54600b54604051631b41835160e31b81526001600160a01b039283169263da0c1a8892612754928792909116908690600401615284565b600060405180830381600087803b15801561276e57600080fd5b505af1158015612782573d6000803e3d6000fd5b505050505050565b336000818152600e602090815260408083208584526001810190925280832080549390555190929084907f3bfce8de0db7450cc169b94323c210e69a36c6a4a58c9f5d96bec4973adce392906127e1908590614825565b60405180910390a3600d54600f80546001600160a01b039092169163da0c1a889133918790811061281457612814614ec7565b600091825260209091206002600c9092020101546040516001600160e01b031960e085901b16815261285592916001600160a01b0316908690600401615284565b600060405180830381600087803b15801561286f57600080fd5b505af11580156124c3573d6000803e3d6000fd5b6002601454036128a55760405162461bcd60e51b815260040161083b906159dd565b6002601455565b42600154036128b757565b600f54600354158015906128ca57508015155b15612986576128dc600060015461347e565b600260008282546128ed9190615511565b90915550600190505b81811015612984576002600f828154811061291357612913614ec7565b60009182526020909120600b600c90920201015460ff16600281111561293b5761293b614c97565b0361297257612949816121a2565b600f828154811061295c5761295c614ec7565b90600052602060002090600c0201600801819055505b8061297c81615316565b9150506128f6565b505b5042600155565b60028201546001600160401b03166129a88686868686612e81565b60006129b482426135d2565b90506000620186a06129c68884615189565b6129d091906151be565b6001600160a01b0385166000908152600e60209081526040808320838052600181019092529091205491925090821115612a1c5760405162461bcd60e51b815260040161083b90615a10565b600080805260018201602052604081208054849290612a3c908490614eac565b925050819055508160076000828254612a559190615511565b9091555050505050505050505050565b612a6f8282611c92565b15610e295760008281526015602090815260408083206001600160a01b0385168085529252808320805460ff1916905551339285917ff6391f5c32d9c69d2a47ea670b442974b53935d1edc7fd64eb21e047a839171b9190a45050565b600d546040516370a0823160e01b81526000916001600160a01b03808516926370a0823192612aff921690600401614833565b602060405180830381865afa158015612b1c573d6000803e3d6000fd5b505050506040513d601f19601f8201168201806040525081019061077c9190615a2b565b6001600160a01b0383166000908152601060205260408120612b63600184614eac565b81548110612b7357612b73614ec7565b9060005260206000209060030201905082600003612ba35760405162461bcd60e51b815260040161083b90615a73565b6002600f8481548110612bb857612bb8614ec7565b60009182526020909120600b600c90920201015460ff166002811115612be057612be0614c97565b14612bfd5760405162461bcd60e51b815260040161083b90615aae565b6001600160a01b0384166000908152600e60205260408120600183015490916001600160801b039091169003612c455760405162461bcd60e51b815260040161083b90615ae2565b600182015460008481526003830160209081526040808320888452909152812054600f805492936c7e37be2022c0914b268000000093600160801b9091046001600160801b031692919089908110612c9f57612c9f614ec7565b90600052602060002090600c020160080154612cbb9190614eac565b612cc59190615189565b612ccf91906151be565b905080600003612ce157505050505050565b600085815260018301602052604081208054839290612d01908490615511565b9091555050600f805486908110612d1a57612d1a614ec7565b600091825260208083206008600c9093020191909101548683526003850182526040808420898552909252912055600f805486908110612d5c57612d5c614ec7565b90600052602060002090600c02016007015442612d799190615511565b6000868152600284016020526040902055600f805482919087908110612da157612da1614ec7565b90600052602060002090600c02016004016000828254612dc19190615511565b9091555050600085815260018301602052604080822054905190916001600160a01b0389169188917f5f1c6be51c8ec7fa7e7ddd9f798ec55927b06cfc8d9159987d1ae3358cb10b5991a4505050505050565b600f5460015b818110156118b5576002600f8281548110612e3757612e37614ec7565b60009182526020909120600b600c90920201015460ff166002811115612e5f57612e5f614c97565b03612e6f57612e6f848285612b40565b80612e7981615316565b915050612e1a565b6001600160a01b0381166000908152600e602052604090208254600160801b90046001600160801b0316612eb5848361369a565b612ec28685878a87613727565b600c546040516370a0823160e01b81526000916001600160a01b0316906370a0823190612ef3908790600401614833565b602060405180830381865afa158015612f10573d6000803e3d6000fd5b505050506040513d601f19601f82011682018060405250810190612f349190615a2b565b905081811015612f42578091505b600c54604051632770a7eb60e21b81526001600160a01b0390911690639dc29fac90612f749087908690600401615af2565b600060405180830381600087803b158015612f8e57600080fd5b505af1158015612fa2573d6000803e3d6000fd5b505050505050505050505050565b6000600f8381548110612fc557612fc5614ec7565b600091825260208220600a600c90920201015491505b818110156118b557600f8481548110612ff657612ff6614ec7565b90600052602060002090600c02016005015483600f868154811061301c5761301c614ec7565b90600052602060002090600c0201600901600101838154811061304157613041614ec7565b90600052602060002001546130569190615189565b61306091906151be565b600f858154811061307357613073614ec7565b90600052602060002090600c0201600901600101828154811061309857613098614ec7565b600091825260209091200155806130ae81615316565b915050612fdb565b60006001600160401b038211156130df5760405162461bcd60e51b815260040161083b90615b41565b5090565b60004283608001516001600160401b03166130fe9190614eac565b9050600061310d838387613856565b9050613118816138e4565b846020018181516131299190615b51565b6001600160801b0316905250821561316057613144836138e4565b84518590613153908390615b51565b6001600160801b03169052505b6001600160a01b0385811660008181526010602090815260408083208054600180820183558286528486208c51958d01516001600160801b03968716600160801b9188168202176003909402909101928355938c015160608d01519086169516909302939093179183019190915560808901516002909201805460a08b01516001600160401b039094166001600160e01b031990911617600160401b939096169290920294909417905552546132188685848461390d565b811561278257600c546040516340c10f1960e01b81526001600160a01b03909116906340c10f19906132509089908690600401615af2565b600060405180830381600087803b15801561326a57600080fd5b505af115801561327e573d6000803e3d6000fd5b50505050505050505050565b806000036132aa5760405162461bcd60e51b815260040161083b90615ba8565b6002600f82815481106132bf576132bf614ec7565b60009182526020909120600b600c90920201015460ff1660028111156132e7576132e7614c97565b146133045760405162461bcd60e51b815260040161083b90615aae565b6001600160a01b038216600090815260106020908152604080832080548251818502810185019093528083529192909190849084015b828210156133cd5760008481526020908190206040805160c0810182526003860290920180546001600160801b038082168552600160801b9182900481168587015260018084015480831695870195909552919093049092166060840152600201546001600160401b0381166080840152600160401b90046001600160a01b031660a0830152908352909201910161333a565b505082519293505050806133f35760405162461bcd60e51b815260040161083b90615bdf565b60015b818111611bc157613408858583612b40565b8061341281615316565b9150506133f6565b6134248282611c92565b610e295761343c816001600160a01b03166014613b03565b613447836020613b03565b604051602001613458929190615c3d565b60408051601f198184030181529082905262461bcd60e51b825261083b91600401615cc7565b6000428211156134a05760405162461bcd60e51b815260040161083b90615d02565b4282036134af5750600061077c565b6000600f84815481106134c4576134c4614ec7565b90600052602060002090600c02016009016000016000815481106134ea576134ea614ec7565b9060005260206000200154905080421161350857600091505061077c565b6000600f858154811061351d5761351d614ec7565b90600052602060002090600c02016009016000016001600f878154811061354657613546614ec7565b600091825260209091206009600c9092020101546135649190614eac565b8154811061357457613574614ec7565b906000526020600020015490508084106135935760009250505061077c565b600080838611156135a6578591506135aa565b8391505b824210156135b95750426135bc565b50815b6135c7878383613c6e565b979650505050505050565b600082816135e08483614eac565b90508184106135f45760009250505061077c565b61360562093a806301e13380615511565b601154829061362a9063ffffffff600160601b8204811691600160401b900416615d12565b6011546136449190600160801b900463ffffffff16615d29565b63ffffffff166136549190615189565b61365e91906151be565b6011546136819063ffffffff600160601b8204811691600160801b900416615d29565b63ffffffff166136919190615511565b95945050505050565b81546001600160801b03808216845560058054600160801b909304909116918291906000906136ca908490614eac565b909155505081546000906001600160801b03168210156136fd5782546136fa9083906001600160801b0316614eac565b90505b613706816138e4565b83546001600160801b0319166001600160801b039190911617909255505050565b6001600160a01b0381166000908152600e602052604081206002805491928692613752908490614eac565b9091555050600185015460048054600160801b9092046001600160801b031691600090613780908490614eac565b90915550506001850154600380546001600160801b03909216916000906137a8908490614eac565b90915550506000808052600182016020526040812080548892906137cd908490615511565b9091555050600f80546000906137e5576137e5614ec7565b90600052602060002090600c020160070154426138029190615511565b6000808052600283016020526040808220929092559051849188916001600160a01b038616917f7fc4727e062e336010f2c282598ef5f14facb3de68cf8195c2f23e1454b2b74e91a4612782818385613fd9565b6001600160a01b0381166000908152600e60205260408120816138798686614228565b9050613884816138e4565b8254839060009061389f9084906001600160801b0316615b51565b92506101000a8154816001600160801b0302191690836001600160801b0316021790555080600560008282546138d59190615511565b90915550909695505050505050565b60006001600160801b038211156130df5760405162461bcd60e51b815260040161083b90615d8b565b6001600160a01b0384166000908152600e602090815260408083206010909252822090919061393d600185614eac565b8154811061394d5761394d614ec7565b90600052602060002090600302019050600061396886614269565b9050856002600082825461397c9190615511565b9250508190555080600360008282546139959190615511565b90915550600090506139a88287426142ca565b905080600460008282546139bc9190615511565b909155506139cb9050816138e4565b6001840180546010906139ef908490600160801b90046001600160801b0316615b51565b92506101000a8154816001600160801b0302191690836001600160801b03160217905550613a1c826138e4565b600184018054600090613a399084906001600160801b0316615b51565b82546001600160801b039182166101009390930a928302919092021990911617905550600f5460015b81811015613abd57600f8181548110613a7d57613a7d614ec7565b600091825260208083206008600c909302019190910154898352600389018252604080842085855290925291205580613ab581615316565b915050613a62565b508587837fb4caaf29adda3eefee3ad552a8e85058589bf834c7466cae4ee58787f70589ed8c604051613af09190614833565b60405180910390a4505050505050505050565b60606000613b12836002615189565b613b1d906002615511565b6001600160401b03811115613b3457613b34614862565b6040519080825280601f01601f191660200182016040528015613b5e576020820181803683370190505b509050600360fc1b81600081518110613b7957613b79614ec7565b60200101906001600160f81b031916908160001a905350600f60fb1b81600181518110613ba857613ba8614ec7565b60200101906001600160f81b031916908160001a9053506000613bcc846002615189565b613bd7906001615511565b90505b6001811115613c4f576f181899199a1a9b1b9c1cb0b131b232b360811b85600f1660108110613c0b57613c0b614ec7565b1a60f81b828281518110613c2157613c21614ec7565b60200101906001600160f81b031916908160001a90535060049490941c93613c4881615d9b565b9050613bda565b5083156120cd5760405162461bcd60e51b815260040161083b90615de4565b600080600f8581548110613c8457613c84614ec7565b90600052602060002090600c02016009019050600080613ca5878787614415565b9092509050600080828403613d835784600101846001613cc59190615511565b81548110613cd557613cd5614ec7565b9060005260206000200154856001018581548110613cf557613cf5614ec7565b9060005260206000200154613d0a9190614eac565b9050846000018481548110613d2157613d21614ec7565b60009182526020909120015485613d39866001615511565b81548110613d4957613d49614ec7565b9060005260206000200154613d5e9190614eac565b613d688989614eac565b613d729083615189565b613d7c91906151be565b9150613fcd565b84600101846001613d949190615511565b81548110613da457613da4614ec7565b9060005260206000200154856001018581548110613dc457613dc4614ec7565b9060005260206000200154613dd99190614eac565b9050846000018481548110613df057613df0614ec7565b60009182526020909120015485613e08866001615511565b81548110613e1857613e18614ec7565b9060005260206000200154613e2d9190614eac565b8886613e3a876001615511565b81548110613e4a57613e4a614ec7565b9060005260206000200154613e5f9190614eac565b613e699083615189565b613e7391906151be565b9150846001018381548110613e8a57613e8a614ec7565b906000526020600020015485600101856001613ea69190615511565b81548110613eb657613eb6614ec7565b9060005260206000200154613ecb9190614eac565b613ed59083615511565b915084600101836001613ee89190615511565b81548110613ef857613ef8614ec7565b9060005260206000200154856001018481548110613f1857613f18614ec7565b9060005260206000200154613f2d9190614eac565b9050846000018381548110613f4457613f44614ec7565b60009182526020909120015485613f5c856001615511565b81548110613f6c57613f6c614ec7565b9060005260206000200154613f819190614eac565b856000018481548110613f9657613f96614ec7565b906000526020600020015488613fac9190614eac565b613fb69083615189565b613fc091906151be565b613fca9083615511565b91505b50979650505050505050565b600f546001600160a01b0383166000908152601060205260409020548281148015906140055750600181115b1561418d576001600160a01b038416600090815260106020526040812061402d600184614eac565b8154811061403d5761403d614ec7565b600091825260208083206001600160a01b038916845260109091526040909220600390910290910191508190614074600187614eac565b8154811061408457614084614ec7565b60009182526020909120825460039092020180546001600160801b03199081166001600160801b0393841690811783558454600160801b908190048516810290911783556001808601805482860180549095169087169081178555905483900490951690910290931790556002928301805493909101805467ffffffffffffffff1981166001600160401b03909516948517825591546001600160a01b03600160401b9182900416026001600160e01b0319909216909317179091555b8381101561418a5760008381526003880160208181526040808420858552825280842054898552928252808420858552909152909120558061418281615316565b915050614141565b50505b60015b828110156141c65760008281526003870160209081526040808320848452909152812055806141be81615316565b915050614190565b506001600160a01b03841660009081526010602052604090208054806141ee576141ee615df4565b600082815260208120600360001990930192830201818155600181019190915560020180546001600160e01b031916905590555050505050565b6000670de0b6b3a7640000600a54670de0b6b3a7640000848661424b9190615189565b6142559190615189565b61425f91906151be565b6120cd91906151be565b6003546000908190810361427e57508161077c565b60006003548461428e9190615189565b90506002548161429e91906151be565b915080600254836142af9190615189565b10156142c3576142c0600183615511565b91505b5092915050565b6000806103e8846009546142de9190615189565b6142e891906151be565b6142f29086615511565b9050600062282072600f60008154811061430e5761430e614ec7565b90600052602060002090600c020160090160000160008154811061433457614334614ec7565b90600052602060002001546143499190615511565b9050600061435b6301e1338083615511565b9050818511614381576011546143779063ffffffff1684615189565b93505050506120cd565b8085106143a35760115461437790640100000000900463ffffffff1684615189565b6143ad8282614eac565b6143b78683614eac565b6011546143d49063ffffffff640100000000820481169116615d12565b6143e49063ffffffff1686615189565b6143ee9190615189565b6143f891906151be565b60115461440b9063ffffffff1685615189565b6135c79190615511565b6000806000600f868154811061442d5761442d614ec7565b600091825260209091206009600c90920201018054909150806144625760405162461bcd60e51b815260040161083b90615e37565b8585116144815760405162461bcd60e51b815260040161083b90615e7b565b8160000160008154811061449757614497614ec7565b90600052602060002001548610156144c15760405162461bcd60e51b815260040161083b90615eb4565b816144cd600183614eac565b815481106144dd576144dd614ec7565b90600052602060002001548511156145075760405162461bcd60e51b815260040161083b90615eea565b60015b8181101561455d5782600001818154811061452757614527614ec7565b906000526020600020015487101561454b57614544600182614eac565b945061455d565b8061455581615316565b91505061450a565b508161456a600183614eac565b8154811061457a5761457a614ec7565b9060005260206000200154850361459d57614596600282614eac565b9250614602565b60006145aa856001615511565b90505b81811015614600578260000181815481106145ca576145ca614ec7565b90600052602060002001548610156145ee576145e7600182614eac565b9350614600565b806145f881615316565b9150506145ad565b505b828411156146225760405162461bcd60e51b815260040161083b90615f1e565b5050935093915050565b828054828255906000526020600020908101928215614667579160200282015b8281111561466757825182559160200191906001019061464c565b506130df9291505b808211156130df576000815560010161466f565b6001600160e01b031981165b811461102557600080fd5b803561077c81614683565b6000602082840312156146ba576146ba600080fd5b60006146c6848461469a565b949350505050565b8015155b82525050565b6020810161077c82846146ce565b60006001600160a01b03821661077c565b61468f816146e6565b803561077c816146f7565b60006020828403121561472057614720600080fd5b60006146c68484614700565b8061468f565b803561077c8161472c565b6000806040838503121561475357614753600080fd5b600061475f8585614700565b925050602061477085828601614732565b9150509250929050565b6001600160801b0381166146d2565b6001600160401b0381166146d2565b6146d2816146e6565b805160c08301906147b2848261477a565b5060208201516147c5602085018261477a565b5060408201516147d8604085018261477a565b5060608201516147eb606085018261477a565b5060808201516147fe6080850182614789565b5060a08201516118b560a0850182614798565b60c0810161077c82846147a1565b806146d2565b6020810161077c828461481f565b6020810161077c8284614798565b60006020828403121561485657614856600080fd5b60006146c68484614732565b634e487b7160e01b600052604160045260246000fd5b601f19601f83011681018181106001600160401b038211171561489d5761489d614862565b6040525050565b60006148af60405190565b90506148bb8282614878565b919050565b63ffffffff811661468f565b803561077c816148c0565b600060a082840312156148ec576148ec600080fd5b6148f660a06148a4565b9050600061490484846148cc565b8252506020614915848483016148cc565b6020830152506040614929848285016148cc565b604083015250606061493d848285016148cc565b6060830152506080614951848285016148cc565b60808301525092915050565b60006001600160401b0382111561497657614976614862565b5060209081020190565b600061499361498e8461495d565b6148a4565b838152905060208082019084028301858111156149b2576149b2600080fd5b835b818110156149d657806149c78882614732565b845250602092830192016149b4565b5050509392505050565b600082601f8301126149f4576149f4600080fd5b81356146c6848260208601614980565b60008060008060008060008060008060006101e08c8e031215614a2957614a29600080fd5b6000614a358e8e614700565b9b50506020614a468e828f01614700565b9a50506040614a578e828f01614700565b9950506060614a688e828f016148d7565b985050610100614a7a8e828f01614700565b9750506101208c01356001600160401b03811115614a9a57614a9a600080fd5b614aa68e828f016149e0565b9650506101408c01356001600160401b03811115614ac657614ac6600080fd5b614ad28e828f016149e0565b955050610160614ae48e828f01614732565b945050610180614af68e828f01614732565b9350506101a0614b088e828f01614732565b9250506101c0614b1a8e828f01614732565b9150509295989b509295989b9093969950565b60008060408385031215614b4357614b43600080fd5b6000614b4f8585614732565b925050602061477085828601614700565b6020810161077c8284614789565b600080600080600080600060e0888a031215614b8c57614b8c600080fd5b6000614b988a8a614700565b9750506020614ba98a828b01614700565b9650506040614bba8a828b01614732565b9550506060614bcb8a828b01614732565b94505060808801356001600160401b03811115614bea57614bea600080fd5b614bf68a828b016149e0565b93505060a08801356001600160401b03811115614c1557614c15600080fd5b614c218a828b016149e0565b92505060c0614c328a828b01614732565b91505092959891949750929550565b60008060408385031215614c5757614c57600080fd5b600061475f8585614732565b80151561468f565b803561077c81614c63565b600060208284031215614c8b57614c8b600080fd5b60006146c68484614c6b565b634e487b7160e01b600052602160045260246000fd5b6003811061102557611025614c97565b806148bb81614cad565b600061077c82614cbd565b6146d281614cc7565b6101008101614cea828b614798565b614cf7602083018a614798565b614d04604083018961481f565b614d11606083018861481f565b614d1e608083018761481f565b614d2b60a083018661481f565b614d3860c083018561481f565b614d4560e0830184614cd2565b9998505050505050505050565b60408101614d60828561477a565b6120cd602083018461477a565b6000614d7983836147a1565b505060c00190565b6000614d8b825190565b80845260209384019383018060005b83811015614dbf578151614dae8882614d6d565b975060208301925050600101614d9a565b509495945050505050565b602080825281016120cd8184614d81565b600080600060608486031215614df357614df3600080fd5b6000614dff8686614732565b9350506020614e1086828701614700565b9250506040614e2186828701614732565b9150509250925092565b60ff811661468f565b803561077c81614e2b565b600060208284031215614e5457614e54600080fd5b60006146c68484614e34565b600c81526000602082016b0deeae840decc40d2dcc8caf60a31b815291505b5060200190565b6020808252810161077c81614e60565b634e487b7160e01b600052601160045260246000fd5b6000825b925082821015614ec257614ec2614e96565b500390565b634e487b7160e01b600052603260045260246000fd5b60168152600060208201756f6e6c792061646d696e2063616e20756e706175736560501b81529150614e7f565b6020808252810161077c81614edd565b6013815260006020820172105b1c9958591e481a5b9d1a585a5b1a5cd959606a1b81529150614e7f565b6020808252810161077c81614f1a565b805161077c81614c63565b600060208284031215614f7457614f74600080fd5b60006146c68484614f54565b60118152600060208201702ab739bab83837b93a32b2103a37b5b2b760791b81529150614e7f565b6020808252810161077c81614f80565b600f81526000602082016e1c185d5cd9590818dbdb9d1c9858dd608a1b81529150614e7f565b6020808252810161077c81614fb8565b600a8152600060208201696e6f2070656e616c747960b01b81529150614e7f565b6020808252810161077c81614fee565b601081526000602082016f1b9bdd081c995b19585cd959081e595d60821b81529150614e7f565b6020808252810161077c8161501f565b60118152600060208201706e6f206561726c7920776974686472617760781b81529150614e7f565b6020808252810161077c81615056565b600881526000602082016706c6f636b496420360c41b81529150614e7f565b6020808252810161077c8161508e565b600e81526000602082016d1a5b9d985b1a59081b1bd8dada5960921b81529150614e7f565b6020808252810161077c816150bd565b600e81526000602082016d1b9bc81b1bd8dac8185b5bdd5b9d60921b81529150614e7f565b6020808252810161077c816150f2565b600b81526000602082016a1b1bd8dac81bdc195b995960aa1b81529150614e7f565b6020808252810161077c81615127565b60098152600060208201683130b21037bbb732b960b91b81529150614e7f565b6020808252810161077c81615159565b60008160001904831182151516156151a3576151a3614e96565b500290565b634e487b7160e01b600052601260045260246000fd5b6000826151cd576151cd6151a8565b500490565b6020808252810161077c81602f81527f416363657373436f6e74726f6c3a2063616e206f6e6c792072656e6f756e636560208201526e103937b632b9903337b91039b2b63360891b604082015260600190565b6008815260006020820167053747265616d20360c41b81529150614e7f565b6020808252810161077c81615225565b60098152600060208201684e6f2053747265616d60b81b81529150614e7f565b6020808252810161077c81615254565b606081016152928286614798565b61529f6020830185614798565b6146c6604083018461481f565b600f81526000602082016e2ab739bab83837b93a102a37b5b2b760891b81529150614e7f565b6020808252810161077c816152ac565b600d81526000602082016c3637b1b5903737ba1037b832b760991b81529150614e7f565b6020808252810161077c816152e2565b6000600019820361532957615329614e96565b5060010190565b601281526000602082017114dd1c99585b481b9d081c1c9bdc1bdcd95960721b81529150614e7f565b6020808252810161077c81615330565b601681526000602082017553747265616d2070726f706f73616c2065787069726560501b81529150614e7f565b6020808252810161077c81615369565b600c81526000602082016b0a4caeec2e4c8e640d0d2ced60a31b81529150614e7f565b6020808252810161077c816153a6565b600b81526000602082016a52657761726473206c6f7760a81b81529150614e7f565b6020808252810161077c816153d9565b60138152600060208201721a5b9d985b1a59081cdd185c9d081c1bda5b9d606a1b81529150614e7f565b6020808252810161077c8161540b565b60128152600060208201711cdd1c99585b481b9d081c1c9bdc1bdcd95960721b81529150614e7f565b6020808252810161077c81615445565b60098152600060208201686d6178206c6f636b7360b81b81529150614e7f565b6020808252810161077c8161547e565b60088152600060208201670616d6f756e7420360c41b81529150614e7f565b6020808252810161077c816154ae565b600d81526000602082016c626164206c6f636b2074696d6560981b81529150614e7f565b6020808252810161077c816154dd565b6000821982111561552457615524614e96565b500190565b600a81526000602082016936b0bc1018903cb2b0b960b11b81529150614e7f565b6020808252810161077c81615529565b601081526000602082016f4e6f2053747265616d2053686172657360801b81529150614e7f565b6020808252810161077c8161555a565b600d81526000602082016c24b73b30b634b21027bbb732b960991b81529150614e7f565b6020808252810161077c81615591565b601481526000602082017324b73b30b634b2102932bbb0b932102a37b5b2b760611b81529150614e7f565b6020808252810161077c816155c5565b601081526000602082016f16995c9bc813585e0811195c1bdcda5d60821b81529150614e7f565b6020808252810161077c81615600565b601081526000602082016f16995c9bc8135a5b8811195c1bdcda5d60821b81529150614e7f565b6020808252810161077c81615637565b6013815260006020820172125b9d985b1a5908135a5b8811195c1bdcda5d606a1b81529150614e7f565b6020808252810161077c8161566e565b6013815260006020820172125b9d985b1a590813585e0811195c1bdcda5d606a1b81529150614e7f565b6020808252810161077c816156a8565b601281526000602082017124b73b30b634b21032bc3834b930ba34b7b760711b81529150614e7f565b6020808252810161077c816156e2565b6011815260006020820170496e76616c6964205363686564756c657360781b81529150614e7f565b6020808252810161077c8161571b565b600f81526000602082016e14d8da19591d5b195cc81cda1bdc9d608a1b81529150614e7f565b6020808252810161077c81615753565b600b81526000602082016a496e76616c69642054617560a81b81529150614e7f565b6020808252810161077c81615789565b600d81526000602082016c496e76616c69642074696d657360981b81529150614e7f565b6020808252810161077c816157bb565b600f81526000602082016e496e76616c6964205265776172647360881b81529150614e7f565b6020808252810161077c816157ef565b6013815260006020820172496e76616c696420456e64205265776172647360681b81529150614e7f565b6020808252810161077c81615825565b600e81526000602082016d6d61696e2061646472207a65726f60901b81529150614e7f565b6020808252810161077c8161585f565b600e81526000602082016d766f74652061646472207a65726f60901b81529150614e7f565b6020808252810161077c81615894565b600e81526000602082016d7661756c7441646472207a65726f60901b81529150614e7f565b6020808252810161077c816158c9565b6011815260006020820170696e76616c69642073686172652077747360781b81529150614e7f565b6020808252810161077c816158fe565b6013815260006020820172696e76616c69642070656e616c74792077747360681b81529150614e7f565b6020808252810161077c81615936565b6012815260006020820171185b1c9958591e481a5b9d1a585b1a5e995960721b81529150614e7f565b6020808252810161077c81615970565b601f81526000602082017f5265656e7472616e637947756172643a207265656e7472616e742063616c6c0081529150614e7f565b6020808252810161077c816159a9565b600c81526000602082016b0e0cadcc2d8e8f240d0d2ced60a31b81529150614e7f565b6020808252810161077c816159ed565b805161077c8161472c565b600060208284031215615a4057615a40600080fd5b60006146c68484615a20565b601081526000602082016f149155d0549114d7d0d3d35413d5539160821b81529150614e7f565b6020808252810161077c81615a4c565b60148152600060208201731a5b9858dd1a5d99481bdc881c1c9bdc1bdcd95960621b81529150614e7f565b6020808252810161077c81615a83565b600d81526000602082016c4c6f636b204e6f205374616b6560981b81529150614e7f565b6020808252810161077c81615abe565b60408101615b008285614798565b6120cd602083018461481f565b601b81526000602082017f426f72696e674d6174683a2075696e743634204f766572666c6f77000000000081529150614e7f565b6020808252810161077c81615b0d565b60006001600160801b03821691506001600160801b0383169250826001600160801b030382111561552457615524614e96565b600d81526000602082016c185d5d1bcb58dbdb5c1bdd5b99609a1b81529150614e7f565b6020808252810161077c81615b84565b601081526000602082016f3737903637b1b5903837b9b4ba34b7b760811b81529150614e7f565b6020808252810161077c81615bb8565b60005b83811015615c0a578181015183820152602001615bf2565b838111156118b55750506000910152565b6000615c25825190565b615c33818560208601615bef565b9290920192915050565b7f416363657373436f6e74726f6c3a206163636f756e742000000000000000000081526017016000615c6f8285615c1b565b7001034b99036b4b9b9b4b733903937b6329607d1b815260110191506146c68284615c1b565b6000615c9f825190565b808452602084019350615cb6818560208601615bef565b601f01601f19169290920192915050565b602080825281016120cd8184615c95565b6013815260006020820172496e76616c6964206c6173742055706461746560681b81529150614e7f565b6020808252810161077c81615cd8565b600063ffffffff8216915063ffffffff8316614eb0565b600063ffffffff8216915063ffffffff831692508163ffffffff04831182151516156151a3576151a3614e96565b601c81526000602082017f426f72696e674d6174683a2075696e74313238204f766572666c6f770000000081529150614e7f565b6020808252810161077c81615d57565b600081615daa57615daa614e96565b506000190190565b60208082527f537472696e67733a20686578206c656e67746820696e73756666696369656e7491019081526000614e7f565b6020808252810161077c81615db2565b634e487b7160e01b600052603160045260246000fd5b60168152600060208201751cd8da19591d5b195cc81a5cc81b9bdd081c9a59da1d60521b81529150614e7f565b6020808252810161077c81615e0a565b601b81526000602082017f496e76616c69642052657761726420517565727920506572696f64000000000081529150614e7f565b6020808252810161077c81615e47565b6012815260006020820171145d595c9e481099599bdc99481cdd185c9d60721b81529150614e7f565b6020808252810161077c81615e8b565b600f81526000602082016e1c5d595c9e4818599d195c88195b99608a1b81529150614e7f565b6020808252810161077c81615ec4565b600d81526000602082016c092dcecc2d8d2c840d2dcc8caf609b1b81529150614e7f565b6020808252810161077c81615efa56fe71840dc4906352362b0cdaf79870196c8e42acafade72d5d5a6d59291253ceb1930802d0eadfb856cb83e01d1c4daa3c89e9c6d9f74cfbe13124decf2b33128aa2646970667358221220b4332adcb89e602560c0d79ffcfa67d36871027b619bfdc9361b79a5e3aa5d7264736f6c634300080d0033",
  "linkReferences": {},
  "deployedLinkReferences": {}
}