{
    "contractName": "StakingGettersHelper",
    "abi": [
        {
            "inputs": [
                {
                    "internalType": "address",
                    "name": "_stakingContract",
                    "type": "address"
                },
                {
                    "internalType": "address",
                    "name": "admin",
                    "type": "address"
                }
            ],
            "stateMutability": "nonpayable",
            "type": "constructor"
        },
        {
            "anonymous": false,
            "inputs": [
                {
                    "indexed": true,
                    "internalType": "bytes32",
                    "name": "role",
                    "type": "bytes32"
                },
                {
                    "indexed": true,
                    "internalType": "bytes32",
                    "name": "previousAdminRole",
                    "type": "bytes32"
                },
                {
                    "indexed": true,
                    "internalType": "bytes32",
                    "name": "newAdminRole",
                    "type": "bytes32"
                }
            ],
            "name": "RoleAdminChanged",
            "type": "event"
        },
        {
            "anonymous": false,
            "inputs": [
                {
                    "indexed": true,
                    "internalType": "bytes32",
                    "name": "role",
                    "type": "bytes32"
                },
                {
                    "indexed": true,
                    "internalType": "address",
                    "name": "account",
                    "type": "address"
                },
                {
                    "indexed": true,
                    "internalType": "address",
                    "name": "sender",
                    "type": "address"
                }
            ],
            "name": "RoleGranted",
            "type": "event"
        },
        {
            "anonymous": false,
            "inputs": [
                {
                    "indexed": true,
                    "internalType": "bytes32",
                    "name": "role",
                    "type": "bytes32"
                },
                {
                    "indexed": true,
                    "internalType": "address",
                    "name": "account",
                    "type": "address"
                },
                {
                    "indexed": true,
                    "internalType": "address",
                    "name": "sender",
                    "type": "address"
                }
            ],
            "name": "RoleRevoked",
            "type": "event"
        },
        {
            "inputs": [],
            "name": "DEFAULT_ADMIN_ROLE",
            "outputs": [
                {
                    "internalType": "bytes32",
                    "name": "",
                    "type": "bytes32"
                }
            ],
            "stateMutability": "view",
            "type": "function"
        },
        {
            "inputs": [],
            "name": "WEIGHT_SLOT",
            "outputs": [
                {
                    "internalType": "uint256",
                    "name": "",
                    "type": "uint256"
                }
            ],
            "stateMutability": "view",
            "type": "function"
        },
        {
            "inputs": [
                {
                    "internalType": "bytes32",
                    "name": "role",
                    "type": "bytes32"
                }
            ],
            "name": "getRoleAdmin",
            "outputs": [
                {
                    "internalType": "bytes32",
                    "name": "",
                    "type": "bytes32"
                }
            ],
            "stateMutability": "view",
            "type": "function"
        },
        {
            "inputs": [
                {
                    "internalType": "bytes32",
                    "name": "role",
                    "type": "bytes32"
                },
                {
                    "internalType": "address",
                    "name": "account",
                    "type": "address"
                }
            ],
            "name": "grantRole",
            "outputs": [],
            "stateMutability": "nonpayable",
            "type": "function"
        },
        {
            "inputs": [
                {
                    "internalType": "bytes32",
                    "name": "role",
                    "type": "bytes32"
                },
                {
                    "internalType": "address",
                    "name": "account",
                    "type": "address"
                }
            ],
            "name": "hasRole",
            "outputs": [
                {
                    "internalType": "bool",
                    "name": "",
                    "type": "bool"
                }
            ],
            "stateMutability": "view",
            "type": "function"
        },
        {
            "inputs": [
                {
                    "internalType": "bytes32",
                    "name": "role",
                    "type": "bytes32"
                },
                {
                    "internalType": "address",
                    "name": "account",
                    "type": "address"
                }
            ],
            "name": "renounceRole",
            "outputs": [],
            "stateMutability": "nonpayable",
            "type": "function"
        },
        {
            "inputs": [
                {
                    "internalType": "bytes32",
                    "name": "role",
                    "type": "bytes32"
                },
                {
                    "internalType": "address",
                    "name": "account",
                    "type": "address"
                }
            ],
            "name": "revokeRole",
            "outputs": [],
            "stateMutability": "nonpayable",
            "type": "function"
        },
        {
            "inputs": [
                {
                    "internalType": "bytes4",
                    "name": "interfaceId",
                    "type": "bytes4"
                }
            ],
            "name": "supportsInterface",
            "outputs": [
                {
                    "internalType": "bool",
                    "name": "",
                    "type": "bool"
                }
            ],
            "stateMutability": "view",
            "type": "function"
        },
        {
            "inputs": [
                {
                    "internalType": "address",
                    "name": "account",
                    "type": "address"
                },
                {
                    "internalType": "uint256",
                    "name": "lockId",
                    "type": "uint256"
                }
            ],
            "name": "getLockInfo",
            "outputs": [
                {
                    "components": [
                        {
                            "internalType": "uint128",
                            "name": "amountOfToken",
                            "type": "uint128"
                        },
                        {
                            "internalType": "uint128",
                            "name": "amountOfVoteToken",
                            "type": "uint128"
                        },
                        {
                            "internalType": "uint128",
                            "name": "positionStreamShares",
                            "type": "uint128"
                        },
                        {
                            "internalType": "uint64",
                            "name": "end",
                            "type": "uint64"
                        },
                        {
                            "internalType": "address",
                            "name": "owner",
                            "type": "address"
                        }
                    ],
                    "internalType": "struct LockedBalance",
                    "name": "",
                    "type": "tuple"
                }
            ],
            "stateMutability": "view",
            "type": "function"
        },
        {
            "inputs": [
                {
                    "internalType": "address",
                    "name": "account",
                    "type": "address"
                }
            ],
            "name": "getLocksLength",
            "outputs": [
                {
                    "internalType": "uint256",
                    "name": "",
                    "type": "uint256"
                }
            ],
            "stateMutability": "view",
            "type": "function"
        },
        {
            "inputs": [],
            "name": "getWeight",
            "outputs": [
                {
                    "components": [
                        {
                            "internalType": "uint32",
                            "name": "maxWeightShares",
                            "type": "uint32"
                        },
                        {
                            "internalType": "uint32",
                            "name": "minWeightShares",
                            "type": "uint32"
                        },
                        {
                            "internalType": "uint32",
                            "name": "maxWeightPenalty",
                            "type": "uint32"
                        },
                        {
                            "internalType": "uint32",
                            "name": "minWeightPenalty",
                            "type": "uint32"
                        },
                        {
                            "internalType": "uint32",
                            "name": "penaltyWeightMultiplier",
                            "type": "uint32"
                        }
                    ],
                    "internalType": "struct Weight",
                    "name": "",
                    "type": "tuple"
                }
            ],
            "stateMutability": "view",
            "type": "function"
        },
        {
            "inputs": [
                {
                    "internalType": "address",
                    "name": "account",
                    "type": "address"
                },
                {
                    "internalType": "uint256",
                    "name": "lockId",
                    "type": "uint256"
                }
            ],
            "name": "getLock",
            "outputs": [
                {
                    "internalType": "uint128",
                    "name": "",
                    "type": "uint128"
                },
                {
                    "internalType": "uint128",
                    "name": "",
                    "type": "uint128"
                },
                {
                    "internalType": "uint128",
                    "name": "",
                    "type": "uint128"
                },
                {
                    "internalType": "uint64",
                    "name": "",
                    "type": "uint64"
                },
                {
                    "internalType": "address",
                    "name": "",
                    "type": "address"
                }
            ],
            "stateMutability": "view",
            "type": "function"
        },
        {
            "inputs": [
                {
                    "internalType": "address",
                    "name": "account",
                    "type": "address"
                }
            ],
            "name": "getUserTotalDeposit",
            "outputs": [
                {
                    "internalType": "uint256",
                    "name": "",
                    "type": "uint256"
                }
            ],
            "stateMutability": "view",
            "type": "function"
        },
        {
            "inputs": [
                {
                    "internalType": "uint256",
                    "name": "streamId",
                    "type": "uint256"
                },
                {
                    "internalType": "address",
                    "name": "account",
                    "type": "address"
                }
            ],
            "name": "getStreamClaimableAmount",
            "outputs": [
                {
                    "internalType": "uint256",
                    "name": "",
                    "type": "uint256"
                }
            ],
            "stateMutability": "view",
            "type": "function"
        },
        {
            "inputs": [
                {
                    "internalType": "address",
                    "name": "account",
                    "type": "address"
                }
            ],
            "name": "getUserTotalVotes",
            "outputs": [
                {
                    "internalType": "uint256",
                    "name": "",
                    "type": "uint256"
                }
            ],
            "stateMutability": "view",
            "type": "function"
        },
        {
            "inputs": [
                {
                    "internalType": "uint256",
                    "name": "lockId",
                    "type": "uint256"
                },
                {
                    "internalType": "address",
                    "name": "account",
                    "type": "address"
                }
            ],
            "name": "getFeesForEarlyUnlock",
            "outputs": [
                {
                    "internalType": "uint256",
                    "name": "",
                    "type": "uint256"
                }
            ],
            "stateMutability": "view",
            "type": "function"
        }
    ],
    "bytecode": "0x60806040523480156200001157600080fd5b506040516200176c3803806200176c833981016040819052620000349162000151565b600180546001600160a01b0319166001600160a01b0384161790556200005c60008262000064565b505062000194565b620000708282620000ed565b620000e9576000828152602081815260408083206001600160a01b03851684529091529020805460ff19166001179055620000a83390565b6001600160a01b0316816001600160a01b0316837f2f8788117e7eff1d82e926ec794901d17c78024a50270940304540a733656f0d60405160405180910390a45b5050565b6000828152602081815260408083206001600160a01b038516845290915290205460ff165b92915050565b60006001600160a01b03821662000112565b620001358162000118565b81146200014157600080fd5b50565b805162000112816200012a565b60008060408385031215620001695762000169600080fd5b600062000177858562000144565b92505060206200018a8582860162000144565b9150509250929050565b6115c880620001a46000396000f3fe608060405234801561001057600080fd5b50600436106101005760003560e01c806336568abe11610097578063a4c828dc11610066578063a4c828dc14610226578063a9b4b78014610239578063b37a7c101461024e578063d547741f1461026157600080fd5b806336568abe146101e55780637183ab24146101f857806391d148541461020b578063a217fddf1461021e57600080fd5b806315b9672c116100d357806315b9672c1461017a5780631c61e6171461019a578063248a9ca3146101ad5780632f2ff15d146101d057600080fd5b806301ffc9a7146101055780630c722d2e1461012e5780630e0930f0146101435780631208a25614610156575b600080fd5b610118610113366004610d2b565b610274565b6040516101259190610d5e565b60405180910390f35b610136600e81565b6040516101259190610d72565b610136610151366004610da5565b6102ab565b610169610164366004610dd7565b6102bf565b604051610125959493929190610e3c565b61018d610188366004610dd7565b61036f565b6040516101259190610eeb565b6101366101a8366004610ef9565b610413565b6101366101bb366004610f2c565b60009081526020819052604090206001015490565b6101e36101de366004610ef9565b6104dd565b005b6101e36101f3366004610ef9565b610507565b610136610206366004610da5565b61053d565b610118610219366004610ef9565b6105c2565b610136600081565b610136610234366004610da5565b6105eb565b610241610668565b6040516101259190610fb6565b61013661025c366004610ef9565b6106a0565b6101e361026f366004610ef9565b610796565b60006001600160e01b03198216637965db0b60e01b14806102a557506301ffc9a760e01b6001600160e01b03198316145b92915050565b6000806102b7836107bb565b519392505050565b6000806000806000806102d1886107bb565b90506000816102e160018a610fda565b815181106102f1576102f1610fed565b6020026020010151905081518811156103255760405162461bcd60e51b815260040161031c90611029565b60405180910390fd5b600088116103455760405162461bcd60e51b815260040161031c90611060565b8051602082015160408301516060840151608090940151929c919b50995091975095509350505050565b6040805160a0810182526000808252602082018190529181018290526060810182905260808101829052906103a3846107bb565b905080518311156103c65760405162461bcd60e51b815260040161031c90611029565b600083116103e65760405162461bcd60e51b815260040161031c90611060565b806103f2600185610fda565b8151811061040257610402610fed565b602002602001015191505092915050565b60008061041f836107bb565b905080516000036104345760009150506102a5565b600060015b825181116104d45760015460405163ddcf3e2960e01b81526001600160a01b039091169063ddcf3e299061047590899089908690600401611070565b602060405180830381865afa158015610492573d6000803e3d6000fd5b505050506040513d601f19601f820116820180604052508101906104b691906110a3565b6104c090836110c4565b9150806104cc816110d7565b915050610439565b50949350505050565b6000828152602081905260409020600101546104f881610831565b610502838361083e565b505050565b6001600160a01b038116331461052f5760405162461bcd60e51b815260040161031c906110f1565b61053982826108c2565b5050565b600080610549836107bb565b9050805160000361055d5750600092915050565b600060015b825181116105ba5782610576600183610fda565b8151811061058657610586610fed565b6020026020010151602001516001600160801b0316826105a691906110c4565b9150806105b2816110d7565b915050610562565b509392505050565b6000918252602082815260408084206001600160a01b0393909316845291905290205460ff1690565b6000806105f7836107bb565b9050805160000361060b5750600092915050565b600060015b825181116105ba5782610624600183610fda565b8151811061063457610634610fed565b6020026020010151600001516001600160801b03168261065491906110c4565b915080610660816110d7565b915050610610565b6040805160a08101825260008082526020820181905291810182905260608101829052608081019190915261069b610927565b905090565b6000806106ac836107bb565b905080518411156106cf5760405162461bcd60e51b815260040161031c90611029565b6000816106dd600187610fda565b815181106106ed576106ed610fed565b60200260200101519050600085116107175760405162461bcd60e51b815260040161031c90611060565b42816060015167ffffffffffffffff16116107445760405162461bcd60e51b815260040161031c90611178565b805160608201516001600160801b039091169067ffffffffffffffff16600061076d8242610a10565b90506000620186a061077f8584611188565b61078991906111bd565b9998505050505050505050565b6000828152602081905260409020600101546107b181610831565b61050283836108c2565b600154604051630a8d85f760e41b81526060916001600160a01b03169063a8d85f70906107ec9085906004016111d1565b600060405180830381865afa158015610809573d6000803e3d6000fd5b505050506040513d6000823e601f3d908101601f191682016040526102a591908101906113ae565b61083b8133610b32565b50565b61084882826105c2565b610539576000828152602081815260408083206001600160a01b03851684529091529020805460ff1916600117905561087e3390565b6001600160a01b0316816001600160a01b0316837f2f8788117e7eff1d82e926ec794901d17c78024a50270940304540a733656f0d60405160405180910390a45050565b6108cc82826105c2565b15610539576000828152602081815260408083206001600160a01b0385168085529252808320805460ff1916905551339285917ff6391f5c32d9c69d2a47ea670b442974b53935d1edc7fd64eb21e047a839171b9190a45050565b6040805160a0810182526000808252602082018190529181018290526060810182905260808101919091526001546040516330657e2360e21b81526000916001600160a01b03169063c195f88c9061098490600e90600401610d72565b602060405180830381865afa1580156109a1573d6000803e3d6000fd5b505050506040513d601f19601f820116820180604052508101906109c591906110a3565b6040805160a08101825263ffffffff8084168252602084811c82169083015283831c811692820192909252606083811c831690820152608092831c9091169181019190915292915050565b600080610a1b610927565b90506000600160009054906101000a90046001600160a01b03166001600160a01b0316634b1d29b46040518163ffffffff1660e01b8152600401602060405180830381865afa158015610a72573d6000803e3d6000fd5b505050506040513d601f19601f82011682018060405250810190610a9691906113e9565b67ffffffffffffffff16905084808510610ab657600093505050506102a5565b6000610ac28683610fda565b9050828185606001518660400151610ada919061140a565b8660800151610ae9919061142a565b63ffffffff16610af99190611188565b610b0391906111bd565b84606001518560800151610b17919061142a565b63ffffffff16610b2791906110c4565b979650505050505050565b610b3c82826105c2565b61053957610b54816001600160a01b03166014610b96565b610b5f836020610b96565b604051602001610b7092919061149e565b60408051601f198184030181529082905262461bcd60e51b825261031c91600401611528565b60606000610ba5836002611188565b610bb09060026110c4565b67ffffffffffffffff811115610bc857610bc86111df565b6040519080825280601f01601f191660200182016040528015610bf2576020820181803683370190505b509050600360fc1b81600081518110610c0d57610c0d610fed565b60200101906001600160f81b031916908160001a905350600f60fb1b81600181518110610c3c57610c3c610fed565b60200101906001600160f81b031916908160001a9053506000610c60846002611188565b610c6b9060016110c4565b90505b6001811115610ce3576f181899199a1a9b1b9c1cb0b131b232b360811b85600f1660108110610c9f57610c9f610fed565b1a60f81b828281518110610cb557610cb5610fed565b60200101906001600160f81b031916908160001a90535060049490941c93610cdc81611539565b9050610c6e565b508315610d025760405162461bcd60e51b815260040161031c90611582565b9392505050565b6001600160e01b031981165b811461083b57600080fd5b80356102a581610d09565b600060208284031215610d4057610d40600080fd5b6000610d4c8484610d20565b949350505050565b8015155b82525050565b602081016102a58284610d54565b80610d58565b602081016102a58284610d6c565b60006001600160a01b0382166102a5565b610d1581610d80565b80356102a581610d91565b600060208284031215610dba57610dba600080fd5b6000610d4c8484610d9a565b80610d15565b80356102a581610dc6565b60008060408385031215610ded57610ded600080fd5b6000610df98585610d9a565b9250506020610e0a85828601610dcc565b9150509250929050565b6001600160801b038116610d58565b67ffffffffffffffff8116610d58565b610d5881610d80565b60a08101610e4a8288610e14565b610e576020830187610e14565b610e646040830186610e14565b610e716060830185610e23565b610e7e6080830184610e33565b9695505050505050565b805160a0830190610e998482610e14565b506020820151610eac6020850182610e14565b506040820151610ebf6040850182610e14565b506060820151610ed26060850182610e23565b506080820151610ee56080850182610e33565b50505050565b60a081016102a58284610e88565b60008060408385031215610f0f57610f0f600080fd5b6000610f1b8585610dcc565b9250506020610e0a85828601610d9a565b600060208284031215610f4157610f41600080fd5b6000610d4c8484610dcc565b63ffffffff8116610d58565b805160a0830190610f6a8482610f4d565b506020820151610f7d6020850182610f4d565b506040820151610f906040850182610f4d565b506060820151610fa36060850182610f4d565b506080820151610ee56080850182610f4d565b60a081016102a58284610f59565b634e487b7160e01b600052601160045260246000fd5b818103818111156102a5576102a5610fc4565b634e487b7160e01b600052603260045260246000fd5b600c81526000602082016b0deeae840decc40d2dcc8caf60a31b815291505b5060200190565b602080825281016102a581611003565b601081526000602082016f06c6f636b49642063616e7420626520360841b81529150611022565b602080825281016102a581611039565b6060810161107e8286610d6c565b61108b6020830185610e33565b610d4c6040830184610d6c565b80516102a581610dc6565b6000602082840312156110b8576110b8600080fd5b6000610d4c8484611098565b808201808211156102a5576102a5610fc4565b600060001982036110ea576110ea610fc4565b5060010190565b602080825281016102a581602f81527f416363657373436f6e74726f6c3a2063616e206f6e6c792072656e6f756e636560208201526e103937b632b9903337b91039b2b63360891b604082015260600190565b601781526000602082017f6c6f636b206f70656e65642c206e6f2070656e616c747900000000000000000081529150611022565b602080825281016102a581611144565b60008160001904831182151516156111a2576111a2610fc4565b500290565b634e487b7160e01b600052601260045260246000fd5b6000826111cc576111cc6111a7565b500490565b602081016102a58284610e33565b634e487b7160e01b600052604160045260246000fd5b601f19601f830116810181811067ffffffffffffffff8211171561121b5761121b6111df565b6040525050565b600061122d60405190565b905061123982826111f5565b919050565b600067ffffffffffffffff821115611258576112586111df565b5060209081020190565b6001600160801b038116610d15565b80516102a581611262565b67ffffffffffffffff8116610d15565b80516102a58161127c565b80516102a581610d91565b600060a082840312156112b7576112b7600080fd5b6112c160a0611222565b905060006112cf8484611271565b82525060206112e084848301611271565b60208301525060406112f484828501611271565b60408301525060606113088482850161128c565b606083015250608061131c84828501611297565b60808301525092915050565b600061133b6113368461123e565b611222565b83815290506020810160a0840283018581111561135a5761135a600080fd5b835b81811015611380578061136f88826112a2565b84525060209092019160a00161135c565b5050509392505050565b600082601f83011261139e5761139e600080fd5b8151610d4c848260208601611328565b6000602082840312156113c3576113c3600080fd5b815167ffffffffffffffff8111156113dd576113dd600080fd5b610d4c8482850161138a565b6000602082840312156113fe576113fe600080fd5b6000610d4c848461128c565b63ffffffff9182169190811690828203908111156102a5576102a5610fc4565b600063ffffffff8216915063ffffffff831692508163ffffffff04831182151516156111a2576111a2610fc4565b60005b8381101561147357818101518382015260200161145b565b50506000910152565b6000611486825190565b611494818560208601611458565b9290920192915050565b7f416363657373436f6e74726f6c3a206163636f756e7420000000000000000000815260170160006114d0828561147c565b7001034b99036b4b9b9b4b733903937b6329607d1b81526011019150610d4c828461147c565b6000611500825190565b808452602084019350611517818560208601611458565b601f01601f19169290920192915050565b60208082528101610d0281846114f6565b60008161154857611548610fc4565b506000190190565b60208082527f537472696e67733a20686578206c656e67746820696e73756666696369656e7491019081526000611022565b602080825281016102a58161155056fea2646970667358221220ebff01e0504fe0c2aa5b6e277708786b076b15398edbdd8e589fe801f5dc8f5c64736f6c63430008100033",
    "immutableReferences": {},
    "source": "// Copyright SECURRENCY INC.\n// SPDX-License-Identifier: AGPL 3.0\npragma solidity 0.8.16;\n\nimport \"./IStakingHelper.sol\";\nimport \"./IStakingGetterHelper.sol\";\nimport \"../interfaces/IStakingGetter.sol\";\nimport \"../StakingStructs.sol\";\nimport \"../../../common/access/AccessControl.sol\";\n\ncontract StakingGettersHelper is IStakingGetterHelper, AccessControl {\n    address private stakingContract;\n    uint256 public constant WEIGHT_SLOT = 14; // the storage slot in staking contract where WEIGHT resides\n    constructor(address _stakingContract, address admin) {\n        stakingContract = _stakingContract;\n        _grantRole(DEFAULT_ADMIN_ROLE, admin);\n    }\n\n    function getLockInfo(address account, uint256 lockId) public view override returns (LockedBalance memory) {\n        LockedBalance[] memory locks = _getAllLocks(account);\n        require(lockId <= locks.length, \"out of index\");\n        require(lockId > 0, \"lockId cant be 0\");\n        return locks[lockId - 1];\n    }\n\n    function getLocksLength(address account) public view override returns (uint256) {\n        LockedBalance[] memory locks = _getAllLocks(account);\n        return locks.length;\n    }\n    function getWeight() public view override returns (Weight memory) {\n        return _getWeight();\n    }\n\n    function getLock(address account, uint256 lockId)\n        public\n        view\n        override\n        returns (\n            uint128,\n            uint128,\n            uint128,\n            uint64,\n            address\n        )\n    {\n        LockedBalance[] memory locks = _getAllLocks(account);\n        LockedBalance memory lock = locks[lockId - 1];\n        require(lockId <= locks.length, \"out of index\");\n        require(lockId > 0, \"lockId cant be 0\");\n        return (lock.amountOfToken, lock.amountOfVoteToken, lock.positionStreamShares, lock.end, lock.owner);\n    }\n\n    function getUserTotalDeposit(address account) public view override returns (uint256) {\n        LockedBalance[] memory locks = _getAllLocks(account);\n        if (locks.length == 0) {\n            return 0;\n        }\n        uint256 totalDeposit = 0;\n        for (uint256 lockId = 1; lockId <= locks.length; lockId++) {\n            totalDeposit += locks[lockId - 1].amountOfToken;\n        }\n        return totalDeposit;\n    }\n\n    function getStreamClaimableAmount(uint256 streamId, address account) public view override returns (uint256) {\n        LockedBalance[] memory locks = _getAllLocks(account);\n        if (locks.length == 0) {\n            return 0;\n        }\n        uint256 totalRewards = 0;\n        for (uint256 lockId = 1; lockId <= locks.length; lockId++) {\n            totalRewards += IStakingHelper(stakingContract).getStreamClaimableAmountPerLock(streamId, account, lockId);\n        }\n        return totalRewards;\n    }\n\n    function getUserTotalVotes(address account) public view override returns (uint256) {\n        LockedBalance[] memory locks = _getAllLocks(account);\n        if (locks.length == 0) {\n            return 0;\n        }\n        uint256 totalVotes = 0;\n        for (uint256 lockId = 1; lockId <= locks.length; lockId++) {\n            totalVotes += locks[lockId - 1].amountOfVoteToken;\n        }\n        return totalVotes;\n    }\n\n    function getFeesForEarlyUnlock(uint256 lockId, address account) public view override returns (uint256) {\n        LockedBalance[] memory locks = _getAllLocks(account);\n        require(lockId <= locks.length, \"out of index\");\n        LockedBalance memory lock = locks[lockId - 1];\n        require(lockId > 0, \"lockId cant be 0\");\n        require(lock.end > block.timestamp, \"lock opened, no penalty\");\n\n        uint256 amount = lock.amountOfToken;\n        uint256 lockEnd = lock.end;\n        uint256 weighingCoef = _weightedPenalty(lockEnd, block.timestamp);\n        uint256 penalty = (weighingCoef * amount) / 100000;\n        return penalty;\n    }\n\n\n    \n    function _getAllLocks(address account) internal view returns(LockedBalance[] memory) {\n        return IStakingHelper(stakingContract).getAllLocks(account);\n    }\n    function _weightedPenalty(uint256 lockEnd, uint256 timestamp) internal view returns (uint256) {\n        Weight memory weight = _getWeight();\n        uint256 maxLockPeriod = IStakingHelper(stakingContract).maxLockPeriod();\n        uint256 slopeStart = lockEnd;\n        if (timestamp >= slopeStart) return 0;\n        uint256 remainingTime = slopeStart - timestamp;\n\n        //why weight multiplier: Because if a person remaining time is less than 12 hours, the calculation\n        //would only give minWeightPenalty, because 2900 * 12hours/4days = 0\n        return (weight.penaltyWeightMultiplier *\n            weight.minWeightPenalty +\n            (weight.penaltyWeightMultiplier * (weight.maxWeightPenalty - weight.minWeightPenalty) * remainingTime) /\n            maxLockPeriod);\n    }\n    function _getWeight() internal view returns (Weight memory) {\n        bytes32 weight = IStakingHelper(stakingContract).readBySlot(WEIGHT_SLOT);\n        uint32 penaltyWeightMultiplier;\n        uint32 minWeightPenalty;\n        uint32 maxWeightPenalty;\n        uint32 minWeightShares;\n        uint32 maxWeightShares; \n        assembly {\n            let value := weight\n            maxWeightShares := and(0xffffffff, value)\n            //shift right by 32 then, do and by 32 bits to get the value\n            let  minWeightShares_shifted:= shr(32,value)\n            minWeightShares := and(0xffffffff, minWeightShares_shifted)\n            //shift right by 64 then, do and by 32 bits to get the value\n            let maxWeightPenalty_shifted := shr(64,value)\n            maxWeightPenalty := and(0xffffffff, maxWeightPenalty_shifted)\n            //shift right by 96 then, do and by 32 bits to get the value\n            let minWeightPenalty_shifted := shr(96,value)\n            minWeightPenalty := and(0xffffffff, minWeightPenalty_shifted)\n            //shift right by 128 then, do and by 32 bits to get the value\n            let penaltyWeightMultiplier_shifted := shr(128,value)\n            penaltyWeightMultiplier := and(0xffffffff, penaltyWeightMultiplier_shifted)\n        }\n        return Weight(\n            maxWeightShares,\n            minWeightShares,\n            maxWeightPenalty,\n            minWeightPenalty,\n            penaltyWeightMultiplier\n        );\n    }\n}\n",
    "sourcePath": "/Users/subiksinghshrestha/Documents/FATHOM/fathom-dao-smart-contracts/contracts/dao/staking/helpers/StakingGettersHelper.sol",
    "compiler": {
        "name": "solc",
        "version": "0.8.16+commit.07a7930e.Darwin.appleclang"
    },
    "schemaVersion": "3.4.10",
    "updatedAt": "2023-02-06T09:48:50.789Z",
    "devdoc": {
        "kind": "dev",
        "methods": {
            "getRoleAdmin(bytes32)": {
                "details": "Returns the admin role that controls `role`. See {grantRole} and {revokeRole}. To change a role's admin, use {_setRoleAdmin}."
            },
            "grantRole(bytes32,address)": {
                "details": "Grants `role` to `account`. If `account` had not been already granted `role`, emits a {RoleGranted} event. Requirements: - the caller must have ``role``'s admin role. May emit a {RoleGranted} event."
            },
            "hasRole(bytes32,address)": {
                "details": "Returns `true` if `account` has been granted `role`."
            },
            "renounceRole(bytes32,address)": {
                "details": "Revokes `role` from the calling account. Roles are often managed via {grantRole} and {revokeRole}: this function's purpose is to provide a mechanism for accounts to lose their privileges if they are compromised (such as when a trusted device is misplaced). If the calling account had been revoked `role`, emits a {RoleRevoked} event. Requirements: - the caller must be `account`. May emit a {RoleRevoked} event."
            },
            "revokeRole(bytes32,address)": {
                "details": "Revokes `role` from `account`. If `account` had been granted `role`, emits a {RoleRevoked} event. Requirements: - the caller must have ``role``'s admin role. May emit a {RoleRevoked} event."
            },
            "supportsInterface(bytes4)": {
                "details": "See {IERC165-supportsInterface}."
            }
        },
        "version": 1
    },
    "userdoc": {
        "kind": "user",
        "methods": {},
        "version": 1
    }
}