{
    "contractName": "StakingPackage",
    "abi": [
        {
            "inputs": [],
            "name": "AlreadyInitialized",
            "type": "error"
        },
        {
            "inputs": [],
            "name": "BadIndexError",
            "type": "error"
        },
        {
            "inputs": [],
            "name": "BadMaxLockPositions",
            "type": "error"
        },
        {
            "inputs": [],
            "name": "BadRewardsAmount",
            "type": "error"
        },
        {
            "inputs": [],
            "name": "BadStart",
            "type": "error"
        },
        {
            "inputs": [],
            "name": "EarlyWithdrawalInfeasible",
            "type": "error"
        },
        {
            "inputs": [],
            "name": "InactiveStreamError",
            "type": "error"
        },
        {
            "inputs": [],
            "name": "IncorrectWeight",
            "type": "error"
        },
        {
            "inputs": [],
            "name": "InsufficientRewardsError",
            "type": "error"
        },
        {
            "inputs": [],
            "name": "InvalidPenaltyWeights",
            "type": "error"
        },
        {
            "inputs": [],
            "name": "InvalidShareWeights",
            "type": "error"
        },
        {
            "inputs": [],
            "name": "LockAlreadyOpen",
            "type": "error"
        },
        {
            "inputs": [],
            "name": "LockNotClosed",
            "type": "error"
        },
        {
            "inputs": [],
            "name": "LockNotExpired",
            "type": "error"
        },
        {
            "inputs": [
                {
                    "internalType": "uint256",
                    "name": "_lockId",
                    "type": "uint256"
                },
                {
                    "internalType": "address",
                    "name": "_account",
                    "type": "address"
                }
            ],
            "name": "MaxLockIdExceeded",
            "type": "error"
        },
        {
            "inputs": [],
            "name": "MaxLockPeriodExceeded",
            "type": "error"
        },
        {
            "inputs": [],
            "name": "MaxLockPositionsReached",
            "type": "error"
        },
        {
            "inputs": [],
            "name": "MinLockPeriodNotMet",
            "type": "error"
        },
        {
            "inputs": [],
            "name": "NoActiveStream",
            "type": "error"
        },
        {
            "inputs": [],
            "name": "NoLockError",
            "type": "error"
        },
        {
            "inputs": [],
            "name": "NoLocks",
            "type": "error"
        },
        {
            "inputs": [],
            "name": "NoPendings",
            "type": "error"
        },
        {
            "inputs": [],
            "name": "NoSharesError",
            "type": "error"
        },
        {
            "inputs": [],
            "name": "NoStakeError",
            "type": "error"
        },
        {
            "inputs": [],
            "name": "NotLockOwner",
            "type": "error"
        },
        {
            "inputs": [],
            "name": "NotOwner",
            "type": "error"
        },
        {
            "inputs": [],
            "name": "NotPaused",
            "type": "error"
        },
        {
            "inputs": [],
            "name": "NotProposed",
            "type": "error"
        },
        {
            "inputs": [],
            "name": "NotReleased",
            "type": "error"
        },
        {
            "inputs": [],
            "name": "ProposalExpired",
            "type": "error"
        },
        {
            "inputs": [],
            "name": "RewardsTooHigh",
            "type": "error"
        },
        {
            "inputs": [],
            "name": "RewardsTooLow",
            "type": "error"
        },
        {
            "inputs": [],
            "name": "StreamIdZero",
            "type": "error"
        },
        {
            "inputs": [],
            "name": "StreamInactive",
            "type": "error"
        },
        {
            "inputs": [],
            "name": "StreamInactiveError",
            "type": "error"
        },
        {
            "inputs": [],
            "name": "StreamNotWithdrawn",
            "type": "error"
        },
        {
            "inputs": [],
            "name": "UnsupportedToken",
            "type": "error"
        },
        {
            "inputs": [
                {
                    "internalType": "address",
                    "name": "_vault",
                    "type": "address"
                }
            ],
            "name": "VaultMigrated",
            "type": "error"
        },
        {
            "inputs": [
                {
                    "internalType": "address",
                    "name": "_vault",
                    "type": "address"
                }
            ],
            "name": "VaultNotMigrated",
            "type": "error"
        },
        {
            "inputs": [
                {
                    "internalType": "address",
                    "name": "_vault",
                    "type": "address"
                }
            ],
            "name": "VaultNotSupported",
            "type": "error"
        },
        {
            "inputs": [],
            "name": "ZeroAddress",
            "type": "error"
        },
        {
            "inputs": [],
            "name": "ZeroAmount",
            "type": "error"
        },
        {
            "inputs": [],
            "name": "ZeroCoefficient",
            "type": "error"
        },
        {
            "inputs": [],
            "name": "ZeroLockId",
            "type": "error"
        },
        {
            "inputs": [
                {
                    "internalType": "uint256",
                    "name": "lockId",
                    "type": "uint256"
                }
            ],
            "name": "ZeroLocked",
            "type": "error"
        },
        {
            "inputs": [],
            "name": "ZeroPenalty",
            "type": "error"
        },
        {
            "inputs": [],
            "name": "ZeroTotalStakedToken",
            "type": "error"
        },
        {
            "anonymous": false,
            "inputs": [
                {
                    "indexed": false,
                    "internalType": "uint8",
                    "name": "version",
                    "type": "uint8"
                }
            ],
            "name": "Initialized",
            "type": "event"
        },
        {
            "anonymous": false,
            "inputs": [
                {
                    "indexed": true,
                    "internalType": "address",
                    "name": "account",
                    "type": "address"
                },
                {
                    "indexed": false,
                    "internalType": "uint256",
                    "name": "amount",
                    "type": "uint256"
                },
                {
                    "indexed": true,
                    "internalType": "uint256",
                    "name": "lockId",
                    "type": "uint256"
                }
            ],
            "name": "PartialUnstaked",
            "type": "event"
        },
        {
            "anonymous": false,
            "inputs": [
                {
                    "indexed": true,
                    "internalType": "uint256",
                    "name": "streamId",
                    "type": "uint256"
                },
                {
                    "indexed": true,
                    "internalType": "address",
                    "name": "account",
                    "type": "address"
                },
                {
                    "indexed": false,
                    "internalType": "uint256",
                    "name": "pendings",
                    "type": "uint256"
                }
            ],
            "name": "Pending",
            "type": "event"
        },
        {
            "anonymous": false,
            "inputs": [
                {
                    "indexed": true,
                    "internalType": "uint256",
                    "name": "streamId",
                    "type": "uint256"
                },
                {
                    "indexed": true,
                    "internalType": "address",
                    "name": "user",
                    "type": "address"
                },
                {
                    "indexed": false,
                    "internalType": "uint256",
                    "name": "pendingAmount",
                    "type": "uint256"
                }
            ],
            "name": "Released",
            "type": "event"
        },
        {
            "anonymous": false,
            "inputs": [
                {
                    "indexed": true,
                    "internalType": "bytes32",
                    "name": "role",
                    "type": "bytes32"
                },
                {
                    "indexed": true,
                    "internalType": "bytes32",
                    "name": "previousAdminRole",
                    "type": "bytes32"
                },
                {
                    "indexed": true,
                    "internalType": "bytes32",
                    "name": "newAdminRole",
                    "type": "bytes32"
                }
            ],
            "name": "RoleAdminChanged",
            "type": "event"
        },
        {
            "anonymous": false,
            "inputs": [
                {
                    "indexed": true,
                    "internalType": "bytes32",
                    "name": "role",
                    "type": "bytes32"
                },
                {
                    "indexed": true,
                    "internalType": "address",
                    "name": "account",
                    "type": "address"
                },
                {
                    "indexed": true,
                    "internalType": "address",
                    "name": "sender",
                    "type": "address"
                }
            ],
            "name": "RoleGranted",
            "type": "event"
        },
        {
            "anonymous": false,
            "inputs": [
                {
                    "indexed": true,
                    "internalType": "bytes32",
                    "name": "role",
                    "type": "bytes32"
                },
                {
                    "indexed": true,
                    "internalType": "address",
                    "name": "account",
                    "type": "address"
                },
                {
                    "indexed": true,
                    "internalType": "address",
                    "name": "sender",
                    "type": "address"
                }
            ],
            "name": "RoleRevoked",
            "type": "event"
        },
        {
            "anonymous": false,
            "inputs": [
                {
                    "indexed": true,
                    "internalType": "address",
                    "name": "account",
                    "type": "address"
                },
                {
                    "indexed": false,
                    "internalType": "uint256",
                    "name": "amount",
                    "type": "uint256"
                },
                {
                    "indexed": false,
                    "internalType": "uint256",
                    "name": "streamShares",
                    "type": "uint256"
                },
                {
                    "indexed": false,
                    "internalType": "uint256",
                    "name": "nVoteToken",
                    "type": "uint256"
                },
                {
                    "indexed": true,
                    "internalType": "uint256",
                    "name": "lockId",
                    "type": "uint256"
                },
                {
                    "indexed": false,
                    "internalType": "uint256",
                    "name": "end",
                    "type": "uint256"
                }
            ],
            "name": "Staked",
            "type": "event"
        },
        {
            "anonymous": false,
            "inputs": [
                {
                    "indexed": true,
                    "internalType": "uint256",
                    "name": "streamId",
                    "type": "uint256"
                },
                {
                    "indexed": true,
                    "internalType": "address",
                    "name": "owner",
                    "type": "address"
                },
                {
                    "indexed": true,
                    "internalType": "address",
                    "name": "token",
                    "type": "address"
                },
                {
                    "indexed": false,
                    "internalType": "uint256",
                    "name": "tau",
                    "type": "uint256"
                }
            ],
            "name": "StreamCreated",
            "type": "event"
        },
        {
            "anonymous": false,
            "inputs": [
                {
                    "indexed": true,
                    "internalType": "uint256",
                    "name": "streamId",
                    "type": "uint256"
                },
                {
                    "indexed": true,
                    "internalType": "address",
                    "name": "owner",
                    "type": "address"
                },
                {
                    "indexed": true,
                    "internalType": "address",
                    "name": "token",
                    "type": "address"
                }
            ],
            "name": "StreamProposalCancelled",
            "type": "event"
        },
        {
            "anonymous": false,
            "inputs": [
                {
                    "indexed": true,
                    "internalType": "uint256",
                    "name": "streamId",
                    "type": "uint256"
                },
                {
                    "indexed": true,
                    "internalType": "address",
                    "name": "streamOwner",
                    "type": "address"
                },
                {
                    "indexed": true,
                    "internalType": "address",
                    "name": "rewardToken",
                    "type": "address"
                },
                {
                    "indexed": false,
                    "internalType": "uint256",
                    "name": "maxDepositAmount",
                    "type": "uint256"
                }
            ],
            "name": "StreamProposed",
            "type": "event"
        },
        {
            "anonymous": false,
            "inputs": [
                {
                    "indexed": true,
                    "internalType": "uint256",
                    "name": "streamId",
                    "type": "uint256"
                },
                {
                    "indexed": true,
                    "internalType": "address",
                    "name": "owner",
                    "type": "address"
                },
                {
                    "indexed": true,
                    "internalType": "address",
                    "name": "token",
                    "type": "address"
                }
            ],
            "name": "StreamRemoved",
            "type": "event"
        },
        {
            "anonymous": false,
            "inputs": [
                {
                    "indexed": true,
                    "internalType": "address",
                    "name": "account",
                    "type": "address"
                },
                {
                    "indexed": false,
                    "internalType": "uint256",
                    "name": "amount",
                    "type": "uint256"
                },
                {
                    "indexed": true,
                    "internalType": "uint256",
                    "name": "lockId",
                    "type": "uint256"
                }
            ],
            "name": "Unstaked",
            "type": "event"
        },
        {
            "inputs": [],
            "name": "DEFAULT_ADMIN_ROLE",
            "outputs": [
                {
                    "internalType": "bytes32",
                    "name": "",
                    "type": "bytes32"
                }
            ],
            "stateMutability": "view",
            "type": "function"
        },
        {
            "inputs": [],
            "name": "PAUSE_ROLE",
            "outputs": [
                {
                    "internalType": "bytes32",
                    "name": "",
                    "type": "bytes32"
                }
            ],
            "stateMutability": "view",
            "type": "function"
        },
        {
            "inputs": [],
            "name": "STREAM_MANAGER_ROLE",
            "outputs": [
                {
                    "internalType": "bytes32",
                    "name": "",
                    "type": "bytes32"
                }
            ],
            "stateMutability": "view",
            "type": "function"
        },
        {
            "inputs": [],
            "name": "TREASURY_ROLE",
            "outputs": [
                {
                    "internalType": "bytes32",
                    "name": "",
                    "type": "bytes32"
                }
            ],
            "stateMutability": "view",
            "type": "function"
        },
        {
            "inputs": [
                {
                    "internalType": "uint256",
                    "name": "flags",
                    "type": "uint256"
                }
            ],
            "name": "adminPause",
            "outputs": [],
            "stateMutability": "nonpayable",
            "type": "function"
        },
        {
            "inputs": [
                {
                    "internalType": "uint256",
                    "name": "streamId",
                    "type": "uint256"
                }
            ],
            "name": "cancelStreamProposal",
            "outputs": [],
            "stateMutability": "nonpayable",
            "type": "function"
        },
        {
            "inputs": [
                {
                    "internalType": "uint256",
                    "name": "streamId",
                    "type": "uint256"
                }
            ],
            "name": "claimAllLockRewardsForStream",
            "outputs": [],
            "stateMutability": "nonpayable",
            "type": "function"
        },
        {
            "inputs": [
                {
                    "internalType": "uint256",
                    "name": "lockId",
                    "type": "uint256"
                }
            ],
            "name": "claimAllStreamRewardsForLock",
            "outputs": [],
            "stateMutability": "nonpayable",
            "type": "function"
        },
        {
            "inputs": [
                {
                    "components": [
                        {
                            "internalType": "uint256",
                            "name": "amount",
                            "type": "uint256"
                        },
                        {
                            "internalType": "uint256",
                            "name": "lockPeriod",
                            "type": "uint256"
                        },
                        {
                            "internalType": "address",
                            "name": "account",
                            "type": "address"
                        }
                    ],
                    "internalType": "struct CreateLockParams[]",
                    "name": "lockPositions",
                    "type": "tuple[]"
                }
            ],
            "name": "createFixedLocksOnBehalfOfUserByAdmin",
            "outputs": [],
            "stateMutability": "nonpayable",
            "type": "function"
        },
        {
            "inputs": [
                {
                    "internalType": "uint256",
                    "name": "amount",
                    "type": "uint256"
                },
                {
                    "internalType": "uint256",
                    "name": "lockPeriod",
                    "type": "uint256"
                }
            ],
            "name": "createLock",
            "outputs": [],
            "stateMutability": "nonpayable",
            "type": "function"
        },
        {
            "inputs": [
                {
                    "internalType": "uint256",
                    "name": "streamId",
                    "type": "uint256"
                },
                {
                    "internalType": "uint256",
                    "name": "rewardTokenAmount",
                    "type": "uint256"
                }
            ],
            "name": "createStream",
            "outputs": [],
            "stateMutability": "nonpayable",
            "type": "function"
        },
        {
            "inputs": [
                {
                    "internalType": "uint256",
                    "name": "lockId",
                    "type": "uint256"
                }
            ],
            "name": "earlyUnlock",
            "outputs": [],
            "stateMutability": "nonpayable",
            "type": "function"
        },
        {
            "inputs": [],
            "name": "emergencyUnlockAndWithdraw",
            "outputs": [],
            "stateMutability": "nonpayable",
            "type": "function"
        },
        {
            "inputs": [
                {
                    "internalType": "address",
                    "name": "account",
                    "type": "address"
                }
            ],
            "name": "getAllLocks",
            "outputs": [
                {
                    "components": [
                        {
                            "internalType": "uint128",
                            "name": "amountOfToken",
                            "type": "uint128"
                        },
                        {
                            "internalType": "uint128",
                            "name": "positionStreamShares",
                            "type": "uint128"
                        },
                        {
                            "internalType": "uint64",
                            "name": "end",
                            "type": "uint64"
                        },
                        {
                            "internalType": "address",
                            "name": "owner",
                            "type": "address"
                        },
                        {
                            "internalType": "uint256",
                            "name": "amountOfVoteToken",
                            "type": "uint256"
                        }
                    ],
                    "internalType": "struct LockedBalance[]",
                    "name": "",
                    "type": "tuple[]"
                }
            ],
            "stateMutability": "view",
            "type": "function"
        },
        {
            "inputs": [
                {
                    "internalType": "bytes32",
                    "name": "role",
                    "type": "bytes32"
                }
            ],
            "name": "getRoleAdmin",
            "outputs": [
                {
                    "internalType": "bytes32",
                    "name": "",
                    "type": "bytes32"
                }
            ],
            "stateMutability": "view",
            "type": "function"
        },
        {
            "inputs": [
                {
                    "internalType": "uint256",
                    "name": "streamId",
                    "type": "uint256"
                }
            ],
            "name": "getStream",
            "outputs": [
                {
                    "internalType": "uint256",
                    "name": "rewardDepositAmount",
                    "type": "uint256"
                },
                {
                    "internalType": "uint256",
                    "name": "rewardClaimedAmount",
                    "type": "uint256"
                },
                {
                    "internalType": "uint256",
                    "name": "rps",
                    "type": "uint256"
                },
                {
                    "internalType": "enum StreamStatus",
                    "name": "status",
                    "type": "uint8"
                }
            ],
            "stateMutability": "view",
            "type": "function"
        },
        {
            "inputs": [
                {
                    "internalType": "uint256",
                    "name": "streamId",
                    "type": "uint256"
                },
                {
                    "internalType": "address",
                    "name": "account",
                    "type": "address"
                },
                {
                    "internalType": "uint256",
                    "name": "lockId",
                    "type": "uint256"
                }
            ],
            "name": "getStreamClaimableAmountPerLock",
            "outputs": [
                {
                    "internalType": "uint256",
                    "name": "",
                    "type": "uint256"
                }
            ],
            "stateMutability": "view",
            "type": "function"
        },
        {
            "inputs": [
                {
                    "internalType": "uint256",
                    "name": "streamId",
                    "type": "uint256"
                }
            ],
            "name": "getStreamSchedule",
            "outputs": [
                {
                    "internalType": "uint256[]",
                    "name": "scheduleTimes",
                    "type": "uint256[]"
                },
                {
                    "internalType": "uint256[]",
                    "name": "scheduleRewards",
                    "type": "uint256[]"
                }
            ],
            "stateMutability": "view",
            "type": "function"
        },
        {
            "inputs": [
                {
                    "internalType": "address",
                    "name": "account",
                    "type": "address"
                },
                {
                    "internalType": "uint256",
                    "name": "streamId",
                    "type": "uint256"
                }
            ],
            "name": "getUsersPendingRewards",
            "outputs": [
                {
                    "internalType": "uint256",
                    "name": "",
                    "type": "uint256"
                }
            ],
            "stateMutability": "view",
            "type": "function"
        },
        {
            "inputs": [
                {
                    "internalType": "bytes32",
                    "name": "role",
                    "type": "bytes32"
                },
                {
                    "internalType": "address",
                    "name": "account",
                    "type": "address"
                }
            ],
            "name": "grantRole",
            "outputs": [],
            "stateMutability": "nonpayable",
            "type": "function"
        },
        {
            "inputs": [
                {
                    "internalType": "bytes32",
                    "name": "role",
                    "type": "bytes32"
                },
                {
                    "internalType": "address",
                    "name": "account",
                    "type": "address"
                }
            ],
            "name": "hasRole",
            "outputs": [
                {
                    "internalType": "bool",
                    "name": "",
                    "type": "bool"
                }
            ],
            "stateMutability": "view",
            "type": "function"
        },
        {
            "inputs": [
                {
                    "internalType": "address",
                    "name": "_owner",
                    "type": "address"
                },
                {
                    "internalType": "uint256[]",
                    "name": "scheduleTimes",
                    "type": "uint256[]"
                },
                {
                    "internalType": "uint256[]",
                    "name": "scheduleRewards",
                    "type": "uint256[]"
                },
                {
                    "internalType": "uint256",
                    "name": "tau",
                    "type": "uint256"
                }
            ],
            "name": "initializeMainStream",
            "outputs": [],
            "stateMutability": "nonpayable",
            "type": "function"
        },
        {
            "inputs": [
                {
                    "internalType": "address",
                    "name": "_admin",
                    "type": "address"
                },
                {
                    "internalType": "address",
                    "name": "_vault",
                    "type": "address"
                },
                {
                    "internalType": "address",
                    "name": "_treasury",
                    "type": "address"
                },
                {
                    "internalType": "address",
                    "name": "_mainToken",
                    "type": "address"
                },
                {
                    "internalType": "address",
                    "name": "_voteToken",
                    "type": "address"
                },
                {
                    "components": [
                        {
                            "internalType": "uint32",
                            "name": "maxWeightShares",
                            "type": "uint32"
                        },
                        {
                            "internalType": "uint32",
                            "name": "minWeightShares",
                            "type": "uint32"
                        },
                        {
                            "internalType": "uint32",
                            "name": "maxWeightPenalty",
                            "type": "uint32"
                        },
                        {
                            "internalType": "uint32",
                            "name": "minWeightPenalty",
                            "type": "uint32"
                        },
                        {
                            "internalType": "uint32",
                            "name": "penaltyWeightMultiplier",
                            "type": "uint32"
                        }
                    ],
                    "internalType": "struct Weight",
                    "name": "_weight",
                    "type": "tuple"
                },
                {
                    "components": [
                        {
                            "internalType": "uint32",
                            "name": "voteShareCoef",
                            "type": "uint32"
                        },
                        {
                            "internalType": "uint32",
                            "name": "voteLockCoef",
                            "type": "uint32"
                        }
                    ],
                    "internalType": "struct VoteCoefficient",
                    "name": "voteCoef",
                    "type": "tuple"
                },
                {
                    "internalType": "uint256",
                    "name": "_maxLocks",
                    "type": "uint256"
                },
                {
                    "internalType": "address",
                    "name": "_rewardsContract",
                    "type": "address"
                },
                {
                    "internalType": "uint256",
                    "name": "_minLockPeriod",
                    "type": "uint256"
                }
            ],
            "name": "initializeStaking",
            "outputs": [],
            "stateMutability": "nonpayable",
            "type": "function"
        },
        {
            "inputs": [],
            "name": "mainToken",
            "outputs": [
                {
                    "internalType": "address",
                    "name": "",
                    "type": "address"
                }
            ],
            "stateMutability": "view",
            "type": "function"
        },
        {
            "inputs": [],
            "name": "maxLockPeriod",
            "outputs": [
                {
                    "internalType": "uint256",
                    "name": "",
                    "type": "uint256"
                }
            ],
            "stateMutability": "view",
            "type": "function"
        },
        {
            "inputs": [],
            "name": "maxLockPositions",
            "outputs": [
                {
                    "internalType": "uint256",
                    "name": "",
                    "type": "uint256"
                }
            ],
            "stateMutability": "view",
            "type": "function"
        },
        {
            "inputs": [],
            "name": "minLockPeriod",
            "outputs": [
                {
                    "internalType": "uint256",
                    "name": "",
                    "type": "uint256"
                }
            ],
            "stateMutability": "view",
            "type": "function"
        },
        {
            "inputs": [],
            "name": "paused",
            "outputs": [
                {
                    "internalType": "uint256",
                    "name": "",
                    "type": "uint256"
                }
            ],
            "stateMutability": "view",
            "type": "function"
        },
        {
            "inputs": [
                {
                    "internalType": "address",
                    "name": "streamOwner",
                    "type": "address"
                },
                {
                    "internalType": "address",
                    "name": "rewardToken",
                    "type": "address"
                },
                {
                    "internalType": "uint256",
                    "name": "percentToTreasury",
                    "type": "uint256"
                },
                {
                    "internalType": "uint256",
                    "name": "maxDepositAmount",
                    "type": "uint256"
                },
                {
                    "internalType": "uint256",
                    "name": "minDepositAmount",
                    "type": "uint256"
                },
                {
                    "internalType": "uint256[]",
                    "name": "scheduleTimes",
                    "type": "uint256[]"
                },
                {
                    "internalType": "uint256[]",
                    "name": "scheduleRewards",
                    "type": "uint256[]"
                },
                {
                    "internalType": "uint256",
                    "name": "tau",
                    "type": "uint256"
                }
            ],
            "name": "proposeStream",
            "outputs": [],
            "stateMutability": "nonpayable",
            "type": "function"
        },
        {
            "inputs": [
                {
                    "internalType": "uint256",
                    "name": "streamId",
                    "type": "uint256"
                },
                {
                    "internalType": "address",
                    "name": "streamFundReceiver",
                    "type": "address"
                }
            ],
            "name": "removeStream",
            "outputs": [],
            "stateMutability": "nonpayable",
            "type": "function"
        },
        {
            "inputs": [
                {
                    "internalType": "bytes32",
                    "name": "role",
                    "type": "bytes32"
                },
                {
                    "internalType": "address",
                    "name": "account",
                    "type": "address"
                }
            ],
            "name": "renounceRole",
            "outputs": [],
            "stateMutability": "nonpayable",
            "type": "function"
        },
        {
            "inputs": [
                {
                    "internalType": "bytes32",
                    "name": "role",
                    "type": "bytes32"
                },
                {
                    "internalType": "address",
                    "name": "account",
                    "type": "address"
                }
            ],
            "name": "revokeRole",
            "outputs": [],
            "stateMutability": "nonpayable",
            "type": "function"
        },
        {
            "inputs": [],
            "name": "rewardsCalculator",
            "outputs": [
                {
                    "internalType": "address",
                    "name": "",
                    "type": "address"
                }
            ],
            "stateMutability": "view",
            "type": "function"
        },
        {
            "inputs": [
                {
                    "internalType": "uint256",
                    "name": "newMaxLockPositions",
                    "type": "uint256"
                }
            ],
            "name": "setMaxLockPositions",
            "outputs": [],
            "stateMutability": "nonpayable",
            "type": "function"
        },
        {
            "inputs": [
                {
                    "internalType": "uint256",
                    "name": "_minLockPeriod",
                    "type": "uint256"
                }
            ],
            "name": "setMinimumLockPeriod",
            "outputs": [],
            "stateMutability": "nonpayable",
            "type": "function"
        },
        {
            "inputs": [
                {
                    "internalType": "address",
                    "name": "newTreasury",
                    "type": "address"
                }
            ],
            "name": "setTreasuryAddress",
            "outputs": [],
            "stateMutability": "nonpayable",
            "type": "function"
        },
        {
            "inputs": [
                {
                    "internalType": "uint256",
                    "name": "",
                    "type": "uint256"
                }
            ],
            "name": "streamTotalUserPendings",
            "outputs": [
                {
                    "internalType": "uint256",
                    "name": "",
                    "type": "uint256"
                }
            ],
            "stateMutability": "view",
            "type": "function"
        },
        {
            "inputs": [
                {
                    "internalType": "bytes4",
                    "name": "interfaceId",
                    "type": "bytes4"
                }
            ],
            "name": "supportsInterface",
            "outputs": [
                {
                    "internalType": "bool",
                    "name": "",
                    "type": "bool"
                }
            ],
            "stateMutability": "view",
            "type": "function"
        },
        {
            "inputs": [],
            "name": "totalAmountOfStakedToken",
            "outputs": [
                {
                    "internalType": "uint256",
                    "name": "",
                    "type": "uint256"
                }
            ],
            "stateMutability": "view",
            "type": "function"
        },
        {
            "inputs": [],
            "name": "totalAmountOfVoteToken",
            "outputs": [
                {
                    "internalType": "uint256",
                    "name": "",
                    "type": "uint256"
                }
            ],
            "stateMutability": "view",
            "type": "function"
        },
        {
            "inputs": [],
            "name": "totalPenaltyBalance",
            "outputs": [
                {
                    "internalType": "uint256",
                    "name": "",
                    "type": "uint256"
                }
            ],
            "stateMutability": "view",
            "type": "function"
        },
        {
            "inputs": [],
            "name": "totalStreamShares",
            "outputs": [
                {
                    "internalType": "uint256",
                    "name": "",
                    "type": "uint256"
                }
            ],
            "stateMutability": "view",
            "type": "function"
        },
        {
            "inputs": [],
            "name": "treasury",
            "outputs": [
                {
                    "internalType": "address",
                    "name": "",
                    "type": "address"
                }
            ],
            "stateMutability": "view",
            "type": "function"
        },
        {
            "inputs": [
                {
                    "internalType": "uint256",
                    "name": "lockId",
                    "type": "uint256"
                }
            ],
            "name": "unlock",
            "outputs": [],
            "stateMutability": "nonpayable",
            "type": "function"
        },
        {
            "inputs": [
                {
                    "internalType": "uint256",
                    "name": "lockId",
                    "type": "uint256"
                },
                {
                    "internalType": "uint256",
                    "name": "amount",
                    "type": "uint256"
                }
            ],
            "name": "unlockPartially",
            "outputs": [],
            "stateMutability": "nonpayable",
            "type": "function"
        },
        {
            "inputs": [
                {
                    "internalType": "address",
                    "name": "_vault",
                    "type": "address"
                }
            ],
            "name": "updateVault",
            "outputs": [],
            "stateMutability": "nonpayable",
            "type": "function"
        },
        {
            "inputs": [
                {
                    "internalType": "address",
                    "name": "",
                    "type": "address"
                }
            ],
            "name": "users",
            "outputs": [
                {
                    "internalType": "uint256",
                    "name": "voteTokenBalance",
                    "type": "uint256"
                }
            ],
            "stateMutability": "view",
            "type": "function"
        },
        {
            "inputs": [],
            "name": "vault",
            "outputs": [
                {
                    "internalType": "address",
                    "name": "",
                    "type": "address"
                }
            ],
            "stateMutability": "view",
            "type": "function"
        },
        {
            "inputs": [],
            "name": "voteToken",
            "outputs": [
                {
                    "internalType": "address",
                    "name": "",
                    "type": "address"
                }
            ],
            "stateMutability": "view",
            "type": "function"
        },
        {
            "inputs": [],
            "name": "weight",
            "outputs": [
                {
                    "internalType": "uint32",
                    "name": "maxWeightShares",
                    "type": "uint32"
                },
                {
                    "internalType": "uint32",
                    "name": "minWeightShares",
                    "type": "uint32"
                },
                {
                    "internalType": "uint32",
                    "name": "maxWeightPenalty",
                    "type": "uint32"
                },
                {
                    "internalType": "uint32",
                    "name": "minWeightPenalty",
                    "type": "uint32"
                },
                {
                    "internalType": "uint32",
                    "name": "penaltyWeightMultiplier",
                    "type": "uint32"
                }
            ],
            "stateMutability": "view",
            "type": "function"
        },
        {
            "inputs": [],
            "name": "withdrawAllStreams",
            "outputs": [],
            "stateMutability": "nonpayable",
            "type": "function"
        },
        {
            "inputs": [],
            "name": "withdrawPenalty",
            "outputs": [],
            "stateMutability": "nonpayable",
            "type": "function"
        },
        {
            "inputs": [
                {
                    "internalType": "uint256",
                    "name": "streamId",
                    "type": "uint256"
                }
            ],
            "name": "withdrawStream",
            "outputs": [],
            "stateMutability": "nonpayable",
            "type": "function"
        }
    ],
    "bytecode": "0x60806040523480156200001157600080fd5b506200001c62000022565b62000112565b601554610100900460ff1615620000565760405162461bcd60e51b81526004016200004d90620000b0565b60405180910390fd5b60155460ff9081161015620000ae576015805460ff191660ff9081179091556040517f7f26b83ff96e1f2b6a682f133852f6798a09c465da95921460cefb384740249891620000a59162000102565b60405180910390a15b565b60208082528101620000fc81602781527f496e697469616c697a61626c653a20636f6e747261637420697320696e697469602082015266616c697a696e6760c81b604082015260600190565b92915050565b60ff8216815260208101620000fc565b615eda80620001226000396000f3fe608060405234801561001057600080fd5b50600436106102d75760003560e01c80636db8e53d11610188578063a8d85f70116100e4578063d547741f11610092578063d547741f146106e8578063ddcf3e29146106fb578063e7563f3f1461070e578063eb6a971714610721578063f1807b7014610729578063f604037314610731578063fbfa77cf1461073a57600080fd5b8063a8d85f7014610668578063b0abc98114610688578063b52c05fe14610691578063bd5cf8ff146106a4578063cedb6668146106ad578063cf04a19d146106c0578063d11a57ec146106d357600080fd5b806390403322116101415780639040332214610575578063911328121461058857806391d14854146105c2578063a1aab33f146105d5578063a217fddf14610620578063a87430ba14610628578063a8cbd3c71461064857600080fd5b80636db8e53d146104f957806370bc770c1461050257806373ae54b514610523578063894e9a0d1461052c5780638ca6ce111461054f5780638d40bd031461056257600080fd5b8063389ed267116102375780634b1d29b4116101f05780634b1d29b4146104885780635c975abb146104915780635f7461d61461049a5780636198e339146104ad57806361d027b3146104c05780636605bfda146104d35780636d878d10146104e657600080fd5b8063389ed2671461040a5780633a3f1511146104315780633ba31abf1461043a5780633ea005c81461044d5780633fc15f1514610462578063460f2ca01461047557600080fd5b80631d9755cb116102945780631d9755cb14610368578063248a9ca31461037b5780632692c59f146103ab5780632f2ff15d146103be57806336085c51146103d157806336568abe146103e4578063382a7193146103f757600080fd5b806301ffc9a7146102dc5780630b881567146103055780631194ebeb1461031a5780631556578b1461032d578063160d66ae146103405780631a1ce2fc14610360575b600080fd5b6102ef6102ea366004614d55565b61074d565b6040516102fc9190614d80565b60405180910390f35b610318610313366004614df4565b610784565b005b610318610328366004614f23565b610994565b61031861033b366004615001565b610d7f565b600c54610353906001600160a01b031681565b6040516102fc919061502b565b610318610db3565b610318610376366004615039565b610e3e565b61039e610389366004615001565b6000908152607a602052604090206001015490565b6040516102fc91906150df565b6103186103b9366004615001565b61128b565b6103186103cc3660046150ed565b6112be565b6103186103df366004615001565b6112e8565b6103186103f23660046150ed565b6113e2565b610318610405366004615001565b611414565b61039e7f139c2898040ef16910dc9f44dc697df79363da767d8bc92f2e310312b816e46d81565b61039e60025481565b6103186104483660046150ed565b611526565b61039e600080516020615e6583398151915281565b600b54610353906001600160a01b031681565b610318610483366004615174565b61175e565b61039e60005481565b61039e60ac5481565b6103186104a8366004615001565b611873565b6103186104bb366004615001565b611911565b600f54610353906001600160a01b031681565b6103186104e13660046151bb565b611a05565b600e54610353906001600160a01b031681565b61039e60065481565b610515610510366004615001565b611a97565b6040516102fc929190615239565b61039e60015481565b61053f61053a366004615001565b611b95565b6040516102fc94939291906152a7565b61031861055d3660046152dc565b611bf1565b6103186105703660046152dc565b611cec565b610318610583366004615001565b61209e565b61039e61059636600461530f565b6001600160a01b0391909116600090815260116020908152604080832093835260019093019052205490565b6102ef6105d03660046150ed565b612170565b60105461060f9063ffffffff80821691600160201b8104821691600160401b8204811691600160601b8104821691600160801b9091041685565b6040516102fc95949392919061533d565b61039e600081565b61039e6106363660046151bb565b60116020526000908152604090205481565b61039e610656366004615001565b60146020526000908152604090205481565b61067b6106763660046151bb565b61219b565b6040516102fc9190615456565b61039e60055481565b61031861069f3660046152dc565b612261565b61039e60075481565b6103186106bb366004615001565b6122a3565b6103186106ce366004615001565b6122ec565b61039e600080516020615e8583398151915281565b6103186106f63660046150ed565b612320565b61039e610709366004615467565b612345565b61031861071c3660046151bb565b6124ab565b610318612657565b610318612745565b61039e60085481565b600d54610353906001600160a01b031681565b60006001600160e01b03198216637965db0b60e01b148061077e57506301ffc9a760e01b6001600160e01b03198316145b92915050565b601554610100900460ff16158080156107a45750601554600160ff909116105b806107be5750303b1580156107be575060155460ff166001145b6107e35760405162461bcd60e51b81526004016107da90615505565b60405180910390fd5b6015805460ff191660011790558015610806576015805461ff0019166101001790555b600e80546001600160a01b0319166001600160a01b03851617905561086688888b610836368b90038b018b61560b565b8e8961084560208d018d61562c565b63ffffffff1661085b60408e0160208f0161562c565b63ffffffff166128b8565b600d54604051630480051d60e31b81526001600160a01b039091169063240028e890610896908b9060040161502b565b602060405180830381865afa1580156108b3573d6000803e3d6000fd5b505050506040513d601f19601f820116820180604052508101906108d79190615660565b6108f45760405163350b944160e11b815260040160405180910390fd5b6108ff60018c6129b9565b610917600080516020615e658339815191528c612a23565b61092f600080516020615e858339815191528a612a23565b6301e1338060005560018290558015610987576015805461ff00191690556040517f7f26b83ff96e1f2b6a682f133852f6798a09c465da95921460cefb38474024989061097e9060019061569e565b60405180910390a15b5050505050505050505050565b600080516020615e658339815191526109ac81612aa9565b610a208b8b8b8b8b8b8b8080602002602001604051908101604052809392919081815260200183836020028082843760009201919091525050604080516020808f0282810182019093528e82529093508e92508d9182918501908490808284376000920191909152508c9250612ab3915050565b600d54604051630480051d60e31b81526001600160a01b039091169063240028e890610a50908d9060040161502b565b602060405180830381865afa158015610a6d573d6000803e3d6000fd5b505050506040513d601f19601f82011682018060405250810190610a919190615660565b610aae5760405163350b944160e11b815260040160405180910390fd5b604080516060602088028083018201845292820188815260009383928b918b918291908601908490808284376000920191909152505050908252506040805160208881028281018201909352888252928301929091899189918291850190849080828437600081840152601f19601f8201169050808301925050505050505081525090506000601280549050905060126040518061018001604052808f6001600160a01b03168152602001336001600160a01b031681526020018d81526020018e6001600160a01b0316815260200160016002811115610b9057610b9061525e565b815260200160008152602001600081526020018c81526020018b8152602001868152602001600081526020018481525090806001815401808255809150506001900390600052602060002090600c020160009091909190915060008201518160000160006101000a8154816001600160a01b0302191690836001600160a01b0316021790555060208201518160010160006101000a8154816001600160a01b0302191690836001600160a01b031602179055506040820151816002015560608201518160030160006101000a8154816001600160a01b0302191690836001600160a01b0316021790555060808201518160030160146101000a81548160ff02191690836002811115610ca457610ca461525e565b021790555060a0820151600482015560c0820151600582015560e0820151600682015561010082015160078201556101208201516008820155610140820151600982015561016082015180518051600a840191610d0691839160200190614cdc565b506020828101518051610d1f9260018501920190614cdc565b50505050508b6001600160a01b03168d6001600160a01b0316827f16284487ea0f1368a3aac8128c3dd7d8e577839303a834c010386a8aea2265708d604051610d6891906150df565b60405180910390a450505050505050505050505050565b6000610d8a81612aa9565b600254821015610dad576040516321c04e1560e01b815260040160405180910390fd5b50600255565b60018060ac541660001480610dce5750610dce600033612170565b610dea5760405162461bcd60e51b81526004016107da906156d5565b600080516020615e85833981519152610e0281612aa9565b600854600003610e2557604051635cc6486f60e01b815260040160405180910390fd5b600f54610e3a906001600160a01b0316612b2b565b5050565b6000610e4981612aa9565b600f54600160a01b900460ff161515600103610e775760405162dc149f60e41b815260040160405180910390fd5b610eac333086866000818110610e8f57610e8f6156e5565b600b546001600160a01b0316949392602090910201359050612ba3565b600b54610f5d9088906001600160a01b0316600087878281610ed057610ed06156e5565b9050602002013588886000818110610eea57610eea6156e5565b905060200201358b8b8080602002602001604051908101604052809392919081815260200183836020028082843760009201919091525050604080516020808f0282810182019093528e82529093508e92508d9182918501908490808284376000920191909152508c9250612ab3915050565b600080604051806040016040528089898080602002602001604051908101604052809392919081815260200183836020028082843760009201919091525050509082525060408051602089810282810182019093528982529283019290918a918a918291850190849080828437600092018290525093909452505060408051610180810182526001600160a01b03808f16808352602083015291810192909252600b54166060820152919250601291905060808101600281526020018888600081811061102c5761102c6156e5565b6020908102929092013583525060008282018190526040808401829052606080850183905260808086018c905260a0860184905260c0909501889052865460018082018955978452928490208651600c9094020180546001600160a01b03199081166001600160a01b039586161782559487015197810180548616988516989098179097559085015160028088019190915590850151600387018054948516919093169081178355938501519495949391926001600160a81b03191690911790600160a01b9084908111156111035761110361525e565b021790555060a0820151600482015560c0820151600582015560e0820151600682015561010082015160078201556101208201516008820155610140820151600982015561016082015180518051600a84019161116591839160200190614cdc565b50602082810151805161117e9260018501920190614cdc565b505050505061118d6000612bfb565b600f805460ff60a01b1916600160a01b179055600b546001600160a01b03908116908a16837f16284487ea0f1368a3aac8128c3dd7d8e577839303a834c010386a8aea22657089896000816111e4576111e46156e5565b905060200201356040516111f891906150df565b60405180910390a4600b546040516001600160a01b03918216918b169084907f4396d7c3edc1447dac8dd2b7143af95840c926a210524a0d3198012c7fdf37c7906112449089906150df565b60405180910390a461128086866000818110611262576112626156e5565b600b5460209091029290920135916001600160a01b03169050612c34565b505050505050505050565b7f139c2898040ef16910dc9f44dc697df79363da767d8bc92f2e310312b816e46d6112b581612aa9565b610e3a82612bfb565b6000828152607a60205260409020600101546112d981612aa9565b6112e38383612a23565b505050565b60018060ac5416600014806113035750611303600033612170565b61131f5760405162461bcd60e51b81526004016107da906156d5565b61132882612c9b565b33600090815260036020908152604080832085845290915290205460ff16156113645760405163559f3e9960e11b815260040160405180910390fd5b33600090815260136020526040812061137e600185615711565b8154811061138e5761138e6156e5565b600091825260209091206003909102016001810154909150426001600160401b03909116116113d057604051635d8e3e2960e11b815260040160405180910390fd5b6113d8612d8f565b6112e38333612e45565b6001600160a01b038116331461140a5760405162461bcd60e51b81526004016107da90615770565b610e3a8282612f7d565b60018060ac54166000148061142f575061142f600033612170565b61144b5760405162461bcd60e51b81526004016107da906156d5565b3360009081526011602090815260408083208584526001810190925282205490910361148a5760405163214f008560e01b815260040160405180910390fd5b600083815260028201602052604090205442116114ba576040516309316dab60e41b815260040160405180910390fd5b6002601284815481106114cf576114cf6156e5565b90600052602060002090600c020160030160149054906101000a900460ff1660028111156114ff576114ff61525e565b1461151d5760405163cb3c54e960e01b815260040160405180910390fd5b6112e383612fe4565b600080516020615e6583398151915261153e81612aa9565b8260000361155f576040516327b92aab60e21b815260040160405180910390fd5b6000838152601460205260409020541561158c5760405163010de00360e71b815260040160405180910390fd5b6000601284815481106115a1576115a16156e5565b60009182526020909120600c90910201905060026003820154600160a01b900460ff1660028111156115d5576115d561525e565b146115f357604051631b017f1760e11b815260040160405180910390fd5b60038101805460ff60a01b191690556005810154600482015460009161161891615711565b6003830154600d546040516370a0823160e01b81529293506000926001600160a01b03928316926370a08231926116549291169060040161502b565b602060405180830381865afa158015611671573d6000803e3d6000fd5b505050506040513d601f19601f82011682018060405250810190611695919061578b565b600d5460038501549192506001600160a01b039081169163da0c1a8891889116848611156116c357846116c5565b855b6040518463ffffffff1660e01b81526004016116e3939291906157ac565b600060405180830381600087803b1580156116fd57600080fd5b505af1158015611711573d6000803e3d6000fd5b505050600384015484546040516001600160a01b03928316935091169088907f661da9ced4b5d786f5b5f451a5f68af24721a01b0a65bb47fa4fdf70b80b887c90600090a4505050505050565b600061176981612aa9565b60005b8281101561186d576000848483818110611788576117886156e5565b90506060020160400160208101906117a091906151bb565b90506001600160a01b0381166117c95760405163d92e233d60e01b815260040160405180910390fd5b6001600160a01b03811660009081526003602090815260408083206013909252822054600192906117fa90846157d4565b81526020810191909152604001600020805460ff191691151591909117905561185a85858481811061182e5761182e6156e5565b9050606002016000013586868581811061184a5761184a6156e5565b9050606002016020013583613105565b5080611865816157e7565b91505061176c565b50505050565b60018060ac54166000148061188e575061188e600033612170565b6118aa5760405162461bcd60e51b81526004016107da906156d5565b336000908152601360205260409020548211156118de57813360405163632eba3d60e11b81526004016107da929190615801565b816000036118ff5760405163d7315a2d60e01b815260040160405180910390fd5b611907612d8f565b610e3a33836131e8565b60018060ac54166000148061192c575061192c600033612170565b6119485760405162461bcd60e51b81526004016107da906156d5565b61195182612c9b565b33600090815260136020526040812061196b600185615711565b8154811061197b5761197b6156e5565b600091825260209091206003909102016001810154909150426001600160401b0390911611156119be576040516368ce0c1560e01b815260040160405180910390fd5b6119c6612d8f565b80543360008181526003602090815260408083208884529091529020805460ff191690556001600160801b039091169061186d9082908190879061325d565b6000611a1081612aa9565b6001600160a01b038216611a375760405163d92e233d60e01b815260040160405180910390fd5b600f54611a5c90600080516020615e85833981519152906001600160a01b0316612f7d565b611a74600080516020615e8583398151915283612a23565b50600f80546001600160a01b0319166001600160a01b0392909216919091179055565b60608060128381548110611aad57611aad6156e5565b90600052602060002090600c0201600a0160000160128481548110611ad457611ad46156e5565b90600052602060002090600c0201600a0160010181805480602002602001604051908101604052809291908181526020018280548015611b3357602002820191906000526020600020905b815481526020019060010190808311611b1f575b5050505050915080805480602002602001604051908101604052809291908181526020018280548015611b8557602002820191906000526020600020905b815481526020019060010190808311611b71575b5050505050905091509150915091565b600080600080600060128681548110611bb057611bb06156e5565b90600052602060002090600c020190508060040154816005015482600901548360030160149054906101000a900460ff169450945094509450509193509193565b60018060ac541660001480611c0c5750611c0c600033612170565b611c285760405162461bcd60e51b81526004016107da906156d5565b611c3183612c9b565b336000908152601360205260408120611c4b600186615711565b81548110611c5b57611c5b6156e5565b600091825260209091206003909102016001810154909150426001600160401b039091161115611c9e5760405163342ad40160e11b815260040160405180910390fd5b611ca6612d8f565b80543360008181526003602090815260408083208984529091529020805460ff191690556001600160801b0390911690611ce59082908690889061325d565b5050505050565b60018060ac541660001480611d075750611d07600033612170565b611d235760405162461bcd60e51b81526004016107da906156d5565b600060128481548110611d3857611d386156e5565b60009182526020918290206040805161018081018252600c90930290910180546001600160a01b039081168452600182015481169484019490945260028082015492840192909252600381015493841660608401529350611ecf928491608084019160ff600160a01b9091041690811115611db557611db561525e565b6002811115611dc657611dc661525e565b8152602001600482015481526020016005820154815260200160068201548152602001600782015481526020016008820154815260200160098201548152602001600a820160405180604001604052908160008201805480602002602001604051908101604052809291908181526020018280548015611e6557602002820191906000526020600020905b815481526020019060010190808311611e51575b5050505050815260200160018201805480602002602001604051908101604052809291908181526020018280548015611ebd57602002820191906000526020600020905b815481526020019060010190808311611ea9575b5050505050815250508152505061340e565b60038101805460ff60a01b1916600160a11b179055612710831015611f07576040516355f7c7e360e11b815260040160405180910390fd5b600061271063ffffffff16848360020154611f22919061581c565b611f2c9190615851565b9050611f388185615711565b6004830181905560068301541115611f5857611f588583600401546134b2565b6004820154600b83018054600090611f7257611f726156e5565b906000526020600020015414611f9b576040516305fb017960e41b815260040160405180910390fd5b816006015482600401541115611fc4576040516370ea9fa360e11b815260040160405180910390fd5b816007015482600401541015611fed57604051638969a67560e01b815260040160405180910390fd5b6003820154825460088401546040516001600160a01b03938416939092169188917f4396d7c3edc1447dac8dd2b7143af95840c926a210524a0d3198012c7fdf37c79161203a91906150df565b60405180910390a4600382015461205c906001600160a01b0316333087612ba3565b801561208157600f546003830154612081916001600160a01b039182169116836135b8565b60048201546003830154611ce591906001600160a01b0316612c34565b600080516020615e658339815191526120b681612aa9565b6000601283815481106120cb576120cb6156e5565b60009182526020909120600c90910201905060016003820154600160a01b900460ff1660028111156120ff576120ff61525e565b1461211d576040516379543eaf60e11b815260040160405180910390fd5b60038101805460ff60a01b19811690915581546040516001600160a01b03928316929091169085907ffadbcbd495527ce5e10fd0cceba57d404a4625dd6ce0499c254ac523789ef3ad90600090a4505050565b6000918252607a602090815260408084206001600160a01b0393909316845291905290205460ff1690565b6001600160a01b0381166000908152601360209081526040808320805482518185028101850190935280835260609492939192909184015b828210156122565760008481526020908190206040805160a0810182526003860290920180546001600160801b038082168552600160801b90910416838501526001808201546001600160401b03811693850193909352600160401b9092046001600160a01b0316606084015260020154608083015290835290920191016121d3565b505050509050919050565b60018060ac54166000148061227c575061227c600033612170565b6122985760405162461bcd60e51b81526004016107da906156d5565b6112e3838333613105565b60018060ac5416600014806122be57506122be600033612170565b6122da5760405162461bcd60e51b81526004016107da906156d5565b6122e2612d8f565b610e3a33836135d7565b60006122f781612aa9565b60005482111561231a57604051639ab093af60e01b815260040160405180910390fd5b50600155565b6000828152607a602052604090206001015461233b81612aa9565b6112e38383612f7d565b600060026012858154811061235c5761235c6156e5565b90600052602060002090600c020160030160149054906101000a900460ff16600281111561238c5761238c61525e565b146123aa5760405163439022eb60e11b815260040160405180910390fd5b6001600160a01b0383166000908152601360205260409020548211156123e357604051636646ea1960e11b815260040160405180910390fd5b60006123ee8561369d565b6001600160a01b0385166000908152601160209081526040808320601390925282209293509161241f600187615711565b8154811061242f5761242f6156e5565b600091825260208083208884526003868101835260408086208d8752909352919093205491029091018054909250600160801b90046001600160801b03166ec097ce7bc90715b34b9f1000000000816124888488615711565b612492919061581c565b61249c9190615851565b955050505050505b9392505050565b60006124b681612aa9565b60ac546000036124d957604051636cd6020160e01b815260040160405180910390fd5b6001600160a01b0382166125005760405163d92e233d60e01b815260040160405180910390fd5b6040516301ffc9a760e01b81526001600160a01b038316906301ffc9a79061253390633485434760e11b90600401615875565b602060405180830381865afa158015612550573d6000803e3d6000fd5b505050506040513d601f19601f820116820180604052508101906125749190615660565b61259357816040516363f1f03760e01b81526004016107da919061502b565b600d60009054906101000a90046001600160a01b03166001600160a01b0316632c678c646040518163ffffffff1660e01b8152600401602060405180830381865afa1580156125e6573d6000803e3d6000fd5b505050506040513d601f19601f8201168201806040525081019061260a9190615660565b61263457600d5460405163cec27f4760e01b81526107da916001600160a01b03169060040161502b565b50600d80546001600160a01b0319166001600160a01b0392909216919091179055565b60018060ac5416600014806126725750612672600033612170565b61268e5760405162461bcd60e51b81526004016107da906156d5565b336000908152601160205260408120905b6012548110156112e3576000818152600183016020526040902054158015906126d75750600081815260028301602052604090205442115b801561272557506002601282815481106126f3576126f36156e5565b90600052602060002090600c020160030160149054906101000a900460ff1660028111156127235761272361525e565b145b156127335761273381612fe4565b8061273d816157e7565b91505061269f565b60ac5460000361276857604051636cd6020160e01b815260040160405180910390fd5b600d60009054906101000a90046001600160a01b03166001600160a01b0316632c678c646040518163ffffffff1660e01b8152600401602060405180830381865afa1580156127bb573d6000803e3d6000fd5b505050506040513d601f19601f820116820180604052508101906127df9190615660565b1561280a57600d54604051633f382b0160e21b81526107da916001600160a01b03169060040161502b565b336000908152601360205260408120549081900361283b5760405163204c3ee960e11b815260040160405180910390fd5b805b600181106128aa5733600090815260136020526040812061285f600184615711565b8154811061286f5761286f6156e5565b60009182526020909120600390910201546001600160801b031690506128978180843361325d565b50806128a281615883565b91505061283d565b506128b56000612fe4565b50565b6128c6888888888886613724565b600b80546001600160a01b03199081166001600160a01b039a8b1617909155600c80548216988a1698909817909755600f805488169689169690961790955583516010805460208701516040880151606089015160809099015163ffffffff95861667ffffffffffffffff1990941693909317600160201b928616929092029190911767ffffffffffffffff60401b1916600160401b9185169190910263ffffffff60601b191617600160601b978416979097029690961763ffffffff60801b1916600160801b929096169190910294909417909355600d80549095169190951617909255600292909255600955600a55565b601554610100900460ff166129e05760405162461bcd60e51b81526004016107da906158e2565b6129e8613886565b6129f3600082612a23565b612a1d7f139c2898040ef16910dc9f44dc697df79363da767d8bc92f2e310312b816e46d82612a23565b5060ac55565b612a2d8282612170565b610e3a576000828152607a602090815260408083206001600160a01b03851684529091529020805460ff19166001179055612a653390565b6001600160a01b0316816001600160a01b0316837f2f8788117e7eff1d82e926ec794901d17c78024a50270940304540a733656f0d60405160405180910390a45050565b6128b581336138af565b600e54604051639d8efc3760e01b81526001600160a01b0390911690639d8efc3790612af1908b908b908b908b908b908b908b908b906004016158f2565b60006040518083038186803b158015612b0957600080fd5b505afa158015612b1d573d6000803e3d6000fd5b505050505050505050505050565b600880546000909155600d54600b54604051631b41835160e31b81526001600160a01b039283169263da0c1a8892612b6d9287929091169086906004016157ac565b600060405180830381600087803b158015612b8757600080fd5b505af1158015612b9b573d6000803e3d6000fd5b505050505050565b61186d846323b872dd60e01b858585604051602401612bc4939291906157ac565b60408051601f198184030181529190526020810180516001600160e01b03166001600160e01b031990931692909217909152613908565b60ac548181161480612c135750612c13600033612170565b612c2f5760405162461bcd60e51b81526004016107da906159a4565b60ac55565b600d54612c4f906001600160a01b0383811691166000613997565b600d54612c69906001600160a01b03838116911684613997565b600d546040516311f9fbc960e21b81526001600160a01b03909116906347e7ef2490612b6d90849086906004016159b4565b80600003612cbc5760405163d7315a2d60e01b815260040160405180910390fd5b33600090815260136020526040902054811115612cf057803360405163632eba3d60e11b81526004016107da929190615801565b336000908152601360205260408120612d0a600184615711565b81548110612d1a57612d1a6156e5565b60009182526020909120600160039092020190810154909150600160401b90046001600160a01b03163314612d6257604051630472b49d60e51b815260040160405180910390fd5b80546001600160801b0316600003610e3a578160405163f19d752960e01b81526004016107da91906150df565b4260045403612d9a57565b60055415612e3f5760005b601254811015612e3d57600260128281548110612dc457612dc46156e5565b90600052602060002090600c020160030160149054906101000a900460ff166002811115612df457612df461525e565b03612e2b57612e028161369d565b60128281548110612e1557612e156156e5565b90600052602060002090600c0201600901819055505b80612e35816157e7565b915050612da5565b505b42600455565b6001600160a01b0381166000908152601360205260408120612e68600185615711565b81548110612e7857612e786156e5565b60009182526020909120600390910201600181015481549192506001600160401b0316906001600160801b0316612eb18180878761325d565b6000612ebd8342613a4b565b90506000620186a0612ecf848461581c565b612ed99190615851565b6001600160a01b038716600090815260116020908152604080832083805260018101909252822080549394509092849290612f15908490615711565b9091555050600080805260146020527f4f26c3876aa9f4b92579780beea1161a61f87ebf1ec6ee865b299e447ecba99c8054849290612f55908490615711565b925050819055508160086000828254612f6e91906157d4565b90915550505050505050505050565b612f878282612170565b15610e3a576000828152607a602090815260408083206001600160a01b0385168085529252808320805460ff1916905551339285917ff6391f5c32d9c69d2a47ea670b442974b53935d1edc7fd64eb21e047a839171b9190a45050565b3360009081526011602090815260408083208484526001810183528184208054908590556014909352908320805491938392613021908490615711565b9091555050604051339084907f3bfce8de0db7450cc169b94323c210e69a36c6a4a58c9f5d96bec4973adce3929061305a9085906150df565b60405180910390a3600d54601280546001600160a01b039092169163da0c1a889133918790811061308d5761308d6156e5565b600091825260209091206003600c9092020101546040516001600160e01b031960e085901b1681526130ce92916001600160a01b03169086906004016157ac565b600060405180830381600087803b1580156130e857600080fd5b505af11580156130fc573d6000803e3d6000fd5b50505050505050565b6001548210156131285760405163183dd27d60e01b815260040160405180910390fd5b6002546001600160a01b0382166000908152601360205260409020541061316257604051632a01dbab60e21b815260040160405180910390fd5b8260000361318357604051631f2a200560e01b815260040160405180910390fd5b6000548211156131a657604051639ab093af60e01b815260040160405180910390fd5b600b546131be906001600160a01b0316333086612ba3565b6131c6612d8f565b6131d1818484613b07565b600b546112e39084906001600160a01b0316612c34565b60125460005b8181101561186d5760026012828154811061320b5761320b6156e5565b90600052602060002090600c020160030160149054906101000a900460ff16600281111561323b5761323b61525e565b0361324b5761324b848285613d01565b80613255816157e7565b9150506131ee565b6001600160a01b03811660009081526011602090815260408083206013909252822090919061328d600186615711565b8154811061329d5761329d6156e5565b906000526020600020906003020190506005546000036132d057604051635cf8d8a760e01b815260040160405180910390fd5b60028101805460009182905560078054919283926132ef908490615711565b9091555050825460009082101561331057835461330d908390615711565b90505b80845561331f8789888861405d565b600c546040516370a0823160e01b81526000916001600160a01b0316906370a082319061335090899060040161502b565b602060405180830381865afa15801561336d573d6000803e3d6000fd5b505050506040513d601f19601f82011682018060405250810190613391919061578b565b90508281101561339f578092505b600c54604051632770a7eb60e21b81526001600160a01b0390911690639dc29fac906133d190899087906004016159b4565b600060405180830381600087803b1580156133eb57600080fd5b505af11580156133ff573d6000803e3d6000fd5b50505050505050505050505050565b6001816080015160028111156134265761342661525e565b14613444576040516379543eaf60e11b815260040160405180910390fd5b4281610160015160000151600081518110613461576134616156e5565b60200260200101511015613488576040516328a7237960e01b815260040160405180910390fd5b80516001600160a01b031633146128b5576040516330cd747160e01b815260040160405180910390fd5b6000601283815481106134c7576134c76156e5565b600091825260208220600b600c90920201015491505b8181101561186d57601284815481106134f8576134f86156e5565b90600052602060002090600c020160060154836012868154811061351e5761351e6156e5565b90600052602060002090600c0201600a016001018381548110613543576135436156e5565b9060005260206000200154613558919061581c565b6135629190615851565b60128581548110613575576135756156e5565b90600052602060002090600c0201600a01600101828154811061359a5761359a6156e5565b600091825260209091200155806135b0816157e7565b9150506134dd565b6112e38363a9059cbb60e01b8484604051602401612bc49291906159b4565b6002601282815481106135ec576135ec6156e5565b90600052602060002090600c020160030160149054906101000a900460ff16600281111561361c5761361c61525e565b1461363a57604051633d47126760e01b815260040160405180910390fd5b6001600160a01b03821660009081526013602052604081208054909181900361367657604051637dc6ce3b60e11b815260040160405180910390fd5b60015b818111611ce55761368b858583613d01565b80613695816157e7565b915050613679565b60006006546000036136c25760405163b6311c8760e01b815260040160405180910390fd5b6006546ec097ce7bc90715b34b9f10000000006136e18460045461425a565b6136eb919061581c565b6136f59190615851565b60128381548110613708576137086156e5565b90600052602060002090600c02016009015461077e91906157d4565b6001600160a01b03861661374b5760405163d92e233d60e01b815260040160405180910390fd5b6001600160a01b0385166137725760405163d92e233d60e01b815260040160405180910390fd5b6001600160a01b0382166137995760405163d92e233d60e01b815260040160405180910390fd5b6001600160a01b0384166137c05760405163d92e233d60e01b815260040160405180910390fd5b826020015163ffffffff16836000015163ffffffff16116137f4576040516302eba45360e51b815260040160405180910390fd5b826060015163ffffffff16836040015163ffffffff161161382857604051639fe24b6b60e01b815260040160405180910390fd5b620186a08360400151846080015161384091906159cf565b63ffffffff161115613865576040516335e7c1c760e21b815260040160405180910390fd5b80600003612b9b5760405163fa9d8a3560e01b815260040160405180910390fd5b601554610100900460ff166138ad5760405162461bcd60e51b81526004016107da906158e2565b565b6138b98282612170565b610e3a576138c6816142f4565b6138d1836020614306565b6040516020016138e2929190615a43565b60408051601f198184030181529082905262461bcd60e51b82526107da91600401615ac7565b600061395d826040518060400160405280602081526020017f5361666545524332303a206c6f772d6c6576656c2063616c6c206661696c6564815250856001600160a01b03166144719092919063ffffffff16565b8051909150156112e3578080602001905181019061397b9190615660565b6112e35760405162461bcd60e51b81526004016107da90615b1f565b801580613a105750604051636eb1769f60e11b81526001600160a01b0384169063dd62ed3e906139cd9030908690600401615b2f565b602060405180830381865afa1580156139ea573d6000803e3d6000fd5b505050506040513d601f19601f82011682018060405250810190613a0e919061578b565b155b613a2c5760405162461bcd60e51b81526004016107da90615b90565b6112e38363095ea7b360e01b8484604051602401612bc49291906159b4565b600082808310613a5f57600091505061077e565b6000613a6b8483615711565b600054601054919250908290613a979063ffffffff600160601b8204811691600160401b900416615ba0565b601054613ab19190600160801b900463ffffffff166159cf565b63ffffffff16613ac1919061581c565b613acb9190615851565b601054613aee9063ffffffff600160601b8204811691600160801b9004166159cf565b63ffffffff16613afe91906157d4565b95945050505050565b6001600160a01b03831660009081526011602052604081208215613b9057600a54670de0b6b3a76400009081613b3d868861581c565b613b47919061581c565b613b519190615851565b613b5b9190615851565b915081816000016000828254613b7191906157d4565b925050819055508160076000828254613b8a91906157d4565b90915550505b60006040518060a00160405280613ba687614488565b6001600160801b0316815260006020820152604001613bcd613bc842886157d4565b6144b5565b6001600160401b0390811682526001600160a01b03808a16602080850182905260409485018990526000828152601382528581208054600181810183558284528484208a51958b01516001600160801b03908116600160801b02961695909517600390920290940190815596880151928701805460608a0151909616600160401b026001600160e01b031990961693909616929092179390931790935560808501516002909401939093559190915254909150613c8f908790879086906144de565b8215612b9b57600c546040516340c10f1960e01b81526001600160a01b03909116906340c10f1990613cc790899087906004016159b4565b600060405180830381600087803b158015613ce157600080fd5b505af1158015613cf5573d6000803e3d6000fd5b50505050505050505050565b600260128381548110613d1657613d166156e5565b90600052602060002090600c020160030160149054906101000a900460ff166002811115613d4657613d4661525e565b14613d6457604051633d47126760e01b815260040160405180910390fd5b6001600160a01b0383166000908152601360205260408120613d87600184615711565b81548110613d9757613d976156e5565b60009182526020822060039091020180549092506001600160801b03169003613dd35760405163c95c74a560e01b815260040160405180910390fd5b6001600160a01b0384166000908152601160209081526040808320845486855260038201845282852088865290935290832054601280549294936ec097ce7bc90715b34b9f100000000093600160801b9091046001600160801b031692919089908110613e4257613e426156e5565b90600052602060002090600c020160090154613e5e9190615711565b613e68919061581c565b613e729190615851565b905080600003613e8457505050505050565b60128581548110613e9757613e976156e5565b90600052602060002090600c0201600401548160128781548110613ebd57613ebd6156e5565b90600052602060002090600c020160050154613ed991906157d4565b1115613ef857604051630109353560e01b815260040160405180910390fd5b600085815260018301602052604081208054839290613f189084906157d4565b909155505060008581526014602052604081208054839290613f3b9084906157d4565b90915550506012805486908110613f5457613f546156e5565b600091825260208083206009600c90930201919091015486835260038501825260408084208985529092529120556012805486908110613f9657613f966156e5565b90600052602060002090600c02016008015442613fb391906157d4565b60008681526002840160205260409020556012805482919087908110613fdb57613fdb6156e5565b90600052602060002090600c02016005016000828254613ffb91906157d4565b90915550506000858152600183016020526040908190205490516001600160a01b0388169187917f5f1c6be51c8ec7fa7e7ddd9f798ec55927b06cfc8d9159987d1ae3358cb10b599161404d916150df565b60405180910390a3505050505050565b6001600160a01b03811660009081526011602090815260408083206013909252822090919061408d600186615711565b8154811061409d5761409d6156e5565b9060005260206000209060030201905084600560008282546140bf9190615711565b9091555050805460068054600160801b9092046001600160801b0316916000906140ea908490615711565b909155505060008082556140fe8787615711565b905086836001016000808152602001908152602001600020600082825461412591906157d4565b90915550506012805460009061413d5761413d6156e5565b90600052602060002090600c0201600801544261415a91906157d4565b6000808052600285016020908152604082209290925560149091527f4f26c3876aa9f4b92579780beea1161a61f87ebf1ec6ee865b299e447ecba99c80548992906141a69084906157d4565b90915550508015614204576141bd818684866146d2565b84846001600160a01b03167f845a16492d8f772c792e84d2c5495d37fca22ce33263b67322e92ef0be653c50896040516141f791906150df565b60405180910390a36130fc565b61420f838587614854565b84846001600160a01b03167f7fc4727e062e336010f2c282598ef5f14facb3de68cf8195c2f23e1454b2b74e8960405161424991906150df565b60405180910390a350505050505050565b600e54601280546000926001600160a01b0316916351e1551a9186908110614284576142846156e5565b90600052602060002090600c0201600a01846040518363ffffffff1660e01b81526004016142b3929190615c4b565b602060405180830381865afa1580156142d0573d6000803e3d6000fd5b505050506040513d601f19601f820116820180604052508101906124a4919061578b565b606061077e6001600160a01b03831660145b6060600061431583600261581c565b6143209060026157d4565b6001600160401b0381111561433757614337615515565b6040519080825280601f01601f191660200182016040528015614361576020820181803683370190505b509050600360fc1b8160008151811061437c5761437c6156e5565b60200101906001600160f81b031916908160001a905350600f60fb1b816001815181106143ab576143ab6156e5565b60200101906001600160f81b031916908160001a90535060006143cf84600261581c565b6143da9060016157d4565b90505b6001811115614452576f181899199a1a9b1b9c1cb0b131b232b360811b85600f166010811061440e5761440e6156e5565b1a60f81b828281518110614424576144246156e5565b60200101906001600160f81b031916908160001a90535060049490941c9361444b81615883565b90506143dd565b5083156124a45760405162461bcd60e51b81526004016107da90615c9d565b60606144808484600085614a8b565b949350505050565b60006001600160801b038211156144b15760405162461bcd60e51b81526004016107da90615ce1565b5090565b60006001600160401b038211156144b15760405162461bcd60e51b81526004016107da90615d25565b6001600160a01b03841660009081526011602090815260408083206013909252822090919061450e600185615711565b8154811061451e5761451e6156e5565b90600052602060002090600302019050846005600082825461454091906157d4565b9091555060009050614553868642614b4d565b9050806006600082825461456791906157d4565b90915550614576905081614488565b82548390601090614598908490600160801b90046001600160801b0316615d35565b92506101000a8154816001600160801b0302191690836001600160801b031602179055506000601280549050905060005b8181101561466f576002601282815481106145e6576145e66156e5565b90600052602060002090600c020160030160149054906101000a900460ff1660028111156146165761461661525e565b0361465d576012818154811061462e5761462e6156e5565b600091825260208083206009600c90930201919091015488835260038801825260408084208585529092529120555b80614667816157e7565b9150506145c9565b50600183015460405186916001600160a01b038b16917f6381ea17a5324d29cc015352644672ead5185c1c61a0d3a521eda97e35cec97e916146c0918c9188918d916001600160401b031690615d76565b60405180910390a35050505050505050565b83600560008282546146e491906157d4565b909155506146f3905084614488565b8254839060009061470e9084906001600160801b0316615d35565b92506101000a8154816001600160801b0302191690836001600160801b03160217905550600061474085600042614b4d565b905061474b81614488565b8354849060109061476d908490600160801b90046001600160801b0316615d35565b92506101000a8154816001600160801b0302191690836001600160801b0316021790555080600660008282546147a391906157d4565b909155505060125460005b818110156130fc576002601282815481106147cb576147cb6156e5565b90600052602060002090600c020160030160149054906101000a900460ff1660028111156147fb576147fb61525e565b036148425760128181548110614813576148136156e5565b600091825260208083206009600c90930201919091015488835260038701825260408084208585529092529120555b8061484c816157e7565b9150506147ae565b6012546001600160a01b0383166000908152601360205260409020548281148015906148805750600181115b156149f3576001600160a01b03841660009081526013602052604081206148a8600184615711565b815481106148b8576148b86156e5565b600091825260208083206001600160a01b0389168452601390915260409092206003909102909101915081906148ef600187615711565b815481106148ff576148ff6156e5565b600091825260208220835460039092020180546fffffffffffffffffffffffffffffffff19166001600160801b0392831690811782558454600160801b90819004909316909202909117815560018084018054918301805467ffffffffffffffff1981166001600160401b03909416938417825591546001600160a01b03600160401b9182900416026001600160e01b03199092169092171790556002928301549201919091555b838110156149f0576000838152600388016020818152604080842085855282528084205489855292825280842085855290915290912055806149e8816157e7565b9150506149a7565b50505b60005b82811015614a2c576000828152600387016020908152604080832084845290915281205580614a24816157e7565b9150506149f6565b506001600160a01b0384166000908152601360205260409020805480614a5457614a54615dab565b6000828152602081206003600019909301928302018181556001810180546001600160e01b03191690556002015590555050505050565b606082471015614aad5760405162461bcd60e51b81526004016107da90615e04565b6001600160a01b0385163b614ad45760405162461bcd60e51b81526004016107da90615e48565b600080866001600160a01b03168587604051614af09190615e58565b60006040518083038185875af1925050503d8060008114614b2d576040519150601f19603f3d011682016040523d82523d6000602084013e614b32565b606091505b5091509150614b42828286614ca3565b979650505050505050565b6000806103e884600954614b61919061581c565b614b6b9190615851565b614b7590866157d4565b905060006228207263ffffffff166012600081548110614b9757614b976156e5565b90600052602060002090600c0201600a01600001600081548110614bbd57614bbd6156e5565b9060005260206000200154614bd291906157d4565b90506000614be46301e13380836157d4565b9050818511614c0a57601054614c009063ffffffff168461581c565b93505050506124a4565b808510614c2b57601054614c0090600160201b900463ffffffff168461581c565b614c358282615711565b614c3f8683615711565b601054614c5b9063ffffffff600160201b820481169116615ba0565b614c6b9063ffffffff168661581c565b614c75919061581c565b614c7f9190615851565b601054614c9990600160201b900463ffffffff168561581c565b614b4291906157d4565b60608315614cb25750816124a4565b825115614cc25782518084602001fd5b8160405162461bcd60e51b81526004016107da9190615ac7565b828054828255906000526020600020908101928215614d17579160200282015b82811115614d17578251825591602001919060010190614cfc565b506144b19291505b808211156144b15760008155600101614d1f565b6001600160e01b031981165b81146128b557600080fd5b803561077e81614d33565b600060208284031215614d6a57614d6a600080fd5b60006144808484614d4a565b8015155b82525050565b6020810161077e8284614d76565b60006001600160a01b03821661077e565b614d3f81614d8e565b803561077e81614d9f565b600060a08284031215614dc857614dc8600080fd5b50919050565b600060408284031215614dc857614dc8600080fd5b80614d3f565b803561077e81614de3565b6000806000806000806000806000806101e08b8d031215614e1757614e17600080fd5b6000614e238d8d614da8565b9a50506020614e348d828e01614da8565b9950506040614e458d828e01614da8565b9850506060614e568d828e01614da8565b9750506080614e678d828e01614da8565b96505060a0614e788d828e01614db3565b955050610140614e8a8d828e01614dce565b945050610180614e9c8d828e01614de9565b9350506101a0614eae8d828e01614da8565b9250506101c0614ec08d828e01614de9565b9150509295989b9194979a5092959850565b60008083601f840112614ee757614ee7600080fd5b5081356001600160401b03811115614f0157614f01600080fd5b602083019150836020820283011115614f1c57614f1c600080fd5b9250929050565b6000806000806000806000806000806101008b8d031215614f4657614f46600080fd5b6000614f528d8d614da8565b9a50506020614f638d828e01614da8565b9950506040614f748d828e01614de9565b9850506060614f858d828e01614de9565b9750506080614f968d828e01614de9565b96505060a08b01356001600160401b03811115614fb557614fb5600080fd5b614fc18d828e01614ed2565b955095505060c08b01356001600160401b03811115614fe257614fe2600080fd5b614fee8d828e01614ed2565b935093505060e0614ec08d828e01614de9565b60006020828403121561501657615016600080fd5b60006144808484614de9565b614d7a81614d8e565b6020810161077e8284615022565b6000806000806000806080878903121561505557615055600080fd5b60006150618989614da8565b96505060208701356001600160401b0381111561508057615080600080fd5b61508c89828a01614ed2565b955095505060408701356001600160401b038111156150ad576150ad600080fd5b6150b989828a01614ed2565b935093505060606150cc89828a01614de9565b9150509295509295509295565b80614d7a565b6020810161077e82846150d9565b6000806040838503121561510357615103600080fd5b600061510f8585614de9565b925050602061512085828601614da8565b9150509250929050565b60008083601f84011261513f5761513f600080fd5b5081356001600160401b0381111561515957615159600080fd5b602083019150836060820283011115614f1c57614f1c600080fd5b6000806020838503121561518a5761518a600080fd5b82356001600160401b038111156151a3576151a3600080fd5b6151af8582860161512a565b92509250509250929050565b6000602082840312156151d0576151d0600080fd5b60006144808484614da8565b60006151e883836150d9565b505060200190565b60006151fa825190565b80845260209384019383018060005b8381101561522e57815161521d88826151dc565b975060208301925050600101615209565b509495945050505050565b6040808252810161524a81856151f0565b9050818103602083015261448081846151f0565b634e487b7160e01b600052602160045260246000fd5b600381106128b5576128b561525e565b8061528e81615274565b919050565b600061077e82615284565b614d7a81615293565b608081016152b582876150d9565b6152c260208301866150d9565b6152cf60408301856150d9565b613afe606083018461529e565b600080604083850312156152f2576152f2600080fd5b60006152fe8585614de9565b925050602061512085828601614de9565b6000806040838503121561532557615325600080fd5b60006152fe8585614da8565b63ffffffff8116614d7a565b60a0810161534b8288615331565b6153586020830187615331565b6153656040830186615331565b6153726060830185615331565b61537f6080830184615331565b9695505050505050565b6001600160801b038116614d7a565b6001600160401b038116614d7a565b805160a08301906153b88482615389565b5060208201516153cb6020850182615389565b5060408201516153de6040850182615398565b5060608201516153f16060850182615022565b50608082015161186d60808501826150d9565b600061541083836153a7565b505060a00190565b6000615422825190565b80845260209384019383018060005b8381101561522e5781516154458882615404565b975060208301925050600101615431565b602080825281016124a48184615418565b60008060006060848603121561547f5761547f600080fd5b600061548b8686614de9565b935050602061549c86828701614da8565b92505060406154ad86828701614de9565b9150509250925092565b602e81526000602082017f496e697469616c697a61626c653a20636f6e747261637420697320616c72656181526d191e481a5b9a5d1a585b1a5e995960921b602082015291505b5060400190565b6020808252810161077e816154b7565b634e487b7160e01b600052604160045260246000fd5b601f19601f83011681018181106001600160401b038211171561555057615550615515565b6040525050565b600061556260405190565b905061528e828261552b565b63ffffffff8116614d3f565b803561077e8161556e565b600060a0828403121561559a5761559a600080fd5b6155a460a0615557565b905060006155b2848461557a565b82525060206155c38484830161557a565b60208301525060406155d78482850161557a565b60408301525060606155eb8482850161557a565b60608301525060806155ff8482850161557a565b60808301525092915050565b600060a0828403121561562057615620600080fd5b60006144808484615585565b60006020828403121561564157615641600080fd5b6000614480848461557a565b801515614d3f565b805161077e8161564d565b60006020828403121561567557615675600080fd5b60006144808484615655565b600061077e8261568f565b90565b60ff1690565b614d7a81615681565b6020810161077e8284615695565b600f81526000602082016e1c185d5cd9590818dbdb9d1c9858dd608a1b815291505b5060200190565b6020808252810161077e816156ac565b634e487b7160e01b600052603260045260246000fd5b634e487b7160e01b600052601160045260246000fd5b8181038181111561077e5761077e6156fb565b602f81526000602082017f416363657373436f6e74726f6c3a2063616e206f6e6c792072656e6f756e636581526e103937b632b9903337b91039b2b63360891b602082015291506154fe565b6020808252810161077e81615724565b805161077e81614de3565b6000602082840312156157a0576157a0600080fd5b60006144808484615780565b606081016157ba8286615022565b6157c76020830185615022565b61448060408301846150d9565b8082018082111561077e5761077e6156fb565b600060001982036157fa576157fa6156fb565b5060010190565b6040810161580f82856150d9565b6124a46020830184615022565b6000816000190483118215151615615836576158366156fb565b500290565b634e487b7160e01b600052601260045260246000fd5b6000826158605761586061583b565b500490565b6001600160e01b03198116614d7a565b6020810161077e8284615865565b600081615892576158926156fb565b506000190190565b602b81526000602082017f496e697469616c697a61626c653a20636f6e7472616374206973206e6f74206981526a6e697469616c697a696e6760a81b602082015291506154fe565b6020808252810161077e8161589a565b6101008101615901828b615022565b61590e602083018a615022565b61591b60408301896150d9565b61592860608301886150d9565b61593560808301876150d9565b81810360a083015261594781866151f0565b905081810360c083015261595b81856151f0565b905061596a60e08301846150d9565b9998505050505050505050565b60168152600060208201756f6e6c792061646d696e2063616e20756e706175736560501b815291506156ce565b6020808252810161077e81615977565b604081016159c28285615022565b6124a460208301846150d9565b600063ffffffff8216915063ffffffff831692508163ffffffff0483118215151615615836576158366156fb565b60005b83811015615a18578181015183820152602001615a00565b50506000910152565b6000615a2b825190565b615a398185602086016159fd565b9290920192915050565b76020b1b1b2b9b9a1b7b73a3937b61d1030b1b1b7bab73a1604d1b81526017016000615a6f8285615a21565b7001034b99036b4b9b9b4b733903937b6329607d1b815260110191506144808284615a21565b6000615a9f825190565b808452602084019350615ab68185602086016159fd565b601f01601f19169290920192915050565b602080825281016124a48184615a95565b602a81526000602082017f5361666545524332303a204552433230206f7065726174696f6e20646964206e8152691bdd081cdd58d8d9595960b21b602082015291506154fe565b6020808252810161077e81615ad8565b6040810161580f8285615022565b603681526000602082017f5361666545524332303a20617070726f76652066726f6d206e6f6e2d7a65726f81527520746f206e6f6e2d7a65726f20616c6c6f77616e636560501b602082015291506154fe565b6020808252810161077e81615b3d565b63ffffffff91821691908116908282039081111561077e5761077e6156fb565b60008161077e565b600061077e8254615bc0565b6000615bde825490565b808452600083815260208082209501949081905b8381101561522e57615c0382615bc8565b615c0d88826151dc565b97505060019182019101615bf2565b604080835260009083018183615c328382615bd4565b92505060018401858303602087015261537f8382615bd4565b60408082528101615c5c8185615c1c565b90506124a460208301846150d9565b60208082527f537472696e67733a20686578206c656e67746820696e73756666696369656e74910190815260006156ce565b6020808252810161077e81615c6b565b601c81526000602082017f426f72696e674d6174683a2075696e74313238204f766572666c6f7700000000815291506156ce565b6020808252810161077e81615cad565b601b81526000602082017f426f72696e674d6174683a2075696e743634204f766572666c6f770000000000815291506156ce565b6020808252810161077e81615cf1565b6001600160801b0391821691908116908282019081111561077e5761077e6156fb565b600061077e61568c6001600160401b03841681565b614d7a81615d58565b60808101615d8482876150d9565b615d9160208301866150d9565b615d9e60408301856150d9565b613afe6060830184615d6d565b634e487b7160e01b600052603160045260246000fd5b602681526000602082017f416464726573733a20696e73756666696369656e742062616c616e636520666f8152651c8818d85b1b60d21b602082015291506154fe565b6020808252810161077e81615dc1565b601d81526000602082017f416464726573733a2063616c6c20746f206e6f6e2d636f6e7472616374000000815291506156ce565b6020808252810161077e81615e14565b60006124a48284615a2156fe930802d0eadfb856cb83e01d1c4daa3c89e9c6d9f74cfbe13124decf2b33128ae1dcbdb91df27212a29bc27177c840cf2f819ecf2187432e1fac86c2dd5dfca9a264697066735822122009a55c75e6910fe05a03149b9fe51e018a0541fe54914bece418a6b5145c002264736f6c63430008100033",
    "immutableReferences": {},
    "source": "// SPDX-License-Identifier: AGPL 3.0\n// Copyright Fathom 2022\n\npragma solidity 0.8.16;\n\nimport \"./StakingHandler.sol\";\nimport \"./StakingGetters.sol\";\n\ncontract StakingPackage is StakingHandlers, StakingGetters {}\n",
    "sourcePath": "/Users/antongrigorev/Developer/fathom-dao-smart-contracts/contracts/dao/staking/packages/StakingPackage.sol",
    "compiler": {
        "name": "solc",
        "version": "0.8.16+commit.07a7930e.Darwin.appleclang"
    },
    "schemaVersion": "3.4.13",
    "updatedAt": "2023-04-29T06:38:40.731Z",
    "devdoc": {
        "kind": "dev",
        "methods": {
            "adminPause(uint256)": {
                "details": "adminPause pauses this contract. Only pause role or default admin role can access this function.",
                "params": {
                    "flags": "flags variable is used for pausing this contract."
                }
            },
            "createFixedLocksOnBehalfOfUserByAdmin((uint256,uint256,address)[])": {
                "details": "Admin can create a lock on behalf of a user without early withdrawal"
            },
            "createStream(uint256,uint256)": {
                "details": "This function creates a stream and makes it live. Only the Stream Owner is able to call this function.      Stream Owner is set while proposing a stream"
            },
            "emergencyUnlockAndWithdraw()": {
                "details": "In case of emergency, unlock your tokens and withdraw all your position"
            },
            "getRoleAdmin(bytes32)": {
                "details": "Returns the admin role that controls `role`. See {grantRole} and {revokeRole}. To change a role's admin, use {_setRoleAdmin}."
            },
            "grantRole(bytes32,address)": {
                "details": "Grants `role` to `account`. If `account` had not been already granted `role`, emits a {RoleGranted} event. Requirements: - the caller must have ``role``'s admin role. May emit a {RoleGranted} event."
            },
            "hasRole(bytes32,address)": {
                "details": "Returns `true` if `account` has been granted `role`."
            },
            "initializeMainStream(address,uint256[],uint256[],uint256)": {
                "details": "The function is callable only once, and it can be done only with admin,       which at initial setup is Multisig"
            },
            "initializeStaking(address,address,address,address,address,(uint32,uint32,uint32,uint32,uint32),(uint32,uint32),uint256,address,uint256)": {
                "details": "initialize the contract and deploys the first stream of rewardsinitializable only once due to stakingInitialised flag",
                "params": {
                    "_admin": "the owner and manager of the main token stream",
                    "_mainToken": "token contract address",
                    "_vault": "The Vault address to store main token and rewards tokens",
                    "_weight": "Weighting coefficient for shares and penalties"
                }
            },
            "proposeStream(address,address,uint256,uint256,uint256,uint256[],uint256[],uint256)": {
                "details": "An admin of the staking contract can allowlist (propose) a stream. Allowlisting of the stream provides the option for the stream owner (presumably the issuing party of a specific token) to deposit some ERC-20 tokens on the staking contract and potentially get in return some main tokens immediately. ",
                "params": {
                    "maxDepositAmount": "The upper amount of the tokens that should be deposited by stream owner",
                    "rewardToken": "the address of the ERC-20 tokens to be deposited in the stream",
                    "scheduleRewards": "remaining rewards to be delivered at the beginning of each scheduled interval.  Last element is always zero. First value (in scheduleRewards) from array is supposed to be a total amount of rewards for stream.",
                    "scheduleTimes": "timestamp denoting the start of each scheduled interval. Last element is the end of the stream.",
                    "streamOwner": "only this account will be able to launch a stream",
                    "tau": "the tau is (pending release period) for this stream (e.g one day)"
                }
            },
            "removeStream(uint256,address)": {
                "details": "A stream can be removed after all the rewards pending have been withdrawn.      Stream can be removed by the Stream Manager which is Multisig at time of deployment."
            },
            "renounceRole(bytes32,address)": {
                "details": "Revokes `role` from the calling account. Roles are often managed via {grantRole} and {revokeRole}: this function's purpose is to provide a mechanism for accounts to lose their privileges if they are compromised (such as when a trusted device is misplaced). If the calling account had been revoked `role`, emits a {RoleRevoked} event. Requirements: - the caller must be `account`. May emit a {RoleRevoked} event."
            },
            "revokeRole(bytes32,address)": {
                "details": "Revokes `role` from `account`. If `account` had been granted `role`, emits a {RoleRevoked} event. Requirements: - the caller must have ``role``'s admin role. May emit a {RoleRevoked} event."
            },
            "setMaxLockPositions(uint256)": {
                "details": "This allows for setting up maximum lock positions.      Only admin which is Multisig at deployment can call this"
            },
            "setMinimumLockPeriod(uint256)": {
                "details": "This allows for setting up minimum locking period.      Only admin which is Multisig at deployment can call this"
            },
            "supportsInterface(bytes4)": {
                "details": "See {IERC165-supportsInterface}."
            },
            "updateVault(address)": {
                "details": "Vault can be updated only if the contract is at paused state.      Only Admin that is, Multisig at the time of deployment can update Vault"
            },
            "withdrawPenalty()": {
                "details": "Penalty accrued due to early unlocking can be withdrawn to some address, most likely the treasury.      Address with TREASURY_ROLE can access this function, which is Multisig at time of deployment"
            }
        },
        "version": 1
    },
    "userdoc": {
        "kind": "user",
        "methods": {
            "emergencyUnlockAndWithdraw()": {
                "notice": "This function neglects all the rewardsThis can be executed only if the contract is at paused state.This function can only be called if VaultContract is not compromised and vault is not at paused state."
            },
            "initializeStaking(address,address,address,address,address,(uint32,uint32,uint32,uint32,uint32),(uint32,uint32),uint256,address,uint256)": {
                "notice": "By calling this function, the deployer of this contract must make sure that the Rewards amount was deposited to the treasury contract before initializing of the default Stream"
            },
            "proposeStream(address,address,uint256,uint256,uint256,uint256[],uint256[],uint256)": {
                "notice": "Manager of Vault must call"
            },
            "weight()": {
                "notice": "Weighting coefficient for shares and penalties"
            }
        },
        "version": 1
    }
}