{
    "contractName": "StakingPackage",
    "abi": [
        {
            "inputs": [],
            "name": "AlreadyInitialized",
            "type": "error"
        },
        {
            "inputs": [],
            "name": "BadIndexError",
            "type": "error"
        },
        {
            "inputs": [],
            "name": "BadMaxLockPositions",
            "type": "error"
        },
        {
            "inputs": [],
            "name": "BadRewardsAmount",
            "type": "error"
        },
        {
            "inputs": [],
            "name": "BadStart",
            "type": "error"
        },
        {
            "inputs": [],
            "name": "EarlyWithdrawalInfeasible",
            "type": "error"
        },
        {
            "inputs": [],
            "name": "InactiveStreamError",
            "type": "error"
        },
        {
            "inputs": [],
            "name": "IncorrectWeight",
            "type": "error"
        },
        {
            "inputs": [],
            "name": "InsufficientRewardsError",
            "type": "error"
        },
        {
            "inputs": [],
            "name": "InvalidPenaltyWeights",
            "type": "error"
        },
        {
            "inputs": [],
            "name": "InvalidShareWeights",
            "type": "error"
        },
        {
            "inputs": [],
            "name": "LockAlreadyOpen",
            "type": "error"
        },
        {
            "inputs": [],
            "name": "LockNotClosed",
            "type": "error"
        },
        {
            "inputs": [],
            "name": "LockNotExpired",
            "type": "error"
        },
        {
            "inputs": [
                {
                    "internalType": "uint256",
                    "name": "_lockId",
                    "type": "uint256"
                },
                {
                    "internalType": "address",
                    "name": "_account",
                    "type": "address"
                }
            ],
            "name": "MaxLockIdExceeded",
            "type": "error"
        },
        {
            "inputs": [],
            "name": "MaxLockPeriodExceeded",
            "type": "error"
        },
        {
            "inputs": [],
            "name": "MaxLockPositionsReached",
            "type": "error"
        },
        {
            "inputs": [],
            "name": "MinLockPeriodNotMet",
            "type": "error"
        },
        {
            "inputs": [],
            "name": "NoActiveStream",
            "type": "error"
        },
        {
            "inputs": [],
            "name": "NoLockError",
            "type": "error"
        },
        {
            "inputs": [],
            "name": "NoPendings",
            "type": "error"
        },
        {
            "inputs": [],
            "name": "NoSharesError",
            "type": "error"
        },
        {
            "inputs": [],
            "name": "NoStakeError",
            "type": "error"
        },
        {
            "inputs": [],
            "name": "NotLockOwner",
            "type": "error"
        },
        {
            "inputs": [],
            "name": "NotOwner",
            "type": "error"
        },
        {
            "inputs": [],
            "name": "NotPaused",
            "type": "error"
        },
        {
            "inputs": [],
            "name": "NotProposed",
            "type": "error"
        },
        {
            "inputs": [],
            "name": "NotReleased",
            "type": "error"
        },
        {
            "inputs": [],
            "name": "ProposalExpired",
            "type": "error"
        },
        {
            "inputs": [],
            "name": "RewardsTooHigh",
            "type": "error"
        },
        {
            "inputs": [],
            "name": "RewardsTooLow",
            "type": "error"
        },
        {
            "inputs": [],
            "name": "StreamIdZero",
            "type": "error"
        },
        {
            "inputs": [],
            "name": "StreamInactive",
            "type": "error"
        },
        {
            "inputs": [],
            "name": "StreamInactiveError",
            "type": "error"
        },
        {
            "inputs": [],
            "name": "StreamNotWithdrawn",
            "type": "error"
        },
        {
            "inputs": [],
            "name": "UnsupportedToken",
            "type": "error"
        },
        {
            "inputs": [
                {
                    "internalType": "address",
                    "name": "_vault",
                    "type": "address"
                }
            ],
            "name": "VaultMigrated",
            "type": "error"
        },
        {
            "inputs": [
                {
                    "internalType": "address",
                    "name": "_vault",
                    "type": "address"
                }
            ],
            "name": "VaultNotMigrated",
            "type": "error"
        },
        {
            "inputs": [
                {
                    "internalType": "address",
                    "name": "_vault",
                    "type": "address"
                }
            ],
            "name": "VaultNotSupported",
            "type": "error"
        },
        {
            "inputs": [],
            "name": "ZeroAddress",
            "type": "error"
        },
        {
            "inputs": [],
            "name": "ZeroAmount",
            "type": "error"
        },
        {
            "inputs": [],
            "name": "ZeroCoefficient",
            "type": "error"
        },
        {
            "inputs": [],
            "name": "ZeroLockId",
            "type": "error"
        },
        {
            "inputs": [
                {
                    "internalType": "uint256",
                    "name": "lockId",
                    "type": "uint256"
                }
            ],
            "name": "ZeroLocked",
            "type": "error"
        },
        {
            "inputs": [],
            "name": "ZeroPenalty",
            "type": "error"
        },
        {
            "inputs": [],
            "name": "ZeroTotalStakedToken",
            "type": "error"
        },
        {
            "anonymous": false,
            "inputs": [
                {
                    "indexed": false,
                    "internalType": "uint8",
                    "name": "version",
                    "type": "uint8"
                }
            ],
            "name": "Initialized",
            "type": "event"
        },
        {
            "anonymous": false,
            "inputs": [
                {
                    "indexed": true,
                    "internalType": "address",
                    "name": "account",
                    "type": "address"
                },
                {
                    "indexed": false,
                    "internalType": "uint256",
                    "name": "amount",
                    "type": "uint256"
                },
                {
                    "indexed": true,
                    "internalType": "uint256",
                    "name": "lockId",
                    "type": "uint256"
                }
            ],
            "name": "PartialUnstaked",
            "type": "event"
        },
        {
            "anonymous": false,
            "inputs": [
                {
                    "indexed": true,
                    "internalType": "uint256",
                    "name": "streamId",
                    "type": "uint256"
                },
                {
                    "indexed": true,
                    "internalType": "address",
                    "name": "account",
                    "type": "address"
                },
                {
                    "indexed": false,
                    "internalType": "uint256",
                    "name": "pendings",
                    "type": "uint256"
                }
            ],
            "name": "Pending",
            "type": "event"
        },
        {
            "anonymous": false,
            "inputs": [
                {
                    "indexed": true,
                    "internalType": "uint256",
                    "name": "streamId",
                    "type": "uint256"
                },
                {
                    "indexed": true,
                    "internalType": "address",
                    "name": "user",
                    "type": "address"
                },
                {
                    "indexed": false,
                    "internalType": "uint256",
                    "name": "pendingAmount",
                    "type": "uint256"
                }
            ],
            "name": "Released",
            "type": "event"
        },
        {
            "anonymous": false,
            "inputs": [
                {
                    "indexed": true,
                    "internalType": "bytes32",
                    "name": "role",
                    "type": "bytes32"
                },
                {
                    "indexed": true,
                    "internalType": "bytes32",
                    "name": "previousAdminRole",
                    "type": "bytes32"
                },
                {
                    "indexed": true,
                    "internalType": "bytes32",
                    "name": "newAdminRole",
                    "type": "bytes32"
                }
            ],
            "name": "RoleAdminChanged",
            "type": "event"
        },
        {
            "anonymous": false,
            "inputs": [
                {
                    "indexed": true,
                    "internalType": "bytes32",
                    "name": "role",
                    "type": "bytes32"
                },
                {
                    "indexed": true,
                    "internalType": "address",
                    "name": "account",
                    "type": "address"
                },
                {
                    "indexed": true,
                    "internalType": "address",
                    "name": "sender",
                    "type": "address"
                }
            ],
            "name": "RoleGranted",
            "type": "event"
        },
        {
            "anonymous": false,
            "inputs": [
                {
                    "indexed": true,
                    "internalType": "bytes32",
                    "name": "role",
                    "type": "bytes32"
                },
                {
                    "indexed": true,
                    "internalType": "address",
                    "name": "account",
                    "type": "address"
                },
                {
                    "indexed": true,
                    "internalType": "address",
                    "name": "sender",
                    "type": "address"
                }
            ],
            "name": "RoleRevoked",
            "type": "event"
        },
        {
            "anonymous": false,
            "inputs": [
                {
                    "indexed": true,
                    "internalType": "address",
                    "name": "account",
                    "type": "address"
                },
                {
                    "indexed": false,
                    "internalType": "uint256",
                    "name": "amount",
                    "type": "uint256"
                },
                {
                    "indexed": false,
                    "internalType": "uint256",
                    "name": "streamShares",
                    "type": "uint256"
                },
                {
                    "indexed": false,
                    "internalType": "uint256",
                    "name": "nVoteToken",
                    "type": "uint256"
                },
                {
                    "indexed": true,
                    "internalType": "uint256",
                    "name": "lockId",
                    "type": "uint256"
                },
                {
                    "indexed": false,
                    "internalType": "uint256",
                    "name": "end",
                    "type": "uint256"
                }
            ],
            "name": "Staked",
            "type": "event"
        },
        {
            "anonymous": false,
            "inputs": [
                {
                    "indexed": true,
                    "internalType": "uint256",
                    "name": "streamId",
                    "type": "uint256"
                },
                {
                    "indexed": true,
                    "internalType": "address",
                    "name": "owner",
                    "type": "address"
                },
                {
                    "indexed": true,
                    "internalType": "address",
                    "name": "token",
                    "type": "address"
                },
                {
                    "indexed": false,
                    "internalType": "uint256",
                    "name": "tau",
                    "type": "uint256"
                }
            ],
            "name": "StreamCreated",
            "type": "event"
        },
        {
            "anonymous": false,
            "inputs": [
                {
                    "indexed": true,
                    "internalType": "uint256",
                    "name": "streamId",
                    "type": "uint256"
                },
                {
                    "indexed": true,
                    "internalType": "address",
                    "name": "owner",
                    "type": "address"
                },
                {
                    "indexed": true,
                    "internalType": "address",
                    "name": "token",
                    "type": "address"
                }
            ],
            "name": "StreamProposalCancelled",
            "type": "event"
        },
        {
            "anonymous": false,
            "inputs": [
                {
                    "indexed": true,
                    "internalType": "uint256",
                    "name": "streamId",
                    "type": "uint256"
                },
                {
                    "indexed": true,
                    "internalType": "address",
                    "name": "streamOwner",
                    "type": "address"
                },
                {
                    "indexed": true,
                    "internalType": "address",
                    "name": "rewardToken",
                    "type": "address"
                },
                {
                    "indexed": false,
                    "internalType": "uint256",
                    "name": "maxDepositAmount",
                    "type": "uint256"
                }
            ],
            "name": "StreamProposed",
            "type": "event"
        },
        {
            "anonymous": false,
            "inputs": [
                {
                    "indexed": true,
                    "internalType": "uint256",
                    "name": "streamId",
                    "type": "uint256"
                },
                {
                    "indexed": true,
                    "internalType": "address",
                    "name": "owner",
                    "type": "address"
                },
                {
                    "indexed": true,
                    "internalType": "address",
                    "name": "token",
                    "type": "address"
                }
            ],
            "name": "StreamRemoved",
            "type": "event"
        },
        {
            "anonymous": false,
            "inputs": [
                {
                    "indexed": true,
                    "internalType": "address",
                    "name": "account",
                    "type": "address"
                },
                {
                    "indexed": false,
                    "internalType": "uint256",
                    "name": "amount",
                    "type": "uint256"
                },
                {
                    "indexed": true,
                    "internalType": "uint256",
                    "name": "lockId",
                    "type": "uint256"
                }
            ],
            "name": "Unstaked",
            "type": "event"
        },
        {
            "inputs": [],
            "name": "DEFAULT_ADMIN_ROLE",
            "outputs": [
                {
                    "internalType": "bytes32",
                    "name": "",
                    "type": "bytes32"
                }
            ],
            "stateMutability": "view",
            "type": "function"
        },
        {
            "inputs": [],
            "name": "PAUSE_ROLE",
            "outputs": [
                {
                    "internalType": "bytes32",
                    "name": "",
                    "type": "bytes32"
                }
            ],
            "stateMutability": "view",
            "type": "function"
        },
        {
            "inputs": [],
            "name": "STREAM_MANAGER_ROLE",
            "outputs": [
                {
                    "internalType": "bytes32",
                    "name": "",
                    "type": "bytes32"
                }
            ],
            "stateMutability": "view",
            "type": "function"
        },
        {
            "inputs": [],
            "name": "TREASURY_ROLE",
            "outputs": [
                {
                    "internalType": "bytes32",
                    "name": "",
                    "type": "bytes32"
                }
            ],
            "stateMutability": "view",
            "type": "function"
        },
        {
            "inputs": [
                {
                    "internalType": "uint256",
                    "name": "flags",
                    "type": "uint256"
                }
            ],
            "name": "adminPause",
            "outputs": [],
            "stateMutability": "nonpayable",
            "type": "function"
        },
        {
            "inputs": [
                {
                    "internalType": "uint256",
                    "name": "streamId",
                    "type": "uint256"
                }
            ],
            "name": "cancelStreamProposal",
            "outputs": [],
            "stateMutability": "nonpayable",
            "type": "function"
        },
        {
            "inputs": [
                {
                    "internalType": "uint256",
                    "name": "streamId",
                    "type": "uint256"
                }
            ],
            "name": "claimAllLockRewardsForStream",
            "outputs": [],
            "stateMutability": "nonpayable",
            "type": "function"
        },
        {
            "inputs": [
                {
                    "internalType": "uint256",
                    "name": "lockId",
                    "type": "uint256"
                }
            ],
            "name": "claimAllStreamRewardsForLock",
            "outputs": [],
            "stateMutability": "nonpayable",
            "type": "function"
        },
        {
            "inputs": [
                {
                    "components": [
                        {
                            "internalType": "uint256",
                            "name": "amount",
                            "type": "uint256"
                        },
                        {
                            "internalType": "uint256",
                            "name": "lockPeriod",
                            "type": "uint256"
                        },
                        {
                            "internalType": "address",
                            "name": "account",
                            "type": "address"
                        }
                    ],
                    "internalType": "struct CreateLockParams[]",
                    "name": "lockPositions",
                    "type": "tuple[]"
                }
            ],
            "name": "createFixedLocksOnBehalfOfUserByAdmin",
            "outputs": [],
            "stateMutability": "nonpayable",
            "type": "function"
        },
        {
            "inputs": [
                {
                    "internalType": "uint256",
                    "name": "amount",
                    "type": "uint256"
                },
                {
                    "internalType": "uint256",
                    "name": "lockPeriod",
                    "type": "uint256"
                }
            ],
            "name": "createLock",
            "outputs": [],
            "stateMutability": "nonpayable",
            "type": "function"
        },
        {
            "inputs": [
                {
                    "internalType": "uint256",
                    "name": "streamId",
                    "type": "uint256"
                },
                {
                    "internalType": "uint256",
                    "name": "rewardTokenAmount",
                    "type": "uint256"
                }
            ],
            "name": "createStream",
            "outputs": [],
            "stateMutability": "nonpayable",
            "type": "function"
        },
        {
            "inputs": [
                {
                    "internalType": "uint256",
                    "name": "lockId",
                    "type": "uint256"
                }
            ],
            "name": "earlyUnlock",
            "outputs": [],
            "stateMutability": "nonpayable",
            "type": "function"
        },
        {
            "inputs": [],
            "name": "emergencyUnlockAndWithdraw",
            "outputs": [],
            "stateMutability": "nonpayable",
            "type": "function"
        },
        {
            "inputs": [
                {
                    "internalType": "address",
                    "name": "account",
                    "type": "address"
                }
            ],
            "name": "getAllLocks",
            "outputs": [
                {
                    "components": [
                        {
                            "internalType": "uint128",
                            "name": "amountOfToken",
                            "type": "uint128"
                        },
                        {
                            "internalType": "uint128",
                            "name": "positionStreamShares",
                            "type": "uint128"
                        },
                        {
                            "internalType": "uint64",
                            "name": "end",
                            "type": "uint64"
                        },
                        {
                            "internalType": "address",
                            "name": "owner",
                            "type": "address"
                        },
                        {
                            "internalType": "uint256",
                            "name": "amountOfVoteToken",
                            "type": "uint256"
                        }
                    ],
                    "internalType": "struct LockedBalance[]",
                    "name": "",
                    "type": "tuple[]"
                }
            ],
            "stateMutability": "view",
            "type": "function"
        },
        {
            "inputs": [
                {
                    "internalType": "bytes32",
                    "name": "role",
                    "type": "bytes32"
                }
            ],
            "name": "getRoleAdmin",
            "outputs": [
                {
                    "internalType": "bytes32",
                    "name": "",
                    "type": "bytes32"
                }
            ],
            "stateMutability": "view",
            "type": "function"
        },
        {
            "inputs": [
                {
                    "internalType": "uint256",
                    "name": "streamId",
                    "type": "uint256"
                }
            ],
            "name": "getStream",
            "outputs": [
                {
                    "internalType": "uint256",
                    "name": "rewardDepositAmount",
                    "type": "uint256"
                },
                {
                    "internalType": "uint256",
                    "name": "rewardClaimedAmount",
                    "type": "uint256"
                },
                {
                    "internalType": "uint256",
                    "name": "rps",
                    "type": "uint256"
                },
                {
                    "internalType": "enum StreamStatus",
                    "name": "status",
                    "type": "uint8"
                }
            ],
            "stateMutability": "view",
            "type": "function"
        },
        {
            "inputs": [
                {
                    "internalType": "uint256",
                    "name": "streamId",
                    "type": "uint256"
                },
                {
                    "internalType": "address",
                    "name": "account",
                    "type": "address"
                },
                {
                    "internalType": "uint256",
                    "name": "lockId",
                    "type": "uint256"
                }
            ],
            "name": "getStreamClaimableAmountPerLock",
            "outputs": [
                {
                    "internalType": "uint256",
                    "name": "",
                    "type": "uint256"
                }
            ],
            "stateMutability": "view",
            "type": "function"
        },
        {
            "inputs": [
                {
                    "internalType": "uint256",
                    "name": "streamId",
                    "type": "uint256"
                }
            ],
            "name": "getStreamSchedule",
            "outputs": [
                {
                    "internalType": "uint256[]",
                    "name": "scheduleTimes",
                    "type": "uint256[]"
                },
                {
                    "internalType": "uint256[]",
                    "name": "scheduleRewards",
                    "type": "uint256[]"
                }
            ],
            "stateMutability": "view",
            "type": "function"
        },
        {
            "inputs": [
                {
                    "internalType": "address",
                    "name": "account",
                    "type": "address"
                },
                {
                    "internalType": "uint256",
                    "name": "streamId",
                    "type": "uint256"
                }
            ],
            "name": "getUsersPendingRewards",
            "outputs": [
                {
                    "internalType": "uint256",
                    "name": "",
                    "type": "uint256"
                }
            ],
            "stateMutability": "view",
            "type": "function"
        },
        {
            "inputs": [
                {
                    "internalType": "bytes32",
                    "name": "role",
                    "type": "bytes32"
                },
                {
                    "internalType": "address",
                    "name": "account",
                    "type": "address"
                }
            ],
            "name": "grantRole",
            "outputs": [],
            "stateMutability": "nonpayable",
            "type": "function"
        },
        {
            "inputs": [
                {
                    "internalType": "bytes32",
                    "name": "role",
                    "type": "bytes32"
                },
                {
                    "internalType": "address",
                    "name": "account",
                    "type": "address"
                }
            ],
            "name": "hasRole",
            "outputs": [
                {
                    "internalType": "bool",
                    "name": "",
                    "type": "bool"
                }
            ],
            "stateMutability": "view",
            "type": "function"
        },
        {
            "inputs": [
                {
                    "internalType": "address",
                    "name": "_owner",
                    "type": "address"
                },
                {
                    "internalType": "uint256[]",
                    "name": "scheduleTimes",
                    "type": "uint256[]"
                },
                {
                    "internalType": "uint256[]",
                    "name": "scheduleRewards",
                    "type": "uint256[]"
                },
                {
                    "internalType": "uint256",
                    "name": "tau",
                    "type": "uint256"
                }
            ],
            "name": "initializeMainStream",
            "outputs": [],
            "stateMutability": "nonpayable",
            "type": "function"
        },
        {
            "inputs": [
                {
                    "internalType": "address",
                    "name": "_admin",
                    "type": "address"
                },
                {
                    "internalType": "address",
                    "name": "_vault",
                    "type": "address"
                },
                {
                    "internalType": "address",
                    "name": "_treasury",
                    "type": "address"
                },
                {
                    "internalType": "address",
                    "name": "_mainToken",
                    "type": "address"
                },
                {
                    "internalType": "address",
                    "name": "_voteToken",
                    "type": "address"
                },
                {
                    "components": [
                        {
                            "internalType": "uint32",
                            "name": "maxWeightShares",
                            "type": "uint32"
                        },
                        {
                            "internalType": "uint32",
                            "name": "minWeightShares",
                            "type": "uint32"
                        },
                        {
                            "internalType": "uint32",
                            "name": "maxWeightPenalty",
                            "type": "uint32"
                        },
                        {
                            "internalType": "uint32",
                            "name": "minWeightPenalty",
                            "type": "uint32"
                        },
                        {
                            "internalType": "uint32",
                            "name": "penaltyWeightMultiplier",
                            "type": "uint32"
                        }
                    ],
                    "internalType": "struct Weight",
                    "name": "_weight",
                    "type": "tuple"
                },
                {
                    "components": [
                        {
                            "internalType": "uint32",
                            "name": "voteShareCoef",
                            "type": "uint32"
                        },
                        {
                            "internalType": "uint32",
                            "name": "voteLockCoef",
                            "type": "uint32"
                        }
                    ],
                    "internalType": "struct VoteCoefficient",
                    "name": "voteCoef",
                    "type": "tuple"
                },
                {
                    "internalType": "uint256",
                    "name": "_maxLocks",
                    "type": "uint256"
                },
                {
                    "internalType": "address",
                    "name": "_rewardsContract",
                    "type": "address"
                },
                {
                    "internalType": "uint256",
                    "name": "_minLockPeriod",
                    "type": "uint256"
                }
            ],
            "name": "initializeStaking",
            "outputs": [],
            "stateMutability": "nonpayable",
            "type": "function"
        },
        {
            "inputs": [],
            "name": "mainToken",
            "outputs": [
                {
                    "internalType": "address",
                    "name": "",
                    "type": "address"
                }
            ],
            "stateMutability": "view",
            "type": "function"
        },
        {
            "inputs": [],
            "name": "maxLockPeriod",
            "outputs": [
                {
                    "internalType": "uint256",
                    "name": "",
                    "type": "uint256"
                }
            ],
            "stateMutability": "view",
            "type": "function"
        },
        {
            "inputs": [],
            "name": "maxLockPositions",
            "outputs": [
                {
                    "internalType": "uint256",
                    "name": "",
                    "type": "uint256"
                }
            ],
            "stateMutability": "view",
            "type": "function"
        },
        {
            "inputs": [],
            "name": "minLockPeriod",
            "outputs": [
                {
                    "internalType": "uint256",
                    "name": "",
                    "type": "uint256"
                }
            ],
            "stateMutability": "view",
            "type": "function"
        },
        {
            "inputs": [],
            "name": "paused",
            "outputs": [
                {
                    "internalType": "uint256",
                    "name": "",
                    "type": "uint256"
                }
            ],
            "stateMutability": "view",
            "type": "function"
        },
        {
            "inputs": [
                {
                    "internalType": "address",
                    "name": "streamOwner",
                    "type": "address"
                },
                {
                    "internalType": "address",
                    "name": "rewardToken",
                    "type": "address"
                },
                {
                    "internalType": "uint256",
                    "name": "percentToTreasury",
                    "type": "uint256"
                },
                {
                    "internalType": "uint256",
                    "name": "maxDepositAmount",
                    "type": "uint256"
                },
                {
                    "internalType": "uint256",
                    "name": "minDepositAmount",
                    "type": "uint256"
                },
                {
                    "internalType": "uint256[]",
                    "name": "scheduleTimes",
                    "type": "uint256[]"
                },
                {
                    "internalType": "uint256[]",
                    "name": "scheduleRewards",
                    "type": "uint256[]"
                },
                {
                    "internalType": "uint256",
                    "name": "tau",
                    "type": "uint256"
                }
            ],
            "name": "proposeStream",
            "outputs": [],
            "stateMutability": "nonpayable",
            "type": "function"
        },
        {
            "inputs": [
                {
                    "internalType": "uint256",
                    "name": "streamId",
                    "type": "uint256"
                },
                {
                    "internalType": "address",
                    "name": "streamFundReceiver",
                    "type": "address"
                }
            ],
            "name": "removeStream",
            "outputs": [],
            "stateMutability": "nonpayable",
            "type": "function"
        },
        {
            "inputs": [
                {
                    "internalType": "bytes32",
                    "name": "role",
                    "type": "bytes32"
                },
                {
                    "internalType": "address",
                    "name": "account",
                    "type": "address"
                }
            ],
            "name": "renounceRole",
            "outputs": [],
            "stateMutability": "nonpayable",
            "type": "function"
        },
        {
            "inputs": [
                {
                    "internalType": "bytes32",
                    "name": "role",
                    "type": "bytes32"
                },
                {
                    "internalType": "address",
                    "name": "account",
                    "type": "address"
                }
            ],
            "name": "revokeRole",
            "outputs": [],
            "stateMutability": "nonpayable",
            "type": "function"
        },
        {
            "inputs": [],
            "name": "rewardsCalculator",
            "outputs": [
                {
                    "internalType": "address",
                    "name": "",
                    "type": "address"
                }
            ],
            "stateMutability": "view",
            "type": "function"
        },
        {
            "inputs": [
                {
                    "internalType": "uint256",
                    "name": "newMaxLockPositions",
                    "type": "uint256"
                }
            ],
            "name": "setMaxLockPositions",
            "outputs": [],
            "stateMutability": "nonpayable",
            "type": "function"
        },
        {
            "inputs": [
                {
                    "internalType": "uint256",
                    "name": "_minLockPeriod",
                    "type": "uint256"
                }
            ],
            "name": "setMinimumLockPeriod",
            "outputs": [],
            "stateMutability": "nonpayable",
            "type": "function"
        },
        {
            "inputs": [
                {
                    "internalType": "address",
                    "name": "newTreasury",
                    "type": "address"
                }
            ],
            "name": "setTreasuryAddress",
            "outputs": [],
            "stateMutability": "nonpayable",
            "type": "function"
        },
        {
            "inputs": [
                {
                    "internalType": "uint256",
                    "name": "",
                    "type": "uint256"
                }
            ],
            "name": "streamTotalUserPendings",
            "outputs": [
                {
                    "internalType": "uint256",
                    "name": "",
                    "type": "uint256"
                }
            ],
            "stateMutability": "view",
            "type": "function"
        },
        {
            "inputs": [
                {
                    "internalType": "bytes4",
                    "name": "interfaceId",
                    "type": "bytes4"
                }
            ],
            "name": "supportsInterface",
            "outputs": [
                {
                    "internalType": "bool",
                    "name": "",
                    "type": "bool"
                }
            ],
            "stateMutability": "view",
            "type": "function"
        },
        {
            "inputs": [],
            "name": "totalAmountOfStakedToken",
            "outputs": [
                {
                    "internalType": "uint256",
                    "name": "",
                    "type": "uint256"
                }
            ],
            "stateMutability": "view",
            "type": "function"
        },
        {
            "inputs": [],
            "name": "totalAmountOfVoteToken",
            "outputs": [
                {
                    "internalType": "uint256",
                    "name": "",
                    "type": "uint256"
                }
            ],
            "stateMutability": "view",
            "type": "function"
        },
        {
            "inputs": [],
            "name": "totalPenaltyBalance",
            "outputs": [
                {
                    "internalType": "uint256",
                    "name": "",
                    "type": "uint256"
                }
            ],
            "stateMutability": "view",
            "type": "function"
        },
        {
            "inputs": [],
            "name": "totalStreamShares",
            "outputs": [
                {
                    "internalType": "uint256",
                    "name": "",
                    "type": "uint256"
                }
            ],
            "stateMutability": "view",
            "type": "function"
        },
        {
            "inputs": [],
            "name": "treasury",
            "outputs": [
                {
                    "internalType": "address",
                    "name": "",
                    "type": "address"
                }
            ],
            "stateMutability": "view",
            "type": "function"
        },
        {
            "inputs": [
                {
                    "internalType": "uint256",
                    "name": "lockId",
                    "type": "uint256"
                }
            ],
            "name": "unlock",
            "outputs": [],
            "stateMutability": "nonpayable",
            "type": "function"
        },
        {
            "inputs": [
                {
                    "internalType": "uint256",
                    "name": "lockId",
                    "type": "uint256"
                },
                {
                    "internalType": "uint256",
                    "name": "amount",
                    "type": "uint256"
                }
            ],
            "name": "unlockPartially",
            "outputs": [],
            "stateMutability": "nonpayable",
            "type": "function"
        },
        {
            "inputs": [
                {
                    "internalType": "address",
                    "name": "_vault",
                    "type": "address"
                }
            ],
            "name": "updateVault",
            "outputs": [],
            "stateMutability": "nonpayable",
            "type": "function"
        },
        {
            "inputs": [
                {
                    "internalType": "address",
                    "name": "",
                    "type": "address"
                }
            ],
            "name": "users",
            "outputs": [
                {
                    "internalType": "uint256",
                    "name": "voteTokenBalance",
                    "type": "uint256"
                }
            ],
            "stateMutability": "view",
            "type": "function"
        },
        {
            "inputs": [],
            "name": "vault",
            "outputs": [
                {
                    "internalType": "address",
                    "name": "",
                    "type": "address"
                }
            ],
            "stateMutability": "view",
            "type": "function"
        },
        {
            "inputs": [],
            "name": "voteToken",
            "outputs": [
                {
                    "internalType": "address",
                    "name": "",
                    "type": "address"
                }
            ],
            "stateMutability": "view",
            "type": "function"
        },
        {
            "inputs": [],
            "name": "weight",
            "outputs": [
                {
                    "internalType": "uint32",
                    "name": "maxWeightShares",
                    "type": "uint32"
                },
                {
                    "internalType": "uint32",
                    "name": "minWeightShares",
                    "type": "uint32"
                },
                {
                    "internalType": "uint32",
                    "name": "maxWeightPenalty",
                    "type": "uint32"
                },
                {
                    "internalType": "uint32",
                    "name": "minWeightPenalty",
                    "type": "uint32"
                },
                {
                    "internalType": "uint32",
                    "name": "penaltyWeightMultiplier",
                    "type": "uint32"
                }
            ],
            "stateMutability": "view",
            "type": "function"
        },
        {
            "inputs": [],
            "name": "withdrawAllStreams",
            "outputs": [],
            "stateMutability": "nonpayable",
            "type": "function"
        },
        {
            "inputs": [],
            "name": "withdrawPenalty",
            "outputs": [],
            "stateMutability": "nonpayable",
            "type": "function"
        },
        {
            "inputs": [
                {
                    "internalType": "uint256",
                    "name": "streamId",
                    "type": "uint256"
                }
            ],
            "name": "withdrawStream",
            "outputs": [],
            "stateMutability": "nonpayable",
            "type": "function"
        }
    ],
    "bytecode": "0x60806040523480156200001157600080fd5b506200001c62000022565b62000112565b601554610100900460ff1615620000565760405162461bcd60e51b81526004016200004d90620000b0565b60405180910390fd5b60155460ff9081161015620000ae576015805460ff191660ff9081179091556040517f7f26b83ff96e1f2b6a682f133852f6798a09c465da95921460cefb384740249891620000a59162000102565b60405180910390a15b565b60208082528101620000fc81602781527f496e697469616c697a61626c653a20636f6e747261637420697320696e697469602082015266616c697a696e6760c81b604082015260600190565b92915050565b60ff8216815260208101620000fc565b615eb280620001226000396000f3fe608060405234801561001057600080fd5b50600436106102d75760003560e01c80636db8e53d11610188578063a8d85f70116100e4578063d547741f11610092578063d547741f146106e8578063ddcf3e29146106fb578063e7563f3f1461070e578063eb6a971714610721578063f1807b7014610729578063f604037314610731578063fbfa77cf1461073a57600080fd5b8063a8d85f7014610668578063b0abc98114610688578063b52c05fe14610691578063bd5cf8ff146106a4578063cedb6668146106ad578063cf04a19d146106c0578063d11a57ec146106d357600080fd5b806390403322116101415780639040332214610575578063911328121461058857806391d14854146105c2578063a1aab33f146105d5578063a217fddf14610620578063a87430ba14610628578063a8cbd3c71461064857600080fd5b80636db8e53d146104f957806370bc770c1461050257806373ae54b514610523578063894e9a0d1461052c5780638ca6ce111461054f5780638d40bd031461056257600080fd5b8063389ed267116102375780634b1d29b4116101f05780634b1d29b4146104885780635c975abb146104915780635f7461d61461049a5780636198e339146104ad57806361d027b3146104c05780636605bfda146104d35780636d878d10146104e657600080fd5b8063389ed2671461040a5780633a3f1511146104315780633ba31abf1461043a5780633ea005c81461044d5780633fc15f1514610462578063460f2ca01461047557600080fd5b80631d9755cb116102945780631d9755cb14610368578063248a9ca31461037b5780632692c59f146103ab5780632f2ff15d146103be57806336085c51146103d157806336568abe146103e4578063382a7193146103f757600080fd5b806301ffc9a7146102dc5780630b881567146103055780631194ebeb1461031a5780631556578b1461032d578063160d66ae146103405780631a1ce2fc14610360575b600080fd5b6102ef6102ea366004614d2d565b61074d565b6040516102fc9190614d58565b60405180910390f35b610318610313366004614dcc565b610784565b005b610318610328366004614efb565b610994565b61031861033b366004614fd9565b610d7f565b600c54610353906001600160a01b031681565b6040516102fc9190615003565b610318610db3565b610318610376366004615011565b610e3e565b61039e610389366004614fd9565b6000908152607a602052604090206001015490565b6040516102fc91906150b7565b6103186103b9366004614fd9565b61128b565b6103186103cc3660046150c5565b6112be565b6103186103df366004614fd9565b6112e8565b6103186103f23660046150c5565b6113e2565b610318610405366004614fd9565b611414565b61039e7f139c2898040ef16910dc9f44dc697df79363da767d8bc92f2e310312b816e46d81565b61039e60025481565b6103186104483660046150c5565b611526565b61039e600080516020615e3d83398151915281565b600b54610353906001600160a01b031681565b61031861048336600461514c565b61175e565b61039e60005481565b61039e60ac5481565b6103186104a8366004614fd9565b611873565b6103186104bb366004614fd9565b611911565b600f54610353906001600160a01b031681565b6103186104e1366004615193565b611a05565b600e54610353906001600160a01b031681565b61039e60065481565b610515610510366004614fd9565b611a97565b6040516102fc929190615211565b61039e60015481565b61053f61053a366004614fd9565b611b95565b6040516102fc949392919061527f565b61031861055d3660046152b4565b611bf1565b6103186105703660046152b4565b611cec565b610318610583366004614fd9565b61209e565b61039e6105963660046152e7565b6001600160a01b0391909116600090815260116020908152604080832093835260019093019052205490565b6102ef6105d03660046150c5565b612170565b60105461060f9063ffffffff80821691600160201b8104821691600160401b8204811691600160601b8104821691600160801b9091041685565b6040516102fc959493929190615315565b61039e600081565b61039e610636366004615193565b60116020526000908152604090205481565b61039e610656366004614fd9565b60146020526000908152604090205481565b61067b610676366004615193565b61219b565b6040516102fc919061542e565b61039e60055481565b61031861069f3660046152b4565b612261565b61039e60075481565b6103186106bb366004614fd9565b6122a3565b6103186106ce366004614fd9565b6122ec565b61039e600080516020615e5d83398151915281565b6103186106f63660046150c5565b612320565b61039e61070936600461543f565b612345565b61031861071c366004615193565b6124ab565b610318612657565b610318612745565b61039e60085481565b600d54610353906001600160a01b031681565b60006001600160e01b03198216637965db0b60e01b148061077e57506301ffc9a760e01b6001600160e01b03198316145b92915050565b601554610100900460ff16158080156107a45750601554600160ff909116105b806107be5750303b1580156107be575060155460ff166001145b6107e35760405162461bcd60e51b81526004016107da906154dd565b60405180910390fd5b6015805460ff191660011790558015610806576015805461ff0019166101001790555b600e80546001600160a01b0319166001600160a01b03851617905561086688888b610836368b90038b018b6155e3565b8e8961084560208d018d615604565b63ffffffff1661085b60408e0160208f01615604565b63ffffffff16612897565b600d54604051630480051d60e31b81526001600160a01b039091169063240028e890610896908b90600401615003565b602060405180830381865afa1580156108b3573d6000803e3d6000fd5b505050506040513d601f19601f820116820180604052508101906108d79190615638565b6108f45760405163350b944160e11b815260040160405180910390fd5b6108ff60018c612998565b610917600080516020615e3d8339815191528c612a02565b61092f600080516020615e5d8339815191528a612a02565b6301e1338060005560018290558015610987576015805461ff00191690556040517f7f26b83ff96e1f2b6a682f133852f6798a09c465da95921460cefb38474024989061097e90600190615676565b60405180910390a15b5050505050505050505050565b600080516020615e3d8339815191526109ac81612a88565b610a208b8b8b8b8b8b8b8080602002602001604051908101604052809392919081815260200183836020028082843760009201919091525050604080516020808f0282810182019093528e82529093508e92508d9182918501908490808284376000920191909152508c9250612a92915050565b600d54604051630480051d60e31b81526001600160a01b039091169063240028e890610a50908d90600401615003565b602060405180830381865afa158015610a6d573d6000803e3d6000fd5b505050506040513d601f19601f82011682018060405250810190610a919190615638565b610aae5760405163350b944160e11b815260040160405180910390fd5b604080516060602088028083018201845292820188815260009383928b918b918291908601908490808284376000920191909152505050908252506040805160208881028281018201909352888252928301929091899189918291850190849080828437600081840152601f19601f8201169050808301925050505050505081525090506000601280549050905060126040518061018001604052808f6001600160a01b03168152602001336001600160a01b031681526020018d81526020018e6001600160a01b0316815260200160016002811115610b9057610b90615236565b815260200160008152602001600081526020018c81526020018b8152602001868152602001600081526020018481525090806001815401808255809150506001900390600052602060002090600c020160009091909190915060008201518160000160006101000a8154816001600160a01b0302191690836001600160a01b0316021790555060208201518160010160006101000a8154816001600160a01b0302191690836001600160a01b031602179055506040820151816002015560608201518160030160006101000a8154816001600160a01b0302191690836001600160a01b0316021790555060808201518160030160146101000a81548160ff02191690836002811115610ca457610ca4615236565b021790555060a0820151600482015560c0820151600582015560e0820151600682015561010082015160078201556101208201516008820155610140820151600982015561016082015180518051600a840191610d0691839160200190614cb4565b506020828101518051610d1f9260018501920190614cb4565b50505050508b6001600160a01b03168d6001600160a01b0316827f16284487ea0f1368a3aac8128c3dd7d8e577839303a834c010386a8aea2265708d604051610d6891906150b7565b60405180910390a450505050505050505050505050565b6000610d8a81612a88565b600254821015610dad576040516321c04e1560e01b815260040160405180910390fd5b50600255565b60018060ac541660001480610dce5750610dce600033612170565b610dea5760405162461bcd60e51b81526004016107da906156ad565b600080516020615e5d833981519152610e0281612a88565b600854600003610e2557604051635cc6486f60e01b815260040160405180910390fd5b600f54610e3a906001600160a01b0316612b0a565b5050565b6000610e4981612a88565b600f54600160a01b900460ff161515600103610e775760405162dc149f60e41b815260040160405180910390fd5b610eac333086866000818110610e8f57610e8f6156bd565b600b546001600160a01b0316949392602090910201359050612b82565b600b54610f5d9088906001600160a01b0316600087878281610ed057610ed06156bd565b9050602002013588886000818110610eea57610eea6156bd565b905060200201358b8b8080602002602001604051908101604052809392919081815260200183836020028082843760009201919091525050604080516020808f0282810182019093528e82529093508e92508d9182918501908490808284376000920191909152508c9250612a92915050565b600080604051806040016040528089898080602002602001604051908101604052809392919081815260200183836020028082843760009201919091525050509082525060408051602089810282810182019093528982529283019290918a918a918291850190849080828437600092018290525093909452505060408051610180810182526001600160a01b03808f16808352602083015291810192909252600b54166060820152919250601291905060808101600281526020018888600081811061102c5761102c6156bd565b6020908102929092013583525060008282018190526040808401829052606080850183905260808086018c905260a0860184905260c0909501889052865460018082018955978452928490208651600c9094020180546001600160a01b03199081166001600160a01b039586161782559487015197810180548616988516989098179097559085015160028088019190915590850151600387018054948516919093169081178355938501519495949391926001600160a81b03191690911790600160a01b90849081111561110357611103615236565b021790555060a0820151600482015560c0820151600582015560e0820151600682015561010082015160078201556101208201516008820155610140820151600982015561016082015180518051600a84019161116591839160200190614cb4565b50602082810151805161117e9260018501920190614cb4565b505050505061118d6000612bda565b600f805460ff60a01b1916600160a01b179055600b546001600160a01b03908116908a16837f16284487ea0f1368a3aac8128c3dd7d8e577839303a834c010386a8aea22657089896000816111e4576111e46156bd565b905060200201356040516111f891906150b7565b60405180910390a4600b546040516001600160a01b03918216918b169084907f4396d7c3edc1447dac8dd2b7143af95840c926a210524a0d3198012c7fdf37c7906112449089906150b7565b60405180910390a461128086866000818110611262576112626156bd565b600b5460209091029290920135916001600160a01b03169050612c13565b505050505050505050565b7f139c2898040ef16910dc9f44dc697df79363da767d8bc92f2e310312b816e46d6112b581612a88565b610e3a82612bda565b6000828152607a60205260409020600101546112d981612a88565b6112e38383612a02565b505050565b60018060ac5416600014806113035750611303600033612170565b61131f5760405162461bcd60e51b81526004016107da906156ad565b61132882612c7a565b33600090815260036020908152604080832085845290915290205460ff16156113645760405163559f3e9960e11b815260040160405180910390fd5b33600090815260136020526040812061137e6001856156e9565b8154811061138e5761138e6156bd565b600091825260209091206003909102016001810154909150426001600160401b03909116116113d057604051635d8e3e2960e11b815260040160405180910390fd5b6113d8612d6e565b6112e38333612e24565b6001600160a01b038116331461140a5760405162461bcd60e51b81526004016107da90615748565b610e3a8282612f5c565b60018060ac54166000148061142f575061142f600033612170565b61144b5760405162461bcd60e51b81526004016107da906156ad565b3360009081526011602090815260408083208584526001810190925282205490910361148a5760405163214f008560e01b815260040160405180910390fd5b600083815260028201602052604090205442116114ba576040516309316dab60e41b815260040160405180910390fd5b6002601284815481106114cf576114cf6156bd565b90600052602060002090600c020160030160149054906101000a900460ff1660028111156114ff576114ff615236565b1461151d5760405163cb3c54e960e01b815260040160405180910390fd5b6112e383612fc3565b600080516020615e3d83398151915261153e81612a88565b8260000361155f576040516327b92aab60e21b815260040160405180910390fd5b6000838152601460205260409020541561158c5760405163010de00360e71b815260040160405180910390fd5b6000601284815481106115a1576115a16156bd565b60009182526020909120600c90910201905060026003820154600160a01b900460ff1660028111156115d5576115d5615236565b146115f357604051631b017f1760e11b815260040160405180910390fd5b60038101805460ff60a01b1916905560058101546004820154600091611618916156e9565b6003830154600d546040516370a0823160e01b81529293506000926001600160a01b03928316926370a082319261165492911690600401615003565b602060405180830381865afa158015611671573d6000803e3d6000fd5b505050506040513d601f19601f820116820180604052508101906116959190615763565b600d5460038501549192506001600160a01b039081169163da0c1a8891889116848611156116c357846116c5565b855b6040518463ffffffff1660e01b81526004016116e393929190615784565b600060405180830381600087803b1580156116fd57600080fd5b505af1158015611711573d6000803e3d6000fd5b505050600384015484546040516001600160a01b03928316935091169088907f661da9ced4b5d786f5b5f451a5f68af24721a01b0a65bb47fa4fdf70b80b887c90600090a4505050505050565b600061176981612a88565b60005b8281101561186d576000848483818110611788576117886156bd565b90506060020160400160208101906117a09190615193565b90506001600160a01b0381166117c95760405163d92e233d60e01b815260040160405180910390fd5b6001600160a01b03811660009081526003602090815260408083206013909252822054600192906117fa90846157ac565b81526020810191909152604001600020805460ff191691151591909117905561185a85858481811061182e5761182e6156bd565b9050606002016000013586868581811061184a5761184a6156bd565b90506060020160200135836130e4565b5080611865816157bf565b91505061176c565b50505050565b60018060ac54166000148061188e575061188e600033612170565b6118aa5760405162461bcd60e51b81526004016107da906156ad565b336000908152601360205260409020548211156118de57813360405163632eba3d60e11b81526004016107da9291906157d9565b816000036118ff5760405163d7315a2d60e01b815260040160405180910390fd5b611907612d6e565b610e3a33836131c7565b60018060ac54166000148061192c575061192c600033612170565b6119485760405162461bcd60e51b81526004016107da906156ad565b61195182612c7a565b33600090815260136020526040812061196b6001856156e9565b8154811061197b5761197b6156bd565b600091825260209091206003909102016001810154909150426001600160401b0390911611156119be576040516368ce0c1560e01b815260040160405180910390fd5b6119c6612d6e565b80543360008181526003602090815260408083208884529091529020805460ff191690556001600160801b039091169061186d9082908190879061323c565b6000611a1081612a88565b6001600160a01b038216611a375760405163d92e233d60e01b815260040160405180910390fd5b600f54611a5c90600080516020615e5d833981519152906001600160a01b0316612f5c565b611a74600080516020615e5d83398151915283612a02565b50600f80546001600160a01b0319166001600160a01b0392909216919091179055565b60608060128381548110611aad57611aad6156bd565b90600052602060002090600c0201600a0160000160128481548110611ad457611ad46156bd565b90600052602060002090600c0201600a0160010181805480602002602001604051908101604052809291908181526020018280548015611b3357602002820191906000526020600020905b815481526020019060010190808311611b1f575b5050505050915080805480602002602001604051908101604052809291908181526020018280548015611b8557602002820191906000526020600020905b815481526020019060010190808311611b71575b5050505050905091509150915091565b600080600080600060128681548110611bb057611bb06156bd565b90600052602060002090600c020190508060040154816005015482600901548360030160149054906101000a900460ff169450945094509450509193509193565b60018060ac541660001480611c0c5750611c0c600033612170565b611c285760405162461bcd60e51b81526004016107da906156ad565b611c3183612c7a565b336000908152601360205260408120611c4b6001866156e9565b81548110611c5b57611c5b6156bd565b600091825260209091206003909102016001810154909150426001600160401b039091161115611c9e5760405163342ad40160e11b815260040160405180910390fd5b611ca6612d6e565b80543360008181526003602090815260408083208984529091529020805460ff191690556001600160801b0390911690611ce59082908690889061323c565b5050505050565b60018060ac541660001480611d075750611d07600033612170565b611d235760405162461bcd60e51b81526004016107da906156ad565b600060128481548110611d3857611d386156bd565b60009182526020918290206040805161018081018252600c90930290910180546001600160a01b039081168452600182015481169484019490945260028082015492840192909252600381015493841660608401529350611ecf928491608084019160ff600160a01b9091041690811115611db557611db5615236565b6002811115611dc657611dc6615236565b8152602001600482015481526020016005820154815260200160068201548152602001600782015481526020016008820154815260200160098201548152602001600a820160405180604001604052908160008201805480602002602001604051908101604052809291908181526020018280548015611e6557602002820191906000526020600020905b815481526020019060010190808311611e51575b5050505050815260200160018201805480602002602001604051908101604052809291908181526020018280548015611ebd57602002820191906000526020600020905b815481526020019060010190808311611ea9575b505050505081525050815250506133ed565b60038101805460ff60a01b1916600160a11b179055612710831015611f07576040516355f7c7e360e11b815260040160405180910390fd5b600061271063ffffffff16848360020154611f2291906157f4565b611f2c9190615829565b9050611f3881856156e9565b6004830181905560068301541115611f5857611f58858360040154613491565b6004820154600b83018054600090611f7257611f726156bd565b906000526020600020015414611f9b576040516305fb017960e41b815260040160405180910390fd5b816006015482600401541115611fc4576040516370ea9fa360e11b815260040160405180910390fd5b816007015482600401541015611fed57604051638969a67560e01b815260040160405180910390fd5b6003820154825460088401546040516001600160a01b03938416939092169188917f4396d7c3edc1447dac8dd2b7143af95840c926a210524a0d3198012c7fdf37c79161203a91906150b7565b60405180910390a4600382015461205c906001600160a01b0316333087612b82565b801561208157600f546003830154612081916001600160a01b03918216911683613597565b60048201546003830154611ce591906001600160a01b0316612c13565b600080516020615e3d8339815191526120b681612a88565b6000601283815481106120cb576120cb6156bd565b60009182526020909120600c90910201905060016003820154600160a01b900460ff1660028111156120ff576120ff615236565b1461211d576040516379543eaf60e11b815260040160405180910390fd5b60038101805460ff60a01b19811690915581546040516001600160a01b03928316929091169085907ffadbcbd495527ce5e10fd0cceba57d404a4625dd6ce0499c254ac523789ef3ad90600090a4505050565b6000918252607a602090815260408084206001600160a01b0393909316845291905290205460ff1690565b6001600160a01b0381166000908152601360209081526040808320805482518185028101850190935280835260609492939192909184015b828210156122565760008481526020908190206040805160a0810182526003860290920180546001600160801b038082168552600160801b90910416838501526001808201546001600160401b03811693850193909352600160401b9092046001600160a01b0316606084015260020154608083015290835290920191016121d3565b505050509050919050565b60018060ac54166000148061227c575061227c600033612170565b6122985760405162461bcd60e51b81526004016107da906156ad565b6112e38383336130e4565b60018060ac5416600014806122be57506122be600033612170565b6122da5760405162461bcd60e51b81526004016107da906156ad565b6122e2612d6e565b610e3a33836135b6565b60006122f781612a88565b60005482111561231a57604051639ab093af60e01b815260040160405180910390fd5b50600155565b6000828152607a602052604090206001015461233b81612a88565b6112e38383612f5c565b600060026012858154811061235c5761235c6156bd565b90600052602060002090600c020160030160149054906101000a900460ff16600281111561238c5761238c615236565b146123aa5760405163439022eb60e11b815260040160405180910390fd5b6001600160a01b0383166000908152601360205260409020548211156123e357604051636646ea1960e11b815260040160405180910390fd5b60006123ee8561367c565b6001600160a01b0385166000908152601160209081526040808320601390925282209293509161241f6001876156e9565b8154811061242f5761242f6156bd565b600091825260208083208884526003868101835260408086208d8752909352919093205491029091018054909250600160801b90046001600160801b03166ec097ce7bc90715b34b9f10000000008161248884886156e9565b61249291906157f4565b61249c9190615829565b955050505050505b9392505050565b60006124b681612a88565b60ac546000036124d957604051636cd6020160e01b815260040160405180910390fd5b6001600160a01b0382166125005760405163d92e233d60e01b815260040160405180910390fd5b6040516301ffc9a760e01b81526001600160a01b038316906301ffc9a79061253390633485434760e11b9060040161584d565b602060405180830381865afa158015612550573d6000803e3d6000fd5b505050506040513d601f19601f820116820180604052508101906125749190615638565b61259357816040516363f1f03760e01b81526004016107da9190615003565b600d60009054906101000a90046001600160a01b03166001600160a01b0316632c678c646040518163ffffffff1660e01b8152600401602060405180830381865afa1580156125e6573d6000803e3d6000fd5b505050506040513d601f19601f8201168201806040525081019061260a9190615638565b61263457600d5460405163cec27f4760e01b81526107da916001600160a01b031690600401615003565b50600d80546001600160a01b0319166001600160a01b0392909216919091179055565b60018060ac5416600014806126725750612672600033612170565b61268e5760405162461bcd60e51b81526004016107da906156ad565b336000908152601160205260408120905b6012548110156112e3576000818152600183016020526040902054158015906126d75750600081815260028301602052604090205442115b801561272557506002601282815481106126f3576126f36156bd565b90600052602060002090600c020160030160149054906101000a900460ff16600281111561272357612723615236565b145b156127335761273381612fc3565b8061273d816157bf565b91505061269f565b60ac5460000361276857604051636cd6020160e01b815260040160405180910390fd5b600d60009054906101000a90046001600160a01b03166001600160a01b0316632c678c646040518163ffffffff1660e01b8152600401602060405180830381865afa1580156127bb573d6000803e3d6000fd5b505050506040513d601f19601f820116820180604052508101906127df9190615638565b1561280a57600d54604051633f382b0160e21b81526107da916001600160a01b031690600401615003565b33600090815260136020526040902054805b600181106128895733600090815260136020526040812061283e6001846156e9565b8154811061284e5761284e6156bd565b60009182526020909120600390910201546001600160801b031690506128768180843361323c565b50806128818161585b565b91505061281c565b506128946000612fc3565b50565b6128a5888888888886613703565b600b80546001600160a01b03199081166001600160a01b039a8b1617909155600c80548216988a1698909817909755600f805488169689169690961790955583516010805460208701516040880151606089015160809099015163ffffffff95861667ffffffffffffffff1990941693909317600160201b928616929092029190911767ffffffffffffffff60401b1916600160401b9185169190910263ffffffff60601b191617600160601b978416979097029690961763ffffffff60801b1916600160801b929096169190910294909417909355600d80549095169190951617909255600292909255600955600a55565b601554610100900460ff166129bf5760405162461bcd60e51b81526004016107da906158ba565b6129c7613865565b6129d2600082612a02565b6129fc7f139c2898040ef16910dc9f44dc697df79363da767d8bc92f2e310312b816e46d82612a02565b5060ac55565b612a0c8282612170565b610e3a576000828152607a602090815260408083206001600160a01b03851684529091529020805460ff19166001179055612a443390565b6001600160a01b0316816001600160a01b0316837f2f8788117e7eff1d82e926ec794901d17c78024a50270940304540a733656f0d60405160405180910390a45050565b612894813361388e565b600e54604051639d8efc3760e01b81526001600160a01b0390911690639d8efc3790612ad0908b908b908b908b908b908b908b908b906004016158ca565b60006040518083038186803b158015612ae857600080fd5b505afa158015612afc573d6000803e3d6000fd5b505050505050505050505050565b600880546000909155600d54600b54604051631b41835160e31b81526001600160a01b039283169263da0c1a8892612b4c928792909116908690600401615784565b600060405180830381600087803b158015612b6657600080fd5b505af1158015612b7a573d6000803e3d6000fd5b505050505050565b61186d846323b872dd60e01b858585604051602401612ba393929190615784565b60408051601f198184030181529190526020810180516001600160e01b03166001600160e01b0319909316929092179091526138f2565b60ac548181161480612bf25750612bf2600033612170565b612c0e5760405162461bcd60e51b81526004016107da9061597c565b60ac55565b600d54612c2e906001600160a01b0383811691166000613981565b600d54612c48906001600160a01b03838116911684613981565b600d546040516311f9fbc960e21b81526001600160a01b03909116906347e7ef2490612b4c908490869060040161598c565b80600003612c9b5760405163d7315a2d60e01b815260040160405180910390fd5b33600090815260136020526040902054811115612ccf57803360405163632eba3d60e11b81526004016107da9291906157d9565b336000908152601360205260408120612ce96001846156e9565b81548110612cf957612cf96156bd565b60009182526020909120600160039092020190810154909150600160401b90046001600160a01b03163314612d4157604051630472b49d60e51b815260040160405180910390fd5b80546001600160801b0316600003610e3a578160405163f19d752960e01b81526004016107da91906150b7565b4260045403612d7957565b60055415612e1e5760005b601254811015612e1c57600260128281548110612da357612da36156bd565b90600052602060002090600c020160030160149054906101000a900460ff166002811115612dd357612dd3615236565b03612e0a57612de18161367c565b60128281548110612df457612df46156bd565b90600052602060002090600c0201600901819055505b80612e14816157bf565b915050612d84565b505b42600455565b6001600160a01b0381166000908152601360205260408120612e476001856156e9565b81548110612e5757612e576156bd565b60009182526020909120600390910201600181015481549192506001600160401b0316906001600160801b0316612e908180878761323c565b6000612e9c8342613a35565b90506000620186a0612eae84846157f4565b612eb89190615829565b6001600160a01b038716600090815260116020908152604080832083805260018101909252822080549394509092849290612ef49084906156e9565b9091555050600080805260146020527f4f26c3876aa9f4b92579780beea1161a61f87ebf1ec6ee865b299e447ecba99c8054849290612f349084906156e9565b925050819055508160086000828254612f4d91906157ac565b90915550505050505050505050565b612f668282612170565b15610e3a576000828152607a602090815260408083206001600160a01b0385168085529252808320805460ff1916905551339285917ff6391f5c32d9c69d2a47ea670b442974b53935d1edc7fd64eb21e047a839171b9190a45050565b33600090815260116020908152604080832084845260018101835281842080549085905560149093529083208054919383926130009084906156e9565b9091555050604051339084907f3bfce8de0db7450cc169b94323c210e69a36c6a4a58c9f5d96bec4973adce392906130399085906150b7565b60405180910390a3600d54601280546001600160a01b039092169163da0c1a889133918790811061306c5761306c6156bd565b600091825260209091206003600c9092020101546040516001600160e01b031960e085901b1681526130ad92916001600160a01b0316908690600401615784565b600060405180830381600087803b1580156130c757600080fd5b505af11580156130db573d6000803e3d6000fd5b50505050505050565b6001548210156131075760405163183dd27d60e01b815260040160405180910390fd5b6002546001600160a01b0382166000908152601360205260409020541061314157604051632a01dbab60e21b815260040160405180910390fd5b8260000361316257604051631f2a200560e01b815260040160405180910390fd5b60005482111561318557604051639ab093af60e01b815260040160405180910390fd5b600b5461319d906001600160a01b0316333086612b82565b6131a5612d6e565b6131b0818484613af1565b600b546112e39084906001600160a01b0316612c13565b60125460005b8181101561186d576002601282815481106131ea576131ea6156bd565b90600052602060002090600c020160030160149054906101000a900460ff16600281111561321a5761321a615236565b0361322a5761322a848285613ceb565b80613234816157bf565b9150506131cd565b6001600160a01b03811660009081526011602090815260408083206013909252822090919061326c6001866156e9565b8154811061327c5761327c6156bd565b906000526020600020906003020190506005546000036132af57604051635cf8d8a760e01b815260040160405180910390fd5b60028101805460009182905560078054919283926132ce9084906156e9565b909155505082546000908210156132ef5783546132ec9083906156e9565b90505b8084556132fe87898888614047565b600c546040516370a0823160e01b81526000916001600160a01b0316906370a082319061332f908990600401615003565b602060405180830381865afa15801561334c573d6000803e3d6000fd5b505050506040513d601f19601f820116820180604052508101906133709190615763565b90508281101561337e578092505b600c54604051632770a7eb60e21b81526001600160a01b0390911690639dc29fac906133b0908990879060040161598c565b600060405180830381600087803b1580156133ca57600080fd5b505af11580156133de573d6000803e3d6000fd5b50505050505050505050505050565b60018160800151600281111561340557613405615236565b14613423576040516379543eaf60e11b815260040160405180910390fd5b4281610160015160000151600081518110613440576134406156bd565b60200260200101511015613467576040516328a7237960e01b815260040160405180910390fd5b80516001600160a01b03163314612894576040516330cd747160e01b815260040160405180910390fd5b6000601283815481106134a6576134a66156bd565b600091825260208220600b600c90920201015491505b8181101561186d57601284815481106134d7576134d76156bd565b90600052602060002090600c02016006015483601286815481106134fd576134fd6156bd565b90600052602060002090600c0201600a016001018381548110613522576135226156bd565b906000526020600020015461353791906157f4565b6135419190615829565b60128581548110613554576135546156bd565b90600052602060002090600c0201600a016001018281548110613579576135796156bd565b6000918252602090912001558061358f816157bf565b9150506134bc565b6112e38363a9059cbb60e01b8484604051602401612ba392919061598c565b6002601282815481106135cb576135cb6156bd565b90600052602060002090600c020160030160149054906101000a900460ff1660028111156135fb576135fb615236565b1461361957604051633d47126760e01b815260040160405180910390fd5b6001600160a01b03821660009081526013602052604081208054909181900361365557604051637dc6ce3b60e11b815260040160405180910390fd5b60015b818111611ce55761366a858583613ceb565b80613674816157bf565b915050613658565b60006006546000036136a15760405163b6311c8760e01b815260040160405180910390fd5b6006546ec097ce7bc90715b34b9f10000000006136c084600454614244565b6136ca91906157f4565b6136d49190615829565b601283815481106136e7576136e76156bd565b90600052602060002090600c02016009015461077e91906157ac565b6001600160a01b03861661372a5760405163d92e233d60e01b815260040160405180910390fd5b6001600160a01b0385166137515760405163d92e233d60e01b815260040160405180910390fd5b6001600160a01b0382166137785760405163d92e233d60e01b815260040160405180910390fd5b6001600160a01b03841661379f5760405163d92e233d60e01b815260040160405180910390fd5b826020015163ffffffff16836000015163ffffffff16116137d3576040516302eba45360e51b815260040160405180910390fd5b826060015163ffffffff16836040015163ffffffff161161380757604051639fe24b6b60e01b815260040160405180910390fd5b620186a08360400151846080015161381f91906159a7565b63ffffffff161115613844576040516335e7c1c760e21b815260040160405180910390fd5b80600003612b7a5760405163fa9d8a3560e01b815260040160405180910390fd5b601554610100900460ff1661388c5760405162461bcd60e51b81526004016107da906158ba565b565b6138988282612170565b610e3a576138b0816001600160a01b031660146142de565b6138bb8360206142de565b6040516020016138cc929190615a1b565b60408051601f198184030181529082905262461bcd60e51b82526107da91600401615a9f565b6000613947826040518060400160405280602081526020017f5361666545524332303a206c6f772d6c6576656c2063616c6c206661696c6564815250856001600160a01b03166144499092919063ffffffff16565b8051909150156112e357808060200190518101906139659190615638565b6112e35760405162461bcd60e51b81526004016107da90615af7565b8015806139fa5750604051636eb1769f60e11b81526001600160a01b0384169063dd62ed3e906139b79030908690600401615b07565b602060405180830381865afa1580156139d4573d6000803e3d6000fd5b505050506040513d601f19601f820116820180604052508101906139f89190615763565b155b613a165760405162461bcd60e51b81526004016107da90615b68565b6112e38363095ea7b360e01b8484604051602401612ba392919061598c565b600082808310613a4957600091505061077e565b6000613a5584836156e9565b600054601054919250908290613a819063ffffffff600160601b8204811691600160401b900416615b78565b601054613a9b9190600160801b900463ffffffff166159a7565b63ffffffff16613aab91906157f4565b613ab59190615829565b601054613ad89063ffffffff600160601b8204811691600160801b9004166159a7565b63ffffffff16613ae891906157ac565b95945050505050565b6001600160a01b03831660009081526011602052604081208215613b7a57600a54670de0b6b3a76400009081613b2786886157f4565b613b3191906157f4565b613b3b9190615829565b613b459190615829565b915081816000016000828254613b5b91906157ac565b925050819055508160076000828254613b7491906157ac565b90915550505b60006040518060a00160405280613b9087614460565b6001600160801b0316815260006020820152604001613bb7613bb242886157ac565b61448d565b6001600160401b0390811682526001600160a01b03808a16602080850182905260409485018990526000828152601382528581208054600181810183558284528484208a51958b01516001600160801b03908116600160801b02961695909517600390920290940190815596880151928701805460608a0151909616600160401b026001600160e01b031990961693909616929092179390931790935560808501516002909401939093559190915254909150613c79908790879086906144b6565b8215612b7a57600c546040516340c10f1960e01b81526001600160a01b03909116906340c10f1990613cb1908990879060040161598c565b600060405180830381600087803b158015613ccb57600080fd5b505af1158015613cdf573d6000803e3d6000fd5b50505050505050505050565b600260128381548110613d0057613d006156bd565b90600052602060002090600c020160030160149054906101000a900460ff166002811115613d3057613d30615236565b14613d4e57604051633d47126760e01b815260040160405180910390fd5b6001600160a01b0383166000908152601360205260408120613d716001846156e9565b81548110613d8157613d816156bd565b60009182526020822060039091020180549092506001600160801b03169003613dbd5760405163c95c74a560e01b815260040160405180910390fd5b6001600160a01b0384166000908152601160209081526040808320845486855260038201845282852088865290935290832054601280549294936ec097ce7bc90715b34b9f100000000093600160801b9091046001600160801b031692919089908110613e2c57613e2c6156bd565b90600052602060002090600c020160090154613e4891906156e9565b613e5291906157f4565b613e5c9190615829565b905080600003613e6e57505050505050565b60128581548110613e8157613e816156bd565b90600052602060002090600c0201600401548160128781548110613ea757613ea76156bd565b90600052602060002090600c020160050154613ec391906157ac565b1115613ee257604051630109353560e01b815260040160405180910390fd5b600085815260018301602052604081208054839290613f029084906157ac565b909155505060008581526014602052604081208054839290613f259084906157ac565b90915550506012805486908110613f3e57613f3e6156bd565b600091825260208083206009600c90930201919091015486835260038501825260408084208985529092529120556012805486908110613f8057613f806156bd565b90600052602060002090600c02016008015442613f9d91906157ac565b60008681526002840160205260409020556012805482919087908110613fc557613fc56156bd565b90600052602060002090600c02016005016000828254613fe591906157ac565b90915550506000858152600183016020526040908190205490516001600160a01b0388169187917f5f1c6be51c8ec7fa7e7ddd9f798ec55927b06cfc8d9159987d1ae3358cb10b5991614037916150b7565b60405180910390a3505050505050565b6001600160a01b0381166000908152601160209081526040808320601390925282209091906140776001866156e9565b81548110614087576140876156bd565b9060005260206000209060030201905084600560008282546140a991906156e9565b9091555050805460068054600160801b9092046001600160801b0316916000906140d49084906156e9565b909155505060008082556140e887876156e9565b905086836001016000808152602001908152602001600020600082825461410f91906157ac565b909155505060128054600090614127576141276156bd565b90600052602060002090600c0201600801544261414491906157ac565b6000808052600285016020908152604082209290925560149091527f4f26c3876aa9f4b92579780beea1161a61f87ebf1ec6ee865b299e447ecba99c80548992906141909084906157ac565b909155505080156141ee576141a7818684866146aa565b84846001600160a01b03167f845a16492d8f772c792e84d2c5495d37fca22ce33263b67322e92ef0be653c50896040516141e191906150b7565b60405180910390a36130db565b6141f983858761482c565b84846001600160a01b03167f7fc4727e062e336010f2c282598ef5f14facb3de68cf8195c2f23e1454b2b74e8960405161423391906150b7565b60405180910390a350505050505050565b600e54601280546000926001600160a01b0316916351e1551a918690811061426e5761426e6156bd565b90600052602060002090600c0201600a01846040518363ffffffff1660e01b815260040161429d929190615c23565b602060405180830381865afa1580156142ba573d6000803e3d6000fd5b505050506040513d601f19601f820116820180604052508101906124a49190615763565b606060006142ed8360026157f4565b6142f89060026157ac565b6001600160401b0381111561430f5761430f6154ed565b6040519080825280601f01601f191660200182016040528015614339576020820181803683370190505b509050600360fc1b81600081518110614354576143546156bd565b60200101906001600160f81b031916908160001a905350600f60fb1b81600181518110614383576143836156bd565b60200101906001600160f81b031916908160001a90535060006143a78460026157f4565b6143b29060016157ac565b90505b600181111561442a576f181899199a1a9b1b9c1cb0b131b232b360811b85600f16601081106143e6576143e66156bd565b1a60f81b8282815181106143fc576143fc6156bd565b60200101906001600160f81b031916908160001a90535060049490941c936144238161585b565b90506143b5565b5083156124a45760405162461bcd60e51b81526004016107da90615c75565b60606144588484600085614a63565b949350505050565b60006001600160801b038211156144895760405162461bcd60e51b81526004016107da90615cb9565b5090565b60006001600160401b038211156144895760405162461bcd60e51b81526004016107da90615cfd565b6001600160a01b0384166000908152601160209081526040808320601390925282209091906144e66001856156e9565b815481106144f6576144f66156bd565b90600052602060002090600302019050846005600082825461451891906157ac565b909155506000905061452b868642614b25565b9050806006600082825461453f91906157ac565b9091555061454e905081614460565b82548390601090614570908490600160801b90046001600160801b0316615d0d565b92506101000a8154816001600160801b0302191690836001600160801b031602179055506000601280549050905060005b81811015614647576002601282815481106145be576145be6156bd565b90600052602060002090600c020160030160149054906101000a900460ff1660028111156145ee576145ee615236565b036146355760128181548110614606576146066156bd565b600091825260208083206009600c90930201919091015488835260038801825260408084208585529092529120555b8061463f816157bf565b9150506145a1565b50600183015460405186916001600160a01b038b16917f6381ea17a5324d29cc015352644672ead5185c1c61a0d3a521eda97e35cec97e91614698918c9188918d916001600160401b031690615d4e565b60405180910390a35050505050505050565b83600560008282546146bc91906157ac565b909155506146cb905084614460565b825483906000906146e69084906001600160801b0316615d0d565b92506101000a8154816001600160801b0302191690836001600160801b03160217905550600061471885600042614b25565b905061472381614460565b83548490601090614745908490600160801b90046001600160801b0316615d0d565b92506101000a8154816001600160801b0302191690836001600160801b03160217905550806006600082825461477b91906157ac565b909155505060125460005b818110156130db576002601282815481106147a3576147a36156bd565b90600052602060002090600c020160030160149054906101000a900460ff1660028111156147d3576147d3615236565b0361481a57601281815481106147eb576147eb6156bd565b600091825260208083206009600c90930201919091015488835260038701825260408084208585529092529120555b80614824816157bf565b915050614786565b6012546001600160a01b0383166000908152601360205260409020548281148015906148585750600181115b156149cb576001600160a01b03841660009081526013602052604081206148806001846156e9565b81548110614890576148906156bd565b600091825260208083206001600160a01b0389168452601390915260409092206003909102909101915081906148c76001876156e9565b815481106148d7576148d76156bd565b600091825260208220835460039092020180546fffffffffffffffffffffffffffffffff19166001600160801b0392831690811782558454600160801b90819004909316909202909117815560018084018054918301805467ffffffffffffffff1981166001600160401b03909416938417825591546001600160a01b03600160401b9182900416026001600160e01b03199092169092171790556002928301549201919091555b838110156149c8576000838152600388016020818152604080842085855282528084205489855292825280842085855290915290912055806149c0816157bf565b91505061497f565b50505b60005b82811015614a045760008281526003870160209081526040808320848452909152812055806149fc816157bf565b9150506149ce565b506001600160a01b0384166000908152601360205260409020805480614a2c57614a2c615d83565b6000828152602081206003600019909301928302018181556001810180546001600160e01b03191690556002015590555050505050565b606082471015614a855760405162461bcd60e51b81526004016107da90615ddc565b6001600160a01b0385163b614aac5760405162461bcd60e51b81526004016107da90615e20565b600080866001600160a01b03168587604051614ac89190615e30565b60006040518083038185875af1925050503d8060008114614b05576040519150601f19603f3d011682016040523d82523d6000602084013e614b0a565b606091505b5091509150614b1a828286614c7b565b979650505050505050565b6000806103e884600954614b3991906157f4565b614b439190615829565b614b4d90866157ac565b905060006228207263ffffffff166012600081548110614b6f57614b6f6156bd565b90600052602060002090600c0201600a01600001600081548110614b9557614b956156bd565b9060005260206000200154614baa91906157ac565b90506000614bbc6301e13380836157ac565b9050818511614be257601054614bd89063ffffffff16846157f4565b93505050506124a4565b808510614c0357601054614bd890600160201b900463ffffffff16846157f4565b614c0d82826156e9565b614c1786836156e9565b601054614c339063ffffffff600160201b820481169116615b78565b614c439063ffffffff16866157f4565b614c4d91906157f4565b614c579190615829565b601054614c7190600160201b900463ffffffff16856157f4565b614b1a91906157ac565b60608315614c8a5750816124a4565b825115614c9a5782518084602001fd5b8160405162461bcd60e51b81526004016107da9190615a9f565b828054828255906000526020600020908101928215614cef579160200282015b82811115614cef578251825591602001919060010190614cd4565b506144899291505b808211156144895760008155600101614cf7565b6001600160e01b031981165b811461289457600080fd5b803561077e81614d0b565b600060208284031215614d4257614d42600080fd5b60006144588484614d22565b8015155b82525050565b6020810161077e8284614d4e565b60006001600160a01b03821661077e565b614d1781614d66565b803561077e81614d77565b600060a08284031215614da057614da0600080fd5b50919050565b600060408284031215614da057614da0600080fd5b80614d17565b803561077e81614dbb565b6000806000806000806000806000806101e08b8d031215614def57614def600080fd5b6000614dfb8d8d614d80565b9a50506020614e0c8d828e01614d80565b9950506040614e1d8d828e01614d80565b9850506060614e2e8d828e01614d80565b9750506080614e3f8d828e01614d80565b96505060a0614e508d828e01614d8b565b955050610140614e628d828e01614da6565b945050610180614e748d828e01614dc1565b9350506101a0614e868d828e01614d80565b9250506101c0614e988d828e01614dc1565b9150509295989b9194979a5092959850565b60008083601f840112614ebf57614ebf600080fd5b5081356001600160401b03811115614ed957614ed9600080fd5b602083019150836020820283011115614ef457614ef4600080fd5b9250929050565b6000806000806000806000806000806101008b8d031215614f1e57614f1e600080fd5b6000614f2a8d8d614d80565b9a50506020614f3b8d828e01614d80565b9950506040614f4c8d828e01614dc1565b9850506060614f5d8d828e01614dc1565b9750506080614f6e8d828e01614dc1565b96505060a08b01356001600160401b03811115614f8d57614f8d600080fd5b614f998d828e01614eaa565b955095505060c08b01356001600160401b03811115614fba57614fba600080fd5b614fc68d828e01614eaa565b935093505060e0614e988d828e01614dc1565b600060208284031215614fee57614fee600080fd5b60006144588484614dc1565b614d5281614d66565b6020810161077e8284614ffa565b6000806000806000806080878903121561502d5761502d600080fd5b60006150398989614d80565b96505060208701356001600160401b0381111561505857615058600080fd5b61506489828a01614eaa565b955095505060408701356001600160401b0381111561508557615085600080fd5b61509189828a01614eaa565b935093505060606150a489828a01614dc1565b9150509295509295509295565b80614d52565b6020810161077e82846150b1565b600080604083850312156150db576150db600080fd5b60006150e78585614dc1565b92505060206150f885828601614d80565b9150509250929050565b60008083601f84011261511757615117600080fd5b5081356001600160401b0381111561513157615131600080fd5b602083019150836060820283011115614ef457614ef4600080fd5b6000806020838503121561516257615162600080fd5b82356001600160401b0381111561517b5761517b600080fd5b61518785828601615102565b92509250509250929050565b6000602082840312156151a8576151a8600080fd5b60006144588484614d80565b60006151c083836150b1565b505060200190565b60006151d2825190565b80845260209384019383018060005b838110156152065781516151f588826151b4565b9750602083019250506001016151e1565b509495945050505050565b6040808252810161522281856151c8565b9050818103602083015261445881846151c8565b634e487b7160e01b600052602160045260246000fd5b6003811061289457612894615236565b806152668161524c565b919050565b600061077e8261525c565b614d528161526b565b6080810161528d82876150b1565b61529a60208301866150b1565b6152a760408301856150b1565b613ae86060830184615276565b600080604083850312156152ca576152ca600080fd5b60006152d68585614dc1565b92505060206150f885828601614dc1565b600080604083850312156152fd576152fd600080fd5b60006152d68585614d80565b63ffffffff8116614d52565b60a081016153238288615309565b6153306020830187615309565b61533d6040830186615309565b61534a6060830185615309565b6153576080830184615309565b9695505050505050565b6001600160801b038116614d52565b6001600160401b038116614d52565b805160a08301906153908482615361565b5060208201516153a36020850182615361565b5060408201516153b66040850182615370565b5060608201516153c96060850182614ffa565b50608082015161186d60808501826150b1565b60006153e8838361537f565b505060a00190565b60006153fa825190565b80845260209384019383018060005b8381101561520657815161541d88826153dc565b975060208301925050600101615409565b602080825281016124a481846153f0565b60008060006060848603121561545757615457600080fd5b60006154638686614dc1565b935050602061547486828701614d80565b925050604061548586828701614dc1565b9150509250925092565b602e81526000602082017f496e697469616c697a61626c653a20636f6e747261637420697320616c72656181526d191e481a5b9a5d1a585b1a5e995960921b602082015291505b5060400190565b6020808252810161077e8161548f565b634e487b7160e01b600052604160045260246000fd5b601f19601f83011681018181106001600160401b0382111715615528576155286154ed565b6040525050565b600061553a60405190565b90506152668282615503565b63ffffffff8116614d17565b803561077e81615546565b600060a0828403121561557257615572600080fd5b61557c60a061552f565b9050600061558a8484615552565b825250602061559b84848301615552565b60208301525060406155af84828501615552565b60408301525060606155c384828501615552565b60608301525060806155d784828501615552565b60808301525092915050565b600060a082840312156155f8576155f8600080fd5b6000614458848461555d565b60006020828403121561561957615619600080fd5b60006144588484615552565b801515614d17565b805161077e81615625565b60006020828403121561564d5761564d600080fd5b6000614458848461562d565b600061077e82615667565b90565b60ff1690565b614d5281615659565b6020810161077e828461566d565b600f81526000602082016e1c185d5cd9590818dbdb9d1c9858dd608a1b815291505b5060200190565b6020808252810161077e81615684565b634e487b7160e01b600052603260045260246000fd5b634e487b7160e01b600052601160045260246000fd5b8181038181111561077e5761077e6156d3565b602f81526000602082017f416363657373436f6e74726f6c3a2063616e206f6e6c792072656e6f756e636581526e103937b632b9903337b91039b2b63360891b602082015291506154d6565b6020808252810161077e816156fc565b805161077e81614dbb565b60006020828403121561577857615778600080fd5b60006144588484615758565b606081016157928286614ffa565b61579f6020830185614ffa565b61445860408301846150b1565b8082018082111561077e5761077e6156d3565b600060001982036157d2576157d26156d3565b5060010190565b604081016157e782856150b1565b6124a46020830184614ffa565b600081600019048311821515161561580e5761580e6156d3565b500290565b634e487b7160e01b600052601260045260246000fd5b60008261583857615838615813565b500490565b6001600160e01b03198116614d52565b6020810161077e828461583d565b60008161586a5761586a6156d3565b506000190190565b602b81526000602082017f496e697469616c697a61626c653a20636f6e7472616374206973206e6f74206981526a6e697469616c697a696e6760a81b602082015291506154d6565b6020808252810161077e81615872565b61010081016158d9828b614ffa565b6158e6602083018a614ffa565b6158f360408301896150b1565b61590060608301886150b1565b61590d60808301876150b1565b81810360a083015261591f81866151c8565b905081810360c083015261593381856151c8565b905061594260e08301846150b1565b9998505050505050505050565b60168152600060208201756f6e6c792061646d696e2063616e20756e706175736560501b815291506156a6565b6020808252810161077e8161594f565b6040810161599a8285614ffa565b6124a460208301846150b1565b600063ffffffff8216915063ffffffff831692508163ffffffff048311821515161561580e5761580e6156d3565b60005b838110156159f05781810151838201526020016159d8565b50506000910152565b6000615a03825190565b615a118185602086016159d5565b9290920192915050565b76020b1b1b2b9b9a1b7b73a3937b61d1030b1b1b7bab73a1604d1b81526017016000615a4782856159f9565b7001034b99036b4b9b9b4b733903937b6329607d1b8152601101915061445882846159f9565b6000615a77825190565b808452602084019350615a8e8185602086016159d5565b601f01601f19169290920192915050565b602080825281016124a48184615a6d565b602a81526000602082017f5361666545524332303a204552433230206f7065726174696f6e20646964206e8152691bdd081cdd58d8d9595960b21b602082015291506154d6565b6020808252810161077e81615ab0565b604081016157e78285614ffa565b603681526000602082017f5361666545524332303a20617070726f76652066726f6d206e6f6e2d7a65726f81527520746f206e6f6e2d7a65726f20616c6c6f77616e636560501b602082015291506154d6565b6020808252810161077e81615b15565b63ffffffff91821691908116908282039081111561077e5761077e6156d3565b60008161077e565b600061077e8254615b98565b6000615bb6825490565b808452600083815260208082209501949081905b8381101561520657615bdb82615ba0565b615be588826151b4565b97505060019182019101615bca565b604080835260009083018183615c0a8382615bac565b9250506001840185830360208701526153578382615bac565b60408082528101615c348185615bf4565b90506124a460208301846150b1565b60208082527f537472696e67733a20686578206c656e67746820696e73756666696369656e74910190815260006156a6565b6020808252810161077e81615c43565b601c81526000602082017f426f72696e674d6174683a2075696e74313238204f766572666c6f7700000000815291506156a6565b6020808252810161077e81615c85565b601b81526000602082017f426f72696e674d6174683a2075696e743634204f766572666c6f770000000000815291506156a6565b6020808252810161077e81615cc9565b6001600160801b0391821691908116908282019081111561077e5761077e6156d3565b600061077e6156646001600160401b03841681565b614d5281615d30565b60808101615d5c82876150b1565b615d6960208301866150b1565b615d7660408301856150b1565b613ae86060830184615d45565b634e487b7160e01b600052603160045260246000fd5b602681526000602082017f416464726573733a20696e73756666696369656e742062616c616e636520666f8152651c8818d85b1b60d21b602082015291506154d6565b6020808252810161077e81615d99565b601d81526000602082017f416464726573733a2063616c6c20746f206e6f6e2d636f6e7472616374000000815291506156a6565b6020808252810161077e81615dec565b60006124a482846159f956fe930802d0eadfb856cb83e01d1c4daa3c89e9c6d9f74cfbe13124decf2b33128ae1dcbdb91df27212a29bc27177c840cf2f819ecf2187432e1fac86c2dd5dfca9a26469706673582212206f15f2aad4e3208011ecc08f1ad249c4caab6a95ff72572b9b48cabf4f7c099a64736f6c63430008100033",
    "immutableReferences": {},
    "source": "// SPDX-License-Identifier: AGPL 3.0\n// Copyright Fathom 2022\n\npragma solidity 0.8.16;\n\nimport \"./StakingHandler.sol\";\nimport \"./StakingGetters.sol\";\n\ncontract StakingPackage is StakingHandlers, StakingGetters {}\n",
    "sourcePath": "/Users/subiksinghshrestha/Documents/FATHOM/fathom-dao-smart-contracts/contracts/dao/staking/packages/StakingPackage.sol",
    "compiler": {
        "name": "solc",
        "version": "0.8.16+commit.07a7930e.Darwin.appleclang"
    },
    "schemaVersion": "3.4.10",
    "updatedAt": "2023-04-14T09:23:16.262Z",
    "devdoc": {
        "kind": "dev",
        "methods": {
            "adminPause(uint256)": {
                "details": "adminPause pauses this contract. Only pause role or default admin role can access this function.",
                "params": {
                    "flags": "flags variable is used for pausing this contract."
                }
            },
            "createFixedLocksOnBehalfOfUserByAdmin((uint256,uint256,address)[])": {
                "details": "Admin can create a lock on behalf of a user without early withdrawal"
            },
            "createStream(uint256,uint256)": {
                "details": "This function creates a stream and makes it live. Only the Stream Owner is able to call this function.      Stream Owner is set while proposing a stream"
            },
            "emergencyUnlockAndWithdraw()": {
                "details": "In case of emergency, unlock your tokens and withdraw all your position"
            },
            "getRoleAdmin(bytes32)": {
                "details": "Returns the admin role that controls `role`. See {grantRole} and {revokeRole}. To change a role's admin, use {_setRoleAdmin}."
            },
            "grantRole(bytes32,address)": {
                "details": "Grants `role` to `account`. If `account` had not been already granted `role`, emits a {RoleGranted} event. Requirements: - the caller must have ``role``'s admin role. May emit a {RoleGranted} event."
            },
            "hasRole(bytes32,address)": {
                "details": "Returns `true` if `account` has been granted `role`."
            },
            "initializeMainStream(address,uint256[],uint256[],uint256)": {
                "details": "The function is callable only once, and it can be done only with admin,       which at initial setup is Multisig"
            },
            "initializeStaking(address,address,address,address,address,(uint32,uint32,uint32,uint32,uint32),(uint32,uint32),uint256,address,uint256)": {
                "details": "initialize the contract and deploys the first stream of rewardsinitializable only once due to stakingInitialised flag",
                "params": {
                    "_admin": "the owner and manager of the main token stream",
                    "_mainToken": "token contract address",
                    "_vault": "The Vault address to store main token and rewards tokens",
                    "_weight": "Weighting coefficient for shares and penalties"
                }
            },
            "proposeStream(address,address,uint256,uint256,uint256,uint256[],uint256[],uint256)": {
                "details": "An admin of the staking contract can allowlist (propose) a stream. Allowlisting of the stream provides the option for the stream owner (presumably the issuing party of a specific token) to deposit some ERC-20 tokens on the staking contract and potentially get in return some main tokens immediately. ",
                "params": {
                    "maxDepositAmount": "The upper amount of the tokens that should be deposited by stream owner",
                    "rewardToken": "the address of the ERC-20 tokens to be deposited in the stream",
                    "scheduleRewards": "remaining rewards to be delivered at the beginning of each scheduled interval.  Last element is always zero. First value (in scheduleRewards) from array is supposed to be a total amount of rewards for stream.",
                    "scheduleTimes": "timestamp denoting the start of each scheduled interval. Last element is the end of the stream.",
                    "streamOwner": "only this account will be able to launch a stream",
                    "tau": "the tau is (pending release period) for this stream (e.g one day)"
                }
            },
            "removeStream(uint256,address)": {
                "details": "A stream can be removed after all the rewards pending have been withdrawn.      Stream can be removed by the Stream Manager which is Multisig at time of deployment."
            },
            "renounceRole(bytes32,address)": {
                "details": "Revokes `role` from the calling account. Roles are often managed via {grantRole} and {revokeRole}: this function's purpose is to provide a mechanism for accounts to lose their privileges if they are compromised (such as when a trusted device is misplaced). If the calling account had been revoked `role`, emits a {RoleRevoked} event. Requirements: - the caller must be `account`. May emit a {RoleRevoked} event."
            },
            "revokeRole(bytes32,address)": {
                "details": "Revokes `role` from `account`. If `account` had been granted `role`, emits a {RoleRevoked} event. Requirements: - the caller must have ``role``'s admin role. May emit a {RoleRevoked} event."
            },
            "setMaxLockPositions(uint256)": {
                "details": "This allows for setting up maximum lock positions.      Only admin which is Multisig at deployment can call this"
            },
            "setMinimumLockPeriod(uint256)": {
                "details": "This allows for setting up minimum locking period.      Only admin which is Multisig at deployment can call this"
            },
            "supportsInterface(bytes4)": {
                "details": "See {IERC165-supportsInterface}."
            },
            "updateVault(address)": {
                "details": "Vault can be updated only if the contract is at paused state.      Only Admin that is, Multisig at the time of deployment can update Vault"
            },
            "withdrawPenalty()": {
                "details": "Penalty accrued due to early unlocking can be withdrawn to some address, most likely the treasury.      Address with TREASURY_ROLE can access this function, which is Multisig at time of deployment"
            }
        },
        "version": 1
    },
    "userdoc": {
        "kind": "user",
        "methods": {
            "emergencyUnlockAndWithdraw()": {
                "notice": "This function neglects all the rewardsThis can be executed only if the contract is at paused state.This function can only be called if VaultContract is not compromised and vault is not at paused state."
            },
            "initializeStaking(address,address,address,address,address,(uint32,uint32,uint32,uint32,uint32),(uint32,uint32),uint256,address,uint256)": {
                "notice": "By calling this function, the deployer of this contract must make sure that the Rewards amount was deposited to the treasury contract before initializing of the default Stream"
            },
            "proposeStream(address,address,uint256,uint256,uint256,uint256[],uint256[],uint256)": {
                "notice": "Manager of Vault must call"
            },
            "weight()": {
                "notice": "Weighting coefficient for shares and penalties"
            }
        },
        "version": 1
    }
}