{
  "contractName": "StakingGetters",
  "abi": [
    {
      "inputs": [],
      "name": "BadIndexError",
      "type": "error"
    },
    {
      "inputs": [],
      "name": "InactiveStreamError",
      "type": "error"
    },
    {
      "inputs": [],
      "name": "IncorrectWeight",
      "type": "error"
    },
    {
      "inputs": [],
      "name": "InsufficientRewardsError",
      "type": "error"
    },
    {
      "inputs": [],
      "name": "InvalidPenaltyWeights",
      "type": "error"
    },
    {
      "inputs": [],
      "name": "InvalidShareWeights",
      "type": "error"
    },
    {
      "inputs": [],
      "name": "NoLockError",
      "type": "error"
    },
    {
      "inputs": [],
      "name": "NoSharesError",
      "type": "error"
    },
    {
      "inputs": [],
      "name": "NoStakeError",
      "type": "error"
    },
    {
      "inputs": [],
      "name": "StreamInactiveError",
      "type": "error"
    },
    {
      "inputs": [],
      "name": "ZeroAddress",
      "type": "error"
    },
    {
      "inputs": [],
      "name": "ZeroCoefficient",
      "type": "error"
    },
    {
      "inputs": [
        {
          "internalType": "uint256",
          "name": "lockId",
          "type": "uint256"
        }
      ],
      "name": "ZeroLocked",
      "type": "error"
    },
    {
      "inputs": [],
      "name": "ZeroTotalStakedToken",
      "type": "error"
    },
    {
      "anonymous": false,
      "inputs": [
        {
          "indexed": true,
          "internalType": "address",
          "name": "account",
          "type": "address"
        },
        {
          "indexed": false,
          "internalType": "uint256",
          "name": "amount",
          "type": "uint256"
        },
        {
          "indexed": true,
          "internalType": "uint256",
          "name": "lockId",
          "type": "uint256"
        }
      ],
      "name": "PartialUnstaked",
      "type": "event"
    },
    {
      "anonymous": false,
      "inputs": [
        {
          "indexed": true,
          "internalType": "uint256",
          "name": "streamId",
          "type": "uint256"
        },
        {
          "indexed": true,
          "internalType": "address",
          "name": "account",
          "type": "address"
        },
        {
          "indexed": false,
          "internalType": "uint256",
          "name": "pendings",
          "type": "uint256"
        }
      ],
      "name": "Pending",
      "type": "event"
    },
    {
      "anonymous": false,
      "inputs": [
        {
          "indexed": true,
          "internalType": "uint256",
          "name": "streamId",
          "type": "uint256"
        },
        {
          "indexed": true,
          "internalType": "address",
          "name": "user",
          "type": "address"
        },
        {
          "indexed": false,
          "internalType": "uint256",
          "name": "pendingAmount",
          "type": "uint256"
        }
      ],
      "name": "Released",
      "type": "event"
    },
    {
      "anonymous": false,
      "inputs": [
        {
          "indexed": true,
          "internalType": "address",
          "name": "account",
          "type": "address"
        },
        {
          "indexed": false,
          "internalType": "uint256",
          "name": "amount",
          "type": "uint256"
        },
        {
          "indexed": false,
          "internalType": "uint256",
          "name": "streamShares",
          "type": "uint256"
        },
        {
          "indexed": false,
          "internalType": "uint256",
          "name": "nVoteToken",
          "type": "uint256"
        },
        {
          "indexed": true,
          "internalType": "uint256",
          "name": "lockId",
          "type": "uint256"
        },
        {
          "indexed": false,
          "internalType": "uint256",
          "name": "end",
          "type": "uint256"
        }
      ],
      "name": "Staked",
      "type": "event"
    },
    {
      "anonymous": false,
      "inputs": [
        {
          "indexed": true,
          "internalType": "uint256",
          "name": "streamId",
          "type": "uint256"
        },
        {
          "indexed": true,
          "internalType": "address",
          "name": "owner",
          "type": "address"
        },
        {
          "indexed": true,
          "internalType": "address",
          "name": "token",
          "type": "address"
        },
        {
          "indexed": false,
          "internalType": "uint256",
          "name": "tau",
          "type": "uint256"
        }
      ],
      "name": "StreamCreated",
      "type": "event"
    },
    {
      "anonymous": false,
      "inputs": [
        {
          "indexed": true,
          "internalType": "uint256",
          "name": "streamId",
          "type": "uint256"
        },
        {
          "indexed": true,
          "internalType": "address",
          "name": "owner",
          "type": "address"
        },
        {
          "indexed": true,
          "internalType": "address",
          "name": "token",
          "type": "address"
        }
      ],
      "name": "StreamProposalCancelled",
      "type": "event"
    },
    {
      "anonymous": false,
      "inputs": [
        {
          "indexed": true,
          "internalType": "uint256",
          "name": "streamId",
          "type": "uint256"
        },
        {
          "indexed": true,
          "internalType": "address",
          "name": "streamOwner",
          "type": "address"
        },
        {
          "indexed": true,
          "internalType": "address",
          "name": "rewardToken",
          "type": "address"
        },
        {
          "indexed": false,
          "internalType": "uint256",
          "name": "maxDepositAmount",
          "type": "uint256"
        }
      ],
      "name": "StreamProposed",
      "type": "event"
    },
    {
      "anonymous": false,
      "inputs": [
        {
          "indexed": true,
          "internalType": "uint256",
          "name": "streamId",
          "type": "uint256"
        },
        {
          "indexed": true,
          "internalType": "address",
          "name": "owner",
          "type": "address"
        },
        {
          "indexed": true,
          "internalType": "address",
          "name": "token",
          "type": "address"
        }
      ],
      "name": "StreamRemoved",
      "type": "event"
    },
    {
      "anonymous": false,
      "inputs": [
        {
          "indexed": true,
          "internalType": "address",
          "name": "account",
          "type": "address"
        },
        {
          "indexed": false,
          "internalType": "uint256",
          "name": "amount",
          "type": "uint256"
        },
        {
          "indexed": true,
          "internalType": "uint256",
          "name": "lockId",
          "type": "uint256"
        }
      ],
      "name": "Unstaked",
      "type": "event"
    },
    {
      "inputs": [],
      "name": "mainToken",
      "outputs": [
        {
          "internalType": "address",
          "name": "",
          "type": "address"
        }
      ],
      "stateMutability": "view",
      "type": "function"
    },
    {
      "inputs": [],
      "name": "maxLockPeriod",
      "outputs": [
        {
          "internalType": "uint256",
          "name": "",
          "type": "uint256"
        }
      ],
      "stateMutability": "view",
      "type": "function"
    },
    {
      "inputs": [],
      "name": "maxLockPositions",
      "outputs": [
        {
          "internalType": "uint256",
          "name": "",
          "type": "uint256"
        }
      ],
      "stateMutability": "view",
      "type": "function"
    },
    {
      "inputs": [],
      "name": "minLockPeriod",
      "outputs": [
        {
          "internalType": "uint256",
          "name": "",
          "type": "uint256"
        }
      ],
      "stateMutability": "view",
      "type": "function"
    },
    {
      "inputs": [],
      "name": "rewardsCalculator",
      "outputs": [
        {
          "internalType": "address",
          "name": "",
          "type": "address"
        }
      ],
      "stateMutability": "view",
      "type": "function"
    },
    {
      "inputs": [
        {
          "internalType": "uint256",
          "name": "",
          "type": "uint256"
        }
      ],
      "name": "streamTotalUserPendings",
      "outputs": [
        {
          "internalType": "uint256",
          "name": "",
          "type": "uint256"
        }
      ],
      "stateMutability": "view",
      "type": "function"
    },
    {
      "inputs": [],
      "name": "totalAmountOfStakedToken",
      "outputs": [
        {
          "internalType": "uint256",
          "name": "",
          "type": "uint256"
        }
      ],
      "stateMutability": "view",
      "type": "function"
    },
    {
      "inputs": [],
      "name": "totalAmountOfVoteToken",
      "outputs": [
        {
          "internalType": "uint256",
          "name": "",
          "type": "uint256"
        }
      ],
      "stateMutability": "view",
      "type": "function"
    },
    {
      "inputs": [],
      "name": "totalPenaltyBalance",
      "outputs": [
        {
          "internalType": "uint256",
          "name": "",
          "type": "uint256"
        }
      ],
      "stateMutability": "view",
      "type": "function"
    },
    {
      "inputs": [],
      "name": "totalStreamShares",
      "outputs": [
        {
          "internalType": "uint256",
          "name": "",
          "type": "uint256"
        }
      ],
      "stateMutability": "view",
      "type": "function"
    },
    {
      "inputs": [],
      "name": "treasury",
      "outputs": [
        {
          "internalType": "address",
          "name": "",
          "type": "address"
        }
      ],
      "stateMutability": "view",
      "type": "function"
    },
    {
      "inputs": [
        {
          "internalType": "address",
          "name": "",
          "type": "address"
        }
      ],
      "name": "users",
      "outputs": [
        {
          "internalType": "uint256",
          "name": "voteTokenBalance",
          "type": "uint256"
        }
      ],
      "stateMutability": "view",
      "type": "function"
    },
    {
      "inputs": [],
      "name": "vault",
      "outputs": [
        {
          "internalType": "address",
          "name": "",
          "type": "address"
        }
      ],
      "stateMutability": "view",
      "type": "function"
    },
    {
      "inputs": [],
      "name": "voteToken",
      "outputs": [
        {
          "internalType": "address",
          "name": "",
          "type": "address"
        }
      ],
      "stateMutability": "view",
      "type": "function"
    },
    {
      "inputs": [],
      "name": "weight",
      "outputs": [
        {
          "internalType": "uint32",
          "name": "maxWeightShares",
          "type": "uint32"
        },
        {
          "internalType": "uint32",
          "name": "minWeightShares",
          "type": "uint32"
        },
        {
          "internalType": "uint32",
          "name": "maxWeightPenalty",
          "type": "uint32"
        },
        {
          "internalType": "uint32",
          "name": "minWeightPenalty",
          "type": "uint32"
        },
        {
          "internalType": "uint32",
          "name": "penaltyWeightMultiplier",
          "type": "uint32"
        }
      ],
      "stateMutability": "view",
      "type": "function"
    },
    {
      "inputs": [
        {
          "internalType": "address",
          "name": "account",
          "type": "address"
        },
        {
          "internalType": "uint256",
          "name": "streamId",
          "type": "uint256"
        }
      ],
      "name": "getUsersPendingRewards",
      "outputs": [
        {
          "internalType": "uint256",
          "name": "",
          "type": "uint256"
        }
      ],
      "stateMutability": "view",
      "type": "function"
    },
    {
      "inputs": [
        {
          "internalType": "uint256",
          "name": "streamId",
          "type": "uint256"
        },
        {
          "internalType": "address",
          "name": "account",
          "type": "address"
        },
        {
          "internalType": "uint256",
          "name": "lockId",
          "type": "uint256"
        }
      ],
      "name": "getStreamClaimableAmountPerLock",
      "outputs": [
        {
          "internalType": "uint256",
          "name": "",
          "type": "uint256"
        }
      ],
      "stateMutability": "view",
      "type": "function"
    },
    {
      "inputs": [
        {
          "internalType": "address",
          "name": "account",
          "type": "address"
        }
      ],
      "name": "getAllLocks",
      "outputs": [
        {
          "components": [
            {
              "internalType": "uint128",
              "name": "amountOfToken",
              "type": "uint128"
            },
            {
              "internalType": "uint128",
              "name": "positionStreamShares",
              "type": "uint128"
            },
            {
              "internalType": "uint64",
              "name": "end",
              "type": "uint64"
            },
            {
              "internalType": "address",
              "name": "owner",
              "type": "address"
            },
            {
              "internalType": "uint256",
              "name": "amountOfVoteToken",
              "type": "uint256"
            }
          ],
          "internalType": "struct LockedBalance[]",
          "name": "",
          "type": "tuple[]"
        }
      ],
      "stateMutability": "view",
      "type": "function"
    },
    {
      "inputs": [
        {
          "internalType": "uint256",
          "name": "streamId",
          "type": "uint256"
        }
      ],
      "name": "getStreamSchedule",
      "outputs": [
        {
          "internalType": "uint256[]",
          "name": "scheduleTimes",
          "type": "uint256[]"
        },
        {
          "internalType": "uint256[]",
          "name": "scheduleRewards",
          "type": "uint256[]"
        }
      ],
      "stateMutability": "view",
      "type": "function"
    },
    {
      "inputs": [
        {
          "internalType": "uint256",
          "name": "streamId",
          "type": "uint256"
        }
      ],
      "name": "getStream",
      "outputs": [
        {
          "internalType": "uint256",
          "name": "rewardDepositAmount",
          "type": "uint256"
        },
        {
          "internalType": "uint256",
          "name": "rewardClaimedAmount",
          "type": "uint256"
        },
        {
          "internalType": "uint256",
          "name": "rps",
          "type": "uint256"
        },
        {
          "internalType": "enum StreamStatus",
          "name": "status",
          "type": "uint8"
        }
      ],
      "stateMutability": "view",
      "type": "function"
    }
  ],
  "bytecode": "0x608060405234801561001057600080fd5b50610d14806100206000396000f3fe608060405234801561001057600080fd5b506004361061012c5760003560e01c806391132812116100ad578063b0abc98111610071578063b0abc981146102c7578063bd5cf8ff146102d0578063ddcf3e29146102d9578063f6040373146102ec578063fbfa77cf146102f557600080fd5b80639113281214610208578063a1aab33f1461021b578063a87430ba14610267578063a8cbd3c714610287578063a8d85f70146102a757600080fd5b80636d878d10116100f45780636d878d101461019f5780636db8e53d146101b257806370bc770c146101bb57806373ae54b5146101dc578063894e9a0d146101e557600080fd5b8063160d66ae146101315780633a3f15111461015a5780633fc15f15146101705780634b1d29b41461018357806361d027b31461018c575b600080fd5b600c54610144906001600160a01b031681565b60405161015191906107fe565b60405180910390f35b61016360025481565b6040516101519190610812565b600b54610144906001600160a01b031681565b61016360005481565b600f54610144906001600160a01b031681565b600e54610144906001600160a01b031681565b61016360065481565b6101ce6101c936600461083b565b610308565b6040516101519291906108c1565b61016360015481565b6101f86101f336600461083b565b610406565b604051610151949392919061092f565b610163610216366004610981565b610462565b6010546102569063ffffffff808216916401000000008104821691600160401b8204811691600160601b8104821691600160801b9091041685565b6040516101519594939291906109ca565b610163610275366004610a16565b60116020526000908152604090205481565b61016361029536600461083b565b60146020526000908152604090205481565b6102ba6102b5366004610a16565b610490565b6040516101519190610b0b565b61016360055481565b61016360075481565b6101636102e7366004610b1c565b610557565b61016360085481565b600d54610144906001600160a01b031681565b6060806012838154811061031e5761031e610b6c565b90600052602060002090600c0201600a016000016012848154811061034557610345610b6c565b90600052602060002090600c0201600a01600101818054806020026020016040519081016040528092919081815260200182805480156103a457602002820191906000526020600020905b815481526020019060010190808311610390575b50505050509150808054806020026020016040519081016040528092919081815260200182805480156103f657602002820191906000526020600020905b8154815260200190600101908083116103e2575b5050505050905091509150915091565b60008060008060006012868154811061042157610421610b6c565b90600052602060002090600c020190508060040154816005015482600901548360030160149054906101000a900460ff169450945094509450509193509193565b6001600160a01b03821660009081526011602090815260408083208484526001019091529020545b92915050565b6001600160a01b0381166000908152601360209081526040808320805482518185028101850190935280835260609492939192909184015b8282101561054c5760008481526020908190206040805160a0810182526003860290920180546001600160801b038082168552600160801b909104168385015260018082015467ffffffffffffffff811693850193909352600160401b9092046001600160a01b0316606084015260020154608083015290835290920191016104c8565b505050509050919050565b600060026012858154811061056e5761056e610b6c565b90600052602060002090600c020160030160149054906101000a900460ff16600281111561059e5761059e6108e6565b146105bc5760405163439022eb60e11b815260040160405180910390fd5b6001600160a01b0383166000908152601360205260409020548211156105f557604051636646ea1960e11b815260040160405180910390fd5b6000610600856106bd565b6001600160a01b03851660009081526011602090815260408083206013909252822092935091610631600187610b98565b8154811061064157610641610b6c565b600091825260208083208884526003868101835260408086208d8752909352919093205491029091018054909250600160801b90046001600160801b03166ec097ce7bc90715b34b9f10000000008161069a8488610b98565b6106a49190610bab565b6106ae9190610be0565b955050505050505b9392505050565b60006006546000036106e25760405163b6311c8760e01b815260040160405180910390fd5b6006546ec097ce7bc90715b34b9f100000000061070184600454610744565b61070b9190610bab565b6107159190610be0565b6012838154811061072857610728610b6c565b90600052602060002090600c02016009015461048a9190610bf4565b600e54601280546000926001600160a01b0316916351e1551a918690811061076e5761076e610b6c565b90600052602060002090600c0201600a01846040518363ffffffff1660e01b815260040161079d929190610c92565b602060405180830381865afa1580156107ba573d6000803e3d6000fd5b505050506040513d601f19601f820116820180604052508101906106b69190610cbd565b60006001600160a01b03821661048a565b6107f8816107de565b82525050565b6020810161048a82846107ef565b806107f8565b6020810161048a828461080c565b805b811461082d57600080fd5b50565b803561048a81610820565b60006020828403121561085057610850600080fd5b600061085c8484610830565b949350505050565b6000610870838361080c565b505060200190565b6000610882825190565b80845260209384019383018060005b838110156108b65781516108a58882610864565b975060208301925050600101610891565b509495945050505050565b604080825281016108d28185610878565b9050818103602083015261085c8184610878565b634e487b7160e01b600052602160045260246000fd5b6003811061082d5761082d6108e6565b80610916816108fc565b919050565b600061048a8261090c565b6107f88161091b565b6080810161093d828761080c565b61094a602083018661080c565b610957604083018561080c565b6109646060830184610926565b95945050505050565b610822816107de565b803561048a8161096d565b6000806040838503121561099757610997600080fd5b60006109a38585610976565b92505060206109b485828601610830565b9150509250929050565b63ffffffff81166107f8565b60a081016109d882886109be565b6109e560208301876109be565b6109f260408301866109be565b6109ff60608301856109be565b610a0c60808301846109be565b9695505050505050565b600060208284031215610a2b57610a2b600080fd5b600061085c8484610976565b6001600160801b0381166107f8565b67ffffffffffffffff81166107f8565b805160a0830190610a678482610a37565b506020820151610a7a6020850182610a37565b506040820151610a8d6040850182610a46565b506060820151610aa060608501826107ef565b506080820151610ab3608085018261080c565b50505050565b6000610ac58383610a56565b505060a00190565b6000610ad7825190565b80845260209384019383018060005b838110156108b6578151610afa8882610ab9565b975060208301925050600101610ae6565b602080825281016106b68184610acd565b600080600060608486031215610b3457610b34600080fd5b6000610b408686610830565b9350506020610b5186828701610976565b9250506040610b6286828701610830565b9150509250925092565b634e487b7160e01b600052603260045260246000fd5b634e487b7160e01b600052601160045260246000fd5b8181038181111561048a5761048a610b82565b6000816000190483118215151615610bc557610bc5610b82565b500290565b634e487b7160e01b600052601260045260246000fd5b600082610bef57610bef610bca565b500490565b8082018082111561048a5761048a610b82565b60008161048a565b600061048a8254610c07565b6000610c25825490565b808452600083815260208082209501949081905b838110156108b657610c4a82610c0f565b610c548882610864565b97505060019182019101610c39565b604080835260009083018183610c798382610c1b565b925050600184018583036020870152610a0c8382610c1b565b60408082528101610ca38185610c63565b90506106b6602083018461080c565b805161048a81610820565b600060208284031215610cd257610cd2600080fd5b600061085c8484610cb256fea2646970667358221220b54c2ad62aa8709afbe56d4fa3199dcb07bbebc984917b9c9e003b9939c575a864736f6c63430008100033",
  "immutableReferences": {},
  "source": "// SPDX-License-Identifier: AGPL 3.0\n// Original Copyright Aurora\n// Copyright Fathom 2022\n\npragma solidity 0.8.16;\n\nimport \"../StakingStorage.sol\";\nimport \"../interfaces/IStakingGetter.sol\";\nimport \"./StakingInternals.sol\";\n\ncontract StakingGetters is StakingStorage, IStakingGetter, StakingInternals {\n    error StreamInactiveError();\n    error BadIndexError();\n\n    function getUsersPendingRewards(address account, uint256 streamId) external view override returns (uint256) {\n        return users[account].pendings[streamId];\n    }\n\n    function getStreamClaimableAmountPerLock(uint256 streamId, address account, uint256 lockId) external view override returns (uint256) {\n        if (streams[streamId].status != StreamStatus.ACTIVE) {\n            revert StreamInactiveError();\n        }\n        if (lockId > locks[account].length) {\n            revert BadIndexError();\n        }\n        uint256 latestRps = _getLatestRewardsPerShare(streamId);\n        User storage userAccount = users[account];\n        LockedBalance storage lock = locks[account][lockId - 1];\n        uint256 userRpsPerLock = userAccount.rpsDuringLastClaimForLock[lockId][streamId];\n        uint256 userSharesOfLock = lock.positionStreamShares;\n        return ((latestRps - userRpsPerLock) * userSharesOfLock) / RPS_MULTIPLIER;\n    }\n\n    function getAllLocks(address account) external view override returns (LockedBalance[] memory) {\n        return locks[account];\n    }\n\n    function getStreamSchedule(uint256 streamId) external view override returns (uint256[] memory scheduleTimes, uint256[] memory scheduleRewards) {\n        return (streams[streamId].schedule.time, streams[streamId].schedule.reward);\n    }\n\n    function getStream(\n        uint256 streamId\n    ) external view override returns (uint256 rewardDepositAmount, uint256 rewardClaimedAmount, uint256 rps, StreamStatus status) {\n        Stream storage stream = streams[streamId];\n        return (stream.rewardDepositAmount, stream.rewardClaimedAmount, stream.rps, stream.status);\n    }\n}\n",
  "sourcePath": "/Users/antongrigorev/Developer/fathom-dao-smart-contracts/contracts/dao/staking/packages/StakingGetters.sol",
  "compiler": {
    "name": "solc",
    "version": "0.8.16+commit.07a7930e.Darwin.appleclang"
  },
  "schemaVersion": "3.4.13",
  "updatedAt": "2023-04-29T06:38:40.721Z",
  "devdoc": {
    "kind": "dev",
    "methods": {},
    "version": 1
  },
  "userdoc": {
    "kind": "user",
    "methods": {
      "weight()": {
        "notice": "Weighting coefficient for shares and penalties"
      }
    },
    "version": 1
  }
}