{
    "contractName": "VaultPackage",
    "abi": [
        {
            "inputs": [],
            "stateMutability": "nonpayable",
            "type": "constructor"
        },
        {
            "anonymous": false,
            "inputs": [
                {
                    "indexed": false,
                    "internalType": "uint8",
                    "name": "version",
                    "type": "uint8"
                }
            ],
            "name": "Initialized",
            "type": "event"
        },
        {
            "anonymous": false,
            "inputs": [
                {
                    "indexed": true,
                    "internalType": "bytes32",
                    "name": "role",
                    "type": "bytes32"
                },
                {
                    "indexed": true,
                    "internalType": "bytes32",
                    "name": "previousAdminRole",
                    "type": "bytes32"
                },
                {
                    "indexed": true,
                    "internalType": "bytes32",
                    "name": "newAdminRole",
                    "type": "bytes32"
                }
            ],
            "name": "RoleAdminChanged",
            "type": "event"
        },
        {
            "anonymous": false,
            "inputs": [
                {
                    "indexed": true,
                    "internalType": "bytes32",
                    "name": "role",
                    "type": "bytes32"
                },
                {
                    "indexed": true,
                    "internalType": "address",
                    "name": "account",
                    "type": "address"
                },
                {
                    "indexed": true,
                    "internalType": "address",
                    "name": "sender",
                    "type": "address"
                }
            ],
            "name": "RoleGranted",
            "type": "event"
        },
        {
            "anonymous": false,
            "inputs": [
                {
                    "indexed": true,
                    "internalType": "bytes32",
                    "name": "role",
                    "type": "bytes32"
                },
                {
                    "indexed": true,
                    "internalType": "address",
                    "name": "account",
                    "type": "address"
                },
                {
                    "indexed": true,
                    "internalType": "address",
                    "name": "sender",
                    "type": "address"
                }
            ],
            "name": "RoleRevoked",
            "type": "event"
        },
        {
            "anonymous": false,
            "inputs": [
                {
                    "indexed": true,
                    "internalType": "address",
                    "name": "tokenAddress",
                    "type": "address"
                },
                {
                    "indexed": true,
                    "internalType": "address",
                    "name": "addedBy",
                    "type": "address"
                },
                {
                    "indexed": false,
                    "internalType": "uint256",
                    "name": "timestamp",
                    "type": "uint256"
                }
            ],
            "name": "TokenAdded",
            "type": "event"
        },
        {
            "anonymous": false,
            "inputs": [
                {
                    "indexed": true,
                    "internalType": "address",
                    "name": "tokenAddress",
                    "type": "address"
                },
                {
                    "indexed": true,
                    "internalType": "address",
                    "name": "removedBy",
                    "type": "address"
                },
                {
                    "indexed": false,
                    "internalType": "uint256",
                    "name": "timestamp",
                    "type": "uint256"
                }
            ],
            "name": "TokenRemoved",
            "type": "event"
        },
        {
            "inputs": [],
            "name": "DEFAULT_ADMIN_ROLE",
            "outputs": [
                {
                    "internalType": "bytes32",
                    "name": "",
                    "type": "bytes32"
                }
            ],
            "stateMutability": "view",
            "type": "function"
        },
        {
            "inputs": [],
            "name": "PAUSE_ROLE",
            "outputs": [
                {
                    "internalType": "bytes32",
                    "name": "",
                    "type": "bytes32"
                }
            ],
            "stateMutability": "view",
            "type": "function"
        },
        {
            "inputs": [],
            "name": "REWARDS_OPERATOR_ROLE",
            "outputs": [
                {
                    "internalType": "bytes32",
                    "name": "",
                    "type": "bytes32"
                }
            ],
            "stateMutability": "view",
            "type": "function"
        },
        {
            "inputs": [
                {
                    "internalType": "uint256",
                    "name": "flags",
                    "type": "uint256"
                }
            ],
            "name": "adminPause",
            "outputs": [],
            "stateMutability": "nonpayable",
            "type": "function"
        },
        {
            "inputs": [
                {
                    "internalType": "address",
                    "name": "",
                    "type": "address"
                }
            ],
            "name": "deposited",
            "outputs": [
                {
                    "internalType": "uint256",
                    "name": "",
                    "type": "uint256"
                }
            ],
            "stateMutability": "view",
            "type": "function"
        },
        {
            "inputs": [
                {
                    "internalType": "bytes32",
                    "name": "role",
                    "type": "bytes32"
                }
            ],
            "name": "getRoleAdmin",
            "outputs": [
                {
                    "internalType": "bytes32",
                    "name": "",
                    "type": "bytes32"
                }
            ],
            "stateMutability": "view",
            "type": "function"
        },
        {
            "inputs": [
                {
                    "internalType": "bytes32",
                    "name": "role",
                    "type": "bytes32"
                },
                {
                    "internalType": "address",
                    "name": "account",
                    "type": "address"
                }
            ],
            "name": "grantRole",
            "outputs": [],
            "stateMutability": "nonpayable",
            "type": "function"
        },
        {
            "inputs": [
                {
                    "internalType": "bytes32",
                    "name": "role",
                    "type": "bytes32"
                },
                {
                    "internalType": "address",
                    "name": "account",
                    "type": "address"
                }
            ],
            "name": "hasRole",
            "outputs": [
                {
                    "internalType": "bool",
                    "name": "",
                    "type": "bool"
                }
            ],
            "stateMutability": "view",
            "type": "function"
        },
        {
            "inputs": [
                {
                    "internalType": "address",
                    "name": "",
                    "type": "address"
                }
            ],
            "name": "isSupportedToken",
            "outputs": [
                {
                    "internalType": "bool",
                    "name": "",
                    "type": "bool"
                }
            ],
            "stateMutability": "view",
            "type": "function"
        },
        {
            "inputs": [
                {
                    "internalType": "uint256",
                    "name": "",
                    "type": "uint256"
                }
            ],
            "name": "listOfSupportedTokens",
            "outputs": [
                {
                    "internalType": "address",
                    "name": "",
                    "type": "address"
                }
            ],
            "stateMutability": "view",
            "type": "function"
        },
        {
            "inputs": [],
            "name": "migrated",
            "outputs": [
                {
                    "internalType": "bool",
                    "name": "",
                    "type": "bool"
                }
            ],
            "stateMutability": "view",
            "type": "function"
        },
        {
            "inputs": [],
            "name": "paused",
            "outputs": [
                {
                    "internalType": "uint256",
                    "name": "",
                    "type": "uint256"
                }
            ],
            "stateMutability": "view",
            "type": "function"
        },
        {
            "inputs": [
                {
                    "internalType": "bytes32",
                    "name": "role",
                    "type": "bytes32"
                },
                {
                    "internalType": "address",
                    "name": "account",
                    "type": "address"
                }
            ],
            "name": "renounceRole",
            "outputs": [],
            "stateMutability": "nonpayable",
            "type": "function"
        },
        {
            "inputs": [
                {
                    "internalType": "bytes32",
                    "name": "role",
                    "type": "bytes32"
                },
                {
                    "internalType": "address",
                    "name": "account",
                    "type": "address"
                }
            ],
            "name": "revokeRole",
            "outputs": [],
            "stateMutability": "nonpayable",
            "type": "function"
        },
        {
            "inputs": [
                {
                    "internalType": "address",
                    "name": "_admin",
                    "type": "address"
                },
                {
                    "internalType": "address[]",
                    "name": "supportedTokens",
                    "type": "address[]"
                }
            ],
            "name": "initVault",
            "outputs": [],
            "stateMutability": "nonpayable",
            "type": "function"
        },
        {
            "inputs": [
                {
                    "internalType": "address",
                    "name": "_rewardsOperator",
                    "type": "address"
                }
            ],
            "name": "addRewardsOperator",
            "outputs": [],
            "stateMutability": "nonpayable",
            "type": "function"
        },
        {
            "inputs": [
                {
                    "internalType": "address",
                    "name": "_user",
                    "type": "address"
                },
                {
                    "internalType": "address",
                    "name": "_token",
                    "type": "address"
                },
                {
                    "internalType": "uint256",
                    "name": "_amount",
                    "type": "uint256"
                }
            ],
            "name": "payRewards",
            "outputs": [],
            "stateMutability": "nonpayable",
            "type": "function"
        },
        {
            "inputs": [
                {
                    "internalType": "address",
                    "name": "_token",
                    "type": "address"
                },
                {
                    "internalType": "uint256",
                    "name": "_amount",
                    "type": "uint256"
                }
            ],
            "name": "deposit",
            "outputs": [],
            "stateMutability": "nonpayable",
            "type": "function"
        },
        {
            "inputs": [
                {
                    "internalType": "address",
                    "name": "_token",
                    "type": "address"
                }
            ],
            "name": "addSupportedToken",
            "outputs": [],
            "stateMutability": "nonpayable",
            "type": "function"
        },
        {
            "inputs": [
                {
                    "internalType": "address",
                    "name": "_token",
                    "type": "address"
                }
            ],
            "name": "removeSupportedToken",
            "outputs": [],
            "stateMutability": "nonpayable",
            "type": "function"
        },
        {
            "inputs": [
                {
                    "internalType": "address",
                    "name": "_withdrawTo",
                    "type": "address"
                }
            ],
            "name": "withdrawExtraSupportedTokens",
            "outputs": [],
            "stateMutability": "nonpayable",
            "type": "function"
        },
        {
            "inputs": [
                {
                    "internalType": "address",
                    "name": "_token",
                    "type": "address"
                },
                {
                    "internalType": "address",
                    "name": "_withdrawTo",
                    "type": "address"
                }
            ],
            "name": "withdrawExtraUnsupportedToken",
            "outputs": [],
            "stateMutability": "nonpayable",
            "type": "function"
        },
        {
            "inputs": [
                {
                    "internalType": "address",
                    "name": "newVaultPackage",
                    "type": "address"
                }
            ],
            "name": "migrate",
            "outputs": [],
            "stateMutability": "nonpayable",
            "type": "function"
        },
        {
            "inputs": [
                {
                    "internalType": "bytes4",
                    "name": "interfaceId",
                    "type": "bytes4"
                }
            ],
            "name": "supportsInterface",
            "outputs": [
                {
                    "internalType": "bool",
                    "name": "",
                    "type": "bool"
                }
            ],
            "stateMutability": "pure",
            "type": "function"
        }
    ],
    "bytecode": "0x60806040523480156200001157600080fd5b506200001c62000022565b62000112565b600054610100900460ff1615620000565760405162461bcd60e51b81526004016200004d90620000b0565b60405180910390fd5b60005460ff9081161015620000ae576000805460ff191660ff9081179091556040517f7f26b83ff96e1f2b6a682f133852f6798a09c465da95921460cefb384740249891620000a59162000102565b60405180910390a15b565b60208082528101620000fc81602781527f496e697469616c697a61626c653a20636f6e747261637420697320696e697469602082015266616c697a696e6760c81b604082015260600190565b92915050565b60ff8216815260208101620000fc565b6122e780620001226000396000f3fe608060405234801561001057600080fd5b50600436106101585760003560e01c80636d69fcaf116100c3578063caba58841161007c578063caba5884146102f3578063cb13cddb14610313578063ce5494bb14610333578063d547741f14610346578063da0c1a8814610359578063e7bdcf9d1461036c57600080fd5b80636d69fcaf1461028a578063763191901461029d57806391d14854146102b057806396a95086146102c3578063a217fddf146102d8578063bd02ff91146102e057600080fd5b80632f2ff15d116101155780632f2ff15d1461020e57806336568abe14610221578063389ed2671461023457806347e7ef241461025b5780635c975abb1461026e578063659232321461027757600080fd5b806301ffc9a71461015d57806316a72c1414610186578063240028e81461019b578063248a9ca3146101be5780632692c59f146101ee5780632c678c6414610201575b600080fd5b61017061016b3660046117b7565b61037f565b60405161017d91906117e2565b60405180910390f35b610199610194366004611867565b6103b6565b005b6101706101a93660046118c3565b60996020526000908152604090205460ff1681565b6101e16101cc3660046118f5565b60009081526065602052604090206001015490565b60405161017d919061191c565b6101996101fc3660046118f5565b6104e1565b609b546101709060ff1681565b61019961021c36600461192a565b610518565b61019961022f36600461192a565b610542565b6101e17f139c2898040ef16910dc9f44dc697df79363da767d8bc92f2e310312b816e46d81565b610199610269366004611967565b610574565b6101e160975481565b61019961028536600461199a565b610779565b6101996102983660046118c3565b610849565b6101996102ab3660046118c3565b610880565b6101706102be36600461192a565b610994565b6101e160008051602061229283398151915281565b6101e1600081565b6101996102ee3660046118c3565b6109bf565b6103066103013660046118f5565b6109e2565b60405161017d91906119c5565b6101e16103213660046118c3565b60986020526000908152604090205481565b6101996103413660046118c3565b610a0c565b61019961035436600461192a565b610b9f565b6101996103673660046119d3565b610bc4565b61019961037a3660046118c3565b610e21565b60006001600160e01b031982166301ffc9a760e01b14806103b057506001600160e01b03198216633485434760e11b145b92915050565b600054610100900460ff16158080156103d65750600054600160ff909116105b806103f05750303b1580156103f0575060005460ff166001145b6104155760405162461bcd60e51b815260040161040c90611a71565b60405180910390fd5b6000805460ff191660011790558015610438576000805461ff0019166101001790555b60005b828110156104845761047284848381811061045857610458611a81565b905060200201602081019061046d91906118c3565b610f44565b8061047c81611aad565b91505061043b565b50610490600085611020565b80156104db576000805461ff00191690556040517f7f26b83ff96e1f2b6a682f133852f6798a09c465da95921460cefb3847402498906104d290600190611adb565b60405180910390a15b50505050565b7f139c2898040ef16910dc9f44dc697df79363da767d8bc92f2e310312b816e46d61050b8161108a565b61051482611097565b5050565b6000828152606560205260409020600101546105338161108a565b61053d83836110d0565b505050565b6001600160a01b038116331461056a5760405162461bcd60e51b815260040161040c90611b35565b6105148282611156565b600180609754166000148061058f575061058f600033610994565b6105ab5760405162461bcd60e51b815260040161040c90611b6e565b6105c360008051602061229283398151915233610994565b6105df5760405162461bcd60e51b815260040161040c90611ba5565b6001600160a01b03831660009081526099602052604090205460ff166106175760405162461bcd60e51b815260040161040c90611bdd565b609b5460ff161561063a5760405162461bcd60e51b815260040161040c90611c1a565b6040516370a0823160e01b81526000906001600160a01b038516906370a08231906106699030906004016119c5565b602060405180830381865afa158015610686573d6000803e3d6000fd5b505050506040513d601f19601f820116820180604052508101906106aa9190611c35565b90506106c16001600160a01b0385163330866111bd565b6040516370a0823160e01b81526000906001600160a01b038616906370a08231906106f09030906004016119c5565b602060405180830381865afa15801561070d573d6000803e3d6000fd5b505050506040513d601f19601f820116820180604052508101906107319190611c35565b9050600061073f8383611c56565b6001600160a01b03871660009081526098602052604081208054929350839290919061076c908490611c69565b9091555050505050505050565b60006107848161108a565b6001600160a01b03831660009081526099602052604090205460ff16156107bd5760405162461bcd60e51b815260040161040c90611ca5565b6040516370a0823160e01b81526000906001600160a01b038516906370a08231906107ec9030906004016119c5565b602060405180830381865afa158015610809573d6000803e3d6000fd5b505050506040513d601f19601f8201168201806040525081019061082d9190611c35565b905080156104db576104db6001600160a01b0385168483611215565b60006108548161108a565b609b5460ff16156108775760405162461bcd60e51b815260040161040c90611c1a565b61051482610f44565b600061088b8161108a565b609b5460ff16156108ae5760405162461bcd60e51b815260040161040c90611c1a565b6001600160a01b03821660009081526099602052604090205460ff166108e65760405162461bcd60e51b815260040161040c90611ce0565b6001600160a01b0382166000908152609860205260409020541561091c5760405162461bcd60e51b815260040161040c90611d1c565b6001600160a01b0382166000908152609960205260409020805460ff1916905561094582611234565b336001600160a01b0316826001600160a01b03167feddce3117927831e55f862ee4b16c60ba431908fc8404f5a2d40c2ac163c3b1442604051610988919061191c565b60405180910390a35050565b60009182526065602090815260408084206001600160a01b0393909316845291905290205460ff1690565b60006109ca8161108a565b610514600080516020612292833981519152836110d0565b609a81815481106109f257600080fd5b6000918252602090912001546001600160a01b0316905081565b6000610a178161108a565b609b5460ff1615610a3a5760405162461bcd60e51b815260040161040c90611c1a565b609754600003610a5c5760405162461bcd60e51b815260040161040c90611d51565b6001600160a01b038216610a825760405162461bcd60e51b815260040161040c90611d8d565b60005b609a54811015610b8d576000609a8281548110610aa457610aa4611a81565b60009182526020808320909101546001600160a01b03168083526098909152604082208290559150610ad99082908690611340565b836001600160a01b03166347e7ef24609a8481548110610afb57610afb611a81565b60009182526020808320909101546001600160a01b03868116845260989092526040928390205492516001600160e01b031960e086901b168152610b4793929091169190600401611d9d565b600060405180830381600087803b158015610b6157600080fd5b505af1158015610b75573d6000803e3d6000fd5b50505050508080610b8590611aad565b915050610a85565b5050609b805460ff1916600117905550565b600082815260656020526040902060010154610bba8161108a565b61053d8383611156565b6001806097541660001480610bdf5750610bdf600033610994565b610bfb5760405162461bcd60e51b815260040161040c90611b6e565b610c1360008051602061229283398151915233610994565b610c2f5760405162461bcd60e51b815260040161040c90611de2565b6001600160a01b03831660009081526099602052604090205460ff16610c675760405162461bcd60e51b815260040161040c90611bdd565b81600003610c875760405162461bcd60e51b815260040161040c90611e14565b6001600160a01b038316600090815260986020526040902054821115610cbf5760405162461bcd60e51b815260040161040c90611e58565b609b5460ff1615610ce25760405162461bcd60e51b815260040161040c90611c1a565b6040516370a0823160e01b81526000906001600160a01b038516906370a0823190610d119030906004016119c5565b602060405180830381865afa158015610d2e573d6000803e3d6000fd5b505050506040513d601f19601f82011682018060405250810190610d529190611c35565b9050610d686001600160a01b0385168685611215565b6040516370a0823160e01b81526000906001600160a01b038616906370a0823190610d979030906004016119c5565b602060405180830381865afa158015610db4573d6000803e3d6000fd5b505050506040513d601f19601f82011682018060405250810190610dd89190611c35565b90506000610de68284611c56565b6001600160a01b038716600090815260986020526040812080549293508392909190610e13908490611c56565b909155505050505050505050565b6000610e2c8161108a565b60005b609a5481101561053d57600080609a8381548110610e4f57610e4f611a81565b60009182526020822001546040516370a0823160e01b81526001600160a01b03909116925082906370a0823190610e8a9030906004016119c5565b602060405180830381865afa158015610ea7573d6000803e3d6000fd5b505050506040513d601f19601f82011682018060405250810190610ecb9190611c35565b6001600160a01b038316600090815260986020526040902054909150811115610f14576001600160a01b038216600090815260986020526040902054610f119082611c56565b92505b8215610f2e57610f2e6001600160a01b0383168785611215565b5050508080610f3c90611aad565b915050610e2f565b6001600160a01b03811660009081526099602052604090205460ff1615610f7d5760405162461bcd60e51b815260040161040c90611e93565b6001600160a01b038116600081815260996020526040808220805460ff19166001908117909155609a805491820181559092527f44da158ba27f9252712a74ff6a55c5d531f69609f1f6e7f17c4443a8e2089be490910180546001600160a01b03191683179055513391907f7156d0b8d9ed8d1117b97d76a15a304bad2749fc23251c2c7ed65a06989528509061101590429061191c565b60405180910390a350565b600054610100900460ff166110475760405162461bcd60e51b815260040161040c90611eeb565b61104f6113f4565b61105a6000826110d0565b6110847f139c2898040ef16910dc9f44dc697df79363da767d8bc92f2e310312b816e46d826110d0565b50609755565b611094813361141d565b50565b60975481811614806110af57506110af600033610994565b6110cb5760405162461bcd60e51b815260040161040c90611f28565b609755565b6110da8282610994565b6105145760008281526065602090815260408083206001600160a01b03851684529091529020805460ff191660011790556111123390565b6001600160a01b0316816001600160a01b0316837f2f8788117e7eff1d82e926ec794901d17c78024a50270940304540a733656f0d60405160405180910390a45050565b6111608282610994565b156105145760008281526065602090815260408083206001600160a01b0385168085529252808320805460ff1916905551339285917ff6391f5c32d9c69d2a47ea670b442974b53935d1edc7fd64eb21e047a839171b9190a45050565b6104db846323b872dd60e01b8585856040516024016111de93929190611f38565b60408051601f198184030181529190526020810180516001600160e01b03166001600160e01b031990931692909217909152611481565b61053d8363a9059cbb60e01b84846040516024016111de929190611d9d565b60005b609a5481101561130957816001600160a01b0316609a828154811061125e5761125e611a81565b6000918252602090912001546001600160a01b0316036112f757609a805461128890600190611c56565b8154811061129857611298611a81565b600091825260209091200154609a80546001600160a01b0390921691839081106112c4576112c4611a81565b9060005260206000200160006101000a8154816001600160a01b0302191690836001600160a01b03160217905550611309565b8061130181611aad565b915050611237565b50609a80548061131b5761131b611f60565b600082815260209020810160001990810180546001600160a01b031916905501905550565b8015806113b95750604051636eb1769f60e11b81526001600160a01b0384169063dd62ed3e906113769030908690600401611f76565b602060405180830381865afa158015611393573d6000803e3d6000fd5b505050506040513d601f19601f820116820180604052508101906113b79190611c35565b155b6113d55760405162461bcd60e51b815260040161040c90611fe4565b61053d8363095ea7b360e01b84846040516024016111de929190611d9d565b600054610100900460ff1661141b5760405162461bcd60e51b815260040161040c90611eeb565b565b6114278282610994565b6105145761143f816001600160a01b03166014611510565b61144a836020611510565b60405160200161145b92919061203a565b60408051601f198184030181529082905262461bcd60e51b825261040c916004016120c4565b60006114d6826040518060400160405280602081526020017f5361666545524332303a206c6f772d6c6576656c2063616c6c206661696c6564815250856001600160a01b03166116839092919063ffffffff16565b80519091501561053d57808060200190518101906114f491906120e8565b61053d5760405162461bcd60e51b815260040161040c90612150565b6060600061151f836002612160565b61152a906002611c69565b67ffffffffffffffff8111156115425761154261217f565b6040519080825280601f01601f19166020018201604052801561156c576020820181803683370190505b509050600360fc1b8160008151811061158757611587611a81565b60200101906001600160f81b031916908160001a905350600f60fb1b816001815181106115b6576115b6611a81565b60200101906001600160f81b031916908160001a90535060006115da846002612160565b6115e5906001611c69565b90505b600181111561165d576f181899199a1a9b1b9c1cb0b131b232b360811b85600f166010811061161957611619611a81565b1a60f81b82828151811061162f5761162f611a81565b60200101906001600160f81b031916908160001a90535060049490941c9361165681612195565b90506115e8565b50831561167c5760405162461bcd60e51b815260040161040c906121de565b9392505050565b6060611692848460008561169a565b949350505050565b6060824710156116bc5760405162461bcd60e51b815260040161040c90612231565b6001600160a01b0385163b6116e35760405162461bcd60e51b815260040161040c90612275565b600080866001600160a01b031685876040516116ff9190612285565b60006040518083038185875af1925050503d806000811461173c576040519150601f19603f3d011682016040523d82523d6000602084013e611741565b606091505b509150915061175182828661175c565b979650505050505050565b6060831561176b57508161167c565b82511561177b5782518084602001fd5b8160405162461bcd60e51b815260040161040c91906120c4565b6001600160e01b031981165b811461109457600080fd5b80356103b081611795565b6000602082840312156117cc576117cc600080fd5b600061169284846117ac565b8015155b82525050565b602081016103b082846117d8565b60006001600160a01b0382166103b0565b6117a1816117f0565b80356103b081611801565b60008083601f84011261182a5761182a600080fd5b50813567ffffffffffffffff81111561184557611845600080fd5b60208301915083602082028301111561186057611860600080fd5b9250929050565b60008060006040848603121561187f5761187f600080fd5b600061188b868661180a565b935050602084013567ffffffffffffffff8111156118ab576118ab600080fd5b6118b786828701611815565b92509250509250925092565b6000602082840312156118d8576118d8600080fd5b6000611692848461180a565b806117a1565b80356103b0816118e4565b60006020828403121561190a5761190a600080fd5b600061169284846118ea565b806117dc565b602081016103b08284611916565b6000806040838503121561194057611940600080fd5b600061194c85856118ea565b925050602061195d8582860161180a565b9150509250929050565b6000806040838503121561197d5761197d600080fd5b6000611989858561180a565b925050602061195d858286016118ea565b600080604083850312156119b0576119b0600080fd5b600061194c858561180a565b6117dc816117f0565b602081016103b082846119bc565b6000806000606084860312156119eb576119eb600080fd5b60006119f7868661180a565b9350506020611a088682870161180a565b9250506040611a19868287016118ea565b9150509250925092565b602e81526000602082017f496e697469616c697a61626c653a20636f6e747261637420697320616c72656181526d191e481a5b9a5d1a585b1a5e995960921b602082015291505b5060400190565b602080825281016103b081611a23565b634e487b7160e01b600052603260045260246000fd5b634e487b7160e01b600052601160045260246000fd5b60006000198203611ac057611ac0611a97565b5060010190565b600060ff82166103b0565b6117dc81611ac7565b602081016103b08284611ad2565b602f81526000602082017f416363657373436f6e74726f6c3a2063616e206f6e6c792072656e6f756e636581526e103937b632b9903337b91039b2b63360891b60208201529150611a6a565b602080825281016103b081611ae9565b600f81526000602082016e1c185d5cd9590818dbdb9d1c9858dd608a1b815291505b5060200190565b602080825281016103b081611b45565b601081526000602082016f6465706f7369743a204e6f20726f6c6560801b81529150611b67565b602080825281016103b081611b7e565b60118152600060208201702ab739bab83837b93a32b2103a37b5b2b760791b81529150611b67565b602080825281016103b081611bb5565b60168152600060208201751d985d5b1d08185b1c9958591e481b5a59dc985d195960521b81529150611b67565b602080825281016103b081611bed565b80516103b0816118e4565b600060208284031215611c4a57611c4a600080fd5b60006116928484611c2a565b818103818111156103b0576103b0611a97565b808201808211156103b0576103b0611a97565b60128152600060208201711d1bdad95b881a5cc81cdd5c1c1bdc9d195960721b81529150611b67565b602080825281016103b081611c7c565b6014815260006020820173151bdad95b88191bd95cc81b9bdd08195e1a5cdd60621b81529150611b67565b602080825281016103b081611cb5565b6015815260006020820174546f6b656e206973207374696c6c20696e2075736560581b81529150611b67565b602080825281016103b081611cf0565b600e81526000602082016d726571756972656420706175736560901b81529150611b67565b602080825281016103b081611d2c565b60158152600060208201743bb4ba34323930bbaa379d102d32b9379030b2323960591b81529150611b67565b602080825281016103b081611d61565b60408101611dab82856119bc565b61167c6020830184611916565b6013815260006020820172706179526577617264733a204e6f20726f6c6560681b81529150611b67565b602080825281016103b081611db8565b600b81526000602082016a616d6f756e74207a65726f60a81b81529150611b67565b602080825281016103b081611df2565b601e81526000602082017f706179526577617264733a206e6f7420656e6f756768206465706f736974000081529150611b67565b602080825281016103b081611e24565b6014815260006020820173546f6b656e20616c72656164792065786973747360601b81529150611b67565b602080825281016103b081611e68565b602b81526000602082017f496e697469616c697a61626c653a20636f6e7472616374206973206e6f74206981526a6e697469616c697a696e6760a81b60208201529150611a6a565b602080825281016103b081611ea3565b60168152600060208201756f6e6c792061646d696e2063616e20756e706175736560501b81529150611b67565b602080825281016103b081611efb565b60608101611f4682866119bc565b611f5360208301856119bc565b6116926040830184611916565b634e487b7160e01b600052603160045260246000fd5b60408101611f8482856119bc565b61167c60208301846119bc565b603681526000602082017f5361666545524332303a20617070726f76652066726f6d206e6f6e2d7a65726f81527520746f206e6f6e2d7a65726f20616c6c6f77616e636560501b60208201529150611a6a565b602080825281016103b081611f91565b60005b8381101561200f578181015183820152602001611ff7565b50506000910152565b6000612022825190565b612030818560208601611ff4565b9290920192915050565b7f416363657373436f6e74726f6c3a206163636f756e74200000000000000000008152601701600061206c8285612018565b7001034b99036b4b9b9b4b733903937b6329607d1b815260110191506116928284612018565b600061209c825190565b8084526020840193506120b3818560208601611ff4565b601f01601f19169290920192915050565b6020808252810161167c8184612092565b8015156117a1565b80516103b0816120d5565b6000602082840312156120fd576120fd600080fd5b600061169284846120dd565b602a81526000602082017f5361666545524332303a204552433230206f7065726174696f6e20646964206e8152691bdd081cdd58d8d9595960b21b60208201529150611a6a565b602080825281016103b081612109565b600081600019048311821515161561217a5761217a611a97565b500290565b634e487b7160e01b600052604160045260246000fd5b6000816121a4576121a4611a97565b506000190190565b60208082527f537472696e67733a20686578206c656e67746820696e73756666696369656e7491019081526000611b67565b602080825281016103b0816121ac565b602681526000602082017f416464726573733a20696e73756666696369656e742062616c616e636520666f8152651c8818d85b1b60d21b60208201529150611a6a565b602080825281016103b0816121ee565b601d81526000602082017f416464726573733a2063616c6c20746f206e6f6e2d636f6e747261637400000081529150611b67565b602080825281016103b081612241565b600061167c828461201856fe984d8fbf3757a627c8e1f2461cca7c34d6be71932abdf62d917cf56c118a3ee0a26469706673582212201e24f1b298cd9a3375cf455f2786a40e8ba6d005d0f5468c081f579d376cdecc64736f6c63430008100033",
    "immutableReferences": {},
    "source": "// SPDX-License-Identifier: AGPL 3.0\n// Original Copyright Aurora\n// Copyright Fathom 2022\n\npragma solidity 0.8.16;\nimport \"../interfaces/IVault.sol\";\nimport \"../interfaces/IVaultEvents.sol\";\nimport \"../../../tokens/ERC20/IERC20.sol\";\nimport \"../../../../common/security/AdminPausable.sol\";\nimport \"../../../../common/SafeERC20.sol\";\nimport \"../../../../common/introspection/ERC165.sol\";\n\n// solhint-disable not-rely-on-time\ncontract VaultPackage is IVault, IVaultEvents, AdminPausable {\n    using SafeERC20 for IERC20;\n    bytes32 public constant REWARDS_OPERATOR_ROLE = keccak256(\"REWARDS_OPERATOR_ROLE\");\n    mapping(address => uint256) public deposited;\n    mapping(address => bool) public override isSupportedToken;\n    address[] public listOfSupportedTokens;\n    bool public override migrated;\n\n    constructor() {\n        _disableInitializers();\n    }\n\n    function initVault(address _admin, address[] calldata supportedTokens) external override initializer {\n        for (uint256 i = 0; i < supportedTokens.length; i++) {\n            _addSupportedToken(supportedTokens[i]);\n        }\n        pausableInit(0, _admin);\n    }\n\n    function addRewardsOperator(address _rewardsOperator) external override onlyRole(DEFAULT_ADMIN_ROLE) {\n        _grantRole(REWARDS_OPERATOR_ROLE, _rewardsOperator);\n    }\n\n    function payRewards(\n        address _user,\n        address _token,\n        uint256 _amount\n    ) external override pausable(1) {\n        require(hasRole(REWARDS_OPERATOR_ROLE, msg.sender), \"payRewards: No role\");\n        require(isSupportedToken[_token], \"Unsupported token\");\n        require(_amount != 0, \"amount zero\");\n        require(deposited[_token] >= _amount, \"payRewards: not enough deposit\");\n        require(!migrated,\"vault already migrated\");\n\n        uint256 previousBalance = IERC20(_token).balanceOf(address(this));\n        IERC20(_token).safeTransfer(_user, _amount);\n        uint256 newBalance = IERC20(_token).balanceOf(address(this));\n        uint256 trueDeposit = previousBalance - newBalance;\n        deposited[_token] -= trueDeposit;\n    }\n\n    function deposit(\n        address _token,\n        uint256 _amount\n    ) external override pausable(1) {\n        require(hasRole(REWARDS_OPERATOR_ROLE, msg.sender), \"deposit: No role\");\n        require(isSupportedToken[_token], \"Unsupported token\");\n        require(!migrated,\"vault already migrated\");\n        \n        uint256 previousBalance = IERC20(_token).balanceOf(address(this));\n        IERC20(_token).safeTransferFrom(msg.sender, address(this), _amount);\n        uint256 newBalance = IERC20(_token).balanceOf(address(this));\n        uint256 trueDeposit = newBalance - previousBalance;\n        deposited[_token] += trueDeposit;\n    }\n\n    /// @notice adds token as a supported rewards token by Vault\n    /// supported tokens means any future stream token should be\n    /// whitelisted here\n    /// @param _token stream ERC20 token address\n    function addSupportedToken(address _token) external override onlyRole(DEFAULT_ADMIN_ROLE) {\n        require(!migrated,\"vault already migrated\");\n        _addSupportedToken(_token);\n    }\n\n    /// @notice removed token as a supported rewards token by Treasury\n    /// @param _token stream ERC20 token address\n    function removeSupportedToken(address _token) external override onlyRole(DEFAULT_ADMIN_ROLE) {\n        require(!migrated,\"vault already migrated\");\n        require(isSupportedToken[_token], \"Token does not exist\");\n        require(deposited[_token] == 0, \"Token is still in use\");\n        \n        isSupportedToken[_token] = false;\n        _removeToken(_token);\n        emit TokenRemoved(_token, msg.sender, block.timestamp);\n    }\n\n    function withdrawExtraSupportedTokens(address _withdrawTo) external override onlyRole(DEFAULT_ADMIN_ROLE) {\n        for(uint i = 0; i < listOfSupportedTokens.length;i++){\n            uint256 balanceToWithdraw;\n            address _token = listOfSupportedTokens[i];\n            uint256 balanceInContract = IERC20(_token).balanceOf(address(this));\n            if(balanceInContract > deposited[_token]){\n                balanceToWithdraw =  balanceInContract - deposited[_token];\n            }\n            if(balanceToWithdraw > 0){\n                IERC20(_token).safeTransfer(_withdrawTo, balanceToWithdraw);\n            }  \n        }  \n    }\n\n    function withdrawExtraUnsupportedToken(address _token,address _withdrawTo) external override onlyRole(DEFAULT_ADMIN_ROLE) {\n        require(!isSupportedToken[_token],\"token is supported\");\n        uint256 balanceInContract = IERC20(_token).balanceOf(address(this));\n        if(balanceInContract > 0){\n            IERC20(_token).safeTransfer(_withdrawTo, balanceInContract);\n        }\n    }\n\n    /// @notice we believe newVaultPackage is safe\n    function migrate(address newVaultPackage) external override onlyRole(DEFAULT_ADMIN_ROLE) {\n        require(!migrated, \"vault already migrated\");\n        require(paused != 0, \"required pause\");\n        require(newVaultPackage != address(0), \"withdrawTo: Zero addr\");\n        for (uint256 i = 0; i < listOfSupportedTokens.length; i++) {\n            address token = listOfSupportedTokens[i];\n            deposited[token] = 0;\n            IERC20(token).safeApprove(newVaultPackage, deposited[token]);\n            IVault(newVaultPackage).deposit(listOfSupportedTokens[i], deposited[token]);\n        }\n        migrated = true;\n    }\n\n    function supportsInterface(bytes4 interfaceId) public pure override returns (bool) {\n        return interfaceId == type(IERC165).interfaceId ||\n               interfaceId == type(IVault).interfaceId;\n    }\n\n    function _addSupportedToken(address _token) internal {\n        require(!isSupportedToken[_token], \"Token already exists\");\n        isSupportedToken[_token] = true;\n        listOfSupportedTokens.push(_token);\n        emit TokenAdded(_token, msg.sender, block.timestamp);\n    }\n\n    function _removeToken(address _token) internal {\n        for (uint256 i = 0; i < listOfSupportedTokens.length; i++) {\n            if (listOfSupportedTokens[i] == _token) {\n                listOfSupportedTokens[i] = listOfSupportedTokens[listOfSupportedTokens.length - 1];\n                break;\n            }\n        }\n        listOfSupportedTokens.pop();\n    }\n\n    \n}\n",
    "sourcePath": "/Users/subiksinghshrestha/Documents/FATHOM/fathom-dao-smart-contracts/contracts/dao/staking/vault/packages/VaultPackage.sol",
    "compiler": {
        "name": "solc",
        "version": "0.8.16+commit.07a7930e.Darwin.appleclang"
    },
    "schemaVersion": "3.4.10",
    "updatedAt": "2023-02-04T08:03:31.945Z",
    "devdoc": {
        "kind": "dev",
        "methods": {
            "addSupportedToken(address)": {
                "params": {
                    "_token": "stream ERC20 token address"
                }
            },
            "adminPause(uint256)": {
                "details": "adminPause pauses this contract. Only pause role or default admin role can access this function.",
                "params": {
                    "flags": "flags variable is used for pausing this contract."
                }
            },
            "getRoleAdmin(bytes32)": {
                "details": "Returns the admin role that controls `role`. See {grantRole} and {revokeRole}. To change a role's admin, use {_setRoleAdmin}."
            },
            "grantRole(bytes32,address)": {
                "details": "Grants `role` to `account`. If `account` had not been already granted `role`, emits a {RoleGranted} event. Requirements: - the caller must have ``role``'s admin role. May emit a {RoleGranted} event."
            },
            "hasRole(bytes32,address)": {
                "details": "Returns `true` if `account` has been granted `role`."
            },
            "removeSupportedToken(address)": {
                "params": {
                    "_token": "stream ERC20 token address"
                }
            },
            "renounceRole(bytes32,address)": {
                "details": "Revokes `role` from the calling account. Roles are often managed via {grantRole} and {revokeRole}: this function's purpose is to provide a mechanism for accounts to lose their privileges if they are compromised (such as when a trusted device is misplaced). If the calling account had been revoked `role`, emits a {RoleRevoked} event. Requirements: - the caller must be `account`. May emit a {RoleRevoked} event."
            },
            "revokeRole(bytes32,address)": {
                "details": "Revokes `role` from `account`. If `account` had been granted `role`, emits a {RoleRevoked} event. Requirements: - the caller must have ``role``'s admin role. May emit a {RoleRevoked} event."
            },
            "supportsInterface(bytes4)": {
                "details": "See {IERC165-supportsInterface}."
            }
        },
        "version": 1
    },
    "userdoc": {
        "kind": "user",
        "methods": {
            "addSupportedToken(address)": {
                "notice": "adds token as a supported rewards token by Vault supported tokens means any future stream token should be whitelisted here"
            },
            "migrate(address)": {
                "notice": "we believe newVaultPackage is safe"
            },
            "removeSupportedToken(address)": {
                "notice": "removed token as a supported rewards token by Treasury"
            }
        },
        "version": 1
    }
}