{
    "contractName": "VaultPackage",
    "abi": [
        {
            "anonymous": false,
            "inputs": [
                {
                    "indexed": false,
                    "internalType": "uint8",
                    "name": "version",
                    "type": "uint8"
                }
            ],
            "name": "Initialized",
            "type": "event"
        },
        {
            "anonymous": false,
            "inputs": [
                {
                    "indexed": true,
                    "internalType": "bytes32",
                    "name": "role",
                    "type": "bytes32"
                },
                {
                    "indexed": true,
                    "internalType": "bytes32",
                    "name": "previousAdminRole",
                    "type": "bytes32"
                },
                {
                    "indexed": true,
                    "internalType": "bytes32",
                    "name": "newAdminRole",
                    "type": "bytes32"
                }
            ],
            "name": "RoleAdminChanged",
            "type": "event"
        },
        {
            "anonymous": false,
            "inputs": [
                {
                    "indexed": true,
                    "internalType": "bytes32",
                    "name": "role",
                    "type": "bytes32"
                },
                {
                    "indexed": true,
                    "internalType": "address",
                    "name": "account",
                    "type": "address"
                },
                {
                    "indexed": true,
                    "internalType": "address",
                    "name": "sender",
                    "type": "address"
                }
            ],
            "name": "RoleGranted",
            "type": "event"
        },
        {
            "anonymous": false,
            "inputs": [
                {
                    "indexed": true,
                    "internalType": "bytes32",
                    "name": "role",
                    "type": "bytes32"
                },
                {
                    "indexed": true,
                    "internalType": "address",
                    "name": "account",
                    "type": "address"
                },
                {
                    "indexed": true,
                    "internalType": "address",
                    "name": "sender",
                    "type": "address"
                }
            ],
            "name": "RoleRevoked",
            "type": "event"
        },
        {
            "anonymous": false,
            "inputs": [
                {
                    "indexed": true,
                    "internalType": "address",
                    "name": "tokenAddress",
                    "type": "address"
                },
                {
                    "indexed": true,
                    "internalType": "address",
                    "name": "addedBy",
                    "type": "address"
                },
                {
                    "indexed": false,
                    "internalType": "uint256",
                    "name": "timestamp",
                    "type": "uint256"
                }
            ],
            "name": "TokenAdded",
            "type": "event"
        },
        {
            "anonymous": false,
            "inputs": [
                {
                    "indexed": true,
                    "internalType": "address",
                    "name": "tokenAddress",
                    "type": "address"
                },
                {
                    "indexed": true,
                    "internalType": "address",
                    "name": "removedBy",
                    "type": "address"
                },
                {
                    "indexed": false,
                    "internalType": "uint256",
                    "name": "timestamp",
                    "type": "uint256"
                }
            ],
            "name": "TokenRemoved",
            "type": "event"
        },
        {
            "inputs": [],
            "name": "DEFAULT_ADMIN_ROLE",
            "outputs": [
                {
                    "internalType": "bytes32",
                    "name": "",
                    "type": "bytes32"
                }
            ],
            "stateMutability": "view",
            "type": "function"
        },
        {
            "inputs": [],
            "name": "PAUSE_ROLE",
            "outputs": [
                {
                    "internalType": "bytes32",
                    "name": "",
                    "type": "bytes32"
                }
            ],
            "stateMutability": "view",
            "type": "function"
        },
        {
            "inputs": [],
            "name": "REWARDS_OPERATOR_ROLE",
            "outputs": [
                {
                    "internalType": "bytes32",
                    "name": "",
                    "type": "bytes32"
                }
            ],
            "stateMutability": "view",
            "type": "function"
        },
        {
            "inputs": [
                {
                    "internalType": "uint256",
                    "name": "flags",
                    "type": "uint256"
                }
            ],
            "name": "adminPause",
            "outputs": [],
            "stateMutability": "nonpayable",
            "type": "function"
        },
        {
            "inputs": [
                {
                    "internalType": "bytes32",
                    "name": "role",
                    "type": "bytes32"
                }
            ],
            "name": "getRoleAdmin",
            "outputs": [
                {
                    "internalType": "bytes32",
                    "name": "",
                    "type": "bytes32"
                }
            ],
            "stateMutability": "view",
            "type": "function"
        },
        {
            "inputs": [
                {
                    "internalType": "bytes32",
                    "name": "role",
                    "type": "bytes32"
                },
                {
                    "internalType": "address",
                    "name": "account",
                    "type": "address"
                }
            ],
            "name": "grantRole",
            "outputs": [],
            "stateMutability": "nonpayable",
            "type": "function"
        },
        {
            "inputs": [
                {
                    "internalType": "bytes32",
                    "name": "role",
                    "type": "bytes32"
                },
                {
                    "internalType": "address",
                    "name": "account",
                    "type": "address"
                }
            ],
            "name": "hasRole",
            "outputs": [
                {
                    "internalType": "bool",
                    "name": "",
                    "type": "bool"
                }
            ],
            "stateMutability": "view",
            "type": "function"
        },
        {
            "inputs": [
                {
                    "internalType": "address",
                    "name": "",
                    "type": "address"
                }
            ],
            "name": "isSupportedToken",
            "outputs": [
                {
                    "internalType": "bool",
                    "name": "",
                    "type": "bool"
                }
            ],
            "stateMutability": "view",
            "type": "function"
        },
        {
            "inputs": [],
            "name": "paused",
            "outputs": [
                {
                    "internalType": "uint256",
                    "name": "",
                    "type": "uint256"
                }
            ],
            "stateMutability": "view",
            "type": "function"
        },
        {
            "inputs": [
                {
                    "internalType": "bytes32",
                    "name": "role",
                    "type": "bytes32"
                },
                {
                    "internalType": "address",
                    "name": "account",
                    "type": "address"
                }
            ],
            "name": "renounceRole",
            "outputs": [],
            "stateMutability": "nonpayable",
            "type": "function"
        },
        {
            "inputs": [
                {
                    "internalType": "bytes32",
                    "name": "role",
                    "type": "bytes32"
                },
                {
                    "internalType": "address",
                    "name": "account",
                    "type": "address"
                }
            ],
            "name": "revokeRole",
            "outputs": [],
            "stateMutability": "nonpayable",
            "type": "function"
        },
        {
            "inputs": [
                {
                    "internalType": "bytes4",
                    "name": "interfaceId",
                    "type": "bytes4"
                }
            ],
            "name": "supportsInterface",
            "outputs": [
                {
                    "internalType": "bool",
                    "name": "",
                    "type": "bool"
                }
            ],
            "stateMutability": "view",
            "type": "function"
        },
        {
            "inputs": [
                {
                    "internalType": "address[]",
                    "name": "supportedTokens",
                    "type": "address[]"
                }
            ],
            "name": "initVault",
            "outputs": [],
            "stateMutability": "nonpayable",
            "type": "function"
        },
        {
            "inputs": [
                {
                    "internalType": "address",
                    "name": "_admin",
                    "type": "address"
                },
                {
                    "internalType": "address",
                    "name": "_rewardsOperator",
                    "type": "address"
                }
            ],
            "name": "initAdminAndOperator",
            "outputs": [],
            "stateMutability": "nonpayable",
            "type": "function"
        },
        {
            "inputs": [
                {
                    "internalType": "address",
                    "name": "_user",
                    "type": "address"
                },
                {
                    "internalType": "address",
                    "name": "_token",
                    "type": "address"
                },
                {
                    "internalType": "uint256",
                    "name": "_amount",
                    "type": "uint256"
                }
            ],
            "name": "payRewards",
            "outputs": [],
            "stateMutability": "nonpayable",
            "type": "function"
        },
        {
            "inputs": [
                {
                    "internalType": "address",
                    "name": "_token",
                    "type": "address"
                }
            ],
            "name": "addSupportedToken",
            "outputs": [],
            "stateMutability": "nonpayable",
            "type": "function"
        },
        {
            "inputs": [
                {
                    "internalType": "address",
                    "name": "_token",
                    "type": "address"
                }
            ],
            "name": "removeSupportedToken",
            "outputs": [],
            "stateMutability": "nonpayable",
            "type": "function"
        }
    ],
    "bytecode": "0x608060405234801561001057600080fd5b506113e3806100206000396000f3fe608060405234801561001057600080fd5b506004361061010b5760003560e01c80635c975abb116100a257806396a950861161007157806396a9508614610269578063a217fddf14610290578063d547741f14610298578063da0c1a88146102ab578063da9055ce146102be57600080fd5b80635c975abb146102015780636d69fcaf1461020a578063763191901461021d57806391d148541461023057600080fd5b806327892e28116100de57806327892e28146101a15780632f2ff15d146101b457806336568abe146101c7578063389ed267146101da57600080fd5b806301ffc9a714610110578063240028e814610139578063248a9ca31461015c5780632692c59f1461018c575b600080fd5b61012361011e366004610c59565b6102d1565b6040516101309190610c8c565b60405180910390f35b610123610147366004610cbf565b60996020526000908152604090205460ff1681565b61017f61016a366004610cf1565b60009081526065602052604090206001015490565b6040516101309190610d18565b61019f61019a366004610cf1565b610308565b005b61019f6101af366004610d26565b61039d565b61019f6101c2366004610d63565b6103d6565b61019f6101d5366004610d63565b610400565b61017f7f139c2898040ef16910dc9f44dc697df79363da767d8bc92f2e310312b816e46d81565b61017f60975481565b61019f610218366004610cbf565b610432565b61019f61022b366004610cbf565b6104a5565b61012361023e366004610d63565b60009182526065602090815260408084206001600160a01b0393909316845291905290205460ff1690565b61017f7f984d8fbf3757a627c8e1f2461cca7c34d6be71932abdf62d917cf56c118a3ee081565b61017f600081565b61019f6102a6366004610d63565b6105a7565b61019f6102b9366004610d85565b6105cc565b61019f6102cc366004610e27565b6106c9565b60006001600160e01b03198216637965db0b60e01b148061030257506301ffc9a760e01b6001600160e01b03198316145b92915050565b7f139c2898040ef16910dc9f44dc697df79363da767d8bc92f2e310312b816e46d61033281610745565b609754828116148061037257503360009081527fffdfc1249c027f9191656349feb0761381bb32c9f557e01f419fd08754bf5a1b602052604090205460ff165b6103975760405162461bcd60e51b815260040161038e90610ea6565b60405180910390fd5b50609755565b6103a8600083610752565b6103d27f984d8fbf3757a627c8e1f2461cca7c34d6be71932abdf62d917cf56c118a3ee08261085c565b5050565b6000828152606560205260409020600101546103f181610745565b6103fb838361085c565b505050565b6001600160a01b03811633146104285760405162461bcd60e51b815260040161038e90610f05565b6103d282826108fe565b600061043d81610745565b600180609754166000148061048057503360009081527fffdfc1249c027f9191656349feb0761381bb32c9f557e01f419fd08754bf5a1b602052604090205460ff165b61049c5760405162461bcd60e51b815260040161038e90610f3b565b6103fb83610981565b60006104b081610745565b60018060975416600014806104f357503360009081527fffdfc1249c027f9191656349feb0761381bb32c9f557e01f419fd08754bf5a1b602052604090205460ff165b61050f5760405162461bcd60e51b815260040161038e90610f3b565b6001600160a01b03831660009081526099602052604090205460ff166105475760405162461bcd60e51b815260040161038e90610f7f565b6001600160a01b03831660008181526099602052604090819020805460ff19169055513391907feddce3117927831e55f862ee4b16c60ba431908fc8404f5a2d40c2ac163c3b149061059a904290610d18565b60405180910390a3505050565b6000828152606560205260409020600101546105c281610745565b6103fb83836108fe565b3360009081527f6054a2f2b51884f7f966090c9cc0386021fdb59c32a0f2765c6103b9afd3deab602052604090205460ff1661061a5760405162461bcd60e51b815260040161038e90610fc3565b6001600160a01b03821660009081526099602052604090205460ff166106525760405162461bcd60e51b815260040161038e90611007565b60405163a9059cbb60e01b81526001600160a01b0383169063a9059cbb906106809086908590600401611020565b6020604051808303816000875af115801561069f573d6000803e3d6000fd5b505050506040513d601f19601f820116820180604052508101906106c3919061104e565b50505050565b60985460ff16156106ec5760405162461bcd60e51b815260040161038e906110a3565b6098805460ff1916600117905560005b818110156103fb57610733838383818110610719576107196110b3565b905060200201602081019061072e9190610cbf565b610981565b8061073d816110df565b9150506106fc565b61074f8133610a1b565b50565b600054610100900460ff16158080156107725750600054600160ff909116105b8061078c5750303b15801561078c575060005460ff166001145b6107a85760405162461bcd60e51b815260040161038e90611144565b6000805460ff1916600117905580156107cb576000805461ff0019166101001790555b6107d3610a9b565b6107de60008361085c565b6108087f139c2898040ef16910dc9f44dc697df79363da767d8bc92f2e310312b816e46d8361085c565b609783905580156103fb576000805461ff00191690556040517f7f26b83ff96e1f2b6a682f133852f6798a09c465da95921460cefb38474024989061084f90600190611168565b60405180910390a1505050565b60008281526065602090815260408083206001600160a01b038516845290915290205460ff166103d25760008281526065602090815260408083206001600160a01b03851684529091529020805460ff191660011790556108ba3390565b6001600160a01b0316816001600160a01b0316837f2f8788117e7eff1d82e926ec794901d17c78024a50270940304540a733656f0d60405160405180910390a45050565b60008281526065602090815260408083206001600160a01b038516845290915290205460ff16156103d25760008281526065602090815260408083206001600160a01b0385168085529252808320805460ff1916905551339285917ff6391f5c32d9c69d2a47ea670b442974b53935d1edc7fd64eb21e047a839171b9190a45050565b6001600160a01b03811660009081526099602052604090205460ff16156109ba5760405162461bcd60e51b815260040161038e906111aa565b6001600160a01b03811660008181526099602052604090819020805460ff19166001179055513391907f7156d0b8d9ed8d1117b97d76a15a304bad2749fc23251c2c7ed65a069895285090610a10904290610d18565b60405180910390a350565b60008281526065602090815260408083206001600160a01b038516845290915290205460ff166103d257610a59816001600160a01b03166014610ac4565b610a64836020610ac4565b604051602001610a75929190611208565b60408051601f198184030181529082905262461bcd60e51b825261038e9160040161129e565b600054610100900460ff16610ac25760405162461bcd60e51b815260040161038e906112f7565b565b60606000610ad3836002611307565b610ade906002611326565b67ffffffffffffffff811115610af657610af661133e565b6040519080825280601f01601f191660200182016040528015610b20576020820181803683370190505b509050600360fc1b81600081518110610b3b57610b3b6110b3565b60200101906001600160f81b031916908160001a905350600f60fb1b81600181518110610b6a57610b6a6110b3565b60200101906001600160f81b031916908160001a9053506000610b8e846002611307565b610b99906001611326565b90505b6001811115610c11576f181899199a1a9b1b9c1cb0b131b232b360811b85600f1660108110610bcd57610bcd6110b3565b1a60f81b828281518110610be357610be36110b3565b60200101906001600160f81b031916908160001a90535060049490941c93610c0a81611354565b9050610b9c565b508315610c305760405162461bcd60e51b815260040161038e9061139d565b9392505050565b6001600160e01b031981165b811461074f57600080fd5b803561030281610c37565b600060208284031215610c6e57610c6e600080fd5b6000610c7a8484610c4e565b949350505050565b8015155b82525050565b602081016103028284610c82565b60006001600160a01b038216610302565b610c4381610c9a565b803561030281610cab565b600060208284031215610cd457610cd4600080fd5b6000610c7a8484610cb4565b80610c43565b803561030281610ce0565b600060208284031215610d0657610d06600080fd5b6000610c7a8484610ce6565b80610c86565b602081016103028284610d12565b60008060408385031215610d3c57610d3c600080fd5b6000610d488585610cb4565b9250506020610d5985828601610cb4565b9150509250929050565b60008060408385031215610d7957610d79600080fd5b6000610d488585610ce6565b600080600060608486031215610d9d57610d9d600080fd5b6000610da98686610cb4565b9350506020610dba86828701610cb4565b9250506040610dcb86828701610ce6565b9150509250925092565b60008083601f840112610dea57610dea600080fd5b50813567ffffffffffffffff811115610e0557610e05600080fd5b602083019150836020820283011115610e2057610e20600080fd5b9250929050565b60008060208385031215610e3d57610e3d600080fd5b823567ffffffffffffffff811115610e5757610e57600080fd5b610e6385828601610dd5565b92509250509250929050565b601681526000602082017f6f6e6c792061646d696e2063616e20756e706175736500000000000000000000815291505b5060200190565b6020808252810161030281610e6f565b602f81526000602082017f416363657373436f6e74726f6c3a2063616e206f6e6c792072656e6f756e636581526e103937b632b9903337b91039b2b63360891b602082015291505b5060400190565b6020808252810161030281610eb6565b600f81526000602082016e1c185d5cd9590818dbdb9d1c9858dd608a1b81529150610e9f565b6020808252810161030281610f15565b601481526000602082017f546f6b656e20646f6573206e6f7420657869737400000000000000000000000081529150610e9f565b6020808252810161030281610f4b565b601381526000602082017f706179526577617264733a204e6f20726f6c650000000000000000000000000081529150610e9f565b6020808252810161030281610f8f565b601181526000602082017f556e737570706f7274656420746f6b656e00000000000000000000000000000081529150610e9f565b6020808252810161030281610fd3565b610c8681610c9a565b6040810161102e8285611017565b610c306020830184610d12565b801515610c43565b80516103028161103b565b60006020828403121561106357611063600080fd5b6000610c7a8484611043565b601a81526000602082017f5661756c743a20416c726561647920496e697469616c697a656400000000000081529150610e9f565b602080825281016103028161106f565b634e487b7160e01b600052603260045260246000fd5b634e487b7160e01b600052601160045260246000fd5b600060001982036110f2576110f26110c9565b5060010190565b602e81526000602082017f496e697469616c697a61626c653a20636f6e747261637420697320616c72656181526d191e481a5b9a5d1a585b1a5e995960921b60208201529150610efe565b60208082528101610302816110f9565b600060ff8216610302565b610c8681611154565b60208101610302828461115f565b601481526000602082017f546f6b656e20616c72656164792065786973747300000000000000000000000081529150610e9f565b6020808252810161030281611176565b60005b838110156111d55781810151838201526020016111bd565b838111156106c35750506000910152565b60006111f0825190565b6111fe8185602086016111ba565b9290920192915050565b7f416363657373436f6e74726f6c3a206163636f756e74200000000000000000008152601701600061123a82856111e6565b7f206973206d697373696e6720726f6c652000000000000000000000000000000081526011019150610c7a82846111e6565b6000611276825190565b80845260208401935061128d8185602086016111ba565b601f01601f19169290920192915050565b60208082528101610c30818461126c565b602b81526000602082017f496e697469616c697a61626c653a20636f6e7472616374206973206e6f74206981526a6e697469616c697a696e6760a81b60208201529150610efe565b60208082528101610302816112af565b6000816000190483118215151615611321576113216110c9565b500290565b60008219821115611339576113396110c9565b500190565b634e487b7160e01b600052604160045260246000fd5b600081611363576113636110c9565b506000190190565b60208082527f537472696e67733a20686578206c656e67746820696e73756666696369656e7491019081526000610e9f565b602080825281016103028161136b56fea26469706673582212206795298f92ceaac858d09cfce2fc49736e3f5d97040ed641b2a9611c26f214cb64736f6c634300080d0033",
    "immutableReferences": {},
    "source": "// SPDX-License-Identifier: AGPL 3.0\n// Original Copyright Aurora\n// Copyright Fathom 2022\n\npragma solidity 0.8.13;\nimport \"../interfaces/IVault.sol\";\nimport \"../interfaces/IVaultEvents.sol\";\nimport \"../../../tokens/ERC20/IERC20.sol\";\nimport \"../../../../common/security/AdminPausable.sol\";\n\n// solhint-disable not-rely-on-time\ncontract VaultPackage is IVault, IVaultEvents, AdminPausable {\n    bool private vaultInitialized;\n    bytes32 public constant REWARDS_OPERATOR_ROLE = keccak256(\"REWARDS_OPERATOR_ROLE\");\n\n    mapping(address => bool) public override isSupportedToken;\n\n    function initVault(address[] calldata supportedTokens) external override {\n        require(!vaultInitialized, \"Vault: Already Initialized\");\n        vaultInitialized = true;\n        for (uint i = 0; i < supportedTokens.length; i++) {\n            _addSupportedToken(supportedTokens[i]);\n        }\n    }\n\n    function initAdminAndOperator(address _admin, address _rewardsOperator) external override {\n        pausableInit(0, _admin);\n        _grantRole(REWARDS_OPERATOR_ROLE, _rewardsOperator);\n    }\n\n    function payRewards(address _user, address _token, uint256 _amount) external override {\n        require(hasRole(REWARDS_OPERATOR_ROLE, msg.sender), \"payRewards: No role\");\n        require(isSupportedToken[_token], \"Unsupported token\");\n        IERC20(_token).transfer(_user, _amount);\n    }\n\n    /// @notice adds token as a supproted rewards token by Vault\n    /// supported tokens means any future stream token should be\n    /// whitelisted here\n    /// @param _token stream ERC20 token address\n    function addSupportedToken(address _token) external override onlyRole(DEFAULT_ADMIN_ROLE) pausable(1) {\n        _addSupportedToken(_token);\n    }\n\n    /// @notice removed token as a supproted rewards token by Treasury\n    /// @param _token stream ERC20 token address\n    function removeSupportedToken(address _token) external override onlyRole(DEFAULT_ADMIN_ROLE) pausable(1) {\n        require(isSupportedToken[_token], \"Token does not exist\");\n        isSupportedToken[_token] = false;\n        emit TokenRemoved(_token, msg.sender, block.timestamp);\n    }\n\n    function _addSupportedToken(address _token) internal {\n        require(!isSupportedToken[_token], \"Token already exists\");\n        isSupportedToken[_token] = true;\n        emit TokenAdded(_token, msg.sender, block.timestamp);\n    }\n}\n",
    "sourcePath": "/Users/subiksinghshrestha/Documents/FATHOM/fathom-dao-smart-contracts/contracts/dao/staking/vault/packages/VaultPackage.sol",
    "compiler": {
        "name": "solc",
        "version": "0.8.13+commit.abaa5c0e.Darwin.appleclang"
    },
    "schemaVersion": "3.4.10",
    "updatedAt": "2022-11-23T10:23:19.367Z",
    "devdoc": {
        "kind": "dev",
        "methods": {
            "addSupportedToken(address)": {
                "params": {
                    "_token": "stream ERC20 token address"
                }
            },
            "adminPause(uint256)": {
                "details": "adminPause pauses this contract. Only pause role or default admin role can access this function.",
                "params": {
                    "flags": "flags variable is used for pausing this contract."
                }
            },
            "getRoleAdmin(bytes32)": {
                "details": "Returns the admin role that controls `role`. See {grantRole} and {revokeRole}. To change a role's admin, use {_setRoleAdmin}."
            },
            "grantRole(bytes32,address)": {
                "details": "Grants `role` to `account`. If `account` had not been already granted `role`, emits a {RoleGranted} event. Requirements: - the caller must have ``role``'s admin role. May emit a {RoleGranted} event."
            },
            "hasRole(bytes32,address)": {
                "details": "Returns `true` if `account` has been granted `role`."
            },
            "removeSupportedToken(address)": {
                "params": {
                    "_token": "stream ERC20 token address"
                }
            },
            "renounceRole(bytes32,address)": {
                "details": "Revokes `role` from the calling account. Roles are often managed via {grantRole} and {revokeRole}: this function's purpose is to provide a mechanism for accounts to lose their privileges if they are compromised (such as when a trusted device is misplaced). If the calling account had been revoked `role`, emits a {RoleRevoked} event. Requirements: - the caller must be `account`. May emit a {RoleRevoked} event."
            },
            "revokeRole(bytes32,address)": {
                "details": "Revokes `role` from `account`. If `account` had been granted `role`, emits a {RoleRevoked} event. Requirements: - the caller must have ``role``'s admin role. May emit a {RoleRevoked} event."
            },
            "supportsInterface(bytes4)": {
                "details": "See {IERC165-supportsInterface}."
            }
        },
        "version": 1
    },
    "userdoc": {
        "kind": "user",
        "methods": {
            "addSupportedToken(address)": {
                "notice": "adds token as a supproted rewards token by Vault supported tokens means any future stream token should be whitelisted here"
            },
            "removeSupportedToken(address)": {
                "notice": "removed token as a supproted rewards token by Treasury"
            }
        },
        "version": 1
    }
}