{
  "contractName": "VeMainToken",
  "abi": [
    {
      "inputs": [
        {
          "internalType": "string",
          "name": "name_",
          "type": "string"
        },
        {
          "internalType": "string",
          "name": "symbol_",
          "type": "string"
        }
      ],
      "stateMutability": "nonpayable",
      "type": "constructor"
    },
    {
      "anonymous": false,
      "inputs": [
        {
          "indexed": true,
          "internalType": "address",
          "name": "owner",
          "type": "address"
        },
        {
          "indexed": true,
          "internalType": "address",
          "name": "spender",
          "type": "address"
        },
        {
          "indexed": false,
          "internalType": "uint256",
          "name": "value",
          "type": "uint256"
        }
      ],
      "name": "Approval",
      "type": "event"
    },
    {
      "anonymous": false,
      "inputs": [
        {
          "indexed": true,
          "internalType": "address",
          "name": "delegator",
          "type": "address"
        },
        {
          "indexed": true,
          "internalType": "address",
          "name": "fromDelegate",
          "type": "address"
        },
        {
          "indexed": true,
          "internalType": "address",
          "name": "toDelegate",
          "type": "address"
        }
      ],
      "name": "DelegateChanged",
      "type": "event"
    },
    {
      "anonymous": false,
      "inputs": [
        {
          "indexed": true,
          "internalType": "address",
          "name": "delegate",
          "type": "address"
        },
        {
          "indexed": false,
          "internalType": "uint256",
          "name": "previousBalance",
          "type": "uint256"
        },
        {
          "indexed": false,
          "internalType": "uint256",
          "name": "newBalance",
          "type": "uint256"
        }
      ],
      "name": "DelegateVotesChanged",
      "type": "event"
    },
    {
      "anonymous": false,
      "inputs": [
        {
          "indexed": false,
          "internalType": "uint8",
          "name": "version",
          "type": "uint8"
        }
      ],
      "name": "Initialized",
      "type": "event"
    },
    {
      "anonymous": false,
      "inputs": [
        {
          "indexed": false,
          "internalType": "address",
          "name": "_member",
          "type": "address"
        }
      ],
      "name": "MemberAddedToWhitelist",
      "type": "event"
    },
    {
      "anonymous": false,
      "inputs": [
        {
          "indexed": false,
          "internalType": "address",
          "name": "_member",
          "type": "address"
        }
      ],
      "name": "MemberRemovedFromWhitelist",
      "type": "event"
    },
    {
      "anonymous": false,
      "inputs": [
        {
          "indexed": false,
          "internalType": "address",
          "name": "account",
          "type": "address"
        }
      ],
      "name": "Paused",
      "type": "event"
    },
    {
      "anonymous": false,
      "inputs": [
        {
          "indexed": true,
          "internalType": "bytes32",
          "name": "role",
          "type": "bytes32"
        },
        {
          "indexed": true,
          "internalType": "bytes32",
          "name": "previousAdminRole",
          "type": "bytes32"
        },
        {
          "indexed": true,
          "internalType": "bytes32",
          "name": "newAdminRole",
          "type": "bytes32"
        }
      ],
      "name": "RoleAdminChanged",
      "type": "event"
    },
    {
      "anonymous": false,
      "inputs": [
        {
          "indexed": true,
          "internalType": "bytes32",
          "name": "role",
          "type": "bytes32"
        },
        {
          "indexed": true,
          "internalType": "address",
          "name": "account",
          "type": "address"
        },
        {
          "indexed": true,
          "internalType": "address",
          "name": "sender",
          "type": "address"
        }
      ],
      "name": "RoleGranted",
      "type": "event"
    },
    {
      "anonymous": false,
      "inputs": [
        {
          "indexed": true,
          "internalType": "bytes32",
          "name": "role",
          "type": "bytes32"
        },
        {
          "indexed": true,
          "internalType": "address",
          "name": "account",
          "type": "address"
        },
        {
          "indexed": true,
          "internalType": "address",
          "name": "sender",
          "type": "address"
        }
      ],
      "name": "RoleRevoked",
      "type": "event"
    },
    {
      "anonymous": false,
      "inputs": [
        {
          "indexed": true,
          "internalType": "address",
          "name": "from",
          "type": "address"
        },
        {
          "indexed": true,
          "internalType": "address",
          "name": "to",
          "type": "address"
        },
        {
          "indexed": false,
          "internalType": "uint256",
          "name": "value",
          "type": "uint256"
        }
      ],
      "name": "Transfer",
      "type": "event"
    },
    {
      "anonymous": false,
      "inputs": [
        {
          "indexed": false,
          "internalType": "address",
          "name": "account",
          "type": "address"
        }
      ],
      "name": "Unpaused",
      "type": "event"
    },
    {
      "inputs": [],
      "name": "DEFAULT_ADMIN_ROLE",
      "outputs": [
        {
          "internalType": "bytes32",
          "name": "",
          "type": "bytes32"
        }
      ],
      "stateMutability": "view",
      "type": "function"
    },
    {
      "inputs": [],
      "name": "DOMAIN_SEPARATOR",
      "outputs": [
        {
          "internalType": "bytes32",
          "name": "",
          "type": "bytes32"
        }
      ],
      "stateMutability": "view",
      "type": "function"
    },
    {
      "inputs": [],
      "name": "MINTER_ROLE",
      "outputs": [
        {
          "internalType": "bytes32",
          "name": "",
          "type": "bytes32"
        }
      ],
      "stateMutability": "view",
      "type": "function"
    },
    {
      "inputs": [],
      "name": "PAUSER_ROLE",
      "outputs": [
        {
          "internalType": "bytes32",
          "name": "",
          "type": "bytes32"
        }
      ],
      "stateMutability": "view",
      "type": "function"
    },
    {
      "inputs": [],
      "name": "WHITELISTER_ROLE",
      "outputs": [
        {
          "internalType": "bytes32",
          "name": "",
          "type": "bytes32"
        }
      ],
      "stateMutability": "view",
      "type": "function"
    },
    {
      "inputs": [
        {
          "internalType": "address",
          "name": "owner",
          "type": "address"
        },
        {
          "internalType": "address",
          "name": "spender",
          "type": "address"
        }
      ],
      "name": "allowance",
      "outputs": [
        {
          "internalType": "uint256",
          "name": "",
          "type": "uint256"
        }
      ],
      "stateMutability": "view",
      "type": "function"
    },
    {
      "inputs": [
        {
          "internalType": "address",
          "name": "spender",
          "type": "address"
        },
        {
          "internalType": "uint256",
          "name": "amount",
          "type": "uint256"
        }
      ],
      "name": "approve",
      "outputs": [
        {
          "internalType": "bool",
          "name": "",
          "type": "bool"
        }
      ],
      "stateMutability": "nonpayable",
      "type": "function"
    },
    {
      "inputs": [
        {
          "internalType": "address",
          "name": "account",
          "type": "address"
        }
      ],
      "name": "balanceOf",
      "outputs": [
        {
          "internalType": "uint256",
          "name": "",
          "type": "uint256"
        }
      ],
      "stateMutability": "view",
      "type": "function"
    },
    {
      "inputs": [
        {
          "internalType": "address",
          "name": "account",
          "type": "address"
        },
        {
          "internalType": "uint32",
          "name": "pos",
          "type": "uint32"
        }
      ],
      "name": "checkpoints",
      "outputs": [
        {
          "components": [
            {
              "internalType": "uint32",
              "name": "fromBlock",
              "type": "uint32"
            },
            {
              "internalType": "uint224",
              "name": "votes",
              "type": "uint224"
            }
          ],
          "internalType": "struct ERC20Votes.Checkpoint",
          "name": "",
          "type": "tuple"
        }
      ],
      "stateMutability": "view",
      "type": "function"
    },
    {
      "inputs": [],
      "name": "decimals",
      "outputs": [
        {
          "internalType": "uint8",
          "name": "",
          "type": "uint8"
        }
      ],
      "stateMutability": "view",
      "type": "function"
    },
    {
      "inputs": [
        {
          "internalType": "address",
          "name": "spender",
          "type": "address"
        },
        {
          "internalType": "uint256",
          "name": "subtractedValue",
          "type": "uint256"
        }
      ],
      "name": "decreaseAllowance",
      "outputs": [
        {
          "internalType": "bool",
          "name": "",
          "type": "bool"
        }
      ],
      "stateMutability": "nonpayable",
      "type": "function"
    },
    {
      "inputs": [
        {
          "internalType": "address",
          "name": "delegatee",
          "type": "address"
        }
      ],
      "name": "delegate",
      "outputs": [],
      "stateMutability": "nonpayable",
      "type": "function"
    },
    {
      "inputs": [
        {
          "internalType": "address",
          "name": "delegatee",
          "type": "address"
        },
        {
          "internalType": "uint256",
          "name": "nonce",
          "type": "uint256"
        },
        {
          "internalType": "uint256",
          "name": "expiry",
          "type": "uint256"
        },
        {
          "internalType": "uint8",
          "name": "v",
          "type": "uint8"
        },
        {
          "internalType": "bytes32",
          "name": "r",
          "type": "bytes32"
        },
        {
          "internalType": "bytes32",
          "name": "s",
          "type": "bytes32"
        }
      ],
      "name": "delegateBySig",
      "outputs": [],
      "stateMutability": "nonpayable",
      "type": "function"
    },
    {
      "inputs": [
        {
          "internalType": "address",
          "name": "account",
          "type": "address"
        }
      ],
      "name": "delegates",
      "outputs": [
        {
          "internalType": "address",
          "name": "",
          "type": "address"
        }
      ],
      "stateMutability": "view",
      "type": "function"
    },
    {
      "inputs": [
        {
          "internalType": "uint256",
          "name": "blockNumber",
          "type": "uint256"
        }
      ],
      "name": "getPastTotalSupply",
      "outputs": [
        {
          "internalType": "uint256",
          "name": "",
          "type": "uint256"
        }
      ],
      "stateMutability": "view",
      "type": "function"
    },
    {
      "inputs": [
        {
          "internalType": "address",
          "name": "account",
          "type": "address"
        },
        {
          "internalType": "uint256",
          "name": "blockNumber",
          "type": "uint256"
        }
      ],
      "name": "getPastVotes",
      "outputs": [
        {
          "internalType": "uint256",
          "name": "",
          "type": "uint256"
        }
      ],
      "stateMutability": "view",
      "type": "function"
    },
    {
      "inputs": [
        {
          "internalType": "bytes32",
          "name": "role",
          "type": "bytes32"
        }
      ],
      "name": "getRoleAdmin",
      "outputs": [
        {
          "internalType": "bytes32",
          "name": "",
          "type": "bytes32"
        }
      ],
      "stateMutability": "view",
      "type": "function"
    },
    {
      "inputs": [
        {
          "internalType": "address",
          "name": "account",
          "type": "address"
        }
      ],
      "name": "getVotes",
      "outputs": [
        {
          "internalType": "uint256",
          "name": "",
          "type": "uint256"
        }
      ],
      "stateMutability": "view",
      "type": "function"
    },
    {
      "inputs": [
        {
          "internalType": "bytes32",
          "name": "role",
          "type": "bytes32"
        },
        {
          "internalType": "address",
          "name": "account",
          "type": "address"
        }
      ],
      "name": "grantRole",
      "outputs": [],
      "stateMutability": "nonpayable",
      "type": "function"
    },
    {
      "inputs": [
        {
          "internalType": "bytes32",
          "name": "role",
          "type": "bytes32"
        },
        {
          "internalType": "address",
          "name": "account",
          "type": "address"
        }
      ],
      "name": "hasRole",
      "outputs": [
        {
          "internalType": "bool",
          "name": "",
          "type": "bool"
        }
      ],
      "stateMutability": "view",
      "type": "function"
    },
    {
      "inputs": [
        {
          "internalType": "address",
          "name": "spender",
          "type": "address"
        },
        {
          "internalType": "uint256",
          "name": "addedValue",
          "type": "uint256"
        }
      ],
      "name": "increaseAllowance",
      "outputs": [
        {
          "internalType": "bool",
          "name": "",
          "type": "bool"
        }
      ],
      "stateMutability": "nonpayable",
      "type": "function"
    },
    {
      "inputs": [
        {
          "internalType": "address",
          "name": "",
          "type": "address"
        }
      ],
      "name": "isWhiteListed",
      "outputs": [
        {
          "internalType": "bool",
          "name": "",
          "type": "bool"
        }
      ],
      "stateMutability": "view",
      "type": "function"
    },
    {
      "inputs": [],
      "name": "name",
      "outputs": [
        {
          "internalType": "string",
          "name": "",
          "type": "string"
        }
      ],
      "stateMutability": "view",
      "type": "function"
    },
    {
      "inputs": [
        {
          "internalType": "address",
          "name": "owner",
          "type": "address"
        }
      ],
      "name": "nonces",
      "outputs": [
        {
          "internalType": "uint256",
          "name": "",
          "type": "uint256"
        }
      ],
      "stateMutability": "view",
      "type": "function"
    },
    {
      "inputs": [
        {
          "internalType": "address",
          "name": "account",
          "type": "address"
        }
      ],
      "name": "numCheckpoints",
      "outputs": [
        {
          "internalType": "uint32",
          "name": "",
          "type": "uint32"
        }
      ],
      "stateMutability": "view",
      "type": "function"
    },
    {
      "inputs": [],
      "name": "paused",
      "outputs": [
        {
          "internalType": "bool",
          "name": "",
          "type": "bool"
        }
      ],
      "stateMutability": "view",
      "type": "function"
    },
    {
      "inputs": [
        {
          "internalType": "address",
          "name": "owner",
          "type": "address"
        },
        {
          "internalType": "address",
          "name": "spender",
          "type": "address"
        },
        {
          "internalType": "uint256",
          "name": "value",
          "type": "uint256"
        },
        {
          "internalType": "uint256",
          "name": "deadline",
          "type": "uint256"
        },
        {
          "internalType": "uint8",
          "name": "v",
          "type": "uint8"
        },
        {
          "internalType": "bytes32",
          "name": "r",
          "type": "bytes32"
        },
        {
          "internalType": "bytes32",
          "name": "s",
          "type": "bytes32"
        }
      ],
      "name": "permit",
      "outputs": [],
      "stateMutability": "nonpayable",
      "type": "function"
    },
    {
      "inputs": [
        {
          "internalType": "bytes32",
          "name": "role",
          "type": "bytes32"
        },
        {
          "internalType": "address",
          "name": "account",
          "type": "address"
        }
      ],
      "name": "renounceRole",
      "outputs": [],
      "stateMutability": "nonpayable",
      "type": "function"
    },
    {
      "inputs": [
        {
          "internalType": "bytes32",
          "name": "role",
          "type": "bytes32"
        },
        {
          "internalType": "address",
          "name": "account",
          "type": "address"
        }
      ],
      "name": "revokeRole",
      "outputs": [],
      "stateMutability": "nonpayable",
      "type": "function"
    },
    {
      "inputs": [
        {
          "internalType": "bytes4",
          "name": "interfaceId",
          "type": "bytes4"
        }
      ],
      "name": "supportsInterface",
      "outputs": [
        {
          "internalType": "bool",
          "name": "",
          "type": "bool"
        }
      ],
      "stateMutability": "view",
      "type": "function"
    },
    {
      "inputs": [],
      "name": "symbol",
      "outputs": [
        {
          "internalType": "string",
          "name": "",
          "type": "string"
        }
      ],
      "stateMutability": "view",
      "type": "function"
    },
    {
      "inputs": [],
      "name": "totalSupply",
      "outputs": [
        {
          "internalType": "uint256",
          "name": "",
          "type": "uint256"
        }
      ],
      "stateMutability": "view",
      "type": "function"
    },
    {
      "inputs": [
        {
          "internalType": "address",
          "name": "to",
          "type": "address"
        },
        {
          "internalType": "uint256",
          "name": "amount",
          "type": "uint256"
        }
      ],
      "name": "transfer",
      "outputs": [
        {
          "internalType": "bool",
          "name": "",
          "type": "bool"
        }
      ],
      "stateMutability": "nonpayable",
      "type": "function"
    },
    {
      "inputs": [
        {
          "internalType": "address",
          "name": "from",
          "type": "address"
        },
        {
          "internalType": "address",
          "name": "to",
          "type": "address"
        },
        {
          "internalType": "uint256",
          "name": "amount",
          "type": "uint256"
        }
      ],
      "name": "transferFrom",
      "outputs": [
        {
          "internalType": "bool",
          "name": "",
          "type": "bool"
        }
      ],
      "stateMutability": "nonpayable",
      "type": "function"
    },
    {
      "inputs": [
        {
          "internalType": "address",
          "name": "_admin",
          "type": "address"
        },
        {
          "internalType": "address",
          "name": "_minter",
          "type": "address"
        }
      ],
      "name": "initToken",
      "outputs": [],
      "stateMutability": "nonpayable",
      "type": "function"
    },
    {
      "inputs": [
        {
          "internalType": "address",
          "name": "_toAdd",
          "type": "address"
        }
      ],
      "name": "addToWhitelist",
      "outputs": [],
      "stateMutability": "nonpayable",
      "type": "function"
    },
    {
      "inputs": [
        {
          "internalType": "address",
          "name": "_toRemove",
          "type": "address"
        }
      ],
      "name": "removeFromWhitelist",
      "outputs": [],
      "stateMutability": "nonpayable",
      "type": "function"
    },
    {
      "inputs": [],
      "name": "pause",
      "outputs": [],
      "stateMutability": "nonpayable",
      "type": "function"
    },
    {
      "inputs": [],
      "name": "unpause",
      "outputs": [],
      "stateMutability": "nonpayable",
      "type": "function"
    },
    {
      "inputs": [
        {
          "internalType": "address",
          "name": "to",
          "type": "address"
        },
        {
          "internalType": "uint256",
          "name": "amount",
          "type": "uint256"
        }
      ],
      "name": "mint",
      "outputs": [],
      "stateMutability": "nonpayable",
      "type": "function"
    },
    {
      "inputs": [
        {
          "internalType": "address",
          "name": "account",
          "type": "address"
        },
        {
          "internalType": "uint256",
          "name": "amount",
          "type": "uint256"
        }
      ],
      "name": "burn",
      "outputs": [],
      "stateMutability": "nonpayable",
      "type": "function"
    }
  ],
  "bytecode": "0x6101406040523480156200001257600080fd5b506040518060400160405280600b81526020016a3b32a6b0b4b72a37b5b2b760a91b81525080604051806040016040528060018152602001603160f81b8152506040518060400160405280600b81526020016a3b32a6b0b4b72a37b5b2b760a91b8152506040518060400160405280600b81526020016a3b32a6b0b4b72a37b5b2b760a91b8152508160039080519060200190620000b29291906200028f565b508051620000c89060049060208401906200028f565b50506005805460ff1916905550815160208084019190912082519183019190912060e08290526101008190524660a0527f8b73c3c69bb8fe3d512ecc4cf759cc79239f7b179b0ffacaa9a75d522b39400f62000126818484620001ae565b6080523060c05261012052506200014693506000925033915050620001ea565b620001727f65d7a28e3265b37a6474929f336521b332c1681b933f6cb9f3376673440d862a33620001ea565b6200018d600080516020620031b883398151915233620001ea565b620001a8600080516020620031b883398151915233620001ea565b620003e9565b60008383834630604051602001620001cb9594939291906200034d565b6040516020818303038152906040528051906020012090509392505050565b60008281526006602090815260408083206001600160a01b038516845290915290205460ff166200028b5760008281526006602090815260408083206001600160a01b03851684529091529020805460ff191660011790556200024a3390565b6001600160a01b0316816001600160a01b0316837f2f8788117e7eff1d82e926ec794901d17c78024a50270940304540a733656f0d60405160405180910390a45b5050565b8280546200029d90620003b9565b90600052602060002090601f016020900481019282620002c157600085556200030c565b82601f10620002dc57805160ff19168380011785556200030c565b828001600101855582156200030c579182015b828111156200030c578251825591602001919060010190620002ef565b506200031a9291506200031e565b5090565b5b808211156200031a57600081556001016200031f565b805b82525050565b6001600160a01b03811662000337565b60a081016200035d828862000335565b6200036c602083018762000335565b6200037b604083018662000335565b6200038a606083018562000335565b6200039960808301846200033d565b9695505050505050565b634e487b7160e01b600052602260045260246000fd5b600281046001821680620003ce57607f821691505b602082108103620003e357620003e3620003a3565b50919050565b60805160a05160c05160e0516101005161012051612d7f6200043960003960006110a0015260006110e2015260006110c1015260006110250152600061104f015260006110790152612d7f6000f3fe608060405234801561001057600080fd5b506004361061025e5760003560e01c806370a0823111610146578063a217fddf116100c3578063d539139311610087578063d53913931461038e578063d547741f1461054f578063dd62ed3e14610562578063e43252d714610575578063e63ab1e914610588578063f1127ed8146105af57600080fd5b8063a217fddf146104fb578063a457c2d714610503578063a9059cbb14610516578063c3cda52014610529578063d505accf1461053c57600080fd5b80638e539e8c1161010a5780638e539e8c146104a757806391d14854146104ba57806395d89b41146104cd5780639ab24eb0146104d55780639dc29fac146104e857600080fd5b806370a082311461043d57806379cc6790146104665780637ecebe00146104795780638456cb591461048c5780638ab1d6811461049457600080fd5b806339509351116101df578063570618e1116101a3578063570618e11461038e578063587cde1e146103a35780635c19a95c146103dc5780635c975abb146103ef5780636f9170f6146103fa5780636fcfff451461041d57600080fd5b8063395093511461033a5780633a46b1a81461034d5780633f4ba83a1461036057806340c10f191461036857806342966c681461037b57600080fd5b8063248a9ca311610226578063248a9ca3146102d85780632f2ff15d146102fb578063313ce567146103105780633644e5151461031f57806336568abe1461032757600080fd5b806301ffc9a71461026357806306fdde031461028c578063095ea7b3146102a157806318160ddd146102b457806323b872dd146102c5575b600080fd5b610276610271366004611df5565b6105cf565b6040516102839190611e28565b60405180910390f35b610294610606565b6040516102839190611e94565b6102766102af366004611edb565b610698565b6002545b6040516102839190611f1e565b6102766102d3366004611f2c565b6106b0565b6102b86102e6366004611f7c565b60009081526006602052604090206001015490565b61030e610309366004611f9d565b6106d6565b005b60126040516102839190611fd9565b6102b8610700565b61030e610335366004611f9d565b61070f565b610276610348366004611edb565b61074e565b6102b861035b366004611edb565b610770565b61030e6107b3565b61030e610376366004611edb565b6107e8565b61030e610389366004611f7c565b610814565b6102b8600080516020612d2a83398151915281565b6103cf6103b1366004611fe7565b6001600160a01b039081166000908152600960205260409020541690565b6040516102839190612011565b61030e6103ea366004611fe7565b61081e565b60055460ff16610276565b610276610408366004611fe7565b600c6020526000908152604090205460ff1681565b61043061042b366004611fe7565b610828565b604051610283919061202b565b6102b861044b366004611fe7565b6001600160a01b031660009081526020819052604090205490565b61030e610474366004611edb565b61084a565b6102b8610487366004611fe7565b61085f565b61030e61087d565b61030e6104a2366004611fe7565b6108af565b6102b86104b5366004611f7c565b610922565b6102766104c8366004611f9d565b61094e565b610294610979565b6102b86104e3366004611fe7565b610988565b61030e6104f6366004611edb565b610a0f565b6102b8600081565b610276610511366004611edb565b610a31565b610276610524366004611edb565b610a79565b61030e61053736600461204d565b610a87565b61030e61054a3660046120d7565b610b45565b61030e61055d366004611f9d565b610c27565b6102b8610570366004612176565b610c4c565b61030e610583366004611fe7565b610c77565b6102b87f65d7a28e3265b37a6474929f336521b332c1681b933f6cb9f3376673440d862a81565b6105c26105bd3660046121af565b610ce2565b6040516102839190612215565b60006001600160e01b03198216637965db0b60e01b148061060057506301ffc9a760e01b6001600160e01b03198316145b92915050565b60606003805461061590612239565b80601f016020809104026020016040519081016040528092919081815260200182805461064190612239565b801561068e5780601f106106635761010080835404028352916020019161068e565b820191906000526020600020905b81548152906001019060200180831161067157829003601f168201915b5050505050905090565b6000336106a6818585610d66565b5060019392505050565b6000336106be858285610e1a565b6106c9858585610e64565b60019150505b9392505050565b6000828152600660205260409020600101546106f181610f88565b6106fb8383610f92565b505050565b600061070a611018565b905090565b6001600160a01b03811633146107405760405162461bcd60e51b8152600401610737906122ae565b60405180910390fd5b61074a8282611106565b5050565b6000336106a68185856107618383610c4c565b61076b91906122d4565b610d66565b60004382106107915760405162461bcd60e51b815260040161073790612323565b6001600160a01b0383166000908152600a602052604090206106cf908361116d565b7f65d7a28e3265b37a6474929f336521b332c1681b933f6cb9f3376673440d862a6107dd81610f88565b6107e561122a565b50565b600080516020612d2a83398151915261080081610f88565b61080a8383611276565b6106fb8384611280565b6107e533826112f9565b6107e53382611280565b6001600160a01b0381166000908152600a602052604081205461060090611303565b610855823383610e1a565b61074a82826112f9565b6001600160a01b038116600090815260076020526040812054610600565b7f65d7a28e3265b37a6474929f336521b332c1681b933f6cb9f3376673440d862a6108a781610f88565b6107e561132d565b600080516020612d2a8339815191526108c781610f88565b6001600160a01b0382166000908152600c602052604090819020805460ff19169055517e8fe2920df89e63074013b74630735e25f89636a2c65cb9ab56cef5091abe0790610916908490612011565b60405180910390a15050565b60004382106109435760405162461bcd60e51b815260040161073790612323565b610600600b8361116d565b60009182526006602090815260408084206001600160a01b0393909316845291905290205460ff1690565b60606004805461061590612239565b6001600160a01b0381166000908152600a602052604081205480156109fc576001600160a01b0383166000908152600a602052604090206109ca600183612333565b815481106109da576109da61234a565b60009182526020909120015464010000000090046001600160e01b03166109ff565b60005b6001600160e01b03169392505050565b600080516020612d2a833981519152610a2781610f88565b6106fb83836112f9565b60003381610a3f8286610c4c565b905083811015610a615760405162461bcd60e51b8152600401610737906123a2565b610a6e8286868403610d66565b506001949350505050565b6000336106a6818585610e64565b83421115610aa75760405162461bcd60e51b8152600401610737906123e6565b6000610b09610b017fe48329057bfd03d55e49b547132e39cffd9c1820ad7b9d4c5307691425d15adf898989604051602001610ae694939291906123f6565b6040516020818303038152906040528051906020012061136a565b85858561137d565b9050610b14816113a5565b8614610b325760405162461bcd60e51b815260040161073790612468565b610b3c8188611280565b50505050505050565b83421115610b655760405162461bcd60e51b8152600401610737906124ac565b60007f6e71edae12b1b97f4d1f60370fef10105fa2faae0126114a169c64845d6126c9888888610b948c6113a5565b89604051602001610baa969594939291906124bc565b6040516020818303038152906040528051906020012090506000610bcd8261136a565b90506000610bdd8287878761137d565b9050896001600160a01b0316816001600160a01b031614610c105760405162461bcd60e51b81526004016107379061254a565b610c1b8a8a8a610d66565b50505050505050505050565b600082815260066020526040902060010154610c4281610f88565b6106fb8383611106565b6001600160a01b03918216600090815260016020908152604080832093909416825291909152205490565b600080516020612d2a833981519152610c8f81610f88565b6001600160a01b0382166000908152600c602052604090819020805460ff19166001179055517f642006de5dd49be99f93aade2b891285b19f1195aa61af884f61fb9ee573656490610916908490612011565b60408051808201909152600080825260208201526001600160a01b0383166000908152600a60205260409020805463ffffffff8416908110610d2657610d2661234a565b60009182526020918290206040805180820190915291015463ffffffff8116825264010000000090046001600160e01b0316918101919091529392505050565b6001600160a01b038316610d8c5760405162461bcd60e51b81526004016107379061259b565b6001600160a01b038216610db25760405162461bcd60e51b8152600401610737906125ea565b6001600160a01b0380841660008181526001602090815260408083209487168084529490915290819020849055517f8c5be1e5ebec7d5bd14f71427d1e84f3dd0314c0f7b2291e5b200ac8c7c3b92590610e0d908590611f1e565b60405180910390a3505050565b6000610e268484610c4c565b90506000198114610e5e5781811015610e515760405162461bcd60e51b81526004016107379061262e565b610e5e8484848403610d66565b50505050565b6001600160a01b038316610e8a5760405162461bcd60e51b815260040161073790612680565b6001600160a01b038216610eb05760405162461bcd60e51b8152600401610737906126d0565b610ebb8383836113cd565b6001600160a01b03831660009081526020819052604090205481811015610ef45760405162461bcd60e51b815260040161073790612723565b6001600160a01b03808516600090815260208190526040808220858503905591851681529081208054849290610f2b9084906122d4565b92505081905550826001600160a01b0316846001600160a01b03167fddf252ad1be2c89b69c2b068fc378daa952ba7f163c4a11628f55a4df523b3ef84604051610f759190611f1e565b60405180910390a3610e5e848484611404565b6107e5813361140f565b610f9c828261094e565b61074a5760008281526006602090815260408083206001600160a01b03851684529091529020805460ff19166001179055610fd43390565b6001600160a01b0316816001600160a01b0316837f2f8788117e7eff1d82e926ec794901d17c78024a50270940304540a733656f0d60405160405180910390a45050565b6000306001600160a01b037f00000000000000000000000000000000000000000000000000000000000000001614801561107157507f000000000000000000000000000000000000000000000000000000000000000046145b1561109b57507f000000000000000000000000000000000000000000000000000000000000000090565b61070a7f00000000000000000000000000000000000000000000000000000000000000007f00000000000000000000000000000000000000000000000000000000000000007f0000000000000000000000000000000000000000000000000000000000000000611473565b611110828261094e565b1561074a5760008281526006602090815260408083206001600160a01b0385168085529252808320805460ff1916905551339285917ff6391f5c32d9c69d2a47ea670b442974b53935d1edc7fd64eb21e047a839171b9190a45050565b8154600090815b818110156111d157600061118882846114ad565b90508486828154811061119d5761119d61234a565b60009182526020909120015463ffffffff1611156111bd578092506111cb565b6111c88160016122d4565b91505b50611174565b811561121557846111e3600184612333565b815481106111f3576111f361234a565b60009182526020909120015464010000000090046001600160e01b0316611218565b60005b6001600160e01b031695945050505050565b611232611504565b6005805460ff191690557f5db9ee0a495bf2e6ff9c91a7834c1ba4fdd244a5e8aa4e537bd38aeae4b073aa335b60405161126c9190612011565b60405180910390a1565b61074a8282611528565b6001600160a01b038281166000818152600960208181526040808420805485845282862054949093528787166001600160a01b03198416811790915590519190951694919391928592917f3134e8a2e6d97e929a7e54011ea5485d7d196dd5f0ba4d4ef95803e8e3fc257f9190a4610e5e828483611569565b61074a8282611694565b600063ffffffff8211156113295760405162461bcd60e51b815260040161073790612776565b5090565b6113356116ac565b6005805460ff191660011790557f62e78cea01bee320cd4e420270b5ea74000d11b0c9f74754ebdbfc544b05a25861125f3390565b6000610600611377611018565b836116cf565b600080600061138e87878787611702565b9150915061139b816117e2565b5095945050505050565b6001600160a01b03811660009081526007602052604090208054600181018255905b50919050565b6113d56116ac565b336000908152600c602052604090205460ff166106fb5760405162461bcd60e51b8152600401610737906127e0565b6106fb8383836118c2565b611419828261094e565b61074a57611431816001600160a01b031660146118f4565b61143c8360206118f4565b60405160200161144d929190612812565b60408051601f198184030181529082905262461bcd60e51b825261073791600401611e94565b6000838383463060405160200161148e95949392919061286a565b6040516020818303038152906040528051906020012090509392505050565b600060026114bb81846128cc565b6114c66002866128cc565b6114d091906122d4565b6114da91906128e0565b6114e56002846128e0565b6114f06002866128e0565b6114fa91906122d4565b6106cf91906122d4565b60055460ff166115265760405162461bcd60e51b81526004016107379061291f565b565b6115328282611a60565b6002546001600160e01b03101561155b5760405162461bcd60e51b81526004016107379061297c565b610e5e600b611b2883611b34565b816001600160a01b0316836001600160a01b03161415801561158b5750600081115b156106fb576001600160a01b03831615611610576001600160a01b0383166000908152600a6020526040812081906115c690611cad85611b34565b91509150846001600160a01b03167fdec2bacdd2f05b59de34da9b523dff8be42e5e38e818c82fdb0bae774387a724838360405161160592919061298c565b60405180910390a250505b6001600160a01b038216156106fb576001600160a01b0382166000908152600a60205260408120819061164690611b2885611b34565b91509150836001600160a01b03167fdec2bacdd2f05b59de34da9b523dff8be42e5e38e818c82fdb0bae774387a724838360405161168592919061298c565b60405180910390a25050505050565b61169e8282611cb9565b610e5e600b611cad83611b34565b60055460ff16156115265760405162461bcd60e51b8152600401610737906129ce565b600082826040516020016116e49291906129de565b60405160208183030381529060405280519060200120905092915050565b6000807f7fffffffffffffffffffffffffffffff5d576e7357a4501ddfe92f46681b20a083111561173957506000905060036117d9565b8460ff16601b1415801561175157508460ff16601c14155b1561176257506000905060046117d9565b6000600187878787604051600081526020016040526040516117879493929190612a0f565b6020604051602081039080840390855afa1580156117a9573d6000803e3d6000fd5b5050604051601f1901519150506001600160a01b0381166117d2576000600192509250506117d9565b9150600090505b94509492505050565b60008160048111156117f6576117f6612a2a565b036117fe5750565b600181600481111561181257611812612a2a565b0361182f5760405162461bcd60e51b815260040161073790612a74565b600281600481111561184357611843612a2a565b036118605760405162461bcd60e51b815260040161073790612ab8565b600381600481111561187457611874612a2a565b036118915760405162461bcd60e51b815260040161073790612b07565b60048160048111156118a5576118a5612a2a565b036107e55760405162461bcd60e51b815260040161073790612b56565b6001600160a01b038381166000908152600960205260408082205485841683529120546106fb92918216911683611569565b60606000611903836002612b66565b61190e9060026122d4565b67ffffffffffffffff81111561192657611926612b85565b6040519080825280601f01601f191660200182016040528015611950576020820181803683370190505b509050600360fc1b8160008151811061196b5761196b61234a565b60200101906001600160f81b031916908160001a905350600f60fb1b8160018151811061199a5761199a61234a565b60200101906001600160f81b031916908160001a90535060006119be846002612b66565b6119c99060016122d4565b90505b6001811115611a41576f181899199a1a9b1b9c1cb0b131b232b360811b85600f16601081106119fd576119fd61234a565b1a60f81b828281518110611a1357611a1361234a565b60200101906001600160f81b031916908160001a90535060049490941c93611a3a81612b9b565b90506119cc565b5083156106cf5760405162461bcd60e51b815260040161073790612be4565b6001600160a01b038216611a865760405162461bcd60e51b815260040161073790612c28565b611a92600083836113cd565b8060026000828254611aa491906122d4565b90915550506001600160a01b03821660009081526020819052604081208054839290611ad19084906122d4565b90915550506040516001600160a01b038316906000907fddf252ad1be2c89b69c2b068fc378daa952ba7f163c4a11628f55a4df523b3ef90611b14908590611f1e565b60405180910390a361074a60008383611404565b60006106cf82846122d4565b825460009081908015611b7f5785611b4d600183612333565b81548110611b5d57611b5d61234a565b60009182526020909120015464010000000090046001600160e01b0316611b82565b60005b6001600160e01b03169250611b9b83858763ffffffff16565b9150600081118015611bd957504386611bb5600184612333565b81548110611bc557611bc561234a565b60009182526020909120015463ffffffff16145b15611c3957611be782611daa565b86611bf3600184612333565b81548110611c0357611c0361234a565b9060005260206000200160000160046101000a8154816001600160e01b0302191690836001600160e01b03160217905550611ca4565b856040518060400160405280611c4e43611303565b63ffffffff168152602001611c6285611daa565b6001600160e01b0390811690915282546001810184556000938452602093849020835194909301519091166401000000000263ffffffff909316929092179101555b50935093915050565b60006106cf8284612333565b6001600160a01b038216611cdf5760405162461bcd60e51b815260040161073790612c76565b611ceb826000836113cd565b6001600160a01b03821660009081526020819052604090205481811015611d245760405162461bcd60e51b815260040161073790612cc5565b6001600160a01b0383166000908152602081905260408120838303905560028054849290611d53908490612333565b90915550506040516000906001600160a01b038516907fddf252ad1be2c89b69c2b068fc378daa952ba7f163c4a11628f55a4df523b3ef90611d96908690611f1e565b60405180910390a36106fb83600084611404565b60006001600160e01b038211156113295760405162461bcd60e51b815260040161073790612d19565b6001600160e01b031981165b81146107e557600080fd5b803561060081611dd3565b600060208284031215611e0a57611e0a600080fd5b6000611e168484611dea565b949350505050565b8015155b82525050565b602081016106008284611e1e565b60005b83811015611e51578181015183820152602001611e39565b83811115610e5e5750506000910152565b6000611e6c825190565b808452602084019350611e83818560208601611e36565b601f01601f19169290920192915050565b602080825281016106cf8184611e62565b60006001600160a01b038216610600565b611ddf81611ea5565b803561060081611eb6565b80611ddf565b803561060081611eca565b60008060408385031215611ef157611ef1600080fd5b6000611efd8585611ebf565b9250506020611f0e85828601611ed0565b9150509250929050565b80611e22565b602081016106008284611f18565b600080600060608486031215611f4457611f44600080fd5b6000611f508686611ebf565b9350506020611f6186828701611ebf565b9250506040611f7286828701611ed0565b9150509250925092565b600060208284031215611f9157611f91600080fd5b6000611e168484611ed0565b60008060408385031215611fb357611fb3600080fd5b6000611fbf8585611ed0565b9250506020611f0e85828601611ebf565b60ff8116611e22565b602081016106008284611fd0565b600060208284031215611ffc57611ffc600080fd5b6000611e168484611ebf565b611e2281611ea5565b602081016106008284612008565b63ffffffff8116611e22565b60208101610600828461201f565b60ff8116611ddf565b803561060081612039565b60008060008060008060c0878903121561206957612069600080fd5b60006120758989611ebf565b965050602061208689828a01611ed0565b955050604061209789828a01611ed0565b94505060606120a889828a01612042565b93505060806120b989828a01611ed0565b92505060a06120ca89828a01611ed0565b9150509295509295509295565b600080600080600080600060e0888a0312156120f5576120f5600080fd5b60006121018a8a611ebf565b97505060206121128a828b01611ebf565b96505060406121238a828b01611ed0565b95505060606121348a828b01611ed0565b94505060806121458a828b01612042565b93505060a06121568a828b01611ed0565b92505060c06121678a828b01611ed0565b91505092959891949750929550565b6000806040838503121561218c5761218c600080fd5b6000611fbf8585611ebf565b63ffffffff8116611ddf565b803561060081612198565b600080604083850312156121c5576121c5600080fd5b60006121d18585611ebf565b9250506020611f0e858286016121a4565b6001600160e01b038116611e22565b80516040830190612202848261201f565b506020820151610e5e60208501826121e2565b6040810161060082846121f1565b634e487b7160e01b600052602260045260246000fd5b60028104600182168061224d57607f821691505b6020821081036113c7576113c7612223565b602f81526000602082017f416363657373436f6e74726f6c3a2063616e206f6e6c792072656e6f756e636581526e103937b632b9903337b91039b2b63360891b602082015291505b5060400190565b602080825281016106008161225f565b634e487b7160e01b600052601160045260246000fd5b600082198211156122e7576122e76122be565b500190565b601f81526000602082017f4552433230566f7465733a20626c6f636b206e6f7420796574206d696e656400815291505b5060200190565b60208082528101610600816122ec565b600082821015612345576123456122be565b500390565b634e487b7160e01b600052603260045260246000fd5b602581526000602082017f45524332303a2064656372656173656420616c6c6f77616e63652062656c6f77815264207a65726f60d81b602082015291506122a7565b6020808252810161060081612360565b601d81526000602082017f4552433230566f7465733a207369676e617475726520657870697265640000008152915061231c565b60208082528101610600816123b2565b608081016124048287611f18565b6124116020830186612008565b61241e6040830185611f18565b61242b6060830184611f18565b95945050505050565b601981526000602082017f4552433230566f7465733a20696e76616c6964206e6f6e6365000000000000008152915061231c565b6020808252810161060081612434565b601d81526000602082017f45524332305065726d69743a206578706972656420646561646c696e650000008152915061231c565b6020808252810161060081612478565b60c081016124ca8289611f18565b6124d76020830188612008565b6124e46040830187612008565b6124f16060830186611f18565b6124fe6080830185611f18565b61250b60a0830184611f18565b979650505050505050565b601e81526000602082017f45524332305065726d69743a20696e76616c6964207369676e617475726500008152915061231c565b6020808252810161060081612516565b602481526000602082017f45524332303a20617070726f76652066726f6d20746865207a65726f206164648152637265737360e01b602082015291506122a7565b602080825281016106008161255a565b602281526000602082017f45524332303a20617070726f766520746f20746865207a65726f206164647265815261737360f01b602082015291506122a7565b60208082528101610600816125ab565b601d81526000602082017f45524332303a20696e73756666696369656e7420616c6c6f77616e63650000008152915061231c565b60208082528101610600816125fa565b602581526000602082017f45524332303a207472616e736665722066726f6d20746865207a65726f206164815264647265737360d81b602082015291506122a7565b602080825281016106008161263e565b602381526000602082017f45524332303a207472616e7366657220746f20746865207a65726f206164647281526265737360e81b602082015291506122a7565b6020808252810161060081612690565b602681526000602082017f45524332303a207472616e7366657220616d6f756e7420657863656564732062815265616c616e636560d01b602082015291506122a7565b60208082528101610600816126e0565b602681526000602082017f53616665436173743a2076616c756520646f65736e27742066697420696e203381526532206269747360d01b602082015291506122a7565b6020808252810161060081612733565b603f81526000602082017f56654d61696e546f6b656e3a20697320696e7472616e7366657261626c65207581527f6e6c657373207468652073656e6465722069732077686974656c697374656400602082015291506122a7565b6020808252810161060081612786565b60006127fa825190565b612808818560208601611e36565b9290920192915050565b7f416363657373436f6e74726f6c3a206163636f756e74200000000000000000008152601701600061284482856127f0565b7001034b99036b4b9b9b4b733903937b6329607d1b81526011019150611e1682846127f0565b60a081016128788288611f18565b6128856020830187611f18565b6128926040830186611f18565b61289f6060830185611f18565b6128ac6080830184612008565b9695505050505050565b634e487b7160e01b600052601260045260246000fd5b6000826128db576128db6128b6565b500690565b6000826128ef576128ef6128b6565b500490565b601481526000602082017314185d5cd8589b194e881b9bdd081c185d5cd95960621b8152915061231c565b60208082528101610600816128f4565b603081526000602082017f4552433230566f7465733a20746f74616c20737570706c79207269736b73206f81526f766572666c6f77696e6720766f74657360801b602082015291506122a7565b602080825281016106008161292f565b6040810161299a8285611f18565b6106cf6020830184611f18565b601081526000602082016f14185d5cd8589b194e881c185d5cd95960821b8152915061231c565b60208082528101610600816129a7565b61190160f01b815260020160006129f58285611f18565b602082019150612a058284611f18565b5060200192915050565b60808101612a1d8287611f18565b6124116020830186611fd0565b634e487b7160e01b600052602160045260246000fd5b601881526000602082017f45434453413a20696e76616c6964207369676e617475726500000000000000008152915061231c565b6020808252810161060081612a40565b601f81526000602082017f45434453413a20696e76616c6964207369676e6174757265206c656e677468008152915061231c565b6020808252810161060081612a84565b602281526000602082017f45434453413a20696e76616c6964207369676e6174757265202773272076616c815261756560f01b602082015291506122a7565b6020808252810161060081612ac8565b602281526000602082017f45434453413a20696e76616c6964207369676e6174757265202776272076616c815261756560f01b602082015291506122a7565b6020808252810161060081612b17565b6000816000190483118215151615612b8057612b806122be565b500290565b634e487b7160e01b600052604160045260246000fd5b600081612baa57612baa6122be565b506000190190565b60208082527f537472696e67733a20686578206c656e67746820696e73756666696369656e749101908152600061231c565b6020808252810161060081612bb2565b601f81526000602082017f45524332303a206d696e7420746f20746865207a65726f2061646472657373008152915061231c565b6020808252810161060081612bf4565b602181526000602082017f45524332303a206275726e2066726f6d20746865207a65726f206164647265738152607360f81b602082015291506122a7565b6020808252810161060081612c38565b602281526000602082017f45524332303a206275726e20616d6f756e7420657863656564732062616c616e815261636560f01b602082015291506122a7565b6020808252810161060081612c86565b602781526000602082017f53616665436173743a2076616c756520646f65736e27742066697420696e20328152663234206269747360c81b602082015291506122a7565b6020808252810161060081612cd556fe9f2df0fed2c77648de5860a4cc508cd0818c85b8b8a1ab4ceeef8d981c8956a6a26469706673582212202c351186c73a333fc03fb0f80dcde2aad5f8ecebd58cbf61180e9a10c14f564c64736f6c634300080d00339f2df0fed2c77648de5860a4cc508cd0818c85b8b8a1ab4ceeef8d981c8956a6",
  "immutableReferences": {
    "11838": [
      {
        "length": 32,
        "start": 4217
      }
    ],
    "11840": [
      {
        "length": 32,
        "start": 4175
      }
    ],
    "11842": [
      {
        "length": 32,
        "start": 4133
      }
    ],
    "11844": [
      {
        "length": 32,
        "start": 4289
      }
    ],
    "11846": [
      {
        "length": 32,
        "start": 4322
      }
    ],
    "11848": [
      {
        "length": 32,
        "start": 4256
      }
    ]
  },
  "source": "// SPDX-License-Identifier: MIT\n// Copyright Fathom 2022\n\npragma solidity ^0.8.4;\n\nimport \"./token/ERC20/ERC20.sol\";\nimport \"./token/ERC20/extensions/ERC20Burnable.sol\";\nimport \"./security/Pausable.sol\";\nimport \"./access/AccessControl.sol\";\nimport \"./token/ERC20/extensions/draft-ERC20Permit.sol\";\nimport \"./token/ERC20/extensions/ERC20Votes.sol\";\nimport \"./interfaces/IVeMainToken.sol\";\n\ncontract VeMainToken is IVeMainToken, ERC20, ERC20Burnable, Pausable, AccessControl, ERC20Permit, ERC20Votes {\n    bytes32 public constant PAUSER_ROLE = keccak256(\"PAUSER_ROLE\");\n    bytes32 public constant MINTER_ROLE = keccak256(\"MINTER_ROLE\");\n    bytes32 public constant WHITELISTER_ROLE = keccak256(\"MINTER_ROLE\");\n\n    // Mapping to keep track of who is allowed to transfer ve tokens\n    mapping(address => bool) public isWhiteListed;\n\n    constructor() ERC20(\"veMainToken\", \"veMainToken\") ERC20Permit(\"veMainToken\") {\n        _grantRole(DEFAULT_ADMIN_ROLE, msg.sender);\n        _grantRole(PAUSER_ROLE, msg.sender);\n        _grantRole(MINTER_ROLE, msg.sender);\n        _grantRole(WHITELISTER_ROLE, msg.sender);\n    }\n\n    /**\n     * @dev Whitelist a sender allowing them to transfer ve tokens.\n     */\n    function addToWhitelist(address _toAdd) public override onlyRole(WHITELISTER_ROLE) {\n        isWhiteListed[_toAdd] = true;\n        emit MemberAddedToWhitelist(_toAdd);\n    }\n\n    /**\n     * @dev Remove ability of a whitelisted sender to transfer ve tokens.\n     */\n    function removeFromWhitelist(address _toRemove) public override onlyRole(WHITELISTER_ROLE) {\n        isWhiteListed[_toRemove] = false;\n        emit MemberRemovedFromWhitelist(_toRemove);\n    }\n\n    function pause() public override onlyRole(PAUSER_ROLE) {\n        _pause();\n    }\n\n    function unpause() public override onlyRole(PAUSER_ROLE) {\n        _unpause();\n    }\n\n    function mint(address to, uint256 amount) public override onlyRole(MINTER_ROLE) {\n        _mint(to, amount);\n        _delegate(to, to);\n    }\n\n    //MaxJi: This thing I have added:\n    function burn(address account, uint256 amount) public override onlyRole(MINTER_ROLE) {\n        _burn(account, amount);\n    }\n\n    function _beforeTokenTransfer(\n        address from,\n        address to,\n        uint256 amount\n    ) internal override whenNotPaused {\n        require(isWhiteListed[msg.sender], \"VeMainToken: is intransferable unless the sender is whitelisted\");\n        super._beforeTokenTransfer(from, to, amount);\n    }\n\n    // The following functions are overrides required by Solidity.\n\n    function _afterTokenTransfer(\n        address from,\n        address to,\n        uint256 amount\n    ) internal override(ERC20, ERC20Votes) {\n        super._afterTokenTransfer(from, to, amount);\n    }\n\n    function _mint(address to, uint256 amount) internal override(ERC20, ERC20Votes) {\n        super._mint(to, amount);\n    }\n\n    function _burn(address account, uint256 amount) internal override(ERC20, ERC20Votes) {\n        super._burn(account, amount);\n    }\n}\n",
  "sourcePath": "/Users/max.hayes/VSCodeProjects/fathom-dao-smart-contracts/contracts/dao/governance/VeMainToken.sol",
  "compiler": {
    "name": "solc",
    "version": "0.8.13+commit.abaa5c0e.Darwin.appleclang"
  },
  "schemaVersion": "3.4.10",
  "updatedAt": "2022-09-27T12:12:56.337Z",
  "devdoc": {
    "kind": "dev",
    "methods": {
      "DOMAIN_SEPARATOR()": {
        "details": "See {IERC20Permit-DOMAIN_SEPARATOR}."
      },
      "addToWhitelist(address)": {
        "details": "Whitelist a sender allowing them to transfer ve tokens."
      },
      "allowance(address,address)": {
        "details": "See {IERC20-allowance}."
      },
      "approve(address,uint256)": {
        "details": "See {IERC20-approve}. NOTE: If `amount` is the maximum `uint256`, the allowance is not updated on `transferFrom`. This is semantically equivalent to an infinite approval. Requirements: - `spender` cannot be the zero address."
      },
      "balanceOf(address)": {
        "details": "See {IERC20-balanceOf}."
      },
      "burn(uint256)": {
        "details": "Destroys `amount` tokens from the caller. See {ERC20-_burn}."
      },
      "burnFrom(address,uint256)": {
        "details": "Destroys `amount` tokens from `account`, deducting from the caller's allowance. See {ERC20-_burn} and {ERC20-allowance}. Requirements: - the caller must have allowance for ``accounts``'s tokens of at least `amount`."
      },
      "checkpoints(address,uint32)": {
        "details": "Get the `pos`-th checkpoint for `account`."
      },
      "decimals()": {
        "details": "Returns the number of decimals used to get its user representation. For example, if `decimals` equals `2`, a balance of `505` tokens should be displayed to a user as `5.05` (`505 / 10 ** 2`). Tokens usually opt for a value of 18, imitating the relationship between Ether and Wei. This is the value {ERC20} uses, unless this function is overridden; NOTE: This information is only used for _display_ purposes: it in no way affects any of the arithmetic of the contract, including {IERC20-balanceOf} and {IERC20-transfer}."
      },
      "decreaseAllowance(address,uint256)": {
        "details": "Atomically decreases the allowance granted to `spender` by the caller. This is an alternative to {approve} that can be used as a mitigation for problems described in {IERC20-approve}. Emits an {Approval} event indicating the updated allowance. Requirements: - `spender` cannot be the zero address. - `spender` must have allowance for the caller of at least `subtractedValue`."
      },
      "delegate(address)": {
        "details": "Delegate votes from the sender to `delegatee`."
      },
      "delegateBySig(address,uint256,uint256,uint8,bytes32,bytes32)": {
        "details": "Delegates votes from signer to `delegatee`"
      },
      "delegates(address)": {
        "details": "Get the address `account` is currently delegating to."
      },
      "getPastTotalSupply(uint256)": {
        "details": "Retrieve the `totalSupply` at the end of `blockNumber`. Note, this value is the sum of all balances. It is but NOT the sum of all the delegated votes! Requirements: - `blockNumber` must have been already mined"
      },
      "getPastVotes(address,uint256)": {
        "details": "Retrieve the number of votes for `account` at the end of `blockNumber`. Requirements: - `blockNumber` must have been already mined"
      },
      "getRoleAdmin(bytes32)": {
        "details": "Returns the admin role that controls `role`. See {grantRole} and {revokeRole}. To change a role's admin, use {_setRoleAdmin}."
      },
      "getVotes(address)": {
        "details": "Gets the current votes balance for `account`"
      },
      "grantRole(bytes32,address)": {
        "details": "Grants `role` to `account`. If `account` had not been already granted `role`, emits a {RoleGranted} event. Requirements: - the caller must have ``role``'s admin role. May emit a {RoleGranted} event."
      },
      "hasRole(bytes32,address)": {
        "details": "Returns `true` if `account` has been granted `role`."
      },
      "increaseAllowance(address,uint256)": {
        "details": "Atomically increases the allowance granted to `spender` by the caller. This is an alternative to {approve} that can be used as a mitigation for problems described in {IERC20-approve}. Emits an {Approval} event indicating the updated allowance. Requirements: - `spender` cannot be the zero address."
      },
      "name()": {
        "details": "Returns the name of the token."
      },
      "nonces(address)": {
        "details": "See {IERC20Permit-nonces}."
      },
      "numCheckpoints(address)": {
        "details": "Get number of checkpoints for `account`."
      },
      "paused()": {
        "details": "Returns true if the contract is paused, and false otherwise."
      },
      "permit(address,address,uint256,uint256,uint8,bytes32,bytes32)": {
        "details": "See {IERC20Permit-permit}."
      },
      "removeFromWhitelist(address)": {
        "details": "Remove ability of a whitelisted sender to transfer ve tokens."
      },
      "renounceRole(bytes32,address)": {
        "details": "Revokes `role` from the calling account. Roles are often managed via {grantRole} and {revokeRole}: this function's purpose is to provide a mechanism for accounts to lose their privileges if they are compromised (such as when a trusted device is misplaced). If the calling account had been revoked `role`, emits a {RoleRevoked} event. Requirements: - the caller must be `account`. May emit a {RoleRevoked} event."
      },
      "revokeRole(bytes32,address)": {
        "details": "Revokes `role` from `account`. If `account` had been granted `role`, emits a {RoleRevoked} event. Requirements: - the caller must have ``role``'s admin role. May emit a {RoleRevoked} event."
      },
      "supportsInterface(bytes4)": {
        "details": "See {IERC165-supportsInterface}."
      },
      "symbol()": {
        "details": "Returns the symbol of the token, usually a shorter version of the name."
      },
      "totalSupply()": {
        "details": "See {IERC20-totalSupply}."
      },
      "transfer(address,uint256)": {
        "details": "See {IERC20-transfer}. Requirements: - `to` cannot be the zero address. - the caller must have a balance of at least `amount`."
      },
      "transferFrom(address,address,uint256)": {
        "details": "See {IERC20-transferFrom}. Emits an {Approval} event indicating the updated allowance. This is not required by the EIP. See the note at the beginning of {ERC20}. NOTE: Does not update the allowance if the current allowance is the maximum `uint256`. Requirements: - `from` and `to` cannot be the zero address. - `from` must have a balance of at least `amount`. - the caller must have allowance for ``from``'s tokens of at least `amount`."
      }
    },
    "version": 1
  },
  "userdoc": {
    "kind": "user",
    "methods": {},
    "version": 1
  }
}