{
  "contractName": "VMainToken",
  "abi": [
    {
      "inputs": [
        {
          "internalType": "string",
          "name": "name_",
          "type": "string"
        },
        {
          "internalType": "string",
          "name": "symbol_",
          "type": "string"
        }
      ],
      "stateMutability": "nonpayable",
      "type": "constructor"
    },
    {
      "inputs": [],
      "name": "AdminShouldBeDifferentThanMsgSender",
      "type": "error"
    },
    {
      "inputs": [],
      "name": "BlockNotYetMined",
      "type": "error"
    },
    {
      "inputs": [],
      "name": "ERC20ApproveFromZeroAddress",
      "type": "error"
    },
    {
      "inputs": [],
      "name": "ERC20ApproveToZeroAddress",
      "type": "error"
    },
    {
      "inputs": [],
      "name": "ERC20DecreasedAllowanceBelowZero",
      "type": "error"
    },
    {
      "inputs": [],
      "name": "ERC20InsufficientAllowance",
      "type": "error"
    },
    {
      "inputs": [],
      "name": "ERC20TransferAmountZero",
      "type": "error"
    },
    {
      "inputs": [],
      "name": "ERC20TransferExceedsBalance",
      "type": "error"
    },
    {
      "inputs": [],
      "name": "ERC20TransferFromZeroAddress",
      "type": "error"
    },
    {
      "inputs": [],
      "name": "ERC20TransferToZeroAddress",
      "type": "error"
    },
    {
      "inputs": [],
      "name": "ExpiredDeadline",
      "type": "error"
    },
    {
      "inputs": [],
      "name": "InvalidNonce",
      "type": "error"
    },
    {
      "inputs": [],
      "name": "InvalidSignature",
      "type": "error"
    },
    {
      "inputs": [],
      "name": "SignatureExpired",
      "type": "error"
    },
    {
      "inputs": [],
      "name": "TotalSupplyOverflowsVotes",
      "type": "error"
    },
    {
      "inputs": [],
      "name": "VMainTokenIsIntransferableUnlessTheSenderIsAllowlisted",
      "type": "error"
    },
    {
      "anonymous": false,
      "inputs": [
        {
          "indexed": true,
          "internalType": "address",
          "name": "owner",
          "type": "address"
        },
        {
          "indexed": true,
          "internalType": "address",
          "name": "spender",
          "type": "address"
        },
        {
          "indexed": false,
          "internalType": "uint256",
          "name": "value",
          "type": "uint256"
        }
      ],
      "name": "Approval",
      "type": "event"
    },
    {
      "anonymous": false,
      "inputs": [
        {
          "indexed": true,
          "internalType": "address",
          "name": "delegator",
          "type": "address"
        },
        {
          "indexed": true,
          "internalType": "address",
          "name": "fromDelegate",
          "type": "address"
        },
        {
          "indexed": true,
          "internalType": "address",
          "name": "toDelegate",
          "type": "address"
        }
      ],
      "name": "DelegateChanged",
      "type": "event"
    },
    {
      "anonymous": false,
      "inputs": [
        {
          "indexed": true,
          "internalType": "address",
          "name": "delegate",
          "type": "address"
        },
        {
          "indexed": false,
          "internalType": "uint256",
          "name": "previousBalance",
          "type": "uint256"
        },
        {
          "indexed": false,
          "internalType": "uint256",
          "name": "newBalance",
          "type": "uint256"
        }
      ],
      "name": "DelegateVotesChanged",
      "type": "event"
    },
    {
      "anonymous": false,
      "inputs": [
        {
          "indexed": false,
          "internalType": "uint8",
          "name": "version",
          "type": "uint8"
        }
      ],
      "name": "Initialized",
      "type": "event"
    },
    {
      "anonymous": false,
      "inputs": [
        {
          "indexed": false,
          "internalType": "address",
          "name": "_member",
          "type": "address"
        }
      ],
      "name": "MemberAddedToAllowlist",
      "type": "event"
    },
    {
      "anonymous": false,
      "inputs": [
        {
          "indexed": false,
          "internalType": "address",
          "name": "_member",
          "type": "address"
        }
      ],
      "name": "MemberRemovedFromAllowlist",
      "type": "event"
    },
    {
      "anonymous": false,
      "inputs": [
        {
          "indexed": false,
          "internalType": "address",
          "name": "account",
          "type": "address"
        }
      ],
      "name": "Paused",
      "type": "event"
    },
    {
      "anonymous": false,
      "inputs": [
        {
          "indexed": true,
          "internalType": "bytes32",
          "name": "role",
          "type": "bytes32"
        },
        {
          "indexed": true,
          "internalType": "bytes32",
          "name": "previousAdminRole",
          "type": "bytes32"
        },
        {
          "indexed": true,
          "internalType": "bytes32",
          "name": "newAdminRole",
          "type": "bytes32"
        }
      ],
      "name": "RoleAdminChanged",
      "type": "event"
    },
    {
      "anonymous": false,
      "inputs": [
        {
          "indexed": true,
          "internalType": "bytes32",
          "name": "role",
          "type": "bytes32"
        },
        {
          "indexed": true,
          "internalType": "address",
          "name": "account",
          "type": "address"
        },
        {
          "indexed": true,
          "internalType": "address",
          "name": "sender",
          "type": "address"
        }
      ],
      "name": "RoleGranted",
      "type": "event"
    },
    {
      "anonymous": false,
      "inputs": [
        {
          "indexed": true,
          "internalType": "bytes32",
          "name": "role",
          "type": "bytes32"
        },
        {
          "indexed": true,
          "internalType": "address",
          "name": "account",
          "type": "address"
        },
        {
          "indexed": true,
          "internalType": "address",
          "name": "sender",
          "type": "address"
        }
      ],
      "name": "RoleRevoked",
      "type": "event"
    },
    {
      "anonymous": false,
      "inputs": [
        {
          "indexed": true,
          "internalType": "address",
          "name": "from",
          "type": "address"
        },
        {
          "indexed": true,
          "internalType": "address",
          "name": "to",
          "type": "address"
        },
        {
          "indexed": false,
          "internalType": "uint256",
          "name": "value",
          "type": "uint256"
        }
      ],
      "name": "Transfer",
      "type": "event"
    },
    {
      "anonymous": false,
      "inputs": [
        {
          "indexed": false,
          "internalType": "address",
          "name": "account",
          "type": "address"
        }
      ],
      "name": "Unpaused",
      "type": "event"
    },
    {
      "inputs": [],
      "name": "ALLOWLISTER_ROLE",
      "outputs": [
        {
          "internalType": "bytes32",
          "name": "",
          "type": "bytes32"
        }
      ],
      "stateMutability": "view",
      "type": "function"
    },
    {
      "inputs": [],
      "name": "DEFAULT_ADMIN_ROLE",
      "outputs": [
        {
          "internalType": "bytes32",
          "name": "",
          "type": "bytes32"
        }
      ],
      "stateMutability": "view",
      "type": "function"
    },
    {
      "inputs": [],
      "name": "DOMAIN_SEPARATOR",
      "outputs": [
        {
          "internalType": "bytes32",
          "name": "",
          "type": "bytes32"
        }
      ],
      "stateMutability": "view",
      "type": "function"
    },
    {
      "inputs": [],
      "name": "MINTER_ROLE",
      "outputs": [
        {
          "internalType": "bytes32",
          "name": "",
          "type": "bytes32"
        }
      ],
      "stateMutability": "view",
      "type": "function"
    },
    {
      "inputs": [],
      "name": "PAUSER_ROLE",
      "outputs": [
        {
          "internalType": "bytes32",
          "name": "",
          "type": "bytes32"
        }
      ],
      "stateMutability": "view",
      "type": "function"
    },
    {
      "inputs": [
        {
          "internalType": "address",
          "name": "owner",
          "type": "address"
        },
        {
          "internalType": "address",
          "name": "spender",
          "type": "address"
        }
      ],
      "name": "allowance",
      "outputs": [
        {
          "internalType": "uint256",
          "name": "",
          "type": "uint256"
        }
      ],
      "stateMutability": "view",
      "type": "function"
    },
    {
      "inputs": [
        {
          "internalType": "address",
          "name": "spender",
          "type": "address"
        },
        {
          "internalType": "uint256",
          "name": "amount",
          "type": "uint256"
        }
      ],
      "name": "approve",
      "outputs": [
        {
          "internalType": "bool",
          "name": "",
          "type": "bool"
        }
      ],
      "stateMutability": "nonpayable",
      "type": "function"
    },
    {
      "inputs": [
        {
          "internalType": "address",
          "name": "account",
          "type": "address"
        }
      ],
      "name": "balanceOf",
      "outputs": [
        {
          "internalType": "uint256",
          "name": "",
          "type": "uint256"
        }
      ],
      "stateMutability": "view",
      "type": "function"
    },
    {
      "inputs": [
        {
          "internalType": "address",
          "name": "account",
          "type": "address"
        },
        {
          "internalType": "uint32",
          "name": "pos",
          "type": "uint32"
        }
      ],
      "name": "checkpoints",
      "outputs": [
        {
          "components": [
            {
              "internalType": "uint32",
              "name": "fromBlock",
              "type": "uint32"
            },
            {
              "internalType": "uint224",
              "name": "votes",
              "type": "uint224"
            }
          ],
          "internalType": "struct ERC20Votes.Checkpoint",
          "name": "",
          "type": "tuple"
        }
      ],
      "stateMutability": "view",
      "type": "function"
    },
    {
      "inputs": [],
      "name": "decimals",
      "outputs": [
        {
          "internalType": "uint8",
          "name": "",
          "type": "uint8"
        }
      ],
      "stateMutability": "view",
      "type": "function"
    },
    {
      "inputs": [
        {
          "internalType": "address",
          "name": "spender",
          "type": "address"
        },
        {
          "internalType": "uint256",
          "name": "subtractedValue",
          "type": "uint256"
        }
      ],
      "name": "decreaseAllowance",
      "outputs": [
        {
          "internalType": "bool",
          "name": "",
          "type": "bool"
        }
      ],
      "stateMutability": "nonpayable",
      "type": "function"
    },
    {
      "inputs": [
        {
          "internalType": "address",
          "name": "delegatee",
          "type": "address"
        }
      ],
      "name": "delegate",
      "outputs": [],
      "stateMutability": "nonpayable",
      "type": "function"
    },
    {
      "inputs": [
        {
          "internalType": "address",
          "name": "delegatee",
          "type": "address"
        },
        {
          "internalType": "uint256",
          "name": "nonce",
          "type": "uint256"
        },
        {
          "internalType": "uint256",
          "name": "expiry",
          "type": "uint256"
        },
        {
          "internalType": "uint8",
          "name": "v",
          "type": "uint8"
        },
        {
          "internalType": "bytes32",
          "name": "r",
          "type": "bytes32"
        },
        {
          "internalType": "bytes32",
          "name": "s",
          "type": "bytes32"
        }
      ],
      "name": "delegateBySig",
      "outputs": [],
      "stateMutability": "nonpayable",
      "type": "function"
    },
    {
      "inputs": [
        {
          "internalType": "address",
          "name": "account",
          "type": "address"
        }
      ],
      "name": "delegates",
      "outputs": [
        {
          "internalType": "address",
          "name": "",
          "type": "address"
        }
      ],
      "stateMutability": "view",
      "type": "function"
    },
    {
      "inputs": [
        {
          "internalType": "uint256",
          "name": "blockNumber",
          "type": "uint256"
        }
      ],
      "name": "getPastTotalSupply",
      "outputs": [
        {
          "internalType": "uint256",
          "name": "",
          "type": "uint256"
        }
      ],
      "stateMutability": "view",
      "type": "function"
    },
    {
      "inputs": [
        {
          "internalType": "address",
          "name": "account",
          "type": "address"
        },
        {
          "internalType": "uint256",
          "name": "blockNumber",
          "type": "uint256"
        }
      ],
      "name": "getPastVotes",
      "outputs": [
        {
          "internalType": "uint256",
          "name": "",
          "type": "uint256"
        }
      ],
      "stateMutability": "view",
      "type": "function"
    },
    {
      "inputs": [
        {
          "internalType": "bytes32",
          "name": "role",
          "type": "bytes32"
        }
      ],
      "name": "getRoleAdmin",
      "outputs": [
        {
          "internalType": "bytes32",
          "name": "",
          "type": "bytes32"
        }
      ],
      "stateMutability": "view",
      "type": "function"
    },
    {
      "inputs": [
        {
          "internalType": "address",
          "name": "account",
          "type": "address"
        }
      ],
      "name": "getVotes",
      "outputs": [
        {
          "internalType": "uint256",
          "name": "",
          "type": "uint256"
        }
      ],
      "stateMutability": "view",
      "type": "function"
    },
    {
      "inputs": [
        {
          "internalType": "bytes32",
          "name": "role",
          "type": "bytes32"
        },
        {
          "internalType": "address",
          "name": "account",
          "type": "address"
        }
      ],
      "name": "grantRole",
      "outputs": [],
      "stateMutability": "nonpayable",
      "type": "function"
    },
    {
      "inputs": [
        {
          "internalType": "bytes32",
          "name": "role",
          "type": "bytes32"
        },
        {
          "internalType": "address",
          "name": "account",
          "type": "address"
        }
      ],
      "name": "hasRole",
      "outputs": [
        {
          "internalType": "bool",
          "name": "",
          "type": "bool"
        }
      ],
      "stateMutability": "view",
      "type": "function"
    },
    {
      "inputs": [
        {
          "internalType": "address",
          "name": "spender",
          "type": "address"
        },
        {
          "internalType": "uint256",
          "name": "addedValue",
          "type": "uint256"
        }
      ],
      "name": "increaseAllowance",
      "outputs": [
        {
          "internalType": "bool",
          "name": "",
          "type": "bool"
        }
      ],
      "stateMutability": "nonpayable",
      "type": "function"
    },
    {
      "inputs": [
        {
          "internalType": "address",
          "name": "",
          "type": "address"
        }
      ],
      "name": "isAllowListed",
      "outputs": [
        {
          "internalType": "bool",
          "name": "",
          "type": "bool"
        }
      ],
      "stateMutability": "view",
      "type": "function"
    },
    {
      "inputs": [],
      "name": "name",
      "outputs": [
        {
          "internalType": "string",
          "name": "",
          "type": "string"
        }
      ],
      "stateMutability": "view",
      "type": "function"
    },
    {
      "inputs": [
        {
          "internalType": "address",
          "name": "owner",
          "type": "address"
        }
      ],
      "name": "nonces",
      "outputs": [
        {
          "internalType": "uint256",
          "name": "",
          "type": "uint256"
        }
      ],
      "stateMutability": "view",
      "type": "function"
    },
    {
      "inputs": [
        {
          "internalType": "address",
          "name": "account",
          "type": "address"
        }
      ],
      "name": "numCheckpoints",
      "outputs": [
        {
          "internalType": "uint32",
          "name": "",
          "type": "uint32"
        }
      ],
      "stateMutability": "view",
      "type": "function"
    },
    {
      "inputs": [],
      "name": "paused",
      "outputs": [
        {
          "internalType": "bool",
          "name": "",
          "type": "bool"
        }
      ],
      "stateMutability": "view",
      "type": "function"
    },
    {
      "inputs": [
        {
          "internalType": "address",
          "name": "owner",
          "type": "address"
        },
        {
          "internalType": "address",
          "name": "spender",
          "type": "address"
        },
        {
          "internalType": "uint256",
          "name": "value",
          "type": "uint256"
        },
        {
          "internalType": "uint256",
          "name": "deadline",
          "type": "uint256"
        },
        {
          "internalType": "uint8",
          "name": "v",
          "type": "uint8"
        },
        {
          "internalType": "bytes32",
          "name": "r",
          "type": "bytes32"
        },
        {
          "internalType": "bytes32",
          "name": "s",
          "type": "bytes32"
        }
      ],
      "name": "permit",
      "outputs": [],
      "stateMutability": "nonpayable",
      "type": "function"
    },
    {
      "inputs": [
        {
          "internalType": "bytes32",
          "name": "role",
          "type": "bytes32"
        },
        {
          "internalType": "address",
          "name": "account",
          "type": "address"
        }
      ],
      "name": "renounceRole",
      "outputs": [],
      "stateMutability": "nonpayable",
      "type": "function"
    },
    {
      "inputs": [
        {
          "internalType": "bytes32",
          "name": "role",
          "type": "bytes32"
        },
        {
          "internalType": "address",
          "name": "account",
          "type": "address"
        }
      ],
      "name": "revokeRole",
      "outputs": [],
      "stateMutability": "nonpayable",
      "type": "function"
    },
    {
      "inputs": [
        {
          "internalType": "bytes4",
          "name": "interfaceId",
          "type": "bytes4"
        }
      ],
      "name": "supportsInterface",
      "outputs": [
        {
          "internalType": "bool",
          "name": "",
          "type": "bool"
        }
      ],
      "stateMutability": "view",
      "type": "function"
    },
    {
      "inputs": [],
      "name": "symbol",
      "outputs": [
        {
          "internalType": "string",
          "name": "",
          "type": "string"
        }
      ],
      "stateMutability": "view",
      "type": "function"
    },
    {
      "inputs": [],
      "name": "totalSupply",
      "outputs": [
        {
          "internalType": "uint256",
          "name": "",
          "type": "uint256"
        }
      ],
      "stateMutability": "view",
      "type": "function"
    },
    {
      "inputs": [
        {
          "internalType": "address",
          "name": "to",
          "type": "address"
        },
        {
          "internalType": "uint256",
          "name": "amount",
          "type": "uint256"
        }
      ],
      "name": "transfer",
      "outputs": [
        {
          "internalType": "bool",
          "name": "",
          "type": "bool"
        }
      ],
      "stateMutability": "nonpayable",
      "type": "function"
    },
    {
      "inputs": [
        {
          "internalType": "address",
          "name": "from",
          "type": "address"
        },
        {
          "internalType": "address",
          "name": "to",
          "type": "address"
        },
        {
          "internalType": "uint256",
          "name": "amount",
          "type": "uint256"
        }
      ],
      "name": "transferFrom",
      "outputs": [
        {
          "internalType": "bool",
          "name": "",
          "type": "bool"
        }
      ],
      "stateMutability": "nonpayable",
      "type": "function"
    },
    {
      "inputs": [
        {
          "internalType": "address",
          "name": "_admin",
          "type": "address"
        },
        {
          "internalType": "address",
          "name": "_minter",
          "type": "address"
        }
      ],
      "name": "initToken",
      "outputs": [],
      "stateMutability": "nonpayable",
      "type": "function"
    },
    {
      "inputs": [
        {
          "internalType": "address",
          "name": "_minter",
          "type": "address"
        }
      ],
      "name": "grantMinterRole",
      "outputs": [],
      "stateMutability": "nonpayable",
      "type": "function"
    },
    {
      "inputs": [
        {
          "internalType": "address",
          "name": "_minter",
          "type": "address"
        }
      ],
      "name": "revokeMinterRole",
      "outputs": [],
      "stateMutability": "nonpayable",
      "type": "function"
    },
    {
      "inputs": [],
      "name": "pause",
      "outputs": [],
      "stateMutability": "nonpayable",
      "type": "function"
    },
    {
      "inputs": [],
      "name": "unpause",
      "outputs": [],
      "stateMutability": "nonpayable",
      "type": "function"
    },
    {
      "inputs": [
        {
          "internalType": "address",
          "name": "to",
          "type": "address"
        },
        {
          "internalType": "uint256",
          "name": "amount",
          "type": "uint256"
        }
      ],
      "name": "mint",
      "outputs": [],
      "stateMutability": "nonpayable",
      "type": "function"
    },
    {
      "inputs": [
        {
          "internalType": "address",
          "name": "account",
          "type": "address"
        },
        {
          "internalType": "uint256",
          "name": "amount",
          "type": "uint256"
        }
      ],
      "name": "burn",
      "outputs": [],
      "stateMutability": "nonpayable",
      "type": "function"
    }
  ],
  "bytecode": "0x6101406040523480156200001257600080fd5b50604051620030d8380380620030d88339810160408190526200003591620002f7565b6040805180820190915260018152603160f81b60208201526000805460ff19169055829082908290829082908183600662000071838262000470565b50600762000080828262000470565b5050825160208085019190912083519184019190912060e08290526101008190529091507f8b73c3c69bb8fe3d512ecc4cf759cc79239f7b179b0ffacaa9a75d522b39400f4660a052620000d681848462000102565b6080523060c0526101205250620000fa965060009550339450506200013e92505050565b5050620005bb565b600083838346306040516020016200011f95949392919062000565565b6040516020818303038152906040528051906020012090509392505050565b60008281526001602090815260408083206001600160a01b038516845290915290205460ff16620001c35760008281526001602081815260408084206001600160a01b0386168086529252808420805460ff19169093179092559051339285917f2f8788117e7eff1d82e926ec794901d17c78024a50270940304540a733656f0d9190a45b5050565b634e487b7160e01b600052604160045260246000fd5b601f19601f83011681018181106001600160401b0382111715620002055762000205620001c7565b6040525050565b60006200021860405190565b9050620002268282620001dd565b919050565b60006001600160401b03821115620002475762000247620001c7565b601f19601f83011660200192915050565b60005b83811015620002755781810151838201526020016200025b565b50506000910152565b6000620002956200028f846200022b565b6200020c565b905082815260208101848484011115620002b257620002b2600080fd5b620002bf84828562000258565b509392505050565b600082601f830112620002dd57620002dd600080fd5b8151620002ef8482602086016200027e565b949350505050565b600080604083850312156200030f576200030f600080fd5b82516001600160401b038111156200032a576200032a600080fd5b6200033885828601620002c7565b92505060208301516001600160401b03811115620003595762000359600080fd5b6200036785828601620002c7565b9150509250929050565b634e487b7160e01b600052602260045260246000fd5b6002810460018216806200039c57607f821691505b602082108103620003b157620003b162000371565b50919050565b6000620003c8620003c58381565b90565b92915050565b620003d983620003b7565b81546008840282811b60001990911b908116901990911617825550505050565b600062000408818484620003ce565b505050565b81811015620001c35762000423600082620003f9565b6001016200040d565b601f82111562000408576000818152602090206020601f85010481016020851015620004555750805b620004696020601f8601048301826200040d565b5050505050565b81516001600160401b038111156200048c576200048c620001c7565b62000498825462000387565b620004a58282856200042c565b6020601f831160018114620004dc5760008415620004c35750858201515b600019600886021c198116600286021786555062000538565b600085815260208120601f198616915b828110156200050e5788850151825560209485019460019092019101620004ec565b868310156200052b5784890151600019601f89166008021c191682555b6001600288020188555050505b505050505050565b805b82525050565b60006001600160a01b038216620003c8565b620005428162000548565b60a0810162000575828862000540565b62000584602083018762000540565b62000593604083018662000540565b620005a2606083018562000540565b620005b160808301846200055a565b9695505050505050565b60805160a05160c05160e0516101005161012051612acd6200060b60003960006111fc0152600061123e0152600061121d01526000611181015260006111ab015260006111d50152612acd6000f3fe608060405234801561001057600080fd5b50600436106102535760003560e01c806370a0823111610146578063a457c2d7116100c3578063d505accf11610087578063d505accf1461052b578063d53913931461053e578063d547741f14610553578063dd62ed3e14610566578063e63ab1e914610579578063f1127ed81461058e57600080fd5b8063a457c2d7146104b8578063a9059cbb146104cb578063acca6838146104de578063ba2b6bad14610505578063c3cda5201461051857600080fd5b806391d148541161010a57806391d148541461046f57806395d89b41146104825780639ab24eb01461048a5780639dc29fac1461049d578063a217fddf146104b057600080fd5b806370a08231146103f557806370dd8d2e1461041e5780637ecebe00146104415780638456cb59146104545780638e539e8c1461045c57600080fd5b806339509351116101d4578063587cde1e11610198578063587cde1e146103845780635c19a95c146103a45780635c975abb146103b757806369e2f0fb146103c25780636fcfff45146103d557600080fd5b806339509351146103305780633a46b1a8146103435780633dd1eb61146103565780633f4ba83a1461036957806340c10f191461037157600080fd5b8063248a9ca31161021b578063248a9ca3146102cd5780632f2ff15d146102f1578063313ce567146103065780633644e5151461031557806336568abe1461031d57600080fd5b806301ffc9a71461025857806306fdde0314610281578063095ea7b31461029657806318160ddd146102a957806323b872dd146102ba575b600080fd5b61026b610266366004611fe9565b6105ae565b604051610278919061201c565b60405180910390f35b6102896105e5565b6040516102789190612080565b61026b6102a43660046120c7565b610677565b6005545b604051610278919061210a565b61026b6102c8366004612118565b61068f565b6102ad6102db366004612168565b6000908152600160208190526040909120015490565b6103046102ff366004612189565b6106b5565b005b601260405161027891906121c5565b6102ad6106e0565b61030461032b366004612189565b6106ef565b61026b61033e3660046120c7565b61072e565b6102ad6103513660046120c7565b610750565b6103046103643660046121d3565b610794565b6103046107f7565b61030461037f3660046120c7565b61081a565b6103976103923660046121d3565b610846565b60405161027891906121fd565b6103046103b23660046121d3565b610864565b60005460ff1661026b565b6103046103d03660046121d3565b61086e565b6103e86103e33660046121d3565b6108d1565b6040516102789190612217565b6102ad6104033660046121d3565b6001600160a01b031660009081526003602052604090205490565b61026b61042c3660046121d3565b600d6020526000908152604090205460ff1681565b6102ad61044f3660046121d3565b6108f3565b610304610911565b6102ad61046a366004612168565b610931565b61026b61047d366004612189565b61095e565b610289610989565b6102ad6104983660046121d3565b610998565b6103046104ab3660046120c7565b610a1e565b6102ad600081565b61026b6104c63660046120c7565b610a40565b61026b6104d93660046120c7565b610a89565b6102ad7ffba4f6dd992a27a814ee807eb2f9332d6d01312041726966a540cf4a4a89155381565b610304610513366004612225565b610a97565b61030461052636600461225b565b610c5f565b6103046105393660046122e5565b610d1f565b6102ad600080516020612a7883398151915281565b610304610561366004612189565b610e03565b6102ad610574366004612225565b610e29565b6102ad600080516020612a5883398151915281565b6105a161059c36600461239b565b610e54565b6040516102789190612401565b60006001600160e01b03198216637965db0b60e01b14806105df57506301ffc9a760e01b6001600160e01b03198316145b92915050565b6060600680546105f490612425565b80601f016020809104026020016040519081016040528092919081815260200182805461062090612425565b801561066d5780601f106106425761010080835404028352916020019161066d565b820191906000526020600020905b81548152906001019060200180831161065057829003601f168201915b5050505050905090565b600033610685818585610ed7565b5060019392505050565b60003361069d858285610f8d565b6106a8858585610fd8565b60019150505b9392505050565b600082815260016020819052604090912001546106d1816110ff565b6106db8383611109565b505050565b60006106ea611174565b905090565b6001600160a01b03811633146107205760405162461bcd60e51b81526004016107179061249a565b60405180910390fd5b61072a8282611262565b5050565b6000336106858185856107418383610e29565b61074b91906124c0565b610ed7565b60004382106107725760405163185e74f560e11b815260040160405180910390fd5b6001600160a01b0383166000908152600b602052604090206106ae90836112c9565b600080516020612a7883398151915260005260016020527f64e21244e91af723e1b962171ed4828dcecc0d7b89872e516a5db8266da80001546107d6816110ff565b6107ee600080516020612a7883398151915283611109565b61072a82611385565b600080516020612a5883398151915261080f816110ff565b6108176113e3565b50565b600080516020612a78833981519152610832816110ff565b61083c838361142f565b6106db8384611471565b6001600160a01b039081166000908152600a60205260409020541690565b6108173382611471565b600080516020612a7883398151915260005260016020527f64e21244e91af723e1b962171ed4828dcecc0d7b89872e516a5db8266da80001546108b0816110ff565b6108c8600080516020612a7883398151915283611262565b61072a82611507565b6001600160a01b0381166000908152600b60205260408120546105df90611557565b6001600160a01b0381166000908152600860205260408120546105df565b600080516020612a58833981519152610929816110ff565b610817611581565b60004382106109535760405163185e74f560e11b815260040160405180910390fd5b6105df600c836112c9565b60009182526001602090815260408084206001600160a01b0393909316845291905290205460ff1690565b6060600780546105f490612425565b6001600160a01b0381166000908152600b60205260408120548015610a0b576001600160a01b0383166000908152600b602052604090206109da6001836124d3565b815481106109ea576109ea6124e6565b600091825260209091200154600160201b90046001600160e01b0316610a0e565b60005b6001600160e01b03169392505050565b600080516020612a78833981519152610a36816110ff565b6106db83836115be565b60003381610a4e8286610e29565b905083811015610a7157604051634b81eea160e11b815260040160405180910390fd5b610a7e8286868403610ed7565b506001949350505050565b600033610685818585610fd8565b600254610100900460ff1615808015610ab75750600254600160ff909116105b80610ad15750303b158015610ad1575060025460ff166001145b610aed5760405162461bcd60e51b815260040161071790612547565b6002805460ff191660011790558015610b10576002805461ff0019166101001790555b6000610b1b816110ff565b336001600160a01b03851603610b44576040516321db630b60e21b815260040160405180910390fd5b610b4f600085611109565b610b67600080516020612a5883398151915285611109565b610b7f600080516020612a7883398151915284611109565b610ba97ffba4f6dd992a27a814ee807eb2f9332d6d01312041726966a540cf4a4a89155385611109565b610bb4600033611262565b6001600160a01b0383166000908152600d602052604090819020805460ff19166001179055517fe1cab5808217f53c004ad3a4fa18593f9c94452a6c3852f3ccfbe403b76bad7b90610c079085906121fd565b60405180910390a15080156106db576002805461ff00191690556040517f7f26b83ff96e1f2b6a682f133852f6798a09c465da95921460cefb384740249890610c529060019061256b565b60405180910390a1505050565b83421115610c8057604051630819bdcd60e01b815260040160405180910390fd5b6000610ce2610cda7fe48329057bfd03d55e49b547132e39cffd9c1820ad7b9d4c5307691425d15adf898989604051602001610cbf9493929190612579565b604051602081830303815290604052805190602001206115d6565b8585856115e9565b9050610ced81611611565b8614610d0c57604051633ab3447f60e11b815260040160405180910390fd5b610d168188611471565b50505050505050565b83421115610d405760405163f87d927160e01b815260040160405180910390fd5b60007f6e71edae12b1b97f4d1f60370fef10105fa2faae0126114a169c64845d6126c9888888610d6f8c611611565b89604051602001610d85969594939291906125b7565b6040516020818303038152906040528051906020012090506000610da8826115d6565b90506000610db8828787876115e9565b9050896001600160a01b0316816001600160a01b031614610dec57604051638baa579f60e01b815260040160405180910390fd5b610df78a8a8a610ed7565b50505050505050505050565b60008281526001602081905260409091200154610e1f816110ff565b6106db8383611262565b6001600160a01b03918216600090815260046020908152604080832093909416825291909152205490565b60408051808201909152600080825260208201526001600160a01b0383166000908152600b60205260409020805463ffffffff8416908110610e9857610e986124e6565b60009182526020918290206040805180820190915291015463ffffffff81168252600160201b90046001600160e01b0316918101919091529392505050565b6001600160a01b038316610efe5760405163bec36d8f60e01b815260040160405180910390fd5b6001600160a01b038216610f2557604051636c576ffb60e11b815260040160405180910390fd5b6001600160a01b0380841660008181526004602090815260408083209487168084529490915290819020849055517f8c5be1e5ebec7d5bd14f71427d1e84f3dd0314c0f7b2291e5b200ac8c7c3b92590610f8090859061210a565b60405180910390a3505050565b6000610f998484610e29565b90506000198114610fd25781811015610fc55760405163017e286b60e51b815260040160405180910390fd5b610fd28484848403610ed7565b50505050565b6001600160a01b038316610fff576040516327903dcf60e01b815260040160405180910390fd5b6001600160a01b038216611026576040516301ace2af60e11b815260040160405180910390fd5b611031838383611639565b6001600160a01b0383166000908152600360205260409020548181101561106b5760405163680c24ff60e11b815260040160405180910390fd5b6001600160a01b038085166000908152600360205260408082208585039055918516815290812080548492906110a29084906124c0565b92505081905550826001600160a01b0316846001600160a01b03167fddf252ad1be2c89b69c2b068fc378daa952ba7f163c4a11628f55a4df523b3ef846040516110ec919061210a565b60405180910390a3610fd2848484611671565b610817813361167c565b611113828261095e565b61072a5760008281526001602081815260408084206001600160a01b0386168086529252808420805460ff19169093179092559051339285917f2f8788117e7eff1d82e926ec794901d17c78024a50270940304540a733656f0d9190a45050565b6000306001600160a01b037f0000000000000000000000000000000000000000000000000000000000000000161480156111cd57507f000000000000000000000000000000000000000000000000000000000000000046145b156111f757507f000000000000000000000000000000000000000000000000000000000000000090565b6106ea7f00000000000000000000000000000000000000000000000000000000000000007f00000000000000000000000000000000000000000000000000000000000000007f00000000000000000000000000000000000000000000000000000000000000006116e0565b61126c828261095e565b1561072a5760008281526001602090815260408083206001600160a01b0385168085529252808320805460ff1916905551339285917ff6391f5c32d9c69d2a47ea670b442974b53935d1edc7fd64eb21e047a839171b9190a45050565b8154600090815b8181101561132d5760006112e4828461171a565b9050848682815481106112f9576112f96124e6565b60009182526020909120015463ffffffff16111561131957809250611327565b6113248160016124c0565b91505b506112d0565b8115611370578461133f6001846124d3565b8154811061134f5761134f6124e6565b600091825260209091200154600160201b90046001600160e01b0316611373565b60005b6001600160e01b031695945050505050565b6001600160a01b0381166000908152600d602052604090819020805460ff19166001179055517fe1cab5808217f53c004ad3a4fa18593f9c94452a6c3852f3ccfbe403b76bad7b906113d89083906121fd565b60405180910390a150565b6113eb611771565b6000805460ff191690557f5db9ee0a495bf2e6ff9c91a7834c1ba4fdd244a5e8aa4e537bd38aeae4b073aa335b60405161142591906121fd565b60405180910390a1565b6114398282611795565b6005546001600160e01b0310156114635760405163d92c019160e01b815260040160405180910390fd5b610fd2600c61185e8361186a565b600061147c83610846565b9050600061149f846001600160a01b031660009081526003602052604090205490565b6001600160a01b038581166000818152600a602052604080822080546001600160a01b031916898616908117909155905194955093928616927f3134e8a2e6d97e929a7e54011ea5485d7d196dd5f0ba4d4ef95803e8e3fc257f9190a4610fd28284836119e1565b6001600160a01b0381166000908152600d602052604090819020805460ff19169055517f4ebdec2c938aafa0a683f6592c67d114d27d99d40e88b31d9a00ba10eb38020f906113d89083906121fd565b600063ffffffff82111561157d5760405162461bcd60e51b815260040161071790612654565b5090565b611589611b0c565b6000805460ff191660011790557f62e78cea01bee320cd4e420270b5ea74000d11b0c9f74754ebdbfc544b05a2586114183390565b6115c88282611b2f565b610fd2600c611c228361186a565b60006105df6115e3611174565b83611c2e565b60008060006115fa87878787611c61565b9150915061160781611d37565b5095945050505050565b6001600160a01b03811660009081526008602052604090208054600181018255905b50919050565b611641611b0c565b336000908152600d602052604090205460ff166106db5760405163e9b9991d60e01b815260040160405180910390fd5b6106db838383611e17565b611686828261095e565b61072a5761169e816001600160a01b03166014611e32565b6116a9836020611e32565b6040516020016116ba929190612686565b60408051601f198184030181529082905262461bcd60e51b825261071791600401612080565b600083838346306040516020016116fb9594939291906126d8565b6040516020818303038152906040528051906020012090509392505050565b60006002611728818461273a565b61173360028661273a565b61173d91906124c0565b611747919061274e565b61175260028461274e565b61175d60028661274e565b61176791906124c0565b6106ae91906124c0565b60005460ff166117935760405162461bcd60e51b815260040161071790612790565b565b6001600160a01b0382166117bc576040516301ace2af60e11b815260040160405180910390fd5b6117c860008383611639565b80600560008282546117da91906124c0565b90915550506001600160a01b038216600090815260036020526040812080548392906118079084906124c0565b90915550506040516001600160a01b038316906000907fddf252ad1be2c89b69c2b068fc378daa952ba7f163c4a11628f55a4df523b3ef9061184a90859061210a565b60405180910390a361072a60008383611671565b60006106ae82846124c0565b8254600090819080156118b457856118836001836124d3565b81548110611893576118936124e6565b600091825260209091200154600160201b90046001600160e01b03166118b7565b60005b6001600160e01b031692506118d083858763ffffffff16565b915060008111801561190e575043866118ea6001846124d3565b815481106118fa576118fa6124e6565b60009182526020909120015463ffffffff16145b1561196e5761191c82611f9e565b866119286001846124d3565b81548110611938576119386124e6565b9060005260206000200160000160046101000a8154816001600160e01b0302191690836001600160e01b031602179055506119d8565b85604051806040016040528061198343611557565b63ffffffff16815260200161199785611f9e565b6001600160e01b039081169091528254600181018455600093845260209384902083519490930151909116600160201b0263ffffffff909316929092179101555b50935093915050565b816001600160a01b0316836001600160a01b031614158015611a035750600081115b156106db576001600160a01b03831615611a88576001600160a01b0383166000908152600b602052604081208190611a3e90611c228561186a565b91509150846001600160a01b03167fdec2bacdd2f05b59de34da9b523dff8be42e5e38e818c82fdb0bae774387a7248383604051611a7d9291906127a0565b60405180910390a250505b6001600160a01b038216156106db576001600160a01b0382166000908152600b602052604081208190611abe9061185e8561186a565b91509150836001600160a01b03167fdec2bacdd2f05b59de34da9b523dff8be42e5e38e818c82fdb0bae774387a7248383604051611afd9291906127a0565b60405180910390a25050505050565b60005460ff16156117935760405162461bcd60e51b8152600401610717906127e2565b6001600160a01b038216611b56576040516327903dcf60e01b815260040160405180910390fd5b611b6282600083611639565b6001600160a01b03821660009081526003602052604090205481811015611b9c5760405163680c24ff60e11b815260040160405180910390fd5b6001600160a01b0383166000908152600360205260408120838303905560058054849290611bcb9084906124d3565b90915550506040516000906001600160a01b038516907fddf252ad1be2c89b69c2b068fc378daa952ba7f163c4a11628f55a4df523b3ef90611c0e90869061210a565b60405180910390a36106db83600084611671565b60006106ae82846124d3565b60008282604051602001611c439291906127f2565b60405160208183030381529060405280519060200120905092915050565b6000806fa2a8918ca85bafe22016d0b997e4df60600160ff1b03831115611c8e5750600090506003611d2e565b8460ff16601b14158015611ca657508460ff16601c14155b15611cb75750600090506004611d2e565b600060018787878760405160008152602001604052604051611cdc9493929190612823565b6020604051602081039080840390855afa158015611cfe573d6000803e3d6000fd5b5050604051601f1901519150506001600160a01b038116611d2757600060019250925050611d2e565b9150600090505b94509492505050565b6000816004811115611d4b57611d4b61283e565b03611d535750565b6001816004811115611d6757611d6761283e565b03611d845760405162461bcd60e51b815260040161071790612883565b6002816004811115611d9857611d9861283e565b03611db55760405162461bcd60e51b8152600401610717906128c7565b6003816004811115611dc957611dc961283e565b03611de65760405162461bcd60e51b815260040161071790612916565b6004816004811115611dfa57611dfa61283e565b036108175760405162461bcd60e51b815260040161071790612965565b6106db611e2384610846565b611e2c84610846565b836119e1565b60606000611e41836002612975565b611e4c9060026124c0565b67ffffffffffffffff811115611e6457611e64612994565b6040519080825280601f01601f191660200182016040528015611e8e576020820181803683370190505b509050600360fc1b81600081518110611ea957611ea96124e6565b60200101906001600160f81b031916908160001a905350600f60fb1b81600181518110611ed857611ed86124e6565b60200101906001600160f81b031916908160001a9053506000611efc846002612975565b611f079060016124c0565b90505b6001811115611f7f576f181899199a1a9b1b9c1cb0b131b232b360811b85600f1660108110611f3b57611f3b6124e6565b1a60f81b828281518110611f5157611f516124e6565b60200101906001600160f81b031916908160001a90535060049490941c93611f78816129aa565b9050611f0a565b5083156106ae5760405162461bcd60e51b8152600401610717906129f3565b60006001600160e01b0382111561157d5760405162461bcd60e51b815260040161071790612a47565b6001600160e01b031981165b811461081757600080fd5b80356105df81611fc7565b600060208284031215611ffe57611ffe600080fd5b600061200a8484611fde565b949350505050565b8015155b82525050565b602081016105df8284612012565b60005b8381101561204557818101518382015260200161202d565b50506000910152565b6000612058825190565b80845260208401935061206f81856020860161202a565b601f01601f19169290920192915050565b602080825281016106ae818461204e565b60006001600160a01b0382166105df565b611fd381612091565b80356105df816120a2565b80611fd3565b80356105df816120b6565b600080604083850312156120dd576120dd600080fd5b60006120e985856120ab565b92505060206120fa858286016120bc565b9150509250929050565b80612016565b602081016105df8284612104565b60008060006060848603121561213057612130600080fd5b600061213c86866120ab565b935050602061214d868287016120ab565b925050604061215e868287016120bc565b9150509250925092565b60006020828403121561217d5761217d600080fd5b600061200a84846120bc565b6000806040838503121561219f5761219f600080fd5b60006121ab85856120bc565b92505060206120fa858286016120ab565b60ff8116612016565b602081016105df82846121bc565b6000602082840312156121e8576121e8600080fd5b600061200a84846120ab565b61201681612091565b602081016105df82846121f4565b63ffffffff8116612016565b602081016105df828461220b565b6000806040838503121561223b5761223b600080fd5b60006121ab85856120ab565b60ff8116611fd3565b80356105df81612247565b60008060008060008060c0878903121561227757612277600080fd5b600061228389896120ab565b965050602061229489828a016120bc565b95505060406122a589828a016120bc565b94505060606122b689828a01612250565b93505060806122c789828a016120bc565b92505060a06122d889828a016120bc565b9150509295509295509295565b600080600080600080600060e0888a03121561230357612303600080fd5b600061230f8a8a6120ab565b97505060206123208a828b016120ab565b96505060406123318a828b016120bc565b95505060606123428a828b016120bc565b94505060806123538a828b01612250565b93505060a06123648a828b016120bc565b92505060c06123758a828b016120bc565b91505092959891949750929550565b63ffffffff8116611fd3565b80356105df81612384565b600080604083850312156123b1576123b1600080fd5b60006123bd85856120ab565b92505060206120fa85828601612390565b6001600160e01b038116612016565b805160408301906123ee848261220b565b506020820151610fd260208501826123ce565b604081016105df82846123dd565b634e487b7160e01b600052602260045260246000fd5b60028104600182168061243957607f821691505b6020821081036116335761163361240f565b602f81526000602082017f416363657373436f6e74726f6c3a2063616e206f6e6c792072656e6f756e636581526e103937b632b9903337b91039b2b63360891b602082015291505b5060400190565b602080825281016105df8161244b565b634e487b7160e01b600052601160045260246000fd5b808201808211156105df576105df6124aa565b818103818111156105df576105df6124aa565b634e487b7160e01b600052603260045260246000fd5b602e81526000602082017f496e697469616c697a61626c653a20636f6e747261637420697320616c72656181526d191e481a5b9a5d1a585b1a5e995960921b60208201529150612493565b602080825281016105df816124fc565b600060ff82166105df565b61201681612557565b602081016105df8284612562565b608081016125878287612104565b61259460208301866121f4565b6125a16040830185612104565b6125ae6060830184612104565b95945050505050565b60c081016125c58289612104565b6125d260208301886121f4565b6125df60408301876121f4565b6125ec6060830186612104565b6125f96080830185612104565b61260660a0830184612104565b979650505050505050565b602681526000602082017f53616665436173743a2076616c756520646f65736e27742066697420696e203381526532206269747360d01b60208201529150612493565b602080825281016105df81612611565b600061266e825190565b61267c81856020860161202a565b9290920192915050565b76020b1b1b2b9b9a1b7b73a3937b61d1030b1b1b7bab73a1604d1b815260170160006126b28285612664565b7001034b99036b4b9b9b4b733903937b6329607d1b8152601101915061200a8284612664565b60a081016126e68288612104565b6126f36020830187612104565b6127006040830186612104565b61270d6060830185612104565b61271a60808301846121f4565b9695505050505050565b634e487b7160e01b600052601260045260246000fd5b60008261274957612749612724565b500690565b60008261275d5761275d612724565b500490565b601481526000602082017314185d5cd8589b194e881b9bdd081c185d5cd95960621b815291505b5060200190565b602080825281016105df81612762565b604081016127ae8285612104565b6106ae6020830184612104565b601081526000602082016f14185d5cd8589b194e881c185d5cd95960821b81529150612789565b602080825281016105df816127bb565b61190160f01b815260020160006128098285612104565b6020820191506128198284612104565b5060200192915050565b608081016128318287612104565b61259460208301866121bc565b634e487b7160e01b600052602160045260246000fd5b601881526000602082017745434453413a20696e76616c6964207369676e617475726560401b81529150612789565b602080825281016105df81612854565b601f81526000602082017f45434453413a20696e76616c6964207369676e6174757265206c656e6774680081529150612789565b602080825281016105df81612893565b602281526000602082017f45434453413a20696e76616c6964207369676e6174757265202773272076616c815261756560f01b60208201529150612493565b602080825281016105df816128d7565b602281526000602082017f45434453413a20696e76616c6964207369676e6174757265202776272076616c815261756560f01b60208201529150612493565b602080825281016105df81612926565b600081600019048311821515161561298f5761298f6124aa565b500290565b634e487b7160e01b600052604160045260246000fd5b6000816129b9576129b96124aa565b506000190190565b60208082527f537472696e67733a20686578206c656e67746820696e73756666696369656e7491019081526000612789565b602080825281016105df816129c1565b602781526000602082017f53616665436173743a2076616c756520646f65736e27742066697420696e20328152663234206269747360c81b60208201529150612493565b602080825281016105df81612a0356fe65d7a28e3265b37a6474929f336521b332c1681b933f6cb9f3376673440d862a9f2df0fed2c77648de5860a4cc508cd0818c85b8b8a1ab4ceeef8d981c8956a6a26469706673582212204368a5389ae20cef829b86c8ffd1fec3b5e3fc967815de7370fe6cc9110b028764736f6c63430008100033",
  "immutableReferences": {
    "6640": [
      {
        "length": 32,
        "start": 4565
      }
    ],
    "6642": [
      {
        "length": 32,
        "start": 4523
      }
    ],
    "6644": [
      {
        "length": 32,
        "start": 4481
      }
    ],
    "6646": [
      {
        "length": 32,
        "start": 4637
      }
    ],
    "6648": [
      {
        "length": 32,
        "start": 4670
      }
    ],
    "6650": [
      {
        "length": 32,
        "start": 4604
      }
    ]
  },
  "source": "// SPDX-License-Identifier: MIT\n// Copyright Fathom 2022\n\npragma solidity 0.8.16;\n\nimport \"../../common/security/Pausable.sol\";\nimport \"../../common/access/AccessControl.sol\";\nimport \"./ERC20/extensions/ERC20Votes.sol\";\nimport \"./IVMainToken.sol\";\nimport \"@openzeppelin/contracts/proxy/utils/Initializable.sol\";\n\ncontract VMainToken is IVMainToken, Pausable, AccessControl, Initializable, ERC20Votes {\n    // Mapping to keep track of who is allowed to transfer voting tokens\n    mapping(address => bool) public isAllowListed;\n\n    bytes32 public constant PAUSER_ROLE = keccak256(\"PAUSER_ROLE\");\n    bytes32 public constant MINTER_ROLE = keccak256(\"MINTER_ROLE\");\n    bytes32 public constant ALLOWLISTER_ROLE = keccak256(\"ALLOWLISTER_ROLE\");\n\n    error AdminShouldBeDifferentThanMsgSender();\n    error VMainTokenIsIntransferableUnlessTheSenderIsAllowlisted();\n\n    constructor(string memory name_, string memory symbol_) ERC20Votes(name_, symbol_) {\n        _grantRole(DEFAULT_ADMIN_ROLE, msg.sender);\n    }\n\n    function initToken(address _admin, address _minter) external override initializer onlyRole(DEFAULT_ADMIN_ROLE) {\n        if (_admin == msg.sender) revert AdminShouldBeDifferentThanMsgSender();\n        _grantRole(DEFAULT_ADMIN_ROLE, _admin);\n        _grantRole(PAUSER_ROLE, _admin);\n        _grantRole(MINTER_ROLE, _minter);\n        _grantRole(ALLOWLISTER_ROLE, _admin);\n\n        _revokeRole(DEFAULT_ADMIN_ROLE, msg.sender);\n\n        isAllowListed[_minter] = true;\n        emit MemberAddedToAllowlist(_minter);\n    }\n\n    function grantMinterRole(address _minter) external override onlyRole(getRoleAdmin(MINTER_ROLE)) {\n        _grantRole(MINTER_ROLE, _minter);\n        _addToAllowlist(_minter);\n    }\n\n    function revokeMinterRole(address _minter) external override onlyRole(getRoleAdmin(MINTER_ROLE)) {\n        _revokeRole(MINTER_ROLE, _minter);\n        _removeFromAllowlist(_minter);\n    }\n\n    function pause() external override onlyRole(PAUSER_ROLE) {\n        _pause();\n    }\n\n    function unpause() external override onlyRole(PAUSER_ROLE) {\n        _unpause();\n    }\n\n    function mint(address to, uint256 amount) external override onlyRole(MINTER_ROLE) {\n        _mint(to, amount);\n        _delegate(to, to);\n    }\n\n    function burn(address account, uint256 amount) external override onlyRole(MINTER_ROLE) {\n        _burn(account, amount);\n    }\n\n    function _addToAllowlist(address _toAdd) internal {\n        isAllowListed[_toAdd] = true;\n        emit MemberAddedToAllowlist(_toAdd);\n    }\n\n    function _removeFromAllowlist(address _toRemove) internal {\n        isAllowListed[_toRemove] = false;\n        emit MemberRemovedFromAllowlist(_toRemove);\n    }\n\n    function _beforeTokenTransfer(address from, address to, uint256 amount) internal override whenNotPaused {\n        if (!isAllowListed[msg.sender]) revert VMainTokenIsIntransferableUnlessTheSenderIsAllowlisted();\n        super._beforeTokenTransfer(from, to, amount);\n    }\n\n    function _afterTokenTransfer(address from, address to, uint256 amount) internal override {\n        super._afterTokenTransfer(from, to, amount);\n    }\n}\n",
  "sourcePath": "/Users/antongrigorev/Developer/fathom-dao-smart-contracts/contracts/dao/tokens/VMainToken.sol",
  "compiler": {
    "name": "solc",
    "version": "0.8.16+commit.07a7930e.Darwin.appleclang"
  },
  "schemaVersion": "3.4.13",
  "updatedAt": "2023-04-29T06:38:40.777Z",
  "devdoc": {
    "kind": "dev",
    "methods": {
      "getRoleAdmin(bytes32)": {
        "details": "Returns the admin role that controls `role`. See {grantRole} and {revokeRole}. To change a role's admin, use {_setRoleAdmin}."
      },
      "grantRole(bytes32,address)": {
        "details": "Grants `role` to `account`. If `account` had not been already granted `role`, emits a {RoleGranted} event. Requirements: - the caller must have ``role``'s admin role. May emit a {RoleGranted} event."
      },
      "hasRole(bytes32,address)": {
        "details": "Returns `true` if `account` has been granted `role`."
      },
      "paused()": {
        "details": "Returns true if the contract is paused, and false otherwise."
      },
      "renounceRole(bytes32,address)": {
        "details": "Revokes `role` from the calling account. Roles are often managed via {grantRole} and {revokeRole}: this function's purpose is to provide a mechanism for accounts to lose their privileges if they are compromised (such as when a trusted device is misplaced). If the calling account had been revoked `role`, emits a {RoleRevoked} event. Requirements: - the caller must be `account`. May emit a {RoleRevoked} event."
      },
      "revokeRole(bytes32,address)": {
        "details": "Revokes `role` from `account`. If `account` had been granted `role`, emits a {RoleRevoked} event. Requirements: - the caller must have ``role``'s admin role. May emit a {RoleRevoked} event."
      },
      "supportsInterface(bytes4)": {
        "details": "See {IERC165-supportsInterface}."
      }
    },
    "version": 1
  },
  "userdoc": {
    "kind": "user",
    "methods": {},
    "version": 1
  }
}