{
    "contractName": "VMainToken",
    "abi": [
        {
            "inputs": [
                {
                    "internalType": "string",
                    "name": "name_",
                    "type": "string"
                },
                {
                    "internalType": "string",
                    "name": "symbol_",
                    "type": "string"
                }
            ],
            "stateMutability": "nonpayable",
            "type": "constructor"
        },
        {
            "anonymous": false,
            "inputs": [
                {
                    "indexed": true,
                    "internalType": "address",
                    "name": "owner",
                    "type": "address"
                },
                {
                    "indexed": true,
                    "internalType": "address",
                    "name": "spender",
                    "type": "address"
                },
                {
                    "indexed": false,
                    "internalType": "uint256",
                    "name": "value",
                    "type": "uint256"
                }
            ],
            "name": "Approval",
            "type": "event"
        },
        {
            "anonymous": false,
            "inputs": [
                {
                    "indexed": true,
                    "internalType": "address",
                    "name": "delegator",
                    "type": "address"
                },
                {
                    "indexed": true,
                    "internalType": "address",
                    "name": "fromDelegate",
                    "type": "address"
                },
                {
                    "indexed": true,
                    "internalType": "address",
                    "name": "toDelegate",
                    "type": "address"
                }
            ],
            "name": "DelegateChanged",
            "type": "event"
        },
        {
            "anonymous": false,
            "inputs": [
                {
                    "indexed": true,
                    "internalType": "address",
                    "name": "delegate",
                    "type": "address"
                },
                {
                    "indexed": false,
                    "internalType": "uint256",
                    "name": "previousBalance",
                    "type": "uint256"
                },
                {
                    "indexed": false,
                    "internalType": "uint256",
                    "name": "newBalance",
                    "type": "uint256"
                }
            ],
            "name": "DelegateVotesChanged",
            "type": "event"
        },
        {
            "anonymous": false,
            "inputs": [
                {
                    "indexed": false,
                    "internalType": "uint8",
                    "name": "version",
                    "type": "uint8"
                }
            ],
            "name": "Initialized",
            "type": "event"
        },
        {
            "anonymous": false,
            "inputs": [
                {
                    "indexed": false,
                    "internalType": "address",
                    "name": "_member",
                    "type": "address"
                }
            ],
            "name": "MemberAddedToWhitelist",
            "type": "event"
        },
        {
            "anonymous": false,
            "inputs": [
                {
                    "indexed": false,
                    "internalType": "address",
                    "name": "_member",
                    "type": "address"
                }
            ],
            "name": "MemberRemovedFromWhitelist",
            "type": "event"
        },
        {
            "anonymous": false,
            "inputs": [
                {
                    "indexed": false,
                    "internalType": "address",
                    "name": "account",
                    "type": "address"
                }
            ],
            "name": "Paused",
            "type": "event"
        },
        {
            "anonymous": false,
            "inputs": [
                {
                    "indexed": true,
                    "internalType": "bytes32",
                    "name": "role",
                    "type": "bytes32"
                },
                {
                    "indexed": true,
                    "internalType": "bytes32",
                    "name": "previousAdminRole",
                    "type": "bytes32"
                },
                {
                    "indexed": true,
                    "internalType": "bytes32",
                    "name": "newAdminRole",
                    "type": "bytes32"
                }
            ],
            "name": "RoleAdminChanged",
            "type": "event"
        },
        {
            "anonymous": false,
            "inputs": [
                {
                    "indexed": true,
                    "internalType": "bytes32",
                    "name": "role",
                    "type": "bytes32"
                },
                {
                    "indexed": true,
                    "internalType": "address",
                    "name": "account",
                    "type": "address"
                },
                {
                    "indexed": true,
                    "internalType": "address",
                    "name": "sender",
                    "type": "address"
                }
            ],
            "name": "RoleGranted",
            "type": "event"
        },
        {
            "anonymous": false,
            "inputs": [
                {
                    "indexed": true,
                    "internalType": "bytes32",
                    "name": "role",
                    "type": "bytes32"
                },
                {
                    "indexed": true,
                    "internalType": "address",
                    "name": "account",
                    "type": "address"
                },
                {
                    "indexed": true,
                    "internalType": "address",
                    "name": "sender",
                    "type": "address"
                }
            ],
            "name": "RoleRevoked",
            "type": "event"
        },
        {
            "anonymous": false,
            "inputs": [
                {
                    "indexed": true,
                    "internalType": "address",
                    "name": "from",
                    "type": "address"
                },
                {
                    "indexed": true,
                    "internalType": "address",
                    "name": "to",
                    "type": "address"
                },
                {
                    "indexed": false,
                    "internalType": "uint256",
                    "name": "value",
                    "type": "uint256"
                }
            ],
            "name": "Transfer",
            "type": "event"
        },
        {
            "anonymous": false,
            "inputs": [
                {
                    "indexed": false,
                    "internalType": "address",
                    "name": "account",
                    "type": "address"
                }
            ],
            "name": "Unpaused",
            "type": "event"
        },
        {
            "inputs": [],
            "name": "DEFAULT_ADMIN_ROLE",
            "outputs": [
                {
                    "internalType": "bytes32",
                    "name": "",
                    "type": "bytes32"
                }
            ],
            "stateMutability": "view",
            "type": "function"
        },
        {
            "inputs": [],
            "name": "DOMAIN_SEPARATOR",
            "outputs": [
                {
                    "internalType": "bytes32",
                    "name": "",
                    "type": "bytes32"
                }
            ],
            "stateMutability": "view",
            "type": "function"
        },
        {
            "inputs": [],
            "name": "MINTER_ROLE",
            "outputs": [
                {
                    "internalType": "bytes32",
                    "name": "",
                    "type": "bytes32"
                }
            ],
            "stateMutability": "view",
            "type": "function"
        },
        {
            "inputs": [],
            "name": "PAUSER_ROLE",
            "outputs": [
                {
                    "internalType": "bytes32",
                    "name": "",
                    "type": "bytes32"
                }
            ],
            "stateMutability": "view",
            "type": "function"
        },
        {
            "inputs": [],
            "name": "WHITELISTER_ROLE",
            "outputs": [
                {
                    "internalType": "bytes32",
                    "name": "",
                    "type": "bytes32"
                }
            ],
            "stateMutability": "view",
            "type": "function"
        },
        {
            "inputs": [
                {
                    "internalType": "address",
                    "name": "owner",
                    "type": "address"
                },
                {
                    "internalType": "address",
                    "name": "spender",
                    "type": "address"
                }
            ],
            "name": "allowance",
            "outputs": [
                {
                    "internalType": "uint256",
                    "name": "",
                    "type": "uint256"
                }
            ],
            "stateMutability": "view",
            "type": "function"
        },
        {
            "inputs": [
                {
                    "internalType": "address",
                    "name": "spender",
                    "type": "address"
                },
                {
                    "internalType": "uint256",
                    "name": "amount",
                    "type": "uint256"
                }
            ],
            "name": "approve",
            "outputs": [
                {
                    "internalType": "bool",
                    "name": "",
                    "type": "bool"
                }
            ],
            "stateMutability": "nonpayable",
            "type": "function"
        },
        {
            "inputs": [
                {
                    "internalType": "address",
                    "name": "account",
                    "type": "address"
                }
            ],
            "name": "balanceOf",
            "outputs": [
                {
                    "internalType": "uint256",
                    "name": "",
                    "type": "uint256"
                }
            ],
            "stateMutability": "view",
            "type": "function"
        },
        {
            "inputs": [
                {
                    "internalType": "address",
                    "name": "account",
                    "type": "address"
                },
                {
                    "internalType": "uint32",
                    "name": "pos",
                    "type": "uint32"
                }
            ],
            "name": "checkpoints",
            "outputs": [
                {
                    "components": [
                        {
                            "internalType": "uint32",
                            "name": "fromBlock",
                            "type": "uint32"
                        },
                        {
                            "internalType": "uint224",
                            "name": "votes",
                            "type": "uint224"
                        }
                    ],
                    "internalType": "struct ERC20Votes.Checkpoint",
                    "name": "",
                    "type": "tuple"
                }
            ],
            "stateMutability": "view",
            "type": "function"
        },
        {
            "inputs": [],
            "name": "decimals",
            "outputs": [
                {
                    "internalType": "uint8",
                    "name": "",
                    "type": "uint8"
                }
            ],
            "stateMutability": "view",
            "type": "function"
        },
        {
            "inputs": [
                {
                    "internalType": "address",
                    "name": "spender",
                    "type": "address"
                },
                {
                    "internalType": "uint256",
                    "name": "subtractedValue",
                    "type": "uint256"
                }
            ],
            "name": "decreaseAllowance",
            "outputs": [
                {
                    "internalType": "bool",
                    "name": "",
                    "type": "bool"
                }
            ],
            "stateMutability": "nonpayable",
            "type": "function"
        },
        {
            "inputs": [
                {
                    "internalType": "address",
                    "name": "delegatee",
                    "type": "address"
                }
            ],
            "name": "delegate",
            "outputs": [],
            "stateMutability": "nonpayable",
            "type": "function"
        },
        {
            "inputs": [
                {
                    "internalType": "address",
                    "name": "delegatee",
                    "type": "address"
                },
                {
                    "internalType": "uint256",
                    "name": "nonce",
                    "type": "uint256"
                },
                {
                    "internalType": "uint256",
                    "name": "expiry",
                    "type": "uint256"
                },
                {
                    "internalType": "uint8",
                    "name": "v",
                    "type": "uint8"
                },
                {
                    "internalType": "bytes32",
                    "name": "r",
                    "type": "bytes32"
                },
                {
                    "internalType": "bytes32",
                    "name": "s",
                    "type": "bytes32"
                }
            ],
            "name": "delegateBySig",
            "outputs": [],
            "stateMutability": "nonpayable",
            "type": "function"
        },
        {
            "inputs": [
                {
                    "internalType": "address",
                    "name": "account",
                    "type": "address"
                }
            ],
            "name": "delegates",
            "outputs": [
                {
                    "internalType": "address",
                    "name": "",
                    "type": "address"
                }
            ],
            "stateMutability": "view",
            "type": "function"
        },
        {
            "inputs": [
                {
                    "internalType": "uint256",
                    "name": "blockNumber",
                    "type": "uint256"
                }
            ],
            "name": "getPastTotalSupply",
            "outputs": [
                {
                    "internalType": "uint256",
                    "name": "",
                    "type": "uint256"
                }
            ],
            "stateMutability": "view",
            "type": "function"
        },
        {
            "inputs": [
                {
                    "internalType": "address",
                    "name": "account",
                    "type": "address"
                },
                {
                    "internalType": "uint256",
                    "name": "blockNumber",
                    "type": "uint256"
                }
            ],
            "name": "getPastVotes",
            "outputs": [
                {
                    "internalType": "uint256",
                    "name": "",
                    "type": "uint256"
                }
            ],
            "stateMutability": "view",
            "type": "function"
        },
        {
            "inputs": [
                {
                    "internalType": "bytes32",
                    "name": "role",
                    "type": "bytes32"
                }
            ],
            "name": "getRoleAdmin",
            "outputs": [
                {
                    "internalType": "bytes32",
                    "name": "",
                    "type": "bytes32"
                }
            ],
            "stateMutability": "view",
            "type": "function"
        },
        {
            "inputs": [
                {
                    "internalType": "address",
                    "name": "account",
                    "type": "address"
                }
            ],
            "name": "getVotes",
            "outputs": [
                {
                    "internalType": "uint256",
                    "name": "",
                    "type": "uint256"
                }
            ],
            "stateMutability": "view",
            "type": "function"
        },
        {
            "inputs": [
                {
                    "internalType": "bytes32",
                    "name": "role",
                    "type": "bytes32"
                },
                {
                    "internalType": "address",
                    "name": "account",
                    "type": "address"
                }
            ],
            "name": "grantRole",
            "outputs": [],
            "stateMutability": "nonpayable",
            "type": "function"
        },
        {
            "inputs": [
                {
                    "internalType": "bytes32",
                    "name": "role",
                    "type": "bytes32"
                },
                {
                    "internalType": "address",
                    "name": "account",
                    "type": "address"
                }
            ],
            "name": "hasRole",
            "outputs": [
                {
                    "internalType": "bool",
                    "name": "",
                    "type": "bool"
                }
            ],
            "stateMutability": "view",
            "type": "function"
        },
        {
            "inputs": [
                {
                    "internalType": "address",
                    "name": "spender",
                    "type": "address"
                },
                {
                    "internalType": "uint256",
                    "name": "addedValue",
                    "type": "uint256"
                }
            ],
            "name": "increaseAllowance",
            "outputs": [
                {
                    "internalType": "bool",
                    "name": "",
                    "type": "bool"
                }
            ],
            "stateMutability": "nonpayable",
            "type": "function"
        },
        {
            "inputs": [
                {
                    "internalType": "address",
                    "name": "",
                    "type": "address"
                }
            ],
            "name": "isWhiteListed",
            "outputs": [
                {
                    "internalType": "bool",
                    "name": "",
                    "type": "bool"
                }
            ],
            "stateMutability": "view",
            "type": "function"
        },
        {
            "inputs": [],
            "name": "name",
            "outputs": [
                {
                    "internalType": "string",
                    "name": "",
                    "type": "string"
                }
            ],
            "stateMutability": "view",
            "type": "function"
        },
        {
            "inputs": [
                {
                    "internalType": "address",
                    "name": "owner",
                    "type": "address"
                }
            ],
            "name": "nonces",
            "outputs": [
                {
                    "internalType": "uint256",
                    "name": "",
                    "type": "uint256"
                }
            ],
            "stateMutability": "view",
            "type": "function"
        },
        {
            "inputs": [
                {
                    "internalType": "address",
                    "name": "account",
                    "type": "address"
                }
            ],
            "name": "numCheckpoints",
            "outputs": [
                {
                    "internalType": "uint32",
                    "name": "",
                    "type": "uint32"
                }
            ],
            "stateMutability": "view",
            "type": "function"
        },
        {
            "inputs": [],
            "name": "paused",
            "outputs": [
                {
                    "internalType": "bool",
                    "name": "",
                    "type": "bool"
                }
            ],
            "stateMutability": "view",
            "type": "function"
        },
        {
            "inputs": [
                {
                    "internalType": "address",
                    "name": "owner",
                    "type": "address"
                },
                {
                    "internalType": "address",
                    "name": "spender",
                    "type": "address"
                },
                {
                    "internalType": "uint256",
                    "name": "value",
                    "type": "uint256"
                },
                {
                    "internalType": "uint256",
                    "name": "deadline",
                    "type": "uint256"
                },
                {
                    "internalType": "uint8",
                    "name": "v",
                    "type": "uint8"
                },
                {
                    "internalType": "bytes32",
                    "name": "r",
                    "type": "bytes32"
                },
                {
                    "internalType": "bytes32",
                    "name": "s",
                    "type": "bytes32"
                }
            ],
            "name": "permit",
            "outputs": [],
            "stateMutability": "nonpayable",
            "type": "function"
        },
        {
            "inputs": [
                {
                    "internalType": "bytes32",
                    "name": "role",
                    "type": "bytes32"
                },
                {
                    "internalType": "address",
                    "name": "account",
                    "type": "address"
                }
            ],
            "name": "renounceRole",
            "outputs": [],
            "stateMutability": "nonpayable",
            "type": "function"
        },
        {
            "inputs": [
                {
                    "internalType": "bytes32",
                    "name": "role",
                    "type": "bytes32"
                },
                {
                    "internalType": "address",
                    "name": "account",
                    "type": "address"
                }
            ],
            "name": "revokeRole",
            "outputs": [],
            "stateMutability": "nonpayable",
            "type": "function"
        },
        {
            "inputs": [
                {
                    "internalType": "bytes4",
                    "name": "interfaceId",
                    "type": "bytes4"
                }
            ],
            "name": "supportsInterface",
            "outputs": [
                {
                    "internalType": "bool",
                    "name": "",
                    "type": "bool"
                }
            ],
            "stateMutability": "view",
            "type": "function"
        },
        {
            "inputs": [],
            "name": "symbol",
            "outputs": [
                {
                    "internalType": "string",
                    "name": "",
                    "type": "string"
                }
            ],
            "stateMutability": "view",
            "type": "function"
        },
        {
            "inputs": [],
            "name": "totalSupply",
            "outputs": [
                {
                    "internalType": "uint256",
                    "name": "",
                    "type": "uint256"
                }
            ],
            "stateMutability": "view",
            "type": "function"
        },
        {
            "inputs": [
                {
                    "internalType": "address",
                    "name": "to",
                    "type": "address"
                },
                {
                    "internalType": "uint256",
                    "name": "amount",
                    "type": "uint256"
                }
            ],
            "name": "transfer",
            "outputs": [
                {
                    "internalType": "bool",
                    "name": "",
                    "type": "bool"
                }
            ],
            "stateMutability": "nonpayable",
            "type": "function"
        },
        {
            "inputs": [
                {
                    "internalType": "address",
                    "name": "from",
                    "type": "address"
                },
                {
                    "internalType": "address",
                    "name": "to",
                    "type": "address"
                },
                {
                    "internalType": "uint256",
                    "name": "amount",
                    "type": "uint256"
                }
            ],
            "name": "transferFrom",
            "outputs": [
                {
                    "internalType": "bool",
                    "name": "",
                    "type": "bool"
                }
            ],
            "stateMutability": "nonpayable",
            "type": "function"
        },
        {
            "inputs": [
                {
                    "internalType": "address",
                    "name": "_admin",
                    "type": "address"
                },
                {
                    "internalType": "address",
                    "name": "_minter",
                    "type": "address"
                }
            ],
            "name": "initToken",
            "outputs": [],
            "stateMutability": "nonpayable",
            "type": "function"
        },
        {
            "inputs": [
                {
                    "internalType": "address",
                    "name": "_minter",
                    "type": "address"
                }
            ],
            "name": "grantMinterRole",
            "outputs": [],
            "stateMutability": "nonpayable",
            "type": "function"
        },
        {
            "inputs": [
                {
                    "internalType": "address",
                    "name": "_minter",
                    "type": "address"
                }
            ],
            "name": "revokeMinterRole",
            "outputs": [],
            "stateMutability": "nonpayable",
            "type": "function"
        },
        {
            "inputs": [],
            "name": "pause",
            "outputs": [],
            "stateMutability": "nonpayable",
            "type": "function"
        },
        {
            "inputs": [],
            "name": "unpause",
            "outputs": [],
            "stateMutability": "nonpayable",
            "type": "function"
        },
        {
            "inputs": [
                {
                    "internalType": "address",
                    "name": "to",
                    "type": "address"
                },
                {
                    "internalType": "uint256",
                    "name": "amount",
                    "type": "uint256"
                }
            ],
            "name": "mint",
            "outputs": [],
            "stateMutability": "nonpayable",
            "type": "function"
        },
        {
            "inputs": [
                {
                    "internalType": "address",
                    "name": "account",
                    "type": "address"
                },
                {
                    "internalType": "uint256",
                    "name": "amount",
                    "type": "uint256"
                }
            ],
            "name": "burn",
            "outputs": [],
            "stateMutability": "nonpayable",
            "type": "function"
        }
    ],
    "bytecode": "0x6101406040523480156200001257600080fd5b506040516200365c3803806200365c8339810160408190526200003591620002f7565b6040805180820190915260018152603160f81b60208201526000805460ff19169055829082908290829082908183600662000071838262000470565b50600762000080828262000470565b5050825160208085019190912083519184019190912060e08290526101008190529091507f8b73c3c69bb8fe3d512ecc4cf759cc79239f7b179b0ffacaa9a75d522b39400f4660a052620000d681848462000102565b6080523060c0526101205250620000fa965060009550339450506200013e92505050565b5050620005bb565b600083838346306040516020016200011f95949392919062000565565b6040516020818303038152906040528051906020012090509392505050565b60008281526001602090815260408083206001600160a01b038516845290915290205460ff16620001c35760008281526001602081815260408084206001600160a01b0386168086529252808420805460ff19169093179092559051339285917f2f8788117e7eff1d82e926ec794901d17c78024a50270940304540a733656f0d9190a45b5050565b634e487b7160e01b600052604160045260246000fd5b601f19601f83011681018181106001600160401b0382111715620002055762000205620001c7565b6040525050565b60006200021860405190565b9050620002268282620001dd565b919050565b60006001600160401b03821115620002475762000247620001c7565b601f19601f83011660200192915050565b60005b83811015620002755781810151838201526020016200025b565b50506000910152565b6000620002956200028f846200022b565b6200020c565b905082815260208101848484011115620002b257620002b2600080fd5b620002bf84828562000258565b509392505050565b600082601f830112620002dd57620002dd600080fd5b8151620002ef8482602086016200027e565b949350505050565b600080604083850312156200030f576200030f600080fd5b82516001600160401b038111156200032a576200032a600080fd5b6200033885828601620002c7565b92505060208301516001600160401b03811115620003595762000359600080fd5b6200036785828601620002c7565b9150509250929050565b634e487b7160e01b600052602260045260246000fd5b6002810460018216806200039c57607f821691505b602082108103620003b157620003b162000371565b50919050565b6000620003c8620003c58381565b90565b92915050565b620003d983620003b7565b81546008840282811b60001990911b908116901990911617825550505050565b600062000408818484620003ce565b505050565b81811015620001c35762000423600082620003f9565b6001016200040d565b601f82111562000408576000818152602090206020601f85010481016020851015620004555750805b620004696020601f8601048301826200040d565b5050505050565b81516001600160401b038111156200048c576200048c620001c7565b62000498825462000387565b620004a58282856200042c565b6020601f831160018114620004dc5760008415620004c35750858201515b600019600886021c198116600286021786555062000538565b600085815260208120601f198616915b828110156200050e5788850151825560209485019460019092019101620004ec565b868310156200052b5784890151600019601f89166008021c191682555b6001600288020188555050505b505050505050565b805b82525050565b60006001600160a01b038216620003c8565b620005428162000548565b60a0810162000575828862000540565b62000584602083018762000540565b62000593604083018662000540565b620005a2606083018562000540565b620005b160808301846200055a565b9695505050505050565b60805160a05160c05160e05161010051610120516130516200060b60003960006111eb0152600061122d0152600061120c015260006111700152600061119a015260006111c401526130516000f3fe608060405234801561001057600080fd5b50600436106102535760003560e01c80636f9170f611610146578063a217fddf116100c3578063d505accf11610087578063d505accf14610544578063d539139314610557578063d547741f1461056c578063dd62ed3e1461057f578063e63ab1e914610592578063f1127ed8146105a757600080fd5b8063a217fddf146104f0578063a457c2d7146104f8578063a9059cbb1461050b578063ba2b6bad1461051e578063c3cda5201461053157600080fd5b80638e539e8c1161010a5780638e539e8c1461049c57806391d14854146104af57806395d89b41146104c25780639ab24eb0146104ca5780639dc29fac146104dd57600080fd5b80636f9170f6146104155780636fcfff451461043857806370a08231146104585780637ecebe00146104815780638456cb591461049457600080fd5b806339509351116101d4578063570618e111610198578063570618e114610384578063587cde1e146103ab5780635c19a95c146103e45780635c975abb146103f757806369e2f0fb1461040257600080fd5b806339509351146103305780633a46b1a8146103435780633dd1eb61146103565780633f4ba83a1461036957806340c10f191461037157600080fd5b8063248a9ca31161021b578063248a9ca3146102cd5780632f2ff15d146102f1578063313ce567146103065780633644e5151461031557806336568abe1461031d57600080fd5b806301ffc9a71461025857806306fdde0314610281578063095ea7b31461029657806318160ddd146102a957806323b872dd146102ba575b600080fd5b61026b610266366004611fda565b6105c7565b604051610278919061200d565b60405180910390f35b6102896105fe565b6040516102789190612071565b61026b6102a43660046120b8565b610690565b6005545b60405161027891906120fb565b61026b6102c8366004612109565b6106a8565b6102ad6102db366004612159565b6000908152600160208190526040909120015490565b6103046102ff36600461217a565b6106ce565b005b601260405161027891906121b6565b6102ad6106f9565b61030461032b36600461217a565b610708565b61026b61033e3660046120b8565b610747565b6102ad6103513660046120b8565b610769565b6103046103643660046121c4565b6107ac565b61030461080f565b61030461037f3660046120b8565b610832565b6102ad7f8619cecd8b9e095ab43867f5b69d492180450fe862e6b50bfbfb24b75dd84c8a81565b6103d76103b93660046121c4565b6001600160a01b039081166000908152600a60205260409020541690565b60405161027891906121ee565b6103046103f23660046121c4565b61085e565b60005460ff1661026b565b6103046104103660046121c4565b610868565b61026b6104233660046121c4565b600d6020526000908152604090205460ff1681565b61044b6104463660046121c4565b6108cb565b6040516102789190612208565b6102ad6104663660046121c4565b6001600160a01b031660009081526003602052604090205490565b6102ad61048f3660046121c4565b6108ed565b61030461090b565b6102ad6104aa366004612159565b61092b565b61026b6104bd36600461217a565b610957565b610289610982565b6102ad6104d83660046121c4565b610991565b6103046104eb3660046120b8565b610a18565b6102ad600081565b61026b6105063660046120b8565b610a3a565b61026b6105193660046120b8565b610a82565b61030461052c366004612216565b610a90565b61030461053f36600461224c565b610c57565b6103046105523660046122d6565b610d15565b6102ad600080516020612ffc83398151915281565b61030461057a36600461217a565b610df7565b6102ad61058d366004612216565b610e1d565b6102ad600080516020612fdc83398151915281565b6105ba6105b536600461238c565b610e48565b60405161027891906123f2565b60006001600160e01b03198216637965db0b60e01b14806105f857506301ffc9a760e01b6001600160e01b03198316145b92915050565b60606006805461060d90612416565b80601f016020809104026020016040519081016040528092919081815260200182805461063990612416565b80156106865780601f1061065b57610100808354040283529160200191610686565b820191906000526020600020905b81548152906001019060200180831161066957829003601f168201915b5050505050905090565b60003361069e818585610ecc565b5060019392505050565b6000336106b6858285610f80565b6106c1858585610fca565b60019150505b9392505050565b600082815260016020819052604090912001546106ea816110ee565b6106f483836110f8565b505050565b6000610703611163565b905090565b6001600160a01b03811633146107395760405162461bcd60e51b81526004016107309061248b565b60405180910390fd5b6107438282611251565b5050565b60003361069e81858561075a8383610e1d565b61076491906124b1565b610ecc565b600043821061078a5760405162461bcd60e51b8152600401610730906124fb565b6001600160a01b0383166000908152600b602052604090206106c790836112b8565b600080516020612ffc83398151915260005260016020527f64e21244e91af723e1b962171ed4828dcecc0d7b89872e516a5db8266da80001546107ee816110ee565b610806600080516020612ffc833981519152836110f8565b61074382611375565b600080516020612fdc833981519152610827816110ee565b61082f6113d3565b50565b600080516020612ffc83398151915261084a816110ee565b610854838361141f565b6106f48384611460565b61082f3382611460565b600080516020612ffc83398151915260005260016020527f64e21244e91af723e1b962171ed4828dcecc0d7b89872e516a5db8266da80001546108aa816110ee565b6108c2600080516020612ffc83398151915283611251565b610743826114da565b6001600160a01b0381166000908152600b60205260408120546105f890611529565b6001600160a01b0381166000908152600860205260408120546105f8565b600080516020612fdc833981519152610923816110ee565b61082f611553565b600043821061094c5760405162461bcd60e51b8152600401610730906124fb565b6105f8600c836112b8565b60009182526001602090815260408084206001600160a01b0393909316845291905290205460ff1690565b60606007805461060d90612416565b6001600160a01b0381166000908152600b60205260408120548015610a05576001600160a01b0383166000908152600b602052604090206109d360018361250b565b815481106109e3576109e361251e565b60009182526020909120015464010000000090046001600160e01b0316610a08565b60005b6001600160e01b03169392505050565b600080516020612ffc833981519152610a30816110ee565b6106f48383611590565b60003381610a488286610e1d565b905083811015610a6a5760405162461bcd60e51b815260040161073090612576565b610a778286868403610ecc565b506001949350505050565b60003361069e818585610fca565b600254610100900460ff1615808015610ab05750600254600160ff909116105b80610aca5750303b158015610aca575060025460ff166001145b610ae65760405162461bcd60e51b8152600401610730906125d1565b6002805460ff191660011790558015610b09576002805461ff0019166101001790555b6000610b14816110ee565b336001600160a01b03851603610b3c5760405162461bcd60e51b815260040161073090612632565b610b476000856110f8565b610b5f600080516020612fdc833981519152856110f8565b610b77600080516020612ffc833981519152846110f8565b610ba17f8619cecd8b9e095ab43867f5b69d492180450fe862e6b50bfbfb24b75dd84c8a856110f8565b610bac600033611251565b6001600160a01b0383166000908152600d602052604090819020805460ff19166001179055517f642006de5dd49be99f93aade2b891285b19f1195aa61af884f61fb9ee573656490610bff9085906121ee565b60405180910390a15080156106f4576002805461ff00191690556040517f7f26b83ff96e1f2b6a682f133852f6798a09c465da95921460cefb384740249890610c4a90600190612656565b60405180910390a1505050565b83421115610c775760405162461bcd60e51b815260040161073090612698565b6000610cd9610cd17fe48329057bfd03d55e49b547132e39cffd9c1820ad7b9d4c5307691425d15adf898989604051602001610cb694939291906126a8565b604051602081830303815290604052805190602001206115a8565b8585856115bb565b9050610ce4816115e3565b8614610d025760405162461bcd60e51b81526004016107309061271a565b610d0c8188611460565b50505050505050565b83421115610d355760405162461bcd60e51b81526004016107309061275e565b60007f6e71edae12b1b97f4d1f60370fef10105fa2faae0126114a169c64845d6126c9888888610d648c6115e3565b89604051602001610d7a9695949392919061276e565b6040516020818303038152906040528051906020012090506000610d9d826115a8565b90506000610dad828787876115bb565b9050896001600160a01b0316816001600160a01b031614610de05760405162461bcd60e51b8152600401610730906127fc565b610deb8a8a8a610ecc565b50505050505050505050565b60008281526001602081905260409091200154610e13816110ee565b6106f48383611251565b6001600160a01b03918216600090815260046020908152604080832093909416825291909152205490565b60408051808201909152600080825260208201526001600160a01b0383166000908152600b60205260409020805463ffffffff8416908110610e8c57610e8c61251e565b60009182526020918290206040805180820190915291015463ffffffff8116825264010000000090046001600160e01b0316918101919091529392505050565b6001600160a01b038316610ef25760405162461bcd60e51b81526004016107309061284d565b6001600160a01b038216610f185760405162461bcd60e51b81526004016107309061289c565b6001600160a01b0380841660008181526004602090815260408083209487168084529490915290819020849055517f8c5be1e5ebec7d5bd14f71427d1e84f3dd0314c0f7b2291e5b200ac8c7c3b92590610f739085906120fb565b60405180910390a3505050565b6000610f8c8484610e1d565b90506000198114610fc45781811015610fb75760405162461bcd60e51b8152600401610730906128e0565b610fc48484848403610ecc565b50505050565b6001600160a01b038316610ff05760405162461bcd60e51b815260040161073090612932565b6001600160a01b0382166110165760405162461bcd60e51b815260040161073090612982565b61102183838361160b565b6001600160a01b0383166000908152600360205260409020548181101561105a5760405162461bcd60e51b8152600401610730906129d5565b6001600160a01b038085166000908152600360205260408082208585039055918516815290812080548492906110919084906124b1565b92505081905550826001600160a01b0316846001600160a01b03167fddf252ad1be2c89b69c2b068fc378daa952ba7f163c4a11628f55a4df523b3ef846040516110db91906120fb565b60405180910390a3610fc4848484611642565b61082f813361164d565b6111028282610957565b6107435760008281526001602081815260408084206001600160a01b0386168086529252808420805460ff19169093179092559051339285917f2f8788117e7eff1d82e926ec794901d17c78024a50270940304540a733656f0d9190a45050565b6000306001600160a01b037f0000000000000000000000000000000000000000000000000000000000000000161480156111bc57507f000000000000000000000000000000000000000000000000000000000000000046145b156111e657507f000000000000000000000000000000000000000000000000000000000000000090565b6107037f00000000000000000000000000000000000000000000000000000000000000007f00000000000000000000000000000000000000000000000000000000000000007f00000000000000000000000000000000000000000000000000000000000000006116b1565b61125b8282610957565b156107435760008281526001602090815260408083206001600160a01b0385168085529252808320805460ff1916905551339285917ff6391f5c32d9c69d2a47ea670b442974b53935d1edc7fd64eb21e047a839171b9190a45050565b8154600090815b8181101561131c5760006112d382846116eb565b9050848682815481106112e8576112e861251e565b60009182526020909120015463ffffffff16111561130857809250611316565b6113138160016124b1565b91505b506112bf565b8115611360578461132e60018461250b565b8154811061133e5761133e61251e565b60009182526020909120015464010000000090046001600160e01b0316611363565b60005b6001600160e01b031695945050505050565b6001600160a01b0381166000908152600d602052604090819020805460ff19166001179055517f642006de5dd49be99f93aade2b891285b19f1195aa61af884f61fb9ee5736564906113c89083906121ee565b60405180910390a150565b6113db611742565b6000805460ff191690557f5db9ee0a495bf2e6ff9c91a7834c1ba4fdd244a5e8aa4e537bd38aeae4b073aa335b60405161141591906121ee565b60405180910390a1565b6114298282611766565b6005546001600160e01b0310156114525760405162461bcd60e51b815260040161073090612a32565b610fc4600c61182e8361183a565b6001600160a01b038281166000818152600a6020818152604080842080546003845282862054949093528787166001600160a01b03198416811790915590519190951694919391928592917f3134e8a2e6d97e929a7e54011ea5485d7d196dd5f0ba4d4ef95803e8e3fc257f9190a4610fc48284836119b3565b6001600160a01b0381166000908152600d602052604090819020805460ff19169055517e8fe2920df89e63074013b74630735e25f89636a2c65cb9ab56cef5091abe07906113c89083906121ee565b600063ffffffff82111561154f5760405162461bcd60e51b815260040161073090612a85565b5090565b61155b611ade565b6000805460ff191660011790557f62e78cea01bee320cd4e420270b5ea74000d11b0c9f74754ebdbfc544b05a2586114083390565b61159a8282611b01565b610fc4600c611bf28361183a565b60006105f86115b5611163565b83611bfe565b60008060006115cc87878787611c31565b915091506115d981611d11565b5095945050505050565b6001600160a01b03811660009081526008602052604090208054600181018255905b50919050565b611613611ade565b336000908152600d602052604090205460ff166106f45760405162461bcd60e51b815260040161073090612aef565b6106f4838383611df1565b6116578282610957565b6107435761166f816001600160a01b03166014611e23565b61167a836020611e23565b60405160200161168b929190612b21565b60408051601f198184030181529082905262461bcd60e51b825261073091600401612071565b600083838346306040516020016116cc959493929190612b79565b6040516020818303038152906040528051906020012090509392505050565b600060026116f98184612bdb565b611704600286612bdb565b61170e91906124b1565b6117189190612bef565b611723600284612bef565b61172e600286612bef565b61173891906124b1565b6106c791906124b1565b60005460ff166117645760405162461bcd60e51b815260040161073090612c2e565b565b6001600160a01b03821661178c5760405162461bcd60e51b815260040161073090612c72565b6117986000838361160b565b80600560008282546117aa91906124b1565b90915550506001600160a01b038216600090815260036020526040812080548392906117d79084906124b1565b90915550506040516001600160a01b038316906000907fddf252ad1be2c89b69c2b068fc378daa952ba7f163c4a11628f55a4df523b3ef9061181a9085906120fb565b60405180910390a361074360008383611642565b60006106c782846124b1565b825460009081908015611885578561185360018361250b565b815481106118635761186361251e565b60009182526020909120015464010000000090046001600160e01b0316611888565b60005b6001600160e01b031692506118a183858763ffffffff16565b91506000811180156118df575043866118bb60018461250b565b815481106118cb576118cb61251e565b60009182526020909120015463ffffffff16145b1561193f576118ed82611f8f565b866118f960018461250b565b815481106119095761190961251e565b9060005260206000200160000160046101000a8154816001600160e01b0302191690836001600160e01b031602179055506119aa565b85604051806040016040528061195443611529565b63ffffffff16815260200161196885611f8f565b6001600160e01b0390811690915282546001810184556000938452602093849020835194909301519091166401000000000263ffffffff909316929092179101555b50935093915050565b816001600160a01b0316836001600160a01b0316141580156119d55750600081115b156106f4576001600160a01b03831615611a5a576001600160a01b0383166000908152600b602052604081208190611a1090611bf28561183a565b91509150846001600160a01b03167fdec2bacdd2f05b59de34da9b523dff8be42e5e38e818c82fdb0bae774387a7248383604051611a4f929190612c82565b60405180910390a250505b6001600160a01b038216156106f4576001600160a01b0382166000908152600b602052604081208190611a909061182e8561183a565b91509150836001600160a01b03167fdec2bacdd2f05b59de34da9b523dff8be42e5e38e818c82fdb0bae774387a7248383604051611acf929190612c82565b60405180910390a25050505050565b60005460ff16156117645760405162461bcd60e51b815260040161073090612cc4565b6001600160a01b038216611b275760405162461bcd60e51b815260040161073090612d12565b611b338260008361160b565b6001600160a01b03821660009081526003602052604090205481811015611b6c5760405162461bcd60e51b815260040161073090612d61565b6001600160a01b0383166000908152600360205260408120838303905560058054849290611b9b90849061250b565b90915550506040516000906001600160a01b038516907fddf252ad1be2c89b69c2b068fc378daa952ba7f163c4a11628f55a4df523b3ef90611bde9086906120fb565b60405180910390a36106f483600084611642565b60006106c7828461250b565b60008282604051602001611c13929190612d71565b60405160208183030381529060405280519060200120905092915050565b6000807f7fffffffffffffffffffffffffffffff5d576e7357a4501ddfe92f46681b20a0831115611c685750600090506003611d08565b8460ff16601b14158015611c8057508460ff16601c14155b15611c915750600090506004611d08565b600060018787878760405160008152602001604052604051611cb69493929190612da2565b6020604051602081039080840390855afa158015611cd8573d6000803e3d6000fd5b5050604051601f1901519150506001600160a01b038116611d0157600060019250925050611d08565b9150600090505b94509492505050565b6000816004811115611d2557611d25612dbd565b03611d2d5750565b6001816004811115611d4157611d41612dbd565b03611d5e5760405162461bcd60e51b815260040161073090612e07565b6002816004811115611d7257611d72612dbd565b03611d8f5760405162461bcd60e51b815260040161073090612e4b565b6003816004811115611da357611da3612dbd565b03611dc05760405162461bcd60e51b815260040161073090612e9a565b6004816004811115611dd457611dd4612dbd565b0361082f5760405162461bcd60e51b815260040161073090612ee9565b6001600160a01b038381166000908152600a60205260408082205485841683529120546106f4929182169116836119b3565b60606000611e32836002612ef9565b611e3d9060026124b1565b67ffffffffffffffff811115611e5557611e55612f18565b6040519080825280601f01601f191660200182016040528015611e7f576020820181803683370190505b509050600360fc1b81600081518110611e9a57611e9a61251e565b60200101906001600160f81b031916908160001a905350600f60fb1b81600181518110611ec957611ec961251e565b60200101906001600160f81b031916908160001a9053506000611eed846002612ef9565b611ef89060016124b1565b90505b6001811115611f70576f181899199a1a9b1b9c1cb0b131b232b360811b85600f1660108110611f2c57611f2c61251e565b1a60f81b828281518110611f4257611f4261251e565b60200101906001600160f81b031916908160001a90535060049490941c93611f6981612f2e565b9050611efb565b5083156106c75760405162461bcd60e51b815260040161073090612f77565b60006001600160e01b0382111561154f5760405162461bcd60e51b815260040161073090612fcb565b6001600160e01b031981165b811461082f57600080fd5b80356105f881611fb8565b600060208284031215611fef57611fef600080fd5b6000611ffb8484611fcf565b949350505050565b8015155b82525050565b602081016105f88284612003565b60005b8381101561203657818101518382015260200161201e565b50506000910152565b6000612049825190565b80845260208401935061206081856020860161201b565b601f01601f19169290920192915050565b602080825281016106c7818461203f565b60006001600160a01b0382166105f8565b611fc481612082565b80356105f881612093565b80611fc4565b80356105f8816120a7565b600080604083850312156120ce576120ce600080fd5b60006120da858561209c565b92505060206120eb858286016120ad565b9150509250929050565b80612007565b602081016105f882846120f5565b60008060006060848603121561212157612121600080fd5b600061212d868661209c565b935050602061213e8682870161209c565b925050604061214f868287016120ad565b9150509250925092565b60006020828403121561216e5761216e600080fd5b6000611ffb84846120ad565b6000806040838503121561219057612190600080fd5b600061219c85856120ad565b92505060206120eb8582860161209c565b60ff8116612007565b602081016105f882846121ad565b6000602082840312156121d9576121d9600080fd5b6000611ffb848461209c565b61200781612082565b602081016105f882846121e5565b63ffffffff8116612007565b602081016105f882846121fc565b6000806040838503121561222c5761222c600080fd5b600061219c858561209c565b60ff8116611fc4565b80356105f881612238565b60008060008060008060c0878903121561226857612268600080fd5b6000612274898961209c565b965050602061228589828a016120ad565b955050604061229689828a016120ad565b94505060606122a789828a01612241565b93505060806122b889828a016120ad565b92505060a06122c989828a016120ad565b9150509295509295509295565b600080600080600080600060e0888a0312156122f4576122f4600080fd5b60006123008a8a61209c565b97505060206123118a828b0161209c565b96505060406123228a828b016120ad565b95505060606123338a828b016120ad565b94505060806123448a828b01612241565b93505060a06123558a828b016120ad565b92505060c06123668a828b016120ad565b91505092959891949750929550565b63ffffffff8116611fc4565b80356105f881612375565b600080604083850312156123a2576123a2600080fd5b60006123ae858561209c565b92505060206120eb85828601612381565b6001600160e01b038116612007565b805160408301906123df84826121fc565b506020820151610fc460208501826123bf565b604081016105f882846123ce565b634e487b7160e01b600052602260045260246000fd5b60028104600182168061242a57607f821691505b60208210810361160557611605612400565b602f81526000602082017f416363657373436f6e74726f6c3a2063616e206f6e6c792072656e6f756e636581526e103937b632b9903337b91039b2b63360891b602082015291505b5060400190565b602080825281016105f88161243c565b634e487b7160e01b600052601160045260246000fd5b808201808211156105f8576105f861249b565b601f81526000602082017f4552433230566f7465733a20626c6f636b206e6f7420796574206d696e656400815291505b5060200190565b602080825281016105f8816124c4565b818103818111156105f8576105f861249b565b634e487b7160e01b600052603260045260246000fd5b602581526000602082017f45524332303a2064656372656173656420616c6c6f77616e63652062656c6f77815264207a65726f60d81b60208201529150612484565b602080825281016105f881612534565b602e81526000602082017f496e697469616c697a61626c653a20636f6e747261637420697320616c72656181526d191e481a5b9a5d1a585b1a5e995960921b60208201529150612484565b602080825281016105f881612586565b603481526000602082017f696e6974546f6b656e3a2041646d696e2073686f756c642062652064696666658152733932b73a103a3430b71036b9b39739b2b73232b960611b60208201529150612484565b602080825281016105f8816125e1565b600060ff82166105f8565b61200781612642565b602081016105f8828461264d565b601d81526000602082017f4552433230566f7465733a207369676e61747572652065787069726564000000815291506124f4565b602080825281016105f881612664565b608081016126b682876120f5565b6126c360208301866121e5565b6126d060408301856120f5565b6126dd60608301846120f5565b95945050505050565b601981526000602082017f4552433230566f7465733a20696e76616c6964206e6f6e636500000000000000815291506124f4565b602080825281016105f8816126e6565b601d81526000602082017f45524332305065726d69743a206578706972656420646561646c696e65000000815291506124f4565b602080825281016105f88161272a565b60c0810161277c82896120f5565b61278960208301886121e5565b61279660408301876121e5565b6127a360608301866120f5565b6127b060808301856120f5565b6127bd60a08301846120f5565b979650505050505050565b601e81526000602082017f45524332305065726d69743a20696e76616c6964207369676e61747572650000815291506124f4565b602080825281016105f8816127c8565b602481526000602082017f45524332303a20617070726f76652066726f6d20746865207a65726f206164648152637265737360e01b60208201529150612484565b602080825281016105f88161280c565b602281526000602082017f45524332303a20617070726f766520746f20746865207a65726f206164647265815261737360f01b60208201529150612484565b602080825281016105f88161285d565b601d81526000602082017f45524332303a20696e73756666696369656e7420616c6c6f77616e6365000000815291506124f4565b602080825281016105f8816128ac565b602581526000602082017f45524332303a207472616e736665722066726f6d20746865207a65726f206164815264647265737360d81b60208201529150612484565b602080825281016105f8816128f0565b602381526000602082017f45524332303a207472616e7366657220746f20746865207a65726f206164647281526265737360e81b60208201529150612484565b602080825281016105f881612942565b602681526000602082017f45524332303a207472616e7366657220616d6f756e7420657863656564732062815265616c616e636560d01b60208201529150612484565b602080825281016105f881612992565b603081526000602082017f4552433230566f7465733a20746f74616c20737570706c79207269736b73206f81526f766572666c6f77696e6720766f74657360801b60208201529150612484565b602080825281016105f8816129e5565b602681526000602082017f53616665436173743a2076616c756520646f65736e27742066697420696e203381526532206269747360d01b60208201529150612484565b602080825281016105f881612a42565b603e81526000602082017f564d61696e546f6b656e3a20697320696e7472616e7366657261626c6520756e81527f6c657373207468652073656e6465722069732077686974656c6973746564000060208201529150612484565b602080825281016105f881612a95565b6000612b09825190565b612b1781856020860161201b565b9290920192915050565b7f416363657373436f6e74726f6c3a206163636f756e742000000000000000000081526017016000612b538285612aff565b7001034b99036b4b9b9b4b733903937b6329607d1b81526011019150611ffb8284612aff565b60a08101612b8782886120f5565b612b9460208301876120f5565b612ba160408301866120f5565b612bae60608301856120f5565b612bbb60808301846121e5565b9695505050505050565b634e487b7160e01b600052601260045260246000fd5b600082612bea57612bea612bc5565b500690565b600082612bfe57612bfe612bc5565b500490565b601481526000602082017314185d5cd8589b194e881b9bdd081c185d5cd95960621b815291506124f4565b602080825281016105f881612c03565b601f81526000602082017f45524332303a206d696e7420746f20746865207a65726f206164647265737300815291506124f4565b602080825281016105f881612c3e565b60408101612c9082856120f5565b6106c760208301846120f5565b601081526000602082016f14185d5cd8589b194e881c185d5cd95960821b815291506124f4565b602080825281016105f881612c9d565b602181526000602082017f45524332303a206275726e2066726f6d20746865207a65726f206164647265738152607360f81b60208201529150612484565b602080825281016105f881612cd4565b602281526000602082017f45524332303a206275726e20616d6f756e7420657863656564732062616c616e815261636560f01b60208201529150612484565b602080825281016105f881612d22565b61190160f01b81526002016000612d8882856120f5565b602082019150612d9882846120f5565b5060200192915050565b60808101612db082876120f5565b6126c360208301866121ad565b634e487b7160e01b600052602160045260246000fd5b601881526000602082017f45434453413a20696e76616c6964207369676e61747572650000000000000000815291506124f4565b602080825281016105f881612dd3565b601f81526000602082017f45434453413a20696e76616c6964207369676e6174757265206c656e67746800815291506124f4565b602080825281016105f881612e17565b602281526000602082017f45434453413a20696e76616c6964207369676e6174757265202773272076616c815261756560f01b60208201529150612484565b602080825281016105f881612e5b565b602281526000602082017f45434453413a20696e76616c6964207369676e6174757265202776272076616c815261756560f01b60208201529150612484565b602080825281016105f881612eaa565b6000816000190483118215151615612f1357612f1361249b565b500290565b634e487b7160e01b600052604160045260246000fd5b600081612f3d57612f3d61249b565b506000190190565b60208082527f537472696e67733a20686578206c656e67746820696e73756666696369656e74910190815260006124f4565b602080825281016105f881612f45565b602781526000602082017f53616665436173743a2076616c756520646f65736e27742066697420696e20328152663234206269747360c81b60208201529150612484565b602080825281016105f881612f8756fe65d7a28e3265b37a6474929f336521b332c1681b933f6cb9f3376673440d862a9f2df0fed2c77648de5860a4cc508cd0818c85b8b8a1ab4ceeef8d981c8956a6a26469706673582212204f80dcb6bfda260db4949bafb11681bb542e21335345a8a8f94148c283d9a7c864736f6c63430008100033",
    "immutableReferences": {
        "5681": [
            {
                "length": 32,
                "start": 4548
            }
        ],
        "5683": [
            {
                "length": 32,
                "start": 4506
            }
        ],
        "5685": [
            {
                "length": 32,
                "start": 4464
            }
        ],
        "5687": [
            {
                "length": 32,
                "start": 4620
            }
        ],
        "5689": [
            {
                "length": 32,
                "start": 4653
            }
        ],
        "5691": [
            {
                "length": 32,
                "start": 4587
            }
        ]
    },
    "source": "// SPDX-License-Identifier: MIT\n// Copyright Fathom 2022\n\npragma solidity 0.8.16;\n\nimport \"../../common/security/Pausable.sol\";\nimport \"../../common/access/AccessControl.sol\";\nimport \"./ERC20/extensions/ERC20Votes.sol\";\nimport \"./IVMainToken.sol\";\nimport \"@openzeppelin/contracts/proxy/utils/Initializable.sol\";\n\ncontract VMainToken is IVMainToken, Pausable, AccessControl, Initializable, ERC20Votes {\n    bytes32 public constant PAUSER_ROLE = keccak256(\"PAUSER_ROLE\");\n    bytes32 public constant MINTER_ROLE = keccak256(\"MINTER_ROLE\");\n    bytes32 public constant WHITELISTER_ROLE = keccak256(\"WHITELISTER_ROLE\");\n    // Mapping to keep track of who is allowed to transfer voting tokens\n    mapping(address => bool) public isWhiteListed;\n\n    constructor(string memory name_, string memory symbol_) ERC20Votes(name_, symbol_) {\n        _grantRole(DEFAULT_ADMIN_ROLE, msg.sender);\n    }\n\n    function initToken(address _admin, address _minter) public override initializer onlyRole(DEFAULT_ADMIN_ROLE) {\n        require(_admin != msg.sender, \"initToken: Admin should be different than msg.sender\");\n        _grantRole(DEFAULT_ADMIN_ROLE, _admin);\n        _grantRole(PAUSER_ROLE, _admin);\n        _grantRole(MINTER_ROLE, _minter);\n        _grantRole(WHITELISTER_ROLE, _admin);\n\n        _revokeRole(DEFAULT_ADMIN_ROLE, msg.sender);\n\n        isWhiteListed[_minter] = true;\n        emit MemberAddedToWhitelist(_minter);\n    }\n\n    function grantMinterRole(address _minter) public override onlyRole(getRoleAdmin(MINTER_ROLE)) {\n        _grantRole(MINTER_ROLE, _minter);\n        _addToWhitelist(_minter);\n    }\n\n    function revokeMinterRole(address _minter) public override onlyRole(getRoleAdmin(MINTER_ROLE)) {\n        _revokeRole(MINTER_ROLE, _minter);\n        _removeFromWhitelist(_minter);\n    }\n\n    function _addToWhitelist(address _toAdd) internal {\n        isWhiteListed[_toAdd] = true;\n        emit MemberAddedToWhitelist(_toAdd);\n    }\n\n    function _removeFromWhitelist(address _toRemove) internal {\n        isWhiteListed[_toRemove] = false;\n        emit MemberRemovedFromWhitelist(_toRemove);\n    }\n\n    function pause() public override onlyRole(PAUSER_ROLE) {\n        _pause();\n    }\n\n    function unpause() public override onlyRole(PAUSER_ROLE) {\n        _unpause();\n    }\n\n    function mint(address to, uint256 amount) public override onlyRole(MINTER_ROLE) {\n        _mint(to, amount);\n        _delegate(to, to);\n    }\n\n    function burn(address account, uint256 amount) public override onlyRole(MINTER_ROLE) {\n        _burn(account, amount);\n    }\n\n    function _beforeTokenTransfer(\n        address from,\n        address to,\n        uint256 amount\n    ) internal override whenNotPaused {\n        require(isWhiteListed[msg.sender], \"VMainToken: is intransferable unless the sender is whitelisted\");\n        super._beforeTokenTransfer(from, to, amount);\n    }\n\n    function _afterTokenTransfer(\n        address from,\n        address to,\n        uint256 amount\n    ) internal override {\n        super._afterTokenTransfer(from, to, amount);\n    }\n}\n",
    "sourcePath": "/Users/subiksinghshrestha/Documents/FATHOM/fathom-dao-smart-contracts/contracts/dao/tokens/VMainToken.sol",
    "compiler": {
        "name": "solc",
        "version": "0.8.16+commit.07a7930e.Darwin.appleclang"
    },
    "schemaVersion": "3.4.10",
    "updatedAt": "2023-02-04T08:03:32.034Z",
    "devdoc": {
        "kind": "dev",
        "methods": {
            "getRoleAdmin(bytes32)": {
                "details": "Returns the admin role that controls `role`. See {grantRole} and {revokeRole}. To change a role's admin, use {_setRoleAdmin}."
            },
            "grantRole(bytes32,address)": {
                "details": "Grants `role` to `account`. If `account` had not been already granted `role`, emits a {RoleGranted} event. Requirements: - the caller must have ``role``'s admin role. May emit a {RoleGranted} event."
            },
            "hasRole(bytes32,address)": {
                "details": "Returns `true` if `account` has been granted `role`."
            },
            "paused()": {
                "details": "Returns true if the contract is paused, and false otherwise."
            },
            "renounceRole(bytes32,address)": {
                "details": "Revokes `role` from the calling account. Roles are often managed via {grantRole} and {revokeRole}: this function's purpose is to provide a mechanism for accounts to lose their privileges if they are compromised (such as when a trusted device is misplaced). If the calling account had been revoked `role`, emits a {RoleRevoked} event. Requirements: - the caller must be `account`. May emit a {RoleRevoked} event."
            },
            "revokeRole(bytes32,address)": {
                "details": "Revokes `role` from `account`. If `account` had been granted `role`, emits a {RoleRevoked} event. Requirements: - the caller must have ``role``'s admin role. May emit a {RoleRevoked} event."
            },
            "supportsInterface(bytes4)": {
                "details": "See {IERC165-supportsInterface}."
            }
        },
        "version": 1
    },
    "userdoc": {
        "kind": "user",
        "methods": {},
        "version": 1
    }
}